{
  "_format": "hh-sol-artifact-1",
  "contractName": "IdentityRegistry",
  "sourceName": "contracts/registry/implementation/IdentityRegistry.sol",
  "abi": [
    {
      "anonymous": false,
      "inputs": [
        {
          "indexed": true,
          "internalType": "address",
          "name": "_agent",
          "type": "address"
        }
      ],
      "name": "AgentAdded",
      "type": "event"
    },
    {
      "anonymous": false,
      "inputs": [
        {
          "indexed": true,
          "internalType": "address",
          "name": "_agent",
          "type": "address"
        }
      ],
      "name": "AgentRemoved",
      "type": "event"
    },
    {
      "anonymous": false,
      "inputs": [
        {
          "indexed": true,
          "internalType": "address",
          "name": "claimTopicsRegistry",
          "type": "address"
        }
      ],
      "name": "ClaimTopicsRegistrySet",
      "type": "event"
    },
    {
      "anonymous": false,
      "inputs": [
        {
          "indexed": true,
          "internalType": "address",
          "name": "investorAddress",
          "type": "address"
        },
        {
          "indexed": true,
          "internalType": "uint16",
          "name": "country",
          "type": "uint16"
        }
      ],
      "name": "CountryUpdated",
      "type": "event"
    },
    {
      "anonymous": false,
      "inputs": [
        {
          "indexed": true,
          "internalType": "address",
          "name": "investorAddress",
          "type": "address"
        },
        {
          "indexed": true,
          "internalType": "contract IIdentity",
          "name": "identity",
          "type": "address"
        }
      ],
      "name": "IdentityRegistered",
      "type": "event"
    },
    {
      "anonymous": false,
      "inputs": [
        {
          "indexed": true,
          "internalType": "address",
          "name": "investorAddress",
          "type": "address"
        },
        {
          "indexed": true,
          "internalType": "contract IIdentity",
          "name": "identity",
          "type": "address"
        }
      ],
      "name": "IdentityRemoved",
      "type": "event"
    },
    {
      "anonymous": false,
      "inputs": [
        {
          "indexed": true,
          "internalType": "address",
          "name": "identityStorage",
          "type": "address"
        }
      ],
      "name": "IdentityStorageSet",
      "type": "event"
    },
    {
      "anonymous": false,
      "inputs": [
        {
          "indexed": true,
          "internalType": "contract IIdentity",
          "name": "oldIdentity",
          "type": "address"
        },
        {
          "indexed": true,
          "internalType": "contract IIdentity",
          "name": "newIdentity",
          "type": "address"
        }
      ],
      "name": "IdentityUpdated",
      "type": "event"
    },
    {
      "anonymous": false,
      "inputs": [
        {
          "indexed": false,
          "internalType": "uint8",
          "name": "version",
          "type": "uint8"
        }
      ],
      "name": "Initialized",
      "type": "event"
    },
    {
      "anonymous": false,
      "inputs": [
        {
          "indexed": true,
          "internalType": "address",
          "name": "previousOwner",
          "type": "address"
        },
        {
          "indexed": true,
          "internalType": "address",
          "name": "newOwner",
          "type": "address"
        }
      ],
      "name": "OwnershipTransferred",
      "type": "event"
    },
    {
      "anonymous": false,
      "inputs": [
        {
          "indexed": true,
          "internalType": "address",
          "name": "trustedIssuersRegistry",
          "type": "address"
        }
      ],
      "name": "TrustedIssuersRegistrySet",
      "type": "event"
    },
    {
      "inputs": [
        {
          "internalType": "address",
          "name": "_agent",
          "type": "address"
        }
      ],
      "name": "addAgent",
      "outputs": [],
      "stateMutability": "nonpayable",
      "type": "function"
    },
    {
      "inputs": [
        {
          "internalType": "address[]",
          "name": "_userAddresses",
          "type": "address[]"
        },
        {
          "internalType": "contract IIdentity[]",
          "name": "_identities",
          "type": "address[]"
        },
        {
          "internalType": "uint16[]",
          "name": "_countries",
          "type": "uint16[]"
        }
      ],
      "name": "batchRegisterIdentity",
      "outputs": [],
      "stateMutability": "nonpayable",
      "type": "function"
    },
    {
      "inputs": [
        {
          "internalType": "address",
          "name": "_userAddress",
          "type": "address"
        }
      ],
      "name": "contains",
      "outputs": [
        {
          "internalType": "bool",
          "name": "",
          "type": "bool"
        }
      ],
      "stateMutability": "view",
      "type": "function"
    },
    {
      "inputs": [
        {
          "internalType": "address",
          "name": "_userAddress",
          "type": "address"
        }
      ],
      "name": "deleteIdentity",
      "outputs": [],
      "stateMutability": "nonpayable",
      "type": "function"
    },
    {
      "inputs": [
        {
          "internalType": "address",
          "name": "_userAddress",
          "type": "address"
        }
      ],
      "name": "identity",
      "outputs": [
        {
          "internalType": "contract IIdentity",
          "name": "",
          "type": "address"
        }
      ],
      "stateMutability": "view",
      "type": "function"
    },
    {
      "inputs": [],
      "name": "identityStorage",
      "outputs": [
        {
          "internalType": "contract IIdentityRegistryStorage",
          "name": "",
          "type": "address"
        }
      ],
      "stateMutability": "view",
      "type": "function"
    },
    {
      "inputs": [
        {
          "internalType": "address",
          "name": "_trustedIssuersRegistry",
          "type": "address"
        },
        {
          "internalType": "address",
          "name": "_claimTopicsRegistry",
          "type": "address"
        },
        {
          "internalType": "address",
          "name": "_identityStorage",
          "type": "address"
        }
      ],
      "name": "init",
      "outputs": [],
      "stateMutability": "nonpayable",
      "type": "function"
    },
    {
      "inputs": [
        {
          "internalType": "address",
          "name": "_userAddress",
          "type": "address"
        }
      ],
      "name": "investorCountry",
      "outputs": [
        {
          "internalType": "uint16",
          "name": "",
          "type": "uint16"
        }
      ],
      "stateMutability": "view",
      "type": "function"
    },
    {
      "inputs": [
        {
          "internalType": "address",
          "name": "_agent",
          "type": "address"
        }
      ],
      "name": "isAgent",
      "outputs": [
        {
          "internalType": "bool",
          "name": "",
          "type": "bool"
        }
      ],
      "stateMutability": "view",
      "type": "function"
    },
    {
      "inputs": [
        {
          "internalType": "address",
          "name": "_userAddress",
          "type": "address"
        }
      ],
      "name": "isVerified",
      "outputs": [
        {
          "internalType": "bool",
          "name": "",
          "type": "bool"
        }
      ],
      "stateMutability": "view",
      "type": "function"
    },
    {
      "inputs": [],
      "name": "issuersRegistry",
      "outputs": [
        {
          "internalType": "contract ITrustedIssuersRegistry",
          "name": "",
          "type": "address"
        }
      ],
      "stateMutability": "view",
      "type": "function"
    },
    {
      "inputs": [],
      "name": "owner",
      "outputs": [
        {
          "internalType": "address",
          "name": "",
          "type": "address"
        }
      ],
      "stateMutability": "view",
      "type": "function"
    },
    {
      "inputs": [
        {
          "internalType": "address",
          "name": "_userAddress",
          "type": "address"
        },
        {
          "internalType": "contract IIdentity",
          "name": "_identity",
          "type": "address"
        },
        {
          "internalType": "uint16",
          "name": "_country",
          "type": "uint16"
        }
      ],
      "name": "registerIdentity",
      "outputs": [],
      "stateMutability": "nonpayable",
      "type": "function"
    },
    {
      "inputs": [
        {
          "internalType": "address",
          "name": "_agent",
          "type": "address"
        }
      ],
      "name": "removeAgent",
      "outputs": [],
      "stateMutability": "nonpayable",
      "type": "function"
    },
    {
      "inputs": [],
      "name": "renounceOwnership",
      "outputs": [],
      "stateMutability": "nonpayable",
      "type": "function"
    },
    {
      "inputs": [
        {
          "internalType": "address",
          "name": "_claimTopicsRegistry",
          "type": "address"
        }
      ],
      "name": "setClaimTopicsRegistry",
      "outputs": [],
      "stateMutability": "nonpayable",
      "type": "function"
    },
    {
      "inputs": [
        {
          "internalType": "address",
          "name": "_identityRegistryStorage",
          "type": "address"
        }
      ],
      "name": "setIdentityRegistryStorage",
      "outputs": [],
      "stateMutability": "nonpayable",
      "type": "function"
    },
    {
      "inputs": [
        {
          "internalType": "address",
          "name": "_trustedIssuersRegistry",
          "type": "address"
        }
      ],
      "name": "setTrustedIssuersRegistry",
      "outputs": [],
      "stateMutability": "nonpayable",
      "type": "function"
    },
    {
      "inputs": [],
      "name": "topicsRegistry",
      "outputs": [
        {
          "internalType": "contract IClaimTopicsRegistry",
          "name": "",
          "type": "address"
        }
      ],
      "stateMutability": "view",
      "type": "function"
    },
    {
      "inputs": [
        {
          "internalType": "address",
          "name": "newOwner",
          "type": "address"
        }
      ],
      "name": "transferOwnership",
      "outputs": [],
      "stateMutability": "nonpayable",
      "type": "function"
    },
    {
      "inputs": [
        {
          "internalType": "address",
          "name": "_userAddress",
          "type": "address"
        },
        {
          "internalType": "uint16",
          "name": "_country",
          "type": "uint16"
        }
      ],
      "name": "updateCountry",
      "outputs": [],
      "stateMutability": "nonpayable",
      "type": "function"
    },
    {
      "inputs": [
        {
          "internalType": "address",
          "name": "_userAddress",
          "type": "address"
        },
        {
          "internalType": "contract IIdentity",
          "name": "_identity",
          "type": "address"
        }
      ],
      "name": "updateIdentity",
      "outputs": [],
      "stateMutability": "nonpayable",
      "type": "function"
    }
  ],
  "bytecode": "0x60808060405234610016576117f1908161001c8239f35b600080fdfe6080604081815260048036101561001557600080fd5b600092833560e01c908163184b955914610b95575080631ffbb06414610b6f57806326d941ae14610b075780633b239a7f14610a455780633b3e12f414610a1c578063454a03e0146109485780635dbe47e814610922578063653dc9f1146107ad578063670af6a914610745578063715018a6146106e75780637e42683b1461063757806384e79842146105635780638da5cb5b1461053a5780638e098ca11461047457806397a6278e14610398578063a8d29d1d146102d0578063b4f3fcb7146102a7578063b9209e3314610278578063e744d7891461020d578063f0eb5e54146101d6578063f11abfd8146101a95763f2fde38b1461011557600080fd5b346101a55760203660031901126101a55761012e610dbf565b91610137610e1c565b6001600160a01b03831615610153578361015084610e74565b80f35b906020608492519162461bcd60e51b8352820152602660248201527f4f776e61626c653a206e6577206f776e657220697320746865207a65726f206160448201526564647265737360d01b6064820152fd5b8280fd5b5050346101d257816003193601126101d25760685490516001600160a01b039091168152602090f35b5080fd5b5050346101d25760203660031901126101d2576020906101fc6101f7610dbf565b6116be565b90516001600160a01b039091168152f35b833461027557602036600319011261027557610227610dbf565b61022f610e1c565b606780546001600160a01b0319166001600160a01b039290921691821790557f1b98cb79e6f73020175fe87333f1b91ad6a881519c0afe30340c2599b2b4bde08280a280f35b80fd5b5050346101d25760203660031901126101d25760209061029e610299610dbf565b61113b565b90519015158152f35b5050346101d257816003193601126101d25760675490516001600160a01b039091168152602090f35b5090346101a55760203660031901126101a5576102eb610dbf565b6102fc6102f733611748565b610fb4565b83610306826116be565b6068546001600160a01b039491939085169190823b1561038b578560248592838551968794859363cf191bcd60e01b855216809c8401525af190811561038f5750610377575b505016907f59d6590e225b81befe259af056324092801080acbb7feab310eb34678871f3278380a380f35b61038090611017565b61038b57833861034c565b8380fd5b513d84823e3d90fd5b50346101a55760203660031901126101a5576103b2610dbf565b906103bb610e1c565b6001600160a01b038216926103d1841515610ebd565b6103da83611748565b156104275750506001600160a01b03166000908152606560205260409020805460ff191690557fed9c8ad8d5a0a66898ea49d2956929c93ae2e8bd50281b2ed897c5d1a6737e0b8280a280f35b906020608492519162461bcd60e51b8352820152602160248201527f526f6c65733a206163636f756e7420646f6573206e6f74206861766520726f6c6044820152606560f81b6064820152fd5b50346101a557816003193601126101a55761048d610dbf565b9183610497610dd5565b926104a46102f733611748565b6104ad856116be565b9260018060a01b0394856068541696873b1561053657604487918683819587519889968795637402e7c360e11b87521690850152169a8b60248401525af190811561038f5750610522575b5050167fe98082932c8056a0f514da9104e4a66bc2cbaef102ad59d90c4b24220ebf60108380a380f35b61052b90611017565b61038b5783386104f8565b8480fd5b5050346101d257816003193601126101d25760335490516001600160a01b039091168152602090f35b50346101a55760203660031901126101a55761057d610dbf565b90610586610e1c565b6001600160a01b0382169261059c841515610ebd565b6105a583611748565b6105f45750506001600160a01b03166000908152606560205260409020805460ff191660011790557ff68e73cec97f2d70aa641fb26e87a4383686e2efacb648f2165aeb02ac562ec58280a280f35b906020606492519162461bcd60e51b8352820152601f60248201527f526f6c65733a206163636f756e7420616c72656164792068617320726f6c65006044820152fd5b5090346101a557602092836003193601126102755783610655610dbf565b6068548451631c9f84ef60e21b81526001600160a01b039283169681019690965285916024918391165afa9283156106db57819361069b575b505061ffff905191168152f35b909192508381813d83116106d4575b6106b48183611041565b810103126101d257519061ffff8216820361027557509061ffff3861068e565b503d6106aa565b509051903d90823e3d90fd5b8334610275578060031936011261027557610700610e1c565b603380546001600160a01b031981169091556000906001600160a01b03167f8be0079c531659141344cd1fd0a4f28419497f9722a3daafe3b4186f6b6457e08280a380f35b83346102755760203660031901126102755761075f610dbf565b610767610e1c565b606680546001600160a01b0319166001600160a01b039290921691821790557f7170bf15b246e880b2369cd7c67d057760d8a35149e8c64dde91efa22bcc76d08280a280f35b50346101a55760603660031901126101a55767ffffffffffffffff908035828111610536576107df9036908301610deb565b9290938560249283358181116101a5576107fc9036908701610deb565b956044928335908111610536576108169036908301610deb565b9098855b818110610825578680f35b61083081838e610f8e565b356001600160a01b03818116929183900361090c57610850828d89610f8e565b359080821680920361091e57610868838f8890610f8e565b359061ffff821680920361091a576108826102f733611748565b6068541690813b1561091a57846064898f948f908f958f89889451998a98899763a53410dd60e01b89528801528601528401525af1801561091057908a916108f8575b50927f6ae73635c50d24a45af6fbd5e016ac4bed179addbc8bf24e04ff0fcc6d33af19846108f395a3610f69565b61081a565b61090190611017565b61090c5788386108c5565b8880fd5b8b513d8c823e3d90fd5b8a80fd5b8980fd5b5050346101d25760203660031901126101d25760209061029e610943610dbf565b61169c565b50346101a55760603660031901126101a557610962610dbf565b61096a610dd5565b6044359361ffff8516809503610a175785926109886102f733611748565b6068546001600160a01b03908116803b15610a1357859283606492848751988996879563a53410dd60e01b875216809c860152169a8b602485015260448401525af190811561038f57506109ff575b50807f6ae73635c50d24a45af6fbd5e016ac4bed179addbc8bf24e04ff0fcc6d33af1991a380f35b610a0890611017565b6101a55782386109d7565b8580fd5b600080fd5b5050346101d257816003193601126101d25760665490516001600160a01b039091168152602090f35b50346101a557816003193601126101a557610a5e610dbf565b6024359261ffff841680940361053657610a7a6102f733611748565b6068546001600160a01b0390811692869190843b156101a5576044908385519687948593639f3418d560e01b85521680998401528960248401525af1908115610afe5750610aeb575b507f04ed3b726495c2dca1ff1215d9ca54e1a4030abb5e82b0f6ce55702416cee8538380a380f35b610af790939193611017565b9138610ac3565b513d86823e3d90fd5b833461027557602036600319011261027557610b21610dbf565b610b29610e1c565b606880546001600160a01b0319166001600160a01b039290921691821790557f2fa8b95c1db7afe99e3398f3792f008135cedc1fa26b0bb2ecd2352cd166d53c8280a280f35b5050346101d25760203660031901126101d25760209061029e610b90610dbf565b611748565b90503461038b57606036600319011261038b57610bb0610dbf565b90610bb9610dd5565b906044359260018060a01b0391828516809503610dbb5787549060ff8260081c161596878098610dae575b8015610d97575b15610d3f57505060ff198116600117885582919086610d2e575b50169182151580610d23575b80610d1a575b610c2090610ebd565b16826bffffffffffffffffffffffff60a01b828160665416176066558381606754161760675560685416176068557f7170bf15b246e880b2369cd7c67d057760d8a35149e8c64dde91efa22bcc76d08680a27f1b98cb79e6f73020175fe87333f1b91ad6a881519c0afe30340c2599b2b4bde08580a27f2fa8b95c1db7afe99e3398f3792f008135cedc1fa26b0bb2ecd2352cd166d53c8480a2610cd360ff845460081c16610cce81610f09565b610f09565b610cdc33610e74565b610ce4575080f35b60207f7f26b83ff96e1f2b6a682f133852f6798a09c465da95921460cefb38474024989161ff001984541684555160018152a180f35b50831515610c17565b508181161515610c11565b61ffff191661010117885538610c05565b62461bcd60e51b8252602090820152602e60248201527f496e697469616c697a61626c653a20636f6e747261637420697320616c72656160448201526d191e481a5b9a5d1a585b1a5e995960921b6064820152608490fd5b50303b158015610beb5750600160ff841614610beb565b50600160ff841610610be4565b8780fd5b600435906001600160a01b0382168203610a1757565b602435906001600160a01b0382168203610a1757565b9181601f84011215610a175782359167ffffffffffffffff8311610a17576020808501948460051b010111610a1757565b6033546001600160a01b03163303610e3057565b606460405162461bcd60e51b815260206004820152602060248201527f4f776e61626c653a2063616c6c6572206973206e6f7420746865206f776e65726044820152fd5b603380546001600160a01b039283166001600160a01b0319821681179092559091167f8be0079c531659141344cd1fd0a4f28419497f9722a3daafe3b4186f6b6457e0600080a3565b15610ec457565b60405162461bcd60e51b815260206004820152601f60248201527f696e76616c696420617267756d656e74202d207a65726f2061646472657373006044820152606490fd5b15610f1057565b60405162461bcd60e51b815260206004820152602b60248201527f496e697469616c697a61626c653a20636f6e7472616374206973206e6f74206960448201526a6e697469616c697a696e6760a81b6064820152608490fd5b6000198114610f785760010190565b634e487b7160e01b600052601160045260246000fd5b9190811015610f9e5760051b0190565b634e487b7160e01b600052603260045260246000fd5b15610fbb57565b60405162461bcd60e51b815260206004820152602e60248201527f4167656e74526f6c653a2063616c6c657220646f6573206e6f7420686176652060448201526d746865204167656e7420726f6c6560901b6064820152608490fd5b67ffffffffffffffff811161102b57604052565b634e487b7160e01b600052604160045260246000fd5b90601f8019910116810190811067ffffffffffffffff82111761102b57604052565b67ffffffffffffffff811161102b5760051b60200190565b8051821015610f9e5760209160051b010190565b60005b8381106110a25750506000910152565b8181015183820152602001611092565b9092919267ffffffffffffffff811161102b57604051916110dd601f8301601f191660200184611041565b829482845282820111610a175760206110f793019061108f565b565b9080601f83011215610a17578151611113926020016110b2565b90565b9060209161112f8151809281855285808601910161108f565b601f01601f1916010190565b6001600160a01b03918261114e836116be565b161561169457826066541660408051809581936337c2758160e21b835260009283916004998a915afa93841561168a5782946115f8575b508351156115ec5781908060675416955b85518310156115de576111a9838761107b565b51908551916352c111d160e01b83528a83015284826024818b5afa9182156115d4578592611535575b508151978815611527576111e589611063565b986111f288519a8b611041565b808a52611201601f1991611063565b013660208b0137855b8351811015611285578461121e828661107b565b511661122a878b61107b565b51895190602082019283528a8201528981526060810181811067ffffffffffffffff821117611272578a5251902061126d9190611267828d61107b565b52610f69565b61120a565b634e487b7160e01b8a5260418f5260248afd5b50909994979592989150875b865181101561150d57896112a4846116be565b16896112b0838a61107b565b51602487518094819363c9100bcb60e01b83528c8301525afa8015611503578786928d8d8d898c968384968592611442575b506112ed898561107b565b510361141c5761133f859461131060209a61130a611351966116be565b9661107b565b519a519a8b998a98899763604b4d3760e11b895216908701526024860152608060448601526084850190611116565b83810360031901606485015290611116565b0392165afa8a91816113df575b506113a65750865160001981019081116113935781146113865761138190610f69565b611291565b5050505050505050905090565b634e487b7160e01b8a526011875260248afd5b806113d6575b15806113c0575b6113865761138190610f69565b50865160001981019081116113935781146113b3565b875191506113ac565b9091506020813d602011611414575b816113fb60209383611041565b8101031261091a5751801515810361091a57903861135e565b3d91506113ee565b505050505050505050865160001981019081116113935781146113865761138190610f69565b99505050505050505050503d808b833e61145c8183611041565b81019060c08183031261091a57805186820151908d821682036114ff5760608301519367ffffffffffffffff948581116114f7578161149c9186016110f9565b9460808501518181116114fb57826114b59187016110f9565b9460a08101519182116114fb570181601f820112156114f757938f91898f91958c98958f978f99908160206114ec935191016110b2565b5090959390386112e2565b8e80fd5b8f80fd5b8c80fd5b85513d8c823e3d90fd5b5092611520919892955098969398610f69565b9195611196565b509850505050935050505090565b9091503d8086833e6115478183611041565b81019060209081818403126115d05780519067ffffffffffffffff8211610dbb57019180601f840112156115d057825161158081611063565b9361158d8a519586611041565b818552838086019260051b82010192831161090c578301905b8282106115b8575050505090386111d2565b8151878116810361091e5781529083019083016115a6565b8680fd5b86513d87823e3d90fd5b975050505050505050600190565b50505050915050600190565b9093503d8083833e61160a8183611041565b810190602090818184031261038b5780519067ffffffffffffffff821161053657019180601f8401121561038b57825161164381611063565b9361165087519586611041565b818552838086019260051b820101928311610a13578301905b82821061167b57505050509238611185565b81518152908301908301611669565b83513d84823e3d90fd5b915050600090565b6001600160a01b03906116ae906116be565b16156116b957600190565b600090565b606854604051637988d3a560e01b81526001600160a01b039283166004820152906020908290602490829086165afa90811561173c57600091611702575b50905090565b6020813d8211611734575b8161171a60209383611041565b810103126101d257519182168203610275575080386116fc565b3d915061170d565b6040513d6000823e3d90fd5b6001600160a01b0316801561176b57600052606560205260ff6040600020541690565b60405162461bcd60e51b815260206004820152602260248201527f526f6c65733a206163636f756e7420697320746865207a65726f206164647265604482015261737360f01b6064820152608490fdfea26469706673582212204b58285906f60cb365c3ddc736542d9a7bb15c2f26097a8b416c517a4b20e15464736f6c63430008110033",
  "linkReferences": {},
  "deployedLinkReferences": {}
}