{
  "_format": "hh-sol-artifact-1",
  "contractName": "TimeTransfersLimitsModule",
  "sourceName": "contracts/compliance/modular/modules/TimeTransfersLimitsModule.sol",
  "abi": [
    {
      "inputs": [
        {
          "internalType": "address",
          "name": "compliance",
          "type": "address"
        },
        {
          "internalType": "uint256",
          "name": "arraySize",
          "type": "uint256"
        }
      ],
      "name": "LimitsArraySizeExceeded",
      "type": "error"
    },
    {
      "anonymous": false,
      "inputs": [
        {
          "indexed": false,
          "internalType": "address",
          "name": "previousAdmin",
          "type": "address"
        },
        {
          "indexed": false,
          "internalType": "address",
          "name": "newAdmin",
          "type": "address"
        }
      ],
      "name": "AdminChanged",
      "type": "event"
    },
    {
      "anonymous": false,
      "inputs": [
        {
          "indexed": true,
          "internalType": "address",
          "name": "beacon",
          "type": "address"
        }
      ],
      "name": "BeaconUpgraded",
      "type": "event"
    },
    {
      "anonymous": false,
      "inputs": [
        {
          "indexed": true,
          "internalType": "address",
          "name": "_compliance",
          "type": "address"
        }
      ],
      "name": "ComplianceBound",
      "type": "event"
    },
    {
      "anonymous": false,
      "inputs": [
        {
          "indexed": true,
          "internalType": "address",
          "name": "_compliance",
          "type": "address"
        }
      ],
      "name": "ComplianceUnbound",
      "type": "event"
    },
    {
      "anonymous": false,
      "inputs": [
        {
          "indexed": false,
          "internalType": "uint8",
          "name": "version",
          "type": "uint8"
        }
      ],
      "name": "Initialized",
      "type": "event"
    },
    {
      "anonymous": false,
      "inputs": [
        {
          "indexed": true,
          "internalType": "address",
          "name": "previousOwner",
          "type": "address"
        },
        {
          "indexed": true,
          "internalType": "address",
          "name": "newOwner",
          "type": "address"
        }
      ],
      "name": "OwnershipTransferred",
      "type": "event"
    },
    {
      "anonymous": false,
      "inputs": [
        {
          "indexed": true,
          "internalType": "address",
          "name": "compliance",
          "type": "address"
        },
        {
          "indexed": false,
          "internalType": "uint32",
          "name": "limitTime",
          "type": "uint32"
        },
        {
          "indexed": false,
          "internalType": "uint256",
          "name": "limitValue",
          "type": "uint256"
        }
      ],
      "name": "TimeTransferLimitUpdated",
      "type": "event"
    },
    {
      "anonymous": false,
      "inputs": [
        {
          "indexed": true,
          "internalType": "address",
          "name": "implementation",
          "type": "address"
        }
      ],
      "name": "Upgraded",
      "type": "event"
    },
    {
      "inputs": [
        {
          "internalType": "address",
          "name": "_compliance",
          "type": "address"
        }
      ],
      "name": "bindCompliance",
      "outputs": [],
      "stateMutability": "nonpayable",
      "type": "function"
    },
    {
      "inputs": [
        {
          "internalType": "address",
          "name": "",
          "type": "address"
        }
      ],
      "name": "canComplianceBind",
      "outputs": [
        {
          "internalType": "bool",
          "name": "",
          "type": "bool"
        }
      ],
      "stateMutability": "view",
      "type": "function"
    },
    {
      "inputs": [
        {
          "internalType": "address",
          "name": "_compliance",
          "type": "address"
        }
      ],
      "name": "getTimeTransferLimits",
      "outputs": [
        {
          "components": [
            {
              "internalType": "uint32",
              "name": "limitTime",
              "type": "uint32"
            },
            {
              "internalType": "uint256",
              "name": "limitValue",
              "type": "uint256"
            }
          ],
          "internalType": "struct TimeTransfersLimitsModule.Limit[]",
          "name": "limits",
          "type": "tuple[]"
        }
      ],
      "stateMutability": "view",
      "type": "function"
    },
    {
      "inputs": [],
      "name": "initialize",
      "outputs": [],
      "stateMutability": "nonpayable",
      "type": "function"
    },
    {
      "inputs": [
        {
          "internalType": "address",
          "name": "_compliance",
          "type": "address"
        }
      ],
      "name": "isComplianceBound",
      "outputs": [
        {
          "internalType": "bool",
          "name": "",
          "type": "bool"
        }
      ],
      "stateMutability": "view",
      "type": "function"
    },
    {
      "inputs": [],
      "name": "isPlugAndPlay",
      "outputs": [
        {
          "internalType": "bool",
          "name": "",
          "type": "bool"
        }
      ],
      "stateMutability": "pure",
      "type": "function"
    },
    {
      "inputs": [
        {
          "internalType": "address",
          "name": "",
          "type": "address"
        },
        {
          "internalType": "uint32",
          "name": "",
          "type": "uint32"
        }
      ],
      "name": "limitValues",
      "outputs": [
        {
          "internalType": "bool",
          "name": "attributedLimit",
          "type": "bool"
        },
        {
          "internalType": "uint8",
          "name": "limitIndex",
          "type": "uint8"
        }
      ],
      "stateMutability": "view",
      "type": "function"
    },
    {
      "inputs": [
        {
          "internalType": "address",
          "name": "_from",
          "type": "address"
        },
        {
          "internalType": "uint256",
          "name": "_value",
          "type": "uint256"
        }
      ],
      "name": "moduleBurnAction",
      "outputs": [],
      "stateMutability": "nonpayable",
      "type": "function"
    },
    {
      "inputs": [
        {
          "internalType": "address",
          "name": "_from",
          "type": "address"
        },
        {
          "internalType": "address",
          "name": "",
          "type": "address"
        },
        {
          "internalType": "uint256",
          "name": "_value",
          "type": "uint256"
        },
        {
          "internalType": "address",
          "name": "_compliance",
          "type": "address"
        }
      ],
      "name": "moduleCheck",
      "outputs": [
        {
          "internalType": "bool",
          "name": "",
          "type": "bool"
        }
      ],
      "stateMutability": "view",
      "type": "function"
    },
    {
      "inputs": [
        {
          "internalType": "address",
          "name": "_to",
          "type": "address"
        },
        {
          "internalType": "uint256",
          "name": "_value",
          "type": "uint256"
        }
      ],
      "name": "moduleMintAction",
      "outputs": [],
      "stateMutability": "nonpayable",
      "type": "function"
    },
    {
      "inputs": [
        {
          "internalType": "address",
          "name": "_from",
          "type": "address"
        },
        {
          "internalType": "address",
          "name": "",
          "type": "address"
        },
        {
          "internalType": "uint256",
          "name": "_value",
          "type": "uint256"
        }
      ],
      "name": "moduleTransferAction",
      "outputs": [],
      "stateMutability": "nonpayable",
      "type": "function"
    },
    {
      "inputs": [],
      "name": "name",
      "outputs": [
        {
          "internalType": "string",
          "name": "_name",
          "type": "string"
        }
      ],
      "stateMutability": "pure",
      "type": "function"
    },
    {
      "inputs": [],
      "name": "owner",
      "outputs": [
        {
          "internalType": "address",
          "name": "",
          "type": "address"
        }
      ],
      "stateMutability": "view",
      "type": "function"
    },
    {
      "inputs": [],
      "name": "proxiableUUID",
      "outputs": [
        {
          "internalType": "bytes32",
          "name": "",
          "type": "bytes32"
        }
      ],
      "stateMutability": "view",
      "type": "function"
    },
    {
      "inputs": [],
      "name": "renounceOwnership",
      "outputs": [],
      "stateMutability": "nonpayable",
      "type": "function"
    },
    {
      "inputs": [
        {
          "components": [
            {
              "internalType": "uint32",
              "name": "limitTime",
              "type": "uint32"
            },
            {
              "internalType": "uint256",
              "name": "limitValue",
              "type": "uint256"
            }
          ],
          "internalType": "struct TimeTransfersLimitsModule.Limit",
          "name": "_limit",
          "type": "tuple"
        }
      ],
      "name": "setTimeTransferLimit",
      "outputs": [],
      "stateMutability": "nonpayable",
      "type": "function"
    },
    {
      "inputs": [
        {
          "internalType": "address",
          "name": "",
          "type": "address"
        },
        {
          "internalType": "uint256",
          "name": "",
          "type": "uint256"
        }
      ],
      "name": "transferLimits",
      "outputs": [
        {
          "internalType": "uint32",
          "name": "limitTime",
          "type": "uint32"
        },
        {
          "internalType": "uint256",
          "name": "limitValue",
          "type": "uint256"
        }
      ],
      "stateMutability": "view",
      "type": "function"
    },
    {
      "inputs": [
        {
          "internalType": "address",
          "name": "newOwner",
          "type": "address"
        }
      ],
      "name": "transferOwnership",
      "outputs": [],
      "stateMutability": "nonpayable",
      "type": "function"
    },
    {
      "inputs": [
        {
          "internalType": "address",
          "name": "_compliance",
          "type": "address"
        }
      ],
      "name": "unbindCompliance",
      "outputs": [],
      "stateMutability": "nonpayable",
      "type": "function"
    },
    {
      "inputs": [
        {
          "internalType": "address",
          "name": "newImplementation",
          "type": "address"
        }
      ],
      "name": "upgradeTo",
      "outputs": [],
      "stateMutability": "nonpayable",
      "type": "function"
    },
    {
      "inputs": [
        {
          "internalType": "address",
          "name": "newImplementation",
          "type": "address"
        },
        {
          "internalType": "bytes",
          "name": "data",
          "type": "bytes"
        }
      ],
      "name": "upgradeToAndCall",
      "outputs": [],
      "stateMutability": "payable",
      "type": "function"
    },
    {
      "inputs": [
        {
          "internalType": "address",
          "name": "",
          "type": "address"
        },
        {
          "internalType": "address",
          "name": "",
          "type": "address"
        },
        {
          "internalType": "uint32",
          "name": "",
          "type": "uint32"
        }
      ],
      "name": "usersCounters",
      "outputs": [
        {
          "internalType": "uint256",
          "name": "value",
          "type": "uint256"
        },
        {
          "internalType": "uint256",
          "name": "timer",
          "type": "uint256"
        }
      ],
      "stateMutability": "view",
      "type": "function"
    }
  ],
  "bytecode": "0x60a080604052346100315730608052611b429081610037823960805181818161063d015281816107640152610c490152f35b600080fdfe6040608081526004908136101561001557600080fd5b600091823560e01c8063013b7ce41461111a5780630694a5fb1461108157806306fdde031461102c578063189fa40314610fbc5780632cb7e1ec14610e725780632f6bbc5d14610e135780633659cfe614610c22578063372491a2146101a7578063388ebb1514610b115780634a93254414610a365780634cf4d295146109eb5780634f1ef286146106ea57806352d1902d1461062857806353ccd57d146105b9578063715018a61461055c5780638129fc1c1461040e5780638da5cb5b146103e5578063bcc21053146103bf578063d09b3be0146101ec578063e6f5e807146101d0578063f104a8c9146101a75763f2fde38b1461011357600080fd5b346101a35760203660031901126101a35761012c61116c565b916101356112a4565b6001600160a01b03831615610151578361014e846112fc565b80f35b906020608492519162461bcd60e51b8352820152602660248201527f4f776e61626c653a206e6577206f776e657220697320746865207a65726f206160448201526564647265737360d01b6064820152fd5b8280fd5b5050346101cc573660031901126101c9576101c061116c565b5061014e6116cf565b80fd5b5080fd5b5050346101cc57816003193601126101cc576020905160018152f35b50346101a357816003193601126101a357338352602090600080516020611aed833981519152825261022360ff84862054166115ce565b33845260c9825282842063ffffffff908161023c61167a565b168652835260ff84862054169133865260ca845260ff858720541692158080916103b5575b610398578061038f575b156103505733865260ca84528486208054916801000000000000000083101561033d5750816102a29160016102a894018155611272565b9061168d565b8351926102b4846111e6565b6001845280840192835233865260c98152848620916102d161167a565b16865252828420915115159060ff61ff008454925160081b1692169061ffff1916171790555b7f172f792abfbfd784dac801573197a4dc27fe914e9bb2756ff598a68a359c29c261032061167a565b915163ffffffff909216825260243560208301523391604090a280f35b634e487b7160e01b885260419052602487fd5b506102a291509161038a9233865260ca82528486209160c981528587209161037661167a565b1687525260ff8486205460081c1690611272565b6102f7565b5080831061026b565b85516382f520a960e01b8152338184015260248101859052604490fd5b5081841015610261565b5050346101cc5760203660031901126101cc576020906103dd61116c565b505160018152f35b5050346101cc57816003193601126101cc5760335490516001600160a01b039091168152602090f35b50346101a357826003193601126101a357825460ff8160081c16159182809361054f575b8015610538575b156104de575060ff1981166001178455816104cd575b5061047260ff845460081c166104648161161a565b61046d8161161a565b61161a565b61047b336112fc565b82549061048d60ff8360081c1661161a565b610495578280f35b61ff001916825551600181527f7f26b83ff96e1f2b6a682f133852f6798a09c465da95921460cefb384740249890602090a138808280f35b61ffff19166101011783553861044f565b608490602085519162461bcd60e51b8352820152602e60248201527f496e697469616c697a61626c653a20636f6e747261637420697320616c72656160448201526d191e481a5b9a5d1a585b1a5e995960921b6064820152fd5b50303b1580156104395750600160ff831614610439565b50600160ff831610610432565b83346101c957806003193601126101c9576105756112a4565b603380546001600160a01b0319811690915581906001600160a01b03167f8be0079c531659141344cd1fd0a4f28419497f9722a3daafe3b4186f6b6457e08280a380f35b5050346101cc57806003193601126101cc576105d361116c565b6001600160a01b0316825260ca6020528082208054602435919082101561062457906105fe91611272565b508054600190910154915163ffffffff90911681526020810191909152604090f35b0390f35b8380fd5b5082346101c957806003193601126101c957507f00000000000000000000000000000000000000000000000000000000000000006001600160a01b031630036106825760208251600080516020611acd8339815191528152f35b6020608492519162461bcd60e51b8352820152603860248201527f555550535570677261646561626c653a206d757374206e6f742062652063616c60448201527f6c6564207468726f7567682064656c656761746563616c6c00000000000000006064820152fd5b5090806003193601126101a3576106ff61116c565b906024359067ffffffffffffffff82116109e757366023830112156109e7578184013561072b81611256565b61073783519182611234565b818152866020948583019336602482840101116101a3578060248893018637830101526001600160a01b037f000000000000000000000000000000000000000000000000000000000000000081169061079230831415611345565b6107af600080516020611acd8339815191529282845416146113a6565b6107b76112a4565b7f4910fdfa16fed3260ed0e7147f7cc6da11a60208b5b9406d12a635614ffd91435460ff16156107f15750505050505061014e9150611407565b869293949596169085516352d1902d60e01b815287818a81865afa8a91816109b4575b5061087357865162461bcd60e51b8152808a01899052602e60248201527f45524331393637557067726164653a206e657720696d706c656d656e7461746960448201526d6f6e206973206e6f74205555505360901b6064820152608490fd5b97919293969594970361095f575061088a82611407565b7fbc7cd75a20ee27fd9adebab32041f755214dbc6bffa90cc0225b39da2e5c2d3b8780a285845115801590610957575b6108c8575b50505050505080f35b80610941968451966108d988611218565b602788527f416464726573733a206c6f772d6c6576656c2064656c65676174652063616c6c87890152660819985a5b195960ca1b868901525190845af4913d1561094d573d61093361092a82611256565b92519283611234565b81528681943d92013e611497565b503880808080856108bf565b5060609250611497565b5060016108ba565b835162461bcd60e51b8152908101859052602960248201527f45524331393637557067726164653a20756e737570706f727465642070726f786044820152681a58589b195555525160ba1b6064820152608490fd5b9091508881813d83116109e0575b6109cc8183611234565b810103126109dc57519038610814565b8a80fd5b503d6109c2565b8480fd5b5050346101cc5760203660031901126101cc5760209160ff9082906001600160a01b03610a1661116c565b168152600080516020611aed833981519152855220541690519015158152f35b5090346101a35760203660031901126101a3576001600160a01b03610a5961116c565b1691610a6683151561152c565b828452600080516020611aed833981519152908160205260ff8386205416610ace5750610a94833314611578565b8284526020528220805460ff191660011790557f1f7b76c58fb697eb53c6c7c1becb96911516a136e24d7ced386b2355358b75a38280a280f35b606490602084519162461bcd60e51b8352820152601860248201527f636f6d706c69616e636520616c726561647920626f756e6400000000000000006044820152fd5b508290346101cc576020806003193601126101a3576001600160a01b03610b3661116c565b16835260ca81528383209283549267ffffffffffffffff8411610c0f575090939291835190610b6a868260051b0183611234565b8082528582018094845286842084915b838310610bd35750505050835194859481860192828752518093528086019493905b838210610ba95786860387f35b8451805163ffffffff16875283015186840152879650948501949382019360019190910190610b9c565b6002896001928a9b9897999a51610be9816111e6565b63ffffffff86541681528486015483820152815201920192019190979695939497610b7a565b634e487b7160e01b825260419052602490fd5b5090346101a35760208060031936011261062457610c3e61116c565b916001600160a01b037f00000000000000000000000000000000000000000000000000000000000000008116610c7630821415611345565b610c93600080516020611acd8339815191529183835416146113a6565b610c9b6112a4565b8251908482019282841067ffffffffffffffff851117610e00578385528883527f4910fdfa16fed3260ed0e7147f7cc6da11a60208b5b9406d12a635614ffd91435460ff1615610cf55750505050505061014e9150611407565b869293949596169085516352d1902d60e01b815287818a81865afa8a9181610dd1575b50610d7757865162461bcd60e51b8152808a01899052602e60248201527f45524331393637557067726164653a206e657720696d706c656d656e7461746960448201526d6f6e206973206e6f74205555505360901b6064820152608490fd5b97919293969594970361095f5750610d8e82611407565b7fbc7cd75a20ee27fd9adebab32041f755214dbc6bffa90cc0225b39da2e5c2d3b8780a285845115801590610dca576108c85750505050505080f35b50806108ba565b9091508881813d8311610df9575b610de98183611234565b810103126109dc57519038610d18565b503d610ddf565b634e487b7160e01b895260418852602489fd5b5050346101cc57806003193601126101cc57610e2d61116c565b9160243563ffffffff81168091036101cc57829360018060a01b0316825260c9602052828220908252602052205460ff8251918181161515835260081c166020820152f35b5050346101cc5760603660031901126101cc57610e8d61116c565b90610e96611187565b5060443590338452610eca602093600080516020611aed8339815191528552610ec460ff84882054166115ce565b33611991565b926001600160a01b03841690855b33875260ca9081835284882054811015610fb857610f8291610efc82878b20611272565b505433600090815260cb602090815260408083206001600160a01b038d168452825280832063ffffffff9485168085529252909120600101548b9190421015610f87575b5050338a5260cb8552868a20868b528552868a2091338b528552610f6683888c20611272565b50541689528352848820610f7b87825461171d565b90556116f8565b610ed8565b33825260cb875288822088835287528882208183528752610fab898320914261171d565b6001820155558938610f40565b8780f35b5050346101cc5760603660031901126101cc57610fd761116c565b91610fe0611187565b6044359063ffffffff82168092036101a357839460018060a01b03809116845260cb60205284842091168352602052828220908252602052206001815491015482519182526020820152f35b5050346101cc57816003193601126101cc5780516106209161104d826111e6565b601982527f54696d655472616e73666572734c696d6974734d6f64756c65000000000000006020830152519182918261119d565b5050346101cc5760203660031901126101cc5761109c61116c565b90338352600080516020611aed83398151915291826020526110c360ff83862054166115ce565b6001600160a01b0316916110d883151561152c565b6110e3833314611578565b8284526020528220805460ff191690557f408b49d9be1c914c52a0227e18a077e5a892dddf32a26cfa94a5d9708fad77188280a280f35b5050346101cc5760803660031901126101cc5761113561116c565b61113d611187565b50606435926001600160a01b03841684036101c95750602092611163916044359061172a565b90519015158152f35b600435906001600160a01b038216820361118257565b600080fd5b602435906001600160a01b038216820361118257565b6020808252825181830181905290939260005b8281106111d257505060409293506000838284010152601f8019910116010190565b8181018601518482016040015285016111b0565b6040810190811067ffffffffffffffff82111761120257604052565b634e487b7160e01b600052604160045260246000fd5b6060810190811067ffffffffffffffff82111761120257604052565b90601f8019910116810190811067ffffffffffffffff82111761120257604052565b67ffffffffffffffff811161120257601f01601f191660200190565b805482101561128e5760005260206000209060011b0190600090565b634e487b7160e01b600052603260045260246000fd5b6033546001600160a01b031633036112b857565b606460405162461bcd60e51b815260206004820152602060248201527f4f776e61626c653a2063616c6c6572206973206e6f7420746865206f776e65726044820152fd5b603380546001600160a01b039283166001600160a01b0319821681179092559091167f8be0079c531659141344cd1fd0a4f28419497f9722a3daafe3b4186f6b6457e0600080a3565b1561134c57565b60405162461bcd60e51b815260206004820152602c60248201527f46756e6374696f6e206d7573742062652063616c6c6564207468726f7567682060448201526b19195b1959d85d1958d85b1b60a21b6064820152608490fd5b156113ad57565b60405162461bcd60e51b815260206004820152602c60248201527f46756e6374696f6e206d7573742062652063616c6c6564207468726f7567682060448201526b6163746976652070726f787960a01b6064820152608490fd5b803b1561143c57600080516020611acd83398151915280546001600160a01b0319166001600160a01b03909216919091179055565b60405162461bcd60e51b815260206004820152602d60248201527f455243313936373a206e657720696d706c656d656e746174696f6e206973206e60448201526c1bdd08184818dbdb9d1c9858dd609a1b6064820152608490fd5b919290156114f957508151156114ab575090565b3b156114b45790565b60405162461bcd60e51b815260206004820152601d60248201527f416464726573733a2063616c6c20746f206e6f6e2d636f6e74726163740000006044820152606490fd5b82519091501561150c5750805190602001fd5b60405162461bcd60e51b8152908190611528906004830161119d565b0390fd5b1561153357565b60405162461bcd60e51b815260206004820152601f60248201527f696e76616c696420617267756d656e74202d207a65726f2061646472657373006044820152606490fd5b1561157f57565b60405162461bcd60e51b815260206004820152602160248201527f6f6e6c7920636f6d706c69616e636520636f6e74726163742063616e2063616c6044820152601b60fa1b6064820152608490fd5b156115d557565b60405162461bcd60e51b815260206004820152601e60248201527f6f6e6c7920626f756e6420636f6d706c69616e63652063616e2063616c6c00006044820152606490fd5b1561162157565b60405162461bcd60e51b815260206004820152602b60248201527f496e697469616c697a61626c653a20636f6e7472616374206973206e6f74206960448201526a6e697469616c697a696e6760a81b6064820152608490fd5b60043563ffffffff811681036111825790565b906116b95760043563ffffffff81168091036111825763ffffffff198254161781556001602435910155565b634e487b7160e01b600052600060045260246000fd5b33600052600080516020611aed8339815191526020526116f660ff604060002054166115ce565b565b60001981146117075760010190565b634e487b7160e01b600052601160045260246000fd5b9190820180921161170757565b6001600160a01b0380821693909284156119685760408051630d47dbe560e31b815260209684871695919088826004818a5afa91821561195d57918991899360009261192b575b50602490865194859384926307feec1960e21b84526004840152165afa908115611920576000916118ea575b506118de576117ac9084611991565b9160005b8560005260ca80895283600020548210156118d0576117d28285600020611272565b509060018092015484116118c15787600052808a526117f48386600020611272565b50546001600160a01b03888116600090815260cb60209081526040808320938b16835292815282822063ffffffff948516835290522060010154421092908361185a575b50505061184d57611848906116f8565b6117b0565b5050505050505050600090565b909192508860005260cb8b52856000208a88166000528b52856000209089600052838c5261188b8588600020611272565b5054166000528a526118a184866000205461171d565b91886000528a526118b58386600020611272565b50015410388080611838565b50505050505050505050600090565b505050505050505050600190565b50505050505050600190565b8881813d8311611919575b6118ff8183611234565b810103126101cc57519081151582036101c957503861179d565b503d6118f5565b83513d6000823e3d90fd5b602491925061194f90843d8611611956575b6119478183611234565b810190611972565b9190611771565b503d61193d565b84513d6000823e3d90fd5b5050505050600190565b9081602091031261118257516001600160a01b03811681036111825790565b60408051630d47dbe560e31b81526001600160a01b03939192602092919083908290600490829089165afa90811561195d57928092918694600091611aaf575b5060048651809681936304d3863d60e21b8352165afa92831561195d57908591600094611a71575b508451633c3ad79560e21b8152908216600482015292829184916024918391165afa928315611a675750600092611a31575b50501690565b81813d8311611a60575b611a458183611234565b810103126101cc57519082821682036101c957503880611a2b565b503d611a3b565b513d6000823e3d90fd5b909391508281813d8311611aa8575b611a8a8183611234565b810103126101cc57519085821682036101c9575091849060246119f9565b503d611a80565b611ac69150823d8411611956576119478183611234565b386119d156fe360894a13ba1a3210667c828492db98dca3e2076cc3735a920a3ca505d382bbcf6cc97de1266c180cd39f3b311632644143ce7873d2927755382ad4b39e8ae00a2646970667358221220140553cf5d549a7a5c5365e543ea87b6c768935b853ac5d617b250c11d3fe6d964736f6c63430008110033",
  "linkReferences": {},
  "deployedLinkReferences": {}
}