{"contracts/MockERC721.sol":{"MockERC721":{"abi":[{"inputs":[{"internalType":"string","name":"name","type":"string"},{"internalType":"string","name":"symbol","type":"string"}],"stateMutability":"nonpayable","type":"constructor"},{"anonymous":false,"inputs":[{"indexed":true,"internalType":"address","name":"owner","type":"address"},{"indexed":true,"internalType":"address","name":"approved","type":"address"},{"indexed":true,"internalType":"uint256","name":"tokenId","type":"uint256"}],"name":"Approval","type":"event"},{"anonymous":false,"inputs":[{"indexed":true,"internalType":"address","name":"owner","type":"address"},{"indexed":true,"internalType":"address","name":"operator","type":"address"},{"indexed":false,"internalType":"bool","name":"approved","type":"bool"}],"name":"ApprovalForAll","type":"event"},{"anonymous":false,"inputs":[{"indexed":false,"internalType":"uint256","name":"_fromTokenId","type":"uint256"},{"indexed":false,"internalType":"uint256","name":"_toTokenId","type":"uint256"}],"name":"BatchMetadataUpdate","type":"event"},{"anonymous":false,"inputs":[{"indexed":false,"internalType":"uint256","name":"_tokenId","type":"uint256"}],"name":"MetadataUpdate","type":"event"},{"anonymous":false,"inputs":[{"indexed":true,"internalType":"address","name":"from","type":"address"},{"indexed":true,"internalType":"address","name":"to","type":"address"},{"indexed":true,"internalType":"uint256","name":"tokenId","type":"uint256"}],"name":"Transfer","type":"event"},{"inputs":[{"internalType":"address","name":"to","type":"address"},{"internalType":"uint256","name":"tokenId","type":"uint256"}],"name":"approve","outputs":[],"stateMutability":"nonpayable","type":"function"},{"inputs":[{"internalType":"address","name":"owner","type":"address"}],"name":"balanceOf","outputs":[{"internalType":"uint256","name":"","type":"uint256"}],"stateMutability":"view","type":"function"},{"inputs":[{"internalType":"uint256","name":"tokenId","type":"uint256"}],"name":"burn","outputs":[],"stateMutability":"nonpayable","type":"function"},{"inputs":[{"internalType":"uint256","name":"tokenId","type":"uint256"}],"name":"getApproved","outputs":[{"internalType":"address","name":"","type":"address"}],"stateMutability":"view","type":"function"},{"inputs":[{"internalType":"address","name":"owner","type":"address"},{"internalType":"address","name":"operator","type":"address"}],"name":"isApprovedForAll","outputs":[{"internalType":"bool","name":"","type":"bool"}],"stateMutability":"view","type":"function"},{"inputs":[{"internalType":"address","name":"to","type":"address"},{"internalType":"string","name":"tokenURI_","type":"string"}],"name":"mint","outputs":[{"internalType":"uint256","name":"","type":"uint256"}],"stateMutability":"nonpayable","type":"function"},{"inputs":[],"name":"name","outputs":[{"internalType":"string","name":"","type":"string"}],"stateMutability":"view","type":"function"},{"inputs":[{"internalType":"uint256","name":"tokenId","type":"uint256"}],"name":"ownerOf","outputs":[{"internalType":"address","name":"","type":"address"}],"stateMutability":"view","type":"function"},{"inputs":[{"internalType":"address","name":"from","type":"address"},{"internalType":"address","name":"to","type":"address"},{"internalType":"uint256","name":"tokenId","type":"uint256"}],"name":"safeTransferFrom","outputs":[],"stateMutability":"nonpayable","type":"function"},{"inputs":[{"internalType":"address","name":"from","type":"address"},{"internalType":"address","name":"to","type":"address"},{"internalType":"uint256","name":"tokenId","type":"uint256"},{"internalType":"bytes","name":"data","type":"bytes"}],"name":"safeTransferFrom","outputs":[],"stateMutability":"nonpayable","type":"function"},{"inputs":[{"internalType":"address","name":"operator","type":"address"},{"internalType":"bool","name":"approved","type":"bool"}],"name":"setApprovalForAll","outputs":[],"stateMutability":"nonpayable","type":"function"},{"inputs":[{"internalType":"bytes4","name":"interfaceId","type":"bytes4"}],"name":"supportsInterface","outputs":[{"internalType":"bool","name":"","type":"bool"}],"stateMutability":"view","type":"function"},{"inputs":[],"name":"symbol","outputs":[{"internalType":"string","name":"","type":"string"}],"stateMutability":"view","type":"function"},{"inputs":[{"internalType":"uint256","name":"tokenId","type":"uint256"}],"name":"tokenURI","outputs":[{"internalType":"string","name":"","type":"string"}],"stateMutability":"view","type":"function"},{"inputs":[],"name":"totalMinted","outputs":[{"internalType":"uint256","name":"","type":"uint256"}],"stateMutability":"view","type":"function"},{"inputs":[{"internalType":"address","name":"from","type":"address"},{"internalType":"address","name":"to","type":"address"},{"internalType":"uint256","name":"tokenId","type":"uint256"}],"name":"transferFrom","outputs":[],"stateMutability":"nonpayable","type":"function"}],"evm":{"bytecode":{"linkReferences":{},"object":"608060405234801561001057600080fd5b50604051611b4c380380611b4c83398101604081905261002f9161010d565b8181600061003d83826101ff565b50600161004a82826101ff565b50505050506102bd565b634e487b7160e01b600052604160045260246000fd5b600082601f83011261007b57600080fd5b81516001600160401b0381111561009457610094610054565b604051601f8201601f19908116603f011681016001600160401b03811182821017156100c2576100c2610054565b6040528181528382016020018510156100da57600080fd5b60005b828110156100f9576020818601810151838301820152016100dd565b506000918101602001919091529392505050565b6000806040838503121561012057600080fd5b82516001600160401b0381111561013657600080fd5b6101428582860161006a565b602085015190935090506001600160401b0381111561016057600080fd5b61016c8582860161006a565b9150509250929050565b600181811c9082168061018a57607f821691505b6020821081036101aa57634e487b7160e01b600052602260045260246000fd5b50919050565b601f8211156101fa57806000526020600020601f840160051c810160208510156101d75750805b601f840160051c820191505b818110156101f757600081556001016101e3565b50505b505050565b81516001600160401b0381111561021857610218610054565b61022c816102268454610176565b846101b0565b6020601f82116001811461026057600083156102485750848201515b600019600385901b1c1916600184901b1784556101f7565b600084815260208120601f198516915b828110156102905787850151825560209485019460019092019101610270565b50848210156102ae5786840151600019600387901b60f8161c191681555b50505050600190811b01905550565b611880806102cc6000396000f3fe608060405234801561001057600080fd5b50600436106101005760003560e01c806370a0823111610097578063b88d4fde11610066578063b88d4fde14610212578063c87b56dd14610225578063d0def52114610238578063e985e9c51461024b57600080fd5b806370a08231146101ce57806395d89b41146101ef578063a22cb465146101f7578063a2309ff81461020a57600080fd5b806323b872dd116100d357806323b872dd1461018257806342842e0e1461019557806342966c68146101a85780636352211e146101bb57600080fd5b806301ffc9a71461010557806306fdde031461012d578063081812fc14610142578063095ea7b31461016d575b600080fd5b610118610113366004611282565b610287565b60405190151581526020015b60405180910390f35b6101356102b2565b60405161012491906112ef565b610155610150366004611302565b610344565b6040516001600160a01b039091168152602001610124565b61018061017b366004611337565b61036b565b005b610180610190366004611361565b610485565b6101806101a3366004611361565b6104b6565b6101806101b6366004611302565b6104d1565b6101556101c9366004611302565b61052c565b6101e16101dc36600461139e565b61058c565b604051908152602001610124565b610135610612565b6101806102053660046113b9565b610621565b6101e1610630565b610180610220366004611485565b610640565b610135610233366004611302565b610678565b6101e1610246366004611501565b610788565b610118610259366004611563565b6001600160a01b03918216600090815260056020908152604080832093909416825291909152205460ff1690565b60006001600160e01b03198216632483248360e11b14806102ac57506102ac826107c7565b92915050565b6060600080546102c190611596565b80601f01602080910402602001604051908101604052809291908181526020018280546102ed90611596565b801561033a5780601f1061030f5761010080835404028352916020019161033a565b820191906000526020600020905b81548152906001019060200180831161031d57829003601f168201915b5050505050905090565b600061034f82610817565b506000908152600460205260409020546001600160a01b031690565b60006103768261052c565b9050806001600160a01b0316836001600160a01b0316036103e85760405162461bcd60e51b815260206004820152602160248201527f4552433732313a20617070726f76616c20746f2063757272656e74206f776e656044820152603960f91b60648201526084015b60405180910390fd5b336001600160a01b038216148061040457506104048133610259565b6104765760405162461bcd60e51b815260206004820152603d60248201527f4552433732313a20617070726f76652063616c6c6572206973206e6f7420746f60448201527f6b656e206f776e6572206f7220617070726f76656420666f7220616c6c00000060648201526084016103df565b6104808383610876565b505050565b61048f33826108e4565b6104ab5760405162461bcd60e51b81526004016103df906115d0565b610480838383610962565b61048083838360405180602001604052806000815250610640565b6104db33826108e4565b6105205760405162461bcd60e51b8152602060048201526016602482015275139bdd081bdddb995c881b9bdc88185c1c1c9bdd995960521b60448201526064016103df565b61052981610ac6565b50565b6000818152600260205260408120546001600160a01b0316806102ac5760405162461bcd60e51b8152602060048201526018602482015277115490cdcc8c4e881a5b9d985b1a59081d1bdad95b88125160421b60448201526064016103df565b60006001600160a01b0382166105f65760405162461bcd60e51b815260206004820152602960248201527f4552433732313a2061646472657373207a65726f206973206e6f7420612076616044820152683634b21037bbb732b960b91b60648201526084016103df565b506001600160a01b031660009081526003602052604090205490565b6060600180546102c190611596565b61062c338383610b06565b5050565b600061063b60075490565b905090565b61064a33836108e4565b6106665760405162461bcd60e51b81526004016103df906115d0565b61067284848484610bd4565b50505050565b606061068382610817565b6000828152600660205260408120805461069c90611596565b80601f01602080910402602001604051908101604052809291908181526020018280546106c890611596565b80156107155780601f106106ea57610100808354040283529160200191610715565b820191906000526020600020905b8154815290600101906020018083116106f857829003601f168201915b50505050509050600061073360408051602081019091526000815290565b90508051600003610745575092915050565b81511561077757808260405160200161075f92919061161d565b60405160208183030381529060405292505050919050565b61078084610c07565b949350505050565b6000610798600780546001019055565b60006107a360075490565b90506107af8482610c7a565b8251156107c0576107c08184610c94565b9392505050565b60006001600160e01b031982166380ac58cd60e01b14806107f857506001600160e01b03198216635b5e139f60e01b145b806102ac57506301ffc9a760e01b6001600160e01b03198316146102ac565b6000818152600260205260409020546001600160a01b03166105295760405162461bcd60e51b8152602060048201526018602482015277115490cdcc8c4e881a5b9d985b1a59081d1bdad95b88125160421b60448201526064016103df565b600081815260046020526040902080546001600160a01b0319166001600160a01b03841690811790915581906108ab8261052c565b6001600160a01b03167f8c5be1e5ebec7d5bd14f71427d1e84f3dd0314c0f7b2291e5b200ac8c7c3b92560405160405180910390a45050565b6000806108f08361052c565b9050806001600160a01b0316846001600160a01b0316148061093757506001600160a01b0380821660009081526005602090815260408083209388168352929052205460ff165b806107805750836001600160a01b031661095084610344565b6001600160a01b031614949350505050565b826001600160a01b03166109758261052c565b6001600160a01b03161461099b5760405162461bcd60e51b81526004016103df9061164c565b6001600160a01b0382166109fd5760405162461bcd60e51b8152602060048201526024808201527f4552433732313a207472616e7366657220746f20746865207a65726f206164646044820152637265737360e01b60648201526084016103df565b826001600160a01b0316610a108261052c565b6001600160a01b031614610a365760405162461bcd60e51b81526004016103df9061164c565b600081815260046020908152604080832080546001600160a01b03199081169091556001600160a01b0387811680865260038552838620805460001901905590871680865283862080546001019055868652600290945282852080549092168417909155905184937fddf252ad1be2c89b69c2b068fc378daa952ba7f163c4a11628f55a4df523b3ef91a4505050565b610acf81610d5f565b60008181526006602052604090208054610ae890611596565b1590506105295760008181526006602052604081206105299161121e565b816001600160a01b0316836001600160a01b031603610b675760405162461bcd60e51b815260206004820152601960248201527f4552433732313a20617070726f766520746f2063616c6c65720000000000000060448201526064016103df565b6001600160a01b03838116600081815260056020908152604080832094871680845294825291829020805460ff191686151590811790915591519182527f17307eab39ab6107e8899845ad3d59bd9653f200f220920489ca2b5937696c31910160405180910390a3505050565b610bdf848484610962565b610beb84848484610df4565b6106725760405162461bcd60e51b81526004016103df90611691565b6060610c1282610817565b6000610c2960408051602081019091526000815290565b90506000815111610c4957604051806020016040528060008152506107c0565b80610c5384610ef5565b604051602001610c6492919061161d565b6040516020818303038152906040529392505050565b61062c828260405180602001604052806000815250610f88565b6000828152600260205260409020546001600160a01b0316610d0f5760405162461bcd60e51b815260206004820152602e60248201527f45524337323155524953746f726167653a2055524920736574206f66206e6f6e60448201526d32bc34b9ba32b73a103a37b5b2b760911b60648201526084016103df565b6000828152600660205260409020610d278282611731565b506040518281527ff8e1a15aba9398e019f0b49df1a4fde98ee17ae345cb5f6b5e2c27f5033e8ce79060200160405180910390a15050565b6000610d6a8261052c565b9050610d758261052c565b600083815260046020908152604080832080546001600160a01b03199081169091556001600160a01b0385168085526003845282852080546000190190558785526002909352818420805490911690555192935084927fddf252ad1be2c89b69c2b068fc378daa952ba7f163c4a11628f55a4df523b3ef908390a45050565b60006001600160a01b0384163b15610eea57604051630a85bd0160e11b81526001600160a01b0385169063150b7a0290610e389033908990889088906004016117f0565b6020604051808303816000875af1925050508015610e73575060408051601f3d908101601f19168201909252610e709181019061182d565b60015b610ed0573d808015610ea1576040519150601f19603f3d011682016040523d82523d6000602084013e610ea6565b606091505b508051600003610ec85760405162461bcd60e51b81526004016103df90611691565b805181602001fd5b6001600160e01b031916630a85bd0160e11b149050610780565b506001949350505050565b60606000610f0283610fbb565b600101905060008167ffffffffffffffff811115610f2257610f226113f5565b6040519080825280601f01601f191660200182016040528015610f4c576020820181803683370190505b5090508181016020015b600019016f181899199a1a9b1b9c1cb0b131b232b360811b600a86061a8153600a8504945084610f5657509392505050565b610f928383611093565b610f9f6000848484610df4565b6104805760405162461bcd60e51b81526004016103df90611691565b60008072184f03e93ff9f4daa797ed6e38ed64bf6a1f0160401b8310610ffa5772184f03e93ff9f4daa797ed6e38ed64bf6a1f0160401b830492506040015b6d04ee2d6d415b85acef81000000008310611026576d04ee2d6d415b85acef8100000000830492506020015b662386f26fc10000831061104457662386f26fc10000830492506010015b6305f5e100831061105c576305f5e100830492506008015b612710831061107057612710830492506004015b60648310611082576064830492506002015b600a83106102ac5760010192915050565b6001600160a01b0382166110e95760405162461bcd60e51b815260206004820181905260248201527f4552433732313a206d696e7420746f20746865207a65726f206164647265737360448201526064016103df565b6000818152600260205260409020546001600160a01b03161561114e5760405162461bcd60e51b815260206004820152601c60248201527f4552433732313a20746f6b656e20616c7265616479206d696e7465640000000060448201526064016103df565b6000818152600260205260409020546001600160a01b0316156111b35760405162461bcd60e51b815260206004820152601c60248201527f4552433732313a20746f6b656e20616c7265616479206d696e7465640000000060448201526064016103df565b6001600160a01b038216600081815260036020908152604080832080546001019055848352600290915280822080546001600160a01b0319168417905551839291907fddf252ad1be2c89b69c2b068fc378daa952ba7f163c4a11628f55a4df523b3ef908290a45050565b50805461122a90611596565b6000825580601f1061123a575050565b601f01602090049060005260206000209081019061052991905b808211156112685760008155600101611254565b5090565b6001600160e01b03198116811461052957600080fd5b60006020828403121561129457600080fd5b81356107c08161126c565b60005b838110156112ba5781810151838201526020016112a2565b50506000910152565b600081518084526112db81602086016020860161129f565b601f01601f19169290920160200192915050565b6020815260006107c060208301846112c3565b60006020828403121561131457600080fd5b5035919050565b80356001600160a01b038116811461133257600080fd5b919050565b6000806040838503121561134a57600080fd5b6113538361131b565b946020939093013593505050565b60008060006060848603121561137657600080fd5b61137f8461131b565b925061138d6020850161131b565b929592945050506040919091013590565b6000602082840312156113b057600080fd5b6107c08261131b565b600080604083850312156113cc57600080fd5b6113d58361131b565b9150602083013580151581146113ea57600080fd5b809150509250929050565b634e487b7160e01b600052604160045260246000fd5b60008067ffffffffffffffff841115611426576114266113f5565b50604051601f19601f85018116603f0116810181811067ffffffffffffffff82111715611455576114556113f5565b60405283815290508082840185101561146d57600080fd5b83836020830137600060208583010152509392505050565b6000806000806080858703121561149b57600080fd5b6114a48561131b565b93506114b26020860161131b565b925060408501359150606085013567ffffffffffffffff8111156114d557600080fd5b8501601f810187136114e657600080fd5b6114f58782356020840161140b565b91505092959194509250565b6000806040838503121561151457600080fd5b61151d8361131b565b9150602083013567ffffffffffffffff81111561153957600080fd5b8301601f8101851361154a57600080fd5b6115598582356020840161140b565b9150509250929050565b6000806040838503121561157657600080fd5b61157f8361131b565b915061158d6020840161131b565b90509250929050565b600181811c908216806115aa57607f821691505b6020821081036115ca57634e487b7160e01b600052602260045260246000fd5b50919050565b6020808252602d908201527f4552433732313a2063616c6c6572206973206e6f7420746f6b656e206f776e6560408201526c1c881bdc88185c1c1c9bdd9959609a1b606082015260800190565b6000835161162f81846020880161129f565b83519083019061164381836020880161129f565b01949350505050565b60208082526025908201527f4552433732313a207472616e736665722066726f6d20696e636f72726563742060408201526437bbb732b960d91b606082015260800190565b60208082526032908201527f4552433732313a207472616e7366657220746f206e6f6e20455243373231526560408201527131b2b4bb32b91034b6b83632b6b2b73a32b960711b606082015260800190565b601f82111561048057806000526020600020601f840160051c8101602085101561170a5750805b601f840160051c820191505b8181101561172a5760008155600101611716565b5050505050565b815167ffffffffffffffff81111561174b5761174b6113f5565b61175f816117598454611596565b846116e3565b6020601f821160018114611793576000831561177b5750848201515b600019600385901b1c1916600184901b17845561172a565b600084815260208120601f198516915b828110156117c357878501518255602094850194600190920191016117a3565b50848210156117e15786840151600019600387901b60f8161c191681555b50505050600190811b01905550565b6001600160a01b0385811682528416602082015260408101839052608060608201819052600090611823908301846112c3565b9695505050505050565b60006020828403121561183f57600080fd5b81516107c08161126c56fea26469706673582212203761deaad198453a594251443045741eb2bbc5ae1f241574d05a7719bfa9e2ce64736f6c634300081c0033","opcodes":"PUSH1 0x80 PUSH1 0x40 MSTORE CALLVALUE DUP1 ISZERO PUSH2 0x10 JUMPI PUSH1 0x0 DUP1 REVERT JUMPDEST POP PUSH1 0x40 MLOAD PUSH2 0x1B4C CODESIZE SUB DUP1 PUSH2 0x1B4C DUP4 CODECOPY DUP2 ADD PUSH1 0x40 DUP2 SWAP1 MSTORE PUSH2 0x2F SWAP2 PUSH2 0x10D JUMP JUMPDEST DUP2 DUP2 PUSH1 0x0 PUSH2 0x3D DUP4 DUP3 PUSH2 0x1FF JUMP JUMPDEST POP PUSH1 0x1 PUSH2 0x4A DUP3 DUP3 PUSH2 0x1FF JUMP JUMPDEST POP POP POP POP POP PUSH2 0x2BD JUMP JUMPDEST PUSH4 0x4E487B71 PUSH1 0xE0 SHL PUSH1 0x0 MSTORE PUSH1 0x41 PUSH1 0x4 MSTORE PUSH1 0x24 PUSH1 0x0 REVERT JUMPDEST PUSH1 0x0 DUP3 PUSH1 0x1F DUP4 ADD SLT PUSH2 0x7B JUMPI PUSH1 0x0 DUP1 REVERT JUMPDEST DUP2 MLOAD PUSH1 0x1 PUSH1 0x1 PUSH1 0x40 SHL SUB DUP2 GT ISZERO PUSH2 0x94 JUMPI PUSH2 0x94 PUSH2 0x54 JUMP JUMPDEST PUSH1 0x40 MLOAD PUSH1 0x1F DUP3 ADD PUSH1 0x1F NOT SWAP1 DUP2 AND PUSH1 0x3F ADD AND DUP2 ADD PUSH1 0x1 PUSH1 0x1 PUSH1 0x40 SHL SUB DUP2 GT DUP3 DUP3 LT OR ISZERO PUSH2 0xC2 JUMPI PUSH2 0xC2 PUSH2 0x54 JUMP JUMPDEST PUSH1 0x40 MSTORE DUP2 DUP2 MSTORE DUP4 DUP3 ADD PUSH1 0x20 ADD DUP6 LT ISZERO PUSH2 0xDA JUMPI PUSH1 0x0 DUP1 REVERT JUMPDEST PUSH1 0x0 JUMPDEST DUP3 DUP2 LT ISZERO PUSH2 0xF9 JUMPI PUSH1 0x20 DUP2 DUP7 ADD DUP2 ADD MLOAD DUP4 DUP4 ADD DUP3 ADD MSTORE ADD PUSH2 0xDD JUMP JUMPDEST POP PUSH1 0x0 SWAP2 DUP2 ADD PUSH1 0x20 ADD SWAP2 SWAP1 SWAP2 MSTORE SWAP4 SWAP3 POP POP POP JUMP JUMPDEST PUSH1 0x0 DUP1 PUSH1 0x40 DUP4 DUP6 SUB SLT ISZERO PUSH2 0x120 JUMPI PUSH1 0x0 DUP1 REVERT JUMPDEST DUP3 MLOAD PUSH1 0x1 PUSH1 0x1 PUSH1 0x40 SHL SUB DUP2 GT ISZERO PUSH2 0x136 JUMPI PUSH1 0x0 DUP1 REVERT JUMPDEST PUSH2 0x142 DUP6 DUP3 DUP7 ADD PUSH2 0x6A JUMP JUMPDEST PUSH1 0x20 DUP6 ADD MLOAD SWAP1 SWAP4 POP SWAP1 POP PUSH1 0x1 PUSH1 0x1 PUSH1 0x40 SHL SUB DUP2 GT ISZERO PUSH2 0x160 JUMPI PUSH1 0x0 DUP1 REVERT JUMPDEST PUSH2 0x16C DUP6 DUP3 DUP7 ADD PUSH2 0x6A JUMP JUMPDEST SWAP2 POP POP SWAP3 POP SWAP3 SWAP1 POP JUMP JUMPDEST PUSH1 0x1 DUP2 DUP2 SHR SWAP1 DUP3 AND DUP1 PUSH2 0x18A JUMPI PUSH1 0x7F DUP3 AND SWAP2 POP JUMPDEST PUSH1 0x20 DUP3 LT DUP2 SUB PUSH2 0x1AA JUMPI PUSH4 0x4E487B71 PUSH1 0xE0 SHL PUSH1 0x0 MSTORE PUSH1 0x22 PUSH1 0x4 MSTORE PUSH1 0x24 PUSH1 0x0 REVERT JUMPDEST POP SWAP2 SWAP1 POP JUMP JUMPDEST PUSH1 0x1F DUP3 GT ISZERO PUSH2 0x1FA JUMPI DUP1 PUSH1 0x0 MSTORE PUSH1 0x20 PUSH1 0x0 KECCAK256 PUSH1 0x1F DUP5 ADD PUSH1 0x5 SHR DUP2 ADD PUSH1 0x20 DUP6 LT ISZERO PUSH2 0x1D7 JUMPI POP DUP1 JUMPDEST PUSH1 0x1F DUP5 ADD PUSH1 0x5 SHR DUP3 ADD SWAP2 POP JUMPDEST DUP2 DUP2 LT ISZERO PUSH2 0x1F7 JUMPI PUSH1 0x0 DUP2 SSTORE PUSH1 0x1 ADD PUSH2 0x1E3 JUMP JUMPDEST POP POP JUMPDEST POP POP POP JUMP JUMPDEST DUP2 MLOAD PUSH1 0x1 PUSH1 0x1 PUSH1 0x40 SHL SUB DUP2 GT ISZERO PUSH2 0x218 JUMPI PUSH2 0x218 PUSH2 0x54 JUMP JUMPDEST PUSH2 0x22C DUP2 PUSH2 0x226 DUP5 SLOAD PUSH2 0x176 JUMP JUMPDEST DUP5 PUSH2 0x1B0 JUMP JUMPDEST PUSH1 0x20 PUSH1 0x1F DUP3 GT PUSH1 0x1 DUP2 EQ PUSH2 0x260 JUMPI PUSH1 0x0 DUP4 ISZERO PUSH2 0x248 JUMPI POP DUP5 DUP3 ADD MLOAD JUMPDEST PUSH1 0x0 NOT PUSH1 0x3 DUP6 SWAP1 SHL SHR NOT AND PUSH1 0x1 DUP5 SWAP1 SHL OR DUP5 SSTORE PUSH2 0x1F7 JUMP JUMPDEST PUSH1 0x0 DUP5 DUP2 MSTORE PUSH1 0x20 DUP2 KECCAK256 PUSH1 0x1F NOT DUP6 AND SWAP2 JUMPDEST DUP3 DUP2 LT ISZERO PUSH2 0x290 JUMPI DUP8 DUP6 ADD MLOAD DUP3 SSTORE PUSH1 0x20 SWAP5 DUP6 ADD SWAP5 PUSH1 0x1 SWAP1 SWAP3 ADD SWAP2 ADD PUSH2 0x270 JUMP JUMPDEST POP DUP5 DUP3 LT ISZERO PUSH2 0x2AE JUMPI DUP7 DUP5 ADD MLOAD PUSH1 0x0 NOT PUSH1 0x3 DUP8 SWAP1 SHL PUSH1 0xF8 AND SHR NOT AND DUP2 SSTORE JUMPDEST POP POP POP POP PUSH1 0x1 SWAP1 DUP2 SHL ADD SWAP1 SSTORE POP JUMP JUMPDEST PUSH2 0x1880 DUP1 PUSH2 0x2CC PUSH1 0x0 CODECOPY PUSH1 0x0 RETURN INVALID PUSH1 0x80 PUSH1 0x40 MSTORE CALLVALUE DUP1 ISZERO PUSH2 0x10 JUMPI PUSH1 0x0 DUP1 REVERT JUMPDEST POP PUSH1 0x4 CALLDATASIZE LT PUSH2 0x100 JUMPI PUSH1 0x0 CALLDATALOAD PUSH1 0xE0 SHR DUP1 PUSH4 0x70A08231 GT PUSH2 0x97 JUMPI DUP1 PUSH4 0xB88D4FDE GT PUSH2 0x66 JUMPI DUP1 PUSH4 0xB88D4FDE EQ PUSH2 0x212 JUMPI DUP1 PUSH4 0xC87B56DD EQ PUSH2 0x225 JUMPI DUP1 PUSH4 0xD0DEF521 EQ PUSH2 0x238 JUMPI DUP1 PUSH4 0xE985E9C5 EQ PUSH2 0x24B JUMPI PUSH1 0x0 DUP1 REVERT JUMPDEST DUP1 PUSH4 0x70A08231 EQ PUSH2 0x1CE JUMPI DUP1 PUSH4 0x95D89B41 EQ PUSH2 0x1EF JUMPI DUP1 PUSH4 0xA22CB465 EQ PUSH2 0x1F7 JUMPI DUP1 PUSH4 0xA2309FF8 EQ PUSH2 0x20A JUMPI PUSH1 0x0 DUP1 REVERT JUMPDEST DUP1 PUSH4 0x23B872DD GT PUSH2 0xD3 JUMPI DUP1 PUSH4 0x23B872DD EQ PUSH2 0x182 JUMPI DUP1 PUSH4 0x42842E0E EQ PUSH2 0x195 JUMPI DUP1 PUSH4 0x42966C68 EQ PUSH2 0x1A8 JUMPI DUP1 PUSH4 0x6352211E EQ PUSH2 0x1BB JUMPI PUSH1 0x0 DUP1 REVERT JUMPDEST DUP1 PUSH4 0x1FFC9A7 EQ PUSH2 0x105 JUMPI DUP1 PUSH4 0x6FDDE03 EQ PUSH2 0x12D JUMPI DUP1 PUSH4 0x81812FC EQ PUSH2 0x142 JUMPI DUP1 PUSH4 0x95EA7B3 EQ PUSH2 0x16D JUMPI JUMPDEST PUSH1 0x0 DUP1 REVERT JUMPDEST PUSH2 0x118 PUSH2 0x113 CALLDATASIZE PUSH1 0x4 PUSH2 0x1282 JUMP JUMPDEST PUSH2 0x287 JUMP JUMPDEST PUSH1 0x40 MLOAD SWAP1 ISZERO ISZERO DUP2 MSTORE PUSH1 0x20 ADD JUMPDEST PUSH1 0x40 MLOAD DUP1 SWAP2 SUB SWAP1 RETURN JUMPDEST PUSH2 0x135 PUSH2 0x2B2 JUMP JUMPDEST PUSH1 0x40 MLOAD PUSH2 0x124 SWAP2 SWAP1 PUSH2 0x12EF JUMP JUMPDEST PUSH2 0x155 PUSH2 0x150 CALLDATASIZE PUSH1 0x4 PUSH2 0x1302 JUMP JUMPDEST PUSH2 0x344 JUMP JUMPDEST PUSH1 0x40 MLOAD PUSH1 0x1 PUSH1 0x1 PUSH1 0xA0 SHL SUB SWAP1 SWAP2 AND DUP2 MSTORE PUSH1 0x20 ADD PUSH2 0x124 JUMP JUMPDEST PUSH2 0x180 PUSH2 0x17B CALLDATASIZE PUSH1 0x4 PUSH2 0x1337 JUMP JUMPDEST PUSH2 0x36B JUMP JUMPDEST STOP JUMPDEST PUSH2 0x180 PUSH2 0x190 CALLDATASIZE PUSH1 0x4 PUSH2 0x1361 JUMP JUMPDEST PUSH2 0x485 JUMP JUMPDEST PUSH2 0x180 PUSH2 0x1A3 CALLDATASIZE PUSH1 0x4 PUSH2 0x1361 JUMP JUMPDEST PUSH2 0x4B6 JUMP JUMPDEST PUSH2 0x180 PUSH2 0x1B6 CALLDATASIZE PUSH1 0x4 PUSH2 0x1302 JUMP JUMPDEST PUSH2 0x4D1 JUMP JUMPDEST PUSH2 0x155 PUSH2 0x1C9 CALLDATASIZE PUSH1 0x4 PUSH2 0x1302 JUMP JUMPDEST PUSH2 0x52C JUMP JUMPDEST PUSH2 0x1E1 PUSH2 0x1DC CALLDATASIZE PUSH1 0x4 PUSH2 0x139E JUMP JUMPDEST PUSH2 0x58C JUMP JUMPDEST PUSH1 0x40 MLOAD SWAP1 DUP2 MSTORE PUSH1 0x20 ADD PUSH2 0x124 JUMP JUMPDEST PUSH2 0x135 PUSH2 0x612 JUMP JUMPDEST PUSH2 0x180 PUSH2 0x205 CALLDATASIZE PUSH1 0x4 PUSH2 0x13B9 JUMP JUMPDEST PUSH2 0x621 JUMP JUMPDEST PUSH2 0x1E1 PUSH2 0x630 JUMP JUMPDEST PUSH2 0x180 PUSH2 0x220 CALLDATASIZE PUSH1 0x4 PUSH2 0x1485 JUMP JUMPDEST PUSH2 0x640 JUMP JUMPDEST PUSH2 0x135 PUSH2 0x233 CALLDATASIZE PUSH1 0x4 PUSH2 0x1302 JUMP JUMPDEST PUSH2 0x678 JUMP JUMPDEST PUSH2 0x1E1 PUSH2 0x246 CALLDATASIZE PUSH1 0x4 PUSH2 0x1501 JUMP JUMPDEST PUSH2 0x788 JUMP JUMPDEST PUSH2 0x118 PUSH2 0x259 CALLDATASIZE PUSH1 0x4 PUSH2 0x1563 JUMP JUMPDEST PUSH1 0x1 PUSH1 0x1 PUSH1 0xA0 SHL SUB SWAP2 DUP3 AND PUSH1 0x0 SWAP1 DUP2 MSTORE PUSH1 0x5 PUSH1 0x20 SWAP1 DUP2 MSTORE PUSH1 0x40 DUP1 DUP4 KECCAK256 SWAP4 SWAP1 SWAP5 AND DUP3 MSTORE SWAP2 SWAP1 SWAP2 MSTORE KECCAK256 SLOAD PUSH1 0xFF AND SWAP1 JUMP JUMPDEST PUSH1 0x0 PUSH1 0x1 PUSH1 0x1 PUSH1 0xE0 SHL SUB NOT DUP3 AND PUSH4 0x24832483 PUSH1 0xE1 SHL EQ DUP1 PUSH2 0x2AC JUMPI POP PUSH2 0x2AC DUP3 PUSH2 0x7C7 JUMP JUMPDEST SWAP3 SWAP2 POP POP JUMP JUMPDEST PUSH1 0x60 PUSH1 0x0 DUP1 SLOAD PUSH2 0x2C1 SWAP1 PUSH2 0x1596 JUMP JUMPDEST DUP1 PUSH1 0x1F ADD PUSH1 0x20 DUP1 SWAP2 DIV MUL PUSH1 0x20 ADD PUSH1 0x40 MLOAD SWAP1 DUP2 ADD PUSH1 0x40 MSTORE DUP1 SWAP3 SWAP2 SWAP1 DUP2 DUP2 MSTORE PUSH1 0x20 ADD DUP3 DUP1 SLOAD PUSH2 0x2ED SWAP1 PUSH2 0x1596 JUMP JUMPDEST DUP1 ISZERO PUSH2 0x33A JUMPI DUP1 PUSH1 0x1F LT PUSH2 0x30F JUMPI PUSH2 0x100 DUP1 DUP4 SLOAD DIV MUL DUP4 MSTORE SWAP2 PUSH1 0x20 ADD SWAP2 PUSH2 0x33A JUMP JUMPDEST DUP3 ADD SWAP2 SWAP1 PUSH1 0x0 MSTORE PUSH1 0x20 PUSH1 0x0 KECCAK256 SWAP1 JUMPDEST DUP2 SLOAD DUP2 MSTORE SWAP1 PUSH1 0x1 ADD SWAP1 PUSH1 0x20 ADD DUP1 DUP4 GT PUSH2 0x31D JUMPI DUP3 SWAP1 SUB PUSH1 0x1F AND DUP3 ADD SWAP2 JUMPDEST POP POP POP POP POP SWAP1 POP SWAP1 JUMP JUMPDEST PUSH1 0x0 PUSH2 0x34F DUP3 PUSH2 0x817 JUMP JUMPDEST POP PUSH1 0x0 SWAP1 DUP2 MSTORE PUSH1 0x4 PUSH1 0x20 MSTORE PUSH1 0x40 SWAP1 KECCAK256 SLOAD PUSH1 0x1 PUSH1 0x1 PUSH1 0xA0 SHL SUB AND SWAP1 JUMP JUMPDEST PUSH1 0x0 PUSH2 0x376 DUP3 PUSH2 0x52C JUMP JUMPDEST SWAP1 POP DUP1 PUSH1 0x1 PUSH1 0x1 PUSH1 0xA0 SHL SUB AND DUP4 PUSH1 0x1 PUSH1 0x1 PUSH1 0xA0 SHL SUB AND SUB PUSH2 0x3E8 JUMPI PUSH1 0x40 MLOAD PUSH3 0x461BCD PUSH1 0xE5 SHL DUP2 MSTORE PUSH1 0x20 PUSH1 0x4 DUP3 ADD MSTORE PUSH1 0x21 PUSH1 0x24 DUP3 ADD MSTORE PUSH32 0x4552433732313A20617070726F76616C20746F2063757272656E74206F776E65 PUSH1 0x44 DUP3 ADD MSTORE PUSH1 0x39 PUSH1 0xF9 SHL PUSH1 0x64 DUP3 ADD MSTORE PUSH1 0x84 ADD JUMPDEST PUSH1 0x40 MLOAD DUP1 SWAP2 SUB SWAP1 REVERT JUMPDEST CALLER PUSH1 0x1 PUSH1 0x1 PUSH1 0xA0 SHL SUB DUP3 AND EQ DUP1 PUSH2 0x404 JUMPI POP PUSH2 0x404 DUP2 CALLER PUSH2 0x259 JUMP JUMPDEST PUSH2 0x476 JUMPI PUSH1 0x40 MLOAD PUSH3 0x461BCD PUSH1 0xE5 SHL DUP2 MSTORE PUSH1 0x20 PUSH1 0x4 DUP3 ADD MSTORE PUSH1 0x3D PUSH1 0x24 DUP3 ADD MSTORE PUSH32 0x4552433732313A20617070726F76652063616C6C6572206973206E6F7420746F PUSH1 0x44 DUP3 ADD MSTORE PUSH32 0x6B656E206F776E6572206F7220617070726F76656420666F7220616C6C000000 PUSH1 0x64 DUP3 ADD MSTORE PUSH1 0x84 ADD PUSH2 0x3DF JUMP JUMPDEST PUSH2 0x480 DUP4 DUP4 PUSH2 0x876 JUMP JUMPDEST POP POP POP JUMP JUMPDEST PUSH2 0x48F CALLER DUP3 PUSH2 0x8E4 JUMP JUMPDEST PUSH2 0x4AB JUMPI PUSH1 0x40 MLOAD PUSH3 0x461BCD PUSH1 0xE5 SHL DUP2 MSTORE PUSH1 0x4 ADD PUSH2 0x3DF SWAP1 PUSH2 0x15D0 JUMP JUMPDEST PUSH2 0x480 DUP4 DUP4 DUP4 PUSH2 0x962 JUMP JUMPDEST PUSH2 0x480 DUP4 DUP4 DUP4 PUSH1 0x40 MLOAD DUP1 PUSH1 0x20 ADD PUSH1 0x40 MSTORE DUP1 PUSH1 0x0 DUP2 MSTORE POP PUSH2 0x640 JUMP JUMPDEST PUSH2 0x4DB CALLER DUP3 PUSH2 0x8E4 JUMP JUMPDEST PUSH2 0x520 JUMPI PUSH1 0x40 MLOAD PUSH3 0x461BCD PUSH1 0xE5 SHL DUP2 MSTORE PUSH1 0x20 PUSH1 0x4 DUP3 ADD MSTORE PUSH1 0x16 PUSH1 0x24 DUP3 ADD MSTORE PUSH22 0x139BDD081BDDDB995C881B9BDC88185C1C1C9BDD9959 PUSH1 0x52 SHL PUSH1 0x44 DUP3 ADD MSTORE PUSH1 0x64 ADD PUSH2 0x3DF JUMP JUMPDEST PUSH2 0x529 DUP2 PUSH2 0xAC6 JUMP JUMPDEST POP JUMP JUMPDEST PUSH1 0x0 DUP2 DUP2 MSTORE PUSH1 0x2 PUSH1 0x20 MSTORE PUSH1 0x40 DUP2 KECCAK256 SLOAD PUSH1 0x1 PUSH1 0x1 PUSH1 0xA0 SHL SUB AND DUP1 PUSH2 0x2AC JUMPI PUSH1 0x40 MLOAD PUSH3 0x461BCD PUSH1 0xE5 SHL DUP2 MSTORE PUSH1 0x20 PUSH1 0x4 DUP3 ADD MSTORE PUSH1 0x18 PUSH1 0x24 DUP3 ADD MSTORE PUSH24 0x115490CDCC8C4E881A5B9D985B1A59081D1BDAD95B881251 PUSH1 0x42 SHL PUSH1 0x44 DUP3 ADD MSTORE PUSH1 0x64 ADD PUSH2 0x3DF JUMP JUMPDEST PUSH1 0x0 PUSH1 0x1 PUSH1 0x1 PUSH1 0xA0 SHL SUB DUP3 AND PUSH2 0x5F6 JUMPI PUSH1 0x40 MLOAD PUSH3 0x461BCD PUSH1 0xE5 SHL DUP2 MSTORE PUSH1 0x20 PUSH1 0x4 DUP3 ADD MSTORE PUSH1 0x29 PUSH1 0x24 DUP3 ADD MSTORE PUSH32 0x4552433732313A2061646472657373207A65726F206973206E6F742061207661 PUSH1 0x44 DUP3 ADD MSTORE PUSH9 0x3634B21037BBB732B9 PUSH1 0xB9 SHL PUSH1 0x64 DUP3 ADD MSTORE PUSH1 0x84 ADD PUSH2 0x3DF JUMP JUMPDEST POP PUSH1 0x1 PUSH1 0x1 PUSH1 0xA0 SHL SUB AND PUSH1 0x0 SWAP1 DUP2 MSTORE PUSH1 0x3 PUSH1 0x20 MSTORE PUSH1 0x40 SWAP1 KECCAK256 SLOAD SWAP1 JUMP JUMPDEST PUSH1 0x60 PUSH1 0x1 DUP1 SLOAD PUSH2 0x2C1 SWAP1 PUSH2 0x1596 JUMP JUMPDEST PUSH2 0x62C CALLER DUP4 DUP4 PUSH2 0xB06 JUMP JUMPDEST POP POP JUMP JUMPDEST PUSH1 0x0 PUSH2 0x63B PUSH1 0x7 SLOAD SWAP1 JUMP JUMPDEST SWAP1 POP SWAP1 JUMP JUMPDEST PUSH2 0x64A CALLER DUP4 PUSH2 0x8E4 JUMP JUMPDEST PUSH2 0x666 JUMPI PUSH1 0x40 MLOAD PUSH3 0x461BCD PUSH1 0xE5 SHL DUP2 MSTORE PUSH1 0x4 ADD PUSH2 0x3DF SWAP1 PUSH2 0x15D0 JUMP JUMPDEST PUSH2 0x672 DUP5 DUP5 DUP5 DUP5 PUSH2 0xBD4 JUMP JUMPDEST POP POP POP POP JUMP JUMPDEST PUSH1 0x60 PUSH2 0x683 DUP3 PUSH2 0x817 JUMP JUMPDEST PUSH1 0x0 DUP3 DUP2 MSTORE PUSH1 0x6 PUSH1 0x20 MSTORE PUSH1 0x40 DUP2 KECCAK256 DUP1 SLOAD PUSH2 0x69C SWAP1 PUSH2 0x1596 JUMP JUMPDEST DUP1 PUSH1 0x1F ADD PUSH1 0x20 DUP1 SWAP2 DIV MUL PUSH1 0x20 ADD PUSH1 0x40 MLOAD SWAP1 DUP2 ADD PUSH1 0x40 MSTORE DUP1 SWAP3 SWAP2 SWAP1 DUP2 DUP2 MSTORE PUSH1 0x20 ADD DUP3 DUP1 SLOAD PUSH2 0x6C8 SWAP1 PUSH2 0x1596 JUMP JUMPDEST DUP1 ISZERO PUSH2 0x715 JUMPI DUP1 PUSH1 0x1F LT PUSH2 0x6EA JUMPI PUSH2 0x100 DUP1 DUP4 SLOAD DIV MUL DUP4 MSTORE SWAP2 PUSH1 0x20 ADD SWAP2 PUSH2 0x715 JUMP JUMPDEST DUP3 ADD SWAP2 SWAP1 PUSH1 0x0 MSTORE PUSH1 0x20 PUSH1 0x0 KECCAK256 SWAP1 JUMPDEST DUP2 SLOAD DUP2 MSTORE SWAP1 PUSH1 0x1 ADD SWAP1 PUSH1 0x20 ADD DUP1 DUP4 GT PUSH2 0x6F8 JUMPI DUP3 SWAP1 SUB PUSH1 0x1F AND DUP3 ADD SWAP2 JUMPDEST POP POP POP POP POP SWAP1 POP PUSH1 0x0 PUSH2 0x733 PUSH1 0x40 DUP1 MLOAD PUSH1 0x20 DUP2 ADD SWAP1 SWAP2 MSTORE PUSH1 0x0 DUP2 MSTORE SWAP1 JUMP JUMPDEST SWAP1 POP DUP1 MLOAD PUSH1 0x0 SUB PUSH2 0x745 JUMPI POP SWAP3 SWAP2 POP POP JUMP JUMPDEST DUP2 MLOAD ISZERO PUSH2 0x777 JUMPI DUP1 DUP3 PUSH1 0x40 MLOAD PUSH1 0x20 ADD PUSH2 0x75F SWAP3 SWAP2 SWAP1 PUSH2 0x161D JUMP JUMPDEST PUSH1 0x40 MLOAD PUSH1 0x20 DUP2 DUP4 SUB SUB DUP2 MSTORE SWAP1 PUSH1 0x40 MSTORE SWAP3 POP POP POP SWAP2 SWAP1 POP JUMP JUMPDEST PUSH2 0x780 DUP5 PUSH2 0xC07 JUMP JUMPDEST SWAP5 SWAP4 POP POP POP POP JUMP JUMPDEST PUSH1 0x0 PUSH2 0x798 PUSH1 0x7 DUP1 SLOAD PUSH1 0x1 ADD SWAP1 SSTORE JUMP JUMPDEST PUSH1 0x0 PUSH2 0x7A3 PUSH1 0x7 SLOAD SWAP1 JUMP JUMPDEST SWAP1 POP PUSH2 0x7AF DUP5 DUP3 PUSH2 0xC7A JUMP JUMPDEST DUP3 MLOAD ISZERO PUSH2 0x7C0 JUMPI PUSH2 0x7C0 DUP2 DUP5 PUSH2 0xC94 JUMP JUMPDEST SWAP4 SWAP3 POP POP POP JUMP JUMPDEST PUSH1 0x0 PUSH1 0x1 PUSH1 0x1 PUSH1 0xE0 SHL SUB NOT DUP3 AND PUSH4 0x80AC58CD PUSH1 0xE0 SHL EQ DUP1 PUSH2 0x7F8 JUMPI POP PUSH1 0x1 PUSH1 0x1 PUSH1 0xE0 SHL SUB NOT DUP3 AND PUSH4 0x5B5E139F PUSH1 0xE0 SHL EQ JUMPDEST DUP1 PUSH2 0x2AC JUMPI POP PUSH4 0x1FFC9A7 PUSH1 0xE0 SHL PUSH1 0x1 PUSH1 0x1 PUSH1 0xE0 SHL SUB NOT DUP4 AND EQ PUSH2 0x2AC JUMP JUMPDEST PUSH1 0x0 DUP2 DUP2 MSTORE PUSH1 0x2 PUSH1 0x20 MSTORE PUSH1 0x40 SWAP1 KECCAK256 SLOAD PUSH1 0x1 PUSH1 0x1 PUSH1 0xA0 SHL SUB AND PUSH2 0x529 JUMPI PUSH1 0x40 MLOAD PUSH3 0x461BCD PUSH1 0xE5 SHL DUP2 MSTORE PUSH1 0x20 PUSH1 0x4 DUP3 ADD MSTORE PUSH1 0x18 PUSH1 0x24 DUP3 ADD MSTORE PUSH24 0x115490CDCC8C4E881A5B9D985B1A59081D1BDAD95B881251 PUSH1 0x42 SHL PUSH1 0x44 DUP3 ADD MSTORE PUSH1 0x64 ADD PUSH2 0x3DF JUMP JUMPDEST PUSH1 0x0 DUP2 DUP2 MSTORE PUSH1 0x4 PUSH1 0x20 MSTORE PUSH1 0x40 SWAP1 KECCAK256 DUP1 SLOAD PUSH1 0x1 PUSH1 0x1 PUSH1 0xA0 SHL SUB NOT AND PUSH1 0x1 PUSH1 0x1 PUSH1 0xA0 SHL SUB DUP5 AND SWAP1 DUP2 OR SWAP1 SWAP2 SSTORE DUP2 SWAP1 PUSH2 0x8AB DUP3 PUSH2 0x52C JUMP JUMPDEST PUSH1 0x1 PUSH1 0x1 PUSH1 0xA0 SHL SUB AND PUSH32 0x8C5BE1E5EBEC7D5BD14F71427D1E84F3DD0314C0F7B2291E5B200AC8C7C3B925 PUSH1 0x40 MLOAD PUSH1 0x40 MLOAD DUP1 SWAP2 SUB SWAP1 LOG4 POP POP JUMP JUMPDEST PUSH1 0x0 DUP1 PUSH2 0x8F0 DUP4 PUSH2 0x52C JUMP JUMPDEST SWAP1 POP DUP1 PUSH1 0x1 PUSH1 0x1 PUSH1 0xA0 SHL SUB AND DUP5 PUSH1 0x1 PUSH1 0x1 PUSH1 0xA0 SHL SUB AND EQ DUP1 PUSH2 0x937 JUMPI POP PUSH1 0x1 PUSH1 0x1 PUSH1 0xA0 SHL SUB DUP1 DUP3 AND PUSH1 0x0 SWAP1 DUP2 MSTORE PUSH1 0x5 PUSH1 0x20 SWAP1 DUP2 MSTORE PUSH1 0x40 DUP1 DUP4 KECCAK256 SWAP4 DUP9 AND DUP4 MSTORE SWAP3 SWAP1 MSTORE KECCAK256 SLOAD PUSH1 0xFF AND JUMPDEST DUP1 PUSH2 0x780 JUMPI POP DUP4 PUSH1 0x1 PUSH1 0x1 PUSH1 0xA0 SHL SUB AND PUSH2 0x950 DUP5 PUSH2 0x344 JUMP JUMPDEST PUSH1 0x1 PUSH1 0x1 PUSH1 0xA0 SHL SUB AND EQ SWAP5 SWAP4 POP POP POP POP JUMP JUMPDEST DUP3 PUSH1 0x1 PUSH1 0x1 PUSH1 0xA0 SHL SUB AND PUSH2 0x975 DUP3 PUSH2 0x52C JUMP JUMPDEST PUSH1 0x1 PUSH1 0x1 PUSH1 0xA0 SHL SUB AND EQ PUSH2 0x99B JUMPI PUSH1 0x40 MLOAD PUSH3 0x461BCD PUSH1 0xE5 SHL DUP2 MSTORE PUSH1 0x4 ADD PUSH2 0x3DF SWAP1 PUSH2 0x164C JUMP JUMPDEST PUSH1 0x1 PUSH1 0x1 PUSH1 0xA0 SHL SUB DUP3 AND PUSH2 0x9FD JUMPI PUSH1 0x40 MLOAD PUSH3 0x461BCD PUSH1 0xE5 SHL DUP2 MSTORE PUSH1 0x20 PUSH1 0x4 DUP3 ADD MSTORE PUSH1 0x24 DUP1 DUP3 ADD MSTORE PUSH32 0x4552433732313A207472616E7366657220746F20746865207A65726F20616464 PUSH1 0x44 DUP3 ADD MSTORE PUSH4 0x72657373 PUSH1 0xE0 SHL PUSH1 0x64 DUP3 ADD MSTORE PUSH1 0x84 ADD PUSH2 0x3DF JUMP JUMPDEST DUP3 PUSH1 0x1 PUSH1 0x1 PUSH1 0xA0 SHL SUB AND PUSH2 0xA10 DUP3 PUSH2 0x52C JUMP JUMPDEST PUSH1 0x1 PUSH1 0x1 PUSH1 0xA0 SHL SUB AND EQ PUSH2 0xA36 JUMPI PUSH1 0x40 MLOAD PUSH3 0x461BCD PUSH1 0xE5 SHL DUP2 MSTORE PUSH1 0x4 ADD PUSH2 0x3DF SWAP1 PUSH2 0x164C JUMP JUMPDEST PUSH1 0x0 DUP2 DUP2 MSTORE PUSH1 0x4 PUSH1 0x20 SWAP1 DUP2 MSTORE PUSH1 0x40 DUP1 DUP4 KECCAK256 DUP1 SLOAD PUSH1 0x1 PUSH1 0x1 PUSH1 0xA0 SHL SUB NOT SWAP1 DUP2 AND SWAP1 SWAP2 SSTORE PUSH1 0x1 PUSH1 0x1 PUSH1 0xA0 SHL SUB DUP8 DUP2 AND DUP1 DUP7 MSTORE PUSH1 0x3 DUP6 MSTORE DUP4 DUP7 KECCAK256 DUP1 SLOAD PUSH1 0x0 NOT ADD SWAP1 SSTORE SWAP1 DUP8 AND DUP1 DUP7 MSTORE DUP4 DUP7 KECCAK256 DUP1 SLOAD PUSH1 0x1 ADD SWAP1 SSTORE DUP7 DUP7 MSTORE PUSH1 0x2 SWAP1 SWAP5 MSTORE DUP3 DUP6 KECCAK256 DUP1 SLOAD SWAP1 SWAP3 AND DUP5 OR SWAP1 SWAP2 SSTORE SWAP1 MLOAD DUP5 SWAP4 PUSH32 0xDDF252AD1BE2C89B69C2B068FC378DAA952BA7F163C4A11628F55A4DF523B3EF SWAP2 LOG4 POP POP POP JUMP JUMPDEST PUSH2 0xACF DUP2 PUSH2 0xD5F JUMP JUMPDEST PUSH1 0x0 DUP2 DUP2 MSTORE PUSH1 0x6 PUSH1 0x20 MSTORE PUSH1 0x40 SWAP1 KECCAK256 DUP1 SLOAD PUSH2 0xAE8 SWAP1 PUSH2 0x1596 JUMP JUMPDEST ISZERO SWAP1 POP PUSH2 0x529 JUMPI PUSH1 0x0 DUP2 DUP2 MSTORE PUSH1 0x6 PUSH1 0x20 MSTORE PUSH1 0x40 DUP2 KECCAK256 PUSH2 0x529 SWAP2 PUSH2 0x121E JUMP JUMPDEST DUP2 PUSH1 0x1 PUSH1 0x1 PUSH1 0xA0 SHL SUB AND DUP4 PUSH1 0x1 PUSH1 0x1 PUSH1 0xA0 SHL SUB AND SUB PUSH2 0xB67 JUMPI PUSH1 0x40 MLOAD PUSH3 0x461BCD PUSH1 0xE5 SHL DUP2 MSTORE PUSH1 0x20 PUSH1 0x4 DUP3 ADD MSTORE PUSH1 0x19 PUSH1 0x24 DUP3 ADD MSTORE PUSH32 0x4552433732313A20617070726F766520746F2063616C6C657200000000000000 PUSH1 0x44 DUP3 ADD MSTORE PUSH1 0x64 ADD PUSH2 0x3DF JUMP JUMPDEST PUSH1 0x1 PUSH1 0x1 PUSH1 0xA0 SHL SUB DUP4 DUP2 AND PUSH1 0x0 DUP2 DUP2 MSTORE PUSH1 0x5 PUSH1 0x20 SWAP1 DUP2 MSTORE PUSH1 0x40 DUP1 DUP4 KECCAK256 SWAP5 DUP8 AND DUP1 DUP5 MSTORE SWAP5 DUP3 MSTORE SWAP2 DUP3 SWAP1 KECCAK256 DUP1 SLOAD PUSH1 0xFF NOT AND DUP7 ISZERO ISZERO SWAP1 DUP2 OR SWAP1 SWAP2 SSTORE SWAP2 MLOAD SWAP2 DUP3 MSTORE PUSH32 0x17307EAB39AB6107E8899845AD3D59BD9653F200F220920489CA2B5937696C31 SWAP2 ADD PUSH1 0x40 MLOAD DUP1 SWAP2 SUB SWAP1 LOG3 POP POP POP JUMP JUMPDEST PUSH2 0xBDF DUP5 DUP5 DUP5 PUSH2 0x962 JUMP JUMPDEST PUSH2 0xBEB DUP5 DUP5 DUP5 DUP5 PUSH2 0xDF4 JUMP JUMPDEST PUSH2 0x672 JUMPI PUSH1 0x40 MLOAD PUSH3 0x461BCD PUSH1 0xE5 SHL DUP2 MSTORE PUSH1 0x4 ADD PUSH2 0x3DF SWAP1 PUSH2 0x1691 JUMP JUMPDEST PUSH1 0x60 PUSH2 0xC12 DUP3 PUSH2 0x817 JUMP JUMPDEST PUSH1 0x0 PUSH2 0xC29 PUSH1 0x40 DUP1 MLOAD PUSH1 0x20 DUP2 ADD SWAP1 SWAP2 MSTORE PUSH1 0x0 DUP2 MSTORE SWAP1 JUMP JUMPDEST SWAP1 POP PUSH1 0x0 DUP2 MLOAD GT PUSH2 0xC49 JUMPI PUSH1 0x40 MLOAD DUP1 PUSH1 0x20 ADD PUSH1 0x40 MSTORE DUP1 PUSH1 0x0 DUP2 MSTORE POP PUSH2 0x7C0 JUMP JUMPDEST DUP1 PUSH2 0xC53 DUP5 PUSH2 0xEF5 JUMP JUMPDEST PUSH1 0x40 MLOAD PUSH1 0x20 ADD PUSH2 0xC64 SWAP3 SWAP2 SWAP1 PUSH2 0x161D JUMP JUMPDEST PUSH1 0x40 MLOAD PUSH1 0x20 DUP2 DUP4 SUB SUB DUP2 MSTORE SWAP1 PUSH1 0x40 MSTORE SWAP4 SWAP3 POP POP POP JUMP JUMPDEST PUSH2 0x62C DUP3 DUP3 PUSH1 0x40 MLOAD DUP1 PUSH1 0x20 ADD PUSH1 0x40 MSTORE DUP1 PUSH1 0x0 DUP2 MSTORE POP PUSH2 0xF88 JUMP JUMPDEST PUSH1 0x0 DUP3 DUP2 MSTORE PUSH1 0x2 PUSH1 0x20 MSTORE PUSH1 0x40 SWAP1 KECCAK256 SLOAD PUSH1 0x1 PUSH1 0x1 PUSH1 0xA0 SHL SUB AND PUSH2 0xD0F JUMPI PUSH1 0x40 MLOAD PUSH3 0x461BCD PUSH1 0xE5 SHL DUP2 MSTORE PUSH1 0x20 PUSH1 0x4 DUP3 ADD MSTORE PUSH1 0x2E PUSH1 0x24 DUP3 ADD MSTORE PUSH32 0x45524337323155524953746F726167653A2055524920736574206F66206E6F6E PUSH1 0x44 DUP3 ADD MSTORE PUSH14 0x32BC34B9BA32B73A103A37B5B2B7 PUSH1 0x91 SHL PUSH1 0x64 DUP3 ADD MSTORE PUSH1 0x84 ADD PUSH2 0x3DF JUMP JUMPDEST PUSH1 0x0 DUP3 DUP2 MSTORE PUSH1 0x6 PUSH1 0x20 MSTORE PUSH1 0x40 SWAP1 KECCAK256 PUSH2 0xD27 DUP3 DUP3 PUSH2 0x1731 JUMP JUMPDEST POP PUSH1 0x40 MLOAD DUP3 DUP2 MSTORE PUSH32 0xF8E1A15ABA9398E019F0B49DF1A4FDE98EE17AE345CB5F6B5E2C27F5033E8CE7 SWAP1 PUSH1 0x20 ADD PUSH1 0x40 MLOAD DUP1 SWAP2 SUB SWAP1 LOG1 POP POP JUMP JUMPDEST PUSH1 0x0 PUSH2 0xD6A DUP3 PUSH2 0x52C JUMP JUMPDEST SWAP1 POP PUSH2 0xD75 DUP3 PUSH2 0x52C JUMP JUMPDEST PUSH1 0x0 DUP4 DUP2 MSTORE PUSH1 0x4 PUSH1 0x20 SWAP1 DUP2 MSTORE PUSH1 0x40 DUP1 DUP4 KECCAK256 DUP1 SLOAD PUSH1 0x1 PUSH1 0x1 PUSH1 0xA0 SHL SUB NOT SWAP1 DUP2 AND SWAP1 SWAP2 SSTORE PUSH1 0x1 PUSH1 0x1 PUSH1 0xA0 SHL SUB DUP6 AND DUP1 DUP6 MSTORE PUSH1 0x3 DUP5 MSTORE DUP3 DUP6 KECCAK256 DUP1 SLOAD PUSH1 0x0 NOT ADD SWAP1 SSTORE DUP8 DUP6 MSTORE PUSH1 0x2 SWAP1 SWAP4 MSTORE DUP2 DUP5 KECCAK256 DUP1 SLOAD SWAP1 SWAP2 AND SWAP1 SSTORE MLOAD SWAP3 SWAP4 POP DUP5 SWAP3 PUSH32 0xDDF252AD1BE2C89B69C2B068FC378DAA952BA7F163C4A11628F55A4DF523B3EF SWAP1 DUP4 SWAP1 LOG4 POP POP JUMP JUMPDEST PUSH1 0x0 PUSH1 0x1 PUSH1 0x1 PUSH1 0xA0 SHL SUB DUP5 AND EXTCODESIZE ISZERO PUSH2 0xEEA JUMPI PUSH1 0x40 MLOAD PUSH4 0xA85BD01 PUSH1 0xE1 SHL DUP2 MSTORE PUSH1 0x1 PUSH1 0x1 PUSH1 0xA0 SHL SUB DUP6 AND SWAP1 PUSH4 0x150B7A02 SWAP1 PUSH2 0xE38 SWAP1 CALLER SWAP1 DUP10 SWAP1 DUP9 SWAP1 DUP9 SWAP1 PUSH1 0x4 ADD PUSH2 0x17F0 JUMP JUMPDEST PUSH1 0x20 PUSH1 0x40 MLOAD DUP1 DUP4 SUB DUP2 PUSH1 0x0 DUP8 GAS CALL SWAP3 POP POP POP DUP1 ISZERO PUSH2 0xE73 JUMPI POP PUSH1 0x40 DUP1 MLOAD PUSH1 0x1F RETURNDATASIZE SWAP1 DUP2 ADD PUSH1 0x1F NOT AND DUP3 ADD SWAP1 SWAP3 MSTORE PUSH2 0xE70 SWAP2 DUP2 ADD SWAP1 PUSH2 0x182D JUMP JUMPDEST PUSH1 0x1 JUMPDEST PUSH2 0xED0 JUMPI RETURNDATASIZE DUP1 DUP1 ISZERO PUSH2 0xEA1 JUMPI PUSH1 0x40 MLOAD SWAP2 POP PUSH1 0x1F NOT PUSH1 0x3F RETURNDATASIZE ADD AND DUP3 ADD PUSH1 0x40 MSTORE RETURNDATASIZE DUP3 MSTORE RETURNDATASIZE PUSH1 0x0 PUSH1 0x20 DUP5 ADD RETURNDATACOPY PUSH2 0xEA6 JUMP JUMPDEST PUSH1 0x60 SWAP2 POP JUMPDEST POP DUP1 MLOAD PUSH1 0x0 SUB PUSH2 0xEC8 JUMPI PUSH1 0x40 MLOAD PUSH3 0x461BCD PUSH1 0xE5 SHL DUP2 MSTORE PUSH1 0x4 ADD PUSH2 0x3DF SWAP1 PUSH2 0x1691 JUMP JUMPDEST DUP1 MLOAD DUP2 PUSH1 0x20 ADD REVERT JUMPDEST PUSH1 0x1 PUSH1 0x1 PUSH1 0xE0 SHL SUB NOT AND PUSH4 0xA85BD01 PUSH1 0xE1 SHL EQ SWAP1 POP PUSH2 0x780 JUMP JUMPDEST POP PUSH1 0x1 SWAP5 SWAP4 POP POP POP POP JUMP JUMPDEST PUSH1 0x60 PUSH1 0x0 PUSH2 0xF02 DUP4 PUSH2 0xFBB JUMP JUMPDEST PUSH1 0x1 ADD SWAP1 POP PUSH1 0x0 DUP2 PUSH8 0xFFFFFFFFFFFFFFFF DUP2 GT ISZERO PUSH2 0xF22 JUMPI PUSH2 0xF22 PUSH2 0x13F5 JUMP JUMPDEST PUSH1 0x40 MLOAD SWAP1 DUP1 DUP3 MSTORE DUP1 PUSH1 0x1F ADD PUSH1 0x1F NOT AND PUSH1 0x20 ADD DUP3 ADD PUSH1 0x40 MSTORE DUP1 ISZERO PUSH2 0xF4C JUMPI PUSH1 0x20 DUP3 ADD DUP2 DUP1 CALLDATASIZE DUP4 CALLDATACOPY ADD SWAP1 POP JUMPDEST POP SWAP1 POP DUP2 DUP2 ADD PUSH1 0x20 ADD JUMPDEST PUSH1 0x0 NOT ADD PUSH16 0x181899199A1A9B1B9C1CB0B131B232B3 PUSH1 0x81 SHL PUSH1 0xA DUP7 MOD BYTE DUP2 MSTORE8 PUSH1 0xA DUP6 DIV SWAP5 POP DUP5 PUSH2 0xF56 JUMPI POP SWAP4 SWAP3 POP POP POP JUMP JUMPDEST PUSH2 0xF92 DUP4 DUP4 PUSH2 0x1093 JUMP JUMPDEST PUSH2 0xF9F PUSH1 0x0 DUP5 DUP5 DUP5 PUSH2 0xDF4 JUMP JUMPDEST PUSH2 0x480 JUMPI PUSH1 0x40 MLOAD PUSH3 0x461BCD PUSH1 0xE5 SHL DUP2 MSTORE PUSH1 0x4 ADD PUSH2 0x3DF SWAP1 PUSH2 0x1691 JUMP JUMPDEST PUSH1 0x0 DUP1 PUSH19 0x184F03E93FF9F4DAA797ED6E38ED64BF6A1F01 PUSH1 0x40 SHL DUP4 LT PUSH2 0xFFA JUMPI PUSH19 0x184F03E93FF9F4DAA797ED6E38ED64BF6A1F01 PUSH1 0x40 SHL DUP4 DIV SWAP3 POP PUSH1 0x40 ADD JUMPDEST PUSH14 0x4EE2D6D415B85ACEF8100000000 DUP4 LT PUSH2 0x1026 JUMPI PUSH14 0x4EE2D6D415B85ACEF8100000000 DUP4 DIV SWAP3 POP PUSH1 0x20 ADD JUMPDEST PUSH7 0x2386F26FC10000 DUP4 LT PUSH2 0x1044 JUMPI PUSH7 0x2386F26FC10000 DUP4 DIV SWAP3 POP PUSH1 0x10 ADD JUMPDEST PUSH4 0x5F5E100 DUP4 LT PUSH2 0x105C JUMPI PUSH4 0x5F5E100 DUP4 DIV SWAP3 POP PUSH1 0x8 ADD JUMPDEST PUSH2 0x2710 DUP4 LT PUSH2 0x1070 JUMPI PUSH2 0x2710 DUP4 DIV SWAP3 POP PUSH1 0x4 ADD JUMPDEST PUSH1 0x64 DUP4 LT PUSH2 0x1082 JUMPI PUSH1 0x64 DUP4 DIV SWAP3 POP PUSH1 0x2 ADD JUMPDEST PUSH1 0xA DUP4 LT PUSH2 0x2AC JUMPI PUSH1 0x1 ADD SWAP3 SWAP2 POP POP JUMP JUMPDEST PUSH1 0x1 PUSH1 0x1 PUSH1 0xA0 SHL SUB DUP3 AND PUSH2 0x10E9 JUMPI PUSH1 0x40 MLOAD PUSH3 0x461BCD PUSH1 0xE5 SHL DUP2 MSTORE PUSH1 0x20 PUSH1 0x4 DUP3 ADD DUP2 SWAP1 MSTORE PUSH1 0x24 DUP3 ADD MSTORE PUSH32 0x4552433732313A206D696E7420746F20746865207A65726F2061646472657373 PUSH1 0x44 DUP3 ADD MSTORE PUSH1 0x64 ADD PUSH2 0x3DF JUMP JUMPDEST PUSH1 0x0 DUP2 DUP2 MSTORE PUSH1 0x2 PUSH1 0x20 MSTORE PUSH1 0x40 SWAP1 KECCAK256 SLOAD PUSH1 0x1 PUSH1 0x1 PUSH1 0xA0 SHL SUB AND ISZERO PUSH2 0x114E JUMPI PUSH1 0x40 MLOAD PUSH3 0x461BCD PUSH1 0xE5 SHL DUP2 MSTORE PUSH1 0x20 PUSH1 0x4 DUP3 ADD MSTORE PUSH1 0x1C PUSH1 0x24 DUP3 ADD MSTORE PUSH32 0x4552433732313A20746F6B656E20616C7265616479206D696E74656400000000 PUSH1 0x44 DUP3 ADD MSTORE PUSH1 0x64 ADD PUSH2 0x3DF JUMP JUMPDEST PUSH1 0x0 DUP2 DUP2 MSTORE PUSH1 0x2 PUSH1 0x20 MSTORE PUSH1 0x40 SWAP1 KECCAK256 SLOAD PUSH1 0x1 PUSH1 0x1 PUSH1 0xA0 SHL SUB AND ISZERO PUSH2 0x11B3 JUMPI PUSH1 0x40 MLOAD PUSH3 0x461BCD PUSH1 0xE5 SHL DUP2 MSTORE PUSH1 0x20 PUSH1 0x4 DUP3 ADD MSTORE PUSH1 0x1C PUSH1 0x24 DUP3 ADD MSTORE PUSH32 0x4552433732313A20746F6B656E20616C7265616479206D696E74656400000000 PUSH1 0x44 DUP3 ADD MSTORE PUSH1 0x64 ADD PUSH2 0x3DF JUMP JUMPDEST PUSH1 0x1 PUSH1 0x1 PUSH1 0xA0 SHL SUB DUP3 AND PUSH1 0x0 DUP2 DUP2 MSTORE PUSH1 0x3 PUSH1 0x20 SWAP1 DUP2 MSTORE PUSH1 0x40 DUP1 DUP4 KECCAK256 DUP1 SLOAD PUSH1 0x1 ADD SWAP1 SSTORE DUP5 DUP4 MSTORE PUSH1 0x2 SWAP1 SWAP2 MSTORE DUP1 DUP3 KECCAK256 DUP1 SLOAD PUSH1 0x1 PUSH1 0x1 PUSH1 0xA0 SHL SUB NOT AND DUP5 OR SWAP1 SSTORE MLOAD DUP4 SWAP3 SWAP2 SWAP1 PUSH32 0xDDF252AD1BE2C89B69C2B068FC378DAA952BA7F163C4A11628F55A4DF523B3EF SWAP1 DUP3 SWAP1 LOG4 POP POP JUMP JUMPDEST POP DUP1 SLOAD PUSH2 0x122A SWAP1 PUSH2 0x1596 JUMP JUMPDEST PUSH1 0x0 DUP3 SSTORE DUP1 PUSH1 0x1F LT PUSH2 0x123A JUMPI POP POP JUMP JUMPDEST PUSH1 0x1F ADD PUSH1 0x20 SWAP1 DIV SWAP1 PUSH1 0x0 MSTORE PUSH1 0x20 PUSH1 0x0 KECCAK256 SWAP1 DUP2 ADD SWAP1 PUSH2 0x529 SWAP2 SWAP1 JUMPDEST DUP1 DUP3 GT ISZERO PUSH2 0x1268 JUMPI PUSH1 0x0 DUP2 SSTORE PUSH1 0x1 ADD PUSH2 0x1254 JUMP JUMPDEST POP SWAP1 JUMP JUMPDEST PUSH1 0x1 PUSH1 0x1 PUSH1 0xE0 SHL SUB NOT DUP2 AND DUP2 EQ PUSH2 0x529 JUMPI PUSH1 0x0 DUP1 REVERT JUMPDEST PUSH1 0x0 PUSH1 0x20 DUP3 DUP5 SUB SLT ISZERO PUSH2 0x1294 JUMPI PUSH1 0x0 DUP1 REVERT JUMPDEST DUP2 CALLDATALOAD PUSH2 0x7C0 DUP2 PUSH2 0x126C JUMP JUMPDEST PUSH1 0x0 JUMPDEST DUP4 DUP2 LT ISZERO PUSH2 0x12BA JUMPI DUP2 DUP2 ADD MLOAD DUP4 DUP3 ADD MSTORE PUSH1 0x20 ADD PUSH2 0x12A2 JUMP JUMPDEST POP POP PUSH1 0x0 SWAP2 ADD MSTORE JUMP JUMPDEST PUSH1 0x0 DUP2 MLOAD DUP1 DUP5 MSTORE PUSH2 0x12DB DUP2 PUSH1 0x20 DUP7 ADD PUSH1 0x20 DUP7 ADD PUSH2 0x129F JUMP JUMPDEST PUSH1 0x1F ADD PUSH1 0x1F NOT AND SWAP3 SWAP1 SWAP3 ADD PUSH1 0x20 ADD SWAP3 SWAP2 POP POP JUMP JUMPDEST PUSH1 0x20 DUP2 MSTORE PUSH1 0x0 PUSH2 0x7C0 PUSH1 0x20 DUP4 ADD DUP5 PUSH2 0x12C3 JUMP JUMPDEST PUSH1 0x0 PUSH1 0x20 DUP3 DUP5 SUB SLT ISZERO PUSH2 0x1314 JUMPI PUSH1 0x0 DUP1 REVERT JUMPDEST POP CALLDATALOAD SWAP2 SWAP1 POP JUMP JUMPDEST DUP1 CALLDATALOAD PUSH1 0x1 PUSH1 0x1 PUSH1 0xA0 SHL SUB DUP2 AND DUP2 EQ PUSH2 0x1332 JUMPI PUSH1 0x0 DUP1 REVERT JUMPDEST SWAP2 SWAP1 POP JUMP JUMPDEST PUSH1 0x0 DUP1 PUSH1 0x40 DUP4 DUP6 SUB SLT ISZERO PUSH2 0x134A JUMPI PUSH1 0x0 DUP1 REVERT JUMPDEST PUSH2 0x1353 DUP4 PUSH2 0x131B JUMP JUMPDEST SWAP5 PUSH1 0x20 SWAP4 SWAP1 SWAP4 ADD CALLDATALOAD SWAP4 POP POP POP JUMP JUMPDEST PUSH1 0x0 DUP1 PUSH1 0x0 PUSH1 0x60 DUP5 DUP7 SUB SLT ISZERO PUSH2 0x1376 JUMPI PUSH1 0x0 DUP1 REVERT JUMPDEST PUSH2 0x137F DUP5 PUSH2 0x131B JUMP JUMPDEST SWAP3 POP PUSH2 0x138D PUSH1 0x20 DUP6 ADD PUSH2 0x131B JUMP JUMPDEST SWAP3 SWAP6 SWAP3 SWAP5 POP POP POP PUSH1 0x40 SWAP2 SWAP1 SWAP2 ADD CALLDATALOAD SWAP1 JUMP JUMPDEST PUSH1 0x0 PUSH1 0x20 DUP3 DUP5 SUB SLT ISZERO PUSH2 0x13B0 JUMPI PUSH1 0x0 DUP1 REVERT JUMPDEST PUSH2 0x7C0 DUP3 PUSH2 0x131B JUMP JUMPDEST PUSH1 0x0 DUP1 PUSH1 0x40 DUP4 DUP6 SUB SLT ISZERO PUSH2 0x13CC JUMPI PUSH1 0x0 DUP1 REVERT JUMPDEST PUSH2 0x13D5 DUP4 PUSH2 0x131B JUMP JUMPDEST SWAP2 POP PUSH1 0x20 DUP4 ADD CALLDATALOAD DUP1 ISZERO ISZERO DUP2 EQ PUSH2 0x13EA JUMPI PUSH1 0x0 DUP1 REVERT JUMPDEST DUP1 SWAP2 POP POP SWAP3 POP SWAP3 SWAP1 POP JUMP JUMPDEST PUSH4 0x4E487B71 PUSH1 0xE0 SHL PUSH1 0x0 MSTORE PUSH1 0x41 PUSH1 0x4 MSTORE PUSH1 0x24 PUSH1 0x0 REVERT JUMPDEST PUSH1 0x0 DUP1 PUSH8 0xFFFFFFFFFFFFFFFF DUP5 GT ISZERO PUSH2 0x1426 JUMPI PUSH2 0x1426 PUSH2 0x13F5 JUMP JUMPDEST POP PUSH1 0x40 MLOAD PUSH1 0x1F NOT PUSH1 0x1F DUP6 ADD DUP2 AND PUSH1 0x3F ADD AND DUP2 ADD DUP2 DUP2 LT PUSH8 0xFFFFFFFFFFFFFFFF DUP3 GT OR ISZERO PUSH2 0x1455 JUMPI PUSH2 0x1455 PUSH2 0x13F5 JUMP JUMPDEST PUSH1 0x40 MSTORE DUP4 DUP2 MSTORE SWAP1 POP DUP1 DUP3 DUP5 ADD DUP6 LT ISZERO PUSH2 0x146D JUMPI PUSH1 0x0 DUP1 REVERT JUMPDEST DUP4 DUP4 PUSH1 0x20 DUP4 ADD CALLDATACOPY PUSH1 0x0 PUSH1 0x20 DUP6 DUP4 ADD ADD MSTORE POP SWAP4 SWAP3 POP POP POP JUMP JUMPDEST PUSH1 0x0 DUP1 PUSH1 0x0 DUP1 PUSH1 0x80 DUP6 DUP8 SUB SLT ISZERO PUSH2 0x149B JUMPI PUSH1 0x0 DUP1 REVERT JUMPDEST PUSH2 0x14A4 DUP6 PUSH2 0x131B JUMP JUMPDEST SWAP4 POP PUSH2 0x14B2 PUSH1 0x20 DUP7 ADD PUSH2 0x131B JUMP JUMPDEST SWAP3 POP PUSH1 0x40 DUP6 ADD CALLDATALOAD SWAP2 POP PUSH1 0x60 DUP6 ADD CALLDATALOAD PUSH8 0xFFFFFFFFFFFFFFFF DUP2 GT ISZERO PUSH2 0x14D5 JUMPI PUSH1 0x0 DUP1 REVERT JUMPDEST DUP6 ADD PUSH1 0x1F DUP2 ADD DUP8 SGT PUSH2 0x14E6 JUMPI PUSH1 0x0 DUP1 REVERT JUMPDEST PUSH2 0x14F5 DUP8 DUP3 CALLDATALOAD PUSH1 0x20 DUP5 ADD PUSH2 0x140B JUMP JUMPDEST SWAP2 POP POP SWAP3 SWAP6 SWAP2 SWAP5 POP SWAP3 POP JUMP JUMPDEST PUSH1 0x0 DUP1 PUSH1 0x40 DUP4 DUP6 SUB SLT ISZERO PUSH2 0x1514 JUMPI PUSH1 0x0 DUP1 REVERT JUMPDEST PUSH2 0x151D DUP4 PUSH2 0x131B JUMP JUMPDEST SWAP2 POP PUSH1 0x20 DUP4 ADD CALLDATALOAD PUSH8 0xFFFFFFFFFFFFFFFF DUP2 GT ISZERO PUSH2 0x1539 JUMPI PUSH1 0x0 DUP1 REVERT JUMPDEST DUP4 ADD PUSH1 0x1F DUP2 ADD DUP6 SGT PUSH2 0x154A JUMPI PUSH1 0x0 DUP1 REVERT JUMPDEST PUSH2 0x1559 DUP6 DUP3 CALLDATALOAD PUSH1 0x20 DUP5 ADD PUSH2 0x140B JUMP JUMPDEST SWAP2 POP POP SWAP3 POP SWAP3 SWAP1 POP JUMP JUMPDEST PUSH1 0x0 DUP1 PUSH1 0x40 DUP4 DUP6 SUB SLT ISZERO PUSH2 0x1576 JUMPI PUSH1 0x0 DUP1 REVERT JUMPDEST PUSH2 0x157F DUP4 PUSH2 0x131B JUMP JUMPDEST SWAP2 POP PUSH2 0x158D PUSH1 0x20 DUP5 ADD PUSH2 0x131B JUMP JUMPDEST SWAP1 POP SWAP3 POP SWAP3 SWAP1 POP JUMP JUMPDEST PUSH1 0x1 DUP2 DUP2 SHR SWAP1 DUP3 AND DUP1 PUSH2 0x15AA JUMPI PUSH1 0x7F DUP3 AND SWAP2 POP JUMPDEST PUSH1 0x20 DUP3 LT DUP2 SUB PUSH2 0x15CA JUMPI PUSH4 0x4E487B71 PUSH1 0xE0 SHL PUSH1 0x0 MSTORE PUSH1 0x22 PUSH1 0x4 MSTORE PUSH1 0x24 PUSH1 0x0 REVERT JUMPDEST POP SWAP2 SWAP1 POP JUMP JUMPDEST PUSH1 0x20 DUP1 DUP3 MSTORE PUSH1 0x2D SWAP1 DUP3 ADD MSTORE PUSH32 0x4552433732313A2063616C6C6572206973206E6F7420746F6B656E206F776E65 PUSH1 0x40 DUP3 ADD MSTORE PUSH13 0x1C881BDC88185C1C1C9BDD9959 PUSH1 0x9A SHL PUSH1 0x60 DUP3 ADD MSTORE PUSH1 0x80 ADD SWAP1 JUMP JUMPDEST PUSH1 0x0 DUP4 MLOAD PUSH2 0x162F DUP2 DUP5 PUSH1 0x20 DUP9 ADD PUSH2 0x129F JUMP JUMPDEST DUP4 MLOAD SWAP1 DUP4 ADD SWAP1 PUSH2 0x1643 DUP2 DUP4 PUSH1 0x20 DUP9 ADD PUSH2 0x129F JUMP JUMPDEST ADD SWAP5 SWAP4 POP POP POP POP JUMP JUMPDEST PUSH1 0x20 DUP1 DUP3 MSTORE PUSH1 0x25 SWAP1 DUP3 ADD MSTORE PUSH32 0x4552433732313A207472616E736665722066726F6D20696E636F727265637420 PUSH1 0x40 DUP3 ADD MSTORE PUSH5 0x37BBB732B9 PUSH1 0xD9 SHL PUSH1 0x60 DUP3 ADD MSTORE PUSH1 0x80 ADD SWAP1 JUMP JUMPDEST PUSH1 0x20 DUP1 DUP3 MSTORE PUSH1 0x32 SWAP1 DUP3 ADD MSTORE PUSH32 0x4552433732313A207472616E7366657220746F206E6F6E204552433732315265 PUSH1 0x40 DUP3 ADD MSTORE PUSH18 0x31B2B4BB32B91034B6B83632B6B2B73A32B9 PUSH1 0x71 SHL PUSH1 0x60 DUP3 ADD MSTORE PUSH1 0x80 ADD SWAP1 JUMP JUMPDEST PUSH1 0x1F DUP3 GT ISZERO PUSH2 0x480 JUMPI DUP1 PUSH1 0x0 MSTORE PUSH1 0x20 PUSH1 0x0 KECCAK256 PUSH1 0x1F DUP5 ADD PUSH1 0x5 SHR DUP2 ADD PUSH1 0x20 DUP6 LT ISZERO PUSH2 0x170A JUMPI POP DUP1 JUMPDEST PUSH1 0x1F DUP5 ADD PUSH1 0x5 SHR DUP3 ADD SWAP2 POP JUMPDEST DUP2 DUP2 LT ISZERO PUSH2 0x172A JUMPI PUSH1 0x0 DUP2 SSTORE PUSH1 0x1 ADD PUSH2 0x1716 JUMP JUMPDEST POP POP POP POP POP JUMP JUMPDEST DUP2 MLOAD PUSH8 0xFFFFFFFFFFFFFFFF DUP2 GT ISZERO PUSH2 0x174B JUMPI PUSH2 0x174B PUSH2 0x13F5 JUMP JUMPDEST PUSH2 0x175F DUP2 PUSH2 0x1759 DUP5 SLOAD PUSH2 0x1596 JUMP JUMPDEST DUP5 PUSH2 0x16E3 JUMP JUMPDEST PUSH1 0x20 PUSH1 0x1F DUP3 GT PUSH1 0x1 DUP2 EQ PUSH2 0x1793 JUMPI PUSH1 0x0 DUP4 ISZERO PUSH2 0x177B JUMPI POP DUP5 DUP3 ADD MLOAD JUMPDEST PUSH1 0x0 NOT PUSH1 0x3 DUP6 SWAP1 SHL SHR NOT AND PUSH1 0x1 DUP5 SWAP1 SHL OR DUP5 SSTORE PUSH2 0x172A JUMP JUMPDEST PUSH1 0x0 DUP5 DUP2 MSTORE PUSH1 0x20 DUP2 KECCAK256 PUSH1 0x1F NOT DUP6 AND SWAP2 JUMPDEST DUP3 DUP2 LT ISZERO PUSH2 0x17C3 JUMPI DUP8 DUP6 ADD MLOAD DUP3 SSTORE PUSH1 0x20 SWAP5 DUP6 ADD SWAP5 PUSH1 0x1 SWAP1 SWAP3 ADD SWAP2 ADD PUSH2 0x17A3 JUMP JUMPDEST POP DUP5 DUP3 LT ISZERO PUSH2 0x17E1 JUMPI DUP7 DUP5 ADD MLOAD PUSH1 0x0 NOT PUSH1 0x3 DUP8 SWAP1 SHL PUSH1 0xF8 AND SHR NOT AND DUP2 SSTORE JUMPDEST POP POP POP POP PUSH1 0x1 SWAP1 DUP2 SHL ADD SWAP1 SSTORE POP JUMP JUMPDEST PUSH1 0x1 PUSH1 0x1 PUSH1 0xA0 SHL SUB DUP6 DUP2 AND DUP3 MSTORE DUP5 AND PUSH1 0x20 DUP3 ADD MSTORE PUSH1 0x40 DUP2 ADD DUP4 SWAP1 MSTORE PUSH1 0x80 PUSH1 0x60 DUP3 ADD DUP2 SWAP1 MSTORE PUSH1 0x0 SWAP1 PUSH2 0x1823 SWAP1 DUP4 ADD DUP5 PUSH2 0x12C3 JUMP JUMPDEST SWAP7 SWAP6 POP POP POP POP POP POP JUMP JUMPDEST PUSH1 0x0 PUSH1 0x20 DUP3 DUP5 SUB SLT ISZERO PUSH2 0x183F JUMPI PUSH1 0x0 DUP1 REVERT JUMPDEST DUP2 MLOAD PUSH2 0x7C0 DUP2 PUSH2 0x126C JUMP INVALID LOG2 PUSH5 0x6970667358 0x22 SLT KECCAK256 CALLDATACOPY PUSH2 0xDEAA 0xD1 SWAP9 GASLIMIT GASPRICE MSIZE TIMESTAMP MLOAD PREVRANDAO ADDRESS GASLIMIT PUSH21 0x1EB2BBC5AE1F241574D05A7719BFA9E2CE64736F6C PUSH4 0x4300081C STOP CALLER "},"methodIdentifiers":{"approve(address,uint256)":"095ea7b3","balanceOf(address)":"70a08231","burn(uint256)":"42966c68","getApproved(uint256)":"081812fc","isApprovedForAll(address,address)":"e985e9c5","mint(address,string)":"d0def521","name()":"06fdde03","ownerOf(uint256)":"6352211e","safeTransferFrom(address,address,uint256)":"42842e0e","safeTransferFrom(address,address,uint256,bytes)":"b88d4fde","setApprovalForAll(address,bool)":"a22cb465","supportsInterface(bytes4)":"01ffc9a7","symbol()":"95d89b41","tokenURI(uint256)":"c87b56dd","totalMinted()":"a2309ff8","transferFrom(address,address,uint256)":"23b872dd"}}}}}