{"contracts/EMN/EMN.sol":{"EminarToken":{"abi":[{"inputs":[{"internalType":"string","name":"name_","type":"string"},{"internalType":"string","name":"symbol_","type":"string"},{"internalType":"address","name":"publicAddr_","type":"address"},{"internalType":"address","name":"reserveAddr_","type":"address"},{"internalType":"address","name":"devAddr_","type":"address"},{"internalType":"address","name":"shariaAddr_","type":"address"},{"internalType":"address","name":"strategicAddr_","type":"address"},{"internalType":"address","name":"governanceMultisig_","type":"address"}],"stateMutability":"nonpayable","type":"constructor"},{"inputs":[],"name":"InvalidShortString","type":"error"},{"inputs":[{"internalType":"string","name":"str","type":"string"}],"name":"StringTooLong","type":"error"},{"anonymous":false,"inputs":[{"indexed":true,"internalType":"address","name":"owner","type":"address"},{"indexed":true,"internalType":"address","name":"spender","type":"address"},{"indexed":false,"internalType":"uint256","name":"value","type":"uint256"}],"name":"Approval","type":"event"},{"anonymous":false,"inputs":[{"indexed":true,"internalType":"enum EminarToken.BackingAsset","name":"asset","type":"uint8"},{"indexed":false,"internalType":"uint256","name":"priceUSD","type":"uint256"}],"name":"AssetPriceUpdated","type":"event"},{"anonymous":false,"inputs":[{"indexed":true,"internalType":"enum EminarToken.BackingAsset","name":"asset","type":"uint8"},{"indexed":true,"internalType":"address","name":"from","type":"address"},{"indexed":false,"internalType":"uint256","name":"amount","type":"uint256"}],"name":"BackingDeposited","type":"event"},{"anonymous":false,"inputs":[{"indexed":true,"internalType":"enum EminarToken.BackingAsset","name":"asset","type":"uint8"},{"indexed":false,"internalType":"address","name":"token","type":"address"}],"name":"BackingTokenRegistered","type":"event"},{"anonymous":false,"inputs":[{"indexed":true,"internalType":"enum EminarToken.BackingAsset","name":"asset","type":"uint8"},{"indexed":true,"internalType":"address","name":"to","type":"address"},{"indexed":false,"internalType":"uint256","name":"amount","type":"uint256"}],"name":"BackingWithdrawn","type":"event"},{"anonymous":false,"inputs":[{"indexed":true,"internalType":"address","name":"delegator","type":"address"},{"indexed":true,"internalType":"address","name":"fromDelegate","type":"address"},{"indexed":true,"internalType":"address","name":"toDelegate","type":"address"}],"name":"DelegateChanged","type":"event"},{"anonymous":false,"inputs":[{"indexed":true,"internalType":"address","name":"delegate","type":"address"},{"indexed":false,"internalType":"uint256","name":"previousBalance","type":"uint256"},{"indexed":false,"internalType":"uint256","name":"newBalance","type":"uint256"}],"name":"DelegateVotesChanged","type":"event"},{"anonymous":false,"inputs":[],"name":"EIP712DomainChanged","type":"event"},{"anonymous":false,"inputs":[{"indexed":false,"internalType":"address","name":"account","type":"address"}],"name":"Paused","type":"event"},{"anonymous":false,"inputs":[{"indexed":true,"internalType":"bytes32","name":"role","type":"bytes32"},{"indexed":true,"internalType":"bytes32","name":"previousAdminRole","type":"bytes32"},{"indexed":true,"internalType":"bytes32","name":"newAdminRole","type":"bytes32"}],"name":"RoleAdminChanged","type":"event"},{"anonymous":false,"inputs":[{"indexed":true,"internalType":"bytes32","name":"role","type":"bytes32"},{"indexed":true,"internalType":"address","name":"account","type":"address"},{"indexed":true,"internalType":"address","name":"sender","type":"address"}],"name":"RoleGranted","type":"event"},{"anonymous":false,"inputs":[{"indexed":true,"internalType":"bytes32","name":"role","type":"bytes32"},{"indexed":true,"internalType":"address","name":"account","type":"address"},{"indexed":true,"internalType":"address","name":"sender","type":"address"}],"name":"RoleRevoked","type":"event"},{"anonymous":false,"inputs":[{"indexed":true,"internalType":"address","name":"from","type":"address"},{"indexed":false,"internalType":"uint256","name":"amount","type":"uint256"},{"indexed":false,"internalType":"string","name":"reason","type":"string"}],"name":"TokensBurned","type":"event"},{"anonymous":false,"inputs":[{"indexed":true,"internalType":"address","name":"to","type":"address"},{"indexed":false,"internalType":"uint256","name":"amount","type":"uint256"},{"indexed":false,"internalType":"string","name":"reason","type":"string"}],"name":"TokensMinted","type":"event"},{"anonymous":false,"inputs":[{"indexed":true,"internalType":"address","name":"from","type":"address"},{"indexed":true,"internalType":"address","name":"to","type":"address"},{"indexed":false,"internalType":"uint256","name":"value","type":"uint256"}],"name":"Transfer","type":"event"},{"anonymous":false,"inputs":[{"indexed":false,"internalType":"address","name":"account","type":"address"}],"name":"Unpaused","type":"event"},{"inputs":[],"name":"BACKING_MANAGER_ROLE","outputs":[{"internalType":"bytes32","name":"","type":"bytes32"}],"stateMutability":"view","type":"function"},{"inputs":[],"name":"BURNER_ROLE","outputs":[{"internalType":"bytes32","name":"","type":"bytes32"}],"stateMutability":"view","type":"function"},{"inputs":[],"name":"CLOCK_MODE","outputs":[{"internalType":"string","name":"","type":"string"}],"stateMutability":"view","type":"function"},{"inputs":[],"name":"DEFAULT_ADMIN_ROLE","outputs":[{"internalType":"bytes32","name":"","type":"bytes32"}],"stateMutability":"view","type":"function"},{"inputs":[],"name":"DOMAIN_SEPARATOR","outputs":[{"internalType":"bytes32","name":"","type":"bytes32"}],"stateMutability":"view","type":"function"},{"inputs":[],"name":"GOVERNANCE_ROLE","outputs":[{"internalType":"bytes32","name":"","type":"bytes32"}],"stateMutability":"view","type":"function"},{"inputs":[],"name":"INITIAL_SUPPLY","outputs":[{"internalType":"uint256","name":"","type":"uint256"}],"stateMutability":"view","type":"function"},{"inputs":[],"name":"MAX_SUPPLY","outputs":[{"internalType":"uint256","name":"","type":"uint256"}],"stateMutability":"view","type":"function"},{"inputs":[],"name":"MINTER_ROLE","outputs":[{"internalType":"bytes32","name":"","type":"bytes32"}],"stateMutability":"view","type":"function"},{"inputs":[],"name":"PAUSER_ROLE","outputs":[{"internalType":"bytes32","name":"","type":"bytes32"}],"stateMutability":"view","type":"function"},{"inputs":[],"name":"RECOVERY_ROLE","outputs":[{"internalType":"bytes32","name":"","type":"bytes32"}],"stateMutability":"view","type":"function"},{"inputs":[{"internalType":"address","name":"owner","type":"address"},{"internalType":"address","name":"spender","type":"address"}],"name":"allowance","outputs":[{"internalType":"uint256","name":"","type":"uint256"}],"stateMutability":"view","type":"function"},{"inputs":[{"internalType":"address","name":"spender","type":"address"},{"internalType":"uint256","name":"amount","type":"uint256"}],"name":"approve","outputs":[{"internalType":"bool","name":"","type":"bool"}],"stateMutability":"nonpayable","type":"function"},{"inputs":[],"name":"backingPerTokenUSD","outputs":[{"internalType":"uint256","name":"","type":"uint256"}],"stateMutability":"view","type":"function"},{"inputs":[{"internalType":"address","name":"account","type":"address"}],"name":"balanceOf","outputs":[{"internalType":"uint256","name":"","type":"uint256"}],"stateMutability":"view","type":"function"},{"inputs":[{"internalType":"address","name":"from","type":"address"},{"internalType":"uint256","name":"amount","type":"uint256"},{"internalType":"string","name":"reason","type":"string"}],"name":"burn","outputs":[],"stateMutability":"nonpayable","type":"function"},{"inputs":[{"internalType":"uint256","name":"amount","type":"uint256"},{"internalType":"string","name":"reason","type":"string"}],"name":"burnMyTokens","outputs":[],"stateMutability":"nonpayable","type":"function"},{"inputs":[{"internalType":"address","name":"account","type":"address"},{"internalType":"uint32","name":"pos","type":"uint32"}],"name":"checkpoints","outputs":[{"components":[{"internalType":"uint32","name":"fromBlock","type":"uint32"},{"internalType":"uint224","name":"votes","type":"uint224"}],"internalType":"struct ERC20Votes.Checkpoint","name":"","type":"tuple"}],"stateMutability":"view","type":"function"},{"inputs":[],"name":"clock","outputs":[{"internalType":"uint48","name":"","type":"uint48"}],"stateMutability":"view","type":"function"},{"inputs":[],"name":"decimals","outputs":[{"internalType":"uint8","name":"","type":"uint8"}],"stateMutability":"pure","type":"function"},{"inputs":[{"internalType":"address","name":"spender","type":"address"},{"internalType":"uint256","name":"subtractedValue","type":"uint256"}],"name":"decreaseAllowance","outputs":[{"internalType":"bool","name":"","type":"bool"}],"stateMutability":"nonpayable","type":"function"},{"inputs":[{"internalType":"address","name":"delegatee","type":"address"}],"name":"delegate","outputs":[],"stateMutability":"nonpayable","type":"function"},{"inputs":[{"internalType":"address","name":"delegatee","type":"address"},{"internalType":"uint256","name":"nonce","type":"uint256"},{"internalType":"uint256","name":"expiry","type":"uint256"},{"internalType":"uint8","name":"v","type":"uint8"},{"internalType":"bytes32","name":"r","type":"bytes32"},{"internalType":"bytes32","name":"s","type":"bytes32"}],"name":"delegateBySig","outputs":[],"stateMutability":"nonpayable","type":"function"},{"inputs":[{"internalType":"address","name":"account","type":"address"}],"name":"delegates","outputs":[{"internalType":"address","name":"","type":"address"}],"stateMutability":"view","type":"function"},{"inputs":[{"internalType":"enum EminarToken.BackingAsset","name":"asset","type":"uint8"},{"internalType":"uint256","name":"amount","type":"uint256"}],"name":"depositBacking","outputs":[],"stateMutability":"nonpayable","type":"function"},{"inputs":[],"name":"developmentAddress","outputs":[{"internalType":"address","name":"","type":"address"}],"stateMutability":"view","type":"function"},{"inputs":[],"name":"eip712Domain","outputs":[{"internalType":"bytes1","name":"fields","type":"bytes1"},{"internalType":"string","name":"name","type":"string"},{"internalType":"string","name":"version","type":"string"},{"internalType":"uint256","name":"chainId","type":"uint256"},{"internalType":"address","name":"verifyingContract","type":"address"},{"internalType":"bytes32","name":"salt","type":"bytes32"},{"internalType":"uint256[]","name":"extensions","type":"uint256[]"}],"stateMutability":"view","type":"function"},{"inputs":[{"internalType":"address","name":"token","type":"address"},{"internalType":"address","name":"to","type":"address"},{"internalType":"uint256","name":"amount","type":"uint256"}],"name":"emergencyRecoverERC20","outputs":[],"stateMutability":"nonpayable","type":"function"},{"inputs":[{"internalType":"enum EminarToken.BackingAsset","name":"asset","type":"uint8"}],"name":"getAssetInfo","outputs":[{"components":[{"internalType":"contract IERC20","name":"token","type":"address"},{"internalType":"uint256","name":"amount","type":"uint256"},{"internalType":"uint256","name":"priceUSD","type":"uint256"},{"internalType":"bool","name":"registered","type":"bool"}],"internalType":"struct EminarToken.AssetInfo","name":"","type":"tuple"}],"stateMutability":"view","type":"function"},{"inputs":[{"internalType":"uint256","name":"timepoint","type":"uint256"}],"name":"getPastTotalSupply","outputs":[{"internalType":"uint256","name":"","type":"uint256"}],"stateMutability":"view","type":"function"},{"inputs":[{"internalType":"address","name":"account","type":"address"},{"internalType":"uint256","name":"timepoint","type":"uint256"}],"name":"getPastVotes","outputs":[{"internalType":"uint256","name":"","type":"uint256"}],"stateMutability":"view","type":"function"},{"inputs":[{"internalType":"bytes32","name":"role","type":"bytes32"}],"name":"getRoleAdmin","outputs":[{"internalType":"bytes32","name":"","type":"bytes32"}],"stateMutability":"view","type":"function"},{"inputs":[{"internalType":"address","name":"account","type":"address"}],"name":"getVotes","outputs":[{"internalType":"uint256","name":"","type":"uint256"}],"stateMutability":"view","type":"function"},{"inputs":[{"internalType":"bytes32","name":"role","type":"bytes32"},{"internalType":"address","name":"account","type":"address"}],"name":"grantRole","outputs":[],"stateMutability":"nonpayable","type":"function"},{"inputs":[{"internalType":"bytes32","name":"role","type":"bytes32"},{"internalType":"address","name":"account","type":"address"}],"name":"hasRole","outputs":[{"internalType":"bool","name":"","type":"bool"}],"stateMutability":"view","type":"function"},{"inputs":[{"internalType":"address","name":"spender","type":"address"},{"internalType":"uint256","name":"addedValue","type":"uint256"}],"name":"increaseAllowance","outputs":[{"internalType":"bool","name":"","type":"bool"}],"stateMutability":"nonpayable","type":"function"},{"inputs":[{"internalType":"address","name":"to","type":"address"},{"internalType":"uint256","name":"amount","type":"uint256"},{"internalType":"string","name":"reason","type":"string"}],"name":"mint","outputs":[],"stateMutability":"nonpayable","type":"function"},{"inputs":[],"name":"name","outputs":[{"internalType":"string","name":"","type":"string"}],"stateMutability":"view","type":"function"},{"inputs":[{"internalType":"address","name":"owner","type":"address"}],"name":"nonces","outputs":[{"internalType":"uint256","name":"","type":"uint256"}],"stateMutability":"view","type":"function"},{"inputs":[{"internalType":"address","name":"account","type":"address"}],"name":"numCheckpoints","outputs":[{"internalType":"uint32","name":"","type":"uint32"}],"stateMutability":"view","type":"function"},{"inputs":[],"name":"pause","outputs":[],"stateMutability":"nonpayable","type":"function"},{"inputs":[],"name":"paused","outputs":[{"internalType":"bool","name":"","type":"bool"}],"stateMutability":"view","type":"function"},{"inputs":[{"internalType":"address","name":"owner","type":"address"},{"internalType":"address","name":"spender","type":"address"},{"internalType":"uint256","name":"value","type":"uint256"},{"internalType":"uint256","name":"deadline","type":"uint256"},{"internalType":"uint8","name":"v","type":"uint8"},{"internalType":"bytes32","name":"r","type":"bytes32"},{"internalType":"bytes32","name":"s","type":"bytes32"}],"name":"permit","outputs":[],"stateMutability":"nonpayable","type":"function"},{"inputs":[],"name":"publicAddress","outputs":[{"internalType":"address","name":"","type":"address"}],"stateMutability":"view","type":"function"},{"inputs":[{"internalType":"enum EminarToken.BackingAsset","name":"asset","type":"uint8"},{"internalType":"address","name":"token","type":"address"}],"name":"registerBackingToken","outputs":[],"stateMutability":"nonpayable","type":"function"},{"inputs":[{"internalType":"bytes32","name":"role","type":"bytes32"},{"internalType":"address","name":"account","type":"address"}],"name":"renounceRole","outputs":[],"stateMutability":"nonpayable","type":"function"},{"inputs":[],"name":"reserveAddress","outputs":[{"internalType":"address","name":"","type":"address"}],"stateMutability":"view","type":"function"},{"inputs":[{"internalType":"bytes32","name":"role","type":"bytes32"},{"internalType":"address","name":"account","type":"address"}],"name":"revokeRole","outputs":[],"stateMutability":"nonpayable","type":"function"},{"inputs":[{"internalType":"enum EminarToken.BackingAsset","name":"asset","type":"uint8"},{"internalType":"uint256","name":"priceUSD","type":"uint256"}],"name":"setAssetPriceUSD","outputs":[],"stateMutability":"nonpayable","type":"function"},{"inputs":[],"name":"shariaTrustAddress","outputs":[{"internalType":"address","name":"","type":"address"}],"stateMutability":"view","type":"function"},{"inputs":[],"name":"strategicPartnersAddress","outputs":[{"internalType":"address","name":"","type":"address"}],"stateMutability":"view","type":"function"},{"inputs":[{"internalType":"bytes4","name":"interfaceId","type":"bytes4"}],"name":"supportsInterface","outputs":[{"internalType":"bool","name":"","type":"bool"}],"stateMutability":"view","type":"function"},{"inputs":[],"name":"symbol","outputs":[{"internalType":"string","name":"","type":"string"}],"stateMutability":"view","type":"function"},{"inputs":[],"name":"totalBackingValueUSD","outputs":[{"internalType":"uint256","name":"","type":"uint256"}],"stateMutability":"view","type":"function"},{"inputs":[],"name":"totalSupply","outputs":[{"internalType":"uint256","name":"","type":"uint256"}],"stateMutability":"view","type":"function"},{"inputs":[{"internalType":"address","name":"to","type":"address"},{"internalType":"uint256","name":"amount","type":"uint256"}],"name":"transfer","outputs":[{"internalType":"bool","name":"","type":"bool"}],"stateMutability":"nonpayable","type":"function"},{"inputs":[{"internalType":"address","name":"from","type":"address"},{"internalType":"address","name":"to","type":"address"},{"internalType":"uint256","name":"amount","type":"uint256"}],"name":"transferFrom","outputs":[{"internalType":"bool","name":"","type":"bool"}],"stateMutability":"nonpayable","type":"function"},{"inputs":[],"name":"unpause","outputs":[],"stateMutability":"nonpayable","type":"function"},{"inputs":[{"internalType":"enum EminarToken.BackingAsset","name":"asset","type":"uint8"},{"internalType":"address","name":"to","type":"address"},{"internalType":"uint256","name":"amount","type":"uint256"}],"name":"withdrawBacking","outputs":[],"stateMutability":"nonpayable","type":"function"}],"evm":{"bytecode":{"linkReferences":{},"object":"61016060405234801561001157600080fd5b50604051614f46380380614f4683398101604081905261003091610c27565b6040805180820190915260018152603160f81b602082015288908190818a600361005a8382610d7c565b5060046100678282610d7c565b5061007791508390506005610404565b61012052610086816006610404565b61014052815160208084019190912060e052815190820120610100524660a05261011360e05161010051604080517f8b73c3c69bb8fe3d512ecc4cf759cc79239f7b179b0ffacaa9a75d522b39400f60208201529081019290925260608201524660808201523060a082015260009060c00160405160208183030381529060405280519060200120905090565b60805250503060c05250600d805460ff191690556001600160a01b0386161580159061014757506001600160a01b03851615155b801561015b57506001600160a01b03841615155b801561016f57506001600160a01b03831615155b801561018357506001600160a01b03821615155b6101c35760405162461bcd60e51b815260206004820152600c60248201526b7a65726f206164647265737360a01b60448201526064015b60405180910390fd5b601380546001600160a01b03199081166001600160a01b0389811691909117909255600f8054821688841617905560108054821687841617905560118054821686841617905560128054909116918416919091179055610224600033610437565b61024e7f9f2df0fed2c77648de5860a4cc508cd0818c85b8b8a1ab4ceeef8d981c8956a633610437565b6102787f3c11d16cbaffd01df69ce1c404f6340ee057498f5f00246190ea54220576a84833610437565b6102a27f65d7a28e3265b37a6474929f336521b332c1681b933f6cb9f3376673440d862a33610437565b6102cc7faa9060660dc3e52152ec6c4cd87f38f5433d3e2246058f23a29463ea3247681733610437565b6102f67f71840dc4906352362b0cdaf79870196c8e42acafade72d5d5a6d59291253ceb182610437565b6103207f0acf805600123ef007091da3b3ffb39474074c656c127aa68cb0ffec232a8ff833610437565b601354610357906001600160a01b031660646103486a52b7d2dcc80cd2e40000006028610e50565b6103529190610e67565b6104da565b600f5461037f906001600160a01b031660646103486a52b7d2dcc80cd2e40000006014610e50565b6010546103a7906001600160a01b031660646103486a52b7d2dcc80cd2e40000006014610e50565b6011546103cf906001600160a01b031660646103486a52b7d2dcc80cd2e4000000600a610e50565b6012546103f7906001600160a01b031660646103486a52b7d2dcc80cd2e4000000600a610e50565b5050505050505050610f06565b600060208351101561042057610419836104e4565b9050610431565b8161042b8482610d7c565b5060ff90505b92915050565b6000828152600c602090815260408083206001600160a01b038516845290915290205460ff166104d6576000828152600c602090815260408083206001600160a01b03851684529091529020805460ff191660011790556104953390565b6001600160a01b0316816001600160a01b0316837f2f8788117e7eff1d82e926ec794901d17c78024a50270940304540a733656f0d60405160405180910390a45b5050565b6104d68282610522565b600080829050601f8151111561050f578260405163305a27a960e01b81526004016101ba9190610e89565b805161051a82610ebc565b179392505050565b61052c82826105c0565b6001600160e01b0361053e6106938216565b11156105a55760405162461bcd60e51b815260206004820152603060248201527f4552433230566f7465733a20746f74616c20737570706c79207269736b73206f60448201526f766572666c6f77696e6720766f74657360801b60648201526084016101ba565b6105ba600b611f2461069960201b17836106ac565b50505050565b6001600160a01b0382166106165760405162461bcd60e51b815260206004820152601f60248201527f45524332303a206d696e7420746f20746865207a65726f20616464726573730060448201526064016101ba565b61062260008383610824565b80600260008282546106349190610ee0565b90915550506001600160a01b038216600081815260208181526040808320805486019055518481527fddf252ad1be2c89b69c2b068fc378daa952ba7f163c4a11628f55a4df523b3ef910160405180910390a36104d660008383610843565b60025490565b60006106a58284610ee0565b9392505050565b825460009081908181156106f95760008781526020902082016000190160408051808201909152905463ffffffff8116825264010000000090046001600160e01b0316602082015261070e565b60408051808201909152600080825260208201525b905080602001516001600160e01b0316935061072b84868860201c565b9250600082118015610755575061074061084e565b65ffffffffffff16816000015163ffffffff16145b1561079a576107638361085e565b60008881526020902083016000190180546001600160e01b03929092166401000000000263ffffffff90921691909117905561081a565b8660405180604001604052806107c46107b761084e60201b60201c565b65ffffffffffff166108cb565b63ffffffff1681526020016107d88661085e565b6001600160e01b0390811690915282546001810184556000938452602093849020835194909301519091166401000000000263ffffffff909316929092179101555b5050935093915050565b61082c610930565b61083e8383836001600160e01b038416565b505050565b61083e838383610978565b6000610859436109aa565b905090565b60006001600160e01b038211156108c75760405162461bcd60e51b815260206004820152602760248201527f53616665436173743a2076616c756520646f65736e27742066697420696e20326044820152663234206269747360c81b60648201526084016101ba565b5090565b600063ffffffff8211156108c75760405162461bcd60e51b815260206004820152602660248201527f53616665436173743a2076616c756520646f65736e27742066697420696e203360448201526532206269747360d01b60648201526084016101ba565b600d5460ff16156109765760405162461bcd60e51b815260206004820152601060248201526f14185d5cd8589b194e881c185d5cd95960821b60448201526064016101ba565b565b6001600160a01b0383811660009081526009602052604080822054858416835291205461083e92918216911683610a11565b600065ffffffffffff8211156108c75760405162461bcd60e51b815260206004820152602660248201527f53616665436173743a2076616c756520646f65736e27742066697420696e203460448201526538206269747360d01b60648201526084016101ba565b816001600160a01b0316836001600160a01b031614158015610a335750600081115b1561083e576001600160a01b03831615610ab8576001600160a01b0383166000908152600a6020908152604082208291610a779190610b3c901b611f3017856106ac565b91509150846001600160a01b0316600080516020614f268339815191528383604051610aad929190918252602082015260400190565b60405180910390a250505b6001600160a01b0382161561083e576001600160a01b0382166000908152600a6020908152604082208291610af79190610699901b611f2417856106ac565b91509150836001600160a01b0316600080516020614f268339815191528383604051610b2d929190918252602082015260400190565b60405180910390a25050505050565b60006106a58284610ef3565b634e487b7160e01b600052604160045260246000fd5b60005b83811015610b79578181015183820152602001610b61565b50506000910152565b600082601f830112610b9357600080fd5b81516001600160401b03811115610bac57610bac610b48565b604051601f8201601f19908116603f011681016001600160401b0381118282101715610bda57610bda610b48565b604052818152838201602001851015610bf257600080fd5b610c03826020830160208701610b5e565b949350505050565b80516001600160a01b0381168114610c2257600080fd5b919050565b600080600080600080600080610100898b031215610c4457600080fd5b88516001600160401b03811115610c5a57600080fd5b610c668b828c01610b82565b60208b015190995090506001600160401b03811115610c8457600080fd5b610c908b828c01610b82565b975050610c9f60408a01610c0b565b9550610cad60608a01610c0b565b9450610cbb60808a01610c0b565b9350610cc960a08a01610c0b565b9250610cd760c08a01610c0b565b9150610ce560e08a01610c0b565b90509295985092959890939650565b600181811c90821680610d0857607f821691505b602082108103610d2857634e487b7160e01b600052602260045260246000fd5b50919050565b601f82111561083e57806000526020600020601f840160051c81016020851015610d555750805b601f840160051c820191505b81811015610d755760008155600101610d61565b5050505050565b81516001600160401b03811115610d9557610d95610b48565b610da981610da38454610cf4565b84610d2e565b6020601f821160018114610ddd5760008315610dc55750848201515b600019600385901b1c1916600184901b178455610d75565b600084815260208120601f198516915b82811015610e0d5787850151825560209485019460019092019101610ded565b5084821015610e2b5786840151600019600387901b60f8161c191681555b50505050600190811b01905550565b634e487b7160e01b600052601160045260246000fd5b808202811582820484141761043157610431610e3a565b600082610e8457634e487b7160e01b600052601260045260246000fd5b500490565b6020815260008251806020840152610ea8816040850160208701610b5e565b601f01601f19169190910160400192915050565b80516020808301519190811015610d285760001960209190910360031b1b16919050565b8082018082111561043157610431610e3a565b8181038181111561043157610431610e3a565b60805160a05160c05160e051610100516101205161014051613fc6610f606000396000610e4701526000610e1c015260006124450152600061241d01526000612378015260006123a2015260006123cc0152613fc66000f3fe608060405234801561001057600080fd5b50600436106103995760003560e01c806384b0196e116101e9578063c8c7fe6b1161010f578063e07495e3116100ad578063f36c8f5c1161007c578063f36c8f5c146108a4578063f676f331146108cb578063f79ed94b146108de578063fe64c681146108f157600080fd5b8063e07495e31461081a578063e63ab1e91461082d578063eb8f4c4a14610854578063f1127ed81461086757600080fd5b8063d5391393116100e9578063d5391393146107c5578063d547741f146107ec578063dd62ed3e146107ff578063dfef15b81461081257600080fd5b8063c8c7fe6b1461074e578063d3fc98641461079f578063d505accf146107b257600080fd5b8063a217fddf11610187578063a978d8df11610156578063a978d8df1461070d578063ae621bbe14610720578063c3cda52014610728578063c69def0b1461073b57600080fd5b8063a217fddf146106cc578063a34cea08146106d4578063a457c2d7146106e7578063a9059cbb146106fa57600080fd5b806391ddadf4116101c357806391ddadf41461067f57806391ee2a3d1461069e57806395d89b41146106b15780639ab24eb0146106b957600080fd5b806384b0196e1461063e5780638e539e8c1461065957806391d148541461066c57600080fd5b80633644e515116102ce5780635c19a95c1161026c5780636fcfff451161023b5780636fcfff45146105d257806370a08231146105fa5780637ecebe00146106235780638456cb591461063657600080fd5b80635c19a95c1461058e5780635c975abb146105a1578063626c3d43146105ac578063638b1b14146105bf57600080fd5b80633a46b1a8116102a85780633a46b1a8146105275780633f4ba83a1461053a5780634bf5d7e914610542578063587cde1e1461054a57600080fd5b80633644e515146104f957806336568abe14610501578063395093511461051457600080fd5b8063248a9ca31161033b5780632ff2e9dc116103155780632ff2e9dc1461049e578063313ce567146104b057806331993a1c146104bf57806332cb6b0c146104e657600080fd5b8063248a9ca314610441578063282c51f3146104645780632f2ff15d1461048b57600080fd5b806315e98e731161037757806315e98e73146103ee57806315f570dc1461041157806318160ddd1461042657806323b872dd1461042e57600080fd5b806301ffc9a71461039e57806306fdde03146103c6578063095ea7b3146103db575b600080fd5b6103b16103ac366004613874565b610904565b60405190151581526020015b60405180910390f35b6103ce61093b565b6040516103bd91906138ee565b6103b16103e936600461391d565b6109cd565b610403600080516020613f7183398151915281565b6040519081526020016103bd565b61042461041f3660046139ec565b6109e5565b005b600254610403565b6103b161043c366004613a43565b610b43565b61040361044f366004613a80565b6000908152600c602052604090206001015490565b6104037f3c11d16cbaffd01df69ce1c404f6340ee057498f5f00246190ea54220576a84881565b610424610499366004613a99565b610b67565b6104036a52b7d2dcc80cd2e400000081565b604051601281526020016103bd565b6104037f0acf805600123ef007091da3b3ffb39474074c656c127aa68cb0ffec232a8ff881565b6104036b033b2e3c9fd0803ce800000081565b610403610b91565b61042461050f366004613a99565b610ba0565b6103b161052236600461391d565b610c1e565b61040361053536600461391d565b610c40565b610424610cc5565b6103ce610cfa565b610576610558366004613ac5565b6001600160a01b039081166000908152600960205260409020541690565b6040516001600160a01b0390911681526020016103bd565b61042461059c366004613ac5565b610d92565b600d5460ff166103b1565b601254610576906001600160a01b031681565b601054610576906001600160a01b031681565b6105e56105e0366004613ac5565b610d9c565b60405163ffffffff90911681526020016103bd565b610403610608366004613ac5565b6001600160a01b031660009081526020819052604090205490565b610403610631366004613ac5565b610dbe565b610424610ddc565b610646610e0e565b6040516103bd9796959493929190613ae0565b610403610667366004613a80565b610e97565b6103b161067a366004613a99565b610efe565b610687610f29565b60405165ffffffffffff90911681526020016103bd565b6104246106ac366004613b87565b610f34565b6103ce6110b8565b6104036106c7366004613ac5565b6110c7565b610403600081565b6104246106e2366004613ba3565b611149565b6103b16106f536600461391d565b611335565b6103b161070836600461391d565b6113b0565b61042461071b366004613b87565b6113be565b6104036114df565b610424610736366004613bd2565b6116e7565b610424610749366004613c2a565b61181d565b61076161075c366004613c54565b61196b565b6040516103bd919081516001600160a01b03168152602080830151908201526040808301519082015260609182015115159181019190915260800190565b6104246107ad3660046139ec565b611a0a565b6104246107c0366004613c6f565b611b52565b6104037f9f2df0fed2c77648de5860a4cc508cd0818c85b8b8a1ab4ceeef8d981c8956a681565b6104246107fa366004613a99565b611cb6565b61040361080d366004613cda565b611cdb565b610403611d06565b610424610828366004613cf6565b611d48565b6104037f65d7a28e3265b37a6474929f336521b332c1681b933f6cb9f3376673440d862a81565b610424610862366004613a43565b611e17565b61087a610875366004613d3d565b611ea0565b60408051825163ffffffff1681526020928301516001600160e01b031692810192909252016103bd565b6104037f71840dc4906352362b0cdaf79870196c8e42acafade72d5d5a6d59291253ceb181565b601354610576906001600160a01b031681565b600f54610576906001600160a01b031681565b601154610576906001600160a01b031681565b60006001600160e01b03198216637965db0b60e01b148061093557506301ffc9a760e01b6001600160e01b03198316145b92915050565b60606003805461094a90613d7d565b80601f016020809104026020016040519081016040528092919081815260200182805461097690613d7d565b80156109c35780601f10610998576101008083540402835291602001916109c3565b820191906000526020600020905b8154815290600101906020018083116109a657829003601f168201915b5050505050905090565b6000336109db818585611f3c565b5060019392505050565b7f3c11d16cbaffd01df69ce1c404f6340ee057498f5f00246190ea54220576a848610a0f81612060565b610a1761206a565b6001600160a01b038416610a6b5760405162461bcd60e51b81526020600482015260166024820152756275726e2066726f6d207a65726f206164647265737360501b60448201526064015b60405180910390fd5b60008311610a8b5760405162461bcd60e51b8152600401610a6290613db1565b82610aab856001600160a01b031660009081526020819052604090205490565b1015610af05760405162461bcd60e51b8152602060048201526014602482015273696e73756666696369656e742062616c616e636560601b6044820152606401610a62565b610afa84846120b2565b836001600160a01b03167ffad31924d655455395c87544c8aa1ffdb5a7505a22a3c2e03f28003b6556a75f8484604051610b35929190613dd6565b60405180910390a250505050565b600033610b518582856120bc565b610b5c858585612130565b506001949350505050565b6000828152600c6020526040902060010154610b8281612060565b610b8c83836122e5565b505050565b6000610b9b61236b565b905090565b6001600160a01b0381163314610c105760405162461bcd60e51b815260206004820152602f60248201527f416363657373436f6e74726f6c3a2063616e206f6e6c792072656e6f756e636560448201526e103937b632b9903337b91039b2b63360891b6064820152608401610a62565b610c1a8282612496565b5050565b6000336109db818585610c318383611cdb565b610c3b9190613e05565b611f3c565b6000610c4a610f29565b65ffffffffffff168210610c9c5760405162461bcd60e51b815260206004820152601960248201527804552433230566f7465733a20667574757265206c6f6f6b757603c1b6044820152606401610a62565b6001600160a01b0383166000908152600a60205260409020610cbe90836124fd565b9392505050565b7f65d7a28e3265b37a6474929f336521b332c1681b933f6cb9f3376673440d862a610cef81612060565b610cf76125e6565b50565b606043610d05610f29565b65ffffffffffff1614610d5a5760405162461bcd60e51b815260206004820152601d60248201527f4552433230566f7465733a2062726f6b656e20636c6f636b206d6f64650000006044820152606401610a62565b5060408051808201909152601d81527f6d6f64653d626c6f636b6e756d6265722666726f6d3d64656661756c74000000602082015290565b610cf73382612638565b6001600160a01b0381166000908152600a6020526040812054610935906126b1565b6001600160a01b038116600090815260076020526040812054610935565b7f65d7a28e3265b37a6474929f336521b332c1681b933f6cb9f3376673440d862a610e0681612060565b610cf761271a565b600060608082808083610e427f00000000000000000000000000000000000000000000000000000000000000006005612757565b610e6d7f00000000000000000000000000000000000000000000000000000000000000006006612757565b60408051600080825260208201909252600f60f81b9b939a50919850469750309650945092509050565b6000610ea1610f29565b65ffffffffffff168210610ef35760405162461bcd60e51b815260206004820152601960248201527804552433230566f7465733a20667574757265206c6f6f6b757603c1b6044820152606401610a62565b610935600b836124fd565b6000918252600c602090815260408084206001600160a01b0393909316845291905290205460ff1690565b6000610b9b43612802565b610f3c61206a565b600e6000836002811115610f5257610f52613e18565b6002811115610f6357610f63613e18565b815260208101919091526040016000206003015460ff16610fbd5760405162461bcd60e51b8152602060048201526014602482015273185cdcd95d081b9bdd081c9959da5cdd195c995960621b6044820152606401610a62565b60008111610fdd5760405162461bcd60e51b8152600401610a6290613db1565b61102c333083600e6000876002811115610ff957610ff9613e18565b600281111561100a5761100a613e18565b81526020810191909152604001600020546001600160a01b0316929190612869565b80600e600084600281111561104357611043613e18565b600281111561105457611054613e18565b81526020810191909152604001600020600101805490910190553382600281111561108157611081613e18565b6040518381527f6a2b04b1f3d5a335c4367fea39bb8807ef0a4fbe77a2772700c8f9c90c1c9a1b9060200160405180910390a35050565b60606004805461094a90613d7d565b6001600160a01b0381166000908152600a60205260408120548015611136576001600160a01b0383166000908152600a602052604090208054600019830190811061111457611114613e2e565b60009182526020909120015464010000000090046001600160e01b0316611139565b60005b6001600160e01b03169392505050565b600080516020613f7183398151915261116181612060565b6001600160a01b0383166111a65760405162461bcd60e51b815260206004820152600c60248201526b7a65726f206164647265737360a01b6044820152606401610a62565b600082116111c65760405162461bcd60e51b8152600401610a6290613db1565b81600e60008660028111156111dd576111dd613e18565b60028111156111ee576111ee613e18565b81526020019081526020016000206001015410156112455760405162461bcd60e51b8152602060048201526014602482015273696e73756666696369656e74206261636b696e6760601b6044820152606401610a62565b81600e600086600281111561125c5761125c613e18565b600281111561126d5761126d613e18565b8152602001908152602001600020600101600082825461128d9190613e44565b909155506112e090508383600e60008860028111156112ae576112ae613e18565b60028111156112bf576112bf613e18565b81526020810191909152604001600020546001600160a01b031691906128d4565b826001600160a01b03168460028111156112fc576112fc613e18565b6040518481527fe3aab926d81700bac87dab01982e77e751c07d1acca11c13ff44aae1193a5f549060200160405180910390a350505050565b600033816113438286611cdb565b9050838110156113a35760405162461bcd60e51b815260206004820152602560248201527f45524332303a2064656372656173656420616c6c6f77616e63652062656c6f77604482015264207a65726f60d81b6064820152608401610a62565b610b5c8286868403611f3c565b6000336109db818585612130565b600080516020613f718339815191526113d681612060565b600e60008460028111156113ec576113ec613e18565b60028111156113fd576113fd613e18565b815260208101919091526040016000206003015460ff166114575760405162461bcd60e51b8152602060048201526014602482015273185cdcd95d081b9bdd081c9959da5cdd195c995960621b6044820152606401610a62565b81600e600085600281111561146e5761146e613e18565b600281111561147f5761147f613e18565b8152602001908152602001600020600201819055508260028111156114a6576114a6613e18565b6040518381527f2d292c5b6330b5b0f99b665ec1be838ca17cd57eb118fe7a02cc05477b5bd42f906020015b60405180910390a2505050565b6000808052600e6020527fe710864318d4a32f37d6ce54cb3fadbef648dd12d8dbdf53973564d56b7f881f5481907fe710864318d4a32f37d6ce54cb3fadbef648dd12d8dbdf53973564d56b7f881c9060ff168015611542575060008160020154115b8015611552575060008160010154115b1561158b57670de0b6b3a7640000816002015482600101546115749190613e57565b61157e9190613e84565b6115889083613e05565b91505b506001600052600e6020527fa7c5ba7114a813b50159add3a36832908dc83db71d0b9a24c2ad0f83be95820a547fa7c5ba7114a813b50159add3a36832908dc83db71d0b9a24c2ad0f83be9582079060ff1680156115ed575060008160020154115b80156115fd575060008160010154115b1561163657670de0b6b3a76400008160020154826001015461161f9190613e57565b6116299190613e84565b6116339083613e05565b91505b506002600052600e6020527f9adb202b1492743bc00c81d33cdc6423fa8c79109027eb6a845391e8fc1f0484547f9adb202b1492743bc00c81d33cdc6423fa8c79109027eb6a845391e8fc1f04819060ff168015611698575060008160020154115b80156116a8575060008160010154115b156116e157670de0b6b3a7640000816002015482600101546116ca9190613e57565b6116d49190613e84565b6116de9083613e05565b91505b50919050565b834211156117375760405162461bcd60e51b815260206004820152601d60248201527f4552433230566f7465733a207369676e617475726520657870697265640000006044820152606401610a62565b604080517fe48329057bfd03d55e49b547132e39cffd9c1820ad7b9d4c5307691425d15adf60208201526001600160a01b0388169181019190915260608101869052608081018590526000906117b1906117a99060a00160405160208183030381529060405280519060200120612904565b858585612931565b90506117bc8161295b565b861461180a5760405162461bcd60e51b815260206004820152601960248201527f4552433230566f7465733a20696e76616c6964206e6f6e6365000000000000006044820152606401610a62565b6118148188612638565b50505050505050565b600080516020613f7183398151915261183581612060565b6001600160a01b0382166118785760405162461bcd60e51b815260206004820152600a6024820152693d32b937903a37b5b2b760b11b6044820152606401610a62565b81600e600085600281111561188f5761188f613e18565b60028111156118a0576118a0613e18565b815260200190815260200160002060000160006101000a8154816001600160a01b0302191690836001600160a01b031602179055506001600e60008560028111156118ed576118ed613e18565b60028111156118fe576118fe613e18565b81526020810191909152604001600020600301805460ff191691151591909117905582600281111561193257611932613e18565b6040516001600160a01b03841681527f561acd69f877decb2be770ca93ef06bb6a9e5d65defa3bace8eab67feecac572906020016114d2565b604080516080810182526000808252602082018190529181018290526060810191909152600e60008360028111156119a5576119a5613e18565b60028111156119b6576119b6613e18565b81526020808201929092526040908101600020815160808101835281546001600160a01b031681526001820154938101939093526002810154918301919091526003015460ff161515606082015292915050565b7f9f2df0fed2c77648de5860a4cc508cd0818c85b8b8a1ab4ceeef8d981c8956a6611a3481612060565b611a3c61206a565b6001600160a01b038416611a895760405162461bcd60e51b81526020600482015260146024820152736d696e7420746f207a65726f206164647265737360601b6044820152606401610a62565b60008311611aa95760405162461bcd60e51b8152600401610a6290613db1565b6b033b2e3c9fd0803ce800000083611ac060025490565b611aca9190613e05565b1115611b0d5760405162461bcd60e51b815260206004820152601260248201527165786365656473206d617820737570706c7960701b6044820152606401610a62565b611b178484612981565b836001600160a01b03167f9d89e36eadf856db0ad9ffb5a569e07f95634dddd9501141ecf04820484ad0dc8484604051610b35929190613dd6565b83421115611ba25760405162461bcd60e51b815260206004820152601d60248201527f45524332305065726d69743a206578706972656420646561646c696e650000006044820152606401610a62565b60007f6e71edae12b1b97f4d1f60370fef10105fa2faae0126114a169c64845d6126c9888888611bd18c61295b565b6040805160208101969096526001600160a01b0394851690860152929091166060840152608083015260a082015260c0810186905260e0016040516020818303038152906040528051906020012090506000611c2c82612904565b90506000611c3c82878787612931565b9050896001600160a01b0316816001600160a01b031614611c9f5760405162461bcd60e51b815260206004820152601e60248201527f45524332305065726d69743a20696e76616c6964207369676e617475726500006044820152606401610a62565b611caa8a8a8a611f3c565b50505050505050505050565b6000828152600c6020526040902060010154611cd181612060565b610b8c8383612496565b6001600160a01b03918216600090815260016020908152604080832093909416825291909152205490565b600080611d116114df565b905080600003611d2357600091505090565b600254611d3882670de0b6b3a7640000613e57565b611d429190613e84565b91505090565b611d5061206a565b60008211611d705760405162461bcd60e51b8152600401610a6290613db1565b33600090815260208190526040902054821115611dc65760405162461bcd60e51b8152602060048201526014602482015273696e73756666696369656e742062616c616e636560601b6044820152606401610a62565b611dd033836120b2565b336001600160a01b03167ffad31924d655455395c87544c8aa1ffdb5a7505a22a3c2e03f28003b6556a75f8383604051611e0b929190613dd6565b60405180910390a25050565b7f0acf805600123ef007091da3b3ffb39474074c656c127aa68cb0ffec232a8ff8611e4181612060565b6001600160a01b038316611e865760405162461bcd60e51b815260206004820152600c60248201526b7a65726f206164647265737360a01b6044820152606401610a62565b611e9a6001600160a01b03851684846128d4565b50505050565b60408051808201909152600080825260208201526001600160a01b0383166000908152600a60205260409020805463ffffffff8416908110611ee457611ee4613e2e565b60009182526020918290206040805180820190915291015463ffffffff8116825264010000000090046001600160e01b0316918101919091529392505050565b6000610cbe8284613e05565b6000610cbe8284613e44565b6001600160a01b038316611f9e5760405162461bcd60e51b8152602060048201526024808201527f45524332303a20617070726f76652066726f6d20746865207a65726f206164646044820152637265737360e01b6064820152608401610a62565b6001600160a01b038216611fff5760405162461bcd60e51b815260206004820152602260248201527f45524332303a20617070726f766520746f20746865207a65726f206164647265604482015261737360f01b6064820152608401610a62565b6001600160a01b0383811660008181526001602090815260408083209487168084529482529182902085905590518481527f8c5be1e5ebec7d5bd14f71427d1e84f3dd0314c0f7b2291e5b200ac8c7c3b925910160405180910390a3505050565b610cf7813361298b565b600d5460ff16156120b05760405162461bcd60e51b815260206004820152601060248201526f14185d5cd8589b194e881c185d5cd95960821b6044820152606401610a62565b565b610c1a82826129e4565b60006120c88484611cdb565b90506000198114611e9a57818110156121235760405162461bcd60e51b815260206004820152601d60248201527f45524332303a20696e73756666696369656e7420616c6c6f77616e63650000006044820152606401610a62565b611e9a8484848403611f3c565b6001600160a01b0383166121945760405162461bcd60e51b815260206004820152602560248201527f45524332303a207472616e736665722066726f6d20746865207a65726f206164604482015264647265737360d81b6064820152608401610a62565b6001600160a01b0382166121f65760405162461bcd60e51b815260206004820152602360248201527f45524332303a207472616e7366657220746f20746865207a65726f206164647260448201526265737360e81b6064820152608401610a62565b6122018383836129fc565b6001600160a01b038316600090815260208190526040902054818110156122795760405162461bcd60e51b815260206004820152602660248201527f45524332303a207472616e7366657220616d6f756e7420657863656564732062604482015265616c616e636560d01b6064820152608401610a62565b6001600160a01b03848116600081815260208181526040808320878703905593871680835291849020805487019055925185815290927fddf252ad1be2c89b69c2b068fc378daa952ba7f163c4a11628f55a4df523b3ef910160405180910390a3611e9a848484612a04565b6122ef8282610efe565b610c1a576000828152600c602090815260408083206001600160a01b03851684529091529020805460ff191660011790556123273390565b6001600160a01b0316816001600160a01b0316837f2f8788117e7eff1d82e926ec794901d17c78024a50270940304540a733656f0d60405160405180910390a45050565b6000306001600160a01b037f0000000000000000000000000000000000000000000000000000000000000000161480156123c457507f000000000000000000000000000000000000000000000000000000000000000046145b156123ee57507f000000000000000000000000000000000000000000000000000000000000000090565b610b9b604080517f8b73c3c69bb8fe3d512ecc4cf759cc79239f7b179b0ffacaa9a75d522b39400f60208201527f0000000000000000000000000000000000000000000000000000000000000000918101919091527f000000000000000000000000000000000000000000000000000000000000000060608201524660808201523060a082015260009060c00160405160208183030381529060405280519060200120905090565b6124a08282610efe565b15610c1a576000828152600c602090815260408083206001600160a01b0385168085529252808320805460ff1916905551339285917ff6391f5c32d9c69d2a47ea670b442974b53935d1edc7fd64eb21e047a839171b9190a45050565b81546000908181600581111561255757600061251884612a0f565b6125229085613e44565b600088815260209020909150869082015463ffffffff16111561254757809150612555565b612552816001613e05565b92505b505b808210156125a457600061256b8383612af7565b600088815260209020909150869082015463ffffffff1611156125905780915061259e565b61259b816001613e05565b92505b50612557565b80156125d0576000868152602090208101600019015464010000000090046001600160e01b03166125d3565b60005b6001600160e01b03169695505050505050565b6125ee612b12565b600d805460ff191690557f5db9ee0a495bf2e6ff9c91a7834c1ba4fdd244a5e8aa4e537bd38aeae4b073aa335b6040516001600160a01b03909116815260200160405180910390a1565b6001600160a01b038281166000818152600960208181526040808420805485845282862054949093528787166001600160a01b03198416811790915590519190951694919391928592917f3134e8a2e6d97e929a7e54011ea5485d7d196dd5f0ba4d4ef95803e8e3fc257f9190a4611e9a828483612b5b565b600063ffffffff8211156127165760405162461bcd60e51b815260206004820152602660248201527f53616665436173743a2076616c756520646f65736e27742066697420696e203360448201526532206269747360d01b6064820152608401610a62565b5090565b61272261206a565b600d805460ff191660011790557f62e78cea01bee320cd4e420270b5ea74000d11b0c9f74754ebdbfc544b05a25861261b3390565b606060ff83146127715761276a83612c98565b9050610935565b81805461277d90613d7d565b80601f01602080910402602001604051908101604052809291908181526020018280546127a990613d7d565b80156127f65780601f106127cb576101008083540402835291602001916127f6565b820191906000526020600020905b8154815290600101906020018083116127d957829003601f168201915b50505050509050610935565b600065ffffffffffff8211156127165760405162461bcd60e51b815260206004820152602660248201527f53616665436173743a2076616c756520646f65736e27742066697420696e203460448201526538206269747360d01b6064820152608401610a62565b6040516001600160a01b0380851660248301528316604482015260648101829052611e9a9085906323b872dd60e01b906084015b60408051601f198184030181529190526020810180516001600160e01b03166001600160e01b031990931692909217909152612cd7565b6040516001600160a01b038316602482015260448101829052610b8c90849063a9059cbb60e01b9060640161289d565b600061093561291161236b565b8360405161190160f01b8152600281019290925260228201526042902090565b600080600061294287878787612dac565b9150915061294f81612e70565b5090505b949350505050565b6001600160a01b03811660009081526007602052604090208054600181018255906116e1565b610c1a8282612fba565b6129958282610efe565b610c1a576129a281613044565b6129ad836020613056565b6040516020016129be929190613ea6565b60408051601f198184030181529082905262461bcd60e51b8252610a62916004016138ee565b6129ee82826131f2565b611e9a600b611f3083613337565b610b8c61206a565b610b8c8383836134ac565b600081600003612a2157506000919050565b60006001612a2e846134de565b901c6001901b90506001818481612a4757612a47613e6e565b048201901c90506001818481612a5f57612a5f613e6e565b048201901c90506001818481612a7757612a77613e6e565b048201901c90506001818481612a8f57612a8f613e6e565b048201901c90506001818481612aa757612aa7613e6e565b048201901c90506001818481612abf57612abf613e6e565b048201901c90506001818481612ad757612ad7613e6e565b048201901c9050610cbe81828581612af157612af1613e6e565b04613572565b6000612b066002848418613e84565b610cbe90848416613e05565b600d5460ff166120b05760405162461bcd60e51b815260206004820152601460248201527314185d5cd8589b194e881b9bdd081c185d5cd95960621b6044820152606401610a62565b816001600160a01b0316836001600160a01b031614158015612b7d5750600081115b15610b8c576001600160a01b03831615612c0b576001600160a01b0383166000908152600a602052604081208190612bb890611f3085613337565b91509150846001600160a01b03167fdec2bacdd2f05b59de34da9b523dff8be42e5e38e818c82fdb0bae774387a7248383604051612c00929190918252602082015260400190565b60405180910390a250505b6001600160a01b03821615610b8c576001600160a01b0382166000908152600a602052604081208190612c4190611f2485613337565b91509150836001600160a01b03167fdec2bacdd2f05b59de34da9b523dff8be42e5e38e818c82fdb0bae774387a7248383604051612c89929190918252602082015260400190565b60405180910390a25050505050565b60606000612ca583613588565b604080516020808252818301909252919250600091906020820181803683375050509182525060208101929092525090565b6000612d2c826040518060400160405280602081526020017f5361666545524332303a206c6f772d6c6576656c2063616c6c206661696c6564815250856001600160a01b03166135b09092919063ffffffff16565b9050805160001480612d4d575080806020019051810190612d4d9190613f1b565b610b8c5760405162461bcd60e51b815260206004820152602a60248201527f5361666545524332303a204552433230206f7065726174696f6e20646964206e6044820152691bdd081cdd58d8d9595960b21b6064820152608401610a62565b6000807f7fffffffffffffffffffffffffffffff5d576e7357a4501ddfe92f46681b20a0831115612de35750600090506003612e67565b6040805160008082526020820180845289905260ff881692820192909252606081018690526080810185905260019060a0016020604051602081039080840390855afa158015612e37573d6000803e3d6000fd5b5050604051601f1901519150506001600160a01b038116612e6057600060019250925050612e67565b9150600090505b94509492505050565b6000816004811115612e8457612e84613e18565b03612e8c5750565b6001816004811115612ea057612ea0613e18565b03612eed5760405162461bcd60e51b815260206004820152601860248201527f45434453413a20696e76616c6964207369676e617475726500000000000000006044820152606401610a62565b6002816004811115612f0157612f01613e18565b03612f4e5760405162461bcd60e51b815260206004820152601f60248201527f45434453413a20696e76616c6964207369676e6174757265206c656e677468006044820152606401610a62565b6003816004811115612f6257612f62613e18565b03610cf75760405162461bcd60e51b815260206004820152602260248201527f45434453413a20696e76616c6964207369676e6174757265202773272076616c604482015261756560f01b6064820152608401610a62565b612fc482826135bf565b6002546001600160e01b0310156130365760405162461bcd60e51b815260206004820152603060248201527f4552433230566f7465733a20746f74616c20737570706c79207269736b73206f60448201526f766572666c6f77696e6720766f74657360801b6064820152608401610a62565b611e9a600b611f2483613337565b60606109356001600160a01b03831660145b60606000613065836002613e57565b613070906002613e05565b67ffffffffffffffff81111561308857613088613947565b6040519080825280601f01601f1916602001820160405280156130b2576020820181803683370190505b509050600360fc1b816000815181106130cd576130cd613e2e565b60200101906001600160f81b031916908160001a905350600f60fb1b816001815181106130fc576130fc613e2e565b60200101906001600160f81b031916908160001a9053506000613120846002613e57565b61312b906001613e05565b90505b60018111156131a3576f181899199a1a9b1b9c1cb0b131b232b360811b85600f166010811061315f5761315f613e2e565b1a60f81b82828151811061317557613175613e2e565b60200101906001600160f81b031916908160001a90535060049490941c9361319c81613f3d565b905061312e565b508315610cbe5760405162461bcd60e51b815260206004820181905260248201527f537472696e67733a20686578206c656e67746820696e73756666696369656e746044820152606401610a62565b6001600160a01b0382166132525760405162461bcd60e51b815260206004820152602160248201527f45524332303a206275726e2066726f6d20746865207a65726f206164647265736044820152607360f81b6064820152608401610a62565b61325e826000836129fc565b6001600160a01b038216600090815260208190526040902054818110156132d25760405162461bcd60e51b815260206004820152602260248201527f45524332303a206275726e20616d6f756e7420657863656564732062616c616e604482015261636560f01b6064820152608401610a62565b6001600160a01b0383166000818152602081815260408083208686039055600280548790039055518581529192917fddf252ad1be2c89b69c2b068fc378daa952ba7f163c4a11628f55a4df523b3ef910160405180910390a3610b8c83600084612a04565b825460009081908181156133845760008781526020902082016000190160408051808201909152905463ffffffff8116825264010000000090046001600160e01b03166020820152613399565b60408051808201909152600080825260208201525b905080602001516001600160e01b031693506133b984868863ffffffff16565b92506000821180156133e357506133ce610f29565b65ffffffffffff16816000015163ffffffff16145b15613428576133f183613692565b60008881526020902083016000190180546001600160e01b03929092166401000000000263ffffffff9092169190911790556134a2565b86604051806040016040528061344c61343f610f29565b65ffffffffffff166126b1565b63ffffffff16815260200161346086613692565b6001600160e01b0390811690915282546001810184556000938452602093849020835194909301519091166401000000000263ffffffff909316929092179101555b5050935093915050565b6001600160a01b03838116600090815260096020526040808220548584168352912054610b8c92918216911683612b5b565b600080608083901c156134f357608092831c92015b604083901c1561350557604092831c92015b602083901c1561351757602092831c92015b601083901c1561352957601092831c92015b600883901c1561353b57600892831c92015b600483901c1561354d57600492831c92015b600283901c1561355f57600292831c92015b600183901c156109355760010192915050565b60008183106135815781610cbe565b5090919050565b600060ff8216601f81111561093557604051632cd44ac360e21b815260040160405180910390fd5b606061295384846000856136fb565b6001600160a01b0382166136155760405162461bcd60e51b815260206004820152601f60248201527f45524332303a206d696e7420746f20746865207a65726f2061646472657373006044820152606401610a62565b613621600083836129fc565b80600260008282546136339190613e05565b90915550506001600160a01b038216600081815260208181526040808320805486019055518481527fddf252ad1be2c89b69c2b068fc378daa952ba7f163c4a11628f55a4df523b3ef910160405180910390a3610c1a60008383612a04565b60006001600160e01b038211156127165760405162461bcd60e51b815260206004820152602760248201527f53616665436173743a2076616c756520646f65736e27742066697420696e20326044820152663234206269747360c81b6064820152608401610a62565b60608247101561375c5760405162461bcd60e51b815260206004820152602660248201527f416464726573733a20696e73756666696369656e742062616c616e636520666f6044820152651c8818d85b1b60d21b6064820152608401610a62565b600080866001600160a01b031685876040516137789190613f54565b60006040518083038185875af1925050503d80600081146137b5576040519150601f19603f3d011682016040523d82523d6000602084013e6137ba565b606091505b50915091506137cb878383876137d6565b979650505050505050565b6060831561384557825160000361383e576001600160a01b0385163b61383e5760405162461bcd60e51b815260206004820152601d60248201527f416464726573733a2063616c6c20746f206e6f6e2d636f6e74726163740000006044820152606401610a62565b5081612953565b612953838381511561385a5781518083602001fd5b8060405162461bcd60e51b8152600401610a6291906138ee565b60006020828403121561388657600080fd5b81356001600160e01b031981168114610cbe57600080fd5b60005b838110156138b95781810151838201526020016138a1565b50506000910152565b600081518084526138da81602086016020860161389e565b601f01601f19169290920160200192915050565b602081526000610cbe60208301846138c2565b80356001600160a01b038116811461391857600080fd5b919050565b6000806040838503121561393057600080fd5b61393983613901565b946020939093013593505050565b634e487b7160e01b600052604160045260246000fd5b600082601f83011261396e57600080fd5b813567ffffffffffffffff81111561398857613988613947565b604051601f8201601f19908116603f0116810167ffffffffffffffff811182821017156139b7576139b7613947565b6040528181528382016020018510156139cf57600080fd5b816020850160208301376000918101602001919091529392505050565b600080600060608486031215613a0157600080fd5b613a0a84613901565b925060208401359150604084013567ffffffffffffffff811115613a2d57600080fd5b613a398682870161395d565b9150509250925092565b600080600060608486031215613a5857600080fd5b613a6184613901565b9250613a6f60208501613901565b929592945050506040919091013590565b600060208284031215613a9257600080fd5b5035919050565b60008060408385031215613aac57600080fd5b82359150613abc60208401613901565b90509250929050565b600060208284031215613ad757600080fd5b610cbe82613901565b60ff60f81b8816815260e060208201526000613aff60e08301896138c2565b8281036040840152613b1181896138c2565b606084018890526001600160a01b038716608085015260a0840186905283810360c08501528451808252602080870193509091019060005b81811015613b67578351835260209384019390920191600101613b49565b50909b9a5050505050505050505050565b80356003811061391857600080fd5b60008060408385031215613b9a57600080fd5b61393983613b78565b600080600060608486031215613bb857600080fd5b613a6184613b78565b803560ff8116811461391857600080fd5b60008060008060008060c08789031215613beb57600080fd5b613bf487613901565b95506020870135945060408701359350613c1060608801613bc1565b9598949750929560808101359460a0909101359350915050565b60008060408385031215613c3d57600080fd5b613c4683613b78565b9150613abc60208401613901565b600060208284031215613c6657600080fd5b610cbe82613b78565b600080600080600080600060e0888a031215613c8a57600080fd5b613c9388613901565b9650613ca160208901613901565b95506040880135945060608801359350613cbd60808901613bc1565b9699959850939692959460a0840135945060c09093013592915050565b60008060408385031215613ced57600080fd5b613c4683613901565b60008060408385031215613d0957600080fd5b82359150602083013567ffffffffffffffff811115613d2757600080fd5b613d338582860161395d565b9150509250929050565b60008060408385031215613d5057600080fd5b613d5983613901565b9150602083013563ffffffff81168114613d7257600080fd5b809150509250929050565b600181811c90821680613d9157607f821691505b6020821081036116e157634e487b7160e01b600052602260045260246000fd5b6020808252600b908201526a1e995c9bc8185b5bdd5b9d60aa1b604082015260600190565b82815260406020820152600061295360408301846138c2565b634e487b7160e01b600052601160045260246000fd5b8082018082111561093557610935613def565b634e487b7160e01b600052602160045260246000fd5b634e487b7160e01b600052603260045260246000fd5b8181038181111561093557610935613def565b808202811582820484141761093557610935613def565b634e487b7160e01b600052601260045260246000fd5b600082613ea157634e487b7160e01b600052601260045260246000fd5b500490565b7f416363657373436f6e74726f6c3a206163636f756e7420000000000000000000815260008351613ede81601785016020880161389e565b7001034b99036b4b9b9b4b733903937b6329607d1b6017918401918201528351613f0f81602884016020880161389e565b01602801949350505050565b600060208284031215613f2d57600080fd5b81518015158114610cbe57600080fd5b600081613f4c57613f4c613def565b506000190190565b60008251613f6681846020870161389e565b919091019291505056feaa9060660dc3e52152ec6c4cd87f38f5433d3e2246058f23a29463ea32476817a264697066735822122009dc68a290a9a859eaf46f2fc43b1236f9709b5f7abad2e3e0c3f0e3d34ad85b64736f6c634300081c0033dec2bacdd2f05b59de34da9b523dff8be42e5e38e818c82fdb0bae774387a724","opcodes":"PUSH2 0x160 PUSH1 0x40 MSTORE CALLVALUE DUP1 ISZERO PUSH2 0x11 JUMPI PUSH1 0x0 DUP1 REVERT JUMPDEST POP PUSH1 0x40 MLOAD PUSH2 0x4F46 CODESIZE SUB DUP1 PUSH2 0x4F46 DUP4 CODECOPY DUP2 ADD PUSH1 0x40 DUP2 SWAP1 MSTORE PUSH2 0x30 SWAP2 PUSH2 0xC27 JUMP JUMPDEST PUSH1 0x40 DUP1 MLOAD DUP1 DUP3 ADD SWAP1 SWAP2 MSTORE PUSH1 0x1 DUP2 MSTORE PUSH1 0x31 PUSH1 0xF8 SHL PUSH1 0x20 DUP3 ADD MSTORE DUP9 SWAP1 DUP2 SWAP1 DUP2 DUP11 PUSH1 0x3 PUSH2 0x5A DUP4 DUP3 PUSH2 0xD7C JUMP JUMPDEST POP PUSH1 0x4 PUSH2 0x67 DUP3 DUP3 PUSH2 0xD7C JUMP JUMPDEST POP PUSH2 0x77 SWAP2 POP DUP4 SWAP1 POP PUSH1 0x5 PUSH2 0x404 JUMP JUMPDEST PUSH2 0x120 MSTORE PUSH2 0x86 DUP2 PUSH1 0x6 PUSH2 0x404 JUMP JUMPDEST PUSH2 0x140 MSTORE DUP2 MLOAD PUSH1 0x20 DUP1 DUP5 ADD SWAP2 SWAP1 SWAP2 KECCAK256 PUSH1 0xE0 MSTORE DUP2 MLOAD SWAP1 DUP3 ADD KECCAK256 PUSH2 0x100 MSTORE CHAINID PUSH1 0xA0 MSTORE PUSH2 0x113 PUSH1 0xE0 MLOAD PUSH2 0x100 MLOAD PUSH1 0x40 DUP1 MLOAD PUSH32 0x8B73C3C69BB8FE3D512ECC4CF759CC79239F7B179B0FFACAA9A75D522B39400F PUSH1 0x20 DUP3 ADD MSTORE SWAP1 DUP2 ADD SWAP3 SWAP1 SWAP3 MSTORE PUSH1 0x60 DUP3 ADD MSTORE CHAINID PUSH1 0x80 DUP3 ADD MSTORE ADDRESS PUSH1 0xA0 DUP3 ADD MSTORE PUSH1 0x0 SWAP1 PUSH1 0xC0 ADD PUSH1 0x40 MLOAD PUSH1 0x20 DUP2 DUP4 SUB SUB DUP2 MSTORE SWAP1 PUSH1 0x40 MSTORE DUP1 MLOAD SWAP1 PUSH1 0x20 ADD KECCAK256 SWAP1 POP SWAP1 JUMP JUMPDEST PUSH1 0x80 MSTORE POP POP ADDRESS PUSH1 0xC0 MSTORE POP PUSH1 0xD DUP1 SLOAD PUSH1 0xFF NOT AND SWAP1 SSTORE PUSH1 0x1 PUSH1 0x1 PUSH1 0xA0 SHL SUB DUP7 AND ISZERO DUP1 ISZERO SWAP1 PUSH2 0x147 JUMPI POP PUSH1 0x1 PUSH1 0x1 PUSH1 0xA0 SHL SUB DUP6 AND ISZERO ISZERO JUMPDEST DUP1 ISZERO PUSH2 0x15B JUMPI POP PUSH1 0x1 PUSH1 0x1 PUSH1 0xA0 SHL SUB DUP5 AND ISZERO ISZERO JUMPDEST DUP1 ISZERO PUSH2 0x16F JUMPI POP PUSH1 0x1 PUSH1 0x1 PUSH1 0xA0 SHL SUB DUP4 AND ISZERO ISZERO JUMPDEST DUP1 ISZERO PUSH2 0x183 JUMPI POP PUSH1 0x1 PUSH1 0x1 PUSH1 0xA0 SHL SUB DUP3 AND ISZERO ISZERO JUMPDEST PUSH2 0x1C3 JUMPI PUSH1 0x40 MLOAD PUSH3 0x461BCD PUSH1 0xE5 SHL DUP2 MSTORE PUSH1 0x20 PUSH1 0x4 DUP3 ADD MSTORE PUSH1 0xC PUSH1 0x24 DUP3 ADD MSTORE PUSH12 0x7A65726F2061646472657373 PUSH1 0xA0 SHL PUSH1 0x44 DUP3 ADD MSTORE PUSH1 0x64 ADD JUMPDEST PUSH1 0x40 MLOAD DUP1 SWAP2 SUB SWAP1 REVERT JUMPDEST PUSH1 0x13 DUP1 SLOAD PUSH1 0x1 PUSH1 0x1 PUSH1 0xA0 SHL SUB NOT SWAP1 DUP2 AND PUSH1 0x1 PUSH1 0x1 PUSH1 0xA0 SHL SUB DUP10 DUP2 AND SWAP2 SWAP1 SWAP2 OR SWAP1 SWAP3 SSTORE PUSH1 0xF DUP1 SLOAD DUP3 AND DUP9 DUP5 AND OR SWAP1 SSTORE PUSH1 0x10 DUP1 SLOAD DUP3 AND DUP8 DUP5 AND OR SWAP1 SSTORE PUSH1 0x11 DUP1 SLOAD DUP3 AND DUP7 DUP5 AND OR SWAP1 SSTORE PUSH1 0x12 DUP1 SLOAD SWAP1 SWAP2 AND SWAP2 DUP5 AND SWAP2 SWAP1 SWAP2 OR SWAP1 SSTORE PUSH2 0x224 PUSH1 0x0 CALLER PUSH2 0x437 JUMP JUMPDEST PUSH2 0x24E PUSH32 0x9F2DF0FED2C77648DE5860A4CC508CD0818C85B8B8A1AB4CEEEF8D981C8956A6 CALLER PUSH2 0x437 JUMP JUMPDEST PUSH2 0x278 PUSH32 0x3C11D16CBAFFD01DF69CE1C404F6340EE057498F5F00246190EA54220576A848 CALLER PUSH2 0x437 JUMP JUMPDEST PUSH2 0x2A2 PUSH32 0x65D7A28E3265B37A6474929F336521B332C1681B933F6CB9F3376673440D862A CALLER PUSH2 0x437 JUMP JUMPDEST PUSH2 0x2CC PUSH32 0xAA9060660DC3E52152EC6C4CD87F38F5433D3E2246058F23A29463EA32476817 CALLER PUSH2 0x437 JUMP JUMPDEST PUSH2 0x2F6 PUSH32 0x71840DC4906352362B0CDAF79870196C8E42ACAFADE72D5D5A6D59291253CEB1 DUP3 PUSH2 0x437 JUMP JUMPDEST PUSH2 0x320 PUSH32 0xACF805600123EF007091DA3B3FFB39474074C656C127AA68CB0FFEC232A8FF8 CALLER PUSH2 0x437 JUMP JUMPDEST PUSH1 0x13 SLOAD PUSH2 0x357 SWAP1 PUSH1 0x1 PUSH1 0x1 PUSH1 0xA0 SHL SUB AND PUSH1 0x64 PUSH2 0x348 PUSH11 0x52B7D2DCC80CD2E4000000 PUSH1 0x28 PUSH2 0xE50 JUMP JUMPDEST PUSH2 0x352 SWAP2 SWAP1 PUSH2 0xE67 JUMP JUMPDEST PUSH2 0x4DA JUMP JUMPDEST PUSH1 0xF SLOAD PUSH2 0x37F SWAP1 PUSH1 0x1 PUSH1 0x1 PUSH1 0xA0 SHL SUB AND PUSH1 0x64 PUSH2 0x348 PUSH11 0x52B7D2DCC80CD2E4000000 PUSH1 0x14 PUSH2 0xE50 JUMP JUMPDEST PUSH1 0x10 SLOAD PUSH2 0x3A7 SWAP1 PUSH1 0x1 PUSH1 0x1 PUSH1 0xA0 SHL SUB AND PUSH1 0x64 PUSH2 0x348 PUSH11 0x52B7D2DCC80CD2E4000000 PUSH1 0x14 PUSH2 0xE50 JUMP JUMPDEST PUSH1 0x11 SLOAD PUSH2 0x3CF SWAP1 PUSH1 0x1 PUSH1 0x1 PUSH1 0xA0 SHL SUB AND PUSH1 0x64 PUSH2 0x348 PUSH11 0x52B7D2DCC80CD2E4000000 PUSH1 0xA PUSH2 0xE50 JUMP JUMPDEST PUSH1 0x12 SLOAD PUSH2 0x3F7 SWAP1 PUSH1 0x1 PUSH1 0x1 PUSH1 0xA0 SHL SUB AND PUSH1 0x64 PUSH2 0x348 PUSH11 0x52B7D2DCC80CD2E4000000 PUSH1 0xA PUSH2 0xE50 JUMP JUMPDEST POP POP POP POP POP POP POP POP PUSH2 0xF06 JUMP JUMPDEST PUSH1 0x0 PUSH1 0x20 DUP4 MLOAD LT ISZERO PUSH2 0x420 JUMPI PUSH2 0x419 DUP4 PUSH2 0x4E4 JUMP JUMPDEST SWAP1 POP PUSH2 0x431 JUMP JUMPDEST DUP2 PUSH2 0x42B DUP5 DUP3 PUSH2 0xD7C JUMP JUMPDEST POP PUSH1 0xFF SWAP1 POP JUMPDEST SWAP3 SWAP2 POP POP JUMP JUMPDEST PUSH1 0x0 DUP3 DUP2 MSTORE PUSH1 0xC PUSH1 0x20 SWAP1 DUP2 MSTORE PUSH1 0x40 DUP1 DUP4 KECCAK256 PUSH1 0x1 PUSH1 0x1 PUSH1 0xA0 SHL SUB DUP6 AND DUP5 MSTORE SWAP1 SWAP2 MSTORE SWAP1 KECCAK256 SLOAD PUSH1 0xFF AND PUSH2 0x4D6 JUMPI PUSH1 0x0 DUP3 DUP2 MSTORE PUSH1 0xC PUSH1 0x20 SWAP1 DUP2 MSTORE PUSH1 0x40 DUP1 DUP4 KECCAK256 PUSH1 0x1 PUSH1 0x1 PUSH1 0xA0 SHL SUB DUP6 AND DUP5 MSTORE SWAP1 SWAP2 MSTORE SWAP1 KECCAK256 DUP1 SLOAD PUSH1 0xFF NOT AND PUSH1 0x1 OR SWAP1 SSTORE PUSH2 0x495 CALLER SWAP1 JUMP JUMPDEST PUSH1 0x1 PUSH1 0x1 PUSH1 0xA0 SHL SUB AND DUP2 PUSH1 0x1 PUSH1 0x1 PUSH1 0xA0 SHL SUB AND DUP4 PUSH32 0x2F8788117E7EFF1D82E926EC794901D17C78024A50270940304540A733656F0D PUSH1 0x40 MLOAD PUSH1 0x40 MLOAD DUP1 SWAP2 SUB SWAP1 LOG4 JUMPDEST POP POP JUMP JUMPDEST PUSH2 0x4D6 DUP3 DUP3 PUSH2 0x522 JUMP JUMPDEST PUSH1 0x0 DUP1 DUP3 SWAP1 POP PUSH1 0x1F DUP2 MLOAD GT ISZERO PUSH2 0x50F JUMPI DUP3 PUSH1 0x40 MLOAD PUSH4 0x305A27A9 PUSH1 0xE0 SHL DUP2 MSTORE PUSH1 0x4 ADD PUSH2 0x1BA SWAP2 SWAP1 PUSH2 0xE89 JUMP JUMPDEST DUP1 MLOAD PUSH2 0x51A DUP3 PUSH2 0xEBC JUMP JUMPDEST OR SWAP4 SWAP3 POP POP POP JUMP JUMPDEST PUSH2 0x52C DUP3 DUP3 PUSH2 0x5C0 JUMP JUMPDEST PUSH1 0x1 PUSH1 0x1 PUSH1 0xE0 SHL SUB PUSH2 0x53E PUSH2 0x693 DUP3 AND JUMP JUMPDEST GT ISZERO PUSH2 0x5A5 JUMPI PUSH1 0x40 MLOAD PUSH3 0x461BCD PUSH1 0xE5 SHL DUP2 MSTORE PUSH1 0x20 PUSH1 0x4 DUP3 ADD MSTORE PUSH1 0x30 PUSH1 0x24 DUP3 ADD MSTORE PUSH32 0x4552433230566F7465733A20746F74616C20737570706C79207269736B73206F PUSH1 0x44 DUP3 ADD MSTORE PUSH16 0x766572666C6F77696E6720766F746573 PUSH1 0x80 SHL PUSH1 0x64 DUP3 ADD MSTORE PUSH1 0x84 ADD PUSH2 0x1BA JUMP JUMPDEST PUSH2 0x5BA PUSH1 0xB PUSH2 0x1F24 PUSH2 0x699 PUSH1 0x20 SHL OR DUP4 PUSH2 0x6AC JUMP JUMPDEST POP POP POP POP JUMP JUMPDEST PUSH1 0x1 PUSH1 0x1 PUSH1 0xA0 SHL SUB DUP3 AND PUSH2 0x616 JUMPI PUSH1 0x40 MLOAD PUSH3 0x461BCD PUSH1 0xE5 SHL DUP2 MSTORE PUSH1 0x20 PUSH1 0x4 DUP3 ADD MSTORE PUSH1 0x1F PUSH1 0x24 DUP3 ADD MSTORE PUSH32 0x45524332303A206D696E7420746F20746865207A65726F206164647265737300 PUSH1 0x44 DUP3 ADD MSTORE PUSH1 0x64 ADD PUSH2 0x1BA JUMP JUMPDEST PUSH2 0x622 PUSH1 0x0 DUP4 DUP4 PUSH2 0x824 JUMP JUMPDEST DUP1 PUSH1 0x2 PUSH1 0x0 DUP3 DUP3 SLOAD PUSH2 0x634 SWAP2 SWAP1 PUSH2 0xEE0 JUMP JUMPDEST SWAP1 SWAP2 SSTORE POP POP PUSH1 0x1 PUSH1 0x1 PUSH1 0xA0 SHL SUB DUP3 AND PUSH1 0x0 DUP2 DUP2 MSTORE PUSH1 0x20 DUP2 DUP2 MSTORE PUSH1 0x40 DUP1 DUP4 KECCAK256 DUP1 SLOAD DUP7 ADD SWAP1 SSTORE MLOAD DUP5 DUP2 MSTORE PUSH32 0xDDF252AD1BE2C89B69C2B068FC378DAA952BA7F163C4A11628F55A4DF523B3EF SWAP2 ADD PUSH1 0x40 MLOAD DUP1 SWAP2 SUB SWAP1 LOG3 PUSH2 0x4D6 PUSH1 0x0 DUP4 DUP4 PUSH2 0x843 JUMP JUMPDEST PUSH1 0x2 SLOAD SWAP1 JUMP JUMPDEST PUSH1 0x0 PUSH2 0x6A5 DUP3 DUP5 PUSH2 0xEE0 JUMP JUMPDEST SWAP4 SWAP3 POP POP POP JUMP JUMPDEST DUP3 SLOAD PUSH1 0x0 SWAP1 DUP2 SWAP1 DUP2 DUP2 ISZERO PUSH2 0x6F9 JUMPI PUSH1 0x0 DUP8 DUP2 MSTORE PUSH1 0x20 SWAP1 KECCAK256 DUP3 ADD PUSH1 0x0 NOT ADD PUSH1 0x40 DUP1 MLOAD DUP1 DUP3 ADD SWAP1 SWAP2 MSTORE SWAP1 SLOAD PUSH4 0xFFFFFFFF DUP2 AND DUP3 MSTORE PUSH5 0x100000000 SWAP1 DIV PUSH1 0x1 PUSH1 0x1 PUSH1 0xE0 SHL SUB AND PUSH1 0x20 DUP3 ADD MSTORE PUSH2 0x70E JUMP JUMPDEST PUSH1 0x40 DUP1 MLOAD DUP1 DUP3 ADD SWAP1 SWAP2 MSTORE PUSH1 0x0 DUP1 DUP3 MSTORE PUSH1 0x20 DUP3 ADD MSTORE JUMPDEST SWAP1 POP DUP1 PUSH1 0x20 ADD MLOAD PUSH1 0x1 PUSH1 0x1 PUSH1 0xE0 SHL SUB AND SWAP4 POP PUSH2 0x72B DUP5 DUP7 DUP9 PUSH1 0x20 SHR JUMP JUMPDEST SWAP3 POP PUSH1 0x0 DUP3 GT DUP1 ISZERO PUSH2 0x755 JUMPI POP PUSH2 0x740 PUSH2 0x84E JUMP JUMPDEST PUSH6 0xFFFFFFFFFFFF AND DUP2 PUSH1 0x0 ADD MLOAD PUSH4 0xFFFFFFFF AND EQ JUMPDEST ISZERO PUSH2 0x79A JUMPI PUSH2 0x763 DUP4 PUSH2 0x85E JUMP JUMPDEST PUSH1 0x0 DUP9 DUP2 MSTORE PUSH1 0x20 SWAP1 KECCAK256 DUP4 ADD PUSH1 0x0 NOT ADD DUP1 SLOAD PUSH1 0x1 PUSH1 0x1 PUSH1 0xE0 SHL SUB SWAP3 SWAP1 SWAP3 AND PUSH5 0x100000000 MUL PUSH4 0xFFFFFFFF SWAP1 SWAP3 AND SWAP2 SWAP1 SWAP2 OR SWAP1 SSTORE PUSH2 0x81A JUMP JUMPDEST DUP7 PUSH1 0x40 MLOAD DUP1 PUSH1 0x40 ADD PUSH1 0x40 MSTORE DUP1 PUSH2 0x7C4 PUSH2 0x7B7 PUSH2 0x84E PUSH1 0x20 SHL PUSH1 0x20 SHR JUMP JUMPDEST PUSH6 0xFFFFFFFFFFFF AND PUSH2 0x8CB JUMP JUMPDEST PUSH4 0xFFFFFFFF AND DUP2 MSTORE PUSH1 0x20 ADD PUSH2 0x7D8 DUP7 PUSH2 0x85E JUMP JUMPDEST PUSH1 0x1 PUSH1 0x1 PUSH1 0xE0 SHL SUB SWAP1 DUP2 AND SWAP1 SWAP2 MSTORE DUP3 SLOAD PUSH1 0x1 DUP2 ADD DUP5 SSTORE PUSH1 0x0 SWAP4 DUP5 MSTORE PUSH1 0x20 SWAP4 DUP5 SWAP1 KECCAK256 DUP4 MLOAD SWAP5 SWAP1 SWAP4 ADD MLOAD SWAP1 SWAP2 AND PUSH5 0x100000000 MUL PUSH4 0xFFFFFFFF SWAP1 SWAP4 AND SWAP3 SWAP1 SWAP3 OR SWAP2 ADD SSTORE JUMPDEST POP POP SWAP4 POP SWAP4 SWAP2 POP POP JUMP JUMPDEST PUSH2 0x82C PUSH2 0x930 JUMP JUMPDEST PUSH2 0x83E DUP4 DUP4 DUP4 PUSH1 0x1 PUSH1 0x1 PUSH1 0xE0 SHL SUB DUP5 AND JUMP JUMPDEST POP POP POP JUMP JUMPDEST PUSH2 0x83E DUP4 DUP4 DUP4 PUSH2 0x978 JUMP JUMPDEST PUSH1 0x0 PUSH2 0x859 NUMBER PUSH2 0x9AA JUMP JUMPDEST SWAP1 POP SWAP1 JUMP JUMPDEST PUSH1 0x0 PUSH1 0x1 PUSH1 0x1 PUSH1 0xE0 SHL SUB DUP3 GT ISZERO PUSH2 0x8C7 JUMPI PUSH1 0x40 MLOAD PUSH3 0x461BCD PUSH1 0xE5 SHL DUP2 MSTORE PUSH1 0x20 PUSH1 0x4 DUP3 ADD MSTORE PUSH1 0x27 PUSH1 0x24 DUP3 ADD MSTORE PUSH32 0x53616665436173743A2076616C756520646F65736E27742066697420696E2032 PUSH1 0x44 DUP3 ADD MSTORE PUSH7 0x32342062697473 PUSH1 0xC8 SHL PUSH1 0x64 DUP3 ADD MSTORE PUSH1 0x84 ADD PUSH2 0x1BA JUMP JUMPDEST POP SWAP1 JUMP JUMPDEST PUSH1 0x0 PUSH4 0xFFFFFFFF DUP3 GT ISZERO PUSH2 0x8C7 JUMPI PUSH1 0x40 MLOAD PUSH3 0x461BCD PUSH1 0xE5 SHL DUP2 MSTORE PUSH1 0x20 PUSH1 0x4 DUP3 ADD MSTORE PUSH1 0x26 PUSH1 0x24 DUP3 ADD MSTORE PUSH32 0x53616665436173743A2076616C756520646F65736E27742066697420696E2033 PUSH1 0x44 DUP3 ADD MSTORE PUSH6 0x322062697473 PUSH1 0xD0 SHL PUSH1 0x64 DUP3 ADD MSTORE PUSH1 0x84 ADD PUSH2 0x1BA JUMP JUMPDEST PUSH1 0xD SLOAD PUSH1 0xFF AND ISZERO PUSH2 0x976 JUMPI PUSH1 0x40 MLOAD PUSH3 0x461BCD PUSH1 0xE5 SHL DUP2 MSTORE PUSH1 0x20 PUSH1 0x4 DUP3 ADD MSTORE PUSH1 0x10 PUSH1 0x24 DUP3 ADD MSTORE PUSH16 0x14185D5CD8589B194E881C185D5CD959 PUSH1 0x82 SHL PUSH1 0x44 DUP3 ADD MSTORE PUSH1 0x64 ADD PUSH2 0x1BA JUMP JUMPDEST JUMP JUMPDEST PUSH1 0x1 PUSH1 0x1 PUSH1 0xA0 SHL SUB DUP4 DUP2 AND PUSH1 0x0 SWAP1 DUP2 MSTORE PUSH1 0x9 PUSH1 0x20 MSTORE PUSH1 0x40 DUP1 DUP3 KECCAK256 SLOAD DUP6 DUP5 AND DUP4 MSTORE SWAP2 KECCAK256 SLOAD PUSH2 0x83E SWAP3 SWAP2 DUP3 AND SWAP2 AND DUP4 PUSH2 0xA11 JUMP JUMPDEST PUSH1 0x0 PUSH6 0xFFFFFFFFFFFF DUP3 GT ISZERO PUSH2 0x8C7 JUMPI PUSH1 0x40 MLOAD PUSH3 0x461BCD PUSH1 0xE5 SHL DUP2 MSTORE PUSH1 0x20 PUSH1 0x4 DUP3 ADD MSTORE PUSH1 0x26 PUSH1 0x24 DUP3 ADD MSTORE PUSH32 0x53616665436173743A2076616C756520646F65736E27742066697420696E2034 PUSH1 0x44 DUP3 ADD MSTORE PUSH6 0x382062697473 PUSH1 0xD0 SHL PUSH1 0x64 DUP3 ADD MSTORE PUSH1 0x84 ADD PUSH2 0x1BA JUMP JUMPDEST DUP2 PUSH1 0x1 PUSH1 0x1 PUSH1 0xA0 SHL SUB AND DUP4 PUSH1 0x1 PUSH1 0x1 PUSH1 0xA0 SHL SUB AND EQ ISZERO DUP1 ISZERO PUSH2 0xA33 JUMPI POP PUSH1 0x0 DUP2 GT JUMPDEST ISZERO PUSH2 0x83E JUMPI PUSH1 0x1 PUSH1 0x1 PUSH1 0xA0 SHL SUB DUP4 AND ISZERO PUSH2 0xAB8 JUMPI PUSH1 0x1 PUSH1 0x1 PUSH1 0xA0 SHL SUB DUP4 AND PUSH1 0x0 SWAP1 DUP2 MSTORE PUSH1 0xA PUSH1 0x20 SWAP1 DUP2 MSTORE PUSH1 0x40 DUP3 KECCAK256 DUP3 SWAP2 PUSH2 0xA77 SWAP2 SWAP1 PUSH2 0xB3C SWAP1 SHL PUSH2 0x1F30 OR DUP6 PUSH2 0x6AC JUMP JUMPDEST SWAP2 POP SWAP2 POP DUP5 PUSH1 0x1 PUSH1 0x1 PUSH1 0xA0 SHL SUB AND PUSH1 0x0 DUP1 MLOAD PUSH1 0x20 PUSH2 0x4F26 DUP4 CODECOPY DUP2 MLOAD SWAP2 MSTORE DUP4 DUP4 PUSH1 0x40 MLOAD PUSH2 0xAAD SWAP3 SWAP2 SWAP1 SWAP2 DUP3 MSTORE PUSH1 0x20 DUP3 ADD MSTORE PUSH1 0x40 ADD SWAP1 JUMP JUMPDEST PUSH1 0x40 MLOAD DUP1 SWAP2 SUB SWAP1 LOG2 POP POP JUMPDEST PUSH1 0x1 PUSH1 0x1 PUSH1 0xA0 SHL SUB DUP3 AND ISZERO PUSH2 0x83E JUMPI PUSH1 0x1 PUSH1 0x1 PUSH1 0xA0 SHL SUB DUP3 AND PUSH1 0x0 SWAP1 DUP2 MSTORE PUSH1 0xA PUSH1 0x20 SWAP1 DUP2 MSTORE PUSH1 0x40 DUP3 KECCAK256 DUP3 SWAP2 PUSH2 0xAF7 SWAP2 SWAP1 PUSH2 0x699 SWAP1 SHL PUSH2 0x1F24 OR DUP6 PUSH2 0x6AC JUMP JUMPDEST SWAP2 POP SWAP2 POP DUP4 PUSH1 0x1 PUSH1 0x1 PUSH1 0xA0 SHL SUB AND PUSH1 0x0 DUP1 MLOAD PUSH1 0x20 PUSH2 0x4F26 DUP4 CODECOPY DUP2 MLOAD SWAP2 MSTORE DUP4 DUP4 PUSH1 0x40 MLOAD PUSH2 0xB2D SWAP3 SWAP2 SWAP1 SWAP2 DUP3 MSTORE PUSH1 0x20 DUP3 ADD MSTORE PUSH1 0x40 ADD SWAP1 JUMP JUMPDEST PUSH1 0x40 MLOAD DUP1 SWAP2 SUB SWAP1 LOG2 POP POP POP POP POP JUMP JUMPDEST PUSH1 0x0 PUSH2 0x6A5 DUP3 DUP5 PUSH2 0xEF3 JUMP JUMPDEST PUSH4 0x4E487B71 PUSH1 0xE0 SHL PUSH1 0x0 MSTORE PUSH1 0x41 PUSH1 0x4 MSTORE PUSH1 0x24 PUSH1 0x0 REVERT JUMPDEST PUSH1 0x0 JUMPDEST DUP4 DUP2 LT ISZERO PUSH2 0xB79 JUMPI DUP2 DUP2 ADD MLOAD DUP4 DUP3 ADD MSTORE PUSH1 0x20 ADD PUSH2 0xB61 JUMP JUMPDEST POP POP PUSH1 0x0 SWAP2 ADD MSTORE JUMP JUMPDEST PUSH1 0x0 DUP3 PUSH1 0x1F DUP4 ADD SLT PUSH2 0xB93 JUMPI PUSH1 0x0 DUP1 REVERT JUMPDEST DUP2 MLOAD PUSH1 0x1 PUSH1 0x1 PUSH1 0x40 SHL SUB DUP2 GT ISZERO PUSH2 0xBAC JUMPI PUSH2 0xBAC PUSH2 0xB48 JUMP JUMPDEST PUSH1 0x40 MLOAD PUSH1 0x1F DUP3 ADD PUSH1 0x1F NOT SWAP1 DUP2 AND PUSH1 0x3F ADD AND DUP2 ADD PUSH1 0x1 PUSH1 0x1 PUSH1 0x40 SHL SUB DUP2 GT DUP3 DUP3 LT OR ISZERO PUSH2 0xBDA JUMPI PUSH2 0xBDA PUSH2 0xB48 JUMP JUMPDEST PUSH1 0x40 MSTORE DUP2 DUP2 MSTORE DUP4 DUP3 ADD PUSH1 0x20 ADD DUP6 LT ISZERO PUSH2 0xBF2 JUMPI PUSH1 0x0 DUP1 REVERT JUMPDEST PUSH2 0xC03 DUP3 PUSH1 0x20 DUP4 ADD PUSH1 0x20 DUP8 ADD PUSH2 0xB5E JUMP JUMPDEST SWAP5 SWAP4 POP POP POP POP JUMP JUMPDEST DUP1 MLOAD PUSH1 0x1 PUSH1 0x1 PUSH1 0xA0 SHL SUB DUP2 AND DUP2 EQ PUSH2 0xC22 JUMPI PUSH1 0x0 DUP1 REVERT JUMPDEST SWAP2 SWAP1 POP JUMP JUMPDEST PUSH1 0x0 DUP1 PUSH1 0x0 DUP1 PUSH1 0x0 DUP1 PUSH1 0x0 DUP1 PUSH2 0x100 DUP10 DUP12 SUB SLT ISZERO PUSH2 0xC44 JUMPI PUSH1 0x0 DUP1 REVERT JUMPDEST DUP9 MLOAD PUSH1 0x1 PUSH1 0x1 PUSH1 0x40 SHL SUB DUP2 GT ISZERO PUSH2 0xC5A JUMPI PUSH1 0x0 DUP1 REVERT JUMPDEST PUSH2 0xC66 DUP12 DUP3 DUP13 ADD PUSH2 0xB82 JUMP JUMPDEST PUSH1 0x20 DUP12 ADD MLOAD SWAP1 SWAP10 POP SWAP1 POP PUSH1 0x1 PUSH1 0x1 PUSH1 0x40 SHL SUB DUP2 GT ISZERO PUSH2 0xC84 JUMPI PUSH1 0x0 DUP1 REVERT JUMPDEST PUSH2 0xC90 DUP12 DUP3 DUP13 ADD PUSH2 0xB82 JUMP JUMPDEST SWAP8 POP POP PUSH2 0xC9F PUSH1 0x40 DUP11 ADD PUSH2 0xC0B JUMP JUMPDEST SWAP6 POP PUSH2 0xCAD PUSH1 0x60 DUP11 ADD PUSH2 0xC0B JUMP JUMPDEST SWAP5 POP PUSH2 0xCBB PUSH1 0x80 DUP11 ADD PUSH2 0xC0B JUMP JUMPDEST SWAP4 POP PUSH2 0xCC9 PUSH1 0xA0 DUP11 ADD PUSH2 0xC0B JUMP JUMPDEST SWAP3 POP PUSH2 0xCD7 PUSH1 0xC0 DUP11 ADD PUSH2 0xC0B JUMP JUMPDEST SWAP2 POP PUSH2 0xCE5 PUSH1 0xE0 DUP11 ADD PUSH2 0xC0B JUMP JUMPDEST SWAP1 POP SWAP3 SWAP6 SWAP9 POP SWAP3 SWAP6 SWAP9 SWAP1 SWAP4 SWAP7 POP JUMP JUMPDEST PUSH1 0x1 DUP2 DUP2 SHR SWAP1 DUP3 AND DUP1 PUSH2 0xD08 JUMPI PUSH1 0x7F DUP3 AND SWAP2 POP JUMPDEST PUSH1 0x20 DUP3 LT DUP2 SUB PUSH2 0xD28 JUMPI PUSH4 0x4E487B71 PUSH1 0xE0 SHL PUSH1 0x0 MSTORE PUSH1 0x22 PUSH1 0x4 MSTORE PUSH1 0x24 PUSH1 0x0 REVERT JUMPDEST POP SWAP2 SWAP1 POP JUMP JUMPDEST PUSH1 0x1F DUP3 GT ISZERO PUSH2 0x83E JUMPI DUP1 PUSH1 0x0 MSTORE PUSH1 0x20 PUSH1 0x0 KECCAK256 PUSH1 0x1F DUP5 ADD PUSH1 0x5 SHR DUP2 ADD PUSH1 0x20 DUP6 LT ISZERO PUSH2 0xD55 JUMPI POP DUP1 JUMPDEST PUSH1 0x1F DUP5 ADD PUSH1 0x5 SHR DUP3 ADD SWAP2 POP JUMPDEST DUP2 DUP2 LT ISZERO PUSH2 0xD75 JUMPI PUSH1 0x0 DUP2 SSTORE PUSH1 0x1 ADD PUSH2 0xD61 JUMP JUMPDEST POP POP POP POP POP JUMP JUMPDEST DUP2 MLOAD PUSH1 0x1 PUSH1 0x1 PUSH1 0x40 SHL SUB DUP2 GT ISZERO PUSH2 0xD95 JUMPI PUSH2 0xD95 PUSH2 0xB48 JUMP JUMPDEST PUSH2 0xDA9 DUP2 PUSH2 0xDA3 DUP5 SLOAD PUSH2 0xCF4 JUMP JUMPDEST DUP5 PUSH2 0xD2E JUMP JUMPDEST PUSH1 0x20 PUSH1 0x1F DUP3 GT PUSH1 0x1 DUP2 EQ PUSH2 0xDDD JUMPI PUSH1 0x0 DUP4 ISZERO PUSH2 0xDC5 JUMPI POP DUP5 DUP3 ADD MLOAD JUMPDEST PUSH1 0x0 NOT PUSH1 0x3 DUP6 SWAP1 SHL SHR NOT AND PUSH1 0x1 DUP5 SWAP1 SHL OR DUP5 SSTORE PUSH2 0xD75 JUMP JUMPDEST PUSH1 0x0 DUP5 DUP2 MSTORE PUSH1 0x20 DUP2 KECCAK256 PUSH1 0x1F NOT DUP6 AND SWAP2 JUMPDEST DUP3 DUP2 LT ISZERO PUSH2 0xE0D JUMPI DUP8 DUP6 ADD MLOAD DUP3 SSTORE PUSH1 0x20 SWAP5 DUP6 ADD SWAP5 PUSH1 0x1 SWAP1 SWAP3 ADD SWAP2 ADD PUSH2 0xDED JUMP JUMPDEST POP DUP5 DUP3 LT ISZERO PUSH2 0xE2B JUMPI DUP7 DUP5 ADD MLOAD PUSH1 0x0 NOT PUSH1 0x3 DUP8 SWAP1 SHL PUSH1 0xF8 AND SHR NOT AND DUP2 SSTORE JUMPDEST POP POP POP POP PUSH1 0x1 SWAP1 DUP2 SHL ADD SWAP1 SSTORE POP JUMP JUMPDEST PUSH4 0x4E487B71 PUSH1 0xE0 SHL PUSH1 0x0 MSTORE PUSH1 0x11 PUSH1 0x4 MSTORE PUSH1 0x24 PUSH1 0x0 REVERT JUMPDEST DUP1 DUP3 MUL DUP2 ISZERO DUP3 DUP3 DIV DUP5 EQ OR PUSH2 0x431 JUMPI PUSH2 0x431 PUSH2 0xE3A JUMP JUMPDEST PUSH1 0x0 DUP3 PUSH2 0xE84 JUMPI PUSH4 0x4E487B71 PUSH1 0xE0 SHL PUSH1 0x0 MSTORE PUSH1 0x12 PUSH1 0x4 MSTORE PUSH1 0x24 PUSH1 0x0 REVERT JUMPDEST POP DIV SWAP1 JUMP JUMPDEST PUSH1 0x20 DUP2 MSTORE PUSH1 0x0 DUP3 MLOAD DUP1 PUSH1 0x20 DUP5 ADD MSTORE PUSH2 0xEA8 DUP2 PUSH1 0x40 DUP6 ADD PUSH1 0x20 DUP8 ADD PUSH2 0xB5E JUMP JUMPDEST PUSH1 0x1F ADD PUSH1 0x1F NOT AND SWAP2 SWAP1 SWAP2 ADD PUSH1 0x40 ADD SWAP3 SWAP2 POP POP JUMP JUMPDEST DUP1 MLOAD PUSH1 0x20 DUP1 DUP4 ADD MLOAD SWAP2 SWAP1 DUP2 LT ISZERO PUSH2 0xD28 JUMPI PUSH1 0x0 NOT PUSH1 0x20 SWAP2 SWAP1 SWAP2 SUB PUSH1 0x3 SHL SHL AND SWAP2 SWAP1 POP JUMP JUMPDEST DUP1 DUP3 ADD DUP1 DUP3 GT ISZERO PUSH2 0x431 JUMPI PUSH2 0x431 PUSH2 0xE3A JUMP JUMPDEST DUP2 DUP2 SUB DUP2 DUP2 GT ISZERO PUSH2 0x431 JUMPI PUSH2 0x431 PUSH2 0xE3A JUMP JUMPDEST PUSH1 0x80 MLOAD PUSH1 0xA0 MLOAD PUSH1 0xC0 MLOAD PUSH1 0xE0 MLOAD PUSH2 0x100 MLOAD PUSH2 0x120 MLOAD PUSH2 0x140 MLOAD PUSH2 0x3FC6 PUSH2 0xF60 PUSH1 0x0 CODECOPY PUSH1 0x0 PUSH2 0xE47 ADD MSTORE PUSH1 0x0 PUSH2 0xE1C ADD MSTORE PUSH1 0x0 PUSH2 0x2445 ADD MSTORE PUSH1 0x0 PUSH2 0x241D ADD MSTORE PUSH1 0x0 PUSH2 0x2378 ADD MSTORE PUSH1 0x0 PUSH2 0x23A2 ADD MSTORE PUSH1 0x0 PUSH2 0x23CC ADD MSTORE PUSH2 0x3FC6 PUSH1 0x0 RETURN INVALID PUSH1 0x80 PUSH1 0x40 MSTORE CALLVALUE DUP1 ISZERO PUSH2 0x10 JUMPI PUSH1 0x0 DUP1 REVERT JUMPDEST POP PUSH1 0x4 CALLDATASIZE LT PUSH2 0x399 JUMPI PUSH1 0x0 CALLDATALOAD PUSH1 0xE0 SHR DUP1 PUSH4 0x84B0196E GT PUSH2 0x1E9 JUMPI DUP1 PUSH4 0xC8C7FE6B GT PUSH2 0x10F JUMPI DUP1 PUSH4 0xE07495E3 GT PUSH2 0xAD JUMPI DUP1 PUSH4 0xF36C8F5C GT PUSH2 0x7C JUMPI DUP1 PUSH4 0xF36C8F5C EQ PUSH2 0x8A4 JUMPI DUP1 PUSH4 0xF676F331 EQ PUSH2 0x8CB JUMPI DUP1 PUSH4 0xF79ED94B EQ PUSH2 0x8DE JUMPI DUP1 PUSH4 0xFE64C681 EQ PUSH2 0x8F1 JUMPI PUSH1 0x0 DUP1 REVERT JUMPDEST DUP1 PUSH4 0xE07495E3 EQ PUSH2 0x81A JUMPI DUP1 PUSH4 0xE63AB1E9 EQ PUSH2 0x82D JUMPI DUP1 PUSH4 0xEB8F4C4A EQ PUSH2 0x854 JUMPI DUP1 PUSH4 0xF1127ED8 EQ PUSH2 0x867 JUMPI PUSH1 0x0 DUP1 REVERT JUMPDEST DUP1 PUSH4 0xD5391393 GT PUSH2 0xE9 JUMPI DUP1 PUSH4 0xD5391393 EQ PUSH2 0x7C5 JUMPI DUP1 PUSH4 0xD547741F EQ PUSH2 0x7EC JUMPI DUP1 PUSH4 0xDD62ED3E EQ PUSH2 0x7FF JUMPI DUP1 PUSH4 0xDFEF15B8 EQ PUSH2 0x812 JUMPI PUSH1 0x0 DUP1 REVERT JUMPDEST DUP1 PUSH4 0xC8C7FE6B EQ PUSH2 0x74E JUMPI DUP1 PUSH4 0xD3FC9864 EQ PUSH2 0x79F JUMPI DUP1 PUSH4 0xD505ACCF EQ PUSH2 0x7B2 JUMPI PUSH1 0x0 DUP1 REVERT JUMPDEST DUP1 PUSH4 0xA217FDDF GT PUSH2 0x187 JUMPI DUP1 PUSH4 0xA978D8DF GT PUSH2 0x156 JUMPI DUP1 PUSH4 0xA978D8DF EQ PUSH2 0x70D JUMPI DUP1 PUSH4 0xAE621BBE EQ PUSH2 0x720 JUMPI DUP1 PUSH4 0xC3CDA520 EQ PUSH2 0x728 JUMPI DUP1 PUSH4 0xC69DEF0B EQ PUSH2 0x73B JUMPI PUSH1 0x0 DUP1 REVERT JUMPDEST DUP1 PUSH4 0xA217FDDF EQ PUSH2 0x6CC JUMPI DUP1 PUSH4 0xA34CEA08 EQ PUSH2 0x6D4 JUMPI DUP1 PUSH4 0xA457C2D7 EQ PUSH2 0x6E7 JUMPI DUP1 PUSH4 0xA9059CBB EQ PUSH2 0x6FA JUMPI PUSH1 0x0 DUP1 REVERT JUMPDEST DUP1 PUSH4 0x91DDADF4 GT PUSH2 0x1C3 JUMPI DUP1 PUSH4 0x91DDADF4 EQ PUSH2 0x67F JUMPI DUP1 PUSH4 0x91EE2A3D EQ PUSH2 0x69E JUMPI DUP1 PUSH4 0x95D89B41 EQ PUSH2 0x6B1 JUMPI DUP1 PUSH4 0x9AB24EB0 EQ PUSH2 0x6B9 JUMPI PUSH1 0x0 DUP1 REVERT JUMPDEST DUP1 PUSH4 0x84B0196E EQ PUSH2 0x63E JUMPI DUP1 PUSH4 0x8E539E8C EQ PUSH2 0x659 JUMPI DUP1 PUSH4 0x91D14854 EQ PUSH2 0x66C JUMPI PUSH1 0x0 DUP1 REVERT JUMPDEST DUP1 PUSH4 0x3644E515 GT PUSH2 0x2CE JUMPI DUP1 PUSH4 0x5C19A95C GT PUSH2 0x26C JUMPI DUP1 PUSH4 0x6FCFFF45 GT PUSH2 0x23B JUMPI DUP1 PUSH4 0x6FCFFF45 EQ PUSH2 0x5D2 JUMPI DUP1 PUSH4 0x70A08231 EQ PUSH2 0x5FA JUMPI DUP1 PUSH4 0x7ECEBE00 EQ PUSH2 0x623 JUMPI DUP1 PUSH4 0x8456CB59 EQ PUSH2 0x636 JUMPI PUSH1 0x0 DUP1 REVERT JUMPDEST DUP1 PUSH4 0x5C19A95C EQ PUSH2 0x58E JUMPI DUP1 PUSH4 0x5C975ABB EQ PUSH2 0x5A1 JUMPI DUP1 PUSH4 0x626C3D43 EQ PUSH2 0x5AC JUMPI DUP1 PUSH4 0x638B1B14 EQ PUSH2 0x5BF JUMPI PUSH1 0x0 DUP1 REVERT JUMPDEST DUP1 PUSH4 0x3A46B1A8 GT PUSH2 0x2A8 JUMPI DUP1 PUSH4 0x3A46B1A8 EQ PUSH2 0x527 JUMPI DUP1 PUSH4 0x3F4BA83A EQ PUSH2 0x53A JUMPI DUP1 PUSH4 0x4BF5D7E9 EQ PUSH2 0x542 JUMPI DUP1 PUSH4 0x587CDE1E EQ PUSH2 0x54A JUMPI PUSH1 0x0 DUP1 REVERT JUMPDEST DUP1 PUSH4 0x3644E515 EQ PUSH2 0x4F9 JUMPI DUP1 PUSH4 0x36568ABE EQ PUSH2 0x501 JUMPI DUP1 PUSH4 0x39509351 EQ PUSH2 0x514 JUMPI PUSH1 0x0 DUP1 REVERT JUMPDEST DUP1 PUSH4 0x248A9CA3 GT PUSH2 0x33B JUMPI DUP1 PUSH4 0x2FF2E9DC GT PUSH2 0x315 JUMPI DUP1 PUSH4 0x2FF2E9DC EQ PUSH2 0x49E JUMPI DUP1 PUSH4 0x313CE567 EQ PUSH2 0x4B0 JUMPI DUP1 PUSH4 0x31993A1C EQ PUSH2 0x4BF JUMPI DUP1 PUSH4 0x32CB6B0C EQ PUSH2 0x4E6 JUMPI PUSH1 0x0 DUP1 REVERT JUMPDEST DUP1 PUSH4 0x248A9CA3 EQ PUSH2 0x441 JUMPI DUP1 PUSH4 0x282C51F3 EQ PUSH2 0x464 JUMPI DUP1 PUSH4 0x2F2FF15D EQ PUSH2 0x48B JUMPI PUSH1 0x0 DUP1 REVERT JUMPDEST DUP1 PUSH4 0x15E98E73 GT PUSH2 0x377 JUMPI DUP1 PUSH4 0x15E98E73 EQ PUSH2 0x3EE JUMPI DUP1 PUSH4 0x15F570DC EQ PUSH2 0x411 JUMPI DUP1 PUSH4 0x18160DDD EQ PUSH2 0x426 JUMPI DUP1 PUSH4 0x23B872DD EQ PUSH2 0x42E JUMPI PUSH1 0x0 DUP1 REVERT JUMPDEST DUP1 PUSH4 0x1FFC9A7 EQ PUSH2 0x39E JUMPI DUP1 PUSH4 0x6FDDE03 EQ PUSH2 0x3C6 JUMPI DUP1 PUSH4 0x95EA7B3 EQ PUSH2 0x3DB JUMPI JUMPDEST PUSH1 0x0 DUP1 REVERT JUMPDEST PUSH2 0x3B1 PUSH2 0x3AC CALLDATASIZE PUSH1 0x4 PUSH2 0x3874 JUMP JUMPDEST PUSH2 0x904 JUMP JUMPDEST PUSH1 0x40 MLOAD SWAP1 ISZERO ISZERO DUP2 MSTORE PUSH1 0x20 ADD JUMPDEST PUSH1 0x40 MLOAD DUP1 SWAP2 SUB SWAP1 RETURN JUMPDEST PUSH2 0x3CE PUSH2 0x93B JUMP JUMPDEST PUSH1 0x40 MLOAD PUSH2 0x3BD SWAP2 SWAP1 PUSH2 0x38EE JUMP JUMPDEST PUSH2 0x3B1 PUSH2 0x3E9 CALLDATASIZE PUSH1 0x4 PUSH2 0x391D JUMP JUMPDEST PUSH2 0x9CD JUMP JUMPDEST PUSH2 0x403 PUSH1 0x0 DUP1 MLOAD PUSH1 0x20 PUSH2 0x3F71 DUP4 CODECOPY DUP2 MLOAD SWAP2 MSTORE DUP2 JUMP JUMPDEST PUSH1 0x40 MLOAD SWAP1 DUP2 MSTORE PUSH1 0x20 ADD PUSH2 0x3BD JUMP JUMPDEST PUSH2 0x424 PUSH2 0x41F CALLDATASIZE PUSH1 0x4 PUSH2 0x39EC JUMP JUMPDEST PUSH2 0x9E5 JUMP JUMPDEST STOP JUMPDEST PUSH1 0x2 SLOAD PUSH2 0x403 JUMP JUMPDEST PUSH2 0x3B1 PUSH2 0x43C CALLDATASIZE PUSH1 0x4 PUSH2 0x3A43 JUMP JUMPDEST PUSH2 0xB43 JUMP JUMPDEST PUSH2 0x403 PUSH2 0x44F CALLDATASIZE PUSH1 0x4 PUSH2 0x3A80 JUMP JUMPDEST PUSH1 0x0 SWAP1 DUP2 MSTORE PUSH1 0xC PUSH1 0x20 MSTORE PUSH1 0x40 SWAP1 KECCAK256 PUSH1 0x1 ADD SLOAD SWAP1 JUMP JUMPDEST PUSH2 0x403 PUSH32 0x3C11D16CBAFFD01DF69CE1C404F6340EE057498F5F00246190EA54220576A848 DUP2 JUMP JUMPDEST PUSH2 0x424 PUSH2 0x499 CALLDATASIZE PUSH1 0x4 PUSH2 0x3A99 JUMP JUMPDEST PUSH2 0xB67 JUMP JUMPDEST PUSH2 0x403 PUSH11 0x52B7D2DCC80CD2E4000000 DUP2 JUMP JUMPDEST PUSH1 0x40 MLOAD PUSH1 0x12 DUP2 MSTORE PUSH1 0x20 ADD PUSH2 0x3BD JUMP JUMPDEST PUSH2 0x403 PUSH32 0xACF805600123EF007091DA3B3FFB39474074C656C127AA68CB0FFEC232A8FF8 DUP2 JUMP JUMPDEST PUSH2 0x403 PUSH12 0x33B2E3C9FD0803CE8000000 DUP2 JUMP JUMPDEST PUSH2 0x403 PUSH2 0xB91 JUMP JUMPDEST PUSH2 0x424 PUSH2 0x50F CALLDATASIZE PUSH1 0x4 PUSH2 0x3A99 JUMP JUMPDEST PUSH2 0xBA0 JUMP JUMPDEST PUSH2 0x3B1 PUSH2 0x522 CALLDATASIZE PUSH1 0x4 PUSH2 0x391D JUMP JUMPDEST PUSH2 0xC1E JUMP JUMPDEST PUSH2 0x403 PUSH2 0x535 CALLDATASIZE PUSH1 0x4 PUSH2 0x391D JUMP JUMPDEST PUSH2 0xC40 JUMP JUMPDEST PUSH2 0x424 PUSH2 0xCC5 JUMP JUMPDEST PUSH2 0x3CE PUSH2 0xCFA JUMP JUMPDEST PUSH2 0x576 PUSH2 0x558 CALLDATASIZE PUSH1 0x4 PUSH2 0x3AC5 JUMP JUMPDEST PUSH1 0x1 PUSH1 0x1 PUSH1 0xA0 SHL SUB SWAP1 DUP2 AND PUSH1 0x0 SWAP1 DUP2 MSTORE PUSH1 0x9 PUSH1 0x20 MSTORE PUSH1 0x40 SWAP1 KECCAK256 SLOAD AND SWAP1 JUMP JUMPDEST PUSH1 0x40 MLOAD PUSH1 0x1 PUSH1 0x1 PUSH1 0xA0 SHL SUB SWAP1 SWAP2 AND DUP2 MSTORE PUSH1 0x20 ADD PUSH2 0x3BD JUMP JUMPDEST PUSH2 0x424 PUSH2 0x59C CALLDATASIZE PUSH1 0x4 PUSH2 0x3AC5 JUMP JUMPDEST PUSH2 0xD92 JUMP JUMPDEST PUSH1 0xD SLOAD PUSH1 0xFF AND PUSH2 0x3B1 JUMP JUMPDEST PUSH1 0x12 SLOAD PUSH2 0x576 SWAP1 PUSH1 0x1 PUSH1 0x1 PUSH1 0xA0 SHL SUB AND DUP2 JUMP JUMPDEST PUSH1 0x10 SLOAD PUSH2 0x576 SWAP1 PUSH1 0x1 PUSH1 0x1 PUSH1 0xA0 SHL SUB AND DUP2 JUMP JUMPDEST PUSH2 0x5E5 PUSH2 0x5E0 CALLDATASIZE PUSH1 0x4 PUSH2 0x3AC5 JUMP JUMPDEST PUSH2 0xD9C JUMP JUMPDEST PUSH1 0x40 MLOAD PUSH4 0xFFFFFFFF SWAP1 SWAP2 AND DUP2 MSTORE PUSH1 0x20 ADD PUSH2 0x3BD JUMP JUMPDEST PUSH2 0x403 PUSH2 0x608 CALLDATASIZE PUSH1 0x4 PUSH2 0x3AC5 JUMP JUMPDEST PUSH1 0x1 PUSH1 0x1 PUSH1 0xA0 SHL SUB AND PUSH1 0x0 SWAP1 DUP2 MSTORE PUSH1 0x20 DUP2 SWAP1 MSTORE PUSH1 0x40 SWAP1 KECCAK256 SLOAD SWAP1 JUMP JUMPDEST PUSH2 0x403 PUSH2 0x631 CALLDATASIZE PUSH1 0x4 PUSH2 0x3AC5 JUMP JUMPDEST PUSH2 0xDBE JUMP JUMPDEST PUSH2 0x424 PUSH2 0xDDC JUMP JUMPDEST PUSH2 0x646 PUSH2 0xE0E JUMP JUMPDEST PUSH1 0x40 MLOAD PUSH2 0x3BD SWAP8 SWAP7 SWAP6 SWAP5 SWAP4 SWAP3 SWAP2 SWAP1 PUSH2 0x3AE0 JUMP JUMPDEST PUSH2 0x403 PUSH2 0x667 CALLDATASIZE PUSH1 0x4 PUSH2 0x3A80 JUMP JUMPDEST PUSH2 0xE97 JUMP JUMPDEST PUSH2 0x3B1 PUSH2 0x67A CALLDATASIZE PUSH1 0x4 PUSH2 0x3A99 JUMP JUMPDEST PUSH2 0xEFE JUMP JUMPDEST PUSH2 0x687 PUSH2 0xF29 JUMP JUMPDEST PUSH1 0x40 MLOAD PUSH6 0xFFFFFFFFFFFF SWAP1 SWAP2 AND DUP2 MSTORE PUSH1 0x20 ADD PUSH2 0x3BD JUMP JUMPDEST PUSH2 0x424 PUSH2 0x6AC CALLDATASIZE PUSH1 0x4 PUSH2 0x3B87 JUMP JUMPDEST PUSH2 0xF34 JUMP JUMPDEST PUSH2 0x3CE PUSH2 0x10B8 JUMP JUMPDEST PUSH2 0x403 PUSH2 0x6C7 CALLDATASIZE PUSH1 0x4 PUSH2 0x3AC5 JUMP JUMPDEST PUSH2 0x10C7 JUMP JUMPDEST PUSH2 0x403 PUSH1 0x0 DUP2 JUMP JUMPDEST PUSH2 0x424 PUSH2 0x6E2 CALLDATASIZE PUSH1 0x4 PUSH2 0x3BA3 JUMP JUMPDEST PUSH2 0x1149 JUMP JUMPDEST PUSH2 0x3B1 PUSH2 0x6F5 CALLDATASIZE PUSH1 0x4 PUSH2 0x391D JUMP JUMPDEST PUSH2 0x1335 JUMP JUMPDEST PUSH2 0x3B1 PUSH2 0x708 CALLDATASIZE PUSH1 0x4 PUSH2 0x391D JUMP JUMPDEST PUSH2 0x13B0 JUMP JUMPDEST PUSH2 0x424 PUSH2 0x71B CALLDATASIZE PUSH1 0x4 PUSH2 0x3B87 JUMP JUMPDEST PUSH2 0x13BE JUMP JUMPDEST PUSH2 0x403 PUSH2 0x14DF JUMP JUMPDEST PUSH2 0x424 PUSH2 0x736 CALLDATASIZE PUSH1 0x4 PUSH2 0x3BD2 JUMP JUMPDEST PUSH2 0x16E7 JUMP JUMPDEST PUSH2 0x424 PUSH2 0x749 CALLDATASIZE PUSH1 0x4 PUSH2 0x3C2A JUMP JUMPDEST PUSH2 0x181D JUMP JUMPDEST PUSH2 0x761 PUSH2 0x75C CALLDATASIZE PUSH1 0x4 PUSH2 0x3C54 JUMP JUMPDEST PUSH2 0x196B JUMP JUMPDEST PUSH1 0x40 MLOAD PUSH2 0x3BD SWAP2 SWAP1 DUP2 MLOAD PUSH1 0x1 PUSH1 0x1 PUSH1 0xA0 SHL SUB AND DUP2 MSTORE PUSH1 0x20 DUP1 DUP4 ADD MLOAD SWAP1 DUP3 ADD MSTORE PUSH1 0x40 DUP1 DUP4 ADD MLOAD SWAP1 DUP3 ADD MSTORE PUSH1 0x60 SWAP2 DUP3 ADD MLOAD ISZERO ISZERO SWAP2 DUP2 ADD SWAP2 SWAP1 SWAP2 MSTORE PUSH1 0x80 ADD SWAP1 JUMP JUMPDEST PUSH2 0x424 PUSH2 0x7AD CALLDATASIZE PUSH1 0x4 PUSH2 0x39EC JUMP JUMPDEST PUSH2 0x1A0A JUMP JUMPDEST PUSH2 0x424 PUSH2 0x7C0 CALLDATASIZE PUSH1 0x4 PUSH2 0x3C6F JUMP JUMPDEST PUSH2 0x1B52 JUMP JUMPDEST PUSH2 0x403 PUSH32 0x9F2DF0FED2C77648DE5860A4CC508CD0818C85B8B8A1AB4CEEEF8D981C8956A6 DUP2 JUMP JUMPDEST PUSH2 0x424 PUSH2 0x7FA CALLDATASIZE PUSH1 0x4 PUSH2 0x3A99 JUMP JUMPDEST PUSH2 0x1CB6 JUMP JUMPDEST PUSH2 0x403 PUSH2 0x80D CALLDATASIZE PUSH1 0x4 PUSH2 0x3CDA JUMP JUMPDEST PUSH2 0x1CDB JUMP JUMPDEST PUSH2 0x403 PUSH2 0x1D06 JUMP JUMPDEST PUSH2 0x424 PUSH2 0x828 CALLDATASIZE PUSH1 0x4 PUSH2 0x3CF6 JUMP JUMPDEST PUSH2 0x1D48 JUMP JUMPDEST PUSH2 0x403 PUSH32 0x65D7A28E3265B37A6474929F336521B332C1681B933F6CB9F3376673440D862A DUP2 JUMP JUMPDEST PUSH2 0x424 PUSH2 0x862 CALLDATASIZE PUSH1 0x4 PUSH2 0x3A43 JUMP JUMPDEST PUSH2 0x1E17 JUMP JUMPDEST PUSH2 0x87A PUSH2 0x875 CALLDATASIZE PUSH1 0x4 PUSH2 0x3D3D JUMP JUMPDEST PUSH2 0x1EA0 JUMP JUMPDEST PUSH1 0x40 DUP1 MLOAD DUP3 MLOAD PUSH4 0xFFFFFFFF AND DUP2 MSTORE PUSH1 0x20 SWAP3 DUP4 ADD MLOAD PUSH1 0x1 PUSH1 0x1 PUSH1 0xE0 SHL SUB AND SWAP3 DUP2 ADD SWAP3 SWAP1 SWAP3 MSTORE ADD PUSH2 0x3BD JUMP JUMPDEST PUSH2 0x403 PUSH32 0x71840DC4906352362B0CDAF79870196C8E42ACAFADE72D5D5A6D59291253CEB1 DUP2 JUMP JUMPDEST PUSH1 0x13 SLOAD PUSH2 0x576 SWAP1 PUSH1 0x1 PUSH1 0x1 PUSH1 0xA0 SHL SUB AND DUP2 JUMP JUMPDEST PUSH1 0xF SLOAD PUSH2 0x576 SWAP1 PUSH1 0x1 PUSH1 0x1 PUSH1 0xA0 SHL SUB AND DUP2 JUMP JUMPDEST PUSH1 0x11 SLOAD PUSH2 0x576 SWAP1 PUSH1 0x1 PUSH1 0x1 PUSH1 0xA0 SHL SUB AND DUP2 JUMP JUMPDEST PUSH1 0x0 PUSH1 0x1 PUSH1 0x1 PUSH1 0xE0 SHL SUB NOT DUP3 AND PUSH4 0x7965DB0B PUSH1 0xE0 SHL EQ DUP1 PUSH2 0x935 JUMPI POP PUSH4 0x1FFC9A7 PUSH1 0xE0 SHL PUSH1 0x1 PUSH1 0x1 PUSH1 0xE0 SHL SUB NOT DUP4 AND EQ JUMPDEST SWAP3 SWAP2 POP POP JUMP JUMPDEST PUSH1 0x60 PUSH1 0x3 DUP1 SLOAD PUSH2 0x94A SWAP1 PUSH2 0x3D7D JUMP JUMPDEST DUP1 PUSH1 0x1F ADD PUSH1 0x20 DUP1 SWAP2 DIV MUL PUSH1 0x20 ADD PUSH1 0x40 MLOAD SWAP1 DUP2 ADD PUSH1 0x40 MSTORE DUP1 SWAP3 SWAP2 SWAP1 DUP2 DUP2 MSTORE PUSH1 0x20 ADD DUP3 DUP1 SLOAD PUSH2 0x976 SWAP1 PUSH2 0x3D7D JUMP JUMPDEST DUP1 ISZERO PUSH2 0x9C3 JUMPI DUP1 PUSH1 0x1F LT PUSH2 0x998 JUMPI PUSH2 0x100 DUP1 DUP4 SLOAD DIV MUL DUP4 MSTORE SWAP2 PUSH1 0x20 ADD SWAP2 PUSH2 0x9C3 JUMP JUMPDEST DUP3 ADD SWAP2 SWAP1 PUSH1 0x0 MSTORE PUSH1 0x20 PUSH1 0x0 KECCAK256 SWAP1 JUMPDEST DUP2 SLOAD DUP2 MSTORE SWAP1 PUSH1 0x1 ADD SWAP1 PUSH1 0x20 ADD DUP1 DUP4 GT PUSH2 0x9A6 JUMPI DUP3 SWAP1 SUB PUSH1 0x1F AND DUP3 ADD SWAP2 JUMPDEST POP POP POP POP POP SWAP1 POP SWAP1 JUMP JUMPDEST PUSH1 0x0 CALLER PUSH2 0x9DB DUP2 DUP6 DUP6 PUSH2 0x1F3C JUMP JUMPDEST POP PUSH1 0x1 SWAP4 SWAP3 POP POP POP JUMP JUMPDEST PUSH32 0x3C11D16CBAFFD01DF69CE1C404F6340EE057498F5F00246190EA54220576A848 PUSH2 0xA0F DUP2 PUSH2 0x2060 JUMP JUMPDEST PUSH2 0xA17 PUSH2 0x206A JUMP JUMPDEST PUSH1 0x1 PUSH1 0x1 PUSH1 0xA0 SHL SUB DUP5 AND PUSH2 0xA6B JUMPI PUSH1 0x40 MLOAD PUSH3 0x461BCD PUSH1 0xE5 SHL DUP2 MSTORE PUSH1 0x20 PUSH1 0x4 DUP3 ADD MSTORE PUSH1 0x16 PUSH1 0x24 DUP3 ADD MSTORE PUSH22 0x6275726E2066726F6D207A65726F2061646472657373 PUSH1 0x50 SHL PUSH1 0x44 DUP3 ADD MSTORE PUSH1 0x64 ADD JUMPDEST PUSH1 0x40 MLOAD DUP1 SWAP2 SUB SWAP1 REVERT JUMPDEST PUSH1 0x0 DUP4 GT PUSH2 0xA8B JUMPI PUSH1 0x40 MLOAD PUSH3 0x461BCD PUSH1 0xE5 SHL DUP2 MSTORE PUSH1 0x4 ADD PUSH2 0xA62 SWAP1 PUSH2 0x3DB1 JUMP JUMPDEST DUP3 PUSH2 0xAAB DUP6 PUSH1 0x1 PUSH1 0x1 PUSH1 0xA0 SHL SUB AND PUSH1 0x0 SWAP1 DUP2 MSTORE PUSH1 0x20 DUP2 SWAP1 MSTORE PUSH1 0x40 SWAP1 KECCAK256 SLOAD SWAP1 JUMP JUMPDEST LT ISZERO PUSH2 0xAF0 JUMPI PUSH1 0x40 MLOAD PUSH3 0x461BCD PUSH1 0xE5 SHL DUP2 MSTORE PUSH1 0x20 PUSH1 0x4 DUP3 ADD MSTORE PUSH1 0x14 PUSH1 0x24 DUP3 ADD MSTORE PUSH20 0x696E73756666696369656E742062616C616E6365 PUSH1 0x60 SHL PUSH1 0x44 DUP3 ADD MSTORE PUSH1 0x64 ADD PUSH2 0xA62 JUMP JUMPDEST PUSH2 0xAFA DUP5 DUP5 PUSH2 0x20B2 JUMP JUMPDEST DUP4 PUSH1 0x1 PUSH1 0x1 PUSH1 0xA0 SHL SUB AND PUSH32 0xFAD31924D655455395C87544C8AA1FFDB5A7505A22A3C2E03F28003B6556A75F DUP5 DUP5 PUSH1 0x40 MLOAD PUSH2 0xB35 SWAP3 SWAP2 SWAP1 PUSH2 0x3DD6 JUMP JUMPDEST PUSH1 0x40 MLOAD DUP1 SWAP2 SUB SWAP1 LOG2 POP POP POP POP JUMP JUMPDEST PUSH1 0x0 CALLER PUSH2 0xB51 DUP6 DUP3 DUP6 PUSH2 0x20BC JUMP JUMPDEST PUSH2 0xB5C DUP6 DUP6 DUP6 PUSH2 0x2130 JUMP JUMPDEST POP PUSH1 0x1 SWAP5 SWAP4 POP POP POP POP JUMP JUMPDEST PUSH1 0x0 DUP3 DUP2 MSTORE PUSH1 0xC PUSH1 0x20 MSTORE PUSH1 0x40 SWAP1 KECCAK256 PUSH1 0x1 ADD SLOAD PUSH2 0xB82 DUP2 PUSH2 0x2060 JUMP JUMPDEST PUSH2 0xB8C DUP4 DUP4 PUSH2 0x22E5 JUMP JUMPDEST POP POP POP JUMP JUMPDEST PUSH1 0x0 PUSH2 0xB9B PUSH2 0x236B JUMP JUMPDEST SWAP1 POP SWAP1 JUMP JUMPDEST PUSH1 0x1 PUSH1 0x1 PUSH1 0xA0 SHL SUB DUP2 AND CALLER EQ PUSH2 0xC10 JUMPI PUSH1 0x40 MLOAD PUSH3 0x461BCD PUSH1 0xE5 SHL DUP2 MSTORE PUSH1 0x20 PUSH1 0x4 DUP3 ADD MSTORE PUSH1 0x2F PUSH1 0x24 DUP3 ADD MSTORE PUSH32 0x416363657373436F6E74726F6C3A2063616E206F6E6C792072656E6F756E6365 PUSH1 0x44 DUP3 ADD MSTORE PUSH15 0x103937B632B9903337B91039B2B633 PUSH1 0x89 SHL PUSH1 0x64 DUP3 ADD MSTORE PUSH1 0x84 ADD PUSH2 0xA62 JUMP JUMPDEST PUSH2 0xC1A DUP3 DUP3 PUSH2 0x2496 JUMP JUMPDEST POP POP JUMP JUMPDEST PUSH1 0x0 CALLER PUSH2 0x9DB DUP2 DUP6 DUP6 PUSH2 0xC31 DUP4 DUP4 PUSH2 0x1CDB JUMP JUMPDEST PUSH2 0xC3B SWAP2 SWAP1 PUSH2 0x3E05 JUMP JUMPDEST PUSH2 0x1F3C JUMP JUMPDEST PUSH1 0x0 PUSH2 0xC4A PUSH2 0xF29 JUMP JUMPDEST PUSH6 0xFFFFFFFFFFFF AND DUP3 LT PUSH2 0xC9C JUMPI PUSH1 0x40 MLOAD PUSH3 0x461BCD PUSH1 0xE5 SHL DUP2 MSTORE PUSH1 0x20 PUSH1 0x4 DUP3 ADD MSTORE PUSH1 0x19 PUSH1 0x24 DUP3 ADD MSTORE PUSH25 0x4552433230566F7465733A20667574757265206C6F6F6B757 PUSH1 0x3C SHL PUSH1 0x44 DUP3 ADD MSTORE PUSH1 0x64 ADD PUSH2 0xA62 JUMP JUMPDEST PUSH1 0x1 PUSH1 0x1 PUSH1 0xA0 SHL SUB DUP4 AND PUSH1 0x0 SWAP1 DUP2 MSTORE PUSH1 0xA PUSH1 0x20 MSTORE PUSH1 0x40 SWAP1 KECCAK256 PUSH2 0xCBE SWAP1 DUP4 PUSH2 0x24FD JUMP JUMPDEST SWAP4 SWAP3 POP POP POP JUMP JUMPDEST PUSH32 0x65D7A28E3265B37A6474929F336521B332C1681B933F6CB9F3376673440D862A PUSH2 0xCEF DUP2 PUSH2 0x2060 JUMP JUMPDEST PUSH2 0xCF7 PUSH2 0x25E6 JUMP JUMPDEST POP JUMP JUMPDEST PUSH1 0x60 NUMBER PUSH2 0xD05 PUSH2 0xF29 JUMP JUMPDEST PUSH6 0xFFFFFFFFFFFF AND EQ PUSH2 0xD5A JUMPI PUSH1 0x40 MLOAD PUSH3 0x461BCD PUSH1 0xE5 SHL DUP2 MSTORE PUSH1 0x20 PUSH1 0x4 DUP3 ADD MSTORE PUSH1 0x1D PUSH1 0x24 DUP3 ADD MSTORE PUSH32 0x4552433230566F7465733A2062726F6B656E20636C6F636B206D6F6465000000 PUSH1 0x44 DUP3 ADD MSTORE PUSH1 0x64 ADD PUSH2 0xA62 JUMP JUMPDEST POP PUSH1 0x40 DUP1 MLOAD DUP1 DUP3 ADD SWAP1 SWAP2 MSTORE PUSH1 0x1D DUP2 MSTORE PUSH32 0x6D6F64653D626C6F636B6E756D6265722666726F6D3D64656661756C74000000 PUSH1 0x20 DUP3 ADD MSTORE SWAP1 JUMP JUMPDEST PUSH2 0xCF7 CALLER DUP3 PUSH2 0x2638 JUMP JUMPDEST PUSH1 0x1 PUSH1 0x1 PUSH1 0xA0 SHL SUB DUP2 AND PUSH1 0x0 SWAP1 DUP2 MSTORE PUSH1 0xA PUSH1 0x20 MSTORE PUSH1 0x40 DUP2 KECCAK256 SLOAD PUSH2 0x935 SWAP1 PUSH2 0x26B1 JUMP JUMPDEST PUSH1 0x1 PUSH1 0x1 PUSH1 0xA0 SHL SUB DUP2 AND PUSH1 0x0 SWAP1 DUP2 MSTORE PUSH1 0x7 PUSH1 0x20 MSTORE PUSH1 0x40 DUP2 KECCAK256 SLOAD PUSH2 0x935 JUMP JUMPDEST PUSH32 0x65D7A28E3265B37A6474929F336521B332C1681B933F6CB9F3376673440D862A PUSH2 0xE06 DUP2 PUSH2 0x2060 JUMP JUMPDEST PUSH2 0xCF7 PUSH2 0x271A JUMP JUMPDEST PUSH1 0x0 PUSH1 0x60 DUP1 DUP3 DUP1 DUP1 DUP4 PUSH2 0xE42 PUSH32 0x0 PUSH1 0x5 PUSH2 0x2757 JUMP JUMPDEST PUSH2 0xE6D PUSH32 0x0 PUSH1 0x6 PUSH2 0x2757 JUMP JUMPDEST PUSH1 0x40 DUP1 MLOAD PUSH1 0x0 DUP1 DUP3 MSTORE PUSH1 0x20 DUP3 ADD SWAP1 SWAP3 MSTORE PUSH1 0xF PUSH1 0xF8 SHL SWAP12 SWAP4 SWAP11 POP SWAP2 SWAP9 POP CHAINID SWAP8 POP ADDRESS SWAP7 POP SWAP5 POP SWAP3 POP SWAP1 POP JUMP JUMPDEST PUSH1 0x0 PUSH2 0xEA1 PUSH2 0xF29 JUMP JUMPDEST PUSH6 0xFFFFFFFFFFFF AND DUP3 LT PUSH2 0xEF3 JUMPI PUSH1 0x40 MLOAD PUSH3 0x461BCD PUSH1 0xE5 SHL DUP2 MSTORE PUSH1 0x20 PUSH1 0x4 DUP3 ADD MSTORE PUSH1 0x19 PUSH1 0x24 DUP3 ADD MSTORE PUSH25 0x4552433230566F7465733A20667574757265206C6F6F6B757 PUSH1 0x3C SHL PUSH1 0x44 DUP3 ADD MSTORE PUSH1 0x64 ADD PUSH2 0xA62 JUMP JUMPDEST PUSH2 0x935 PUSH1 0xB DUP4 PUSH2 0x24FD JUMP JUMPDEST PUSH1 0x0 SWAP2 DUP3 MSTORE PUSH1 0xC PUSH1 0x20 SWAP1 DUP2 MSTORE PUSH1 0x40 DUP1 DUP5 KECCAK256 PUSH1 0x1 PUSH1 0x1 PUSH1 0xA0 SHL SUB SWAP4 SWAP1 SWAP4 AND DUP5 MSTORE SWAP2 SWAP1 MSTORE SWAP1 KECCAK256 SLOAD PUSH1 0xFF AND SWAP1 JUMP JUMPDEST PUSH1 0x0 PUSH2 0xB9B NUMBER PUSH2 0x2802 JUMP JUMPDEST PUSH2 0xF3C PUSH2 0x206A JUMP JUMPDEST PUSH1 0xE PUSH1 0x0 DUP4 PUSH1 0x2 DUP2 GT ISZERO PUSH2 0xF52 JUMPI PUSH2 0xF52 PUSH2 0x3E18 JUMP JUMPDEST PUSH1 0x2 DUP2 GT ISZERO PUSH2 0xF63 JUMPI PUSH2 0xF63 PUSH2 0x3E18 JUMP JUMPDEST DUP2 MSTORE PUSH1 0x20 DUP2 ADD SWAP2 SWAP1 SWAP2 MSTORE PUSH1 0x40 ADD PUSH1 0x0 KECCAK256 PUSH1 0x3 ADD SLOAD PUSH1 0xFF AND PUSH2 0xFBD JUMPI PUSH1 0x40 MLOAD PUSH3 0x461BCD PUSH1 0xE5 SHL DUP2 MSTORE PUSH1 0x20 PUSH1 0x4 DUP3 ADD MSTORE PUSH1 0x14 PUSH1 0x24 DUP3 ADD MSTORE PUSH20 0x185CDCD95D081B9BDD081C9959DA5CDD195C9959 PUSH1 0x62 SHL PUSH1 0x44 DUP3 ADD MSTORE PUSH1 0x64 ADD PUSH2 0xA62 JUMP JUMPDEST PUSH1 0x0 DUP2 GT PUSH2 0xFDD JUMPI PUSH1 0x40 MLOAD PUSH3 0x461BCD PUSH1 0xE5 SHL DUP2 MSTORE PUSH1 0x4 ADD PUSH2 0xA62 SWAP1 PUSH2 0x3DB1 JUMP JUMPDEST PUSH2 0x102C CALLER ADDRESS DUP4 PUSH1 0xE PUSH1 0x0 DUP8 PUSH1 0x2 DUP2 GT ISZERO PUSH2 0xFF9 JUMPI PUSH2 0xFF9 PUSH2 0x3E18 JUMP JUMPDEST PUSH1 0x2 DUP2 GT ISZERO PUSH2 0x100A JUMPI PUSH2 0x100A PUSH2 0x3E18 JUMP JUMPDEST DUP2 MSTORE PUSH1 0x20 DUP2 ADD SWAP2 SWAP1 SWAP2 MSTORE PUSH1 0x40 ADD PUSH1 0x0 KECCAK256 SLOAD PUSH1 0x1 PUSH1 0x1 PUSH1 0xA0 SHL SUB AND SWAP3 SWAP2 SWAP1 PUSH2 0x2869 JUMP JUMPDEST DUP1 PUSH1 0xE PUSH1 0x0 DUP5 PUSH1 0x2 DUP2 GT ISZERO PUSH2 0x1043 JUMPI PUSH2 0x1043 PUSH2 0x3E18 JUMP JUMPDEST PUSH1 0x2 DUP2 GT ISZERO PUSH2 0x1054 JUMPI PUSH2 0x1054 PUSH2 0x3E18 JUMP JUMPDEST DUP2 MSTORE PUSH1 0x20 DUP2 ADD SWAP2 SWAP1 SWAP2 MSTORE PUSH1 0x40 ADD PUSH1 0x0 KECCAK256 PUSH1 0x1 ADD DUP1 SLOAD SWAP1 SWAP2 ADD SWAP1 SSTORE CALLER DUP3 PUSH1 0x2 DUP2 GT ISZERO PUSH2 0x1081 JUMPI PUSH2 0x1081 PUSH2 0x3E18 JUMP JUMPDEST PUSH1 0x40 MLOAD DUP4 DUP2 MSTORE PUSH32 0x6A2B04B1F3D5A335C4367FEA39BB8807EF0A4FBE77A2772700C8F9C90C1C9A1B SWAP1 PUSH1 0x20 ADD PUSH1 0x40 MLOAD DUP1 SWAP2 SUB SWAP1 LOG3 POP POP JUMP JUMPDEST PUSH1 0x60 PUSH1 0x4 DUP1 SLOAD PUSH2 0x94A SWAP1 PUSH2 0x3D7D JUMP JUMPDEST PUSH1 0x1 PUSH1 0x1 PUSH1 0xA0 SHL SUB DUP2 AND PUSH1 0x0 SWAP1 DUP2 MSTORE PUSH1 0xA PUSH1 0x20 MSTORE PUSH1 0x40 DUP2 KECCAK256 SLOAD DUP1 ISZERO PUSH2 0x1136 JUMPI PUSH1 0x1 PUSH1 0x1 PUSH1 0xA0 SHL SUB DUP4 AND PUSH1 0x0 SWAP1 DUP2 MSTORE PUSH1 0xA PUSH1 0x20 MSTORE PUSH1 0x40 SWAP1 KECCAK256 DUP1 SLOAD PUSH1 0x0 NOT DUP4 ADD SWAP1 DUP2 LT PUSH2 0x1114 JUMPI PUSH2 0x1114 PUSH2 0x3E2E JUMP JUMPDEST PUSH1 0x0 SWAP2 DUP3 MSTORE PUSH1 0x20 SWAP1 SWAP2 KECCAK256 ADD SLOAD PUSH5 0x100000000 SWAP1 DIV PUSH1 0x1 PUSH1 0x1 PUSH1 0xE0 SHL SUB AND PUSH2 0x1139 JUMP JUMPDEST PUSH1 0x0 JUMPDEST PUSH1 0x1 PUSH1 0x1 PUSH1 0xE0 SHL SUB AND SWAP4 SWAP3 POP POP POP JUMP JUMPDEST PUSH1 0x0 DUP1 MLOAD PUSH1 0x20 PUSH2 0x3F71 DUP4 CODECOPY DUP2 MLOAD SWAP2 MSTORE PUSH2 0x1161 DUP2 PUSH2 0x2060 JUMP JUMPDEST PUSH1 0x1 PUSH1 0x1 PUSH1 0xA0 SHL SUB DUP4 AND PUSH2 0x11A6 JUMPI PUSH1 0x40 MLOAD PUSH3 0x461BCD PUSH1 0xE5 SHL DUP2 MSTORE PUSH1 0x20 PUSH1 0x4 DUP3 ADD MSTORE PUSH1 0xC PUSH1 0x24 DUP3 ADD MSTORE PUSH12 0x7A65726F2061646472657373 PUSH1 0xA0 SHL PUSH1 0x44 DUP3 ADD MSTORE PUSH1 0x64 ADD PUSH2 0xA62 JUMP JUMPDEST PUSH1 0x0 DUP3 GT PUSH2 0x11C6 JUMPI PUSH1 0x40 MLOAD PUSH3 0x461BCD PUSH1 0xE5 SHL DUP2 MSTORE PUSH1 0x4 ADD PUSH2 0xA62 SWAP1 PUSH2 0x3DB1 JUMP JUMPDEST DUP2 PUSH1 0xE PUSH1 0x0 DUP7 PUSH1 0x2 DUP2 GT ISZERO PUSH2 0x11DD JUMPI PUSH2 0x11DD PUSH2 0x3E18 JUMP JUMPDEST PUSH1 0x2 DUP2 GT ISZERO PUSH2 0x11EE JUMPI PUSH2 0x11EE PUSH2 0x3E18 JUMP JUMPDEST DUP2 MSTORE PUSH1 0x20 ADD SWAP1 DUP2 MSTORE PUSH1 0x20 ADD PUSH1 0x0 KECCAK256 PUSH1 0x1 ADD SLOAD LT ISZERO PUSH2 0x1245 JUMPI PUSH1 0x40 MLOAD PUSH3 0x461BCD PUSH1 0xE5 SHL DUP2 MSTORE PUSH1 0x20 PUSH1 0x4 DUP3 ADD MSTORE PUSH1 0x14 PUSH1 0x24 DUP3 ADD MSTORE PUSH20 0x696E73756666696369656E74206261636B696E67 PUSH1 0x60 SHL PUSH1 0x44 DUP3 ADD MSTORE PUSH1 0x64 ADD PUSH2 0xA62 JUMP JUMPDEST DUP2 PUSH1 0xE PUSH1 0x0 DUP7 PUSH1 0x2 DUP2 GT ISZERO PUSH2 0x125C JUMPI PUSH2 0x125C PUSH2 0x3E18 JUMP JUMPDEST PUSH1 0x2 DUP2 GT ISZERO PUSH2 0x126D JUMPI PUSH2 0x126D PUSH2 0x3E18 JUMP JUMPDEST DUP2 MSTORE PUSH1 0x20 ADD SWAP1 DUP2 MSTORE PUSH1 0x20 ADD PUSH1 0x0 KECCAK256 PUSH1 0x1 ADD PUSH1 0x0 DUP3 DUP3 SLOAD PUSH2 0x128D SWAP2 SWAP1 PUSH2 0x3E44 JUMP JUMPDEST SWAP1 SWAP2 SSTORE POP PUSH2 0x12E0 SWAP1 POP DUP4 DUP4 PUSH1 0xE PUSH1 0x0 DUP9 PUSH1 0x2 DUP2 GT ISZERO PUSH2 0x12AE JUMPI PUSH2 0x12AE PUSH2 0x3E18 JUMP JUMPDEST PUSH1 0x2 DUP2 GT ISZERO PUSH2 0x12BF JUMPI PUSH2 0x12BF PUSH2 0x3E18 JUMP JUMPDEST DUP2 MSTORE PUSH1 0x20 DUP2 ADD SWAP2 SWAP1 SWAP2 MSTORE PUSH1 0x40 ADD PUSH1 0x0 KECCAK256 SLOAD PUSH1 0x1 PUSH1 0x1 PUSH1 0xA0 SHL SUB AND SWAP2 SWAP1 PUSH2 0x28D4 JUMP JUMPDEST DUP3 PUSH1 0x1 PUSH1 0x1 PUSH1 0xA0 SHL SUB AND DUP5 PUSH1 0x2 DUP2 GT ISZERO PUSH2 0x12FC JUMPI PUSH2 0x12FC PUSH2 0x3E18 JUMP JUMPDEST PUSH1 0x40 MLOAD DUP5 DUP2 MSTORE PUSH32 0xE3AAB926D81700BAC87DAB01982E77E751C07D1ACCA11C13FF44AAE1193A5F54 SWAP1 PUSH1 0x20 ADD PUSH1 0x40 MLOAD DUP1 SWAP2 SUB SWAP1 LOG3 POP POP POP POP JUMP JUMPDEST PUSH1 0x0 CALLER DUP2 PUSH2 0x1343 DUP3 DUP7 PUSH2 0x1CDB JUMP JUMPDEST SWAP1 POP DUP4 DUP2 LT ISZERO PUSH2 0x13A3 JUMPI PUSH1 0x40 MLOAD PUSH3 0x461BCD PUSH1 0xE5 SHL DUP2 MSTORE PUSH1 0x20 PUSH1 0x4 DUP3 ADD MSTORE PUSH1 0x25 PUSH1 0x24 DUP3 ADD MSTORE PUSH32 0x45524332303A2064656372656173656420616C6C6F77616E63652062656C6F77 PUSH1 0x44 DUP3 ADD MSTORE PUSH5 0x207A65726F PUSH1 0xD8 SHL PUSH1 0x64 DUP3 ADD MSTORE PUSH1 0x84 ADD PUSH2 0xA62 JUMP JUMPDEST PUSH2 0xB5C DUP3 DUP7 DUP7 DUP5 SUB PUSH2 0x1F3C JUMP JUMPDEST PUSH1 0x0 CALLER PUSH2 0x9DB DUP2 DUP6 DUP6 PUSH2 0x2130 JUMP JUMPDEST PUSH1 0x0 DUP1 MLOAD PUSH1 0x20 PUSH2 0x3F71 DUP4 CODECOPY DUP2 MLOAD SWAP2 MSTORE PUSH2 0x13D6 DUP2 PUSH2 0x2060 JUMP JUMPDEST PUSH1 0xE PUSH1 0x0 DUP5 PUSH1 0x2 DUP2 GT ISZERO PUSH2 0x13EC JUMPI PUSH2 0x13EC PUSH2 0x3E18 JUMP JUMPDEST PUSH1 0x2 DUP2 GT ISZERO PUSH2 0x13FD JUMPI PUSH2 0x13FD PUSH2 0x3E18 JUMP JUMPDEST DUP2 MSTORE PUSH1 0x20 DUP2 ADD SWAP2 SWAP1 SWAP2 MSTORE PUSH1 0x40 ADD PUSH1 0x0 KECCAK256 PUSH1 0x3 ADD SLOAD PUSH1 0xFF AND PUSH2 0x1457 JUMPI PUSH1 0x40 MLOAD PUSH3 0x461BCD PUSH1 0xE5 SHL DUP2 MSTORE PUSH1 0x20 PUSH1 0x4 DUP3 ADD MSTORE PUSH1 0x14 PUSH1 0x24 DUP3 ADD MSTORE PUSH20 0x185CDCD95D081B9BDD081C9959DA5CDD195C9959 PUSH1 0x62 SHL PUSH1 0x44 DUP3 ADD MSTORE PUSH1 0x64 ADD PUSH2 0xA62 JUMP JUMPDEST DUP2 PUSH1 0xE PUSH1 0x0 DUP6 PUSH1 0x2 DUP2 GT ISZERO PUSH2 0x146E JUMPI PUSH2 0x146E PUSH2 0x3E18 JUMP JUMPDEST PUSH1 0x2 DUP2 GT ISZERO PUSH2 0x147F JUMPI PUSH2 0x147F PUSH2 0x3E18 JUMP JUMPDEST DUP2 MSTORE PUSH1 0x20 ADD SWAP1 DUP2 MSTORE PUSH1 0x20 ADD PUSH1 0x0 KECCAK256 PUSH1 0x2 ADD DUP2 SWAP1 SSTORE POP DUP3 PUSH1 0x2 DUP2 GT ISZERO PUSH2 0x14A6 JUMPI PUSH2 0x14A6 PUSH2 0x3E18 JUMP JUMPDEST PUSH1 0x40 MLOAD DUP4 DUP2 MSTORE PUSH32 0x2D292C5B6330B5B0F99B665EC1BE838CA17CD57EB118FE7A02CC05477B5BD42F SWAP1 PUSH1 0x20 ADD JUMPDEST PUSH1 0x40 MLOAD DUP1 SWAP2 SUB SWAP1 LOG2 POP POP POP JUMP JUMPDEST PUSH1 0x0 DUP1 DUP1 MSTORE PUSH1 0xE PUSH1 0x20 MSTORE PUSH32 0xE710864318D4A32F37D6CE54CB3FADBEF648DD12D8DBDF53973564D56B7F881F SLOAD DUP2 SWAP1 PUSH32 0xE710864318D4A32F37D6CE54CB3FADBEF648DD12D8DBDF53973564D56B7F881C SWAP1 PUSH1 0xFF AND DUP1 ISZERO PUSH2 0x1542 JUMPI POP PUSH1 0x0 DUP2 PUSH1 0x2 ADD SLOAD GT JUMPDEST DUP1 ISZERO PUSH2 0x1552 JUMPI POP PUSH1 0x0 DUP2 PUSH1 0x1 ADD SLOAD GT JUMPDEST ISZERO PUSH2 0x158B JUMPI PUSH8 0xDE0B6B3A7640000 DUP2 PUSH1 0x2 ADD SLOAD DUP3 PUSH1 0x1 ADD SLOAD PUSH2 0x1574 SWAP2 SWAP1 PUSH2 0x3E57 JUMP JUMPDEST PUSH2 0x157E SWAP2 SWAP1 PUSH2 0x3E84 JUMP JUMPDEST PUSH2 0x1588 SWAP1 DUP4 PUSH2 0x3E05 JUMP JUMPDEST SWAP2 POP JUMPDEST POP PUSH1 0x1 PUSH1 0x0 MSTORE PUSH1 0xE PUSH1 0x20 MSTORE PUSH32 0xA7C5BA7114A813B50159ADD3A36832908DC83DB71D0B9A24C2AD0F83BE95820A SLOAD PUSH32 0xA7C5BA7114A813B50159ADD3A36832908DC83DB71D0B9A24C2AD0F83BE958207 SWAP1 PUSH1 0xFF AND DUP1 ISZERO PUSH2 0x15ED JUMPI POP PUSH1 0x0 DUP2 PUSH1 0x2 ADD SLOAD GT JUMPDEST DUP1 ISZERO PUSH2 0x15FD JUMPI POP PUSH1 0x0 DUP2 PUSH1 0x1 ADD SLOAD GT JUMPDEST ISZERO PUSH2 0x1636 JUMPI PUSH8 0xDE0B6B3A7640000 DUP2 PUSH1 0x2 ADD SLOAD DUP3 PUSH1 0x1 ADD SLOAD PUSH2 0x161F SWAP2 SWAP1 PUSH2 0x3E57 JUMP JUMPDEST PUSH2 0x1629 SWAP2 SWAP1 PUSH2 0x3E84 JUMP JUMPDEST PUSH2 0x1633 SWAP1 DUP4 PUSH2 0x3E05 JUMP JUMPDEST SWAP2 POP JUMPDEST POP PUSH1 0x2 PUSH1 0x0 MSTORE PUSH1 0xE PUSH1 0x20 MSTORE PUSH32 0x9ADB202B1492743BC00C81D33CDC6423FA8C79109027EB6A845391E8FC1F0484 SLOAD PUSH32 0x9ADB202B1492743BC00C81D33CDC6423FA8C79109027EB6A845391E8FC1F0481 SWAP1 PUSH1 0xFF AND DUP1 ISZERO PUSH2 0x1698 JUMPI POP PUSH1 0x0 DUP2 PUSH1 0x2 ADD SLOAD GT JUMPDEST DUP1 ISZERO PUSH2 0x16A8 JUMPI POP PUSH1 0x0 DUP2 PUSH1 0x1 ADD SLOAD GT JUMPDEST ISZERO PUSH2 0x16E1 JUMPI PUSH8 0xDE0B6B3A7640000 DUP2 PUSH1 0x2 ADD SLOAD DUP3 PUSH1 0x1 ADD SLOAD PUSH2 0x16CA SWAP2 SWAP1 PUSH2 0x3E57 JUMP JUMPDEST PUSH2 0x16D4 SWAP2 SWAP1 PUSH2 0x3E84 JUMP JUMPDEST PUSH2 0x16DE SWAP1 DUP4 PUSH2 0x3E05 JUMP JUMPDEST SWAP2 POP JUMPDEST POP SWAP2 SWAP1 POP JUMP JUMPDEST DUP4 TIMESTAMP GT ISZERO PUSH2 0x1737 JUMPI PUSH1 0x40 MLOAD PUSH3 0x461BCD PUSH1 0xE5 SHL DUP2 MSTORE PUSH1 0x20 PUSH1 0x4 DUP3 ADD MSTORE PUSH1 0x1D PUSH1 0x24 DUP3 ADD MSTORE PUSH32 0x4552433230566F7465733A207369676E61747572652065787069726564000000 PUSH1 0x44 DUP3 ADD MSTORE PUSH1 0x64 ADD PUSH2 0xA62 JUMP JUMPDEST PUSH1 0x40 DUP1 MLOAD PUSH32 0xE48329057BFD03D55E49B547132E39CFFD9C1820AD7B9D4C5307691425D15ADF PUSH1 0x20 DUP3 ADD MSTORE PUSH1 0x1 PUSH1 0x1 PUSH1 0xA0 SHL SUB DUP9 AND SWAP2 DUP2 ADD SWAP2 SWAP1 SWAP2 MSTORE PUSH1 0x60 DUP2 ADD DUP7 SWAP1 MSTORE PUSH1 0x80 DUP2 ADD DUP6 SWAP1 MSTORE PUSH1 0x0 SWAP1 PUSH2 0x17B1 SWAP1 PUSH2 0x17A9 SWAP1 PUSH1 0xA0 ADD PUSH1 0x40 MLOAD PUSH1 0x20 DUP2 DUP4 SUB SUB DUP2 MSTORE SWAP1 PUSH1 0x40 MSTORE DUP1 MLOAD SWAP1 PUSH1 0x20 ADD KECCAK256 PUSH2 0x2904 JUMP JUMPDEST DUP6 DUP6 DUP6 PUSH2 0x2931 JUMP JUMPDEST SWAP1 POP PUSH2 0x17BC DUP2 PUSH2 0x295B JUMP JUMPDEST DUP7 EQ PUSH2 0x180A JUMPI PUSH1 0x40 MLOAD PUSH3 0x461BCD PUSH1 0xE5 SHL DUP2 MSTORE PUSH1 0x20 PUSH1 0x4 DUP3 ADD MSTORE PUSH1 0x19 PUSH1 0x24 DUP3 ADD MSTORE PUSH32 0x4552433230566F7465733A20696E76616C6964206E6F6E636500000000000000 PUSH1 0x44 DUP3 ADD MSTORE PUSH1 0x64 ADD PUSH2 0xA62 JUMP JUMPDEST PUSH2 0x1814 DUP2 DUP9 PUSH2 0x2638 JUMP JUMPDEST POP POP POP POP POP POP POP JUMP JUMPDEST PUSH1 0x0 DUP1 MLOAD PUSH1 0x20 PUSH2 0x3F71 DUP4 CODECOPY DUP2 MLOAD SWAP2 MSTORE PUSH2 0x1835 DUP2 PUSH2 0x2060 JUMP JUMPDEST PUSH1 0x1 PUSH1 0x1 PUSH1 0xA0 SHL SUB DUP3 AND PUSH2 0x1878 JUMPI PUSH1 0x40 MLOAD PUSH3 0x461BCD PUSH1 0xE5 SHL DUP2 MSTORE PUSH1 0x20 PUSH1 0x4 DUP3 ADD MSTORE PUSH1 0xA PUSH1 0x24 DUP3 ADD MSTORE PUSH10 0x3D32B937903A37B5B2B7 PUSH1 0xB1 SHL PUSH1 0x44 DUP3 ADD MSTORE PUSH1 0x64 ADD PUSH2 0xA62 JUMP JUMPDEST DUP2 PUSH1 0xE PUSH1 0x0 DUP6 PUSH1 0x2 DUP2 GT ISZERO PUSH2 0x188F JUMPI PUSH2 0x188F PUSH2 0x3E18 JUMP JUMPDEST PUSH1 0x2 DUP2 GT ISZERO PUSH2 0x18A0 JUMPI PUSH2 0x18A0 PUSH2 0x3E18 JUMP JUMPDEST DUP2 MSTORE PUSH1 0x20 ADD SWAP1 DUP2 MSTORE PUSH1 0x20 ADD PUSH1 0x0 KECCAK256 PUSH1 0x0 ADD PUSH1 0x0 PUSH2 0x100 EXP DUP2 SLOAD DUP2 PUSH1 0x1 PUSH1 0x1 PUSH1 0xA0 SHL SUB MUL NOT AND SWAP1 DUP4 PUSH1 0x1 PUSH1 0x1 PUSH1 0xA0 SHL SUB AND MUL OR SWAP1 SSTORE POP PUSH1 0x1 PUSH1 0xE PUSH1 0x0 DUP6 PUSH1 0x2 DUP2 GT ISZERO PUSH2 0x18ED JUMPI PUSH2 0x18ED PUSH2 0x3E18 JUMP JUMPDEST PUSH1 0x2 DUP2 GT ISZERO PUSH2 0x18FE JUMPI PUSH2 0x18FE PUSH2 0x3E18 JUMP JUMPDEST DUP2 MSTORE PUSH1 0x20 DUP2 ADD SWAP2 SWAP1 SWAP2 MSTORE PUSH1 0x40 ADD PUSH1 0x0 KECCAK256 PUSH1 0x3 ADD DUP1 SLOAD PUSH1 0xFF NOT AND SWAP2 ISZERO ISZERO SWAP2 SWAP1 SWAP2 OR SWAP1 SSTORE DUP3 PUSH1 0x2 DUP2 GT ISZERO PUSH2 0x1932 JUMPI PUSH2 0x1932 PUSH2 0x3E18 JUMP JUMPDEST PUSH1 0x40 MLOAD PUSH1 0x1 PUSH1 0x1 PUSH1 0xA0 SHL SUB DUP5 AND DUP2 MSTORE PUSH32 0x561ACD69F877DECB2BE770CA93EF06BB6A9E5D65DEFA3BACE8EAB67FEECAC572 SWAP1 PUSH1 0x20 ADD PUSH2 0x14D2 JUMP JUMPDEST PUSH1 0x40 DUP1 MLOAD PUSH1 0x80 DUP2 ADD DUP3 MSTORE PUSH1 0x0 DUP1 DUP3 MSTORE PUSH1 0x20 DUP3 ADD DUP2 SWAP1 MSTORE SWAP2 DUP2 ADD DUP3 SWAP1 MSTORE PUSH1 0x60 DUP2 ADD SWAP2 SWAP1 SWAP2 MSTORE PUSH1 0xE PUSH1 0x0 DUP4 PUSH1 0x2 DUP2 GT ISZERO PUSH2 0x19A5 JUMPI PUSH2 0x19A5 PUSH2 0x3E18 JUMP JUMPDEST PUSH1 0x2 DUP2 GT ISZERO PUSH2 0x19B6 JUMPI PUSH2 0x19B6 PUSH2 0x3E18 JUMP JUMPDEST DUP2 MSTORE PUSH1 0x20 DUP1 DUP3 ADD SWAP3 SWAP1 SWAP3 MSTORE PUSH1 0x40 SWAP1 DUP2 ADD PUSH1 0x0 KECCAK256 DUP2 MLOAD PUSH1 0x80 DUP2 ADD DUP4 MSTORE DUP2 SLOAD PUSH1 0x1 PUSH1 0x1 PUSH1 0xA0 SHL SUB AND DUP2 MSTORE PUSH1 0x1 DUP3 ADD SLOAD SWAP4 DUP2 ADD SWAP4 SWAP1 SWAP4 MSTORE PUSH1 0x2 DUP2 ADD SLOAD SWAP2 DUP4 ADD SWAP2 SWAP1 SWAP2 MSTORE PUSH1 0x3 ADD SLOAD PUSH1 0xFF AND ISZERO ISZERO PUSH1 0x60 DUP3 ADD MSTORE SWAP3 SWAP2 POP POP JUMP JUMPDEST PUSH32 0x9F2DF0FED2C77648DE5860A4CC508CD0818C85B8B8A1AB4CEEEF8D981C8956A6 PUSH2 0x1A34 DUP2 PUSH2 0x2060 JUMP JUMPDEST PUSH2 0x1A3C PUSH2 0x206A JUMP JUMPDEST PUSH1 0x1 PUSH1 0x1 PUSH1 0xA0 SHL SUB DUP5 AND PUSH2 0x1A89 JUMPI PUSH1 0x40 MLOAD PUSH3 0x461BCD PUSH1 0xE5 SHL DUP2 MSTORE PUSH1 0x20 PUSH1 0x4 DUP3 ADD MSTORE PUSH1 0x14 PUSH1 0x24 DUP3 ADD MSTORE PUSH20 0x6D696E7420746F207A65726F2061646472657373 PUSH1 0x60 SHL PUSH1 0x44 DUP3 ADD MSTORE PUSH1 0x64 ADD PUSH2 0xA62 JUMP JUMPDEST PUSH1 0x0 DUP4 GT PUSH2 0x1AA9 JUMPI PUSH1 0x40 MLOAD PUSH3 0x461BCD PUSH1 0xE5 SHL DUP2 MSTORE PUSH1 0x4 ADD PUSH2 0xA62 SWAP1 PUSH2 0x3DB1 JUMP JUMPDEST PUSH12 0x33B2E3C9FD0803CE8000000 DUP4 PUSH2 0x1AC0 PUSH1 0x2 SLOAD SWAP1 JUMP JUMPDEST PUSH2 0x1ACA SWAP2 SWAP1 PUSH2 0x3E05 JUMP JUMPDEST GT ISZERO PUSH2 0x1B0D JUMPI PUSH1 0x40 MLOAD PUSH3 0x461BCD PUSH1 0xE5 SHL DUP2 MSTORE PUSH1 0x20 PUSH1 0x4 DUP3 ADD MSTORE PUSH1 0x12 PUSH1 0x24 DUP3 ADD MSTORE PUSH18 0x65786365656473206D617820737570706C79 PUSH1 0x70 SHL PUSH1 0x44 DUP3 ADD MSTORE PUSH1 0x64 ADD PUSH2 0xA62 JUMP JUMPDEST PUSH2 0x1B17 DUP5 DUP5 PUSH2 0x2981 JUMP JUMPDEST DUP4 PUSH1 0x1 PUSH1 0x1 PUSH1 0xA0 SHL SUB AND PUSH32 0x9D89E36EADF856DB0AD9FFB5A569E07F95634DDDD9501141ECF04820484AD0DC DUP5 DUP5 PUSH1 0x40 MLOAD PUSH2 0xB35 SWAP3 SWAP2 SWAP1 PUSH2 0x3DD6 JUMP JUMPDEST DUP4 TIMESTAMP GT ISZERO PUSH2 0x1BA2 JUMPI PUSH1 0x40 MLOAD PUSH3 0x461BCD PUSH1 0xE5 SHL DUP2 MSTORE PUSH1 0x20 PUSH1 0x4 DUP3 ADD MSTORE PUSH1 0x1D PUSH1 0x24 DUP3 ADD MSTORE PUSH32 0x45524332305065726D69743A206578706972656420646561646C696E65000000 PUSH1 0x44 DUP3 ADD MSTORE PUSH1 0x64 ADD PUSH2 0xA62 JUMP JUMPDEST PUSH1 0x0 PUSH32 0x6E71EDAE12B1B97F4D1F60370FEF10105FA2FAAE0126114A169C64845D6126C9 DUP9 DUP9 DUP9 PUSH2 0x1BD1 DUP13 PUSH2 0x295B JUMP JUMPDEST PUSH1 0x40 DUP1 MLOAD PUSH1 0x20 DUP2 ADD SWAP7 SWAP1 SWAP7 MSTORE PUSH1 0x1 PUSH1 0x1 PUSH1 0xA0 SHL SUB SWAP5 DUP6 AND SWAP1 DUP7 ADD MSTORE SWAP3 SWAP1 SWAP2 AND PUSH1 0x60 DUP5 ADD MSTORE PUSH1 0x80 DUP4 ADD MSTORE PUSH1 0xA0 DUP3 ADD MSTORE PUSH1 0xC0 DUP2 ADD DUP7 SWAP1 MSTORE PUSH1 0xE0 ADD PUSH1 0x40 MLOAD PUSH1 0x20 DUP2 DUP4 SUB SUB DUP2 MSTORE SWAP1 PUSH1 0x40 MSTORE DUP1 MLOAD SWAP1 PUSH1 0x20 ADD KECCAK256 SWAP1 POP PUSH1 0x0 PUSH2 0x1C2C DUP3 PUSH2 0x2904 JUMP JUMPDEST SWAP1 POP PUSH1 0x0 PUSH2 0x1C3C DUP3 DUP8 DUP8 DUP8 PUSH2 0x2931 JUMP JUMPDEST SWAP1 POP DUP10 PUSH1 0x1 PUSH1 0x1 PUSH1 0xA0 SHL SUB AND DUP2 PUSH1 0x1 PUSH1 0x1 PUSH1 0xA0 SHL SUB AND EQ PUSH2 0x1C9F JUMPI PUSH1 0x40 MLOAD PUSH3 0x461BCD PUSH1 0xE5 SHL DUP2 MSTORE PUSH1 0x20 PUSH1 0x4 DUP3 ADD MSTORE PUSH1 0x1E PUSH1 0x24 DUP3 ADD MSTORE PUSH32 0x45524332305065726D69743A20696E76616C6964207369676E61747572650000 PUSH1 0x44 DUP3 ADD MSTORE PUSH1 0x64 ADD PUSH2 0xA62 JUMP JUMPDEST PUSH2 0x1CAA DUP11 DUP11 DUP11 PUSH2 0x1F3C JUMP JUMPDEST POP POP POP POP POP POP POP POP POP POP JUMP JUMPDEST PUSH1 0x0 DUP3 DUP2 MSTORE PUSH1 0xC PUSH1 0x20 MSTORE PUSH1 0x40 SWAP1 KECCAK256 PUSH1 0x1 ADD SLOAD PUSH2 0x1CD1 DUP2 PUSH2 0x2060 JUMP JUMPDEST PUSH2 0xB8C DUP4 DUP4 PUSH2 0x2496 JUMP JUMPDEST PUSH1 0x1 PUSH1 0x1 PUSH1 0xA0 SHL SUB SWAP2 DUP3 AND PUSH1 0x0 SWAP1 DUP2 MSTORE PUSH1 0x1 PUSH1 0x20 SWAP1 DUP2 MSTORE PUSH1 0x40 DUP1 DUP4 KECCAK256 SWAP4 SWAP1 SWAP5 AND DUP3 MSTORE SWAP2 SWAP1 SWAP2 MSTORE KECCAK256 SLOAD SWAP1 JUMP JUMPDEST PUSH1 0x0 DUP1 PUSH2 0x1D11 PUSH2 0x14DF JUMP JUMPDEST SWAP1 POP DUP1 PUSH1 0x0 SUB PUSH2 0x1D23 JUMPI PUSH1 0x0 SWAP2 POP POP SWAP1 JUMP JUMPDEST PUSH1 0x2 SLOAD PUSH2 0x1D38 DUP3 PUSH8 0xDE0B6B3A7640000 PUSH2 0x3E57 JUMP JUMPDEST PUSH2 0x1D42 SWAP2 SWAP1 PUSH2 0x3E84 JUMP JUMPDEST SWAP2 POP POP SWAP1 JUMP JUMPDEST PUSH2 0x1D50 PUSH2 0x206A JUMP JUMPDEST PUSH1 0x0 DUP3 GT PUSH2 0x1D70 JUMPI PUSH1 0x40 MLOAD PUSH3 0x461BCD PUSH1 0xE5 SHL DUP2 MSTORE PUSH1 0x4 ADD PUSH2 0xA62 SWAP1 PUSH2 0x3DB1 JUMP JUMPDEST CALLER PUSH1 0x0 SWAP1 DUP2 MSTORE PUSH1 0x20 DUP2 SWAP1 MSTORE PUSH1 0x40 SWAP1 KECCAK256 SLOAD DUP3 GT ISZERO PUSH2 0x1DC6 JUMPI PUSH1 0x40 MLOAD PUSH3 0x461BCD PUSH1 0xE5 SHL DUP2 MSTORE PUSH1 0x20 PUSH1 0x4 DUP3 ADD MSTORE PUSH1 0x14 PUSH1 0x24 DUP3 ADD MSTORE PUSH20 0x696E73756666696369656E742062616C616E6365 PUSH1 0x60 SHL PUSH1 0x44 DUP3 ADD MSTORE PUSH1 0x64 ADD PUSH2 0xA62 JUMP JUMPDEST PUSH2 0x1DD0 CALLER DUP4 PUSH2 0x20B2 JUMP JUMPDEST CALLER PUSH1 0x1 PUSH1 0x1 PUSH1 0xA0 SHL SUB AND PUSH32 0xFAD31924D655455395C87544C8AA1FFDB5A7505A22A3C2E03F28003B6556A75F DUP4 DUP4 PUSH1 0x40 MLOAD PUSH2 0x1E0B SWAP3 SWAP2 SWAP1 PUSH2 0x3DD6 JUMP JUMPDEST PUSH1 0x40 MLOAD DUP1 SWAP2 SUB SWAP1 LOG2 POP POP JUMP JUMPDEST PUSH32 0xACF805600123EF007091DA3B3FFB39474074C656C127AA68CB0FFEC232A8FF8 PUSH2 0x1E41 DUP2 PUSH2 0x2060 JUMP JUMPDEST PUSH1 0x1 PUSH1 0x1 PUSH1 0xA0 SHL SUB DUP4 AND PUSH2 0x1E86 JUMPI PUSH1 0x40 MLOAD PUSH3 0x461BCD PUSH1 0xE5 SHL DUP2 MSTORE PUSH1 0x20 PUSH1 0x4 DUP3 ADD MSTORE PUSH1 0xC PUSH1 0x24 DUP3 ADD MSTORE PUSH12 0x7A65726F2061646472657373 PUSH1 0xA0 SHL PUSH1 0x44 DUP3 ADD MSTORE PUSH1 0x64 ADD PUSH2 0xA62 JUMP JUMPDEST PUSH2 0x1E9A PUSH1 0x1 PUSH1 0x1 PUSH1 0xA0 SHL SUB DUP6 AND DUP5 DUP5 PUSH2 0x28D4 JUMP JUMPDEST POP POP POP POP JUMP JUMPDEST PUSH1 0x40 DUP1 MLOAD DUP1 DUP3 ADD SWAP1 SWAP2 MSTORE PUSH1 0x0 DUP1 DUP3 MSTORE PUSH1 0x20 DUP3 ADD MSTORE PUSH1 0x1 PUSH1 0x1 PUSH1 0xA0 SHL SUB DUP4 AND PUSH1 0x0 SWAP1 DUP2 MSTORE PUSH1 0xA PUSH1 0x20 MSTORE PUSH1 0x40 SWAP1 KECCAK256 DUP1 SLOAD PUSH4 0xFFFFFFFF DUP5 AND SWAP1 DUP2 LT PUSH2 0x1EE4 JUMPI PUSH2 0x1EE4 PUSH2 0x3E2E JUMP JUMPDEST PUSH1 0x0 SWAP2 DUP3 MSTORE PUSH1 0x20 SWAP2 DUP3 SWAP1 KECCAK256 PUSH1 0x40 DUP1 MLOAD DUP1 DUP3 ADD SWAP1 SWAP2 MSTORE SWAP2 ADD SLOAD PUSH4 0xFFFFFFFF DUP2 AND DUP3 MSTORE PUSH5 0x100000000 SWAP1 DIV PUSH1 0x1 PUSH1 0x1 PUSH1 0xE0 SHL SUB AND SWAP2 DUP2 ADD SWAP2 SWAP1 SWAP2 MSTORE SWAP4 SWAP3 POP POP POP JUMP JUMPDEST PUSH1 0x0 PUSH2 0xCBE DUP3 DUP5 PUSH2 0x3E05 JUMP JUMPDEST PUSH1 0x0 PUSH2 0xCBE DUP3 DUP5 PUSH2 0x3E44 JUMP JUMPDEST PUSH1 0x1 PUSH1 0x1 PUSH1 0xA0 SHL SUB DUP4 AND PUSH2 0x1F9E JUMPI PUSH1 0x40 MLOAD PUSH3 0x461BCD PUSH1 0xE5 SHL DUP2 MSTORE PUSH1 0x20 PUSH1 0x4 DUP3 ADD MSTORE PUSH1 0x24 DUP1 DUP3 ADD MSTORE PUSH32 0x45524332303A20617070726F76652066726F6D20746865207A65726F20616464 PUSH1 0x44 DUP3 ADD MSTORE PUSH4 0x72657373 PUSH1 0xE0 SHL PUSH1 0x64 DUP3 ADD MSTORE PUSH1 0x84 ADD PUSH2 0xA62 JUMP JUMPDEST PUSH1 0x1 PUSH1 0x1 PUSH1 0xA0 SHL SUB DUP3 AND PUSH2 0x1FFF JUMPI PUSH1 0x40 MLOAD PUSH3 0x461BCD PUSH1 0xE5 SHL DUP2 MSTORE PUSH1 0x20 PUSH1 0x4 DUP3 ADD MSTORE PUSH1 0x22 PUSH1 0x24 DUP3 ADD MSTORE PUSH32 0x45524332303A20617070726F766520746F20746865207A65726F206164647265 PUSH1 0x44 DUP3 ADD MSTORE PUSH2 0x7373 PUSH1 0xF0 SHL PUSH1 0x64 DUP3 ADD MSTORE PUSH1 0x84 ADD PUSH2 0xA62 JUMP JUMPDEST PUSH1 0x1 PUSH1 0x1 PUSH1 0xA0 SHL SUB DUP4 DUP2 AND PUSH1 0x0 DUP2 DUP2 MSTORE PUSH1 0x1 PUSH1 0x20 SWAP1 DUP2 MSTORE PUSH1 0x40 DUP1 DUP4 KECCAK256 SWAP5 DUP8 AND DUP1 DUP5 MSTORE SWAP5 DUP3 MSTORE SWAP2 DUP3 SWAP1 KECCAK256 DUP6 SWAP1 SSTORE SWAP1 MLOAD DUP5 DUP2 MSTORE PUSH32 0x8C5BE1E5EBEC7D5BD14F71427D1E84F3DD0314C0F7B2291E5B200AC8C7C3B925 SWAP2 ADD PUSH1 0x40 MLOAD DUP1 SWAP2 SUB SWAP1 LOG3 POP POP POP JUMP JUMPDEST PUSH2 0xCF7 DUP2 CALLER PUSH2 0x298B JUMP JUMPDEST PUSH1 0xD SLOAD PUSH1 0xFF AND ISZERO PUSH2 0x20B0 JUMPI PUSH1 0x40 MLOAD PUSH3 0x461BCD PUSH1 0xE5 SHL DUP2 MSTORE PUSH1 0x20 PUSH1 0x4 DUP3 ADD MSTORE PUSH1 0x10 PUSH1 0x24 DUP3 ADD MSTORE PUSH16 0x14185D5CD8589B194E881C185D5CD959 PUSH1 0x82 SHL PUSH1 0x44 DUP3 ADD MSTORE PUSH1 0x64 ADD PUSH2 0xA62 JUMP JUMPDEST JUMP JUMPDEST PUSH2 0xC1A DUP3 DUP3 PUSH2 0x29E4 JUMP JUMPDEST PUSH1 0x0 PUSH2 0x20C8 DUP5 DUP5 PUSH2 0x1CDB JUMP JUMPDEST SWAP1 POP PUSH1 0x0 NOT DUP2 EQ PUSH2 0x1E9A JUMPI DUP2 DUP2 LT ISZERO PUSH2 0x2123 JUMPI PUSH1 0x40 MLOAD PUSH3 0x461BCD PUSH1 0xE5 SHL DUP2 MSTORE PUSH1 0x20 PUSH1 0x4 DUP3 ADD MSTORE PUSH1 0x1D PUSH1 0x24 DUP3 ADD MSTORE PUSH32 0x45524332303A20696E73756666696369656E7420616C6C6F77616E6365000000 PUSH1 0x44 DUP3 ADD MSTORE PUSH1 0x64 ADD PUSH2 0xA62 JUMP JUMPDEST PUSH2 0x1E9A DUP5 DUP5 DUP5 DUP5 SUB PUSH2 0x1F3C JUMP JUMPDEST PUSH1 0x1 PUSH1 0x1 PUSH1 0xA0 SHL SUB DUP4 AND PUSH2 0x2194 JUMPI PUSH1 0x40 MLOAD PUSH3 0x461BCD PUSH1 0xE5 SHL DUP2 MSTORE PUSH1 0x20 PUSH1 0x4 DUP3 ADD MSTORE PUSH1 0x25 PUSH1 0x24 DUP3 ADD MSTORE PUSH32 0x45524332303A207472616E736665722066726F6D20746865207A65726F206164 PUSH1 0x44 DUP3 ADD MSTORE PUSH5 0x6472657373 PUSH1 0xD8 SHL PUSH1 0x64 DUP3 ADD MSTORE PUSH1 0x84 ADD PUSH2 0xA62 JUMP JUMPDEST PUSH1 0x1 PUSH1 0x1 PUSH1 0xA0 SHL SUB DUP3 AND PUSH2 0x21F6 JUMPI PUSH1 0x40 MLOAD PUSH3 0x461BCD PUSH1 0xE5 SHL DUP2 MSTORE PUSH1 0x20 PUSH1 0x4 DUP3 ADD MSTORE PUSH1 0x23 PUSH1 0x24 DUP3 ADD MSTORE PUSH32 0x45524332303A207472616E7366657220746F20746865207A65726F2061646472 PUSH1 0x44 DUP3 ADD MSTORE PUSH3 0x657373 PUSH1 0xE8 SHL PUSH1 0x64 DUP3 ADD MSTORE PUSH1 0x84 ADD PUSH2 0xA62 JUMP JUMPDEST PUSH2 0x2201 DUP4 DUP4 DUP4 PUSH2 0x29FC JUMP JUMPDEST PUSH1 0x1 PUSH1 0x1 PUSH1 0xA0 SHL SUB DUP4 AND PUSH1 0x0 SWAP1 DUP2 MSTORE PUSH1 0x20 DUP2 SWAP1 MSTORE PUSH1 0x40 SWAP1 KECCAK256 SLOAD DUP2 DUP2 LT ISZERO PUSH2 0x2279 JUMPI PUSH1 0x40 MLOAD PUSH3 0x461BCD PUSH1 0xE5 SHL DUP2 MSTORE PUSH1 0x20 PUSH1 0x4 DUP3 ADD MSTORE PUSH1 0x26 PUSH1 0x24 DUP3 ADD MSTORE PUSH32 0x45524332303A207472616E7366657220616D6F756E7420657863656564732062 PUSH1 0x44 DUP3 ADD MSTORE PUSH6 0x616C616E6365 PUSH1 0xD0 SHL PUSH1 0x64 DUP3 ADD MSTORE PUSH1 0x84 ADD PUSH2 0xA62 JUMP JUMPDEST PUSH1 0x1 PUSH1 0x1 PUSH1 0xA0 SHL SUB DUP5 DUP2 AND PUSH1 0x0 DUP2 DUP2 MSTORE PUSH1 0x20 DUP2 DUP2 MSTORE PUSH1 0x40 DUP1 DUP4 KECCAK256 DUP8 DUP8 SUB SWAP1 SSTORE SWAP4 DUP8 AND DUP1 DUP4 MSTORE SWAP2 DUP5 SWAP1 KECCAK256 DUP1 SLOAD DUP8 ADD SWAP1 SSTORE SWAP3 MLOAD DUP6 DUP2 MSTORE SWAP1 SWAP3 PUSH32 0xDDF252AD1BE2C89B69C2B068FC378DAA952BA7F163C4A11628F55A4DF523B3EF SWAP2 ADD PUSH1 0x40 MLOAD DUP1 SWAP2 SUB SWAP1 LOG3 PUSH2 0x1E9A DUP5 DUP5 DUP5 PUSH2 0x2A04 JUMP JUMPDEST PUSH2 0x22EF DUP3 DUP3 PUSH2 0xEFE JUMP JUMPDEST PUSH2 0xC1A JUMPI PUSH1 0x0 DUP3 DUP2 MSTORE PUSH1 0xC PUSH1 0x20 SWAP1 DUP2 MSTORE PUSH1 0x40 DUP1 DUP4 KECCAK256 PUSH1 0x1 PUSH1 0x1 PUSH1 0xA0 SHL SUB DUP6 AND DUP5 MSTORE SWAP1 SWAP2 MSTORE SWAP1 KECCAK256 DUP1 SLOAD PUSH1 0xFF NOT AND PUSH1 0x1 OR SWAP1 SSTORE PUSH2 0x2327 CALLER SWAP1 JUMP JUMPDEST PUSH1 0x1 PUSH1 0x1 PUSH1 0xA0 SHL SUB AND DUP2 PUSH1 0x1 PUSH1 0x1 PUSH1 0xA0 SHL SUB AND DUP4 PUSH32 0x2F8788117E7EFF1D82E926EC794901D17C78024A50270940304540A733656F0D PUSH1 0x40 MLOAD PUSH1 0x40 MLOAD DUP1 SWAP2 SUB SWAP1 LOG4 POP POP JUMP JUMPDEST PUSH1 0x0 ADDRESS PUSH1 0x1 PUSH1 0x1 PUSH1 0xA0 SHL SUB PUSH32 0x0 AND EQ DUP1 ISZERO PUSH2 0x23C4 JUMPI POP PUSH32 0x0 CHAINID EQ JUMPDEST ISZERO PUSH2 0x23EE JUMPI POP PUSH32 0x0 SWAP1 JUMP JUMPDEST PUSH2 0xB9B PUSH1 0x40 DUP1 MLOAD PUSH32 0x8B73C3C69BB8FE3D512ECC4CF759CC79239F7B179B0FFACAA9A75D522B39400F PUSH1 0x20 DUP3 ADD MSTORE PUSH32 0x0 SWAP2 DUP2 ADD SWAP2 SWAP1 SWAP2 MSTORE PUSH32 0x0 PUSH1 0x60 DUP3 ADD MSTORE CHAINID PUSH1 0x80 DUP3 ADD MSTORE ADDRESS PUSH1 0xA0 DUP3 ADD MSTORE PUSH1 0x0 SWAP1 PUSH1 0xC0 ADD PUSH1 0x40 MLOAD PUSH1 0x20 DUP2 DUP4 SUB SUB DUP2 MSTORE SWAP1 PUSH1 0x40 MSTORE DUP1 MLOAD SWAP1 PUSH1 0x20 ADD KECCAK256 SWAP1 POP SWAP1 JUMP JUMPDEST PUSH2 0x24A0 DUP3 DUP3 PUSH2 0xEFE JUMP JUMPDEST ISZERO PUSH2 0xC1A JUMPI PUSH1 0x0 DUP3 DUP2 MSTORE PUSH1 0xC PUSH1 0x20 SWAP1 DUP2 MSTORE PUSH1 0x40 DUP1 DUP4 KECCAK256 PUSH1 0x1 PUSH1 0x1 PUSH1 0xA0 SHL SUB DUP6 AND DUP1 DUP6 MSTORE SWAP3 MSTORE DUP1 DUP4 KECCAK256 DUP1 SLOAD PUSH1 0xFF NOT AND SWAP1 SSTORE MLOAD CALLER SWAP3 DUP6 SWAP2 PUSH32 0xF6391F5C32D9C69D2A47EA670B442974B53935D1EDC7FD64EB21E047A839171B SWAP2 SWAP1 LOG4 POP POP JUMP JUMPDEST DUP2 SLOAD PUSH1 0x0 SWAP1 DUP2 DUP2 PUSH1 0x5 DUP2 GT ISZERO PUSH2 0x2557 JUMPI PUSH1 0x0 PUSH2 0x2518 DUP5 PUSH2 0x2A0F JUMP JUMPDEST PUSH2 0x2522 SWAP1 DUP6 PUSH2 0x3E44 JUMP JUMPDEST PUSH1 0x0 DUP9 DUP2 MSTORE PUSH1 0x20 SWAP1 KECCAK256 SWAP1 SWAP2 POP DUP7 SWAP1 DUP3 ADD SLOAD PUSH4 0xFFFFFFFF AND GT ISZERO PUSH2 0x2547 JUMPI DUP1 SWAP2 POP PUSH2 0x2555 JUMP JUMPDEST PUSH2 0x2552 DUP2 PUSH1 0x1 PUSH2 0x3E05 JUMP JUMPDEST SWAP3 POP JUMPDEST POP JUMPDEST DUP1 DUP3 LT ISZERO PUSH2 0x25A4 JUMPI PUSH1 0x0 PUSH2 0x256B DUP4 DUP4 PUSH2 0x2AF7 JUMP JUMPDEST PUSH1 0x0 DUP9 DUP2 MSTORE PUSH1 0x20 SWAP1 KECCAK256 SWAP1 SWAP2 POP DUP7 SWAP1 DUP3 ADD SLOAD PUSH4 0xFFFFFFFF AND GT ISZERO PUSH2 0x2590 JUMPI DUP1 SWAP2 POP PUSH2 0x259E JUMP JUMPDEST PUSH2 0x259B DUP2 PUSH1 0x1 PUSH2 0x3E05 JUMP JUMPDEST SWAP3 POP JUMPDEST POP PUSH2 0x2557 JUMP JUMPDEST DUP1 ISZERO PUSH2 0x25D0 JUMPI PUSH1 0x0 DUP7 DUP2 MSTORE PUSH1 0x20 SWAP1 KECCAK256 DUP2 ADD PUSH1 0x0 NOT ADD SLOAD PUSH5 0x100000000 SWAP1 DIV PUSH1 0x1 PUSH1 0x1 PUSH1 0xE0 SHL SUB AND PUSH2 0x25D3 JUMP JUMPDEST PUSH1 0x0 JUMPDEST PUSH1 0x1 PUSH1 0x1 PUSH1 0xE0 SHL SUB AND SWAP7 SWAP6 POP POP POP POP POP POP JUMP JUMPDEST PUSH2 0x25EE PUSH2 0x2B12 JUMP JUMPDEST PUSH1 0xD DUP1 SLOAD PUSH1 0xFF NOT AND SWAP1 SSTORE PUSH32 0x5DB9EE0A495BF2E6FF9C91A7834C1BA4FDD244A5E8AA4E537BD38AEAE4B073AA CALLER JUMPDEST PUSH1 0x40 MLOAD PUSH1 0x1 PUSH1 0x1 PUSH1 0xA0 SHL SUB SWAP1 SWAP2 AND DUP2 MSTORE PUSH1 0x20 ADD PUSH1 0x40 MLOAD DUP1 SWAP2 SUB SWAP1 LOG1 JUMP JUMPDEST PUSH1 0x1 PUSH1 0x1 PUSH1 0xA0 SHL SUB DUP3 DUP2 AND PUSH1 0x0 DUP2 DUP2 MSTORE PUSH1 0x9 PUSH1 0x20 DUP2 DUP2 MSTORE PUSH1 0x40 DUP1 DUP5 KECCAK256 DUP1 SLOAD DUP6 DUP5 MSTORE DUP3 DUP7 KECCAK256 SLOAD SWAP5 SWAP1 SWAP4 MSTORE DUP8 DUP8 AND PUSH1 0x1 PUSH1 0x1 PUSH1 0xA0 SHL SUB NOT DUP5 AND DUP2 OR SWAP1 SWAP2 SSTORE SWAP1 MLOAD SWAP2 SWAP1 SWAP6 AND SWAP5 SWAP2 SWAP4 SWAP2 SWAP3 DUP6 SWAP3 SWAP2 PUSH32 0x3134E8A2E6D97E929A7E54011EA5485D7D196DD5F0BA4D4EF95803E8E3FC257F SWAP2 SWAP1 LOG4 PUSH2 0x1E9A DUP3 DUP5 DUP4 PUSH2 0x2B5B JUMP JUMPDEST PUSH1 0x0 PUSH4 0xFFFFFFFF DUP3 GT ISZERO PUSH2 0x2716 JUMPI PUSH1 0x40 MLOAD PUSH3 0x461BCD PUSH1 0xE5 SHL DUP2 MSTORE PUSH1 0x20 PUSH1 0x4 DUP3 ADD MSTORE PUSH1 0x26 PUSH1 0x24 DUP3 ADD MSTORE PUSH32 0x53616665436173743A2076616C756520646F65736E27742066697420696E2033 PUSH1 0x44 DUP3 ADD MSTORE PUSH6 0x322062697473 PUSH1 0xD0 SHL PUSH1 0x64 DUP3 ADD MSTORE PUSH1 0x84 ADD PUSH2 0xA62 JUMP JUMPDEST POP SWAP1 JUMP JUMPDEST PUSH2 0x2722 PUSH2 0x206A JUMP JUMPDEST PUSH1 0xD DUP1 SLOAD PUSH1 0xFF NOT AND PUSH1 0x1 OR SWAP1 SSTORE PUSH32 0x62E78CEA01BEE320CD4E420270B5EA74000D11B0C9F74754EBDBFC544B05A258 PUSH2 0x261B CALLER SWAP1 JUMP JUMPDEST PUSH1 0x60 PUSH1 0xFF DUP4 EQ PUSH2 0x2771 JUMPI PUSH2 0x276A DUP4 PUSH2 0x2C98 JUMP JUMPDEST SWAP1 POP PUSH2 0x935 JUMP JUMPDEST DUP2 DUP1 SLOAD PUSH2 0x277D SWAP1 PUSH2 0x3D7D JUMP JUMPDEST DUP1 PUSH1 0x1F ADD PUSH1 0x20 DUP1 SWAP2 DIV MUL PUSH1 0x20 ADD PUSH1 0x40 MLOAD SWAP1 DUP2 ADD PUSH1 0x40 MSTORE DUP1 SWAP3 SWAP2 SWAP1 DUP2 DUP2 MSTORE PUSH1 0x20 ADD DUP3 DUP1 SLOAD PUSH2 0x27A9 SWAP1 PUSH2 0x3D7D JUMP JUMPDEST DUP1 ISZERO PUSH2 0x27F6 JUMPI DUP1 PUSH1 0x1F LT PUSH2 0x27CB JUMPI PUSH2 0x100 DUP1 DUP4 SLOAD DIV MUL DUP4 MSTORE SWAP2 PUSH1 0x20 ADD SWAP2 PUSH2 0x27F6 JUMP JUMPDEST DUP3 ADD SWAP2 SWAP1 PUSH1 0x0 MSTORE PUSH1 0x20 PUSH1 0x0 KECCAK256 SWAP1 JUMPDEST DUP2 SLOAD DUP2 MSTORE SWAP1 PUSH1 0x1 ADD SWAP1 PUSH1 0x20 ADD DUP1 DUP4 GT PUSH2 0x27D9 JUMPI DUP3 SWAP1 SUB PUSH1 0x1F AND DUP3 ADD SWAP2 JUMPDEST POP POP POP POP POP SWAP1 POP PUSH2 0x935 JUMP JUMPDEST PUSH1 0x0 PUSH6 0xFFFFFFFFFFFF DUP3 GT ISZERO PUSH2 0x2716 JUMPI PUSH1 0x40 MLOAD PUSH3 0x461BCD PUSH1 0xE5 SHL DUP2 MSTORE PUSH1 0x20 PUSH1 0x4 DUP3 ADD MSTORE PUSH1 0x26 PUSH1 0x24 DUP3 ADD MSTORE PUSH32 0x53616665436173743A2076616C756520646F65736E27742066697420696E2034 PUSH1 0x44 DUP3 ADD MSTORE PUSH6 0x382062697473 PUSH1 0xD0 SHL PUSH1 0x64 DUP3 ADD MSTORE PUSH1 0x84 ADD PUSH2 0xA62 JUMP JUMPDEST PUSH1 0x40 MLOAD PUSH1 0x1 PUSH1 0x1 PUSH1 0xA0 SHL SUB DUP1 DUP6 AND PUSH1 0x24 DUP4 ADD MSTORE DUP4 AND PUSH1 0x44 DUP3 ADD MSTORE PUSH1 0x64 DUP2 ADD DUP3 SWAP1 MSTORE PUSH2 0x1E9A SWAP1 DUP6 SWAP1 PUSH4 0x23B872DD PUSH1 0xE0 SHL SWAP1 PUSH1 0x84 ADD JUMPDEST PUSH1 0x40 DUP1 MLOAD PUSH1 0x1F NOT DUP2 DUP5 SUB ADD DUP2 MSTORE SWAP2 SWAP1 MSTORE PUSH1 0x20 DUP2 ADD DUP1 MLOAD PUSH1 0x1 PUSH1 0x1 PUSH1 0xE0 SHL SUB AND PUSH1 0x1 PUSH1 0x1 PUSH1 0xE0 SHL SUB NOT SWAP1 SWAP4 AND SWAP3 SWAP1 SWAP3 OR SWAP1 SWAP2 MSTORE PUSH2 0x2CD7 JUMP JUMPDEST PUSH1 0x40 MLOAD PUSH1 0x1 PUSH1 0x1 PUSH1 0xA0 SHL SUB DUP4 AND PUSH1 0x24 DUP3 ADD MSTORE PUSH1 0x44 DUP2 ADD DUP3 SWAP1 MSTORE PUSH2 0xB8C SWAP1 DUP5 SWAP1 PUSH4 0xA9059CBB PUSH1 0xE0 SHL SWAP1 PUSH1 0x64 ADD PUSH2 0x289D JUMP JUMPDEST PUSH1 0x0 PUSH2 0x935 PUSH2 0x2911 PUSH2 0x236B JUMP JUMPDEST DUP4 PUSH1 0x40 MLOAD PUSH2 0x1901 PUSH1 0xF0 SHL DUP2 MSTORE PUSH1 0x2 DUP2 ADD SWAP3 SWAP1 SWAP3 MSTORE PUSH1 0x22 DUP3 ADD MSTORE PUSH1 0x42 SWAP1 KECCAK256 SWAP1 JUMP JUMPDEST PUSH1 0x0 DUP1 PUSH1 0x0 PUSH2 0x2942 DUP8 DUP8 DUP8 DUP8 PUSH2 0x2DAC JUMP JUMPDEST SWAP2 POP SWAP2 POP PUSH2 0x294F DUP2 PUSH2 0x2E70 JUMP JUMPDEST POP SWAP1 POP JUMPDEST SWAP5 SWAP4 POP POP POP POP JUMP JUMPDEST PUSH1 0x1 PUSH1 0x1 PUSH1 0xA0 SHL SUB DUP2 AND PUSH1 0x0 SWAP1 DUP2 MSTORE PUSH1 0x7 PUSH1 0x20 MSTORE PUSH1 0x40 SWAP1 KECCAK256 DUP1 SLOAD PUSH1 0x1 DUP2 ADD DUP3 SSTORE SWAP1 PUSH2 0x16E1 JUMP JUMPDEST PUSH2 0xC1A DUP3 DUP3 PUSH2 0x2FBA JUMP JUMPDEST PUSH2 0x2995 DUP3 DUP3 PUSH2 0xEFE JUMP JUMPDEST PUSH2 0xC1A JUMPI PUSH2 0x29A2 DUP2 PUSH2 0x3044 JUMP JUMPDEST PUSH2 0x29AD DUP4 PUSH1 0x20 PUSH2 0x3056 JUMP JUMPDEST PUSH1 0x40 MLOAD PUSH1 0x20 ADD PUSH2 0x29BE SWAP3 SWAP2 SWAP1 PUSH2 0x3EA6 JUMP JUMPDEST PUSH1 0x40 DUP1 MLOAD PUSH1 0x1F NOT DUP2 DUP5 SUB ADD DUP2 MSTORE SWAP1 DUP3 SWAP1 MSTORE PUSH3 0x461BCD PUSH1 0xE5 SHL DUP3 MSTORE PUSH2 0xA62 SWAP2 PUSH1 0x4 ADD PUSH2 0x38EE JUMP JUMPDEST PUSH2 0x29EE DUP3 DUP3 PUSH2 0x31F2 JUMP JUMPDEST PUSH2 0x1E9A PUSH1 0xB PUSH2 0x1F30 DUP4 PUSH2 0x3337 JUMP JUMPDEST PUSH2 0xB8C PUSH2 0x206A JUMP JUMPDEST PUSH2 0xB8C DUP4 DUP4 DUP4 PUSH2 0x34AC JUMP JUMPDEST PUSH1 0x0 DUP2 PUSH1 0x0 SUB PUSH2 0x2A21 JUMPI POP PUSH1 0x0 SWAP2 SWAP1 POP JUMP JUMPDEST PUSH1 0x0 PUSH1 0x1 PUSH2 0x2A2E DUP5 PUSH2 0x34DE JUMP JUMPDEST SWAP1 SHR PUSH1 0x1 SWAP1 SHL SWAP1 POP PUSH1 0x1 DUP2 DUP5 DUP2 PUSH2 0x2A47 JUMPI PUSH2 0x2A47 PUSH2 0x3E6E JUMP JUMPDEST DIV DUP3 ADD SWAP1 SHR SWAP1 POP PUSH1 0x1 DUP2 DUP5 DUP2 PUSH2 0x2A5F JUMPI PUSH2 0x2A5F PUSH2 0x3E6E JUMP JUMPDEST DIV DUP3 ADD SWAP1 SHR SWAP1 POP PUSH1 0x1 DUP2 DUP5 DUP2 PUSH2 0x2A77 JUMPI PUSH2 0x2A77 PUSH2 0x3E6E JUMP JUMPDEST DIV DUP3 ADD SWAP1 SHR SWAP1 POP PUSH1 0x1 DUP2 DUP5 DUP2 PUSH2 0x2A8F JUMPI PUSH2 0x2A8F PUSH2 0x3E6E JUMP JUMPDEST DIV DUP3 ADD SWAP1 SHR SWAP1 POP PUSH1 0x1 DUP2 DUP5 DUP2 PUSH2 0x2AA7 JUMPI PUSH2 0x2AA7 PUSH2 0x3E6E JUMP JUMPDEST DIV DUP3 ADD SWAP1 SHR SWAP1 POP PUSH1 0x1 DUP2 DUP5 DUP2 PUSH2 0x2ABF JUMPI PUSH2 0x2ABF PUSH2 0x3E6E JUMP JUMPDEST DIV DUP3 ADD SWAP1 SHR SWAP1 POP PUSH1 0x1 DUP2 DUP5 DUP2 PUSH2 0x2AD7 JUMPI PUSH2 0x2AD7 PUSH2 0x3E6E JUMP JUMPDEST DIV DUP3 ADD SWAP1 SHR SWAP1 POP PUSH2 0xCBE DUP2 DUP3 DUP6 DUP2 PUSH2 0x2AF1 JUMPI PUSH2 0x2AF1 PUSH2 0x3E6E JUMP JUMPDEST DIV PUSH2 0x3572 JUMP JUMPDEST PUSH1 0x0 PUSH2 0x2B06 PUSH1 0x2 DUP5 DUP5 XOR PUSH2 0x3E84 JUMP JUMPDEST PUSH2 0xCBE SWAP1 DUP5 DUP5 AND PUSH2 0x3E05 JUMP JUMPDEST PUSH1 0xD SLOAD PUSH1 0xFF AND PUSH2 0x20B0 JUMPI PUSH1 0x40 MLOAD PUSH3 0x461BCD PUSH1 0xE5 SHL DUP2 MSTORE PUSH1 0x20 PUSH1 0x4 DUP3 ADD MSTORE PUSH1 0x14 PUSH1 0x24 DUP3 ADD MSTORE PUSH20 0x14185D5CD8589B194E881B9BDD081C185D5CD959 PUSH1 0x62 SHL PUSH1 0x44 DUP3 ADD MSTORE PUSH1 0x64 ADD PUSH2 0xA62 JUMP JUMPDEST DUP2 PUSH1 0x1 PUSH1 0x1 PUSH1 0xA0 SHL SUB AND DUP4 PUSH1 0x1 PUSH1 0x1 PUSH1 0xA0 SHL SUB AND EQ ISZERO DUP1 ISZERO PUSH2 0x2B7D JUMPI POP PUSH1 0x0 DUP2 GT JUMPDEST ISZERO PUSH2 0xB8C JUMPI PUSH1 0x1 PUSH1 0x1 PUSH1 0xA0 SHL SUB DUP4 AND ISZERO PUSH2 0x2C0B JUMPI PUSH1 0x1 PUSH1 0x1 PUSH1 0xA0 SHL SUB DUP4 AND PUSH1 0x0 SWAP1 DUP2 MSTORE PUSH1 0xA PUSH1 0x20 MSTORE PUSH1 0x40 DUP2 KECCAK256 DUP2 SWAP1 PUSH2 0x2BB8 SWAP1 PUSH2 0x1F30 DUP6 PUSH2 0x3337 JUMP JUMPDEST SWAP2 POP SWAP2 POP DUP5 PUSH1 0x1 PUSH1 0x1 PUSH1 0xA0 SHL SUB AND PUSH32 0xDEC2BACDD2F05B59DE34DA9B523DFF8BE42E5E38E818C82FDB0BAE774387A724 DUP4 DUP4 PUSH1 0x40 MLOAD PUSH2 0x2C00 SWAP3 SWAP2 SWAP1 SWAP2 DUP3 MSTORE PUSH1 0x20 DUP3 ADD MSTORE PUSH1 0x40 ADD SWAP1 JUMP JUMPDEST PUSH1 0x40 MLOAD DUP1 SWAP2 SUB SWAP1 LOG2 POP POP JUMPDEST PUSH1 0x1 PUSH1 0x1 PUSH1 0xA0 SHL SUB DUP3 AND ISZERO PUSH2 0xB8C JUMPI PUSH1 0x1 PUSH1 0x1 PUSH1 0xA0 SHL SUB DUP3 AND PUSH1 0x0 SWAP1 DUP2 MSTORE PUSH1 0xA PUSH1 0x20 MSTORE PUSH1 0x40 DUP2 KECCAK256 DUP2 SWAP1 PUSH2 0x2C41 SWAP1 PUSH2 0x1F24 DUP6 PUSH2 0x3337 JUMP JUMPDEST SWAP2 POP SWAP2 POP DUP4 PUSH1 0x1 PUSH1 0x1 PUSH1 0xA0 SHL SUB AND PUSH32 0xDEC2BACDD2F05B59DE34DA9B523DFF8BE42E5E38E818C82FDB0BAE774387A724 DUP4 DUP4 PUSH1 0x40 MLOAD PUSH2 0x2C89 SWAP3 SWAP2 SWAP1 SWAP2 DUP3 MSTORE PUSH1 0x20 DUP3 ADD MSTORE PUSH1 0x40 ADD SWAP1 JUMP JUMPDEST PUSH1 0x40 MLOAD DUP1 SWAP2 SUB SWAP1 LOG2 POP POP POP POP POP JUMP JUMPDEST PUSH1 0x60 PUSH1 0x0 PUSH2 0x2CA5 DUP4 PUSH2 0x3588 JUMP JUMPDEST PUSH1 0x40 DUP1 MLOAD PUSH1 0x20 DUP1 DUP3 MSTORE DUP2 DUP4 ADD SWAP1 SWAP3 MSTORE SWAP2 SWAP3 POP PUSH1 0x0 SWAP2 SWAP1 PUSH1 0x20 DUP3 ADD DUP2 DUP1 CALLDATASIZE DUP4 CALLDATACOPY POP POP POP SWAP2 DUP3 MSTORE POP PUSH1 0x20 DUP2 ADD SWAP3 SWAP1 SWAP3 MSTORE POP SWAP1 JUMP JUMPDEST PUSH1 0x0 PUSH2 0x2D2C DUP3 PUSH1 0x40 MLOAD DUP1 PUSH1 0x40 ADD PUSH1 0x40 MSTORE DUP1 PUSH1 0x20 DUP2 MSTORE PUSH1 0x20 ADD PUSH32 0x5361666545524332303A206C6F772D6C6576656C2063616C6C206661696C6564 DUP2 MSTORE POP DUP6 PUSH1 0x1 PUSH1 0x1 PUSH1 0xA0 SHL SUB AND PUSH2 0x35B0 SWAP1 SWAP3 SWAP2 SWAP1 PUSH4 0xFFFFFFFF AND JUMP JUMPDEST SWAP1 POP DUP1 MLOAD PUSH1 0x0 EQ DUP1 PUSH2 0x2D4D JUMPI POP DUP1 DUP1 PUSH1 0x20 ADD SWAP1 MLOAD DUP2 ADD SWAP1 PUSH2 0x2D4D SWAP2 SWAP1 PUSH2 0x3F1B JUMP JUMPDEST PUSH2 0xB8C JUMPI PUSH1 0x40 MLOAD PUSH3 0x461BCD PUSH1 0xE5 SHL DUP2 MSTORE PUSH1 0x20 PUSH1 0x4 DUP3 ADD MSTORE PUSH1 0x2A PUSH1 0x24 DUP3 ADD MSTORE PUSH32 0x5361666545524332303A204552433230206F7065726174696F6E20646964206E PUSH1 0x44 DUP3 ADD MSTORE PUSH10 0x1BDD081CDD58D8D95959 PUSH1 0xB2 SHL PUSH1 0x64 DUP3 ADD MSTORE PUSH1 0x84 ADD PUSH2 0xA62 JUMP JUMPDEST PUSH1 0x0 DUP1 PUSH32 0x7FFFFFFFFFFFFFFFFFFFFFFFFFFFFFFF5D576E7357A4501DDFE92F46681B20A0 DUP4 GT ISZERO PUSH2 0x2DE3 JUMPI POP PUSH1 0x0 SWAP1 POP PUSH1 0x3 PUSH2 0x2E67 JUMP JUMPDEST PUSH1 0x40 DUP1 MLOAD PUSH1 0x0 DUP1 DUP3 MSTORE PUSH1 0x20 DUP3 ADD DUP1 DUP5 MSTORE DUP10 SWAP1 MSTORE PUSH1 0xFF DUP9 AND SWAP3 DUP3 ADD SWAP3 SWAP1 SWAP3 MSTORE PUSH1 0x60 DUP2 ADD DUP7 SWAP1 MSTORE PUSH1 0x80 DUP2 ADD DUP6 SWAP1 MSTORE PUSH1 0x1 SWAP1 PUSH1 0xA0 ADD PUSH1 0x20 PUSH1 0x40 MLOAD PUSH1 0x20 DUP2 SUB SWAP1 DUP1 DUP5 SUB SWAP1 DUP6 GAS STATICCALL ISZERO DUP1 ISZERO PUSH2 0x2E37 JUMPI RETURNDATASIZE PUSH1 0x0 DUP1 RETURNDATACOPY RETURNDATASIZE PUSH1 0x0 REVERT JUMPDEST POP POP PUSH1 0x40 MLOAD PUSH1 0x1F NOT ADD MLOAD SWAP2 POP POP PUSH1 0x1 PUSH1 0x1 PUSH1 0xA0 SHL SUB DUP2 AND PUSH2 0x2E60 JUMPI PUSH1 0x0 PUSH1 0x1 SWAP3 POP SWAP3 POP POP PUSH2 0x2E67 JUMP JUMPDEST SWAP2 POP PUSH1 0x0 SWAP1 POP JUMPDEST SWAP5 POP SWAP5 SWAP3 POP POP POP JUMP JUMPDEST PUSH1 0x0 DUP2 PUSH1 0x4 DUP2 GT ISZERO PUSH2 0x2E84 JUMPI PUSH2 0x2E84 PUSH2 0x3E18 JUMP JUMPDEST SUB PUSH2 0x2E8C JUMPI POP JUMP JUMPDEST PUSH1 0x1 DUP2 PUSH1 0x4 DUP2 GT ISZERO PUSH2 0x2EA0 JUMPI PUSH2 0x2EA0 PUSH2 0x3E18 JUMP JUMPDEST SUB PUSH2 0x2EED JUMPI PUSH1 0x40 MLOAD PUSH3 0x461BCD PUSH1 0xE5 SHL DUP2 MSTORE PUSH1 0x20 PUSH1 0x4 DUP3 ADD MSTORE PUSH1 0x18 PUSH1 0x24 DUP3 ADD MSTORE PUSH32 0x45434453413A20696E76616C6964207369676E61747572650000000000000000 PUSH1 0x44 DUP3 ADD MSTORE PUSH1 0x64 ADD PUSH2 0xA62 JUMP JUMPDEST PUSH1 0x2 DUP2 PUSH1 0x4 DUP2 GT ISZERO PUSH2 0x2F01 JUMPI PUSH2 0x2F01 PUSH2 0x3E18 JUMP JUMPDEST SUB PUSH2 0x2F4E JUMPI PUSH1 0x40 MLOAD PUSH3 0x461BCD PUSH1 0xE5 SHL DUP2 MSTORE PUSH1 0x20 PUSH1 0x4 DUP3 ADD MSTORE PUSH1 0x1F PUSH1 0x24 DUP3 ADD MSTORE PUSH32 0x45434453413A20696E76616C6964207369676E6174757265206C656E67746800 PUSH1 0x44 DUP3 ADD MSTORE PUSH1 0x64 ADD PUSH2 0xA62 JUMP JUMPDEST PUSH1 0x3 DUP2 PUSH1 0x4 DUP2 GT ISZERO PUSH2 0x2F62 JUMPI PUSH2 0x2F62 PUSH2 0x3E18 JUMP JUMPDEST SUB PUSH2 0xCF7 JUMPI PUSH1 0x40 MLOAD PUSH3 0x461BCD PUSH1 0xE5 SHL DUP2 MSTORE PUSH1 0x20 PUSH1 0x4 DUP3 ADD MSTORE PUSH1 0x22 PUSH1 0x24 DUP3 ADD MSTORE PUSH32 0x45434453413A20696E76616C6964207369676E6174757265202773272076616C PUSH1 0x44 DUP3 ADD MSTORE PUSH2 0x7565 PUSH1 0xF0 SHL PUSH1 0x64 DUP3 ADD MSTORE PUSH1 0x84 ADD PUSH2 0xA62 JUMP JUMPDEST PUSH2 0x2FC4 DUP3 DUP3 PUSH2 0x35BF JUMP JUMPDEST PUSH1 0x2 SLOAD PUSH1 0x1 PUSH1 0x1 PUSH1 0xE0 SHL SUB LT ISZERO PUSH2 0x3036 JUMPI PUSH1 0x40 MLOAD PUSH3 0x461BCD PUSH1 0xE5 SHL DUP2 MSTORE PUSH1 0x20 PUSH1 0x4 DUP3 ADD MSTORE PUSH1 0x30 PUSH1 0x24 DUP3 ADD MSTORE PUSH32 0x4552433230566F7465733A20746F74616C20737570706C79207269736B73206F PUSH1 0x44 DUP3 ADD MSTORE PUSH16 0x766572666C6F77696E6720766F746573 PUSH1 0x80 SHL PUSH1 0x64 DUP3 ADD MSTORE PUSH1 0x84 ADD PUSH2 0xA62 JUMP JUMPDEST PUSH2 0x1E9A PUSH1 0xB PUSH2 0x1F24 DUP4 PUSH2 0x3337 JUMP JUMPDEST PUSH1 0x60 PUSH2 0x935 PUSH1 0x1 PUSH1 0x1 PUSH1 0xA0 SHL SUB DUP4 AND PUSH1 0x14 JUMPDEST PUSH1 0x60 PUSH1 0x0 PUSH2 0x3065 DUP4 PUSH1 0x2 PUSH2 0x3E57 JUMP JUMPDEST PUSH2 0x3070 SWAP1 PUSH1 0x2 PUSH2 0x3E05 JUMP JUMPDEST PUSH8 0xFFFFFFFFFFFFFFFF DUP2 GT ISZERO PUSH2 0x3088 JUMPI PUSH2 0x3088 PUSH2 0x3947 JUMP JUMPDEST PUSH1 0x40 MLOAD SWAP1 DUP1 DUP3 MSTORE DUP1 PUSH1 0x1F ADD PUSH1 0x1F NOT AND PUSH1 0x20 ADD DUP3 ADD PUSH1 0x40 MSTORE DUP1 ISZERO PUSH2 0x30B2 JUMPI PUSH1 0x20 DUP3 ADD DUP2 DUP1 CALLDATASIZE DUP4 CALLDATACOPY ADD SWAP1 POP JUMPDEST POP SWAP1 POP PUSH1 0x3 PUSH1 0xFC SHL DUP2 PUSH1 0x0 DUP2 MLOAD DUP2 LT PUSH2 0x30CD JUMPI PUSH2 0x30CD PUSH2 0x3E2E JUMP JUMPDEST PUSH1 0x20 ADD ADD SWAP1 PUSH1 0x1 PUSH1 0x1 PUSH1 0xF8 SHL SUB NOT AND SWAP1 DUP2 PUSH1 0x0 BYTE SWAP1 MSTORE8 POP PUSH1 0xF PUSH1 0xFB SHL DUP2 PUSH1 0x1 DUP2 MLOAD DUP2 LT PUSH2 0x30FC JUMPI PUSH2 0x30FC PUSH2 0x3E2E JUMP JUMPDEST PUSH1 0x20 ADD ADD SWAP1 PUSH1 0x1 PUSH1 0x1 PUSH1 0xF8 SHL SUB NOT AND SWAP1 DUP2 PUSH1 0x0 BYTE SWAP1 MSTORE8 POP PUSH1 0x0 PUSH2 0x3120 DUP5 PUSH1 0x2 PUSH2 0x3E57 JUMP JUMPDEST PUSH2 0x312B SWAP1 PUSH1 0x1 PUSH2 0x3E05 JUMP JUMPDEST SWAP1 POP JUMPDEST PUSH1 0x1 DUP2 GT ISZERO PUSH2 0x31A3 JUMPI PUSH16 0x181899199A1A9B1B9C1CB0B131B232B3 PUSH1 0x81 SHL DUP6 PUSH1 0xF AND PUSH1 0x10 DUP2 LT PUSH2 0x315F JUMPI PUSH2 0x315F PUSH2 0x3E2E JUMP JUMPDEST BYTE PUSH1 0xF8 SHL DUP3 DUP3 DUP2 MLOAD DUP2 LT PUSH2 0x3175 JUMPI PUSH2 0x3175 PUSH2 0x3E2E JUMP JUMPDEST PUSH1 0x20 ADD ADD SWAP1 PUSH1 0x1 PUSH1 0x1 PUSH1 0xF8 SHL SUB NOT AND SWAP1 DUP2 PUSH1 0x0 BYTE SWAP1 MSTORE8 POP PUSH1 0x4 SWAP5 SWAP1 SWAP5 SHR SWAP4 PUSH2 0x319C DUP2 PUSH2 0x3F3D JUMP JUMPDEST SWAP1 POP PUSH2 0x312E JUMP JUMPDEST POP DUP4 ISZERO PUSH2 0xCBE JUMPI PUSH1 0x40 MLOAD PUSH3 0x461BCD PUSH1 0xE5 SHL DUP2 MSTORE PUSH1 0x20 PUSH1 0x4 DUP3 ADD DUP2 SWAP1 MSTORE PUSH1 0x24 DUP3 ADD MSTORE PUSH32 0x537472696E67733A20686578206C656E67746820696E73756666696369656E74 PUSH1 0x44 DUP3 ADD MSTORE PUSH1 0x64 ADD PUSH2 0xA62 JUMP JUMPDEST PUSH1 0x1 PUSH1 0x1 PUSH1 0xA0 SHL SUB DUP3 AND PUSH2 0x3252 JUMPI PUSH1 0x40 MLOAD PUSH3 0x461BCD PUSH1 0xE5 SHL DUP2 MSTORE PUSH1 0x20 PUSH1 0x4 DUP3 ADD MSTORE PUSH1 0x21 PUSH1 0x24 DUP3 ADD MSTORE PUSH32 0x45524332303A206275726E2066726F6D20746865207A65726F20616464726573 PUSH1 0x44 DUP3 ADD MSTORE PUSH1 0x73 PUSH1 0xF8 SHL PUSH1 0x64 DUP3 ADD MSTORE PUSH1 0x84 ADD PUSH2 0xA62 JUMP JUMPDEST PUSH2 0x325E DUP3 PUSH1 0x0 DUP4 PUSH2 0x29FC JUMP JUMPDEST PUSH1 0x1 PUSH1 0x1 PUSH1 0xA0 SHL SUB DUP3 AND PUSH1 0x0 SWAP1 DUP2 MSTORE PUSH1 0x20 DUP2 SWAP1 MSTORE PUSH1 0x40 SWAP1 KECCAK256 SLOAD DUP2 DUP2 LT ISZERO PUSH2 0x32D2 JUMPI PUSH1 0x40 MLOAD PUSH3 0x461BCD PUSH1 0xE5 SHL DUP2 MSTORE PUSH1 0x20 PUSH1 0x4 DUP3 ADD MSTORE PUSH1 0x22 PUSH1 0x24 DUP3 ADD MSTORE PUSH32 0x45524332303A206275726E20616D6F756E7420657863656564732062616C616E PUSH1 0x44 DUP3 ADD MSTORE PUSH2 0x6365 PUSH1 0xF0 SHL PUSH1 0x64 DUP3 ADD MSTORE PUSH1 0x84 ADD PUSH2 0xA62 JUMP JUMPDEST PUSH1 0x1 PUSH1 0x1 PUSH1 0xA0 SHL SUB DUP4 AND PUSH1 0x0 DUP2 DUP2 MSTORE PUSH1 0x20 DUP2 DUP2 MSTORE PUSH1 0x40 DUP1 DUP4 KECCAK256 DUP7 DUP7 SUB SWAP1 SSTORE PUSH1 0x2 DUP1 SLOAD DUP8 SWAP1 SUB SWAP1 SSTORE MLOAD DUP6 DUP2 MSTORE SWAP2 SWAP3 SWAP2 PUSH32 0xDDF252AD1BE2C89B69C2B068FC378DAA952BA7F163C4A11628F55A4DF523B3EF SWAP2 ADD PUSH1 0x40 MLOAD DUP1 SWAP2 SUB SWAP1 LOG3 PUSH2 0xB8C DUP4 PUSH1 0x0 DUP5 PUSH2 0x2A04 JUMP JUMPDEST DUP3 SLOAD PUSH1 0x0 SWAP1 DUP2 SWAP1 DUP2 DUP2 ISZERO PUSH2 0x3384 JUMPI PUSH1 0x0 DUP8 DUP2 MSTORE PUSH1 0x20 SWAP1 KECCAK256 DUP3 ADD PUSH1 0x0 NOT ADD PUSH1 0x40 DUP1 MLOAD DUP1 DUP3 ADD SWAP1 SWAP2 MSTORE SWAP1 SLOAD PUSH4 0xFFFFFFFF DUP2 AND DUP3 MSTORE PUSH5 0x100000000 SWAP1 DIV PUSH1 0x1 PUSH1 0x1 PUSH1 0xE0 SHL SUB AND PUSH1 0x20 DUP3 ADD MSTORE PUSH2 0x3399 JUMP JUMPDEST PUSH1 0x40 DUP1 MLOAD DUP1 DUP3 ADD SWAP1 SWAP2 MSTORE PUSH1 0x0 DUP1 DUP3 MSTORE PUSH1 0x20 DUP3 ADD MSTORE JUMPDEST SWAP1 POP DUP1 PUSH1 0x20 ADD MLOAD PUSH1 0x1 PUSH1 0x1 PUSH1 0xE0 SHL SUB AND SWAP4 POP PUSH2 0x33B9 DUP5 DUP7 DUP9 PUSH4 0xFFFFFFFF AND JUMP JUMPDEST SWAP3 POP PUSH1 0x0 DUP3 GT DUP1 ISZERO PUSH2 0x33E3 JUMPI POP PUSH2 0x33CE PUSH2 0xF29 JUMP JUMPDEST PUSH6 0xFFFFFFFFFFFF AND DUP2 PUSH1 0x0 ADD MLOAD PUSH4 0xFFFFFFFF AND EQ JUMPDEST ISZERO PUSH2 0x3428 JUMPI PUSH2 0x33F1 DUP4 PUSH2 0x3692 JUMP JUMPDEST PUSH1 0x0 DUP9 DUP2 MSTORE PUSH1 0x20 SWAP1 KECCAK256 DUP4 ADD PUSH1 0x0 NOT ADD DUP1 SLOAD PUSH1 0x1 PUSH1 0x1 PUSH1 0xE0 SHL SUB SWAP3 SWAP1 SWAP3 AND PUSH5 0x100000000 MUL PUSH4 0xFFFFFFFF SWAP1 SWAP3 AND SWAP2 SWAP1 SWAP2 OR SWAP1 SSTORE PUSH2 0x34A2 JUMP JUMPDEST DUP7 PUSH1 0x40 MLOAD DUP1 PUSH1 0x40 ADD PUSH1 0x40 MSTORE DUP1 PUSH2 0x344C PUSH2 0x343F PUSH2 0xF29 JUMP JUMPDEST PUSH6 0xFFFFFFFFFFFF AND PUSH2 0x26B1 JUMP JUMPDEST PUSH4 0xFFFFFFFF AND DUP2 MSTORE PUSH1 0x20 ADD PUSH2 0x3460 DUP7 PUSH2 0x3692 JUMP JUMPDEST PUSH1 0x1 PUSH1 0x1 PUSH1 0xE0 SHL SUB SWAP1 DUP2 AND SWAP1 SWAP2 MSTORE DUP3 SLOAD PUSH1 0x1 DUP2 ADD DUP5 SSTORE PUSH1 0x0 SWAP4 DUP5 MSTORE PUSH1 0x20 SWAP4 DUP5 SWAP1 KECCAK256 DUP4 MLOAD SWAP5 SWAP1 SWAP4 ADD MLOAD SWAP1 SWAP2 AND PUSH5 0x100000000 MUL PUSH4 0xFFFFFFFF SWAP1 SWAP4 AND SWAP3 SWAP1 SWAP3 OR SWAP2 ADD SSTORE JUMPDEST POP POP SWAP4 POP SWAP4 SWAP2 POP POP JUMP JUMPDEST PUSH1 0x1 PUSH1 0x1 PUSH1 0xA0 SHL SUB DUP4 DUP2 AND PUSH1 0x0 SWAP1 DUP2 MSTORE PUSH1 0x9 PUSH1 0x20 MSTORE PUSH1 0x40 DUP1 DUP3 KECCAK256 SLOAD DUP6 DUP5 AND DUP4 MSTORE SWAP2 KECCAK256 SLOAD PUSH2 0xB8C SWAP3 SWAP2 DUP3 AND SWAP2 AND DUP4 PUSH2 0x2B5B JUMP JUMPDEST PUSH1 0x0 DUP1 PUSH1 0x80 DUP4 SWAP1 SHR ISZERO PUSH2 0x34F3 JUMPI PUSH1 0x80 SWAP3 DUP4 SHR SWAP3 ADD JUMPDEST PUSH1 0x40 DUP4 SWAP1 SHR ISZERO PUSH2 0x3505 JUMPI PUSH1 0x40 SWAP3 DUP4 SHR SWAP3 ADD JUMPDEST PUSH1 0x20 DUP4 SWAP1 SHR ISZERO PUSH2 0x3517 JUMPI PUSH1 0x20 SWAP3 DUP4 SHR SWAP3 ADD JUMPDEST PUSH1 0x10 DUP4 SWAP1 SHR ISZERO PUSH2 0x3529 JUMPI PUSH1 0x10 SWAP3 DUP4 SHR SWAP3 ADD JUMPDEST PUSH1 0x8 DUP4 SWAP1 SHR ISZERO PUSH2 0x353B JUMPI PUSH1 0x8 SWAP3 DUP4 SHR SWAP3 ADD JUMPDEST PUSH1 0x4 DUP4 SWAP1 SHR ISZERO PUSH2 0x354D JUMPI PUSH1 0x4 SWAP3 DUP4 SHR SWAP3 ADD JUMPDEST PUSH1 0x2 DUP4 SWAP1 SHR ISZERO PUSH2 0x355F JUMPI PUSH1 0x2 SWAP3 DUP4 SHR SWAP3 ADD JUMPDEST PUSH1 0x1 DUP4 SWAP1 SHR ISZERO PUSH2 0x935 JUMPI PUSH1 0x1 ADD SWAP3 SWAP2 POP POP JUMP JUMPDEST PUSH1 0x0 DUP2 DUP4 LT PUSH2 0x3581 JUMPI DUP2 PUSH2 0xCBE JUMP JUMPDEST POP SWAP1 SWAP2 SWAP1 POP JUMP JUMPDEST PUSH1 0x0 PUSH1 0xFF DUP3 AND PUSH1 0x1F DUP2 GT ISZERO PUSH2 0x935 JUMPI PUSH1 0x40 MLOAD PUSH4 0x2CD44AC3 PUSH1 0xE2 SHL DUP2 MSTORE PUSH1 0x4 ADD PUSH1 0x40 MLOAD DUP1 SWAP2 SUB SWAP1 REVERT JUMPDEST PUSH1 0x60 PUSH2 0x2953 DUP5 DUP5 PUSH1 0x0 DUP6 PUSH2 0x36FB JUMP JUMPDEST PUSH1 0x1 PUSH1 0x1 PUSH1 0xA0 SHL SUB DUP3 AND PUSH2 0x3615 JUMPI PUSH1 0x40 MLOAD PUSH3 0x461BCD PUSH1 0xE5 SHL DUP2 MSTORE PUSH1 0x20 PUSH1 0x4 DUP3 ADD MSTORE PUSH1 0x1F PUSH1 0x24 DUP3 ADD MSTORE PUSH32 0x45524332303A206D696E7420746F20746865207A65726F206164647265737300 PUSH1 0x44 DUP3 ADD MSTORE PUSH1 0x64 ADD PUSH2 0xA62 JUMP JUMPDEST PUSH2 0x3621 PUSH1 0x0 DUP4 DUP4 PUSH2 0x29FC JUMP JUMPDEST DUP1 PUSH1 0x2 PUSH1 0x0 DUP3 DUP3 SLOAD PUSH2 0x3633 SWAP2 SWAP1 PUSH2 0x3E05 JUMP JUMPDEST SWAP1 SWAP2 SSTORE POP POP PUSH1 0x1 PUSH1 0x1 PUSH1 0xA0 SHL SUB DUP3 AND PUSH1 0x0 DUP2 DUP2 MSTORE PUSH1 0x20 DUP2 DUP2 MSTORE PUSH1 0x40 DUP1 DUP4 KECCAK256 DUP1 SLOAD DUP7 ADD SWAP1 SSTORE MLOAD DUP5 DUP2 MSTORE PUSH32 0xDDF252AD1BE2C89B69C2B068FC378DAA952BA7F163C4A11628F55A4DF523B3EF SWAP2 ADD PUSH1 0x40 MLOAD DUP1 SWAP2 SUB SWAP1 LOG3 PUSH2 0xC1A PUSH1 0x0 DUP4 DUP4 PUSH2 0x2A04 JUMP JUMPDEST PUSH1 0x0 PUSH1 0x1 PUSH1 0x1 PUSH1 0xE0 SHL SUB DUP3 GT ISZERO PUSH2 0x2716 JUMPI PUSH1 0x40 MLOAD PUSH3 0x461BCD PUSH1 0xE5 SHL DUP2 MSTORE PUSH1 0x20 PUSH1 0x4 DUP3 ADD MSTORE PUSH1 0x27 PUSH1 0x24 DUP3 ADD MSTORE PUSH32 0x53616665436173743A2076616C756520646F65736E27742066697420696E2032 PUSH1 0x44 DUP3 ADD MSTORE PUSH7 0x32342062697473 PUSH1 0xC8 SHL PUSH1 0x64 DUP3 ADD MSTORE PUSH1 0x84 ADD PUSH2 0xA62 JUMP JUMPDEST PUSH1 0x60 DUP3 SELFBALANCE LT ISZERO PUSH2 0x375C JUMPI PUSH1 0x40 MLOAD PUSH3 0x461BCD PUSH1 0xE5 SHL DUP2 MSTORE PUSH1 0x20 PUSH1 0x4 DUP3 ADD MSTORE PUSH1 0x26 PUSH1 0x24 DUP3 ADD MSTORE PUSH32 0x416464726573733A20696E73756666696369656E742062616C616E636520666F PUSH1 0x44 DUP3 ADD MSTORE PUSH6 0x1C8818D85B1B PUSH1 0xD2 SHL PUSH1 0x64 DUP3 ADD MSTORE PUSH1 0x84 ADD PUSH2 0xA62 JUMP JUMPDEST PUSH1 0x0 DUP1 DUP7 PUSH1 0x1 PUSH1 0x1 PUSH1 0xA0 SHL SUB AND DUP6 DUP8 PUSH1 0x40 MLOAD PUSH2 0x3778 SWAP2 SWAP1 PUSH2 0x3F54 JUMP JUMPDEST PUSH1 0x0 PUSH1 0x40 MLOAD DUP1 DUP4 SUB DUP2 DUP6 DUP8 GAS CALL SWAP3 POP POP POP RETURNDATASIZE DUP1 PUSH1 0x0 DUP2 EQ PUSH2 0x37B5 JUMPI PUSH1 0x40 MLOAD SWAP2 POP PUSH1 0x1F NOT PUSH1 0x3F RETURNDATASIZE ADD AND DUP3 ADD PUSH1 0x40 MSTORE RETURNDATASIZE DUP3 MSTORE RETURNDATASIZE PUSH1 0x0 PUSH1 0x20 DUP5 ADD RETURNDATACOPY PUSH2 0x37BA JUMP JUMPDEST PUSH1 0x60 SWAP2 POP JUMPDEST POP SWAP2 POP SWAP2 POP PUSH2 0x37CB DUP8 DUP4 DUP4 DUP8 PUSH2 0x37D6 JUMP JUMPDEST SWAP8 SWAP7 POP POP POP POP POP POP POP JUMP JUMPDEST PUSH1 0x60 DUP4 ISZERO PUSH2 0x3845 JUMPI DUP3 MLOAD PUSH1 0x0 SUB PUSH2 0x383E JUMPI PUSH1 0x1 PUSH1 0x1 PUSH1 0xA0 SHL SUB DUP6 AND EXTCODESIZE PUSH2 0x383E JUMPI PUSH1 0x40 MLOAD PUSH3 0x461BCD PUSH1 0xE5 SHL DUP2 MSTORE PUSH1 0x20 PUSH1 0x4 DUP3 ADD MSTORE PUSH1 0x1D PUSH1 0x24 DUP3 ADD MSTORE PUSH32 0x416464726573733A2063616C6C20746F206E6F6E2D636F6E7472616374000000 PUSH1 0x44 DUP3 ADD MSTORE PUSH1 0x64 ADD PUSH2 0xA62 JUMP JUMPDEST POP DUP2 PUSH2 0x2953 JUMP JUMPDEST PUSH2 0x2953 DUP4 DUP4 DUP2 MLOAD ISZERO PUSH2 0x385A JUMPI DUP2 MLOAD DUP1 DUP4 PUSH1 0x20 ADD REVERT JUMPDEST DUP1 PUSH1 0x40 MLOAD PUSH3 0x461BCD PUSH1 0xE5 SHL DUP2 MSTORE PUSH1 0x4 ADD PUSH2 0xA62 SWAP2 SWAP1 PUSH2 0x38EE JUMP JUMPDEST PUSH1 0x0 PUSH1 0x20 DUP3 DUP5 SUB SLT ISZERO PUSH2 0x3886 JUMPI PUSH1 0x0 DUP1 REVERT JUMPDEST DUP2 CALLDATALOAD PUSH1 0x1 PUSH1 0x1 PUSH1 0xE0 SHL SUB NOT DUP2 AND DUP2 EQ PUSH2 0xCBE JUMPI PUSH1 0x0 DUP1 REVERT JUMPDEST PUSH1 0x0 JUMPDEST DUP4 DUP2 LT ISZERO PUSH2 0x38B9 JUMPI DUP2 DUP2 ADD MLOAD DUP4 DUP3 ADD MSTORE PUSH1 0x20 ADD PUSH2 0x38A1 JUMP JUMPDEST POP POP PUSH1 0x0 SWAP2 ADD MSTORE JUMP JUMPDEST PUSH1 0x0 DUP2 MLOAD DUP1 DUP5 MSTORE PUSH2 0x38DA DUP2 PUSH1 0x20 DUP7 ADD PUSH1 0x20 DUP7 ADD PUSH2 0x389E JUMP JUMPDEST PUSH1 0x1F ADD PUSH1 0x1F NOT AND SWAP3 SWAP1 SWAP3 ADD PUSH1 0x20 ADD SWAP3 SWAP2 POP POP JUMP JUMPDEST PUSH1 0x20 DUP2 MSTORE PUSH1 0x0 PUSH2 0xCBE PUSH1 0x20 DUP4 ADD DUP5 PUSH2 0x38C2 JUMP JUMPDEST DUP1 CALLDATALOAD PUSH1 0x1 PUSH1 0x1 PUSH1 0xA0 SHL SUB DUP2 AND DUP2 EQ PUSH2 0x3918 JUMPI PUSH1 0x0 DUP1 REVERT JUMPDEST SWAP2 SWAP1 POP JUMP JUMPDEST PUSH1 0x0 DUP1 PUSH1 0x40 DUP4 DUP6 SUB SLT ISZERO PUSH2 0x3930 JUMPI PUSH1 0x0 DUP1 REVERT JUMPDEST PUSH2 0x3939 DUP4 PUSH2 0x3901 JUMP JUMPDEST SWAP5 PUSH1 0x20 SWAP4 SWAP1 SWAP4 ADD CALLDATALOAD SWAP4 POP POP POP JUMP JUMPDEST PUSH4 0x4E487B71 PUSH1 0xE0 SHL PUSH1 0x0 MSTORE PUSH1 0x41 PUSH1 0x4 MSTORE PUSH1 0x24 PUSH1 0x0 REVERT JUMPDEST PUSH1 0x0 DUP3 PUSH1 0x1F DUP4 ADD SLT PUSH2 0x396E JUMPI PUSH1 0x0 DUP1 REVERT JUMPDEST DUP2 CALLDATALOAD PUSH8 0xFFFFFFFFFFFFFFFF DUP2 GT ISZERO PUSH2 0x3988 JUMPI PUSH2 0x3988 PUSH2 0x3947 JUMP JUMPDEST PUSH1 0x40 MLOAD PUSH1 0x1F DUP3 ADD PUSH1 0x1F NOT SWAP1 DUP2 AND PUSH1 0x3F ADD AND DUP2 ADD PUSH8 0xFFFFFFFFFFFFFFFF DUP2 GT DUP3 DUP3 LT OR ISZERO PUSH2 0x39B7 JUMPI PUSH2 0x39B7 PUSH2 0x3947 JUMP JUMPDEST PUSH1 0x40 MSTORE DUP2 DUP2 MSTORE DUP4 DUP3 ADD PUSH1 0x20 ADD DUP6 LT ISZERO PUSH2 0x39CF JUMPI PUSH1 0x0 DUP1 REVERT JUMPDEST DUP2 PUSH1 0x20 DUP6 ADD PUSH1 0x20 DUP4 ADD CALLDATACOPY PUSH1 0x0 SWAP2 DUP2 ADD PUSH1 0x20 ADD SWAP2 SWAP1 SWAP2 MSTORE SWAP4 SWAP3 POP POP POP JUMP JUMPDEST PUSH1 0x0 DUP1 PUSH1 0x0 PUSH1 0x60 DUP5 DUP7 SUB SLT ISZERO PUSH2 0x3A01 JUMPI PUSH1 0x0 DUP1 REVERT JUMPDEST PUSH2 0x3A0A DUP5 PUSH2 0x3901 JUMP JUMPDEST SWAP3 POP PUSH1 0x20 DUP5 ADD CALLDATALOAD SWAP2 POP PUSH1 0x40 DUP5 ADD CALLDATALOAD PUSH8 0xFFFFFFFFFFFFFFFF DUP2 GT ISZERO PUSH2 0x3A2D JUMPI PUSH1 0x0 DUP1 REVERT JUMPDEST PUSH2 0x3A39 DUP7 DUP3 DUP8 ADD PUSH2 0x395D JUMP JUMPDEST SWAP2 POP POP SWAP3 POP SWAP3 POP SWAP3 JUMP JUMPDEST PUSH1 0x0 DUP1 PUSH1 0x0 PUSH1 0x60 DUP5 DUP7 SUB SLT ISZERO PUSH2 0x3A58 JUMPI PUSH1 0x0 DUP1 REVERT JUMPDEST PUSH2 0x3A61 DUP5 PUSH2 0x3901 JUMP JUMPDEST SWAP3 POP PUSH2 0x3A6F PUSH1 0x20 DUP6 ADD PUSH2 0x3901 JUMP JUMPDEST SWAP3 SWAP6 SWAP3 SWAP5 POP POP POP PUSH1 0x40 SWAP2 SWAP1 SWAP2 ADD CALLDATALOAD SWAP1 JUMP JUMPDEST PUSH1 0x0 PUSH1 0x20 DUP3 DUP5 SUB SLT ISZERO PUSH2 0x3A92 JUMPI PUSH1 0x0 DUP1 REVERT JUMPDEST POP CALLDATALOAD SWAP2 SWAP1 POP JUMP JUMPDEST PUSH1 0x0 DUP1 PUSH1 0x40 DUP4 DUP6 SUB SLT ISZERO PUSH2 0x3AAC JUMPI PUSH1 0x0 DUP1 REVERT JUMPDEST DUP3 CALLDATALOAD SWAP2 POP PUSH2 0x3ABC PUSH1 0x20 DUP5 ADD PUSH2 0x3901 JUMP JUMPDEST SWAP1 POP SWAP3 POP SWAP3 SWAP1 POP JUMP JUMPDEST PUSH1 0x0 PUSH1 0x20 DUP3 DUP5 SUB SLT ISZERO PUSH2 0x3AD7 JUMPI PUSH1 0x0 DUP1 REVERT JUMPDEST PUSH2 0xCBE DUP3 PUSH2 0x3901 JUMP JUMPDEST PUSH1 0xFF PUSH1 0xF8 SHL DUP9 AND DUP2 MSTORE PUSH1 0xE0 PUSH1 0x20 DUP3 ADD MSTORE PUSH1 0x0 PUSH2 0x3AFF PUSH1 0xE0 DUP4 ADD DUP10 PUSH2 0x38C2 JUMP JUMPDEST DUP3 DUP2 SUB PUSH1 0x40 DUP5 ADD MSTORE PUSH2 0x3B11 DUP2 DUP10 PUSH2 0x38C2 JUMP JUMPDEST PUSH1 0x60 DUP5 ADD DUP9 SWAP1 MSTORE PUSH1 0x1 PUSH1 0x1 PUSH1 0xA0 SHL SUB DUP8 AND PUSH1 0x80 DUP6 ADD MSTORE PUSH1 0xA0 DUP5 ADD DUP7 SWAP1 MSTORE DUP4 DUP2 SUB PUSH1 0xC0 DUP6 ADD MSTORE DUP5 MLOAD DUP1 DUP3 MSTORE PUSH1 0x20 DUP1 DUP8 ADD SWAP4 POP SWAP1 SWAP2 ADD SWAP1 PUSH1 0x0 JUMPDEST DUP2 DUP2 LT ISZERO PUSH2 0x3B67 JUMPI DUP4 MLOAD DUP4 MSTORE PUSH1 0x20 SWAP4 DUP5 ADD SWAP4 SWAP1 SWAP3 ADD SWAP2 PUSH1 0x1 ADD PUSH2 0x3B49 JUMP JUMPDEST POP SWAP1 SWAP12 SWAP11 POP POP POP POP POP POP POP POP POP POP POP JUMP JUMPDEST DUP1 CALLDATALOAD PUSH1 0x3 DUP2 LT PUSH2 0x3918 JUMPI PUSH1 0x0 DUP1 REVERT JUMPDEST PUSH1 0x0 DUP1 PUSH1 0x40 DUP4 DUP6 SUB SLT ISZERO PUSH2 0x3B9A JUMPI PUSH1 0x0 DUP1 REVERT JUMPDEST PUSH2 0x3939 DUP4 PUSH2 0x3B78 JUMP JUMPDEST PUSH1 0x0 DUP1 PUSH1 0x0 PUSH1 0x60 DUP5 DUP7 SUB SLT ISZERO PUSH2 0x3BB8 JUMPI PUSH1 0x0 DUP1 REVERT JUMPDEST PUSH2 0x3A61 DUP5 PUSH2 0x3B78 JUMP JUMPDEST DUP1 CALLDATALOAD PUSH1 0xFF DUP2 AND DUP2 EQ PUSH2 0x3918 JUMPI PUSH1 0x0 DUP1 REVERT JUMPDEST PUSH1 0x0 DUP1 PUSH1 0x0 DUP1 PUSH1 0x0 DUP1 PUSH1 0xC0 DUP8 DUP10 SUB SLT ISZERO PUSH2 0x3BEB JUMPI PUSH1 0x0 DUP1 REVERT JUMPDEST PUSH2 0x3BF4 DUP8 PUSH2 0x3901 JUMP JUMPDEST SWAP6 POP PUSH1 0x20 DUP8 ADD CALLDATALOAD SWAP5 POP PUSH1 0x40 DUP8 ADD CALLDATALOAD SWAP4 POP PUSH2 0x3C10 PUSH1 0x60 DUP9 ADD PUSH2 0x3BC1 JUMP JUMPDEST SWAP6 SWAP9 SWAP5 SWAP8 POP SWAP3 SWAP6 PUSH1 0x80 DUP2 ADD CALLDATALOAD SWAP5 PUSH1 0xA0 SWAP1 SWAP2 ADD CALLDATALOAD SWAP4 POP SWAP2 POP POP JUMP JUMPDEST PUSH1 0x0 DUP1 PUSH1 0x40 DUP4 DUP6 SUB SLT ISZERO PUSH2 0x3C3D JUMPI PUSH1 0x0 DUP1 REVERT JUMPDEST PUSH2 0x3C46 DUP4 PUSH2 0x3B78 JUMP JUMPDEST SWAP2 POP PUSH2 0x3ABC PUSH1 0x20 DUP5 ADD PUSH2 0x3901 JUMP JUMPDEST PUSH1 0x0 PUSH1 0x20 DUP3 DUP5 SUB SLT ISZERO PUSH2 0x3C66 JUMPI PUSH1 0x0 DUP1 REVERT JUMPDEST PUSH2 0xCBE DUP3 PUSH2 0x3B78 JUMP JUMPDEST PUSH1 0x0 DUP1 PUSH1 0x0 DUP1 PUSH1 0x0 DUP1 PUSH1 0x0 PUSH1 0xE0 DUP9 DUP11 SUB SLT ISZERO PUSH2 0x3C8A JUMPI PUSH1 0x0 DUP1 REVERT JUMPDEST PUSH2 0x3C93 DUP9 PUSH2 0x3901 JUMP JUMPDEST SWAP7 POP PUSH2 0x3CA1 PUSH1 0x20 DUP10 ADD PUSH2 0x3901 JUMP JUMPDEST SWAP6 POP PUSH1 0x40 DUP9 ADD CALLDATALOAD SWAP5 POP PUSH1 0x60 DUP9 ADD CALLDATALOAD SWAP4 POP PUSH2 0x3CBD PUSH1 0x80 DUP10 ADD PUSH2 0x3BC1 JUMP JUMPDEST SWAP7 SWAP10 SWAP6 SWAP9 POP SWAP4 SWAP7 SWAP3 SWAP6 SWAP5 PUSH1 0xA0 DUP5 ADD CALLDATALOAD SWAP5 POP PUSH1 0xC0 SWAP1 SWAP4 ADD CALLDATALOAD SWAP3 SWAP2 POP POP JUMP JUMPDEST PUSH1 0x0 DUP1 PUSH1 0x40 DUP4 DUP6 SUB SLT ISZERO PUSH2 0x3CED JUMPI PUSH1 0x0 DUP1 REVERT JUMPDEST PUSH2 0x3C46 DUP4 PUSH2 0x3901 JUMP JUMPDEST PUSH1 0x0 DUP1 PUSH1 0x40 DUP4 DUP6 SUB SLT ISZERO PUSH2 0x3D09 JUMPI PUSH1 0x0 DUP1 REVERT JUMPDEST DUP3 CALLDATALOAD SWAP2 POP PUSH1 0x20 DUP4 ADD CALLDATALOAD PUSH8 0xFFFFFFFFFFFFFFFF DUP2 GT ISZERO PUSH2 0x3D27 JUMPI PUSH1 0x0 DUP1 REVERT JUMPDEST PUSH2 0x3D33 DUP6 DUP3 DUP7 ADD PUSH2 0x395D JUMP JUMPDEST SWAP2 POP POP SWAP3 POP SWAP3 SWAP1 POP JUMP JUMPDEST PUSH1 0x0 DUP1 PUSH1 0x40 DUP4 DUP6 SUB SLT ISZERO PUSH2 0x3D50 JUMPI PUSH1 0x0 DUP1 REVERT JUMPDEST PUSH2 0x3D59 DUP4 PUSH2 0x3901 JUMP JUMPDEST SWAP2 POP PUSH1 0x20 DUP4 ADD CALLDATALOAD PUSH4 0xFFFFFFFF DUP2 AND DUP2 EQ PUSH2 0x3D72 JUMPI PUSH1 0x0 DUP1 REVERT JUMPDEST DUP1 SWAP2 POP POP SWAP3 POP SWAP3 SWAP1 POP JUMP JUMPDEST PUSH1 0x1 DUP2 DUP2 SHR SWAP1 DUP3 AND DUP1 PUSH2 0x3D91 JUMPI PUSH1 0x7F DUP3 AND SWAP2 POP JUMPDEST PUSH1 0x20 DUP3 LT DUP2 SUB PUSH2 0x16E1 JUMPI PUSH4 0x4E487B71 PUSH1 0xE0 SHL PUSH1 0x0 MSTORE PUSH1 0x22 PUSH1 0x4 MSTORE PUSH1 0x24 PUSH1 0x0 REVERT JUMPDEST PUSH1 0x20 DUP1 DUP3 MSTORE PUSH1 0xB SWAP1 DUP3 ADD MSTORE PUSH11 0x1E995C9BC8185B5BDD5B9D PUSH1 0xAA SHL PUSH1 0x40 DUP3 ADD MSTORE PUSH1 0x60 ADD SWAP1 JUMP JUMPDEST DUP3 DUP2 MSTORE PUSH1 0x40 PUSH1 0x20 DUP3 ADD MSTORE PUSH1 0x0 PUSH2 0x2953 PUSH1 0x40 DUP4 ADD DUP5 PUSH2 0x38C2 JUMP JUMPDEST PUSH4 0x4E487B71 PUSH1 0xE0 SHL PUSH1 0x0 MSTORE PUSH1 0x11 PUSH1 0x4 MSTORE PUSH1 0x24 PUSH1 0x0 REVERT JUMPDEST DUP1 DUP3 ADD DUP1 DUP3 GT ISZERO PUSH2 0x935 JUMPI PUSH2 0x935 PUSH2 0x3DEF JUMP JUMPDEST PUSH4 0x4E487B71 PUSH1 0xE0 SHL PUSH1 0x0 MSTORE PUSH1 0x21 PUSH1 0x4 MSTORE PUSH1 0x24 PUSH1 0x0 REVERT JUMPDEST PUSH4 0x4E487B71 PUSH1 0xE0 SHL PUSH1 0x0 MSTORE PUSH1 0x32 PUSH1 0x4 MSTORE PUSH1 0x24 PUSH1 0x0 REVERT JUMPDEST DUP2 DUP2 SUB DUP2 DUP2 GT ISZERO PUSH2 0x935 JUMPI PUSH2 0x935 PUSH2 0x3DEF JUMP JUMPDEST DUP1 DUP3 MUL DUP2 ISZERO DUP3 DUP3 DIV DUP5 EQ OR PUSH2 0x935 JUMPI PUSH2 0x935 PUSH2 0x3DEF JUMP JUMPDEST PUSH4 0x4E487B71 PUSH1 0xE0 SHL PUSH1 0x0 MSTORE PUSH1 0x12 PUSH1 0x4 MSTORE PUSH1 0x24 PUSH1 0x0 REVERT JUMPDEST PUSH1 0x0 DUP3 PUSH2 0x3EA1 JUMPI PUSH4 0x4E487B71 PUSH1 0xE0 SHL PUSH1 0x0 MSTORE PUSH1 0x12 PUSH1 0x4 MSTORE PUSH1 0x24 PUSH1 0x0 REVERT JUMPDEST POP DIV SWAP1 JUMP JUMPDEST PUSH32 0x416363657373436F6E74726F6C3A206163636F756E7420000000000000000000 DUP2 MSTORE PUSH1 0x0 DUP4 MLOAD PUSH2 0x3EDE DUP2 PUSH1 0x17 DUP6 ADD PUSH1 0x20 DUP9 ADD PUSH2 0x389E JUMP JUMPDEST PUSH17 0x1034B99036B4B9B9B4B733903937B6329 PUSH1 0x7D SHL PUSH1 0x17 SWAP2 DUP5 ADD SWAP2 DUP3 ADD MSTORE DUP4 MLOAD PUSH2 0x3F0F DUP2 PUSH1 0x28 DUP5 ADD PUSH1 0x20 DUP9 ADD PUSH2 0x389E JUMP JUMPDEST ADD PUSH1 0x28 ADD SWAP5 SWAP4 POP POP POP POP JUMP JUMPDEST PUSH1 0x0 PUSH1 0x20 DUP3 DUP5 SUB SLT ISZERO PUSH2 0x3F2D JUMPI PUSH1 0x0 DUP1 REVERT JUMPDEST DUP2 MLOAD DUP1 ISZERO ISZERO DUP2 EQ PUSH2 0xCBE JUMPI PUSH1 0x0 DUP1 REVERT JUMPDEST PUSH1 0x0 DUP2 PUSH2 0x3F4C JUMPI PUSH2 0x3F4C PUSH2 0x3DEF JUMP JUMPDEST POP PUSH1 0x0 NOT ADD SWAP1 JUMP JUMPDEST PUSH1 0x0 DUP3 MLOAD PUSH2 0x3F66 DUP2 DUP5 PUSH1 0x20 DUP8 ADD PUSH2 0x389E JUMP JUMPDEST SWAP2 SWAP1 SWAP2 ADD SWAP3 SWAP2 POP POP JUMP INVALID 0xAA SWAP1 PUSH1 0x66 0xD 0xC3 0xE5 0x21 MSTORE 0xEC PUSH13 0x4CD87F38F5433D3E2246058F23 LOG2 SWAP5 PUSH4 0xEA324768 OR LOG2 PUSH5 0x6970667358 0x22 SLT KECCAK256 MULMOD 0xDC PUSH9 0xA290A9A859EAF46F2F 0xC4 EXTCODESIZE SLT CALLDATASIZE 0xF9 PUSH17 0x9B5F7ABAD2E3E0C3F0E3D34AD85B64736F PUSH13 0x634300081C0033DEC2BACDD2F0 JUMPDEST MSIZE 0xDE CALLVALUE 0xDA SWAP12 MSTORE RETURNDATASIZE SELFDESTRUCT DUP12 0xE4 0x2E MCOPY CODESIZE 0xE8 XOR 0xC8 0x2F 0xDB SIGNEXTEND 0xAE PUSH24 0x4387A7240000000000000000000000000000000000000000 "},"methodIdentifiers":{"BACKING_MANAGER_ROLE()":"15e98e73","BURNER_ROLE()":"282c51f3","CLOCK_MODE()":"4bf5d7e9","DEFAULT_ADMIN_ROLE()":"a217fddf","DOMAIN_SEPARATOR()":"3644e515","GOVERNANCE_ROLE()":"f36c8f5c","INITIAL_SUPPLY()":"2ff2e9dc","MAX_SUPPLY()":"32cb6b0c","MINTER_ROLE()":"d5391393","PAUSER_ROLE()":"e63ab1e9","RECOVERY_ROLE()":"31993a1c","allowance(address,address)":"dd62ed3e","approve(address,uint256)":"095ea7b3","backingPerTokenUSD()":"dfef15b8","balanceOf(address)":"70a08231","burn(address,uint256,string)":"15f570dc","burnMyTokens(uint256,string)":"e07495e3","checkpoints(address,uint32)":"f1127ed8","clock()":"91ddadf4","decimals()":"313ce567","decreaseAllowance(address,uint256)":"a457c2d7","delegate(address)":"5c19a95c","delegateBySig(address,uint256,uint256,uint8,bytes32,bytes32)":"c3cda520","delegates(address)":"587cde1e","depositBacking(uint8,uint256)":"91ee2a3d","developmentAddress()":"638b1b14","eip712Domain()":"84b0196e","emergencyRecoverERC20(address,address,uint256)":"eb8f4c4a","getAssetInfo(uint8)":"c8c7fe6b","getPastTotalSupply(uint256)":"8e539e8c","getPastVotes(address,uint256)":"3a46b1a8","getRoleAdmin(bytes32)":"248a9ca3","getVotes(address)":"9ab24eb0","grantRole(bytes32,address)":"2f2ff15d","hasRole(bytes32,address)":"91d14854","increaseAllowance(address,uint256)":"39509351","mint(address,uint256,string)":"d3fc9864","name()":"06fdde03","nonces(address)":"7ecebe00","numCheckpoints(address)":"6fcfff45","pause()":"8456cb59","paused()":"5c975abb","permit(address,address,uint256,uint256,uint8,bytes32,bytes32)":"d505accf","publicAddress()":"f676f331","registerBackingToken(uint8,address)":"c69def0b","renounceRole(bytes32,address)":"36568abe","reserveAddress()":"f79ed94b","revokeRole(bytes32,address)":"d547741f","setAssetPriceUSD(uint8,uint256)":"a978d8df","shariaTrustAddress()":"fe64c681","strategicPartnersAddress()":"626c3d43","supportsInterface(bytes4)":"01ffc9a7","symbol()":"95d89b41","totalBackingValueUSD()":"ae621bbe","totalSupply()":"18160ddd","transfer(address,uint256)":"a9059cbb","transferFrom(address,address,uint256)":"23b872dd","unpause()":"3f4ba83a","withdrawBacking(uint8,address,uint256)":"a34cea08"}}}}}