{"contracts/Oracles/eminarOracle.sol":{"TokenOracle":{"abi":[{"inputs":[{"internalType":"address","name":"_initialOwner","type":"address"}],"stateMutability":"nonpayable","type":"constructor"},{"anonymous":false,"inputs":[{"indexed":false,"internalType":"uint256","name":"newBps","type":"uint256"}],"name":"MaxChangeBpsUpdated","type":"event"},{"anonymous":false,"inputs":[{"indexed":true,"internalType":"address","name":"previousOwner","type":"address"},{"indexed":true,"internalType":"address","name":"newOwner","type":"address"}],"name":"OwnershipTransferred","type":"event"},{"anonymous":false,"inputs":[{"indexed":false,"internalType":"address","name":"account","type":"address"}],"name":"Paused","type":"event"},{"anonymous":false,"inputs":[{"indexed":true,"internalType":"address","name":"token","type":"address"},{"indexed":false,"internalType":"uint256","name":"price","type":"uint256"},{"indexed":false,"internalType":"address","name":"updatedBy","type":"address"},{"indexed":false,"internalType":"uint256","name":"timestamp","type":"uint256"}],"name":"PriceUpdated","type":"event"},{"anonymous":false,"inputs":[{"indexed":true,"internalType":"address","name":"relayer","type":"address"}],"name":"RelayerAdded","type":"event"},{"anonymous":false,"inputs":[{"indexed":true,"internalType":"address","name":"relayer","type":"address"}],"name":"RelayerRemoved","type":"event"},{"anonymous":false,"inputs":[{"indexed":false,"internalType":"address","name":"gold","type":"address"},{"indexed":false,"internalType":"address","name":"silver","type":"address"},{"indexed":false,"internalType":"address","name":"rare","type":"address"}],"name":"TokensSet","type":"event"},{"anonymous":false,"inputs":[{"indexed":false,"internalType":"address","name":"account","type":"address"}],"name":"Unpaused","type":"event"},{"inputs":[],"name":"PRICE_DECIMALS","outputs":[{"internalType":"uint256","name":"","type":"uint256"}],"stateMutability":"view","type":"function"},{"inputs":[{"internalType":"address","name":"relayer","type":"address"}],"name":"addRelayer","outputs":[],"stateMutability":"nonpayable","type":"function"},{"inputs":[],"name":"getAllPrices","outputs":[{"internalType":"uint256","name":"goldPrice","type":"uint256"},{"internalType":"uint256","name":"silverPrice","type":"uint256"},{"internalType":"uint256","name":"rarePrice","type":"uint256"},{"internalType":"uint256","name":"lastUpdated","type":"uint256"}],"stateMutability":"view","type":"function"},{"inputs":[],"name":"getGoldPrice","outputs":[{"internalType":"uint256","name":"price","type":"uint256"},{"internalType":"uint256","name":"lastUpdated","type":"uint256"}],"stateMutability":"view","type":"function"},{"inputs":[],"name":"getRarePrice","outputs":[{"internalType":"uint256","name":"price","type":"uint256"},{"internalType":"uint256","name":"lastUpdated","type":"uint256"}],"stateMutability":"view","type":"function"},{"inputs":[],"name":"getSilverPrice","outputs":[{"internalType":"uint256","name":"price","type":"uint256"},{"internalType":"uint256","name":"lastUpdated","type":"uint256"}],"stateMutability":"view","type":"function"},{"inputs":[],"name":"getTokenAddresses","outputs":[{"internalType":"address","name":"","type":"address"},{"internalType":"address","name":"","type":"address"},{"internalType":"address","name":"","type":"address"}],"stateMutability":"view","type":"function"},{"inputs":[{"internalType":"address","name":"token","type":"address"}],"name":"getTokenPrice","outputs":[{"internalType":"uint256","name":"price","type":"uint256"},{"internalType":"uint256","name":"lastUpdated","type":"uint256"}],"stateMutability":"view","type":"function"},{"inputs":[],"name":"goldToken","outputs":[{"internalType":"address","name":"","type":"address"}],"stateMutability":"view","type":"function"},{"inputs":[{"internalType":"address","name":"token","type":"address"},{"internalType":"uint256","name":"maxAge","type":"uint256"}],"name":"isPriceRecent","outputs":[{"internalType":"bool","name":"","type":"bool"}],"stateMutability":"view","type":"function"},{"inputs":[],"name":"maxChangeBps","outputs":[{"internalType":"uint256","name":"","type":"uint256"}],"stateMutability":"view","type":"function"},{"inputs":[],"name":"owner","outputs":[{"internalType":"address","name":"","type":"address"}],"stateMutability":"view","type":"function"},{"inputs":[],"name":"pause","outputs":[],"stateMutability":"nonpayable","type":"function"},{"inputs":[],"name":"paused","outputs":[{"internalType":"bool","name":"","type":"bool"}],"stateMutability":"view","type":"function"},{"inputs":[],"name":"rareToken","outputs":[{"internalType":"address","name":"","type":"address"}],"stateMutability":"view","type":"function"},{"inputs":[{"internalType":"address","name":"","type":"address"}],"name":"relayers","outputs":[{"internalType":"bool","name":"","type":"bool"}],"stateMutability":"view","type":"function"},{"inputs":[{"internalType":"address","name":"relayer","type":"address"}],"name":"removeRelayer","outputs":[],"stateMutability":"nonpayable","type":"function"},{"inputs":[],"name":"renounceOwnership","outputs":[],"stateMutability":"nonpayable","type":"function"},{"inputs":[{"internalType":"uint256","name":"bps","type":"uint256"}],"name":"setMaxChangeBps","outputs":[],"stateMutability":"nonpayable","type":"function"},{"inputs":[{"internalType":"address","name":"_goldToken","type":"address"},{"internalType":"address","name":"_silverToken","type":"address"},{"internalType":"address","name":"_rareToken","type":"address"}],"name":"setTokenAddresses","outputs":[],"stateMutability":"nonpayable","type":"function"},{"inputs":[],"name":"silverToken","outputs":[{"internalType":"address","name":"","type":"address"}],"stateMutability":"view","type":"function"},{"inputs":[{"internalType":"address","name":"","type":"address"}],"name":"tokenPrices","outputs":[{"internalType":"uint256","name":"price","type":"uint256"},{"internalType":"uint256","name":"lastUpdated","type":"uint256"},{"internalType":"address","name":"updatedBy","type":"address"}],"stateMutability":"view","type":"function"},{"inputs":[{"internalType":"address","name":"newOwner","type":"address"}],"name":"transferOwnership","outputs":[],"stateMutability":"nonpayable","type":"function"},{"inputs":[],"name":"unpause","outputs":[],"stateMutability":"nonpayable","type":"function"},{"inputs":[{"internalType":"uint256","name":"goldPrice","type":"uint256"},{"internalType":"uint256","name":"silverPrice","type":"uint256"},{"internalType":"uint256","name":"rarePrice","type":"uint256"}],"name":"updateAllPrices","outputs":[],"stateMutability":"nonpayable","type":"function"},{"inputs":[{"internalType":"address","name":"token","type":"address"},{"internalType":"uint256","name":"price","type":"uint256"}],"name":"updateTokenPrice","outputs":[],"stateMutability":"nonpayable","type":"function"}],"evm":{"bytecode":{"linkReferences":{},"object":"608060405261138860065534801561001657600080fd5b5060405161129b38038061129b83398101604081905261003591610193565b61003e33610069565b6000805460ff60a01b191690556001600160a01b0381161561006357610063816100b9565b506101c3565b600080546001600160a01b038381166001600160a01b0319831681178455604051919092169283917f8be0079c531659141344cd1fd0a4f28419497f9722a3daafe3b4186f6b6457e09190a35050565b6100c1610137565b6001600160a01b03811661012b5760405162461bcd60e51b815260206004820152602660248201527f4f776e61626c653a206e6577206f776e657220697320746865207a65726f206160448201526564647265737360d01b60648201526084015b60405180910390fd5b61013481610069565b50565b6000546001600160a01b031633146101915760405162461bcd60e51b815260206004820181905260248201527f4f776e61626c653a2063616c6c6572206973206e6f7420746865206f776e65726044820152606401610122565b565b6000602082840312156101a557600080fd5b81516001600160a01b03811681146101bc57600080fd5b9392505050565b6110c9806101d26000396000f3fe608060405234801561001057600080fd5b506004361061018e5760003560e01c8063790fb13d116100de578063d321040311610097578063dd39f00d11610071578063dd39f00d146103a6578063ee8c24b8146103b9578063f1a640f8146103ec578063f2fde38b146103f457600080fd5b8063d321040314610383578063d4ee651b1461038b578063da6bae101461039e57600080fd5b8063790fb13d1461031e5780638456cb59146103315780638da5cb5b1461033957806394002b571461034a578063c34fe1dd1461035d578063d02641a01461037057600080fd5b8063445df9d61161014b5780635300f841116101255780635300f841146102ce5780635c975abb146102f157806360f0a5ac14610303578063715018a61461031657600080fd5b8063445df9d6146102765780634d3f9d3e1461029e5780634e279b79146102b157600080fd5b80630bc16abe146101935780631688e5b9146101a8578063204120bc146101c457806338c21d1b146102205780633f4ba83a1461024b57806340947df114610253575b600080fd5b6101a66101a1366004610f63565b610407565b005b6101b160065481565b6040519081526020015b60405180910390f35b6101fc6101d2366004610fab565b6004602052600090815260409020805460018201546002909201549091906001600160a01b031683565b6040805193845260208401929092526001600160a01b0316908201526060016101bb565b600354610233906001600160a01b031681565b6040516001600160a01b0390911681526020016101bb565b6101a6610546565b610266610261366004610fcd565b610558565b60405190151581526020016101bb565b61027e6105c8565b6040805194855260208501939093529183015260608201526080016101bb565b6101a66102ac366004610ff7565b6106bf565b6102b96107d9565b604080519283526020830191909152016101bb565b6102666102dc366004610fab565b60056020526000908152604090205460ff1681565b600054600160a01b900460ff16610266565b6101a6610311366004610fab565b6107fb565b6101a661084c565b6101a661032c36600461103a565b61085e565b6101a66108df565b6000546001600160a01b0316610233565b600154610233906001600160a01b031681565b600254610233906001600160a01b031681565b6102b961037e366004610fab565b6108ef565b6102b9610938565b6101a6610399366004610fcd565b610952565b6102b9610c5e565b6101a66103b4366004610fab565b610c78565b600154600254600354604080516001600160a01b03948516815292841660208401529216918101919091526060016101bb565b6101b1600881565b6101a6610402366004610fab565b610d0b565b61040f610d84565b6001546001600160a01b03161580159061043357506002546001600160a01b031615155b801561044957506003546001600160a01b031615155b61048b5760405162461bcd60e51b815260206004820152600e60248201526d151bdad95b9cc81b9bdd081cd95d60921b60448201526064015b60405180910390fd5b3360009081526005602052604090205460ff16806104c25750336104b76000546001600160a01b031690565b6001600160a01b0316145b6104ff5760405162461bcd60e51b815260206004820152600e60248201526d139bdd08185d5d1a1bdc9a5e995960921b6044820152606401610482565b600154610515906001600160a01b031684610952565b60025461052b906001600160a01b031683610952565b600354610541906001600160a01b031682610952565b505050565b61054e610dd1565b610556610e2b565b565b6001600160a01b03808316600090815260046020908152604080832081516060810183528154815260018201549381018490526002909101549094169084015290919082036105ab5760009150506105c2565b828160200151426105bc9190611069565b11159150505b92915050565b600180546001600160a01b03908116600090815260046020818152604080842081516060808201845282548252828901548286019081526002938401548916838601528354891688528686528488208551808401875281548152818c0154818901908152918601548b16818801526003548b168a5297875285892086519384018752805484529a8b0154968301969096529890920154909616918101919091529051945192948594859485949193919285911161068957826020015161068f565b83602001515b9050808260200151116106a257806106a8565b81602001515b935192519151929891975091955091935090915050565b6106c7610dd1565b6001546001600160a01b03161580156106e857506001600160a01b03831615155b80156106fc57506001600160a01b03821615155b801561071057506001600160a01b03811615155b6107555760405162461bcd60e51b8152602060048201526016602482015275125b9d985b1a59081bdc88185b1c9958591e481cd95d60521b6044820152606401610482565b600180546001600160a01b038581166001600160a01b0319928316811790935560028054868316908416811790915560038054928616929093168217909255604080519384526020840192909252908201527f5b298d21a3f20895e495bf3dcb889649b4381249a094782f2c49e9f5d015b9c59060600160405180910390a1505050565b60025460009081906107f3906001600160a01b03166108ef565b915091509091565b610803610dd1565b6001600160a01b038116600081815260056020526040808220805460ff19169055517f10e1f7ce9fd7d1b90a66d13a2ab3cb8dd7f29f3f8d520b143b063ccfbab6906b9190a250565b610854610dd1565b6105566000610e80565b610866610dd1565b6127108111156108a45760405162461bcd60e51b815260206004820152600960248201526806270733e31303030360bc1b6044820152606401610482565b60068190556040518181527f44ab1d93e41d4b41f280e9e25d9f9aa7260eb839e0d9f7eea5ca2c0823c7ba209060200160405180910390a150565b6108e7610dd1565b610556610ed0565b6001600160a01b03908116600090815260046020908152604091829020825160608101845281548082526001830154938201849052600290920154909416939092019290925291565b60035460009081906107f3906001600160a01b03166108ef565b61095a610d84565b6001546001600160a01b038381169116148061098357506002546001600160a01b038381169116145b8061099b57506003546001600160a01b038381169116145b6109d75760405162461bcd60e51b815260206004820152600d60248201526c24b73b30b634b2103a37b5b2b760991b6044820152606401610482565b60008111610a115760405162461bcd60e51b8152602060048201526007602482015266050726963653e360cc1b6044820152606401610482565b3360009081526005602052604090205460ff1680610a48575033610a3d6000546001600160a01b031690565b6001600160a01b0316145b610a855760405162461bcd60e51b815260206004820152600e60248201526d139bdd08185d5d1a1bdc9a5e995960921b6044820152606401610482565b6001600160a01b0380831660009081526004602090815260409182902082516060810184528154815260018201549281018390526002909101549093169183019190915215610bbe5780518015610bbc5780831115610b4f576000610aea8285611069565b905060065482610afa919061107c565b610b068261271061107c565b1115610b495760405162461bcd60e51b8152602060048201526012602482015271496e63726561736520746f6f206c6172676560701b6044820152606401610482565b50610bbc565b6000610b5b8483611069565b905060065482610b6b919061107c565b610b778261271061107c565b1115610bba5760405162461bcd60e51b8152602060048201526012602482015271446563726561736520746f6f206c6172676560701b6044820152606401610482565b505b505b6040805160608082018352848252426020808401828152338587018181526001600160a01b038b81166000818152600487528a902098518955935160018901559051600290970180546001600160a01b03191697909116969096179095558551888152918201949094529384015290917fc71c2e178d54f3a46742671fcbbdbbade697d8f5a8647b18268e5087918c375d910160405180910390a2505050565b60015460009081906107f3906001600160a01b03166108ef565b610c80610dd1565b6001600160a01b038116610cbf5760405162461bcd60e51b8152600401610482906020808252600490820152637a65726f60e01b604082015260600190565b6001600160a01b038116600081815260056020526040808220805460ff19166001179055517f03580ee9f53a62b7cb409a2cb56f9be87747dd15017afc5cef6eef321e4fb2c59190a250565b610d13610dd1565b6001600160a01b038116610d785760405162461bcd60e51b815260206004820152602660248201527f4f776e61626c653a206e6577206f776e657220697320746865207a65726f206160448201526564647265737360d01b6064820152608401610482565b610d8181610e80565b50565b600054600160a01b900460ff16156105565760405162461bcd60e51b815260206004820152601060248201526f14185d5cd8589b194e881c185d5cd95960821b6044820152606401610482565b6000546001600160a01b031633146105565760405162461bcd60e51b815260206004820181905260248201527f4f776e61626c653a2063616c6c6572206973206e6f7420746865206f776e65726044820152606401610482565b610e33610f13565b6000805460ff60a01b191690557f5db9ee0a495bf2e6ff9c91a7834c1ba4fdd244a5e8aa4e537bd38aeae4b073aa335b6040516001600160a01b03909116815260200160405180910390a1565b600080546001600160a01b038381166001600160a01b0319831681178455604051919092169283917f8be0079c531659141344cd1fd0a4f28419497f9722a3daafe3b4186f6b6457e09190a35050565b610ed8610d84565b6000805460ff60a01b1916600160a01b1790557f62e78cea01bee320cd4e420270b5ea74000d11b0c9f74754ebdbfc544b05a258610e633390565b600054600160a01b900460ff166105565760405162461bcd60e51b815260206004820152601460248201527314185d5cd8589b194e881b9bdd081c185d5cd95960621b6044820152606401610482565b600080600060608486031215610f7857600080fd5b505081359360208301359350604090920135919050565b80356001600160a01b0381168114610fa657600080fd5b919050565b600060208284031215610fbd57600080fd5b610fc682610f8f565b9392505050565b60008060408385031215610fe057600080fd5b610fe983610f8f565b946020939093013593505050565b60008060006060848603121561100c57600080fd5b61101584610f8f565b925061102360208501610f8f565b915061103160408501610f8f565b90509250925092565b60006020828403121561104c57600080fd5b5035919050565b634e487b7160e01b600052601160045260246000fd5b818103818111156105c2576105c2611053565b80820281158282048414176105c2576105c261105356fea2646970667358221220ca9d0e95bfa992c74fc4f7cfe0423d3db1a049dd85294e9c9a797d97954f876564736f6c634300081c0033","opcodes":"PUSH1 0x80 PUSH1 0x40 MSTORE PUSH2 0x1388 PUSH1 0x6 SSTORE CALLVALUE DUP1 ISZERO PUSH2 0x16 JUMPI PUSH1 0x0 DUP1 REVERT JUMPDEST POP PUSH1 0x40 MLOAD PUSH2 0x129B CODESIZE SUB DUP1 PUSH2 0x129B DUP4 CODECOPY DUP2 ADD PUSH1 0x40 DUP2 SWAP1 MSTORE PUSH2 0x35 SWAP2 PUSH2 0x193 JUMP JUMPDEST PUSH2 0x3E CALLER PUSH2 0x69 JUMP JUMPDEST PUSH1 0x0 DUP1 SLOAD PUSH1 0xFF PUSH1 0xA0 SHL NOT AND SWAP1 SSTORE PUSH1 0x1 PUSH1 0x1 PUSH1 0xA0 SHL SUB DUP2 AND ISZERO PUSH2 0x63 JUMPI PUSH2 0x63 DUP2 PUSH2 0xB9 JUMP JUMPDEST POP PUSH2 0x1C3 JUMP JUMPDEST PUSH1 0x0 DUP1 SLOAD PUSH1 0x1 PUSH1 0x1 PUSH1 0xA0 SHL SUB DUP4 DUP2 AND PUSH1 0x1 PUSH1 0x1 PUSH1 0xA0 SHL SUB NOT DUP4 AND DUP2 OR DUP5 SSTORE PUSH1 0x40 MLOAD SWAP2 SWAP1 SWAP3 AND SWAP3 DUP4 SWAP2 PUSH32 0x8BE0079C531659141344CD1FD0A4F28419497F9722A3DAAFE3B4186F6B6457E0 SWAP2 SWAP1 LOG3 POP POP JUMP JUMPDEST PUSH2 0xC1 PUSH2 0x137 JUMP JUMPDEST PUSH1 0x1 PUSH1 0x1 PUSH1 0xA0 SHL SUB DUP2 AND PUSH2 0x12B JUMPI PUSH1 0x40 MLOAD PUSH3 0x461BCD PUSH1 0xE5 SHL DUP2 MSTORE PUSH1 0x20 PUSH1 0x4 DUP3 ADD MSTORE PUSH1 0x26 PUSH1 0x24 DUP3 ADD MSTORE PUSH32 0x4F776E61626C653A206E6577206F776E657220697320746865207A65726F2061 PUSH1 0x44 DUP3 ADD MSTORE PUSH6 0x646472657373 PUSH1 0xD0 SHL PUSH1 0x64 DUP3 ADD MSTORE PUSH1 0x84 ADD JUMPDEST PUSH1 0x40 MLOAD DUP1 SWAP2 SUB SWAP1 REVERT JUMPDEST PUSH2 0x134 DUP2 PUSH2 0x69 JUMP JUMPDEST POP JUMP JUMPDEST PUSH1 0x0 SLOAD PUSH1 0x1 PUSH1 0x1 PUSH1 0xA0 SHL SUB AND CALLER EQ PUSH2 0x191 JUMPI PUSH1 0x40 MLOAD PUSH3 0x461BCD PUSH1 0xE5 SHL DUP2 MSTORE PUSH1 0x20 PUSH1 0x4 DUP3 ADD DUP2 SWAP1 MSTORE PUSH1 0x24 DUP3 ADD MSTORE PUSH32 0x4F776E61626C653A2063616C6C6572206973206E6F7420746865206F776E6572 PUSH1 0x44 DUP3 ADD MSTORE PUSH1 0x64 ADD PUSH2 0x122 JUMP JUMPDEST JUMP JUMPDEST PUSH1 0x0 PUSH1 0x20 DUP3 DUP5 SUB SLT ISZERO PUSH2 0x1A5 JUMPI PUSH1 0x0 DUP1 REVERT JUMPDEST DUP2 MLOAD PUSH1 0x1 PUSH1 0x1 PUSH1 0xA0 SHL SUB DUP2 AND DUP2 EQ PUSH2 0x1BC JUMPI PUSH1 0x0 DUP1 REVERT JUMPDEST SWAP4 SWAP3 POP POP POP JUMP JUMPDEST PUSH2 0x10C9 DUP1 PUSH2 0x1D2 PUSH1 0x0 CODECOPY PUSH1 0x0 RETURN INVALID PUSH1 0x80 PUSH1 0x40 MSTORE CALLVALUE DUP1 ISZERO PUSH2 0x10 JUMPI PUSH1 0x0 DUP1 REVERT JUMPDEST POP PUSH1 0x4 CALLDATASIZE LT PUSH2 0x18E JUMPI PUSH1 0x0 CALLDATALOAD PUSH1 0xE0 SHR DUP1 PUSH4 0x790FB13D GT PUSH2 0xDE JUMPI DUP1 PUSH4 0xD3210403 GT PUSH2 0x97 JUMPI DUP1 PUSH4 0xDD39F00D GT PUSH2 0x71 JUMPI DUP1 PUSH4 0xDD39F00D EQ PUSH2 0x3A6 JUMPI DUP1 PUSH4 0xEE8C24B8 EQ PUSH2 0x3B9 JUMPI DUP1 PUSH4 0xF1A640F8 EQ PUSH2 0x3EC JUMPI DUP1 PUSH4 0xF2FDE38B EQ PUSH2 0x3F4 JUMPI PUSH1 0x0 DUP1 REVERT JUMPDEST DUP1 PUSH4 0xD3210403 EQ PUSH2 0x383 JUMPI DUP1 PUSH4 0xD4EE651B EQ PUSH2 0x38B JUMPI DUP1 PUSH4 0xDA6BAE10 EQ PUSH2 0x39E JUMPI PUSH1 0x0 DUP1 REVERT JUMPDEST DUP1 PUSH4 0x790FB13D EQ PUSH2 0x31E JUMPI DUP1 PUSH4 0x8456CB59 EQ PUSH2 0x331 JUMPI DUP1 PUSH4 0x8DA5CB5B EQ PUSH2 0x339 JUMPI DUP1 PUSH4 0x94002B57 EQ PUSH2 0x34A JUMPI DUP1 PUSH4 0xC34FE1DD EQ PUSH2 0x35D JUMPI DUP1 PUSH4 0xD02641A0 EQ PUSH2 0x370 JUMPI PUSH1 0x0 DUP1 REVERT JUMPDEST DUP1 PUSH4 0x445DF9D6 GT PUSH2 0x14B JUMPI DUP1 PUSH4 0x5300F841 GT PUSH2 0x125 JUMPI DUP1 PUSH4 0x5300F841 EQ PUSH2 0x2CE JUMPI DUP1 PUSH4 0x5C975ABB EQ PUSH2 0x2F1 JUMPI DUP1 PUSH4 0x60F0A5AC EQ PUSH2 0x303 JUMPI DUP1 PUSH4 0x715018A6 EQ PUSH2 0x316 JUMPI PUSH1 0x0 DUP1 REVERT JUMPDEST DUP1 PUSH4 0x445DF9D6 EQ PUSH2 0x276 JUMPI DUP1 PUSH4 0x4D3F9D3E EQ PUSH2 0x29E JUMPI DUP1 PUSH4 0x4E279B79 EQ PUSH2 0x2B1 JUMPI PUSH1 0x0 DUP1 REVERT JUMPDEST DUP1 PUSH4 0xBC16ABE EQ PUSH2 0x193 JUMPI DUP1 PUSH4 0x1688E5B9 EQ PUSH2 0x1A8 JUMPI DUP1 PUSH4 0x204120BC EQ PUSH2 0x1C4 JUMPI DUP1 PUSH4 0x38C21D1B EQ PUSH2 0x220 JUMPI DUP1 PUSH4 0x3F4BA83A EQ PUSH2 0x24B JUMPI DUP1 PUSH4 0x40947DF1 EQ PUSH2 0x253 JUMPI JUMPDEST PUSH1 0x0 DUP1 REVERT JUMPDEST PUSH2 0x1A6 PUSH2 0x1A1 CALLDATASIZE PUSH1 0x4 PUSH2 0xF63 JUMP JUMPDEST PUSH2 0x407 JUMP JUMPDEST STOP JUMPDEST PUSH2 0x1B1 PUSH1 0x6 SLOAD DUP2 JUMP JUMPDEST PUSH1 0x40 MLOAD SWAP1 DUP2 MSTORE PUSH1 0x20 ADD JUMPDEST PUSH1 0x40 MLOAD DUP1 SWAP2 SUB SWAP1 RETURN JUMPDEST PUSH2 0x1FC PUSH2 0x1D2 CALLDATASIZE PUSH1 0x4 PUSH2 0xFAB JUMP JUMPDEST PUSH1 0x4 PUSH1 0x20 MSTORE PUSH1 0x0 SWAP1 DUP2 MSTORE PUSH1 0x40 SWAP1 KECCAK256 DUP1 SLOAD PUSH1 0x1 DUP3 ADD SLOAD PUSH1 0x2 SWAP1 SWAP3 ADD SLOAD SWAP1 SWAP2 SWAP1 PUSH1 0x1 PUSH1 0x1 PUSH1 0xA0 SHL SUB AND DUP4 JUMP JUMPDEST PUSH1 0x40 DUP1 MLOAD SWAP4 DUP5 MSTORE PUSH1 0x20 DUP5 ADD SWAP3 SWAP1 SWAP3 MSTORE PUSH1 0x1 PUSH1 0x1 PUSH1 0xA0 SHL SUB AND SWAP1 DUP3 ADD MSTORE PUSH1 0x60 ADD PUSH2 0x1BB JUMP JUMPDEST PUSH1 0x3 SLOAD PUSH2 0x233 SWAP1 PUSH1 0x1 PUSH1 0x1 PUSH1 0xA0 SHL SUB AND DUP2 JUMP JUMPDEST PUSH1 0x40 MLOAD PUSH1 0x1 PUSH1 0x1 PUSH1 0xA0 SHL SUB SWAP1 SWAP2 AND DUP2 MSTORE PUSH1 0x20 ADD PUSH2 0x1BB JUMP JUMPDEST PUSH2 0x1A6 PUSH2 0x546 JUMP JUMPDEST PUSH2 0x266 PUSH2 0x261 CALLDATASIZE PUSH1 0x4 PUSH2 0xFCD JUMP JUMPDEST PUSH2 0x558 JUMP JUMPDEST PUSH1 0x40 MLOAD SWAP1 ISZERO ISZERO DUP2 MSTORE PUSH1 0x20 ADD PUSH2 0x1BB JUMP JUMPDEST PUSH2 0x27E PUSH2 0x5C8 JUMP JUMPDEST PUSH1 0x40 DUP1 MLOAD SWAP5 DUP6 MSTORE PUSH1 0x20 DUP6 ADD SWAP4 SWAP1 SWAP4 MSTORE SWAP2 DUP4 ADD MSTORE PUSH1 0x60 DUP3 ADD MSTORE PUSH1 0x80 ADD PUSH2 0x1BB JUMP JUMPDEST PUSH2 0x1A6 PUSH2 0x2AC CALLDATASIZE PUSH1 0x4 PUSH2 0xFF7 JUMP JUMPDEST PUSH2 0x6BF JUMP JUMPDEST PUSH2 0x2B9 PUSH2 0x7D9 JUMP JUMPDEST PUSH1 0x40 DUP1 MLOAD SWAP3 DUP4 MSTORE PUSH1 0x20 DUP4 ADD SWAP2 SWAP1 SWAP2 MSTORE ADD PUSH2 0x1BB JUMP JUMPDEST PUSH2 0x266 PUSH2 0x2DC CALLDATASIZE PUSH1 0x4 PUSH2 0xFAB JUMP JUMPDEST PUSH1 0x5 PUSH1 0x20 MSTORE PUSH1 0x0 SWAP1 DUP2 MSTORE PUSH1 0x40 SWAP1 KECCAK256 SLOAD PUSH1 0xFF AND DUP2 JUMP JUMPDEST PUSH1 0x0 SLOAD PUSH1 0x1 PUSH1 0xA0 SHL SWAP1 DIV PUSH1 0xFF AND PUSH2 0x266 JUMP JUMPDEST PUSH2 0x1A6 PUSH2 0x311 CALLDATASIZE PUSH1 0x4 PUSH2 0xFAB JUMP JUMPDEST PUSH2 0x7FB JUMP JUMPDEST PUSH2 0x1A6 PUSH2 0x84C JUMP JUMPDEST PUSH2 0x1A6 PUSH2 0x32C CALLDATASIZE PUSH1 0x4 PUSH2 0x103A JUMP JUMPDEST PUSH2 0x85E JUMP JUMPDEST PUSH2 0x1A6 PUSH2 0x8DF JUMP JUMPDEST PUSH1 0x0 SLOAD PUSH1 0x1 PUSH1 0x1 PUSH1 0xA0 SHL SUB AND PUSH2 0x233 JUMP JUMPDEST PUSH1 0x1 SLOAD PUSH2 0x233 SWAP1 PUSH1 0x1 PUSH1 0x1 PUSH1 0xA0 SHL SUB AND DUP2 JUMP JUMPDEST PUSH1 0x2 SLOAD PUSH2 0x233 SWAP1 PUSH1 0x1 PUSH1 0x1 PUSH1 0xA0 SHL SUB AND DUP2 JUMP JUMPDEST PUSH2 0x2B9 PUSH2 0x37E CALLDATASIZE PUSH1 0x4 PUSH2 0xFAB JUMP JUMPDEST PUSH2 0x8EF JUMP JUMPDEST PUSH2 0x2B9 PUSH2 0x938 JUMP JUMPDEST PUSH2 0x1A6 PUSH2 0x399 CALLDATASIZE PUSH1 0x4 PUSH2 0xFCD JUMP JUMPDEST PUSH2 0x952 JUMP JUMPDEST PUSH2 0x2B9 PUSH2 0xC5E JUMP JUMPDEST PUSH2 0x1A6 PUSH2 0x3B4 CALLDATASIZE PUSH1 0x4 PUSH2 0xFAB JUMP JUMPDEST PUSH2 0xC78 JUMP JUMPDEST PUSH1 0x1 SLOAD PUSH1 0x2 SLOAD PUSH1 0x3 SLOAD PUSH1 0x40 DUP1 MLOAD PUSH1 0x1 PUSH1 0x1 PUSH1 0xA0 SHL SUB SWAP5 DUP6 AND DUP2 MSTORE SWAP3 DUP5 AND PUSH1 0x20 DUP5 ADD MSTORE SWAP3 AND SWAP2 DUP2 ADD SWAP2 SWAP1 SWAP2 MSTORE PUSH1 0x60 ADD PUSH2 0x1BB JUMP JUMPDEST PUSH2 0x1B1 PUSH1 0x8 DUP2 JUMP JUMPDEST PUSH2 0x1A6 PUSH2 0x402 CALLDATASIZE PUSH1 0x4 PUSH2 0xFAB JUMP JUMPDEST PUSH2 0xD0B JUMP JUMPDEST PUSH2 0x40F PUSH2 0xD84 JUMP JUMPDEST PUSH1 0x1 SLOAD PUSH1 0x1 PUSH1 0x1 PUSH1 0xA0 SHL SUB AND ISZERO DUP1 ISZERO SWAP1 PUSH2 0x433 JUMPI POP PUSH1 0x2 SLOAD PUSH1 0x1 PUSH1 0x1 PUSH1 0xA0 SHL SUB AND ISZERO ISZERO JUMPDEST DUP1 ISZERO PUSH2 0x449 JUMPI POP PUSH1 0x3 SLOAD PUSH1 0x1 PUSH1 0x1 PUSH1 0xA0 SHL SUB AND ISZERO ISZERO JUMPDEST PUSH2 0x48B JUMPI PUSH1 0x40 MLOAD PUSH3 0x461BCD PUSH1 0xE5 SHL DUP2 MSTORE PUSH1 0x20 PUSH1 0x4 DUP3 ADD MSTORE PUSH1 0xE PUSH1 0x24 DUP3 ADD MSTORE PUSH14 0x151BDAD95B9CC81B9BDD081CD95D PUSH1 0x92 SHL PUSH1 0x44 DUP3 ADD MSTORE PUSH1 0x64 ADD JUMPDEST PUSH1 0x40 MLOAD DUP1 SWAP2 SUB SWAP1 REVERT JUMPDEST CALLER PUSH1 0x0 SWAP1 DUP2 MSTORE PUSH1 0x5 PUSH1 0x20 MSTORE PUSH1 0x40 SWAP1 KECCAK256 SLOAD PUSH1 0xFF AND DUP1 PUSH2 0x4C2 JUMPI POP CALLER PUSH2 0x4B7 PUSH1 0x0 SLOAD PUSH1 0x1 PUSH1 0x1 PUSH1 0xA0 SHL SUB AND SWAP1 JUMP JUMPDEST PUSH1 0x1 PUSH1 0x1 PUSH1 0xA0 SHL SUB AND EQ JUMPDEST PUSH2 0x4FF JUMPI PUSH1 0x40 MLOAD PUSH3 0x461BCD PUSH1 0xE5 SHL DUP2 MSTORE PUSH1 0x20 PUSH1 0x4 DUP3 ADD MSTORE PUSH1 0xE PUSH1 0x24 DUP3 ADD MSTORE PUSH14 0x139BDD08185D5D1A1BDC9A5E9959 PUSH1 0x92 SHL PUSH1 0x44 DUP3 ADD MSTORE PUSH1 0x64 ADD PUSH2 0x482 JUMP JUMPDEST PUSH1 0x1 SLOAD PUSH2 0x515 SWAP1 PUSH1 0x1 PUSH1 0x1 PUSH1 0xA0 SHL SUB AND DUP5 PUSH2 0x952 JUMP JUMPDEST PUSH1 0x2 SLOAD PUSH2 0x52B SWAP1 PUSH1 0x1 PUSH1 0x1 PUSH1 0xA0 SHL SUB AND DUP4 PUSH2 0x952 JUMP JUMPDEST PUSH1 0x3 SLOAD PUSH2 0x541 SWAP1 PUSH1 0x1 PUSH1 0x1 PUSH1 0xA0 SHL SUB AND DUP3 PUSH2 0x952 JUMP JUMPDEST POP POP POP JUMP JUMPDEST PUSH2 0x54E PUSH2 0xDD1 JUMP JUMPDEST PUSH2 0x556 PUSH2 0xE2B JUMP JUMPDEST JUMP JUMPDEST PUSH1 0x1 PUSH1 0x1 PUSH1 0xA0 SHL SUB DUP1 DUP4 AND PUSH1 0x0 SWAP1 DUP2 MSTORE PUSH1 0x4 PUSH1 0x20 SWAP1 DUP2 MSTORE PUSH1 0x40 DUP1 DUP4 KECCAK256 DUP2 MLOAD PUSH1 0x60 DUP2 ADD DUP4 MSTORE DUP2 SLOAD DUP2 MSTORE PUSH1 0x1 DUP3 ADD SLOAD SWAP4 DUP2 ADD DUP5 SWAP1 MSTORE PUSH1 0x2 SWAP1 SWAP2 ADD SLOAD SWAP1 SWAP5 AND SWAP1 DUP5 ADD MSTORE SWAP1 SWAP2 SWAP1 DUP3 SUB PUSH2 0x5AB JUMPI PUSH1 0x0 SWAP2 POP POP PUSH2 0x5C2 JUMP JUMPDEST DUP3 DUP2 PUSH1 0x20 ADD MLOAD TIMESTAMP PUSH2 0x5BC SWAP2 SWAP1 PUSH2 0x1069 JUMP JUMPDEST GT ISZERO SWAP2 POP POP JUMPDEST SWAP3 SWAP2 POP POP JUMP JUMPDEST PUSH1 0x1 DUP1 SLOAD PUSH1 0x1 PUSH1 0x1 PUSH1 0xA0 SHL SUB SWAP1 DUP2 AND PUSH1 0x0 SWAP1 DUP2 MSTORE PUSH1 0x4 PUSH1 0x20 DUP2 DUP2 MSTORE PUSH1 0x40 DUP1 DUP5 KECCAK256 DUP2 MLOAD PUSH1 0x60 DUP1 DUP3 ADD DUP5 MSTORE DUP3 SLOAD DUP3 MSTORE DUP3 DUP10 ADD SLOAD DUP3 DUP7 ADD SWAP1 DUP2 MSTORE PUSH1 0x2 SWAP4 DUP5 ADD SLOAD DUP10 AND DUP4 DUP7 ADD MSTORE DUP4 SLOAD DUP10 AND DUP9 MSTORE DUP7 DUP7 MSTORE DUP5 DUP9 KECCAK256 DUP6 MLOAD DUP1 DUP5 ADD DUP8 MSTORE DUP2 SLOAD DUP2 MSTORE DUP2 DUP13 ADD SLOAD DUP2 DUP10 ADD SWAP1 DUP2 MSTORE SWAP2 DUP7 ADD SLOAD DUP12 AND DUP2 DUP9 ADD MSTORE PUSH1 0x3 SLOAD DUP12 AND DUP11 MSTORE SWAP8 DUP8 MSTORE DUP6 DUP10 KECCAK256 DUP7 MLOAD SWAP4 DUP5 ADD DUP8 MSTORE DUP1 SLOAD DUP5 MSTORE SWAP11 DUP12 ADD SLOAD SWAP7 DUP4 ADD SWAP7 SWAP1 SWAP7 MSTORE SWAP9 SWAP1 SWAP3 ADD SLOAD SWAP1 SWAP7 AND SWAP2 DUP2 ADD SWAP2 SWAP1 SWAP2 MSTORE SWAP1 MLOAD SWAP5 MLOAD SWAP3 SWAP5 DUP6 SWAP5 DUP6 SWAP5 DUP6 SWAP5 SWAP2 SWAP4 SWAP2 SWAP3 DUP6 SWAP2 GT PUSH2 0x689 JUMPI DUP3 PUSH1 0x20 ADD MLOAD PUSH2 0x68F JUMP JUMPDEST DUP4 PUSH1 0x20 ADD MLOAD JUMPDEST SWAP1 POP DUP1 DUP3 PUSH1 0x20 ADD MLOAD GT PUSH2 0x6A2 JUMPI DUP1 PUSH2 0x6A8 JUMP JUMPDEST DUP2 PUSH1 0x20 ADD MLOAD JUMPDEST SWAP4 MLOAD SWAP3 MLOAD SWAP2 MLOAD SWAP3 SWAP9 SWAP2 SWAP8 POP SWAP2 SWAP6 POP SWAP2 SWAP4 POP SWAP1 SWAP2 POP POP JUMP JUMPDEST PUSH2 0x6C7 PUSH2 0xDD1 JUMP JUMPDEST PUSH1 0x1 SLOAD PUSH1 0x1 PUSH1 0x1 PUSH1 0xA0 SHL SUB AND ISZERO DUP1 ISZERO PUSH2 0x6E8 JUMPI POP PUSH1 0x1 PUSH1 0x1 PUSH1 0xA0 SHL SUB DUP4 AND ISZERO ISZERO JUMPDEST DUP1 ISZERO PUSH2 0x6FC JUMPI POP PUSH1 0x1 PUSH1 0x1 PUSH1 0xA0 SHL SUB DUP3 AND ISZERO ISZERO JUMPDEST DUP1 ISZERO PUSH2 0x710 JUMPI POP PUSH1 0x1 PUSH1 0x1 PUSH1 0xA0 SHL SUB DUP2 AND ISZERO ISZERO JUMPDEST PUSH2 0x755 JUMPI PUSH1 0x40 MLOAD PUSH3 0x461BCD PUSH1 0xE5 SHL DUP2 MSTORE PUSH1 0x20 PUSH1 0x4 DUP3 ADD MSTORE PUSH1 0x16 PUSH1 0x24 DUP3 ADD MSTORE PUSH22 0x125B9D985B1A59081BDC88185B1C9958591E481CD95D PUSH1 0x52 SHL PUSH1 0x44 DUP3 ADD MSTORE PUSH1 0x64 ADD PUSH2 0x482 JUMP JUMPDEST PUSH1 0x1 DUP1 SLOAD PUSH1 0x1 PUSH1 0x1 PUSH1 0xA0 SHL SUB DUP6 DUP2 AND PUSH1 0x1 PUSH1 0x1 PUSH1 0xA0 SHL SUB NOT SWAP3 DUP4 AND DUP2 OR SWAP1 SWAP4 SSTORE PUSH1 0x2 DUP1 SLOAD DUP7 DUP4 AND SWAP1 DUP5 AND DUP2 OR SWAP1 SWAP2 SSTORE PUSH1 0x3 DUP1 SLOAD SWAP3 DUP7 AND SWAP3 SWAP1 SWAP4 AND DUP3 OR SWAP1 SWAP3 SSTORE PUSH1 0x40 DUP1 MLOAD SWAP4 DUP5 MSTORE PUSH1 0x20 DUP5 ADD SWAP3 SWAP1 SWAP3 MSTORE SWAP1 DUP3 ADD MSTORE PUSH32 0x5B298D21A3F20895E495BF3DCB889649B4381249A094782F2C49E9F5D015B9C5 SWAP1 PUSH1 0x60 ADD PUSH1 0x40 MLOAD DUP1 SWAP2 SUB SWAP1 LOG1 POP POP POP JUMP JUMPDEST PUSH1 0x2 SLOAD PUSH1 0x0 SWAP1 DUP2 SWAP1 PUSH2 0x7F3 SWAP1 PUSH1 0x1 PUSH1 0x1 PUSH1 0xA0 SHL SUB AND PUSH2 0x8EF JUMP JUMPDEST SWAP2 POP SWAP2 POP SWAP1 SWAP2 JUMP JUMPDEST PUSH2 0x803 PUSH2 0xDD1 JUMP JUMPDEST PUSH1 0x1 PUSH1 0x1 PUSH1 0xA0 SHL SUB DUP2 AND PUSH1 0x0 DUP2 DUP2 MSTORE PUSH1 0x5 PUSH1 0x20 MSTORE PUSH1 0x40 DUP1 DUP3 KECCAK256 DUP1 SLOAD PUSH1 0xFF NOT AND SWAP1 SSTORE MLOAD PUSH32 0x10E1F7CE9FD7D1B90A66D13A2AB3CB8DD7F29F3F8D520B143B063CCFBAB6906B SWAP2 SWAP1 LOG2 POP JUMP JUMPDEST PUSH2 0x854 PUSH2 0xDD1 JUMP JUMPDEST PUSH2 0x556 PUSH1 0x0 PUSH2 0xE80 JUMP JUMPDEST PUSH2 0x866 PUSH2 0xDD1 JUMP JUMPDEST PUSH2 0x2710 DUP2 GT ISZERO PUSH2 0x8A4 JUMPI PUSH1 0x40 MLOAD PUSH3 0x461BCD PUSH1 0xE5 SHL DUP2 MSTORE PUSH1 0x20 PUSH1 0x4 DUP3 ADD MSTORE PUSH1 0x9 PUSH1 0x24 DUP3 ADD MSTORE PUSH9 0x6270733E313030303 PUSH1 0xBC SHL PUSH1 0x44 DUP3 ADD MSTORE PUSH1 0x64 ADD PUSH2 0x482 JUMP JUMPDEST PUSH1 0x6 DUP2 SWAP1 SSTORE PUSH1 0x40 MLOAD DUP2 DUP2 MSTORE PUSH32 0x44AB1D93E41D4B41F280E9E25D9F9AA7260EB839E0D9F7EEA5CA2C0823C7BA20 SWAP1 PUSH1 0x20 ADD PUSH1 0x40 MLOAD DUP1 SWAP2 SUB SWAP1 LOG1 POP JUMP JUMPDEST PUSH2 0x8E7 PUSH2 0xDD1 JUMP JUMPDEST PUSH2 0x556 PUSH2 0xED0 JUMP JUMPDEST PUSH1 0x1 PUSH1 0x1 PUSH1 0xA0 SHL SUB SWAP1 DUP2 AND PUSH1 0x0 SWAP1 DUP2 MSTORE PUSH1 0x4 PUSH1 0x20 SWAP1 DUP2 MSTORE PUSH1 0x40 SWAP2 DUP3 SWAP1 KECCAK256 DUP3 MLOAD PUSH1 0x60 DUP2 ADD DUP5 MSTORE DUP2 SLOAD DUP1 DUP3 MSTORE PUSH1 0x1 DUP4 ADD SLOAD SWAP4 DUP3 ADD DUP5 SWAP1 MSTORE PUSH1 0x2 SWAP1 SWAP3 ADD SLOAD SWAP1 SWAP5 AND SWAP4 SWAP1 SWAP3 ADD SWAP3 SWAP1 SWAP3 MSTORE SWAP2 JUMP JUMPDEST PUSH1 0x3 SLOAD PUSH1 0x0 SWAP1 DUP2 SWAP1 PUSH2 0x7F3 SWAP1 PUSH1 0x1 PUSH1 0x1 PUSH1 0xA0 SHL SUB AND PUSH2 0x8EF JUMP JUMPDEST PUSH2 0x95A PUSH2 0xD84 JUMP JUMPDEST PUSH1 0x1 SLOAD PUSH1 0x1 PUSH1 0x1 PUSH1 0xA0 SHL SUB DUP4 DUP2 AND SWAP2 AND EQ DUP1 PUSH2 0x983 JUMPI POP PUSH1 0x2 SLOAD PUSH1 0x1 PUSH1 0x1 PUSH1 0xA0 SHL SUB DUP4 DUP2 AND SWAP2 AND EQ JUMPDEST DUP1 PUSH2 0x99B JUMPI POP PUSH1 0x3 SLOAD PUSH1 0x1 PUSH1 0x1 PUSH1 0xA0 SHL SUB DUP4 DUP2 AND SWAP2 AND EQ JUMPDEST PUSH2 0x9D7 JUMPI PUSH1 0x40 MLOAD PUSH3 0x461BCD PUSH1 0xE5 SHL DUP2 MSTORE PUSH1 0x20 PUSH1 0x4 DUP3 ADD MSTORE PUSH1 0xD PUSH1 0x24 DUP3 ADD MSTORE PUSH13 0x24B73B30B634B2103A37B5B2B7 PUSH1 0x99 SHL PUSH1 0x44 DUP3 ADD MSTORE PUSH1 0x64 ADD PUSH2 0x482 JUMP JUMPDEST PUSH1 0x0 DUP2 GT PUSH2 0xA11 JUMPI PUSH1 0x40 MLOAD PUSH3 0x461BCD PUSH1 0xE5 SHL DUP2 MSTORE PUSH1 0x20 PUSH1 0x4 DUP3 ADD MSTORE PUSH1 0x7 PUSH1 0x24 DUP3 ADD MSTORE PUSH7 0x50726963653E3 PUSH1 0xCC SHL PUSH1 0x44 DUP3 ADD MSTORE PUSH1 0x64 ADD PUSH2 0x482 JUMP JUMPDEST CALLER PUSH1 0x0 SWAP1 DUP2 MSTORE PUSH1 0x5 PUSH1 0x20 MSTORE PUSH1 0x40 SWAP1 KECCAK256 SLOAD PUSH1 0xFF AND DUP1 PUSH2 0xA48 JUMPI POP CALLER PUSH2 0xA3D PUSH1 0x0 SLOAD PUSH1 0x1 PUSH1 0x1 PUSH1 0xA0 SHL SUB AND SWAP1 JUMP JUMPDEST PUSH1 0x1 PUSH1 0x1 PUSH1 0xA0 SHL SUB AND EQ JUMPDEST PUSH2 0xA85 JUMPI PUSH1 0x40 MLOAD PUSH3 0x461BCD PUSH1 0xE5 SHL DUP2 MSTORE PUSH1 0x20 PUSH1 0x4 DUP3 ADD MSTORE PUSH1 0xE PUSH1 0x24 DUP3 ADD MSTORE PUSH14 0x139BDD08185D5D1A1BDC9A5E9959 PUSH1 0x92 SHL PUSH1 0x44 DUP3 ADD MSTORE PUSH1 0x64 ADD PUSH2 0x482 JUMP JUMPDEST PUSH1 0x1 PUSH1 0x1 PUSH1 0xA0 SHL SUB DUP1 DUP4 AND PUSH1 0x0 SWAP1 DUP2 MSTORE PUSH1 0x4 PUSH1 0x20 SWAP1 DUP2 MSTORE PUSH1 0x40 SWAP2 DUP3 SWAP1 KECCAK256 DUP3 MLOAD PUSH1 0x60 DUP2 ADD DUP5 MSTORE DUP2 SLOAD DUP2 MSTORE PUSH1 0x1 DUP3 ADD SLOAD SWAP3 DUP2 ADD DUP4 SWAP1 MSTORE PUSH1 0x2 SWAP1 SWAP2 ADD SLOAD SWAP1 SWAP4 AND SWAP2 DUP4 ADD SWAP2 SWAP1 SWAP2 MSTORE ISZERO PUSH2 0xBBE JUMPI DUP1 MLOAD DUP1 ISZERO PUSH2 0xBBC JUMPI DUP1 DUP4 GT ISZERO PUSH2 0xB4F JUMPI PUSH1 0x0 PUSH2 0xAEA DUP3 DUP6 PUSH2 0x1069 JUMP JUMPDEST SWAP1 POP PUSH1 0x6 SLOAD DUP3 PUSH2 0xAFA SWAP2 SWAP1 PUSH2 0x107C JUMP JUMPDEST PUSH2 0xB06 DUP3 PUSH2 0x2710 PUSH2 0x107C JUMP JUMPDEST GT ISZERO PUSH2 0xB49 JUMPI PUSH1 0x40 MLOAD PUSH3 0x461BCD PUSH1 0xE5 SHL DUP2 MSTORE PUSH1 0x20 PUSH1 0x4 DUP3 ADD MSTORE PUSH1 0x12 PUSH1 0x24 DUP3 ADD MSTORE PUSH18 0x496E63726561736520746F6F206C61726765 PUSH1 0x70 SHL PUSH1 0x44 DUP3 ADD MSTORE PUSH1 0x64 ADD PUSH2 0x482 JUMP JUMPDEST POP PUSH2 0xBBC JUMP JUMPDEST PUSH1 0x0 PUSH2 0xB5B DUP5 DUP4 PUSH2 0x1069 JUMP JUMPDEST SWAP1 POP PUSH1 0x6 SLOAD DUP3 PUSH2 0xB6B SWAP2 SWAP1 PUSH2 0x107C JUMP JUMPDEST PUSH2 0xB77 DUP3 PUSH2 0x2710 PUSH2 0x107C JUMP JUMPDEST GT ISZERO PUSH2 0xBBA JUMPI PUSH1 0x40 MLOAD PUSH3 0x461BCD PUSH1 0xE5 SHL DUP2 MSTORE PUSH1 0x20 PUSH1 0x4 DUP3 ADD MSTORE PUSH1 0x12 PUSH1 0x24 DUP3 ADD MSTORE PUSH18 0x446563726561736520746F6F206C61726765 PUSH1 0x70 SHL PUSH1 0x44 DUP3 ADD MSTORE PUSH1 0x64 ADD PUSH2 0x482 JUMP JUMPDEST POP JUMPDEST POP JUMPDEST PUSH1 0x40 DUP1 MLOAD PUSH1 0x60 DUP1 DUP3 ADD DUP4 MSTORE DUP5 DUP3 MSTORE TIMESTAMP PUSH1 0x20 DUP1 DUP5 ADD DUP3 DUP2 MSTORE CALLER DUP6 DUP8 ADD DUP2 DUP2 MSTORE PUSH1 0x1 PUSH1 0x1 PUSH1 0xA0 SHL SUB DUP12 DUP2 AND PUSH1 0x0 DUP2 DUP2 MSTORE PUSH1 0x4 DUP8 MSTORE DUP11 SWAP1 KECCAK256 SWAP9 MLOAD DUP10 SSTORE SWAP4 MLOAD PUSH1 0x1 DUP10 ADD SSTORE SWAP1 MLOAD PUSH1 0x2 SWAP1 SWAP8 ADD DUP1 SLOAD PUSH1 0x1 PUSH1 0x1 PUSH1 0xA0 SHL SUB NOT AND SWAP8 SWAP1 SWAP2 AND SWAP7 SWAP1 SWAP7 OR SWAP1 SWAP6 SSTORE DUP6 MLOAD DUP9 DUP2 MSTORE SWAP2 DUP3 ADD SWAP5 SWAP1 SWAP5 MSTORE SWAP4 DUP5 ADD MSTORE SWAP1 SWAP2 PUSH32 0xC71C2E178D54F3A46742671FCBBDBBADE697D8F5A8647B18268E5087918C375D SWAP2 ADD PUSH1 0x40 MLOAD DUP1 SWAP2 SUB SWAP1 LOG2 POP POP POP JUMP JUMPDEST PUSH1 0x1 SLOAD PUSH1 0x0 SWAP1 DUP2 SWAP1 PUSH2 0x7F3 SWAP1 PUSH1 0x1 PUSH1 0x1 PUSH1 0xA0 SHL SUB AND PUSH2 0x8EF JUMP JUMPDEST PUSH2 0xC80 PUSH2 0xDD1 JUMP JUMPDEST PUSH1 0x1 PUSH1 0x1 PUSH1 0xA0 SHL SUB DUP2 AND PUSH2 0xCBF JUMPI PUSH1 0x40 MLOAD PUSH3 0x461BCD PUSH1 0xE5 SHL DUP2 MSTORE PUSH1 0x4 ADD PUSH2 0x482 SWAP1 PUSH1 0x20 DUP1 DUP3 MSTORE PUSH1 0x4 SWAP1 DUP3 ADD MSTORE PUSH4 0x7A65726F PUSH1 0xE0 SHL PUSH1 0x40 DUP3 ADD MSTORE PUSH1 0x60 ADD SWAP1 JUMP JUMPDEST PUSH1 0x1 PUSH1 0x1 PUSH1 0xA0 SHL SUB DUP2 AND PUSH1 0x0 DUP2 DUP2 MSTORE PUSH1 0x5 PUSH1 0x20 MSTORE PUSH1 0x40 DUP1 DUP3 KECCAK256 DUP1 SLOAD PUSH1 0xFF NOT AND PUSH1 0x1 OR SWAP1 SSTORE MLOAD PUSH32 0x3580EE9F53A62B7CB409A2CB56F9BE87747DD15017AFC5CEF6EEF321E4FB2C5 SWAP2 SWAP1 LOG2 POP JUMP JUMPDEST PUSH2 0xD13 PUSH2 0xDD1 JUMP JUMPDEST PUSH1 0x1 PUSH1 0x1 PUSH1 0xA0 SHL SUB DUP2 AND PUSH2 0xD78 JUMPI PUSH1 0x40 MLOAD PUSH3 0x461BCD PUSH1 0xE5 SHL DUP2 MSTORE PUSH1 0x20 PUSH1 0x4 DUP3 ADD MSTORE PUSH1 0x26 PUSH1 0x24 DUP3 ADD MSTORE PUSH32 0x4F776E61626C653A206E6577206F776E657220697320746865207A65726F2061 PUSH1 0x44 DUP3 ADD MSTORE PUSH6 0x646472657373 PUSH1 0xD0 SHL PUSH1 0x64 DUP3 ADD MSTORE PUSH1 0x84 ADD PUSH2 0x482 JUMP JUMPDEST PUSH2 0xD81 DUP2 PUSH2 0xE80 JUMP JUMPDEST POP JUMP JUMPDEST PUSH1 0x0 SLOAD PUSH1 0x1 PUSH1 0xA0 SHL SWAP1 DIV PUSH1 0xFF AND ISZERO PUSH2 0x556 JUMPI PUSH1 0x40 MLOAD PUSH3 0x461BCD PUSH1 0xE5 SHL DUP2 MSTORE PUSH1 0x20 PUSH1 0x4 DUP3 ADD MSTORE PUSH1 0x10 PUSH1 0x24 DUP3 ADD MSTORE PUSH16 0x14185D5CD8589B194E881C185D5CD959 PUSH1 0x82 SHL PUSH1 0x44 DUP3 ADD MSTORE PUSH1 0x64 ADD PUSH2 0x482 JUMP JUMPDEST PUSH1 0x0 SLOAD PUSH1 0x1 PUSH1 0x1 PUSH1 0xA0 SHL SUB AND CALLER EQ PUSH2 0x556 JUMPI PUSH1 0x40 MLOAD PUSH3 0x461BCD PUSH1 0xE5 SHL DUP2 MSTORE PUSH1 0x20 PUSH1 0x4 DUP3 ADD DUP2 SWAP1 MSTORE PUSH1 0x24 DUP3 ADD MSTORE PUSH32 0x4F776E61626C653A2063616C6C6572206973206E6F7420746865206F776E6572 PUSH1 0x44 DUP3 ADD MSTORE PUSH1 0x64 ADD PUSH2 0x482 JUMP JUMPDEST PUSH2 0xE33 PUSH2 0xF13 JUMP JUMPDEST PUSH1 0x0 DUP1 SLOAD PUSH1 0xFF PUSH1 0xA0 SHL NOT AND SWAP1 SSTORE PUSH32 0x5DB9EE0A495BF2E6FF9C91A7834C1BA4FDD244A5E8AA4E537BD38AEAE4B073AA CALLER JUMPDEST PUSH1 0x40 MLOAD PUSH1 0x1 PUSH1 0x1 PUSH1 0xA0 SHL SUB SWAP1 SWAP2 AND DUP2 MSTORE PUSH1 0x20 ADD PUSH1 0x40 MLOAD DUP1 SWAP2 SUB SWAP1 LOG1 JUMP JUMPDEST PUSH1 0x0 DUP1 SLOAD PUSH1 0x1 PUSH1 0x1 PUSH1 0xA0 SHL SUB DUP4 DUP2 AND PUSH1 0x1 PUSH1 0x1 PUSH1 0xA0 SHL SUB NOT DUP4 AND DUP2 OR DUP5 SSTORE PUSH1 0x40 MLOAD SWAP2 SWAP1 SWAP3 AND SWAP3 DUP4 SWAP2 PUSH32 0x8BE0079C531659141344CD1FD0A4F28419497F9722A3DAAFE3B4186F6B6457E0 SWAP2 SWAP1 LOG3 POP POP JUMP JUMPDEST PUSH2 0xED8 PUSH2 0xD84 JUMP JUMPDEST PUSH1 0x0 DUP1 SLOAD PUSH1 0xFF PUSH1 0xA0 SHL NOT AND PUSH1 0x1 PUSH1 0xA0 SHL OR SWAP1 SSTORE PUSH32 0x62E78CEA01BEE320CD4E420270B5EA74000D11B0C9F74754EBDBFC544B05A258 PUSH2 0xE63 CALLER SWAP1 JUMP JUMPDEST PUSH1 0x0 SLOAD PUSH1 0x1 PUSH1 0xA0 SHL SWAP1 DIV PUSH1 0xFF AND PUSH2 0x556 JUMPI PUSH1 0x40 MLOAD PUSH3 0x461BCD PUSH1 0xE5 SHL DUP2 MSTORE PUSH1 0x20 PUSH1 0x4 DUP3 ADD MSTORE PUSH1 0x14 PUSH1 0x24 DUP3 ADD MSTORE PUSH20 0x14185D5CD8589B194E881B9BDD081C185D5CD959 PUSH1 0x62 SHL PUSH1 0x44 DUP3 ADD MSTORE PUSH1 0x64 ADD PUSH2 0x482 JUMP JUMPDEST PUSH1 0x0 DUP1 PUSH1 0x0 PUSH1 0x60 DUP5 DUP7 SUB SLT ISZERO PUSH2 0xF78 JUMPI PUSH1 0x0 DUP1 REVERT JUMPDEST POP POP DUP2 CALLDATALOAD SWAP4 PUSH1 0x20 DUP4 ADD CALLDATALOAD SWAP4 POP PUSH1 0x40 SWAP1 SWAP3 ADD CALLDATALOAD SWAP2 SWAP1 POP JUMP JUMPDEST DUP1 CALLDATALOAD PUSH1 0x1 PUSH1 0x1 PUSH1 0xA0 SHL SUB DUP2 AND DUP2 EQ PUSH2 0xFA6 JUMPI PUSH1 0x0 DUP1 REVERT JUMPDEST SWAP2 SWAP1 POP JUMP JUMPDEST PUSH1 0x0 PUSH1 0x20 DUP3 DUP5 SUB SLT ISZERO PUSH2 0xFBD JUMPI PUSH1 0x0 DUP1 REVERT JUMPDEST PUSH2 0xFC6 DUP3 PUSH2 0xF8F JUMP JUMPDEST SWAP4 SWAP3 POP POP POP JUMP JUMPDEST PUSH1 0x0 DUP1 PUSH1 0x40 DUP4 DUP6 SUB SLT ISZERO PUSH2 0xFE0 JUMPI PUSH1 0x0 DUP1 REVERT JUMPDEST PUSH2 0xFE9 DUP4 PUSH2 0xF8F JUMP JUMPDEST SWAP5 PUSH1 0x20 SWAP4 SWAP1 SWAP4 ADD CALLDATALOAD SWAP4 POP POP POP JUMP JUMPDEST PUSH1 0x0 DUP1 PUSH1 0x0 PUSH1 0x60 DUP5 DUP7 SUB SLT ISZERO PUSH2 0x100C JUMPI PUSH1 0x0 DUP1 REVERT JUMPDEST PUSH2 0x1015 DUP5 PUSH2 0xF8F JUMP JUMPDEST SWAP3 POP PUSH2 0x1023 PUSH1 0x20 DUP6 ADD PUSH2 0xF8F JUMP JUMPDEST SWAP2 POP PUSH2 0x1031 PUSH1 0x40 DUP6 ADD PUSH2 0xF8F JUMP JUMPDEST SWAP1 POP SWAP3 POP SWAP3 POP SWAP3 JUMP JUMPDEST PUSH1 0x0 PUSH1 0x20 DUP3 DUP5 SUB SLT ISZERO PUSH2 0x104C JUMPI PUSH1 0x0 DUP1 REVERT JUMPDEST POP CALLDATALOAD SWAP2 SWAP1 POP JUMP JUMPDEST PUSH4 0x4E487B71 PUSH1 0xE0 SHL PUSH1 0x0 MSTORE PUSH1 0x11 PUSH1 0x4 MSTORE PUSH1 0x24 PUSH1 0x0 REVERT JUMPDEST DUP2 DUP2 SUB DUP2 DUP2 GT ISZERO PUSH2 0x5C2 JUMPI PUSH2 0x5C2 PUSH2 0x1053 JUMP JUMPDEST DUP1 DUP3 MUL DUP2 ISZERO DUP3 DUP3 DIV DUP5 EQ OR PUSH2 0x5C2 JUMPI PUSH2 0x5C2 PUSH2 0x1053 JUMP INVALID LOG2 PUSH5 0x6970667358 0x22 SLT KECCAK256 0xCA SWAP14 0xE SWAP6 0xBF 0xA9 SWAP3 0xC7 0x4F 0xC4 0xF7 0xCF 0xE0 TIMESTAMP RETURNDATASIZE RETURNDATASIZE 0xB1 LOG0 BLOBHASH 0xDD DUP6 0x29 0x4E SWAP13 SWAP11 PUSH26 0x7D97954F876564736F6C634300081C0033000000000000000000 "},"methodIdentifiers":{"PRICE_DECIMALS()":"f1a640f8","addRelayer(address)":"dd39f00d","getAllPrices()":"445df9d6","getGoldPrice()":"da6bae10","getRarePrice()":"d3210403","getSilverPrice()":"4e279b79","getTokenAddresses()":"ee8c24b8","getTokenPrice(address)":"d02641a0","goldToken()":"94002b57","isPriceRecent(address,uint256)":"40947df1","maxChangeBps()":"1688e5b9","owner()":"8da5cb5b","pause()":"8456cb59","paused()":"5c975abb","rareToken()":"38c21d1b","relayers(address)":"5300f841","removeRelayer(address)":"60f0a5ac","renounceOwnership()":"715018a6","setMaxChangeBps(uint256)":"790fb13d","setTokenAddresses(address,address,address)":"4d3f9d3e","silverToken()":"c34fe1dd","tokenPrices(address)":"204120bc","transferOwnership(address)":"f2fde38b","unpause()":"3f4ba83a","updateAllPrices(uint256,uint256,uint256)":"0bc16abe","updateTokenPrice(address,uint256)":"d4ee651b"}}}}}