{"contracts/EMN/EMN.sol":{"EminarToken":{"abi":[{"inputs":[{"internalType":"string","name":"name_","type":"string"},{"internalType":"string","name":"symbol_","type":"string"},{"internalType":"address","name":"publicAddr_","type":"address"},{"internalType":"address","name":"reserveAddr_","type":"address"},{"internalType":"address","name":"devAddr_","type":"address"},{"internalType":"address","name":"shariaAddr_","type":"address"},{"internalType":"address","name":"strategicAddr_","type":"address"},{"internalType":"address","name":"governanceMultisig_","type":"address"}],"stateMutability":"nonpayable","type":"constructor"},{"inputs":[],"name":"InvalidShortString","type":"error"},{"inputs":[{"internalType":"string","name":"str","type":"string"}],"name":"StringTooLong","type":"error"},{"anonymous":false,"inputs":[{"indexed":true,"internalType":"address","name":"owner","type":"address"},{"indexed":true,"internalType":"address","name":"spender","type":"address"},{"indexed":false,"internalType":"uint256","name":"value","type":"uint256"}],"name":"Approval","type":"event"},{"anonymous":false,"inputs":[{"indexed":true,"internalType":"enum EminarToken.BackingAsset","name":"asset","type":"uint8"},{"indexed":false,"internalType":"uint256","name":"priceUSD","type":"uint256"}],"name":"AssetPriceUpdated","type":"event"},{"anonymous":false,"inputs":[{"indexed":true,"internalType":"enum EminarToken.BackingAsset","name":"asset","type":"uint8"},{"indexed":true,"internalType":"address","name":"from","type":"address"},{"indexed":false,"internalType":"uint256","name":"amount","type":"uint256"}],"name":"BackingDeposited","type":"event"},{"anonymous":false,"inputs":[{"indexed":true,"internalType":"enum EminarToken.BackingAsset","name":"asset","type":"uint8"},{"indexed":false,"internalType":"address","name":"token","type":"address"}],"name":"BackingTokenRegistered","type":"event"},{"anonymous":false,"inputs":[{"indexed":true,"internalType":"enum EminarToken.BackingAsset","name":"asset","type":"uint8"},{"indexed":true,"internalType":"address","name":"to","type":"address"},{"indexed":false,"internalType":"uint256","name":"amount","type":"uint256"}],"name":"BackingWithdrawn","type":"event"},{"anonymous":false,"inputs":[{"indexed":true,"internalType":"address","name":"delegator","type":"address"},{"indexed":true,"internalType":"address","name":"fromDelegate","type":"address"},{"indexed":true,"internalType":"address","name":"toDelegate","type":"address"}],"name":"DelegateChanged","type":"event"},{"anonymous":false,"inputs":[{"indexed":true,"internalType":"address","name":"delegate","type":"address"},{"indexed":false,"internalType":"uint256","name":"previousBalance","type":"uint256"},{"indexed":false,"internalType":"uint256","name":"newBalance","type":"uint256"}],"name":"DelegateVotesChanged","type":"event"},{"anonymous":false,"inputs":[],"name":"EIP712DomainChanged","type":"event"},{"anonymous":false,"inputs":[{"indexed":false,"internalType":"address","name":"account","type":"address"}],"name":"Paused","type":"event"},{"anonymous":false,"inputs":[{"indexed":true,"internalType":"bytes32","name":"role","type":"bytes32"},{"indexed":true,"internalType":"bytes32","name":"previousAdminRole","type":"bytes32"},{"indexed":true,"internalType":"bytes32","name":"newAdminRole","type":"bytes32"}],"name":"RoleAdminChanged","type":"event"},{"anonymous":false,"inputs":[{"indexed":true,"internalType":"bytes32","name":"role","type":"bytes32"},{"indexed":true,"internalType":"address","name":"account","type":"address"},{"indexed":true,"internalType":"address","name":"sender","type":"address"}],"name":"RoleGranted","type":"event"},{"anonymous":false,"inputs":[{"indexed":true,"internalType":"bytes32","name":"role","type":"bytes32"},{"indexed":true,"internalType":"address","name":"account","type":"address"},{"indexed":true,"internalType":"address","name":"sender","type":"address"}],"name":"RoleRevoked","type":"event"},{"anonymous":false,"inputs":[{"indexed":true,"internalType":"address","name":"from","type":"address"},{"indexed":true,"internalType":"address","name":"to","type":"address"},{"indexed":false,"internalType":"uint256","name":"value","type":"uint256"}],"name":"Transfer","type":"event"},{"anonymous":false,"inputs":[{"indexed":false,"internalType":"address","name":"account","type":"address"}],"name":"Unpaused","type":"event"},{"inputs":[],"name":"BACKING_MANAGER_ROLE","outputs":[{"internalType":"bytes32","name":"","type":"bytes32"}],"stateMutability":"view","type":"function"},{"inputs":[],"name":"CLOCK_MODE","outputs":[{"internalType":"string","name":"","type":"string"}],"stateMutability":"view","type":"function"},{"inputs":[],"name":"DEFAULT_ADMIN_ROLE","outputs":[{"internalType":"bytes32","name":"","type":"bytes32"}],"stateMutability":"view","type":"function"},{"inputs":[],"name":"DOMAIN_SEPARATOR","outputs":[{"internalType":"bytes32","name":"","type":"bytes32"}],"stateMutability":"view","type":"function"},{"inputs":[],"name":"GOVERNANCE_ROLE","outputs":[{"internalType":"bytes32","name":"","type":"bytes32"}],"stateMutability":"view","type":"function"},{"inputs":[],"name":"MINTER_ROLE","outputs":[{"internalType":"bytes32","name":"","type":"bytes32"}],"stateMutability":"view","type":"function"},{"inputs":[],"name":"PAUSER_ROLE","outputs":[{"internalType":"bytes32","name":"","type":"bytes32"}],"stateMutability":"view","type":"function"},{"inputs":[],"name":"RECOVERY_ROLE","outputs":[{"internalType":"bytes32","name":"","type":"bytes32"}],"stateMutability":"view","type":"function"},{"inputs":[],"name":"TOTAL_SUPPLY","outputs":[{"internalType":"uint256","name":"","type":"uint256"}],"stateMutability":"view","type":"function"},{"inputs":[{"internalType":"address","name":"owner","type":"address"},{"internalType":"address","name":"spender","type":"address"}],"name":"allowance","outputs":[{"internalType":"uint256","name":"","type":"uint256"}],"stateMutability":"view","type":"function"},{"inputs":[{"internalType":"address","name":"spender","type":"address"},{"internalType":"uint256","name":"amount","type":"uint256"}],"name":"approve","outputs":[{"internalType":"bool","name":"","type":"bool"}],"stateMutability":"nonpayable","type":"function"},{"inputs":[],"name":"backingPerTokenUSD","outputs":[{"internalType":"uint256","name":"","type":"uint256"}],"stateMutability":"view","type":"function"},{"inputs":[{"internalType":"address","name":"account","type":"address"}],"name":"balanceOf","outputs":[{"internalType":"uint256","name":"","type":"uint256"}],"stateMutability":"view","type":"function"},{"inputs":[{"internalType":"address","name":"account","type":"address"},{"internalType":"uint32","name":"pos","type":"uint32"}],"name":"checkpoints","outputs":[{"components":[{"internalType":"uint32","name":"fromBlock","type":"uint32"},{"internalType":"uint224","name":"votes","type":"uint224"}],"internalType":"struct ERC20Votes.Checkpoint","name":"","type":"tuple"}],"stateMutability":"view","type":"function"},{"inputs":[],"name":"clock","outputs":[{"internalType":"uint48","name":"","type":"uint48"}],"stateMutability":"view","type":"function"},{"inputs":[],"name":"decimals","outputs":[{"internalType":"uint8","name":"","type":"uint8"}],"stateMutability":"pure","type":"function"},{"inputs":[{"internalType":"address","name":"spender","type":"address"},{"internalType":"uint256","name":"subtractedValue","type":"uint256"}],"name":"decreaseAllowance","outputs":[{"internalType":"bool","name":"","type":"bool"}],"stateMutability":"nonpayable","type":"function"},{"inputs":[{"internalType":"address","name":"delegatee","type":"address"}],"name":"delegate","outputs":[],"stateMutability":"nonpayable","type":"function"},{"inputs":[{"internalType":"address","name":"delegatee","type":"address"},{"internalType":"uint256","name":"nonce","type":"uint256"},{"internalType":"uint256","name":"expiry","type":"uint256"},{"internalType":"uint8","name":"v","type":"uint8"},{"internalType":"bytes32","name":"r","type":"bytes32"},{"internalType":"bytes32","name":"s","type":"bytes32"}],"name":"delegateBySig","outputs":[],"stateMutability":"nonpayable","type":"function"},{"inputs":[{"internalType":"address","name":"account","type":"address"}],"name":"delegates","outputs":[{"internalType":"address","name":"","type":"address"}],"stateMutability":"view","type":"function"},{"inputs":[{"internalType":"enum EminarToken.BackingAsset","name":"asset","type":"uint8"},{"internalType":"uint256","name":"amount","type":"uint256"}],"name":"depositBacking","outputs":[],"stateMutability":"nonpayable","type":"function"},{"inputs":[],"name":"developmentAddress","outputs":[{"internalType":"address","name":"","type":"address"}],"stateMutability":"view","type":"function"},{"inputs":[],"name":"eip712Domain","outputs":[{"internalType":"bytes1","name":"fields","type":"bytes1"},{"internalType":"string","name":"name","type":"string"},{"internalType":"string","name":"version","type":"string"},{"internalType":"uint256","name":"chainId","type":"uint256"},{"internalType":"address","name":"verifyingContract","type":"address"},{"internalType":"bytes32","name":"salt","type":"bytes32"},{"internalType":"uint256[]","name":"extensions","type":"uint256[]"}],"stateMutability":"view","type":"function"},{"inputs":[{"internalType":"address","name":"token","type":"address"},{"internalType":"address","name":"to","type":"address"},{"internalType":"uint256","name":"amount","type":"uint256"}],"name":"emergencyRecoverERC20","outputs":[],"stateMutability":"nonpayable","type":"function"},{"inputs":[{"internalType":"uint256","name":"timepoint","type":"uint256"}],"name":"getPastTotalSupply","outputs":[{"internalType":"uint256","name":"","type":"uint256"}],"stateMutability":"view","type":"function"},{"inputs":[{"internalType":"address","name":"account","type":"address"},{"internalType":"uint256","name":"timepoint","type":"uint256"}],"name":"getPastVotes","outputs":[{"internalType":"uint256","name":"","type":"uint256"}],"stateMutability":"view","type":"function"},{"inputs":[{"internalType":"bytes32","name":"role","type":"bytes32"}],"name":"getRoleAdmin","outputs":[{"internalType":"bytes32","name":"","type":"bytes32"}],"stateMutability":"view","type":"function"},{"inputs":[{"internalType":"address","name":"account","type":"address"}],"name":"getVotes","outputs":[{"internalType":"uint256","name":"","type":"uint256"}],"stateMutability":"view","type":"function"},{"inputs":[{"internalType":"bytes32","name":"role","type":"bytes32"},{"internalType":"address","name":"account","type":"address"}],"name":"grantRole","outputs":[],"stateMutability":"nonpayable","type":"function"},{"inputs":[{"internalType":"bytes32","name":"role","type":"bytes32"},{"internalType":"address","name":"account","type":"address"}],"name":"hasRole","outputs":[{"internalType":"bool","name":"","type":"bool"}],"stateMutability":"view","type":"function"},{"inputs":[{"internalType":"address","name":"spender","type":"address"},{"internalType":"uint256","name":"addedValue","type":"uint256"}],"name":"increaseAllowance","outputs":[{"internalType":"bool","name":"","type":"bool"}],"stateMutability":"nonpayable","type":"function"},{"inputs":[],"name":"name","outputs":[{"internalType":"string","name":"","type":"string"}],"stateMutability":"view","type":"function"},{"inputs":[{"internalType":"address","name":"owner","type":"address"}],"name":"nonces","outputs":[{"internalType":"uint256","name":"","type":"uint256"}],"stateMutability":"view","type":"function"},{"inputs":[{"internalType":"address","name":"account","type":"address"}],"name":"numCheckpoints","outputs":[{"internalType":"uint32","name":"","type":"uint32"}],"stateMutability":"view","type":"function"},{"inputs":[],"name":"pause","outputs":[],"stateMutability":"nonpayable","type":"function"},{"inputs":[],"name":"paused","outputs":[{"internalType":"bool","name":"","type":"bool"}],"stateMutability":"view","type":"function"},{"inputs":[{"internalType":"address","name":"owner","type":"address"},{"internalType":"address","name":"spender","type":"address"},{"internalType":"uint256","name":"value","type":"uint256"},{"internalType":"uint256","name":"deadline","type":"uint256"},{"internalType":"uint8","name":"v","type":"uint8"},{"internalType":"bytes32","name":"r","type":"bytes32"},{"internalType":"bytes32","name":"s","type":"bytes32"}],"name":"permit","outputs":[],"stateMutability":"nonpayable","type":"function"},{"inputs":[],"name":"publicAddress","outputs":[{"internalType":"address","name":"","type":"address"}],"stateMutability":"view","type":"function"},{"inputs":[{"internalType":"enum EminarToken.BackingAsset","name":"asset","type":"uint8"},{"internalType":"address","name":"token","type":"address"}],"name":"registerBackingToken","outputs":[],"stateMutability":"nonpayable","type":"function"},{"inputs":[{"internalType":"bytes32","name":"role","type":"bytes32"},{"internalType":"address","name":"account","type":"address"}],"name":"renounceRole","outputs":[],"stateMutability":"nonpayable","type":"function"},{"inputs":[],"name":"reserveAddress","outputs":[{"internalType":"address","name":"","type":"address"}],"stateMutability":"view","type":"function"},{"inputs":[{"internalType":"bytes32","name":"role","type":"bytes32"},{"internalType":"address","name":"account","type":"address"}],"name":"revokeRole","outputs":[],"stateMutability":"nonpayable","type":"function"},{"inputs":[{"internalType":"enum EminarToken.BackingAsset","name":"asset","type":"uint8"},{"internalType":"uint256","name":"priceUSD","type":"uint256"}],"name":"setAssetPriceUSD","outputs":[],"stateMutability":"nonpayable","type":"function"},{"inputs":[],"name":"shariaTrustAddress","outputs":[{"internalType":"address","name":"","type":"address"}],"stateMutability":"view","type":"function"},{"inputs":[],"name":"strategicPartnersAddress","outputs":[{"internalType":"address","name":"","type":"address"}],"stateMutability":"view","type":"function"},{"inputs":[{"internalType":"bytes4","name":"interfaceId","type":"bytes4"}],"name":"supportsInterface","outputs":[{"internalType":"bool","name":"","type":"bool"}],"stateMutability":"view","type":"function"},{"inputs":[],"name":"symbol","outputs":[{"internalType":"string","name":"","type":"string"}],"stateMutability":"view","type":"function"},{"inputs":[],"name":"totalBackingValueUSD","outputs":[{"internalType":"uint256","name":"","type":"uint256"}],"stateMutability":"view","type":"function"},{"inputs":[],"name":"totalSupply","outputs":[{"internalType":"uint256","name":"","type":"uint256"}],"stateMutability":"view","type":"function"},{"inputs":[{"internalType":"address","name":"to","type":"address"},{"internalType":"uint256","name":"amount","type":"uint256"}],"name":"transfer","outputs":[{"internalType":"bool","name":"","type":"bool"}],"stateMutability":"nonpayable","type":"function"},{"inputs":[{"internalType":"address","name":"from","type":"address"},{"internalType":"address","name":"to","type":"address"},{"internalType":"uint256","name":"amount","type":"uint256"}],"name":"transferFrom","outputs":[{"internalType":"bool","name":"","type":"bool"}],"stateMutability":"nonpayable","type":"function"},{"inputs":[],"name":"unpause","outputs":[],"stateMutability":"nonpayable","type":"function"},{"inputs":[{"internalType":"enum EminarToken.BackingAsset","name":"asset","type":"uint8"},{"internalType":"address","name":"to","type":"address"},{"internalType":"uint256","name":"amount","type":"uint256"}],"name":"withdrawBacking","outputs":[],"stateMutability":"nonpayable","type":"function"}],"evm":{"bytecode":{"linkReferences":{},"object":"61016060405234801561001157600080fd5b5060405161462f38038061462f83398101604081905261003091610bfd565b6040805180820190915260018152603160f81b602082015288908190818a600361005a8382610d52565b5060046100678282610d52565b50610077915083905060056103da565b610120526100868160066103da565b61014052815160208084019190912060e052815190820120610100524660a05261011360e05161010051604080517f8b73c3c69bb8fe3d512ecc4cf759cc79239f7b179b0ffacaa9a75d522b39400f60208201529081019290925260608201524660808201523060a082015260009060c00160405160208183030381529060405280519060200120905090565b60805250503060c05250600d805460ff191690556001600160a01b0386161580159061014757506001600160a01b03851615155b801561015b57506001600160a01b03841615155b801561016f57506001600160a01b03831615155b801561018357506001600160a01b03821615155b6101c35760405162461bcd60e51b815260206004820152600c60248201526b7a65726f206164647265737360a01b60448201526064015b60405180910390fd5b601380546001600160a01b03199081166001600160a01b0389811691909117909255600f805482168884161790556010805482168784161790556011805482168684161790556012805490911691841691909117905561022460003361040d565b61024e7f9f2df0fed2c77648de5860a4cc508cd0818c85b8b8a1ab4ceeef8d981c8956a63361040d565b6102787f65d7a28e3265b37a6474929f336521b332c1681b933f6cb9f3376673440d862a3361040d565b6102a27faa9060660dc3e52152ec6c4cd87f38f5433d3e2246058f23a29463ea324768173361040d565b6102cc7f71840dc4906352362b0cdaf79870196c8e42acafade72d5d5a6d59291253ceb18261040d565b6102f67f0acf805600123ef007091da3b3ffb39474074c656c127aa68cb0ffec232a8ff83361040d565b60135461032d906001600160a01b0316606461031e6a52b7d2dcc80cd2e40000006028610e26565b6103289190610e3d565b6104b0565b600f54610355906001600160a01b0316606461031e6a52b7d2dcc80cd2e40000006014610e26565b60105461037d906001600160a01b0316606461031e6a52b7d2dcc80cd2e40000006014610e26565b6011546103a5906001600160a01b0316606461031e6a52b7d2dcc80cd2e4000000600a610e26565b6012546103cd906001600160a01b0316606461031e6a52b7d2dcc80cd2e4000000600a610e26565b5050505050505050610edc565b60006020835110156103f6576103ef836104ba565b9050610407565b816104018482610d52565b5060ff90505b92915050565b6000828152600c602090815260408083206001600160a01b038516845290915290205460ff166104ac576000828152600c602090815260408083206001600160a01b03851684529091529020805460ff1916600117905561046b3390565b6001600160a01b0316816001600160a01b0316837f2f8788117e7eff1d82e926ec794901d17c78024a50270940304540a733656f0d60405160405180910390a45b5050565b6104ac82826104f8565b600080829050601f815111156104e5578260405163305a27a960e01b81526004016101ba9190610e5f565b80516104f082610e92565b179392505050565b6105028282610596565b6001600160e01b036105146106698216565b111561057b5760405162461bcd60e51b815260206004820152603060248201527f4552433230566f7465733a20746f74616c20737570706c79207269736b73206f60448201526f766572666c6f77696e6720766f74657360801b60648201526084016101ba565b610590600b611a8b61066f60201b1783610682565b50505050565b6001600160a01b0382166105ec5760405162461bcd60e51b815260206004820152601f60248201527f45524332303a206d696e7420746f20746865207a65726f20616464726573730060448201526064016101ba565b6105f8600083836107fa565b806002600082825461060a9190610eb6565b90915550506001600160a01b038216600081815260208181526040808320805486019055518481527fddf252ad1be2c89b69c2b068fc378daa952ba7f163c4a11628f55a4df523b3ef910160405180910390a36104ac60008383610819565b60025490565b600061067b8284610eb6565b9392505050565b825460009081908181156106cf5760008781526020902082016000190160408051808201909152905463ffffffff8116825264010000000090046001600160e01b031660208201526106e4565b60408051808201909152600080825260208201525b905080602001516001600160e01b0316935061070184868860201c565b925060008211801561072b5750610716610824565b65ffffffffffff16816000015163ffffffff16145b156107705761073983610834565b60008881526020902083016000190180546001600160e01b03929092166401000000000263ffffffff9092169190911790556107f0565b86604051806040016040528061079a61078d61082460201b60201c565b65ffffffffffff166108a1565b63ffffffff1681526020016107ae86610834565b6001600160e01b0390811690915282546001810184556000938452602093849020835194909301519091166401000000000263ffffffff909316929092179101555b5050935093915050565b610802610906565b6108148383836001600160e01b038416565b505050565b61081483838361094e565b600061082f43610980565b905090565b60006001600160e01b0382111561089d5760405162461bcd60e51b815260206004820152602760248201527f53616665436173743a2076616c756520646f65736e27742066697420696e20326044820152663234206269747360c81b60648201526084016101ba565b5090565b600063ffffffff82111561089d5760405162461bcd60e51b815260206004820152602660248201527f53616665436173743a2076616c756520646f65736e27742066697420696e203360448201526532206269747360d01b60648201526084016101ba565b600d5460ff161561094c5760405162461bcd60e51b815260206004820152601060248201526f14185d5cd8589b194e881c185d5cd95960821b60448201526064016101ba565b565b6001600160a01b03838116600090815260096020526040808220548584168352912054610814929182169116836109e7565b600065ffffffffffff82111561089d5760405162461bcd60e51b815260206004820152602660248201527f53616665436173743a2076616c756520646f65736e27742066697420696e203460448201526538206269747360d01b60648201526084016101ba565b816001600160a01b0316836001600160a01b031614158015610a095750600081115b15610814576001600160a01b03831615610a8e576001600160a01b0383166000908152600a6020908152604082208291610a4d9190610b12901b611a971785610682565b91509150846001600160a01b031660008051602061460f8339815191528383604051610a83929190918252602082015260400190565b60405180910390a250505b6001600160a01b03821615610814576001600160a01b0382166000908152600a6020908152604082208291610acd919061066f901b611a8b1785610682565b91509150836001600160a01b031660008051602061460f8339815191528383604051610b03929190918252602082015260400190565b60405180910390a25050505050565b600061067b8284610ec9565b634e487b7160e01b600052604160045260246000fd5b60005b83811015610b4f578181015183820152602001610b37565b50506000910152565b600082601f830112610b6957600080fd5b81516001600160401b03811115610b8257610b82610b1e565b604051601f8201601f19908116603f011681016001600160401b0381118282101715610bb057610bb0610b1e565b604052818152838201602001851015610bc857600080fd5b610bd9826020830160208701610b34565b949350505050565b80516001600160a01b0381168114610bf857600080fd5b919050565b600080600080600080600080610100898b031215610c1a57600080fd5b88516001600160401b03811115610c3057600080fd5b610c3c8b828c01610b58565b60208b015190995090506001600160401b03811115610c5a57600080fd5b610c668b828c01610b58565b975050610c7560408a01610be1565b9550610c8360608a01610be1565b9450610c9160808a01610be1565b9350610c9f60a08a01610be1565b9250610cad60c08a01610be1565b9150610cbb60e08a01610be1565b90509295985092959890939650565b600181811c90821680610cde57607f821691505b602082108103610cfe57634e487b7160e01b600052602260045260246000fd5b50919050565b601f82111561081457806000526020600020601f840160051c81016020851015610d2b5750805b601f840160051c820191505b81811015610d4b5760008155600101610d37565b5050505050565b81516001600160401b03811115610d6b57610d6b610b1e565b610d7f81610d798454610cca565b84610d04565b6020601f821160018114610db35760008315610d9b5750848201515b600019600385901b1c1916600184901b178455610d4b565b600084815260208120601f198516915b82811015610de35787850151825560209485019460019092019101610dc3565b5084821015610e015786840151600019600387901b60f8161c191681555b50505050600190811b01905550565b634e487b7160e01b600052601160045260246000fd5b808202811582820484141761040757610407610e10565b600082610e5a57634e487b7160e01b600052601260045260246000fd5b500490565b6020815260008251806020840152610e7e816040850160208701610b34565b601f01601f19169190910160400192915050565b80516020808301519190811015610cfe5760001960209190910360031b1b16919050565b8082018082111561040757610407610e10565b8181038181111561040757610407610e10565b60805160a05160c05160e0516101005161012051610140516136d9610f366000396000610c1f01526000610bf401526000611f5a01526000611f3201526000611e8d01526000611eb701526000611ee101526136d96000f3fe608060405234801561001057600080fd5b50600436106103275760003560e01c80638e539e8c116101b8578063c3cda52011610104578063e63ab1e9116100a2578063f36c8f5c1161007c578063f36c8f5c1461076e578063f676f33114610795578063f79ed94b146107a8578063fe64c681146107bb57600080fd5b8063e63ab1e9146106f7578063eb8f4c4a1461071e578063f1127ed81461073157600080fd5b8063d5391393116100de578063d5391393146106a2578063d547741f146106c9578063dd62ed3e146106dc578063dfef15b8146106ef57600080fd5b8063c3cda52014610669578063c69def0b1461067c578063d505accf1461068f57600080fd5b80639ab24eb011610171578063a457c2d71161014b578063a457c2d714610628578063a9059cbb1461063b578063a978d8df1461064e578063ae621bbe1461066157600080fd5b80639ab24eb0146105fa578063a217fddf1461060d578063a34cea081461061557600080fd5b80638e539e8c14610588578063902d55a51461059b57806391d14854146105ad57806391ddadf4146105c057806391ee2a3d146105df57806395d89b41146105f257600080fd5b80633a46b1a811610277578063626c3d431161023057806370a082311161020a57806370a08231146105295780637ecebe00146105525780638456cb591461056557806384b0196e1461056d57600080fd5b8063626c3d43146104db578063638b1b14146104ee5780636fcfff451461050157600080fd5b80633a46b1a8146104565780633f4ba83a146104695780634bf5d7e914610471578063587cde1e146104795780635c19a95c146104bd5780635c975abb146104d057600080fd5b8063248a9ca3116102e457806331993a1c116102be57806331993a1c146104015780633644e5151461042857806336568abe14610430578063395093511461044357600080fd5b8063248a9ca3146103ba5780632f2ff15d146103dd578063313ce567146103f257600080fd5b806301ffc9a71461032c57806306fdde0314610354578063095ea7b31461036957806315e98e731461037c57806318160ddd1461039f57806323b872dd146103a7575b600080fd5b61033f61033a36600461310d565b6107ce565b60405190151581526020015b60405180910390f35b61035c610805565b60405161034b9190613187565b61033f6103773660046131b6565b610897565b61039160008051602061368483398151915281565b60405190815260200161034b565b600254610391565b61033f6103b53660046131e0565b6108af565b6103916103c836600461321d565b6000908152600c602052604090206001015490565b6103f06103eb366004613236565b6108d3565b005b6040516012815260200161034b565b6103917f0acf805600123ef007091da3b3ffb39474074c656c127aa68cb0ffec232a8ff881565b6103916108fd565b6103f061043e366004613236565b61090c565b61033f6104513660046131b6565b61098f565b6103916104643660046131b6565b6109b1565b6103f0610a36565b61035c610a9f565b6104a5610487366004613262565b6001600160a01b039081166000908152600960205260409020541690565b6040516001600160a01b03909116815260200161034b565b6103f06104cb366004613262565b610b37565b600d5460ff1661033f565b6012546104a5906001600160a01b031681565b6010546104a5906001600160a01b031681565b61051461050f366004613262565b610b44565b60405163ffffffff909116815260200161034b565b610391610537366004613262565b6001600160a01b031660009081526020819052604090205490565b610391610560366004613262565b610b66565b6103f0610b84565b610575610be6565b60405161034b979695949392919061327d565b61039161059636600461321d565b610c6f565b6103916a52b7d2dcc80cd2e400000081565b61033f6105bb366004613236565b610cd6565b6105c8610d01565b60405165ffffffffffff909116815260200161034b565b6103f06105ed366004613324565b610d0c565b61035c610eae565b610391610608366004613262565b610ebd565b610391600081565b6103f0610623366004613340565b610f3f565b61033f6106363660046131b6565b611149565b61033f6106493660046131b6565b6111c4565b6103f061065c366004613324565b6111d2565b6103916112f3565b6103f061067736600461336f565b6114fb565b6103f061068a3660046133c7565b611631565b6103f061069d3660046133f1565b61177f565b6103917f9f2df0fed2c77648de5860a4cc508cd0818c85b8b8a1ab4ceeef8d981c8956a681565b6103f06106d7366004613236565b6118e3565b6103916106ea36600461345c565b611908565b610391611933565b6103917f65d7a28e3265b37a6474929f336521b332c1681b933f6cb9f3376673440d862a81565b6103f061072c3660046131e0565b61197e565b61074461073f366004613478565b611a07565b60408051825163ffffffff1681526020928301516001600160e01b0316928101929092520161034b565b6103917f71840dc4906352362b0cdaf79870196c8e42acafade72d5d5a6d59291253ceb181565b6013546104a5906001600160a01b031681565b600f546104a5906001600160a01b031681565b6011546104a5906001600160a01b031681565b60006001600160e01b03198216637965db0b60e01b14806107ff57506301ffc9a760e01b6001600160e01b03198316145b92915050565b606060038054610814906134b8565b80601f0160208091040260200160405190810160405280929190818152602001828054610840906134b8565b801561088d5780601f106108625761010080835404028352916020019161088d565b820191906000526020600020905b81548152906001019060200180831161087057829003601f168201915b5050505050905090565b6000336108a5818585611aa3565b5060019392505050565b6000336108bd858285611bc7565b6108c8858585611c3b565b506001949350505050565b6000828152600c60205260409020600101546108ee81611df0565b6108f88383611dfa565b505050565b6000610907611e80565b905090565b6001600160a01b03811633146109815760405162461bcd60e51b815260206004820152602f60248201527f416363657373436f6e74726f6c3a2063616e206f6e6c792072656e6f756e636560448201526e103937b632b9903337b91039b2b63360891b60648201526084015b60405180910390fd5b61098b8282611fab565b5050565b6000336108a58185856109a28383611908565b6109ac9190613502565b611aa3565b60006109bb610d01565b65ffffffffffff168210610a0d5760405162461bcd60e51b815260206004820152601960248201527804552433230566f7465733a20667574757265206c6f6f6b757603c1b6044820152606401610978565b6001600160a01b0383166000908152600a60205260409020610a2f9083612012565b9392505050565b7f65d7a28e3265b37a6474929f336521b332c1681b933f6cb9f3376673440d862a610a6081611df0565b610a686120fb565b6040513381527f5db9ee0a495bf2e6ff9c91a7834c1ba4fdd244a5e8aa4e537bd38aeae4b073aa906020015b60405180910390a150565b606043610aaa610d01565b65ffffffffffff1614610aff5760405162461bcd60e51b815260206004820152601d60248201527f4552433230566f7465733a2062726f6b656e20636c6f636b206d6f64650000006044820152606401610978565b5060408051808201909152601d81527f6d6f64653d626c6f636b6e756d6265722666726f6d3d64656661756c74000000602082015290565b610b41338261214d565b50565b6001600160a01b0381166000908152600a60205260408120546107ff906121c6565b6001600160a01b0381166000908152600760205260408120546107ff565b7f65d7a28e3265b37a6474929f336521b332c1681b933f6cb9f3376673440d862a610bae81611df0565b610bb661222f565b6040513381527f62e78cea01bee320cd4e420270b5ea74000d11b0c9f74754ebdbfc544b05a25890602001610a94565b600060608082808083610c1a7f0000000000000000000000000000000000000000000000000000000000000000600561226c565b610c457f0000000000000000000000000000000000000000000000000000000000000000600661226c565b60408051600080825260208201909252600f60f81b9b939a50919850469750309650945092509050565b6000610c79610d01565b65ffffffffffff168210610ccb5760405162461bcd60e51b815260206004820152601960248201527804552433230566f7465733a20667574757265206c6f6f6b757603c1b6044820152606401610978565b6107ff600b83612012565b6000918252600c602090815260408084206001600160a01b0393909316845291905290205460ff1690565b600061090743612317565b610d1461237e565b600e6000836002811115610d2a57610d2a61352b565b6002811115610d3b57610d3b61352b565b815260208101919091526040016000206003015460ff16610d955760405162461bcd60e51b8152602060048201526014602482015273185cdcd95d081b9bdd081c9959da5cdd195c995960621b6044820152606401610978565b60008111610dd35760405162461bcd60e51b815260206004820152600b60248201526a1e995c9bc8185b5bdd5b9d60aa1b6044820152606401610978565b610e22333083600e6000876002811115610def57610def61352b565b6002811115610e0057610e0061352b565b81526020810191909152604001600020546001600160a01b03169291906123c6565b80600e6000846002811115610e3957610e3961352b565b6002811115610e4a57610e4a61352b565b815260208101919091526040016000206001018054909101905533826002811115610e7757610e7761352b565b6040518381527f6a2b04b1f3d5a335c4367fea39bb8807ef0a4fbe77a2772700c8f9c90c1c9a1b9060200160405180910390a35050565b606060048054610814906134b8565b6001600160a01b0381166000908152600a60205260408120548015610f2c576001600160a01b0383166000908152600a6020526040902080546000198301908110610f0a57610f0a613541565b60009182526020909120015464010000000090046001600160e01b0316610f2f565b60005b6001600160e01b03169392505050565b600080516020613684833981519152610f5781611df0565b6001600160a01b038316610f9c5760405162461bcd60e51b815260206004820152600c60248201526b7a65726f206164647265737360a01b6044820152606401610978565b60008211610fda5760405162461bcd60e51b815260206004820152600b60248201526a1e995c9bc8185b5bdd5b9d60aa1b6044820152606401610978565b81600e6000866002811115610ff157610ff161352b565b60028111156110025761100261352b565b81526020019081526020016000206001015410156110595760405162461bcd60e51b8152602060048201526014602482015273696e73756666696369656e74206261636b696e6760601b6044820152606401610978565b81600e60008660028111156110705761107061352b565b60028111156110815761108161352b565b815260200190815260200160002060010160008282546110a19190613557565b909155506110f490508383600e60008860028111156110c2576110c261352b565b60028111156110d3576110d361352b565b81526020810191909152604001600020546001600160a01b03169190612431565b826001600160a01b03168460028111156111105761111061352b565b6040518481527fe3aab926d81700bac87dab01982e77e751c07d1acca11c13ff44aae1193a5f549060200160405180910390a350505050565b600033816111578286611908565b9050838110156111b75760405162461bcd60e51b815260206004820152602560248201527f45524332303a2064656372656173656420616c6c6f77616e63652062656c6f77604482015264207a65726f60d81b6064820152608401610978565b6108c88286868403611aa3565b6000336108a5818585611c3b565b6000805160206136848339815191526111ea81611df0565b600e60008460028111156112005761120061352b565b60028111156112115761121161352b565b815260208101919091526040016000206003015460ff1661126b5760405162461bcd60e51b8152602060048201526014602482015273185cdcd95d081b9bdd081c9959da5cdd195c995960621b6044820152606401610978565b81600e60008560028111156112825761128261352b565b60028111156112935761129361352b565b8152602001908152602001600020600201819055508260028111156112ba576112ba61352b565b6040518381527f2d292c5b6330b5b0f99b665ec1be838ca17cd57eb118fe7a02cc05477b5bd42f906020015b60405180910390a2505050565b6000808052600e6020527fe710864318d4a32f37d6ce54cb3fadbef648dd12d8dbdf53973564d56b7f881f5481907fe710864318d4a32f37d6ce54cb3fadbef648dd12d8dbdf53973564d56b7f881c9060ff168015611356575060008160020154115b8015611366575060008160010154115b1561139f57670de0b6b3a764000081600201548260010154611388919061356a565b6113929190613597565b61139c9083613502565b91505b506001600052600e6020527fa7c5ba7114a813b50159add3a36832908dc83db71d0b9a24c2ad0f83be95820a547fa7c5ba7114a813b50159add3a36832908dc83db71d0b9a24c2ad0f83be9582079060ff168015611401575060008160020154115b8015611411575060008160010154115b1561144a57670de0b6b3a764000081600201548260010154611433919061356a565b61143d9190613597565b6114479083613502565b91505b506002600052600e6020527f9adb202b1492743bc00c81d33cdc6423fa8c79109027eb6a845391e8fc1f0484547f9adb202b1492743bc00c81d33cdc6423fa8c79109027eb6a845391e8fc1f04819060ff1680156114ac575060008160020154115b80156114bc575060008160010154115b156114f557670de0b6b3a7640000816002015482600101546114de919061356a565b6114e89190613597565b6114f29083613502565b91505b50919050565b8342111561154b5760405162461bcd60e51b815260206004820152601d60248201527f4552433230566f7465733a207369676e617475726520657870697265640000006044820152606401610978565b604080517fe48329057bfd03d55e49b547132e39cffd9c1820ad7b9d4c5307691425d15adf60208201526001600160a01b0388169181019190915260608101869052608081018590526000906115c5906115bd9060a00160405160208183030381529060405280519060200120612461565b85858561248e565b90506115d0816124b8565b861461161e5760405162461bcd60e51b815260206004820152601960248201527f4552433230566f7465733a20696e76616c6964206e6f6e6365000000000000006044820152606401610978565b611628818861214d565b50505050505050565b60008051602061368483398151915261164981611df0565b6001600160a01b03821661168c5760405162461bcd60e51b815260206004820152600a6024820152693d32b937903a37b5b2b760b11b6044820152606401610978565b81600e60008560028111156116a3576116a361352b565b60028111156116b4576116b461352b565b815260200190815260200160002060000160006101000a8154816001600160a01b0302191690836001600160a01b031602179055506001600e60008560028111156117015761170161352b565b60028111156117125761171261352b565b81526020810191909152604001600020600301805460ff19169115159190911790558260028111156117465761174661352b565b6040516001600160a01b03841681527f561acd69f877decb2be770ca93ef06bb6a9e5d65defa3bace8eab67feecac572906020016112e6565b834211156117cf5760405162461bcd60e51b815260206004820152601d60248201527f45524332305065726d69743a206578706972656420646561646c696e650000006044820152606401610978565b60007f6e71edae12b1b97f4d1f60370fef10105fa2faae0126114a169c64845d6126c98888886117fe8c6124b8565b6040805160208101969096526001600160a01b0394851690860152929091166060840152608083015260a082015260c0810186905260e001604051602081830303815290604052805190602001209050600061185982612461565b905060006118698287878761248e565b9050896001600160a01b0316816001600160a01b0316146118cc5760405162461bcd60e51b815260206004820152601e60248201527f45524332305065726d69743a20696e76616c6964207369676e617475726500006044820152606401610978565b6118d78a8a8a611aa3565b50505050505050505050565b6000828152600c60205260409020600101546118fe81611df0565b6108f88383611fab565b6001600160a01b03918216600090815260016020908152604080832093909416825291909152205490565b60008061193e6112f3565b90508060000361195057600091505090565b6a52b7d2dcc80cd2e400000061196e82670de0b6b3a764000061356a565b6119789190613597565b91505090565b7f0acf805600123ef007091da3b3ffb39474074c656c127aa68cb0ffec232a8ff86119a881611df0565b6001600160a01b0383166119ed5760405162461bcd60e51b815260206004820152600c60248201526b7a65726f206164647265737360a01b6044820152606401610978565b611a016001600160a01b0385168484612431565b50505050565b60408051808201909152600080825260208201526001600160a01b0383166000908152600a60205260409020805463ffffffff8416908110611a4b57611a4b613541565b60009182526020918290206040805180820190915291015463ffffffff8116825264010000000090046001600160e01b0316918101919091529392505050565b6000610a2f8284613502565b6000610a2f8284613557565b6001600160a01b038316611b055760405162461bcd60e51b8152602060048201526024808201527f45524332303a20617070726f76652066726f6d20746865207a65726f206164646044820152637265737360e01b6064820152608401610978565b6001600160a01b038216611b665760405162461bcd60e51b815260206004820152602260248201527f45524332303a20617070726f766520746f20746865207a65726f206164647265604482015261737360f01b6064820152608401610978565b6001600160a01b0383811660008181526001602090815260408083209487168084529482529182902085905590518481527f8c5be1e5ebec7d5bd14f71427d1e84f3dd0314c0f7b2291e5b200ac8c7c3b925910160405180910390a3505050565b6000611bd38484611908565b90506000198114611a015781811015611c2e5760405162461bcd60e51b815260206004820152601d60248201527f45524332303a20696e73756666696369656e7420616c6c6f77616e63650000006044820152606401610978565b611a018484848403611aa3565b6001600160a01b038316611c9f5760405162461bcd60e51b815260206004820152602560248201527f45524332303a207472616e736665722066726f6d20746865207a65726f206164604482015264647265737360d81b6064820152608401610978565b6001600160a01b038216611d015760405162461bcd60e51b815260206004820152602360248201527f45524332303a207472616e7366657220746f20746865207a65726f206164647260448201526265737360e81b6064820152608401610978565b611d0c8383836124de565b6001600160a01b03831660009081526020819052604090205481811015611d845760405162461bcd60e51b815260206004820152602660248201527f45524332303a207472616e7366657220616d6f756e7420657863656564732062604482015265616c616e636560d01b6064820152608401610978565b6001600160a01b03848116600081815260208181526040808320878703905593871680835291849020805487019055925185815290927fddf252ad1be2c89b69c2b068fc378daa952ba7f163c4a11628f55a4df523b3ef910160405180910390a3611a018484846124e6565b610b4181336124f1565b611e048282610cd6565b61098b576000828152600c602090815260408083206001600160a01b03851684529091529020805460ff19166001179055611e3c3390565b6001600160a01b0316816001600160a01b0316837f2f8788117e7eff1d82e926ec794901d17c78024a50270940304540a733656f0d60405160405180910390a45050565b6000306001600160a01b037f000000000000000000000000000000000000000000000000000000000000000016148015611ed957507f000000000000000000000000000000000000000000000000000000000000000046145b15611f0357507f000000000000000000000000000000000000000000000000000000000000000090565b610907604080517f8b73c3c69bb8fe3d512ecc4cf759cc79239f7b179b0ffacaa9a75d522b39400f60208201527f0000000000000000000000000000000000000000000000000000000000000000918101919091527f000000000000000000000000000000000000000000000000000000000000000060608201524660808201523060a082015260009060c00160405160208183030381529060405280519060200120905090565b611fb58282610cd6565b1561098b576000828152600c602090815260408083206001600160a01b0385168085529252808320805460ff1916905551339285917ff6391f5c32d9c69d2a47ea670b442974b53935d1edc7fd64eb21e047a839171b9190a45050565b81546000908181600581111561206c57600061202d8461254a565b6120379085613557565b600088815260209020909150869082015463ffffffff16111561205c5780915061206a565b612067816001613502565b92505b505b808210156120b95760006120808383612632565b600088815260209020909150869082015463ffffffff1611156120a5578091506120b3565b6120b0816001613502565b92505b5061206c565b80156120e5576000868152602090208101600019015464010000000090046001600160e01b03166120e8565b60005b6001600160e01b03169695505050505050565b61210361264d565b600d805460ff191690557f5db9ee0a495bf2e6ff9c91a7834c1ba4fdd244a5e8aa4e537bd38aeae4b073aa335b6040516001600160a01b03909116815260200160405180910390a1565b6001600160a01b038281166000818152600960208181526040808420805485845282862054949093528787166001600160a01b03198416811790915590519190951694919391928592917f3134e8a2e6d97e929a7e54011ea5485d7d196dd5f0ba4d4ef95803e8e3fc257f9190a4611a01828483612696565b600063ffffffff82111561222b5760405162461bcd60e51b815260206004820152602660248201527f53616665436173743a2076616c756520646f65736e27742066697420696e203360448201526532206269747360d01b6064820152608401610978565b5090565b61223761237e565b600d805460ff191660011790557f62e78cea01bee320cd4e420270b5ea74000d11b0c9f74754ebdbfc544b05a2586121303390565b606060ff83146122865761227f836127d3565b90506107ff565b818054612292906134b8565b80601f01602080910402602001604051908101604052809291908181526020018280546122be906134b8565b801561230b5780601f106122e05761010080835404028352916020019161230b565b820191906000526020600020905b8154815290600101906020018083116122ee57829003601f168201915b505050505090506107ff565b600065ffffffffffff82111561222b5760405162461bcd60e51b815260206004820152602660248201527f53616665436173743a2076616c756520646f65736e27742066697420696e203460448201526538206269747360d01b6064820152608401610978565b600d5460ff16156123c45760405162461bcd60e51b815260206004820152601060248201526f14185d5cd8589b194e881c185d5cd95960821b6044820152606401610978565b565b6040516001600160a01b0380851660248301528316604482015260648101829052611a019085906323b872dd60e01b906084015b60408051601f198184030181529190526020810180516001600160e01b03166001600160e01b031990931692909217909152612812565b6040516001600160a01b0383166024820152604481018290526108f890849063a9059cbb60e01b906064016123fa565b60006107ff61246e611e80565b8360405161190160f01b8152600281019290925260228201526042902090565b600080600061249f878787876128e7565b915091506124ac816129ab565b5090505b949350505050565b6001600160a01b03811660009081526007602052604090208054600181018255906114f5565b6108f861237e565b6108f8838383612af5565b6124fb8282610cd6565b61098b5761250881612b27565b612513836020612b39565b6040516020016125249291906135b9565b60408051601f198184030181529082905262461bcd60e51b825261097891600401613187565b60008160000361255c57506000919050565b6000600161256984612cd5565b901c6001901b9050600181848161258257612582613581565b048201901c9050600181848161259a5761259a613581565b048201901c905060018184816125b2576125b2613581565b048201901c905060018184816125ca576125ca613581565b048201901c905060018184816125e2576125e2613581565b048201901c905060018184816125fa576125fa613581565b048201901c9050600181848161261257612612613581565b048201901c9050610a2f8182858161262c5761262c613581565b04612d69565b60006126416002848418613597565b610a2f90848416613502565b600d5460ff166123c45760405162461bcd60e51b815260206004820152601460248201527314185d5cd8589b194e881b9bdd081c185d5cd95960621b6044820152606401610978565b816001600160a01b0316836001600160a01b0316141580156126b85750600081115b156108f8576001600160a01b03831615612746576001600160a01b0383166000908152600a6020526040812081906126f390611a9785612d7f565b91509150846001600160a01b03167fdec2bacdd2f05b59de34da9b523dff8be42e5e38e818c82fdb0bae774387a724838360405161273b929190918252602082015260400190565b60405180910390a250505b6001600160a01b038216156108f8576001600160a01b0382166000908152600a60205260408120819061277c90611a8b85612d7f565b91509150836001600160a01b03167fdec2bacdd2f05b59de34da9b523dff8be42e5e38e818c82fdb0bae774387a72483836040516127c4929190918252602082015260400190565b60405180910390a25050505050565b606060006127e083612ef4565b604080516020808252818301909252919250600091906020820181803683375050509182525060208101929092525090565b6000612867826040518060400160405280602081526020017f5361666545524332303a206c6f772d6c6576656c2063616c6c206661696c6564815250856001600160a01b0316612f1c9092919063ffffffff16565b9050805160001480612888575080806020019051810190612888919061362e565b6108f85760405162461bcd60e51b815260206004820152602a60248201527f5361666545524332303a204552433230206f7065726174696f6e20646964206e6044820152691bdd081cdd58d8d9595960b21b6064820152608401610978565b6000807f7fffffffffffffffffffffffffffffff5d576e7357a4501ddfe92f46681b20a083111561291e57506000905060036129a2565b6040805160008082526020820180845289905260ff881692820192909252606081018690526080810185905260019060a0016020604051602081039080840390855afa158015612972573d6000803e3d6000fd5b5050604051601f1901519150506001600160a01b03811661299b576000600192509250506129a2565b9150600090505b94509492505050565b60008160048111156129bf576129bf61352b565b036129c75750565b60018160048111156129db576129db61352b565b03612a285760405162461bcd60e51b815260206004820152601860248201527f45434453413a20696e76616c6964207369676e617475726500000000000000006044820152606401610978565b6002816004811115612a3c57612a3c61352b565b03612a895760405162461bcd60e51b815260206004820152601f60248201527f45434453413a20696e76616c6964207369676e6174757265206c656e677468006044820152606401610978565b6003816004811115612a9d57612a9d61352b565b03610b415760405162461bcd60e51b815260206004820152602260248201527f45434453413a20696e76616c6964207369676e6174757265202773272076616c604482015261756560f01b6064820152608401610978565b6001600160a01b038381166000908152600960205260408082205485841683529120546108f892918216911683612696565b60606107ff6001600160a01b03831660145b60606000612b4883600261356a565b612b53906002613502565b67ffffffffffffffff811115612b6b57612b6b613515565b6040519080825280601f01601f191660200182016040528015612b95576020820181803683370190505b509050600360fc1b81600081518110612bb057612bb0613541565b60200101906001600160f81b031916908160001a905350600f60fb1b81600181518110612bdf57612bdf613541565b60200101906001600160f81b031916908160001a9053506000612c0384600261356a565b612c0e906001613502565b90505b6001811115612c86576f181899199a1a9b1b9c1cb0b131b232b360811b85600f1660108110612c4257612c42613541565b1a60f81b828281518110612c5857612c58613541565b60200101906001600160f81b031916908160001a90535060049490941c93612c7f81613650565b9050612c11565b508315610a2f5760405162461bcd60e51b815260206004820181905260248201527f537472696e67733a20686578206c656e67746820696e73756666696369656e746044820152606401610978565b600080608083901c15612cea57608092831c92015b604083901c15612cfc57604092831c92015b602083901c15612d0e57602092831c92015b601083901c15612d2057601092831c92015b600883901c15612d3257600892831c92015b600483901c15612d4457600492831c92015b600283901c15612d5657600292831c92015b600183901c156107ff5760010192915050565b6000818310612d785781610a2f565b5090919050565b82546000908190818115612dcc5760008781526020902082016000190160408051808201909152905463ffffffff8116825264010000000090046001600160e01b03166020820152612de1565b60408051808201909152600080825260208201525b905080602001516001600160e01b03169350612e0184868863ffffffff16565b9250600082118015612e2b5750612e16610d01565b65ffffffffffff16816000015163ffffffff16145b15612e7057612e3983612f2b565b60008881526020902083016000190180546001600160e01b03929092166401000000000263ffffffff909216919091179055612eea565b866040518060400160405280612e94612e87610d01565b65ffffffffffff166121c6565b63ffffffff168152602001612ea886612f2b565b6001600160e01b0390811690915282546001810184556000938452602093849020835194909301519091166401000000000263ffffffff909316929092179101555b5050935093915050565b600060ff8216601f8111156107ff57604051632cd44ac360e21b815260040160405180910390fd5b60606124b08484600085612f94565b60006001600160e01b0382111561222b5760405162461bcd60e51b815260206004820152602760248201527f53616665436173743a2076616c756520646f65736e27742066697420696e20326044820152663234206269747360c81b6064820152608401610978565b606082471015612ff55760405162461bcd60e51b815260206004820152602660248201527f416464726573733a20696e73756666696369656e742062616c616e636520666f6044820152651c8818d85b1b60d21b6064820152608401610978565b600080866001600160a01b031685876040516130119190613667565b60006040518083038185875af1925050503d806000811461304e576040519150601f19603f3d011682016040523d82523d6000602084013e613053565b606091505b50915091506130648783838761306f565b979650505050505050565b606083156130de5782516000036130d7576001600160a01b0385163b6130d75760405162461bcd60e51b815260206004820152601d60248201527f416464726573733a2063616c6c20746f206e6f6e2d636f6e74726163740000006044820152606401610978565b50816124b0565b6124b083838151156130f35781518083602001fd5b8060405162461bcd60e51b81526004016109789190613187565b60006020828403121561311f57600080fd5b81356001600160e01b031981168114610a2f57600080fd5b60005b8381101561315257818101518382015260200161313a565b50506000910152565b60008151808452613173816020860160208601613137565b601f01601f19169290920160200192915050565b602081526000610a2f602083018461315b565b80356001600160a01b03811681146131b157600080fd5b919050565b600080604083850312156131c957600080fd5b6131d28361319a565b946020939093013593505050565b6000806000606084860312156131f557600080fd5b6131fe8461319a565b925061320c6020850161319a565b929592945050506040919091013590565b60006020828403121561322f57600080fd5b5035919050565b6000806040838503121561324957600080fd5b823591506132596020840161319a565b90509250929050565b60006020828403121561327457600080fd5b610a2f8261319a565b60ff60f81b8816815260e06020820152600061329c60e083018961315b565b82810360408401526132ae818961315b565b606084018890526001600160a01b038716608085015260a0840186905283810360c08501528451808252602080870193509091019060005b818110156133045783518352602093840193909201916001016132e6565b50909b9a5050505050505050505050565b8035600381106131b157600080fd5b6000806040838503121561333757600080fd5b6131d283613315565b60008060006060848603121561335557600080fd5b6131fe84613315565b803560ff811681146131b157600080fd5b60008060008060008060c0878903121561338857600080fd5b6133918761319a565b955060208701359450604087013593506133ad6060880161335e565b9598949750929560808101359460a0909101359350915050565b600080604083850312156133da57600080fd5b6133e383613315565b91506132596020840161319a565b600080600080600080600060e0888a03121561340c57600080fd5b6134158861319a565b96506134236020890161319a565b9550604088013594506060880135935061343f6080890161335e565b9699959850939692959460a0840135945060c09093013592915050565b6000806040838503121561346f57600080fd5b6133e38361319a565b6000806040838503121561348b57600080fd5b6134948361319a565b9150602083013563ffffffff811681146134ad57600080fd5b809150509250929050565b600181811c908216806134cc57607f821691505b6020821081036114f557634e487b7160e01b600052602260045260246000fd5b634e487b7160e01b600052601160045260246000fd5b808201808211156107ff576107ff6134ec565b634e487b7160e01b600052604160045260246000fd5b634e487b7160e01b600052602160045260246000fd5b634e487b7160e01b600052603260045260246000fd5b818103818111156107ff576107ff6134ec565b80820281158282048414176107ff576107ff6134ec565b634e487b7160e01b600052601260045260246000fd5b6000826135b457634e487b7160e01b600052601260045260246000fd5b500490565b7f416363657373436f6e74726f6c3a206163636f756e74200000000000000000008152600083516135f1816017850160208801613137565b7001034b99036b4b9b9b4b733903937b6329607d1b6017918401918201528351613622816028840160208801613137565b01602801949350505050565b60006020828403121561364057600080fd5b81518015158114610a2f57600080fd5b60008161365f5761365f6134ec565b506000190190565b60008251613679818460208701613137565b919091019291505056feaa9060660dc3e52152ec6c4cd87f38f5433d3e2246058f23a29463ea32476817a2646970667358221220b693a90565c55ba44c67928a89bed9fe8828d7e38c04f645bc81b132e6e8aaf464736f6c634300081c0033dec2bacdd2f05b59de34da9b523dff8be42e5e38e818c82fdb0bae774387a724","opcodes":"PUSH2 0x160 PUSH1 0x40 MSTORE CALLVALUE DUP1 ISZERO PUSH2 0x11 JUMPI PUSH1 0x0 DUP1 REVERT JUMPDEST POP PUSH1 0x40 MLOAD PUSH2 0x462F CODESIZE SUB DUP1 PUSH2 0x462F DUP4 CODECOPY DUP2 ADD PUSH1 0x40 DUP2 SWAP1 MSTORE PUSH2 0x30 SWAP2 PUSH2 0xBFD JUMP JUMPDEST PUSH1 0x40 DUP1 MLOAD DUP1 DUP3 ADD SWAP1 SWAP2 MSTORE PUSH1 0x1 DUP2 MSTORE PUSH1 0x31 PUSH1 0xF8 SHL PUSH1 0x20 DUP3 ADD MSTORE DUP9 SWAP1 DUP2 SWAP1 DUP2 DUP11 PUSH1 0x3 PUSH2 0x5A DUP4 DUP3 PUSH2 0xD52 JUMP JUMPDEST POP PUSH1 0x4 PUSH2 0x67 DUP3 DUP3 PUSH2 0xD52 JUMP JUMPDEST POP PUSH2 0x77 SWAP2 POP DUP4 SWAP1 POP PUSH1 0x5 PUSH2 0x3DA JUMP JUMPDEST PUSH2 0x120 MSTORE PUSH2 0x86 DUP2 PUSH1 0x6 PUSH2 0x3DA JUMP JUMPDEST PUSH2 0x140 MSTORE DUP2 MLOAD PUSH1 0x20 DUP1 DUP5 ADD SWAP2 SWAP1 SWAP2 KECCAK256 PUSH1 0xE0 MSTORE DUP2 MLOAD SWAP1 DUP3 ADD KECCAK256 PUSH2 0x100 MSTORE CHAINID PUSH1 0xA0 MSTORE PUSH2 0x113 PUSH1 0xE0 MLOAD PUSH2 0x100 MLOAD PUSH1 0x40 DUP1 MLOAD PUSH32 0x8B73C3C69BB8FE3D512ECC4CF759CC79239F7B179B0FFACAA9A75D522B39400F PUSH1 0x20 DUP3 ADD MSTORE SWAP1 DUP2 ADD SWAP3 SWAP1 SWAP3 MSTORE PUSH1 0x60 DUP3 ADD MSTORE CHAINID PUSH1 0x80 DUP3 ADD MSTORE ADDRESS PUSH1 0xA0 DUP3 ADD MSTORE PUSH1 0x0 SWAP1 PUSH1 0xC0 ADD PUSH1 0x40 MLOAD PUSH1 0x20 DUP2 DUP4 SUB SUB DUP2 MSTORE SWAP1 PUSH1 0x40 MSTORE DUP1 MLOAD SWAP1 PUSH1 0x20 ADD KECCAK256 SWAP1 POP SWAP1 JUMP JUMPDEST PUSH1 0x80 MSTORE POP POP ADDRESS PUSH1 0xC0 MSTORE POP PUSH1 0xD DUP1 SLOAD PUSH1 0xFF NOT AND SWAP1 SSTORE PUSH1 0x1 PUSH1 0x1 PUSH1 0xA0 SHL SUB DUP7 AND ISZERO DUP1 ISZERO SWAP1 PUSH2 0x147 JUMPI POP PUSH1 0x1 PUSH1 0x1 PUSH1 0xA0 SHL SUB DUP6 AND ISZERO ISZERO JUMPDEST DUP1 ISZERO PUSH2 0x15B JUMPI POP PUSH1 0x1 PUSH1 0x1 PUSH1 0xA0 SHL SUB DUP5 AND ISZERO ISZERO JUMPDEST DUP1 ISZERO PUSH2 0x16F JUMPI POP PUSH1 0x1 PUSH1 0x1 PUSH1 0xA0 SHL SUB DUP4 AND ISZERO ISZERO JUMPDEST DUP1 ISZERO PUSH2 0x183 JUMPI POP PUSH1 0x1 PUSH1 0x1 PUSH1 0xA0 SHL SUB DUP3 AND ISZERO ISZERO JUMPDEST PUSH2 0x1C3 JUMPI PUSH1 0x40 MLOAD PUSH3 0x461BCD PUSH1 0xE5 SHL DUP2 MSTORE PUSH1 0x20 PUSH1 0x4 DUP3 ADD MSTORE PUSH1 0xC PUSH1 0x24 DUP3 ADD MSTORE PUSH12 0x7A65726F2061646472657373 PUSH1 0xA0 SHL PUSH1 0x44 DUP3 ADD MSTORE PUSH1 0x64 ADD JUMPDEST PUSH1 0x40 MLOAD DUP1 SWAP2 SUB SWAP1 REVERT JUMPDEST PUSH1 0x13 DUP1 SLOAD PUSH1 0x1 PUSH1 0x1 PUSH1 0xA0 SHL SUB NOT SWAP1 DUP2 AND PUSH1 0x1 PUSH1 0x1 PUSH1 0xA0 SHL SUB DUP10 DUP2 AND SWAP2 SWAP1 SWAP2 OR SWAP1 SWAP3 SSTORE PUSH1 0xF DUP1 SLOAD DUP3 AND DUP9 DUP5 AND OR SWAP1 SSTORE PUSH1 0x10 DUP1 SLOAD DUP3 AND DUP8 DUP5 AND OR SWAP1 SSTORE PUSH1 0x11 DUP1 SLOAD DUP3 AND DUP7 DUP5 AND OR SWAP1 SSTORE PUSH1 0x12 DUP1 SLOAD SWAP1 SWAP2 AND SWAP2 DUP5 AND SWAP2 SWAP1 SWAP2 OR SWAP1 SSTORE PUSH2 0x224 PUSH1 0x0 CALLER PUSH2 0x40D JUMP JUMPDEST PUSH2 0x24E PUSH32 0x9F2DF0FED2C77648DE5860A4CC508CD0818C85B8B8A1AB4CEEEF8D981C8956A6 CALLER PUSH2 0x40D JUMP JUMPDEST PUSH2 0x278 PUSH32 0x65D7A28E3265B37A6474929F336521B332C1681B933F6CB9F3376673440D862A CALLER PUSH2 0x40D JUMP JUMPDEST PUSH2 0x2A2 PUSH32 0xAA9060660DC3E52152EC6C4CD87F38F5433D3E2246058F23A29463EA32476817 CALLER PUSH2 0x40D JUMP JUMPDEST PUSH2 0x2CC PUSH32 0x71840DC4906352362B0CDAF79870196C8E42ACAFADE72D5D5A6D59291253CEB1 DUP3 PUSH2 0x40D JUMP JUMPDEST PUSH2 0x2F6 PUSH32 0xACF805600123EF007091DA3B3FFB39474074C656C127AA68CB0FFEC232A8FF8 CALLER PUSH2 0x40D JUMP JUMPDEST PUSH1 0x13 SLOAD PUSH2 0x32D SWAP1 PUSH1 0x1 PUSH1 0x1 PUSH1 0xA0 SHL SUB AND PUSH1 0x64 PUSH2 0x31E PUSH11 0x52B7D2DCC80CD2E4000000 PUSH1 0x28 PUSH2 0xE26 JUMP JUMPDEST PUSH2 0x328 SWAP2 SWAP1 PUSH2 0xE3D JUMP JUMPDEST PUSH2 0x4B0 JUMP JUMPDEST PUSH1 0xF SLOAD PUSH2 0x355 SWAP1 PUSH1 0x1 PUSH1 0x1 PUSH1 0xA0 SHL SUB AND PUSH1 0x64 PUSH2 0x31E PUSH11 0x52B7D2DCC80CD2E4000000 PUSH1 0x14 PUSH2 0xE26 JUMP JUMPDEST PUSH1 0x10 SLOAD PUSH2 0x37D SWAP1 PUSH1 0x1 PUSH1 0x1 PUSH1 0xA0 SHL SUB AND PUSH1 0x64 PUSH2 0x31E PUSH11 0x52B7D2DCC80CD2E4000000 PUSH1 0x14 PUSH2 0xE26 JUMP JUMPDEST PUSH1 0x11 SLOAD PUSH2 0x3A5 SWAP1 PUSH1 0x1 PUSH1 0x1 PUSH1 0xA0 SHL SUB AND PUSH1 0x64 PUSH2 0x31E PUSH11 0x52B7D2DCC80CD2E4000000 PUSH1 0xA PUSH2 0xE26 JUMP JUMPDEST PUSH1 0x12 SLOAD PUSH2 0x3CD SWAP1 PUSH1 0x1 PUSH1 0x1 PUSH1 0xA0 SHL SUB AND PUSH1 0x64 PUSH2 0x31E PUSH11 0x52B7D2DCC80CD2E4000000 PUSH1 0xA PUSH2 0xE26 JUMP JUMPDEST POP POP POP POP POP POP POP POP PUSH2 0xEDC JUMP JUMPDEST PUSH1 0x0 PUSH1 0x20 DUP4 MLOAD LT ISZERO PUSH2 0x3F6 JUMPI PUSH2 0x3EF DUP4 PUSH2 0x4BA JUMP JUMPDEST SWAP1 POP PUSH2 0x407 JUMP JUMPDEST DUP2 PUSH2 0x401 DUP5 DUP3 PUSH2 0xD52 JUMP JUMPDEST POP PUSH1 0xFF SWAP1 POP JUMPDEST SWAP3 SWAP2 POP POP JUMP JUMPDEST PUSH1 0x0 DUP3 DUP2 MSTORE PUSH1 0xC PUSH1 0x20 SWAP1 DUP2 MSTORE PUSH1 0x40 DUP1 DUP4 KECCAK256 PUSH1 0x1 PUSH1 0x1 PUSH1 0xA0 SHL SUB DUP6 AND DUP5 MSTORE SWAP1 SWAP2 MSTORE SWAP1 KECCAK256 SLOAD PUSH1 0xFF AND PUSH2 0x4AC JUMPI PUSH1 0x0 DUP3 DUP2 MSTORE PUSH1 0xC PUSH1 0x20 SWAP1 DUP2 MSTORE PUSH1 0x40 DUP1 DUP4 KECCAK256 PUSH1 0x1 PUSH1 0x1 PUSH1 0xA0 SHL SUB DUP6 AND DUP5 MSTORE SWAP1 SWAP2 MSTORE SWAP1 KECCAK256 DUP1 SLOAD PUSH1 0xFF NOT AND PUSH1 0x1 OR SWAP1 SSTORE PUSH2 0x46B CALLER SWAP1 JUMP JUMPDEST PUSH1 0x1 PUSH1 0x1 PUSH1 0xA0 SHL SUB AND DUP2 PUSH1 0x1 PUSH1 0x1 PUSH1 0xA0 SHL SUB AND DUP4 PUSH32 0x2F8788117E7EFF1D82E926EC794901D17C78024A50270940304540A733656F0D PUSH1 0x40 MLOAD PUSH1 0x40 MLOAD DUP1 SWAP2 SUB SWAP1 LOG4 JUMPDEST POP POP JUMP JUMPDEST PUSH2 0x4AC DUP3 DUP3 PUSH2 0x4F8 JUMP JUMPDEST PUSH1 0x0 DUP1 DUP3 SWAP1 POP PUSH1 0x1F DUP2 MLOAD GT ISZERO PUSH2 0x4E5 JUMPI DUP3 PUSH1 0x40 MLOAD PUSH4 0x305A27A9 PUSH1 0xE0 SHL DUP2 MSTORE PUSH1 0x4 ADD PUSH2 0x1BA SWAP2 SWAP1 PUSH2 0xE5F JUMP JUMPDEST DUP1 MLOAD PUSH2 0x4F0 DUP3 PUSH2 0xE92 JUMP JUMPDEST OR SWAP4 SWAP3 POP POP POP JUMP JUMPDEST PUSH2 0x502 DUP3 DUP3 PUSH2 0x596 JUMP JUMPDEST PUSH1 0x1 PUSH1 0x1 PUSH1 0xE0 SHL SUB PUSH2 0x514 PUSH2 0x669 DUP3 AND JUMP JUMPDEST GT ISZERO PUSH2 0x57B JUMPI PUSH1 0x40 MLOAD PUSH3 0x461BCD PUSH1 0xE5 SHL DUP2 MSTORE PUSH1 0x20 PUSH1 0x4 DUP3 ADD MSTORE PUSH1 0x30 PUSH1 0x24 DUP3 ADD MSTORE PUSH32 0x4552433230566F7465733A20746F74616C20737570706C79207269736B73206F PUSH1 0x44 DUP3 ADD MSTORE PUSH16 0x766572666C6F77696E6720766F746573 PUSH1 0x80 SHL PUSH1 0x64 DUP3 ADD MSTORE PUSH1 0x84 ADD PUSH2 0x1BA JUMP JUMPDEST PUSH2 0x590 PUSH1 0xB PUSH2 0x1A8B PUSH2 0x66F PUSH1 0x20 SHL OR DUP4 PUSH2 0x682 JUMP JUMPDEST POP POP POP POP JUMP JUMPDEST PUSH1 0x1 PUSH1 0x1 PUSH1 0xA0 SHL SUB DUP3 AND PUSH2 0x5EC JUMPI PUSH1 0x40 MLOAD PUSH3 0x461BCD PUSH1 0xE5 SHL DUP2 MSTORE PUSH1 0x20 PUSH1 0x4 DUP3 ADD MSTORE PUSH1 0x1F PUSH1 0x24 DUP3 ADD MSTORE PUSH32 0x45524332303A206D696E7420746F20746865207A65726F206164647265737300 PUSH1 0x44 DUP3 ADD MSTORE PUSH1 0x64 ADD PUSH2 0x1BA JUMP JUMPDEST PUSH2 0x5F8 PUSH1 0x0 DUP4 DUP4 PUSH2 0x7FA JUMP JUMPDEST DUP1 PUSH1 0x2 PUSH1 0x0 DUP3 DUP3 SLOAD PUSH2 0x60A SWAP2 SWAP1 PUSH2 0xEB6 JUMP JUMPDEST SWAP1 SWAP2 SSTORE POP POP PUSH1 0x1 PUSH1 0x1 PUSH1 0xA0 SHL SUB DUP3 AND PUSH1 0x0 DUP2 DUP2 MSTORE PUSH1 0x20 DUP2 DUP2 MSTORE PUSH1 0x40 DUP1 DUP4 KECCAK256 DUP1 SLOAD DUP7 ADD SWAP1 SSTORE MLOAD DUP5 DUP2 MSTORE PUSH32 0xDDF252AD1BE2C89B69C2B068FC378DAA952BA7F163C4A11628F55A4DF523B3EF SWAP2 ADD PUSH1 0x40 MLOAD DUP1 SWAP2 SUB SWAP1 LOG3 PUSH2 0x4AC PUSH1 0x0 DUP4 DUP4 PUSH2 0x819 JUMP JUMPDEST PUSH1 0x2 SLOAD SWAP1 JUMP JUMPDEST PUSH1 0x0 PUSH2 0x67B DUP3 DUP5 PUSH2 0xEB6 JUMP JUMPDEST SWAP4 SWAP3 POP POP POP JUMP JUMPDEST DUP3 SLOAD PUSH1 0x0 SWAP1 DUP2 SWAP1 DUP2 DUP2 ISZERO PUSH2 0x6CF JUMPI PUSH1 0x0 DUP8 DUP2 MSTORE PUSH1 0x20 SWAP1 KECCAK256 DUP3 ADD PUSH1 0x0 NOT ADD PUSH1 0x40 DUP1 MLOAD DUP1 DUP3 ADD SWAP1 SWAP2 MSTORE SWAP1 SLOAD PUSH4 0xFFFFFFFF DUP2 AND DUP3 MSTORE PUSH5 0x100000000 SWAP1 DIV PUSH1 0x1 PUSH1 0x1 PUSH1 0xE0 SHL SUB AND PUSH1 0x20 DUP3 ADD MSTORE PUSH2 0x6E4 JUMP JUMPDEST PUSH1 0x40 DUP1 MLOAD DUP1 DUP3 ADD SWAP1 SWAP2 MSTORE PUSH1 0x0 DUP1 DUP3 MSTORE PUSH1 0x20 DUP3 ADD MSTORE JUMPDEST SWAP1 POP DUP1 PUSH1 0x20 ADD MLOAD PUSH1 0x1 PUSH1 0x1 PUSH1 0xE0 SHL SUB AND SWAP4 POP PUSH2 0x701 DUP5 DUP7 DUP9 PUSH1 0x20 SHR JUMP JUMPDEST SWAP3 POP PUSH1 0x0 DUP3 GT DUP1 ISZERO PUSH2 0x72B JUMPI POP PUSH2 0x716 PUSH2 0x824 JUMP JUMPDEST PUSH6 0xFFFFFFFFFFFF AND DUP2 PUSH1 0x0 ADD MLOAD PUSH4 0xFFFFFFFF AND EQ JUMPDEST ISZERO PUSH2 0x770 JUMPI PUSH2 0x739 DUP4 PUSH2 0x834 JUMP JUMPDEST PUSH1 0x0 DUP9 DUP2 MSTORE PUSH1 0x20 SWAP1 KECCAK256 DUP4 ADD PUSH1 0x0 NOT ADD DUP1 SLOAD PUSH1 0x1 PUSH1 0x1 PUSH1 0xE0 SHL SUB SWAP3 SWAP1 SWAP3 AND PUSH5 0x100000000 MUL PUSH4 0xFFFFFFFF SWAP1 SWAP3 AND SWAP2 SWAP1 SWAP2 OR SWAP1 SSTORE PUSH2 0x7F0 JUMP JUMPDEST DUP7 PUSH1 0x40 MLOAD DUP1 PUSH1 0x40 ADD PUSH1 0x40 MSTORE DUP1 PUSH2 0x79A PUSH2 0x78D PUSH2 0x824 PUSH1 0x20 SHL PUSH1 0x20 SHR JUMP JUMPDEST PUSH6 0xFFFFFFFFFFFF AND PUSH2 0x8A1 JUMP JUMPDEST PUSH4 0xFFFFFFFF AND DUP2 MSTORE PUSH1 0x20 ADD PUSH2 0x7AE DUP7 PUSH2 0x834 JUMP JUMPDEST PUSH1 0x1 PUSH1 0x1 PUSH1 0xE0 SHL SUB SWAP1 DUP2 AND SWAP1 SWAP2 MSTORE DUP3 SLOAD PUSH1 0x1 DUP2 ADD DUP5 SSTORE PUSH1 0x0 SWAP4 DUP5 MSTORE PUSH1 0x20 SWAP4 DUP5 SWAP1 KECCAK256 DUP4 MLOAD SWAP5 SWAP1 SWAP4 ADD MLOAD SWAP1 SWAP2 AND PUSH5 0x100000000 MUL PUSH4 0xFFFFFFFF SWAP1 SWAP4 AND SWAP3 SWAP1 SWAP3 OR SWAP2 ADD SSTORE JUMPDEST POP POP SWAP4 POP SWAP4 SWAP2 POP POP JUMP JUMPDEST PUSH2 0x802 PUSH2 0x906 JUMP JUMPDEST PUSH2 0x814 DUP4 DUP4 DUP4 PUSH1 0x1 PUSH1 0x1 PUSH1 0xE0 SHL SUB DUP5 AND JUMP JUMPDEST POP POP POP JUMP JUMPDEST PUSH2 0x814 DUP4 DUP4 DUP4 PUSH2 0x94E JUMP JUMPDEST PUSH1 0x0 PUSH2 0x82F NUMBER PUSH2 0x980 JUMP JUMPDEST SWAP1 POP SWAP1 JUMP JUMPDEST PUSH1 0x0 PUSH1 0x1 PUSH1 0x1 PUSH1 0xE0 SHL SUB DUP3 GT ISZERO PUSH2 0x89D JUMPI PUSH1 0x40 MLOAD PUSH3 0x461BCD PUSH1 0xE5 SHL DUP2 MSTORE PUSH1 0x20 PUSH1 0x4 DUP3 ADD MSTORE PUSH1 0x27 PUSH1 0x24 DUP3 ADD MSTORE PUSH32 0x53616665436173743A2076616C756520646F65736E27742066697420696E2032 PUSH1 0x44 DUP3 ADD MSTORE PUSH7 0x32342062697473 PUSH1 0xC8 SHL PUSH1 0x64 DUP3 ADD MSTORE PUSH1 0x84 ADD PUSH2 0x1BA JUMP JUMPDEST POP SWAP1 JUMP JUMPDEST PUSH1 0x0 PUSH4 0xFFFFFFFF DUP3 GT ISZERO PUSH2 0x89D JUMPI PUSH1 0x40 MLOAD PUSH3 0x461BCD PUSH1 0xE5 SHL DUP2 MSTORE PUSH1 0x20 PUSH1 0x4 DUP3 ADD MSTORE PUSH1 0x26 PUSH1 0x24 DUP3 ADD MSTORE PUSH32 0x53616665436173743A2076616C756520646F65736E27742066697420696E2033 PUSH1 0x44 DUP3 ADD MSTORE PUSH6 0x322062697473 PUSH1 0xD0 SHL PUSH1 0x64 DUP3 ADD MSTORE PUSH1 0x84 ADD PUSH2 0x1BA JUMP JUMPDEST PUSH1 0xD SLOAD PUSH1 0xFF AND ISZERO PUSH2 0x94C JUMPI PUSH1 0x40 MLOAD PUSH3 0x461BCD PUSH1 0xE5 SHL DUP2 MSTORE PUSH1 0x20 PUSH1 0x4 DUP3 ADD MSTORE PUSH1 0x10 PUSH1 0x24 DUP3 ADD MSTORE PUSH16 0x14185D5CD8589B194E881C185D5CD959 PUSH1 0x82 SHL PUSH1 0x44 DUP3 ADD MSTORE PUSH1 0x64 ADD PUSH2 0x1BA JUMP JUMPDEST JUMP JUMPDEST PUSH1 0x1 PUSH1 0x1 PUSH1 0xA0 SHL SUB DUP4 DUP2 AND PUSH1 0x0 SWAP1 DUP2 MSTORE PUSH1 0x9 PUSH1 0x20 MSTORE PUSH1 0x40 DUP1 DUP3 KECCAK256 SLOAD DUP6 DUP5 AND DUP4 MSTORE SWAP2 KECCAK256 SLOAD PUSH2 0x814 SWAP3 SWAP2 DUP3 AND SWAP2 AND DUP4 PUSH2 0x9E7 JUMP JUMPDEST PUSH1 0x0 PUSH6 0xFFFFFFFFFFFF DUP3 GT ISZERO PUSH2 0x89D JUMPI PUSH1 0x40 MLOAD PUSH3 0x461BCD PUSH1 0xE5 SHL DUP2 MSTORE PUSH1 0x20 PUSH1 0x4 DUP3 ADD MSTORE PUSH1 0x26 PUSH1 0x24 DUP3 ADD MSTORE PUSH32 0x53616665436173743A2076616C756520646F65736E27742066697420696E2034 PUSH1 0x44 DUP3 ADD MSTORE PUSH6 0x382062697473 PUSH1 0xD0 SHL PUSH1 0x64 DUP3 ADD MSTORE PUSH1 0x84 ADD PUSH2 0x1BA JUMP JUMPDEST DUP2 PUSH1 0x1 PUSH1 0x1 PUSH1 0xA0 SHL SUB AND DUP4 PUSH1 0x1 PUSH1 0x1 PUSH1 0xA0 SHL SUB AND EQ ISZERO DUP1 ISZERO PUSH2 0xA09 JUMPI POP PUSH1 0x0 DUP2 GT JUMPDEST ISZERO PUSH2 0x814 JUMPI PUSH1 0x1 PUSH1 0x1 PUSH1 0xA0 SHL SUB DUP4 AND ISZERO PUSH2 0xA8E JUMPI PUSH1 0x1 PUSH1 0x1 PUSH1 0xA0 SHL SUB DUP4 AND PUSH1 0x0 SWAP1 DUP2 MSTORE PUSH1 0xA PUSH1 0x20 SWAP1 DUP2 MSTORE PUSH1 0x40 DUP3 KECCAK256 DUP3 SWAP2 PUSH2 0xA4D SWAP2 SWAP1 PUSH2 0xB12 SWAP1 SHL PUSH2 0x1A97 OR DUP6 PUSH2 0x682 JUMP JUMPDEST SWAP2 POP SWAP2 POP DUP5 PUSH1 0x1 PUSH1 0x1 PUSH1 0xA0 SHL SUB AND PUSH1 0x0 DUP1 MLOAD PUSH1 0x20 PUSH2 0x460F DUP4 CODECOPY DUP2 MLOAD SWAP2 MSTORE DUP4 DUP4 PUSH1 0x40 MLOAD PUSH2 0xA83 SWAP3 SWAP2 SWAP1 SWAP2 DUP3 MSTORE PUSH1 0x20 DUP3 ADD MSTORE PUSH1 0x40 ADD SWAP1 JUMP JUMPDEST PUSH1 0x40 MLOAD DUP1 SWAP2 SUB SWAP1 LOG2 POP POP JUMPDEST PUSH1 0x1 PUSH1 0x1 PUSH1 0xA0 SHL SUB DUP3 AND ISZERO PUSH2 0x814 JUMPI PUSH1 0x1 PUSH1 0x1 PUSH1 0xA0 SHL SUB DUP3 AND PUSH1 0x0 SWAP1 DUP2 MSTORE PUSH1 0xA PUSH1 0x20 SWAP1 DUP2 MSTORE PUSH1 0x40 DUP3 KECCAK256 DUP3 SWAP2 PUSH2 0xACD SWAP2 SWAP1 PUSH2 0x66F SWAP1 SHL PUSH2 0x1A8B OR DUP6 PUSH2 0x682 JUMP JUMPDEST SWAP2 POP SWAP2 POP DUP4 PUSH1 0x1 PUSH1 0x1 PUSH1 0xA0 SHL SUB AND PUSH1 0x0 DUP1 MLOAD PUSH1 0x20 PUSH2 0x460F DUP4 CODECOPY DUP2 MLOAD SWAP2 MSTORE DUP4 DUP4 PUSH1 0x40 MLOAD PUSH2 0xB03 SWAP3 SWAP2 SWAP1 SWAP2 DUP3 MSTORE PUSH1 0x20 DUP3 ADD MSTORE PUSH1 0x40 ADD SWAP1 JUMP JUMPDEST PUSH1 0x40 MLOAD DUP1 SWAP2 SUB SWAP1 LOG2 POP POP POP POP POP JUMP JUMPDEST PUSH1 0x0 PUSH2 0x67B DUP3 DUP5 PUSH2 0xEC9 JUMP JUMPDEST PUSH4 0x4E487B71 PUSH1 0xE0 SHL PUSH1 0x0 MSTORE PUSH1 0x41 PUSH1 0x4 MSTORE PUSH1 0x24 PUSH1 0x0 REVERT JUMPDEST PUSH1 0x0 JUMPDEST DUP4 DUP2 LT ISZERO PUSH2 0xB4F JUMPI DUP2 DUP2 ADD MLOAD DUP4 DUP3 ADD MSTORE PUSH1 0x20 ADD PUSH2 0xB37 JUMP JUMPDEST POP POP PUSH1 0x0 SWAP2 ADD MSTORE JUMP JUMPDEST PUSH1 0x0 DUP3 PUSH1 0x1F DUP4 ADD SLT PUSH2 0xB69 JUMPI PUSH1 0x0 DUP1 REVERT JUMPDEST DUP2 MLOAD PUSH1 0x1 PUSH1 0x1 PUSH1 0x40 SHL SUB DUP2 GT ISZERO PUSH2 0xB82 JUMPI PUSH2 0xB82 PUSH2 0xB1E JUMP JUMPDEST PUSH1 0x40 MLOAD PUSH1 0x1F DUP3 ADD PUSH1 0x1F NOT SWAP1 DUP2 AND PUSH1 0x3F ADD AND DUP2 ADD PUSH1 0x1 PUSH1 0x1 PUSH1 0x40 SHL SUB DUP2 GT DUP3 DUP3 LT OR ISZERO PUSH2 0xBB0 JUMPI PUSH2 0xBB0 PUSH2 0xB1E JUMP JUMPDEST PUSH1 0x40 MSTORE DUP2 DUP2 MSTORE DUP4 DUP3 ADD PUSH1 0x20 ADD DUP6 LT ISZERO PUSH2 0xBC8 JUMPI PUSH1 0x0 DUP1 REVERT JUMPDEST PUSH2 0xBD9 DUP3 PUSH1 0x20 DUP4 ADD PUSH1 0x20 DUP8 ADD PUSH2 0xB34 JUMP JUMPDEST SWAP5 SWAP4 POP POP POP POP JUMP JUMPDEST DUP1 MLOAD PUSH1 0x1 PUSH1 0x1 PUSH1 0xA0 SHL SUB DUP2 AND DUP2 EQ PUSH2 0xBF8 JUMPI PUSH1 0x0 DUP1 REVERT JUMPDEST SWAP2 SWAP1 POP JUMP JUMPDEST PUSH1 0x0 DUP1 PUSH1 0x0 DUP1 PUSH1 0x0 DUP1 PUSH1 0x0 DUP1 PUSH2 0x100 DUP10 DUP12 SUB SLT ISZERO PUSH2 0xC1A JUMPI PUSH1 0x0 DUP1 REVERT JUMPDEST DUP9 MLOAD PUSH1 0x1 PUSH1 0x1 PUSH1 0x40 SHL SUB DUP2 GT ISZERO PUSH2 0xC30 JUMPI PUSH1 0x0 DUP1 REVERT JUMPDEST PUSH2 0xC3C DUP12 DUP3 DUP13 ADD PUSH2 0xB58 JUMP JUMPDEST PUSH1 0x20 DUP12 ADD MLOAD SWAP1 SWAP10 POP SWAP1 POP PUSH1 0x1 PUSH1 0x1 PUSH1 0x40 SHL SUB DUP2 GT ISZERO PUSH2 0xC5A JUMPI PUSH1 0x0 DUP1 REVERT JUMPDEST PUSH2 0xC66 DUP12 DUP3 DUP13 ADD PUSH2 0xB58 JUMP JUMPDEST SWAP8 POP POP PUSH2 0xC75 PUSH1 0x40 DUP11 ADD PUSH2 0xBE1 JUMP JUMPDEST SWAP6 POP PUSH2 0xC83 PUSH1 0x60 DUP11 ADD PUSH2 0xBE1 JUMP JUMPDEST SWAP5 POP PUSH2 0xC91 PUSH1 0x80 DUP11 ADD PUSH2 0xBE1 JUMP JUMPDEST SWAP4 POP PUSH2 0xC9F PUSH1 0xA0 DUP11 ADD PUSH2 0xBE1 JUMP JUMPDEST SWAP3 POP PUSH2 0xCAD PUSH1 0xC0 DUP11 ADD PUSH2 0xBE1 JUMP JUMPDEST SWAP2 POP PUSH2 0xCBB PUSH1 0xE0 DUP11 ADD PUSH2 0xBE1 JUMP JUMPDEST SWAP1 POP SWAP3 SWAP6 SWAP9 POP SWAP3 SWAP6 SWAP9 SWAP1 SWAP4 SWAP7 POP JUMP JUMPDEST PUSH1 0x1 DUP2 DUP2 SHR SWAP1 DUP3 AND DUP1 PUSH2 0xCDE JUMPI PUSH1 0x7F DUP3 AND SWAP2 POP JUMPDEST PUSH1 0x20 DUP3 LT DUP2 SUB PUSH2 0xCFE JUMPI PUSH4 0x4E487B71 PUSH1 0xE0 SHL PUSH1 0x0 MSTORE PUSH1 0x22 PUSH1 0x4 MSTORE PUSH1 0x24 PUSH1 0x0 REVERT JUMPDEST POP SWAP2 SWAP1 POP JUMP JUMPDEST PUSH1 0x1F DUP3 GT ISZERO PUSH2 0x814 JUMPI DUP1 PUSH1 0x0 MSTORE PUSH1 0x20 PUSH1 0x0 KECCAK256 PUSH1 0x1F DUP5 ADD PUSH1 0x5 SHR DUP2 ADD PUSH1 0x20 DUP6 LT ISZERO PUSH2 0xD2B JUMPI POP DUP1 JUMPDEST PUSH1 0x1F DUP5 ADD PUSH1 0x5 SHR DUP3 ADD SWAP2 POP JUMPDEST DUP2 DUP2 LT ISZERO PUSH2 0xD4B JUMPI PUSH1 0x0 DUP2 SSTORE PUSH1 0x1 ADD PUSH2 0xD37 JUMP JUMPDEST POP POP POP POP POP JUMP JUMPDEST DUP2 MLOAD PUSH1 0x1 PUSH1 0x1 PUSH1 0x40 SHL SUB DUP2 GT ISZERO PUSH2 0xD6B JUMPI PUSH2 0xD6B PUSH2 0xB1E JUMP JUMPDEST PUSH2 0xD7F DUP2 PUSH2 0xD79 DUP5 SLOAD PUSH2 0xCCA JUMP JUMPDEST DUP5 PUSH2 0xD04 JUMP JUMPDEST PUSH1 0x20 PUSH1 0x1F DUP3 GT PUSH1 0x1 DUP2 EQ PUSH2 0xDB3 JUMPI PUSH1 0x0 DUP4 ISZERO PUSH2 0xD9B JUMPI POP DUP5 DUP3 ADD MLOAD JUMPDEST PUSH1 0x0 NOT PUSH1 0x3 DUP6 SWAP1 SHL SHR NOT AND PUSH1 0x1 DUP5 SWAP1 SHL OR DUP5 SSTORE PUSH2 0xD4B JUMP JUMPDEST PUSH1 0x0 DUP5 DUP2 MSTORE PUSH1 0x20 DUP2 KECCAK256 PUSH1 0x1F NOT DUP6 AND SWAP2 JUMPDEST DUP3 DUP2 LT ISZERO PUSH2 0xDE3 JUMPI DUP8 DUP6 ADD MLOAD DUP3 SSTORE PUSH1 0x20 SWAP5 DUP6 ADD SWAP5 PUSH1 0x1 SWAP1 SWAP3 ADD SWAP2 ADD PUSH2 0xDC3 JUMP JUMPDEST POP DUP5 DUP3 LT ISZERO PUSH2 0xE01 JUMPI DUP7 DUP5 ADD MLOAD PUSH1 0x0 NOT PUSH1 0x3 DUP8 SWAP1 SHL PUSH1 0xF8 AND SHR NOT AND DUP2 SSTORE JUMPDEST POP POP POP POP PUSH1 0x1 SWAP1 DUP2 SHL ADD SWAP1 SSTORE POP JUMP JUMPDEST PUSH4 0x4E487B71 PUSH1 0xE0 SHL PUSH1 0x0 MSTORE PUSH1 0x11 PUSH1 0x4 MSTORE PUSH1 0x24 PUSH1 0x0 REVERT JUMPDEST DUP1 DUP3 MUL DUP2 ISZERO DUP3 DUP3 DIV DUP5 EQ OR PUSH2 0x407 JUMPI PUSH2 0x407 PUSH2 0xE10 JUMP JUMPDEST PUSH1 0x0 DUP3 PUSH2 0xE5A JUMPI PUSH4 0x4E487B71 PUSH1 0xE0 SHL PUSH1 0x0 MSTORE PUSH1 0x12 PUSH1 0x4 MSTORE PUSH1 0x24 PUSH1 0x0 REVERT JUMPDEST POP DIV SWAP1 JUMP JUMPDEST PUSH1 0x20 DUP2 MSTORE PUSH1 0x0 DUP3 MLOAD DUP1 PUSH1 0x20 DUP5 ADD MSTORE PUSH2 0xE7E DUP2 PUSH1 0x40 DUP6 ADD PUSH1 0x20 DUP8 ADD PUSH2 0xB34 JUMP JUMPDEST PUSH1 0x1F ADD PUSH1 0x1F NOT AND SWAP2 SWAP1 SWAP2 ADD PUSH1 0x40 ADD SWAP3 SWAP2 POP POP JUMP JUMPDEST DUP1 MLOAD PUSH1 0x20 DUP1 DUP4 ADD MLOAD SWAP2 SWAP1 DUP2 LT ISZERO PUSH2 0xCFE JUMPI PUSH1 0x0 NOT PUSH1 0x20 SWAP2 SWAP1 SWAP2 SUB PUSH1 0x3 SHL SHL AND SWAP2 SWAP1 POP JUMP JUMPDEST DUP1 DUP3 ADD DUP1 DUP3 GT ISZERO PUSH2 0x407 JUMPI PUSH2 0x407 PUSH2 0xE10 JUMP JUMPDEST DUP2 DUP2 SUB DUP2 DUP2 GT ISZERO PUSH2 0x407 JUMPI PUSH2 0x407 PUSH2 0xE10 JUMP JUMPDEST PUSH1 0x80 MLOAD PUSH1 0xA0 MLOAD PUSH1 0xC0 MLOAD PUSH1 0xE0 MLOAD PUSH2 0x100 MLOAD PUSH2 0x120 MLOAD PUSH2 0x140 MLOAD PUSH2 0x36D9 PUSH2 0xF36 PUSH1 0x0 CODECOPY PUSH1 0x0 PUSH2 0xC1F ADD MSTORE PUSH1 0x0 PUSH2 0xBF4 ADD MSTORE PUSH1 0x0 PUSH2 0x1F5A ADD MSTORE PUSH1 0x0 PUSH2 0x1F32 ADD MSTORE PUSH1 0x0 PUSH2 0x1E8D ADD MSTORE PUSH1 0x0 PUSH2 0x1EB7 ADD MSTORE PUSH1 0x0 PUSH2 0x1EE1 ADD MSTORE PUSH2 0x36D9 PUSH1 0x0 RETURN INVALID PUSH1 0x80 PUSH1 0x40 MSTORE CALLVALUE DUP1 ISZERO PUSH2 0x10 JUMPI PUSH1 0x0 DUP1 REVERT JUMPDEST POP PUSH1 0x4 CALLDATASIZE LT PUSH2 0x327 JUMPI PUSH1 0x0 CALLDATALOAD PUSH1 0xE0 SHR DUP1 PUSH4 0x8E539E8C GT PUSH2 0x1B8 JUMPI DUP1 PUSH4 0xC3CDA520 GT PUSH2 0x104 JUMPI DUP1 PUSH4 0xE63AB1E9 GT PUSH2 0xA2 JUMPI DUP1 PUSH4 0xF36C8F5C GT PUSH2 0x7C JUMPI DUP1 PUSH4 0xF36C8F5C EQ PUSH2 0x76E JUMPI DUP1 PUSH4 0xF676F331 EQ PUSH2 0x795 JUMPI DUP1 PUSH4 0xF79ED94B EQ PUSH2 0x7A8 JUMPI DUP1 PUSH4 0xFE64C681 EQ PUSH2 0x7BB JUMPI PUSH1 0x0 DUP1 REVERT JUMPDEST DUP1 PUSH4 0xE63AB1E9 EQ PUSH2 0x6F7 JUMPI DUP1 PUSH4 0xEB8F4C4A EQ PUSH2 0x71E JUMPI DUP1 PUSH4 0xF1127ED8 EQ PUSH2 0x731 JUMPI PUSH1 0x0 DUP1 REVERT JUMPDEST DUP1 PUSH4 0xD5391393 GT PUSH2 0xDE JUMPI DUP1 PUSH4 0xD5391393 EQ PUSH2 0x6A2 JUMPI DUP1 PUSH4 0xD547741F EQ PUSH2 0x6C9 JUMPI DUP1 PUSH4 0xDD62ED3E EQ PUSH2 0x6DC JUMPI DUP1 PUSH4 0xDFEF15B8 EQ PUSH2 0x6EF JUMPI PUSH1 0x0 DUP1 REVERT JUMPDEST DUP1 PUSH4 0xC3CDA520 EQ PUSH2 0x669 JUMPI DUP1 PUSH4 0xC69DEF0B EQ PUSH2 0x67C JUMPI DUP1 PUSH4 0xD505ACCF EQ PUSH2 0x68F JUMPI PUSH1 0x0 DUP1 REVERT JUMPDEST DUP1 PUSH4 0x9AB24EB0 GT PUSH2 0x171 JUMPI DUP1 PUSH4 0xA457C2D7 GT PUSH2 0x14B JUMPI DUP1 PUSH4 0xA457C2D7 EQ PUSH2 0x628 JUMPI DUP1 PUSH4 0xA9059CBB EQ PUSH2 0x63B JUMPI DUP1 PUSH4 0xA978D8DF EQ PUSH2 0x64E JUMPI DUP1 PUSH4 0xAE621BBE EQ PUSH2 0x661 JUMPI PUSH1 0x0 DUP1 REVERT JUMPDEST DUP1 PUSH4 0x9AB24EB0 EQ PUSH2 0x5FA JUMPI DUP1 PUSH4 0xA217FDDF EQ PUSH2 0x60D JUMPI DUP1 PUSH4 0xA34CEA08 EQ PUSH2 0x615 JUMPI PUSH1 0x0 DUP1 REVERT JUMPDEST DUP1 PUSH4 0x8E539E8C EQ PUSH2 0x588 JUMPI DUP1 PUSH4 0x902D55A5 EQ PUSH2 0x59B JUMPI DUP1 PUSH4 0x91D14854 EQ PUSH2 0x5AD JUMPI DUP1 PUSH4 0x91DDADF4 EQ PUSH2 0x5C0 JUMPI DUP1 PUSH4 0x91EE2A3D EQ PUSH2 0x5DF JUMPI DUP1 PUSH4 0x95D89B41 EQ PUSH2 0x5F2 JUMPI PUSH1 0x0 DUP1 REVERT JUMPDEST DUP1 PUSH4 0x3A46B1A8 GT PUSH2 0x277 JUMPI DUP1 PUSH4 0x626C3D43 GT PUSH2 0x230 JUMPI DUP1 PUSH4 0x70A08231 GT PUSH2 0x20A JUMPI DUP1 PUSH4 0x70A08231 EQ PUSH2 0x529 JUMPI DUP1 PUSH4 0x7ECEBE00 EQ PUSH2 0x552 JUMPI DUP1 PUSH4 0x8456CB59 EQ PUSH2 0x565 JUMPI DUP1 PUSH4 0x84B0196E EQ PUSH2 0x56D JUMPI PUSH1 0x0 DUP1 REVERT JUMPDEST DUP1 PUSH4 0x626C3D43 EQ PUSH2 0x4DB JUMPI DUP1 PUSH4 0x638B1B14 EQ PUSH2 0x4EE JUMPI DUP1 PUSH4 0x6FCFFF45 EQ PUSH2 0x501 JUMPI PUSH1 0x0 DUP1 REVERT JUMPDEST DUP1 PUSH4 0x3A46B1A8 EQ PUSH2 0x456 JUMPI DUP1 PUSH4 0x3F4BA83A EQ PUSH2 0x469 JUMPI DUP1 PUSH4 0x4BF5D7E9 EQ PUSH2 0x471 JUMPI DUP1 PUSH4 0x587CDE1E EQ PUSH2 0x479 JUMPI DUP1 PUSH4 0x5C19A95C EQ PUSH2 0x4BD JUMPI DUP1 PUSH4 0x5C975ABB EQ PUSH2 0x4D0 JUMPI PUSH1 0x0 DUP1 REVERT JUMPDEST DUP1 PUSH4 0x248A9CA3 GT PUSH2 0x2E4 JUMPI DUP1 PUSH4 0x31993A1C GT PUSH2 0x2BE JUMPI DUP1 PUSH4 0x31993A1C EQ PUSH2 0x401 JUMPI DUP1 PUSH4 0x3644E515 EQ PUSH2 0x428 JUMPI DUP1 PUSH4 0x36568ABE EQ PUSH2 0x430 JUMPI DUP1 PUSH4 0x39509351 EQ PUSH2 0x443 JUMPI PUSH1 0x0 DUP1 REVERT JUMPDEST DUP1 PUSH4 0x248A9CA3 EQ PUSH2 0x3BA JUMPI DUP1 PUSH4 0x2F2FF15D EQ PUSH2 0x3DD JUMPI DUP1 PUSH4 0x313CE567 EQ PUSH2 0x3F2 JUMPI PUSH1 0x0 DUP1 REVERT JUMPDEST DUP1 PUSH4 0x1FFC9A7 EQ PUSH2 0x32C JUMPI DUP1 PUSH4 0x6FDDE03 EQ PUSH2 0x354 JUMPI DUP1 PUSH4 0x95EA7B3 EQ PUSH2 0x369 JUMPI DUP1 PUSH4 0x15E98E73 EQ PUSH2 0x37C JUMPI DUP1 PUSH4 0x18160DDD EQ PUSH2 0x39F JUMPI DUP1 PUSH4 0x23B872DD EQ PUSH2 0x3A7 JUMPI JUMPDEST PUSH1 0x0 DUP1 REVERT JUMPDEST PUSH2 0x33F PUSH2 0x33A CALLDATASIZE PUSH1 0x4 PUSH2 0x310D JUMP JUMPDEST PUSH2 0x7CE JUMP JUMPDEST PUSH1 0x40 MLOAD SWAP1 ISZERO ISZERO DUP2 MSTORE PUSH1 0x20 ADD JUMPDEST PUSH1 0x40 MLOAD DUP1 SWAP2 SUB SWAP1 RETURN JUMPDEST PUSH2 0x35C PUSH2 0x805 JUMP JUMPDEST PUSH1 0x40 MLOAD PUSH2 0x34B SWAP2 SWAP1 PUSH2 0x3187 JUMP JUMPDEST PUSH2 0x33F PUSH2 0x377 CALLDATASIZE PUSH1 0x4 PUSH2 0x31B6 JUMP JUMPDEST PUSH2 0x897 JUMP JUMPDEST PUSH2 0x391 PUSH1 0x0 DUP1 MLOAD PUSH1 0x20 PUSH2 0x3684 DUP4 CODECOPY DUP2 MLOAD SWAP2 MSTORE DUP2 JUMP JUMPDEST PUSH1 0x40 MLOAD SWAP1 DUP2 MSTORE PUSH1 0x20 ADD PUSH2 0x34B JUMP JUMPDEST PUSH1 0x2 SLOAD PUSH2 0x391 JUMP JUMPDEST PUSH2 0x33F PUSH2 0x3B5 CALLDATASIZE PUSH1 0x4 PUSH2 0x31E0 JUMP JUMPDEST PUSH2 0x8AF JUMP JUMPDEST PUSH2 0x391 PUSH2 0x3C8 CALLDATASIZE PUSH1 0x4 PUSH2 0x321D JUMP JUMPDEST PUSH1 0x0 SWAP1 DUP2 MSTORE PUSH1 0xC PUSH1 0x20 MSTORE PUSH1 0x40 SWAP1 KECCAK256 PUSH1 0x1 ADD SLOAD SWAP1 JUMP JUMPDEST PUSH2 0x3F0 PUSH2 0x3EB CALLDATASIZE PUSH1 0x4 PUSH2 0x3236 JUMP JUMPDEST PUSH2 0x8D3 JUMP JUMPDEST STOP JUMPDEST PUSH1 0x40 MLOAD PUSH1 0x12 DUP2 MSTORE PUSH1 0x20 ADD PUSH2 0x34B JUMP JUMPDEST PUSH2 0x391 PUSH32 0xACF805600123EF007091DA3B3FFB39474074C656C127AA68CB0FFEC232A8FF8 DUP2 JUMP JUMPDEST PUSH2 0x391 PUSH2 0x8FD JUMP JUMPDEST PUSH2 0x3F0 PUSH2 0x43E CALLDATASIZE PUSH1 0x4 PUSH2 0x3236 JUMP JUMPDEST PUSH2 0x90C JUMP JUMPDEST PUSH2 0x33F PUSH2 0x451 CALLDATASIZE PUSH1 0x4 PUSH2 0x31B6 JUMP JUMPDEST PUSH2 0x98F JUMP JUMPDEST PUSH2 0x391 PUSH2 0x464 CALLDATASIZE PUSH1 0x4 PUSH2 0x31B6 JUMP JUMPDEST PUSH2 0x9B1 JUMP JUMPDEST PUSH2 0x3F0 PUSH2 0xA36 JUMP JUMPDEST PUSH2 0x35C PUSH2 0xA9F JUMP JUMPDEST PUSH2 0x4A5 PUSH2 0x487 CALLDATASIZE PUSH1 0x4 PUSH2 0x3262 JUMP JUMPDEST PUSH1 0x1 PUSH1 0x1 PUSH1 0xA0 SHL SUB SWAP1 DUP2 AND PUSH1 0x0 SWAP1 DUP2 MSTORE PUSH1 0x9 PUSH1 0x20 MSTORE PUSH1 0x40 SWAP1 KECCAK256 SLOAD AND SWAP1 JUMP JUMPDEST PUSH1 0x40 MLOAD PUSH1 0x1 PUSH1 0x1 PUSH1 0xA0 SHL SUB SWAP1 SWAP2 AND DUP2 MSTORE PUSH1 0x20 ADD PUSH2 0x34B JUMP JUMPDEST PUSH2 0x3F0 PUSH2 0x4CB CALLDATASIZE PUSH1 0x4 PUSH2 0x3262 JUMP JUMPDEST PUSH2 0xB37 JUMP JUMPDEST PUSH1 0xD SLOAD PUSH1 0xFF AND PUSH2 0x33F JUMP JUMPDEST PUSH1 0x12 SLOAD PUSH2 0x4A5 SWAP1 PUSH1 0x1 PUSH1 0x1 PUSH1 0xA0 SHL SUB AND DUP2 JUMP JUMPDEST PUSH1 0x10 SLOAD PUSH2 0x4A5 SWAP1 PUSH1 0x1 PUSH1 0x1 PUSH1 0xA0 SHL SUB AND DUP2 JUMP JUMPDEST PUSH2 0x514 PUSH2 0x50F CALLDATASIZE PUSH1 0x4 PUSH2 0x3262 JUMP JUMPDEST PUSH2 0xB44 JUMP JUMPDEST PUSH1 0x40 MLOAD PUSH4 0xFFFFFFFF SWAP1 SWAP2 AND DUP2 MSTORE PUSH1 0x20 ADD PUSH2 0x34B JUMP JUMPDEST PUSH2 0x391 PUSH2 0x537 CALLDATASIZE PUSH1 0x4 PUSH2 0x3262 JUMP JUMPDEST PUSH1 0x1 PUSH1 0x1 PUSH1 0xA0 SHL SUB AND PUSH1 0x0 SWAP1 DUP2 MSTORE PUSH1 0x20 DUP2 SWAP1 MSTORE PUSH1 0x40 SWAP1 KECCAK256 SLOAD SWAP1 JUMP JUMPDEST PUSH2 0x391 PUSH2 0x560 CALLDATASIZE PUSH1 0x4 PUSH2 0x3262 JUMP JUMPDEST PUSH2 0xB66 JUMP JUMPDEST PUSH2 0x3F0 PUSH2 0xB84 JUMP JUMPDEST PUSH2 0x575 PUSH2 0xBE6 JUMP JUMPDEST PUSH1 0x40 MLOAD PUSH2 0x34B SWAP8 SWAP7 SWAP6 SWAP5 SWAP4 SWAP3 SWAP2 SWAP1 PUSH2 0x327D JUMP JUMPDEST PUSH2 0x391 PUSH2 0x596 CALLDATASIZE PUSH1 0x4 PUSH2 0x321D JUMP JUMPDEST PUSH2 0xC6F JUMP JUMPDEST PUSH2 0x391 PUSH11 0x52B7D2DCC80CD2E4000000 DUP2 JUMP JUMPDEST PUSH2 0x33F PUSH2 0x5BB CALLDATASIZE PUSH1 0x4 PUSH2 0x3236 JUMP JUMPDEST PUSH2 0xCD6 JUMP JUMPDEST PUSH2 0x5C8 PUSH2 0xD01 JUMP JUMPDEST PUSH1 0x40 MLOAD PUSH6 0xFFFFFFFFFFFF SWAP1 SWAP2 AND DUP2 MSTORE PUSH1 0x20 ADD PUSH2 0x34B JUMP JUMPDEST PUSH2 0x3F0 PUSH2 0x5ED CALLDATASIZE PUSH1 0x4 PUSH2 0x3324 JUMP JUMPDEST PUSH2 0xD0C JUMP JUMPDEST PUSH2 0x35C PUSH2 0xEAE JUMP JUMPDEST PUSH2 0x391 PUSH2 0x608 CALLDATASIZE PUSH1 0x4 PUSH2 0x3262 JUMP JUMPDEST PUSH2 0xEBD JUMP JUMPDEST PUSH2 0x391 PUSH1 0x0 DUP2 JUMP JUMPDEST PUSH2 0x3F0 PUSH2 0x623 CALLDATASIZE PUSH1 0x4 PUSH2 0x3340 JUMP JUMPDEST PUSH2 0xF3F JUMP JUMPDEST PUSH2 0x33F PUSH2 0x636 CALLDATASIZE PUSH1 0x4 PUSH2 0x31B6 JUMP JUMPDEST PUSH2 0x1149 JUMP JUMPDEST PUSH2 0x33F PUSH2 0x649 CALLDATASIZE PUSH1 0x4 PUSH2 0x31B6 JUMP JUMPDEST PUSH2 0x11C4 JUMP JUMPDEST PUSH2 0x3F0 PUSH2 0x65C CALLDATASIZE PUSH1 0x4 PUSH2 0x3324 JUMP JUMPDEST PUSH2 0x11D2 JUMP JUMPDEST PUSH2 0x391 PUSH2 0x12F3 JUMP JUMPDEST PUSH2 0x3F0 PUSH2 0x677 CALLDATASIZE PUSH1 0x4 PUSH2 0x336F JUMP JUMPDEST PUSH2 0x14FB JUMP JUMPDEST PUSH2 0x3F0 PUSH2 0x68A CALLDATASIZE PUSH1 0x4 PUSH2 0x33C7 JUMP JUMPDEST PUSH2 0x1631 JUMP JUMPDEST PUSH2 0x3F0 PUSH2 0x69D CALLDATASIZE PUSH1 0x4 PUSH2 0x33F1 JUMP JUMPDEST PUSH2 0x177F JUMP JUMPDEST PUSH2 0x391 PUSH32 0x9F2DF0FED2C77648DE5860A4CC508CD0818C85B8B8A1AB4CEEEF8D981C8956A6 DUP2 JUMP JUMPDEST PUSH2 0x3F0 PUSH2 0x6D7 CALLDATASIZE PUSH1 0x4 PUSH2 0x3236 JUMP JUMPDEST PUSH2 0x18E3 JUMP JUMPDEST PUSH2 0x391 PUSH2 0x6EA CALLDATASIZE PUSH1 0x4 PUSH2 0x345C JUMP JUMPDEST PUSH2 0x1908 JUMP JUMPDEST PUSH2 0x391 PUSH2 0x1933 JUMP JUMPDEST PUSH2 0x391 PUSH32 0x65D7A28E3265B37A6474929F336521B332C1681B933F6CB9F3376673440D862A DUP2 JUMP JUMPDEST PUSH2 0x3F0 PUSH2 0x72C CALLDATASIZE PUSH1 0x4 PUSH2 0x31E0 JUMP JUMPDEST PUSH2 0x197E JUMP JUMPDEST PUSH2 0x744 PUSH2 0x73F CALLDATASIZE PUSH1 0x4 PUSH2 0x3478 JUMP JUMPDEST PUSH2 0x1A07 JUMP JUMPDEST PUSH1 0x40 DUP1 MLOAD DUP3 MLOAD PUSH4 0xFFFFFFFF AND DUP2 MSTORE PUSH1 0x20 SWAP3 DUP4 ADD MLOAD PUSH1 0x1 PUSH1 0x1 PUSH1 0xE0 SHL SUB AND SWAP3 DUP2 ADD SWAP3 SWAP1 SWAP3 MSTORE ADD PUSH2 0x34B JUMP JUMPDEST PUSH2 0x391 PUSH32 0x71840DC4906352362B0CDAF79870196C8E42ACAFADE72D5D5A6D59291253CEB1 DUP2 JUMP JUMPDEST PUSH1 0x13 SLOAD PUSH2 0x4A5 SWAP1 PUSH1 0x1 PUSH1 0x1 PUSH1 0xA0 SHL SUB AND DUP2 JUMP JUMPDEST PUSH1 0xF SLOAD PUSH2 0x4A5 SWAP1 PUSH1 0x1 PUSH1 0x1 PUSH1 0xA0 SHL SUB AND DUP2 JUMP JUMPDEST PUSH1 0x11 SLOAD PUSH2 0x4A5 SWAP1 PUSH1 0x1 PUSH1 0x1 PUSH1 0xA0 SHL SUB AND DUP2 JUMP JUMPDEST PUSH1 0x0 PUSH1 0x1 PUSH1 0x1 PUSH1 0xE0 SHL SUB NOT DUP3 AND PUSH4 0x7965DB0B PUSH1 0xE0 SHL EQ DUP1 PUSH2 0x7FF JUMPI POP PUSH4 0x1FFC9A7 PUSH1 0xE0 SHL PUSH1 0x1 PUSH1 0x1 PUSH1 0xE0 SHL SUB NOT DUP4 AND EQ JUMPDEST SWAP3 SWAP2 POP POP JUMP JUMPDEST PUSH1 0x60 PUSH1 0x3 DUP1 SLOAD PUSH2 0x814 SWAP1 PUSH2 0x34B8 JUMP JUMPDEST DUP1 PUSH1 0x1F ADD PUSH1 0x20 DUP1 SWAP2 DIV MUL PUSH1 0x20 ADD PUSH1 0x40 MLOAD SWAP1 DUP2 ADD PUSH1 0x40 MSTORE DUP1 SWAP3 SWAP2 SWAP1 DUP2 DUP2 MSTORE PUSH1 0x20 ADD DUP3 DUP1 SLOAD PUSH2 0x840 SWAP1 PUSH2 0x34B8 JUMP JUMPDEST DUP1 ISZERO PUSH2 0x88D JUMPI DUP1 PUSH1 0x1F LT PUSH2 0x862 JUMPI PUSH2 0x100 DUP1 DUP4 SLOAD DIV MUL DUP4 MSTORE SWAP2 PUSH1 0x20 ADD SWAP2 PUSH2 0x88D JUMP JUMPDEST DUP3 ADD SWAP2 SWAP1 PUSH1 0x0 MSTORE PUSH1 0x20 PUSH1 0x0 KECCAK256 SWAP1 JUMPDEST DUP2 SLOAD DUP2 MSTORE SWAP1 PUSH1 0x1 ADD SWAP1 PUSH1 0x20 ADD DUP1 DUP4 GT PUSH2 0x870 JUMPI DUP3 SWAP1 SUB PUSH1 0x1F AND DUP3 ADD SWAP2 JUMPDEST POP POP POP POP POP SWAP1 POP SWAP1 JUMP JUMPDEST PUSH1 0x0 CALLER PUSH2 0x8A5 DUP2 DUP6 DUP6 PUSH2 0x1AA3 JUMP JUMPDEST POP PUSH1 0x1 SWAP4 SWAP3 POP POP POP JUMP JUMPDEST PUSH1 0x0 CALLER PUSH2 0x8BD DUP6 DUP3 DUP6 PUSH2 0x1BC7 JUMP JUMPDEST PUSH2 0x8C8 DUP6 DUP6 DUP6 PUSH2 0x1C3B JUMP JUMPDEST POP PUSH1 0x1 SWAP5 SWAP4 POP POP POP POP JUMP JUMPDEST PUSH1 0x0 DUP3 DUP2 MSTORE PUSH1 0xC PUSH1 0x20 MSTORE PUSH1 0x40 SWAP1 KECCAK256 PUSH1 0x1 ADD SLOAD PUSH2 0x8EE DUP2 PUSH2 0x1DF0 JUMP JUMPDEST PUSH2 0x8F8 DUP4 DUP4 PUSH2 0x1DFA JUMP JUMPDEST POP POP POP JUMP JUMPDEST PUSH1 0x0 PUSH2 0x907 PUSH2 0x1E80 JUMP JUMPDEST SWAP1 POP SWAP1 JUMP JUMPDEST PUSH1 0x1 PUSH1 0x1 PUSH1 0xA0 SHL SUB DUP2 AND CALLER EQ PUSH2 0x981 JUMPI PUSH1 0x40 MLOAD PUSH3 0x461BCD PUSH1 0xE5 SHL DUP2 MSTORE PUSH1 0x20 PUSH1 0x4 DUP3 ADD MSTORE PUSH1 0x2F PUSH1 0x24 DUP3 ADD MSTORE PUSH32 0x416363657373436F6E74726F6C3A2063616E206F6E6C792072656E6F756E6365 PUSH1 0x44 DUP3 ADD MSTORE PUSH15 0x103937B632B9903337B91039B2B633 PUSH1 0x89 SHL PUSH1 0x64 DUP3 ADD MSTORE PUSH1 0x84 ADD JUMPDEST PUSH1 0x40 MLOAD DUP1 SWAP2 SUB SWAP1 REVERT JUMPDEST PUSH2 0x98B DUP3 DUP3 PUSH2 0x1FAB JUMP JUMPDEST POP POP JUMP JUMPDEST PUSH1 0x0 CALLER PUSH2 0x8A5 DUP2 DUP6 DUP6 PUSH2 0x9A2 DUP4 DUP4 PUSH2 0x1908 JUMP JUMPDEST PUSH2 0x9AC SWAP2 SWAP1 PUSH2 0x3502 JUMP JUMPDEST PUSH2 0x1AA3 JUMP JUMPDEST PUSH1 0x0 PUSH2 0x9BB PUSH2 0xD01 JUMP JUMPDEST PUSH6 0xFFFFFFFFFFFF AND DUP3 LT PUSH2 0xA0D JUMPI PUSH1 0x40 MLOAD PUSH3 0x461BCD PUSH1 0xE5 SHL DUP2 MSTORE PUSH1 0x20 PUSH1 0x4 DUP3 ADD MSTORE PUSH1 0x19 PUSH1 0x24 DUP3 ADD MSTORE PUSH25 0x4552433230566F7465733A20667574757265206C6F6F6B757 PUSH1 0x3C SHL PUSH1 0x44 DUP3 ADD MSTORE PUSH1 0x64 ADD PUSH2 0x978 JUMP JUMPDEST PUSH1 0x1 PUSH1 0x1 PUSH1 0xA0 SHL SUB DUP4 AND PUSH1 0x0 SWAP1 DUP2 MSTORE PUSH1 0xA PUSH1 0x20 MSTORE PUSH1 0x40 SWAP1 KECCAK256 PUSH2 0xA2F SWAP1 DUP4 PUSH2 0x2012 JUMP JUMPDEST SWAP4 SWAP3 POP POP POP JUMP JUMPDEST PUSH32 0x65D7A28E3265B37A6474929F336521B332C1681B933F6CB9F3376673440D862A PUSH2 0xA60 DUP2 PUSH2 0x1DF0 JUMP JUMPDEST PUSH2 0xA68 PUSH2 0x20FB JUMP JUMPDEST PUSH1 0x40 MLOAD CALLER DUP2 MSTORE PUSH32 0x5DB9EE0A495BF2E6FF9C91A7834C1BA4FDD244A5E8AA4E537BD38AEAE4B073AA SWAP1 PUSH1 0x20 ADD JUMPDEST PUSH1 0x40 MLOAD DUP1 SWAP2 SUB SWAP1 LOG1 POP JUMP JUMPDEST PUSH1 0x60 NUMBER PUSH2 0xAAA PUSH2 0xD01 JUMP JUMPDEST PUSH6 0xFFFFFFFFFFFF AND EQ PUSH2 0xAFF JUMPI PUSH1 0x40 MLOAD PUSH3 0x461BCD PUSH1 0xE5 SHL DUP2 MSTORE PUSH1 0x20 PUSH1 0x4 DUP3 ADD MSTORE PUSH1 0x1D PUSH1 0x24 DUP3 ADD MSTORE PUSH32 0x4552433230566F7465733A2062726F6B656E20636C6F636B206D6F6465000000 PUSH1 0x44 DUP3 ADD MSTORE PUSH1 0x64 ADD PUSH2 0x978 JUMP JUMPDEST POP PUSH1 0x40 DUP1 MLOAD DUP1 DUP3 ADD SWAP1 SWAP2 MSTORE PUSH1 0x1D DUP2 MSTORE PUSH32 0x6D6F64653D626C6F636B6E756D6265722666726F6D3D64656661756C74000000 PUSH1 0x20 DUP3 ADD MSTORE SWAP1 JUMP JUMPDEST PUSH2 0xB41 CALLER DUP3 PUSH2 0x214D JUMP JUMPDEST POP JUMP JUMPDEST PUSH1 0x1 PUSH1 0x1 PUSH1 0xA0 SHL SUB DUP2 AND PUSH1 0x0 SWAP1 DUP2 MSTORE PUSH1 0xA PUSH1 0x20 MSTORE PUSH1 0x40 DUP2 KECCAK256 SLOAD PUSH2 0x7FF SWAP1 PUSH2 0x21C6 JUMP JUMPDEST PUSH1 0x1 PUSH1 0x1 PUSH1 0xA0 SHL SUB DUP2 AND PUSH1 0x0 SWAP1 DUP2 MSTORE PUSH1 0x7 PUSH1 0x20 MSTORE PUSH1 0x40 DUP2 KECCAK256 SLOAD PUSH2 0x7FF JUMP JUMPDEST PUSH32 0x65D7A28E3265B37A6474929F336521B332C1681B933F6CB9F3376673440D862A PUSH2 0xBAE DUP2 PUSH2 0x1DF0 JUMP JUMPDEST PUSH2 0xBB6 PUSH2 0x222F JUMP JUMPDEST PUSH1 0x40 MLOAD CALLER DUP2 MSTORE PUSH32 0x62E78CEA01BEE320CD4E420270B5EA74000D11B0C9F74754EBDBFC544B05A258 SWAP1 PUSH1 0x20 ADD PUSH2 0xA94 JUMP JUMPDEST PUSH1 0x0 PUSH1 0x60 DUP1 DUP3 DUP1 DUP1 DUP4 PUSH2 0xC1A PUSH32 0x0 PUSH1 0x5 PUSH2 0x226C JUMP JUMPDEST PUSH2 0xC45 PUSH32 0x0 PUSH1 0x6 PUSH2 0x226C JUMP JUMPDEST PUSH1 0x40 DUP1 MLOAD PUSH1 0x0 DUP1 DUP3 MSTORE PUSH1 0x20 DUP3 ADD SWAP1 SWAP3 MSTORE PUSH1 0xF PUSH1 0xF8 SHL SWAP12 SWAP4 SWAP11 POP SWAP2 SWAP9 POP CHAINID SWAP8 POP ADDRESS SWAP7 POP SWAP5 POP SWAP3 POP SWAP1 POP JUMP JUMPDEST PUSH1 0x0 PUSH2 0xC79 PUSH2 0xD01 JUMP JUMPDEST PUSH6 0xFFFFFFFFFFFF AND DUP3 LT PUSH2 0xCCB JUMPI PUSH1 0x40 MLOAD PUSH3 0x461BCD PUSH1 0xE5 SHL DUP2 MSTORE PUSH1 0x20 PUSH1 0x4 DUP3 ADD MSTORE PUSH1 0x19 PUSH1 0x24 DUP3 ADD MSTORE PUSH25 0x4552433230566F7465733A20667574757265206C6F6F6B757 PUSH1 0x3C SHL PUSH1 0x44 DUP3 ADD MSTORE PUSH1 0x64 ADD PUSH2 0x978 JUMP JUMPDEST PUSH2 0x7FF PUSH1 0xB DUP4 PUSH2 0x2012 JUMP JUMPDEST PUSH1 0x0 SWAP2 DUP3 MSTORE PUSH1 0xC PUSH1 0x20 SWAP1 DUP2 MSTORE PUSH1 0x40 DUP1 DUP5 KECCAK256 PUSH1 0x1 PUSH1 0x1 PUSH1 0xA0 SHL SUB SWAP4 SWAP1 SWAP4 AND DUP5 MSTORE SWAP2 SWAP1 MSTORE SWAP1 KECCAK256 SLOAD PUSH1 0xFF AND SWAP1 JUMP JUMPDEST PUSH1 0x0 PUSH2 0x907 NUMBER PUSH2 0x2317 JUMP JUMPDEST PUSH2 0xD14 PUSH2 0x237E JUMP JUMPDEST PUSH1 0xE PUSH1 0x0 DUP4 PUSH1 0x2 DUP2 GT ISZERO PUSH2 0xD2A JUMPI PUSH2 0xD2A PUSH2 0x352B JUMP JUMPDEST PUSH1 0x2 DUP2 GT ISZERO PUSH2 0xD3B JUMPI PUSH2 0xD3B PUSH2 0x352B JUMP JUMPDEST DUP2 MSTORE PUSH1 0x20 DUP2 ADD SWAP2 SWAP1 SWAP2 MSTORE PUSH1 0x40 ADD PUSH1 0x0 KECCAK256 PUSH1 0x3 ADD SLOAD PUSH1 0xFF AND PUSH2 0xD95 JUMPI PUSH1 0x40 MLOAD PUSH3 0x461BCD PUSH1 0xE5 SHL DUP2 MSTORE PUSH1 0x20 PUSH1 0x4 DUP3 ADD MSTORE PUSH1 0x14 PUSH1 0x24 DUP3 ADD MSTORE PUSH20 0x185CDCD95D081B9BDD081C9959DA5CDD195C9959 PUSH1 0x62 SHL PUSH1 0x44 DUP3 ADD MSTORE PUSH1 0x64 ADD PUSH2 0x978 JUMP JUMPDEST PUSH1 0x0 DUP2 GT PUSH2 0xDD3 JUMPI PUSH1 0x40 MLOAD PUSH3 0x461BCD PUSH1 0xE5 SHL DUP2 MSTORE PUSH1 0x20 PUSH1 0x4 DUP3 ADD MSTORE PUSH1 0xB PUSH1 0x24 DUP3 ADD MSTORE PUSH11 0x1E995C9BC8185B5BDD5B9D PUSH1 0xAA SHL PUSH1 0x44 DUP3 ADD MSTORE PUSH1 0x64 ADD PUSH2 0x978 JUMP JUMPDEST PUSH2 0xE22 CALLER ADDRESS DUP4 PUSH1 0xE PUSH1 0x0 DUP8 PUSH1 0x2 DUP2 GT ISZERO PUSH2 0xDEF JUMPI PUSH2 0xDEF PUSH2 0x352B JUMP JUMPDEST PUSH1 0x2 DUP2 GT ISZERO PUSH2 0xE00 JUMPI PUSH2 0xE00 PUSH2 0x352B JUMP JUMPDEST DUP2 MSTORE PUSH1 0x20 DUP2 ADD SWAP2 SWAP1 SWAP2 MSTORE PUSH1 0x40 ADD PUSH1 0x0 KECCAK256 SLOAD PUSH1 0x1 PUSH1 0x1 PUSH1 0xA0 SHL SUB AND SWAP3 SWAP2 SWAP1 PUSH2 0x23C6 JUMP JUMPDEST DUP1 PUSH1 0xE PUSH1 0x0 DUP5 PUSH1 0x2 DUP2 GT ISZERO PUSH2 0xE39 JUMPI PUSH2 0xE39 PUSH2 0x352B JUMP JUMPDEST PUSH1 0x2 DUP2 GT ISZERO PUSH2 0xE4A JUMPI PUSH2 0xE4A PUSH2 0x352B JUMP JUMPDEST DUP2 MSTORE PUSH1 0x20 DUP2 ADD SWAP2 SWAP1 SWAP2 MSTORE PUSH1 0x40 ADD PUSH1 0x0 KECCAK256 PUSH1 0x1 ADD DUP1 SLOAD SWAP1 SWAP2 ADD SWAP1 SSTORE CALLER DUP3 PUSH1 0x2 DUP2 GT ISZERO PUSH2 0xE77 JUMPI PUSH2 0xE77 PUSH2 0x352B JUMP JUMPDEST PUSH1 0x40 MLOAD DUP4 DUP2 MSTORE PUSH32 0x6A2B04B1F3D5A335C4367FEA39BB8807EF0A4FBE77A2772700C8F9C90C1C9A1B SWAP1 PUSH1 0x20 ADD PUSH1 0x40 MLOAD DUP1 SWAP2 SUB SWAP1 LOG3 POP POP JUMP JUMPDEST PUSH1 0x60 PUSH1 0x4 DUP1 SLOAD PUSH2 0x814 SWAP1 PUSH2 0x34B8 JUMP JUMPDEST PUSH1 0x1 PUSH1 0x1 PUSH1 0xA0 SHL SUB DUP2 AND PUSH1 0x0 SWAP1 DUP2 MSTORE PUSH1 0xA PUSH1 0x20 MSTORE PUSH1 0x40 DUP2 KECCAK256 SLOAD DUP1 ISZERO PUSH2 0xF2C JUMPI PUSH1 0x1 PUSH1 0x1 PUSH1 0xA0 SHL SUB DUP4 AND PUSH1 0x0 SWAP1 DUP2 MSTORE PUSH1 0xA PUSH1 0x20 MSTORE PUSH1 0x40 SWAP1 KECCAK256 DUP1 SLOAD PUSH1 0x0 NOT DUP4 ADD SWAP1 DUP2 LT PUSH2 0xF0A JUMPI PUSH2 0xF0A PUSH2 0x3541 JUMP JUMPDEST PUSH1 0x0 SWAP2 DUP3 MSTORE PUSH1 0x20 SWAP1 SWAP2 KECCAK256 ADD SLOAD PUSH5 0x100000000 SWAP1 DIV PUSH1 0x1 PUSH1 0x1 PUSH1 0xE0 SHL SUB AND PUSH2 0xF2F JUMP JUMPDEST PUSH1 0x0 JUMPDEST PUSH1 0x1 PUSH1 0x1 PUSH1 0xE0 SHL SUB AND SWAP4 SWAP3 POP POP POP JUMP JUMPDEST PUSH1 0x0 DUP1 MLOAD PUSH1 0x20 PUSH2 0x3684 DUP4 CODECOPY DUP2 MLOAD SWAP2 MSTORE PUSH2 0xF57 DUP2 PUSH2 0x1DF0 JUMP JUMPDEST PUSH1 0x1 PUSH1 0x1 PUSH1 0xA0 SHL SUB DUP4 AND PUSH2 0xF9C JUMPI PUSH1 0x40 MLOAD PUSH3 0x461BCD PUSH1 0xE5 SHL DUP2 MSTORE PUSH1 0x20 PUSH1 0x4 DUP3 ADD MSTORE PUSH1 0xC PUSH1 0x24 DUP3 ADD MSTORE PUSH12 0x7A65726F2061646472657373 PUSH1 0xA0 SHL PUSH1 0x44 DUP3 ADD MSTORE PUSH1 0x64 ADD PUSH2 0x978 JUMP JUMPDEST PUSH1 0x0 DUP3 GT PUSH2 0xFDA JUMPI PUSH1 0x40 MLOAD PUSH3 0x461BCD PUSH1 0xE5 SHL DUP2 MSTORE PUSH1 0x20 PUSH1 0x4 DUP3 ADD MSTORE PUSH1 0xB PUSH1 0x24 DUP3 ADD MSTORE PUSH11 0x1E995C9BC8185B5BDD5B9D PUSH1 0xAA SHL PUSH1 0x44 DUP3 ADD MSTORE PUSH1 0x64 ADD PUSH2 0x978 JUMP JUMPDEST DUP2 PUSH1 0xE PUSH1 0x0 DUP7 PUSH1 0x2 DUP2 GT ISZERO PUSH2 0xFF1 JUMPI PUSH2 0xFF1 PUSH2 0x352B JUMP JUMPDEST PUSH1 0x2 DUP2 GT ISZERO PUSH2 0x1002 JUMPI PUSH2 0x1002 PUSH2 0x352B JUMP JUMPDEST DUP2 MSTORE PUSH1 0x20 ADD SWAP1 DUP2 MSTORE PUSH1 0x20 ADD PUSH1 0x0 KECCAK256 PUSH1 0x1 ADD SLOAD LT ISZERO PUSH2 0x1059 JUMPI PUSH1 0x40 MLOAD PUSH3 0x461BCD PUSH1 0xE5 SHL DUP2 MSTORE PUSH1 0x20 PUSH1 0x4 DUP3 ADD MSTORE PUSH1 0x14 PUSH1 0x24 DUP3 ADD MSTORE PUSH20 0x696E73756666696369656E74206261636B696E67 PUSH1 0x60 SHL PUSH1 0x44 DUP3 ADD MSTORE PUSH1 0x64 ADD PUSH2 0x978 JUMP JUMPDEST DUP2 PUSH1 0xE PUSH1 0x0 DUP7 PUSH1 0x2 DUP2 GT ISZERO PUSH2 0x1070 JUMPI PUSH2 0x1070 PUSH2 0x352B JUMP JUMPDEST PUSH1 0x2 DUP2 GT ISZERO PUSH2 0x1081 JUMPI PUSH2 0x1081 PUSH2 0x352B JUMP JUMPDEST DUP2 MSTORE PUSH1 0x20 ADD SWAP1 DUP2 MSTORE PUSH1 0x20 ADD PUSH1 0x0 KECCAK256 PUSH1 0x1 ADD PUSH1 0x0 DUP3 DUP3 SLOAD PUSH2 0x10A1 SWAP2 SWAP1 PUSH2 0x3557 JUMP JUMPDEST SWAP1 SWAP2 SSTORE POP PUSH2 0x10F4 SWAP1 POP DUP4 DUP4 PUSH1 0xE PUSH1 0x0 DUP9 PUSH1 0x2 DUP2 GT ISZERO PUSH2 0x10C2 JUMPI PUSH2 0x10C2 PUSH2 0x352B JUMP JUMPDEST PUSH1 0x2 DUP2 GT ISZERO PUSH2 0x10D3 JUMPI PUSH2 0x10D3 PUSH2 0x352B JUMP JUMPDEST DUP2 MSTORE PUSH1 0x20 DUP2 ADD SWAP2 SWAP1 SWAP2 MSTORE PUSH1 0x40 ADD PUSH1 0x0 KECCAK256 SLOAD PUSH1 0x1 PUSH1 0x1 PUSH1 0xA0 SHL SUB AND SWAP2 SWAP1 PUSH2 0x2431 JUMP JUMPDEST DUP3 PUSH1 0x1 PUSH1 0x1 PUSH1 0xA0 SHL SUB AND DUP5 PUSH1 0x2 DUP2 GT ISZERO PUSH2 0x1110 JUMPI PUSH2 0x1110 PUSH2 0x352B JUMP JUMPDEST PUSH1 0x40 MLOAD DUP5 DUP2 MSTORE PUSH32 0xE3AAB926D81700BAC87DAB01982E77E751C07D1ACCA11C13FF44AAE1193A5F54 SWAP1 PUSH1 0x20 ADD PUSH1 0x40 MLOAD DUP1 SWAP2 SUB SWAP1 LOG3 POP POP POP POP JUMP JUMPDEST PUSH1 0x0 CALLER DUP2 PUSH2 0x1157 DUP3 DUP7 PUSH2 0x1908 JUMP JUMPDEST SWAP1 POP DUP4 DUP2 LT ISZERO PUSH2 0x11B7 JUMPI PUSH1 0x40 MLOAD PUSH3 0x461BCD PUSH1 0xE5 SHL DUP2 MSTORE PUSH1 0x20 PUSH1 0x4 DUP3 ADD MSTORE PUSH1 0x25 PUSH1 0x24 DUP3 ADD MSTORE PUSH32 0x45524332303A2064656372656173656420616C6C6F77616E63652062656C6F77 PUSH1 0x44 DUP3 ADD MSTORE PUSH5 0x207A65726F PUSH1 0xD8 SHL PUSH1 0x64 DUP3 ADD MSTORE PUSH1 0x84 ADD PUSH2 0x978 JUMP JUMPDEST PUSH2 0x8C8 DUP3 DUP7 DUP7 DUP5 SUB PUSH2 0x1AA3 JUMP JUMPDEST PUSH1 0x0 CALLER PUSH2 0x8A5 DUP2 DUP6 DUP6 PUSH2 0x1C3B JUMP JUMPDEST PUSH1 0x0 DUP1 MLOAD PUSH1 0x20 PUSH2 0x3684 DUP4 CODECOPY DUP2 MLOAD SWAP2 MSTORE PUSH2 0x11EA DUP2 PUSH2 0x1DF0 JUMP JUMPDEST PUSH1 0xE PUSH1 0x0 DUP5 PUSH1 0x2 DUP2 GT ISZERO PUSH2 0x1200 JUMPI PUSH2 0x1200 PUSH2 0x352B JUMP JUMPDEST PUSH1 0x2 DUP2 GT ISZERO PUSH2 0x1211 JUMPI PUSH2 0x1211 PUSH2 0x352B JUMP JUMPDEST DUP2 MSTORE PUSH1 0x20 DUP2 ADD SWAP2 SWAP1 SWAP2 MSTORE PUSH1 0x40 ADD PUSH1 0x0 KECCAK256 PUSH1 0x3 ADD SLOAD PUSH1 0xFF AND PUSH2 0x126B JUMPI PUSH1 0x40 MLOAD PUSH3 0x461BCD PUSH1 0xE5 SHL DUP2 MSTORE PUSH1 0x20 PUSH1 0x4 DUP3 ADD MSTORE PUSH1 0x14 PUSH1 0x24 DUP3 ADD MSTORE PUSH20 0x185CDCD95D081B9BDD081C9959DA5CDD195C9959 PUSH1 0x62 SHL PUSH1 0x44 DUP3 ADD MSTORE PUSH1 0x64 ADD PUSH2 0x978 JUMP JUMPDEST DUP2 PUSH1 0xE PUSH1 0x0 DUP6 PUSH1 0x2 DUP2 GT ISZERO PUSH2 0x1282 JUMPI PUSH2 0x1282 PUSH2 0x352B JUMP JUMPDEST PUSH1 0x2 DUP2 GT ISZERO PUSH2 0x1293 JUMPI PUSH2 0x1293 PUSH2 0x352B JUMP JUMPDEST DUP2 MSTORE PUSH1 0x20 ADD SWAP1 DUP2 MSTORE PUSH1 0x20 ADD PUSH1 0x0 KECCAK256 PUSH1 0x2 ADD DUP2 SWAP1 SSTORE POP DUP3 PUSH1 0x2 DUP2 GT ISZERO PUSH2 0x12BA JUMPI PUSH2 0x12BA PUSH2 0x352B JUMP JUMPDEST PUSH1 0x40 MLOAD DUP4 DUP2 MSTORE PUSH32 0x2D292C5B6330B5B0F99B665EC1BE838CA17CD57EB118FE7A02CC05477B5BD42F SWAP1 PUSH1 0x20 ADD JUMPDEST PUSH1 0x40 MLOAD DUP1 SWAP2 SUB SWAP1 LOG2 POP POP POP JUMP JUMPDEST PUSH1 0x0 DUP1 DUP1 MSTORE PUSH1 0xE PUSH1 0x20 MSTORE PUSH32 0xE710864318D4A32F37D6CE54CB3FADBEF648DD12D8DBDF53973564D56B7F881F SLOAD DUP2 SWAP1 PUSH32 0xE710864318D4A32F37D6CE54CB3FADBEF648DD12D8DBDF53973564D56B7F881C SWAP1 PUSH1 0xFF AND DUP1 ISZERO PUSH2 0x1356 JUMPI POP PUSH1 0x0 DUP2 PUSH1 0x2 ADD SLOAD GT JUMPDEST DUP1 ISZERO PUSH2 0x1366 JUMPI POP PUSH1 0x0 DUP2 PUSH1 0x1 ADD SLOAD GT JUMPDEST ISZERO PUSH2 0x139F JUMPI PUSH8 0xDE0B6B3A7640000 DUP2 PUSH1 0x2 ADD SLOAD DUP3 PUSH1 0x1 ADD SLOAD PUSH2 0x1388 SWAP2 SWAP1 PUSH2 0x356A JUMP JUMPDEST PUSH2 0x1392 SWAP2 SWAP1 PUSH2 0x3597 JUMP JUMPDEST PUSH2 0x139C SWAP1 DUP4 PUSH2 0x3502 JUMP JUMPDEST SWAP2 POP JUMPDEST POP PUSH1 0x1 PUSH1 0x0 MSTORE PUSH1 0xE PUSH1 0x20 MSTORE PUSH32 0xA7C5BA7114A813B50159ADD3A36832908DC83DB71D0B9A24C2AD0F83BE95820A SLOAD PUSH32 0xA7C5BA7114A813B50159ADD3A36832908DC83DB71D0B9A24C2AD0F83BE958207 SWAP1 PUSH1 0xFF AND DUP1 ISZERO PUSH2 0x1401 JUMPI POP PUSH1 0x0 DUP2 PUSH1 0x2 ADD SLOAD GT JUMPDEST DUP1 ISZERO PUSH2 0x1411 JUMPI POP PUSH1 0x0 DUP2 PUSH1 0x1 ADD SLOAD GT JUMPDEST ISZERO PUSH2 0x144A JUMPI PUSH8 0xDE0B6B3A7640000 DUP2 PUSH1 0x2 ADD SLOAD DUP3 PUSH1 0x1 ADD SLOAD PUSH2 0x1433 SWAP2 SWAP1 PUSH2 0x356A JUMP JUMPDEST PUSH2 0x143D SWAP2 SWAP1 PUSH2 0x3597 JUMP JUMPDEST PUSH2 0x1447 SWAP1 DUP4 PUSH2 0x3502 JUMP JUMPDEST SWAP2 POP JUMPDEST POP PUSH1 0x2 PUSH1 0x0 MSTORE PUSH1 0xE PUSH1 0x20 MSTORE PUSH32 0x9ADB202B1492743BC00C81D33CDC6423FA8C79109027EB6A845391E8FC1F0484 SLOAD PUSH32 0x9ADB202B1492743BC00C81D33CDC6423FA8C79109027EB6A845391E8FC1F0481 SWAP1 PUSH1 0xFF AND DUP1 ISZERO PUSH2 0x14AC JUMPI POP PUSH1 0x0 DUP2 PUSH1 0x2 ADD SLOAD GT JUMPDEST DUP1 ISZERO PUSH2 0x14BC JUMPI POP PUSH1 0x0 DUP2 PUSH1 0x1 ADD SLOAD GT JUMPDEST ISZERO PUSH2 0x14F5 JUMPI PUSH8 0xDE0B6B3A7640000 DUP2 PUSH1 0x2 ADD SLOAD DUP3 PUSH1 0x1 ADD SLOAD PUSH2 0x14DE SWAP2 SWAP1 PUSH2 0x356A JUMP JUMPDEST PUSH2 0x14E8 SWAP2 SWAP1 PUSH2 0x3597 JUMP JUMPDEST PUSH2 0x14F2 SWAP1 DUP4 PUSH2 0x3502 JUMP JUMPDEST SWAP2 POP JUMPDEST POP SWAP2 SWAP1 POP JUMP JUMPDEST DUP4 TIMESTAMP GT ISZERO PUSH2 0x154B JUMPI PUSH1 0x40 MLOAD PUSH3 0x461BCD PUSH1 0xE5 SHL DUP2 MSTORE PUSH1 0x20 PUSH1 0x4 DUP3 ADD MSTORE PUSH1 0x1D PUSH1 0x24 DUP3 ADD MSTORE PUSH32 0x4552433230566F7465733A207369676E61747572652065787069726564000000 PUSH1 0x44 DUP3 ADD MSTORE PUSH1 0x64 ADD PUSH2 0x978 JUMP JUMPDEST PUSH1 0x40 DUP1 MLOAD PUSH32 0xE48329057BFD03D55E49B547132E39CFFD9C1820AD7B9D4C5307691425D15ADF PUSH1 0x20 DUP3 ADD MSTORE PUSH1 0x1 PUSH1 0x1 PUSH1 0xA0 SHL SUB DUP9 AND SWAP2 DUP2 ADD SWAP2 SWAP1 SWAP2 MSTORE PUSH1 0x60 DUP2 ADD DUP7 SWAP1 MSTORE PUSH1 0x80 DUP2 ADD DUP6 SWAP1 MSTORE PUSH1 0x0 SWAP1 PUSH2 0x15C5 SWAP1 PUSH2 0x15BD SWAP1 PUSH1 0xA0 ADD PUSH1 0x40 MLOAD PUSH1 0x20 DUP2 DUP4 SUB SUB DUP2 MSTORE SWAP1 PUSH1 0x40 MSTORE DUP1 MLOAD SWAP1 PUSH1 0x20 ADD KECCAK256 PUSH2 0x2461 JUMP JUMPDEST DUP6 DUP6 DUP6 PUSH2 0x248E JUMP JUMPDEST SWAP1 POP PUSH2 0x15D0 DUP2 PUSH2 0x24B8 JUMP JUMPDEST DUP7 EQ PUSH2 0x161E JUMPI PUSH1 0x40 MLOAD PUSH3 0x461BCD PUSH1 0xE5 SHL DUP2 MSTORE PUSH1 0x20 PUSH1 0x4 DUP3 ADD MSTORE PUSH1 0x19 PUSH1 0x24 DUP3 ADD MSTORE PUSH32 0x4552433230566F7465733A20696E76616C6964206E6F6E636500000000000000 PUSH1 0x44 DUP3 ADD MSTORE PUSH1 0x64 ADD PUSH2 0x978 JUMP JUMPDEST PUSH2 0x1628 DUP2 DUP9 PUSH2 0x214D JUMP JUMPDEST POP POP POP POP POP POP POP JUMP JUMPDEST PUSH1 0x0 DUP1 MLOAD PUSH1 0x20 PUSH2 0x3684 DUP4 CODECOPY DUP2 MLOAD SWAP2 MSTORE PUSH2 0x1649 DUP2 PUSH2 0x1DF0 JUMP JUMPDEST PUSH1 0x1 PUSH1 0x1 PUSH1 0xA0 SHL SUB DUP3 AND PUSH2 0x168C JUMPI PUSH1 0x40 MLOAD PUSH3 0x461BCD PUSH1 0xE5 SHL DUP2 MSTORE PUSH1 0x20 PUSH1 0x4 DUP3 ADD MSTORE PUSH1 0xA PUSH1 0x24 DUP3 ADD MSTORE PUSH10 0x3D32B937903A37B5B2B7 PUSH1 0xB1 SHL PUSH1 0x44 DUP3 ADD MSTORE PUSH1 0x64 ADD PUSH2 0x978 JUMP JUMPDEST DUP2 PUSH1 0xE PUSH1 0x0 DUP6 PUSH1 0x2 DUP2 GT ISZERO PUSH2 0x16A3 JUMPI PUSH2 0x16A3 PUSH2 0x352B JUMP JUMPDEST PUSH1 0x2 DUP2 GT ISZERO PUSH2 0x16B4 JUMPI PUSH2 0x16B4 PUSH2 0x352B JUMP JUMPDEST DUP2 MSTORE PUSH1 0x20 ADD SWAP1 DUP2 MSTORE PUSH1 0x20 ADD PUSH1 0x0 KECCAK256 PUSH1 0x0 ADD PUSH1 0x0 PUSH2 0x100 EXP DUP2 SLOAD DUP2 PUSH1 0x1 PUSH1 0x1 PUSH1 0xA0 SHL SUB MUL NOT AND SWAP1 DUP4 PUSH1 0x1 PUSH1 0x1 PUSH1 0xA0 SHL SUB AND MUL OR SWAP1 SSTORE POP PUSH1 0x1 PUSH1 0xE PUSH1 0x0 DUP6 PUSH1 0x2 DUP2 GT ISZERO PUSH2 0x1701 JUMPI PUSH2 0x1701 PUSH2 0x352B JUMP JUMPDEST PUSH1 0x2 DUP2 GT ISZERO PUSH2 0x1712 JUMPI PUSH2 0x1712 PUSH2 0x352B JUMP JUMPDEST DUP2 MSTORE PUSH1 0x20 DUP2 ADD SWAP2 SWAP1 SWAP2 MSTORE PUSH1 0x40 ADD PUSH1 0x0 KECCAK256 PUSH1 0x3 ADD DUP1 SLOAD PUSH1 0xFF NOT AND SWAP2 ISZERO ISZERO SWAP2 SWAP1 SWAP2 OR SWAP1 SSTORE DUP3 PUSH1 0x2 DUP2 GT ISZERO PUSH2 0x1746 JUMPI PUSH2 0x1746 PUSH2 0x352B JUMP JUMPDEST PUSH1 0x40 MLOAD PUSH1 0x1 PUSH1 0x1 PUSH1 0xA0 SHL SUB DUP5 AND DUP2 MSTORE PUSH32 0x561ACD69F877DECB2BE770CA93EF06BB6A9E5D65DEFA3BACE8EAB67FEECAC572 SWAP1 PUSH1 0x20 ADD PUSH2 0x12E6 JUMP JUMPDEST DUP4 TIMESTAMP GT ISZERO PUSH2 0x17CF JUMPI PUSH1 0x40 MLOAD PUSH3 0x461BCD PUSH1 0xE5 SHL DUP2 MSTORE PUSH1 0x20 PUSH1 0x4 DUP3 ADD MSTORE PUSH1 0x1D PUSH1 0x24 DUP3 ADD MSTORE PUSH32 0x45524332305065726D69743A206578706972656420646561646C696E65000000 PUSH1 0x44 DUP3 ADD MSTORE PUSH1 0x64 ADD PUSH2 0x978 JUMP JUMPDEST PUSH1 0x0 PUSH32 0x6E71EDAE12B1B97F4D1F60370FEF10105FA2FAAE0126114A169C64845D6126C9 DUP9 DUP9 DUP9 PUSH2 0x17FE DUP13 PUSH2 0x24B8 JUMP JUMPDEST PUSH1 0x40 DUP1 MLOAD PUSH1 0x20 DUP2 ADD SWAP7 SWAP1 SWAP7 MSTORE PUSH1 0x1 PUSH1 0x1 PUSH1 0xA0 SHL SUB SWAP5 DUP6 AND SWAP1 DUP7 ADD MSTORE SWAP3 SWAP1 SWAP2 AND PUSH1 0x60 DUP5 ADD MSTORE PUSH1 0x80 DUP4 ADD MSTORE PUSH1 0xA0 DUP3 ADD MSTORE PUSH1 0xC0 DUP2 ADD DUP7 SWAP1 MSTORE PUSH1 0xE0 ADD PUSH1 0x40 MLOAD PUSH1 0x20 DUP2 DUP4 SUB SUB DUP2 MSTORE SWAP1 PUSH1 0x40 MSTORE DUP1 MLOAD SWAP1 PUSH1 0x20 ADD KECCAK256 SWAP1 POP PUSH1 0x0 PUSH2 0x1859 DUP3 PUSH2 0x2461 JUMP JUMPDEST SWAP1 POP PUSH1 0x0 PUSH2 0x1869 DUP3 DUP8 DUP8 DUP8 PUSH2 0x248E JUMP JUMPDEST SWAP1 POP DUP10 PUSH1 0x1 PUSH1 0x1 PUSH1 0xA0 SHL SUB AND DUP2 PUSH1 0x1 PUSH1 0x1 PUSH1 0xA0 SHL SUB AND EQ PUSH2 0x18CC JUMPI PUSH1 0x40 MLOAD PUSH3 0x461BCD PUSH1 0xE5 SHL DUP2 MSTORE PUSH1 0x20 PUSH1 0x4 DUP3 ADD MSTORE PUSH1 0x1E PUSH1 0x24 DUP3 ADD MSTORE PUSH32 0x45524332305065726D69743A20696E76616C6964207369676E61747572650000 PUSH1 0x44 DUP3 ADD MSTORE PUSH1 0x64 ADD PUSH2 0x978 JUMP JUMPDEST PUSH2 0x18D7 DUP11 DUP11 DUP11 PUSH2 0x1AA3 JUMP JUMPDEST POP POP POP POP POP POP POP POP POP POP JUMP JUMPDEST PUSH1 0x0 DUP3 DUP2 MSTORE PUSH1 0xC PUSH1 0x20 MSTORE PUSH1 0x40 SWAP1 KECCAK256 PUSH1 0x1 ADD SLOAD PUSH2 0x18FE DUP2 PUSH2 0x1DF0 JUMP JUMPDEST PUSH2 0x8F8 DUP4 DUP4 PUSH2 0x1FAB JUMP JUMPDEST PUSH1 0x1 PUSH1 0x1 PUSH1 0xA0 SHL SUB SWAP2 DUP3 AND PUSH1 0x0 SWAP1 DUP2 MSTORE PUSH1 0x1 PUSH1 0x20 SWAP1 DUP2 MSTORE PUSH1 0x40 DUP1 DUP4 KECCAK256 SWAP4 SWAP1 SWAP5 AND DUP3 MSTORE SWAP2 SWAP1 SWAP2 MSTORE KECCAK256 SLOAD SWAP1 JUMP JUMPDEST PUSH1 0x0 DUP1 PUSH2 0x193E PUSH2 0x12F3 JUMP JUMPDEST SWAP1 POP DUP1 PUSH1 0x0 SUB PUSH2 0x1950 JUMPI PUSH1 0x0 SWAP2 POP POP SWAP1 JUMP JUMPDEST PUSH11 0x52B7D2DCC80CD2E4000000 PUSH2 0x196E DUP3 PUSH8 0xDE0B6B3A7640000 PUSH2 0x356A JUMP JUMPDEST PUSH2 0x1978 SWAP2 SWAP1 PUSH2 0x3597 JUMP JUMPDEST SWAP2 POP POP SWAP1 JUMP JUMPDEST PUSH32 0xACF805600123EF007091DA3B3FFB39474074C656C127AA68CB0FFEC232A8FF8 PUSH2 0x19A8 DUP2 PUSH2 0x1DF0 JUMP JUMPDEST PUSH1 0x1 PUSH1 0x1 PUSH1 0xA0 SHL SUB DUP4 AND PUSH2 0x19ED JUMPI PUSH1 0x40 MLOAD PUSH3 0x461BCD PUSH1 0xE5 SHL DUP2 MSTORE PUSH1 0x20 PUSH1 0x4 DUP3 ADD MSTORE PUSH1 0xC PUSH1 0x24 DUP3 ADD MSTORE PUSH12 0x7A65726F2061646472657373 PUSH1 0xA0 SHL PUSH1 0x44 DUP3 ADD MSTORE PUSH1 0x64 ADD PUSH2 0x978 JUMP JUMPDEST PUSH2 0x1A01 PUSH1 0x1 PUSH1 0x1 PUSH1 0xA0 SHL SUB DUP6 AND DUP5 DUP5 PUSH2 0x2431 JUMP JUMPDEST POP POP POP POP JUMP JUMPDEST PUSH1 0x40 DUP1 MLOAD DUP1 DUP3 ADD SWAP1 SWAP2 MSTORE PUSH1 0x0 DUP1 DUP3 MSTORE PUSH1 0x20 DUP3 ADD MSTORE PUSH1 0x1 PUSH1 0x1 PUSH1 0xA0 SHL SUB DUP4 AND PUSH1 0x0 SWAP1 DUP2 MSTORE PUSH1 0xA PUSH1 0x20 MSTORE PUSH1 0x40 SWAP1 KECCAK256 DUP1 SLOAD PUSH4 0xFFFFFFFF DUP5 AND SWAP1 DUP2 LT PUSH2 0x1A4B JUMPI PUSH2 0x1A4B PUSH2 0x3541 JUMP JUMPDEST PUSH1 0x0 SWAP2 DUP3 MSTORE PUSH1 0x20 SWAP2 DUP3 SWAP1 KECCAK256 PUSH1 0x40 DUP1 MLOAD DUP1 DUP3 ADD SWAP1 SWAP2 MSTORE SWAP2 ADD SLOAD PUSH4 0xFFFFFFFF DUP2 AND DUP3 MSTORE PUSH5 0x100000000 SWAP1 DIV PUSH1 0x1 PUSH1 0x1 PUSH1 0xE0 SHL SUB AND SWAP2 DUP2 ADD SWAP2 SWAP1 SWAP2 MSTORE SWAP4 SWAP3 POP POP POP JUMP JUMPDEST PUSH1 0x0 PUSH2 0xA2F DUP3 DUP5 PUSH2 0x3502 JUMP JUMPDEST PUSH1 0x0 PUSH2 0xA2F DUP3 DUP5 PUSH2 0x3557 JUMP JUMPDEST PUSH1 0x1 PUSH1 0x1 PUSH1 0xA0 SHL SUB DUP4 AND PUSH2 0x1B05 JUMPI PUSH1 0x40 MLOAD PUSH3 0x461BCD PUSH1 0xE5 SHL DUP2 MSTORE PUSH1 0x20 PUSH1 0x4 DUP3 ADD MSTORE PUSH1 0x24 DUP1 DUP3 ADD MSTORE PUSH32 0x45524332303A20617070726F76652066726F6D20746865207A65726F20616464 PUSH1 0x44 DUP3 ADD MSTORE PUSH4 0x72657373 PUSH1 0xE0 SHL PUSH1 0x64 DUP3 ADD MSTORE PUSH1 0x84 ADD PUSH2 0x978 JUMP JUMPDEST PUSH1 0x1 PUSH1 0x1 PUSH1 0xA0 SHL SUB DUP3 AND PUSH2 0x1B66 JUMPI PUSH1 0x40 MLOAD PUSH3 0x461BCD PUSH1 0xE5 SHL DUP2 MSTORE PUSH1 0x20 PUSH1 0x4 DUP3 ADD MSTORE PUSH1 0x22 PUSH1 0x24 DUP3 ADD MSTORE PUSH32 0x45524332303A20617070726F766520746F20746865207A65726F206164647265 PUSH1 0x44 DUP3 ADD MSTORE PUSH2 0x7373 PUSH1 0xF0 SHL PUSH1 0x64 DUP3 ADD MSTORE PUSH1 0x84 ADD PUSH2 0x978 JUMP JUMPDEST PUSH1 0x1 PUSH1 0x1 PUSH1 0xA0 SHL SUB DUP4 DUP2 AND PUSH1 0x0 DUP2 DUP2 MSTORE PUSH1 0x1 PUSH1 0x20 SWAP1 DUP2 MSTORE PUSH1 0x40 DUP1 DUP4 KECCAK256 SWAP5 DUP8 AND DUP1 DUP5 MSTORE SWAP5 DUP3 MSTORE SWAP2 DUP3 SWAP1 KECCAK256 DUP6 SWAP1 SSTORE SWAP1 MLOAD DUP5 DUP2 MSTORE PUSH32 0x8C5BE1E5EBEC7D5BD14F71427D1E84F3DD0314C0F7B2291E5B200AC8C7C3B925 SWAP2 ADD PUSH1 0x40 MLOAD DUP1 SWAP2 SUB SWAP1 LOG3 POP POP POP JUMP JUMPDEST PUSH1 0x0 PUSH2 0x1BD3 DUP5 DUP5 PUSH2 0x1908 JUMP JUMPDEST SWAP1 POP PUSH1 0x0 NOT DUP2 EQ PUSH2 0x1A01 JUMPI DUP2 DUP2 LT ISZERO PUSH2 0x1C2E JUMPI PUSH1 0x40 MLOAD PUSH3 0x461BCD PUSH1 0xE5 SHL DUP2 MSTORE PUSH1 0x20 PUSH1 0x4 DUP3 ADD MSTORE PUSH1 0x1D PUSH1 0x24 DUP3 ADD MSTORE PUSH32 0x45524332303A20696E73756666696369656E7420616C6C6F77616E6365000000 PUSH1 0x44 DUP3 ADD MSTORE PUSH1 0x64 ADD PUSH2 0x978 JUMP JUMPDEST PUSH2 0x1A01 DUP5 DUP5 DUP5 DUP5 SUB PUSH2 0x1AA3 JUMP JUMPDEST PUSH1 0x1 PUSH1 0x1 PUSH1 0xA0 SHL SUB DUP4 AND PUSH2 0x1C9F JUMPI PUSH1 0x40 MLOAD PUSH3 0x461BCD PUSH1 0xE5 SHL DUP2 MSTORE PUSH1 0x20 PUSH1 0x4 DUP3 ADD MSTORE PUSH1 0x25 PUSH1 0x24 DUP3 ADD MSTORE PUSH32 0x45524332303A207472616E736665722066726F6D20746865207A65726F206164 PUSH1 0x44 DUP3 ADD MSTORE PUSH5 0x6472657373 PUSH1 0xD8 SHL PUSH1 0x64 DUP3 ADD MSTORE PUSH1 0x84 ADD PUSH2 0x978 JUMP JUMPDEST PUSH1 0x1 PUSH1 0x1 PUSH1 0xA0 SHL SUB DUP3 AND PUSH2 0x1D01 JUMPI PUSH1 0x40 MLOAD PUSH3 0x461BCD PUSH1 0xE5 SHL DUP2 MSTORE PUSH1 0x20 PUSH1 0x4 DUP3 ADD MSTORE PUSH1 0x23 PUSH1 0x24 DUP3 ADD MSTORE PUSH32 0x45524332303A207472616E7366657220746F20746865207A65726F2061646472 PUSH1 0x44 DUP3 ADD MSTORE PUSH3 0x657373 PUSH1 0xE8 SHL PUSH1 0x64 DUP3 ADD MSTORE PUSH1 0x84 ADD PUSH2 0x978 JUMP JUMPDEST PUSH2 0x1D0C DUP4 DUP4 DUP4 PUSH2 0x24DE JUMP JUMPDEST PUSH1 0x1 PUSH1 0x1 PUSH1 0xA0 SHL SUB DUP4 AND PUSH1 0x0 SWAP1 DUP2 MSTORE PUSH1 0x20 DUP2 SWAP1 MSTORE PUSH1 0x40 SWAP1 KECCAK256 SLOAD DUP2 DUP2 LT ISZERO PUSH2 0x1D84 JUMPI PUSH1 0x40 MLOAD PUSH3 0x461BCD PUSH1 0xE5 SHL DUP2 MSTORE PUSH1 0x20 PUSH1 0x4 DUP3 ADD MSTORE PUSH1 0x26 PUSH1 0x24 DUP3 ADD MSTORE PUSH32 0x45524332303A207472616E7366657220616D6F756E7420657863656564732062 PUSH1 0x44 DUP3 ADD MSTORE PUSH6 0x616C616E6365 PUSH1 0xD0 SHL PUSH1 0x64 DUP3 ADD MSTORE PUSH1 0x84 ADD PUSH2 0x978 JUMP JUMPDEST PUSH1 0x1 PUSH1 0x1 PUSH1 0xA0 SHL SUB DUP5 DUP2 AND PUSH1 0x0 DUP2 DUP2 MSTORE PUSH1 0x20 DUP2 DUP2 MSTORE PUSH1 0x40 DUP1 DUP4 KECCAK256 DUP8 DUP8 SUB SWAP1 SSTORE SWAP4 DUP8 AND DUP1 DUP4 MSTORE SWAP2 DUP5 SWAP1 KECCAK256 DUP1 SLOAD DUP8 ADD SWAP1 SSTORE SWAP3 MLOAD DUP6 DUP2 MSTORE SWAP1 SWAP3 PUSH32 0xDDF252AD1BE2C89B69C2B068FC378DAA952BA7F163C4A11628F55A4DF523B3EF SWAP2 ADD PUSH1 0x40 MLOAD DUP1 SWAP2 SUB SWAP1 LOG3 PUSH2 0x1A01 DUP5 DUP5 DUP5 PUSH2 0x24E6 JUMP JUMPDEST PUSH2 0xB41 DUP2 CALLER PUSH2 0x24F1 JUMP JUMPDEST PUSH2 0x1E04 DUP3 DUP3 PUSH2 0xCD6 JUMP JUMPDEST PUSH2 0x98B JUMPI PUSH1 0x0 DUP3 DUP2 MSTORE PUSH1 0xC PUSH1 0x20 SWAP1 DUP2 MSTORE PUSH1 0x40 DUP1 DUP4 KECCAK256 PUSH1 0x1 PUSH1 0x1 PUSH1 0xA0 SHL SUB DUP6 AND DUP5 MSTORE SWAP1 SWAP2 MSTORE SWAP1 KECCAK256 DUP1 SLOAD PUSH1 0xFF NOT AND PUSH1 0x1 OR SWAP1 SSTORE PUSH2 0x1E3C CALLER SWAP1 JUMP JUMPDEST PUSH1 0x1 PUSH1 0x1 PUSH1 0xA0 SHL SUB AND DUP2 PUSH1 0x1 PUSH1 0x1 PUSH1 0xA0 SHL SUB AND DUP4 PUSH32 0x2F8788117E7EFF1D82E926EC794901D17C78024A50270940304540A733656F0D PUSH1 0x40 MLOAD PUSH1 0x40 MLOAD DUP1 SWAP2 SUB SWAP1 LOG4 POP POP JUMP JUMPDEST PUSH1 0x0 ADDRESS PUSH1 0x1 PUSH1 0x1 PUSH1 0xA0 SHL SUB PUSH32 0x0 AND EQ DUP1 ISZERO PUSH2 0x1ED9 JUMPI POP PUSH32 0x0 CHAINID EQ JUMPDEST ISZERO PUSH2 0x1F03 JUMPI POP PUSH32 0x0 SWAP1 JUMP JUMPDEST PUSH2 0x907 PUSH1 0x40 DUP1 MLOAD PUSH32 0x8B73C3C69BB8FE3D512ECC4CF759CC79239F7B179B0FFACAA9A75D522B39400F PUSH1 0x20 DUP3 ADD MSTORE PUSH32 0x0 SWAP2 DUP2 ADD SWAP2 SWAP1 SWAP2 MSTORE PUSH32 0x0 PUSH1 0x60 DUP3 ADD MSTORE CHAINID PUSH1 0x80 DUP3 ADD MSTORE ADDRESS PUSH1 0xA0 DUP3 ADD MSTORE PUSH1 0x0 SWAP1 PUSH1 0xC0 ADD PUSH1 0x40 MLOAD PUSH1 0x20 DUP2 DUP4 SUB SUB DUP2 MSTORE SWAP1 PUSH1 0x40 MSTORE DUP1 MLOAD SWAP1 PUSH1 0x20 ADD KECCAK256 SWAP1 POP SWAP1 JUMP JUMPDEST PUSH2 0x1FB5 DUP3 DUP3 PUSH2 0xCD6 JUMP JUMPDEST ISZERO PUSH2 0x98B JUMPI PUSH1 0x0 DUP3 DUP2 MSTORE PUSH1 0xC PUSH1 0x20 SWAP1 DUP2 MSTORE PUSH1 0x40 DUP1 DUP4 KECCAK256 PUSH1 0x1 PUSH1 0x1 PUSH1 0xA0 SHL SUB DUP6 AND DUP1 DUP6 MSTORE SWAP3 MSTORE DUP1 DUP4 KECCAK256 DUP1 SLOAD PUSH1 0xFF NOT AND SWAP1 SSTORE MLOAD CALLER SWAP3 DUP6 SWAP2 PUSH32 0xF6391F5C32D9C69D2A47EA670B442974B53935D1EDC7FD64EB21E047A839171B SWAP2 SWAP1 LOG4 POP POP JUMP JUMPDEST DUP2 SLOAD PUSH1 0x0 SWAP1 DUP2 DUP2 PUSH1 0x5 DUP2 GT ISZERO PUSH2 0x206C JUMPI PUSH1 0x0 PUSH2 0x202D DUP5 PUSH2 0x254A JUMP JUMPDEST PUSH2 0x2037 SWAP1 DUP6 PUSH2 0x3557 JUMP JUMPDEST PUSH1 0x0 DUP9 DUP2 MSTORE PUSH1 0x20 SWAP1 KECCAK256 SWAP1 SWAP2 POP DUP7 SWAP1 DUP3 ADD SLOAD PUSH4 0xFFFFFFFF AND GT ISZERO PUSH2 0x205C JUMPI DUP1 SWAP2 POP PUSH2 0x206A JUMP JUMPDEST PUSH2 0x2067 DUP2 PUSH1 0x1 PUSH2 0x3502 JUMP JUMPDEST SWAP3 POP JUMPDEST POP JUMPDEST DUP1 DUP3 LT ISZERO PUSH2 0x20B9 JUMPI PUSH1 0x0 PUSH2 0x2080 DUP4 DUP4 PUSH2 0x2632 JUMP JUMPDEST PUSH1 0x0 DUP9 DUP2 MSTORE PUSH1 0x20 SWAP1 KECCAK256 SWAP1 SWAP2 POP DUP7 SWAP1 DUP3 ADD SLOAD PUSH4 0xFFFFFFFF AND GT ISZERO PUSH2 0x20A5 JUMPI DUP1 SWAP2 POP PUSH2 0x20B3 JUMP JUMPDEST PUSH2 0x20B0 DUP2 PUSH1 0x1 PUSH2 0x3502 JUMP JUMPDEST SWAP3 POP JUMPDEST POP PUSH2 0x206C JUMP JUMPDEST DUP1 ISZERO PUSH2 0x20E5 JUMPI PUSH1 0x0 DUP7 DUP2 MSTORE PUSH1 0x20 SWAP1 KECCAK256 DUP2 ADD PUSH1 0x0 NOT ADD SLOAD PUSH5 0x100000000 SWAP1 DIV PUSH1 0x1 PUSH1 0x1 PUSH1 0xE0 SHL SUB AND PUSH2 0x20E8 JUMP JUMPDEST PUSH1 0x0 JUMPDEST PUSH1 0x1 PUSH1 0x1 PUSH1 0xE0 SHL SUB AND SWAP7 SWAP6 POP POP POP POP POP POP JUMP JUMPDEST PUSH2 0x2103 PUSH2 0x264D JUMP JUMPDEST PUSH1 0xD DUP1 SLOAD PUSH1 0xFF NOT AND SWAP1 SSTORE PUSH32 0x5DB9EE0A495BF2E6FF9C91A7834C1BA4FDD244A5E8AA4E537BD38AEAE4B073AA CALLER JUMPDEST PUSH1 0x40 MLOAD PUSH1 0x1 PUSH1 0x1 PUSH1 0xA0 SHL SUB SWAP1 SWAP2 AND DUP2 MSTORE PUSH1 0x20 ADD PUSH1 0x40 MLOAD DUP1 SWAP2 SUB SWAP1 LOG1 JUMP JUMPDEST PUSH1 0x1 PUSH1 0x1 PUSH1 0xA0 SHL SUB DUP3 DUP2 AND PUSH1 0x0 DUP2 DUP2 MSTORE PUSH1 0x9 PUSH1 0x20 DUP2 DUP2 MSTORE PUSH1 0x40 DUP1 DUP5 KECCAK256 DUP1 SLOAD DUP6 DUP5 MSTORE DUP3 DUP7 KECCAK256 SLOAD SWAP5 SWAP1 SWAP4 MSTORE DUP8 DUP8 AND PUSH1 0x1 PUSH1 0x1 PUSH1 0xA0 SHL SUB NOT DUP5 AND DUP2 OR SWAP1 SWAP2 SSTORE SWAP1 MLOAD SWAP2 SWAP1 SWAP6 AND SWAP5 SWAP2 SWAP4 SWAP2 SWAP3 DUP6 SWAP3 SWAP2 PUSH32 0x3134E8A2E6D97E929A7E54011EA5485D7D196DD5F0BA4D4EF95803E8E3FC257F SWAP2 SWAP1 LOG4 PUSH2 0x1A01 DUP3 DUP5 DUP4 PUSH2 0x2696 JUMP JUMPDEST PUSH1 0x0 PUSH4 0xFFFFFFFF DUP3 GT ISZERO PUSH2 0x222B JUMPI PUSH1 0x40 MLOAD PUSH3 0x461BCD PUSH1 0xE5 SHL DUP2 MSTORE PUSH1 0x20 PUSH1 0x4 DUP3 ADD MSTORE PUSH1 0x26 PUSH1 0x24 DUP3 ADD MSTORE PUSH32 0x53616665436173743A2076616C756520646F65736E27742066697420696E2033 PUSH1 0x44 DUP3 ADD MSTORE PUSH6 0x322062697473 PUSH1 0xD0 SHL PUSH1 0x64 DUP3 ADD MSTORE PUSH1 0x84 ADD PUSH2 0x978 JUMP JUMPDEST POP SWAP1 JUMP JUMPDEST PUSH2 0x2237 PUSH2 0x237E JUMP JUMPDEST PUSH1 0xD DUP1 SLOAD PUSH1 0xFF NOT AND PUSH1 0x1 OR SWAP1 SSTORE PUSH32 0x62E78CEA01BEE320CD4E420270B5EA74000D11B0C9F74754EBDBFC544B05A258 PUSH2 0x2130 CALLER SWAP1 JUMP JUMPDEST PUSH1 0x60 PUSH1 0xFF DUP4 EQ PUSH2 0x2286 JUMPI PUSH2 0x227F DUP4 PUSH2 0x27D3 JUMP JUMPDEST SWAP1 POP PUSH2 0x7FF JUMP JUMPDEST DUP2 DUP1 SLOAD PUSH2 0x2292 SWAP1 PUSH2 0x34B8 JUMP JUMPDEST DUP1 PUSH1 0x1F ADD PUSH1 0x20 DUP1 SWAP2 DIV MUL PUSH1 0x20 ADD PUSH1 0x40 MLOAD SWAP1 DUP2 ADD PUSH1 0x40 MSTORE DUP1 SWAP3 SWAP2 SWAP1 DUP2 DUP2 MSTORE PUSH1 0x20 ADD DUP3 DUP1 SLOAD PUSH2 0x22BE SWAP1 PUSH2 0x34B8 JUMP JUMPDEST DUP1 ISZERO PUSH2 0x230B JUMPI DUP1 PUSH1 0x1F LT PUSH2 0x22E0 JUMPI PUSH2 0x100 DUP1 DUP4 SLOAD DIV MUL DUP4 MSTORE SWAP2 PUSH1 0x20 ADD SWAP2 PUSH2 0x230B JUMP JUMPDEST DUP3 ADD SWAP2 SWAP1 PUSH1 0x0 MSTORE PUSH1 0x20 PUSH1 0x0 KECCAK256 SWAP1 JUMPDEST DUP2 SLOAD DUP2 MSTORE SWAP1 PUSH1 0x1 ADD SWAP1 PUSH1 0x20 ADD DUP1 DUP4 GT PUSH2 0x22EE JUMPI DUP3 SWAP1 SUB PUSH1 0x1F AND DUP3 ADD SWAP2 JUMPDEST POP POP POP POP POP SWAP1 POP PUSH2 0x7FF JUMP JUMPDEST PUSH1 0x0 PUSH6 0xFFFFFFFFFFFF DUP3 GT ISZERO PUSH2 0x222B JUMPI PUSH1 0x40 MLOAD PUSH3 0x461BCD PUSH1 0xE5 SHL DUP2 MSTORE PUSH1 0x20 PUSH1 0x4 DUP3 ADD MSTORE PUSH1 0x26 PUSH1 0x24 DUP3 ADD MSTORE PUSH32 0x53616665436173743A2076616C756520646F65736E27742066697420696E2034 PUSH1 0x44 DUP3 ADD MSTORE PUSH6 0x382062697473 PUSH1 0xD0 SHL PUSH1 0x64 DUP3 ADD MSTORE PUSH1 0x84 ADD PUSH2 0x978 JUMP JUMPDEST PUSH1 0xD SLOAD PUSH1 0xFF AND ISZERO PUSH2 0x23C4 JUMPI PUSH1 0x40 MLOAD PUSH3 0x461BCD PUSH1 0xE5 SHL DUP2 MSTORE PUSH1 0x20 PUSH1 0x4 DUP3 ADD MSTORE PUSH1 0x10 PUSH1 0x24 DUP3 ADD MSTORE PUSH16 0x14185D5CD8589B194E881C185D5CD959 PUSH1 0x82 SHL PUSH1 0x44 DUP3 ADD MSTORE PUSH1 0x64 ADD PUSH2 0x978 JUMP JUMPDEST JUMP JUMPDEST PUSH1 0x40 MLOAD PUSH1 0x1 PUSH1 0x1 PUSH1 0xA0 SHL SUB DUP1 DUP6 AND PUSH1 0x24 DUP4 ADD MSTORE DUP4 AND PUSH1 0x44 DUP3 ADD MSTORE PUSH1 0x64 DUP2 ADD DUP3 SWAP1 MSTORE PUSH2 0x1A01 SWAP1 DUP6 SWAP1 PUSH4 0x23B872DD PUSH1 0xE0 SHL SWAP1 PUSH1 0x84 ADD JUMPDEST PUSH1 0x40 DUP1 MLOAD PUSH1 0x1F NOT DUP2 DUP5 SUB ADD DUP2 MSTORE SWAP2 SWAP1 MSTORE PUSH1 0x20 DUP2 ADD DUP1 MLOAD PUSH1 0x1 PUSH1 0x1 PUSH1 0xE0 SHL SUB AND PUSH1 0x1 PUSH1 0x1 PUSH1 0xE0 SHL SUB NOT SWAP1 SWAP4 AND SWAP3 SWAP1 SWAP3 OR SWAP1 SWAP2 MSTORE PUSH2 0x2812 JUMP JUMPDEST PUSH1 0x40 MLOAD PUSH1 0x1 PUSH1 0x1 PUSH1 0xA0 SHL SUB DUP4 AND PUSH1 0x24 DUP3 ADD MSTORE PUSH1 0x44 DUP2 ADD DUP3 SWAP1 MSTORE PUSH2 0x8F8 SWAP1 DUP5 SWAP1 PUSH4 0xA9059CBB PUSH1 0xE0 SHL SWAP1 PUSH1 0x64 ADD PUSH2 0x23FA JUMP JUMPDEST PUSH1 0x0 PUSH2 0x7FF PUSH2 0x246E PUSH2 0x1E80 JUMP JUMPDEST DUP4 PUSH1 0x40 MLOAD PUSH2 0x1901 PUSH1 0xF0 SHL DUP2 MSTORE PUSH1 0x2 DUP2 ADD SWAP3 SWAP1 SWAP3 MSTORE PUSH1 0x22 DUP3 ADD MSTORE PUSH1 0x42 SWAP1 KECCAK256 SWAP1 JUMP JUMPDEST PUSH1 0x0 DUP1 PUSH1 0x0 PUSH2 0x249F DUP8 DUP8 DUP8 DUP8 PUSH2 0x28E7 JUMP JUMPDEST SWAP2 POP SWAP2 POP PUSH2 0x24AC DUP2 PUSH2 0x29AB JUMP JUMPDEST POP SWAP1 POP JUMPDEST SWAP5 SWAP4 POP POP POP POP JUMP JUMPDEST PUSH1 0x1 PUSH1 0x1 PUSH1 0xA0 SHL SUB DUP2 AND PUSH1 0x0 SWAP1 DUP2 MSTORE PUSH1 0x7 PUSH1 0x20 MSTORE PUSH1 0x40 SWAP1 KECCAK256 DUP1 SLOAD PUSH1 0x1 DUP2 ADD DUP3 SSTORE SWAP1 PUSH2 0x14F5 JUMP JUMPDEST PUSH2 0x8F8 PUSH2 0x237E JUMP JUMPDEST PUSH2 0x8F8 DUP4 DUP4 DUP4 PUSH2 0x2AF5 JUMP JUMPDEST PUSH2 0x24FB DUP3 DUP3 PUSH2 0xCD6 JUMP JUMPDEST PUSH2 0x98B JUMPI PUSH2 0x2508 DUP2 PUSH2 0x2B27 JUMP JUMPDEST PUSH2 0x2513 DUP4 PUSH1 0x20 PUSH2 0x2B39 JUMP JUMPDEST PUSH1 0x40 MLOAD PUSH1 0x20 ADD PUSH2 0x2524 SWAP3 SWAP2 SWAP1 PUSH2 0x35B9 JUMP JUMPDEST PUSH1 0x40 DUP1 MLOAD PUSH1 0x1F NOT DUP2 DUP5 SUB ADD DUP2 MSTORE SWAP1 DUP3 SWAP1 MSTORE PUSH3 0x461BCD PUSH1 0xE5 SHL DUP3 MSTORE PUSH2 0x978 SWAP2 PUSH1 0x4 ADD PUSH2 0x3187 JUMP JUMPDEST PUSH1 0x0 DUP2 PUSH1 0x0 SUB PUSH2 0x255C JUMPI POP PUSH1 0x0 SWAP2 SWAP1 POP JUMP JUMPDEST PUSH1 0x0 PUSH1 0x1 PUSH2 0x2569 DUP5 PUSH2 0x2CD5 JUMP JUMPDEST SWAP1 SHR PUSH1 0x1 SWAP1 SHL SWAP1 POP PUSH1 0x1 DUP2 DUP5 DUP2 PUSH2 0x2582 JUMPI PUSH2 0x2582 PUSH2 0x3581 JUMP JUMPDEST DIV DUP3 ADD SWAP1 SHR SWAP1 POP PUSH1 0x1 DUP2 DUP5 DUP2 PUSH2 0x259A JUMPI PUSH2 0x259A PUSH2 0x3581 JUMP JUMPDEST DIV DUP3 ADD SWAP1 SHR SWAP1 POP PUSH1 0x1 DUP2 DUP5 DUP2 PUSH2 0x25B2 JUMPI PUSH2 0x25B2 PUSH2 0x3581 JUMP JUMPDEST DIV DUP3 ADD SWAP1 SHR SWAP1 POP PUSH1 0x1 DUP2 DUP5 DUP2 PUSH2 0x25CA JUMPI PUSH2 0x25CA PUSH2 0x3581 JUMP JUMPDEST DIV DUP3 ADD SWAP1 SHR SWAP1 POP PUSH1 0x1 DUP2 DUP5 DUP2 PUSH2 0x25E2 JUMPI PUSH2 0x25E2 PUSH2 0x3581 JUMP JUMPDEST DIV DUP3 ADD SWAP1 SHR SWAP1 POP PUSH1 0x1 DUP2 DUP5 DUP2 PUSH2 0x25FA JUMPI PUSH2 0x25FA PUSH2 0x3581 JUMP JUMPDEST DIV DUP3 ADD SWAP1 SHR SWAP1 POP PUSH1 0x1 DUP2 DUP5 DUP2 PUSH2 0x2612 JUMPI PUSH2 0x2612 PUSH2 0x3581 JUMP JUMPDEST DIV DUP3 ADD SWAP1 SHR SWAP1 POP PUSH2 0xA2F DUP2 DUP3 DUP6 DUP2 PUSH2 0x262C JUMPI PUSH2 0x262C PUSH2 0x3581 JUMP JUMPDEST DIV PUSH2 0x2D69 JUMP JUMPDEST PUSH1 0x0 PUSH2 0x2641 PUSH1 0x2 DUP5 DUP5 XOR PUSH2 0x3597 JUMP JUMPDEST PUSH2 0xA2F SWAP1 DUP5 DUP5 AND PUSH2 0x3502 JUMP JUMPDEST PUSH1 0xD SLOAD PUSH1 0xFF AND PUSH2 0x23C4 JUMPI PUSH1 0x40 MLOAD PUSH3 0x461BCD PUSH1 0xE5 SHL DUP2 MSTORE PUSH1 0x20 PUSH1 0x4 DUP3 ADD MSTORE PUSH1 0x14 PUSH1 0x24 DUP3 ADD MSTORE PUSH20 0x14185D5CD8589B194E881B9BDD081C185D5CD959 PUSH1 0x62 SHL PUSH1 0x44 DUP3 ADD MSTORE PUSH1 0x64 ADD PUSH2 0x978 JUMP JUMPDEST DUP2 PUSH1 0x1 PUSH1 0x1 PUSH1 0xA0 SHL SUB AND DUP4 PUSH1 0x1 PUSH1 0x1 PUSH1 0xA0 SHL SUB AND EQ ISZERO DUP1 ISZERO PUSH2 0x26B8 JUMPI POP PUSH1 0x0 DUP2 GT JUMPDEST ISZERO PUSH2 0x8F8 JUMPI PUSH1 0x1 PUSH1 0x1 PUSH1 0xA0 SHL SUB DUP4 AND ISZERO PUSH2 0x2746 JUMPI PUSH1 0x1 PUSH1 0x1 PUSH1 0xA0 SHL SUB DUP4 AND PUSH1 0x0 SWAP1 DUP2 MSTORE PUSH1 0xA PUSH1 0x20 MSTORE PUSH1 0x40 DUP2 KECCAK256 DUP2 SWAP1 PUSH2 0x26F3 SWAP1 PUSH2 0x1A97 DUP6 PUSH2 0x2D7F JUMP JUMPDEST SWAP2 POP SWAP2 POP DUP5 PUSH1 0x1 PUSH1 0x1 PUSH1 0xA0 SHL SUB AND PUSH32 0xDEC2BACDD2F05B59DE34DA9B523DFF8BE42E5E38E818C82FDB0BAE774387A724 DUP4 DUP4 PUSH1 0x40 MLOAD PUSH2 0x273B SWAP3 SWAP2 SWAP1 SWAP2 DUP3 MSTORE PUSH1 0x20 DUP3 ADD MSTORE PUSH1 0x40 ADD SWAP1 JUMP JUMPDEST PUSH1 0x40 MLOAD DUP1 SWAP2 SUB SWAP1 LOG2 POP POP JUMPDEST PUSH1 0x1 PUSH1 0x1 PUSH1 0xA0 SHL SUB DUP3 AND ISZERO PUSH2 0x8F8 JUMPI PUSH1 0x1 PUSH1 0x1 PUSH1 0xA0 SHL SUB DUP3 AND PUSH1 0x0 SWAP1 DUP2 MSTORE PUSH1 0xA PUSH1 0x20 MSTORE PUSH1 0x40 DUP2 KECCAK256 DUP2 SWAP1 PUSH2 0x277C SWAP1 PUSH2 0x1A8B DUP6 PUSH2 0x2D7F JUMP JUMPDEST SWAP2 POP SWAP2 POP DUP4 PUSH1 0x1 PUSH1 0x1 PUSH1 0xA0 SHL SUB AND PUSH32 0xDEC2BACDD2F05B59DE34DA9B523DFF8BE42E5E38E818C82FDB0BAE774387A724 DUP4 DUP4 PUSH1 0x40 MLOAD PUSH2 0x27C4 SWAP3 SWAP2 SWAP1 SWAP2 DUP3 MSTORE PUSH1 0x20 DUP3 ADD MSTORE PUSH1 0x40 ADD SWAP1 JUMP JUMPDEST PUSH1 0x40 MLOAD DUP1 SWAP2 SUB SWAP1 LOG2 POP POP POP POP POP JUMP JUMPDEST PUSH1 0x60 PUSH1 0x0 PUSH2 0x27E0 DUP4 PUSH2 0x2EF4 JUMP JUMPDEST PUSH1 0x40 DUP1 MLOAD PUSH1 0x20 DUP1 DUP3 MSTORE DUP2 DUP4 ADD SWAP1 SWAP3 MSTORE SWAP2 SWAP3 POP PUSH1 0x0 SWAP2 SWAP1 PUSH1 0x20 DUP3 ADD DUP2 DUP1 CALLDATASIZE DUP4 CALLDATACOPY POP POP POP SWAP2 DUP3 MSTORE POP PUSH1 0x20 DUP2 ADD SWAP3 SWAP1 SWAP3 MSTORE POP SWAP1 JUMP JUMPDEST PUSH1 0x0 PUSH2 0x2867 DUP3 PUSH1 0x40 MLOAD DUP1 PUSH1 0x40 ADD PUSH1 0x40 MSTORE DUP1 PUSH1 0x20 DUP2 MSTORE PUSH1 0x20 ADD PUSH32 0x5361666545524332303A206C6F772D6C6576656C2063616C6C206661696C6564 DUP2 MSTORE POP DUP6 PUSH1 0x1 PUSH1 0x1 PUSH1 0xA0 SHL SUB AND PUSH2 0x2F1C SWAP1 SWAP3 SWAP2 SWAP1 PUSH4 0xFFFFFFFF AND JUMP JUMPDEST SWAP1 POP DUP1 MLOAD PUSH1 0x0 EQ DUP1 PUSH2 0x2888 JUMPI POP DUP1 DUP1 PUSH1 0x20 ADD SWAP1 MLOAD DUP2 ADD SWAP1 PUSH2 0x2888 SWAP2 SWAP1 PUSH2 0x362E JUMP JUMPDEST PUSH2 0x8F8 JUMPI PUSH1 0x40 MLOAD PUSH3 0x461BCD PUSH1 0xE5 SHL DUP2 MSTORE PUSH1 0x20 PUSH1 0x4 DUP3 ADD MSTORE PUSH1 0x2A PUSH1 0x24 DUP3 ADD MSTORE PUSH32 0x5361666545524332303A204552433230206F7065726174696F6E20646964206E PUSH1 0x44 DUP3 ADD MSTORE PUSH10 0x1BDD081CDD58D8D95959 PUSH1 0xB2 SHL PUSH1 0x64 DUP3 ADD MSTORE PUSH1 0x84 ADD PUSH2 0x978 JUMP JUMPDEST PUSH1 0x0 DUP1 PUSH32 0x7FFFFFFFFFFFFFFFFFFFFFFFFFFFFFFF5D576E7357A4501DDFE92F46681B20A0 DUP4 GT ISZERO PUSH2 0x291E JUMPI POP PUSH1 0x0 SWAP1 POP PUSH1 0x3 PUSH2 0x29A2 JUMP JUMPDEST PUSH1 0x40 DUP1 MLOAD PUSH1 0x0 DUP1 DUP3 MSTORE PUSH1 0x20 DUP3 ADD DUP1 DUP5 MSTORE DUP10 SWAP1 MSTORE PUSH1 0xFF DUP9 AND SWAP3 DUP3 ADD SWAP3 SWAP1 SWAP3 MSTORE PUSH1 0x60 DUP2 ADD DUP7 SWAP1 MSTORE PUSH1 0x80 DUP2 ADD DUP6 SWAP1 MSTORE PUSH1 0x1 SWAP1 PUSH1 0xA0 ADD PUSH1 0x20 PUSH1 0x40 MLOAD PUSH1 0x20 DUP2 SUB SWAP1 DUP1 DUP5 SUB SWAP1 DUP6 GAS STATICCALL ISZERO DUP1 ISZERO PUSH2 0x2972 JUMPI RETURNDATASIZE PUSH1 0x0 DUP1 RETURNDATACOPY RETURNDATASIZE PUSH1 0x0 REVERT JUMPDEST POP POP PUSH1 0x40 MLOAD PUSH1 0x1F NOT ADD MLOAD SWAP2 POP POP PUSH1 0x1 PUSH1 0x1 PUSH1 0xA0 SHL SUB DUP2 AND PUSH2 0x299B JUMPI PUSH1 0x0 PUSH1 0x1 SWAP3 POP SWAP3 POP POP PUSH2 0x29A2 JUMP JUMPDEST SWAP2 POP PUSH1 0x0 SWAP1 POP JUMPDEST SWAP5 POP SWAP5 SWAP3 POP POP POP JUMP JUMPDEST PUSH1 0x0 DUP2 PUSH1 0x4 DUP2 GT ISZERO PUSH2 0x29BF JUMPI PUSH2 0x29BF PUSH2 0x352B JUMP JUMPDEST SUB PUSH2 0x29C7 JUMPI POP JUMP JUMPDEST PUSH1 0x1 DUP2 PUSH1 0x4 DUP2 GT ISZERO PUSH2 0x29DB JUMPI PUSH2 0x29DB PUSH2 0x352B JUMP JUMPDEST SUB PUSH2 0x2A28 JUMPI PUSH1 0x40 MLOAD PUSH3 0x461BCD PUSH1 0xE5 SHL DUP2 MSTORE PUSH1 0x20 PUSH1 0x4 DUP3 ADD MSTORE PUSH1 0x18 PUSH1 0x24 DUP3 ADD MSTORE PUSH32 0x45434453413A20696E76616C6964207369676E61747572650000000000000000 PUSH1 0x44 DUP3 ADD MSTORE PUSH1 0x64 ADD PUSH2 0x978 JUMP JUMPDEST PUSH1 0x2 DUP2 PUSH1 0x4 DUP2 GT ISZERO PUSH2 0x2A3C JUMPI PUSH2 0x2A3C PUSH2 0x352B JUMP JUMPDEST SUB PUSH2 0x2A89 JUMPI PUSH1 0x40 MLOAD PUSH3 0x461BCD PUSH1 0xE5 SHL DUP2 MSTORE PUSH1 0x20 PUSH1 0x4 DUP3 ADD MSTORE PUSH1 0x1F PUSH1 0x24 DUP3 ADD MSTORE PUSH32 0x45434453413A20696E76616C6964207369676E6174757265206C656E67746800 PUSH1 0x44 DUP3 ADD MSTORE PUSH1 0x64 ADD PUSH2 0x978 JUMP JUMPDEST PUSH1 0x3 DUP2 PUSH1 0x4 DUP2 GT ISZERO PUSH2 0x2A9D JUMPI PUSH2 0x2A9D PUSH2 0x352B JUMP JUMPDEST SUB PUSH2 0xB41 JUMPI PUSH1 0x40 MLOAD PUSH3 0x461BCD PUSH1 0xE5 SHL DUP2 MSTORE PUSH1 0x20 PUSH1 0x4 DUP3 ADD MSTORE PUSH1 0x22 PUSH1 0x24 DUP3 ADD MSTORE PUSH32 0x45434453413A20696E76616C6964207369676E6174757265202773272076616C PUSH1 0x44 DUP3 ADD MSTORE PUSH2 0x7565 PUSH1 0xF0 SHL PUSH1 0x64 DUP3 ADD MSTORE PUSH1 0x84 ADD PUSH2 0x978 JUMP JUMPDEST PUSH1 0x1 PUSH1 0x1 PUSH1 0xA0 SHL SUB DUP4 DUP2 AND PUSH1 0x0 SWAP1 DUP2 MSTORE PUSH1 0x9 PUSH1 0x20 MSTORE PUSH1 0x40 DUP1 DUP3 KECCAK256 SLOAD DUP6 DUP5 AND DUP4 MSTORE SWAP2 KECCAK256 SLOAD PUSH2 0x8F8 SWAP3 SWAP2 DUP3 AND SWAP2 AND DUP4 PUSH2 0x2696 JUMP JUMPDEST PUSH1 0x60 PUSH2 0x7FF PUSH1 0x1 PUSH1 0x1 PUSH1 0xA0 SHL SUB DUP4 AND PUSH1 0x14 JUMPDEST PUSH1 0x60 PUSH1 0x0 PUSH2 0x2B48 DUP4 PUSH1 0x2 PUSH2 0x356A JUMP JUMPDEST PUSH2 0x2B53 SWAP1 PUSH1 0x2 PUSH2 0x3502 JUMP JUMPDEST PUSH8 0xFFFFFFFFFFFFFFFF DUP2 GT ISZERO PUSH2 0x2B6B JUMPI PUSH2 0x2B6B PUSH2 0x3515 JUMP JUMPDEST PUSH1 0x40 MLOAD SWAP1 DUP1 DUP3 MSTORE DUP1 PUSH1 0x1F ADD PUSH1 0x1F NOT AND PUSH1 0x20 ADD DUP3 ADD PUSH1 0x40 MSTORE DUP1 ISZERO PUSH2 0x2B95 JUMPI PUSH1 0x20 DUP3 ADD DUP2 DUP1 CALLDATASIZE DUP4 CALLDATACOPY ADD SWAP1 POP JUMPDEST POP SWAP1 POP PUSH1 0x3 PUSH1 0xFC SHL DUP2 PUSH1 0x0 DUP2 MLOAD DUP2 LT PUSH2 0x2BB0 JUMPI PUSH2 0x2BB0 PUSH2 0x3541 JUMP JUMPDEST PUSH1 0x20 ADD ADD SWAP1 PUSH1 0x1 PUSH1 0x1 PUSH1 0xF8 SHL SUB NOT AND SWAP1 DUP2 PUSH1 0x0 BYTE SWAP1 MSTORE8 POP PUSH1 0xF PUSH1 0xFB SHL DUP2 PUSH1 0x1 DUP2 MLOAD DUP2 LT PUSH2 0x2BDF JUMPI PUSH2 0x2BDF PUSH2 0x3541 JUMP JUMPDEST PUSH1 0x20 ADD ADD SWAP1 PUSH1 0x1 PUSH1 0x1 PUSH1 0xF8 SHL SUB NOT AND SWAP1 DUP2 PUSH1 0x0 BYTE SWAP1 MSTORE8 POP PUSH1 0x0 PUSH2 0x2C03 DUP5 PUSH1 0x2 PUSH2 0x356A JUMP JUMPDEST PUSH2 0x2C0E SWAP1 PUSH1 0x1 PUSH2 0x3502 JUMP JUMPDEST SWAP1 POP JUMPDEST PUSH1 0x1 DUP2 GT ISZERO PUSH2 0x2C86 JUMPI PUSH16 0x181899199A1A9B1B9C1CB0B131B232B3 PUSH1 0x81 SHL DUP6 PUSH1 0xF AND PUSH1 0x10 DUP2 LT PUSH2 0x2C42 JUMPI PUSH2 0x2C42 PUSH2 0x3541 JUMP JUMPDEST BYTE PUSH1 0xF8 SHL DUP3 DUP3 DUP2 MLOAD DUP2 LT PUSH2 0x2C58 JUMPI PUSH2 0x2C58 PUSH2 0x3541 JUMP JUMPDEST PUSH1 0x20 ADD ADD SWAP1 PUSH1 0x1 PUSH1 0x1 PUSH1 0xF8 SHL SUB NOT AND SWAP1 DUP2 PUSH1 0x0 BYTE SWAP1 MSTORE8 POP PUSH1 0x4 SWAP5 SWAP1 SWAP5 SHR SWAP4 PUSH2 0x2C7F DUP2 PUSH2 0x3650 JUMP JUMPDEST SWAP1 POP PUSH2 0x2C11 JUMP JUMPDEST POP DUP4 ISZERO PUSH2 0xA2F JUMPI PUSH1 0x40 MLOAD PUSH3 0x461BCD PUSH1 0xE5 SHL DUP2 MSTORE PUSH1 0x20 PUSH1 0x4 DUP3 ADD DUP2 SWAP1 MSTORE PUSH1 0x24 DUP3 ADD MSTORE PUSH32 0x537472696E67733A20686578206C656E67746820696E73756666696369656E74 PUSH1 0x44 DUP3 ADD MSTORE PUSH1 0x64 ADD PUSH2 0x978 JUMP JUMPDEST PUSH1 0x0 DUP1 PUSH1 0x80 DUP4 SWAP1 SHR ISZERO PUSH2 0x2CEA JUMPI PUSH1 0x80 SWAP3 DUP4 SHR SWAP3 ADD JUMPDEST PUSH1 0x40 DUP4 SWAP1 SHR ISZERO PUSH2 0x2CFC JUMPI PUSH1 0x40 SWAP3 DUP4 SHR SWAP3 ADD JUMPDEST PUSH1 0x20 DUP4 SWAP1 SHR ISZERO PUSH2 0x2D0E JUMPI PUSH1 0x20 SWAP3 DUP4 SHR SWAP3 ADD JUMPDEST PUSH1 0x10 DUP4 SWAP1 SHR ISZERO PUSH2 0x2D20 JUMPI PUSH1 0x10 SWAP3 DUP4 SHR SWAP3 ADD JUMPDEST PUSH1 0x8 DUP4 SWAP1 SHR ISZERO PUSH2 0x2D32 JUMPI PUSH1 0x8 SWAP3 DUP4 SHR SWAP3 ADD JUMPDEST PUSH1 0x4 DUP4 SWAP1 SHR ISZERO PUSH2 0x2D44 JUMPI PUSH1 0x4 SWAP3 DUP4 SHR SWAP3 ADD JUMPDEST PUSH1 0x2 DUP4 SWAP1 SHR ISZERO PUSH2 0x2D56 JUMPI PUSH1 0x2 SWAP3 DUP4 SHR SWAP3 ADD JUMPDEST PUSH1 0x1 DUP4 SWAP1 SHR ISZERO PUSH2 0x7FF JUMPI PUSH1 0x1 ADD SWAP3 SWAP2 POP POP JUMP JUMPDEST PUSH1 0x0 DUP2 DUP4 LT PUSH2 0x2D78 JUMPI DUP2 PUSH2 0xA2F JUMP JUMPDEST POP SWAP1 SWAP2 SWAP1 POP JUMP JUMPDEST DUP3 SLOAD PUSH1 0x0 SWAP1 DUP2 SWAP1 DUP2 DUP2 ISZERO PUSH2 0x2DCC JUMPI PUSH1 0x0 DUP8 DUP2 MSTORE PUSH1 0x20 SWAP1 KECCAK256 DUP3 ADD PUSH1 0x0 NOT ADD PUSH1 0x40 DUP1 MLOAD DUP1 DUP3 ADD SWAP1 SWAP2 MSTORE SWAP1 SLOAD PUSH4 0xFFFFFFFF DUP2 AND DUP3 MSTORE PUSH5 0x100000000 SWAP1 DIV PUSH1 0x1 PUSH1 0x1 PUSH1 0xE0 SHL SUB AND PUSH1 0x20 DUP3 ADD MSTORE PUSH2 0x2DE1 JUMP JUMPDEST PUSH1 0x40 DUP1 MLOAD DUP1 DUP3 ADD SWAP1 SWAP2 MSTORE PUSH1 0x0 DUP1 DUP3 MSTORE PUSH1 0x20 DUP3 ADD MSTORE JUMPDEST SWAP1 POP DUP1 PUSH1 0x20 ADD MLOAD PUSH1 0x1 PUSH1 0x1 PUSH1 0xE0 SHL SUB AND SWAP4 POP PUSH2 0x2E01 DUP5 DUP7 DUP9 PUSH4 0xFFFFFFFF AND JUMP JUMPDEST SWAP3 POP PUSH1 0x0 DUP3 GT DUP1 ISZERO PUSH2 0x2E2B JUMPI POP PUSH2 0x2E16 PUSH2 0xD01 JUMP JUMPDEST PUSH6 0xFFFFFFFFFFFF AND DUP2 PUSH1 0x0 ADD MLOAD PUSH4 0xFFFFFFFF AND EQ JUMPDEST ISZERO PUSH2 0x2E70 JUMPI PUSH2 0x2E39 DUP4 PUSH2 0x2F2B JUMP JUMPDEST PUSH1 0x0 DUP9 DUP2 MSTORE PUSH1 0x20 SWAP1 KECCAK256 DUP4 ADD PUSH1 0x0 NOT ADD DUP1 SLOAD PUSH1 0x1 PUSH1 0x1 PUSH1 0xE0 SHL SUB SWAP3 SWAP1 SWAP3 AND PUSH5 0x100000000 MUL PUSH4 0xFFFFFFFF SWAP1 SWAP3 AND SWAP2 SWAP1 SWAP2 OR SWAP1 SSTORE PUSH2 0x2EEA JUMP JUMPDEST DUP7 PUSH1 0x40 MLOAD DUP1 PUSH1 0x40 ADD PUSH1 0x40 MSTORE DUP1 PUSH2 0x2E94 PUSH2 0x2E87 PUSH2 0xD01 JUMP JUMPDEST PUSH6 0xFFFFFFFFFFFF AND PUSH2 0x21C6 JUMP JUMPDEST PUSH4 0xFFFFFFFF AND DUP2 MSTORE PUSH1 0x20 ADD PUSH2 0x2EA8 DUP7 PUSH2 0x2F2B JUMP JUMPDEST PUSH1 0x1 PUSH1 0x1 PUSH1 0xE0 SHL SUB SWAP1 DUP2 AND SWAP1 SWAP2 MSTORE DUP3 SLOAD PUSH1 0x1 DUP2 ADD DUP5 SSTORE PUSH1 0x0 SWAP4 DUP5 MSTORE PUSH1 0x20 SWAP4 DUP5 SWAP1 KECCAK256 DUP4 MLOAD SWAP5 SWAP1 SWAP4 ADD MLOAD SWAP1 SWAP2 AND PUSH5 0x100000000 MUL PUSH4 0xFFFFFFFF SWAP1 SWAP4 AND SWAP3 SWAP1 SWAP3 OR SWAP2 ADD SSTORE JUMPDEST POP POP SWAP4 POP SWAP4 SWAP2 POP POP JUMP JUMPDEST PUSH1 0x0 PUSH1 0xFF DUP3 AND PUSH1 0x1F DUP2 GT ISZERO PUSH2 0x7FF JUMPI PUSH1 0x40 MLOAD PUSH4 0x2CD44AC3 PUSH1 0xE2 SHL DUP2 MSTORE PUSH1 0x4 ADD PUSH1 0x40 MLOAD DUP1 SWAP2 SUB SWAP1 REVERT JUMPDEST PUSH1 0x60 PUSH2 0x24B0 DUP5 DUP5 PUSH1 0x0 DUP6 PUSH2 0x2F94 JUMP JUMPDEST PUSH1 0x0 PUSH1 0x1 PUSH1 0x1 PUSH1 0xE0 SHL SUB DUP3 GT ISZERO PUSH2 0x222B JUMPI PUSH1 0x40 MLOAD PUSH3 0x461BCD PUSH1 0xE5 SHL DUP2 MSTORE PUSH1 0x20 PUSH1 0x4 DUP3 ADD MSTORE PUSH1 0x27 PUSH1 0x24 DUP3 ADD MSTORE PUSH32 0x53616665436173743A2076616C756520646F65736E27742066697420696E2032 PUSH1 0x44 DUP3 ADD MSTORE PUSH7 0x32342062697473 PUSH1 0xC8 SHL PUSH1 0x64 DUP3 ADD MSTORE PUSH1 0x84 ADD PUSH2 0x978 JUMP JUMPDEST PUSH1 0x60 DUP3 SELFBALANCE LT ISZERO PUSH2 0x2FF5 JUMPI PUSH1 0x40 MLOAD PUSH3 0x461BCD PUSH1 0xE5 SHL DUP2 MSTORE PUSH1 0x20 PUSH1 0x4 DUP3 ADD MSTORE PUSH1 0x26 PUSH1 0x24 DUP3 ADD MSTORE PUSH32 0x416464726573733A20696E73756666696369656E742062616C616E636520666F PUSH1 0x44 DUP3 ADD MSTORE PUSH6 0x1C8818D85B1B PUSH1 0xD2 SHL PUSH1 0x64 DUP3 ADD MSTORE PUSH1 0x84 ADD PUSH2 0x978 JUMP JUMPDEST PUSH1 0x0 DUP1 DUP7 PUSH1 0x1 PUSH1 0x1 PUSH1 0xA0 SHL SUB AND DUP6 DUP8 PUSH1 0x40 MLOAD PUSH2 0x3011 SWAP2 SWAP1 PUSH2 0x3667 JUMP JUMPDEST PUSH1 0x0 PUSH1 0x40 MLOAD DUP1 DUP4 SUB DUP2 DUP6 DUP8 GAS CALL SWAP3 POP POP POP RETURNDATASIZE DUP1 PUSH1 0x0 DUP2 EQ PUSH2 0x304E JUMPI PUSH1 0x40 MLOAD SWAP2 POP PUSH1 0x1F NOT PUSH1 0x3F RETURNDATASIZE ADD AND DUP3 ADD PUSH1 0x40 MSTORE RETURNDATASIZE DUP3 MSTORE RETURNDATASIZE PUSH1 0x0 PUSH1 0x20 DUP5 ADD RETURNDATACOPY PUSH2 0x3053 JUMP JUMPDEST PUSH1 0x60 SWAP2 POP JUMPDEST POP SWAP2 POP SWAP2 POP PUSH2 0x3064 DUP8 DUP4 DUP4 DUP8 PUSH2 0x306F JUMP JUMPDEST SWAP8 SWAP7 POP POP POP POP POP POP POP JUMP JUMPDEST PUSH1 0x60 DUP4 ISZERO PUSH2 0x30DE JUMPI DUP3 MLOAD PUSH1 0x0 SUB PUSH2 0x30D7 JUMPI PUSH1 0x1 PUSH1 0x1 PUSH1 0xA0 SHL SUB DUP6 AND EXTCODESIZE PUSH2 0x30D7 JUMPI PUSH1 0x40 MLOAD PUSH3 0x461BCD PUSH1 0xE5 SHL DUP2 MSTORE PUSH1 0x20 PUSH1 0x4 DUP3 ADD MSTORE PUSH1 0x1D PUSH1 0x24 DUP3 ADD MSTORE PUSH32 0x416464726573733A2063616C6C20746F206E6F6E2D636F6E7472616374000000 PUSH1 0x44 DUP3 ADD MSTORE PUSH1 0x64 ADD PUSH2 0x978 JUMP JUMPDEST POP DUP2 PUSH2 0x24B0 JUMP JUMPDEST PUSH2 0x24B0 DUP4 DUP4 DUP2 MLOAD ISZERO PUSH2 0x30F3 JUMPI DUP2 MLOAD DUP1 DUP4 PUSH1 0x20 ADD REVERT JUMPDEST DUP1 PUSH1 0x40 MLOAD PUSH3 0x461BCD PUSH1 0xE5 SHL DUP2 MSTORE PUSH1 0x4 ADD PUSH2 0x978 SWAP2 SWAP1 PUSH2 0x3187 JUMP JUMPDEST PUSH1 0x0 PUSH1 0x20 DUP3 DUP5 SUB SLT ISZERO PUSH2 0x311F JUMPI PUSH1 0x0 DUP1 REVERT JUMPDEST DUP2 CALLDATALOAD PUSH1 0x1 PUSH1 0x1 PUSH1 0xE0 SHL SUB NOT DUP2 AND DUP2 EQ PUSH2 0xA2F JUMPI PUSH1 0x0 DUP1 REVERT JUMPDEST PUSH1 0x0 JUMPDEST DUP4 DUP2 LT ISZERO PUSH2 0x3152 JUMPI DUP2 DUP2 ADD MLOAD DUP4 DUP3 ADD MSTORE PUSH1 0x20 ADD PUSH2 0x313A JUMP JUMPDEST POP POP PUSH1 0x0 SWAP2 ADD MSTORE JUMP JUMPDEST PUSH1 0x0 DUP2 MLOAD DUP1 DUP5 MSTORE PUSH2 0x3173 DUP2 PUSH1 0x20 DUP7 ADD PUSH1 0x20 DUP7 ADD PUSH2 0x3137 JUMP JUMPDEST PUSH1 0x1F ADD PUSH1 0x1F NOT AND SWAP3 SWAP1 SWAP3 ADD PUSH1 0x20 ADD SWAP3 SWAP2 POP POP JUMP JUMPDEST PUSH1 0x20 DUP2 MSTORE PUSH1 0x0 PUSH2 0xA2F PUSH1 0x20 DUP4 ADD DUP5 PUSH2 0x315B JUMP JUMPDEST DUP1 CALLDATALOAD PUSH1 0x1 PUSH1 0x1 PUSH1 0xA0 SHL SUB DUP2 AND DUP2 EQ PUSH2 0x31B1 JUMPI PUSH1 0x0 DUP1 REVERT JUMPDEST SWAP2 SWAP1 POP JUMP JUMPDEST PUSH1 0x0 DUP1 PUSH1 0x40 DUP4 DUP6 SUB SLT ISZERO PUSH2 0x31C9 JUMPI PUSH1 0x0 DUP1 REVERT JUMPDEST PUSH2 0x31D2 DUP4 PUSH2 0x319A JUMP JUMPDEST SWAP5 PUSH1 0x20 SWAP4 SWAP1 SWAP4 ADD CALLDATALOAD SWAP4 POP POP POP JUMP JUMPDEST PUSH1 0x0 DUP1 PUSH1 0x0 PUSH1 0x60 DUP5 DUP7 SUB SLT ISZERO PUSH2 0x31F5 JUMPI PUSH1 0x0 DUP1 REVERT JUMPDEST PUSH2 0x31FE DUP5 PUSH2 0x319A JUMP JUMPDEST SWAP3 POP PUSH2 0x320C PUSH1 0x20 DUP6 ADD PUSH2 0x319A JUMP JUMPDEST SWAP3 SWAP6 SWAP3 SWAP5 POP POP POP PUSH1 0x40 SWAP2 SWAP1 SWAP2 ADD CALLDATALOAD SWAP1 JUMP JUMPDEST PUSH1 0x0 PUSH1 0x20 DUP3 DUP5 SUB SLT ISZERO PUSH2 0x322F JUMPI PUSH1 0x0 DUP1 REVERT JUMPDEST POP CALLDATALOAD SWAP2 SWAP1 POP JUMP JUMPDEST PUSH1 0x0 DUP1 PUSH1 0x40 DUP4 DUP6 SUB SLT ISZERO PUSH2 0x3249 JUMPI PUSH1 0x0 DUP1 REVERT JUMPDEST DUP3 CALLDATALOAD SWAP2 POP PUSH2 0x3259 PUSH1 0x20 DUP5 ADD PUSH2 0x319A JUMP JUMPDEST SWAP1 POP SWAP3 POP SWAP3 SWAP1 POP JUMP JUMPDEST PUSH1 0x0 PUSH1 0x20 DUP3 DUP5 SUB SLT ISZERO PUSH2 0x3274 JUMPI PUSH1 0x0 DUP1 REVERT JUMPDEST PUSH2 0xA2F DUP3 PUSH2 0x319A JUMP JUMPDEST PUSH1 0xFF PUSH1 0xF8 SHL DUP9 AND DUP2 MSTORE PUSH1 0xE0 PUSH1 0x20 DUP3 ADD MSTORE PUSH1 0x0 PUSH2 0x329C PUSH1 0xE0 DUP4 ADD DUP10 PUSH2 0x315B JUMP JUMPDEST DUP3 DUP2 SUB PUSH1 0x40 DUP5 ADD MSTORE PUSH2 0x32AE DUP2 DUP10 PUSH2 0x315B JUMP JUMPDEST PUSH1 0x60 DUP5 ADD DUP9 SWAP1 MSTORE PUSH1 0x1 PUSH1 0x1 PUSH1 0xA0 SHL SUB DUP8 AND PUSH1 0x80 DUP6 ADD MSTORE PUSH1 0xA0 DUP5 ADD DUP7 SWAP1 MSTORE DUP4 DUP2 SUB PUSH1 0xC0 DUP6 ADD MSTORE DUP5 MLOAD DUP1 DUP3 MSTORE PUSH1 0x20 DUP1 DUP8 ADD SWAP4 POP SWAP1 SWAP2 ADD SWAP1 PUSH1 0x0 JUMPDEST DUP2 DUP2 LT ISZERO PUSH2 0x3304 JUMPI DUP4 MLOAD DUP4 MSTORE PUSH1 0x20 SWAP4 DUP5 ADD SWAP4 SWAP1 SWAP3 ADD SWAP2 PUSH1 0x1 ADD PUSH2 0x32E6 JUMP JUMPDEST POP SWAP1 SWAP12 SWAP11 POP POP POP POP POP POP POP POP POP POP POP JUMP JUMPDEST DUP1 CALLDATALOAD PUSH1 0x3 DUP2 LT PUSH2 0x31B1 JUMPI PUSH1 0x0 DUP1 REVERT JUMPDEST PUSH1 0x0 DUP1 PUSH1 0x40 DUP4 DUP6 SUB SLT ISZERO PUSH2 0x3337 JUMPI PUSH1 0x0 DUP1 REVERT JUMPDEST PUSH2 0x31D2 DUP4 PUSH2 0x3315 JUMP JUMPDEST PUSH1 0x0 DUP1 PUSH1 0x0 PUSH1 0x60 DUP5 DUP7 SUB SLT ISZERO PUSH2 0x3355 JUMPI PUSH1 0x0 DUP1 REVERT JUMPDEST PUSH2 0x31FE DUP5 PUSH2 0x3315 JUMP JUMPDEST DUP1 CALLDATALOAD PUSH1 0xFF DUP2 AND DUP2 EQ PUSH2 0x31B1 JUMPI PUSH1 0x0 DUP1 REVERT JUMPDEST PUSH1 0x0 DUP1 PUSH1 0x0 DUP1 PUSH1 0x0 DUP1 PUSH1 0xC0 DUP8 DUP10 SUB SLT ISZERO PUSH2 0x3388 JUMPI PUSH1 0x0 DUP1 REVERT JUMPDEST PUSH2 0x3391 DUP8 PUSH2 0x319A JUMP JUMPDEST SWAP6 POP PUSH1 0x20 DUP8 ADD CALLDATALOAD SWAP5 POP PUSH1 0x40 DUP8 ADD CALLDATALOAD SWAP4 POP PUSH2 0x33AD PUSH1 0x60 DUP9 ADD PUSH2 0x335E JUMP JUMPDEST SWAP6 SWAP9 SWAP5 SWAP8 POP SWAP3 SWAP6 PUSH1 0x80 DUP2 ADD CALLDATALOAD SWAP5 PUSH1 0xA0 SWAP1 SWAP2 ADD CALLDATALOAD SWAP4 POP SWAP2 POP POP JUMP JUMPDEST PUSH1 0x0 DUP1 PUSH1 0x40 DUP4 DUP6 SUB SLT ISZERO PUSH2 0x33DA JUMPI PUSH1 0x0 DUP1 REVERT JUMPDEST PUSH2 0x33E3 DUP4 PUSH2 0x3315 JUMP JUMPDEST SWAP2 POP PUSH2 0x3259 PUSH1 0x20 DUP5 ADD PUSH2 0x319A JUMP JUMPDEST PUSH1 0x0 DUP1 PUSH1 0x0 DUP1 PUSH1 0x0 DUP1 PUSH1 0x0 PUSH1 0xE0 DUP9 DUP11 SUB SLT ISZERO PUSH2 0x340C JUMPI PUSH1 0x0 DUP1 REVERT JUMPDEST PUSH2 0x3415 DUP9 PUSH2 0x319A JUMP JUMPDEST SWAP7 POP PUSH2 0x3423 PUSH1 0x20 DUP10 ADD PUSH2 0x319A JUMP JUMPDEST SWAP6 POP PUSH1 0x40 DUP9 ADD CALLDATALOAD SWAP5 POP PUSH1 0x60 DUP9 ADD CALLDATALOAD SWAP4 POP PUSH2 0x343F PUSH1 0x80 DUP10 ADD PUSH2 0x335E JUMP JUMPDEST SWAP7 SWAP10 SWAP6 SWAP9 POP SWAP4 SWAP7 SWAP3 SWAP6 SWAP5 PUSH1 0xA0 DUP5 ADD CALLDATALOAD SWAP5 POP PUSH1 0xC0 SWAP1 SWAP4 ADD CALLDATALOAD SWAP3 SWAP2 POP POP JUMP JUMPDEST PUSH1 0x0 DUP1 PUSH1 0x40 DUP4 DUP6 SUB SLT ISZERO PUSH2 0x346F JUMPI PUSH1 0x0 DUP1 REVERT JUMPDEST PUSH2 0x33E3 DUP4 PUSH2 0x319A JUMP JUMPDEST PUSH1 0x0 DUP1 PUSH1 0x40 DUP4 DUP6 SUB SLT ISZERO PUSH2 0x348B JUMPI PUSH1 0x0 DUP1 REVERT JUMPDEST PUSH2 0x3494 DUP4 PUSH2 0x319A JUMP JUMPDEST SWAP2 POP PUSH1 0x20 DUP4 ADD CALLDATALOAD PUSH4 0xFFFFFFFF DUP2 AND DUP2 EQ PUSH2 0x34AD JUMPI PUSH1 0x0 DUP1 REVERT JUMPDEST DUP1 SWAP2 POP POP SWAP3 POP SWAP3 SWAP1 POP JUMP JUMPDEST PUSH1 0x1 DUP2 DUP2 SHR SWAP1 DUP3 AND DUP1 PUSH2 0x34CC JUMPI PUSH1 0x7F DUP3 AND SWAP2 POP JUMPDEST PUSH1 0x20 DUP3 LT DUP2 SUB PUSH2 0x14F5 JUMPI PUSH4 0x4E487B71 PUSH1 0xE0 SHL PUSH1 0x0 MSTORE PUSH1 0x22 PUSH1 0x4 MSTORE PUSH1 0x24 PUSH1 0x0 REVERT JUMPDEST PUSH4 0x4E487B71 PUSH1 0xE0 SHL PUSH1 0x0 MSTORE PUSH1 0x11 PUSH1 0x4 MSTORE PUSH1 0x24 PUSH1 0x0 REVERT JUMPDEST DUP1 DUP3 ADD DUP1 DUP3 GT ISZERO PUSH2 0x7FF JUMPI PUSH2 0x7FF PUSH2 0x34EC JUMP JUMPDEST PUSH4 0x4E487B71 PUSH1 0xE0 SHL PUSH1 0x0 MSTORE PUSH1 0x41 PUSH1 0x4 MSTORE PUSH1 0x24 PUSH1 0x0 REVERT JUMPDEST PUSH4 0x4E487B71 PUSH1 0xE0 SHL PUSH1 0x0 MSTORE PUSH1 0x21 PUSH1 0x4 MSTORE PUSH1 0x24 PUSH1 0x0 REVERT JUMPDEST PUSH4 0x4E487B71 PUSH1 0xE0 SHL PUSH1 0x0 MSTORE PUSH1 0x32 PUSH1 0x4 MSTORE PUSH1 0x24 PUSH1 0x0 REVERT JUMPDEST DUP2 DUP2 SUB DUP2 DUP2 GT ISZERO PUSH2 0x7FF JUMPI PUSH2 0x7FF PUSH2 0x34EC JUMP JUMPDEST DUP1 DUP3 MUL DUP2 ISZERO DUP3 DUP3 DIV DUP5 EQ OR PUSH2 0x7FF JUMPI PUSH2 0x7FF PUSH2 0x34EC JUMP JUMPDEST PUSH4 0x4E487B71 PUSH1 0xE0 SHL PUSH1 0x0 MSTORE PUSH1 0x12 PUSH1 0x4 MSTORE PUSH1 0x24 PUSH1 0x0 REVERT JUMPDEST PUSH1 0x0 DUP3 PUSH2 0x35B4 JUMPI PUSH4 0x4E487B71 PUSH1 0xE0 SHL PUSH1 0x0 MSTORE PUSH1 0x12 PUSH1 0x4 MSTORE PUSH1 0x24 PUSH1 0x0 REVERT JUMPDEST POP DIV SWAP1 JUMP JUMPDEST PUSH32 0x416363657373436F6E74726F6C3A206163636F756E7420000000000000000000 DUP2 MSTORE PUSH1 0x0 DUP4 MLOAD PUSH2 0x35F1 DUP2 PUSH1 0x17 DUP6 ADD PUSH1 0x20 DUP9 ADD PUSH2 0x3137 JUMP JUMPDEST PUSH17 0x1034B99036B4B9B9B4B733903937B6329 PUSH1 0x7D SHL PUSH1 0x17 SWAP2 DUP5 ADD SWAP2 DUP3 ADD MSTORE DUP4 MLOAD PUSH2 0x3622 DUP2 PUSH1 0x28 DUP5 ADD PUSH1 0x20 DUP9 ADD PUSH2 0x3137 JUMP JUMPDEST ADD PUSH1 0x28 ADD SWAP5 SWAP4 POP POP POP POP JUMP JUMPDEST PUSH1 0x0 PUSH1 0x20 DUP3 DUP5 SUB SLT ISZERO PUSH2 0x3640 JUMPI PUSH1 0x0 DUP1 REVERT JUMPDEST DUP2 MLOAD DUP1 ISZERO ISZERO DUP2 EQ PUSH2 0xA2F JUMPI PUSH1 0x0 DUP1 REVERT JUMPDEST PUSH1 0x0 DUP2 PUSH2 0x365F JUMPI PUSH2 0x365F PUSH2 0x34EC JUMP JUMPDEST POP PUSH1 0x0 NOT ADD SWAP1 JUMP JUMPDEST PUSH1 0x0 DUP3 MLOAD PUSH2 0x3679 DUP2 DUP5 PUSH1 0x20 DUP8 ADD PUSH2 0x3137 JUMP JUMPDEST SWAP2 SWAP1 SWAP2 ADD SWAP3 SWAP2 POP POP JUMP INVALID 0xAA SWAP1 PUSH1 0x66 0xD 0xC3 0xE5 0x21 MSTORE 0xEC PUSH13 0x4CD87F38F5433D3E2246058F23 LOG2 SWAP5 PUSH4 0xEA324768 OR LOG2 PUSH5 0x6970667358 0x22 SLT KECCAK256 0xB6 SWAP4 0xA9 SDIV PUSH6 0xC55BA44C6792 DUP11 DUP10 0xBE 0xD9 INVALID DUP9 0x28 0xD7 0xE3 DUP13 DIV 0xF6 GASLIMIT 0xBC DUP2 0xB1 ORIGIN 0xE6 0xE8 0xAA DELEGATECALL PUSH5 0x736F6C6343 STOP ADDMOD SHR STOP CALLER 0xDE 0xC2 0xBA 0xCD 0xD2 CREATE JUMPDEST MSIZE 0xDE CALLVALUE 0xDA SWAP12 MSTORE RETURNDATASIZE SELFDESTRUCT DUP12 0xE4 0x2E MCOPY CODESIZE 0xE8 XOR 0xC8 0x2F 0xDB SIGNEXTEND 0xAE PUSH24 0x4387A7240000000000000000000000000000000000000000 "},"methodIdentifiers":{"BACKING_MANAGER_ROLE()":"15e98e73","CLOCK_MODE()":"4bf5d7e9","DEFAULT_ADMIN_ROLE()":"a217fddf","DOMAIN_SEPARATOR()":"3644e515","GOVERNANCE_ROLE()":"f36c8f5c","MINTER_ROLE()":"d5391393","PAUSER_ROLE()":"e63ab1e9","RECOVERY_ROLE()":"31993a1c","TOTAL_SUPPLY()":"902d55a5","allowance(address,address)":"dd62ed3e","approve(address,uint256)":"095ea7b3","backingPerTokenUSD()":"dfef15b8","balanceOf(address)":"70a08231","checkpoints(address,uint32)":"f1127ed8","clock()":"91ddadf4","decimals()":"313ce567","decreaseAllowance(address,uint256)":"a457c2d7","delegate(address)":"5c19a95c","delegateBySig(address,uint256,uint256,uint8,bytes32,bytes32)":"c3cda520","delegates(address)":"587cde1e","depositBacking(uint8,uint256)":"91ee2a3d","developmentAddress()":"638b1b14","eip712Domain()":"84b0196e","emergencyRecoverERC20(address,address,uint256)":"eb8f4c4a","getPastTotalSupply(uint256)":"8e539e8c","getPastVotes(address,uint256)":"3a46b1a8","getRoleAdmin(bytes32)":"248a9ca3","getVotes(address)":"9ab24eb0","grantRole(bytes32,address)":"2f2ff15d","hasRole(bytes32,address)":"91d14854","increaseAllowance(address,uint256)":"39509351","name()":"06fdde03","nonces(address)":"7ecebe00","numCheckpoints(address)":"6fcfff45","pause()":"8456cb59","paused()":"5c975abb","permit(address,address,uint256,uint256,uint8,bytes32,bytes32)":"d505accf","publicAddress()":"f676f331","registerBackingToken(uint8,address)":"c69def0b","renounceRole(bytes32,address)":"36568abe","reserveAddress()":"f79ed94b","revokeRole(bytes32,address)":"d547741f","setAssetPriceUSD(uint8,uint256)":"a978d8df","shariaTrustAddress()":"fe64c681","strategicPartnersAddress()":"626c3d43","supportsInterface(bytes4)":"01ffc9a7","symbol()":"95d89b41","totalBackingValueUSD()":"ae621bbe","totalSupply()":"18160ddd","transfer(address,uint256)":"a9059cbb","transferFrom(address,address,uint256)":"23b872dd","unpause()":"3f4ba83a","withdrawBacking(uint8,address,uint256)":"a34cea08"}}}}}