{"contracts/Oracles/eminarOracle.sol":{"TokenOracle":{"abi":[{"inputs":[{"internalType":"address","name":"_initialOwner","type":"address"}],"stateMutability":"nonpayable","type":"constructor"},{"anonymous":false,"inputs":[{"indexed":true,"internalType":"address","name":"previousOwner","type":"address"},{"indexed":true,"internalType":"address","name":"newOwner","type":"address"}],"name":"OwnershipTransferred","type":"event"},{"anonymous":false,"inputs":[{"indexed":true,"internalType":"address","name":"token","type":"address"},{"indexed":false,"internalType":"uint256","name":"price","type":"uint256"},{"indexed":false,"internalType":"address","name":"updatedBy","type":"address"},{"indexed":false,"internalType":"uint256","name":"timestamp","type":"uint256"}],"name":"PriceUpdated","type":"event"},{"anonymous":false,"inputs":[{"indexed":false,"internalType":"address","name":"gold","type":"address"},{"indexed":false,"internalType":"address","name":"silver","type":"address"},{"indexed":false,"internalType":"address","name":"rare","type":"address"}],"name":"TokensSet","type":"event"},{"inputs":[],"name":"PRICE_DECIMALS","outputs":[{"internalType":"uint256","name":"","type":"uint256"}],"stateMutability":"view","type":"function"},{"inputs":[],"name":"getAllPrices","outputs":[{"internalType":"uint256","name":"goldPrice","type":"uint256"},{"internalType":"uint256","name":"silverPrice","type":"uint256"},{"internalType":"uint256","name":"rarePrice","type":"uint256"},{"internalType":"uint256","name":"lastUpdated","type":"uint256"}],"stateMutability":"view","type":"function"},{"inputs":[],"name":"getGoldPrice","outputs":[{"internalType":"uint256","name":"price","type":"uint256"},{"internalType":"uint256","name":"lastUpdated","type":"uint256"}],"stateMutability":"view","type":"function"},{"inputs":[],"name":"getRarePrice","outputs":[{"internalType":"uint256","name":"price","type":"uint256"},{"internalType":"uint256","name":"lastUpdated","type":"uint256"}],"stateMutability":"view","type":"function"},{"inputs":[],"name":"getSilverPrice","outputs":[{"internalType":"uint256","name":"price","type":"uint256"},{"internalType":"uint256","name":"lastUpdated","type":"uint256"}],"stateMutability":"view","type":"function"},{"inputs":[],"name":"getTokenAddresses","outputs":[{"internalType":"address","name":"","type":"address"},{"internalType":"address","name":"","type":"address"},{"internalType":"address","name":"","type":"address"}],"stateMutability":"view","type":"function"},{"inputs":[{"internalType":"address","name":"token","type":"address"}],"name":"getTokenPrice","outputs":[{"internalType":"uint256","name":"price","type":"uint256"},{"internalType":"uint256","name":"lastUpdated","type":"uint256"}],"stateMutability":"view","type":"function"},{"inputs":[],"name":"goldToken","outputs":[{"internalType":"address","name":"","type":"address"}],"stateMutability":"view","type":"function"},{"inputs":[{"internalType":"address","name":"token","type":"address"},{"internalType":"uint256","name":"maxAge","type":"uint256"}],"name":"isPriceRecent","outputs":[{"internalType":"bool","name":"","type":"bool"}],"stateMutability":"view","type":"function"},{"inputs":[],"name":"owner","outputs":[{"internalType":"address","name":"","type":"address"}],"stateMutability":"view","type":"function"},{"inputs":[],"name":"rareToken","outputs":[{"internalType":"address","name":"","type":"address"}],"stateMutability":"view","type":"function"},{"inputs":[],"name":"renounceOwnership","outputs":[],"stateMutability":"nonpayable","type":"function"},{"inputs":[{"internalType":"address","name":"_goldToken","type":"address"},{"internalType":"address","name":"_silverToken","type":"address"},{"internalType":"address","name":"_rareToken","type":"address"}],"name":"setTokenAddresses","outputs":[],"stateMutability":"nonpayable","type":"function"},{"inputs":[],"name":"silverToken","outputs":[{"internalType":"address","name":"","type":"address"}],"stateMutability":"view","type":"function"},{"inputs":[{"internalType":"address","name":"","type":"address"}],"name":"tokenPrices","outputs":[{"internalType":"uint256","name":"price","type":"uint256"},{"internalType":"uint256","name":"lastUpdated","type":"uint256"},{"internalType":"address","name":"updatedBy","type":"address"}],"stateMutability":"view","type":"function"},{"inputs":[{"internalType":"address","name":"newOwner","type":"address"}],"name":"transferOwnership","outputs":[],"stateMutability":"nonpayable","type":"function"},{"inputs":[{"internalType":"uint256","name":"goldPrice","type":"uint256"},{"internalType":"uint256","name":"silverPrice","type":"uint256"},{"internalType":"uint256","name":"rarePrice","type":"uint256"}],"name":"updateAllPrices","outputs":[],"stateMutability":"nonpayable","type":"function"},{"inputs":[{"internalType":"address","name":"token","type":"address"},{"internalType":"uint256","name":"price","type":"uint256"}],"name":"updateTokenPrice","outputs":[],"stateMutability":"nonpayable","type":"function"}],"evm":{"bytecode":{"linkReferences":{},"object":"608060405234801561001057600080fd5b50604051610e1d380380610e1d83398101604081905261002f91610184565b6100383361005a565b600180556001600160a01b0381161561005457610054816100aa565b506101b4565b600080546001600160a01b038381166001600160a01b0319831681178455604051919092169283917f8be0079c531659141344cd1fd0a4f28419497f9722a3daafe3b4186f6b6457e09190a35050565b6100b2610128565b6001600160a01b03811661011c5760405162461bcd60e51b815260206004820152602660248201527f4f776e61626c653a206e6577206f776e657220697320746865207a65726f206160448201526564647265737360d01b60648201526084015b60405180910390fd5b6101258161005a565b50565b6000546001600160a01b031633146101825760405162461bcd60e51b815260206004820181905260248201527f4f776e61626c653a2063616c6c6572206973206e6f7420746865206f776e65726044820152606401610113565b565b60006020828403121561019657600080fd5b81516001600160a01b03811681146101ad57600080fd5b9392505050565b610c5a806101c36000396000f3fe608060405234801561001057600080fd5b50600436106101165760003560e01c806394002b57116100a2578063d4ee651b11610071578063d4ee651b14610291578063da6bae10146102a4578063ee8c24b8146102ac578063f1a640f8146102df578063f2fde38b146102f557600080fd5b806394002b5714610250578063c34fe1dd14610263578063d02641a014610276578063d32104031461028957600080fd5b8063445df9d6116100e9578063445df9d6146101df5780634d3f9d3e146102075780634e279b791461021a578063715018a6146102375780638da5cb5b1461023f57600080fd5b80630bc16abe1461011b578063204120bc1461013057806338c21d1b1461019157806340947df1146101bc575b600080fd5b61012e610129366004610b0c565b610308565b005b61016861013e366004610b54565b6005602052600090815260409020805460018201546002909201549091906001600160a01b031683565b6040805193845260208401929092526001600160a01b0316908201526060015b60405180910390f35b6004546101a4906001600160a01b031681565b6040516001600160a01b039091168152602001610188565b6101cf6101ca366004610b76565b610512565b6040519015158152602001610188565b6101e7610582565b604080519485526020850193909352918301526060820152608001610188565b61012e610215366004610ba0565b61067a565b6102226107d4565b60408051928352602083019190915201610188565b61012e6107f6565b6000546001600160a01b03166101a4565b6002546101a4906001600160a01b031681565b6003546101a4906001600160a01b031681565b610222610284366004610b54565b61080a565b610222610853565b61012e61029f366004610b76565b61086d565b6102226109cf565b600254600354600454604080516001600160a01b0394851681529284166020840152921691810191909152606001610188565b6102e7600881565b604051908152602001610188565b61012e610303366004610b54565b6109e9565b610310610a62565b6000831180156103205750600082115b801561032c5750600081115b61037d5760405162461bcd60e51b815260206004820152601d60248201527f507269636573206d7573742062652067726561746572207468616e203000000060448201526064015b60405180910390fd5b604080516060808201835285825242602080840182815233858701818152600280546001600160a01b03908116600090815260058088528b82209a518b5595516001808c0191909155935199830180549a83166001600160a01b03199b8c161790558a51808a018c528d8152808801898152818d0187815260035485168452888a528d842092518355905182870155519084018054918416918c169190911790558a51808a018c528c8152808801898152818d0187815260045485168452978952918c902090518155905193810193909355935191810180549285169290981691909117909655945486518a815292830195909552948101919091529190921691600080516020610c05833981519152910160405180910390a260035460408051848152336020820152428183015290516001600160a01b0390921691600080516020610c058339815191529181900360600190a260045460408051838152336020820152428183015290516001600160a01b0390921691600080516020610c058339815191529181900360600190a2505050565b6001600160a01b038083166000908152600560209081526040808320815160608101835281548152600182015493810184905260029091015490941690840152909190820361056557600091505061057c565b828160200151426105769190610be3565b11159150505b92915050565b600280546001600160a01b03908116600090815260056020818152604080842081516060808201845282548252600183810154838701908152938a015489168386015260035489168852868652848820855180840187528154815281830154818901908152918c01548b16818801526004548b168a52978752858920865193840187528054845291820154968301969096529098015490961691870191909152905190519294859485948594919391929185911161064457826020015161064a565b83602001515b90508082602001511161065d5780610663565b81602001515b935192519151929891975091955091935090915050565b610682610a62565b6002546001600160a01b0316156106d05760405162461bcd60e51b8152602060048201526012602482015271151bdad95b9cc8185b1c9958591e481cd95d60721b6044820152606401610374565b6001600160a01b038316158015906106f057506001600160a01b03821615155b801561070457506001600160a01b03811615155b6107505760405162461bcd60e51b815260206004820152601760248201527f496e76616c696420746f6b656e206164647265737365730000000000000000006044820152606401610374565b600280546001600160a01b038581166001600160a01b0319928316811790935560038054868316908416811790915560048054928616929093168217909255604080519384526020840192909252908201527f5b298d21a3f20895e495bf3dcb889649b4381249a094782f2c49e9f5d015b9c59060600160405180910390a1505050565b60035460009081906107ee906001600160a01b031661080a565b915091509091565b6107fe610a62565b6108086000610abc565b565b6001600160a01b03908116600090815260056020908152604091829020825160608101845281548082526001830154938201849052600290920154909416939092019290925291565b60045460009081906107ee906001600160a01b031661080a565b610875610a62565b6002546001600160a01b038381169116148061089e57506003546001600160a01b038381169116145b806108b657506004546001600160a01b038381169116145b6108f25760405162461bcd60e51b815260206004820152600d60248201526c24b73b30b634b2103a37b5b2b760991b6044820152606401610374565b600081116109425760405162461bcd60e51b815260206004820152601c60248201527f5072696365206d7573742062652067726561746572207468616e2030000000006044820152606401610374565b6040805160608082018352838252426020808401828152338587018181526001600160a01b038a81166000818152600587528a902098518955935160018901559051600290970180546001600160a01b0319169790911696909617909555855187815291820194909452938401529091600080516020610c05833981519152910160405180910390a25050565b60025460009081906107ee906001600160a01b031661080a565b6109f1610a62565b6001600160a01b038116610a565760405162461bcd60e51b815260206004820152602660248201527f4f776e61626c653a206e6577206f776e657220697320746865207a65726f206160448201526564647265737360d01b6064820152608401610374565b610a5f81610abc565b50565b6000546001600160a01b031633146108085760405162461bcd60e51b815260206004820181905260248201527f4f776e61626c653a2063616c6c6572206973206e6f7420746865206f776e65726044820152606401610374565b600080546001600160a01b038381166001600160a01b0319831681178455604051919092169283917f8be0079c531659141344cd1fd0a4f28419497f9722a3daafe3b4186f6b6457e09190a35050565b600080600060608486031215610b2157600080fd5b505081359360208301359350604090920135919050565b80356001600160a01b0381168114610b4f57600080fd5b919050565b600060208284031215610b6657600080fd5b610b6f82610b38565b9392505050565b60008060408385031215610b8957600080fd5b610b9283610b38565b946020939093013593505050565b600080600060608486031215610bb557600080fd5b610bbe84610b38565b9250610bcc60208501610b38565b9150610bda60408501610b38565b90509250925092565b8181038181111561057c57634e487b7160e01b600052601160045260246000fdfec71c2e178d54f3a46742671fcbbdbbade697d8f5a8647b18268e5087918c375da26469706673582212205cb7689be082119862b2887a3b08964f37707b5bb3eb05ae98f4375273b4780b64736f6c634300081c0033","opcodes":"PUSH1 0x80 PUSH1 0x40 MSTORE CALLVALUE DUP1 ISZERO PUSH2 0x10 JUMPI PUSH1 0x0 DUP1 REVERT JUMPDEST POP PUSH1 0x40 MLOAD PUSH2 0xE1D CODESIZE SUB DUP1 PUSH2 0xE1D DUP4 CODECOPY DUP2 ADD PUSH1 0x40 DUP2 SWAP1 MSTORE PUSH2 0x2F SWAP2 PUSH2 0x184 JUMP JUMPDEST PUSH2 0x38 CALLER PUSH2 0x5A JUMP JUMPDEST PUSH1 0x1 DUP1 SSTORE PUSH1 0x1 PUSH1 0x1 PUSH1 0xA0 SHL SUB DUP2 AND ISZERO PUSH2 0x54 JUMPI PUSH2 0x54 DUP2 PUSH2 0xAA JUMP JUMPDEST POP PUSH2 0x1B4 JUMP JUMPDEST PUSH1 0x0 DUP1 SLOAD PUSH1 0x1 PUSH1 0x1 PUSH1 0xA0 SHL SUB DUP4 DUP2 AND PUSH1 0x1 PUSH1 0x1 PUSH1 0xA0 SHL SUB NOT DUP4 AND DUP2 OR DUP5 SSTORE PUSH1 0x40 MLOAD SWAP2 SWAP1 SWAP3 AND SWAP3 DUP4 SWAP2 PUSH32 0x8BE0079C531659141344CD1FD0A4F28419497F9722A3DAAFE3B4186F6B6457E0 SWAP2 SWAP1 LOG3 POP POP JUMP JUMPDEST PUSH2 0xB2 PUSH2 0x128 JUMP JUMPDEST PUSH1 0x1 PUSH1 0x1 PUSH1 0xA0 SHL SUB DUP2 AND PUSH2 0x11C JUMPI PUSH1 0x40 MLOAD PUSH3 0x461BCD PUSH1 0xE5 SHL DUP2 MSTORE PUSH1 0x20 PUSH1 0x4 DUP3 ADD MSTORE PUSH1 0x26 PUSH1 0x24 DUP3 ADD MSTORE PUSH32 0x4F776E61626C653A206E6577206F776E657220697320746865207A65726F2061 PUSH1 0x44 DUP3 ADD MSTORE PUSH6 0x646472657373 PUSH1 0xD0 SHL PUSH1 0x64 DUP3 ADD MSTORE PUSH1 0x84 ADD JUMPDEST PUSH1 0x40 MLOAD DUP1 SWAP2 SUB SWAP1 REVERT JUMPDEST PUSH2 0x125 DUP2 PUSH2 0x5A JUMP JUMPDEST POP JUMP JUMPDEST PUSH1 0x0 SLOAD PUSH1 0x1 PUSH1 0x1 PUSH1 0xA0 SHL SUB AND CALLER EQ PUSH2 0x182 JUMPI PUSH1 0x40 MLOAD PUSH3 0x461BCD PUSH1 0xE5 SHL DUP2 MSTORE PUSH1 0x20 PUSH1 0x4 DUP3 ADD DUP2 SWAP1 MSTORE PUSH1 0x24 DUP3 ADD MSTORE PUSH32 0x4F776E61626C653A2063616C6C6572206973206E6F7420746865206F776E6572 PUSH1 0x44 DUP3 ADD MSTORE PUSH1 0x64 ADD PUSH2 0x113 JUMP JUMPDEST JUMP JUMPDEST PUSH1 0x0 PUSH1 0x20 DUP3 DUP5 SUB SLT ISZERO PUSH2 0x196 JUMPI PUSH1 0x0 DUP1 REVERT JUMPDEST DUP2 MLOAD PUSH1 0x1 PUSH1 0x1 PUSH1 0xA0 SHL SUB DUP2 AND DUP2 EQ PUSH2 0x1AD JUMPI PUSH1 0x0 DUP1 REVERT JUMPDEST SWAP4 SWAP3 POP POP POP JUMP JUMPDEST PUSH2 0xC5A DUP1 PUSH2 0x1C3 PUSH1 0x0 CODECOPY PUSH1 0x0 RETURN INVALID PUSH1 0x80 PUSH1 0x40 MSTORE CALLVALUE DUP1 ISZERO PUSH2 0x10 JUMPI PUSH1 0x0 DUP1 REVERT JUMPDEST POP PUSH1 0x4 CALLDATASIZE LT PUSH2 0x116 JUMPI PUSH1 0x0 CALLDATALOAD PUSH1 0xE0 SHR DUP1 PUSH4 0x94002B57 GT PUSH2 0xA2 JUMPI DUP1 PUSH4 0xD4EE651B GT PUSH2 0x71 JUMPI DUP1 PUSH4 0xD4EE651B EQ PUSH2 0x291 JUMPI DUP1 PUSH4 0xDA6BAE10 EQ PUSH2 0x2A4 JUMPI DUP1 PUSH4 0xEE8C24B8 EQ PUSH2 0x2AC JUMPI DUP1 PUSH4 0xF1A640F8 EQ PUSH2 0x2DF JUMPI DUP1 PUSH4 0xF2FDE38B EQ PUSH2 0x2F5 JUMPI PUSH1 0x0 DUP1 REVERT JUMPDEST DUP1 PUSH4 0x94002B57 EQ PUSH2 0x250 JUMPI DUP1 PUSH4 0xC34FE1DD EQ PUSH2 0x263 JUMPI DUP1 PUSH4 0xD02641A0 EQ PUSH2 0x276 JUMPI DUP1 PUSH4 0xD3210403 EQ PUSH2 0x289 JUMPI PUSH1 0x0 DUP1 REVERT JUMPDEST DUP1 PUSH4 0x445DF9D6 GT PUSH2 0xE9 JUMPI DUP1 PUSH4 0x445DF9D6 EQ PUSH2 0x1DF JUMPI DUP1 PUSH4 0x4D3F9D3E EQ PUSH2 0x207 JUMPI DUP1 PUSH4 0x4E279B79 EQ PUSH2 0x21A JUMPI DUP1 PUSH4 0x715018A6 EQ PUSH2 0x237 JUMPI DUP1 PUSH4 0x8DA5CB5B EQ PUSH2 0x23F JUMPI PUSH1 0x0 DUP1 REVERT JUMPDEST DUP1 PUSH4 0xBC16ABE EQ PUSH2 0x11B JUMPI DUP1 PUSH4 0x204120BC EQ PUSH2 0x130 JUMPI DUP1 PUSH4 0x38C21D1B EQ PUSH2 0x191 JUMPI DUP1 PUSH4 0x40947DF1 EQ PUSH2 0x1BC JUMPI JUMPDEST PUSH1 0x0 DUP1 REVERT JUMPDEST PUSH2 0x12E PUSH2 0x129 CALLDATASIZE PUSH1 0x4 PUSH2 0xB0C JUMP JUMPDEST PUSH2 0x308 JUMP JUMPDEST STOP JUMPDEST PUSH2 0x168 PUSH2 0x13E CALLDATASIZE PUSH1 0x4 PUSH2 0xB54 JUMP JUMPDEST PUSH1 0x5 PUSH1 0x20 MSTORE PUSH1 0x0 SWAP1 DUP2 MSTORE PUSH1 0x40 SWAP1 KECCAK256 DUP1 SLOAD PUSH1 0x1 DUP3 ADD SLOAD PUSH1 0x2 SWAP1 SWAP3 ADD SLOAD SWAP1 SWAP2 SWAP1 PUSH1 0x1 PUSH1 0x1 PUSH1 0xA0 SHL SUB AND DUP4 JUMP JUMPDEST PUSH1 0x40 DUP1 MLOAD SWAP4 DUP5 MSTORE PUSH1 0x20 DUP5 ADD SWAP3 SWAP1 SWAP3 MSTORE PUSH1 0x1 PUSH1 0x1 PUSH1 0xA0 SHL SUB AND SWAP1 DUP3 ADD MSTORE PUSH1 0x60 ADD JUMPDEST PUSH1 0x40 MLOAD DUP1 SWAP2 SUB SWAP1 RETURN JUMPDEST PUSH1 0x4 SLOAD PUSH2 0x1A4 SWAP1 PUSH1 0x1 PUSH1 0x1 PUSH1 0xA0 SHL SUB AND DUP2 JUMP JUMPDEST PUSH1 0x40 MLOAD PUSH1 0x1 PUSH1 0x1 PUSH1 0xA0 SHL SUB SWAP1 SWAP2 AND DUP2 MSTORE PUSH1 0x20 ADD PUSH2 0x188 JUMP JUMPDEST PUSH2 0x1CF PUSH2 0x1CA CALLDATASIZE PUSH1 0x4 PUSH2 0xB76 JUMP JUMPDEST PUSH2 0x512 JUMP JUMPDEST PUSH1 0x40 MLOAD SWAP1 ISZERO ISZERO DUP2 MSTORE PUSH1 0x20 ADD PUSH2 0x188 JUMP JUMPDEST PUSH2 0x1E7 PUSH2 0x582 JUMP JUMPDEST PUSH1 0x40 DUP1 MLOAD SWAP5 DUP6 MSTORE PUSH1 0x20 DUP6 ADD SWAP4 SWAP1 SWAP4 MSTORE SWAP2 DUP4 ADD MSTORE PUSH1 0x60 DUP3 ADD MSTORE PUSH1 0x80 ADD PUSH2 0x188 JUMP JUMPDEST PUSH2 0x12E PUSH2 0x215 CALLDATASIZE PUSH1 0x4 PUSH2 0xBA0 JUMP JUMPDEST PUSH2 0x67A JUMP JUMPDEST PUSH2 0x222 PUSH2 0x7D4 JUMP JUMPDEST PUSH1 0x40 DUP1 MLOAD SWAP3 DUP4 MSTORE PUSH1 0x20 DUP4 ADD SWAP2 SWAP1 SWAP2 MSTORE ADD PUSH2 0x188 JUMP JUMPDEST PUSH2 0x12E PUSH2 0x7F6 JUMP JUMPDEST PUSH1 0x0 SLOAD PUSH1 0x1 PUSH1 0x1 PUSH1 0xA0 SHL SUB AND PUSH2 0x1A4 JUMP JUMPDEST PUSH1 0x2 SLOAD PUSH2 0x1A4 SWAP1 PUSH1 0x1 PUSH1 0x1 PUSH1 0xA0 SHL SUB AND DUP2 JUMP JUMPDEST PUSH1 0x3 SLOAD PUSH2 0x1A4 SWAP1 PUSH1 0x1 PUSH1 0x1 PUSH1 0xA0 SHL SUB AND DUP2 JUMP JUMPDEST PUSH2 0x222 PUSH2 0x284 CALLDATASIZE PUSH1 0x4 PUSH2 0xB54 JUMP JUMPDEST PUSH2 0x80A JUMP JUMPDEST PUSH2 0x222 PUSH2 0x853 JUMP JUMPDEST PUSH2 0x12E PUSH2 0x29F CALLDATASIZE PUSH1 0x4 PUSH2 0xB76 JUMP JUMPDEST PUSH2 0x86D JUMP JUMPDEST PUSH2 0x222 PUSH2 0x9CF JUMP JUMPDEST PUSH1 0x2 SLOAD PUSH1 0x3 SLOAD PUSH1 0x4 SLOAD PUSH1 0x40 DUP1 MLOAD PUSH1 0x1 PUSH1 0x1 PUSH1 0xA0 SHL SUB SWAP5 DUP6 AND DUP2 MSTORE SWAP3 DUP5 AND PUSH1 0x20 DUP5 ADD MSTORE SWAP3 AND SWAP2 DUP2 ADD SWAP2 SWAP1 SWAP2 MSTORE PUSH1 0x60 ADD PUSH2 0x188 JUMP JUMPDEST PUSH2 0x2E7 PUSH1 0x8 DUP2 JUMP JUMPDEST PUSH1 0x40 MLOAD SWAP1 DUP2 MSTORE PUSH1 0x20 ADD PUSH2 0x188 JUMP JUMPDEST PUSH2 0x12E PUSH2 0x303 CALLDATASIZE PUSH1 0x4 PUSH2 0xB54 JUMP JUMPDEST PUSH2 0x9E9 JUMP JUMPDEST PUSH2 0x310 PUSH2 0xA62 JUMP JUMPDEST PUSH1 0x0 DUP4 GT DUP1 ISZERO PUSH2 0x320 JUMPI POP PUSH1 0x0 DUP3 GT JUMPDEST DUP1 ISZERO PUSH2 0x32C JUMPI POP PUSH1 0x0 DUP2 GT JUMPDEST PUSH2 0x37D JUMPI PUSH1 0x40 MLOAD PUSH3 0x461BCD PUSH1 0xE5 SHL DUP2 MSTORE PUSH1 0x20 PUSH1 0x4 DUP3 ADD MSTORE PUSH1 0x1D PUSH1 0x24 DUP3 ADD MSTORE PUSH32 0x507269636573206D7573742062652067726561746572207468616E2030000000 PUSH1 0x44 DUP3 ADD MSTORE PUSH1 0x64 ADD JUMPDEST PUSH1 0x40 MLOAD DUP1 SWAP2 SUB SWAP1 REVERT JUMPDEST PUSH1 0x40 DUP1 MLOAD PUSH1 0x60 DUP1 DUP3 ADD DUP4 MSTORE DUP6 DUP3 MSTORE TIMESTAMP PUSH1 0x20 DUP1 DUP5 ADD DUP3 DUP2 MSTORE CALLER DUP6 DUP8 ADD DUP2 DUP2 MSTORE PUSH1 0x2 DUP1 SLOAD PUSH1 0x1 PUSH1 0x1 PUSH1 0xA0 SHL SUB SWAP1 DUP2 AND PUSH1 0x0 SWAP1 DUP2 MSTORE PUSH1 0x5 DUP1 DUP9 MSTORE DUP12 DUP3 KECCAK256 SWAP11 MLOAD DUP12 SSTORE SWAP6 MLOAD PUSH1 0x1 DUP1 DUP13 ADD SWAP2 SWAP1 SWAP2 SSTORE SWAP4 MLOAD SWAP10 DUP4 ADD DUP1 SLOAD SWAP11 DUP4 AND PUSH1 0x1 PUSH1 0x1 PUSH1 0xA0 SHL SUB NOT SWAP12 DUP13 AND OR SWAP1 SSTORE DUP11 MLOAD DUP1 DUP11 ADD DUP13 MSTORE DUP14 DUP2 MSTORE DUP1 DUP9 ADD DUP10 DUP2 MSTORE DUP2 DUP14 ADD DUP8 DUP2 MSTORE PUSH1 0x3 SLOAD DUP6 AND DUP5 MSTORE DUP9 DUP11 MSTORE DUP14 DUP5 KECCAK256 SWAP3 MLOAD DUP4 SSTORE SWAP1 MLOAD DUP3 DUP8 ADD SSTORE MLOAD SWAP1 DUP5 ADD DUP1 SLOAD SWAP2 DUP5 AND SWAP2 DUP13 AND SWAP2 SWAP1 SWAP2 OR SWAP1 SSTORE DUP11 MLOAD DUP1 DUP11 ADD DUP13 MSTORE DUP13 DUP2 MSTORE DUP1 DUP9 ADD DUP10 DUP2 MSTORE DUP2 DUP14 ADD DUP8 DUP2 MSTORE PUSH1 0x4 SLOAD DUP6 AND DUP5 MSTORE SWAP8 DUP10 MSTORE SWAP2 DUP13 SWAP1 KECCAK256 SWAP1 MLOAD DUP2 SSTORE SWAP1 MLOAD SWAP4 DUP2 ADD SWAP4 SWAP1 SWAP4 SSTORE SWAP4 MLOAD SWAP2 DUP2 ADD DUP1 SLOAD SWAP3 DUP6 AND SWAP3 SWAP1 SWAP9 AND SWAP2 SWAP1 SWAP2 OR SWAP1 SWAP7 SSTORE SWAP5 SLOAD DUP7 MLOAD DUP11 DUP2 MSTORE SWAP3 DUP4 ADD SWAP6 SWAP1 SWAP6 MSTORE SWAP5 DUP2 ADD SWAP2 SWAP1 SWAP2 MSTORE SWAP2 SWAP1 SWAP3 AND SWAP2 PUSH1 0x0 DUP1 MLOAD PUSH1 0x20 PUSH2 0xC05 DUP4 CODECOPY DUP2 MLOAD SWAP2 MSTORE SWAP2 ADD PUSH1 0x40 MLOAD DUP1 SWAP2 SUB SWAP1 LOG2 PUSH1 0x3 SLOAD PUSH1 0x40 DUP1 MLOAD DUP5 DUP2 MSTORE CALLER PUSH1 0x20 DUP3 ADD MSTORE TIMESTAMP DUP2 DUP4 ADD MSTORE SWAP1 MLOAD PUSH1 0x1 PUSH1 0x1 PUSH1 0xA0 SHL SUB SWAP1 SWAP3 AND SWAP2 PUSH1 0x0 DUP1 MLOAD PUSH1 0x20 PUSH2 0xC05 DUP4 CODECOPY DUP2 MLOAD SWAP2 MSTORE SWAP2 DUP2 SWAP1 SUB PUSH1 0x60 ADD SWAP1 LOG2 PUSH1 0x4 SLOAD PUSH1 0x40 DUP1 MLOAD DUP4 DUP2 MSTORE CALLER PUSH1 0x20 DUP3 ADD MSTORE TIMESTAMP DUP2 DUP4 ADD MSTORE SWAP1 MLOAD PUSH1 0x1 PUSH1 0x1 PUSH1 0xA0 SHL SUB SWAP1 SWAP3 AND SWAP2 PUSH1 0x0 DUP1 MLOAD PUSH1 0x20 PUSH2 0xC05 DUP4 CODECOPY DUP2 MLOAD SWAP2 MSTORE SWAP2 DUP2 SWAP1 SUB PUSH1 0x60 ADD SWAP1 LOG2 POP POP POP JUMP JUMPDEST PUSH1 0x1 PUSH1 0x1 PUSH1 0xA0 SHL SUB DUP1 DUP4 AND PUSH1 0x0 SWAP1 DUP2 MSTORE PUSH1 0x5 PUSH1 0x20 SWAP1 DUP2 MSTORE PUSH1 0x40 DUP1 DUP4 KECCAK256 DUP2 MLOAD PUSH1 0x60 DUP2 ADD DUP4 MSTORE DUP2 SLOAD DUP2 MSTORE PUSH1 0x1 DUP3 ADD SLOAD SWAP4 DUP2 ADD DUP5 SWAP1 MSTORE PUSH1 0x2 SWAP1 SWAP2 ADD SLOAD SWAP1 SWAP5 AND SWAP1 DUP5 ADD MSTORE SWAP1 SWAP2 SWAP1 DUP3 SUB PUSH2 0x565 JUMPI PUSH1 0x0 SWAP2 POP POP PUSH2 0x57C JUMP JUMPDEST DUP3 DUP2 PUSH1 0x20 ADD MLOAD TIMESTAMP PUSH2 0x576 SWAP2 SWAP1 PUSH2 0xBE3 JUMP JUMPDEST GT ISZERO SWAP2 POP POP JUMPDEST SWAP3 SWAP2 POP POP JUMP JUMPDEST PUSH1 0x2 DUP1 SLOAD PUSH1 0x1 PUSH1 0x1 PUSH1 0xA0 SHL SUB SWAP1 DUP2 AND PUSH1 0x0 SWAP1 DUP2 MSTORE PUSH1 0x5 PUSH1 0x20 DUP2 DUP2 MSTORE PUSH1 0x40 DUP1 DUP5 KECCAK256 DUP2 MLOAD PUSH1 0x60 DUP1 DUP3 ADD DUP5 MSTORE DUP3 SLOAD DUP3 MSTORE PUSH1 0x1 DUP4 DUP2 ADD SLOAD DUP4 DUP8 ADD SWAP1 DUP2 MSTORE SWAP4 DUP11 ADD SLOAD DUP10 AND DUP4 DUP7 ADD MSTORE PUSH1 0x3 SLOAD DUP10 AND DUP9 MSTORE DUP7 DUP7 MSTORE DUP5 DUP9 KECCAK256 DUP6 MLOAD DUP1 DUP5 ADD DUP8 MSTORE DUP2 SLOAD DUP2 MSTORE DUP2 DUP4 ADD SLOAD DUP2 DUP10 ADD SWAP1 DUP2 MSTORE SWAP2 DUP13 ADD SLOAD DUP12 AND DUP2 DUP9 ADD MSTORE PUSH1 0x4 SLOAD DUP12 AND DUP11 MSTORE SWAP8 DUP8 MSTORE DUP6 DUP10 KECCAK256 DUP7 MLOAD SWAP4 DUP5 ADD DUP8 MSTORE DUP1 SLOAD DUP5 MSTORE SWAP2 DUP3 ADD SLOAD SWAP7 DUP4 ADD SWAP7 SWAP1 SWAP7 MSTORE SWAP1 SWAP9 ADD SLOAD SWAP1 SWAP7 AND SWAP2 DUP8 ADD SWAP2 SWAP1 SWAP2 MSTORE SWAP1 MLOAD SWAP1 MLOAD SWAP3 SWAP5 DUP6 SWAP5 DUP6 SWAP5 DUP6 SWAP5 SWAP2 SWAP4 SWAP2 SWAP3 SWAP2 DUP6 SWAP2 GT PUSH2 0x644 JUMPI DUP3 PUSH1 0x20 ADD MLOAD PUSH2 0x64A JUMP JUMPDEST DUP4 PUSH1 0x20 ADD MLOAD JUMPDEST SWAP1 POP DUP1 DUP3 PUSH1 0x20 ADD MLOAD GT PUSH2 0x65D JUMPI DUP1 PUSH2 0x663 JUMP JUMPDEST DUP2 PUSH1 0x20 ADD MLOAD JUMPDEST SWAP4 MLOAD SWAP3 MLOAD SWAP2 MLOAD SWAP3 SWAP9 SWAP2 SWAP8 POP SWAP2 SWAP6 POP SWAP2 SWAP4 POP SWAP1 SWAP2 POP POP JUMP JUMPDEST PUSH2 0x682 PUSH2 0xA62 JUMP JUMPDEST PUSH1 0x2 SLOAD PUSH1 0x1 PUSH1 0x1 PUSH1 0xA0 SHL SUB AND ISZERO PUSH2 0x6D0 JUMPI PUSH1 0x40 MLOAD PUSH3 0x461BCD PUSH1 0xE5 SHL DUP2 MSTORE PUSH1 0x20 PUSH1 0x4 DUP3 ADD MSTORE PUSH1 0x12 PUSH1 0x24 DUP3 ADD MSTORE PUSH18 0x151BDAD95B9CC8185B1C9958591E481CD95D PUSH1 0x72 SHL PUSH1 0x44 DUP3 ADD MSTORE PUSH1 0x64 ADD PUSH2 0x374 JUMP JUMPDEST PUSH1 0x1 PUSH1 0x1 PUSH1 0xA0 SHL SUB DUP4 AND ISZERO DUP1 ISZERO SWAP1 PUSH2 0x6F0 JUMPI POP PUSH1 0x1 PUSH1 0x1 PUSH1 0xA0 SHL SUB DUP3 AND ISZERO ISZERO JUMPDEST DUP1 ISZERO PUSH2 0x704 JUMPI POP PUSH1 0x1 PUSH1 0x1 PUSH1 0xA0 SHL SUB DUP2 AND ISZERO ISZERO JUMPDEST PUSH2 0x750 JUMPI PUSH1 0x40 MLOAD PUSH3 0x461BCD PUSH1 0xE5 SHL DUP2 MSTORE PUSH1 0x20 PUSH1 0x4 DUP3 ADD MSTORE PUSH1 0x17 PUSH1 0x24 DUP3 ADD MSTORE PUSH32 0x496E76616C696420746F6B656E20616464726573736573000000000000000000 PUSH1 0x44 DUP3 ADD MSTORE PUSH1 0x64 ADD PUSH2 0x374 JUMP JUMPDEST PUSH1 0x2 DUP1 SLOAD PUSH1 0x1 PUSH1 0x1 PUSH1 0xA0 SHL SUB DUP6 DUP2 AND PUSH1 0x1 PUSH1 0x1 PUSH1 0xA0 SHL SUB NOT SWAP3 DUP4 AND DUP2 OR SWAP1 SWAP4 SSTORE PUSH1 0x3 DUP1 SLOAD DUP7 DUP4 AND SWAP1 DUP5 AND DUP2 OR SWAP1 SWAP2 SSTORE PUSH1 0x4 DUP1 SLOAD SWAP3 DUP7 AND SWAP3 SWAP1 SWAP4 AND DUP3 OR SWAP1 SWAP3 SSTORE PUSH1 0x40 DUP1 MLOAD SWAP4 DUP5 MSTORE PUSH1 0x20 DUP5 ADD SWAP3 SWAP1 SWAP3 MSTORE SWAP1 DUP3 ADD MSTORE PUSH32 0x5B298D21A3F20895E495BF3DCB889649B4381249A094782F2C49E9F5D015B9C5 SWAP1 PUSH1 0x60 ADD PUSH1 0x40 MLOAD DUP1 SWAP2 SUB SWAP1 LOG1 POP POP POP JUMP JUMPDEST PUSH1 0x3 SLOAD PUSH1 0x0 SWAP1 DUP2 SWAP1 PUSH2 0x7EE SWAP1 PUSH1 0x1 PUSH1 0x1 PUSH1 0xA0 SHL SUB AND PUSH2 0x80A JUMP JUMPDEST SWAP2 POP SWAP2 POP SWAP1 SWAP2 JUMP JUMPDEST PUSH2 0x7FE PUSH2 0xA62 JUMP JUMPDEST PUSH2 0x808 PUSH1 0x0 PUSH2 0xABC JUMP JUMPDEST JUMP JUMPDEST PUSH1 0x1 PUSH1 0x1 PUSH1 0xA0 SHL SUB SWAP1 DUP2 AND PUSH1 0x0 SWAP1 DUP2 MSTORE PUSH1 0x5 PUSH1 0x20 SWAP1 DUP2 MSTORE PUSH1 0x40 SWAP2 DUP3 SWAP1 KECCAK256 DUP3 MLOAD PUSH1 0x60 DUP2 ADD DUP5 MSTORE DUP2 SLOAD DUP1 DUP3 MSTORE PUSH1 0x1 DUP4 ADD SLOAD SWAP4 DUP3 ADD DUP5 SWAP1 MSTORE PUSH1 0x2 SWAP1 SWAP3 ADD SLOAD SWAP1 SWAP5 AND SWAP4 SWAP1 SWAP3 ADD SWAP3 SWAP1 SWAP3 MSTORE SWAP2 JUMP JUMPDEST PUSH1 0x4 SLOAD PUSH1 0x0 SWAP1 DUP2 SWAP1 PUSH2 0x7EE SWAP1 PUSH1 0x1 PUSH1 0x1 PUSH1 0xA0 SHL SUB AND PUSH2 0x80A JUMP JUMPDEST PUSH2 0x875 PUSH2 0xA62 JUMP JUMPDEST PUSH1 0x2 SLOAD PUSH1 0x1 PUSH1 0x1 PUSH1 0xA0 SHL SUB DUP4 DUP2 AND SWAP2 AND EQ DUP1 PUSH2 0x89E JUMPI POP PUSH1 0x3 SLOAD PUSH1 0x1 PUSH1 0x1 PUSH1 0xA0 SHL SUB DUP4 DUP2 AND SWAP2 AND EQ JUMPDEST DUP1 PUSH2 0x8B6 JUMPI POP PUSH1 0x4 SLOAD PUSH1 0x1 PUSH1 0x1 PUSH1 0xA0 SHL SUB DUP4 DUP2 AND SWAP2 AND EQ JUMPDEST PUSH2 0x8F2 JUMPI PUSH1 0x40 MLOAD PUSH3 0x461BCD PUSH1 0xE5 SHL DUP2 MSTORE PUSH1 0x20 PUSH1 0x4 DUP3 ADD MSTORE PUSH1 0xD PUSH1 0x24 DUP3 ADD MSTORE PUSH13 0x24B73B30B634B2103A37B5B2B7 PUSH1 0x99 SHL PUSH1 0x44 DUP3 ADD MSTORE PUSH1 0x64 ADD PUSH2 0x374 JUMP JUMPDEST PUSH1 0x0 DUP2 GT PUSH2 0x942 JUMPI PUSH1 0x40 MLOAD PUSH3 0x461BCD PUSH1 0xE5 SHL DUP2 MSTORE PUSH1 0x20 PUSH1 0x4 DUP3 ADD MSTORE PUSH1 0x1C PUSH1 0x24 DUP3 ADD MSTORE PUSH32 0x5072696365206D7573742062652067726561746572207468616E203000000000 PUSH1 0x44 DUP3 ADD MSTORE PUSH1 0x64 ADD PUSH2 0x374 JUMP JUMPDEST PUSH1 0x40 DUP1 MLOAD PUSH1 0x60 DUP1 DUP3 ADD DUP4 MSTORE DUP4 DUP3 MSTORE TIMESTAMP PUSH1 0x20 DUP1 DUP5 ADD DUP3 DUP2 MSTORE CALLER DUP6 DUP8 ADD DUP2 DUP2 MSTORE PUSH1 0x1 PUSH1 0x1 PUSH1 0xA0 SHL SUB DUP11 DUP2 AND PUSH1 0x0 DUP2 DUP2 MSTORE PUSH1 0x5 DUP8 MSTORE DUP11 SWAP1 KECCAK256 SWAP9 MLOAD DUP10 SSTORE SWAP4 MLOAD PUSH1 0x1 DUP10 ADD SSTORE SWAP1 MLOAD PUSH1 0x2 SWAP1 SWAP8 ADD DUP1 SLOAD PUSH1 0x1 PUSH1 0x1 PUSH1 0xA0 SHL SUB NOT AND SWAP8 SWAP1 SWAP2 AND SWAP7 SWAP1 SWAP7 OR SWAP1 SWAP6 SSTORE DUP6 MLOAD DUP8 DUP2 MSTORE SWAP2 DUP3 ADD SWAP5 SWAP1 SWAP5 MSTORE SWAP4 DUP5 ADD MSTORE SWAP1 SWAP2 PUSH1 0x0 DUP1 MLOAD PUSH1 0x20 PUSH2 0xC05 DUP4 CODECOPY DUP2 MLOAD SWAP2 MSTORE SWAP2 ADD PUSH1 0x40 MLOAD DUP1 SWAP2 SUB SWAP1 LOG2 POP POP JUMP JUMPDEST PUSH1 0x2 SLOAD PUSH1 0x0 SWAP1 DUP2 SWAP1 PUSH2 0x7EE SWAP1 PUSH1 0x1 PUSH1 0x1 PUSH1 0xA0 SHL SUB AND PUSH2 0x80A JUMP JUMPDEST PUSH2 0x9F1 PUSH2 0xA62 JUMP JUMPDEST PUSH1 0x1 PUSH1 0x1 PUSH1 0xA0 SHL SUB DUP2 AND PUSH2 0xA56 JUMPI PUSH1 0x40 MLOAD PUSH3 0x461BCD PUSH1 0xE5 SHL DUP2 MSTORE PUSH1 0x20 PUSH1 0x4 DUP3 ADD MSTORE PUSH1 0x26 PUSH1 0x24 DUP3 ADD MSTORE PUSH32 0x4F776E61626C653A206E6577206F776E657220697320746865207A65726F2061 PUSH1 0x44 DUP3 ADD MSTORE PUSH6 0x646472657373 PUSH1 0xD0 SHL PUSH1 0x64 DUP3 ADD MSTORE PUSH1 0x84 ADD PUSH2 0x374 JUMP JUMPDEST PUSH2 0xA5F DUP2 PUSH2 0xABC JUMP JUMPDEST POP JUMP JUMPDEST PUSH1 0x0 SLOAD PUSH1 0x1 PUSH1 0x1 PUSH1 0xA0 SHL SUB AND CALLER EQ PUSH2 0x808 JUMPI PUSH1 0x40 MLOAD PUSH3 0x461BCD PUSH1 0xE5 SHL DUP2 MSTORE PUSH1 0x20 PUSH1 0x4 DUP3 ADD DUP2 SWAP1 MSTORE PUSH1 0x24 DUP3 ADD MSTORE PUSH32 0x4F776E61626C653A2063616C6C6572206973206E6F7420746865206F776E6572 PUSH1 0x44 DUP3 ADD MSTORE PUSH1 0x64 ADD PUSH2 0x374 JUMP JUMPDEST PUSH1 0x0 DUP1 SLOAD PUSH1 0x1 PUSH1 0x1 PUSH1 0xA0 SHL SUB DUP4 DUP2 AND PUSH1 0x1 PUSH1 0x1 PUSH1 0xA0 SHL SUB NOT DUP4 AND DUP2 OR DUP5 SSTORE PUSH1 0x40 MLOAD SWAP2 SWAP1 SWAP3 AND SWAP3 DUP4 SWAP2 PUSH32 0x8BE0079C531659141344CD1FD0A4F28419497F9722A3DAAFE3B4186F6B6457E0 SWAP2 SWAP1 LOG3 POP POP JUMP JUMPDEST PUSH1 0x0 DUP1 PUSH1 0x0 PUSH1 0x60 DUP5 DUP7 SUB SLT ISZERO PUSH2 0xB21 JUMPI PUSH1 0x0 DUP1 REVERT JUMPDEST POP POP DUP2 CALLDATALOAD SWAP4 PUSH1 0x20 DUP4 ADD CALLDATALOAD SWAP4 POP PUSH1 0x40 SWAP1 SWAP3 ADD CALLDATALOAD SWAP2 SWAP1 POP JUMP JUMPDEST DUP1 CALLDATALOAD PUSH1 0x1 PUSH1 0x1 PUSH1 0xA0 SHL SUB DUP2 AND DUP2 EQ PUSH2 0xB4F JUMPI PUSH1 0x0 DUP1 REVERT JUMPDEST SWAP2 SWAP1 POP JUMP JUMPDEST PUSH1 0x0 PUSH1 0x20 DUP3 DUP5 SUB SLT ISZERO PUSH2 0xB66 JUMPI PUSH1 0x0 DUP1 REVERT JUMPDEST PUSH2 0xB6F DUP3 PUSH2 0xB38 JUMP JUMPDEST SWAP4 SWAP3 POP POP POP JUMP JUMPDEST PUSH1 0x0 DUP1 PUSH1 0x40 DUP4 DUP6 SUB SLT ISZERO PUSH2 0xB89 JUMPI PUSH1 0x0 DUP1 REVERT JUMPDEST PUSH2 0xB92 DUP4 PUSH2 0xB38 JUMP JUMPDEST SWAP5 PUSH1 0x20 SWAP4 SWAP1 SWAP4 ADD CALLDATALOAD SWAP4 POP POP POP JUMP JUMPDEST PUSH1 0x0 DUP1 PUSH1 0x0 PUSH1 0x60 DUP5 DUP7 SUB SLT ISZERO PUSH2 0xBB5 JUMPI PUSH1 0x0 DUP1 REVERT JUMPDEST PUSH2 0xBBE DUP5 PUSH2 0xB38 JUMP JUMPDEST SWAP3 POP PUSH2 0xBCC PUSH1 0x20 DUP6 ADD PUSH2 0xB38 JUMP JUMPDEST SWAP2 POP PUSH2 0xBDA PUSH1 0x40 DUP6 ADD PUSH2 0xB38 JUMP JUMPDEST SWAP1 POP SWAP3 POP SWAP3 POP SWAP3 JUMP JUMPDEST DUP2 DUP2 SUB DUP2 DUP2 GT ISZERO PUSH2 0x57C JUMPI PUSH4 0x4E487B71 PUSH1 0xE0 SHL PUSH1 0x0 MSTORE PUSH1 0x11 PUSH1 0x4 MSTORE PUSH1 0x24 PUSH1 0x0 REVERT INVALID 0xC7 SHR 0x2E OR DUP14 SLOAD RETURN LOG4 PUSH8 0x42671FCBBDBBADE6 SWAP8 0xD8 CREATE2 0xA8 PUSH5 0x7B18268E50 DUP8 SWAP2 DUP13 CALLDATACOPY TSTORE LOG2 PUSH5 0x6970667358 0x22 SLT KECCAK256 TLOAD 0xB7 PUSH9 0x9BE082119862B2887A EXTCODESIZE ADDMOD SWAP7 0x4F CALLDATACOPY PUSH17 0x7B5BB3EB05AE98F4375273B4780B64736F PUSH13 0x634300081C0033000000000000 "},"methodIdentifiers":{"PRICE_DECIMALS()":"f1a640f8","getAllPrices()":"445df9d6","getGoldPrice()":"da6bae10","getRarePrice()":"d3210403","getSilverPrice()":"4e279b79","getTokenAddresses()":"ee8c24b8","getTokenPrice(address)":"d02641a0","goldToken()":"94002b57","isPriceRecent(address,uint256)":"40947df1","owner()":"8da5cb5b","rareToken()":"38c21d1b","renounceOwnership()":"715018a6","setTokenAddresses(address,address,address)":"4d3f9d3e","silverToken()":"c34fe1dd","tokenPrices(address)":"204120bc","transferOwnership(address)":"f2fde38b","updateAllPrices(uint256,uint256,uint256)":"0bc16abe","updateTokenPrice(address,uint256)":"d4ee651b"}}}}}