{"contracts/XNR/XNR.sol":{"Xenara":{"abi":[{"inputs":[{"internalType":"string","name":"name_","type":"string"},{"internalType":"string","name":"symbol_","type":"string"},{"internalType":"address","name":"publicAddr_","type":"address"},{"internalType":"address","name":"creatorPoolAddr_","type":"address"},{"internalType":"address","name":"reserveAddr_","type":"address"},{"internalType":"address","name":"communityDAOAddr_","type":"address"},{"internalType":"address","name":"royaltyManagerAddr_","type":"address"},{"internalType":"address","name":"governanceMultisig_","type":"address"}],"stateMutability":"nonpayable","type":"constructor"},{"inputs":[],"name":"AssetNotRegistered","type":"error"},{"inputs":[],"name":"BackingAssetProtected","type":"error"},{"inputs":[],"name":"DuplicateAddress","type":"error"},{"inputs":[],"name":"ExceedsMaxSupply","type":"error"},{"inputs":[],"name":"InsufficientBacking","type":"error"},{"inputs":[],"name":"InsufficientBalance","type":"error"},{"inputs":[],"name":"InvalidAsset","type":"error"},{"inputs":[],"name":"InvalidDistribution","type":"error"},{"inputs":[],"name":"InvalidPercentage","type":"error"},{"inputs":[],"name":"InvalidPrice","type":"error"},{"inputs":[],"name":"InvalidRecipient","type":"error"},{"inputs":[],"name":"InvalidShortString","type":"error"},{"inputs":[{"internalType":"string","name":"str","type":"string"}],"name":"StringTooLong","type":"error"},{"inputs":[],"name":"Unauthorized","type":"error"},{"inputs":[],"name":"ZeroAddress","type":"error"},{"inputs":[],"name":"ZeroAmount","type":"error"},{"anonymous":false,"inputs":[{"indexed":true,"internalType":"string","name":"addressType","type":"string"},{"indexed":false,"internalType":"address","name":"newAddress","type":"address"}],"name":"AddressUpdated","type":"event"},{"anonymous":false,"inputs":[{"indexed":true,"internalType":"address","name":"owner","type":"address"},{"indexed":true,"internalType":"address","name":"spender","type":"address"},{"indexed":false,"internalType":"uint256","name":"value","type":"uint256"}],"name":"Approval","type":"event"},{"anonymous":false,"inputs":[{"indexed":true,"internalType":"enum Xenara.BackingAsset","name":"asset","type":"uint8"},{"indexed":false,"internalType":"uint256","name":"priceUSD","type":"uint256"}],"name":"AssetPriceUpdated","type":"event"},{"anonymous":false,"inputs":[{"indexed":true,"internalType":"enum Xenara.BackingAsset","name":"asset","type":"uint8"},{"indexed":true,"internalType":"address","name":"from","type":"address"},{"indexed":false,"internalType":"uint256","name":"amount","type":"uint256"}],"name":"BackingDeposited","type":"event"},{"anonymous":false,"inputs":[{"indexed":true,"internalType":"enum Xenara.BackingAsset","name":"asset","type":"uint8"},{"indexed":false,"internalType":"uint256","name":"deposited","type":"uint256"},{"indexed":false,"internalType":"uint256","name":"withdrawn","type":"uint256"}],"name":"BackingRebalanced","type":"event"},{"anonymous":false,"inputs":[{"indexed":true,"internalType":"enum Xenara.BackingAsset","name":"asset","type":"uint8"},{"indexed":false,"internalType":"address","name":"token","type":"address"}],"name":"BackingTokenRegistered","type":"event"},{"anonymous":false,"inputs":[{"indexed":true,"internalType":"enum Xenara.BackingAsset","name":"asset","type":"uint8"}],"name":"BackingTokenUnregistered","type":"event"},{"anonymous":false,"inputs":[{"indexed":true,"internalType":"enum Xenara.BackingAsset","name":"asset","type":"uint8"},{"indexed":true,"internalType":"address","name":"to","type":"address"},{"indexed":false,"internalType":"uint256","name":"amount","type":"uint256"}],"name":"BackingWithdrawn","type":"event"},{"anonymous":false,"inputs":[{"indexed":true,"internalType":"address","name":"delegator","type":"address"},{"indexed":true,"internalType":"address","name":"fromDelegate","type":"address"},{"indexed":true,"internalType":"address","name":"toDelegate","type":"address"}],"name":"DelegateChanged","type":"event"},{"anonymous":false,"inputs":[{"indexed":true,"internalType":"address","name":"delegate","type":"address"},{"indexed":false,"internalType":"uint256","name":"previousBalance","type":"uint256"},{"indexed":false,"internalType":"uint256","name":"newBalance","type":"uint256"}],"name":"DelegateVotesChanged","type":"event"},{"anonymous":false,"inputs":[],"name":"EIP712DomainChanged","type":"event"},{"anonymous":false,"inputs":[{"indexed":false,"internalType":"address","name":"account","type":"address"}],"name":"Paused","type":"event"},{"anonymous":false,"inputs":[{"indexed":true,"internalType":"bytes32","name":"role","type":"bytes32"},{"indexed":true,"internalType":"bytes32","name":"previousAdminRole","type":"bytes32"},{"indexed":true,"internalType":"bytes32","name":"newAdminRole","type":"bytes32"}],"name":"RoleAdminChanged","type":"event"},{"anonymous":false,"inputs":[{"indexed":true,"internalType":"bytes32","name":"role","type":"bytes32"},{"indexed":true,"internalType":"address","name":"account","type":"address"},{"indexed":true,"internalType":"address","name":"sender","type":"address"}],"name":"RoleGranted","type":"event"},{"anonymous":false,"inputs":[{"indexed":true,"internalType":"bytes32","name":"role","type":"bytes32"},{"indexed":true,"internalType":"address","name":"account","type":"address"},{"indexed":true,"internalType":"address","name":"sender","type":"address"}],"name":"RoleRevoked","type":"event"},{"anonymous":false,"inputs":[{"indexed":true,"internalType":"address","name":"to","type":"address"},{"indexed":false,"internalType":"uint256","name":"amount","type":"uint256"},{"indexed":false,"internalType":"string","name":"description","type":"string"}],"name":"RoyaltyDistributed","type":"event"},{"anonymous":false,"inputs":[{"indexed":true,"internalType":"address","name":"from","type":"address"},{"indexed":false,"internalType":"uint256","name":"amount","type":"uint256"},{"indexed":false,"internalType":"string","name":"reason","type":"string"}],"name":"TokensBurned","type":"event"},{"anonymous":false,"inputs":[{"indexed":true,"internalType":"address","name":"to","type":"address"},{"indexed":false,"internalType":"uint256","name":"amount","type":"uint256"},{"indexed":false,"internalType":"string","name":"reason","type":"string"}],"name":"TokensMinted","type":"event"},{"anonymous":false,"inputs":[{"indexed":true,"internalType":"address","name":"from","type":"address"},{"indexed":true,"internalType":"address","name":"to","type":"address"},{"indexed":false,"internalType":"uint256","name":"value","type":"uint256"}],"name":"Transfer","type":"event"},{"anonymous":false,"inputs":[{"indexed":false,"internalType":"address","name":"account","type":"address"}],"name":"Unpaused","type":"event"},{"inputs":[],"name":"BACKING_MANAGER_ROLE","outputs":[{"internalType":"bytes32","name":"","type":"bytes32"}],"stateMutability":"view","type":"function"},{"inputs":[],"name":"BURNER_ROLE","outputs":[{"internalType":"bytes32","name":"","type":"bytes32"}],"stateMutability":"view","type":"function"},{"inputs":[],"name":"CLOCK_MODE","outputs":[{"internalType":"string","name":"","type":"string"}],"stateMutability":"view","type":"function"},{"inputs":[],"name":"COMMUNITY_DAO_PERCENTAGE","outputs":[{"internalType":"uint256","name":"","type":"uint256"}],"stateMutability":"view","type":"function"},{"inputs":[],"name":"CREATOR_POOL_PERCENTAGE","outputs":[{"internalType":"uint256","name":"","type":"uint256"}],"stateMutability":"view","type":"function"},{"inputs":[],"name":"DEFAULT_ADMIN_ROLE","outputs":[{"internalType":"bytes32","name":"","type":"bytes32"}],"stateMutability":"view","type":"function"},{"inputs":[],"name":"DOMAIN_SEPARATOR","outputs":[{"internalType":"bytes32","name":"","type":"bytes32"}],"stateMutability":"view","type":"function"},{"inputs":[],"name":"GOLD_BACKING_PERCENTAGE","outputs":[{"internalType":"uint256","name":"","type":"uint256"}],"stateMutability":"view","type":"function"},{"inputs":[],"name":"GOVERNANCE_ROLE","outputs":[{"internalType":"bytes32","name":"","type":"bytes32"}],"stateMutability":"view","type":"function"},{"inputs":[],"name":"INITIAL_SUPPLY","outputs":[{"internalType":"uint256","name":"","type":"uint256"}],"stateMutability":"view","type":"function"},{"inputs":[],"name":"MAX_ASSET_PRICE","outputs":[{"internalType":"uint256","name":"","type":"uint256"}],"stateMutability":"view","type":"function"},{"inputs":[],"name":"MAX_SUPPLY","outputs":[{"internalType":"uint256","name":"","type":"uint256"}],"stateMutability":"view","type":"function"},{"inputs":[],"name":"MINTER_ROLE","outputs":[{"internalType":"bytes32","name":"","type":"bytes32"}],"stateMutability":"view","type":"function"},{"inputs":[],"name":"PAUSER_ROLE","outputs":[{"internalType":"bytes32","name":"","type":"bytes32"}],"stateMutability":"view","type":"function"},{"inputs":[],"name":"PRECIOUS_STONES_BACKING_PERCENTAGE","outputs":[{"internalType":"uint256","name":"","type":"uint256"}],"stateMutability":"view","type":"function"},{"inputs":[],"name":"PUBLIC_PERCENTAGE","outputs":[{"internalType":"uint256","name":"","type":"uint256"}],"stateMutability":"view","type":"function"},{"inputs":[],"name":"RECOVERY_ROLE","outputs":[{"internalType":"bytes32","name":"","type":"bytes32"}],"stateMutability":"view","type":"function"},{"inputs":[],"name":"RESERVE_PERCENTAGE","outputs":[{"internalType":"uint256","name":"","type":"uint256"}],"stateMutability":"view","type":"function"},{"inputs":[],"name":"ROYALTY_MANAGER_ROLE","outputs":[{"internalType":"bytes32","name":"","type":"bytes32"}],"stateMutability":"view","type":"function"},{"inputs":[],"name":"ROYALTY_RECIPIENT_ROLE","outputs":[{"internalType":"bytes32","name":"","type":"bytes32"}],"stateMutability":"view","type":"function"},{"inputs":[],"name":"SILVER_BACKING_PERCENTAGE","outputs":[{"internalType":"uint256","name":"","type":"uint256"}],"stateMutability":"view","type":"function"},{"inputs":[{"internalType":"address","name":"recipient","type":"address"}],"name":"addRoyaltyRecipient","outputs":[],"stateMutability":"nonpayable","type":"function"},{"inputs":[{"internalType":"address","name":"owner","type":"address"},{"internalType":"address","name":"spender","type":"address"}],"name":"allowance","outputs":[{"internalType":"uint256","name":"","type":"uint256"}],"stateMutability":"view","type":"function"},{"inputs":[{"internalType":"address","name":"spender","type":"address"},{"internalType":"uint256","name":"amount","type":"uint256"}],"name":"approve","outputs":[{"internalType":"bool","name":"","type":"bool"}],"stateMutability":"nonpayable","type":"function"},{"inputs":[],"name":"backingPerTokenUSD","outputs":[{"internalType":"uint256","name":"","type":"uint256"}],"stateMutability":"view","type":"function"},{"inputs":[{"internalType":"address","name":"account","type":"address"}],"name":"balanceOf","outputs":[{"internalType":"uint256","name":"","type":"uint256"}],"stateMutability":"view","type":"function"},{"inputs":[{"internalType":"address","name":"from","type":"address"},{"internalType":"uint256","name":"amount","type":"uint256"},{"internalType":"string","name":"reason","type":"string"}],"name":"burn","outputs":[],"stateMutability":"nonpayable","type":"function"},{"inputs":[{"internalType":"uint256","name":"amount","type":"uint256"},{"internalType":"string","name":"reason","type":"string"}],"name":"burnMyTokens","outputs":[],"stateMutability":"nonpayable","type":"function"},{"inputs":[{"internalType":"address","name":"account","type":"address"},{"internalType":"uint32","name":"pos","type":"uint32"}],"name":"checkpoints","outputs":[{"components":[{"internalType":"uint32","name":"fromBlock","type":"uint32"},{"internalType":"uint224","name":"votes","type":"uint224"}],"internalType":"struct ERC20Votes.Checkpoint","name":"","type":"tuple"}],"stateMutability":"view","type":"function"},{"inputs":[],"name":"clock","outputs":[{"internalType":"uint48","name":"","type":"uint48"}],"stateMutability":"view","type":"function"},{"inputs":[],"name":"communityDAOAddress","outputs":[{"internalType":"address","name":"","type":"address"}],"stateMutability":"view","type":"function"},{"inputs":[],"name":"creatorPoolAddress","outputs":[{"internalType":"address","name":"","type":"address"}],"stateMutability":"view","type":"function"},{"inputs":[],"name":"decimals","outputs":[{"internalType":"uint8","name":"","type":"uint8"}],"stateMutability":"pure","type":"function"},{"inputs":[{"internalType":"address","name":"spender","type":"address"},{"internalType":"uint256","name":"subtractedValue","type":"uint256"}],"name":"decreaseAllowance","outputs":[{"internalType":"bool","name":"","type":"bool"}],"stateMutability":"nonpayable","type":"function"},{"inputs":[{"internalType":"address","name":"delegatee","type":"address"}],"name":"delegate","outputs":[],"stateMutability":"nonpayable","type":"function"},{"inputs":[{"internalType":"address","name":"delegatee","type":"address"},{"internalType":"uint256","name":"nonce","type":"uint256"},{"internalType":"uint256","name":"expiry","type":"uint256"},{"internalType":"uint8","name":"v","type":"uint8"},{"internalType":"bytes32","name":"r","type":"bytes32"},{"internalType":"bytes32","name":"s","type":"bytes32"}],"name":"delegateBySig","outputs":[],"stateMutability":"nonpayable","type":"function"},{"inputs":[{"internalType":"address","name":"account","type":"address"}],"name":"delegates","outputs":[{"internalType":"address","name":"","type":"address"}],"stateMutability":"view","type":"function"},{"inputs":[{"internalType":"enum Xenara.BackingAsset","name":"asset","type":"uint8"},{"internalType":"uint256","name":"amount","type":"uint256"}],"name":"depositBacking","outputs":[],"stateMutability":"nonpayable","type":"function"},{"inputs":[{"internalType":"address","name":"to","type":"address"},{"internalType":"uint256","name":"amount","type":"uint256"},{"internalType":"string","name":"description","type":"string"}],"name":"distributeRoyalty","outputs":[],"stateMutability":"nonpayable","type":"function"},{"inputs":[],"name":"eip712Domain","outputs":[{"internalType":"bytes1","name":"fields","type":"bytes1"},{"internalType":"string","name":"name","type":"string"},{"internalType":"string","name":"version","type":"string"},{"internalType":"uint256","name":"chainId","type":"uint256"},{"internalType":"address","name":"verifyingContract","type":"address"},{"internalType":"bytes32","name":"salt","type":"bytes32"},{"internalType":"uint256[]","name":"extensions","type":"uint256[]"}],"stateMutability":"view","type":"function"},{"inputs":[{"internalType":"address","name":"token","type":"address"},{"internalType":"address","name":"to","type":"address"},{"internalType":"uint256","name":"amount","type":"uint256"}],"name":"emergencyRecoverERC20","outputs":[],"stateMutability":"nonpayable","type":"function"},{"inputs":[{"internalType":"enum Xenara.BackingAsset","name":"asset","type":"uint8"}],"name":"getAssetInfo","outputs":[{"components":[{"internalType":"contract IERC20","name":"token","type":"address"},{"internalType":"uint256","name":"amount","type":"uint256"},{"internalType":"uint256","name":"priceUSD","type":"uint256"},{"internalType":"bool","name":"registered","type":"bool"},{"internalType":"uint256","name":"targetPercentage","type":"uint256"}],"internalType":"struct Xenara.AssetInfo","name":"","type":"tuple"}],"stateMutability":"view","type":"function"},{"inputs":[],"name":"getBackingRatios","outputs":[{"internalType":"uint256","name":"silverRatio","type":"uint256"},{"internalType":"uint256","name":"goldRatio","type":"uint256"},{"internalType":"uint256","name":"stonesRatio","type":"uint256"}],"stateMutability":"view","type":"function"},{"inputs":[{"internalType":"uint256","name":"timepoint","type":"uint256"}],"name":"getPastTotalSupply","outputs":[{"internalType":"uint256","name":"","type":"uint256"}],"stateMutability":"view","type":"function"},{"inputs":[{"internalType":"address","name":"account","type":"address"},{"internalType":"uint256","name":"timepoint","type":"uint256"}],"name":"getPastVotes","outputs":[{"internalType":"uint256","name":"","type":"uint256"}],"stateMutability":"view","type":"function"},{"inputs":[{"internalType":"bytes32","name":"role","type":"bytes32"}],"name":"getRoleAdmin","outputs":[{"internalType":"bytes32","name":"","type":"bytes32"}],"stateMutability":"view","type":"function"},{"inputs":[{"internalType":"address","name":"account","type":"address"}],"name":"getVotes","outputs":[{"internalType":"uint256","name":"","type":"uint256"}],"stateMutability":"view","type":"function"},{"inputs":[{"internalType":"bytes32","name":"role","type":"bytes32"},{"internalType":"address","name":"account","type":"address"}],"name":"grantRole","outputs":[],"stateMutability":"nonpayable","type":"function"},{"inputs":[{"internalType":"bytes32","name":"role","type":"bytes32"},{"internalType":"address","name":"account","type":"address"}],"name":"hasRole","outputs":[{"internalType":"bool","name":"","type":"bool"}],"stateMutability":"view","type":"function"},{"inputs":[{"internalType":"address","name":"spender","type":"address"},{"internalType":"uint256","name":"addedValue","type":"uint256"}],"name":"increaseAllowance","outputs":[{"internalType":"bool","name":"","type":"bool"}],"stateMutability":"nonpayable","type":"function"},{"inputs":[{"internalType":"address","name":"to","type":"address"},{"internalType":"uint256","name":"amount","type":"uint256"},{"internalType":"string","name":"reason","type":"string"}],"name":"mint","outputs":[],"stateMutability":"nonpayable","type":"function"},{"inputs":[],"name":"name","outputs":[{"internalType":"string","name":"","type":"string"}],"stateMutability":"view","type":"function"},{"inputs":[{"internalType":"address","name":"owner","type":"address"}],"name":"nonces","outputs":[{"internalType":"uint256","name":"","type":"uint256"}],"stateMutability":"view","type":"function"},{"inputs":[{"internalType":"address","name":"account","type":"address"}],"name":"numCheckpoints","outputs":[{"internalType":"uint32","name":"","type":"uint32"}],"stateMutability":"view","type":"function"},{"inputs":[],"name":"pause","outputs":[],"stateMutability":"nonpayable","type":"function"},{"inputs":[],"name":"paused","outputs":[{"internalType":"bool","name":"","type":"bool"}],"stateMutability":"view","type":"function"},{"inputs":[{"internalType":"address","name":"owner","type":"address"},{"internalType":"address","name":"spender","type":"address"},{"internalType":"uint256","name":"value","type":"uint256"},{"internalType":"uint256","name":"deadline","type":"uint256"},{"internalType":"uint8","name":"v","type":"uint8"},{"internalType":"bytes32","name":"r","type":"bytes32"},{"internalType":"bytes32","name":"s","type":"bytes32"}],"name":"permit","outputs":[],"stateMutability":"nonpayable","type":"function"},{"inputs":[],"name":"publicAddress","outputs":[{"internalType":"address","name":"","type":"address"}],"stateMutability":"view","type":"function"},{"inputs":[],"name":"rebalanceBacking","outputs":[],"stateMutability":"nonpayable","type":"function"},{"inputs":[{"internalType":"enum Xenara.BackingAsset","name":"asset","type":"uint8"},{"internalType":"address","name":"token","type":"address"}],"name":"registerBackingToken","outputs":[],"stateMutability":"nonpayable","type":"function"},{"inputs":[{"internalType":"address","name":"recipient","type":"address"}],"name":"removeRoyaltyRecipient","outputs":[],"stateMutability":"nonpayable","type":"function"},{"inputs":[{"internalType":"bytes32","name":"role","type":"bytes32"},{"internalType":"address","name":"account","type":"address"}],"name":"renounceRole","outputs":[],"stateMutability":"nonpayable","type":"function"},{"inputs":[],"name":"reserveAddress","outputs":[{"internalType":"address","name":"","type":"address"}],"stateMutability":"view","type":"function"},{"inputs":[{"internalType":"bytes32","name":"role","type":"bytes32"},{"internalType":"address","name":"account","type":"address"}],"name":"revokeRole","outputs":[],"stateMutability":"nonpayable","type":"function"},{"inputs":[{"internalType":"address","name":"","type":"address"}],"name":"royaltyEarned","outputs":[{"internalType":"uint256","name":"","type":"uint256"}],"stateMutability":"view","type":"function"},{"inputs":[],"name":"royaltyManagerAddress","outputs":[{"internalType":"address","name":"","type":"address"}],"stateMutability":"view","type":"function"},{"inputs":[{"internalType":"enum Xenara.BackingAsset","name":"asset","type":"uint8"},{"internalType":"uint256","name":"priceUSD","type":"uint256"}],"name":"setAssetPriceUSD","outputs":[],"stateMutability":"nonpayable","type":"function"},{"inputs":[{"internalType":"bytes4","name":"interfaceId","type":"bytes4"}],"name":"supportsInterface","outputs":[{"internalType":"bool","name":"","type":"bool"}],"stateMutability":"view","type":"function"},{"inputs":[],"name":"symbol","outputs":[{"internalType":"string","name":"","type":"string"}],"stateMutability":"view","type":"function"},{"inputs":[],"name":"totalBackingValueUSD","outputs":[{"internalType":"uint256","name":"","type":"uint256"}],"stateMutability":"view","type":"function"},{"inputs":[],"name":"totalRoyaltyDistributed","outputs":[{"internalType":"uint256","name":"","type":"uint256"}],"stateMutability":"view","type":"function"},{"inputs":[],"name":"totalSupply","outputs":[{"internalType":"uint256","name":"","type":"uint256"}],"stateMutability":"view","type":"function"},{"inputs":[{"internalType":"address","name":"to","type":"address"},{"internalType":"uint256","name":"amount","type":"uint256"}],"name":"transfer","outputs":[{"internalType":"bool","name":"","type":"bool"}],"stateMutability":"nonpayable","type":"function"},{"inputs":[{"internalType":"address","name":"from","type":"address"},{"internalType":"address","name":"to","type":"address"},{"internalType":"uint256","name":"amount","type":"uint256"}],"name":"transferFrom","outputs":[{"internalType":"bool","name":"","type":"bool"}],"stateMutability":"nonpayable","type":"function"},{"inputs":[],"name":"unpause","outputs":[],"stateMutability":"nonpayable","type":"function"},{"inputs":[{"internalType":"enum Xenara.BackingAsset","name":"asset","type":"uint8"}],"name":"unregisterBackingToken","outputs":[],"stateMutability":"nonpayable","type":"function"},{"inputs":[{"internalType":"address","name":"newAddress","type":"address"}],"name":"updateCommunityDAOAddress","outputs":[],"stateMutability":"nonpayable","type":"function"},{"inputs":[{"internalType":"address","name":"newAddress","type":"address"}],"name":"updateCreatorPoolAddress","outputs":[],"stateMutability":"nonpayable","type":"function"},{"inputs":[{"internalType":"address","name":"newAddress","type":"address"}],"name":"updatePublicAddress","outputs":[],"stateMutability":"nonpayable","type":"function"},{"inputs":[{"internalType":"address","name":"newAddress","type":"address"}],"name":"updateReserveAddress","outputs":[],"stateMutability":"nonpayable","type":"function"},{"inputs":[{"internalType":"enum Xenara.BackingAsset","name":"asset","type":"uint8"},{"internalType":"address","name":"to","type":"address"},{"internalType":"uint256","name":"amount","type":"uint256"}],"name":"withdrawBacking","outputs":[],"stateMutability":"nonpayable","type":"function"}],"evm":{"bytecode":{"linkReferences":{},"object":"61016060405234801561001157600080fd5b50604051615f61380380615f6183398101604081905261003091610d3f565b6040805180820190915260018152603160f81b602082015288908190818a600361005a8382610e8d565b5060046100678282610e8d565b50610077915083905060056103c5565b610120526100868160066103c5565b61014052815160208084019190912060e052815190820120610100524660a05261011360e05161010051604080517f8b73c3c69bb8fe3d512ecc4cf759cc79239f7b179b0ffacaa9a75d522b39400f60208201529081019290925260608201524660808201523060a082015260009060c00160405160208183030381529060405280519060200120905090565b60805250503060c05250600d805460ff191690556001600e556001600160a01b038616158061014957506001600160a01b038516155b8061015b57506001600160a01b038416155b8061016d57506001600160a01b038316155b8061017f57506001600160a01b038216155b8061019157506001600160a01b038116155b156101af5760405163d92e233d60e01b815260040160405180910390fd5b600f80546001600160a01b03199081166001600160a01b03898116919091179092556010805482168884161790556011805482168784161790556012805482168684161790556013805490911691841691909117905560146020526113887f4f26c3876aa9f4b92579780beea1161a61f87ebf1ec6ee865b299e447ecba9a055610bb87fb6c61a840592cc84133e4b25bd509abf4659307c57b160799b38490a5aa48f3055600260009081526107d07fa1930aa930426c54c34daad2b9ada7c5d0ef0c96078a3c5bb79f6fa6602c4a7e5561028a90826103f8565b6102b47f9f2df0fed2c77648de5860a4cc508cd0818c85b8b8a1ab4ceeef8d981c8956a6826103f8565b6102de7f3c11d16cbaffd01df69ce1c404f6340ee057498f5f00246190ea54220576a848826103f8565b6103087f65d7a28e3265b37a6474929f336521b332c1681b933f6cb9f3376673440d862a826103f8565b6103327faa9060660dc3e52152ec6c4cd87f38f5433d3e2246058f23a29463ea32476817826103f8565b61035c7f4c845bd8367732455594e4267d2660f9c3f2cbb53288e8c2f3ec69276e9a440a836103f8565b6103867f71840dc4906352362b0cdaf79870196c8e42acafade72d5d5a6d59291253ceb1826103f8565b6103b07f0acf805600123ef007091da3b3ffb39474074c656c127aa68cb0ffec232a8ff8826103f8565b6103b861049b565b5050505050505050611017565b60006020835110156103e1576103da836105ee565b90506103f2565b816103ec8482610e8d565b5060ff90505b92915050565b6000828152600c602090815260408083206001600160a01b038516845290915290205460ff16610497576000828152600c602090815260408083206001600160a01b03851684529091529020805460ff191660011790556104563390565b6001600160a01b0316816001600160a01b0316837f2f8788117e7eff1d82e926ec794901d17c78024a50270940304540a733656f0d60405160405180910390a45b5050565b60006127106104b86113886b019d971e4fe8401e74000000610f61565b6104c29190610f78565b905060006127106104e16109c46b019d971e4fe8401e74000000610f61565b6104eb9190610f78565b9050600061271061050a6105dc6b019d971e4fe8401e74000000610f61565b6105149190610f78565b905060006127106105336103e86b019d971e4fe8401e74000000610f61565b61053d9190610f78565b90506000818361054d8688610f9a565b6105579190610f9a565b6105619190610f9a565b90506b019d971e4fe8401e74000000811461058f57604051630d16b83360e31b815260040160405180910390fd5b600f546105a5906001600160a01b031686610635565b6010546105bb906001600160a01b031685610635565b6011546105d1906001600160a01b031684610635565b6012546105e7906001600160a01b031683610635565b5050505050565b600080829050601f81511115610622578260405163305a27a960e01b81526004016106199190610fad565b60405180910390fd5b805161062d82610fe0565b179392505050565b610497828261064482826106d8565b6001600160e01b036106566107ab8216565b11156106bd5760405162461bcd60e51b815260206004820152603060248201527f4552433230566f7465733a20746f74616c20737570706c79207269736b73206f60448201526f766572666c6f77696e6720766f74657360801b6064820152608401610619565b6106d2600b612d7b6107b160201b17836107c4565b50505050565b6001600160a01b03821661072e5760405162461bcd60e51b815260206004820152601f60248201527f45524332303a206d696e7420746f20746865207a65726f2061646472657373006044820152606401610619565b61073a6000838361093c565b806002600082825461074c9190610f9a565b90915550506001600160a01b038216600081815260208181526040808320805486019055518481527fddf252ad1be2c89b69c2b068fc378daa952ba7f163c4a11628f55a4df523b3ef910160405180910390a36104976000838361095b565b60025490565b60006107bd8284610f9a565b9392505050565b825460009081908181156108115760008781526020902082016000190160408051808201909152905463ffffffff8116825264010000000090046001600160e01b03166020820152610826565b60408051808201909152600080825260208201525b905080602001516001600160e01b0316935061084384868860201c565b925060008211801561086d5750610858610966565b65ffffffffffff16816000015163ffffffff16145b156108b25761087b83610976565b60008881526020902083016000190180546001600160e01b03929092166401000000000263ffffffff909216919091179055610932565b8660405180604001604052806108dc6108cf61096660201b60201c565b65ffffffffffff166109e3565b63ffffffff1681526020016108f086610976565b6001600160e01b0390811690915282546001810184556000938452602093849020835194909301519091166401000000000263ffffffff909316929092179101555b5050935093915050565b610944610a48565b6109568383836001600160e01b038416565b505050565b610956838383610a90565b600061097143610ac2565b905090565b60006001600160e01b038211156109df5760405162461bcd60e51b815260206004820152602760248201527f53616665436173743a2076616c756520646f65736e27742066697420696e20326044820152663234206269747360c81b6064820152608401610619565b5090565b600063ffffffff8211156109df5760405162461bcd60e51b815260206004820152602660248201527f53616665436173743a2076616c756520646f65736e27742066697420696e203360448201526532206269747360d01b6064820152608401610619565b600d5460ff1615610a8e5760405162461bcd60e51b815260206004820152601060248201526f14185d5cd8589b194e881c185d5cd95960821b6044820152606401610619565b565b6001600160a01b0383811660009081526009602052604080822054858416835291205461095692918216911683610b29565b600065ffffffffffff8211156109df5760405162461bcd60e51b815260206004820152602660248201527f53616665436173743a2076616c756520646f65736e27742066697420696e203460448201526538206269747360d01b6064820152608401610619565b816001600160a01b0316836001600160a01b031614158015610b4b5750600081115b15610956576001600160a01b03831615610bd0576001600160a01b0383166000908152600a6020908152604082208291610b8f9190610c54901b612d8717856107c4565b91509150846001600160a01b0316600080516020615f418339815191528383604051610bc5929190918252602082015260400190565b60405180910390a250505b6001600160a01b03821615610956576001600160a01b0382166000908152600a6020908152604082208291610c0f91906107b1901b612d7b17856107c4565b91509150836001600160a01b0316600080516020615f418339815191528383604051610c45929190918252602082015260400190565b60405180910390a25050505050565b60006107bd8284611004565b634e487b7160e01b600052604160045260246000fd5b60005b83811015610c91578181015183820152602001610c79565b50506000910152565b600082601f830112610cab57600080fd5b81516001600160401b03811115610cc457610cc4610c60565b604051601f8201601f19908116603f011681016001600160401b0381118282101715610cf257610cf2610c60565b604052818152838201602001851015610d0a57600080fd5b610d1b826020830160208701610c76565b949350505050565b80516001600160a01b0381168114610d3a57600080fd5b919050565b600080600080600080600080610100898b031215610d5c57600080fd5b88516001600160401b03811115610d7257600080fd5b610d7e8b828c01610c9a565b60208b015190995090506001600160401b03811115610d9c57600080fd5b610da88b828c01610c9a565b975050610db760408a01610d23565b9550610dc560608a01610d23565b9450610dd360808a01610d23565b9350610de160a08a01610d23565b9250610def60c08a01610d23565b9150610dfd60e08a01610d23565b90509295985092959890939650565b600181811c90821680610e2057607f821691505b602082108103610e4057634e487b7160e01b600052602260045260246000fd5b50919050565b601f82111561095657806000526020600020601f840160051c81016020851015610e6d5750805b601f840160051c820191505b818110156105e75760008155600101610e79565b81516001600160401b03811115610ea657610ea6610c60565b610eba81610eb48454610e0c565b84610e46565b6020601f821160018114610eee5760008315610ed65750848201515b600019600385901b1c1916600184901b1784556105e7565b600084815260208120601f198516915b82811015610f1e5787850151825560209485019460019092019101610efe565b5084821015610f3c5786840151600019600387901b60f8161c191681555b50505050600190811b01905550565b634e487b7160e01b600052601160045260246000fd5b80820281158282048414176103f2576103f2610f4b565b600082610f9557634e487b7160e01b600052601260045260246000fd5b500490565b808201808211156103f2576103f2610f4b565b6020815260008251806020840152610fcc816040850160208701610c76565b601f01601f19169190910160400192915050565b80516020808301519190811015610e405760001960209190910360031b1b16919050565b818103818111156103f2576103f2610f4b565b60805160a05160c05160e051610100516101205161014051614ed06110716000396000611afe01526000611ad30152600061329c01526000613274015260006131cf015260006131f9015260006132230152614ed06000f3fe608060405234801561001057600080fd5b506004361061048b5760003560e01c8063784cafba11610262578063c69def0b11610151578063e4830c32116100ce578063f1127ed811610092578063f1127ed814610aa0578063f36c8f5c14610add578063f676f33114610af2578063f6d0934c14610b05578063f79ed94b14610b18578063f84afd4814610b2b57600080fd5b8063e4830c3214610a37578063e63ab1e914610a4a578063eb09f72a14610a71578063eb8f4c4a14610a7a578063ef17794c14610a8d57600080fd5b8063d539139311610115578063d5391393146109cf578063d547741f146109f6578063dd62ed3e14610a09578063dfef15b814610a1c578063e07495e314610a2457600080fd5b8063c69def0b14610932578063c8c7fe6b14610945578063d3060a33146109a0578063d3fc9864146109a9578063d505accf146109bc57600080fd5b806395d89b41116101df578063a9059cbb116101a3578063a9059cbb146108de578063a978d8df146108f1578063ae621bbe14610904578063aeeb73ea1461090c578063c3cda5201461091f57600080fd5b806395d89b41146108955780639ab24eb01461089d578063a217fddf146108b0578063a34cea08146108b8578063a457c2d7146108cb57600080fd5b806384b0196e1161022657806384b0196e146108225780638e539e8c1461083d57806391d148541461085057806391ddadf41461086357806391ee2a3d1461088257600080fd5b8063784cafba146107d457806378702fdc146106e45780637ecebe00146107e75780638266efc3146107fa5780638456cb591461081a57600080fd5b80633644e5151161037e5780635c975abb116102fb5780636fcfff45116102bf5780636fcfff451461075c57806370a0823114610784578063714a617a146107ad57806374792153146107b6578063751f77d3146107bf57600080fd5b80635c975abb146107005780636042d5d41461070b578063621c0fbe1461071e57806363dea9551461074157806369a87e151461075457600080fd5b80634bf5d7e9116103425780634bf5d7e91461069b57806358456fb5146106a3578063587cde1e146106b85780635a174fff146106e45780635c19a95c146106ed57600080fd5b80633644e5151461065257806336568abe1461065a578063395093511461066d5780633a46b1a8146106805780633f4ba83a1461069357600080fd5b806318160ddd1161040c5780632ff2e9dc116103d05780632ff2e9dc146105ee57806330bcd67914610601578063313ce5671461061457806331993a1c1461062357806332cb6b0c1461064a57600080fd5b806318160ddd1461057657806323b872dd1461057e578063248a9ca314610591578063282c51f3146105b45780632f2ff15d146105db57600080fd5b80630bc48ada116104535780630bc48ada146105005780630d869c241461050e578063142b01b01461052357806315e98e731461054e57806315f570dc1461056357600080fd5b806301ffc9a71461049057806302ae844c146104b857806304eaef4f146104cf57806306fdde03146104d8578063095ea7b3146104ed575b600080fd5b6104a361049e366004614724565b610b3e565b60405190151581526020015b60405180910390f35b6104c16103e881565b6040519081526020016104af565b6104c1610bb881565b6104e0610b75565b6040516104af919061479e565b6104a36104fb3660046147cd565b610c07565b6104c16001600160801b0381565b61052161051c3660046147f7565b610c1f565b005b601254610536906001600160a01b031681565b6040516001600160a01b0390911681526020016104af565b6104c1600080516020614e1b83398151915281565b6105216105713660046148b7565b610cda565b6002546104c1565b6104a361058c36600461490e565b610de6565b6104c161059f36600461494b565b6000908152600c602052604090206001015490565b6104c17f3c11d16cbaffd01df69ce1c404f6340ee057498f5f00246190ea54220576a84881565b6105216105e9366004614964565b610e0a565b6104c16b019d971e4fe8401e7400000081565b601054610536906001600160a01b031681565b604051601281526020016104af565b6104c17f0acf805600123ef007091da3b3ffb39474074c656c127aa68cb0ffec232a8ff881565b6104c1610e34565b6104c1610e57565b610521610668366004614964565b610e66565b6104a361067b3660046147cd565b610ee9565b6104c161068e3660046147cd565b610f0b565b610521610f90565b6104e0610fc5565b6104c1600080516020614e5b83398151915281565b6105366106c63660046147f7565b6001600160a01b039081166000908152600960205260409020541690565b6104c161138881565b6105216106fb3660046147f7565b61105d565b600d5460ff166104a3565b61052161071936600461499f565b611067565b610726611235565b604080519384526020840192909252908201526060016104af565b61052161074f3660046147f7565b611536565b61052161158d565b61076f61076a3660046147f7565b6118e2565b60405163ffffffff90911681526020016104af565b6104c16107923660046147f7565b6001600160a01b031660009081526020819052604090205490565b6104c160155481565b6104c16105dc81565b6104c1600080516020614e7b83398151915281565b6105216107e23660046148b7565b611904565b6104c16107f53660046147f7565b611a75565b6104c16108083660046147f7565b60166020526000908152604090205481565b610521611a93565b61082a611ac5565b6040516104af97969594939291906149ba565b6104c161084b36600461494b565b611b4e565b6104a361085e366004614964565b611bb5565b61086b611be0565b60405165ffffffffffff90911681526020016104af565b610521610890366004614a52565b611beb565b6104e0611d89565b6104c16108ab3660046147f7565b611d98565b6104c1600081565b6105216108c6366004614a6e565b611e1a565b6104a36108d93660046147cd565b61205e565b6104a36108ec3660046147cd565b6120d9565b6105216108ff366004614a52565b6120e7565b6104c161223c565b61052161091a3660046147f7565b61231d565b61052161092d366004614a9d565b61238e565b610521610940366004614af5565b6124c4565b61095861095336600461499f565b612629565b6040516104af919081516001600160a01b0316815260208083015190820152604080830151908201526060808301511515908201526080918201519181019190915260a00190565b6104c16107d081565b6105216109b73660046148b7565b61271e565b6105216109ca366004614b1f565b612830565b6104c17f9f2df0fed2c77648de5860a4cc508cd0818c85b8b8a1ab4ceeef8d981c8956a681565b610521610a04366004614964565b612994565b6104c1610a17366004614b8a565b6129b9565b6104c16129e4565b610521610a32366004614ba6565b612a3b565b601354610536906001600160a01b031681565b6104c17f65d7a28e3265b37a6474929f336521b332c1681b933f6cb9f3376673440d862a81565b6104c16109c481565b610521610a8836600461490e565b612ad9565b610521610a9b3660046147f7565b612bdd565b610ab3610aae366004614bed565b612c55565b60408051825163ffffffff1681526020928301516001600160e01b031692810192909252016104af565b6104c1600080516020614e3b83398151915281565b600f54610536906001600160a01b031681565b610521610b133660046147f7565b612cd9565b601154610536906001600160a01b031681565b610521610b393660046147f7565b612d09565b60006001600160e01b03198216637965db0b60e01b1480610b6f57506301ffc9a760e01b6001600160e01b03198316145b92915050565b606060038054610b8490614c2d565b80601f0160208091040260200160405190810160405280929190818152602001828054610bb090614c2d565b8015610bfd5780601f10610bd257610100808354040283529160200191610bfd565b820191906000526020600020905b815481529060010190602001808311610be057829003601f168201915b5050505050905090565b600033610c15818585612d93565b5060019392505050565b600080516020614e3b833981519152610c3781612eb7565b6001600160a01b038216610c5e5760405163d92e233d60e01b815260040160405180910390fd5b601080546001600160a01b0319166001600160a01b0384161790556040516b10d491505513d497d413d3d360a21b8152600c015b6040519081900381206001600160a01b0384168252907f943e9d45a11aaae5d87503e3bc248665d9807856e5cf2bdb4a988bee44422781906020015b60405180910390a25050565b7f3c11d16cbaffd01df69ce1c404f6340ee057498f5f00246190ea54220576a848610d0481612eb7565b610d0c612ec1565b6001600160a01b038416610d335760405163d92e233d60e01b815260040160405180910390fd5b82600003610d5457604051631f2a200560e01b815260040160405180910390fd5b82610d74856001600160a01b031660009081526020819052604090205490565b1015610d9357604051631e9acf1760e31b815260040160405180910390fd5b610d9d8484612f09565b836001600160a01b03167ffad31924d655455395c87544c8aa1ffdb5a7505a22a3c2e03f28003b6556a75f8484604051610dd8929190614c61565b60405180910390a250505050565b600033610df4858285612f13565b610dff858585612f87565b506001949350505050565b6000828152600c6020526040902060010154610e2581612eb7565b610e2f838361313c565b505050565b610e546b019d971e4fe8401e7400000069152d02c7e14af6800000614c90565b81565b6000610e616131c2565b905090565b6001600160a01b0381163314610edb5760405162461bcd60e51b815260206004820152602f60248201527f416363657373436f6e74726f6c3a2063616e206f6e6c792072656e6f756e636560448201526e103937b632b9903337b91039b2b63360891b60648201526084015b60405180910390fd5b610ee582826132ed565b5050565b600033610c15818585610efc83836129b9565b610f069190614c90565b612d93565b6000610f15611be0565b65ffffffffffff168210610f675760405162461bcd60e51b815260206004820152601960248201527804552433230566f7465733a20667574757265206c6f6f6b757603c1b6044820152606401610ed2565b6001600160a01b0383166000908152600a60205260409020610f899083613354565b9392505050565b7f65d7a28e3265b37a6474929f336521b332c1681b933f6cb9f3376673440d862a610fba81612eb7565b610fc261343d565b50565b606043610fd0611be0565b65ffffffffffff16146110255760405162461bcd60e51b815260206004820152601d60248201527f4552433230566f7465733a2062726f6b656e20636c6f636b206d6f64650000006044820152606401610ed2565b5060408051808201909152601d81527f6d6f64653d626c6f636b6e756d6265722666726f6d3d64656661756c74000000602082015290565b610fc2338261348f565b600080516020614e1b83398151915261107f81612eb7565b600282600281111561109357611093614ca3565b11156110b257604051636448d6e960e11b815260040160405180910390fd5b601460008360028111156110c8576110c8614ca3565b60028111156110d9576110d9614ca3565b815260208101919091526040016000206003015460ff1661110d57604051630719d53360e21b815260040160405180910390fd5b60006014600084600281111561112557611125614ca3565b600281111561113657611136614ca3565b8152602001908152602001600020600101541115611167576040516340db7f8760e01b815260040160405180910390fd5b60006014600084600281111561117f5761117f614ca3565b600281111561119057611190614ca3565b815260200190815260200160002060030160006101000a81548160ff0219169083151502179055506000601460008460028111156111d0576111d0614ca3565b60028111156111e1576111e1614ca3565b81526020019081526020016000206002018190555081600281111561120857611208614ca3565b6040517f8b56d0949004b9ec276cc1fa05c8edd80c00371256c79fb5286504b2e2ed105f90600090a25050565b60008060008061124361223c565b90508060000361125b57506000938493508392509050565b6000805260146020527f4f26c3876aa9f4b92579780beea1161a61f87ebf1ec6ee865b299e447ecba99f5460ff1680156112be57506000805260146020527f4f26c3876aa9f4b92579780beea1161a61f87ebf1ec6ee865b299e447ecba99e5415155b6112c9576000611348565b6112db81670de0b6b3a7640000614cb9565b6000805260146020527f4f26c3876aa9f4b92579780beea1161a61f87ebf1ec6ee865b299e447ecba99e547f4f26c3876aa9f4b92579780beea1161a61f87ebf1ec6ee865b299e447ecba99d546113329190614cb9565b61133e90612710614cb9565b6113489190614ce6565b600160005260146020527fb6c61a840592cc84133e4b25bd509abf4659307c57b160799b38490a5aa48f2f5490945060ff1680156113b05750600160005260146020527fb6c61a840592cc84133e4b25bd509abf4659307c57b160799b38490a5aa48f2e5415155b6113bb57600061143b565b6113cd81670de0b6b3a7640000614cb9565b600160005260146020527fb6c61a840592cc84133e4b25bd509abf4659307c57b160799b38490a5aa48f2e547fb6c61a840592cc84133e4b25bd509abf4659307c57b160799b38490a5aa48f2d546114259190614cb9565b61143190612710614cb9565b61143b9190614ce6565b600260005260146020527fa1930aa930426c54c34daad2b9ada7c5d0ef0c96078a3c5bb79f6fa6602c4a7d5490935060ff1680156114a35750600260005260146020527fa1930aa930426c54c34daad2b9ada7c5d0ef0c96078a3c5bb79f6fa6602c4a7c5415155b6114ae57600061152e565b6114c081670de0b6b3a7640000614cb9565b600260005260146020527fa1930aa930426c54c34daad2b9ada7c5d0ef0c96078a3c5bb79f6fa6602c4a7c547fa1930aa930426c54c34daad2b9ada7c5d0ef0c96078a3c5bb79f6fa6602c4a7b546115189190614cb9565b61152490612710614cb9565b61152e9190614ce6565b915050909192565b600080516020614e5b83398151915261154e81612eb7565b6001600160a01b0382166115755760405163d92e233d60e01b815260040160405180910390fd5b610ee5600080516020614e7b8339815191528361313c565b600080516020614e1b8339815191526115a581612eb7565b60006115af61223c565b9050806000036115bd575050565b60005b600260ff821611610e2f5760008160ff1660028111156115e2576115e2614ca3565b9050601460008260028111156115fa576115fa614ca3565b600281111561160b5761160b614ca3565b815260208101919091526040016000206003015460ff168015611666575060006014600083600281111561164157611641614ca3565b600281111561165257611652614ca3565b815260200190815260200160002060020154115b156118cf576000670de0b6b3a76400006014600084600281111561168c5761168c614ca3565b600281111561169d5761169d614ca3565b815260200190815260200160002060020154601460008560028111156116c5576116c5614ca3565b60028111156116d6576116d6614ca3565b8152602001908152602001600020600101546116f29190614cb9565b6116fc9190614ce6565b905060006127106014600085600281111561171957611719614ca3565b600281111561172a5761172a614ca3565b815260200190815260200160002060040154866117479190614cb9565b6117519190614ce6565b9050808210156118115760006014600085600281111561177357611773614ca3565b600281111561178457611784614ca3565b81526020019081526020016000206002015483836117a29190614d08565b6117b490670de0b6b3a7640000614cb9565b6117be9190614ce6565b90508360028111156117d2576117d2614ca3565b60408051838152600060208201527fd65110790d8a86457f6938787a2fdb76f70816d0f226dfa7a461352767a492bc910160405180910390a2506118cc565b808211156118cc5760006014600085600281111561183157611831614ca3565b600281111561184257611842614ca3565b81526020019081526020016000206002015482846118609190614d08565b61187290670de0b6b3a7640000614cb9565b61187c9190614ce6565b905083600281111561189057611890614ca3565b6040805160008152602081018490527fd65110790d8a86457f6938787a2fdb76f70816d0f226dfa7a461352767a492bc910160405180910390a2505b50505b50806118da81614d1b565b9150506115c0565b6001600160a01b0381166000908152600a6020526040812054610b6f90613508565b600080516020614e5b83398151915261191c81612eb7565b611924612ec1565b6001600160a01b03841661194b5760405163d92e233d60e01b815260040160405180910390fd5b8260000361196c57604051631f2a200560e01b815260040160405180910390fd5b611984600080516020614e7b83398151915285611bb5565b6119a0576040516282b42960e81b815260040160405180910390fd5b6010546001600160a01b03166000908152602081905260409020548311156119db57604051631e9acf1760e31b815260040160405180910390fd5b6010546119f2906001600160a01b03168585612f87565b6001600160a01b03841660009081526016602052604081208054859290611a1a908490614c90565b925050819055508260156000828254611a339190614c90565b92505081905550836001600160a01b03167fa64886b4e26fcc478f07b32b296c409c4d2cbab1679c533c272e1193efa00aa48484604051610dd8929190614c61565b6001600160a01b038116600090815260076020526040812054610b6f565b7f65d7a28e3265b37a6474929f336521b332c1681b933f6cb9f3376673440d862a611abd81612eb7565b610fc2613571565b600060608082808083611af97f000000000000000000000000000000000000000000000000000000000000000060056135ae565b611b247f000000000000000000000000000000000000000000000000000000000000000060066135ae565b60408051600080825260208201909252600f60f81b9b939a50919850469750309650945092509050565b6000611b58611be0565b65ffffffffffff168210611baa5760405162461bcd60e51b815260206004820152601960248201527804552433230566f7465733a20667574757265206c6f6f6b757603c1b6044820152606401610ed2565b610b6f600b83613354565b6000918252600c602090815260408084206001600160a01b0393909316845291905290205460ff1690565b6000610e6143613659565b611bf3612ec1565b6002826002811115611c0757611c07614ca3565b1115611c2657604051636448d6e960e11b815260040160405180910390fd5b60146000836002811115611c3c57611c3c614ca3565b6002811115611c4d57611c4d614ca3565b815260208101919091526040016000206003015460ff16611c8157604051630719d53360e21b815260040160405180910390fd5b80600003611ca257604051631f2a200560e01b815260040160405180910390fd5b611cf133308360146000876002811115611cbe57611cbe614ca3565b6002811115611ccf57611ccf614ca3565b81526020810191909152604001600020546001600160a01b03169291906136c0565b8060146000846002811115611d0857611d08614ca3565b6002811115611d1957611d19614ca3565b81526020019081526020016000206001016000828254611d399190614c90565b90915550339050826002811115611d5257611d52614ca3565b6040518381527f6a2b04b1f3d5a335c4367fea39bb8807ef0a4fbe77a2772700c8f9c90c1c9a1b9060200160405180910390a35050565b606060048054610b8490614c2d565b6001600160a01b0381166000908152600a60205260408120548015611e07576001600160a01b0383166000908152600a6020526040902080546000198301908110611de557611de5614d3a565b60009182526020909120015464010000000090046001600160e01b0316611e0a565b60005b6001600160e01b03169392505050565b611e2261372b565b600080516020614e1b833981519152611e3a81612eb7565b6001600160a01b038316611e615760405163d92e233d60e01b815260040160405180910390fd5b81600003611e8257604051631f2a200560e01b815260040160405180910390fd5b6002846002811115611e9657611e96614ca3565b1115611eb557604051636448d6e960e11b815260040160405180910390fd5b60146000856002811115611ecb57611ecb614ca3565b6002811115611edc57611edc614ca3565b815260208101919091526040016000206003015460ff16611f1057604051630719d53360e21b815260040160405180910390fd5b8160146000866002811115611f2757611f27614ca3565b6002811115611f3857611f38614ca3565b8152602001908152602001600020600101541015611f69576040516340db7f8760e01b815260040160405180910390fd5b8160146000866002811115611f8057611f80614ca3565b6002811115611f9157611f91614ca3565b81526020019081526020016000206001016000828254611fb19190614d08565b909155506120049050838360146000886002811115611fd257611fd2614ca3565b6002811115611fe357611fe3614ca3565b81526020810191909152604001600020546001600160a01b03169190613784565b826001600160a01b031684600281111561202057612020614ca3565b6040518481527fe3aab926d81700bac87dab01982e77e751c07d1acca11c13ff44aae1193a5f549060200160405180910390a350610e2f6001600e55565b6000338161206c82866129b9565b9050838110156120cc5760405162461bcd60e51b815260206004820152602560248201527f45524332303a2064656372656173656420616c6c6f77616e63652062656c6f77604482015264207a65726f60d81b6064820152608401610ed2565b610dff8286868403612d93565b600033610c15818585612f87565b600080516020614e1b8339815191526120ff81612eb7565b600283600281111561211357612113614ca3565b111561213257604051636448d6e960e11b815260040160405180910390fd5b6014600084600281111561214857612148614ca3565b600281111561215957612159614ca3565b815260208101919091526040016000206003015460ff1661218d57604051630719d53360e21b815260040160405180910390fd5b6001600160801b038211156121b45760405162bfc92160e01b815260040160405180910390fd5b81601460008560028111156121cb576121cb614ca3565b60028111156121dc576121dc614ca3565b81526020019081526020016000206002018190555082600281111561220357612203614ca3565b6040518381527f2d292c5b6330b5b0f99b665ec1be838ca17cd57eb118fe7a02cc05477b5bd42f906020015b60405180910390a2505050565b600080805b600260ff8216116123175760008160ff16600281111561226357612263614ca3565b905060006014600083600281111561227d5761227d614ca3565b600281111561228e5761228e614ca3565b81526020810191909152604001600020600381015490915060ff1680156122b9575060008160020154115b80156122c9575060008160010154115b1561230257670de0b6b3a7640000816002015482600101546122eb9190614cb9565b6122f59190614ce6565b6122ff9085614c90565b93505b5050808061230f90614d1b565b915050612241565b50919050565b600080516020614e3b83398151915261233581612eb7565b6001600160a01b03821661235c5760405163d92e233d60e01b815260040160405180910390fd5b600f80546001600160a01b0319166001600160a01b038416179055604051655055424c494360d01b8152600601610c92565b834211156123de5760405162461bcd60e51b815260206004820152601d60248201527f4552433230566f7465733a207369676e617475726520657870697265640000006044820152606401610ed2565b604080517fe48329057bfd03d55e49b547132e39cffd9c1820ad7b9d4c5307691425d15adf60208201526001600160a01b038816918101919091526060810186905260808101859052600090612458906124509060a001604051602081830303815290604052805190602001206137b4565b8585856137e1565b90506124638161380b565b86146124b15760405162461bcd60e51b815260206004820152601960248201527f4552433230566f7465733a20696e76616c6964206e6f6e6365000000000000006044820152606401610ed2565b6124bb818861348f565b50505050505050565b600080516020614e1b8339815191526124dc81612eb7565b6001600160a01b0382166125035760405163d92e233d60e01b815260040160405180910390fd5b600283600281111561251757612517614ca3565b111561253657604051636448d6e960e11b815260040160405180910390fd5b816014600085600281111561254d5761254d614ca3565b600281111561255e5761255e614ca3565b815260200190815260200160002060000160006101000a8154816001600160a01b0302191690836001600160a01b031602179055506001601460008560028111156125ab576125ab614ca3565b60028111156125bc576125bc614ca3565b81526020810191909152604001600020600301805460ff19169115159190911790558260028111156125f0576125f0614ca3565b6040516001600160a01b03841681527f561acd69f877decb2be770ca93ef06bb6a9e5d65defa3bace8eab67feecac5729060200161222f565b6126666040518060a0016040528060006001600160a01b031681526020016000815260200160008152602001600015158152602001600081525090565b600282600281111561267a5761267a614ca3565b111561269957604051636448d6e960e11b815260040160405180910390fd5b601460008360028111156126af576126af614ca3565b60028111156126c0576126c0614ca3565b81526020808201929092526040908101600020815160a08101835281546001600160a01b03168152600182015493810193909352600281015491830191909152600381015460ff161515606083015260040154608082015292915050565b7f9f2df0fed2c77648de5860a4cc508cd0818c85b8b8a1ab4ceeef8d981c8956a661274881612eb7565b612750612ec1565b6001600160a01b0384166127775760405163d92e233d60e01b815260040160405180910390fd5b8260000361279857604051631f2a200560e01b815260040160405180910390fd5b6127b86b019d971e4fe8401e7400000069152d02c7e14af6800000614c90565b836127c260025490565b6127cc9190614c90565b11156127eb5760405163c30436e960e01b815260040160405180910390fd5b6127f58484613831565b836001600160a01b03167f9d89e36eadf856db0ad9ffb5a569e07f95634dddd9501141ecf04820484ad0dc8484604051610dd8929190614c61565b834211156128805760405162461bcd60e51b815260206004820152601d60248201527f45524332305065726d69743a206578706972656420646561646c696e650000006044820152606401610ed2565b60007f6e71edae12b1b97f4d1f60370fef10105fa2faae0126114a169c64845d6126c98888886128af8c61380b565b6040805160208101969096526001600160a01b0394851690860152929091166060840152608083015260a082015260c0810186905260e001604051602081830303815290604052805190602001209050600061290a826137b4565b9050600061291a828787876137e1565b9050896001600160a01b0316816001600160a01b03161461297d5760405162461bcd60e51b815260206004820152601e60248201527f45524332305065726d69743a20696e76616c6964207369676e617475726500006044820152606401610ed2565b6129888a8a8a612d93565b50505050505050505050565b6000828152600c60205260409020600101546129af81612eb7565b610e2f83836132ed565b6001600160a01b03918216600090815260016020908152604080832093909416825291909152205490565b6000806129ef61223c565b905060006129fc60025490565b9050811580612a09575080155b15612a175760009250505090565b80612a2a83670de0b6b3a7640000614cb9565b612a349190614ce6565b9250505090565b612a43612ec1565b81600003612a6457604051631f2a200560e01b815260040160405180910390fd5b33600090815260208190526040902054821115612a9457604051631e9acf1760e31b815260040160405180910390fd5b612a9e3383612f09565b336001600160a01b03167ffad31924d655455395c87544c8aa1ffdb5a7505a22a3c2e03f28003b6556a75f8383604051610cce929190614c61565b7f0acf805600123ef007091da3b3ffb39474074c656c127aa68cb0ffec232a8ff8612b0381612eb7565b6001600160a01b038316612b2a5760405163d92e233d60e01b815260040160405180910390fd5b60005b600260ff821611612bc257601460008260ff166002811115612b5157612b51614ca3565b6002811115612b6257612b62614ca3565b6002811115612b7357612b73614ca3565b81526020810191909152604001600020546001600160a01b0390811690861603612bb0576040516303564c0760e21b815260040160405180910390fd5b80612bba81614d1b565b915050612b2d565b50612bd76001600160a01b0385168484613784565b50505050565b600080516020614e3b833981519152612bf581612eb7565b6001600160a01b038216612c1c5760405163d92e233d60e01b815260040160405180910390fd5b601280546001600160a01b0319166001600160a01b0384161790556040516c434f4d4d554e4954595f44414f60981b8152600d01610c92565b60408051808201909152600080825260208201526001600160a01b0383166000908152600a60205260409020805463ffffffff8416908110612c9957612c99614d3a565b60009182526020918290206040805180820190915291015463ffffffff8116825264010000000090046001600160e01b0316918101919091529392505050565b600080516020614e5b833981519152612cf181612eb7565b610ee5600080516020614e7b833981519152836132ed565b600080516020614e3b833981519152612d2181612eb7565b6001600160a01b038216612d485760405163d92e233d60e01b815260040160405180910390fd5b601180546001600160a01b0319166001600160a01b038416179055604051665245534552564560c81b8152600701610c92565b6000610f898284614c90565b6000610f898284614d08565b6001600160a01b038316612df55760405162461bcd60e51b8152602060048201526024808201527f45524332303a20617070726f76652066726f6d20746865207a65726f206164646044820152637265737360e01b6064820152608401610ed2565b6001600160a01b038216612e565760405162461bcd60e51b815260206004820152602260248201527f45524332303a20617070726f766520746f20746865207a65726f206164647265604482015261737360f01b6064820152608401610ed2565b6001600160a01b0383811660008181526001602090815260408083209487168084529482529182902085905590518481527f8c5be1e5ebec7d5bd14f71427d1e84f3dd0314c0f7b2291e5b200ac8c7c3b925910160405180910390a3505050565b610fc2813361383b565b600d5460ff1615612f075760405162461bcd60e51b815260206004820152601060248201526f14185d5cd8589b194e881c185d5cd95960821b6044820152606401610ed2565b565b610ee58282613894565b6000612f1f84846129b9565b90506000198114612bd75781811015612f7a5760405162461bcd60e51b815260206004820152601d60248201527f45524332303a20696e73756666696369656e7420616c6c6f77616e63650000006044820152606401610ed2565b612bd78484848403612d93565b6001600160a01b038316612feb5760405162461bcd60e51b815260206004820152602560248201527f45524332303a207472616e736665722066726f6d20746865207a65726f206164604482015264647265737360d81b6064820152608401610ed2565b6001600160a01b03821661304d5760405162461bcd60e51b815260206004820152602360248201527f45524332303a207472616e7366657220746f20746865207a65726f206164647260448201526265737360e81b6064820152608401610ed2565b6130588383836138ac565b6001600160a01b038316600090815260208190526040902054818110156130d05760405162461bcd60e51b815260206004820152602660248201527f45524332303a207472616e7366657220616d6f756e7420657863656564732062604482015265616c616e636560d01b6064820152608401610ed2565b6001600160a01b03848116600081815260208181526040808320878703905593871680835291849020805487019055925185815290927fddf252ad1be2c89b69c2b068fc378daa952ba7f163c4a11628f55a4df523b3ef910160405180910390a3612bd78484846138b4565b6131468282611bb5565b610ee5576000828152600c602090815260408083206001600160a01b03851684529091529020805460ff1916600117905561317e3390565b6001600160a01b0316816001600160a01b0316837f2f8788117e7eff1d82e926ec794901d17c78024a50270940304540a733656f0d60405160405180910390a45050565b6000306001600160a01b037f00000000000000000000000000000000000000000000000000000000000000001614801561321b57507f000000000000000000000000000000000000000000000000000000000000000046145b1561324557507f000000000000000000000000000000000000000000000000000000000000000090565b610e61604080517f8b73c3c69bb8fe3d512ecc4cf759cc79239f7b179b0ffacaa9a75d522b39400f60208201527f0000000000000000000000000000000000000000000000000000000000000000918101919091527f000000000000000000000000000000000000000000000000000000000000000060608201524660808201523060a082015260009060c00160405160208183030381529060405280519060200120905090565b6132f78282611bb5565b15610ee5576000828152600c602090815260408083206001600160a01b0385168085529252808320805460ff1916905551339285917ff6391f5c32d9c69d2a47ea670b442974b53935d1edc7fd64eb21e047a839171b9190a45050565b8154600090818160058111156133ae57600061336f846138bf565b6133799085614d08565b600088815260209020909150869082015463ffffffff16111561339e578091506133ac565b6133a9816001614c90565b92505b505b808210156133fb5760006133c283836139a7565b600088815260209020909150869082015463ffffffff1611156133e7578091506133f5565b6133f2816001614c90565b92505b506133ae565b8015613427576000868152602090208101600019015464010000000090046001600160e01b031661342a565b60005b6001600160e01b03169695505050505050565b6134456139c2565b600d805460ff191690557f5db9ee0a495bf2e6ff9c91a7834c1ba4fdd244a5e8aa4e537bd38aeae4b073aa335b6040516001600160a01b03909116815260200160405180910390a1565b6001600160a01b038281166000818152600960208181526040808420805485845282862054949093528787166001600160a01b03198416811790915590519190951694919391928592917f3134e8a2e6d97e929a7e54011ea5485d7d196dd5f0ba4d4ef95803e8e3fc257f9190a4612bd7828483613a0b565b600063ffffffff82111561356d5760405162461bcd60e51b815260206004820152602660248201527f53616665436173743a2076616c756520646f65736e27742066697420696e203360448201526532206269747360d01b6064820152608401610ed2565b5090565b613579612ec1565b600d805460ff191660011790557f62e78cea01bee320cd4e420270b5ea74000d11b0c9f74754ebdbfc544b05a2586134723390565b606060ff83146135c8576135c183613b48565b9050610b6f565b8180546135d490614c2d565b80601f016020809104026020016040519081016040528092919081815260200182805461360090614c2d565b801561364d5780601f106136225761010080835404028352916020019161364d565b820191906000526020600020905b81548152906001019060200180831161363057829003601f168201915b50505050509050610b6f565b600065ffffffffffff82111561356d5760405162461bcd60e51b815260206004820152602660248201527f53616665436173743a2076616c756520646f65736e27742066697420696e203460448201526538206269747360d01b6064820152608401610ed2565b6040516001600160a01b0380851660248301528316604482015260648101829052612bd79085906323b872dd60e01b906084015b60408051601f198184030181529190526020810180516001600160e01b03166001600160e01b031990931692909217909152613b87565b6002600e540361377d5760405162461bcd60e51b815260206004820152601f60248201527f5265656e7472616e637947756172643a207265656e7472616e742063616c6c006044820152606401610ed2565b6002600e55565b6040516001600160a01b038316602482015260448101829052610e2f90849063a9059cbb60e01b906064016136f4565b6000610b6f6137c16131c2565b8360405161190160f01b8152600281019290925260228201526042902090565b60008060006137f287878787613c5c565b915091506137ff81613d20565b5090505b949350505050565b6001600160a01b0381166000908152600760205260409020805460018101825590612317565b610ee58282613e6a565b6138458282611bb5565b610ee55761385281613ef4565b61385d836020613f06565b60405160200161386e929190614d50565b60408051601f198184030181529082905262461bcd60e51b8252610ed29160040161479e565b61389e82826140a2565b612bd7600b612d87836141e7565b610e2f612ec1565b610e2f83838361435c565b6000816000036138d157506000919050565b600060016138de8461438e565b901c6001901b905060018184816138f7576138f7614cd0565b048201901c9050600181848161390f5761390f614cd0565b048201901c9050600181848161392757613927614cd0565b048201901c9050600181848161393f5761393f614cd0565b048201901c9050600181848161395757613957614cd0565b048201901c9050600181848161396f5761396f614cd0565b048201901c9050600181848161398757613987614cd0565b048201901c9050610f89818285816139a1576139a1614cd0565b04614422565b60006139b66002848418614ce6565b610f8990848416614c90565b600d5460ff16612f075760405162461bcd60e51b815260206004820152601460248201527314185d5cd8589b194e881b9bdd081c185d5cd95960621b6044820152606401610ed2565b816001600160a01b0316836001600160a01b031614158015613a2d5750600081115b15610e2f576001600160a01b03831615613abb576001600160a01b0383166000908152600a602052604081208190613a6890612d87856141e7565b91509150846001600160a01b03167fdec2bacdd2f05b59de34da9b523dff8be42e5e38e818c82fdb0bae774387a7248383604051613ab0929190918252602082015260400190565b60405180910390a250505b6001600160a01b03821615610e2f576001600160a01b0382166000908152600a602052604081208190613af190612d7b856141e7565b91509150836001600160a01b03167fdec2bacdd2f05b59de34da9b523dff8be42e5e38e818c82fdb0bae774387a7248383604051613b39929190918252602082015260400190565b60405180910390a25050505050565b60606000613b5583614438565b604080516020808252818301909252919250600091906020820181803683375050509182525060208101929092525090565b6000613bdc826040518060400160405280602081526020017f5361666545524332303a206c6f772d6c6576656c2063616c6c206661696c6564815250856001600160a01b03166144609092919063ffffffff16565b9050805160001480613bfd575080806020019051810190613bfd9190614dc5565b610e2f5760405162461bcd60e51b815260206004820152602a60248201527f5361666545524332303a204552433230206f7065726174696f6e20646964206e6044820152691bdd081cdd58d8d9595960b21b6064820152608401610ed2565b6000807f7fffffffffffffffffffffffffffffff5d576e7357a4501ddfe92f46681b20a0831115613c935750600090506003613d17565b6040805160008082526020820180845289905260ff881692820192909252606081018690526080810185905260019060a0016020604051602081039080840390855afa158015613ce7573d6000803e3d6000fd5b5050604051601f1901519150506001600160a01b038116613d1057600060019250925050613d17565b9150600090505b94509492505050565b6000816004811115613d3457613d34614ca3565b03613d3c5750565b6001816004811115613d5057613d50614ca3565b03613d9d5760405162461bcd60e51b815260206004820152601860248201527f45434453413a20696e76616c6964207369676e617475726500000000000000006044820152606401610ed2565b6002816004811115613db157613db1614ca3565b03613dfe5760405162461bcd60e51b815260206004820152601f60248201527f45434453413a20696e76616c6964207369676e6174757265206c656e677468006044820152606401610ed2565b6003816004811115613e1257613e12614ca3565b03610fc25760405162461bcd60e51b815260206004820152602260248201527f45434453413a20696e76616c6964207369676e6174757265202773272076616c604482015261756560f01b6064820152608401610ed2565b613e74828261446f565b6002546001600160e01b031015613ee65760405162461bcd60e51b815260206004820152603060248201527f4552433230566f7465733a20746f74616c20737570706c79207269736b73206f60448201526f766572666c6f77696e6720766f74657360801b6064820152608401610ed2565b612bd7600b612d7b836141e7565b6060610b6f6001600160a01b03831660145b60606000613f15836002614cb9565b613f20906002614c90565b67ffffffffffffffff811115613f3857613f38614812565b6040519080825280601f01601f191660200182016040528015613f62576020820181803683370190505b509050600360fc1b81600081518110613f7d57613f7d614d3a565b60200101906001600160f81b031916908160001a905350600f60fb1b81600181518110613fac57613fac614d3a565b60200101906001600160f81b031916908160001a9053506000613fd0846002614cb9565b613fdb906001614c90565b90505b6001811115614053576f181899199a1a9b1b9c1cb0b131b232b360811b85600f166010811061400f5761400f614d3a565b1a60f81b82828151811061402557614025614d3a565b60200101906001600160f81b031916908160001a90535060049490941c9361404c81614de7565b9050613fde565b508315610f895760405162461bcd60e51b815260206004820181905260248201527f537472696e67733a20686578206c656e67746820696e73756666696369656e746044820152606401610ed2565b6001600160a01b0382166141025760405162461bcd60e51b815260206004820152602160248201527f45524332303a206275726e2066726f6d20746865207a65726f206164647265736044820152607360f81b6064820152608401610ed2565b61410e826000836138ac565b6001600160a01b038216600090815260208190526040902054818110156141825760405162461bcd60e51b815260206004820152602260248201527f45524332303a206275726e20616d6f756e7420657863656564732062616c616e604482015261636560f01b6064820152608401610ed2565b6001600160a01b0383166000818152602081815260408083208686039055600280548790039055518581529192917fddf252ad1be2c89b69c2b068fc378daa952ba7f163c4a11628f55a4df523b3ef910160405180910390a3610e2f836000846138b4565b825460009081908181156142345760008781526020902082016000190160408051808201909152905463ffffffff8116825264010000000090046001600160e01b03166020820152614249565b60408051808201909152600080825260208201525b905080602001516001600160e01b0316935061426984868863ffffffff16565b9250600082118015614293575061427e611be0565b65ffffffffffff16816000015163ffffffff16145b156142d8576142a183614542565b60008881526020902083016000190180546001600160e01b03929092166401000000000263ffffffff909216919091179055614352565b8660405180604001604052806142fc6142ef611be0565b65ffffffffffff16613508565b63ffffffff16815260200161431086614542565b6001600160e01b0390811690915282546001810184556000938452602093849020835194909301519091166401000000000263ffffffff909316929092179101555b5050935093915050565b6001600160a01b03838116600090815260096020526040808220548584168352912054610e2f92918216911683613a0b565b600080608083901c156143a357608092831c92015b604083901c156143b557604092831c92015b602083901c156143c757602092831c92015b601083901c156143d957601092831c92015b600883901c156143eb57600892831c92015b600483901c156143fd57600492831c92015b600283901c1561440f57600292831c92015b600183901c15610b6f5760010192915050565b60008183106144315781610f89565b5090919050565b600060ff8216601f811115610b6f57604051632cd44ac360e21b815260040160405180910390fd5b606061380384846000856145ab565b6001600160a01b0382166144c55760405162461bcd60e51b815260206004820152601f60248201527f45524332303a206d696e7420746f20746865207a65726f2061646472657373006044820152606401610ed2565b6144d1600083836138ac565b80600260008282546144e39190614c90565b90915550506001600160a01b038216600081815260208181526040808320805486019055518481527fddf252ad1be2c89b69c2b068fc378daa952ba7f163c4a11628f55a4df523b3ef910160405180910390a3610ee5600083836138b4565b60006001600160e01b0382111561356d5760405162461bcd60e51b815260206004820152602760248201527f53616665436173743a2076616c756520646f65736e27742066697420696e20326044820152663234206269747360c81b6064820152608401610ed2565b60608247101561460c5760405162461bcd60e51b815260206004820152602660248201527f416464726573733a20696e73756666696369656e742062616c616e636520666f6044820152651c8818d85b1b60d21b6064820152608401610ed2565b600080866001600160a01b031685876040516146289190614dfe565b60006040518083038185875af1925050503d8060008114614665576040519150601f19603f3d011682016040523d82523d6000602084013e61466a565b606091505b509150915061467b87838387614686565b979650505050505050565b606083156146f55782516000036146ee576001600160a01b0385163b6146ee5760405162461bcd60e51b815260206004820152601d60248201527f416464726573733a2063616c6c20746f206e6f6e2d636f6e74726163740000006044820152606401610ed2565b5081613803565b613803838381511561470a5781518083602001fd5b8060405162461bcd60e51b8152600401610ed2919061479e565b60006020828403121561473657600080fd5b81356001600160e01b031981168114610f8957600080fd5b60005b83811015614769578181015183820152602001614751565b50506000910152565b6000815180845261478a81602086016020860161474e565b601f01601f19169290920160200192915050565b602081526000610f896020830184614772565b80356001600160a01b03811681146147c857600080fd5b919050565b600080604083850312156147e057600080fd5b6147e9836147b1565b946020939093013593505050565b60006020828403121561480957600080fd5b610f89826147b1565b634e487b7160e01b600052604160045260246000fd5b600082601f83011261483957600080fd5b813567ffffffffffffffff81111561485357614853614812565b604051601f8201601f19908116603f0116810167ffffffffffffffff8111828210171561488257614882614812565b60405281815283820160200185101561489a57600080fd5b816020850160208301376000918101602001919091529392505050565b6000806000606084860312156148cc57600080fd5b6148d5846147b1565b925060208401359150604084013567ffffffffffffffff8111156148f857600080fd5b61490486828701614828565b9150509250925092565b60008060006060848603121561492357600080fd5b61492c846147b1565b925061493a602085016147b1565b929592945050506040919091013590565b60006020828403121561495d57600080fd5b5035919050565b6000806040838503121561497757600080fd5b82359150614987602084016147b1565b90509250929050565b8035600381106147c857600080fd5b6000602082840312156149b157600080fd5b610f8982614990565b60ff60f81b8816815260e0602082015260006149d960e0830189614772565b82810360408401526149eb8189614772565b606084018890526001600160a01b038716608085015260a0840186905283810360c08501528451808252602080870193509091019060005b81811015614a41578351835260209384019390920191600101614a23565b50909b9a5050505050505050505050565b60008060408385031215614a6557600080fd5b6147e983614990565b600080600060608486031215614a8357600080fd5b61492c84614990565b803560ff811681146147c857600080fd5b60008060008060008060c08789031215614ab657600080fd5b614abf876147b1565b95506020870135945060408701359350614adb60608801614a8c565b9598949750929560808101359460a0909101359350915050565b60008060408385031215614b0857600080fd5b614b1183614990565b9150614987602084016147b1565b600080600080600080600060e0888a031215614b3a57600080fd5b614b43886147b1565b9650614b51602089016147b1565b95506040880135945060608801359350614b6d60808901614a8c565b9699959850939692959460a0840135945060c09093013592915050565b60008060408385031215614b9d57600080fd5b614b11836147b1565b60008060408385031215614bb957600080fd5b82359150602083013567ffffffffffffffff811115614bd757600080fd5b614be385828601614828565b9150509250929050565b60008060408385031215614c0057600080fd5b614c09836147b1565b9150602083013563ffffffff81168114614c2257600080fd5b809150509250929050565b600181811c90821680614c4157607f821691505b60208210810361231757634e487b7160e01b600052602260045260246000fd5b8281526040602082015260006138036040830184614772565b634e487b7160e01b600052601160045260246000fd5b80820180821115610b6f57610b6f614c7a565b634e487b7160e01b600052602160045260246000fd5b8082028115828204841417610b6f57610b6f614c7a565b634e487b7160e01b600052601260045260246000fd5b600082614d0357634e487b7160e01b600052601260045260246000fd5b500490565b81810381811115610b6f57610b6f614c7a565b600060ff821660ff8103614d3157614d31614c7a565b60010192915050565b634e487b7160e01b600052603260045260246000fd5b7f416363657373436f6e74726f6c3a206163636f756e7420000000000000000000815260008351614d8881601785016020880161474e565b7001034b99036b4b9b9b4b733903937b6329607d1b6017918401918201528351614db981602884016020880161474e565b01602801949350505050565b600060208284031215614dd757600080fd5b81518015158114610f8957600080fd5b600081614df657614df6614c7a565b506000190190565b60008251614e1081846020870161474e565b919091019291505056feaa9060660dc3e52152ec6c4cd87f38f5433d3e2246058f23a29463ea3247681771840dc4906352362b0cdaf79870196c8e42acafade72d5d5a6d59291253ceb14c845bd8367732455594e4267d2660f9c3f2cbb53288e8c2f3ec69276e9a440a19e5b431dfee30e2d7771ba34e71a31e755842e2a5d6e335660bdf63d362ede3a264697066735822122021d3ac9a55dd21ede61c397a8f53eeda38e35b03d99171d5b45879ad5f71050764736f6c634300081c0033dec2bacdd2f05b59de34da9b523dff8be42e5e38e818c82fdb0bae774387a724","opcodes":"PUSH2 0x160 PUSH1 0x40 MSTORE CALLVALUE DUP1 ISZERO PUSH2 0x11 JUMPI PUSH1 0x0 DUP1 REVERT JUMPDEST POP PUSH1 0x40 MLOAD PUSH2 0x5F61 CODESIZE SUB DUP1 PUSH2 0x5F61 DUP4 CODECOPY DUP2 ADD PUSH1 0x40 DUP2 SWAP1 MSTORE PUSH2 0x30 SWAP2 PUSH2 0xD3F JUMP JUMPDEST PUSH1 0x40 DUP1 MLOAD DUP1 DUP3 ADD SWAP1 SWAP2 MSTORE PUSH1 0x1 DUP2 MSTORE PUSH1 0x31 PUSH1 0xF8 SHL PUSH1 0x20 DUP3 ADD MSTORE DUP9 SWAP1 DUP2 SWAP1 DUP2 DUP11 PUSH1 0x3 PUSH2 0x5A DUP4 DUP3 PUSH2 0xE8D JUMP JUMPDEST POP PUSH1 0x4 PUSH2 0x67 DUP3 DUP3 PUSH2 0xE8D JUMP JUMPDEST POP PUSH2 0x77 SWAP2 POP DUP4 SWAP1 POP PUSH1 0x5 PUSH2 0x3C5 JUMP JUMPDEST PUSH2 0x120 MSTORE PUSH2 0x86 DUP2 PUSH1 0x6 PUSH2 0x3C5 JUMP JUMPDEST PUSH2 0x140 MSTORE DUP2 MLOAD PUSH1 0x20 DUP1 DUP5 ADD SWAP2 SWAP1 SWAP2 KECCAK256 PUSH1 0xE0 MSTORE DUP2 MLOAD SWAP1 DUP3 ADD KECCAK256 PUSH2 0x100 MSTORE CHAINID PUSH1 0xA0 MSTORE PUSH2 0x113 PUSH1 0xE0 MLOAD PUSH2 0x100 MLOAD PUSH1 0x40 DUP1 MLOAD PUSH32 0x8B73C3C69BB8FE3D512ECC4CF759CC79239F7B179B0FFACAA9A75D522B39400F PUSH1 0x20 DUP3 ADD MSTORE SWAP1 DUP2 ADD SWAP3 SWAP1 SWAP3 MSTORE PUSH1 0x60 DUP3 ADD MSTORE CHAINID PUSH1 0x80 DUP3 ADD MSTORE ADDRESS PUSH1 0xA0 DUP3 ADD MSTORE PUSH1 0x0 SWAP1 PUSH1 0xC0 ADD PUSH1 0x40 MLOAD PUSH1 0x20 DUP2 DUP4 SUB SUB DUP2 MSTORE SWAP1 PUSH1 0x40 MSTORE DUP1 MLOAD SWAP1 PUSH1 0x20 ADD KECCAK256 SWAP1 POP SWAP1 JUMP JUMPDEST PUSH1 0x80 MSTORE POP POP ADDRESS PUSH1 0xC0 MSTORE POP PUSH1 0xD DUP1 SLOAD PUSH1 0xFF NOT AND SWAP1 SSTORE PUSH1 0x1 PUSH1 0xE SSTORE PUSH1 0x1 PUSH1 0x1 PUSH1 0xA0 SHL SUB DUP7 AND ISZERO DUP1 PUSH2 0x149 JUMPI POP PUSH1 0x1 PUSH1 0x1 PUSH1 0xA0 SHL SUB DUP6 AND ISZERO JUMPDEST DUP1 PUSH2 0x15B JUMPI POP PUSH1 0x1 PUSH1 0x1 PUSH1 0xA0 SHL SUB DUP5 AND ISZERO JUMPDEST DUP1 PUSH2 0x16D JUMPI POP PUSH1 0x1 PUSH1 0x1 PUSH1 0xA0 SHL SUB DUP4 AND ISZERO JUMPDEST DUP1 PUSH2 0x17F JUMPI POP PUSH1 0x1 PUSH1 0x1 PUSH1 0xA0 SHL SUB DUP3 AND ISZERO JUMPDEST DUP1 PUSH2 0x191 JUMPI POP PUSH1 0x1 PUSH1 0x1 PUSH1 0xA0 SHL SUB DUP2 AND ISZERO JUMPDEST ISZERO PUSH2 0x1AF JUMPI PUSH1 0x40 MLOAD PUSH4 0xD92E233D PUSH1 0xE0 SHL DUP2 MSTORE PUSH1 0x4 ADD PUSH1 0x40 MLOAD DUP1 SWAP2 SUB SWAP1 REVERT JUMPDEST PUSH1 0xF DUP1 SLOAD PUSH1 0x1 PUSH1 0x1 PUSH1 0xA0 SHL SUB NOT SWAP1 DUP2 AND PUSH1 0x1 PUSH1 0x1 PUSH1 0xA0 SHL SUB DUP10 DUP2 AND SWAP2 SWAP1 SWAP2 OR SWAP1 SWAP3 SSTORE PUSH1 0x10 DUP1 SLOAD DUP3 AND DUP9 DUP5 AND OR SWAP1 SSTORE PUSH1 0x11 DUP1 SLOAD DUP3 AND DUP8 DUP5 AND OR SWAP1 SSTORE PUSH1 0x12 DUP1 SLOAD DUP3 AND DUP7 DUP5 AND OR SWAP1 SSTORE PUSH1 0x13 DUP1 SLOAD SWAP1 SWAP2 AND SWAP2 DUP5 AND SWAP2 SWAP1 SWAP2 OR SWAP1 SSTORE PUSH1 0x14 PUSH1 0x20 MSTORE PUSH2 0x1388 PUSH32 0x4F26C3876AA9F4B92579780BEEA1161A61F87EBF1EC6EE865B299E447ECBA9A0 SSTORE PUSH2 0xBB8 PUSH32 0xB6C61A840592CC84133E4B25BD509ABF4659307C57B160799B38490A5AA48F30 SSTORE PUSH1 0x2 PUSH1 0x0 SWAP1 DUP2 MSTORE PUSH2 0x7D0 PUSH32 0xA1930AA930426C54C34DAAD2B9ADA7C5D0EF0C96078A3C5BB79F6FA6602C4A7E SSTORE PUSH2 0x28A SWAP1 DUP3 PUSH2 0x3F8 JUMP JUMPDEST PUSH2 0x2B4 PUSH32 0x9F2DF0FED2C77648DE5860A4CC508CD0818C85B8B8A1AB4CEEEF8D981C8956A6 DUP3 PUSH2 0x3F8 JUMP JUMPDEST PUSH2 0x2DE PUSH32 0x3C11D16CBAFFD01DF69CE1C404F6340EE057498F5F00246190EA54220576A848 DUP3 PUSH2 0x3F8 JUMP JUMPDEST PUSH2 0x308 PUSH32 0x65D7A28E3265B37A6474929F336521B332C1681B933F6CB9F3376673440D862A DUP3 PUSH2 0x3F8 JUMP JUMPDEST PUSH2 0x332 PUSH32 0xAA9060660DC3E52152EC6C4CD87F38F5433D3E2246058F23A29463EA32476817 DUP3 PUSH2 0x3F8 JUMP JUMPDEST PUSH2 0x35C PUSH32 0x4C845BD8367732455594E4267D2660F9C3F2CBB53288E8C2F3EC69276E9A440A DUP4 PUSH2 0x3F8 JUMP JUMPDEST PUSH2 0x386 PUSH32 0x71840DC4906352362B0CDAF79870196C8E42ACAFADE72D5D5A6D59291253CEB1 DUP3 PUSH2 0x3F8 JUMP JUMPDEST PUSH2 0x3B0 PUSH32 0xACF805600123EF007091DA3B3FFB39474074C656C127AA68CB0FFEC232A8FF8 DUP3 PUSH2 0x3F8 JUMP JUMPDEST PUSH2 0x3B8 PUSH2 0x49B JUMP JUMPDEST POP POP POP POP POP POP POP POP PUSH2 0x1017 JUMP JUMPDEST PUSH1 0x0 PUSH1 0x20 DUP4 MLOAD LT ISZERO PUSH2 0x3E1 JUMPI PUSH2 0x3DA DUP4 PUSH2 0x5EE JUMP JUMPDEST SWAP1 POP PUSH2 0x3F2 JUMP JUMPDEST DUP2 PUSH2 0x3EC DUP5 DUP3 PUSH2 0xE8D JUMP JUMPDEST POP PUSH1 0xFF SWAP1 POP JUMPDEST SWAP3 SWAP2 POP POP JUMP JUMPDEST PUSH1 0x0 DUP3 DUP2 MSTORE PUSH1 0xC PUSH1 0x20 SWAP1 DUP2 MSTORE PUSH1 0x40 DUP1 DUP4 KECCAK256 PUSH1 0x1 PUSH1 0x1 PUSH1 0xA0 SHL SUB DUP6 AND DUP5 MSTORE SWAP1 SWAP2 MSTORE SWAP1 KECCAK256 SLOAD PUSH1 0xFF AND PUSH2 0x497 JUMPI PUSH1 0x0 DUP3 DUP2 MSTORE PUSH1 0xC PUSH1 0x20 SWAP1 DUP2 MSTORE PUSH1 0x40 DUP1 DUP4 KECCAK256 PUSH1 0x1 PUSH1 0x1 PUSH1 0xA0 SHL SUB DUP6 AND DUP5 MSTORE SWAP1 SWAP2 MSTORE SWAP1 KECCAK256 DUP1 SLOAD PUSH1 0xFF NOT AND PUSH1 0x1 OR SWAP1 SSTORE PUSH2 0x456 CALLER SWAP1 JUMP JUMPDEST PUSH1 0x1 PUSH1 0x1 PUSH1 0xA0 SHL SUB AND DUP2 PUSH1 0x1 PUSH1 0x1 PUSH1 0xA0 SHL SUB AND DUP4 PUSH32 0x2F8788117E7EFF1D82E926EC794901D17C78024A50270940304540A733656F0D PUSH1 0x40 MLOAD PUSH1 0x40 MLOAD DUP1 SWAP2 SUB SWAP1 LOG4 JUMPDEST POP POP JUMP JUMPDEST PUSH1 0x0 PUSH2 0x2710 PUSH2 0x4B8 PUSH2 0x1388 PUSH12 0x19D971E4FE8401E74000000 PUSH2 0xF61 JUMP JUMPDEST PUSH2 0x4C2 SWAP2 SWAP1 PUSH2 0xF78 JUMP JUMPDEST SWAP1 POP PUSH1 0x0 PUSH2 0x2710 PUSH2 0x4E1 PUSH2 0x9C4 PUSH12 0x19D971E4FE8401E74000000 PUSH2 0xF61 JUMP JUMPDEST PUSH2 0x4EB SWAP2 SWAP1 PUSH2 0xF78 JUMP JUMPDEST SWAP1 POP PUSH1 0x0 PUSH2 0x2710 PUSH2 0x50A PUSH2 0x5DC PUSH12 0x19D971E4FE8401E74000000 PUSH2 0xF61 JUMP JUMPDEST PUSH2 0x514 SWAP2 SWAP1 PUSH2 0xF78 JUMP JUMPDEST SWAP1 POP PUSH1 0x0 PUSH2 0x2710 PUSH2 0x533 PUSH2 0x3E8 PUSH12 0x19D971E4FE8401E74000000 PUSH2 0xF61 JUMP JUMPDEST PUSH2 0x53D SWAP2 SWAP1 PUSH2 0xF78 JUMP JUMPDEST SWAP1 POP PUSH1 0x0 DUP2 DUP4 PUSH2 0x54D DUP7 DUP9 PUSH2 0xF9A JUMP JUMPDEST PUSH2 0x557 SWAP2 SWAP1 PUSH2 0xF9A JUMP JUMPDEST PUSH2 0x561 SWAP2 SWAP1 PUSH2 0xF9A JUMP JUMPDEST SWAP1 POP PUSH12 0x19D971E4FE8401E74000000 DUP2 EQ PUSH2 0x58F JUMPI PUSH1 0x40 MLOAD PUSH4 0xD16B833 PUSH1 0xE3 SHL DUP2 MSTORE PUSH1 0x4 ADD PUSH1 0x40 MLOAD DUP1 SWAP2 SUB SWAP1 REVERT JUMPDEST PUSH1 0xF SLOAD PUSH2 0x5A5 SWAP1 PUSH1 0x1 PUSH1 0x1 PUSH1 0xA0 SHL SUB AND DUP7 PUSH2 0x635 JUMP JUMPDEST PUSH1 0x10 SLOAD PUSH2 0x5BB SWAP1 PUSH1 0x1 PUSH1 0x1 PUSH1 0xA0 SHL SUB AND DUP6 PUSH2 0x635 JUMP JUMPDEST PUSH1 0x11 SLOAD PUSH2 0x5D1 SWAP1 PUSH1 0x1 PUSH1 0x1 PUSH1 0xA0 SHL SUB AND DUP5 PUSH2 0x635 JUMP JUMPDEST PUSH1 0x12 SLOAD PUSH2 0x5E7 SWAP1 PUSH1 0x1 PUSH1 0x1 PUSH1 0xA0 SHL SUB AND DUP4 PUSH2 0x635 JUMP JUMPDEST POP POP POP POP POP JUMP JUMPDEST PUSH1 0x0 DUP1 DUP3 SWAP1 POP PUSH1 0x1F DUP2 MLOAD GT ISZERO PUSH2 0x622 JUMPI DUP3 PUSH1 0x40 MLOAD PUSH4 0x305A27A9 PUSH1 0xE0 SHL DUP2 MSTORE PUSH1 0x4 ADD PUSH2 0x619 SWAP2 SWAP1 PUSH2 0xFAD JUMP JUMPDEST PUSH1 0x40 MLOAD DUP1 SWAP2 SUB SWAP1 REVERT JUMPDEST DUP1 MLOAD PUSH2 0x62D DUP3 PUSH2 0xFE0 JUMP JUMPDEST OR SWAP4 SWAP3 POP POP POP JUMP JUMPDEST PUSH2 0x497 DUP3 DUP3 PUSH2 0x644 DUP3 DUP3 PUSH2 0x6D8 JUMP JUMPDEST PUSH1 0x1 PUSH1 0x1 PUSH1 0xE0 SHL SUB PUSH2 0x656 PUSH2 0x7AB DUP3 AND JUMP JUMPDEST GT ISZERO PUSH2 0x6BD JUMPI PUSH1 0x40 MLOAD PUSH3 0x461BCD PUSH1 0xE5 SHL DUP2 MSTORE PUSH1 0x20 PUSH1 0x4 DUP3 ADD MSTORE PUSH1 0x30 PUSH1 0x24 DUP3 ADD MSTORE PUSH32 0x4552433230566F7465733A20746F74616C20737570706C79207269736B73206F PUSH1 0x44 DUP3 ADD MSTORE PUSH16 0x766572666C6F77696E6720766F746573 PUSH1 0x80 SHL PUSH1 0x64 DUP3 ADD MSTORE PUSH1 0x84 ADD PUSH2 0x619 JUMP JUMPDEST PUSH2 0x6D2 PUSH1 0xB PUSH2 0x2D7B PUSH2 0x7B1 PUSH1 0x20 SHL OR DUP4 PUSH2 0x7C4 JUMP JUMPDEST POP POP POP POP JUMP JUMPDEST PUSH1 0x1 PUSH1 0x1 PUSH1 0xA0 SHL SUB DUP3 AND PUSH2 0x72E JUMPI PUSH1 0x40 MLOAD PUSH3 0x461BCD PUSH1 0xE5 SHL DUP2 MSTORE PUSH1 0x20 PUSH1 0x4 DUP3 ADD MSTORE PUSH1 0x1F PUSH1 0x24 DUP3 ADD MSTORE PUSH32 0x45524332303A206D696E7420746F20746865207A65726F206164647265737300 PUSH1 0x44 DUP3 ADD MSTORE PUSH1 0x64 ADD PUSH2 0x619 JUMP JUMPDEST PUSH2 0x73A PUSH1 0x0 DUP4 DUP4 PUSH2 0x93C JUMP JUMPDEST DUP1 PUSH1 0x2 PUSH1 0x0 DUP3 DUP3 SLOAD PUSH2 0x74C SWAP2 SWAP1 PUSH2 0xF9A JUMP JUMPDEST SWAP1 SWAP2 SSTORE POP POP PUSH1 0x1 PUSH1 0x1 PUSH1 0xA0 SHL SUB DUP3 AND PUSH1 0x0 DUP2 DUP2 MSTORE PUSH1 0x20 DUP2 DUP2 MSTORE PUSH1 0x40 DUP1 DUP4 KECCAK256 DUP1 SLOAD DUP7 ADD SWAP1 SSTORE MLOAD DUP5 DUP2 MSTORE PUSH32 0xDDF252AD1BE2C89B69C2B068FC378DAA952BA7F163C4A11628F55A4DF523B3EF SWAP2 ADD PUSH1 0x40 MLOAD DUP1 SWAP2 SUB SWAP1 LOG3 PUSH2 0x497 PUSH1 0x0 DUP4 DUP4 PUSH2 0x95B JUMP JUMPDEST PUSH1 0x2 SLOAD SWAP1 JUMP JUMPDEST PUSH1 0x0 PUSH2 0x7BD DUP3 DUP5 PUSH2 0xF9A JUMP JUMPDEST SWAP4 SWAP3 POP POP POP JUMP JUMPDEST DUP3 SLOAD PUSH1 0x0 SWAP1 DUP2 SWAP1 DUP2 DUP2 ISZERO PUSH2 0x811 JUMPI PUSH1 0x0 DUP8 DUP2 MSTORE PUSH1 0x20 SWAP1 KECCAK256 DUP3 ADD PUSH1 0x0 NOT ADD PUSH1 0x40 DUP1 MLOAD DUP1 DUP3 ADD SWAP1 SWAP2 MSTORE SWAP1 SLOAD PUSH4 0xFFFFFFFF DUP2 AND DUP3 MSTORE PUSH5 0x100000000 SWAP1 DIV PUSH1 0x1 PUSH1 0x1 PUSH1 0xE0 SHL SUB AND PUSH1 0x20 DUP3 ADD MSTORE PUSH2 0x826 JUMP JUMPDEST PUSH1 0x40 DUP1 MLOAD DUP1 DUP3 ADD SWAP1 SWAP2 MSTORE PUSH1 0x0 DUP1 DUP3 MSTORE PUSH1 0x20 DUP3 ADD MSTORE JUMPDEST SWAP1 POP DUP1 PUSH1 0x20 ADD MLOAD PUSH1 0x1 PUSH1 0x1 PUSH1 0xE0 SHL SUB AND SWAP4 POP PUSH2 0x843 DUP5 DUP7 DUP9 PUSH1 0x20 SHR JUMP JUMPDEST SWAP3 POP PUSH1 0x0 DUP3 GT DUP1 ISZERO PUSH2 0x86D JUMPI POP PUSH2 0x858 PUSH2 0x966 JUMP JUMPDEST PUSH6 0xFFFFFFFFFFFF AND DUP2 PUSH1 0x0 ADD MLOAD PUSH4 0xFFFFFFFF AND EQ JUMPDEST ISZERO PUSH2 0x8B2 JUMPI PUSH2 0x87B DUP4 PUSH2 0x976 JUMP JUMPDEST PUSH1 0x0 DUP9 DUP2 MSTORE PUSH1 0x20 SWAP1 KECCAK256 DUP4 ADD PUSH1 0x0 NOT ADD DUP1 SLOAD PUSH1 0x1 PUSH1 0x1 PUSH1 0xE0 SHL SUB SWAP3 SWAP1 SWAP3 AND PUSH5 0x100000000 MUL PUSH4 0xFFFFFFFF SWAP1 SWAP3 AND SWAP2 SWAP1 SWAP2 OR SWAP1 SSTORE PUSH2 0x932 JUMP JUMPDEST DUP7 PUSH1 0x40 MLOAD DUP1 PUSH1 0x40 ADD PUSH1 0x40 MSTORE DUP1 PUSH2 0x8DC PUSH2 0x8CF PUSH2 0x966 PUSH1 0x20 SHL PUSH1 0x20 SHR JUMP JUMPDEST PUSH6 0xFFFFFFFFFFFF AND PUSH2 0x9E3 JUMP JUMPDEST PUSH4 0xFFFFFFFF AND DUP2 MSTORE PUSH1 0x20 ADD PUSH2 0x8F0 DUP7 PUSH2 0x976 JUMP JUMPDEST PUSH1 0x1 PUSH1 0x1 PUSH1 0xE0 SHL SUB SWAP1 DUP2 AND SWAP1 SWAP2 MSTORE DUP3 SLOAD PUSH1 0x1 DUP2 ADD DUP5 SSTORE PUSH1 0x0 SWAP4 DUP5 MSTORE PUSH1 0x20 SWAP4 DUP5 SWAP1 KECCAK256 DUP4 MLOAD SWAP5 SWAP1 SWAP4 ADD MLOAD SWAP1 SWAP2 AND PUSH5 0x100000000 MUL PUSH4 0xFFFFFFFF SWAP1 SWAP4 AND SWAP3 SWAP1 SWAP3 OR SWAP2 ADD SSTORE JUMPDEST POP POP SWAP4 POP SWAP4 SWAP2 POP POP JUMP JUMPDEST PUSH2 0x944 PUSH2 0xA48 JUMP JUMPDEST PUSH2 0x956 DUP4 DUP4 DUP4 PUSH1 0x1 PUSH1 0x1 PUSH1 0xE0 SHL SUB DUP5 AND JUMP JUMPDEST POP POP POP JUMP JUMPDEST PUSH2 0x956 DUP4 DUP4 DUP4 PUSH2 0xA90 JUMP JUMPDEST PUSH1 0x0 PUSH2 0x971 NUMBER PUSH2 0xAC2 JUMP JUMPDEST SWAP1 POP SWAP1 JUMP JUMPDEST PUSH1 0x0 PUSH1 0x1 PUSH1 0x1 PUSH1 0xE0 SHL SUB DUP3 GT ISZERO PUSH2 0x9DF JUMPI PUSH1 0x40 MLOAD PUSH3 0x461BCD PUSH1 0xE5 SHL DUP2 MSTORE PUSH1 0x20 PUSH1 0x4 DUP3 ADD MSTORE PUSH1 0x27 PUSH1 0x24 DUP3 ADD MSTORE PUSH32 0x53616665436173743A2076616C756520646F65736E27742066697420696E2032 PUSH1 0x44 DUP3 ADD MSTORE PUSH7 0x32342062697473 PUSH1 0xC8 SHL PUSH1 0x64 DUP3 ADD MSTORE PUSH1 0x84 ADD PUSH2 0x619 JUMP JUMPDEST POP SWAP1 JUMP JUMPDEST PUSH1 0x0 PUSH4 0xFFFFFFFF DUP3 GT ISZERO PUSH2 0x9DF JUMPI PUSH1 0x40 MLOAD PUSH3 0x461BCD PUSH1 0xE5 SHL DUP2 MSTORE PUSH1 0x20 PUSH1 0x4 DUP3 ADD MSTORE PUSH1 0x26 PUSH1 0x24 DUP3 ADD MSTORE PUSH32 0x53616665436173743A2076616C756520646F65736E27742066697420696E2033 PUSH1 0x44 DUP3 ADD MSTORE PUSH6 0x322062697473 PUSH1 0xD0 SHL PUSH1 0x64 DUP3 ADD MSTORE PUSH1 0x84 ADD PUSH2 0x619 JUMP JUMPDEST PUSH1 0xD SLOAD PUSH1 0xFF AND ISZERO PUSH2 0xA8E JUMPI PUSH1 0x40 MLOAD PUSH3 0x461BCD PUSH1 0xE5 SHL DUP2 MSTORE PUSH1 0x20 PUSH1 0x4 DUP3 ADD MSTORE PUSH1 0x10 PUSH1 0x24 DUP3 ADD MSTORE PUSH16 0x14185D5CD8589B194E881C185D5CD959 PUSH1 0x82 SHL PUSH1 0x44 DUP3 ADD MSTORE PUSH1 0x64 ADD PUSH2 0x619 JUMP JUMPDEST JUMP JUMPDEST PUSH1 0x1 PUSH1 0x1 PUSH1 0xA0 SHL SUB DUP4 DUP2 AND PUSH1 0x0 SWAP1 DUP2 MSTORE PUSH1 0x9 PUSH1 0x20 MSTORE PUSH1 0x40 DUP1 DUP3 KECCAK256 SLOAD DUP6 DUP5 AND DUP4 MSTORE SWAP2 KECCAK256 SLOAD PUSH2 0x956 SWAP3 SWAP2 DUP3 AND SWAP2 AND DUP4 PUSH2 0xB29 JUMP JUMPDEST PUSH1 0x0 PUSH6 0xFFFFFFFFFFFF DUP3 GT ISZERO PUSH2 0x9DF JUMPI PUSH1 0x40 MLOAD PUSH3 0x461BCD PUSH1 0xE5 SHL DUP2 MSTORE PUSH1 0x20 PUSH1 0x4 DUP3 ADD MSTORE PUSH1 0x26 PUSH1 0x24 DUP3 ADD MSTORE PUSH32 0x53616665436173743A2076616C756520646F65736E27742066697420696E2034 PUSH1 0x44 DUP3 ADD MSTORE PUSH6 0x382062697473 PUSH1 0xD0 SHL PUSH1 0x64 DUP3 ADD MSTORE PUSH1 0x84 ADD PUSH2 0x619 JUMP JUMPDEST DUP2 PUSH1 0x1 PUSH1 0x1 PUSH1 0xA0 SHL SUB AND DUP4 PUSH1 0x1 PUSH1 0x1 PUSH1 0xA0 SHL SUB AND EQ ISZERO DUP1 ISZERO PUSH2 0xB4B JUMPI POP PUSH1 0x0 DUP2 GT JUMPDEST ISZERO PUSH2 0x956 JUMPI PUSH1 0x1 PUSH1 0x1 PUSH1 0xA0 SHL SUB DUP4 AND ISZERO PUSH2 0xBD0 JUMPI PUSH1 0x1 PUSH1 0x1 PUSH1 0xA0 SHL SUB DUP4 AND PUSH1 0x0 SWAP1 DUP2 MSTORE PUSH1 0xA PUSH1 0x20 SWAP1 DUP2 MSTORE PUSH1 0x40 DUP3 KECCAK256 DUP3 SWAP2 PUSH2 0xB8F SWAP2 SWAP1 PUSH2 0xC54 SWAP1 SHL PUSH2 0x2D87 OR DUP6 PUSH2 0x7C4 JUMP JUMPDEST SWAP2 POP SWAP2 POP DUP5 PUSH1 0x1 PUSH1 0x1 PUSH1 0xA0 SHL SUB AND PUSH1 0x0 DUP1 MLOAD PUSH1 0x20 PUSH2 0x5F41 DUP4 CODECOPY DUP2 MLOAD SWAP2 MSTORE DUP4 DUP4 PUSH1 0x40 MLOAD PUSH2 0xBC5 SWAP3 SWAP2 SWAP1 SWAP2 DUP3 MSTORE PUSH1 0x20 DUP3 ADD MSTORE PUSH1 0x40 ADD SWAP1 JUMP JUMPDEST PUSH1 0x40 MLOAD DUP1 SWAP2 SUB SWAP1 LOG2 POP POP JUMPDEST PUSH1 0x1 PUSH1 0x1 PUSH1 0xA0 SHL SUB DUP3 AND ISZERO PUSH2 0x956 JUMPI PUSH1 0x1 PUSH1 0x1 PUSH1 0xA0 SHL SUB DUP3 AND PUSH1 0x0 SWAP1 DUP2 MSTORE PUSH1 0xA PUSH1 0x20 SWAP1 DUP2 MSTORE PUSH1 0x40 DUP3 KECCAK256 DUP3 SWAP2 PUSH2 0xC0F SWAP2 SWAP1 PUSH2 0x7B1 SWAP1 SHL PUSH2 0x2D7B OR DUP6 PUSH2 0x7C4 JUMP JUMPDEST SWAP2 POP SWAP2 POP DUP4 PUSH1 0x1 PUSH1 0x1 PUSH1 0xA0 SHL SUB AND PUSH1 0x0 DUP1 MLOAD PUSH1 0x20 PUSH2 0x5F41 DUP4 CODECOPY DUP2 MLOAD SWAP2 MSTORE DUP4 DUP4 PUSH1 0x40 MLOAD PUSH2 0xC45 SWAP3 SWAP2 SWAP1 SWAP2 DUP3 MSTORE PUSH1 0x20 DUP3 ADD MSTORE PUSH1 0x40 ADD SWAP1 JUMP JUMPDEST PUSH1 0x40 MLOAD DUP1 SWAP2 SUB SWAP1 LOG2 POP POP POP POP POP JUMP JUMPDEST PUSH1 0x0 PUSH2 0x7BD DUP3 DUP5 PUSH2 0x1004 JUMP JUMPDEST PUSH4 0x4E487B71 PUSH1 0xE0 SHL PUSH1 0x0 MSTORE PUSH1 0x41 PUSH1 0x4 MSTORE PUSH1 0x24 PUSH1 0x0 REVERT JUMPDEST PUSH1 0x0 JUMPDEST DUP4 DUP2 LT ISZERO PUSH2 0xC91 JUMPI DUP2 DUP2 ADD MLOAD DUP4 DUP3 ADD MSTORE PUSH1 0x20 ADD PUSH2 0xC79 JUMP JUMPDEST POP POP PUSH1 0x0 SWAP2 ADD MSTORE JUMP JUMPDEST PUSH1 0x0 DUP3 PUSH1 0x1F DUP4 ADD SLT PUSH2 0xCAB JUMPI PUSH1 0x0 DUP1 REVERT JUMPDEST DUP2 MLOAD PUSH1 0x1 PUSH1 0x1 PUSH1 0x40 SHL SUB DUP2 GT ISZERO PUSH2 0xCC4 JUMPI PUSH2 0xCC4 PUSH2 0xC60 JUMP JUMPDEST PUSH1 0x40 MLOAD PUSH1 0x1F DUP3 ADD PUSH1 0x1F NOT SWAP1 DUP2 AND PUSH1 0x3F ADD AND DUP2 ADD PUSH1 0x1 PUSH1 0x1 PUSH1 0x40 SHL SUB DUP2 GT DUP3 DUP3 LT OR ISZERO PUSH2 0xCF2 JUMPI PUSH2 0xCF2 PUSH2 0xC60 JUMP JUMPDEST PUSH1 0x40 MSTORE DUP2 DUP2 MSTORE DUP4 DUP3 ADD PUSH1 0x20 ADD DUP6 LT ISZERO PUSH2 0xD0A JUMPI PUSH1 0x0 DUP1 REVERT JUMPDEST PUSH2 0xD1B DUP3 PUSH1 0x20 DUP4 ADD PUSH1 0x20 DUP8 ADD PUSH2 0xC76 JUMP JUMPDEST SWAP5 SWAP4 POP POP POP POP JUMP JUMPDEST DUP1 MLOAD PUSH1 0x1 PUSH1 0x1 PUSH1 0xA0 SHL SUB DUP2 AND DUP2 EQ PUSH2 0xD3A JUMPI PUSH1 0x0 DUP1 REVERT JUMPDEST SWAP2 SWAP1 POP JUMP JUMPDEST PUSH1 0x0 DUP1 PUSH1 0x0 DUP1 PUSH1 0x0 DUP1 PUSH1 0x0 DUP1 PUSH2 0x100 DUP10 DUP12 SUB SLT ISZERO PUSH2 0xD5C JUMPI PUSH1 0x0 DUP1 REVERT JUMPDEST DUP9 MLOAD PUSH1 0x1 PUSH1 0x1 PUSH1 0x40 SHL SUB DUP2 GT ISZERO PUSH2 0xD72 JUMPI PUSH1 0x0 DUP1 REVERT JUMPDEST PUSH2 0xD7E DUP12 DUP3 DUP13 ADD PUSH2 0xC9A JUMP JUMPDEST PUSH1 0x20 DUP12 ADD MLOAD SWAP1 SWAP10 POP SWAP1 POP PUSH1 0x1 PUSH1 0x1 PUSH1 0x40 SHL SUB DUP2 GT ISZERO PUSH2 0xD9C JUMPI PUSH1 0x0 DUP1 REVERT JUMPDEST PUSH2 0xDA8 DUP12 DUP3 DUP13 ADD PUSH2 0xC9A JUMP JUMPDEST SWAP8 POP POP PUSH2 0xDB7 PUSH1 0x40 DUP11 ADD PUSH2 0xD23 JUMP JUMPDEST SWAP6 POP PUSH2 0xDC5 PUSH1 0x60 DUP11 ADD PUSH2 0xD23 JUMP JUMPDEST SWAP5 POP PUSH2 0xDD3 PUSH1 0x80 DUP11 ADD PUSH2 0xD23 JUMP JUMPDEST SWAP4 POP PUSH2 0xDE1 PUSH1 0xA0 DUP11 ADD PUSH2 0xD23 JUMP JUMPDEST SWAP3 POP PUSH2 0xDEF PUSH1 0xC0 DUP11 ADD PUSH2 0xD23 JUMP JUMPDEST SWAP2 POP PUSH2 0xDFD PUSH1 0xE0 DUP11 ADD PUSH2 0xD23 JUMP JUMPDEST SWAP1 POP SWAP3 SWAP6 SWAP9 POP SWAP3 SWAP6 SWAP9 SWAP1 SWAP4 SWAP7 POP JUMP JUMPDEST PUSH1 0x1 DUP2 DUP2 SHR SWAP1 DUP3 AND DUP1 PUSH2 0xE20 JUMPI PUSH1 0x7F DUP3 AND SWAP2 POP JUMPDEST PUSH1 0x20 DUP3 LT DUP2 SUB PUSH2 0xE40 JUMPI PUSH4 0x4E487B71 PUSH1 0xE0 SHL PUSH1 0x0 MSTORE PUSH1 0x22 PUSH1 0x4 MSTORE PUSH1 0x24 PUSH1 0x0 REVERT JUMPDEST POP SWAP2 SWAP1 POP JUMP JUMPDEST PUSH1 0x1F DUP3 GT ISZERO PUSH2 0x956 JUMPI DUP1 PUSH1 0x0 MSTORE PUSH1 0x20 PUSH1 0x0 KECCAK256 PUSH1 0x1F DUP5 ADD PUSH1 0x5 SHR DUP2 ADD PUSH1 0x20 DUP6 LT ISZERO PUSH2 0xE6D JUMPI POP DUP1 JUMPDEST PUSH1 0x1F DUP5 ADD PUSH1 0x5 SHR DUP3 ADD SWAP2 POP JUMPDEST DUP2 DUP2 LT ISZERO PUSH2 0x5E7 JUMPI PUSH1 0x0 DUP2 SSTORE PUSH1 0x1 ADD PUSH2 0xE79 JUMP JUMPDEST DUP2 MLOAD PUSH1 0x1 PUSH1 0x1 PUSH1 0x40 SHL SUB DUP2 GT ISZERO PUSH2 0xEA6 JUMPI PUSH2 0xEA6 PUSH2 0xC60 JUMP JUMPDEST PUSH2 0xEBA DUP2 PUSH2 0xEB4 DUP5 SLOAD PUSH2 0xE0C JUMP JUMPDEST DUP5 PUSH2 0xE46 JUMP JUMPDEST PUSH1 0x20 PUSH1 0x1F DUP3 GT PUSH1 0x1 DUP2 EQ PUSH2 0xEEE JUMPI PUSH1 0x0 DUP4 ISZERO PUSH2 0xED6 JUMPI POP DUP5 DUP3 ADD MLOAD JUMPDEST PUSH1 0x0 NOT PUSH1 0x3 DUP6 SWAP1 SHL SHR NOT AND PUSH1 0x1 DUP5 SWAP1 SHL OR DUP5 SSTORE PUSH2 0x5E7 JUMP JUMPDEST PUSH1 0x0 DUP5 DUP2 MSTORE PUSH1 0x20 DUP2 KECCAK256 PUSH1 0x1F NOT DUP6 AND SWAP2 JUMPDEST DUP3 DUP2 LT ISZERO PUSH2 0xF1E JUMPI DUP8 DUP6 ADD MLOAD DUP3 SSTORE PUSH1 0x20 SWAP5 DUP6 ADD SWAP5 PUSH1 0x1 SWAP1 SWAP3 ADD SWAP2 ADD PUSH2 0xEFE JUMP JUMPDEST POP DUP5 DUP3 LT ISZERO PUSH2 0xF3C JUMPI DUP7 DUP5 ADD MLOAD PUSH1 0x0 NOT PUSH1 0x3 DUP8 SWAP1 SHL PUSH1 0xF8 AND SHR NOT AND DUP2 SSTORE JUMPDEST POP POP POP POP PUSH1 0x1 SWAP1 DUP2 SHL ADD SWAP1 SSTORE POP JUMP JUMPDEST PUSH4 0x4E487B71 PUSH1 0xE0 SHL PUSH1 0x0 MSTORE PUSH1 0x11 PUSH1 0x4 MSTORE PUSH1 0x24 PUSH1 0x0 REVERT JUMPDEST DUP1 DUP3 MUL DUP2 ISZERO DUP3 DUP3 DIV DUP5 EQ OR PUSH2 0x3F2 JUMPI PUSH2 0x3F2 PUSH2 0xF4B JUMP JUMPDEST PUSH1 0x0 DUP3 PUSH2 0xF95 JUMPI PUSH4 0x4E487B71 PUSH1 0xE0 SHL PUSH1 0x0 MSTORE PUSH1 0x12 PUSH1 0x4 MSTORE PUSH1 0x24 PUSH1 0x0 REVERT JUMPDEST POP DIV SWAP1 JUMP JUMPDEST DUP1 DUP3 ADD DUP1 DUP3 GT ISZERO PUSH2 0x3F2 JUMPI PUSH2 0x3F2 PUSH2 0xF4B JUMP JUMPDEST PUSH1 0x20 DUP2 MSTORE PUSH1 0x0 DUP3 MLOAD DUP1 PUSH1 0x20 DUP5 ADD MSTORE PUSH2 0xFCC DUP2 PUSH1 0x40 DUP6 ADD PUSH1 0x20 DUP8 ADD PUSH2 0xC76 JUMP JUMPDEST PUSH1 0x1F ADD PUSH1 0x1F NOT AND SWAP2 SWAP1 SWAP2 ADD PUSH1 0x40 ADD SWAP3 SWAP2 POP POP JUMP JUMPDEST DUP1 MLOAD PUSH1 0x20 DUP1 DUP4 ADD MLOAD SWAP2 SWAP1 DUP2 LT ISZERO PUSH2 0xE40 JUMPI PUSH1 0x0 NOT PUSH1 0x20 SWAP2 SWAP1 SWAP2 SUB PUSH1 0x3 SHL SHL AND SWAP2 SWAP1 POP JUMP JUMPDEST DUP2 DUP2 SUB DUP2 DUP2 GT ISZERO PUSH2 0x3F2 JUMPI PUSH2 0x3F2 PUSH2 0xF4B JUMP JUMPDEST PUSH1 0x80 MLOAD PUSH1 0xA0 MLOAD PUSH1 0xC0 MLOAD PUSH1 0xE0 MLOAD PUSH2 0x100 MLOAD PUSH2 0x120 MLOAD PUSH2 0x140 MLOAD PUSH2 0x4ED0 PUSH2 0x1071 PUSH1 0x0 CODECOPY PUSH1 0x0 PUSH2 0x1AFE ADD MSTORE PUSH1 0x0 PUSH2 0x1AD3 ADD MSTORE PUSH1 0x0 PUSH2 0x329C ADD MSTORE PUSH1 0x0 PUSH2 0x3274 ADD MSTORE PUSH1 0x0 PUSH2 0x31CF ADD MSTORE PUSH1 0x0 PUSH2 0x31F9 ADD MSTORE PUSH1 0x0 PUSH2 0x3223 ADD MSTORE PUSH2 0x4ED0 PUSH1 0x0 RETURN INVALID PUSH1 0x80 PUSH1 0x40 MSTORE CALLVALUE DUP1 ISZERO PUSH2 0x10 JUMPI PUSH1 0x0 DUP1 REVERT JUMPDEST POP PUSH1 0x4 CALLDATASIZE LT PUSH2 0x48B JUMPI PUSH1 0x0 CALLDATALOAD PUSH1 0xE0 SHR DUP1 PUSH4 0x784CAFBA GT PUSH2 0x262 JUMPI DUP1 PUSH4 0xC69DEF0B GT PUSH2 0x151 JUMPI DUP1 PUSH4 0xE4830C32 GT PUSH2 0xCE JUMPI DUP1 PUSH4 0xF1127ED8 GT PUSH2 0x92 JUMPI DUP1 PUSH4 0xF1127ED8 EQ PUSH2 0xAA0 JUMPI DUP1 PUSH4 0xF36C8F5C EQ PUSH2 0xADD JUMPI DUP1 PUSH4 0xF676F331 EQ PUSH2 0xAF2 JUMPI DUP1 PUSH4 0xF6D0934C EQ PUSH2 0xB05 JUMPI DUP1 PUSH4 0xF79ED94B EQ PUSH2 0xB18 JUMPI DUP1 PUSH4 0xF84AFD48 EQ PUSH2 0xB2B JUMPI PUSH1 0x0 DUP1 REVERT JUMPDEST DUP1 PUSH4 0xE4830C32 EQ PUSH2 0xA37 JUMPI DUP1 PUSH4 0xE63AB1E9 EQ PUSH2 0xA4A JUMPI DUP1 PUSH4 0xEB09F72A EQ PUSH2 0xA71 JUMPI DUP1 PUSH4 0xEB8F4C4A EQ PUSH2 0xA7A JUMPI DUP1 PUSH4 0xEF17794C EQ PUSH2 0xA8D JUMPI PUSH1 0x0 DUP1 REVERT JUMPDEST DUP1 PUSH4 0xD5391393 GT PUSH2 0x115 JUMPI DUP1 PUSH4 0xD5391393 EQ PUSH2 0x9CF JUMPI DUP1 PUSH4 0xD547741F EQ PUSH2 0x9F6 JUMPI DUP1 PUSH4 0xDD62ED3E EQ PUSH2 0xA09 JUMPI DUP1 PUSH4 0xDFEF15B8 EQ PUSH2 0xA1C JUMPI DUP1 PUSH4 0xE07495E3 EQ PUSH2 0xA24 JUMPI PUSH1 0x0 DUP1 REVERT JUMPDEST DUP1 PUSH4 0xC69DEF0B EQ PUSH2 0x932 JUMPI DUP1 PUSH4 0xC8C7FE6B EQ PUSH2 0x945 JUMPI DUP1 PUSH4 0xD3060A33 EQ PUSH2 0x9A0 JUMPI DUP1 PUSH4 0xD3FC9864 EQ PUSH2 0x9A9 JUMPI DUP1 PUSH4 0xD505ACCF EQ PUSH2 0x9BC JUMPI PUSH1 0x0 DUP1 REVERT JUMPDEST DUP1 PUSH4 0x95D89B41 GT PUSH2 0x1DF JUMPI DUP1 PUSH4 0xA9059CBB GT PUSH2 0x1A3 JUMPI DUP1 PUSH4 0xA9059CBB EQ PUSH2 0x8DE JUMPI DUP1 PUSH4 0xA978D8DF EQ PUSH2 0x8F1 JUMPI DUP1 PUSH4 0xAE621BBE EQ PUSH2 0x904 JUMPI DUP1 PUSH4 0xAEEB73EA EQ PUSH2 0x90C JUMPI DUP1 PUSH4 0xC3CDA520 EQ PUSH2 0x91F JUMPI PUSH1 0x0 DUP1 REVERT JUMPDEST DUP1 PUSH4 0x95D89B41 EQ PUSH2 0x895 JUMPI DUP1 PUSH4 0x9AB24EB0 EQ PUSH2 0x89D JUMPI DUP1 PUSH4 0xA217FDDF EQ PUSH2 0x8B0 JUMPI DUP1 PUSH4 0xA34CEA08 EQ PUSH2 0x8B8 JUMPI DUP1 PUSH4 0xA457C2D7 EQ PUSH2 0x8CB JUMPI PUSH1 0x0 DUP1 REVERT JUMPDEST DUP1 PUSH4 0x84B0196E GT PUSH2 0x226 JUMPI DUP1 PUSH4 0x84B0196E EQ PUSH2 0x822 JUMPI DUP1 PUSH4 0x8E539E8C EQ PUSH2 0x83D JUMPI DUP1 PUSH4 0x91D14854 EQ PUSH2 0x850 JUMPI DUP1 PUSH4 0x91DDADF4 EQ PUSH2 0x863 JUMPI DUP1 PUSH4 0x91EE2A3D EQ PUSH2 0x882 JUMPI PUSH1 0x0 DUP1 REVERT JUMPDEST DUP1 PUSH4 0x784CAFBA EQ PUSH2 0x7D4 JUMPI DUP1 PUSH4 0x78702FDC EQ PUSH2 0x6E4 JUMPI DUP1 PUSH4 0x7ECEBE00 EQ PUSH2 0x7E7 JUMPI DUP1 PUSH4 0x8266EFC3 EQ PUSH2 0x7FA JUMPI DUP1 PUSH4 0x8456CB59 EQ PUSH2 0x81A JUMPI PUSH1 0x0 DUP1 REVERT JUMPDEST DUP1 PUSH4 0x3644E515 GT PUSH2 0x37E JUMPI DUP1 PUSH4 0x5C975ABB GT PUSH2 0x2FB JUMPI DUP1 PUSH4 0x6FCFFF45 GT PUSH2 0x2BF JUMPI DUP1 PUSH4 0x6FCFFF45 EQ PUSH2 0x75C JUMPI DUP1 PUSH4 0x70A08231 EQ PUSH2 0x784 JUMPI DUP1 PUSH4 0x714A617A EQ PUSH2 0x7AD JUMPI DUP1 PUSH4 0x74792153 EQ PUSH2 0x7B6 JUMPI DUP1 PUSH4 0x751F77D3 EQ PUSH2 0x7BF JUMPI PUSH1 0x0 DUP1 REVERT JUMPDEST DUP1 PUSH4 0x5C975ABB EQ PUSH2 0x700 JUMPI DUP1 PUSH4 0x6042D5D4 EQ PUSH2 0x70B JUMPI DUP1 PUSH4 0x621C0FBE EQ PUSH2 0x71E JUMPI DUP1 PUSH4 0x63DEA955 EQ PUSH2 0x741 JUMPI DUP1 PUSH4 0x69A87E15 EQ PUSH2 0x754 JUMPI PUSH1 0x0 DUP1 REVERT JUMPDEST DUP1 PUSH4 0x4BF5D7E9 GT PUSH2 0x342 JUMPI DUP1 PUSH4 0x4BF5D7E9 EQ PUSH2 0x69B JUMPI DUP1 PUSH4 0x58456FB5 EQ PUSH2 0x6A3 JUMPI DUP1 PUSH4 0x587CDE1E EQ PUSH2 0x6B8 JUMPI DUP1 PUSH4 0x5A174FFF EQ PUSH2 0x6E4 JUMPI DUP1 PUSH4 0x5C19A95C EQ PUSH2 0x6ED JUMPI PUSH1 0x0 DUP1 REVERT JUMPDEST DUP1 PUSH4 0x3644E515 EQ PUSH2 0x652 JUMPI DUP1 PUSH4 0x36568ABE EQ PUSH2 0x65A JUMPI DUP1 PUSH4 0x39509351 EQ PUSH2 0x66D JUMPI DUP1 PUSH4 0x3A46B1A8 EQ PUSH2 0x680 JUMPI DUP1 PUSH4 0x3F4BA83A EQ PUSH2 0x693 JUMPI PUSH1 0x0 DUP1 REVERT JUMPDEST DUP1 PUSH4 0x18160DDD GT PUSH2 0x40C JUMPI DUP1 PUSH4 0x2FF2E9DC GT PUSH2 0x3D0 JUMPI DUP1 PUSH4 0x2FF2E9DC EQ PUSH2 0x5EE JUMPI DUP1 PUSH4 0x30BCD679 EQ PUSH2 0x601 JUMPI DUP1 PUSH4 0x313CE567 EQ PUSH2 0x614 JUMPI DUP1 PUSH4 0x31993A1C EQ PUSH2 0x623 JUMPI DUP1 PUSH4 0x32CB6B0C EQ PUSH2 0x64A JUMPI PUSH1 0x0 DUP1 REVERT JUMPDEST DUP1 PUSH4 0x18160DDD EQ PUSH2 0x576 JUMPI DUP1 PUSH4 0x23B872DD EQ PUSH2 0x57E JUMPI DUP1 PUSH4 0x248A9CA3 EQ PUSH2 0x591 JUMPI DUP1 PUSH4 0x282C51F3 EQ PUSH2 0x5B4 JUMPI DUP1 PUSH4 0x2F2FF15D EQ PUSH2 0x5DB JUMPI PUSH1 0x0 DUP1 REVERT JUMPDEST DUP1 PUSH4 0xBC48ADA GT PUSH2 0x453 JUMPI DUP1 PUSH4 0xBC48ADA EQ PUSH2 0x500 JUMPI DUP1 PUSH4 0xD869C24 EQ PUSH2 0x50E JUMPI DUP1 PUSH4 0x142B01B0 EQ PUSH2 0x523 JUMPI DUP1 PUSH4 0x15E98E73 EQ PUSH2 0x54E JUMPI DUP1 PUSH4 0x15F570DC EQ PUSH2 0x563 JUMPI PUSH1 0x0 DUP1 REVERT JUMPDEST DUP1 PUSH4 0x1FFC9A7 EQ PUSH2 0x490 JUMPI DUP1 PUSH4 0x2AE844C EQ PUSH2 0x4B8 JUMPI DUP1 PUSH4 0x4EAEF4F EQ PUSH2 0x4CF JUMPI DUP1 PUSH4 0x6FDDE03 EQ PUSH2 0x4D8 JUMPI DUP1 PUSH4 0x95EA7B3 EQ PUSH2 0x4ED JUMPI JUMPDEST PUSH1 0x0 DUP1 REVERT JUMPDEST PUSH2 0x4A3 PUSH2 0x49E CALLDATASIZE PUSH1 0x4 PUSH2 0x4724 JUMP JUMPDEST PUSH2 0xB3E JUMP JUMPDEST PUSH1 0x40 MLOAD SWAP1 ISZERO ISZERO DUP2 MSTORE PUSH1 0x20 ADD JUMPDEST PUSH1 0x40 MLOAD DUP1 SWAP2 SUB SWAP1 RETURN JUMPDEST PUSH2 0x4C1 PUSH2 0x3E8 DUP2 JUMP JUMPDEST PUSH1 0x40 MLOAD SWAP1 DUP2 MSTORE PUSH1 0x20 ADD PUSH2 0x4AF JUMP JUMPDEST PUSH2 0x4C1 PUSH2 0xBB8 DUP2 JUMP JUMPDEST PUSH2 0x4E0 PUSH2 0xB75 JUMP JUMPDEST PUSH1 0x40 MLOAD PUSH2 0x4AF SWAP2 SWAP1 PUSH2 0x479E JUMP JUMPDEST PUSH2 0x4A3 PUSH2 0x4FB CALLDATASIZE PUSH1 0x4 PUSH2 0x47CD JUMP JUMPDEST PUSH2 0xC07 JUMP JUMPDEST PUSH2 0x4C1 PUSH1 0x1 PUSH1 0x1 PUSH1 0x80 SHL SUB DUP2 JUMP JUMPDEST PUSH2 0x521 PUSH2 0x51C CALLDATASIZE PUSH1 0x4 PUSH2 0x47F7 JUMP JUMPDEST PUSH2 0xC1F JUMP JUMPDEST STOP JUMPDEST PUSH1 0x12 SLOAD PUSH2 0x536 SWAP1 PUSH1 0x1 PUSH1 0x1 PUSH1 0xA0 SHL SUB AND DUP2 JUMP JUMPDEST PUSH1 0x40 MLOAD PUSH1 0x1 PUSH1 0x1 PUSH1 0xA0 SHL SUB SWAP1 SWAP2 AND DUP2 MSTORE PUSH1 0x20 ADD PUSH2 0x4AF JUMP JUMPDEST PUSH2 0x4C1 PUSH1 0x0 DUP1 MLOAD PUSH1 0x20 PUSH2 0x4E1B DUP4 CODECOPY DUP2 MLOAD SWAP2 MSTORE DUP2 JUMP JUMPDEST PUSH2 0x521 PUSH2 0x571 CALLDATASIZE PUSH1 0x4 PUSH2 0x48B7 JUMP JUMPDEST PUSH2 0xCDA JUMP JUMPDEST PUSH1 0x2 SLOAD PUSH2 0x4C1 JUMP JUMPDEST PUSH2 0x4A3 PUSH2 0x58C CALLDATASIZE PUSH1 0x4 PUSH2 0x490E JUMP JUMPDEST PUSH2 0xDE6 JUMP JUMPDEST PUSH2 0x4C1 PUSH2 0x59F CALLDATASIZE PUSH1 0x4 PUSH2 0x494B JUMP JUMPDEST PUSH1 0x0 SWAP1 DUP2 MSTORE PUSH1 0xC PUSH1 0x20 MSTORE PUSH1 0x40 SWAP1 KECCAK256 PUSH1 0x1 ADD SLOAD SWAP1 JUMP JUMPDEST PUSH2 0x4C1 PUSH32 0x3C11D16CBAFFD01DF69CE1C404F6340EE057498F5F00246190EA54220576A848 DUP2 JUMP JUMPDEST PUSH2 0x521 PUSH2 0x5E9 CALLDATASIZE PUSH1 0x4 PUSH2 0x4964 JUMP JUMPDEST PUSH2 0xE0A JUMP JUMPDEST PUSH2 0x4C1 PUSH12 0x19D971E4FE8401E74000000 DUP2 JUMP JUMPDEST PUSH1 0x10 SLOAD PUSH2 0x536 SWAP1 PUSH1 0x1 PUSH1 0x1 PUSH1 0xA0 SHL SUB AND DUP2 JUMP JUMPDEST PUSH1 0x40 MLOAD PUSH1 0x12 DUP2 MSTORE PUSH1 0x20 ADD PUSH2 0x4AF JUMP JUMPDEST PUSH2 0x4C1 PUSH32 0xACF805600123EF007091DA3B3FFB39474074C656C127AA68CB0FFEC232A8FF8 DUP2 JUMP JUMPDEST PUSH2 0x4C1 PUSH2 0xE34 JUMP JUMPDEST PUSH2 0x4C1 PUSH2 0xE57 JUMP JUMPDEST PUSH2 0x521 PUSH2 0x668 CALLDATASIZE PUSH1 0x4 PUSH2 0x4964 JUMP JUMPDEST PUSH2 0xE66 JUMP JUMPDEST PUSH2 0x4A3 PUSH2 0x67B CALLDATASIZE PUSH1 0x4 PUSH2 0x47CD JUMP JUMPDEST PUSH2 0xEE9 JUMP JUMPDEST PUSH2 0x4C1 PUSH2 0x68E CALLDATASIZE PUSH1 0x4 PUSH2 0x47CD JUMP JUMPDEST PUSH2 0xF0B JUMP JUMPDEST PUSH2 0x521 PUSH2 0xF90 JUMP JUMPDEST PUSH2 0x4E0 PUSH2 0xFC5 JUMP JUMPDEST PUSH2 0x4C1 PUSH1 0x0 DUP1 MLOAD PUSH1 0x20 PUSH2 0x4E5B DUP4 CODECOPY DUP2 MLOAD SWAP2 MSTORE DUP2 JUMP JUMPDEST PUSH2 0x536 PUSH2 0x6C6 CALLDATASIZE PUSH1 0x4 PUSH2 0x47F7 JUMP JUMPDEST PUSH1 0x1 PUSH1 0x1 PUSH1 0xA0 SHL SUB SWAP1 DUP2 AND PUSH1 0x0 SWAP1 DUP2 MSTORE PUSH1 0x9 PUSH1 0x20 MSTORE PUSH1 0x40 SWAP1 KECCAK256 SLOAD AND SWAP1 JUMP JUMPDEST PUSH2 0x4C1 PUSH2 0x1388 DUP2 JUMP JUMPDEST PUSH2 0x521 PUSH2 0x6FB CALLDATASIZE PUSH1 0x4 PUSH2 0x47F7 JUMP JUMPDEST PUSH2 0x105D JUMP JUMPDEST PUSH1 0xD SLOAD PUSH1 0xFF AND PUSH2 0x4A3 JUMP JUMPDEST PUSH2 0x521 PUSH2 0x719 CALLDATASIZE PUSH1 0x4 PUSH2 0x499F JUMP JUMPDEST PUSH2 0x1067 JUMP JUMPDEST PUSH2 0x726 PUSH2 0x1235 JUMP JUMPDEST PUSH1 0x40 DUP1 MLOAD SWAP4 DUP5 MSTORE PUSH1 0x20 DUP5 ADD SWAP3 SWAP1 SWAP3 MSTORE SWAP1 DUP3 ADD MSTORE PUSH1 0x60 ADD PUSH2 0x4AF JUMP JUMPDEST PUSH2 0x521 PUSH2 0x74F CALLDATASIZE PUSH1 0x4 PUSH2 0x47F7 JUMP JUMPDEST PUSH2 0x1536 JUMP JUMPDEST PUSH2 0x521 PUSH2 0x158D JUMP JUMPDEST PUSH2 0x76F PUSH2 0x76A CALLDATASIZE PUSH1 0x4 PUSH2 0x47F7 JUMP JUMPDEST PUSH2 0x18E2 JUMP JUMPDEST PUSH1 0x40 MLOAD PUSH4 0xFFFFFFFF SWAP1 SWAP2 AND DUP2 MSTORE PUSH1 0x20 ADD PUSH2 0x4AF JUMP JUMPDEST PUSH2 0x4C1 PUSH2 0x792 CALLDATASIZE PUSH1 0x4 PUSH2 0x47F7 JUMP JUMPDEST PUSH1 0x1 PUSH1 0x1 PUSH1 0xA0 SHL SUB AND PUSH1 0x0 SWAP1 DUP2 MSTORE PUSH1 0x20 DUP2 SWAP1 MSTORE PUSH1 0x40 SWAP1 KECCAK256 SLOAD SWAP1 JUMP JUMPDEST PUSH2 0x4C1 PUSH1 0x15 SLOAD DUP2 JUMP JUMPDEST PUSH2 0x4C1 PUSH2 0x5DC DUP2 JUMP JUMPDEST PUSH2 0x4C1 PUSH1 0x0 DUP1 MLOAD PUSH1 0x20 PUSH2 0x4E7B DUP4 CODECOPY DUP2 MLOAD SWAP2 MSTORE DUP2 JUMP JUMPDEST PUSH2 0x521 PUSH2 0x7E2 CALLDATASIZE PUSH1 0x4 PUSH2 0x48B7 JUMP JUMPDEST PUSH2 0x1904 JUMP JUMPDEST PUSH2 0x4C1 PUSH2 0x7F5 CALLDATASIZE PUSH1 0x4 PUSH2 0x47F7 JUMP JUMPDEST PUSH2 0x1A75 JUMP JUMPDEST PUSH2 0x4C1 PUSH2 0x808 CALLDATASIZE PUSH1 0x4 PUSH2 0x47F7 JUMP JUMPDEST PUSH1 0x16 PUSH1 0x20 MSTORE PUSH1 0x0 SWAP1 DUP2 MSTORE PUSH1 0x40 SWAP1 KECCAK256 SLOAD DUP2 JUMP JUMPDEST PUSH2 0x521 PUSH2 0x1A93 JUMP JUMPDEST PUSH2 0x82A PUSH2 0x1AC5 JUMP JUMPDEST PUSH1 0x40 MLOAD PUSH2 0x4AF SWAP8 SWAP7 SWAP6 SWAP5 SWAP4 SWAP3 SWAP2 SWAP1 PUSH2 0x49BA JUMP JUMPDEST PUSH2 0x4C1 PUSH2 0x84B CALLDATASIZE PUSH1 0x4 PUSH2 0x494B JUMP JUMPDEST PUSH2 0x1B4E JUMP JUMPDEST PUSH2 0x4A3 PUSH2 0x85E CALLDATASIZE PUSH1 0x4 PUSH2 0x4964 JUMP JUMPDEST PUSH2 0x1BB5 JUMP JUMPDEST PUSH2 0x86B PUSH2 0x1BE0 JUMP JUMPDEST PUSH1 0x40 MLOAD PUSH6 0xFFFFFFFFFFFF SWAP1 SWAP2 AND DUP2 MSTORE PUSH1 0x20 ADD PUSH2 0x4AF JUMP JUMPDEST PUSH2 0x521 PUSH2 0x890 CALLDATASIZE PUSH1 0x4 PUSH2 0x4A52 JUMP JUMPDEST PUSH2 0x1BEB JUMP JUMPDEST PUSH2 0x4E0 PUSH2 0x1D89 JUMP JUMPDEST PUSH2 0x4C1 PUSH2 0x8AB CALLDATASIZE PUSH1 0x4 PUSH2 0x47F7 JUMP JUMPDEST PUSH2 0x1D98 JUMP JUMPDEST PUSH2 0x4C1 PUSH1 0x0 DUP2 JUMP JUMPDEST PUSH2 0x521 PUSH2 0x8C6 CALLDATASIZE PUSH1 0x4 PUSH2 0x4A6E JUMP JUMPDEST PUSH2 0x1E1A JUMP JUMPDEST PUSH2 0x4A3 PUSH2 0x8D9 CALLDATASIZE PUSH1 0x4 PUSH2 0x47CD JUMP JUMPDEST PUSH2 0x205E JUMP JUMPDEST PUSH2 0x4A3 PUSH2 0x8EC CALLDATASIZE PUSH1 0x4 PUSH2 0x47CD JUMP JUMPDEST PUSH2 0x20D9 JUMP JUMPDEST PUSH2 0x521 PUSH2 0x8FF CALLDATASIZE PUSH1 0x4 PUSH2 0x4A52 JUMP JUMPDEST PUSH2 0x20E7 JUMP JUMPDEST PUSH2 0x4C1 PUSH2 0x223C JUMP JUMPDEST PUSH2 0x521 PUSH2 0x91A CALLDATASIZE PUSH1 0x4 PUSH2 0x47F7 JUMP JUMPDEST PUSH2 0x231D JUMP JUMPDEST PUSH2 0x521 PUSH2 0x92D CALLDATASIZE PUSH1 0x4 PUSH2 0x4A9D JUMP JUMPDEST PUSH2 0x238E JUMP JUMPDEST PUSH2 0x521 PUSH2 0x940 CALLDATASIZE PUSH1 0x4 PUSH2 0x4AF5 JUMP JUMPDEST PUSH2 0x24C4 JUMP JUMPDEST PUSH2 0x958 PUSH2 0x953 CALLDATASIZE PUSH1 0x4 PUSH2 0x499F JUMP JUMPDEST PUSH2 0x2629 JUMP JUMPDEST PUSH1 0x40 MLOAD PUSH2 0x4AF SWAP2 SWAP1 DUP2 MLOAD PUSH1 0x1 PUSH1 0x1 PUSH1 0xA0 SHL SUB AND DUP2 MSTORE PUSH1 0x20 DUP1 DUP4 ADD MLOAD SWAP1 DUP3 ADD MSTORE PUSH1 0x40 DUP1 DUP4 ADD MLOAD SWAP1 DUP3 ADD MSTORE PUSH1 0x60 DUP1 DUP4 ADD MLOAD ISZERO ISZERO SWAP1 DUP3 ADD MSTORE PUSH1 0x80 SWAP2 DUP3 ADD MLOAD SWAP2 DUP2 ADD SWAP2 SWAP1 SWAP2 MSTORE PUSH1 0xA0 ADD SWAP1 JUMP JUMPDEST PUSH2 0x4C1 PUSH2 0x7D0 DUP2 JUMP JUMPDEST PUSH2 0x521 PUSH2 0x9B7 CALLDATASIZE PUSH1 0x4 PUSH2 0x48B7 JUMP JUMPDEST PUSH2 0x271E JUMP JUMPDEST PUSH2 0x521 PUSH2 0x9CA CALLDATASIZE PUSH1 0x4 PUSH2 0x4B1F JUMP JUMPDEST PUSH2 0x2830 JUMP JUMPDEST PUSH2 0x4C1 PUSH32 0x9F2DF0FED2C77648DE5860A4CC508CD0818C85B8B8A1AB4CEEEF8D981C8956A6 DUP2 JUMP JUMPDEST PUSH2 0x521 PUSH2 0xA04 CALLDATASIZE PUSH1 0x4 PUSH2 0x4964 JUMP JUMPDEST PUSH2 0x2994 JUMP JUMPDEST PUSH2 0x4C1 PUSH2 0xA17 CALLDATASIZE PUSH1 0x4 PUSH2 0x4B8A JUMP JUMPDEST PUSH2 0x29B9 JUMP JUMPDEST PUSH2 0x4C1 PUSH2 0x29E4 JUMP JUMPDEST PUSH2 0x521 PUSH2 0xA32 CALLDATASIZE PUSH1 0x4 PUSH2 0x4BA6 JUMP JUMPDEST PUSH2 0x2A3B JUMP JUMPDEST PUSH1 0x13 SLOAD PUSH2 0x536 SWAP1 PUSH1 0x1 PUSH1 0x1 PUSH1 0xA0 SHL SUB AND DUP2 JUMP JUMPDEST PUSH2 0x4C1 PUSH32 0x65D7A28E3265B37A6474929F336521B332C1681B933F6CB9F3376673440D862A DUP2 JUMP JUMPDEST PUSH2 0x4C1 PUSH2 0x9C4 DUP2 JUMP JUMPDEST PUSH2 0x521 PUSH2 0xA88 CALLDATASIZE PUSH1 0x4 PUSH2 0x490E JUMP JUMPDEST PUSH2 0x2AD9 JUMP JUMPDEST PUSH2 0x521 PUSH2 0xA9B CALLDATASIZE PUSH1 0x4 PUSH2 0x47F7 JUMP JUMPDEST PUSH2 0x2BDD JUMP JUMPDEST PUSH2 0xAB3 PUSH2 0xAAE CALLDATASIZE PUSH1 0x4 PUSH2 0x4BED JUMP JUMPDEST PUSH2 0x2C55 JUMP JUMPDEST PUSH1 0x40 DUP1 MLOAD DUP3 MLOAD PUSH4 0xFFFFFFFF AND DUP2 MSTORE PUSH1 0x20 SWAP3 DUP4 ADD MLOAD PUSH1 0x1 PUSH1 0x1 PUSH1 0xE0 SHL SUB AND SWAP3 DUP2 ADD SWAP3 SWAP1 SWAP3 MSTORE ADD PUSH2 0x4AF JUMP JUMPDEST PUSH2 0x4C1 PUSH1 0x0 DUP1 MLOAD PUSH1 0x20 PUSH2 0x4E3B DUP4 CODECOPY DUP2 MLOAD SWAP2 MSTORE DUP2 JUMP JUMPDEST PUSH1 0xF SLOAD PUSH2 0x536 SWAP1 PUSH1 0x1 PUSH1 0x1 PUSH1 0xA0 SHL SUB AND DUP2 JUMP JUMPDEST PUSH2 0x521 PUSH2 0xB13 CALLDATASIZE PUSH1 0x4 PUSH2 0x47F7 JUMP JUMPDEST PUSH2 0x2CD9 JUMP JUMPDEST PUSH1 0x11 SLOAD PUSH2 0x536 SWAP1 PUSH1 0x1 PUSH1 0x1 PUSH1 0xA0 SHL SUB AND DUP2 JUMP JUMPDEST PUSH2 0x521 PUSH2 0xB39 CALLDATASIZE PUSH1 0x4 PUSH2 0x47F7 JUMP JUMPDEST PUSH2 0x2D09 JUMP JUMPDEST PUSH1 0x0 PUSH1 0x1 PUSH1 0x1 PUSH1 0xE0 SHL SUB NOT DUP3 AND PUSH4 0x7965DB0B PUSH1 0xE0 SHL EQ DUP1 PUSH2 0xB6F JUMPI POP PUSH4 0x1FFC9A7 PUSH1 0xE0 SHL PUSH1 0x1 PUSH1 0x1 PUSH1 0xE0 SHL SUB NOT DUP4 AND EQ JUMPDEST SWAP3 SWAP2 POP POP JUMP JUMPDEST PUSH1 0x60 PUSH1 0x3 DUP1 SLOAD PUSH2 0xB84 SWAP1 PUSH2 0x4C2D JUMP JUMPDEST DUP1 PUSH1 0x1F ADD PUSH1 0x20 DUP1 SWAP2 DIV MUL PUSH1 0x20 ADD PUSH1 0x40 MLOAD SWAP1 DUP2 ADD PUSH1 0x40 MSTORE DUP1 SWAP3 SWAP2 SWAP1 DUP2 DUP2 MSTORE PUSH1 0x20 ADD DUP3 DUP1 SLOAD PUSH2 0xBB0 SWAP1 PUSH2 0x4C2D JUMP JUMPDEST DUP1 ISZERO PUSH2 0xBFD JUMPI DUP1 PUSH1 0x1F LT PUSH2 0xBD2 JUMPI PUSH2 0x100 DUP1 DUP4 SLOAD DIV MUL DUP4 MSTORE SWAP2 PUSH1 0x20 ADD SWAP2 PUSH2 0xBFD JUMP JUMPDEST DUP3 ADD SWAP2 SWAP1 PUSH1 0x0 MSTORE PUSH1 0x20 PUSH1 0x0 KECCAK256 SWAP1 JUMPDEST DUP2 SLOAD DUP2 MSTORE SWAP1 PUSH1 0x1 ADD SWAP1 PUSH1 0x20 ADD DUP1 DUP4 GT PUSH2 0xBE0 JUMPI DUP3 SWAP1 SUB PUSH1 0x1F AND DUP3 ADD SWAP2 JUMPDEST POP POP POP POP POP SWAP1 POP SWAP1 JUMP JUMPDEST PUSH1 0x0 CALLER PUSH2 0xC15 DUP2 DUP6 DUP6 PUSH2 0x2D93 JUMP JUMPDEST POP PUSH1 0x1 SWAP4 SWAP3 POP POP POP JUMP JUMPDEST PUSH1 0x0 DUP1 MLOAD PUSH1 0x20 PUSH2 0x4E3B DUP4 CODECOPY DUP2 MLOAD SWAP2 MSTORE PUSH2 0xC37 DUP2 PUSH2 0x2EB7 JUMP JUMPDEST PUSH1 0x1 PUSH1 0x1 PUSH1 0xA0 SHL SUB DUP3 AND PUSH2 0xC5E JUMPI PUSH1 0x40 MLOAD PUSH4 0xD92E233D PUSH1 0xE0 SHL DUP2 MSTORE PUSH1 0x4 ADD PUSH1 0x40 MLOAD DUP1 SWAP2 SUB SWAP1 REVERT JUMPDEST PUSH1 0x10 DUP1 SLOAD PUSH1 0x1 PUSH1 0x1 PUSH1 0xA0 SHL SUB NOT AND PUSH1 0x1 PUSH1 0x1 PUSH1 0xA0 SHL SUB DUP5 AND OR SWAP1 SSTORE PUSH1 0x40 MLOAD PUSH12 0x10D491505513D497D413D3D3 PUSH1 0xA2 SHL DUP2 MSTORE PUSH1 0xC ADD JUMPDEST PUSH1 0x40 MLOAD SWAP1 DUP2 SWAP1 SUB DUP2 KECCAK256 PUSH1 0x1 PUSH1 0x1 PUSH1 0xA0 SHL SUB DUP5 AND DUP3 MSTORE SWAP1 PUSH32 0x943E9D45A11AAAE5D87503E3BC248665D9807856E5CF2BDB4A988BEE44422781 SWAP1 PUSH1 0x20 ADD JUMPDEST PUSH1 0x40 MLOAD DUP1 SWAP2 SUB SWAP1 LOG2 POP POP JUMP JUMPDEST PUSH32 0x3C11D16CBAFFD01DF69CE1C404F6340EE057498F5F00246190EA54220576A848 PUSH2 0xD04 DUP2 PUSH2 0x2EB7 JUMP JUMPDEST PUSH2 0xD0C PUSH2 0x2EC1 JUMP JUMPDEST PUSH1 0x1 PUSH1 0x1 PUSH1 0xA0 SHL SUB DUP5 AND PUSH2 0xD33 JUMPI PUSH1 0x40 MLOAD PUSH4 0xD92E233D PUSH1 0xE0 SHL DUP2 MSTORE PUSH1 0x4 ADD PUSH1 0x40 MLOAD DUP1 SWAP2 SUB SWAP1 REVERT JUMPDEST DUP3 PUSH1 0x0 SUB PUSH2 0xD54 JUMPI PUSH1 0x40 MLOAD PUSH4 0x1F2A2005 PUSH1 0xE0 SHL DUP2 MSTORE PUSH1 0x4 ADD PUSH1 0x40 MLOAD DUP1 SWAP2 SUB SWAP1 REVERT JUMPDEST DUP3 PUSH2 0xD74 DUP6 PUSH1 0x1 PUSH1 0x1 PUSH1 0xA0 SHL SUB AND PUSH1 0x0 SWAP1 DUP2 MSTORE PUSH1 0x20 DUP2 SWAP1 MSTORE PUSH1 0x40 SWAP1 KECCAK256 SLOAD SWAP1 JUMP JUMPDEST LT ISZERO PUSH2 0xD93 JUMPI PUSH1 0x40 MLOAD PUSH4 0x1E9ACF17 PUSH1 0xE3 SHL DUP2 MSTORE PUSH1 0x4 ADD PUSH1 0x40 MLOAD DUP1 SWAP2 SUB SWAP1 REVERT JUMPDEST PUSH2 0xD9D DUP5 DUP5 PUSH2 0x2F09 JUMP JUMPDEST DUP4 PUSH1 0x1 PUSH1 0x1 PUSH1 0xA0 SHL SUB AND PUSH32 0xFAD31924D655455395C87544C8AA1FFDB5A7505A22A3C2E03F28003B6556A75F DUP5 DUP5 PUSH1 0x40 MLOAD PUSH2 0xDD8 SWAP3 SWAP2 SWAP1 PUSH2 0x4C61 JUMP JUMPDEST PUSH1 0x40 MLOAD DUP1 SWAP2 SUB SWAP1 LOG2 POP POP POP POP JUMP JUMPDEST PUSH1 0x0 CALLER PUSH2 0xDF4 DUP6 DUP3 DUP6 PUSH2 0x2F13 JUMP JUMPDEST PUSH2 0xDFF DUP6 DUP6 DUP6 PUSH2 0x2F87 JUMP JUMPDEST POP PUSH1 0x1 SWAP5 SWAP4 POP POP POP POP JUMP JUMPDEST PUSH1 0x0 DUP3 DUP2 MSTORE PUSH1 0xC PUSH1 0x20 MSTORE PUSH1 0x40 SWAP1 KECCAK256 PUSH1 0x1 ADD SLOAD PUSH2 0xE25 DUP2 PUSH2 0x2EB7 JUMP JUMPDEST PUSH2 0xE2F DUP4 DUP4 PUSH2 0x313C JUMP JUMPDEST POP POP POP JUMP JUMPDEST PUSH2 0xE54 PUSH12 0x19D971E4FE8401E74000000 PUSH10 0x152D02C7E14AF6800000 PUSH2 0x4C90 JUMP JUMPDEST DUP2 JUMP JUMPDEST PUSH1 0x0 PUSH2 0xE61 PUSH2 0x31C2 JUMP JUMPDEST SWAP1 POP SWAP1 JUMP JUMPDEST PUSH1 0x1 PUSH1 0x1 PUSH1 0xA0 SHL SUB DUP2 AND CALLER EQ PUSH2 0xEDB JUMPI PUSH1 0x40 MLOAD PUSH3 0x461BCD PUSH1 0xE5 SHL DUP2 MSTORE PUSH1 0x20 PUSH1 0x4 DUP3 ADD MSTORE PUSH1 0x2F PUSH1 0x24 DUP3 ADD MSTORE PUSH32 0x416363657373436F6E74726F6C3A2063616E206F6E6C792072656E6F756E6365 PUSH1 0x44 DUP3 ADD MSTORE PUSH15 0x103937B632B9903337B91039B2B633 PUSH1 0x89 SHL PUSH1 0x64 DUP3 ADD MSTORE PUSH1 0x84 ADD JUMPDEST PUSH1 0x40 MLOAD DUP1 SWAP2 SUB SWAP1 REVERT JUMPDEST PUSH2 0xEE5 DUP3 DUP3 PUSH2 0x32ED JUMP JUMPDEST POP POP JUMP JUMPDEST PUSH1 0x0 CALLER PUSH2 0xC15 DUP2 DUP6 DUP6 PUSH2 0xEFC DUP4 DUP4 PUSH2 0x29B9 JUMP JUMPDEST PUSH2 0xF06 SWAP2 SWAP1 PUSH2 0x4C90 JUMP JUMPDEST PUSH2 0x2D93 JUMP JUMPDEST PUSH1 0x0 PUSH2 0xF15 PUSH2 0x1BE0 JUMP JUMPDEST PUSH6 0xFFFFFFFFFFFF AND DUP3 LT PUSH2 0xF67 JUMPI PUSH1 0x40 MLOAD PUSH3 0x461BCD PUSH1 0xE5 SHL DUP2 MSTORE PUSH1 0x20 PUSH1 0x4 DUP3 ADD MSTORE PUSH1 0x19 PUSH1 0x24 DUP3 ADD MSTORE PUSH25 0x4552433230566F7465733A20667574757265206C6F6F6B757 PUSH1 0x3C SHL PUSH1 0x44 DUP3 ADD MSTORE PUSH1 0x64 ADD PUSH2 0xED2 JUMP JUMPDEST PUSH1 0x1 PUSH1 0x1 PUSH1 0xA0 SHL SUB DUP4 AND PUSH1 0x0 SWAP1 DUP2 MSTORE PUSH1 0xA PUSH1 0x20 MSTORE PUSH1 0x40 SWAP1 KECCAK256 PUSH2 0xF89 SWAP1 DUP4 PUSH2 0x3354 JUMP JUMPDEST SWAP4 SWAP3 POP POP POP JUMP JUMPDEST PUSH32 0x65D7A28E3265B37A6474929F336521B332C1681B933F6CB9F3376673440D862A PUSH2 0xFBA DUP2 PUSH2 0x2EB7 JUMP JUMPDEST PUSH2 0xFC2 PUSH2 0x343D JUMP JUMPDEST POP JUMP JUMPDEST PUSH1 0x60 NUMBER PUSH2 0xFD0 PUSH2 0x1BE0 JUMP JUMPDEST PUSH6 0xFFFFFFFFFFFF AND EQ PUSH2 0x1025 JUMPI PUSH1 0x40 MLOAD PUSH3 0x461BCD PUSH1 0xE5 SHL DUP2 MSTORE PUSH1 0x20 PUSH1 0x4 DUP3 ADD MSTORE PUSH1 0x1D PUSH1 0x24 DUP3 ADD MSTORE PUSH32 0x4552433230566F7465733A2062726F6B656E20636C6F636B206D6F6465000000 PUSH1 0x44 DUP3 ADD MSTORE PUSH1 0x64 ADD PUSH2 0xED2 JUMP JUMPDEST POP PUSH1 0x40 DUP1 MLOAD DUP1 DUP3 ADD SWAP1 SWAP2 MSTORE PUSH1 0x1D DUP2 MSTORE PUSH32 0x6D6F64653D626C6F636B6E756D6265722666726F6D3D64656661756C74000000 PUSH1 0x20 DUP3 ADD MSTORE SWAP1 JUMP JUMPDEST PUSH2 0xFC2 CALLER DUP3 PUSH2 0x348F JUMP JUMPDEST PUSH1 0x0 DUP1 MLOAD PUSH1 0x20 PUSH2 0x4E1B DUP4 CODECOPY DUP2 MLOAD SWAP2 MSTORE PUSH2 0x107F DUP2 PUSH2 0x2EB7 JUMP JUMPDEST PUSH1 0x2 DUP3 PUSH1 0x2 DUP2 GT ISZERO PUSH2 0x1093 JUMPI PUSH2 0x1093 PUSH2 0x4CA3 JUMP JUMPDEST GT ISZERO PUSH2 0x10B2 JUMPI PUSH1 0x40 MLOAD PUSH4 0x6448D6E9 PUSH1 0xE1 SHL DUP2 MSTORE PUSH1 0x4 ADD PUSH1 0x40 MLOAD DUP1 SWAP2 SUB SWAP1 REVERT JUMPDEST PUSH1 0x14 PUSH1 0x0 DUP4 PUSH1 0x2 DUP2 GT ISZERO PUSH2 0x10C8 JUMPI PUSH2 0x10C8 PUSH2 0x4CA3 JUMP JUMPDEST PUSH1 0x2 DUP2 GT ISZERO PUSH2 0x10D9 JUMPI PUSH2 0x10D9 PUSH2 0x4CA3 JUMP JUMPDEST DUP2 MSTORE PUSH1 0x20 DUP2 ADD SWAP2 SWAP1 SWAP2 MSTORE PUSH1 0x40 ADD PUSH1 0x0 KECCAK256 PUSH1 0x3 ADD SLOAD PUSH1 0xFF AND PUSH2 0x110D JUMPI PUSH1 0x40 MLOAD PUSH4 0x719D533 PUSH1 0xE2 SHL DUP2 MSTORE PUSH1 0x4 ADD PUSH1 0x40 MLOAD DUP1 SWAP2 SUB SWAP1 REVERT JUMPDEST PUSH1 0x0 PUSH1 0x14 PUSH1 0x0 DUP5 PUSH1 0x2 DUP2 GT ISZERO PUSH2 0x1125 JUMPI PUSH2 0x1125 PUSH2 0x4CA3 JUMP JUMPDEST PUSH1 0x2 DUP2 GT ISZERO PUSH2 0x1136 JUMPI PUSH2 0x1136 PUSH2 0x4CA3 JUMP JUMPDEST DUP2 MSTORE PUSH1 0x20 ADD SWAP1 DUP2 MSTORE PUSH1 0x20 ADD PUSH1 0x0 KECCAK256 PUSH1 0x1 ADD SLOAD GT ISZERO PUSH2 0x1167 JUMPI PUSH1 0x40 MLOAD PUSH4 0x40DB7F87 PUSH1 0xE0 SHL DUP2 MSTORE PUSH1 0x4 ADD PUSH1 0x40 MLOAD DUP1 SWAP2 SUB SWAP1 REVERT JUMPDEST PUSH1 0x0 PUSH1 0x14 PUSH1 0x0 DUP5 PUSH1 0x2 DUP2 GT ISZERO PUSH2 0x117F JUMPI PUSH2 0x117F PUSH2 0x4CA3 JUMP JUMPDEST PUSH1 0x2 DUP2 GT ISZERO PUSH2 0x1190 JUMPI PUSH2 0x1190 PUSH2 0x4CA3 JUMP JUMPDEST DUP2 MSTORE PUSH1 0x20 ADD SWAP1 DUP2 MSTORE PUSH1 0x20 ADD PUSH1 0x0 KECCAK256 PUSH1 0x3 ADD PUSH1 0x0 PUSH2 0x100 EXP DUP2 SLOAD DUP2 PUSH1 0xFF MUL NOT AND SWAP1 DUP4 ISZERO ISZERO MUL OR SWAP1 SSTORE POP PUSH1 0x0 PUSH1 0x14 PUSH1 0x0 DUP5 PUSH1 0x2 DUP2 GT ISZERO PUSH2 0x11D0 JUMPI PUSH2 0x11D0 PUSH2 0x4CA3 JUMP JUMPDEST PUSH1 0x2 DUP2 GT ISZERO PUSH2 0x11E1 JUMPI PUSH2 0x11E1 PUSH2 0x4CA3 JUMP JUMPDEST DUP2 MSTORE PUSH1 0x20 ADD SWAP1 DUP2 MSTORE PUSH1 0x20 ADD PUSH1 0x0 KECCAK256 PUSH1 0x2 ADD DUP2 SWAP1 SSTORE POP DUP2 PUSH1 0x2 DUP2 GT ISZERO PUSH2 0x1208 JUMPI PUSH2 0x1208 PUSH2 0x4CA3 JUMP JUMPDEST PUSH1 0x40 MLOAD PUSH32 0x8B56D0949004B9EC276CC1FA05C8EDD80C00371256C79FB5286504B2E2ED105F SWAP1 PUSH1 0x0 SWAP1 LOG2 POP POP JUMP JUMPDEST PUSH1 0x0 DUP1 PUSH1 0x0 DUP1 PUSH2 0x1243 PUSH2 0x223C JUMP JUMPDEST SWAP1 POP DUP1 PUSH1 0x0 SUB PUSH2 0x125B JUMPI POP PUSH1 0x0 SWAP4 DUP5 SWAP4 POP DUP4 SWAP3 POP SWAP1 POP JUMP JUMPDEST PUSH1 0x0 DUP1 MSTORE PUSH1 0x14 PUSH1 0x20 MSTORE PUSH32 0x4F26C3876AA9F4B92579780BEEA1161A61F87EBF1EC6EE865B299E447ECBA99F SLOAD PUSH1 0xFF AND DUP1 ISZERO PUSH2 0x12BE JUMPI POP PUSH1 0x0 DUP1 MSTORE PUSH1 0x14 PUSH1 0x20 MSTORE PUSH32 0x4F26C3876AA9F4B92579780BEEA1161A61F87EBF1EC6EE865B299E447ECBA99E SLOAD ISZERO ISZERO JUMPDEST PUSH2 0x12C9 JUMPI PUSH1 0x0 PUSH2 0x1348 JUMP JUMPDEST PUSH2 0x12DB DUP2 PUSH8 0xDE0B6B3A7640000 PUSH2 0x4CB9 JUMP JUMPDEST PUSH1 0x0 DUP1 MSTORE PUSH1 0x14 PUSH1 0x20 MSTORE PUSH32 0x4F26C3876AA9F4B92579780BEEA1161A61F87EBF1EC6EE865B299E447ECBA99E SLOAD PUSH32 0x4F26C3876AA9F4B92579780BEEA1161A61F87EBF1EC6EE865B299E447ECBA99D SLOAD PUSH2 0x1332 SWAP2 SWAP1 PUSH2 0x4CB9 JUMP JUMPDEST PUSH2 0x133E SWAP1 PUSH2 0x2710 PUSH2 0x4CB9 JUMP JUMPDEST PUSH2 0x1348 SWAP2 SWAP1 PUSH2 0x4CE6 JUMP JUMPDEST PUSH1 0x1 PUSH1 0x0 MSTORE PUSH1 0x14 PUSH1 0x20 MSTORE PUSH32 0xB6C61A840592CC84133E4B25BD509ABF4659307C57B160799B38490A5AA48F2F SLOAD SWAP1 SWAP5 POP PUSH1 0xFF AND DUP1 ISZERO PUSH2 0x13B0 JUMPI POP PUSH1 0x1 PUSH1 0x0 MSTORE PUSH1 0x14 PUSH1 0x20 MSTORE PUSH32 0xB6C61A840592CC84133E4B25BD509ABF4659307C57B160799B38490A5AA48F2E SLOAD ISZERO ISZERO JUMPDEST PUSH2 0x13BB JUMPI PUSH1 0x0 PUSH2 0x143B JUMP JUMPDEST PUSH2 0x13CD DUP2 PUSH8 0xDE0B6B3A7640000 PUSH2 0x4CB9 JUMP JUMPDEST PUSH1 0x1 PUSH1 0x0 MSTORE PUSH1 0x14 PUSH1 0x20 MSTORE PUSH32 0xB6C61A840592CC84133E4B25BD509ABF4659307C57B160799B38490A5AA48F2E SLOAD PUSH32 0xB6C61A840592CC84133E4B25BD509ABF4659307C57B160799B38490A5AA48F2D SLOAD PUSH2 0x1425 SWAP2 SWAP1 PUSH2 0x4CB9 JUMP JUMPDEST PUSH2 0x1431 SWAP1 PUSH2 0x2710 PUSH2 0x4CB9 JUMP JUMPDEST PUSH2 0x143B SWAP2 SWAP1 PUSH2 0x4CE6 JUMP JUMPDEST PUSH1 0x2 PUSH1 0x0 MSTORE PUSH1 0x14 PUSH1 0x20 MSTORE PUSH32 0xA1930AA930426C54C34DAAD2B9ADA7C5D0EF0C96078A3C5BB79F6FA6602C4A7D SLOAD SWAP1 SWAP4 POP PUSH1 0xFF AND DUP1 ISZERO PUSH2 0x14A3 JUMPI POP PUSH1 0x2 PUSH1 0x0 MSTORE PUSH1 0x14 PUSH1 0x20 MSTORE PUSH32 0xA1930AA930426C54C34DAAD2B9ADA7C5D0EF0C96078A3C5BB79F6FA6602C4A7C SLOAD ISZERO ISZERO JUMPDEST PUSH2 0x14AE JUMPI PUSH1 0x0 PUSH2 0x152E JUMP JUMPDEST PUSH2 0x14C0 DUP2 PUSH8 0xDE0B6B3A7640000 PUSH2 0x4CB9 JUMP JUMPDEST PUSH1 0x2 PUSH1 0x0 MSTORE PUSH1 0x14 PUSH1 0x20 MSTORE PUSH32 0xA1930AA930426C54C34DAAD2B9ADA7C5D0EF0C96078A3C5BB79F6FA6602C4A7C SLOAD PUSH32 0xA1930AA930426C54C34DAAD2B9ADA7C5D0EF0C96078A3C5BB79F6FA6602C4A7B SLOAD PUSH2 0x1518 SWAP2 SWAP1 PUSH2 0x4CB9 JUMP JUMPDEST PUSH2 0x1524 SWAP1 PUSH2 0x2710 PUSH2 0x4CB9 JUMP JUMPDEST PUSH2 0x152E SWAP2 SWAP1 PUSH2 0x4CE6 JUMP JUMPDEST SWAP2 POP POP SWAP1 SWAP2 SWAP3 JUMP JUMPDEST PUSH1 0x0 DUP1 MLOAD PUSH1 0x20 PUSH2 0x4E5B DUP4 CODECOPY DUP2 MLOAD SWAP2 MSTORE PUSH2 0x154E DUP2 PUSH2 0x2EB7 JUMP JUMPDEST PUSH1 0x1 PUSH1 0x1 PUSH1 0xA0 SHL SUB DUP3 AND PUSH2 0x1575 JUMPI PUSH1 0x40 MLOAD PUSH4 0xD92E233D PUSH1 0xE0 SHL DUP2 MSTORE PUSH1 0x4 ADD PUSH1 0x40 MLOAD DUP1 SWAP2 SUB SWAP1 REVERT JUMPDEST PUSH2 0xEE5 PUSH1 0x0 DUP1 MLOAD PUSH1 0x20 PUSH2 0x4E7B DUP4 CODECOPY DUP2 MLOAD SWAP2 MSTORE DUP4 PUSH2 0x313C JUMP JUMPDEST PUSH1 0x0 DUP1 MLOAD PUSH1 0x20 PUSH2 0x4E1B DUP4 CODECOPY DUP2 MLOAD SWAP2 MSTORE PUSH2 0x15A5 DUP2 PUSH2 0x2EB7 JUMP JUMPDEST PUSH1 0x0 PUSH2 0x15AF PUSH2 0x223C JUMP JUMPDEST SWAP1 POP DUP1 PUSH1 0x0 SUB PUSH2 0x15BD JUMPI POP POP JUMP JUMPDEST PUSH1 0x0 JUMPDEST PUSH1 0x2 PUSH1 0xFF DUP3 AND GT PUSH2 0xE2F JUMPI PUSH1 0x0 DUP2 PUSH1 0xFF AND PUSH1 0x2 DUP2 GT ISZERO PUSH2 0x15E2 JUMPI PUSH2 0x15E2 PUSH2 0x4CA3 JUMP JUMPDEST SWAP1 POP PUSH1 0x14 PUSH1 0x0 DUP3 PUSH1 0x2 DUP2 GT ISZERO PUSH2 0x15FA JUMPI PUSH2 0x15FA PUSH2 0x4CA3 JUMP JUMPDEST PUSH1 0x2 DUP2 GT ISZERO PUSH2 0x160B JUMPI PUSH2 0x160B PUSH2 0x4CA3 JUMP JUMPDEST DUP2 MSTORE PUSH1 0x20 DUP2 ADD SWAP2 SWAP1 SWAP2 MSTORE PUSH1 0x40 ADD PUSH1 0x0 KECCAK256 PUSH1 0x3 ADD SLOAD PUSH1 0xFF AND DUP1 ISZERO PUSH2 0x1666 JUMPI POP PUSH1 0x0 PUSH1 0x14 PUSH1 0x0 DUP4 PUSH1 0x2 DUP2 GT ISZERO PUSH2 0x1641 JUMPI PUSH2 0x1641 PUSH2 0x4CA3 JUMP JUMPDEST PUSH1 0x2 DUP2 GT ISZERO PUSH2 0x1652 JUMPI PUSH2 0x1652 PUSH2 0x4CA3 JUMP JUMPDEST DUP2 MSTORE PUSH1 0x20 ADD SWAP1 DUP2 MSTORE PUSH1 0x20 ADD PUSH1 0x0 KECCAK256 PUSH1 0x2 ADD SLOAD GT JUMPDEST ISZERO PUSH2 0x18CF JUMPI PUSH1 0x0 PUSH8 0xDE0B6B3A7640000 PUSH1 0x14 PUSH1 0x0 DUP5 PUSH1 0x2 DUP2 GT ISZERO PUSH2 0x168C JUMPI PUSH2 0x168C PUSH2 0x4CA3 JUMP JUMPDEST PUSH1 0x2 DUP2 GT ISZERO PUSH2 0x169D JUMPI PUSH2 0x169D PUSH2 0x4CA3 JUMP JUMPDEST DUP2 MSTORE PUSH1 0x20 ADD SWAP1 DUP2 MSTORE PUSH1 0x20 ADD PUSH1 0x0 KECCAK256 PUSH1 0x2 ADD SLOAD PUSH1 0x14 PUSH1 0x0 DUP6 PUSH1 0x2 DUP2 GT ISZERO PUSH2 0x16C5 JUMPI PUSH2 0x16C5 PUSH2 0x4CA3 JUMP JUMPDEST PUSH1 0x2 DUP2 GT ISZERO PUSH2 0x16D6 JUMPI PUSH2 0x16D6 PUSH2 0x4CA3 JUMP JUMPDEST DUP2 MSTORE PUSH1 0x20 ADD SWAP1 DUP2 MSTORE PUSH1 0x20 ADD PUSH1 0x0 KECCAK256 PUSH1 0x1 ADD SLOAD PUSH2 0x16F2 SWAP2 SWAP1 PUSH2 0x4CB9 JUMP JUMPDEST PUSH2 0x16FC SWAP2 SWAP1 PUSH2 0x4CE6 JUMP JUMPDEST SWAP1 POP PUSH1 0x0 PUSH2 0x2710 PUSH1 0x14 PUSH1 0x0 DUP6 PUSH1 0x2 DUP2 GT ISZERO PUSH2 0x1719 JUMPI PUSH2 0x1719 PUSH2 0x4CA3 JUMP JUMPDEST PUSH1 0x2 DUP2 GT ISZERO PUSH2 0x172A JUMPI PUSH2 0x172A PUSH2 0x4CA3 JUMP JUMPDEST DUP2 MSTORE PUSH1 0x20 ADD SWAP1 DUP2 MSTORE PUSH1 0x20 ADD PUSH1 0x0 KECCAK256 PUSH1 0x4 ADD SLOAD DUP7 PUSH2 0x1747 SWAP2 SWAP1 PUSH2 0x4CB9 JUMP JUMPDEST PUSH2 0x1751 SWAP2 SWAP1 PUSH2 0x4CE6 JUMP JUMPDEST SWAP1 POP DUP1 DUP3 LT ISZERO PUSH2 0x1811 JUMPI PUSH1 0x0 PUSH1 0x14 PUSH1 0x0 DUP6 PUSH1 0x2 DUP2 GT ISZERO PUSH2 0x1773 JUMPI PUSH2 0x1773 PUSH2 0x4CA3 JUMP JUMPDEST PUSH1 0x2 DUP2 GT ISZERO PUSH2 0x1784 JUMPI PUSH2 0x1784 PUSH2 0x4CA3 JUMP JUMPDEST DUP2 MSTORE PUSH1 0x20 ADD SWAP1 DUP2 MSTORE PUSH1 0x20 ADD PUSH1 0x0 KECCAK256 PUSH1 0x2 ADD SLOAD DUP4 DUP4 PUSH2 0x17A2 SWAP2 SWAP1 PUSH2 0x4D08 JUMP JUMPDEST PUSH2 0x17B4 SWAP1 PUSH8 0xDE0B6B3A7640000 PUSH2 0x4CB9 JUMP JUMPDEST PUSH2 0x17BE SWAP2 SWAP1 PUSH2 0x4CE6 JUMP JUMPDEST SWAP1 POP DUP4 PUSH1 0x2 DUP2 GT ISZERO PUSH2 0x17D2 JUMPI PUSH2 0x17D2 PUSH2 0x4CA3 JUMP JUMPDEST PUSH1 0x40 DUP1 MLOAD DUP4 DUP2 MSTORE PUSH1 0x0 PUSH1 0x20 DUP3 ADD MSTORE PUSH32 0xD65110790D8A86457F6938787A2FDB76F70816D0F226DFA7A461352767A492BC SWAP2 ADD PUSH1 0x40 MLOAD DUP1 SWAP2 SUB SWAP1 LOG2 POP PUSH2 0x18CC JUMP JUMPDEST DUP1 DUP3 GT ISZERO PUSH2 0x18CC JUMPI PUSH1 0x0 PUSH1 0x14 PUSH1 0x0 DUP6 PUSH1 0x2 DUP2 GT ISZERO PUSH2 0x1831 JUMPI PUSH2 0x1831 PUSH2 0x4CA3 JUMP JUMPDEST PUSH1 0x2 DUP2 GT ISZERO PUSH2 0x1842 JUMPI PUSH2 0x1842 PUSH2 0x4CA3 JUMP JUMPDEST DUP2 MSTORE PUSH1 0x20 ADD SWAP1 DUP2 MSTORE PUSH1 0x20 ADD PUSH1 0x0 KECCAK256 PUSH1 0x2 ADD SLOAD DUP3 DUP5 PUSH2 0x1860 SWAP2 SWAP1 PUSH2 0x4D08 JUMP JUMPDEST PUSH2 0x1872 SWAP1 PUSH8 0xDE0B6B3A7640000 PUSH2 0x4CB9 JUMP JUMPDEST PUSH2 0x187C SWAP2 SWAP1 PUSH2 0x4CE6 JUMP JUMPDEST SWAP1 POP DUP4 PUSH1 0x2 DUP2 GT ISZERO PUSH2 0x1890 JUMPI PUSH2 0x1890 PUSH2 0x4CA3 JUMP JUMPDEST PUSH1 0x40 DUP1 MLOAD PUSH1 0x0 DUP2 MSTORE PUSH1 0x20 DUP2 ADD DUP5 SWAP1 MSTORE PUSH32 0xD65110790D8A86457F6938787A2FDB76F70816D0F226DFA7A461352767A492BC SWAP2 ADD PUSH1 0x40 MLOAD DUP1 SWAP2 SUB SWAP1 LOG2 POP JUMPDEST POP POP JUMPDEST POP DUP1 PUSH2 0x18DA DUP2 PUSH2 0x4D1B JUMP JUMPDEST SWAP2 POP POP PUSH2 0x15C0 JUMP JUMPDEST PUSH1 0x1 PUSH1 0x1 PUSH1 0xA0 SHL SUB DUP2 AND PUSH1 0x0 SWAP1 DUP2 MSTORE PUSH1 0xA PUSH1 0x20 MSTORE PUSH1 0x40 DUP2 KECCAK256 SLOAD PUSH2 0xB6F SWAP1 PUSH2 0x3508 JUMP JUMPDEST PUSH1 0x0 DUP1 MLOAD PUSH1 0x20 PUSH2 0x4E5B DUP4 CODECOPY DUP2 MLOAD SWAP2 MSTORE PUSH2 0x191C DUP2 PUSH2 0x2EB7 JUMP JUMPDEST PUSH2 0x1924 PUSH2 0x2EC1 JUMP JUMPDEST PUSH1 0x1 PUSH1 0x1 PUSH1 0xA0 SHL SUB DUP5 AND PUSH2 0x194B JUMPI PUSH1 0x40 MLOAD PUSH4 0xD92E233D PUSH1 0xE0 SHL DUP2 MSTORE PUSH1 0x4 ADD PUSH1 0x40 MLOAD DUP1 SWAP2 SUB SWAP1 REVERT JUMPDEST DUP3 PUSH1 0x0 SUB PUSH2 0x196C JUMPI PUSH1 0x40 MLOAD PUSH4 0x1F2A2005 PUSH1 0xE0 SHL DUP2 MSTORE PUSH1 0x4 ADD PUSH1 0x40 MLOAD DUP1 SWAP2 SUB SWAP1 REVERT JUMPDEST PUSH2 0x1984 PUSH1 0x0 DUP1 MLOAD PUSH1 0x20 PUSH2 0x4E7B DUP4 CODECOPY DUP2 MLOAD SWAP2 MSTORE DUP6 PUSH2 0x1BB5 JUMP JUMPDEST PUSH2 0x19A0 JUMPI PUSH1 0x40 MLOAD PUSH3 0x82B429 PUSH1 0xE8 SHL DUP2 MSTORE PUSH1 0x4 ADD PUSH1 0x40 MLOAD DUP1 SWAP2 SUB SWAP1 REVERT JUMPDEST PUSH1 0x10 SLOAD PUSH1 0x1 PUSH1 0x1 PUSH1 0xA0 SHL SUB AND PUSH1 0x0 SWAP1 DUP2 MSTORE PUSH1 0x20 DUP2 SWAP1 MSTORE PUSH1 0x40 SWAP1 KECCAK256 SLOAD DUP4 GT ISZERO PUSH2 0x19DB JUMPI PUSH1 0x40 MLOAD PUSH4 0x1E9ACF17 PUSH1 0xE3 SHL DUP2 MSTORE PUSH1 0x4 ADD PUSH1 0x40 MLOAD DUP1 SWAP2 SUB SWAP1 REVERT JUMPDEST PUSH1 0x10 SLOAD PUSH2 0x19F2 SWAP1 PUSH1 0x1 PUSH1 0x1 PUSH1 0xA0 SHL SUB AND DUP6 DUP6 PUSH2 0x2F87 JUMP JUMPDEST PUSH1 0x1 PUSH1 0x1 PUSH1 0xA0 SHL SUB DUP5 AND PUSH1 0x0 SWAP1 DUP2 MSTORE PUSH1 0x16 PUSH1 0x20 MSTORE PUSH1 0x40 DUP2 KECCAK256 DUP1 SLOAD DUP6 SWAP3 SWAP1 PUSH2 0x1A1A SWAP1 DUP5 SWAP1 PUSH2 0x4C90 JUMP JUMPDEST SWAP3 POP POP DUP2 SWAP1 SSTORE POP DUP3 PUSH1 0x15 PUSH1 0x0 DUP3 DUP3 SLOAD PUSH2 0x1A33 SWAP2 SWAP1 PUSH2 0x4C90 JUMP JUMPDEST SWAP3 POP POP DUP2 SWAP1 SSTORE POP DUP4 PUSH1 0x1 PUSH1 0x1 PUSH1 0xA0 SHL SUB AND PUSH32 0xA64886B4E26FCC478F07B32B296C409C4D2CBAB1679C533C272E1193EFA00AA4 DUP5 DUP5 PUSH1 0x40 MLOAD PUSH2 0xDD8 SWAP3 SWAP2 SWAP1 PUSH2 0x4C61 JUMP JUMPDEST PUSH1 0x1 PUSH1 0x1 PUSH1 0xA0 SHL SUB DUP2 AND PUSH1 0x0 SWAP1 DUP2 MSTORE PUSH1 0x7 PUSH1 0x20 MSTORE PUSH1 0x40 DUP2 KECCAK256 SLOAD PUSH2 0xB6F JUMP JUMPDEST PUSH32 0x65D7A28E3265B37A6474929F336521B332C1681B933F6CB9F3376673440D862A PUSH2 0x1ABD DUP2 PUSH2 0x2EB7 JUMP JUMPDEST PUSH2 0xFC2 PUSH2 0x3571 JUMP JUMPDEST PUSH1 0x0 PUSH1 0x60 DUP1 DUP3 DUP1 DUP1 DUP4 PUSH2 0x1AF9 PUSH32 0x0 PUSH1 0x5 PUSH2 0x35AE JUMP JUMPDEST PUSH2 0x1B24 PUSH32 0x0 PUSH1 0x6 PUSH2 0x35AE JUMP JUMPDEST PUSH1 0x40 DUP1 MLOAD PUSH1 0x0 DUP1 DUP3 MSTORE PUSH1 0x20 DUP3 ADD SWAP1 SWAP3 MSTORE PUSH1 0xF PUSH1 0xF8 SHL SWAP12 SWAP4 SWAP11 POP SWAP2 SWAP9 POP CHAINID SWAP8 POP ADDRESS SWAP7 POP SWAP5 POP SWAP3 POP SWAP1 POP JUMP JUMPDEST PUSH1 0x0 PUSH2 0x1B58 PUSH2 0x1BE0 JUMP JUMPDEST PUSH6 0xFFFFFFFFFFFF AND DUP3 LT PUSH2 0x1BAA JUMPI PUSH1 0x40 MLOAD PUSH3 0x461BCD PUSH1 0xE5 SHL DUP2 MSTORE PUSH1 0x20 PUSH1 0x4 DUP3 ADD MSTORE PUSH1 0x19 PUSH1 0x24 DUP3 ADD MSTORE PUSH25 0x4552433230566F7465733A20667574757265206C6F6F6B757 PUSH1 0x3C SHL PUSH1 0x44 DUP3 ADD MSTORE PUSH1 0x64 ADD PUSH2 0xED2 JUMP JUMPDEST PUSH2 0xB6F PUSH1 0xB DUP4 PUSH2 0x3354 JUMP JUMPDEST PUSH1 0x0 SWAP2 DUP3 MSTORE PUSH1 0xC PUSH1 0x20 SWAP1 DUP2 MSTORE PUSH1 0x40 DUP1 DUP5 KECCAK256 PUSH1 0x1 PUSH1 0x1 PUSH1 0xA0 SHL SUB SWAP4 SWAP1 SWAP4 AND DUP5 MSTORE SWAP2 SWAP1 MSTORE SWAP1 KECCAK256 SLOAD PUSH1 0xFF AND SWAP1 JUMP JUMPDEST PUSH1 0x0 PUSH2 0xE61 NUMBER PUSH2 0x3659 JUMP JUMPDEST PUSH2 0x1BF3 PUSH2 0x2EC1 JUMP JUMPDEST PUSH1 0x2 DUP3 PUSH1 0x2 DUP2 GT ISZERO PUSH2 0x1C07 JUMPI PUSH2 0x1C07 PUSH2 0x4CA3 JUMP JUMPDEST GT ISZERO PUSH2 0x1C26 JUMPI PUSH1 0x40 MLOAD PUSH4 0x6448D6E9 PUSH1 0xE1 SHL DUP2 MSTORE PUSH1 0x4 ADD PUSH1 0x40 MLOAD DUP1 SWAP2 SUB SWAP1 REVERT JUMPDEST PUSH1 0x14 PUSH1 0x0 DUP4 PUSH1 0x2 DUP2 GT ISZERO PUSH2 0x1C3C JUMPI PUSH2 0x1C3C PUSH2 0x4CA3 JUMP JUMPDEST PUSH1 0x2 DUP2 GT ISZERO PUSH2 0x1C4D JUMPI PUSH2 0x1C4D PUSH2 0x4CA3 JUMP JUMPDEST DUP2 MSTORE PUSH1 0x20 DUP2 ADD SWAP2 SWAP1 SWAP2 MSTORE PUSH1 0x40 ADD PUSH1 0x0 KECCAK256 PUSH1 0x3 ADD SLOAD PUSH1 0xFF AND PUSH2 0x1C81 JUMPI PUSH1 0x40 MLOAD PUSH4 0x719D533 PUSH1 0xE2 SHL DUP2 MSTORE PUSH1 0x4 ADD PUSH1 0x40 MLOAD DUP1 SWAP2 SUB SWAP1 REVERT JUMPDEST DUP1 PUSH1 0x0 SUB PUSH2 0x1CA2 JUMPI PUSH1 0x40 MLOAD PUSH4 0x1F2A2005 PUSH1 0xE0 SHL DUP2 MSTORE PUSH1 0x4 ADD PUSH1 0x40 MLOAD DUP1 SWAP2 SUB SWAP1 REVERT JUMPDEST PUSH2 0x1CF1 CALLER ADDRESS DUP4 PUSH1 0x14 PUSH1 0x0 DUP8 PUSH1 0x2 DUP2 GT ISZERO PUSH2 0x1CBE JUMPI PUSH2 0x1CBE PUSH2 0x4CA3 JUMP JUMPDEST PUSH1 0x2 DUP2 GT ISZERO PUSH2 0x1CCF JUMPI PUSH2 0x1CCF PUSH2 0x4CA3 JUMP JUMPDEST DUP2 MSTORE PUSH1 0x20 DUP2 ADD SWAP2 SWAP1 SWAP2 MSTORE PUSH1 0x40 ADD PUSH1 0x0 KECCAK256 SLOAD PUSH1 0x1 PUSH1 0x1 PUSH1 0xA0 SHL SUB AND SWAP3 SWAP2 SWAP1 PUSH2 0x36C0 JUMP JUMPDEST DUP1 PUSH1 0x14 PUSH1 0x0 DUP5 PUSH1 0x2 DUP2 GT ISZERO PUSH2 0x1D08 JUMPI PUSH2 0x1D08 PUSH2 0x4CA3 JUMP JUMPDEST PUSH1 0x2 DUP2 GT ISZERO PUSH2 0x1D19 JUMPI PUSH2 0x1D19 PUSH2 0x4CA3 JUMP JUMPDEST DUP2 MSTORE PUSH1 0x20 ADD SWAP1 DUP2 MSTORE PUSH1 0x20 ADD PUSH1 0x0 KECCAK256 PUSH1 0x1 ADD PUSH1 0x0 DUP3 DUP3 SLOAD PUSH2 0x1D39 SWAP2 SWAP1 PUSH2 0x4C90 JUMP JUMPDEST SWAP1 SWAP2 SSTORE POP CALLER SWAP1 POP DUP3 PUSH1 0x2 DUP2 GT ISZERO PUSH2 0x1D52 JUMPI PUSH2 0x1D52 PUSH2 0x4CA3 JUMP JUMPDEST PUSH1 0x40 MLOAD DUP4 DUP2 MSTORE PUSH32 0x6A2B04B1F3D5A335C4367FEA39BB8807EF0A4FBE77A2772700C8F9C90C1C9A1B SWAP1 PUSH1 0x20 ADD PUSH1 0x40 MLOAD DUP1 SWAP2 SUB SWAP1 LOG3 POP POP JUMP JUMPDEST PUSH1 0x60 PUSH1 0x4 DUP1 SLOAD PUSH2 0xB84 SWAP1 PUSH2 0x4C2D JUMP JUMPDEST PUSH1 0x1 PUSH1 0x1 PUSH1 0xA0 SHL SUB DUP2 AND PUSH1 0x0 SWAP1 DUP2 MSTORE PUSH1 0xA PUSH1 0x20 MSTORE PUSH1 0x40 DUP2 KECCAK256 SLOAD DUP1 ISZERO PUSH2 0x1E07 JUMPI PUSH1 0x1 PUSH1 0x1 PUSH1 0xA0 SHL SUB DUP4 AND PUSH1 0x0 SWAP1 DUP2 MSTORE PUSH1 0xA PUSH1 0x20 MSTORE PUSH1 0x40 SWAP1 KECCAK256 DUP1 SLOAD PUSH1 0x0 NOT DUP4 ADD SWAP1 DUP2 LT PUSH2 0x1DE5 JUMPI PUSH2 0x1DE5 PUSH2 0x4D3A JUMP JUMPDEST PUSH1 0x0 SWAP2 DUP3 MSTORE PUSH1 0x20 SWAP1 SWAP2 KECCAK256 ADD SLOAD PUSH5 0x100000000 SWAP1 DIV PUSH1 0x1 PUSH1 0x1 PUSH1 0xE0 SHL SUB AND PUSH2 0x1E0A JUMP JUMPDEST PUSH1 0x0 JUMPDEST PUSH1 0x1 PUSH1 0x1 PUSH1 0xE0 SHL SUB AND SWAP4 SWAP3 POP POP POP JUMP JUMPDEST PUSH2 0x1E22 PUSH2 0x372B JUMP JUMPDEST PUSH1 0x0 DUP1 MLOAD PUSH1 0x20 PUSH2 0x4E1B DUP4 CODECOPY DUP2 MLOAD SWAP2 MSTORE PUSH2 0x1E3A DUP2 PUSH2 0x2EB7 JUMP JUMPDEST PUSH1 0x1 PUSH1 0x1 PUSH1 0xA0 SHL SUB DUP4 AND PUSH2 0x1E61 JUMPI PUSH1 0x40 MLOAD PUSH4 0xD92E233D PUSH1 0xE0 SHL DUP2 MSTORE PUSH1 0x4 ADD PUSH1 0x40 MLOAD DUP1 SWAP2 SUB SWAP1 REVERT JUMPDEST DUP2 PUSH1 0x0 SUB PUSH2 0x1E82 JUMPI PUSH1 0x40 MLOAD PUSH4 0x1F2A2005 PUSH1 0xE0 SHL DUP2 MSTORE PUSH1 0x4 ADD PUSH1 0x40 MLOAD DUP1 SWAP2 SUB SWAP1 REVERT JUMPDEST PUSH1 0x2 DUP5 PUSH1 0x2 DUP2 GT ISZERO PUSH2 0x1E96 JUMPI PUSH2 0x1E96 PUSH2 0x4CA3 JUMP JUMPDEST GT ISZERO PUSH2 0x1EB5 JUMPI PUSH1 0x40 MLOAD PUSH4 0x6448D6E9 PUSH1 0xE1 SHL DUP2 MSTORE PUSH1 0x4 ADD PUSH1 0x40 MLOAD DUP1 SWAP2 SUB SWAP1 REVERT JUMPDEST PUSH1 0x14 PUSH1 0x0 DUP6 PUSH1 0x2 DUP2 GT ISZERO PUSH2 0x1ECB JUMPI PUSH2 0x1ECB PUSH2 0x4CA3 JUMP JUMPDEST PUSH1 0x2 DUP2 GT ISZERO PUSH2 0x1EDC JUMPI PUSH2 0x1EDC PUSH2 0x4CA3 JUMP JUMPDEST DUP2 MSTORE PUSH1 0x20 DUP2 ADD SWAP2 SWAP1 SWAP2 MSTORE PUSH1 0x40 ADD PUSH1 0x0 KECCAK256 PUSH1 0x3 ADD SLOAD PUSH1 0xFF AND PUSH2 0x1F10 JUMPI PUSH1 0x40 MLOAD PUSH4 0x719D533 PUSH1 0xE2 SHL DUP2 MSTORE PUSH1 0x4 ADD PUSH1 0x40 MLOAD DUP1 SWAP2 SUB SWAP1 REVERT JUMPDEST DUP2 PUSH1 0x14 PUSH1 0x0 DUP7 PUSH1 0x2 DUP2 GT ISZERO PUSH2 0x1F27 JUMPI PUSH2 0x1F27 PUSH2 0x4CA3 JUMP JUMPDEST PUSH1 0x2 DUP2 GT ISZERO PUSH2 0x1F38 JUMPI PUSH2 0x1F38 PUSH2 0x4CA3 JUMP JUMPDEST DUP2 MSTORE PUSH1 0x20 ADD SWAP1 DUP2 MSTORE PUSH1 0x20 ADD PUSH1 0x0 KECCAK256 PUSH1 0x1 ADD SLOAD LT ISZERO PUSH2 0x1F69 JUMPI PUSH1 0x40 MLOAD PUSH4 0x40DB7F87 PUSH1 0xE0 SHL DUP2 MSTORE PUSH1 0x4 ADD PUSH1 0x40 MLOAD DUP1 SWAP2 SUB SWAP1 REVERT JUMPDEST DUP2 PUSH1 0x14 PUSH1 0x0 DUP7 PUSH1 0x2 DUP2 GT ISZERO PUSH2 0x1F80 JUMPI PUSH2 0x1F80 PUSH2 0x4CA3 JUMP JUMPDEST PUSH1 0x2 DUP2 GT ISZERO PUSH2 0x1F91 JUMPI PUSH2 0x1F91 PUSH2 0x4CA3 JUMP JUMPDEST DUP2 MSTORE PUSH1 0x20 ADD SWAP1 DUP2 MSTORE PUSH1 0x20 ADD PUSH1 0x0 KECCAK256 PUSH1 0x1 ADD PUSH1 0x0 DUP3 DUP3 SLOAD PUSH2 0x1FB1 SWAP2 SWAP1 PUSH2 0x4D08 JUMP JUMPDEST SWAP1 SWAP2 SSTORE POP PUSH2 0x2004 SWAP1 POP DUP4 DUP4 PUSH1 0x14 PUSH1 0x0 DUP9 PUSH1 0x2 DUP2 GT ISZERO PUSH2 0x1FD2 JUMPI PUSH2 0x1FD2 PUSH2 0x4CA3 JUMP JUMPDEST PUSH1 0x2 DUP2 GT ISZERO PUSH2 0x1FE3 JUMPI PUSH2 0x1FE3 PUSH2 0x4CA3 JUMP JUMPDEST DUP2 MSTORE PUSH1 0x20 DUP2 ADD SWAP2 SWAP1 SWAP2 MSTORE PUSH1 0x40 ADD PUSH1 0x0 KECCAK256 SLOAD PUSH1 0x1 PUSH1 0x1 PUSH1 0xA0 SHL SUB AND SWAP2 SWAP1 PUSH2 0x3784 JUMP JUMPDEST DUP3 PUSH1 0x1 PUSH1 0x1 PUSH1 0xA0 SHL SUB AND DUP5 PUSH1 0x2 DUP2 GT ISZERO PUSH2 0x2020 JUMPI PUSH2 0x2020 PUSH2 0x4CA3 JUMP JUMPDEST PUSH1 0x40 MLOAD DUP5 DUP2 MSTORE PUSH32 0xE3AAB926D81700BAC87DAB01982E77E751C07D1ACCA11C13FF44AAE1193A5F54 SWAP1 PUSH1 0x20 ADD PUSH1 0x40 MLOAD DUP1 SWAP2 SUB SWAP1 LOG3 POP PUSH2 0xE2F PUSH1 0x1 PUSH1 0xE SSTORE JUMP JUMPDEST PUSH1 0x0 CALLER DUP2 PUSH2 0x206C DUP3 DUP7 PUSH2 0x29B9 JUMP JUMPDEST SWAP1 POP DUP4 DUP2 LT ISZERO PUSH2 0x20CC JUMPI PUSH1 0x40 MLOAD PUSH3 0x461BCD PUSH1 0xE5 SHL DUP2 MSTORE PUSH1 0x20 PUSH1 0x4 DUP3 ADD MSTORE PUSH1 0x25 PUSH1 0x24 DUP3 ADD MSTORE PUSH32 0x45524332303A2064656372656173656420616C6C6F77616E63652062656C6F77 PUSH1 0x44 DUP3 ADD MSTORE PUSH5 0x207A65726F PUSH1 0xD8 SHL PUSH1 0x64 DUP3 ADD MSTORE PUSH1 0x84 ADD PUSH2 0xED2 JUMP JUMPDEST PUSH2 0xDFF DUP3 DUP7 DUP7 DUP5 SUB PUSH2 0x2D93 JUMP JUMPDEST PUSH1 0x0 CALLER PUSH2 0xC15 DUP2 DUP6 DUP6 PUSH2 0x2F87 JUMP JUMPDEST PUSH1 0x0 DUP1 MLOAD PUSH1 0x20 PUSH2 0x4E1B DUP4 CODECOPY DUP2 MLOAD SWAP2 MSTORE PUSH2 0x20FF DUP2 PUSH2 0x2EB7 JUMP JUMPDEST PUSH1 0x2 DUP4 PUSH1 0x2 DUP2 GT ISZERO PUSH2 0x2113 JUMPI PUSH2 0x2113 PUSH2 0x4CA3 JUMP JUMPDEST GT ISZERO PUSH2 0x2132 JUMPI PUSH1 0x40 MLOAD PUSH4 0x6448D6E9 PUSH1 0xE1 SHL DUP2 MSTORE PUSH1 0x4 ADD PUSH1 0x40 MLOAD DUP1 SWAP2 SUB SWAP1 REVERT JUMPDEST PUSH1 0x14 PUSH1 0x0 DUP5 PUSH1 0x2 DUP2 GT ISZERO PUSH2 0x2148 JUMPI PUSH2 0x2148 PUSH2 0x4CA3 JUMP JUMPDEST PUSH1 0x2 DUP2 GT ISZERO PUSH2 0x2159 JUMPI PUSH2 0x2159 PUSH2 0x4CA3 JUMP JUMPDEST DUP2 MSTORE PUSH1 0x20 DUP2 ADD SWAP2 SWAP1 SWAP2 MSTORE PUSH1 0x40 ADD PUSH1 0x0 KECCAK256 PUSH1 0x3 ADD SLOAD PUSH1 0xFF AND PUSH2 0x218D JUMPI PUSH1 0x40 MLOAD PUSH4 0x719D533 PUSH1 0xE2 SHL DUP2 MSTORE PUSH1 0x4 ADD PUSH1 0x40 MLOAD DUP1 SWAP2 SUB SWAP1 REVERT JUMPDEST PUSH1 0x1 PUSH1 0x1 PUSH1 0x80 SHL SUB DUP3 GT ISZERO PUSH2 0x21B4 JUMPI PUSH1 0x40 MLOAD PUSH3 0xBFC921 PUSH1 0xE0 SHL DUP2 MSTORE PUSH1 0x4 ADD PUSH1 0x40 MLOAD DUP1 SWAP2 SUB SWAP1 REVERT JUMPDEST DUP2 PUSH1 0x14 PUSH1 0x0 DUP6 PUSH1 0x2 DUP2 GT ISZERO PUSH2 0x21CB JUMPI PUSH2 0x21CB PUSH2 0x4CA3 JUMP JUMPDEST PUSH1 0x2 DUP2 GT ISZERO PUSH2 0x21DC JUMPI PUSH2 0x21DC PUSH2 0x4CA3 JUMP JUMPDEST DUP2 MSTORE PUSH1 0x20 ADD SWAP1 DUP2 MSTORE PUSH1 0x20 ADD PUSH1 0x0 KECCAK256 PUSH1 0x2 ADD DUP2 SWAP1 SSTORE POP DUP3 PUSH1 0x2 DUP2 GT ISZERO PUSH2 0x2203 JUMPI PUSH2 0x2203 PUSH2 0x4CA3 JUMP JUMPDEST PUSH1 0x40 MLOAD DUP4 DUP2 MSTORE PUSH32 0x2D292C5B6330B5B0F99B665EC1BE838CA17CD57EB118FE7A02CC05477B5BD42F SWAP1 PUSH1 0x20 ADD JUMPDEST PUSH1 0x40 MLOAD DUP1 SWAP2 SUB SWAP1 LOG2 POP POP POP JUMP JUMPDEST PUSH1 0x0 DUP1 DUP1 JUMPDEST PUSH1 0x2 PUSH1 0xFF DUP3 AND GT PUSH2 0x2317 JUMPI PUSH1 0x0 DUP2 PUSH1 0xFF AND PUSH1 0x2 DUP2 GT ISZERO PUSH2 0x2263 JUMPI PUSH2 0x2263 PUSH2 0x4CA3 JUMP JUMPDEST SWAP1 POP PUSH1 0x0 PUSH1 0x14 PUSH1 0x0 DUP4 PUSH1 0x2 DUP2 GT ISZERO PUSH2 0x227D JUMPI PUSH2 0x227D PUSH2 0x4CA3 JUMP JUMPDEST PUSH1 0x2 DUP2 GT ISZERO PUSH2 0x228E JUMPI PUSH2 0x228E PUSH2 0x4CA3 JUMP JUMPDEST DUP2 MSTORE PUSH1 0x20 DUP2 ADD SWAP2 SWAP1 SWAP2 MSTORE PUSH1 0x40 ADD PUSH1 0x0 KECCAK256 PUSH1 0x3 DUP2 ADD SLOAD SWAP1 SWAP2 POP PUSH1 0xFF AND DUP1 ISZERO PUSH2 0x22B9 JUMPI POP PUSH1 0x0 DUP2 PUSH1 0x2 ADD SLOAD GT JUMPDEST DUP1 ISZERO PUSH2 0x22C9 JUMPI POP PUSH1 0x0 DUP2 PUSH1 0x1 ADD SLOAD GT JUMPDEST ISZERO PUSH2 0x2302 JUMPI PUSH8 0xDE0B6B3A7640000 DUP2 PUSH1 0x2 ADD SLOAD DUP3 PUSH1 0x1 ADD SLOAD PUSH2 0x22EB SWAP2 SWAP1 PUSH2 0x4CB9 JUMP JUMPDEST PUSH2 0x22F5 SWAP2 SWAP1 PUSH2 0x4CE6 JUMP JUMPDEST PUSH2 0x22FF SWAP1 DUP6 PUSH2 0x4C90 JUMP JUMPDEST SWAP4 POP JUMPDEST POP POP DUP1 DUP1 PUSH2 0x230F SWAP1 PUSH2 0x4D1B JUMP JUMPDEST SWAP2 POP POP PUSH2 0x2241 JUMP JUMPDEST POP SWAP2 SWAP1 POP JUMP JUMPDEST PUSH1 0x0 DUP1 MLOAD PUSH1 0x20 PUSH2 0x4E3B DUP4 CODECOPY DUP2 MLOAD SWAP2 MSTORE PUSH2 0x2335 DUP2 PUSH2 0x2EB7 JUMP JUMPDEST PUSH1 0x1 PUSH1 0x1 PUSH1 0xA0 SHL SUB DUP3 AND PUSH2 0x235C JUMPI PUSH1 0x40 MLOAD PUSH4 0xD92E233D PUSH1 0xE0 SHL DUP2 MSTORE PUSH1 0x4 ADD PUSH1 0x40 MLOAD DUP1 SWAP2 SUB SWAP1 REVERT JUMPDEST PUSH1 0xF DUP1 SLOAD PUSH1 0x1 PUSH1 0x1 PUSH1 0xA0 SHL SUB NOT AND PUSH1 0x1 PUSH1 0x1 PUSH1 0xA0 SHL SUB DUP5 AND OR SWAP1 SSTORE PUSH1 0x40 MLOAD PUSH6 0x5055424C4943 PUSH1 0xD0 SHL DUP2 MSTORE PUSH1 0x6 ADD PUSH2 0xC92 JUMP JUMPDEST DUP4 TIMESTAMP GT ISZERO PUSH2 0x23DE JUMPI PUSH1 0x40 MLOAD PUSH3 0x461BCD PUSH1 0xE5 SHL DUP2 MSTORE PUSH1 0x20 PUSH1 0x4 DUP3 ADD MSTORE PUSH1 0x1D PUSH1 0x24 DUP3 ADD MSTORE PUSH32 0x4552433230566F7465733A207369676E61747572652065787069726564000000 PUSH1 0x44 DUP3 ADD MSTORE PUSH1 0x64 ADD PUSH2 0xED2 JUMP JUMPDEST PUSH1 0x40 DUP1 MLOAD PUSH32 0xE48329057BFD03D55E49B547132E39CFFD9C1820AD7B9D4C5307691425D15ADF PUSH1 0x20 DUP3 ADD MSTORE PUSH1 0x1 PUSH1 0x1 PUSH1 0xA0 SHL SUB DUP9 AND SWAP2 DUP2 ADD SWAP2 SWAP1 SWAP2 MSTORE PUSH1 0x60 DUP2 ADD DUP7 SWAP1 MSTORE PUSH1 0x80 DUP2 ADD DUP6 SWAP1 MSTORE PUSH1 0x0 SWAP1 PUSH2 0x2458 SWAP1 PUSH2 0x2450 SWAP1 PUSH1 0xA0 ADD PUSH1 0x40 MLOAD PUSH1 0x20 DUP2 DUP4 SUB SUB DUP2 MSTORE SWAP1 PUSH1 0x40 MSTORE DUP1 MLOAD SWAP1 PUSH1 0x20 ADD KECCAK256 PUSH2 0x37B4 JUMP JUMPDEST DUP6 DUP6 DUP6 PUSH2 0x37E1 JUMP JUMPDEST SWAP1 POP PUSH2 0x2463 DUP2 PUSH2 0x380B JUMP JUMPDEST DUP7 EQ PUSH2 0x24B1 JUMPI PUSH1 0x40 MLOAD PUSH3 0x461BCD PUSH1 0xE5 SHL DUP2 MSTORE PUSH1 0x20 PUSH1 0x4 DUP3 ADD MSTORE PUSH1 0x19 PUSH1 0x24 DUP3 ADD MSTORE PUSH32 0x4552433230566F7465733A20696E76616C6964206E6F6E636500000000000000 PUSH1 0x44 DUP3 ADD MSTORE PUSH1 0x64 ADD PUSH2 0xED2 JUMP JUMPDEST PUSH2 0x24BB DUP2 DUP9 PUSH2 0x348F JUMP JUMPDEST POP POP POP POP POP POP POP JUMP JUMPDEST PUSH1 0x0 DUP1 MLOAD PUSH1 0x20 PUSH2 0x4E1B DUP4 CODECOPY DUP2 MLOAD SWAP2 MSTORE PUSH2 0x24DC DUP2 PUSH2 0x2EB7 JUMP JUMPDEST PUSH1 0x1 PUSH1 0x1 PUSH1 0xA0 SHL SUB DUP3 AND PUSH2 0x2503 JUMPI PUSH1 0x40 MLOAD PUSH4 0xD92E233D PUSH1 0xE0 SHL DUP2 MSTORE PUSH1 0x4 ADD PUSH1 0x40 MLOAD DUP1 SWAP2 SUB SWAP1 REVERT JUMPDEST PUSH1 0x2 DUP4 PUSH1 0x2 DUP2 GT ISZERO PUSH2 0x2517 JUMPI PUSH2 0x2517 PUSH2 0x4CA3 JUMP JUMPDEST GT ISZERO PUSH2 0x2536 JUMPI PUSH1 0x40 MLOAD PUSH4 0x6448D6E9 PUSH1 0xE1 SHL DUP2 MSTORE PUSH1 0x4 ADD PUSH1 0x40 MLOAD DUP1 SWAP2 SUB SWAP1 REVERT JUMPDEST DUP2 PUSH1 0x14 PUSH1 0x0 DUP6 PUSH1 0x2 DUP2 GT ISZERO PUSH2 0x254D JUMPI PUSH2 0x254D PUSH2 0x4CA3 JUMP JUMPDEST PUSH1 0x2 DUP2 GT ISZERO PUSH2 0x255E JUMPI PUSH2 0x255E PUSH2 0x4CA3 JUMP JUMPDEST DUP2 MSTORE PUSH1 0x20 ADD SWAP1 DUP2 MSTORE PUSH1 0x20 ADD PUSH1 0x0 KECCAK256 PUSH1 0x0 ADD PUSH1 0x0 PUSH2 0x100 EXP DUP2 SLOAD DUP2 PUSH1 0x1 PUSH1 0x1 PUSH1 0xA0 SHL SUB MUL NOT AND SWAP1 DUP4 PUSH1 0x1 PUSH1 0x1 PUSH1 0xA0 SHL SUB AND MUL OR SWAP1 SSTORE POP PUSH1 0x1 PUSH1 0x14 PUSH1 0x0 DUP6 PUSH1 0x2 DUP2 GT ISZERO PUSH2 0x25AB JUMPI PUSH2 0x25AB PUSH2 0x4CA3 JUMP JUMPDEST PUSH1 0x2 DUP2 GT ISZERO PUSH2 0x25BC JUMPI PUSH2 0x25BC PUSH2 0x4CA3 JUMP JUMPDEST DUP2 MSTORE PUSH1 0x20 DUP2 ADD SWAP2 SWAP1 SWAP2 MSTORE PUSH1 0x40 ADD PUSH1 0x0 KECCAK256 PUSH1 0x3 ADD DUP1 SLOAD PUSH1 0xFF NOT AND SWAP2 ISZERO ISZERO SWAP2 SWAP1 SWAP2 OR SWAP1 SSTORE DUP3 PUSH1 0x2 DUP2 GT ISZERO PUSH2 0x25F0 JUMPI PUSH2 0x25F0 PUSH2 0x4CA3 JUMP JUMPDEST PUSH1 0x40 MLOAD PUSH1 0x1 PUSH1 0x1 PUSH1 0xA0 SHL SUB DUP5 AND DUP2 MSTORE PUSH32 0x561ACD69F877DECB2BE770CA93EF06BB6A9E5D65DEFA3BACE8EAB67FEECAC572 SWAP1 PUSH1 0x20 ADD PUSH2 0x222F JUMP JUMPDEST PUSH2 0x2666 PUSH1 0x40 MLOAD DUP1 PUSH1 0xA0 ADD PUSH1 0x40 MSTORE DUP1 PUSH1 0x0 PUSH1 0x1 PUSH1 0x1 PUSH1 0xA0 SHL SUB AND DUP2 MSTORE PUSH1 0x20 ADD PUSH1 0x0 DUP2 MSTORE PUSH1 0x20 ADD PUSH1 0x0 DUP2 MSTORE PUSH1 0x20 ADD PUSH1 0x0 ISZERO ISZERO DUP2 MSTORE PUSH1 0x20 ADD PUSH1 0x0 DUP2 MSTORE POP SWAP1 JUMP JUMPDEST PUSH1 0x2 DUP3 PUSH1 0x2 DUP2 GT ISZERO PUSH2 0x267A JUMPI PUSH2 0x267A PUSH2 0x4CA3 JUMP JUMPDEST GT ISZERO PUSH2 0x2699 JUMPI PUSH1 0x40 MLOAD PUSH4 0x6448D6E9 PUSH1 0xE1 SHL DUP2 MSTORE PUSH1 0x4 ADD PUSH1 0x40 MLOAD DUP1 SWAP2 SUB SWAP1 REVERT JUMPDEST PUSH1 0x14 PUSH1 0x0 DUP4 PUSH1 0x2 DUP2 GT ISZERO PUSH2 0x26AF JUMPI PUSH2 0x26AF PUSH2 0x4CA3 JUMP JUMPDEST PUSH1 0x2 DUP2 GT ISZERO PUSH2 0x26C0 JUMPI PUSH2 0x26C0 PUSH2 0x4CA3 JUMP JUMPDEST DUP2 MSTORE PUSH1 0x20 DUP1 DUP3 ADD SWAP3 SWAP1 SWAP3 MSTORE PUSH1 0x40 SWAP1 DUP2 ADD PUSH1 0x0 KECCAK256 DUP2 MLOAD PUSH1 0xA0 DUP2 ADD DUP4 MSTORE DUP2 SLOAD PUSH1 0x1 PUSH1 0x1 PUSH1 0xA0 SHL SUB AND DUP2 MSTORE PUSH1 0x1 DUP3 ADD SLOAD SWAP4 DUP2 ADD SWAP4 SWAP1 SWAP4 MSTORE PUSH1 0x2 DUP2 ADD SLOAD SWAP2 DUP4 ADD SWAP2 SWAP1 SWAP2 MSTORE PUSH1 0x3 DUP2 ADD SLOAD PUSH1 0xFF AND ISZERO ISZERO PUSH1 0x60 DUP4 ADD MSTORE PUSH1 0x4 ADD SLOAD PUSH1 0x80 DUP3 ADD MSTORE SWAP3 SWAP2 POP POP JUMP JUMPDEST PUSH32 0x9F2DF0FED2C77648DE5860A4CC508CD0818C85B8B8A1AB4CEEEF8D981C8956A6 PUSH2 0x2748 DUP2 PUSH2 0x2EB7 JUMP JUMPDEST PUSH2 0x2750 PUSH2 0x2EC1 JUMP JUMPDEST PUSH1 0x1 PUSH1 0x1 PUSH1 0xA0 SHL SUB DUP5 AND PUSH2 0x2777 JUMPI PUSH1 0x40 MLOAD PUSH4 0xD92E233D PUSH1 0xE0 SHL DUP2 MSTORE PUSH1 0x4 ADD PUSH1 0x40 MLOAD DUP1 SWAP2 SUB SWAP1 REVERT JUMPDEST DUP3 PUSH1 0x0 SUB PUSH2 0x2798 JUMPI PUSH1 0x40 MLOAD PUSH4 0x1F2A2005 PUSH1 0xE0 SHL DUP2 MSTORE PUSH1 0x4 ADD PUSH1 0x40 MLOAD DUP1 SWAP2 SUB SWAP1 REVERT JUMPDEST PUSH2 0x27B8 PUSH12 0x19D971E4FE8401E74000000 PUSH10 0x152D02C7E14AF6800000 PUSH2 0x4C90 JUMP JUMPDEST DUP4 PUSH2 0x27C2 PUSH1 0x2 SLOAD SWAP1 JUMP JUMPDEST PUSH2 0x27CC SWAP2 SWAP1 PUSH2 0x4C90 JUMP JUMPDEST GT ISZERO PUSH2 0x27EB JUMPI PUSH1 0x40 MLOAD PUSH4 0xC30436E9 PUSH1 0xE0 SHL DUP2 MSTORE PUSH1 0x4 ADD PUSH1 0x40 MLOAD DUP1 SWAP2 SUB SWAP1 REVERT JUMPDEST PUSH2 0x27F5 DUP5 DUP5 PUSH2 0x3831 JUMP JUMPDEST DUP4 PUSH1 0x1 PUSH1 0x1 PUSH1 0xA0 SHL SUB AND PUSH32 0x9D89E36EADF856DB0AD9FFB5A569E07F95634DDDD9501141ECF04820484AD0DC DUP5 DUP5 PUSH1 0x40 MLOAD PUSH2 0xDD8 SWAP3 SWAP2 SWAP1 PUSH2 0x4C61 JUMP JUMPDEST DUP4 TIMESTAMP GT ISZERO PUSH2 0x2880 JUMPI PUSH1 0x40 MLOAD PUSH3 0x461BCD PUSH1 0xE5 SHL DUP2 MSTORE PUSH1 0x20 PUSH1 0x4 DUP3 ADD MSTORE PUSH1 0x1D PUSH1 0x24 DUP3 ADD MSTORE PUSH32 0x45524332305065726D69743A206578706972656420646561646C696E65000000 PUSH1 0x44 DUP3 ADD MSTORE PUSH1 0x64 ADD PUSH2 0xED2 JUMP JUMPDEST PUSH1 0x0 PUSH32 0x6E71EDAE12B1B97F4D1F60370FEF10105FA2FAAE0126114A169C64845D6126C9 DUP9 DUP9 DUP9 PUSH2 0x28AF DUP13 PUSH2 0x380B JUMP JUMPDEST PUSH1 0x40 DUP1 MLOAD PUSH1 0x20 DUP2 ADD SWAP7 SWAP1 SWAP7 MSTORE PUSH1 0x1 PUSH1 0x1 PUSH1 0xA0 SHL SUB SWAP5 DUP6 AND SWAP1 DUP7 ADD MSTORE SWAP3 SWAP1 SWAP2 AND PUSH1 0x60 DUP5 ADD MSTORE PUSH1 0x80 DUP4 ADD MSTORE PUSH1 0xA0 DUP3 ADD MSTORE PUSH1 0xC0 DUP2 ADD DUP7 SWAP1 MSTORE PUSH1 0xE0 ADD PUSH1 0x40 MLOAD PUSH1 0x20 DUP2 DUP4 SUB SUB DUP2 MSTORE SWAP1 PUSH1 0x40 MSTORE DUP1 MLOAD SWAP1 PUSH1 0x20 ADD KECCAK256 SWAP1 POP PUSH1 0x0 PUSH2 0x290A DUP3 PUSH2 0x37B4 JUMP JUMPDEST SWAP1 POP PUSH1 0x0 PUSH2 0x291A DUP3 DUP8 DUP8 DUP8 PUSH2 0x37E1 JUMP JUMPDEST SWAP1 POP DUP10 PUSH1 0x1 PUSH1 0x1 PUSH1 0xA0 SHL SUB AND DUP2 PUSH1 0x1 PUSH1 0x1 PUSH1 0xA0 SHL SUB AND EQ PUSH2 0x297D JUMPI PUSH1 0x40 MLOAD PUSH3 0x461BCD PUSH1 0xE5 SHL DUP2 MSTORE PUSH1 0x20 PUSH1 0x4 DUP3 ADD MSTORE PUSH1 0x1E PUSH1 0x24 DUP3 ADD MSTORE PUSH32 0x45524332305065726D69743A20696E76616C6964207369676E61747572650000 PUSH1 0x44 DUP3 ADD MSTORE PUSH1 0x64 ADD PUSH2 0xED2 JUMP JUMPDEST PUSH2 0x2988 DUP11 DUP11 DUP11 PUSH2 0x2D93 JUMP JUMPDEST POP POP POP POP POP POP POP POP POP POP JUMP JUMPDEST PUSH1 0x0 DUP3 DUP2 MSTORE PUSH1 0xC PUSH1 0x20 MSTORE PUSH1 0x40 SWAP1 KECCAK256 PUSH1 0x1 ADD SLOAD PUSH2 0x29AF DUP2 PUSH2 0x2EB7 JUMP JUMPDEST PUSH2 0xE2F DUP4 DUP4 PUSH2 0x32ED JUMP JUMPDEST PUSH1 0x1 PUSH1 0x1 PUSH1 0xA0 SHL SUB SWAP2 DUP3 AND PUSH1 0x0 SWAP1 DUP2 MSTORE PUSH1 0x1 PUSH1 0x20 SWAP1 DUP2 MSTORE PUSH1 0x40 DUP1 DUP4 KECCAK256 SWAP4 SWAP1 SWAP5 AND DUP3 MSTORE SWAP2 SWAP1 SWAP2 MSTORE KECCAK256 SLOAD SWAP1 JUMP JUMPDEST PUSH1 0x0 DUP1 PUSH2 0x29EF PUSH2 0x223C JUMP JUMPDEST SWAP1 POP PUSH1 0x0 PUSH2 0x29FC PUSH1 0x2 SLOAD SWAP1 JUMP JUMPDEST SWAP1 POP DUP2 ISZERO DUP1 PUSH2 0x2A09 JUMPI POP DUP1 ISZERO JUMPDEST ISZERO PUSH2 0x2A17 JUMPI PUSH1 0x0 SWAP3 POP POP POP SWAP1 JUMP JUMPDEST DUP1 PUSH2 0x2A2A DUP4 PUSH8 0xDE0B6B3A7640000 PUSH2 0x4CB9 JUMP JUMPDEST PUSH2 0x2A34 SWAP2 SWAP1 PUSH2 0x4CE6 JUMP JUMPDEST SWAP3 POP POP POP SWAP1 JUMP JUMPDEST PUSH2 0x2A43 PUSH2 0x2EC1 JUMP JUMPDEST DUP2 PUSH1 0x0 SUB PUSH2 0x2A64 JUMPI PUSH1 0x40 MLOAD PUSH4 0x1F2A2005 PUSH1 0xE0 SHL DUP2 MSTORE PUSH1 0x4 ADD PUSH1 0x40 MLOAD DUP1 SWAP2 SUB SWAP1 REVERT JUMPDEST CALLER PUSH1 0x0 SWAP1 DUP2 MSTORE PUSH1 0x20 DUP2 SWAP1 MSTORE PUSH1 0x40 SWAP1 KECCAK256 SLOAD DUP3 GT ISZERO PUSH2 0x2A94 JUMPI PUSH1 0x40 MLOAD PUSH4 0x1E9ACF17 PUSH1 0xE3 SHL DUP2 MSTORE PUSH1 0x4 ADD PUSH1 0x40 MLOAD DUP1 SWAP2 SUB SWAP1 REVERT JUMPDEST PUSH2 0x2A9E CALLER DUP4 PUSH2 0x2F09 JUMP JUMPDEST CALLER PUSH1 0x1 PUSH1 0x1 PUSH1 0xA0 SHL SUB AND PUSH32 0xFAD31924D655455395C87544C8AA1FFDB5A7505A22A3C2E03F28003B6556A75F DUP4 DUP4 PUSH1 0x40 MLOAD PUSH2 0xCCE SWAP3 SWAP2 SWAP1 PUSH2 0x4C61 JUMP JUMPDEST PUSH32 0xACF805600123EF007091DA3B3FFB39474074C656C127AA68CB0FFEC232A8FF8 PUSH2 0x2B03 DUP2 PUSH2 0x2EB7 JUMP JUMPDEST PUSH1 0x1 PUSH1 0x1 PUSH1 0xA0 SHL SUB DUP4 AND PUSH2 0x2B2A JUMPI PUSH1 0x40 MLOAD PUSH4 0xD92E233D PUSH1 0xE0 SHL DUP2 MSTORE PUSH1 0x4 ADD PUSH1 0x40 MLOAD DUP1 SWAP2 SUB SWAP1 REVERT JUMPDEST PUSH1 0x0 JUMPDEST PUSH1 0x2 PUSH1 0xFF DUP3 AND GT PUSH2 0x2BC2 JUMPI PUSH1 0x14 PUSH1 0x0 DUP3 PUSH1 0xFF AND PUSH1 0x2 DUP2 GT ISZERO PUSH2 0x2B51 JUMPI PUSH2 0x2B51 PUSH2 0x4CA3 JUMP JUMPDEST PUSH1 0x2 DUP2 GT ISZERO PUSH2 0x2B62 JUMPI PUSH2 0x2B62 PUSH2 0x4CA3 JUMP JUMPDEST PUSH1 0x2 DUP2 GT ISZERO PUSH2 0x2B73 JUMPI PUSH2 0x2B73 PUSH2 0x4CA3 JUMP JUMPDEST DUP2 MSTORE PUSH1 0x20 DUP2 ADD SWAP2 SWAP1 SWAP2 MSTORE PUSH1 0x40 ADD PUSH1 0x0 KECCAK256 SLOAD PUSH1 0x1 PUSH1 0x1 PUSH1 0xA0 SHL SUB SWAP1 DUP2 AND SWAP1 DUP7 AND SUB PUSH2 0x2BB0 JUMPI PUSH1 0x40 MLOAD PUSH4 0x3564C07 PUSH1 0xE2 SHL DUP2 MSTORE PUSH1 0x4 ADD PUSH1 0x40 MLOAD DUP1 SWAP2 SUB SWAP1 REVERT JUMPDEST DUP1 PUSH2 0x2BBA DUP2 PUSH2 0x4D1B JUMP JUMPDEST SWAP2 POP POP PUSH2 0x2B2D JUMP JUMPDEST POP PUSH2 0x2BD7 PUSH1 0x1 PUSH1 0x1 PUSH1 0xA0 SHL SUB DUP6 AND DUP5 DUP5 PUSH2 0x3784 JUMP JUMPDEST POP POP POP POP JUMP JUMPDEST PUSH1 0x0 DUP1 MLOAD PUSH1 0x20 PUSH2 0x4E3B DUP4 CODECOPY DUP2 MLOAD SWAP2 MSTORE PUSH2 0x2BF5 DUP2 PUSH2 0x2EB7 JUMP JUMPDEST PUSH1 0x1 PUSH1 0x1 PUSH1 0xA0 SHL SUB DUP3 AND PUSH2 0x2C1C JUMPI PUSH1 0x40 MLOAD PUSH4 0xD92E233D PUSH1 0xE0 SHL DUP2 MSTORE PUSH1 0x4 ADD PUSH1 0x40 MLOAD DUP1 SWAP2 SUB SWAP1 REVERT JUMPDEST PUSH1 0x12 DUP1 SLOAD PUSH1 0x1 PUSH1 0x1 PUSH1 0xA0 SHL SUB NOT AND PUSH1 0x1 PUSH1 0x1 PUSH1 0xA0 SHL SUB DUP5 AND OR SWAP1 SSTORE PUSH1 0x40 MLOAD PUSH13 0x434F4D4D554E4954595F44414F PUSH1 0x98 SHL DUP2 MSTORE PUSH1 0xD ADD PUSH2 0xC92 JUMP JUMPDEST PUSH1 0x40 DUP1 MLOAD DUP1 DUP3 ADD SWAP1 SWAP2 MSTORE PUSH1 0x0 DUP1 DUP3 MSTORE PUSH1 0x20 DUP3 ADD MSTORE PUSH1 0x1 PUSH1 0x1 PUSH1 0xA0 SHL SUB DUP4 AND PUSH1 0x0 SWAP1 DUP2 MSTORE PUSH1 0xA PUSH1 0x20 MSTORE PUSH1 0x40 SWAP1 KECCAK256 DUP1 SLOAD PUSH4 0xFFFFFFFF DUP5 AND SWAP1 DUP2 LT PUSH2 0x2C99 JUMPI PUSH2 0x2C99 PUSH2 0x4D3A JUMP JUMPDEST PUSH1 0x0 SWAP2 DUP3 MSTORE PUSH1 0x20 SWAP2 DUP3 SWAP1 KECCAK256 PUSH1 0x40 DUP1 MLOAD DUP1 DUP3 ADD SWAP1 SWAP2 MSTORE SWAP2 ADD SLOAD PUSH4 0xFFFFFFFF DUP2 AND DUP3 MSTORE PUSH5 0x100000000 SWAP1 DIV PUSH1 0x1 PUSH1 0x1 PUSH1 0xE0 SHL SUB AND SWAP2 DUP2 ADD SWAP2 SWAP1 SWAP2 MSTORE SWAP4 SWAP3 POP POP POP JUMP JUMPDEST PUSH1 0x0 DUP1 MLOAD PUSH1 0x20 PUSH2 0x4E5B DUP4 CODECOPY DUP2 MLOAD SWAP2 MSTORE PUSH2 0x2CF1 DUP2 PUSH2 0x2EB7 JUMP JUMPDEST PUSH2 0xEE5 PUSH1 0x0 DUP1 MLOAD PUSH1 0x20 PUSH2 0x4E7B DUP4 CODECOPY DUP2 MLOAD SWAP2 MSTORE DUP4 PUSH2 0x32ED JUMP JUMPDEST PUSH1 0x0 DUP1 MLOAD PUSH1 0x20 PUSH2 0x4E3B DUP4 CODECOPY DUP2 MLOAD SWAP2 MSTORE PUSH2 0x2D21 DUP2 PUSH2 0x2EB7 JUMP JUMPDEST PUSH1 0x1 PUSH1 0x1 PUSH1 0xA0 SHL SUB DUP3 AND PUSH2 0x2D48 JUMPI PUSH1 0x40 MLOAD PUSH4 0xD92E233D PUSH1 0xE0 SHL DUP2 MSTORE PUSH1 0x4 ADD PUSH1 0x40 MLOAD DUP1 SWAP2 SUB SWAP1 REVERT JUMPDEST PUSH1 0x11 DUP1 SLOAD PUSH1 0x1 PUSH1 0x1 PUSH1 0xA0 SHL SUB NOT AND PUSH1 0x1 PUSH1 0x1 PUSH1 0xA0 SHL SUB DUP5 AND OR SWAP1 SSTORE PUSH1 0x40 MLOAD PUSH7 0x52455345525645 PUSH1 0xC8 SHL DUP2 MSTORE PUSH1 0x7 ADD PUSH2 0xC92 JUMP JUMPDEST PUSH1 0x0 PUSH2 0xF89 DUP3 DUP5 PUSH2 0x4C90 JUMP JUMPDEST PUSH1 0x0 PUSH2 0xF89 DUP3 DUP5 PUSH2 0x4D08 JUMP JUMPDEST PUSH1 0x1 PUSH1 0x1 PUSH1 0xA0 SHL SUB DUP4 AND PUSH2 0x2DF5 JUMPI PUSH1 0x40 MLOAD PUSH3 0x461BCD PUSH1 0xE5 SHL DUP2 MSTORE PUSH1 0x20 PUSH1 0x4 DUP3 ADD MSTORE PUSH1 0x24 DUP1 DUP3 ADD MSTORE PUSH32 0x45524332303A20617070726F76652066726F6D20746865207A65726F20616464 PUSH1 0x44 DUP3 ADD MSTORE PUSH4 0x72657373 PUSH1 0xE0 SHL PUSH1 0x64 DUP3 ADD MSTORE PUSH1 0x84 ADD PUSH2 0xED2 JUMP JUMPDEST PUSH1 0x1 PUSH1 0x1 PUSH1 0xA0 SHL SUB DUP3 AND PUSH2 0x2E56 JUMPI PUSH1 0x40 MLOAD PUSH3 0x461BCD PUSH1 0xE5 SHL DUP2 MSTORE PUSH1 0x20 PUSH1 0x4 DUP3 ADD MSTORE PUSH1 0x22 PUSH1 0x24 DUP3 ADD MSTORE PUSH32 0x45524332303A20617070726F766520746F20746865207A65726F206164647265 PUSH1 0x44 DUP3 ADD MSTORE PUSH2 0x7373 PUSH1 0xF0 SHL PUSH1 0x64 DUP3 ADD MSTORE PUSH1 0x84 ADD PUSH2 0xED2 JUMP JUMPDEST PUSH1 0x1 PUSH1 0x1 PUSH1 0xA0 SHL SUB DUP4 DUP2 AND PUSH1 0x0 DUP2 DUP2 MSTORE PUSH1 0x1 PUSH1 0x20 SWAP1 DUP2 MSTORE PUSH1 0x40 DUP1 DUP4 KECCAK256 SWAP5 DUP8 AND DUP1 DUP5 MSTORE SWAP5 DUP3 MSTORE SWAP2 DUP3 SWAP1 KECCAK256 DUP6 SWAP1 SSTORE SWAP1 MLOAD DUP5 DUP2 MSTORE PUSH32 0x8C5BE1E5EBEC7D5BD14F71427D1E84F3DD0314C0F7B2291E5B200AC8C7C3B925 SWAP2 ADD PUSH1 0x40 MLOAD DUP1 SWAP2 SUB SWAP1 LOG3 POP POP POP JUMP JUMPDEST PUSH2 0xFC2 DUP2 CALLER PUSH2 0x383B JUMP JUMPDEST PUSH1 0xD SLOAD PUSH1 0xFF AND ISZERO PUSH2 0x2F07 JUMPI PUSH1 0x40 MLOAD PUSH3 0x461BCD PUSH1 0xE5 SHL DUP2 MSTORE PUSH1 0x20 PUSH1 0x4 DUP3 ADD MSTORE PUSH1 0x10 PUSH1 0x24 DUP3 ADD MSTORE PUSH16 0x14185D5CD8589B194E881C185D5CD959 PUSH1 0x82 SHL PUSH1 0x44 DUP3 ADD MSTORE PUSH1 0x64 ADD PUSH2 0xED2 JUMP JUMPDEST JUMP JUMPDEST PUSH2 0xEE5 DUP3 DUP3 PUSH2 0x3894 JUMP JUMPDEST PUSH1 0x0 PUSH2 0x2F1F DUP5 DUP5 PUSH2 0x29B9 JUMP JUMPDEST SWAP1 POP PUSH1 0x0 NOT DUP2 EQ PUSH2 0x2BD7 JUMPI DUP2 DUP2 LT ISZERO PUSH2 0x2F7A JUMPI PUSH1 0x40 MLOAD PUSH3 0x461BCD PUSH1 0xE5 SHL DUP2 MSTORE PUSH1 0x20 PUSH1 0x4 DUP3 ADD MSTORE PUSH1 0x1D PUSH1 0x24 DUP3 ADD MSTORE PUSH32 0x45524332303A20696E73756666696369656E7420616C6C6F77616E6365000000 PUSH1 0x44 DUP3 ADD MSTORE PUSH1 0x64 ADD PUSH2 0xED2 JUMP JUMPDEST PUSH2 0x2BD7 DUP5 DUP5 DUP5 DUP5 SUB PUSH2 0x2D93 JUMP JUMPDEST PUSH1 0x1 PUSH1 0x1 PUSH1 0xA0 SHL SUB DUP4 AND PUSH2 0x2FEB JUMPI PUSH1 0x40 MLOAD PUSH3 0x461BCD PUSH1 0xE5 SHL DUP2 MSTORE PUSH1 0x20 PUSH1 0x4 DUP3 ADD MSTORE PUSH1 0x25 PUSH1 0x24 DUP3 ADD MSTORE PUSH32 0x45524332303A207472616E736665722066726F6D20746865207A65726F206164 PUSH1 0x44 DUP3 ADD MSTORE PUSH5 0x6472657373 PUSH1 0xD8 SHL PUSH1 0x64 DUP3 ADD MSTORE PUSH1 0x84 ADD PUSH2 0xED2 JUMP JUMPDEST PUSH1 0x1 PUSH1 0x1 PUSH1 0xA0 SHL SUB DUP3 AND PUSH2 0x304D JUMPI PUSH1 0x40 MLOAD PUSH3 0x461BCD PUSH1 0xE5 SHL DUP2 MSTORE PUSH1 0x20 PUSH1 0x4 DUP3 ADD MSTORE PUSH1 0x23 PUSH1 0x24 DUP3 ADD MSTORE PUSH32 0x45524332303A207472616E7366657220746F20746865207A65726F2061646472 PUSH1 0x44 DUP3 ADD MSTORE PUSH3 0x657373 PUSH1 0xE8 SHL PUSH1 0x64 DUP3 ADD MSTORE PUSH1 0x84 ADD PUSH2 0xED2 JUMP JUMPDEST PUSH2 0x3058 DUP4 DUP4 DUP4 PUSH2 0x38AC JUMP JUMPDEST PUSH1 0x1 PUSH1 0x1 PUSH1 0xA0 SHL SUB DUP4 AND PUSH1 0x0 SWAP1 DUP2 MSTORE PUSH1 0x20 DUP2 SWAP1 MSTORE PUSH1 0x40 SWAP1 KECCAK256 SLOAD DUP2 DUP2 LT ISZERO PUSH2 0x30D0 JUMPI PUSH1 0x40 MLOAD PUSH3 0x461BCD PUSH1 0xE5 SHL DUP2 MSTORE PUSH1 0x20 PUSH1 0x4 DUP3 ADD MSTORE PUSH1 0x26 PUSH1 0x24 DUP3 ADD MSTORE PUSH32 0x45524332303A207472616E7366657220616D6F756E7420657863656564732062 PUSH1 0x44 DUP3 ADD MSTORE PUSH6 0x616C616E6365 PUSH1 0xD0 SHL PUSH1 0x64 DUP3 ADD MSTORE PUSH1 0x84 ADD PUSH2 0xED2 JUMP JUMPDEST PUSH1 0x1 PUSH1 0x1 PUSH1 0xA0 SHL SUB DUP5 DUP2 AND PUSH1 0x0 DUP2 DUP2 MSTORE PUSH1 0x20 DUP2 DUP2 MSTORE PUSH1 0x40 DUP1 DUP4 KECCAK256 DUP8 DUP8 SUB SWAP1 SSTORE SWAP4 DUP8 AND DUP1 DUP4 MSTORE SWAP2 DUP5 SWAP1 KECCAK256 DUP1 SLOAD DUP8 ADD SWAP1 SSTORE SWAP3 MLOAD DUP6 DUP2 MSTORE SWAP1 SWAP3 PUSH32 0xDDF252AD1BE2C89B69C2B068FC378DAA952BA7F163C4A11628F55A4DF523B3EF SWAP2 ADD PUSH1 0x40 MLOAD DUP1 SWAP2 SUB SWAP1 LOG3 PUSH2 0x2BD7 DUP5 DUP5 DUP5 PUSH2 0x38B4 JUMP JUMPDEST PUSH2 0x3146 DUP3 DUP3 PUSH2 0x1BB5 JUMP JUMPDEST PUSH2 0xEE5 JUMPI PUSH1 0x0 DUP3 DUP2 MSTORE PUSH1 0xC PUSH1 0x20 SWAP1 DUP2 MSTORE PUSH1 0x40 DUP1 DUP4 KECCAK256 PUSH1 0x1 PUSH1 0x1 PUSH1 0xA0 SHL SUB DUP6 AND DUP5 MSTORE SWAP1 SWAP2 MSTORE SWAP1 KECCAK256 DUP1 SLOAD PUSH1 0xFF NOT AND PUSH1 0x1 OR SWAP1 SSTORE PUSH2 0x317E CALLER SWAP1 JUMP JUMPDEST PUSH1 0x1 PUSH1 0x1 PUSH1 0xA0 SHL SUB AND DUP2 PUSH1 0x1 PUSH1 0x1 PUSH1 0xA0 SHL SUB AND DUP4 PUSH32 0x2F8788117E7EFF1D82E926EC794901D17C78024A50270940304540A733656F0D PUSH1 0x40 MLOAD PUSH1 0x40 MLOAD DUP1 SWAP2 SUB SWAP1 LOG4 POP POP JUMP JUMPDEST PUSH1 0x0 ADDRESS PUSH1 0x1 PUSH1 0x1 PUSH1 0xA0 SHL SUB PUSH32 0x0 AND EQ DUP1 ISZERO PUSH2 0x321B JUMPI POP PUSH32 0x0 CHAINID EQ JUMPDEST ISZERO PUSH2 0x3245 JUMPI POP PUSH32 0x0 SWAP1 JUMP JUMPDEST PUSH2 0xE61 PUSH1 0x40 DUP1 MLOAD PUSH32 0x8B73C3C69BB8FE3D512ECC4CF759CC79239F7B179B0FFACAA9A75D522B39400F PUSH1 0x20 DUP3 ADD MSTORE PUSH32 0x0 SWAP2 DUP2 ADD SWAP2 SWAP1 SWAP2 MSTORE PUSH32 0x0 PUSH1 0x60 DUP3 ADD MSTORE CHAINID PUSH1 0x80 DUP3 ADD MSTORE ADDRESS PUSH1 0xA0 DUP3 ADD MSTORE PUSH1 0x0 SWAP1 PUSH1 0xC0 ADD PUSH1 0x40 MLOAD PUSH1 0x20 DUP2 DUP4 SUB SUB DUP2 MSTORE SWAP1 PUSH1 0x40 MSTORE DUP1 MLOAD SWAP1 PUSH1 0x20 ADD KECCAK256 SWAP1 POP SWAP1 JUMP JUMPDEST PUSH2 0x32F7 DUP3 DUP3 PUSH2 0x1BB5 JUMP JUMPDEST ISZERO PUSH2 0xEE5 JUMPI PUSH1 0x0 DUP3 DUP2 MSTORE PUSH1 0xC PUSH1 0x20 SWAP1 DUP2 MSTORE PUSH1 0x40 DUP1 DUP4 KECCAK256 PUSH1 0x1 PUSH1 0x1 PUSH1 0xA0 SHL SUB DUP6 AND DUP1 DUP6 MSTORE SWAP3 MSTORE DUP1 DUP4 KECCAK256 DUP1 SLOAD PUSH1 0xFF NOT AND SWAP1 SSTORE MLOAD CALLER SWAP3 DUP6 SWAP2 PUSH32 0xF6391F5C32D9C69D2A47EA670B442974B53935D1EDC7FD64EB21E047A839171B SWAP2 SWAP1 LOG4 POP POP JUMP JUMPDEST DUP2 SLOAD PUSH1 0x0 SWAP1 DUP2 DUP2 PUSH1 0x5 DUP2 GT ISZERO PUSH2 0x33AE JUMPI PUSH1 0x0 PUSH2 0x336F DUP5 PUSH2 0x38BF JUMP JUMPDEST PUSH2 0x3379 SWAP1 DUP6 PUSH2 0x4D08 JUMP JUMPDEST PUSH1 0x0 DUP9 DUP2 MSTORE PUSH1 0x20 SWAP1 KECCAK256 SWAP1 SWAP2 POP DUP7 SWAP1 DUP3 ADD SLOAD PUSH4 0xFFFFFFFF AND GT ISZERO PUSH2 0x339E JUMPI DUP1 SWAP2 POP PUSH2 0x33AC JUMP JUMPDEST PUSH2 0x33A9 DUP2 PUSH1 0x1 PUSH2 0x4C90 JUMP JUMPDEST SWAP3 POP JUMPDEST POP JUMPDEST DUP1 DUP3 LT ISZERO PUSH2 0x33FB JUMPI PUSH1 0x0 PUSH2 0x33C2 DUP4 DUP4 PUSH2 0x39A7 JUMP JUMPDEST PUSH1 0x0 DUP9 DUP2 MSTORE PUSH1 0x20 SWAP1 KECCAK256 SWAP1 SWAP2 POP DUP7 SWAP1 DUP3 ADD SLOAD PUSH4 0xFFFFFFFF AND GT ISZERO PUSH2 0x33E7 JUMPI DUP1 SWAP2 POP PUSH2 0x33F5 JUMP JUMPDEST PUSH2 0x33F2 DUP2 PUSH1 0x1 PUSH2 0x4C90 JUMP JUMPDEST SWAP3 POP JUMPDEST POP PUSH2 0x33AE JUMP JUMPDEST DUP1 ISZERO PUSH2 0x3427 JUMPI PUSH1 0x0 DUP7 DUP2 MSTORE PUSH1 0x20 SWAP1 KECCAK256 DUP2 ADD PUSH1 0x0 NOT ADD SLOAD PUSH5 0x100000000 SWAP1 DIV PUSH1 0x1 PUSH1 0x1 PUSH1 0xE0 SHL SUB AND PUSH2 0x342A JUMP JUMPDEST PUSH1 0x0 JUMPDEST PUSH1 0x1 PUSH1 0x1 PUSH1 0xE0 SHL SUB AND SWAP7 SWAP6 POP POP POP POP POP POP JUMP JUMPDEST PUSH2 0x3445 PUSH2 0x39C2 JUMP JUMPDEST PUSH1 0xD DUP1 SLOAD PUSH1 0xFF NOT AND SWAP1 SSTORE PUSH32 0x5DB9EE0A495BF2E6FF9C91A7834C1BA4FDD244A5E8AA4E537BD38AEAE4B073AA CALLER JUMPDEST PUSH1 0x40 MLOAD PUSH1 0x1 PUSH1 0x1 PUSH1 0xA0 SHL SUB SWAP1 SWAP2 AND DUP2 MSTORE PUSH1 0x20 ADD PUSH1 0x40 MLOAD DUP1 SWAP2 SUB SWAP1 LOG1 JUMP JUMPDEST PUSH1 0x1 PUSH1 0x1 PUSH1 0xA0 SHL SUB DUP3 DUP2 AND PUSH1 0x0 DUP2 DUP2 MSTORE PUSH1 0x9 PUSH1 0x20 DUP2 DUP2 MSTORE PUSH1 0x40 DUP1 DUP5 KECCAK256 DUP1 SLOAD DUP6 DUP5 MSTORE DUP3 DUP7 KECCAK256 SLOAD SWAP5 SWAP1 SWAP4 MSTORE DUP8 DUP8 AND PUSH1 0x1 PUSH1 0x1 PUSH1 0xA0 SHL SUB NOT DUP5 AND DUP2 OR SWAP1 SWAP2 SSTORE SWAP1 MLOAD SWAP2 SWAP1 SWAP6 AND SWAP5 SWAP2 SWAP4 SWAP2 SWAP3 DUP6 SWAP3 SWAP2 PUSH32 0x3134E8A2E6D97E929A7E54011EA5485D7D196DD5F0BA4D4EF95803E8E3FC257F SWAP2 SWAP1 LOG4 PUSH2 0x2BD7 DUP3 DUP5 DUP4 PUSH2 0x3A0B JUMP JUMPDEST PUSH1 0x0 PUSH4 0xFFFFFFFF DUP3 GT ISZERO PUSH2 0x356D JUMPI PUSH1 0x40 MLOAD PUSH3 0x461BCD PUSH1 0xE5 SHL DUP2 MSTORE PUSH1 0x20 PUSH1 0x4 DUP3 ADD MSTORE PUSH1 0x26 PUSH1 0x24 DUP3 ADD MSTORE PUSH32 0x53616665436173743A2076616C756520646F65736E27742066697420696E2033 PUSH1 0x44 DUP3 ADD MSTORE PUSH6 0x322062697473 PUSH1 0xD0 SHL PUSH1 0x64 DUP3 ADD MSTORE PUSH1 0x84 ADD PUSH2 0xED2 JUMP JUMPDEST POP SWAP1 JUMP JUMPDEST PUSH2 0x3579 PUSH2 0x2EC1 JUMP JUMPDEST PUSH1 0xD DUP1 SLOAD PUSH1 0xFF NOT AND PUSH1 0x1 OR SWAP1 SSTORE PUSH32 0x62E78CEA01BEE320CD4E420270B5EA74000D11B0C9F74754EBDBFC544B05A258 PUSH2 0x3472 CALLER SWAP1 JUMP JUMPDEST PUSH1 0x60 PUSH1 0xFF DUP4 EQ PUSH2 0x35C8 JUMPI PUSH2 0x35C1 DUP4 PUSH2 0x3B48 JUMP JUMPDEST SWAP1 POP PUSH2 0xB6F JUMP JUMPDEST DUP2 DUP1 SLOAD PUSH2 0x35D4 SWAP1 PUSH2 0x4C2D JUMP JUMPDEST DUP1 PUSH1 0x1F ADD PUSH1 0x20 DUP1 SWAP2 DIV MUL PUSH1 0x20 ADD PUSH1 0x40 MLOAD SWAP1 DUP2 ADD PUSH1 0x40 MSTORE DUP1 SWAP3 SWAP2 SWAP1 DUP2 DUP2 MSTORE PUSH1 0x20 ADD DUP3 DUP1 SLOAD PUSH2 0x3600 SWAP1 PUSH2 0x4C2D JUMP JUMPDEST DUP1 ISZERO PUSH2 0x364D JUMPI DUP1 PUSH1 0x1F LT PUSH2 0x3622 JUMPI PUSH2 0x100 DUP1 DUP4 SLOAD DIV MUL DUP4 MSTORE SWAP2 PUSH1 0x20 ADD SWAP2 PUSH2 0x364D JUMP JUMPDEST DUP3 ADD SWAP2 SWAP1 PUSH1 0x0 MSTORE PUSH1 0x20 PUSH1 0x0 KECCAK256 SWAP1 JUMPDEST DUP2 SLOAD DUP2 MSTORE SWAP1 PUSH1 0x1 ADD SWAP1 PUSH1 0x20 ADD DUP1 DUP4 GT PUSH2 0x3630 JUMPI DUP3 SWAP1 SUB PUSH1 0x1F AND DUP3 ADD SWAP2 JUMPDEST POP POP POP POP POP SWAP1 POP PUSH2 0xB6F JUMP JUMPDEST PUSH1 0x0 PUSH6 0xFFFFFFFFFFFF DUP3 GT ISZERO PUSH2 0x356D JUMPI PUSH1 0x40 MLOAD PUSH3 0x461BCD PUSH1 0xE5 SHL DUP2 MSTORE PUSH1 0x20 PUSH1 0x4 DUP3 ADD MSTORE PUSH1 0x26 PUSH1 0x24 DUP3 ADD MSTORE PUSH32 0x53616665436173743A2076616C756520646F65736E27742066697420696E2034 PUSH1 0x44 DUP3 ADD MSTORE PUSH6 0x382062697473 PUSH1 0xD0 SHL PUSH1 0x64 DUP3 ADD MSTORE PUSH1 0x84 ADD PUSH2 0xED2 JUMP JUMPDEST PUSH1 0x40 MLOAD PUSH1 0x1 PUSH1 0x1 PUSH1 0xA0 SHL SUB DUP1 DUP6 AND PUSH1 0x24 DUP4 ADD MSTORE DUP4 AND PUSH1 0x44 DUP3 ADD MSTORE PUSH1 0x64 DUP2 ADD DUP3 SWAP1 MSTORE PUSH2 0x2BD7 SWAP1 DUP6 SWAP1 PUSH4 0x23B872DD PUSH1 0xE0 SHL SWAP1 PUSH1 0x84 ADD JUMPDEST PUSH1 0x40 DUP1 MLOAD PUSH1 0x1F NOT DUP2 DUP5 SUB ADD DUP2 MSTORE SWAP2 SWAP1 MSTORE PUSH1 0x20 DUP2 ADD DUP1 MLOAD PUSH1 0x1 PUSH1 0x1 PUSH1 0xE0 SHL SUB AND PUSH1 0x1 PUSH1 0x1 PUSH1 0xE0 SHL SUB NOT SWAP1 SWAP4 AND SWAP3 SWAP1 SWAP3 OR SWAP1 SWAP2 MSTORE PUSH2 0x3B87 JUMP JUMPDEST PUSH1 0x2 PUSH1 0xE SLOAD SUB PUSH2 0x377D JUMPI PUSH1 0x40 MLOAD PUSH3 0x461BCD PUSH1 0xE5 SHL DUP2 MSTORE PUSH1 0x20 PUSH1 0x4 DUP3 ADD MSTORE PUSH1 0x1F PUSH1 0x24 DUP3 ADD MSTORE PUSH32 0x5265656E7472616E637947756172643A207265656E7472616E742063616C6C00 PUSH1 0x44 DUP3 ADD MSTORE PUSH1 0x64 ADD PUSH2 0xED2 JUMP JUMPDEST PUSH1 0x2 PUSH1 0xE SSTORE JUMP JUMPDEST PUSH1 0x40 MLOAD PUSH1 0x1 PUSH1 0x1 PUSH1 0xA0 SHL SUB DUP4 AND PUSH1 0x24 DUP3 ADD MSTORE PUSH1 0x44 DUP2 ADD DUP3 SWAP1 MSTORE PUSH2 0xE2F SWAP1 DUP5 SWAP1 PUSH4 0xA9059CBB PUSH1 0xE0 SHL SWAP1 PUSH1 0x64 ADD PUSH2 0x36F4 JUMP JUMPDEST PUSH1 0x0 PUSH2 0xB6F PUSH2 0x37C1 PUSH2 0x31C2 JUMP JUMPDEST DUP4 PUSH1 0x40 MLOAD PUSH2 0x1901 PUSH1 0xF0 SHL DUP2 MSTORE PUSH1 0x2 DUP2 ADD SWAP3 SWAP1 SWAP3 MSTORE PUSH1 0x22 DUP3 ADD MSTORE PUSH1 0x42 SWAP1 KECCAK256 SWAP1 JUMP JUMPDEST PUSH1 0x0 DUP1 PUSH1 0x0 PUSH2 0x37F2 DUP8 DUP8 DUP8 DUP8 PUSH2 0x3C5C JUMP JUMPDEST SWAP2 POP SWAP2 POP PUSH2 0x37FF DUP2 PUSH2 0x3D20 JUMP JUMPDEST POP SWAP1 POP JUMPDEST SWAP5 SWAP4 POP POP POP POP JUMP JUMPDEST PUSH1 0x1 PUSH1 0x1 PUSH1 0xA0 SHL SUB DUP2 AND PUSH1 0x0 SWAP1 DUP2 MSTORE PUSH1 0x7 PUSH1 0x20 MSTORE PUSH1 0x40 SWAP1 KECCAK256 DUP1 SLOAD PUSH1 0x1 DUP2 ADD DUP3 SSTORE SWAP1 PUSH2 0x2317 JUMP JUMPDEST PUSH2 0xEE5 DUP3 DUP3 PUSH2 0x3E6A JUMP JUMPDEST PUSH2 0x3845 DUP3 DUP3 PUSH2 0x1BB5 JUMP JUMPDEST PUSH2 0xEE5 JUMPI PUSH2 0x3852 DUP2 PUSH2 0x3EF4 JUMP JUMPDEST PUSH2 0x385D DUP4 PUSH1 0x20 PUSH2 0x3F06 JUMP JUMPDEST PUSH1 0x40 MLOAD PUSH1 0x20 ADD PUSH2 0x386E SWAP3 SWAP2 SWAP1 PUSH2 0x4D50 JUMP JUMPDEST PUSH1 0x40 DUP1 MLOAD PUSH1 0x1F NOT DUP2 DUP5 SUB ADD DUP2 MSTORE SWAP1 DUP3 SWAP1 MSTORE PUSH3 0x461BCD PUSH1 0xE5 SHL DUP3 MSTORE PUSH2 0xED2 SWAP2 PUSH1 0x4 ADD PUSH2 0x479E JUMP JUMPDEST PUSH2 0x389E DUP3 DUP3 PUSH2 0x40A2 JUMP JUMPDEST PUSH2 0x2BD7 PUSH1 0xB PUSH2 0x2D87 DUP4 PUSH2 0x41E7 JUMP JUMPDEST PUSH2 0xE2F PUSH2 0x2EC1 JUMP JUMPDEST PUSH2 0xE2F DUP4 DUP4 DUP4 PUSH2 0x435C JUMP JUMPDEST PUSH1 0x0 DUP2 PUSH1 0x0 SUB PUSH2 0x38D1 JUMPI POP PUSH1 0x0 SWAP2 SWAP1 POP JUMP JUMPDEST PUSH1 0x0 PUSH1 0x1 PUSH2 0x38DE DUP5 PUSH2 0x438E JUMP JUMPDEST SWAP1 SHR PUSH1 0x1 SWAP1 SHL SWAP1 POP PUSH1 0x1 DUP2 DUP5 DUP2 PUSH2 0x38F7 JUMPI PUSH2 0x38F7 PUSH2 0x4CD0 JUMP JUMPDEST DIV DUP3 ADD SWAP1 SHR SWAP1 POP PUSH1 0x1 DUP2 DUP5 DUP2 PUSH2 0x390F JUMPI PUSH2 0x390F PUSH2 0x4CD0 JUMP JUMPDEST DIV DUP3 ADD SWAP1 SHR SWAP1 POP PUSH1 0x1 DUP2 DUP5 DUP2 PUSH2 0x3927 JUMPI PUSH2 0x3927 PUSH2 0x4CD0 JUMP JUMPDEST DIV DUP3 ADD SWAP1 SHR SWAP1 POP PUSH1 0x1 DUP2 DUP5 DUP2 PUSH2 0x393F JUMPI PUSH2 0x393F PUSH2 0x4CD0 JUMP JUMPDEST DIV DUP3 ADD SWAP1 SHR SWAP1 POP PUSH1 0x1 DUP2 DUP5 DUP2 PUSH2 0x3957 JUMPI PUSH2 0x3957 PUSH2 0x4CD0 JUMP JUMPDEST DIV DUP3 ADD SWAP1 SHR SWAP1 POP PUSH1 0x1 DUP2 DUP5 DUP2 PUSH2 0x396F JUMPI PUSH2 0x396F PUSH2 0x4CD0 JUMP JUMPDEST DIV DUP3 ADD SWAP1 SHR SWAP1 POP PUSH1 0x1 DUP2 DUP5 DUP2 PUSH2 0x3987 JUMPI PUSH2 0x3987 PUSH2 0x4CD0 JUMP JUMPDEST DIV DUP3 ADD SWAP1 SHR SWAP1 POP PUSH2 0xF89 DUP2 DUP3 DUP6 DUP2 PUSH2 0x39A1 JUMPI PUSH2 0x39A1 PUSH2 0x4CD0 JUMP JUMPDEST DIV PUSH2 0x4422 JUMP JUMPDEST PUSH1 0x0 PUSH2 0x39B6 PUSH1 0x2 DUP5 DUP5 XOR PUSH2 0x4CE6 JUMP JUMPDEST PUSH2 0xF89 SWAP1 DUP5 DUP5 AND PUSH2 0x4C90 JUMP JUMPDEST PUSH1 0xD SLOAD PUSH1 0xFF AND PUSH2 0x2F07 JUMPI PUSH1 0x40 MLOAD PUSH3 0x461BCD PUSH1 0xE5 SHL DUP2 MSTORE PUSH1 0x20 PUSH1 0x4 DUP3 ADD MSTORE PUSH1 0x14 PUSH1 0x24 DUP3 ADD MSTORE PUSH20 0x14185D5CD8589B194E881B9BDD081C185D5CD959 PUSH1 0x62 SHL PUSH1 0x44 DUP3 ADD MSTORE PUSH1 0x64 ADD PUSH2 0xED2 JUMP JUMPDEST DUP2 PUSH1 0x1 PUSH1 0x1 PUSH1 0xA0 SHL SUB AND DUP4 PUSH1 0x1 PUSH1 0x1 PUSH1 0xA0 SHL SUB AND EQ ISZERO DUP1 ISZERO PUSH2 0x3A2D JUMPI POP PUSH1 0x0 DUP2 GT JUMPDEST ISZERO PUSH2 0xE2F JUMPI PUSH1 0x1 PUSH1 0x1 PUSH1 0xA0 SHL SUB DUP4 AND ISZERO PUSH2 0x3ABB JUMPI PUSH1 0x1 PUSH1 0x1 PUSH1 0xA0 SHL SUB DUP4 AND PUSH1 0x0 SWAP1 DUP2 MSTORE PUSH1 0xA PUSH1 0x20 MSTORE PUSH1 0x40 DUP2 KECCAK256 DUP2 SWAP1 PUSH2 0x3A68 SWAP1 PUSH2 0x2D87 DUP6 PUSH2 0x41E7 JUMP JUMPDEST SWAP2 POP SWAP2 POP DUP5 PUSH1 0x1 PUSH1 0x1 PUSH1 0xA0 SHL SUB AND PUSH32 0xDEC2BACDD2F05B59DE34DA9B523DFF8BE42E5E38E818C82FDB0BAE774387A724 DUP4 DUP4 PUSH1 0x40 MLOAD PUSH2 0x3AB0 SWAP3 SWAP2 SWAP1 SWAP2 DUP3 MSTORE PUSH1 0x20 DUP3 ADD MSTORE PUSH1 0x40 ADD SWAP1 JUMP JUMPDEST PUSH1 0x40 MLOAD DUP1 SWAP2 SUB SWAP1 LOG2 POP POP JUMPDEST PUSH1 0x1 PUSH1 0x1 PUSH1 0xA0 SHL SUB DUP3 AND ISZERO PUSH2 0xE2F JUMPI PUSH1 0x1 PUSH1 0x1 PUSH1 0xA0 SHL SUB DUP3 AND PUSH1 0x0 SWAP1 DUP2 MSTORE PUSH1 0xA PUSH1 0x20 MSTORE PUSH1 0x40 DUP2 KECCAK256 DUP2 SWAP1 PUSH2 0x3AF1 SWAP1 PUSH2 0x2D7B DUP6 PUSH2 0x41E7 JUMP JUMPDEST SWAP2 POP SWAP2 POP DUP4 PUSH1 0x1 PUSH1 0x1 PUSH1 0xA0 SHL SUB AND PUSH32 0xDEC2BACDD2F05B59DE34DA9B523DFF8BE42E5E38E818C82FDB0BAE774387A724 DUP4 DUP4 PUSH1 0x40 MLOAD PUSH2 0x3B39 SWAP3 SWAP2 SWAP1 SWAP2 DUP3 MSTORE PUSH1 0x20 DUP3 ADD MSTORE PUSH1 0x40 ADD SWAP1 JUMP JUMPDEST PUSH1 0x40 MLOAD DUP1 SWAP2 SUB SWAP1 LOG2 POP POP POP POP POP JUMP JUMPDEST PUSH1 0x60 PUSH1 0x0 PUSH2 0x3B55 DUP4 PUSH2 0x4438 JUMP JUMPDEST PUSH1 0x40 DUP1 MLOAD PUSH1 0x20 DUP1 DUP3 MSTORE DUP2 DUP4 ADD SWAP1 SWAP3 MSTORE SWAP2 SWAP3 POP PUSH1 0x0 SWAP2 SWAP1 PUSH1 0x20 DUP3 ADD DUP2 DUP1 CALLDATASIZE DUP4 CALLDATACOPY POP POP POP SWAP2 DUP3 MSTORE POP PUSH1 0x20 DUP2 ADD SWAP3 SWAP1 SWAP3 MSTORE POP SWAP1 JUMP JUMPDEST PUSH1 0x0 PUSH2 0x3BDC DUP3 PUSH1 0x40 MLOAD DUP1 PUSH1 0x40 ADD PUSH1 0x40 MSTORE DUP1 PUSH1 0x20 DUP2 MSTORE PUSH1 0x20 ADD PUSH32 0x5361666545524332303A206C6F772D6C6576656C2063616C6C206661696C6564 DUP2 MSTORE POP DUP6 PUSH1 0x1 PUSH1 0x1 PUSH1 0xA0 SHL SUB AND PUSH2 0x4460 SWAP1 SWAP3 SWAP2 SWAP1 PUSH4 0xFFFFFFFF AND JUMP JUMPDEST SWAP1 POP DUP1 MLOAD PUSH1 0x0 EQ DUP1 PUSH2 0x3BFD JUMPI POP DUP1 DUP1 PUSH1 0x20 ADD SWAP1 MLOAD DUP2 ADD SWAP1 PUSH2 0x3BFD SWAP2 SWAP1 PUSH2 0x4DC5 JUMP JUMPDEST PUSH2 0xE2F JUMPI PUSH1 0x40 MLOAD PUSH3 0x461BCD PUSH1 0xE5 SHL DUP2 MSTORE PUSH1 0x20 PUSH1 0x4 DUP3 ADD MSTORE PUSH1 0x2A PUSH1 0x24 DUP3 ADD MSTORE PUSH32 0x5361666545524332303A204552433230206F7065726174696F6E20646964206E PUSH1 0x44 DUP3 ADD MSTORE PUSH10 0x1BDD081CDD58D8D95959 PUSH1 0xB2 SHL PUSH1 0x64 DUP3 ADD MSTORE PUSH1 0x84 ADD PUSH2 0xED2 JUMP JUMPDEST PUSH1 0x0 DUP1 PUSH32 0x7FFFFFFFFFFFFFFFFFFFFFFFFFFFFFFF5D576E7357A4501DDFE92F46681B20A0 DUP4 GT ISZERO PUSH2 0x3C93 JUMPI POP PUSH1 0x0 SWAP1 POP PUSH1 0x3 PUSH2 0x3D17 JUMP JUMPDEST PUSH1 0x40 DUP1 MLOAD PUSH1 0x0 DUP1 DUP3 MSTORE PUSH1 0x20 DUP3 ADD DUP1 DUP5 MSTORE DUP10 SWAP1 MSTORE PUSH1 0xFF DUP9 AND SWAP3 DUP3 ADD SWAP3 SWAP1 SWAP3 MSTORE PUSH1 0x60 DUP2 ADD DUP7 SWAP1 MSTORE PUSH1 0x80 DUP2 ADD DUP6 SWAP1 MSTORE PUSH1 0x1 SWAP1 PUSH1 0xA0 ADD PUSH1 0x20 PUSH1 0x40 MLOAD PUSH1 0x20 DUP2 SUB SWAP1 DUP1 DUP5 SUB SWAP1 DUP6 GAS STATICCALL ISZERO DUP1 ISZERO PUSH2 0x3CE7 JUMPI RETURNDATASIZE PUSH1 0x0 DUP1 RETURNDATACOPY RETURNDATASIZE PUSH1 0x0 REVERT JUMPDEST POP POP PUSH1 0x40 MLOAD PUSH1 0x1F NOT ADD MLOAD SWAP2 POP POP PUSH1 0x1 PUSH1 0x1 PUSH1 0xA0 SHL SUB DUP2 AND PUSH2 0x3D10 JUMPI PUSH1 0x0 PUSH1 0x1 SWAP3 POP SWAP3 POP POP PUSH2 0x3D17 JUMP JUMPDEST SWAP2 POP PUSH1 0x0 SWAP1 POP JUMPDEST SWAP5 POP SWAP5 SWAP3 POP POP POP JUMP JUMPDEST PUSH1 0x0 DUP2 PUSH1 0x4 DUP2 GT ISZERO PUSH2 0x3D34 JUMPI PUSH2 0x3D34 PUSH2 0x4CA3 JUMP JUMPDEST SUB PUSH2 0x3D3C JUMPI POP JUMP JUMPDEST PUSH1 0x1 DUP2 PUSH1 0x4 DUP2 GT ISZERO PUSH2 0x3D50 JUMPI PUSH2 0x3D50 PUSH2 0x4CA3 JUMP JUMPDEST SUB PUSH2 0x3D9D JUMPI PUSH1 0x40 MLOAD PUSH3 0x461BCD PUSH1 0xE5 SHL DUP2 MSTORE PUSH1 0x20 PUSH1 0x4 DUP3 ADD MSTORE PUSH1 0x18 PUSH1 0x24 DUP3 ADD MSTORE PUSH32 0x45434453413A20696E76616C6964207369676E61747572650000000000000000 PUSH1 0x44 DUP3 ADD MSTORE PUSH1 0x64 ADD PUSH2 0xED2 JUMP JUMPDEST PUSH1 0x2 DUP2 PUSH1 0x4 DUP2 GT ISZERO PUSH2 0x3DB1 JUMPI PUSH2 0x3DB1 PUSH2 0x4CA3 JUMP JUMPDEST SUB PUSH2 0x3DFE JUMPI PUSH1 0x40 MLOAD PUSH3 0x461BCD PUSH1 0xE5 SHL DUP2 MSTORE PUSH1 0x20 PUSH1 0x4 DUP3 ADD MSTORE PUSH1 0x1F PUSH1 0x24 DUP3 ADD MSTORE PUSH32 0x45434453413A20696E76616C6964207369676E6174757265206C656E67746800 PUSH1 0x44 DUP3 ADD MSTORE PUSH1 0x64 ADD PUSH2 0xED2 JUMP JUMPDEST PUSH1 0x3 DUP2 PUSH1 0x4 DUP2 GT ISZERO PUSH2 0x3E12 JUMPI PUSH2 0x3E12 PUSH2 0x4CA3 JUMP JUMPDEST SUB PUSH2 0xFC2 JUMPI PUSH1 0x40 MLOAD PUSH3 0x461BCD PUSH1 0xE5 SHL DUP2 MSTORE PUSH1 0x20 PUSH1 0x4 DUP3 ADD MSTORE PUSH1 0x22 PUSH1 0x24 DUP3 ADD MSTORE PUSH32 0x45434453413A20696E76616C6964207369676E6174757265202773272076616C PUSH1 0x44 DUP3 ADD MSTORE PUSH2 0x7565 PUSH1 0xF0 SHL PUSH1 0x64 DUP3 ADD MSTORE PUSH1 0x84 ADD PUSH2 0xED2 JUMP JUMPDEST PUSH2 0x3E74 DUP3 DUP3 PUSH2 0x446F JUMP JUMPDEST PUSH1 0x2 SLOAD PUSH1 0x1 PUSH1 0x1 PUSH1 0xE0 SHL SUB LT ISZERO PUSH2 0x3EE6 JUMPI PUSH1 0x40 MLOAD PUSH3 0x461BCD PUSH1 0xE5 SHL DUP2 MSTORE PUSH1 0x20 PUSH1 0x4 DUP3 ADD MSTORE PUSH1 0x30 PUSH1 0x24 DUP3 ADD MSTORE PUSH32 0x4552433230566F7465733A20746F74616C20737570706C79207269736B73206F PUSH1 0x44 DUP3 ADD MSTORE PUSH16 0x766572666C6F77696E6720766F746573 PUSH1 0x80 SHL PUSH1 0x64 DUP3 ADD MSTORE PUSH1 0x84 ADD PUSH2 0xED2 JUMP JUMPDEST PUSH2 0x2BD7 PUSH1 0xB PUSH2 0x2D7B DUP4 PUSH2 0x41E7 JUMP JUMPDEST PUSH1 0x60 PUSH2 0xB6F PUSH1 0x1 PUSH1 0x1 PUSH1 0xA0 SHL SUB DUP4 AND PUSH1 0x14 JUMPDEST PUSH1 0x60 PUSH1 0x0 PUSH2 0x3F15 DUP4 PUSH1 0x2 PUSH2 0x4CB9 JUMP JUMPDEST PUSH2 0x3F20 SWAP1 PUSH1 0x2 PUSH2 0x4C90 JUMP JUMPDEST PUSH8 0xFFFFFFFFFFFFFFFF DUP2 GT ISZERO PUSH2 0x3F38 JUMPI PUSH2 0x3F38 PUSH2 0x4812 JUMP JUMPDEST PUSH1 0x40 MLOAD SWAP1 DUP1 DUP3 MSTORE DUP1 PUSH1 0x1F ADD PUSH1 0x1F NOT AND PUSH1 0x20 ADD DUP3 ADD PUSH1 0x40 MSTORE DUP1 ISZERO PUSH2 0x3F62 JUMPI PUSH1 0x20 DUP3 ADD DUP2 DUP1 CALLDATASIZE DUP4 CALLDATACOPY ADD SWAP1 POP JUMPDEST POP SWAP1 POP PUSH1 0x3 PUSH1 0xFC SHL DUP2 PUSH1 0x0 DUP2 MLOAD DUP2 LT PUSH2 0x3F7D JUMPI PUSH2 0x3F7D PUSH2 0x4D3A JUMP JUMPDEST PUSH1 0x20 ADD ADD SWAP1 PUSH1 0x1 PUSH1 0x1 PUSH1 0xF8 SHL SUB NOT AND SWAP1 DUP2 PUSH1 0x0 BYTE SWAP1 MSTORE8 POP PUSH1 0xF PUSH1 0xFB SHL DUP2 PUSH1 0x1 DUP2 MLOAD DUP2 LT PUSH2 0x3FAC JUMPI PUSH2 0x3FAC PUSH2 0x4D3A JUMP JUMPDEST PUSH1 0x20 ADD ADD SWAP1 PUSH1 0x1 PUSH1 0x1 PUSH1 0xF8 SHL SUB NOT AND SWAP1 DUP2 PUSH1 0x0 BYTE SWAP1 MSTORE8 POP PUSH1 0x0 PUSH2 0x3FD0 DUP5 PUSH1 0x2 PUSH2 0x4CB9 JUMP JUMPDEST PUSH2 0x3FDB SWAP1 PUSH1 0x1 PUSH2 0x4C90 JUMP JUMPDEST SWAP1 POP JUMPDEST PUSH1 0x1 DUP2 GT ISZERO PUSH2 0x4053 JUMPI PUSH16 0x181899199A1A9B1B9C1CB0B131B232B3 PUSH1 0x81 SHL DUP6 PUSH1 0xF AND PUSH1 0x10 DUP2 LT PUSH2 0x400F JUMPI PUSH2 0x400F PUSH2 0x4D3A JUMP JUMPDEST BYTE PUSH1 0xF8 SHL DUP3 DUP3 DUP2 MLOAD DUP2 LT PUSH2 0x4025 JUMPI PUSH2 0x4025 PUSH2 0x4D3A JUMP JUMPDEST PUSH1 0x20 ADD ADD SWAP1 PUSH1 0x1 PUSH1 0x1 PUSH1 0xF8 SHL SUB NOT AND SWAP1 DUP2 PUSH1 0x0 BYTE SWAP1 MSTORE8 POP PUSH1 0x4 SWAP5 SWAP1 SWAP5 SHR SWAP4 PUSH2 0x404C DUP2 PUSH2 0x4DE7 JUMP JUMPDEST SWAP1 POP PUSH2 0x3FDE JUMP JUMPDEST POP DUP4 ISZERO PUSH2 0xF89 JUMPI PUSH1 0x40 MLOAD PUSH3 0x461BCD PUSH1 0xE5 SHL DUP2 MSTORE PUSH1 0x20 PUSH1 0x4 DUP3 ADD DUP2 SWAP1 MSTORE PUSH1 0x24 DUP3 ADD MSTORE PUSH32 0x537472696E67733A20686578206C656E67746820696E73756666696369656E74 PUSH1 0x44 DUP3 ADD MSTORE PUSH1 0x64 ADD PUSH2 0xED2 JUMP JUMPDEST PUSH1 0x1 PUSH1 0x1 PUSH1 0xA0 SHL SUB DUP3 AND PUSH2 0x4102 JUMPI PUSH1 0x40 MLOAD PUSH3 0x461BCD PUSH1 0xE5 SHL DUP2 MSTORE PUSH1 0x20 PUSH1 0x4 DUP3 ADD MSTORE PUSH1 0x21 PUSH1 0x24 DUP3 ADD MSTORE PUSH32 0x45524332303A206275726E2066726F6D20746865207A65726F20616464726573 PUSH1 0x44 DUP3 ADD MSTORE PUSH1 0x73 PUSH1 0xF8 SHL PUSH1 0x64 DUP3 ADD MSTORE PUSH1 0x84 ADD PUSH2 0xED2 JUMP JUMPDEST PUSH2 0x410E DUP3 PUSH1 0x0 DUP4 PUSH2 0x38AC JUMP JUMPDEST PUSH1 0x1 PUSH1 0x1 PUSH1 0xA0 SHL SUB DUP3 AND PUSH1 0x0 SWAP1 DUP2 MSTORE PUSH1 0x20 DUP2 SWAP1 MSTORE PUSH1 0x40 SWAP1 KECCAK256 SLOAD DUP2 DUP2 LT ISZERO PUSH2 0x4182 JUMPI PUSH1 0x40 MLOAD PUSH3 0x461BCD PUSH1 0xE5 SHL DUP2 MSTORE PUSH1 0x20 PUSH1 0x4 DUP3 ADD MSTORE PUSH1 0x22 PUSH1 0x24 DUP3 ADD MSTORE PUSH32 0x45524332303A206275726E20616D6F756E7420657863656564732062616C616E PUSH1 0x44 DUP3 ADD MSTORE PUSH2 0x6365 PUSH1 0xF0 SHL PUSH1 0x64 DUP3 ADD MSTORE PUSH1 0x84 ADD PUSH2 0xED2 JUMP JUMPDEST PUSH1 0x1 PUSH1 0x1 PUSH1 0xA0 SHL SUB DUP4 AND PUSH1 0x0 DUP2 DUP2 MSTORE PUSH1 0x20 DUP2 DUP2 MSTORE PUSH1 0x40 DUP1 DUP4 KECCAK256 DUP7 DUP7 SUB SWAP1 SSTORE PUSH1 0x2 DUP1 SLOAD DUP8 SWAP1 SUB SWAP1 SSTORE MLOAD DUP6 DUP2 MSTORE SWAP2 SWAP3 SWAP2 PUSH32 0xDDF252AD1BE2C89B69C2B068FC378DAA952BA7F163C4A11628F55A4DF523B3EF SWAP2 ADD PUSH1 0x40 MLOAD DUP1 SWAP2 SUB SWAP1 LOG3 PUSH2 0xE2F DUP4 PUSH1 0x0 DUP5 PUSH2 0x38B4 JUMP JUMPDEST DUP3 SLOAD PUSH1 0x0 SWAP1 DUP2 SWAP1 DUP2 DUP2 ISZERO PUSH2 0x4234 JUMPI PUSH1 0x0 DUP8 DUP2 MSTORE PUSH1 0x20 SWAP1 KECCAK256 DUP3 ADD PUSH1 0x0 NOT ADD PUSH1 0x40 DUP1 MLOAD DUP1 DUP3 ADD SWAP1 SWAP2 MSTORE SWAP1 SLOAD PUSH4 0xFFFFFFFF DUP2 AND DUP3 MSTORE PUSH5 0x100000000 SWAP1 DIV PUSH1 0x1 PUSH1 0x1 PUSH1 0xE0 SHL SUB AND PUSH1 0x20 DUP3 ADD MSTORE PUSH2 0x4249 JUMP JUMPDEST PUSH1 0x40 DUP1 MLOAD DUP1 DUP3 ADD SWAP1 SWAP2 MSTORE PUSH1 0x0 DUP1 DUP3 MSTORE PUSH1 0x20 DUP3 ADD MSTORE JUMPDEST SWAP1 POP DUP1 PUSH1 0x20 ADD MLOAD PUSH1 0x1 PUSH1 0x1 PUSH1 0xE0 SHL SUB AND SWAP4 POP PUSH2 0x4269 DUP5 DUP7 DUP9 PUSH4 0xFFFFFFFF AND JUMP JUMPDEST SWAP3 POP PUSH1 0x0 DUP3 GT DUP1 ISZERO PUSH2 0x4293 JUMPI POP PUSH2 0x427E PUSH2 0x1BE0 JUMP JUMPDEST PUSH6 0xFFFFFFFFFFFF AND DUP2 PUSH1 0x0 ADD MLOAD PUSH4 0xFFFFFFFF AND EQ JUMPDEST ISZERO PUSH2 0x42D8 JUMPI PUSH2 0x42A1 DUP4 PUSH2 0x4542 JUMP JUMPDEST PUSH1 0x0 DUP9 DUP2 MSTORE PUSH1 0x20 SWAP1 KECCAK256 DUP4 ADD PUSH1 0x0 NOT ADD DUP1 SLOAD PUSH1 0x1 PUSH1 0x1 PUSH1 0xE0 SHL SUB SWAP3 SWAP1 SWAP3 AND PUSH5 0x100000000 MUL PUSH4 0xFFFFFFFF SWAP1 SWAP3 AND SWAP2 SWAP1 SWAP2 OR SWAP1 SSTORE PUSH2 0x4352 JUMP JUMPDEST DUP7 PUSH1 0x40 MLOAD DUP1 PUSH1 0x40 ADD PUSH1 0x40 MSTORE DUP1 PUSH2 0x42FC PUSH2 0x42EF PUSH2 0x1BE0 JUMP JUMPDEST PUSH6 0xFFFFFFFFFFFF AND PUSH2 0x3508 JUMP JUMPDEST PUSH4 0xFFFFFFFF AND DUP2 MSTORE PUSH1 0x20 ADD PUSH2 0x4310 DUP7 PUSH2 0x4542 JUMP JUMPDEST PUSH1 0x1 PUSH1 0x1 PUSH1 0xE0 SHL SUB SWAP1 DUP2 AND SWAP1 SWAP2 MSTORE DUP3 SLOAD PUSH1 0x1 DUP2 ADD DUP5 SSTORE PUSH1 0x0 SWAP4 DUP5 MSTORE PUSH1 0x20 SWAP4 DUP5 SWAP1 KECCAK256 DUP4 MLOAD SWAP5 SWAP1 SWAP4 ADD MLOAD SWAP1 SWAP2 AND PUSH5 0x100000000 MUL PUSH4 0xFFFFFFFF SWAP1 SWAP4 AND SWAP3 SWAP1 SWAP3 OR SWAP2 ADD SSTORE JUMPDEST POP POP SWAP4 POP SWAP4 SWAP2 POP POP JUMP JUMPDEST PUSH1 0x1 PUSH1 0x1 PUSH1 0xA0 SHL SUB DUP4 DUP2 AND PUSH1 0x0 SWAP1 DUP2 MSTORE PUSH1 0x9 PUSH1 0x20 MSTORE PUSH1 0x40 DUP1 DUP3 KECCAK256 SLOAD DUP6 DUP5 AND DUP4 MSTORE SWAP2 KECCAK256 SLOAD PUSH2 0xE2F SWAP3 SWAP2 DUP3 AND SWAP2 AND DUP4 PUSH2 0x3A0B JUMP JUMPDEST PUSH1 0x0 DUP1 PUSH1 0x80 DUP4 SWAP1 SHR ISZERO PUSH2 0x43A3 JUMPI PUSH1 0x80 SWAP3 DUP4 SHR SWAP3 ADD JUMPDEST PUSH1 0x40 DUP4 SWAP1 SHR ISZERO PUSH2 0x43B5 JUMPI PUSH1 0x40 SWAP3 DUP4 SHR SWAP3 ADD JUMPDEST PUSH1 0x20 DUP4 SWAP1 SHR ISZERO PUSH2 0x43C7 JUMPI PUSH1 0x20 SWAP3 DUP4 SHR SWAP3 ADD JUMPDEST PUSH1 0x10 DUP4 SWAP1 SHR ISZERO PUSH2 0x43D9 JUMPI PUSH1 0x10 SWAP3 DUP4 SHR SWAP3 ADD JUMPDEST PUSH1 0x8 DUP4 SWAP1 SHR ISZERO PUSH2 0x43EB JUMPI PUSH1 0x8 SWAP3 DUP4 SHR SWAP3 ADD JUMPDEST PUSH1 0x4 DUP4 SWAP1 SHR ISZERO PUSH2 0x43FD JUMPI PUSH1 0x4 SWAP3 DUP4 SHR SWAP3 ADD JUMPDEST PUSH1 0x2 DUP4 SWAP1 SHR ISZERO PUSH2 0x440F JUMPI PUSH1 0x2 SWAP3 DUP4 SHR SWAP3 ADD JUMPDEST PUSH1 0x1 DUP4 SWAP1 SHR ISZERO PUSH2 0xB6F JUMPI PUSH1 0x1 ADD SWAP3 SWAP2 POP POP JUMP JUMPDEST PUSH1 0x0 DUP2 DUP4 LT PUSH2 0x4431 JUMPI DUP2 PUSH2 0xF89 JUMP JUMPDEST POP SWAP1 SWAP2 SWAP1 POP JUMP JUMPDEST PUSH1 0x0 PUSH1 0xFF DUP3 AND PUSH1 0x1F DUP2 GT ISZERO PUSH2 0xB6F JUMPI PUSH1 0x40 MLOAD PUSH4 0x2CD44AC3 PUSH1 0xE2 SHL DUP2 MSTORE PUSH1 0x4 ADD PUSH1 0x40 MLOAD DUP1 SWAP2 SUB SWAP1 REVERT JUMPDEST PUSH1 0x60 PUSH2 0x3803 DUP5 DUP5 PUSH1 0x0 DUP6 PUSH2 0x45AB JUMP JUMPDEST PUSH1 0x1 PUSH1 0x1 PUSH1 0xA0 SHL SUB DUP3 AND PUSH2 0x44C5 JUMPI PUSH1 0x40 MLOAD PUSH3 0x461BCD PUSH1 0xE5 SHL DUP2 MSTORE PUSH1 0x20 PUSH1 0x4 DUP3 ADD MSTORE PUSH1 0x1F PUSH1 0x24 DUP3 ADD MSTORE PUSH32 0x45524332303A206D696E7420746F20746865207A65726F206164647265737300 PUSH1 0x44 DUP3 ADD MSTORE PUSH1 0x64 ADD PUSH2 0xED2 JUMP JUMPDEST PUSH2 0x44D1 PUSH1 0x0 DUP4 DUP4 PUSH2 0x38AC JUMP JUMPDEST DUP1 PUSH1 0x2 PUSH1 0x0 DUP3 DUP3 SLOAD PUSH2 0x44E3 SWAP2 SWAP1 PUSH2 0x4C90 JUMP JUMPDEST SWAP1 SWAP2 SSTORE POP POP PUSH1 0x1 PUSH1 0x1 PUSH1 0xA0 SHL SUB DUP3 AND PUSH1 0x0 DUP2 DUP2 MSTORE PUSH1 0x20 DUP2 DUP2 MSTORE PUSH1 0x40 DUP1 DUP4 KECCAK256 DUP1 SLOAD DUP7 ADD SWAP1 SSTORE MLOAD DUP5 DUP2 MSTORE PUSH32 0xDDF252AD1BE2C89B69C2B068FC378DAA952BA7F163C4A11628F55A4DF523B3EF SWAP2 ADD PUSH1 0x40 MLOAD DUP1 SWAP2 SUB SWAP1 LOG3 PUSH2 0xEE5 PUSH1 0x0 DUP4 DUP4 PUSH2 0x38B4 JUMP JUMPDEST PUSH1 0x0 PUSH1 0x1 PUSH1 0x1 PUSH1 0xE0 SHL SUB DUP3 GT ISZERO PUSH2 0x356D JUMPI PUSH1 0x40 MLOAD PUSH3 0x461BCD PUSH1 0xE5 SHL DUP2 MSTORE PUSH1 0x20 PUSH1 0x4 DUP3 ADD MSTORE PUSH1 0x27 PUSH1 0x24 DUP3 ADD MSTORE PUSH32 0x53616665436173743A2076616C756520646F65736E27742066697420696E2032 PUSH1 0x44 DUP3 ADD MSTORE PUSH7 0x32342062697473 PUSH1 0xC8 SHL PUSH1 0x64 DUP3 ADD MSTORE PUSH1 0x84 ADD PUSH2 0xED2 JUMP JUMPDEST PUSH1 0x60 DUP3 SELFBALANCE LT ISZERO PUSH2 0x460C JUMPI PUSH1 0x40 MLOAD PUSH3 0x461BCD PUSH1 0xE5 SHL DUP2 MSTORE PUSH1 0x20 PUSH1 0x4 DUP3 ADD MSTORE PUSH1 0x26 PUSH1 0x24 DUP3 ADD MSTORE PUSH32 0x416464726573733A20696E73756666696369656E742062616C616E636520666F PUSH1 0x44 DUP3 ADD MSTORE PUSH6 0x1C8818D85B1B PUSH1 0xD2 SHL PUSH1 0x64 DUP3 ADD MSTORE PUSH1 0x84 ADD PUSH2 0xED2 JUMP JUMPDEST PUSH1 0x0 DUP1 DUP7 PUSH1 0x1 PUSH1 0x1 PUSH1 0xA0 SHL SUB AND DUP6 DUP8 PUSH1 0x40 MLOAD PUSH2 0x4628 SWAP2 SWAP1 PUSH2 0x4DFE JUMP JUMPDEST PUSH1 0x0 PUSH1 0x40 MLOAD DUP1 DUP4 SUB DUP2 DUP6 DUP8 GAS CALL SWAP3 POP POP POP RETURNDATASIZE DUP1 PUSH1 0x0 DUP2 EQ PUSH2 0x4665 JUMPI PUSH1 0x40 MLOAD SWAP2 POP PUSH1 0x1F NOT PUSH1 0x3F RETURNDATASIZE ADD AND DUP3 ADD PUSH1 0x40 MSTORE RETURNDATASIZE DUP3 MSTORE RETURNDATASIZE PUSH1 0x0 PUSH1 0x20 DUP5 ADD RETURNDATACOPY PUSH2 0x466A JUMP JUMPDEST PUSH1 0x60 SWAP2 POP JUMPDEST POP SWAP2 POP SWAP2 POP PUSH2 0x467B DUP8 DUP4 DUP4 DUP8 PUSH2 0x4686 JUMP JUMPDEST SWAP8 SWAP7 POP POP POP POP POP POP POP JUMP JUMPDEST PUSH1 0x60 DUP4 ISZERO PUSH2 0x46F5 JUMPI DUP3 MLOAD PUSH1 0x0 SUB PUSH2 0x46EE JUMPI PUSH1 0x1 PUSH1 0x1 PUSH1 0xA0 SHL SUB DUP6 AND EXTCODESIZE PUSH2 0x46EE JUMPI PUSH1 0x40 MLOAD PUSH3 0x461BCD PUSH1 0xE5 SHL DUP2 MSTORE PUSH1 0x20 PUSH1 0x4 DUP3 ADD MSTORE PUSH1 0x1D PUSH1 0x24 DUP3 ADD MSTORE PUSH32 0x416464726573733A2063616C6C20746F206E6F6E2D636F6E7472616374000000 PUSH1 0x44 DUP3 ADD MSTORE PUSH1 0x64 ADD PUSH2 0xED2 JUMP JUMPDEST POP DUP2 PUSH2 0x3803 JUMP JUMPDEST PUSH2 0x3803 DUP4 DUP4 DUP2 MLOAD ISZERO PUSH2 0x470A JUMPI DUP2 MLOAD DUP1 DUP4 PUSH1 0x20 ADD REVERT JUMPDEST DUP1 PUSH1 0x40 MLOAD PUSH3 0x461BCD PUSH1 0xE5 SHL DUP2 MSTORE PUSH1 0x4 ADD PUSH2 0xED2 SWAP2 SWAP1 PUSH2 0x479E JUMP JUMPDEST PUSH1 0x0 PUSH1 0x20 DUP3 DUP5 SUB SLT ISZERO PUSH2 0x4736 JUMPI PUSH1 0x0 DUP1 REVERT JUMPDEST DUP2 CALLDATALOAD PUSH1 0x1 PUSH1 0x1 PUSH1 0xE0 SHL SUB NOT DUP2 AND DUP2 EQ PUSH2 0xF89 JUMPI PUSH1 0x0 DUP1 REVERT JUMPDEST PUSH1 0x0 JUMPDEST DUP4 DUP2 LT ISZERO PUSH2 0x4769 JUMPI DUP2 DUP2 ADD MLOAD DUP4 DUP3 ADD MSTORE PUSH1 0x20 ADD PUSH2 0x4751 JUMP JUMPDEST POP POP PUSH1 0x0 SWAP2 ADD MSTORE JUMP JUMPDEST PUSH1 0x0 DUP2 MLOAD DUP1 DUP5 MSTORE PUSH2 0x478A DUP2 PUSH1 0x20 DUP7 ADD PUSH1 0x20 DUP7 ADD PUSH2 0x474E JUMP JUMPDEST PUSH1 0x1F ADD PUSH1 0x1F NOT AND SWAP3 SWAP1 SWAP3 ADD PUSH1 0x20 ADD SWAP3 SWAP2 POP POP JUMP JUMPDEST PUSH1 0x20 DUP2 MSTORE PUSH1 0x0 PUSH2 0xF89 PUSH1 0x20 DUP4 ADD DUP5 PUSH2 0x4772 JUMP JUMPDEST DUP1 CALLDATALOAD PUSH1 0x1 PUSH1 0x1 PUSH1 0xA0 SHL SUB DUP2 AND DUP2 EQ PUSH2 0x47C8 JUMPI PUSH1 0x0 DUP1 REVERT JUMPDEST SWAP2 SWAP1 POP JUMP JUMPDEST PUSH1 0x0 DUP1 PUSH1 0x40 DUP4 DUP6 SUB SLT ISZERO PUSH2 0x47E0 JUMPI PUSH1 0x0 DUP1 REVERT JUMPDEST PUSH2 0x47E9 DUP4 PUSH2 0x47B1 JUMP JUMPDEST SWAP5 PUSH1 0x20 SWAP4 SWAP1 SWAP4 ADD CALLDATALOAD SWAP4 POP POP POP JUMP JUMPDEST PUSH1 0x0 PUSH1 0x20 DUP3 DUP5 SUB SLT ISZERO PUSH2 0x4809 JUMPI PUSH1 0x0 DUP1 REVERT JUMPDEST PUSH2 0xF89 DUP3 PUSH2 0x47B1 JUMP JUMPDEST PUSH4 0x4E487B71 PUSH1 0xE0 SHL PUSH1 0x0 MSTORE PUSH1 0x41 PUSH1 0x4 MSTORE PUSH1 0x24 PUSH1 0x0 REVERT JUMPDEST PUSH1 0x0 DUP3 PUSH1 0x1F DUP4 ADD SLT PUSH2 0x4839 JUMPI PUSH1 0x0 DUP1 REVERT JUMPDEST DUP2 CALLDATALOAD PUSH8 0xFFFFFFFFFFFFFFFF DUP2 GT ISZERO PUSH2 0x4853 JUMPI PUSH2 0x4853 PUSH2 0x4812 JUMP JUMPDEST PUSH1 0x40 MLOAD PUSH1 0x1F DUP3 ADD PUSH1 0x1F NOT SWAP1 DUP2 AND PUSH1 0x3F ADD AND DUP2 ADD PUSH8 0xFFFFFFFFFFFFFFFF DUP2 GT DUP3 DUP3 LT OR ISZERO PUSH2 0x4882 JUMPI PUSH2 0x4882 PUSH2 0x4812 JUMP JUMPDEST PUSH1 0x40 MSTORE DUP2 DUP2 MSTORE DUP4 DUP3 ADD PUSH1 0x20 ADD DUP6 LT ISZERO PUSH2 0x489A JUMPI PUSH1 0x0 DUP1 REVERT JUMPDEST DUP2 PUSH1 0x20 DUP6 ADD PUSH1 0x20 DUP4 ADD CALLDATACOPY PUSH1 0x0 SWAP2 DUP2 ADD PUSH1 0x20 ADD SWAP2 SWAP1 SWAP2 MSTORE SWAP4 SWAP3 POP POP POP JUMP JUMPDEST PUSH1 0x0 DUP1 PUSH1 0x0 PUSH1 0x60 DUP5 DUP7 SUB SLT ISZERO PUSH2 0x48CC JUMPI PUSH1 0x0 DUP1 REVERT JUMPDEST PUSH2 0x48D5 DUP5 PUSH2 0x47B1 JUMP JUMPDEST SWAP3 POP PUSH1 0x20 DUP5 ADD CALLDATALOAD SWAP2 POP PUSH1 0x40 DUP5 ADD CALLDATALOAD PUSH8 0xFFFFFFFFFFFFFFFF DUP2 GT ISZERO PUSH2 0x48F8 JUMPI PUSH1 0x0 DUP1 REVERT JUMPDEST PUSH2 0x4904 DUP7 DUP3 DUP8 ADD PUSH2 0x4828 JUMP JUMPDEST SWAP2 POP POP SWAP3 POP SWAP3 POP SWAP3 JUMP JUMPDEST PUSH1 0x0 DUP1 PUSH1 0x0 PUSH1 0x60 DUP5 DUP7 SUB SLT ISZERO PUSH2 0x4923 JUMPI PUSH1 0x0 DUP1 REVERT JUMPDEST PUSH2 0x492C DUP5 PUSH2 0x47B1 JUMP JUMPDEST SWAP3 POP PUSH2 0x493A PUSH1 0x20 DUP6 ADD PUSH2 0x47B1 JUMP JUMPDEST SWAP3 SWAP6 SWAP3 SWAP5 POP POP POP PUSH1 0x40 SWAP2 SWAP1 SWAP2 ADD CALLDATALOAD SWAP1 JUMP JUMPDEST PUSH1 0x0 PUSH1 0x20 DUP3 DUP5 SUB SLT ISZERO PUSH2 0x495D JUMPI PUSH1 0x0 DUP1 REVERT JUMPDEST POP CALLDATALOAD SWAP2 SWAP1 POP JUMP JUMPDEST PUSH1 0x0 DUP1 PUSH1 0x40 DUP4 DUP6 SUB SLT ISZERO PUSH2 0x4977 JUMPI PUSH1 0x0 DUP1 REVERT JUMPDEST DUP3 CALLDATALOAD SWAP2 POP PUSH2 0x4987 PUSH1 0x20 DUP5 ADD PUSH2 0x47B1 JUMP JUMPDEST SWAP1 POP SWAP3 POP SWAP3 SWAP1 POP JUMP JUMPDEST DUP1 CALLDATALOAD PUSH1 0x3 DUP2 LT PUSH2 0x47C8 JUMPI PUSH1 0x0 DUP1 REVERT JUMPDEST PUSH1 0x0 PUSH1 0x20 DUP3 DUP5 SUB SLT ISZERO PUSH2 0x49B1 JUMPI PUSH1 0x0 DUP1 REVERT JUMPDEST PUSH2 0xF89 DUP3 PUSH2 0x4990 JUMP JUMPDEST PUSH1 0xFF PUSH1 0xF8 SHL DUP9 AND DUP2 MSTORE PUSH1 0xE0 PUSH1 0x20 DUP3 ADD MSTORE PUSH1 0x0 PUSH2 0x49D9 PUSH1 0xE0 DUP4 ADD DUP10 PUSH2 0x4772 JUMP JUMPDEST DUP3 DUP2 SUB PUSH1 0x40 DUP5 ADD MSTORE PUSH2 0x49EB DUP2 DUP10 PUSH2 0x4772 JUMP JUMPDEST PUSH1 0x60 DUP5 ADD DUP9 SWAP1 MSTORE PUSH1 0x1 PUSH1 0x1 PUSH1 0xA0 SHL SUB DUP8 AND PUSH1 0x80 DUP6 ADD MSTORE PUSH1 0xA0 DUP5 ADD DUP7 SWAP1 MSTORE DUP4 DUP2 SUB PUSH1 0xC0 DUP6 ADD MSTORE DUP5 MLOAD DUP1 DUP3 MSTORE PUSH1 0x20 DUP1 DUP8 ADD SWAP4 POP SWAP1 SWAP2 ADD SWAP1 PUSH1 0x0 JUMPDEST DUP2 DUP2 LT ISZERO PUSH2 0x4A41 JUMPI DUP4 MLOAD DUP4 MSTORE PUSH1 0x20 SWAP4 DUP5 ADD SWAP4 SWAP1 SWAP3 ADD SWAP2 PUSH1 0x1 ADD PUSH2 0x4A23 JUMP JUMPDEST POP SWAP1 SWAP12 SWAP11 POP POP POP POP POP POP POP POP POP POP POP JUMP JUMPDEST PUSH1 0x0 DUP1 PUSH1 0x40 DUP4 DUP6 SUB SLT ISZERO PUSH2 0x4A65 JUMPI PUSH1 0x0 DUP1 REVERT JUMPDEST PUSH2 0x47E9 DUP4 PUSH2 0x4990 JUMP JUMPDEST PUSH1 0x0 DUP1 PUSH1 0x0 PUSH1 0x60 DUP5 DUP7 SUB SLT ISZERO PUSH2 0x4A83 JUMPI PUSH1 0x0 DUP1 REVERT JUMPDEST PUSH2 0x492C DUP5 PUSH2 0x4990 JUMP JUMPDEST DUP1 CALLDATALOAD PUSH1 0xFF DUP2 AND DUP2 EQ PUSH2 0x47C8 JUMPI PUSH1 0x0 DUP1 REVERT JUMPDEST PUSH1 0x0 DUP1 PUSH1 0x0 DUP1 PUSH1 0x0 DUP1 PUSH1 0xC0 DUP8 DUP10 SUB SLT ISZERO PUSH2 0x4AB6 JUMPI PUSH1 0x0 DUP1 REVERT JUMPDEST PUSH2 0x4ABF DUP8 PUSH2 0x47B1 JUMP JUMPDEST SWAP6 POP PUSH1 0x20 DUP8 ADD CALLDATALOAD SWAP5 POP PUSH1 0x40 DUP8 ADD CALLDATALOAD SWAP4 POP PUSH2 0x4ADB PUSH1 0x60 DUP9 ADD PUSH2 0x4A8C JUMP JUMPDEST SWAP6 SWAP9 SWAP5 SWAP8 POP SWAP3 SWAP6 PUSH1 0x80 DUP2 ADD CALLDATALOAD SWAP5 PUSH1 0xA0 SWAP1 SWAP2 ADD CALLDATALOAD SWAP4 POP SWAP2 POP POP JUMP JUMPDEST PUSH1 0x0 DUP1 PUSH1 0x40 DUP4 DUP6 SUB SLT ISZERO PUSH2 0x4B08 JUMPI PUSH1 0x0 DUP1 REVERT JUMPDEST PUSH2 0x4B11 DUP4 PUSH2 0x4990 JUMP JUMPDEST SWAP2 POP PUSH2 0x4987 PUSH1 0x20 DUP5 ADD PUSH2 0x47B1 JUMP JUMPDEST PUSH1 0x0 DUP1 PUSH1 0x0 DUP1 PUSH1 0x0 DUP1 PUSH1 0x0 PUSH1 0xE0 DUP9 DUP11 SUB SLT ISZERO PUSH2 0x4B3A JUMPI PUSH1 0x0 DUP1 REVERT JUMPDEST PUSH2 0x4B43 DUP9 PUSH2 0x47B1 JUMP JUMPDEST SWAP7 POP PUSH2 0x4B51 PUSH1 0x20 DUP10 ADD PUSH2 0x47B1 JUMP JUMPDEST SWAP6 POP PUSH1 0x40 DUP9 ADD CALLDATALOAD SWAP5 POP PUSH1 0x60 DUP9 ADD CALLDATALOAD SWAP4 POP PUSH2 0x4B6D PUSH1 0x80 DUP10 ADD PUSH2 0x4A8C JUMP JUMPDEST SWAP7 SWAP10 SWAP6 SWAP9 POP SWAP4 SWAP7 SWAP3 SWAP6 SWAP5 PUSH1 0xA0 DUP5 ADD CALLDATALOAD SWAP5 POP PUSH1 0xC0 SWAP1 SWAP4 ADD CALLDATALOAD SWAP3 SWAP2 POP POP JUMP JUMPDEST PUSH1 0x0 DUP1 PUSH1 0x40 DUP4 DUP6 SUB SLT ISZERO PUSH2 0x4B9D JUMPI PUSH1 0x0 DUP1 REVERT JUMPDEST PUSH2 0x4B11 DUP4 PUSH2 0x47B1 JUMP JUMPDEST PUSH1 0x0 DUP1 PUSH1 0x40 DUP4 DUP6 SUB SLT ISZERO PUSH2 0x4BB9 JUMPI PUSH1 0x0 DUP1 REVERT JUMPDEST DUP3 CALLDATALOAD SWAP2 POP PUSH1 0x20 DUP4 ADD CALLDATALOAD PUSH8 0xFFFFFFFFFFFFFFFF DUP2 GT ISZERO PUSH2 0x4BD7 JUMPI PUSH1 0x0 DUP1 REVERT JUMPDEST PUSH2 0x4BE3 DUP6 DUP3 DUP7 ADD PUSH2 0x4828 JUMP JUMPDEST SWAP2 POP POP SWAP3 POP SWAP3 SWAP1 POP JUMP JUMPDEST PUSH1 0x0 DUP1 PUSH1 0x40 DUP4 DUP6 SUB SLT ISZERO PUSH2 0x4C00 JUMPI PUSH1 0x0 DUP1 REVERT JUMPDEST PUSH2 0x4C09 DUP4 PUSH2 0x47B1 JUMP JUMPDEST SWAP2 POP PUSH1 0x20 DUP4 ADD CALLDATALOAD PUSH4 0xFFFFFFFF DUP2 AND DUP2 EQ PUSH2 0x4C22 JUMPI PUSH1 0x0 DUP1 REVERT JUMPDEST DUP1 SWAP2 POP POP SWAP3 POP SWAP3 SWAP1 POP JUMP JUMPDEST PUSH1 0x1 DUP2 DUP2 SHR SWAP1 DUP3 AND DUP1 PUSH2 0x4C41 JUMPI PUSH1 0x7F DUP3 AND SWAP2 POP JUMPDEST PUSH1 0x20 DUP3 LT DUP2 SUB PUSH2 0x2317 JUMPI PUSH4 0x4E487B71 PUSH1 0xE0 SHL PUSH1 0x0 MSTORE PUSH1 0x22 PUSH1 0x4 MSTORE PUSH1 0x24 PUSH1 0x0 REVERT JUMPDEST DUP3 DUP2 MSTORE PUSH1 0x40 PUSH1 0x20 DUP3 ADD MSTORE PUSH1 0x0 PUSH2 0x3803 PUSH1 0x40 DUP4 ADD DUP5 PUSH2 0x4772 JUMP JUMPDEST PUSH4 0x4E487B71 PUSH1 0xE0 SHL PUSH1 0x0 MSTORE PUSH1 0x11 PUSH1 0x4 MSTORE PUSH1 0x24 PUSH1 0x0 REVERT JUMPDEST DUP1 DUP3 ADD DUP1 DUP3 GT ISZERO PUSH2 0xB6F JUMPI PUSH2 0xB6F PUSH2 0x4C7A JUMP JUMPDEST PUSH4 0x4E487B71 PUSH1 0xE0 SHL PUSH1 0x0 MSTORE PUSH1 0x21 PUSH1 0x4 MSTORE PUSH1 0x24 PUSH1 0x0 REVERT JUMPDEST DUP1 DUP3 MUL DUP2 ISZERO DUP3 DUP3 DIV DUP5 EQ OR PUSH2 0xB6F JUMPI PUSH2 0xB6F PUSH2 0x4C7A JUMP JUMPDEST PUSH4 0x4E487B71 PUSH1 0xE0 SHL PUSH1 0x0 MSTORE PUSH1 0x12 PUSH1 0x4 MSTORE PUSH1 0x24 PUSH1 0x0 REVERT JUMPDEST PUSH1 0x0 DUP3 PUSH2 0x4D03 JUMPI PUSH4 0x4E487B71 PUSH1 0xE0 SHL PUSH1 0x0 MSTORE PUSH1 0x12 PUSH1 0x4 MSTORE PUSH1 0x24 PUSH1 0x0 REVERT JUMPDEST POP DIV SWAP1 JUMP JUMPDEST DUP2 DUP2 SUB DUP2 DUP2 GT ISZERO PUSH2 0xB6F JUMPI PUSH2 0xB6F PUSH2 0x4C7A JUMP JUMPDEST PUSH1 0x0 PUSH1 0xFF DUP3 AND PUSH1 0xFF DUP2 SUB PUSH2 0x4D31 JUMPI PUSH2 0x4D31 PUSH2 0x4C7A JUMP JUMPDEST PUSH1 0x1 ADD SWAP3 SWAP2 POP POP JUMP JUMPDEST PUSH4 0x4E487B71 PUSH1 0xE0 SHL PUSH1 0x0 MSTORE PUSH1 0x32 PUSH1 0x4 MSTORE PUSH1 0x24 PUSH1 0x0 REVERT JUMPDEST PUSH32 0x416363657373436F6E74726F6C3A206163636F756E7420000000000000000000 DUP2 MSTORE PUSH1 0x0 DUP4 MLOAD PUSH2 0x4D88 DUP2 PUSH1 0x17 DUP6 ADD PUSH1 0x20 DUP9 ADD PUSH2 0x474E JUMP JUMPDEST PUSH17 0x1034B99036B4B9B9B4B733903937B6329 PUSH1 0x7D SHL PUSH1 0x17 SWAP2 DUP5 ADD SWAP2 DUP3 ADD MSTORE DUP4 MLOAD PUSH2 0x4DB9 DUP2 PUSH1 0x28 DUP5 ADD PUSH1 0x20 DUP9 ADD PUSH2 0x474E JUMP JUMPDEST ADD PUSH1 0x28 ADD SWAP5 SWAP4 POP POP POP POP JUMP JUMPDEST PUSH1 0x0 PUSH1 0x20 DUP3 DUP5 SUB SLT ISZERO PUSH2 0x4DD7 JUMPI PUSH1 0x0 DUP1 REVERT JUMPDEST DUP2 MLOAD DUP1 ISZERO ISZERO DUP2 EQ PUSH2 0xF89 JUMPI PUSH1 0x0 DUP1 REVERT JUMPDEST PUSH1 0x0 DUP2 PUSH2 0x4DF6 JUMPI PUSH2 0x4DF6 PUSH2 0x4C7A JUMP JUMPDEST POP PUSH1 0x0 NOT ADD SWAP1 JUMP JUMPDEST PUSH1 0x0 DUP3 MLOAD PUSH2 0x4E10 DUP2 DUP5 PUSH1 0x20 DUP8 ADD PUSH2 0x474E JUMP JUMPDEST SWAP2 SWAP1 SWAP2 ADD SWAP3 SWAP2 POP POP JUMP INVALID 0xAA SWAP1 PUSH1 0x66 0xD 0xC3 0xE5 0x21 MSTORE 0xEC PUSH13 0x4CD87F38F5433D3E2246058F23 LOG2 SWAP5 PUSH4 0xEA324768 OR PUSH18 0x840DC4906352362B0CDAF79870196C8E42AC 0xAF 0xAD 0xE7 0x2D TSTORE GAS PUSH14 0x59291253CEB14C845BD836773245 SSTORE SWAP5 0xE4 0x26 PUSH30 0x2660F9C3F2CBB53288E8C2F3EC69276E9A440A19E5B431DFEE30E2D7771B LOG3 0x4E PUSH18 0xA31E755842E2A5D6E335660BDF63D362EDE3 LOG2 PUSH5 0x6970667358 0x22 SLT KECCAK256 0x21 0xD3 0xAC SWAP11 SSTORE 0xDD 0x21 0xED 0xE6 SHR CODECOPY PUSH27 0x8F53EEDA38E35B03D99171D5B45879AD5F71050764736F6C634300 ADDMOD SHR STOP CALLER 0xDE 0xC2 0xBA 0xCD 0xD2 CREATE JUMPDEST MSIZE 0xDE CALLVALUE 0xDA SWAP12 MSTORE RETURNDATASIZE SELFDESTRUCT DUP12 0xE4 0x2E MCOPY CODESIZE 0xE8 XOR 0xC8 0x2F 0xDB SIGNEXTEND 0xAE PUSH24 0x4387A7240000000000000000000000000000000000000000 "},"methodIdentifiers":{"BACKING_MANAGER_ROLE()":"15e98e73","BURNER_ROLE()":"282c51f3","CLOCK_MODE()":"4bf5d7e9","COMMUNITY_DAO_PERCENTAGE()":"02ae844c","CREATOR_POOL_PERCENTAGE()":"eb09f72a","DEFAULT_ADMIN_ROLE()":"a217fddf","DOMAIN_SEPARATOR()":"3644e515","GOLD_BACKING_PERCENTAGE()":"04eaef4f","GOVERNANCE_ROLE()":"f36c8f5c","INITIAL_SUPPLY()":"2ff2e9dc","MAX_ASSET_PRICE()":"0bc48ada","MAX_SUPPLY()":"32cb6b0c","MINTER_ROLE()":"d5391393","PAUSER_ROLE()":"e63ab1e9","PRECIOUS_STONES_BACKING_PERCENTAGE()":"d3060a33","PUBLIC_PERCENTAGE()":"78702fdc","RECOVERY_ROLE()":"31993a1c","RESERVE_PERCENTAGE()":"74792153","ROYALTY_MANAGER_ROLE()":"58456fb5","ROYALTY_RECIPIENT_ROLE()":"751f77d3","SILVER_BACKING_PERCENTAGE()":"5a174fff","addRoyaltyRecipient(address)":"63dea955","allowance(address,address)":"dd62ed3e","approve(address,uint256)":"095ea7b3","backingPerTokenUSD()":"dfef15b8","balanceOf(address)":"70a08231","burn(address,uint256,string)":"15f570dc","burnMyTokens(uint256,string)":"e07495e3","checkpoints(address,uint32)":"f1127ed8","clock()":"91ddadf4","communityDAOAddress()":"142b01b0","creatorPoolAddress()":"30bcd679","decimals()":"313ce567","decreaseAllowance(address,uint256)":"a457c2d7","delegate(address)":"5c19a95c","delegateBySig(address,uint256,uint256,uint8,bytes32,bytes32)":"c3cda520","delegates(address)":"587cde1e","depositBacking(uint8,uint256)":"91ee2a3d","distributeRoyalty(address,uint256,string)":"784cafba","eip712Domain()":"84b0196e","emergencyRecoverERC20(address,address,uint256)":"eb8f4c4a","getAssetInfo(uint8)":"c8c7fe6b","getBackingRatios()":"621c0fbe","getPastTotalSupply(uint256)":"8e539e8c","getPastVotes(address,uint256)":"3a46b1a8","getRoleAdmin(bytes32)":"248a9ca3","getVotes(address)":"9ab24eb0","grantRole(bytes32,address)":"2f2ff15d","hasRole(bytes32,address)":"91d14854","increaseAllowance(address,uint256)":"39509351","mint(address,uint256,string)":"d3fc9864","name()":"06fdde03","nonces(address)":"7ecebe00","numCheckpoints(address)":"6fcfff45","pause()":"8456cb59","paused()":"5c975abb","permit(address,address,uint256,uint256,uint8,bytes32,bytes32)":"d505accf","publicAddress()":"f676f331","rebalanceBacking()":"69a87e15","registerBackingToken(uint8,address)":"c69def0b","removeRoyaltyRecipient(address)":"f6d0934c","renounceRole(bytes32,address)":"36568abe","reserveAddress()":"f79ed94b","revokeRole(bytes32,address)":"d547741f","royaltyEarned(address)":"8266efc3","royaltyManagerAddress()":"e4830c32","setAssetPriceUSD(uint8,uint256)":"a978d8df","supportsInterface(bytes4)":"01ffc9a7","symbol()":"95d89b41","totalBackingValueUSD()":"ae621bbe","totalRoyaltyDistributed()":"714a617a","totalSupply()":"18160ddd","transfer(address,uint256)":"a9059cbb","transferFrom(address,address,uint256)":"23b872dd","unpause()":"3f4ba83a","unregisterBackingToken(uint8)":"6042d5d4","updateCommunityDAOAddress(address)":"ef17794c","updateCreatorPoolAddress(address)":"0d869c24","updatePublicAddress(address)":"aeeb73ea","updateReserveAddress(address)":"f84afd48","withdrawBacking(uint8,address,uint256)":"a34cea08"}}}}}