{
  "_format": "hh-sol-artifact-1",
  "contractName": "OwnerManager",
  "sourceName": "contracts/roles/permissioning/owner/OwnerManager.sol",
  "abi": [
    {
      "inputs": [
        {
          "internalType": "address",
          "name": "_token",
          "type": "address"
        }
      ],
      "stateMutability": "nonpayable",
      "type": "constructor"
    },
    {
      "anonymous": false,
      "inputs": [
        {
          "indexed": true,
          "internalType": "address",
          "name": "target",
          "type": "address"
        },
        {
          "indexed": false,
          "internalType": "bytes4",
          "name": "selector",
          "type": "bytes4"
        }
      ],
      "name": "ComplianceInteraction",
      "type": "event"
    },
    {
      "anonymous": false,
      "inputs": [
        {
          "indexed": true,
          "internalType": "address",
          "name": "previousOwner",
          "type": "address"
        },
        {
          "indexed": true,
          "internalType": "address",
          "name": "newOwner",
          "type": "address"
        }
      ],
      "name": "OwnershipTransferred",
      "type": "event"
    },
    {
      "anonymous": false,
      "inputs": [
        {
          "indexed": true,
          "internalType": "address",
          "name": "_owner",
          "type": "address"
        },
        {
          "indexed": false,
          "internalType": "string",
          "name": "_role",
          "type": "string"
        }
      ],
      "name": "RoleAdded",
      "type": "event"
    },
    {
      "anonymous": false,
      "inputs": [
        {
          "indexed": true,
          "internalType": "address",
          "name": "_owner",
          "type": "address"
        },
        {
          "indexed": false,
          "internalType": "string",
          "name": "_role",
          "type": "string"
        }
      ],
      "name": "RoleRemoved",
      "type": "event"
    },
    {
      "inputs": [
        {
          "internalType": "address",
          "name": "_owner",
          "type": "address"
        }
      ],
      "name": "addClaimRegistryManager",
      "outputs": [],
      "stateMutability": "nonpayable",
      "type": "function"
    },
    {
      "inputs": [
        {
          "internalType": "address",
          "name": "_owner",
          "type": "address"
        }
      ],
      "name": "addComplianceManager",
      "outputs": [],
      "stateMutability": "nonpayable",
      "type": "function"
    },
    {
      "inputs": [
        {
          "internalType": "address",
          "name": "_owner",
          "type": "address"
        }
      ],
      "name": "addComplianceSetter",
      "outputs": [],
      "stateMutability": "nonpayable",
      "type": "function"
    },
    {
      "inputs": [
        {
          "internalType": "address",
          "name": "_owner",
          "type": "address"
        }
      ],
      "name": "addIssuersRegistryManager",
      "outputs": [],
      "stateMutability": "nonpayable",
      "type": "function"
    },
    {
      "inputs": [
        {
          "internalType": "address",
          "name": "_owner",
          "type": "address"
        }
      ],
      "name": "addOwnerAdmin",
      "outputs": [],
      "stateMutability": "nonpayable",
      "type": "function"
    },
    {
      "inputs": [
        {
          "internalType": "address",
          "name": "_owner",
          "type": "address"
        }
      ],
      "name": "addRegistryAddressSetter",
      "outputs": [],
      "stateMutability": "nonpayable",
      "type": "function"
    },
    {
      "inputs": [
        {
          "internalType": "address",
          "name": "_owner",
          "type": "address"
        }
      ],
      "name": "addTokenInfoManager",
      "outputs": [],
      "stateMutability": "nonpayable",
      "type": "function"
    },
    {
      "inputs": [
        {
          "internalType": "address",
          "name": "_agent",
          "type": "address"
        }
      ],
      "name": "callAddAgentOnIdentityRegistryContract",
      "outputs": [],
      "stateMutability": "nonpayable",
      "type": "function"
    },
    {
      "inputs": [
        {
          "internalType": "address",
          "name": "_agent",
          "type": "address"
        }
      ],
      "name": "callAddAgentOnTokenContract",
      "outputs": [],
      "stateMutability": "nonpayable",
      "type": "function"
    },
    {
      "inputs": [
        {
          "internalType": "uint256",
          "name": "_claimTopic",
          "type": "uint256"
        },
        {
          "internalType": "contract IIdentity",
          "name": "_onchainID",
          "type": "address"
        }
      ],
      "name": "callAddClaimTopic",
      "outputs": [],
      "stateMutability": "nonpayable",
      "type": "function"
    },
    {
      "inputs": [
        {
          "internalType": "contract IClaimIssuer",
          "name": "_trustedIssuer",
          "type": "address"
        },
        {
          "internalType": "uint256[]",
          "name": "_claimTopics",
          "type": "uint256[]"
        },
        {
          "internalType": "contract IIdentity",
          "name": "_onchainID",
          "type": "address"
        }
      ],
      "name": "callAddTrustedIssuer",
      "outputs": [],
      "stateMutability": "nonpayable",
      "type": "function"
    },
    {
      "inputs": [
        {
          "internalType": "bytes",
          "name": "callData",
          "type": "bytes"
        },
        {
          "internalType": "contract IIdentity",
          "name": "_onchainID",
          "type": "address"
        }
      ],
      "name": "callComplianceFunction",
      "outputs": [],
      "stateMutability": "nonpayable",
      "type": "function"
    },
    {
      "inputs": [
        {
          "internalType": "address",
          "name": "_agent",
          "type": "address"
        }
      ],
      "name": "callRemoveAgentOnIdentityRegistryContract",
      "outputs": [],
      "stateMutability": "nonpayable",
      "type": "function"
    },
    {
      "inputs": [
        {
          "internalType": "address",
          "name": "_agent",
          "type": "address"
        }
      ],
      "name": "callRemoveAgentOnTokenContract",
      "outputs": [],
      "stateMutability": "nonpayable",
      "type": "function"
    },
    {
      "inputs": [
        {
          "internalType": "uint256",
          "name": "_claimTopic",
          "type": "uint256"
        },
        {
          "internalType": "contract IIdentity",
          "name": "_onchainID",
          "type": "address"
        }
      ],
      "name": "callRemoveClaimTopic",
      "outputs": [],
      "stateMutability": "nonpayable",
      "type": "function"
    },
    {
      "inputs": [
        {
          "internalType": "contract IClaimIssuer",
          "name": "_trustedIssuer",
          "type": "address"
        },
        {
          "internalType": "contract IIdentity",
          "name": "_onchainID",
          "type": "address"
        }
      ],
      "name": "callRemoveTrustedIssuer",
      "outputs": [],
      "stateMutability": "nonpayable",
      "type": "function"
    },
    {
      "inputs": [
        {
          "internalType": "address",
          "name": "_claimTopicsRegistry",
          "type": "address"
        },
        {
          "internalType": "contract IIdentity",
          "name": "_onchainID",
          "type": "address"
        }
      ],
      "name": "callSetClaimTopicsRegistry",
      "outputs": [],
      "stateMutability": "nonpayable",
      "type": "function"
    },
    {
      "inputs": [
        {
          "internalType": "address",
          "name": "_compliance",
          "type": "address"
        },
        {
          "internalType": "contract IIdentity",
          "name": "_onchainID",
          "type": "address"
        }
      ],
      "name": "callSetCompliance",
      "outputs": [],
      "stateMutability": "nonpayable",
      "type": "function"
    },
    {
      "inputs": [
        {
          "internalType": "address",
          "name": "_identityRegistry",
          "type": "address"
        },
        {
          "internalType": "contract IIdentity",
          "name": "_onchainID",
          "type": "address"
        }
      ],
      "name": "callSetIdentityRegistry",
      "outputs": [],
      "stateMutability": "nonpayable",
      "type": "function"
    },
    {
      "inputs": [
        {
          "internalType": "string",
          "name": "_name",
          "type": "string"
        },
        {
          "internalType": "contract IIdentity",
          "name": "_onchainID",
          "type": "address"
        }
      ],
      "name": "callSetTokenName",
      "outputs": [],
      "stateMutability": "nonpayable",
      "type": "function"
    },
    {
      "inputs": [
        {
          "internalType": "address",
          "name": "_tokenOnchainID",
          "type": "address"
        },
        {
          "internalType": "contract IIdentity",
          "name": "_onchainID",
          "type": "address"
        }
      ],
      "name": "callSetTokenOnchainID",
      "outputs": [],
      "stateMutability": "nonpayable",
      "type": "function"
    },
    {
      "inputs": [
        {
          "internalType": "string",
          "name": "_symbol",
          "type": "string"
        },
        {
          "internalType": "contract IIdentity",
          "name": "_onchainID",
          "type": "address"
        }
      ],
      "name": "callSetTokenSymbol",
      "outputs": [],
      "stateMutability": "nonpayable",
      "type": "function"
    },
    {
      "inputs": [
        {
          "internalType": "address",
          "name": "_trustedIssuersRegistry",
          "type": "address"
        },
        {
          "internalType": "contract IIdentity",
          "name": "_onchainID",
          "type": "address"
        }
      ],
      "name": "callSetTrustedIssuersRegistry",
      "outputs": [],
      "stateMutability": "nonpayable",
      "type": "function"
    },
    {
      "inputs": [
        {
          "internalType": "address",
          "name": "_newOwner",
          "type": "address"
        }
      ],
      "name": "callTransferOwnershipOnClaimTopicsRegistryContract",
      "outputs": [],
      "stateMutability": "nonpayable",
      "type": "function"
    },
    {
      "inputs": [
        {
          "internalType": "address",
          "name": "_newOwner",
          "type": "address"
        }
      ],
      "name": "callTransferOwnershipOnComplianceContract",
      "outputs": [],
      "stateMutability": "nonpayable",
      "type": "function"
    },
    {
      "inputs": [
        {
          "internalType": "address",
          "name": "_newOwner",
          "type": "address"
        }
      ],
      "name": "callTransferOwnershipOnIdentityRegistryContract",
      "outputs": [],
      "stateMutability": "nonpayable",
      "type": "function"
    },
    {
      "inputs": [
        {
          "internalType": "address",
          "name": "_newOwner",
          "type": "address"
        }
      ],
      "name": "callTransferOwnershipOnIssuersRegistryContract",
      "outputs": [],
      "stateMutability": "nonpayable",
      "type": "function"
    },
    {
      "inputs": [
        {
          "internalType": "address",
          "name": "_newOwner",
          "type": "address"
        }
      ],
      "name": "callTransferOwnershipOnTokenContract",
      "outputs": [],
      "stateMutability": "nonpayable",
      "type": "function"
    },
    {
      "inputs": [
        {
          "internalType": "contract IClaimIssuer",
          "name": "_trustedIssuer",
          "type": "address"
        },
        {
          "internalType": "uint256[]",
          "name": "_claimTopics",
          "type": "uint256[]"
        },
        {
          "internalType": "contract IIdentity",
          "name": "_onchainID",
          "type": "address"
        }
      ],
      "name": "callUpdateIssuerClaimTopics",
      "outputs": [],
      "stateMutability": "nonpayable",
      "type": "function"
    },
    {
      "inputs": [
        {
          "internalType": "address",
          "name": "_owner",
          "type": "address"
        }
      ],
      "name": "isClaimRegistryManager",
      "outputs": [
        {
          "internalType": "bool",
          "name": "",
          "type": "bool"
        }
      ],
      "stateMutability": "view",
      "type": "function"
    },
    {
      "inputs": [
        {
          "internalType": "address",
          "name": "_owner",
          "type": "address"
        }
      ],
      "name": "isComplianceManager",
      "outputs": [
        {
          "internalType": "bool",
          "name": "",
          "type": "bool"
        }
      ],
      "stateMutability": "view",
      "type": "function"
    },
    {
      "inputs": [
        {
          "internalType": "address",
          "name": "_owner",
          "type": "address"
        }
      ],
      "name": "isComplianceSetter",
      "outputs": [
        {
          "internalType": "bool",
          "name": "",
          "type": "bool"
        }
      ],
      "stateMutability": "view",
      "type": "function"
    },
    {
      "inputs": [
        {
          "internalType": "address",
          "name": "_owner",
          "type": "address"
        }
      ],
      "name": "isIssuersRegistryManager",
      "outputs": [
        {
          "internalType": "bool",
          "name": "",
          "type": "bool"
        }
      ],
      "stateMutability": "view",
      "type": "function"
    },
    {
      "inputs": [
        {
          "internalType": "address",
          "name": "_owner",
          "type": "address"
        }
      ],
      "name": "isOwnerAdmin",
      "outputs": [
        {
          "internalType": "bool",
          "name": "",
          "type": "bool"
        }
      ],
      "stateMutability": "view",
      "type": "function"
    },
    {
      "inputs": [
        {
          "internalType": "address",
          "name": "_owner",
          "type": "address"
        }
      ],
      "name": "isRegistryAddressSetter",
      "outputs": [
        {
          "internalType": "bool",
          "name": "",
          "type": "bool"
        }
      ],
      "stateMutability": "view",
      "type": "function"
    },
    {
      "inputs": [
        {
          "internalType": "address",
          "name": "_owner",
          "type": "address"
        }
      ],
      "name": "isTokenInfoManager",
      "outputs": [
        {
          "internalType": "bool",
          "name": "",
          "type": "bool"
        }
      ],
      "stateMutability": "view",
      "type": "function"
    },
    {
      "inputs": [],
      "name": "owner",
      "outputs": [
        {
          "internalType": "address",
          "name": "",
          "type": "address"
        }
      ],
      "stateMutability": "view",
      "type": "function"
    },
    {
      "inputs": [
        {
          "internalType": "address",
          "name": "_owner",
          "type": "address"
        }
      ],
      "name": "removeClaimRegistryManager",
      "outputs": [],
      "stateMutability": "nonpayable",
      "type": "function"
    },
    {
      "inputs": [
        {
          "internalType": "address",
          "name": "_owner",
          "type": "address"
        }
      ],
      "name": "removeComplianceManager",
      "outputs": [],
      "stateMutability": "nonpayable",
      "type": "function"
    },
    {
      "inputs": [
        {
          "internalType": "address",
          "name": "_owner",
          "type": "address"
        }
      ],
      "name": "removeComplianceSetter",
      "outputs": [],
      "stateMutability": "nonpayable",
      "type": "function"
    },
    {
      "inputs": [
        {
          "internalType": "address",
          "name": "_owner",
          "type": "address"
        }
      ],
      "name": "removeIssuersRegistryManager",
      "outputs": [],
      "stateMutability": "nonpayable",
      "type": "function"
    },
    {
      "inputs": [
        {
          "internalType": "address",
          "name": "_owner",
          "type": "address"
        }
      ],
      "name": "removeOwnerAdmin",
      "outputs": [],
      "stateMutability": "nonpayable",
      "type": "function"
    },
    {
      "inputs": [
        {
          "internalType": "address",
          "name": "_owner",
          "type": "address"
        }
      ],
      "name": "removeRegistryAddressSetter",
      "outputs": [],
      "stateMutability": "nonpayable",
      "type": "function"
    },
    {
      "inputs": [
        {
          "internalType": "address",
          "name": "_owner",
          "type": "address"
        }
      ],
      "name": "removeTokenInfoManager",
      "outputs": [],
      "stateMutability": "nonpayable",
      "type": "function"
    },
    {
      "inputs": [],
      "name": "renounceOwnership",
      "outputs": [],
      "stateMutability": "nonpayable",
      "type": "function"
    },
    {
      "inputs": [],
      "name": "token",
      "outputs": [
        {
          "internalType": "contract IToken",
          "name": "",
          "type": "address"
        }
      ],
      "stateMutability": "view",
      "type": "function"
    },
    {
      "inputs": [
        {
          "internalType": "address",
          "name": "newOwner",
          "type": "address"
        }
      ],
      "name": "transferOwnership",
      "outputs": [],
      "stateMutability": "nonpayable",
      "type": "function"
    }
  ],
  "bytecode": "0x6080346100a957601f62002dfc38819003918201601f19168301916001600160401b038311848410176100ae578084926020946040528339810103126100a957516001600160a01b0390818116908190036100a95760005460018060a01b0319903382821617600055604051933391167f8be0079c531659141344cd1fd0a4f28419497f9722a3daafe3b4186f6b6457e0600080a36008541617600855612d379081620000c58239f35b600080fd5b634e487b7160e01b600052604160045260246000fdfe60806040526004361015610013575b600080fd5b60003560e01c8063039ec2cd146103bf57806303ff5014146103b65780631096a7ec146103ad5780632447e50b146103a4578063256ccc071461039b57806328d7be34146103925780632af70c30146103895780632f56d91b14610380578063309ff3d1146103775780633ba7c75e1461036e5780633c734ce814610365578063405225541461035c57806346b686f8146103535780634837b7971461034a57806354b9797f146103415780635c5f20471461033857806362cdd4821461032f5780636ff7bff714610326578063715018a61461031d578063757d467f14610314578063818ab8bd1461030b578063828709371461030257806385cef608146102f957806387cc060c146102f0578063882fc6ca146102e75780638da5cb5b146102de578063934b2da4146102d557806394e69f1b146102cc578063951af88d146102c357806399884aab146102ba5780639ce2d88e146102b15780639d6de3bc146102a8578063a66bcc1c1461029f578063aa1cef5614610296578063ac95fc911461028d578063ae5aaa3b14610284578063ce4bdac71461027b578063dd39042b14610272578063e110255b14610269578063e381231814610260578063eeac6fe614610257578063f087249c1461024e578063f2fde38b14610245578063faed696a1461023c578063fc0c546a14610233578063fc6de4b51461022a5763ff8063111461022257600080fd5b61000e6125d0565b5061000e6124b8565b5061000e61248e565b5061000e6123fa565b5061000e612332565b5061000e61226a565b5061000e6121a2565b5061000e6120d8565b5061000e612046565b5061000e611f30565b5061000e611e9c565b5061000e611e08565b5061000e611d74565b5061000e611ce7565b5061000e611c53565b5061000e611b6b565b5061000e6119db565b5061000e6118c2565b5061000e6117da565b5061000e611746565b5061000e61166d565b5061000e611643565b5061000e6115b1565b5061000e611540565b5061000e611424565b5061000e6113fc565b5061000e6112b7565b5061000e6111c0565b5061000e611161565b5061000e6110c4565b5061000e61109c565b5061000e610f27565b5061000e610e95565b5061000e610d06565b5061000e610c11565b5061000e610b7f565b5061000e610b57565b5061000e610b2f565b5061000e610adc565b5061000e61094f565b5061000e6107df565b5061000e6106fb565b5061000e61066a565b5061000e610642565b5061000e6104fd565b5061000e6104cb565b5061000e6103d9565b6001600160a01b0381160361000e57565b503461000e57602036600319011261000e576004356103f7816103c8565b6000546001600160a01b0391908216331480156104b7575b61041890612995565b61042181612b86565b156104685716806000526002602052604060002060ff198154169055600080516020612cc2833981519152610463610457612ba9565b60405191829182612a1b565b0390a2005b60405162461bcd60e51b815260206004820152602160248201527f526f6c65733a206163636f756e7420646f6573206e6f74206861766520726f6c6044820152606560f81b6064820152608490fd5b506104186104c433612a64565b905061040f565b503461000e57602036600319011261000e5760206104f36004356104ee816103c8565b612ad7565b6040519015158152f35b503461000e57602036600319011261000e5760043561051b816103c8565b60008054909182916001600160a01b039081163314801561062e575b61054090612995565b600854600490602090610563906001600160a01b03165b6001600160a01b031690565b604051636290865d60e01b815292839182905afa908115610621575b84916105f3575b501690813b156105ef5760405163f2fde38b60e01b81526001600160a01b03909116600482015291908290818381602481015b03925af180156105e2575b6105cc575080f35b806105d96105df92612667565b80611156565b80f35b6105ea6126de565b6105c4565b5050fd5b610614915060203d811161061a575b61060c81836126a4565b810190612800565b38610586565b503d610602565b6106296126de565b61057f565b5061054061063b33612a64565b9050610537565b503461000e57602036600319011261000e5760206104f3600435610665816103c8565b612afa565b503461000e57602036600319011261000e57600435610688816103c8565b60018060a01b03906000828193825416331480156106e7575b6106aa90612995565b806008541692833b156106e357602490836040519586948593634273cc2160e11b85521660048401525af180156105e2576105cc575080f35b8280fd5b506106aa6106f433612a64565b90506106a1565b503461000e57602036600319011261000e57600435610719816103c8565b60018060a01b0390600082819382541633148015610774575b61073b90612995565b806008541692833b156106e357602490836040519586948593634bd313c760e11b85521660048401525af180156105e2576105cc575080f35b5061073b61078133612a64565b9050610732565b90604060031983011261000e5760043567ffffffffffffffff9283821161000e578060238301121561000e57816004013593841161000e576024848301011161000e5760240191906024356107dc816103c8565b90565b503461000e576108136107f136610788565b9092906001600160a01b031661080681612afa565b9081610881575b50612815565b600854610828906001600160a01b0316610557565b91823b1561000e576108549260009283604051809681958294635c26412360e11b845260048401612877565b03925af18015610874575b61086557005b806105d961087292612667565b005b61087c6126de565b61085f565b604080513360208281019182526108dd955093929091906108af90829081015b03601f1981018352826126a4565b51902060405163d202158d60e01b815260048101919091526002602482015292839190829081906044820190565b03915afa908115610926575b6000916108f8575b503861080d565b610919915060203d811161091f575b61091181836126a4565b8101906126c6565b386108f1565b503d610907565b61092e6126de565b6108e9565b604090600319011261000e57600435906024356107dc816103c8565b503461000e5761095e36610933565b6001600160a01b039061098390821661097681612b1d565b9081610a72575b50612938565b600854600490829061099d906001600160a01b0316610557565b6040516304d3863d60e21b815260209384928391839182905afa908115610a65575b600091610a48575b50600460405180948193630ecf84bd60e21b8352165afa918215610a3b575b600092610a1e575b505016803b1561000e57604051630414bc2360e11b81526004810183905290600090829081838160248101610854565b610a349250803d1061061a5761060c81836126a4565b38806109ee565b610a436126de565b6109e6565b610a5f9150823d841161061a5761060c81836126a4565b386109c7565b610a6d6126de565b6109bf565b60408051336020828101918252610a96955093929091906108af90829081016108a1565b03915afa908115610acf575b600091610ab1575b503861097d565b610ac9915060203d811161091f5761091181836126a4565b38610aaa565b610ad76126de565b610aa2565b503461000e57610aee6107f136610788565b600854610b03906001600160a01b0316610557565b91823b1561000e57610854926000928360405180968195829463c47f002760e01b845260048401612877565b503461000e57602036600319011261000e5760206104f3600435610b52816103c8565b612b40565b503461000e57602036600319011261000e5760206104f3600435610b7a816103c8565b612b1d565b503461000e57602036600319011261000e57600435610b9d816103c8565b6000546001600160a01b039190821633148015610bfd575b610bbe90612995565b610bc781612b40565b156104685716806000526003602052604060002060ff198154169055600080516020612cc2833981519152610463610457612bda565b50610bbe610c0a33612a64565b9050610bb5565b503461000e57602036600319011261000e57600435610c2f816103c8565b6000546001600160a01b039190821633148015610c8f575b610c5090612995565b610c5981612ad7565b156104685716806000526004602052604060002060ff198154169055600080516020612cc2833981519152610463610457612c06565b50610c50610c9c33612a64565b9050610c47565b606060031982011261000e57600435610cbb816103c8565b9160243567ffffffffffffffff9283821161000e578060238301121561000e57816004013593841161000e5760248460051b8301011161000e5760240191906044356107dc816103c8565b503461000e57610d1536610ca3565b9192916001600160a01b0390610d3d908216610d3081612b63565b9081610e2b575b5061289f565b6008546004908290610d57906001600160a01b0316610557565b6040516304d3863d60e21b815260209384928391839182905afa908115610e1e575b600091610e01575b5060046040518094819363b4f3fcb760e01b8352165afa918215610df4575b600092610dd7575b505016803b1561000e5761085493600080946040519687958694859363012f1fa160e21b8552600485016128fe565b610ded9250803d1061061a5761060c81836126a4565b3880610da8565b610dfc6126de565b610da0565b610e189150823d841161061a5761060c81836126a4565b38610d81565b610e266126de565b610d79565b60408051336020828101918252610e4f955093929091906108af90829081016108a1565b03915afa908115610e88575b600091610e6a575b5038610d37565b610e82915060203d811161091f5761091181836126a4565b38610e63565b610e906126de565b610e5b565b503461000e57602036600319011261000e57600435610eb3816103c8565b6000546001600160a01b039190821633148015610f13575b610ed490612995565b610edd81612a64565b156104685716806000526001602052604060002060ff198154169055600080516020612cc28339815191526104636104576129f5565b50610ed4610f2033612a64565b9050610ecb565b503461000e57610f3636610788565b9091906001600160a01b0390610f5e908216610f5181612ad7565b9081611032575b506127a5565b600854600490602090610f79906001600160a01b0316610557565b604051636290865d60e01b815292839182905afa908115611025575b600091611007575b501691600080826040518186823782875af115610ffd57610fe2610463917f5779a24d18a4639b1d59461e68c00fb0cd02533a4c5a6ff3ca6363e23e2fff56936129e1565b6040516001600160e01b031990911681529081906020820190565b3d6000803e3d6000fd5b61101f915060203d811161061a5761060c81836126a4565b38610f9d565b61102d6126de565b610f95565b60408051336020828101918252611056955093929091906108af90829081016108a1565b03915afa90811561108f575b600091611071575b5038610f58565b611089915060203d811161091f5761091181836126a4565b3861106a565b6110976126de565b611062565b503461000e57602036600319011261000e5760206104f36004356110bf816103c8565b612a64565b503461000e57602036600319011261000e576004356110e2816103c8565b6000546001600160a01b039190821633148015611142575b61110390612995565b61110c81612b63565b156104685716806000526006602052604060002060ff198154169055600080516020612cc2833981519152610463610457612c63565b5061110361114f33612a64565b90506110fa565b600091031261000e57565b503461000e576000806003193601126111bd5761117c6125f8565b80546001600160a01b03198116825581906001600160a01b03167f8be0079c531659141344cd1fd0a4f28419497f9722a3daafe3b4186f6b6457e08280a380f35b80fd5b503461000e57602036600319011261000e576004356111de816103c8565b60008054909182916001600160a01b03908116331480156112a3575b61120390612995565b60085460049060209061121e906001600160a01b0316610557565b6040516304d3863d60e21b815292839182905afa908115611296575b8491611278575b501690813b156105ef57604051634bd313c760e11b81526001600160a01b03909116600482015291908290818381602481016105b9565b611290915060203d811161061a5761060c81836126a4565b38611241565b61129e6126de565b61123a565b506112036112b033612a64565b90506111fa565b503461000e5760208060031936011261000e57600435906112d7826103c8565b60018060a01b0391600092839281845416331480156113e8575b6112fa90612995565b818160048161131361055760085460018060a01b031690565b6040516304d3863d60e21b815292839182905afa9081156113db575b87916113be575b50600460405180948193630ecf84bd60e21b8352165afa9182156113b1575b8592611394575b50501690813b156105ef5760405163f2fde38b60e01b81526001600160a01b03909116600482015291908290818381602481016105b9565b6113aa9250803d1061061a5761060c81836126a4565b388061135c565b6113b96126de565b611355565b6113d59150823d841161061a5761060c81836126a4565b38611336565b6113e36126de565b61132f565b506112fa6113f533612a64565b90506112f1565b503461000e57602036600319011261000e5760206104f360043561141f816103c8565b612b86565b503461000e57602036600319011261000e57600435611442816103c8565b60008054909182916001600160a01b0390811633148015611507575b61146790612995565b600854600490602090611482906001600160a01b0316610557565b6040516304d3863d60e21b815292839182905afa9081156114fa575b84916114dc575b501690813b156105ef57604051634273cc2160e11b81526001600160a01b03909116600482015291908290818381602481016105b9565b6114f4915060203d811161061a5761060c81836126a4565b386114a5565b6115026126de565b61149e565b5061146761151433612a64565b905061145e565b604090600319011261000e57600435611533816103c8565b906024356107dc816103c8565b503461000e576115676115523661151b565b9091906001600160a01b031661080681612afa565b60085461157c906001600160a01b0316610557565b803b1561000e57604051633d1ddc5b60e01b81526001600160a01b038316600482015290600090829081838160248101610854565b503461000e57602036600319011261000e576004356115cf816103c8565b6000546001600160a01b03919082163314801561162f575b6115f090612995565b6115f981612afa565b156104685716806000526007602052604060002060ff198154169055600080516020612cc2833981519152610463610457612c95565b506115f061163c33612a64565b90506115e7565b503461000e57600036600319011261000e576000546040516001600160a01b039091168152602090f35b503461000e57602036600319011261000e5760043561168b816103c8565b6000546001600160a01b039190821633148015611732575b6116ac90612995565b6116b581612a64565b6116ed57168060005260016020526040600020600160ff19825416179055600080516020612ce28339815191526104636104576129f5565b60405162461bcd60e51b815260206004820152601f60248201527f526f6c65733a206163636f756e7420616c72656164792068617320726f6c65006044820152606490fd5b506116ac61173f33612a64565b90506116a3565b503461000e57602036600319011261000e57600435611764816103c8565b6000546001600160a01b0391908216331480156117c6575b61178590612995565b61178e81612afa565b6116ed57168060005260076020526040600020600160ff19825416179055600080516020612ce2833981519152610463610457612c95565b506117856117d333612a64565b905061177c565b503461000e5761180e6117ec3661151b565b9091906001600160a01b031661180181612b40565b9081611858575b5061274b565b600854611823906001600160a01b0316610557565b803b1561000e5760405163f898178960e01b81526001600160a01b038316600482015290600090829081838160248101610854565b6040805133602082810191825261187c955093929091906108af90829081016108a1565b03915afa9081156118b5575b600091611897575b5038611808565b6118af915060203d811161091f5761091181836126a4565b38611890565b6118bd6126de565b611888565b503461000e5760208060031936011261000e57600435906118e2826103c8565b60018060a01b0391600092839281845416331480156119c7575b61190590612995565b818160048161191e61055760085460018060a01b031690565b6040516304d3863d60e21b815292839182905afa9081156119ba575b879161199d575b5060046040518094819363b4f3fcb760e01b8352165afa9182156113b15785926113945750501690813b156105ef5760405163f2fde38b60e01b81526001600160a01b03909116600482015291908290818381602481016105b9565b6119b49150823d841161061a5761060c81836126a4565b38611941565b6119c26126de565b61193a565b506119056119d433612a64565b90506118fc565b503461000e5760408060031936011261000e576004356119fa816103c8565b602435611a06816103c8565b6001600160a01b0390611a2a908216611a1e81612b63565b9081611b1f575061289f565b6008546004908290611a44906001600160a01b0316610557565b85516304d3863d60e21b815260209384928391839182905afa908115611b12575b600091611af5575b50600487518094819363b4f3fcb760e01b8352165afa918215611ae8575b600092611acb575b50501691823b1561000e575163b93d28eb60e01b81526001600160a01b03909116600482015290600090829081838160248101610854565b611ae19250803d1061061a5761060c81836126a4565b3880611a93565b611af06126de565b611a8b565b611b0c9150823d841161061a5761060c81836126a4565b38611a6d565b611b1a6126de565b611a65565b8551336020828101918252610e4f94509291611b3e81604081016108a1565b519020875163d202158d60e01b815260048101919091526002602482015292839190829081906044820190565b503461000e57611b9f611b7d3661151b565b9091906001600160a01b0316611b9281612b86565b9081611be9575b506126eb565b600854611bb4906001600160a01b0316610557565b803b1561000e5760405163cbf3f86160e01b81526001600160a01b038316600482015290600090829081838160248101610854565b60408051336020828101918252611c0d955093929091906108af90829081016108a1565b03915afa908115611c46575b600091611c28575b5038611b99565b611c40915060203d811161091f5761091181836126a4565b38611c21565b611c4e6126de565b611c19565b503461000e57602036600319011261000e57600435611c71816103c8565b6000546001600160a01b039190821633148015611cd3575b611c9290612995565b611c9b81612ad7565b6116ed57168060005260046020526040600020600160ff19825416179055600080516020612ce2833981519152610463610457612c06565b50611c92611ce033612a64565b9050611c89565b503461000e57602036600319011261000e57600435611d05816103c8565b60018060a01b0390600082819382541633148015611d60575b611d2790612995565b806008541692833b156106e35760249083604051958694859363f2fde38b60e01b85521660048401525af180156105e2576105cc575080f35b50611d27611d6d33612a64565b9050611d1e565b503461000e57602036600319011261000e57600435611d92816103c8565b6000546001600160a01b039190821633148015611df4575b611db390612995565b611dbc81612b63565b6116ed57168060005260066020526040600020600160ff19825416179055600080516020612ce2833981519152610463610457612c63565b50611db3611e0133612a64565b9050611daa565b503461000e57602036600319011261000e57600435611e26816103c8565b6000546001600160a01b039190821633148015611e88575b611e4790612995565b611e5081612b86565b6116ed57168060005260026020526040600020600160ff19825416179055600080516020612ce2833981519152610463610457612ba9565b50611e47611e9533612a64565b9050611e3e565b503461000e57602036600319011261000e57600435611eba816103c8565b6000546001600160a01b039190821633148015611f1c575b611edb90612995565b611ee481612b40565b6116ed57168060005260036020526040600020600160ff19825416179055600080516020612ce2833981519152610463610457612bda565b50611edb611f2933612a64565b9050611ed2565b503461000e57611f3f36610933565b6001600160a01b0390611f5790821661097681612b1d565b6008546004908290611f71906001600160a01b0316610557565b6040516304d3863d60e21b815260209384928391839182905afa908115612039575b60009161201c575b50600460405180948193630ecf84bd60e21b8352165afa91821561200f575b600092611ff2575b505016803b1561000e5760405163c7b2255160e01b81526004810183905290600090829081838160248101610854565b6120089250803d1061061a5761060c81836126a4565b3880611fc2565b6120176126de565b611fba565b6120339150823d841161061a5761060c81836126a4565b38611f9b565b6120416126de565b611f93565b503461000e57602036600319011261000e57600435612064816103c8565b6000546001600160a01b0391908216331480156120c4575b61208590612995565b61208e81612b1d565b156104685716806000526005602052604060002060ff198154169055600080516020612cc2833981519152610463610457612c33565b506120856120d133612a64565b905061207c565b503461000e57602036600319011261000e576004356120f6816103c8565b60008054909182916001600160a01b039081163314801561218e575b61211b90612995565b600854600490602090612136906001600160a01b0316610557565b6040516304d3863d60e21b815292839182905afa9081156106215784916105f357501690813b156105ef5760405163f2fde38b60e01b81526001600160a01b03909116600482015291908290818381602481016105b9565b5061211b61219b33612a64565b9050612112565b503461000e576121b13661151b565b6001600160a01b03906121c9908216611b9281612b86565b6008546004906020906121e4906001600160a01b0316610557565b6040516304d3863d60e21b815292839182905afa90811561225d575b60009161223f575b5016803b1561000e5760405163670af6a960e01b81526001600160a01b038316600482015290600090829081838160248101610854565b612257915060203d811161061a5761060c81836126a4565b38612208565b6122656126de565b612200565b503461000e576122793661151b565b6001600160a01b0390612291908216611b9281612b86565b6008546004906020906122ac906001600160a01b0316610557565b6040516304d3863d60e21b815292839182905afa908115612325575b600091612307575b5016803b1561000e5760405163e744d78960e01b81526001600160a01b038316600482015290600090829081838160248101610854565b61231f915060203d811161061a5761060c81836126a4565b386122d0565b61232d6126de565b6122c8565b503461000e57602036600319011261000e57600435612350816103c8565b6123586125f8565b6001600160a01b0390811680156123a657600080546001600160a01b03198116831782559092167f8be0079c531659141344cd1fd0a4f28419497f9722a3daafe3b4186f6b6457e08380a380f35b60405162461bcd60e51b815260206004820152602660248201527f4f776e61626c653a206e6577206f776e657220697320746865207a65726f206160448201526564647265737360d01b6064820152608490fd5b503461000e57602036600319011261000e57600435612418816103c8565b6000546001600160a01b03919082163314801561247a575b61243990612995565b61244281612b1d565b6116ed57168060005260056020526040600020600160ff19825416179055600080516020612ce2833981519152610463610457612c33565b5061243961248733612a64565b9050612430565b503461000e57600036600319011261000e576008546040516001600160a01b039091168152602090f35b503461000e576124c736610ca3565b9192916001600160a01b03906124e2908216610d3081612b63565b60085460049082906124fc906001600160a01b0316610557565b6040516304d3863d60e21b815260209384928391839182905afa9081156125c3575b6000916125a6575b5060046040518094819363b4f3fcb760e01b8352165afa918215612599575b60009261257c575b505016803b1561000e576108549360008094604051968795869485936313ec7d5360e31b8552600485016128fe565b6125929250803d1061061a5761060c81836126a4565b388061254d565b6125a16126de565b612545565b6125bd9150823d841161061a5761060c81836126a4565b38612526565b6125cb6126de565b61251e565b503461000e57602036600319011261000e5760206104f36004356125f3816103c8565b612b63565b6000546001600160a01b0316330361260c57565b606460405162461bcd60e51b815260206004820152602060248201527f4f776e61626c653a2063616c6c6572206973206e6f7420746865206f776e65726044820152fd5b50634e487b7160e01b600052604160045260246000fd5b67ffffffffffffffff811161267b57604052565b612683612650565b604052565b6040810190811067ffffffffffffffff82111761267b57604052565b90601f8019910116810190811067ffffffffffffffff82111761267b57604052565b9081602091031261000e5751801515810361000e5790565b506040513d6000823e3d90fd5b156126f257565b60405162461bcd60e51b815260206004820152602b60248201527f526f6c653a2053656e646572206973204e4f542052656769737472792041646460448201526a3932b9b99029b2ba3a32b960a91b6064820152608490fd5b1561275257565b60405162461bcd60e51b815260206004820152602560248201527f526f6c653a2053656e646572206973204e4f5420436f6d706c69616e6365205360448201526432ba3a32b960d91b6064820152608490fd5b156127ac57565b60405162461bcd60e51b815260206004820152602660248201527f526f6c653a2053656e646572206973204e4f5420436f6d706c69616e6365204d60448201526530b730b3b2b960d11b6064820152608490fd5b9081602091031261000e57516107dc816103c8565b1561281c57565b60405162461bcd60e51b815260206004820152602d60248201527f526f6c653a2053656e646572206973204e4f5420546f6b656e20496e666f726d60448201526c30ba34b7b71026b0b730b3b2b960991b6064820152608490fd5b90918060409360208452816020850152848401376000828201840152601f01601f1916010190565b156128a657565b60405162461bcd60e51b815260206004820152602a60248201527f526f6c653a2053656e646572206973204e4f54204973737565727352656769736044820152693a393ca6b0b730b3b2b960b11b6064820152608490fd5b6001600160a01b03909116815260406020820181905281018390526001600160fb1b03831161000e5760609260051b809284830137010190565b1561293f57565b60405162461bcd60e51b815260206004820152602860248201527f526f6c653a2053656e646572206973204e4f5420436c61696d526567697374726044820152673ca6b0b730b3b2b960c11b6064820152608490fd5b1561299c57565b60405162461bcd60e51b815260206004820152601960248201527f526f6c653a2053656e646572206973204e4f542041646d696e000000000000006044820152606490fd5b60009291600411156129f05750565b359150565b60405190612a0282612688565b600a82526927bbb732b920b236b4b760b11b6020830152565b6020808252825181830181905290939260005b828110612a5057505060409293506000838284010152601f8019910116010190565b818101860151848201604001528501612a2e565b6001600160a01b03168015612a8757600052600160205260ff6040600020541690565b60405162461bcd60e51b815260206004820152602260248201527f526f6c65733a206163636f756e7420697320746865207a65726f206164647265604482015261737360f01b6064820152608490fd5b6001600160a01b03168015612a8757600052600460205260ff6040600020541690565b6001600160a01b03168015612a8757600052600760205260ff6040600020541690565b6001600160a01b03168015612a8757600052600560205260ff6040600020541690565b6001600160a01b03168015612a8757600052600360205260ff6040600020541690565b6001600160a01b03168015612a8757600052600660205260ff6040600020541690565b6001600160a01b03168015612a8757600052600260205260ff6040600020541690565b60405190612bb682612688565b60158252742932b3b4b9ba393ca0b2323932b9b9a9b2ba3a32b960591b6020830152565b60405190612be782612688565b601082526f21b7b6b83634b0b731b2a9b2ba3a32b960811b6020830152565b60405190612c1382612688565b601182527021b7b6b83634b0b731b2a6b0b730b3b2b960791b6020830152565b60405190612c4082612688565b601482527321b630b4b6a932b3b4b9ba393ca6b0b730b3b2b960611b6020830152565b60405190612c7082612688565b601682527524b9b9bab2b939a932b3b4b9ba393ca6b0b730b3b2b960511b6020830152565b60405190612ca282612688565b601082526f2a37b5b2b724b73337a6b0b730b3b2b960811b602083015256fed211483f91fc6eff862467f8de606587a30c8fc9981056f051b897a418df803abfec83d64eaa953f2708271a023ab9ee82057f8f3578d548c1a4ba0b5b700489a2646970667358221220d6096a4774a7a42d17fecf61b25c08e4fec7f0541b9ec7314ad3d0b2af9938be64736f6c63430008110033",
  "linkReferences": {},
  "deployedLinkReferences": {}
}