{
  "_format": "hh-sol-artifact-1",
  "contractName": "SupplyLimitModule",
  "sourceName": "contracts/compliance/modular/modules/SupplyLimitModule.sol",
  "abi": [
    {
      "anonymous": false,
      "inputs": [
        {
          "indexed": false,
          "internalType": "address",
          "name": "previousAdmin",
          "type": "address"
        },
        {
          "indexed": false,
          "internalType": "address",
          "name": "newAdmin",
          "type": "address"
        }
      ],
      "name": "AdminChanged",
      "type": "event"
    },
    {
      "anonymous": false,
      "inputs": [
        {
          "indexed": true,
          "internalType": "address",
          "name": "beacon",
          "type": "address"
        }
      ],
      "name": "BeaconUpgraded",
      "type": "event"
    },
    {
      "anonymous": false,
      "inputs": [
        {
          "indexed": true,
          "internalType": "address",
          "name": "_compliance",
          "type": "address"
        }
      ],
      "name": "ComplianceBound",
      "type": "event"
    },
    {
      "anonymous": false,
      "inputs": [
        {
          "indexed": true,
          "internalType": "address",
          "name": "_compliance",
          "type": "address"
        }
      ],
      "name": "ComplianceUnbound",
      "type": "event"
    },
    {
      "anonymous": false,
      "inputs": [
        {
          "indexed": false,
          "internalType": "uint8",
          "name": "version",
          "type": "uint8"
        }
      ],
      "name": "Initialized",
      "type": "event"
    },
    {
      "anonymous": false,
      "inputs": [
        {
          "indexed": true,
          "internalType": "address",
          "name": "previousOwner",
          "type": "address"
        },
        {
          "indexed": true,
          "internalType": "address",
          "name": "newOwner",
          "type": "address"
        }
      ],
      "name": "OwnershipTransferred",
      "type": "event"
    },
    {
      "anonymous": false,
      "inputs": [
        {
          "indexed": false,
          "internalType": "address",
          "name": "_compliance",
          "type": "address"
        },
        {
          "indexed": false,
          "internalType": "uint256",
          "name": "_limit",
          "type": "uint256"
        }
      ],
      "name": "SupplyLimitSet",
      "type": "event"
    },
    {
      "anonymous": false,
      "inputs": [
        {
          "indexed": true,
          "internalType": "address",
          "name": "implementation",
          "type": "address"
        }
      ],
      "name": "Upgraded",
      "type": "event"
    },
    {
      "inputs": [
        {
          "internalType": "address",
          "name": "_compliance",
          "type": "address"
        }
      ],
      "name": "bindCompliance",
      "outputs": [],
      "stateMutability": "nonpayable",
      "type": "function"
    },
    {
      "inputs": [
        {
          "internalType": "address",
          "name": "",
          "type": "address"
        }
      ],
      "name": "canComplianceBind",
      "outputs": [
        {
          "internalType": "bool",
          "name": "",
          "type": "bool"
        }
      ],
      "stateMutability": "view",
      "type": "function"
    },
    {
      "inputs": [
        {
          "internalType": "address",
          "name": "_compliance",
          "type": "address"
        }
      ],
      "name": "getSupplyLimit",
      "outputs": [
        {
          "internalType": "uint256",
          "name": "",
          "type": "uint256"
        }
      ],
      "stateMutability": "view",
      "type": "function"
    },
    {
      "inputs": [],
      "name": "initialize",
      "outputs": [],
      "stateMutability": "nonpayable",
      "type": "function"
    },
    {
      "inputs": [
        {
          "internalType": "address",
          "name": "_compliance",
          "type": "address"
        }
      ],
      "name": "isComplianceBound",
      "outputs": [
        {
          "internalType": "bool",
          "name": "",
          "type": "bool"
        }
      ],
      "stateMutability": "view",
      "type": "function"
    },
    {
      "inputs": [],
      "name": "isPlugAndPlay",
      "outputs": [
        {
          "internalType": "bool",
          "name": "",
          "type": "bool"
        }
      ],
      "stateMutability": "pure",
      "type": "function"
    },
    {
      "inputs": [
        {
          "internalType": "address",
          "name": "_from",
          "type": "address"
        },
        {
          "internalType": "uint256",
          "name": "_value",
          "type": "uint256"
        }
      ],
      "name": "moduleBurnAction",
      "outputs": [],
      "stateMutability": "nonpayable",
      "type": "function"
    },
    {
      "inputs": [
        {
          "internalType": "address",
          "name": "_from",
          "type": "address"
        },
        {
          "internalType": "address",
          "name": "",
          "type": "address"
        },
        {
          "internalType": "uint256",
          "name": "_value",
          "type": "uint256"
        },
        {
          "internalType": "address",
          "name": "_compliance",
          "type": "address"
        }
      ],
      "name": "moduleCheck",
      "outputs": [
        {
          "internalType": "bool",
          "name": "",
          "type": "bool"
        }
      ],
      "stateMutability": "view",
      "type": "function"
    },
    {
      "inputs": [
        {
          "internalType": "address",
          "name": "_to",
          "type": "address"
        },
        {
          "internalType": "uint256",
          "name": "_value",
          "type": "uint256"
        }
      ],
      "name": "moduleMintAction",
      "outputs": [],
      "stateMutability": "nonpayable",
      "type": "function"
    },
    {
      "inputs": [
        {
          "internalType": "address",
          "name": "_from",
          "type": "address"
        },
        {
          "internalType": "address",
          "name": "_to",
          "type": "address"
        },
        {
          "internalType": "uint256",
          "name": "_value",
          "type": "uint256"
        }
      ],
      "name": "moduleTransferAction",
      "outputs": [],
      "stateMutability": "nonpayable",
      "type": "function"
    },
    {
      "inputs": [],
      "name": "name",
      "outputs": [
        {
          "internalType": "string",
          "name": "_name",
          "type": "string"
        }
      ],
      "stateMutability": "pure",
      "type": "function"
    },
    {
      "inputs": [],
      "name": "owner",
      "outputs": [
        {
          "internalType": "address",
          "name": "",
          "type": "address"
        }
      ],
      "stateMutability": "view",
      "type": "function"
    },
    {
      "inputs": [],
      "name": "proxiableUUID",
      "outputs": [
        {
          "internalType": "bytes32",
          "name": "",
          "type": "bytes32"
        }
      ],
      "stateMutability": "view",
      "type": "function"
    },
    {
      "inputs": [],
      "name": "renounceOwnership",
      "outputs": [],
      "stateMutability": "nonpayable",
      "type": "function"
    },
    {
      "inputs": [
        {
          "internalType": "uint256",
          "name": "_limit",
          "type": "uint256"
        }
      ],
      "name": "setSupplyLimit",
      "outputs": [],
      "stateMutability": "nonpayable",
      "type": "function"
    },
    {
      "inputs": [
        {
          "internalType": "address",
          "name": "newOwner",
          "type": "address"
        }
      ],
      "name": "transferOwnership",
      "outputs": [],
      "stateMutability": "nonpayable",
      "type": "function"
    },
    {
      "inputs": [
        {
          "internalType": "address",
          "name": "_compliance",
          "type": "address"
        }
      ],
      "name": "unbindCompliance",
      "outputs": [],
      "stateMutability": "nonpayable",
      "type": "function"
    },
    {
      "inputs": [
        {
          "internalType": "address",
          "name": "newImplementation",
          "type": "address"
        }
      ],
      "name": "upgradeTo",
      "outputs": [],
      "stateMutability": "nonpayable",
      "type": "function"
    },
    {
      "inputs": [
        {
          "internalType": "address",
          "name": "newImplementation",
          "type": "address"
        },
        {
          "internalType": "bytes",
          "name": "data",
          "type": "bytes"
        }
      ],
      "name": "upgradeToAndCall",
      "outputs": [],
      "stateMutability": "payable",
      "type": "function"
    }
  ],
  "bytecode": "0x60a080604052346100315730608052611357908161003782396080518181816103da01528181610501015261090d0152f35b600080fdfe6040608081526004908136101561001557600080fd5b600091823560e01c8063013b7ce414610c815780630694a5fb14610be857806306fdde0314610b745780632cb7e1ec14610b51578063361fab2514610adb5780633659cfe6146108e6578063372491a2146101865780634a9325441461080b5780634ae65b5c146107d35780634cf4d295146107885780634f1ef2861461048757806352d1902d146103c5578063715018a6146103685780638129fc1c1461021a5780638da5cb5b146101f1578063bcc21053146101cb578063e6f5e807146101af578063f104a8c9146101865763f2fde38b146100f257600080fd5b346101825760203660031901126101825761010b610cd3565b91610114610dbd565b6001600160a01b03831615610130578361012d84610e15565b80f35b906020608492519162461bcd60e51b8352820152602660248201527f4f776e61626c653a206e6577206f776e657220697320746865207a65726f206160448201526564647265737360d01b6064820152fd5b8280fd5b5050346101ab573660031901126101a85761019f610cd3565b5061012d611193565b80fd5b5080fd5b5050346101ab57816003193601126101ab576020905160018152f35b5050346101ab5760203660031901126101ab576020906101e9610cd3565b505160018152f35b5050346101ab57816003193601126101ab5760335490516001600160a01b039091168152602090f35b5034610182578260031936011261018257825460ff8160081c16159182809361035b575b8015610344575b156102ea575060ff1981166001178455816102d9575b5061027e60ff845460081c1661027081611133565b61027981611133565b611133565b61028733610e15565b82549061029960ff8360081c16611133565b6102a1578280f35b61ff001916825551600181527f7f26b83ff96e1f2b6a682f133852f6798a09c465da95921460cefb384740249890602090a138808280f35b61ffff19166101011783553861025b565b608490602085519162461bcd60e51b8352820152602e60248201527f496e697469616c697a61626c653a20636f6e747261637420697320616c72656160448201526d191e481a5b9a5d1a585b1a5e995960921b6064820152fd5b50303b1580156102455750600160ff831614610245565b50600160ff83161061023e565b83346101a857806003193601126101a857610381610dbd565b603380546001600160a01b0319811690915581906001600160a01b03167f8be0079c531659141344cd1fd0a4f28419497f9722a3daafe3b4186f6b6457e08280a380f35b5082346101a857806003193601126101a857507f00000000000000000000000000000000000000000000000000000000000000006001600160a01b0316300361041f57602082516000805160206112e28339815191528152f35b6020608492519162461bcd60e51b8352820152603860248201527f555550535570677261646561626c653a206d757374206e6f742062652063616c60448201527f6c6564207468726f7567682064656c656761746563616c6c00000000000000006064820152fd5b5090806003193601126101825761049c610cd3565b906024359067ffffffffffffffff8211610784573660238301121561078457818401356104c881610da1565b6104d483519182610d7f565b81815286602094858301933660248284010111610182578060248893018637830101526001600160a01b037f000000000000000000000000000000000000000000000000000000000000000081169061052f30831415610e5e565b61054c6000805160206112e2833981519152928284541614610ebf565b610554610dbd565b7f4910fdfa16fed3260ed0e7147f7cc6da11a60208b5b9406d12a635614ffd91435460ff161561058e5750505050505061012d9150610f20565b869293949596169085516352d1902d60e01b815287818a81865afa8a9181610751575b5061061057865162461bcd60e51b8152808a01899052602e60248201527f45524331393637557067726164653a206e657720696d706c656d656e7461746960448201526d6f6e206973206e6f74205555505360901b6064820152608490fd5b9791929396959497036106fc575061062782610f20565b7fbc7cd75a20ee27fd9adebab32041f755214dbc6bffa90cc0225b39da2e5c2d3b8780a2858451158015906106f4575b610665575b50505050505080f35b806106de9684519661067688610d4d565b602788527f416464726573733a206c6f772d6c6576656c2064656c65676174652063616c6c87890152660819985a5b195960ca1b868901525190845af4913d156106ea573d6106d06106c782610da1565b92519283610d7f565b81528681943d92013e610fb0565b5038808080808561065c565b5060609250610fb0565b506001610657565b835162461bcd60e51b8152908101859052602960248201527f45524331393637557067726164653a20756e737570706f727465642070726f786044820152681a58589b195555525160ba1b6064820152608490fd5b9091508881813d831161077d575b6107698183610d7f565b81010312610779575190386105b1565b8a80fd5b503d61075f565b8480fd5b5050346101ab5760203660031901126101ab5760209160ff9082906001600160a01b036107b3610cd3565b168152600080516020611302833981519152855220541690519015158152f35b5050346101ab5760203660031901126101ab5760209181906001600160a01b036107fb610cd3565b16815260c9845220549051908152f35b509034610182576020366003190112610182576001600160a01b0361082e610cd3565b169161083b831515611045565b828452600080516020611302833981519152908160205260ff83862054166108a35750610869833314611091565b8284526020528220805460ff191660011790557f1f7b76c58fb697eb53c6c7c1becb96911516a136e24d7ced386b2355358b75a38280a280f35b606490602084519162461bcd60e51b8352820152601860248201527f636f6d706c69616e636520616c726561647920626f756e6400000000000000006044820152fd5b50903461018257602080600319360112610ad757610902610cd3565b916001600160a01b037f0000000000000000000000000000000000000000000000000000000000000000811661093a30821415610e5e565b6109576000805160206112e2833981519152918383541614610ebf565b61095f610dbd565b8251908482019282841067ffffffffffffffff851117610ac4578385528883527f4910fdfa16fed3260ed0e7147f7cc6da11a60208b5b9406d12a635614ffd91435460ff16156109b95750505050505061012d9150610f20565b869293949596169085516352d1902d60e01b815287818a81865afa8a9181610a95575b50610a3b57865162461bcd60e51b8152808a01899052602e60248201527f45524331393637557067726164653a206e657720696d706c656d656e7461746960448201526d6f6e206973206e6f74205555505360901b6064820152608490fd5b9791929396959497036106fc5750610a5282610f20565b7fbc7cd75a20ee27fd9adebab32041f755214dbc6bffa90cc0225b39da2e5c2d3b8780a285845115801590610a8e576106655750505050505080f35b5080610657565b9091508881813d8311610abd575b610aad8183610d7f565b81010312610779575190386109dc565b503d610aa3565b634e487b7160e01b895260418852602489fd5b8380fd5b509034610182576020366003190112610182577f2f1ac7412e0c36ff7b73f7c4f474022dfa5d3f1c09e3262f63c9eb4627a9f5059135338452600080516020611302833981519152602052610b3560ff83862054166110e7565b33845260c960205280828520558151903382526020820152a180f35b83346101a85760603660031901126101a857610b6b610cd3565b5061019f610cee565b509190346101ab57816003193601126101ab578051918183019083821067ffffffffffffffff831117610bd55750610bd1935081526011825270537570706c794c696d69744d6f64756c6560781b60208301525191829182610d04565b0390f35b634e487b7160e01b815260418552602490fd5b5050346101ab5760203660031901126101ab57610c03610cd3565b903383526000805160206113028339815191529182602052610c2a60ff83862054166110e7565b6001600160a01b031691610c3f831515611045565b610c4a833314611091565b8284526020528220805460ff191690557f408b49d9be1c914c52a0227e18a077e5a892dddf32a26cfa94a5d9708fad77188280a280f35b5050346101ab5760803660031901126101ab57610c9c610cd3565b610ca4610cee565b50606435926001600160a01b03841684036101a85750602092610cca91604435906111bc565b90519015158152f35b600435906001600160a01b0382168203610ce957565b600080fd5b602435906001600160a01b0382168203610ce957565b6020808252825181830181905290939260005b828110610d3957505060409293506000838284010152601f8019910116010190565b818101860151848201604001528501610d17565b6060810190811067ffffffffffffffff821117610d6957604052565b634e487b7160e01b600052604160045260246000fd5b90601f8019910116810190811067ffffffffffffffff821117610d6957604052565b67ffffffffffffffff8111610d6957601f01601f191660200190565b6033546001600160a01b03163303610dd157565b606460405162461bcd60e51b815260206004820152602060248201527f4f776e61626c653a2063616c6c6572206973206e6f7420746865206f776e65726044820152fd5b603380546001600160a01b039283166001600160a01b0319821681179092559091167f8be0079c531659141344cd1fd0a4f28419497f9722a3daafe3b4186f6b6457e0600080a3565b15610e6557565b60405162461bcd60e51b815260206004820152602c60248201527f46756e6374696f6e206d7573742062652063616c6c6564207468726f7567682060448201526b19195b1959d85d1958d85b1b60a21b6064820152608490fd5b15610ec657565b60405162461bcd60e51b815260206004820152602c60248201527f46756e6374696f6e206d7573742062652063616c6c6564207468726f7567682060448201526b6163746976652070726f787960a01b6064820152608490fd5b803b15610f55576000805160206112e283398151915280546001600160a01b0319166001600160a01b03909216919091179055565b60405162461bcd60e51b815260206004820152602d60248201527f455243313936373a206e657720696d706c656d656e746174696f6e206973206e60448201526c1bdd08184818dbdb9d1c9858dd609a1b6064820152608490fd5b919290156110125750815115610fc4575090565b3b15610fcd5790565b60405162461bcd60e51b815260206004820152601d60248201527f416464726573733a2063616c6c20746f206e6f6e2d636f6e74726163740000006044820152606490fd5b8251909150156110255750805190602001fd5b60405162461bcd60e51b81529081906110419060048301610d04565b0390fd5b1561104c57565b60405162461bcd60e51b815260206004820152601f60248201527f696e76616c696420617267756d656e74202d207a65726f2061646472657373006044820152606490fd5b1561109857565b60405162461bcd60e51b815260206004820152602160248201527f6f6e6c7920636f6d706c69616e636520636f6e74726163742063616e2063616c6044820152601b60fa1b6064820152608490fd5b156110ee57565b60405162461bcd60e51b815260206004820152601e60248201527f6f6e6c7920626f756e6420636f6d706c69616e63652063616e2063616c6c00006044820152606490fd5b1561113a57565b60405162461bcd60e51b815260206004820152602b60248201527f496e697469616c697a61626c653a20636f6e7472616374206973206e6f74206960448201526a6e697469616c697a696e6760a81b6064820152608490fd5b336000526000805160206113028339815191526020526111ba60ff604060002054166110e7565b565b6001600160a01b0392908316159190826111e3575b505090506111de57600190565b600090565b604051630d47dbe560e31b81529084169250602091908281600481875afa801561129c5783916000916112a8575b506004604051809781936318160ddd60e01b8352165afa93841561129c5760009461126d575b5083018093116112575760c99160005252604060002054108038806111d1565b634e487b7160e01b600052601160045260246000fd5b90938282813d8311611295575b6112848183610d7f565b810103126101a85750519238611237565b503d61127a565b6040513d6000823e3d90fd5b909181813d83116112da575b6112be8183610d7f565b810103126101ab57519085821682036101a85750829038611211565b503d6112b456fe360894a13ba1a3210667c828492db98dca3e2076cc3735a920a3ca505d382bbcf6cc97de1266c180cd39f3b311632644143ce7873d2927755382ad4b39e8ae00a2646970667358221220597836aa24a38abc21e3731677e546abc98e26958c9a6979c41117685cb65c5464736f6c63430008110033",
  "linkReferences": {},
  "deployedLinkReferences": {}
}