{
  "_format": "hh-sol-artifact-1",
  "contractName": "MaxBalanceTest",
  "sourceName": "contracts/compliance/legacy/test/MaxBalanceTest.sol",
  "abi": [
    {
      "anonymous": false,
      "inputs": [
        {
          "indexed": true,
          "internalType": "address",
          "name": "_agent",
          "type": "address"
        }
      ],
      "name": "AgentAdded",
      "type": "event"
    },
    {
      "anonymous": false,
      "inputs": [
        {
          "indexed": true,
          "internalType": "address",
          "name": "_agent",
          "type": "address"
        }
      ],
      "name": "AgentRemoved",
      "type": "event"
    },
    {
      "anonymous": false,
      "inputs": [
        {
          "indexed": false,
          "internalType": "uint256",
          "name": "_maxBalance",
          "type": "uint256"
        }
      ],
      "name": "MaxBalanceSet",
      "type": "event"
    },
    {
      "anonymous": false,
      "inputs": [
        {
          "indexed": true,
          "internalType": "address",
          "name": "previousOwner",
          "type": "address"
        },
        {
          "indexed": true,
          "internalType": "address",
          "name": "newOwner",
          "type": "address"
        }
      ],
      "name": "OwnershipTransferred",
      "type": "event"
    },
    {
      "anonymous": false,
      "inputs": [
        {
          "indexed": false,
          "internalType": "address",
          "name": "_agentAddress",
          "type": "address"
        }
      ],
      "name": "TokenAgentAdded",
      "type": "event"
    },
    {
      "anonymous": false,
      "inputs": [
        {
          "indexed": false,
          "internalType": "address",
          "name": "_agentAddress",
          "type": "address"
        }
      ],
      "name": "TokenAgentRemoved",
      "type": "event"
    },
    {
      "anonymous": false,
      "inputs": [
        {
          "indexed": false,
          "internalType": "address",
          "name": "_token",
          "type": "address"
        }
      ],
      "name": "TokenBound",
      "type": "event"
    },
    {
      "anonymous": false,
      "inputs": [
        {
          "indexed": false,
          "internalType": "address",
          "name": "_token",
          "type": "address"
        }
      ],
      "name": "TokenUnbound",
      "type": "event"
    },
    {
      "inputs": [
        {
          "internalType": "address",
          "name": "",
          "type": "address"
        }
      ],
      "name": "IDBalance",
      "outputs": [
        {
          "internalType": "uint256",
          "name": "",
          "type": "uint256"
        }
      ],
      "stateMutability": "view",
      "type": "function"
    },
    {
      "inputs": [
        {
          "internalType": "address",
          "name": "_agent",
          "type": "address"
        }
      ],
      "name": "addAgent",
      "outputs": [],
      "stateMutability": "nonpayable",
      "type": "function"
    },
    {
      "inputs": [
        {
          "internalType": "address",
          "name": "_agentAddress",
          "type": "address"
        }
      ],
      "name": "addTokenAgent",
      "outputs": [],
      "stateMutability": "nonpayable",
      "type": "function"
    },
    {
      "inputs": [
        {
          "internalType": "address",
          "name": "_token",
          "type": "address"
        }
      ],
      "name": "bindToken",
      "outputs": [],
      "stateMutability": "nonpayable",
      "type": "function"
    },
    {
      "inputs": [
        {
          "internalType": "address",
          "name": "_from",
          "type": "address"
        },
        {
          "internalType": "address",
          "name": "_to",
          "type": "address"
        },
        {
          "internalType": "uint256",
          "name": "_value",
          "type": "uint256"
        }
      ],
      "name": "canTransfer",
      "outputs": [
        {
          "internalType": "bool",
          "name": "",
          "type": "bool"
        }
      ],
      "stateMutability": "view",
      "type": "function"
    },
    {
      "inputs": [
        {
          "internalType": "address",
          "name": "",
          "type": "address"
        },
        {
          "internalType": "address",
          "name": "_to",
          "type": "address"
        },
        {
          "internalType": "uint256",
          "name": "_value",
          "type": "uint256"
        }
      ],
      "name": "complianceCheckOnMaxBalance",
      "outputs": [
        {
          "internalType": "bool",
          "name": "",
          "type": "bool"
        }
      ],
      "stateMutability": "view",
      "type": "function"
    },
    {
      "inputs": [
        {
          "internalType": "address",
          "name": "_to",
          "type": "address"
        },
        {
          "internalType": "uint256",
          "name": "_value",
          "type": "uint256"
        }
      ],
      "name": "created",
      "outputs": [],
      "stateMutability": "nonpayable",
      "type": "function"
    },
    {
      "inputs": [
        {
          "internalType": "address",
          "name": "_from",
          "type": "address"
        },
        {
          "internalType": "uint256",
          "name": "_value",
          "type": "uint256"
        }
      ],
      "name": "destroyed",
      "outputs": [],
      "stateMutability": "nonpayable",
      "type": "function"
    },
    {
      "inputs": [
        {
          "internalType": "address",
          "name": "_agent",
          "type": "address"
        }
      ],
      "name": "isAgent",
      "outputs": [
        {
          "internalType": "bool",
          "name": "",
          "type": "bool"
        }
      ],
      "stateMutability": "view",
      "type": "function"
    },
    {
      "inputs": [
        {
          "internalType": "address",
          "name": "_agentAddress",
          "type": "address"
        }
      ],
      "name": "isTokenAgent",
      "outputs": [
        {
          "internalType": "bool",
          "name": "",
          "type": "bool"
        }
      ],
      "stateMutability": "view",
      "type": "function"
    },
    {
      "inputs": [
        {
          "internalType": "address",
          "name": "_token",
          "type": "address"
        }
      ],
      "name": "isTokenBound",
      "outputs": [
        {
          "internalType": "bool",
          "name": "",
          "type": "bool"
        }
      ],
      "stateMutability": "view",
      "type": "function"
    },
    {
      "inputs": [],
      "name": "maxBalance",
      "outputs": [
        {
          "internalType": "uint256",
          "name": "",
          "type": "uint256"
        }
      ],
      "stateMutability": "view",
      "type": "function"
    },
    {
      "inputs": [],
      "name": "owner",
      "outputs": [
        {
          "internalType": "address",
          "name": "",
          "type": "address"
        }
      ],
      "stateMutability": "view",
      "type": "function"
    },
    {
      "inputs": [
        {
          "internalType": "address",
          "name": "_agent",
          "type": "address"
        }
      ],
      "name": "removeAgent",
      "outputs": [],
      "stateMutability": "nonpayable",
      "type": "function"
    },
    {
      "inputs": [
        {
          "internalType": "address",
          "name": "_agentAddress",
          "type": "address"
        }
      ],
      "name": "removeTokenAgent",
      "outputs": [],
      "stateMutability": "nonpayable",
      "type": "function"
    },
    {
      "inputs": [],
      "name": "renounceOwnership",
      "outputs": [],
      "stateMutability": "nonpayable",
      "type": "function"
    },
    {
      "inputs": [
        {
          "internalType": "uint256",
          "name": "_max",
          "type": "uint256"
        }
      ],
      "name": "setMaxBalance",
      "outputs": [],
      "stateMutability": "nonpayable",
      "type": "function"
    },
    {
      "inputs": [],
      "name": "tokenBound",
      "outputs": [
        {
          "internalType": "contract IToken",
          "name": "",
          "type": "address"
        }
      ],
      "stateMutability": "view",
      "type": "function"
    },
    {
      "inputs": [
        {
          "internalType": "address",
          "name": "newOwner",
          "type": "address"
        }
      ],
      "name": "transferOwnership",
      "outputs": [],
      "stateMutability": "nonpayable",
      "type": "function"
    },
    {
      "inputs": [
        {
          "internalType": "address",
          "name": "_from",
          "type": "address"
        },
        {
          "internalType": "address",
          "name": "_to",
          "type": "address"
        },
        {
          "internalType": "uint256",
          "name": "_value",
          "type": "uint256"
        }
      ],
      "name": "transferred",
      "outputs": [],
      "stateMutability": "nonpayable",
      "type": "function"
    },
    {
      "inputs": [
        {
          "internalType": "address",
          "name": "_token",
          "type": "address"
        }
      ],
      "name": "unbindToken",
      "outputs": [],
      "stateMutability": "nonpayable",
      "type": "function"
    }
  ],
  "bytecode": "0x6080806040523461005b5760008054336001600160a01b0319821681178355916001600160a01b03909116907f8be0079c531659141344cd1fd0a4f28419497f9722a3daafe3b4186f6b6457e09080a3610f4590816100618239f35b600080fdfe6040608081526004908136101561001557600080fd5b600091823560e01c9081631ffbb06414610a2d578163346531fa14610a075781633ff5aa021461096d57816340db3b50146108995781635f8dead3146107ec578163715018a61461078f57816373ad468a1461077157816384d1fc401461075457816384e798421461067f5781638baf29b4146105b65781638d2ea7721461055d5781638da5cb5b1461053557816393e62f071461050c57816397a6278e1461042f578163993e8b95146104095781639d51d9b7146103bb578163cdde2932146102f7578163e46638e6146102d1578163f2fde38b1461020e578163ff3e695414610144575063ff5482671461010a57600080fd5b346101405760203660031901126101405760209181906001600160a01b03610130610a53565b1681526005845220549051908152f35b5080fd5b83915034610140576020908160031936011261020a57610162610a53565b61016a610aa3565b6001600160a01b0316808452600283528484205490919060ff166101c957508293817fd62c45e13ac30396aceb3ad37c89bd1ba9048032fe61679000e92eb93dbfd67d945260028352808520600160ff1982541617905551908152a180f35b606490838087519262461bcd60e51b845283015260248201527f54686973204167656e7420697320616c726561647920726567697374657265646044820152fd5b8280fd5b90503461020a57602036600319011261020a57610229610a53565b90610232610aa3565b6001600160a01b0391821692831561027f57505082546001600160a01b0319811683178455167f8be0079c531659141344cd1fd0a4f28419497f9722a3daafe3b4186f6b6457e08380a380f35b906020608492519162461bcd60e51b8352820152602660248201527f4f776e61626c653a206e6577206f776e657220697320746865207a65726f206160448201526564647265737360d01b6064820152fd5b505034610140576020906102ee6102e736610a6e565b9150610e3c565b90519015158152f35b83915034610140576020908160031936011261020a57610315610a53565b61031d610aa3565b6001600160a01b0316808452600283528484205490919060ff161561037a57508293817f6a659bb87bb23efbdc295f8eed8ae8c4379bfb77660ced2ef0f3d7d26b05c6a694526002835280852060ff19815416905551908152a180f35b606490838087519262461bcd60e51b845283015260248201527f54686973204167656e74206973206e6f742072656769737465726564207965746044820152fd5b9190503461020a57602036600319011261020a57816020917f82f9980487703d8db41f1ba63b2665566f7fb449fbc840a9e0c6ca932bed582c93358092610400610aa3565b5551908152a180f35b505034610140576020366003190112610140576020906102ee61042a610a53565b610c34565b90503461020a57602036600319011261020a5761044a610a53565b90610453610aa3565b6001600160a01b03821692610469841515610e50565b61047283610e9c565b156104bf5750506001600160a01b03166000908152600160205260409020805460ff191690557fed9c8ad8d5a0a66898ea49d2956929c93ae2e8bd50281b2ed897c5d1a6737e0b8280a280f35b906020608492519162461bcd60e51b8352820152602160248201527f526f6c65733a206163636f756e7420646f6573206e6f74206861766520726f6c6044820152606560f81b6064820152fd5b50503461014057816003193601126101405760035490516001600160a01b039091168152602090f35b505034610140578160031936011261014057905490516001600160a01b039091168152602090f35b505034610140578060031936011261014057610577610a53565b61058861058333610c34565b610db1565b6001600160a01b039061059a90610cbd565b168252600560205281206105b16024358254610e2f565b905580f35b9190503461020a576105e36105f46105cd36610a6e565b92916105de61058395929533610c34565b610cbd565b926001600160a01b03918291610cbd565b1692838752600560205284872061060c848254610c53565b90551685526005602052610624838620918254610e2f565b9055835260056020528083205482541061063c578280f35b906020606492519162461bcd60e51b8352820152601e60248201527f706f73742d7472616e736665722062616c616e636520746f6f206869676800006044820152fd5b90503461020a57602036600319011261020a5761069a610a53565b906106a3610aa3565b6001600160a01b038216926106b9841515610e50565b6106c283610e9c565b6107115750506001600160a01b03166000908152600160205260409020805460ff191660011790557ff68e73cec97f2d70aa641fb26e87a4383686e2efacb648f2165aeb02ac562ec58280a280f35b906020606492519162461bcd60e51b8352820152601f60248201527f526f6c65733a206163636f756e7420616c72656164792068617320726f6c65006044820152fd5b505034610140576020906102ee61076a36610a6e565b9150610c76565b90503461020a578260031936011261020a5760209250549051908152f35b83346107e957806003193601126107e9576107a8610aa3565b80546001600160a01b03198116825581906001600160a01b03167f8be0079c531659141344cd1fd0a4f28419497f9722a3daafe3b4186f6b6457e08280a380f35b80fd5b9190503461020a578060031936011261020a57610807610a53565b61081361058333610c34565b6001600160a01b039061082590610cbd565b16808452600560205281842061083e6024358254610c53565b90558352600560205280832054825410610856578280f35b906020606492519162461bcd60e51b8352820152601d60248201527f706f73742d6d696e74696e672062616c616e636520746f6f20686967680000006044820152fd5b9190503461020a57602036600319011261020a576108b5610a53565b83546001600160a01b039390841633148015610962575b6108d590610afb565b836003549216938216840361091f57506001600160a01b031916600355519081527f28a4ca7134a3b3f9aff286e79ad3daadb4a06d1b43d037a3a98bdc074edd9b7a90602090a180f35b606490602084519162461bcd60e51b8352820152601760248201527f5468697320746f6b656e206973206e6f7420626f756e640000000000000000006044820152fd5b5033828516146108cc565b5050346101405760203660031901126101405760207f2de35142b19ed5a07796cf30791959c592018f70b1d2d7c460eef8ffe713692b916109ac610a53565b84546001600160a01b0391908216331480156109ef575b6109cc90610afb565b1690816bffffffffffffffffffffffff60a01b600354161760035551908152a180f35b5081600354161580156109c3575033818316146109c3565b505034610140576020366003190112610140576020906102ee610a28610a53565b610b7f565b505034610140576020366003190112610140576020906102ee610a4e610a53565b610e9c565b600435906001600160a01b0382168203610a6957565b600080fd5b6060906003190112610a69576001600160a01b03906004358281168103610a6957916024359081168103610a69579060443590565b6000546001600160a01b03163303610ab757565b606460405162461bcd60e51b815260206004820152602060248201527f4f776e61626c653a2063616c6c6572206973206e6f7420746865206f776e65726044820152fd5b15610b0257565b60405162461bcd60e51b815260206004820152601c60248201527f6f6e6c79206f776e6572206f7220746f6b656e2063616e2063616c6c000000006044820152606490fd5b90601f8019910116810190811067ffffffffffffffff821117610b6957604052565b634e487b7160e01b600052604160045260246000fd5b60018060a01b0380911690600091808352600260205260ff604084205416159182610bb4575b5050610bb15750600190565b90565b602091925060035416916024604051809481936307feec1960e21b835260048301525afa908115610c29578291610bef575b50153880610ba5565b90506020813d8211610c21575b81610c0960209383610b47565b81010312610140575180151581036101405738610be6565b3d9150610bfc565b6040513d84823e3d90fd5b6003546001600160a01b03908116911603610c4e57600190565b600090565b91908201809211610c6057565b634e487b7160e01b600052601160045260246000fd5b60045491828111610cb557610cab916001600160a01b0390610c9790610cbd565b166000526005602052604060002054610c53565b11610c4e57600190565b505050600090565b6003546040516304d3863d60e21b81526001600160a01b039260209283908390600490829088165afa918215610d655783918591600094610d71575b50604051633c3ad79560e21b815290821660048201529283916024918391165afa918215610d6557600092610d2f575b50501690565b81813d8311610d5e575b610d438183610b47565b8101031261014057519082821682036107e957503880610d29565b503d610d39565b6040513d6000823e3d90fd5b809250839194933d8311610daa575b610d8a8183610b47565b8101031261014057519084821682036107e9575083602484929390610cf9565b503d610d80565b15610db857565b60a460405162461bcd60e51b815260206004820152604460248201527f6572726f72203a20746869732061646472657373206973206e6f74206120746f60448201527f6b656e20626f756e6420746f2074686520636f6d706c69616e636520636f6e746064820152631c9858dd60e21b6084820152fd5b91908203918211610c6057565b90610e4691610c76565b15610c4e57600190565b15610e5757565b60405162461bcd60e51b815260206004820152601f60248201527f696e76616c696420617267756d656e74202d207a65726f2061646472657373006044820152606490fd5b6001600160a01b03168015610ebf57600052600160205260ff6040600020541690565b60405162461bcd60e51b815260206004820152602260248201527f526f6c65733a206163636f756e7420697320746865207a65726f206164647265604482015261737360f01b6064820152608490fdfea2646970667358221220f1a183d0545ab92a636f715e1107f47de33115b800dce5c60702af59e8465ce864736f6c63430008110033",
  "linkReferences": {},
  "deployedLinkReferences": {}
}