{
  "_format": "hh-sol-artifact-1",
  "contractName": "EminarToken",
  "sourceName": "contracts/EMN/EMN.sol",
  "abi": [
    {
      "inputs": [
        {
          "internalType": "string",
          "name": "name_",
          "type": "string"
        },
        {
          "internalType": "string",
          "name": "symbol_",
          "type": "string"
        },
        {
          "internalType": "address",
          "name": "publicAddr_",
          "type": "address"
        },
        {
          "internalType": "address",
          "name": "reserveAddr_",
          "type": "address"
        },
        {
          "internalType": "address",
          "name": "devAddr_",
          "type": "address"
        },
        {
          "internalType": "address",
          "name": "shariaAddr_",
          "type": "address"
        },
        {
          "internalType": "address",
          "name": "strategicAddr_",
          "type": "address"
        },
        {
          "internalType": "address",
          "name": "governanceMultisig_",
          "type": "address"
        }
      ],
      "stateMutability": "nonpayable",
      "type": "constructor"
    },
    {
      "inputs": [],
      "name": "AssetNotRegistered",
      "type": "error"
    },
    {
      "inputs": [],
      "name": "DuplicateAddress",
      "type": "error"
    },
    {
      "inputs": [],
      "name": "ExceedsMaxSupply",
      "type": "error"
    },
    {
      "inputs": [],
      "name": "InsufficientBacking",
      "type": "error"
    },
    {
      "inputs": [],
      "name": "InsufficientBalance",
      "type": "error"
    },
    {
      "inputs": [],
      "name": "InvalidAsset",
      "type": "error"
    },
    {
      "inputs": [],
      "name": "InvalidPrice",
      "type": "error"
    },
    {
      "inputs": [],
      "name": "InvalidShortString",
      "type": "error"
    },
    {
      "inputs": [
        {
          "internalType": "string",
          "name": "str",
          "type": "string"
        }
      ],
      "name": "StringTooLong",
      "type": "error"
    },
    {
      "inputs": [],
      "name": "ZeroAddress",
      "type": "error"
    },
    {
      "inputs": [],
      "name": "ZeroAmount",
      "type": "error"
    },
    {
      "anonymous": false,
      "inputs": [
        {
          "indexed": true,
          "internalType": "string",
          "name": "addressType",
          "type": "string"
        },
        {
          "indexed": false,
          "internalType": "address",
          "name": "newAddress",
          "type": "address"
        }
      ],
      "name": "AddressUpdated",
      "type": "event"
    },
    {
      "anonymous": false,
      "inputs": [
        {
          "indexed": true,
          "internalType": "address",
          "name": "owner",
          "type": "address"
        },
        {
          "indexed": true,
          "internalType": "address",
          "name": "spender",
          "type": "address"
        },
        {
          "indexed": false,
          "internalType": "uint256",
          "name": "value",
          "type": "uint256"
        }
      ],
      "name": "Approval",
      "type": "event"
    },
    {
      "anonymous": false,
      "inputs": [
        {
          "indexed": true,
          "internalType": "enum EminarToken.BackingAsset",
          "name": "asset",
          "type": "uint8"
        },
        {
          "indexed": false,
          "internalType": "uint256",
          "name": "priceUSD",
          "type": "uint256"
        }
      ],
      "name": "AssetPriceUpdated",
      "type": "event"
    },
    {
      "anonymous": false,
      "inputs": [
        {
          "indexed": true,
          "internalType": "enum EminarToken.BackingAsset",
          "name": "asset",
          "type": "uint8"
        },
        {
          "indexed": true,
          "internalType": "address",
          "name": "from",
          "type": "address"
        },
        {
          "indexed": false,
          "internalType": "uint256",
          "name": "amount",
          "type": "uint256"
        }
      ],
      "name": "BackingDeposited",
      "type": "event"
    },
    {
      "anonymous": false,
      "inputs": [
        {
          "indexed": true,
          "internalType": "enum EminarToken.BackingAsset",
          "name": "asset",
          "type": "uint8"
        },
        {
          "indexed": false,
          "internalType": "address",
          "name": "token",
          "type": "address"
        }
      ],
      "name": "BackingTokenRegistered",
      "type": "event"
    },
    {
      "anonymous": false,
      "inputs": [
        {
          "indexed": true,
          "internalType": "enum EminarToken.BackingAsset",
          "name": "asset",
          "type": "uint8"
        }
      ],
      "name": "BackingTokenUnregistered",
      "type": "event"
    },
    {
      "anonymous": false,
      "inputs": [
        {
          "indexed": true,
          "internalType": "enum EminarToken.BackingAsset",
          "name": "asset",
          "type": "uint8"
        },
        {
          "indexed": true,
          "internalType": "address",
          "name": "to",
          "type": "address"
        },
        {
          "indexed": false,
          "internalType": "uint256",
          "name": "amount",
          "type": "uint256"
        }
      ],
      "name": "BackingWithdrawn",
      "type": "event"
    },
    {
      "anonymous": false,
      "inputs": [
        {
          "indexed": true,
          "internalType": "address",
          "name": "delegator",
          "type": "address"
        },
        {
          "indexed": true,
          "internalType": "address",
          "name": "fromDelegate",
          "type": "address"
        },
        {
          "indexed": true,
          "internalType": "address",
          "name": "toDelegate",
          "type": "address"
        }
      ],
      "name": "DelegateChanged",
      "type": "event"
    },
    {
      "anonymous": false,
      "inputs": [
        {
          "indexed": true,
          "internalType": "address",
          "name": "delegate",
          "type": "address"
        },
        {
          "indexed": false,
          "internalType": "uint256",
          "name": "previousBalance",
          "type": "uint256"
        },
        {
          "indexed": false,
          "internalType": "uint256",
          "name": "newBalance",
          "type": "uint256"
        }
      ],
      "name": "DelegateVotesChanged",
      "type": "event"
    },
    {
      "anonymous": false,
      "inputs": [],
      "name": "EIP712DomainChanged",
      "type": "event"
    },
    {
      "anonymous": false,
      "inputs": [
        {
          "indexed": false,
          "internalType": "address",
          "name": "account",
          "type": "address"
        }
      ],
      "name": "Paused",
      "type": "event"
    },
    {
      "anonymous": false,
      "inputs": [
        {
          "indexed": true,
          "internalType": "bytes32",
          "name": "role",
          "type": "bytes32"
        },
        {
          "indexed": true,
          "internalType": "bytes32",
          "name": "previousAdminRole",
          "type": "bytes32"
        },
        {
          "indexed": true,
          "internalType": "bytes32",
          "name": "newAdminRole",
          "type": "bytes32"
        }
      ],
      "name": "RoleAdminChanged",
      "type": "event"
    },
    {
      "anonymous": false,
      "inputs": [
        {
          "indexed": true,
          "internalType": "bytes32",
          "name": "role",
          "type": "bytes32"
        },
        {
          "indexed": true,
          "internalType": "address",
          "name": "account",
          "type": "address"
        },
        {
          "indexed": true,
          "internalType": "address",
          "name": "sender",
          "type": "address"
        }
      ],
      "name": "RoleGranted",
      "type": "event"
    },
    {
      "anonymous": false,
      "inputs": [
        {
          "indexed": true,
          "internalType": "bytes32",
          "name": "role",
          "type": "bytes32"
        },
        {
          "indexed": true,
          "internalType": "address",
          "name": "account",
          "type": "address"
        },
        {
          "indexed": true,
          "internalType": "address",
          "name": "sender",
          "type": "address"
        }
      ],
      "name": "RoleRevoked",
      "type": "event"
    },
    {
      "anonymous": false,
      "inputs": [
        {
          "indexed": true,
          "internalType": "address",
          "name": "from",
          "type": "address"
        },
        {
          "indexed": false,
          "internalType": "uint256",
          "name": "amount",
          "type": "uint256"
        },
        {
          "indexed": false,
          "internalType": "string",
          "name": "reason",
          "type": "string"
        }
      ],
      "name": "TokensBurned",
      "type": "event"
    },
    {
      "anonymous": false,
      "inputs": [
        {
          "indexed": true,
          "internalType": "address",
          "name": "to",
          "type": "address"
        },
        {
          "indexed": false,
          "internalType": "uint256",
          "name": "amount",
          "type": "uint256"
        },
        {
          "indexed": false,
          "internalType": "string",
          "name": "reason",
          "type": "string"
        }
      ],
      "name": "TokensMinted",
      "type": "event"
    },
    {
      "anonymous": false,
      "inputs": [
        {
          "indexed": true,
          "internalType": "address",
          "name": "from",
          "type": "address"
        },
        {
          "indexed": true,
          "internalType": "address",
          "name": "to",
          "type": "address"
        },
        {
          "indexed": false,
          "internalType": "uint256",
          "name": "value",
          "type": "uint256"
        }
      ],
      "name": "Transfer",
      "type": "event"
    },
    {
      "anonymous": false,
      "inputs": [
        {
          "indexed": false,
          "internalType": "address",
          "name": "account",
          "type": "address"
        }
      ],
      "name": "Unpaused",
      "type": "event"
    },
    {
      "inputs": [],
      "name": "BACKING_MANAGER_ROLE",
      "outputs": [
        {
          "internalType": "bytes32",
          "name": "",
          "type": "bytes32"
        }
      ],
      "stateMutability": "view",
      "type": "function"
    },
    {
      "inputs": [],
      "name": "BURNER_ROLE",
      "outputs": [
        {
          "internalType": "bytes32",
          "name": "",
          "type": "bytes32"
        }
      ],
      "stateMutability": "view",
      "type": "function"
    },
    {
      "inputs": [],
      "name": "CLOCK_MODE",
      "outputs": [
        {
          "internalType": "string",
          "name": "",
          "type": "string"
        }
      ],
      "stateMutability": "view",
      "type": "function"
    },
    {
      "inputs": [],
      "name": "DEFAULT_ADMIN_ROLE",
      "outputs": [
        {
          "internalType": "bytes32",
          "name": "",
          "type": "bytes32"
        }
      ],
      "stateMutability": "view",
      "type": "function"
    },
    {
      "inputs": [],
      "name": "DOMAIN_SEPARATOR",
      "outputs": [
        {
          "internalType": "bytes32",
          "name": "",
          "type": "bytes32"
        }
      ],
      "stateMutability": "view",
      "type": "function"
    },
    {
      "inputs": [],
      "name": "GOVERNANCE_ROLE",
      "outputs": [
        {
          "internalType": "bytes32",
          "name": "",
          "type": "bytes32"
        }
      ],
      "stateMutability": "view",
      "type": "function"
    },
    {
      "inputs": [],
      "name": "INITIAL_SUPPLY",
      "outputs": [
        {
          "internalType": "uint256",
          "name": "",
          "type": "uint256"
        }
      ],
      "stateMutability": "view",
      "type": "function"
    },
    {
      "inputs": [],
      "name": "MAX_ASSET_PRICE",
      "outputs": [
        {
          "internalType": "uint256",
          "name": "",
          "type": "uint256"
        }
      ],
      "stateMutability": "view",
      "type": "function"
    },
    {
      "inputs": [],
      "name": "MAX_SUPPLY",
      "outputs": [
        {
          "internalType": "uint256",
          "name": "",
          "type": "uint256"
        }
      ],
      "stateMutability": "view",
      "type": "function"
    },
    {
      "inputs": [],
      "name": "MINTER_ROLE",
      "outputs": [
        {
          "internalType": "bytes32",
          "name": "",
          "type": "bytes32"
        }
      ],
      "stateMutability": "view",
      "type": "function"
    },
    {
      "inputs": [],
      "name": "PAUSER_ROLE",
      "outputs": [
        {
          "internalType": "bytes32",
          "name": "",
          "type": "bytes32"
        }
      ],
      "stateMutability": "view",
      "type": "function"
    },
    {
      "inputs": [],
      "name": "RECOVERY_ROLE",
      "outputs": [
        {
          "internalType": "bytes32",
          "name": "",
          "type": "bytes32"
        }
      ],
      "stateMutability": "view",
      "type": "function"
    },
    {
      "inputs": [
        {
          "internalType": "address",
          "name": "owner",
          "type": "address"
        },
        {
          "internalType": "address",
          "name": "spender",
          "type": "address"
        }
      ],
      "name": "allowance",
      "outputs": [
        {
          "internalType": "uint256",
          "name": "",
          "type": "uint256"
        }
      ],
      "stateMutability": "view",
      "type": "function"
    },
    {
      "inputs": [
        {
          "internalType": "address",
          "name": "spender",
          "type": "address"
        },
        {
          "internalType": "uint256",
          "name": "amount",
          "type": "uint256"
        }
      ],
      "name": "approve",
      "outputs": [
        {
          "internalType": "bool",
          "name": "",
          "type": "bool"
        }
      ],
      "stateMutability": "nonpayable",
      "type": "function"
    },
    {
      "inputs": [],
      "name": "backingPerTokenUSD",
      "outputs": [
        {
          "internalType": "uint256",
          "name": "",
          "type": "uint256"
        }
      ],
      "stateMutability": "view",
      "type": "function"
    },
    {
      "inputs": [
        {
          "internalType": "address",
          "name": "account",
          "type": "address"
        }
      ],
      "name": "balanceOf",
      "outputs": [
        {
          "internalType": "uint256",
          "name": "",
          "type": "uint256"
        }
      ],
      "stateMutability": "view",
      "type": "function"
    },
    {
      "inputs": [
        {
          "internalType": "address",
          "name": "from",
          "type": "address"
        },
        {
          "internalType": "uint256",
          "name": "amount",
          "type": "uint256"
        },
        {
          "internalType": "string",
          "name": "reason",
          "type": "string"
        }
      ],
      "name": "burn",
      "outputs": [],
      "stateMutability": "nonpayable",
      "type": "function"
    },
    {
      "inputs": [
        {
          "internalType": "uint256",
          "name": "amount",
          "type": "uint256"
        },
        {
          "internalType": "string",
          "name": "reason",
          "type": "string"
        }
      ],
      "name": "burnMyTokens",
      "outputs": [],
      "stateMutability": "nonpayable",
      "type": "function"
    },
    {
      "inputs": [
        {
          "internalType": "address",
          "name": "account",
          "type": "address"
        },
        {
          "internalType": "uint32",
          "name": "pos",
          "type": "uint32"
        }
      ],
      "name": "checkpoints",
      "outputs": [
        {
          "components": [
            {
              "internalType": "uint32",
              "name": "fromBlock",
              "type": "uint32"
            },
            {
              "internalType": "uint224",
              "name": "votes",
              "type": "uint224"
            }
          ],
          "internalType": "struct ERC20Votes.Checkpoint",
          "name": "",
          "type": "tuple"
        }
      ],
      "stateMutability": "view",
      "type": "function"
    },
    {
      "inputs": [],
      "name": "clock",
      "outputs": [
        {
          "internalType": "uint48",
          "name": "",
          "type": "uint48"
        }
      ],
      "stateMutability": "view",
      "type": "function"
    },
    {
      "inputs": [],
      "name": "decimals",
      "outputs": [
        {
          "internalType": "uint8",
          "name": "",
          "type": "uint8"
        }
      ],
      "stateMutability": "pure",
      "type": "function"
    },
    {
      "inputs": [
        {
          "internalType": "address",
          "name": "spender",
          "type": "address"
        },
        {
          "internalType": "uint256",
          "name": "subtractedValue",
          "type": "uint256"
        }
      ],
      "name": "decreaseAllowance",
      "outputs": [
        {
          "internalType": "bool",
          "name": "",
          "type": "bool"
        }
      ],
      "stateMutability": "nonpayable",
      "type": "function"
    },
    {
      "inputs": [
        {
          "internalType": "address",
          "name": "delegatee",
          "type": "address"
        }
      ],
      "name": "delegate",
      "outputs": [],
      "stateMutability": "nonpayable",
      "type": "function"
    },
    {
      "inputs": [
        {
          "internalType": "address",
          "name": "delegatee",
          "type": "address"
        },
        {
          "internalType": "uint256",
          "name": "nonce",
          "type": "uint256"
        },
        {
          "internalType": "uint256",
          "name": "expiry",
          "type": "uint256"
        },
        {
          "internalType": "uint8",
          "name": "v",
          "type": "uint8"
        },
        {
          "internalType": "bytes32",
          "name": "r",
          "type": "bytes32"
        },
        {
          "internalType": "bytes32",
          "name": "s",
          "type": "bytes32"
        }
      ],
      "name": "delegateBySig",
      "outputs": [],
      "stateMutability": "nonpayable",
      "type": "function"
    },
    {
      "inputs": [
        {
          "internalType": "address",
          "name": "account",
          "type": "address"
        }
      ],
      "name": "delegates",
      "outputs": [
        {
          "internalType": "address",
          "name": "",
          "type": "address"
        }
      ],
      "stateMutability": "view",
      "type": "function"
    },
    {
      "inputs": [
        {
          "internalType": "enum EminarToken.BackingAsset",
          "name": "asset",
          "type": "uint8"
        },
        {
          "internalType": "uint256",
          "name": "amount",
          "type": "uint256"
        }
      ],
      "name": "depositBacking",
      "outputs": [],
      "stateMutability": "nonpayable",
      "type": "function"
    },
    {
      "inputs": [],
      "name": "developmentAddress",
      "outputs": [
        {
          "internalType": "address",
          "name": "",
          "type": "address"
        }
      ],
      "stateMutability": "view",
      "type": "function"
    },
    {
      "inputs": [],
      "name": "eip712Domain",
      "outputs": [
        {
          "internalType": "bytes1",
          "name": "fields",
          "type": "bytes1"
        },
        {
          "internalType": "string",
          "name": "name",
          "type": "string"
        },
        {
          "internalType": "string",
          "name": "version",
          "type": "string"
        },
        {
          "internalType": "uint256",
          "name": "chainId",
          "type": "uint256"
        },
        {
          "internalType": "address",
          "name": "verifyingContract",
          "type": "address"
        },
        {
          "internalType": "bytes32",
          "name": "salt",
          "type": "bytes32"
        },
        {
          "internalType": "uint256[]",
          "name": "extensions",
          "type": "uint256[]"
        }
      ],
      "stateMutability": "view",
      "type": "function"
    },
    {
      "inputs": [
        {
          "internalType": "address",
          "name": "token",
          "type": "address"
        },
        {
          "internalType": "address",
          "name": "to",
          "type": "address"
        },
        {
          "internalType": "uint256",
          "name": "amount",
          "type": "uint256"
        }
      ],
      "name": "emergencyRecoverERC20",
      "outputs": [],
      "stateMutability": "nonpayable",
      "type": "function"
    },
    {
      "inputs": [
        {
          "internalType": "enum EminarToken.BackingAsset",
          "name": "asset",
          "type": "uint8"
        }
      ],
      "name": "getAssetInfo",
      "outputs": [
        {
          "components": [
            {
              "internalType": "contract IERC20",
              "name": "token",
              "type": "address"
            },
            {
              "internalType": "uint256",
              "name": "amount",
              "type": "uint256"
            },
            {
              "internalType": "uint256",
              "name": "priceUSD",
              "type": "uint256"
            },
            {
              "internalType": "bool",
              "name": "registered",
              "type": "bool"
            }
          ],
          "internalType": "struct EminarToken.AssetInfo",
          "name": "",
          "type": "tuple"
        }
      ],
      "stateMutability": "view",
      "type": "function"
    },
    {
      "inputs": [
        {
          "internalType": "uint256",
          "name": "timepoint",
          "type": "uint256"
        }
      ],
      "name": "getPastTotalSupply",
      "outputs": [
        {
          "internalType": "uint256",
          "name": "",
          "type": "uint256"
        }
      ],
      "stateMutability": "view",
      "type": "function"
    },
    {
      "inputs": [
        {
          "internalType": "address",
          "name": "account",
          "type": "address"
        },
        {
          "internalType": "uint256",
          "name": "timepoint",
          "type": "uint256"
        }
      ],
      "name": "getPastVotes",
      "outputs": [
        {
          "internalType": "uint256",
          "name": "",
          "type": "uint256"
        }
      ],
      "stateMutability": "view",
      "type": "function"
    },
    {
      "inputs": [
        {
          "internalType": "bytes32",
          "name": "role",
          "type": "bytes32"
        }
      ],
      "name": "getRoleAdmin",
      "outputs": [
        {
          "internalType": "bytes32",
          "name": "",
          "type": "bytes32"
        }
      ],
      "stateMutability": "view",
      "type": "function"
    },
    {
      "inputs": [
        {
          "internalType": "address",
          "name": "account",
          "type": "address"
        }
      ],
      "name": "getVotes",
      "outputs": [
        {
          "internalType": "uint256",
          "name": "",
          "type": "uint256"
        }
      ],
      "stateMutability": "view",
      "type": "function"
    },
    {
      "inputs": [
        {
          "internalType": "bytes32",
          "name": "role",
          "type": "bytes32"
        },
        {
          "internalType": "address",
          "name": "account",
          "type": "address"
        }
      ],
      "name": "grantRole",
      "outputs": [],
      "stateMutability": "nonpayable",
      "type": "function"
    },
    {
      "inputs": [
        {
          "internalType": "bytes32",
          "name": "role",
          "type": "bytes32"
        },
        {
          "internalType": "address",
          "name": "account",
          "type": "address"
        }
      ],
      "name": "hasRole",
      "outputs": [
        {
          "internalType": "bool",
          "name": "",
          "type": "bool"
        }
      ],
      "stateMutability": "view",
      "type": "function"
    },
    {
      "inputs": [
        {
          "internalType": "address",
          "name": "spender",
          "type": "address"
        },
        {
          "internalType": "uint256",
          "name": "addedValue",
          "type": "uint256"
        }
      ],
      "name": "increaseAllowance",
      "outputs": [
        {
          "internalType": "bool",
          "name": "",
          "type": "bool"
        }
      ],
      "stateMutability": "nonpayable",
      "type": "function"
    },
    {
      "inputs": [
        {
          "internalType": "address",
          "name": "to",
          "type": "address"
        },
        {
          "internalType": "uint256",
          "name": "amount",
          "type": "uint256"
        },
        {
          "internalType": "string",
          "name": "reason",
          "type": "string"
        }
      ],
      "name": "mint",
      "outputs": [],
      "stateMutability": "nonpayable",
      "type": "function"
    },
    {
      "inputs": [],
      "name": "name",
      "outputs": [
        {
          "internalType": "string",
          "name": "",
          "type": "string"
        }
      ],
      "stateMutability": "view",
      "type": "function"
    },
    {
      "inputs": [
        {
          "internalType": "address",
          "name": "owner",
          "type": "address"
        }
      ],
      "name": "nonces",
      "outputs": [
        {
          "internalType": "uint256",
          "name": "",
          "type": "uint256"
        }
      ],
      "stateMutability": "view",
      "type": "function"
    },
    {
      "inputs": [
        {
          "internalType": "address",
          "name": "account",
          "type": "address"
        }
      ],
      "name": "numCheckpoints",
      "outputs": [
        {
          "internalType": "uint32",
          "name": "",
          "type": "uint32"
        }
      ],
      "stateMutability": "view",
      "type": "function"
    },
    {
      "inputs": [],
      "name": "pause",
      "outputs": [],
      "stateMutability": "nonpayable",
      "type": "function"
    },
    {
      "inputs": [],
      "name": "paused",
      "outputs": [
        {
          "internalType": "bool",
          "name": "",
          "type": "bool"
        }
      ],
      "stateMutability": "view",
      "type": "function"
    },
    {
      "inputs": [
        {
          "internalType": "address",
          "name": "owner",
          "type": "address"
        },
        {
          "internalType": "address",
          "name": "spender",
          "type": "address"
        },
        {
          "internalType": "uint256",
          "name": "value",
          "type": "uint256"
        },
        {
          "internalType": "uint256",
          "name": "deadline",
          "type": "uint256"
        },
        {
          "internalType": "uint8",
          "name": "v",
          "type": "uint8"
        },
        {
          "internalType": "bytes32",
          "name": "r",
          "type": "bytes32"
        },
        {
          "internalType": "bytes32",
          "name": "s",
          "type": "bytes32"
        }
      ],
      "name": "permit",
      "outputs": [],
      "stateMutability": "nonpayable",
      "type": "function"
    },
    {
      "inputs": [],
      "name": "publicAddress",
      "outputs": [
        {
          "internalType": "address",
          "name": "",
          "type": "address"
        }
      ],
      "stateMutability": "view",
      "type": "function"
    },
    {
      "inputs": [
        {
          "internalType": "enum EminarToken.BackingAsset",
          "name": "asset",
          "type": "uint8"
        },
        {
          "internalType": "address",
          "name": "token",
          "type": "address"
        }
      ],
      "name": "registerBackingToken",
      "outputs": [],
      "stateMutability": "nonpayable",
      "type": "function"
    },
    {
      "inputs": [
        {
          "internalType": "bytes32",
          "name": "role",
          "type": "bytes32"
        },
        {
          "internalType": "address",
          "name": "account",
          "type": "address"
        }
      ],
      "name": "renounceRole",
      "outputs": [],
      "stateMutability": "nonpayable",
      "type": "function"
    },
    {
      "inputs": [],
      "name": "reserveAddress",
      "outputs": [
        {
          "internalType": "address",
          "name": "",
          "type": "address"
        }
      ],
      "stateMutability": "view",
      "type": "function"
    },
    {
      "inputs": [
        {
          "internalType": "bytes32",
          "name": "role",
          "type": "bytes32"
        },
        {
          "internalType": "address",
          "name": "account",
          "type": "address"
        }
      ],
      "name": "revokeRole",
      "outputs": [],
      "stateMutability": "nonpayable",
      "type": "function"
    },
    {
      "inputs": [
        {
          "internalType": "enum EminarToken.BackingAsset",
          "name": "asset",
          "type": "uint8"
        },
        {
          "internalType": "uint256",
          "name": "priceUSD",
          "type": "uint256"
        }
      ],
      "name": "setAssetPriceUSD",
      "outputs": [],
      "stateMutability": "nonpayable",
      "type": "function"
    },
    {
      "inputs": [],
      "name": "shariaTrustAddress",
      "outputs": [
        {
          "internalType": "address",
          "name": "",
          "type": "address"
        }
      ],
      "stateMutability": "view",
      "type": "function"
    },
    {
      "inputs": [],
      "name": "strategicPartnersAddress",
      "outputs": [
        {
          "internalType": "address",
          "name": "",
          "type": "address"
        }
      ],
      "stateMutability": "view",
      "type": "function"
    },
    {
      "inputs": [
        {
          "internalType": "bytes4",
          "name": "interfaceId",
          "type": "bytes4"
        }
      ],
      "name": "supportsInterface",
      "outputs": [
        {
          "internalType": "bool",
          "name": "",
          "type": "bool"
        }
      ],
      "stateMutability": "view",
      "type": "function"
    },
    {
      "inputs": [],
      "name": "symbol",
      "outputs": [
        {
          "internalType": "string",
          "name": "",
          "type": "string"
        }
      ],
      "stateMutability": "view",
      "type": "function"
    },
    {
      "inputs": [],
      "name": "totalBackingValueUSD",
      "outputs": [
        {
          "internalType": "uint256",
          "name": "",
          "type": "uint256"
        }
      ],
      "stateMutability": "view",
      "type": "function"
    },
    {
      "inputs": [],
      "name": "totalSupply",
      "outputs": [
        {
          "internalType": "uint256",
          "name": "",
          "type": "uint256"
        }
      ],
      "stateMutability": "view",
      "type": "function"
    },
    {
      "inputs": [
        {
          "internalType": "address",
          "name": "to",
          "type": "address"
        },
        {
          "internalType": "uint256",
          "name": "amount",
          "type": "uint256"
        }
      ],
      "name": "transfer",
      "outputs": [
        {
          "internalType": "bool",
          "name": "",
          "type": "bool"
        }
      ],
      "stateMutability": "nonpayable",
      "type": "function"
    },
    {
      "inputs": [
        {
          "internalType": "address",
          "name": "from",
          "type": "address"
        },
        {
          "internalType": "address",
          "name": "to",
          "type": "address"
        },
        {
          "internalType": "uint256",
          "name": "amount",
          "type": "uint256"
        }
      ],
      "name": "transferFrom",
      "outputs": [
        {
          "internalType": "bool",
          "name": "",
          "type": "bool"
        }
      ],
      "stateMutability": "nonpayable",
      "type": "function"
    },
    {
      "inputs": [],
      "name": "unpause",
      "outputs": [],
      "stateMutability": "nonpayable",
      "type": "function"
    },
    {
      "inputs": [
        {
          "internalType": "enum EminarToken.BackingAsset",
          "name": "asset",
          "type": "uint8"
        }
      ],
      "name": "unregisterBackingToken",
      "outputs": [],
      "stateMutability": "nonpayable",
      "type": "function"
    },
    {
      "inputs": [
        {
          "internalType": "address",
          "name": "newAddress",
          "type": "address"
        }
      ],
      "name": "updateDevelopmentAddress",
      "outputs": [],
      "stateMutability": "nonpayable",
      "type": "function"
    },
    {
      "inputs": [
        {
          "internalType": "address",
          "name": "newAddress",
          "type": "address"
        }
      ],
      "name": "updatePublicAddress",
      "outputs": [],
      "stateMutability": "nonpayable",
      "type": "function"
    },
    {
      "inputs": [
        {
          "internalType": "address",
          "name": "newAddress",
          "type": "address"
        }
      ],
      "name": "updateReserveAddress",
      "outputs": [],
      "stateMutability": "nonpayable",
      "type": "function"
    },
    {
      "inputs": [
        {
          "internalType": "enum EminarToken.BackingAsset",
          "name": "asset",
          "type": "uint8"
        },
        {
          "internalType": "address",
          "name": "to",
          "type": "address"
        },
        {
          "internalType": "uint256",
          "name": "amount",
          "type": "uint256"
        }
      ],
      "name": "withdrawBacking",
      "outputs": [],
      "stateMutability": "nonpayable",
      "type": "function"
    }
  ],
  "bytecode": "0x61016060405234801561001157600080fd5b506040516153f53803806153f583398101604081905261003091610d5f565b6040805180820190915260018152603160f81b602082015288908190818a600361005a8382610eb4565b5060046100678282610eb4565b5061007791508390506005610416565b61012052610086816006610416565b61014052815160208084019190912060e052815190820120610100524660a05261011360e05161010051604080517f8b73c3c69bb8fe3d512ecc4cf759cc79239f7b179b0ffacaa9a75d522b39400f60208201529081019290925260608201524660808201523060a082015260009060c00160405160208183030381529060405280519060200120905090565b60805250503060c05250600d805460ff191690556001600160a01b038616158061014457506001600160a01b038516155b8061015657506001600160a01b038416155b8061016857506001600160a01b038316155b8061017a57506001600160a01b038216155b8061018c57506001600160a01b038116155b156101aa5760405163d92e233d60e01b815260040160405180910390fd5b6101b78686868686610449565b156101d557604051630148f8ab60e31b815260040160405180910390fd5b601380546001600160a01b03199081166001600160a01b0389811691909117909255600f8054821688841617905560108054821687841617905560118054821686841617905560128054909116918416919091179055610236600082610566565b6102607f9f2df0fed2c77648de5860a4cc508cd0818c85b8b8a1ab4ceeef8d981c8956a682610566565b61028a7f3c11d16cbaffd01df69ce1c404f6340ee057498f5f00246190ea54220576a84882610566565b6102b47f65d7a28e3265b37a6474929f336521b332c1681b933f6cb9f3376673440d862a82610566565b6102de7faa9060660dc3e52152ec6c4cd87f38f5433d3e2246058f23a29463ea3247681782610566565b6103087f71840dc4906352362b0cdaf79870196c8e42acafade72d5d5a6d59291253ceb182610566565b6103327f0acf805600123ef007091da3b3ffb39474074c656c127aa68cb0ffec232a8ff882610566565b601354610369906001600160a01b0316606461035a6a52b7d2dcc80cd2e40000006028610f88565b6103649190610f9f565b610609565b600f54610391906001600160a01b0316606461035a6a52b7d2dcc80cd2e40000006014610f88565b6010546103b9906001600160a01b0316606461035a6a52b7d2dcc80cd2e40000006014610f88565b6011546103e1906001600160a01b0316606461035a6a52b7d2dcc80cd2e4000000600a610f88565b601254610409906001600160a01b0316606461035a6a52b7d2dcc80cd2e4000000600a610f88565b505050505050505061103e565b60006020835110156104325761042b83610613565b9050610443565b8161043d8482610eb4565b5060ff90505b92915050565b6000846001600160a01b0316866001600160a01b0316148061047c5750836001600160a01b0316866001600160a01b0316145b806104985750826001600160a01b0316866001600160a01b0316145b806104b45750816001600160a01b0316866001600160a01b0316145b806104d05750836001600160a01b0316856001600160a01b0316145b806104ec5750826001600160a01b0316856001600160a01b0316145b806105085750816001600160a01b0316856001600160a01b0316145b806105245750826001600160a01b0316846001600160a01b0316145b806105405750816001600160a01b0316846001600160a01b0316145b8061055c5750816001600160a01b0316836001600160a01b0316145b9695505050505050565b6000828152600c602090815260408083206001600160a01b038516845290915290205460ff16610605576000828152600c602090815260408083206001600160a01b03851684529091529020805460ff191660011790556105c43390565b6001600160a01b0316816001600160a01b0316837f2f8788117e7eff1d82e926ec794901d17c78024a50270940304540a733656f0d60405160405180910390a45b5050565b610605828261065a565b600080829050601f81511115610647578260405163305a27a960e01b815260040161063e9190610fc1565b60405180910390fd5b805161065282610ff4565b179392505050565b61066482826106f8565b6001600160e01b036106766107cb8216565b11156106dd5760405162461bcd60e51b815260206004820152603060248201527f4552433230566f7465733a20746f74616c20737570706c79207269736b73206f60448201526f766572666c6f77696e6720766f74657360801b606482015260840161063e565b6106f2600b6122876107d160201b17836107e4565b50505050565b6001600160a01b03821661074e5760405162461bcd60e51b815260206004820152601f60248201527f45524332303a206d696e7420746f20746865207a65726f206164647265737300604482015260640161063e565b61075a6000838361095c565b806002600082825461076c9190611018565b90915550506001600160a01b038216600081815260208181526040808320805486019055518481527fddf252ad1be2c89b69c2b068fc378daa952ba7f163c4a11628f55a4df523b3ef910160405180910390a36106056000838361097b565b60025490565b60006107dd8284611018565b9392505050565b825460009081908181156108315760008781526020902082016000190160408051808201909152905463ffffffff8116825264010000000090046001600160e01b03166020820152610846565b60408051808201909152600080825260208201525b905080602001516001600160e01b0316935061086384868860201c565b925060008211801561088d5750610878610986565b65ffffffffffff16816000015163ffffffff16145b156108d25761089b83610996565b60008881526020902083016000190180546001600160e01b03929092166401000000000263ffffffff909216919091179055610952565b8660405180604001604052806108fc6108ef61098660201b60201c565b65ffffffffffff16610a03565b63ffffffff16815260200161091086610996565b6001600160e01b0390811690915282546001810184556000938452602093849020835194909301519091166401000000000263ffffffff909316929092179101555b5050935093915050565b610964610a68565b6109768383836001600160e01b038416565b505050565b610976838383610ab0565b600061099143610ae2565b905090565b60006001600160e01b038211156109ff5760405162461bcd60e51b815260206004820152602760248201527f53616665436173743a2076616c756520646f65736e27742066697420696e20326044820152663234206269747360c81b606482015260840161063e565b5090565b600063ffffffff8211156109ff5760405162461bcd60e51b815260206004820152602660248201527f53616665436173743a2076616c756520646f65736e27742066697420696e203360448201526532206269747360d01b606482015260840161063e565b600d5460ff1615610aae5760405162461bcd60e51b815260206004820152601060248201526f14185d5cd8589b194e881c185d5cd95960821b604482015260640161063e565b565b6001600160a01b0383811660009081526009602052604080822054858416835291205461097692918216911683610b49565b600065ffffffffffff8211156109ff5760405162461bcd60e51b815260206004820152602660248201527f53616665436173743a2076616c756520646f65736e27742066697420696e203460448201526538206269747360d01b606482015260840161063e565b816001600160a01b0316836001600160a01b031614158015610b6b5750600081115b15610976576001600160a01b03831615610bf0576001600160a01b0383166000908152600a6020908152604082208291610baf9190610c74901b61229317856107e4565b91509150846001600160a01b03166000805160206153d58339815191528383604051610be5929190918252602082015260400190565b60405180910390a250505b6001600160a01b03821615610976576001600160a01b0382166000908152600a6020908152604082208291610c2f91906107d1901b61228717856107e4565b91509150836001600160a01b03166000805160206153d58339815191528383604051610c65929190918252602082015260400190565b60405180910390a25050505050565b60006107dd828461102b565b634e487b7160e01b600052604160045260246000fd5b60005b83811015610cb1578181015183820152602001610c99565b50506000910152565b600082601f830112610ccb57600080fd5b81516001600160401b03811115610ce457610ce4610c80565b604051601f8201601f19908116603f011681016001600160401b0381118282101715610d1257610d12610c80565b604052818152838201602001851015610d2a57600080fd5b610d3b826020830160208701610c96565b949350505050565b80516001600160a01b0381168114610d5a57600080fd5b919050565b600080600080600080600080610100898b031215610d7c57600080fd5b88516001600160401b03811115610d9257600080fd5b610d9e8b828c01610cba565b60208b015190995090506001600160401b03811115610dbc57600080fd5b610dc88b828c01610cba565b975050610dd760408a01610d43565b9550610de560608a01610d43565b9450610df360808a01610d43565b9350610e0160a08a01610d43565b9250610e0f60c08a01610d43565b9150610e1d60e08a01610d43565b90509295985092959890939650565b600181811c90821680610e4057607f821691505b602082108103610e6057634e487b7160e01b600052602260045260246000fd5b50919050565b601f82111561097657806000526020600020601f840160051c81016020851015610e8d5750805b601f840160051c820191505b81811015610ead5760008155600101610e99565b5050505050565b81516001600160401b03811115610ecd57610ecd610c80565b610ee181610edb8454610e2c565b84610e66565b6020601f821160018114610f155760008315610efd5750848201515b600019600385901b1c1916600184901b178455610ead565b600084815260208120601f198516915b82811015610f455787850151825560209485019460019092019101610f25565b5084821015610f635786840151600019600387901b60f8161c191681555b50505050600190811b01905550565b634e487b7160e01b600052601160045260246000fd5b808202811582820484141761044357610443610f72565b600082610fbc57634e487b7160e01b600052601260045260246000fd5b500490565b6020815260008251806020840152610fe0816040850160208701610c96565b601f01601f19169190910160400192915050565b80516020808301519190811015610e605760001960209190910360031b1b16919050565b8082018082111561044357610443610f72565b8181038181111561044357610443610f72565b60805160a05160c05160e05161010051610120516101405161433d6110986000396000611101015260006110d6015260006127a801526000612780015260006126db015260006127050152600061272f015261433d6000f3fe608060405234801561001057600080fd5b50600436106103d05760003560e01c806384b0196e116101ff578063c8c7fe6b1161011a578063e63ab1e9116100ad578063f676f3311161007c578063f676f33114610937578063f79ed94b1461094a578063f84afd481461095d578063fe64c6811461097057600080fd5b8063e63ab1e9146108ab578063eb8f4c4a146108d2578063f1127ed8146108e5578063f36c8f5c1461092257600080fd5b8063d547741f116100e9578063d547741f1461086a578063dd62ed3e1461087d578063dfef15b814610890578063e07495e31461089857600080fd5b8063c8c7fe6b146107cc578063d3fc98641461081d578063d505accf14610830578063d53913931461084357600080fd5b8063a34cea0811610192578063ae621bbe11610161578063ae621bbe1461078b578063aeeb73ea14610793578063c3cda520146107a6578063c69def0b146107b957600080fd5b8063a34cea081461073f578063a457c2d714610752578063a9059cbb14610765578063a978d8df1461077857600080fd5b806391ee2a3d116101ce57806391ee2a3d1461070957806395d89b411461071c5780639ab24eb014610724578063a217fddf1461073757600080fd5b806384b0196e146106a95780638e539e8c146106c457806391d14854146106d757806391ddadf4146106ea57600080fd5b806336568abe116102ef5780636042d5d4116102825780636fcfff45116102515780636fcfff451461063d57806370a08231146106655780637ecebe001461068e5780638456cb59146106a157600080fd5b80636042d5d4146105f1578063626c3d4314610604578063638b1b1414610617578063694d9d171461062a57600080fd5b80634bf5d7e9116102be5780634bf5d7e914610587578063587cde1e1461058f5780635c19a95c146105d35780635c975abb146105e657600080fd5b806336568abe1461054657806339509351146105595780633a46b1a81461056c5780633f4ba83a1461057f57600080fd5b8063248a9ca311610367578063313ce56711610336578063313ce567146104f557806331993a1c1461050457806332cb6b0c1461052b5780633644e5151461053e57600080fd5b8063248a9ca314610486578063282c51f3146104a95780632f2ff15d146104d05780632ff2e9dc146104e357600080fd5b806315e98e73116103a357806315e98e731461044157806315f570dc1461045657806318160ddd1461046b57806323b872dd1461047357600080fd5b806301ffc9a7146103d557806306fdde03146103fd578063095ea7b3146104125780630bc48ada14610425575b600080fd5b6103e86103e3366004613bd7565b610983565b60405190151581526020015b60405180910390f35b6104056109ba565b6040516103f49190613c51565b6103e8610420366004613c80565b610a4c565b6104336001600160801b0381565b6040519081526020016103f4565b6104336000805160206142c883398151915281565b610469610464366004613d4f565b610a64565b005b600254610433565b6103e8610481366004613da6565b610b70565b610433610494366004613de3565b6000908152600c602052604090206001015490565b6104337f3c11d16cbaffd01df69ce1c404f6340ee057498f5f00246190ea54220576a84881565b6104696104de366004613dfc565b610b94565b6104336a52b7d2dcc80cd2e400000081565b604051601281526020016103f4565b6104337f0acf805600123ef007091da3b3ffb39474074c656c127aa68cb0ffec232a8ff881565b6104336b033b2e3c9fd0803ce800000081565b610433610bbe565b610469610554366004613dfc565b610bcd565b6103e8610567366004613c80565b610c50565b61043361057a366004613c80565b610c72565b610469610cf7565b610405610d2c565b6105bb61059d366004613e28565b6001600160a01b039081166000908152600960205260409020541690565b6040516001600160a01b0390911681526020016103f4565b6104696105e1366004613e28565b610dc4565b600d5460ff166103e8565b6104696105ff366004613e52565b610dce565b6012546105bb906001600160a01b031681565b6010546105bb906001600160a01b031681565b610469610638366004613e28565b610f9c565b61065061064b366004613e28565b611056565b60405163ffffffff90911681526020016103f4565b610433610673366004613e28565b6001600160a01b031660009081526020819052604090205490565b61043361069c366004613e28565b611078565b610469611096565b6106b16110c8565b6040516103f49796959493929190613e6d565b6104336106d2366004613de3565b611151565b6103e86106e5366004613dfc565b6111b8565b6106f26111e3565b60405165ffffffffffff90911681526020016103f4565b610469610717366004613f05565b6111ee565b61040561138c565b610433610732366004613e28565b61139b565b610433600081565b61046961074d366004613f21565b61141d565b6103e8610760366004613c80565b611654565b6103e8610773366004613c80565b6116cf565b610469610786366004613f05565b6116dd565b610433611832565b6104696107a1366004613e28565b61190d565b6104696107b4366004613f50565b61197e565b6104696107c7366004613fa8565b611ab4565b6107df6107da366004613e52565b611c19565b6040516103f4919081516001600160a01b03168152602080830151908201526040808301519082015260609182015115159181019190915260800190565b61046961082b366004613d4f565b611ceb565b61046961083e366004613fd2565b611dea565b6104337f9f2df0fed2c77648de5860a4cc508cd0818c85b8b8a1ab4ceeef8d981c8956a681565b610469610878366004613dfc565b611f4e565b61043361088b36600461403d565b611f73565b610433611f9e565b6104696108a6366004614059565b611ff5565b6104337f65d7a28e3265b37a6474929f336521b332c1681b933f6cb9f3376673440d862a81565b6104696108e0366004613da6565b612093565b6108f86108f33660046140a0565b612191565b60408051825163ffffffff1681526020928301516001600160e01b031692810192909252016103f4565b6104336000805160206142e883398151915281565b6013546105bb906001600160a01b031681565b600f546105bb906001600160a01b031681565b61046961096b366004613e28565b612215565b6011546105bb906001600160a01b031681565b60006001600160e01b03198216637965db0b60e01b14806109b457506301ffc9a760e01b6001600160e01b03198316145b92915050565b6060600380546109c9906140e0565b80601f01602080910402602001604051908101604052809291908181526020018280546109f5906140e0565b8015610a425780601f10610a1757610100808354040283529160200191610a42565b820191906000526020600020905b815481529060010190602001808311610a2557829003601f168201915b5050505050905090565b600033610a5a81858561229f565b5060019392505050565b7f3c11d16cbaffd01df69ce1c404f6340ee057498f5f00246190ea54220576a848610a8e816123c3565b610a966123cd565b6001600160a01b038416610abd5760405163d92e233d60e01b815260040160405180910390fd5b82600003610ade57604051631f2a200560e01b815260040160405180910390fd5b82610afe856001600160a01b031660009081526020819052604090205490565b1015610b1d57604051631e9acf1760e31b815260040160405180910390fd5b610b278484612415565b836001600160a01b03167ffad31924d655455395c87544c8aa1ffdb5a7505a22a3c2e03f28003b6556a75f8484604051610b62929190614114565b60405180910390a250505050565b600033610b7e85828561241f565b610b89858585612493565b506001949350505050565b6000828152600c6020526040902060010154610baf816123c3565b610bb98383612648565b505050565b6000610bc86126ce565b905090565b6001600160a01b0381163314610c425760405162461bcd60e51b815260206004820152602f60248201527f416363657373436f6e74726f6c3a2063616e206f6e6c792072656e6f756e636560448201526e103937b632b9903337b91039b2b63360891b60648201526084015b60405180910390fd5b610c4c82826127f9565b5050565b600033610a5a818585610c638383611f73565b610c6d9190614143565b61229f565b6000610c7c6111e3565b65ffffffffffff168210610cce5760405162461bcd60e51b815260206004820152601960248201527804552433230566f7465733a20667574757265206c6f6f6b757603c1b6044820152606401610c39565b6001600160a01b0383166000908152600a60205260409020610cf09083612860565b9392505050565b7f65d7a28e3265b37a6474929f336521b332c1681b933f6cb9f3376673440d862a610d21816123c3565b610d29612949565b50565b606043610d376111e3565b65ffffffffffff1614610d8c5760405162461bcd60e51b815260206004820152601d60248201527f4552433230566f7465733a2062726f6b656e20636c6f636b206d6f64650000006044820152606401610c39565b5060408051808201909152601d81527f6d6f64653d626c6f636b6e756d6265722666726f6d3d64656661756c74000000602082015290565b610d29338261299b565b6000805160206142c8833981519152610de6816123c3565b6002826002811115610dfa57610dfa614156565b1115610e1957604051636448d6e960e11b815260040160405180910390fd5b600e6000836002811115610e2f57610e2f614156565b6002811115610e4057610e40614156565b815260208101919091526040016000206003015460ff16610e7457604051630719d53360e21b815260040160405180910390fd5b6000600e6000846002811115610e8c57610e8c614156565b6002811115610e9d57610e9d614156565b8152602001908152602001600020600101541115610ece576040516340db7f8760e01b815260040160405180910390fd5b6000600e6000846002811115610ee657610ee6614156565b6002811115610ef757610ef7614156565b815260200190815260200160002060030160006101000a81548160ff0219169083151502179055506000600e6000846002811115610f3757610f37614156565b6002811115610f4857610f48614156565b815260200190815260200160002060020181905550816002811115610f6f57610f6f614156565b6040517f8b56d0949004b9ec276cc1fa05c8edd80c00371256c79fb5286504b2e2ed105f90600090a25050565b6000805160206142e8833981519152610fb4816123c3565b6001600160a01b038216610fdb5760405163d92e233d60e01b815260040160405180910390fd5b601080546001600160a01b0319166001600160a01b0384161790556040516a111155915313d41351539560aa1b8152600b015b6040519081900381206001600160a01b0384168252907f943e9d45a11aaae5d87503e3bc248665d9807856e5cf2bdb4a988bee44422781906020015b60405180910390a25050565b6001600160a01b0381166000908152600a60205260408120546109b490612a14565b6001600160a01b0381166000908152600760205260408120546109b4565b7f65d7a28e3265b37a6474929f336521b332c1681b933f6cb9f3376673440d862a6110c0816123c3565b610d29612a7d565b6000606080828080836110fc7f00000000000000000000000000000000000000000000000000000000000000006005612aba565b6111277f00000000000000000000000000000000000000000000000000000000000000006006612aba565b60408051600080825260208201909252600f60f81b9b939a50919850469750309650945092509050565b600061115b6111e3565b65ffffffffffff1682106111ad5760405162461bcd60e51b815260206004820152601960248201527804552433230566f7465733a20667574757265206c6f6f6b757603c1b6044820152606401610c39565b6109b4600b83612860565b6000918252600c602090815260408084206001600160a01b0393909316845291905290205460ff1690565b6000610bc843612b65565b6111f66123cd565b600282600281111561120a5761120a614156565b111561122957604051636448d6e960e11b815260040160405180910390fd5b600e600083600281111561123f5761123f614156565b600281111561125057611250614156565b815260208101919091526040016000206003015460ff1661128457604051630719d53360e21b815260040160405180910390fd5b806000036112a557604051631f2a200560e01b815260040160405180910390fd5b6112f4333083600e60008760028111156112c1576112c1614156565b60028111156112d2576112d2614156565b81526020810191909152604001600020546001600160a01b0316929190612bcc565b80600e600084600281111561130b5761130b614156565b600281111561131c5761131c614156565b8152602001908152602001600020600101600082825461133c9190614143565b9091555033905082600281111561135557611355614156565b6040518381527f6a2b04b1f3d5a335c4367fea39bb8807ef0a4fbe77a2772700c8f9c90c1c9a1b9060200160405180910390a35050565b6060600480546109c9906140e0565b6001600160a01b0381166000908152600a6020526040812054801561140a576001600160a01b0383166000908152600a60205260409020805460001983019081106113e8576113e861416c565b60009182526020909120015464010000000090046001600160e01b031661140d565b60005b6001600160e01b03169392505050565b6000805160206142c8833981519152611435816123c3565b6001600160a01b03831661145c5760405163d92e233d60e01b815260040160405180910390fd5b8160000361147d57604051631f2a200560e01b815260040160405180910390fd5b600284600281111561149157611491614156565b11156114b057604051636448d6e960e11b815260040160405180910390fd5b600e60008560028111156114c6576114c6614156565b60028111156114d7576114d7614156565b815260208101919091526040016000206003015460ff1661150b57604051630719d53360e21b815260040160405180910390fd5b81600e600086600281111561152257611522614156565b600281111561153357611533614156565b8152602001908152602001600020600101541015611564576040516340db7f8760e01b815260040160405180910390fd5b81600e600086600281111561157b5761157b614156565b600281111561158c5761158c614156565b815260200190815260200160002060010160008282546115ac9190614182565b909155506115ff90508383600e60008860028111156115cd576115cd614156565b60028111156115de576115de614156565b81526020810191909152604001600020546001600160a01b03169190612c37565b826001600160a01b031684600281111561161b5761161b614156565b6040518481527fe3aab926d81700bac87dab01982e77e751c07d1acca11c13ff44aae1193a5f549060200160405180910390a350505050565b600033816116628286611f73565b9050838110156116c25760405162461bcd60e51b815260206004820152602560248201527f45524332303a2064656372656173656420616c6c6f77616e63652062656c6f77604482015264207a65726f60d81b6064820152608401610c39565b610b89828686840361229f565b600033610a5a818585612493565b6000805160206142c88339815191526116f5816123c3565b600283600281111561170957611709614156565b111561172857604051636448d6e960e11b815260040160405180910390fd5b600e600084600281111561173e5761173e614156565b600281111561174f5761174f614156565b815260208101919091526040016000206003015460ff1661178357604051630719d53360e21b815260040160405180910390fd5b6001600160801b038211156117aa5760405162bfc92160e01b815260040160405180910390fd5b81600e60008560028111156117c1576117c1614156565b60028111156117d2576117d2614156565b8152602001908152602001600020600201819055508260028111156117f9576117f9614156565b6040518381527f2d292c5b6330b5b0f99b665ec1be838ca17cd57eb118fe7a02cc05477b5bd42f906020015b60405180910390a2505050565b600080805b6002811161190757600081600281111561185357611853614156565b90506000600e600083600281111561186d5761186d614156565b600281111561187e5761187e614156565b81526020810191909152604001600020600381015490915060ff1680156118a9575060008160020154115b80156118b9575060008160010154115b156118f257670de0b6b3a7640000816002015482600101546118db9190614195565b6118e591906141c2565b6118ef9085614143565b93505b505080806118ff906141e4565b915050611837565b50919050565b6000805160206142e8833981519152611925816123c3565b6001600160a01b03821661194c5760405163d92e233d60e01b815260040160405180910390fd5b601380546001600160a01b0319166001600160a01b038416179055604051655055424c494360d01b815260060161100e565b834211156119ce5760405162461bcd60e51b815260206004820152601d60248201527f4552433230566f7465733a207369676e617475726520657870697265640000006044820152606401610c39565b604080517fe48329057bfd03d55e49b547132e39cffd9c1820ad7b9d4c5307691425d15adf60208201526001600160a01b038816918101919091526060810186905260808101859052600090611a4890611a409060a00160405160208183030381529060405280519060200120612c67565b858585612c94565b9050611a5381612cbe565b8614611aa15760405162461bcd60e51b815260206004820152601960248201527f4552433230566f7465733a20696e76616c6964206e6f6e6365000000000000006044820152606401610c39565b611aab818861299b565b50505050505050565b6000805160206142c8833981519152611acc816123c3565b6001600160a01b038216611af35760405163d92e233d60e01b815260040160405180910390fd5b6002836002811115611b0757611b07614156565b1115611b2657604051636448d6e960e11b815260040160405180910390fd5b81600e6000856002811115611b3d57611b3d614156565b6002811115611b4e57611b4e614156565b815260200190815260200160002060000160006101000a8154816001600160a01b0302191690836001600160a01b031602179055506001600e6000856002811115611b9b57611b9b614156565b6002811115611bac57611bac614156565b81526020810191909152604001600020600301805460ff1916911515919091179055826002811115611be057611be0614156565b6040516001600160a01b03841681527f561acd69f877decb2be770ca93ef06bb6a9e5d65defa3bace8eab67feecac57290602001611825565b6040805160808101825260008082526020820181905291810182905260608101919091526002826002811115611c5157611c51614156565b1115611c7057604051636448d6e960e11b815260040160405180910390fd5b600e6000836002811115611c8657611c86614156565b6002811115611c9757611c97614156565b81526020808201929092526040908101600020815160808101835281546001600160a01b031681526001820154938101939093526002810154918301919091526003015460ff161515606082015292915050565b7f9f2df0fed2c77648de5860a4cc508cd0818c85b8b8a1ab4ceeef8d981c8956a6611d15816123c3565b611d1d6123cd565b6001600160a01b038416611d445760405163d92e233d60e01b815260040160405180910390fd5b82600003611d6557604051631f2a200560e01b815260040160405180910390fd5b6b033b2e3c9fd0803ce800000083611d7c60025490565b611d869190614143565b1115611da55760405163c30436e960e01b815260040160405180910390fd5b611daf8484612ce4565b836001600160a01b03167f9d89e36eadf856db0ad9ffb5a569e07f95634dddd9501141ecf04820484ad0dc8484604051610b62929190614114565b83421115611e3a5760405162461bcd60e51b815260206004820152601d60248201527f45524332305065726d69743a206578706972656420646561646c696e650000006044820152606401610c39565b60007f6e71edae12b1b97f4d1f60370fef10105fa2faae0126114a169c64845d6126c9888888611e698c612cbe565b6040805160208101969096526001600160a01b0394851690860152929091166060840152608083015260a082015260c0810186905260e0016040516020818303038152906040528051906020012090506000611ec482612c67565b90506000611ed482878787612c94565b9050896001600160a01b0316816001600160a01b031614611f375760405162461bcd60e51b815260206004820152601e60248201527f45524332305065726d69743a20696e76616c6964207369676e617475726500006044820152606401610c39565b611f428a8a8a61229f565b50505050505050505050565b6000828152600c6020526040902060010154611f69816123c3565b610bb983836127f9565b6001600160a01b03918216600090815260016020908152604080832093909416825291909152205490565b600080611fa9611832565b90506000611fb660025490565b9050811580611fc3575080155b15611fd15760009250505090565b80611fe483670de0b6b3a7640000614195565b611fee91906141c2565b9250505090565b611ffd6123cd565b8160000361201e57604051631f2a200560e01b815260040160405180910390fd5b3360009081526020819052604090205482111561204e57604051631e9acf1760e31b815260040160405180910390fd5b6120583383612415565b336001600160a01b03167ffad31924d655455395c87544c8aa1ffdb5a7505a22a3c2e03f28003b6556a75f838360405161104a929190614114565b7f0acf805600123ef007091da3b3ffb39474074c656c127aa68cb0ffec232a8ff86120bd816123c3565b6001600160a01b0383166120e45760405163d92e233d60e01b815260040160405180910390fd5b60005b6002811161217657600e600082600281111561210557612105614156565b600281111561211657612116614156565b600281111561212757612127614156565b81526020810191909152604001600020546001600160a01b0390811690861603612164576040516340db7f8760e01b815260040160405180910390fd5b8061216e816141e4565b9150506120e7565b5061218b6001600160a01b0385168484612c37565b50505050565b60408051808201909152600080825260208201526001600160a01b0383166000908152600a60205260409020805463ffffffff84169081106121d5576121d561416c565b60009182526020918290206040805180820190915291015463ffffffff8116825264010000000090046001600160e01b0316918101919091529392505050565b6000805160206142e883398151915261222d816123c3565b6001600160a01b0382166122545760405163d92e233d60e01b815260040160405180910390fd5b600f80546001600160a01b0319166001600160a01b038416179055604051665245534552564560c81b815260070161100e565b6000610cf08284614143565b6000610cf08284614182565b6001600160a01b0383166123015760405162461bcd60e51b8152602060048201526024808201527f45524332303a20617070726f76652066726f6d20746865207a65726f206164646044820152637265737360e01b6064820152608401610c39565b6001600160a01b0382166123625760405162461bcd60e51b815260206004820152602260248201527f45524332303a20617070726f766520746f20746865207a65726f206164647265604482015261737360f01b6064820152608401610c39565b6001600160a01b0383811660008181526001602090815260408083209487168084529482529182902085905590518481527f8c5be1e5ebec7d5bd14f71427d1e84f3dd0314c0f7b2291e5b200ac8c7c3b925910160405180910390a3505050565b610d298133612cee565b600d5460ff16156124135760405162461bcd60e51b815260206004820152601060248201526f14185d5cd8589b194e881c185d5cd95960821b6044820152606401610c39565b565b610c4c8282612d47565b600061242b8484611f73565b9050600019811461218b57818110156124865760405162461bcd60e51b815260206004820152601d60248201527f45524332303a20696e73756666696369656e7420616c6c6f77616e63650000006044820152606401610c39565b61218b848484840361229f565b6001600160a01b0383166124f75760405162461bcd60e51b815260206004820152602560248201527f45524332303a207472616e736665722066726f6d20746865207a65726f206164604482015264647265737360d81b6064820152608401610c39565b6001600160a01b0382166125595760405162461bcd60e51b815260206004820152602360248201527f45524332303a207472616e7366657220746f20746865207a65726f206164647260448201526265737360e81b6064820152608401610c39565b612564838383612d5f565b6001600160a01b038316600090815260208190526040902054818110156125dc5760405162461bcd60e51b815260206004820152602660248201527f45524332303a207472616e7366657220616d6f756e7420657863656564732062604482015265616c616e636560d01b6064820152608401610c39565b6001600160a01b03848116600081815260208181526040808320878703905593871680835291849020805487019055925185815290927fddf252ad1be2c89b69c2b068fc378daa952ba7f163c4a11628f55a4df523b3ef910160405180910390a361218b848484612d67565b61265282826111b8565b610c4c576000828152600c602090815260408083206001600160a01b03851684529091529020805460ff1916600117905561268a3390565b6001600160a01b0316816001600160a01b0316837f2f8788117e7eff1d82e926ec794901d17c78024a50270940304540a733656f0d60405160405180910390a45050565b6000306001600160a01b037f00000000000000000000000000000000000000000000000000000000000000001614801561272757507f000000000000000000000000000000000000000000000000000000000000000046145b1561275157507f000000000000000000000000000000000000000000000000000000000000000090565b610bc8604080517f8b73c3c69bb8fe3d512ecc4cf759cc79239f7b179b0ffacaa9a75d522b39400f60208201527f0000000000000000000000000000000000000000000000000000000000000000918101919091527f000000000000000000000000000000000000000000000000000000000000000060608201524660808201523060a082015260009060c00160405160208183030381529060405280519060200120905090565b61280382826111b8565b15610c4c576000828152600c602090815260408083206001600160a01b0385168085529252808320805460ff1916905551339285917ff6391f5c32d9c69d2a47ea670b442974b53935d1edc7fd64eb21e047a839171b9190a45050565b8154600090818160058111156128ba57600061287b84612d72565b6128859085614182565b600088815260209020909150869082015463ffffffff1611156128aa578091506128b8565b6128b5816001614143565b92505b505b808210156129075760006128ce8383612e5a565b600088815260209020909150869082015463ffffffff1611156128f357809150612901565b6128fe816001614143565b92505b506128ba565b8015612933576000868152602090208101600019015464010000000090046001600160e01b0316612936565b60005b6001600160e01b03169695505050505050565b612951612e75565b600d805460ff191690557f5db9ee0a495bf2e6ff9c91a7834c1ba4fdd244a5e8aa4e537bd38aeae4b073aa335b6040516001600160a01b03909116815260200160405180910390a1565b6001600160a01b038281166000818152600960208181526040808420805485845282862054949093528787166001600160a01b03198416811790915590519190951694919391928592917f3134e8a2e6d97e929a7e54011ea5485d7d196dd5f0ba4d4ef95803e8e3fc257f9190a461218b828483612ebe565b600063ffffffff821115612a795760405162461bcd60e51b815260206004820152602660248201527f53616665436173743a2076616c756520646f65736e27742066697420696e203360448201526532206269747360d01b6064820152608401610c39565b5090565b612a856123cd565b600d805460ff191660011790557f62e78cea01bee320cd4e420270b5ea74000d11b0c9f74754ebdbfc544b05a25861297e3390565b606060ff8314612ad457612acd83612ffb565b90506109b4565b818054612ae0906140e0565b80601f0160208091040260200160405190810160405280929190818152602001828054612b0c906140e0565b8015612b595780601f10612b2e57610100808354040283529160200191612b59565b820191906000526020600020905b815481529060010190602001808311612b3c57829003601f168201915b505050505090506109b4565b600065ffffffffffff821115612a795760405162461bcd60e51b815260206004820152602660248201527f53616665436173743a2076616c756520646f65736e27742066697420696e203460448201526538206269747360d01b6064820152608401610c39565b6040516001600160a01b038085166024830152831660448201526064810182905261218b9085906323b872dd60e01b906084015b60408051601f198184030181529190526020810180516001600160e01b03166001600160e01b03199093169290921790915261303a565b6040516001600160a01b038316602482015260448101829052610bb990849063a9059cbb60e01b90606401612c00565b60006109b4612c746126ce565b8360405161190160f01b8152600281019290925260228201526042902090565b6000806000612ca58787878761310f565b91509150612cb2816131d3565b5090505b949350505050565b6001600160a01b0381166000908152600760205260409020805460018101825590611907565b610c4c828261331d565b612cf882826111b8565b610c4c57612d05816133a7565b612d108360206133b9565b604051602001612d219291906141fd565b60408051601f198184030181529082905262461bcd60e51b8252610c3991600401613c51565b612d518282613555565b61218b600b6122938361369a565b610bb96123cd565b610bb983838361380f565b600081600003612d8457506000919050565b60006001612d9184613841565b901c6001901b90506001818481612daa57612daa6141ac565b048201901c90506001818481612dc257612dc26141ac565b048201901c90506001818481612dda57612dda6141ac565b048201901c90506001818481612df257612df26141ac565b048201901c90506001818481612e0a57612e0a6141ac565b048201901c90506001818481612e2257612e226141ac565b048201901c90506001818481612e3a57612e3a6141ac565b048201901c9050610cf081828581612e5457612e546141ac565b046138d5565b6000612e6960028484186141c2565b610cf090848416614143565b600d5460ff166124135760405162461bcd60e51b815260206004820152601460248201527314185d5cd8589b194e881b9bdd081c185d5cd95960621b6044820152606401610c39565b816001600160a01b0316836001600160a01b031614158015612ee05750600081115b15610bb9576001600160a01b03831615612f6e576001600160a01b0383166000908152600a602052604081208190612f1b906122938561369a565b91509150846001600160a01b03167fdec2bacdd2f05b59de34da9b523dff8be42e5e38e818c82fdb0bae774387a7248383604051612f63929190918252602082015260400190565b60405180910390a250505b6001600160a01b03821615610bb9576001600160a01b0382166000908152600a602052604081208190612fa4906122878561369a565b91509150836001600160a01b03167fdec2bacdd2f05b59de34da9b523dff8be42e5e38e818c82fdb0bae774387a7248383604051612fec929190918252602082015260400190565b60405180910390a25050505050565b60606000613008836138eb565b604080516020808252818301909252919250600091906020820181803683375050509182525060208101929092525090565b600061308f826040518060400160405280602081526020017f5361666545524332303a206c6f772d6c6576656c2063616c6c206661696c6564815250856001600160a01b03166139139092919063ffffffff16565b90508051600014806130b05750808060200190518101906130b09190614272565b610bb95760405162461bcd60e51b815260206004820152602a60248201527f5361666545524332303a204552433230206f7065726174696f6e20646964206e6044820152691bdd081cdd58d8d9595960b21b6064820152608401610c39565b6000807f7fffffffffffffffffffffffffffffff5d576e7357a4501ddfe92f46681b20a083111561314657506000905060036131ca565b6040805160008082526020820180845289905260ff881692820192909252606081018690526080810185905260019060a0016020604051602081039080840390855afa15801561319a573d6000803e3d6000fd5b5050604051601f1901519150506001600160a01b0381166131c3576000600192509250506131ca565b9150600090505b94509492505050565b60008160048111156131e7576131e7614156565b036131ef5750565b600181600481111561320357613203614156565b036132505760405162461bcd60e51b815260206004820152601860248201527f45434453413a20696e76616c6964207369676e617475726500000000000000006044820152606401610c39565b600281600481111561326457613264614156565b036132b15760405162461bcd60e51b815260206004820152601f60248201527f45434453413a20696e76616c6964207369676e6174757265206c656e677468006044820152606401610c39565b60038160048111156132c5576132c5614156565b03610d295760405162461bcd60e51b815260206004820152602260248201527f45434453413a20696e76616c6964207369676e6174757265202773272076616c604482015261756560f01b6064820152608401610c39565b6133278282613922565b6002546001600160e01b0310156133995760405162461bcd60e51b815260206004820152603060248201527f4552433230566f7465733a20746f74616c20737570706c79207269736b73206f60448201526f766572666c6f77696e6720766f74657360801b6064820152608401610c39565b61218b600b6122878361369a565b60606109b46001600160a01b03831660145b606060006133c8836002614195565b6133d3906002614143565b67ffffffffffffffff8111156133eb576133eb613caa565b6040519080825280601f01601f191660200182016040528015613415576020820181803683370190505b509050600360fc1b816000815181106134305761343061416c565b60200101906001600160f81b031916908160001a905350600f60fb1b8160018151811061345f5761345f61416c565b60200101906001600160f81b031916908160001a9053506000613483846002614195565b61348e906001614143565b90505b6001811115613506576f181899199a1a9b1b9c1cb0b131b232b360811b85600f16601081106134c2576134c261416c565b1a60f81b8282815181106134d8576134d861416c565b60200101906001600160f81b031916908160001a90535060049490941c936134ff81614294565b9050613491565b508315610cf05760405162461bcd60e51b815260206004820181905260248201527f537472696e67733a20686578206c656e67746820696e73756666696369656e746044820152606401610c39565b6001600160a01b0382166135b55760405162461bcd60e51b815260206004820152602160248201527f45524332303a206275726e2066726f6d20746865207a65726f206164647265736044820152607360f81b6064820152608401610c39565b6135c182600083612d5f565b6001600160a01b038216600090815260208190526040902054818110156136355760405162461bcd60e51b815260206004820152602260248201527f45524332303a206275726e20616d6f756e7420657863656564732062616c616e604482015261636560f01b6064820152608401610c39565b6001600160a01b0383166000818152602081815260408083208686039055600280548790039055518581529192917fddf252ad1be2c89b69c2b068fc378daa952ba7f163c4a11628f55a4df523b3ef910160405180910390a3610bb983600084612d67565b825460009081908181156136e75760008781526020902082016000190160408051808201909152905463ffffffff8116825264010000000090046001600160e01b031660208201526136fc565b60408051808201909152600080825260208201525b905080602001516001600160e01b0316935061371c84868863ffffffff16565b925060008211801561374657506137316111e3565b65ffffffffffff16816000015163ffffffff16145b1561378b57613754836139f5565b60008881526020902083016000190180546001600160e01b03929092166401000000000263ffffffff909216919091179055613805565b8660405180604001604052806137af6137a26111e3565b65ffffffffffff16612a14565b63ffffffff1681526020016137c3866139f5565b6001600160e01b0390811690915282546001810184556000938452602093849020835194909301519091166401000000000263ffffffff909316929092179101555b5050935093915050565b6001600160a01b03838116600090815260096020526040808220548584168352912054610bb992918216911683612ebe565b600080608083901c1561385657608092831c92015b604083901c1561386857604092831c92015b602083901c1561387a57602092831c92015b601083901c1561388c57601092831c92015b600883901c1561389e57600892831c92015b600483901c156138b057600492831c92015b600283901c156138c257600292831c92015b600183901c156109b45760010192915050565b60008183106138e45781610cf0565b5090919050565b600060ff8216601f8111156109b457604051632cd44ac360e21b815260040160405180910390fd5b6060612cb68484600085613a5e565b6001600160a01b0382166139785760405162461bcd60e51b815260206004820152601f60248201527f45524332303a206d696e7420746f20746865207a65726f2061646472657373006044820152606401610c39565b61398460008383612d5f565b80600260008282546139969190614143565b90915550506001600160a01b038216600081815260208181526040808320805486019055518481527fddf252ad1be2c89b69c2b068fc378daa952ba7f163c4a11628f55a4df523b3ef910160405180910390a3610c4c60008383612d67565b60006001600160e01b03821115612a795760405162461bcd60e51b815260206004820152602760248201527f53616665436173743a2076616c756520646f65736e27742066697420696e20326044820152663234206269747360c81b6064820152608401610c39565b606082471015613abf5760405162461bcd60e51b815260206004820152602660248201527f416464726573733a20696e73756666696369656e742062616c616e636520666f6044820152651c8818d85b1b60d21b6064820152608401610c39565b600080866001600160a01b03168587604051613adb91906142ab565b60006040518083038185875af1925050503d8060008114613b18576040519150601f19603f3d011682016040523d82523d6000602084013e613b1d565b606091505b5091509150613b2e87838387613b39565b979650505050505050565b60608315613ba8578251600003613ba1576001600160a01b0385163b613ba15760405162461bcd60e51b815260206004820152601d60248201527f416464726573733a2063616c6c20746f206e6f6e2d636f6e74726163740000006044820152606401610c39565b5081612cb6565b612cb68383815115613bbd5781518083602001fd5b8060405162461bcd60e51b8152600401610c399190613c51565b600060208284031215613be957600080fd5b81356001600160e01b031981168114610cf057600080fd5b60005b83811015613c1c578181015183820152602001613c04565b50506000910152565b60008151808452613c3d816020860160208601613c01565b601f01601f19169290920160200192915050565b602081526000610cf06020830184613c25565b80356001600160a01b0381168114613c7b57600080fd5b919050565b60008060408385031215613c9357600080fd5b613c9c83613c64565b946020939093013593505050565b634e487b7160e01b600052604160045260246000fd5b600082601f830112613cd157600080fd5b813567ffffffffffffffff811115613ceb57613ceb613caa565b604051601f8201601f19908116603f0116810167ffffffffffffffff81118282101715613d1a57613d1a613caa565b604052818152838201602001851015613d3257600080fd5b816020850160208301376000918101602001919091529392505050565b600080600060608486031215613d6457600080fd5b613d6d84613c64565b925060208401359150604084013567ffffffffffffffff811115613d9057600080fd5b613d9c86828701613cc0565b9150509250925092565b600080600060608486031215613dbb57600080fd5b613dc484613c64565b9250613dd260208501613c64565b929592945050506040919091013590565b600060208284031215613df557600080fd5b5035919050565b60008060408385031215613e0f57600080fd5b82359150613e1f60208401613c64565b90509250929050565b600060208284031215613e3a57600080fd5b610cf082613c64565b803560038110613c7b57600080fd5b600060208284031215613e6457600080fd5b610cf082613e43565b60ff60f81b8816815260e060208201526000613e8c60e0830189613c25565b8281036040840152613e9e8189613c25565b606084018890526001600160a01b038716608085015260a0840186905283810360c08501528451808252602080870193509091019060005b81811015613ef4578351835260209384019390920191600101613ed6565b50909b9a5050505050505050505050565b60008060408385031215613f1857600080fd5b613c9c83613e43565b600080600060608486031215613f3657600080fd5b613dc484613e43565b803560ff81168114613c7b57600080fd5b60008060008060008060c08789031215613f6957600080fd5b613f7287613c64565b95506020870135945060408701359350613f8e60608801613f3f565b9598949750929560808101359460a0909101359350915050565b60008060408385031215613fbb57600080fd5b613fc483613e43565b9150613e1f60208401613c64565b600080600080600080600060e0888a031215613fed57600080fd5b613ff688613c64565b965061400460208901613c64565b9550604088013594506060880135935061402060808901613f3f565b9699959850939692959460a0840135945060c09093013592915050565b6000806040838503121561405057600080fd5b613fc483613c64565b6000806040838503121561406c57600080fd5b82359150602083013567ffffffffffffffff81111561408a57600080fd5b61409685828601613cc0565b9150509250929050565b600080604083850312156140b357600080fd5b6140bc83613c64565b9150602083013563ffffffff811681146140d557600080fd5b809150509250929050565b600181811c908216806140f457607f821691505b60208210810361190757634e487b7160e01b600052602260045260246000fd5b828152604060208201526000612cb66040830184613c25565b634e487b7160e01b600052601160045260246000fd5b808201808211156109b4576109b461412d565b634e487b7160e01b600052602160045260246000fd5b634e487b7160e01b600052603260045260246000fd5b818103818111156109b4576109b461412d565b80820281158282048414176109b4576109b461412d565b634e487b7160e01b600052601260045260246000fd5b6000826141df57634e487b7160e01b600052601260045260246000fd5b500490565b6000600182016141f6576141f661412d565b5060010190565b7f416363657373436f6e74726f6c3a206163636f756e7420000000000000000000815260008351614235816017850160208801613c01565b7001034b99036b4b9b9b4b733903937b6329607d1b6017918401918201528351614266816028840160208801613c01565b01602801949350505050565b60006020828403121561428457600080fd5b81518015158114610cf057600080fd5b6000816142a3576142a361412d565b506000190190565b600082516142bd818460208701613c01565b919091019291505056feaa9060660dc3e52152ec6c4cd87f38f5433d3e2246058f23a29463ea3247681771840dc4906352362b0cdaf79870196c8e42acafade72d5d5a6d59291253ceb1a26469706673582212208c3af06ae40d5fc9c7c425eda396df365a833896e8b14e2f585f2be95551dd7a64736f6c634300081c0033dec2bacdd2f05b59de34da9b523dff8be42e5e38e818c82fdb0bae774387a724",
  "linkReferences": {},
  "deployedLinkReferences": {}
}