{
  "_format": "hh-sol-artifact-1",
  "contractName": "EminarToken",
  "sourceName": "contracts/EMN/EMN.sol",
  "abi": [
    {
      "inputs": [
        {
          "internalType": "string",
          "name": "name_",
          "type": "string"
        },
        {
          "internalType": "string",
          "name": "symbol_",
          "type": "string"
        },
        {
          "internalType": "address",
          "name": "publicAddr_",
          "type": "address"
        },
        {
          "internalType": "address",
          "name": "reserveAddr_",
          "type": "address"
        },
        {
          "internalType": "address",
          "name": "devAddr_",
          "type": "address"
        },
        {
          "internalType": "address",
          "name": "shariaAddr_",
          "type": "address"
        },
        {
          "internalType": "address",
          "name": "strategicAddr_",
          "type": "address"
        },
        {
          "internalType": "uint8",
          "name": "txFee",
          "type": "uint8"
        }
      ],
      "stateMutability": "nonpayable",
      "type": "constructor"
    },
    {
      "inputs": [],
      "name": "AssetNotRegistered",
      "type": "error"
    },
    {
      "inputs": [],
      "name": "DuplicateAddress",
      "type": "error"
    },
    {
      "inputs": [],
      "name": "ExceedsMaxSupply",
      "type": "error"
    },
    {
      "inputs": [],
      "name": "InValidFee",
      "type": "error"
    },
    {
      "inputs": [],
      "name": "InsufficientBacking",
      "type": "error"
    },
    {
      "inputs": [],
      "name": "InsufficientBalance",
      "type": "error"
    },
    {
      "inputs": [],
      "name": "InvalidAsset",
      "type": "error"
    },
    {
      "inputs": [],
      "name": "InvalidPrice",
      "type": "error"
    },
    {
      "inputs": [],
      "name": "InvalidShortString",
      "type": "error"
    },
    {
      "inputs": [
        {
          "internalType": "string",
          "name": "str",
          "type": "string"
        }
      ],
      "name": "StringTooLong",
      "type": "error"
    },
    {
      "inputs": [],
      "name": "ZeroAddress",
      "type": "error"
    },
    {
      "inputs": [],
      "name": "ZeroAmount",
      "type": "error"
    },
    {
      "anonymous": false,
      "inputs": [
        {
          "indexed": true,
          "internalType": "string",
          "name": "addressType",
          "type": "string"
        },
        {
          "indexed": false,
          "internalType": "address",
          "name": "newAddress",
          "type": "address"
        }
      ],
      "name": "AddressUpdated",
      "type": "event"
    },
    {
      "anonymous": false,
      "inputs": [
        {
          "indexed": true,
          "internalType": "address",
          "name": "owner",
          "type": "address"
        },
        {
          "indexed": true,
          "internalType": "address",
          "name": "spender",
          "type": "address"
        },
        {
          "indexed": false,
          "internalType": "uint256",
          "name": "value",
          "type": "uint256"
        }
      ],
      "name": "Approval",
      "type": "event"
    },
    {
      "anonymous": false,
      "inputs": [
        {
          "indexed": true,
          "internalType": "enum EminarToken.BackingAsset",
          "name": "asset",
          "type": "uint8"
        },
        {
          "indexed": false,
          "internalType": "uint256",
          "name": "priceUSD",
          "type": "uint256"
        }
      ],
      "name": "AssetPriceUpdated",
      "type": "event"
    },
    {
      "anonymous": false,
      "inputs": [
        {
          "indexed": true,
          "internalType": "enum EminarToken.BackingAsset",
          "name": "asset",
          "type": "uint8"
        },
        {
          "indexed": true,
          "internalType": "address",
          "name": "from",
          "type": "address"
        },
        {
          "indexed": false,
          "internalType": "uint256",
          "name": "amount",
          "type": "uint256"
        }
      ],
      "name": "BackingDeposited",
      "type": "event"
    },
    {
      "anonymous": false,
      "inputs": [
        {
          "indexed": true,
          "internalType": "enum EminarToken.BackingAsset",
          "name": "asset",
          "type": "uint8"
        },
        {
          "indexed": false,
          "internalType": "address",
          "name": "token",
          "type": "address"
        }
      ],
      "name": "BackingTokenRegistered",
      "type": "event"
    },
    {
      "anonymous": false,
      "inputs": [
        {
          "indexed": true,
          "internalType": "enum EminarToken.BackingAsset",
          "name": "asset",
          "type": "uint8"
        }
      ],
      "name": "BackingTokenUnregistered",
      "type": "event"
    },
    {
      "anonymous": false,
      "inputs": [
        {
          "indexed": true,
          "internalType": "enum EminarToken.BackingAsset",
          "name": "asset",
          "type": "uint8"
        },
        {
          "indexed": true,
          "internalType": "address",
          "name": "to",
          "type": "address"
        },
        {
          "indexed": false,
          "internalType": "uint256",
          "name": "amount",
          "type": "uint256"
        }
      ],
      "name": "BackingWithdrawn",
      "type": "event"
    },
    {
      "anonymous": false,
      "inputs": [
        {
          "indexed": true,
          "internalType": "address",
          "name": "delegator",
          "type": "address"
        },
        {
          "indexed": true,
          "internalType": "address",
          "name": "fromDelegate",
          "type": "address"
        },
        {
          "indexed": true,
          "internalType": "address",
          "name": "toDelegate",
          "type": "address"
        }
      ],
      "name": "DelegateChanged",
      "type": "event"
    },
    {
      "anonymous": false,
      "inputs": [
        {
          "indexed": true,
          "internalType": "address",
          "name": "delegate",
          "type": "address"
        },
        {
          "indexed": false,
          "internalType": "uint256",
          "name": "previousBalance",
          "type": "uint256"
        },
        {
          "indexed": false,
          "internalType": "uint256",
          "name": "newBalance",
          "type": "uint256"
        }
      ],
      "name": "DelegateVotesChanged",
      "type": "event"
    },
    {
      "anonymous": false,
      "inputs": [],
      "name": "EIP712DomainChanged",
      "type": "event"
    },
    {
      "anonymous": false,
      "inputs": [
        {
          "indexed": false,
          "internalType": "address",
          "name": "account",
          "type": "address"
        }
      ],
      "name": "Paused",
      "type": "event"
    },
    {
      "anonymous": false,
      "inputs": [
        {
          "indexed": true,
          "internalType": "bytes32",
          "name": "role",
          "type": "bytes32"
        },
        {
          "indexed": true,
          "internalType": "bytes32",
          "name": "previousAdminRole",
          "type": "bytes32"
        },
        {
          "indexed": true,
          "internalType": "bytes32",
          "name": "newAdminRole",
          "type": "bytes32"
        }
      ],
      "name": "RoleAdminChanged",
      "type": "event"
    },
    {
      "anonymous": false,
      "inputs": [
        {
          "indexed": true,
          "internalType": "bytes32",
          "name": "role",
          "type": "bytes32"
        },
        {
          "indexed": true,
          "internalType": "address",
          "name": "account",
          "type": "address"
        },
        {
          "indexed": true,
          "internalType": "address",
          "name": "sender",
          "type": "address"
        }
      ],
      "name": "RoleGranted",
      "type": "event"
    },
    {
      "anonymous": false,
      "inputs": [
        {
          "indexed": true,
          "internalType": "bytes32",
          "name": "role",
          "type": "bytes32"
        },
        {
          "indexed": true,
          "internalType": "address",
          "name": "account",
          "type": "address"
        },
        {
          "indexed": true,
          "internalType": "address",
          "name": "sender",
          "type": "address"
        }
      ],
      "name": "RoleRevoked",
      "type": "event"
    },
    {
      "anonymous": false,
      "inputs": [
        {
          "indexed": true,
          "internalType": "address",
          "name": "from",
          "type": "address"
        },
        {
          "indexed": false,
          "internalType": "uint256",
          "name": "amount",
          "type": "uint256"
        },
        {
          "indexed": false,
          "internalType": "string",
          "name": "reason",
          "type": "string"
        }
      ],
      "name": "TokensBurned",
      "type": "event"
    },
    {
      "anonymous": false,
      "inputs": [
        {
          "indexed": true,
          "internalType": "address",
          "name": "to",
          "type": "address"
        },
        {
          "indexed": false,
          "internalType": "uint256",
          "name": "amount",
          "type": "uint256"
        },
        {
          "indexed": false,
          "internalType": "string",
          "name": "reason",
          "type": "string"
        }
      ],
      "name": "TokensMinted",
      "type": "event"
    },
    {
      "anonymous": false,
      "inputs": [
        {
          "indexed": true,
          "internalType": "address",
          "name": "from",
          "type": "address"
        },
        {
          "indexed": true,
          "internalType": "address",
          "name": "to",
          "type": "address"
        },
        {
          "indexed": false,
          "internalType": "uint256",
          "name": "value",
          "type": "uint256"
        }
      ],
      "name": "Transfer",
      "type": "event"
    },
    {
      "anonymous": false,
      "inputs": [
        {
          "indexed": false,
          "internalType": "address",
          "name": "account",
          "type": "address"
        }
      ],
      "name": "Unpaused",
      "type": "event"
    },
    {
      "inputs": [],
      "name": "BACKING_MANAGER_ROLE",
      "outputs": [
        {
          "internalType": "bytes32",
          "name": "",
          "type": "bytes32"
        }
      ],
      "stateMutability": "view",
      "type": "function"
    },
    {
      "inputs": [],
      "name": "BURNER_ROLE",
      "outputs": [
        {
          "internalType": "bytes32",
          "name": "",
          "type": "bytes32"
        }
      ],
      "stateMutability": "view",
      "type": "function"
    },
    {
      "inputs": [],
      "name": "CLOCK_MODE",
      "outputs": [
        {
          "internalType": "string",
          "name": "",
          "type": "string"
        }
      ],
      "stateMutability": "view",
      "type": "function"
    },
    {
      "inputs": [],
      "name": "DEFAULT_ADMIN_ROLE",
      "outputs": [
        {
          "internalType": "bytes32",
          "name": "",
          "type": "bytes32"
        }
      ],
      "stateMutability": "view",
      "type": "function"
    },
    {
      "inputs": [],
      "name": "DOMAIN_SEPARATOR",
      "outputs": [
        {
          "internalType": "bytes32",
          "name": "",
          "type": "bytes32"
        }
      ],
      "stateMutability": "view",
      "type": "function"
    },
    {
      "inputs": [],
      "name": "GOVERNANCE_ROLE",
      "outputs": [
        {
          "internalType": "bytes32",
          "name": "",
          "type": "bytes32"
        }
      ],
      "stateMutability": "view",
      "type": "function"
    },
    {
      "inputs": [],
      "name": "INITIAL_SUPPLY",
      "outputs": [
        {
          "internalType": "uint256",
          "name": "",
          "type": "uint256"
        }
      ],
      "stateMutability": "view",
      "type": "function"
    },
    {
      "inputs": [],
      "name": "MAX_ASSET_PRICE",
      "outputs": [
        {
          "internalType": "uint256",
          "name": "",
          "type": "uint256"
        }
      ],
      "stateMutability": "view",
      "type": "function"
    },
    {
      "inputs": [],
      "name": "MAX_SUPPLY",
      "outputs": [
        {
          "internalType": "uint256",
          "name": "",
          "type": "uint256"
        }
      ],
      "stateMutability": "view",
      "type": "function"
    },
    {
      "inputs": [],
      "name": "MINTER_ROLE",
      "outputs": [
        {
          "internalType": "bytes32",
          "name": "",
          "type": "bytes32"
        }
      ],
      "stateMutability": "view",
      "type": "function"
    },
    {
      "inputs": [],
      "name": "PAUSER_ROLE",
      "outputs": [
        {
          "internalType": "bytes32",
          "name": "",
          "type": "bytes32"
        }
      ],
      "stateMutability": "view",
      "type": "function"
    },
    {
      "inputs": [],
      "name": "RECOVERY_ROLE",
      "outputs": [
        {
          "internalType": "bytes32",
          "name": "",
          "type": "bytes32"
        }
      ],
      "stateMutability": "view",
      "type": "function"
    },
    {
      "inputs": [
        {
          "internalType": "address",
          "name": "owner",
          "type": "address"
        },
        {
          "internalType": "address",
          "name": "spender",
          "type": "address"
        }
      ],
      "name": "allowance",
      "outputs": [
        {
          "internalType": "uint256",
          "name": "",
          "type": "uint256"
        }
      ],
      "stateMutability": "view",
      "type": "function"
    },
    {
      "inputs": [
        {
          "internalType": "address",
          "name": "spender",
          "type": "address"
        },
        {
          "internalType": "uint256",
          "name": "amount",
          "type": "uint256"
        }
      ],
      "name": "approve",
      "outputs": [
        {
          "internalType": "bool",
          "name": "",
          "type": "bool"
        }
      ],
      "stateMutability": "nonpayable",
      "type": "function"
    },
    {
      "inputs": [],
      "name": "backingPerTokenUSD",
      "outputs": [
        {
          "internalType": "uint256",
          "name": "",
          "type": "uint256"
        }
      ],
      "stateMutability": "view",
      "type": "function"
    },
    {
      "inputs": [
        {
          "internalType": "address",
          "name": "account",
          "type": "address"
        }
      ],
      "name": "balanceOf",
      "outputs": [
        {
          "internalType": "uint256",
          "name": "",
          "type": "uint256"
        }
      ],
      "stateMutability": "view",
      "type": "function"
    },
    {
      "inputs": [
        {
          "internalType": "address",
          "name": "from",
          "type": "address"
        },
        {
          "internalType": "uint256",
          "name": "amount",
          "type": "uint256"
        },
        {
          "internalType": "string",
          "name": "reason",
          "type": "string"
        }
      ],
      "name": "burn",
      "outputs": [],
      "stateMutability": "nonpayable",
      "type": "function"
    },
    {
      "inputs": [
        {
          "internalType": "address",
          "name": "account",
          "type": "address"
        },
        {
          "internalType": "uint32",
          "name": "pos",
          "type": "uint32"
        }
      ],
      "name": "checkpoints",
      "outputs": [
        {
          "components": [
            {
              "internalType": "uint32",
              "name": "fromBlock",
              "type": "uint32"
            },
            {
              "internalType": "uint224",
              "name": "votes",
              "type": "uint224"
            }
          ],
          "internalType": "struct ERC20Votes.Checkpoint",
          "name": "",
          "type": "tuple"
        }
      ],
      "stateMutability": "view",
      "type": "function"
    },
    {
      "inputs": [],
      "name": "clock",
      "outputs": [
        {
          "internalType": "uint48",
          "name": "",
          "type": "uint48"
        }
      ],
      "stateMutability": "view",
      "type": "function"
    },
    {
      "inputs": [],
      "name": "decimals",
      "outputs": [
        {
          "internalType": "uint8",
          "name": "",
          "type": "uint8"
        }
      ],
      "stateMutability": "pure",
      "type": "function"
    },
    {
      "inputs": [
        {
          "internalType": "address",
          "name": "spender",
          "type": "address"
        },
        {
          "internalType": "uint256",
          "name": "subtractedValue",
          "type": "uint256"
        }
      ],
      "name": "decreaseAllowance",
      "outputs": [
        {
          "internalType": "bool",
          "name": "",
          "type": "bool"
        }
      ],
      "stateMutability": "nonpayable",
      "type": "function"
    },
    {
      "inputs": [
        {
          "internalType": "address",
          "name": "delegatee",
          "type": "address"
        }
      ],
      "name": "delegate",
      "outputs": [],
      "stateMutability": "nonpayable",
      "type": "function"
    },
    {
      "inputs": [
        {
          "internalType": "address",
          "name": "delegatee",
          "type": "address"
        },
        {
          "internalType": "uint256",
          "name": "nonce",
          "type": "uint256"
        },
        {
          "internalType": "uint256",
          "name": "expiry",
          "type": "uint256"
        },
        {
          "internalType": "uint8",
          "name": "v",
          "type": "uint8"
        },
        {
          "internalType": "bytes32",
          "name": "r",
          "type": "bytes32"
        },
        {
          "internalType": "bytes32",
          "name": "s",
          "type": "bytes32"
        }
      ],
      "name": "delegateBySig",
      "outputs": [],
      "stateMutability": "nonpayable",
      "type": "function"
    },
    {
      "inputs": [
        {
          "internalType": "address",
          "name": "account",
          "type": "address"
        }
      ],
      "name": "delegates",
      "outputs": [
        {
          "internalType": "address",
          "name": "",
          "type": "address"
        }
      ],
      "stateMutability": "view",
      "type": "function"
    },
    {
      "inputs": [
        {
          "internalType": "enum EminarToken.BackingAsset",
          "name": "asset",
          "type": "uint8"
        },
        {
          "internalType": "uint256",
          "name": "amount",
          "type": "uint256"
        }
      ],
      "name": "depositBacking",
      "outputs": [],
      "stateMutability": "nonpayable",
      "type": "function"
    },
    {
      "inputs": [],
      "name": "developmentAddress",
      "outputs": [
        {
          "internalType": "address",
          "name": "",
          "type": "address"
        }
      ],
      "stateMutability": "view",
      "type": "function"
    },
    {
      "inputs": [],
      "name": "eip712Domain",
      "outputs": [
        {
          "internalType": "bytes1",
          "name": "fields",
          "type": "bytes1"
        },
        {
          "internalType": "string",
          "name": "name",
          "type": "string"
        },
        {
          "internalType": "string",
          "name": "version",
          "type": "string"
        },
        {
          "internalType": "uint256",
          "name": "chainId",
          "type": "uint256"
        },
        {
          "internalType": "address",
          "name": "verifyingContract",
          "type": "address"
        },
        {
          "internalType": "bytes32",
          "name": "salt",
          "type": "bytes32"
        },
        {
          "internalType": "uint256[]",
          "name": "extensions",
          "type": "uint256[]"
        }
      ],
      "stateMutability": "view",
      "type": "function"
    },
    {
      "inputs": [
        {
          "internalType": "address",
          "name": "token",
          "type": "address"
        },
        {
          "internalType": "address",
          "name": "to",
          "type": "address"
        },
        {
          "internalType": "uint256",
          "name": "amount",
          "type": "uint256"
        }
      ],
      "name": "emergencyRecoverERC20",
      "outputs": [],
      "stateMutability": "nonpayable",
      "type": "function"
    },
    {
      "inputs": [
        {
          "internalType": "enum EminarToken.BackingAsset",
          "name": "asset",
          "type": "uint8"
        }
      ],
      "name": "getAssetInfo",
      "outputs": [
        {
          "components": [
            {
              "internalType": "contract IERC20",
              "name": "token",
              "type": "address"
            },
            {
              "internalType": "uint256",
              "name": "amount",
              "type": "uint256"
            },
            {
              "internalType": "uint256",
              "name": "priceUSD",
              "type": "uint256"
            },
            {
              "internalType": "bool",
              "name": "registered",
              "type": "bool"
            }
          ],
          "internalType": "struct EminarToken.AssetInfo",
          "name": "",
          "type": "tuple"
        }
      ],
      "stateMutability": "view",
      "type": "function"
    },
    {
      "inputs": [
        {
          "internalType": "uint256",
          "name": "timepoint",
          "type": "uint256"
        }
      ],
      "name": "getPastTotalSupply",
      "outputs": [
        {
          "internalType": "uint256",
          "name": "",
          "type": "uint256"
        }
      ],
      "stateMutability": "view",
      "type": "function"
    },
    {
      "inputs": [
        {
          "internalType": "address",
          "name": "account",
          "type": "address"
        },
        {
          "internalType": "uint256",
          "name": "timepoint",
          "type": "uint256"
        }
      ],
      "name": "getPastVotes",
      "outputs": [
        {
          "internalType": "uint256",
          "name": "",
          "type": "uint256"
        }
      ],
      "stateMutability": "view",
      "type": "function"
    },
    {
      "inputs": [
        {
          "internalType": "bytes32",
          "name": "role",
          "type": "bytes32"
        }
      ],
      "name": "getRoleAdmin",
      "outputs": [
        {
          "internalType": "bytes32",
          "name": "",
          "type": "bytes32"
        }
      ],
      "stateMutability": "view",
      "type": "function"
    },
    {
      "inputs": [
        {
          "internalType": "address",
          "name": "account",
          "type": "address"
        }
      ],
      "name": "getVotes",
      "outputs": [
        {
          "internalType": "uint256",
          "name": "",
          "type": "uint256"
        }
      ],
      "stateMutability": "view",
      "type": "function"
    },
    {
      "inputs": [],
      "name": "governanceAddress",
      "outputs": [
        {
          "internalType": "address",
          "name": "",
          "type": "address"
        }
      ],
      "stateMutability": "view",
      "type": "function"
    },
    {
      "inputs": [
        {
          "internalType": "bytes32",
          "name": "role",
          "type": "bytes32"
        },
        {
          "internalType": "address",
          "name": "account",
          "type": "address"
        }
      ],
      "name": "grantRole",
      "outputs": [],
      "stateMutability": "nonpayable",
      "type": "function"
    },
    {
      "inputs": [
        {
          "internalType": "bytes32",
          "name": "role",
          "type": "bytes32"
        },
        {
          "internalType": "address",
          "name": "account",
          "type": "address"
        }
      ],
      "name": "hasRole",
      "outputs": [
        {
          "internalType": "bool",
          "name": "",
          "type": "bool"
        }
      ],
      "stateMutability": "view",
      "type": "function"
    },
    {
      "inputs": [
        {
          "internalType": "address",
          "name": "spender",
          "type": "address"
        },
        {
          "internalType": "uint256",
          "name": "addedValue",
          "type": "uint256"
        }
      ],
      "name": "increaseAllowance",
      "outputs": [
        {
          "internalType": "bool",
          "name": "",
          "type": "bool"
        }
      ],
      "stateMutability": "nonpayable",
      "type": "function"
    },
    {
      "inputs": [
        {
          "internalType": "address",
          "name": "",
          "type": "address"
        }
      ],
      "name": "isMember",
      "outputs": [
        {
          "internalType": "bool",
          "name": "",
          "type": "bool"
        }
      ],
      "stateMutability": "view",
      "type": "function"
    },
    {
      "inputs": [
        {
          "internalType": "address",
          "name": "to",
          "type": "address"
        },
        {
          "internalType": "uint256",
          "name": "amount",
          "type": "uint256"
        },
        {
          "internalType": "string",
          "name": "reason",
          "type": "string"
        }
      ],
      "name": "mint",
      "outputs": [],
      "stateMutability": "nonpayable",
      "type": "function"
    },
    {
      "inputs": [],
      "name": "name",
      "outputs": [
        {
          "internalType": "string",
          "name": "",
          "type": "string"
        }
      ],
      "stateMutability": "view",
      "type": "function"
    },
    {
      "inputs": [
        {
          "internalType": "address",
          "name": "owner",
          "type": "address"
        }
      ],
      "name": "nonces",
      "outputs": [
        {
          "internalType": "uint256",
          "name": "",
          "type": "uint256"
        }
      ],
      "stateMutability": "view",
      "type": "function"
    },
    {
      "inputs": [
        {
          "internalType": "address",
          "name": "account",
          "type": "address"
        }
      ],
      "name": "numCheckpoints",
      "outputs": [
        {
          "internalType": "uint32",
          "name": "",
          "type": "uint32"
        }
      ],
      "stateMutability": "view",
      "type": "function"
    },
    {
      "inputs": [],
      "name": "pause",
      "outputs": [],
      "stateMutability": "nonpayable",
      "type": "function"
    },
    {
      "inputs": [],
      "name": "paused",
      "outputs": [
        {
          "internalType": "bool",
          "name": "",
          "type": "bool"
        }
      ],
      "stateMutability": "view",
      "type": "function"
    },
    {
      "inputs": [
        {
          "internalType": "address",
          "name": "owner",
          "type": "address"
        },
        {
          "internalType": "address",
          "name": "spender",
          "type": "address"
        },
        {
          "internalType": "uint256",
          "name": "value",
          "type": "uint256"
        },
        {
          "internalType": "uint256",
          "name": "deadline",
          "type": "uint256"
        },
        {
          "internalType": "uint8",
          "name": "v",
          "type": "uint8"
        },
        {
          "internalType": "bytes32",
          "name": "r",
          "type": "bytes32"
        },
        {
          "internalType": "bytes32",
          "name": "s",
          "type": "bytes32"
        }
      ],
      "name": "permit",
      "outputs": [],
      "stateMutability": "nonpayable",
      "type": "function"
    },
    {
      "inputs": [],
      "name": "publicAddress",
      "outputs": [
        {
          "internalType": "address",
          "name": "",
          "type": "address"
        }
      ],
      "stateMutability": "view",
      "type": "function"
    },
    {
      "inputs": [
        {
          "internalType": "enum EminarToken.BackingAsset",
          "name": "asset",
          "type": "uint8"
        },
        {
          "internalType": "address",
          "name": "token",
          "type": "address"
        }
      ],
      "name": "registerBackingToken",
      "outputs": [],
      "stateMutability": "nonpayable",
      "type": "function"
    },
    {
      "inputs": [
        {
          "internalType": "bytes32",
          "name": "role",
          "type": "bytes32"
        },
        {
          "internalType": "address",
          "name": "account",
          "type": "address"
        }
      ],
      "name": "renounceRole",
      "outputs": [],
      "stateMutability": "nonpayable",
      "type": "function"
    },
    {
      "inputs": [],
      "name": "reserveAddress",
      "outputs": [
        {
          "internalType": "address",
          "name": "",
          "type": "address"
        }
      ],
      "stateMutability": "view",
      "type": "function"
    },
    {
      "inputs": [
        {
          "internalType": "bytes32",
          "name": "role",
          "type": "bytes32"
        },
        {
          "internalType": "address",
          "name": "account",
          "type": "address"
        }
      ],
      "name": "revokeRole",
      "outputs": [],
      "stateMutability": "nonpayable",
      "type": "function"
    },
    {
      "inputs": [
        {
          "internalType": "enum EminarToken.BackingAsset",
          "name": "asset",
          "type": "uint8"
        },
        {
          "internalType": "uint256",
          "name": "priceUSD",
          "type": "uint256"
        }
      ],
      "name": "setAssetPriceUSD",
      "outputs": [],
      "stateMutability": "nonpayable",
      "type": "function"
    },
    {
      "inputs": [],
      "name": "shariaTrustAddress",
      "outputs": [
        {
          "internalType": "address",
          "name": "",
          "type": "address"
        }
      ],
      "stateMutability": "view",
      "type": "function"
    },
    {
      "inputs": [],
      "name": "strategicPartnersAddress",
      "outputs": [
        {
          "internalType": "address",
          "name": "",
          "type": "address"
        }
      ],
      "stateMutability": "view",
      "type": "function"
    },
    {
      "inputs": [
        {
          "internalType": "bytes4",
          "name": "interfaceId",
          "type": "bytes4"
        }
      ],
      "name": "supportsInterface",
      "outputs": [
        {
          "internalType": "bool",
          "name": "",
          "type": "bool"
        }
      ],
      "stateMutability": "view",
      "type": "function"
    },
    {
      "inputs": [],
      "name": "symbol",
      "outputs": [
        {
          "internalType": "string",
          "name": "",
          "type": "string"
        }
      ],
      "stateMutability": "view",
      "type": "function"
    },
    {
      "inputs": [],
      "name": "totalBackingValueUSD",
      "outputs": [
        {
          "internalType": "uint256",
          "name": "",
          "type": "uint256"
        }
      ],
      "stateMutability": "view",
      "type": "function"
    },
    {
      "inputs": [],
      "name": "totalSupply",
      "outputs": [
        {
          "internalType": "uint256",
          "name": "",
          "type": "uint256"
        }
      ],
      "stateMutability": "view",
      "type": "function"
    },
    {
      "inputs": [],
      "name": "transactionFee",
      "outputs": [
        {
          "internalType": "uint8",
          "name": "",
          "type": "uint8"
        }
      ],
      "stateMutability": "view",
      "type": "function"
    },
    {
      "inputs": [
        {
          "internalType": "address",
          "name": "to",
          "type": "address"
        },
        {
          "internalType": "uint256",
          "name": "amount",
          "type": "uint256"
        }
      ],
      "name": "transfer",
      "outputs": [
        {
          "internalType": "bool",
          "name": "",
          "type": "bool"
        }
      ],
      "stateMutability": "nonpayable",
      "type": "function"
    },
    {
      "inputs": [
        {
          "internalType": "address",
          "name": "from",
          "type": "address"
        },
        {
          "internalType": "address",
          "name": "to",
          "type": "address"
        },
        {
          "internalType": "uint256",
          "name": "amount",
          "type": "uint256"
        }
      ],
      "name": "transferFrom",
      "outputs": [
        {
          "internalType": "bool",
          "name": "",
          "type": "bool"
        }
      ],
      "stateMutability": "nonpayable",
      "type": "function"
    },
    {
      "inputs": [],
      "name": "unpause",
      "outputs": [],
      "stateMutability": "nonpayable",
      "type": "function"
    },
    {
      "inputs": [
        {
          "internalType": "enum EminarToken.BackingAsset",
          "name": "asset",
          "type": "uint8"
        }
      ],
      "name": "unregisterBackingToken",
      "outputs": [],
      "stateMutability": "nonpayable",
      "type": "function"
    },
    {
      "inputs": [
        {
          "internalType": "address",
          "name": "newAddress",
          "type": "address"
        }
      ],
      "name": "updateDevelopmentAddress",
      "outputs": [],
      "stateMutability": "nonpayable",
      "type": "function"
    },
    {
      "inputs": [
        {
          "internalType": "address",
          "name": "governanceMultisig_",
          "type": "address"
        }
      ],
      "name": "updateGovernance",
      "outputs": [],
      "stateMutability": "nonpayable",
      "type": "function"
    },
    {
      "inputs": [
        {
          "internalType": "address",
          "name": "newAddress",
          "type": "address"
        }
      ],
      "name": "updatePublicAddress",
      "outputs": [],
      "stateMutability": "nonpayable",
      "type": "function"
    },
    {
      "inputs": [
        {
          "internalType": "address",
          "name": "newAddress",
          "type": "address"
        }
      ],
      "name": "updateReserveAddress",
      "outputs": [],
      "stateMutability": "nonpayable",
      "type": "function"
    },
    {
      "inputs": [
        {
          "internalType": "uint8",
          "name": "newFee",
          "type": "uint8"
        }
      ],
      "name": "updateTransactionFee",
      "outputs": [],
      "stateMutability": "nonpayable",
      "type": "function"
    },
    {
      "inputs": [
        {
          "internalType": "enum EminarToken.BackingAsset",
          "name": "asset",
          "type": "uint8"
        },
        {
          "internalType": "address",
          "name": "to",
          "type": "address"
        },
        {
          "internalType": "uint256",
          "name": "amount",
          "type": "uint256"
        }
      ],
      "name": "withdrawBacking",
      "outputs": [],
      "stateMutability": "nonpayable",
      "type": "function"
    }
  ],
  "bytecode": "0x61016060405234801561001157600080fd5b5060405161545238038061545283398101604081905261003091610c3c565b6040805180820190915260018152603160f81b602082015288908190818a600361005a8382610d9b565b5060046100678282610d9b565b5061007791508390506005610392565b61012052610086816006610392565b61014052815160208084019190912060e052815190820120610100524660a05261011360e05161010051604080517f8b73c3c69bb8fe3d512ecc4cf759cc79239f7b179b0ffacaa9a75d522b39400f60208201529081019290925260608201524660808201523060a082015260009060c00160405160208183030381529060405280519060200120905090565b60805250503060c05250600d805460ff191690556001600160a01b038616158061014457506001600160a01b038516155b8061015657506001600160a01b038416155b8061016857506001600160a01b038316155b8061017a57506001600160a01b038216155b156101985760405163d92e233d60e01b815260040160405180910390fd5b60648160ff1611156101bd5760405163271bc76b60e21b815260040160405180910390fd5b6101ca86868686866103c5565b156101e857604051630148f8ab60e31b815260040160405180910390fd5b601480546001600160a01b03199081166001600160a01b0389811691821784556010805484168a83161781556011805485168a84161781556012805486168a8516178155601380549096168985161786556000948552600f6020526040808620805460ff19908116600190811790925594548616875281872080548616821790559254851686528086208054851684179055905484168552808520805484168317905594548316845293909220805490921690921790556015805460ff60a01b1916600160a01b60ff86160217905590546102e5911660646102d66a52b7d2dcc80cd2e40000006028610e6f565b6102e09190610e86565b6104e2565b60105461030d906001600160a01b031660646102d66a52b7d2dcc80cd2e40000006014610e6f565b601154610335906001600160a01b031660646102d66a52b7d2dcc80cd2e40000006014610e6f565b60125461035d906001600160a01b031660646102d66a52b7d2dcc80cd2e4000000600a610e6f565b601354610385906001600160a01b031660646102d66a52b7d2dcc80cd2e4000000600a610e6f565b5050505050505050610f25565b60006020835110156103ae576103a7836104f0565b90506103bf565b816103b98482610d9b565b5060ff90505b92915050565b6000846001600160a01b0316866001600160a01b031614806103f85750836001600160a01b0316866001600160a01b0316145b806104145750826001600160a01b0316866001600160a01b0316145b806104305750816001600160a01b0316866001600160a01b0316145b8061044c5750836001600160a01b0316856001600160a01b0316145b806104685750826001600160a01b0316856001600160a01b0316145b806104845750816001600160a01b0316856001600160a01b0316145b806104a05750826001600160a01b0316846001600160a01b0316145b806104bc5750816001600160a01b0316846001600160a01b0316145b806104d85750816001600160a01b0316836001600160a01b0316145b9695505050505050565b6104ec8282610537565b5050565b600080829050601f81511115610524578260405163305a27a960e01b815260040161051b9190610ea8565b60405180910390fd5b805161052f82610edb565b179392505050565b61054182826105d5565b6001600160e01b036105536106a88216565b11156105ba5760405162461bcd60e51b815260206004820152603060248201527f4552433230566f7465733a20746f74616c20737570706c79207269736b73206f60448201526f766572666c6f77696e6720766f74657360801b606482015260840161051b565b6105cf600b61241c6106ae60201b17836106c1565b50505050565b6001600160a01b03821661062b5760405162461bcd60e51b815260206004820152601f60248201527f45524332303a206d696e7420746f20746865207a65726f206164647265737300604482015260640161051b565b61063760008383610839565b80600260008282546106499190610eff565b90915550506001600160a01b038216600081815260208181526040808320805486019055518481527fddf252ad1be2c89b69c2b068fc378daa952ba7f163c4a11628f55a4df523b3ef910160405180910390a36104ec60008383610858565b60025490565b60006106ba8284610eff565b9392505050565b8254600090819081811561070e5760008781526020902082016000190160408051808201909152905463ffffffff8116825264010000000090046001600160e01b03166020820152610723565b60408051808201909152600080825260208201525b905080602001516001600160e01b0316935061074084868860201c565b925060008211801561076a5750610755610863565b65ffffffffffff16816000015163ffffffff16145b156107af5761077883610873565b60008881526020902083016000190180546001600160e01b03929092166401000000000263ffffffff90921691909117905561082f565b8660405180604001604052806107d96107cc61086360201b60201c565b65ffffffffffff166108e0565b63ffffffff1681526020016107ed86610873565b6001600160e01b0390811690915282546001810184556000938452602093849020835194909301519091166401000000000263ffffffff909316929092179101555b5050935093915050565b610841610945565b6108538383836001600160e01b038416565b505050565b61085383838361098d565b600061086e436109bf565b905090565b60006001600160e01b038211156108dc5760405162461bcd60e51b815260206004820152602760248201527f53616665436173743a2076616c756520646f65736e27742066697420696e20326044820152663234206269747360c81b606482015260840161051b565b5090565b600063ffffffff8211156108dc5760405162461bcd60e51b815260206004820152602660248201527f53616665436173743a2076616c756520646f65736e27742066697420696e203360448201526532206269747360d01b606482015260840161051b565b600d5460ff161561098b5760405162461bcd60e51b815260206004820152601060248201526f14185d5cd8589b194e881c185d5cd95960821b604482015260640161051b565b565b6001600160a01b0383811660009081526009602052604080822054858416835291205461085392918216911683610a26565b600065ffffffffffff8211156108dc5760405162461bcd60e51b815260206004820152602660248201527f53616665436173743a2076616c756520646f65736e27742066697420696e203460448201526538206269747360d01b606482015260840161051b565b816001600160a01b0316836001600160a01b031614158015610a485750600081115b15610853576001600160a01b03831615610acd576001600160a01b0383166000908152600a6020908152604082208291610a8c9190610b51901b61242817856106c1565b91509150846001600160a01b03166000805160206154328339815191528383604051610ac2929190918252602082015260400190565b60405180910390a250505b6001600160a01b03821615610853576001600160a01b0382166000908152600a6020908152604082208291610b0c91906106ae901b61241c17856106c1565b91509150836001600160a01b03166000805160206154328339815191528383604051610b42929190918252602082015260400190565b60405180910390a25050505050565b60006106ba8284610f12565b634e487b7160e01b600052604160045260246000fd5b60005b83811015610b8e578181015183820152602001610b76565b50506000910152565b600082601f830112610ba857600080fd5b81516001600160401b03811115610bc157610bc1610b5d565b604051601f8201601f19908116603f011681016001600160401b0381118282101715610bef57610bef610b5d565b604052818152838201602001851015610c0757600080fd5b610c18826020830160208701610b73565b949350505050565b80516001600160a01b0381168114610c3757600080fd5b919050565b600080600080600080600080610100898b031215610c5957600080fd5b88516001600160401b03811115610c6f57600080fd5b610c7b8b828c01610b97565b60208b015190995090506001600160401b03811115610c9957600080fd5b610ca58b828c01610b97565b975050610cb460408a01610c20565b9550610cc260608a01610c20565b9450610cd060808a01610c20565b9350610cde60a08a01610c20565b9250610cec60c08a01610c20565b915060e089015160ff81168114610d0257600080fd5b809150509295985092959890939650565b600181811c90821680610d2757607f821691505b602082108103610d4757634e487b7160e01b600052602260045260246000fd5b50919050565b601f82111561085357806000526020600020601f840160051c81016020851015610d745750805b601f840160051c820191505b81811015610d945760008155600101610d80565b5050505050565b81516001600160401b03811115610db457610db4610b5d565b610dc881610dc28454610d13565b84610d4d565b6020601f821160018114610dfc5760008315610de45750848201515b600019600385901b1c1916600184901b178455610d94565b600084815260208120601f198516915b82811015610e2c5787850151825560209485019460019092019101610e0c565b5084821015610e4a5786840151600019600387901b60f8161c191681555b50505050600190811b01905550565b634e487b7160e01b600052601160045260246000fd5b80820281158282048414176103bf576103bf610e59565b600082610ea357634e487b7160e01b600052601260045260246000fd5b500490565b6020815260008251806020840152610ec7816040850160208701610b73565b601f01601f19169190910160400192915050565b80516020808301519190811015610d475760001960209190910360031b1b16919050565b808201808211156103bf576103bf610e59565b818103818111156103bf576103bf610e59565b60805160a05160c05160e0516101005161012051610140516144b3610f7f60003960006111590152600061112e0152600061293d01526000612915015260006128700152600061289a015260006128c401526144b36000f3fe608060405234801561001057600080fd5b50600436106103fc5760003560e01c80638741a4fb11610215578063c3cda52011610125578063dfef15b8116100b8578063f36c8f5c11610087578063f36c8f5c1461099f578063f676f331146109b4578063f79ed94b146109c7578063f84afd48146109da578063fe64c681146109ed57600080fd5b8063dfef15b814610932578063e63ab1e91461093a578063eb8f4c4a1461094f578063f1127ed81461096257600080fd5b8063d505accf116100f4578063d505accf146108d2578063d5391393146108e5578063d547741f1461090c578063dd62ed3e1461091f57600080fd5b8063c3cda52014610848578063c69def0b1461085b578063c8c7fe6b1461086e578063d3fc9864146108bf57600080fd5b8063a217fddf116101a8578063a9059cbb11610177578063a9059cbb146107f4578063a978d8df14610807578063ae621bbe1461081a578063aeeb73ea14610822578063b25612631461083557600080fd5b8063a217fddf146107a3578063a230c524146107ab578063a34cea08146107ce578063a457c2d7146107e157600080fd5b806391ee2a3d116101e457806391ee2a3d1461076157806395d89b41146107745780639ab24eb01461077c5780639ed3edf01461078f57600080fd5b80638741a4fb146107095780638e539e8c1461071c57806391d148541461072f57806391ddadf41461074257600080fd5b80633950935111610310578063626c3d43116102a357806370a082311161027257806370a0823114610697578063795053d3146106c05780637ecebe00146106d35780638456cb59146106e657806384b0196e146106ee57600080fd5b8063626c3d4314610636578063638b1b1414610649578063694d9d171461065c5780636fcfff451461066f57600080fd5b8063587cde1e116102df578063587cde1e146105c15780635c19a95c146106055780635c975abb146106185780636042d5d41461062357600080fd5b8063395093511461058b5780633a46b1a81461059e5780633f4ba83a146105b15780634bf5d7e9146105b957600080fd5b8063248a9ca311610393578063313ce56711610362578063313ce5671461052157806331993a1c1461053657806332cb6b0c1461055d5780633644e5151461057057806336568abe1461057857600080fd5b8063248a9ca3146104b2578063282c51f3146104d55780632f2ff15d146104fc5780632ff2e9dc1461050f57600080fd5b806315e98e73116103cf57806315e98e731461046d57806315f570dc1461048257806318160ddd1461049757806323b872dd1461049f57600080fd5b806301ffc9a71461040157806306fdde0314610429578063095ea7b31461043e5780630bc48ada14610451575b600080fd5b61041461040f366004613d6c565b610a00565b60405190151581526020015b60405180910390f35b610431610a37565b6040516104209190613de6565b61041461044c366004613e15565b610ac9565b61045f6001600160801b0381565b604051908152602001610420565b61045f60008051602061441e83398151915281565b610495610490366004613e55565b610ae1565b005b60025461045f565b6104146104ad366004613f28565b610bed565b61045f6104c0366004613f65565b6000908152600c602052604090206001015490565b61045f7f3c11d16cbaffd01df69ce1c404f6340ee057498f5f00246190ea54220576a84881565b61049561050a366004613f7e565b610c11565b61045f6a52b7d2dcc80cd2e400000081565b60125b60405160ff9091168152602001610420565b61045f7f0acf805600123ef007091da3b3ffb39474074c656c127aa68cb0ffec232a8ff881565b61045f6b033b2e3c9fd0803ce800000081565b61045f610c3b565b610495610586366004613f7e565b610c4a565b610414610599366004613e15565b610ccd565b61045f6105ac366004613e15565b610cef565b610495610d74565b610431610d97565b6105ed6105cf366004613faa565b6001600160a01b039081166000908152600960205260409020541690565b6040516001600160a01b039091168152602001610420565b610495610613366004613faa565b610e2f565b600d5460ff16610414565b610495610631366004613fd4565b610e39565b6013546105ed906001600160a01b031681565b6011546105ed906001600160a01b031681565b61049561066a366004613faa565b611007565b61068261067d366004613faa565b6110c0565b60405163ffffffff9091168152602001610420565b61045f6106a5366004613faa565b6001600160a01b031660009081526020819052604090205490565b6015546105ed906001600160a01b031681565b61045f6106e1366004613faa565b6110e2565b610495611100565b6106f6611120565b6040516104209796959493929190613fef565b610495610717366004614098565b6111a9565b61045f61072a366004613f65565b611207565b61041461073d366004613f7e565b61126e565b61074a611299565b60405165ffffffffffff9091168152602001610420565b61049561076f3660046140b3565b6112a4565b610431611442565b61045f61078a366004613faa565b611451565b60155461052490600160a01b900460ff1681565b61045f600081565b6104146107b9366004613faa565b600f6020526000908152604090205460ff1681565b6104956107dc3660046140cf565b6114d3565b6104146107ef366004613e15565b61170a565b610414610802366004613e15565b611785565b6104956108153660046140b3565b611793565b61045f6118e8565b610495610830366004613faa565b6119c3565b610495610843366004613faa565b611a34565b6104956108563660046140ed565b611bb1565b610495610869366004614145565b611ce7565b61088161087c366004613fd4565b611e4c565b604051610420919081516001600160a01b03168152602080830151908201526040808301519082015260609182015115159181019190915260800190565b6104956108cd366004613e55565b611f1e565b6104956108e036600461416f565b61201d565b61045f7f9f2df0fed2c77648de5860a4cc508cd0818c85b8b8a1ab4ceeef8d981c8956a681565b61049561091a366004613f7e565b612181565b61045f61092d3660046141da565b6121a6565b61045f6121d1565b61045f60008051602061445e83398151915281565b61049561095d366004613f28565b612228565b6109756109703660046141f6565b612326565b60408051825163ffffffff1681526020928301516001600160e01b03169281019290925201610420565b61045f60008051602061443e83398151915281565b6014546105ed906001600160a01b031681565b6010546105ed906001600160a01b031681565b6104956109e8366004613faa565b6123aa565b6012546105ed906001600160a01b031681565b60006001600160e01b03198216637965db0b60e01b1480610a3157506301ffc9a760e01b6001600160e01b03198316145b92915050565b606060038054610a4690614236565b80601f0160208091040260200160405190810160405280929190818152602001828054610a7290614236565b8015610abf5780601f10610a9457610100808354040283529160200191610abf565b820191906000526020600020905b815481529060010190602001808311610aa257829003601f168201915b5050505050905090565b600033610ad7818585612434565b5060019392505050565b7f3c11d16cbaffd01df69ce1c404f6340ee057498f5f00246190ea54220576a848610b0b81612558565b610b13612562565b6001600160a01b038416610b3a5760405163d92e233d60e01b815260040160405180910390fd5b82600003610b5b57604051631f2a200560e01b815260040160405180910390fd5b82610b7b856001600160a01b031660009081526020819052604090205490565b1015610b9a57604051631e9acf1760e31b815260040160405180910390fd5b610ba484846125aa565b836001600160a01b03167ffad31924d655455395c87544c8aa1ffdb5a7505a22a3c2e03f28003b6556a75f8484604051610bdf92919061426a565b60405180910390a250505050565b600033610bfb8582856125b4565b610c06858585612628565b506001949350505050565b6000828152600c6020526040902060010154610c2c81612558565b610c3683836127dd565b505050565b6000610c45612863565b905090565b6001600160a01b0381163314610cbf5760405162461bcd60e51b815260206004820152602f60248201527f416363657373436f6e74726f6c3a2063616e206f6e6c792072656e6f756e636560448201526e103937b632b9903337b91039b2b63360891b60648201526084015b60405180910390fd5b610cc9828261298e565b5050565b600033610ad7818585610ce083836121a6565b610cea9190614299565b612434565b6000610cf9611299565b65ffffffffffff168210610d4b5760405162461bcd60e51b815260206004820152601960248201527804552433230566f7465733a20667574757265206c6f6f6b757603c1b6044820152606401610cb6565b6001600160a01b0383166000908152600a60205260409020610d6d90836129f5565b9392505050565b60008051602061445e833981519152610d8c81612558565b610d94612ade565b50565b606043610da2611299565b65ffffffffffff1614610df75760405162461bcd60e51b815260206004820152601d60248201527f4552433230566f7465733a2062726f6b656e20636c6f636b206d6f64650000006044820152606401610cb6565b5060408051808201909152601d81527f6d6f64653d626c6f636b6e756d6265722666726f6d3d64656661756c74000000602082015290565b610d943382612b30565b60008051602061441e833981519152610e5181612558565b6002826002811115610e6557610e656142ac565b1115610e8457604051636448d6e960e11b815260040160405180910390fd5b600e6000836002811115610e9a57610e9a6142ac565b6002811115610eab57610eab6142ac565b815260208101919091526040016000206003015460ff16610edf57604051630719d53360e21b815260040160405180910390fd5b6000600e6000846002811115610ef757610ef76142ac565b6002811115610f0857610f086142ac565b8152602001908152602001600020600101541115610f39576040516340db7f8760e01b815260040160405180910390fd5b6000600e6000846002811115610f5157610f516142ac565b6002811115610f6257610f626142ac565b815260200190815260200160002060030160006101000a81548160ff0219169083151502179055506000600e6000846002811115610fa257610fa26142ac565b6002811115610fb357610fb36142ac565b815260200190815260200160002060020181905550816002811115610fda57610fda6142ac565b6040517f8b56d0949004b9ec276cc1fa05c8edd80c00371256c79fb5286504b2e2ed105f90600090a25050565b60008051602061443e83398151915261101f81612558565b6001600160a01b0382166110465760405163d92e233d60e01b815260040160405180910390fd5b601180546001600160a01b0319166001600160a01b0384161790556040516a111155915313d41351539560aa1b8152600b015b6040519081900381206001600160a01b0384168252907f943e9d45a11aaae5d87503e3bc248665d9807856e5cf2bdb4a988bee444227819060200160405180910390a25050565b6001600160a01b0381166000908152600a6020526040812054610a3190612ba9565b6001600160a01b038116600090815260076020526040812054610a31565b60008051602061445e83398151915261111881612558565b610d94612c12565b6000606080828080836111547f00000000000000000000000000000000000000000000000000000000000000006005612c4f565b61117f7f00000000000000000000000000000000000000000000000000000000000000006006612c4f565b60408051600080825260208201909252600f60f81b9b939a50919850469750309650945092509050565b60008051602061443e8339815191526111c181612558565b60648260ff1611156111e65760405163271bc76b60e21b815260040160405180910390fd5b506015805460ff909216600160a01b0260ff60a01b19909216919091179055565b6000611211611299565b65ffffffffffff1682106112635760405162461bcd60e51b815260206004820152601960248201527804552433230566f7465733a20667574757265206c6f6f6b757603c1b6044820152606401610cb6565b610a31600b836129f5565b6000918252600c602090815260408084206001600160a01b0393909316845291905290205460ff1690565b6000610c4543612cfa565b6112ac612562565b60028260028111156112c0576112c06142ac565b11156112df57604051636448d6e960e11b815260040160405180910390fd5b600e60008360028111156112f5576112f56142ac565b6002811115611306576113066142ac565b815260208101919091526040016000206003015460ff1661133a57604051630719d53360e21b815260040160405180910390fd5b8060000361135b57604051631f2a200560e01b815260040160405180910390fd5b6113aa333083600e6000876002811115611377576113776142ac565b6002811115611388576113886142ac565b81526020810191909152604001600020546001600160a01b0316929190612d61565b80600e60008460028111156113c1576113c16142ac565b60028111156113d2576113d26142ac565b815260200190815260200160002060010160008282546113f29190614299565b9091555033905082600281111561140b5761140b6142ac565b6040518381527f6a2b04b1f3d5a335c4367fea39bb8807ef0a4fbe77a2772700c8f9c90c1c9a1b9060200160405180910390a35050565b606060048054610a4690614236565b6001600160a01b0381166000908152600a602052604081205480156114c0576001600160a01b0383166000908152600a602052604090208054600019830190811061149e5761149e6142c2565b60009182526020909120015464010000000090046001600160e01b03166114c3565b60005b6001600160e01b03169392505050565b60008051602061441e8339815191526114eb81612558565b6001600160a01b0383166115125760405163d92e233d60e01b815260040160405180910390fd5b8160000361153357604051631f2a200560e01b815260040160405180910390fd5b6002846002811115611547576115476142ac565b111561156657604051636448d6e960e11b815260040160405180910390fd5b600e600085600281111561157c5761157c6142ac565b600281111561158d5761158d6142ac565b815260208101919091526040016000206003015460ff166115c157604051630719d53360e21b815260040160405180910390fd5b81600e60008660028111156115d8576115d86142ac565b60028111156115e9576115e96142ac565b815260200190815260200160002060010154101561161a576040516340db7f8760e01b815260040160405180910390fd5b81600e6000866002811115611631576116316142ac565b6002811115611642576116426142ac565b8152602001908152602001600020600101600082825461166291906142d8565b909155506116b590508383600e6000886002811115611683576116836142ac565b6002811115611694576116946142ac565b81526020810191909152604001600020546001600160a01b03169190612dcc565b826001600160a01b03168460028111156116d1576116d16142ac565b6040518481527fe3aab926d81700bac87dab01982e77e751c07d1acca11c13ff44aae1193a5f549060200160405180910390a350505050565b6000338161171882866121a6565b9050838110156117785760405162461bcd60e51b815260206004820152602560248201527f45524332303a2064656372656173656420616c6c6f77616e63652062656c6f77604482015264207a65726f60d81b6064820152608401610cb6565b610c068286868403612434565b600033610ad7818585612628565b60008051602061441e8339815191526117ab81612558565b60028360028111156117bf576117bf6142ac565b11156117de57604051636448d6e960e11b815260040160405180910390fd5b600e60008460028111156117f4576117f46142ac565b6002811115611805576118056142ac565b815260208101919091526040016000206003015460ff1661183957604051630719d53360e21b815260040160405180910390fd5b6001600160801b038211156118605760405162bfc92160e01b815260040160405180910390fd5b81600e6000856002811115611877576118776142ac565b6002811115611888576118886142ac565b8152602001908152602001600020600201819055508260028111156118af576118af6142ac565b6040518381527f2d292c5b6330b5b0f99b665ec1be838ca17cd57eb118fe7a02cc05477b5bd42f906020015b60405180910390a2505050565b600080805b600281116119bd576000816002811115611909576119096142ac565b90506000600e6000836002811115611923576119236142ac565b6002811115611934576119346142ac565b81526020810191909152604001600020600381015490915060ff16801561195f575060008160020154115b801561196f575060008160010154115b156119a857670de0b6b3a76400008160020154826001015461199191906142eb565b61199b9190614318565b6119a59085614299565b93505b505080806119b59061433a565b9150506118ed565b50919050565b60008051602061443e8339815191526119db81612558565b6001600160a01b038216611a025760405163d92e233d60e01b815260040160405180910390fd5b601480546001600160a01b0319166001600160a01b038416179055604051655055424c494360d01b8152600601611079565b6015546001600160a01b03161580611a5657506015546001600160a01b031633145b611a9b5760405162461bcd60e51b815260206004820152601660248201527511dbdd995c9b985b98d948185b1c9958591e481cd95d60521b6044820152606401610cb6565b336000908152600f602052604090205460ff16611aeb5760405162461bcd60e51b815260206004820152600e60248201526d139bdd08185d5d1a1bdc9a5e995960921b6044820152606401610cb6565b611b157f9f2df0fed2c77648de5860a4cc508cd0818c85b8b8a1ab4ceeef8d981c8956a6826127dd565b611b3f7f3c11d16cbaffd01df69ce1c404f6340ee057498f5f00246190ea54220576a848826127dd565b611b5760008051602061445e833981519152826127dd565b611b6f60008051602061441e833981519152826127dd565b611b8760008051602061443e833981519152826127dd565b610d947f0acf805600123ef007091da3b3ffb39474074c656c127aa68cb0ffec232a8ff8826127dd565b83421115611c015760405162461bcd60e51b815260206004820152601d60248201527f4552433230566f7465733a207369676e617475726520657870697265640000006044820152606401610cb6565b604080517fe48329057bfd03d55e49b547132e39cffd9c1820ad7b9d4c5307691425d15adf60208201526001600160a01b038816918101919091526060810186905260808101859052600090611c7b90611c739060a00160405160208183030381529060405280519060200120612dfc565b858585612e29565b9050611c8681612e53565b8614611cd45760405162461bcd60e51b815260206004820152601960248201527f4552433230566f7465733a20696e76616c6964206e6f6e6365000000000000006044820152606401610cb6565b611cde8188612b30565b50505050505050565b60008051602061441e833981519152611cff81612558565b6001600160a01b038216611d265760405163d92e233d60e01b815260040160405180910390fd5b6002836002811115611d3a57611d3a6142ac565b1115611d5957604051636448d6e960e11b815260040160405180910390fd5b81600e6000856002811115611d7057611d706142ac565b6002811115611d8157611d816142ac565b815260200190815260200160002060000160006101000a8154816001600160a01b0302191690836001600160a01b031602179055506001600e6000856002811115611dce57611dce6142ac565b6002811115611ddf57611ddf6142ac565b81526020810191909152604001600020600301805460ff1916911515919091179055826002811115611e1357611e136142ac565b6040516001600160a01b03841681527f561acd69f877decb2be770ca93ef06bb6a9e5d65defa3bace8eab67feecac572906020016118db565b6040805160808101825260008082526020820181905291810182905260608101919091526002826002811115611e8457611e846142ac565b1115611ea357604051636448d6e960e11b815260040160405180910390fd5b600e6000836002811115611eb957611eb96142ac565b6002811115611eca57611eca6142ac565b81526020808201929092526040908101600020815160808101835281546001600160a01b031681526001820154938101939093526002810154918301919091526003015460ff161515606082015292915050565b7f9f2df0fed2c77648de5860a4cc508cd0818c85b8b8a1ab4ceeef8d981c8956a6611f4881612558565b611f50612562565b6001600160a01b038416611f775760405163d92e233d60e01b815260040160405180910390fd5b82600003611f9857604051631f2a200560e01b815260040160405180910390fd5b6b033b2e3c9fd0803ce800000083611faf60025490565b611fb99190614299565b1115611fd85760405163c30436e960e01b815260040160405180910390fd5b611fe28484612e79565b836001600160a01b03167f9d89e36eadf856db0ad9ffb5a569e07f95634dddd9501141ecf04820484ad0dc8484604051610bdf92919061426a565b8342111561206d5760405162461bcd60e51b815260206004820152601d60248201527f45524332305065726d69743a206578706972656420646561646c696e650000006044820152606401610cb6565b60007f6e71edae12b1b97f4d1f60370fef10105fa2faae0126114a169c64845d6126c988888861209c8c612e53565b6040805160208101969096526001600160a01b0394851690860152929091166060840152608083015260a082015260c0810186905260e00160405160208183030381529060405280519060200120905060006120f782612dfc565b9050600061210782878787612e29565b9050896001600160a01b0316816001600160a01b03161461216a5760405162461bcd60e51b815260206004820152601e60248201527f45524332305065726d69743a20696e76616c6964207369676e617475726500006044820152606401610cb6565b6121758a8a8a612434565b50505050505050505050565b6000828152600c602052604090206001015461219c81612558565b610c36838361298e565b6001600160a01b03918216600090815260016020908152604080832093909416825291909152205490565b6000806121dc6118e8565b905060006121e960025490565b90508115806121f6575080155b156122045760009250505090565b8061221783670de0b6b3a76400006142eb565b6122219190614318565b9250505090565b7f0acf805600123ef007091da3b3ffb39474074c656c127aa68cb0ffec232a8ff861225281612558565b6001600160a01b0383166122795760405163d92e233d60e01b815260040160405180910390fd5b60005b6002811161230b57600e600082600281111561229a5761229a6142ac565b60028111156122ab576122ab6142ac565b60028111156122bc576122bc6142ac565b81526020810191909152604001600020546001600160a01b03908116908616036122f9576040516340db7f8760e01b815260040160405180910390fd5b806123038161433a565b91505061227c565b506123206001600160a01b0385168484612dcc565b50505050565b60408051808201909152600080825260208201526001600160a01b0383166000908152600a60205260409020805463ffffffff841690811061236a5761236a6142c2565b60009182526020918290206040805180820190915291015463ffffffff8116825264010000000090046001600160e01b0316918101919091529392505050565b60008051602061443e8339815191526123c281612558565b6001600160a01b0382166123e95760405163d92e233d60e01b815260040160405180910390fd5b601080546001600160a01b0319166001600160a01b038416179055604051665245534552564560c81b8152600701611079565b6000610d6d8284614299565b6000610d6d82846142d8565b6001600160a01b0383166124965760405162461bcd60e51b8152602060048201526024808201527f45524332303a20617070726f76652066726f6d20746865207a65726f206164646044820152637265737360e01b6064820152608401610cb6565b6001600160a01b0382166124f75760405162461bcd60e51b815260206004820152602260248201527f45524332303a20617070726f766520746f20746865207a65726f206164647265604482015261737360f01b6064820152608401610cb6565b6001600160a01b0383811660008181526001602090815260408083209487168084529482529182902085905590518481527f8c5be1e5ebec7d5bd14f71427d1e84f3dd0314c0f7b2291e5b200ac8c7c3b925910160405180910390a3505050565b610d948133612e83565b600d5460ff16156125a85760405162461bcd60e51b815260206004820152601060248201526f14185d5cd8589b194e881c185d5cd95960821b6044820152606401610cb6565b565b610cc98282612edc565b60006125c084846121a6565b90506000198114612320578181101561261b5760405162461bcd60e51b815260206004820152601d60248201527f45524332303a20696e73756666696369656e7420616c6c6f77616e63650000006044820152606401610cb6565b6123208484848403612434565b6001600160a01b03831661268c5760405162461bcd60e51b815260206004820152602560248201527f45524332303a207472616e736665722066726f6d20746865207a65726f206164604482015264647265737360d81b6064820152608401610cb6565b6001600160a01b0382166126ee5760405162461bcd60e51b815260206004820152602360248201527f45524332303a207472616e7366657220746f20746865207a65726f206164647260448201526265737360e81b6064820152608401610cb6565b6126f9838383612ef4565b6001600160a01b038316600090815260208190526040902054818110156127715760405162461bcd60e51b815260206004820152602660248201527f45524332303a207472616e7366657220616d6f756e7420657863656564732062604482015265616c616e636560d01b6064820152608401610cb6565b6001600160a01b03848116600081815260208181526040808320878703905593871680835291849020805487019055925185815290927fddf252ad1be2c89b69c2b068fc378daa952ba7f163c4a11628f55a4df523b3ef910160405180910390a3612320848484612efc565b6127e7828261126e565b610cc9576000828152600c602090815260408083206001600160a01b03851684529091529020805460ff1916600117905561281f3390565b6001600160a01b0316816001600160a01b0316837f2f8788117e7eff1d82e926ec794901d17c78024a50270940304540a733656f0d60405160405180910390a45050565b6000306001600160a01b037f0000000000000000000000000000000000000000000000000000000000000000161480156128bc57507f000000000000000000000000000000000000000000000000000000000000000046145b156128e657507f000000000000000000000000000000000000000000000000000000000000000090565b610c45604080517f8b73c3c69bb8fe3d512ecc4cf759cc79239f7b179b0ffacaa9a75d522b39400f60208201527f0000000000000000000000000000000000000000000000000000000000000000918101919091527f000000000000000000000000000000000000000000000000000000000000000060608201524660808201523060a082015260009060c00160405160208183030381529060405280519060200120905090565b612998828261126e565b15610cc9576000828152600c602090815260408083206001600160a01b0385168085529252808320805460ff1916905551339285917ff6391f5c32d9c69d2a47ea670b442974b53935d1edc7fd64eb21e047a839171b9190a45050565b815460009081816005811115612a4f576000612a1084612f07565b612a1a90856142d8565b600088815260209020909150869082015463ffffffff161115612a3f57809150612a4d565b612a4a816001614299565b92505b505b80821015612a9c576000612a638383612fef565b600088815260209020909150869082015463ffffffff161115612a8857809150612a96565b612a93816001614299565b92505b50612a4f565b8015612ac8576000868152602090208101600019015464010000000090046001600160e01b0316612acb565b60005b6001600160e01b03169695505050505050565b612ae661300a565b600d805460ff191690557f5db9ee0a495bf2e6ff9c91a7834c1ba4fdd244a5e8aa4e537bd38aeae4b073aa335b6040516001600160a01b03909116815260200160405180910390a1565b6001600160a01b038281166000818152600960208181526040808420805485845282862054949093528787166001600160a01b03198416811790915590519190951694919391928592917f3134e8a2e6d97e929a7e54011ea5485d7d196dd5f0ba4d4ef95803e8e3fc257f9190a4612320828483613053565b600063ffffffff821115612c0e5760405162461bcd60e51b815260206004820152602660248201527f53616665436173743a2076616c756520646f65736e27742066697420696e203360448201526532206269747360d01b6064820152608401610cb6565b5090565b612c1a612562565b600d805460ff191660011790557f62e78cea01bee320cd4e420270b5ea74000d11b0c9f74754ebdbfc544b05a258612b133390565b606060ff8314612c6957612c6283613190565b9050610a31565b818054612c7590614236565b80601f0160208091040260200160405190810160405280929190818152602001828054612ca190614236565b8015612cee5780601f10612cc357610100808354040283529160200191612cee565b820191906000526020600020905b815481529060010190602001808311612cd157829003601f168201915b50505050509050610a31565b600065ffffffffffff821115612c0e5760405162461bcd60e51b815260206004820152602660248201527f53616665436173743a2076616c756520646f65736e27742066697420696e203460448201526538206269747360d01b6064820152608401610cb6565b6040516001600160a01b03808516602483015283166044820152606481018290526123209085906323b872dd60e01b906084015b60408051601f198184030181529190526020810180516001600160e01b03166001600160e01b0319909316929092179091526131cf565b6040516001600160a01b038316602482015260448101829052610c3690849063a9059cbb60e01b90606401612d95565b6000610a31612e09612863565b8360405161190160f01b8152600281019290925260228201526042902090565b6000806000612e3a878787876132a4565b91509150612e4781613368565b5090505b949350505050565b6001600160a01b03811660009081526007602052604090208054600181018255906119bd565b610cc982826134b2565b612e8d828261126e565b610cc957612e9a8161353c565b612ea583602061354e565b604051602001612eb6929190614353565b60408051601f198184030181529082905262461bcd60e51b8252610cb691600401613de6565b612ee682826136ea565b612320600b6124288361382f565b610c36612562565b610c368383836139a4565b600081600003612f1957506000919050565b60006001612f26846139d6565b901c6001901b90506001818481612f3f57612f3f614302565b048201901c90506001818481612f5757612f57614302565b048201901c90506001818481612f6f57612f6f614302565b048201901c90506001818481612f8757612f87614302565b048201901c90506001818481612f9f57612f9f614302565b048201901c90506001818481612fb757612fb7614302565b048201901c90506001818481612fcf57612fcf614302565b048201901c9050610d6d81828581612fe957612fe9614302565b04613a6a565b6000612ffe6002848418614318565b610d6d90848416614299565b600d5460ff166125a85760405162461bcd60e51b815260206004820152601460248201527314185d5cd8589b194e881b9bdd081c185d5cd95960621b6044820152606401610cb6565b816001600160a01b0316836001600160a01b0316141580156130755750600081115b15610c36576001600160a01b03831615613103576001600160a01b0383166000908152600a6020526040812081906130b0906124288561382f565b91509150846001600160a01b03167fdec2bacdd2f05b59de34da9b523dff8be42e5e38e818c82fdb0bae774387a72483836040516130f8929190918252602082015260400190565b60405180910390a250505b6001600160a01b03821615610c36576001600160a01b0382166000908152600a6020526040812081906131399061241c8561382f565b91509150836001600160a01b03167fdec2bacdd2f05b59de34da9b523dff8be42e5e38e818c82fdb0bae774387a7248383604051613181929190918252602082015260400190565b60405180910390a25050505050565b6060600061319d83613a80565b604080516020808252818301909252919250600091906020820181803683375050509182525060208101929092525090565b6000613224826040518060400160405280602081526020017f5361666545524332303a206c6f772d6c6576656c2063616c6c206661696c6564815250856001600160a01b0316613aa89092919063ffffffff16565b905080516000148061324557508080602001905181019061324591906143c8565b610c365760405162461bcd60e51b815260206004820152602a60248201527f5361666545524332303a204552433230206f7065726174696f6e20646964206e6044820152691bdd081cdd58d8d9595960b21b6064820152608401610cb6565b6000807f7fffffffffffffffffffffffffffffff5d576e7357a4501ddfe92f46681b20a08311156132db575060009050600361335f565b6040805160008082526020820180845289905260ff881692820192909252606081018690526080810185905260019060a0016020604051602081039080840390855afa15801561332f573d6000803e3d6000fd5b5050604051601f1901519150506001600160a01b0381166133585760006001925092505061335f565b9150600090505b94509492505050565b600081600481111561337c5761337c6142ac565b036133845750565b6001816004811115613398576133986142ac565b036133e55760405162461bcd60e51b815260206004820152601860248201527f45434453413a20696e76616c6964207369676e617475726500000000000000006044820152606401610cb6565b60028160048111156133f9576133f96142ac565b036134465760405162461bcd60e51b815260206004820152601f60248201527f45434453413a20696e76616c6964207369676e6174757265206c656e677468006044820152606401610cb6565b600381600481111561345a5761345a6142ac565b03610d945760405162461bcd60e51b815260206004820152602260248201527f45434453413a20696e76616c6964207369676e6174757265202773272076616c604482015261756560f01b6064820152608401610cb6565b6134bc8282613ab7565b6002546001600160e01b03101561352e5760405162461bcd60e51b815260206004820152603060248201527f4552433230566f7465733a20746f74616c20737570706c79207269736b73206f60448201526f766572666c6f77696e6720766f74657360801b6064820152608401610cb6565b612320600b61241c8361382f565b6060610a316001600160a01b03831660145b6060600061355d8360026142eb565b613568906002614299565b67ffffffffffffffff81111561358057613580613e3f565b6040519080825280601f01601f1916602001820160405280156135aa576020820181803683370190505b509050600360fc1b816000815181106135c5576135c56142c2565b60200101906001600160f81b031916908160001a905350600f60fb1b816001815181106135f4576135f46142c2565b60200101906001600160f81b031916908160001a90535060006136188460026142eb565b613623906001614299565b90505b600181111561369b576f181899199a1a9b1b9c1cb0b131b232b360811b85600f1660108110613657576136576142c2565b1a60f81b82828151811061366d5761366d6142c2565b60200101906001600160f81b031916908160001a90535060049490941c93613694816143ea565b9050613626565b508315610d6d5760405162461bcd60e51b815260206004820181905260248201527f537472696e67733a20686578206c656e67746820696e73756666696369656e746044820152606401610cb6565b6001600160a01b03821661374a5760405162461bcd60e51b815260206004820152602160248201527f45524332303a206275726e2066726f6d20746865207a65726f206164647265736044820152607360f81b6064820152608401610cb6565b61375682600083612ef4565b6001600160a01b038216600090815260208190526040902054818110156137ca5760405162461bcd60e51b815260206004820152602260248201527f45524332303a206275726e20616d6f756e7420657863656564732062616c616e604482015261636560f01b6064820152608401610cb6565b6001600160a01b0383166000818152602081815260408083208686039055600280548790039055518581529192917fddf252ad1be2c89b69c2b068fc378daa952ba7f163c4a11628f55a4df523b3ef910160405180910390a3610c3683600084612efc565b8254600090819081811561387c5760008781526020902082016000190160408051808201909152905463ffffffff8116825264010000000090046001600160e01b03166020820152613891565b60408051808201909152600080825260208201525b905080602001516001600160e01b031693506138b184868863ffffffff16565b92506000821180156138db57506138c6611299565b65ffffffffffff16816000015163ffffffff16145b15613920576138e983613b8a565b60008881526020902083016000190180546001600160e01b03929092166401000000000263ffffffff90921691909117905561399a565b866040518060400160405280613944613937611299565b65ffffffffffff16612ba9565b63ffffffff16815260200161395886613b8a565b6001600160e01b0390811690915282546001810184556000938452602093849020835194909301519091166401000000000263ffffffff909316929092179101555b5050935093915050565b6001600160a01b03838116600090815260096020526040808220548584168352912054610c3692918216911683613053565b600080608083901c156139eb57608092831c92015b604083901c156139fd57604092831c92015b602083901c15613a0f57602092831c92015b601083901c15613a2157601092831c92015b600883901c15613a3357600892831c92015b600483901c15613a4557600492831c92015b600283901c15613a5757600292831c92015b600183901c15610a315760010192915050565b6000818310613a795781610d6d565b5090919050565b600060ff8216601f811115610a3157604051632cd44ac360e21b815260040160405180910390fd5b6060612e4b8484600085613bf3565b6001600160a01b038216613b0d5760405162461bcd60e51b815260206004820152601f60248201527f45524332303a206d696e7420746f20746865207a65726f2061646472657373006044820152606401610cb6565b613b1960008383612ef4565b8060026000828254613b2b9190614299565b90915550506001600160a01b038216600081815260208181526040808320805486019055518481527fddf252ad1be2c89b69c2b068fc378daa952ba7f163c4a11628f55a4df523b3ef910160405180910390a3610cc960008383612efc565b60006001600160e01b03821115612c0e5760405162461bcd60e51b815260206004820152602760248201527f53616665436173743a2076616c756520646f65736e27742066697420696e20326044820152663234206269747360c81b6064820152608401610cb6565b606082471015613c545760405162461bcd60e51b815260206004820152602660248201527f416464726573733a20696e73756666696369656e742062616c616e636520666f6044820152651c8818d85b1b60d21b6064820152608401610cb6565b600080866001600160a01b03168587604051613c709190614401565b60006040518083038185875af1925050503d8060008114613cad576040519150601f19603f3d011682016040523d82523d6000602084013e613cb2565b606091505b5091509150613cc387838387613cce565b979650505050505050565b60608315613d3d578251600003613d36576001600160a01b0385163b613d365760405162461bcd60e51b815260206004820152601d60248201527f416464726573733a2063616c6c20746f206e6f6e2d636f6e74726163740000006044820152606401610cb6565b5081612e4b565b612e4b8383815115613d525781518083602001fd5b8060405162461bcd60e51b8152600401610cb69190613de6565b600060208284031215613d7e57600080fd5b81356001600160e01b031981168114610d6d57600080fd5b60005b83811015613db1578181015183820152602001613d99565b50506000910152565b60008151808452613dd2816020860160208601613d96565b601f01601f19169290920160200192915050565b602081526000610d6d6020830184613dba565b80356001600160a01b0381168114613e1057600080fd5b919050565b60008060408385031215613e2857600080fd5b613e3183613df9565b946020939093013593505050565b634e487b7160e01b600052604160045260246000fd5b600080600060608486031215613e6a57600080fd5b613e7384613df9565b925060208401359150604084013567ffffffffffffffff811115613e9657600080fd5b8401601f81018613613ea757600080fd5b803567ffffffffffffffff811115613ec157613ec1613e3f565b604051601f8201601f19908116603f0116810167ffffffffffffffff81118282101715613ef057613ef0613e3f565b604052818152828201602001881015613f0857600080fd5b816020840160208301376000602083830101528093505050509250925092565b600080600060608486031215613f3d57600080fd5b613f4684613df9565b9250613f5460208501613df9565b929592945050506040919091013590565b600060208284031215613f7757600080fd5b5035919050565b60008060408385031215613f9157600080fd5b82359150613fa160208401613df9565b90509250929050565b600060208284031215613fbc57600080fd5b610d6d82613df9565b803560038110613e1057600080fd5b600060208284031215613fe657600080fd5b610d6d82613fc5565b60ff60f81b8816815260e06020820152600061400e60e0830189613dba565b82810360408401526140208189613dba565b606084018890526001600160a01b038716608085015260a0840186905283810360c08501528451808252602080870193509091019060005b81811015614076578351835260209384019390920191600101614058565b50909b9a5050505050505050505050565b803560ff81168114613e1057600080fd5b6000602082840312156140aa57600080fd5b610d6d82614087565b600080604083850312156140c657600080fd5b613e3183613fc5565b6000806000606084860312156140e457600080fd5b613f4684613fc5565b60008060008060008060c0878903121561410657600080fd5b61410f87613df9565b9550602087013594506040870135935061412b60608801614087565b9598949750929560808101359460a0909101359350915050565b6000806040838503121561415857600080fd5b61416183613fc5565b9150613fa160208401613df9565b600080600080600080600060e0888a03121561418a57600080fd5b61419388613df9565b96506141a160208901613df9565b955060408801359450606088013593506141bd60808901614087565b9699959850939692959460a0840135945060c09093013592915050565b600080604083850312156141ed57600080fd5b61416183613df9565b6000806040838503121561420957600080fd5b61421283613df9565b9150602083013563ffffffff8116811461422b57600080fd5b809150509250929050565b600181811c9082168061424a57607f821691505b6020821081036119bd57634e487b7160e01b600052602260045260246000fd5b828152604060208201526000612e4b6040830184613dba565b634e487b7160e01b600052601160045260246000fd5b80820180821115610a3157610a31614283565b634e487b7160e01b600052602160045260246000fd5b634e487b7160e01b600052603260045260246000fd5b81810381811115610a3157610a31614283565b8082028115828204841417610a3157610a31614283565b634e487b7160e01b600052601260045260246000fd5b60008261433557634e487b7160e01b600052601260045260246000fd5b500490565b60006001820161434c5761434c614283565b5060010190565b7f416363657373436f6e74726f6c3a206163636f756e742000000000000000000081526000835161438b816017850160208801613d96565b7001034b99036b4b9b9b4b733903937b6329607d1b60179184019182015283516143bc816028840160208801613d96565b01602801949350505050565b6000602082840312156143da57600080fd5b81518015158114610d6d57600080fd5b6000816143f9576143f9614283565b506000190190565b60008251614413818460208701613d96565b919091019291505056feaa9060660dc3e52152ec6c4cd87f38f5433d3e2246058f23a29463ea3247681771840dc4906352362b0cdaf79870196c8e42acafade72d5d5a6d59291253ceb165d7a28e3265b37a6474929f336521b332c1681b933f6cb9f3376673440d862aa26469706673582212207415c60293496a9a90202f7bd3481700a777690e5060c2cb0d9efbb23bf5891264736f6c634300081c0033dec2bacdd2f05b59de34da9b523dff8be42e5e38e818c82fdb0bae774387a724",
  "linkReferences": {},
  "deployedLinkReferences": {}
}