{
  "_format": "hh-sol-artifact-1",
  "contractName": "EminarToken",
  "sourceName": "contracts/EMN/EMN.sol",
  "abi": [
    {
      "inputs": [
        {
          "internalType": "string",
          "name": "name_",
          "type": "string"
        },
        {
          "internalType": "string",
          "name": "symbol_",
          "type": "string"
        },
        {
          "internalType": "address",
          "name": "publicAddr_",
          "type": "address"
        },
        {
          "internalType": "address",
          "name": "reserveAddr_",
          "type": "address"
        },
        {
          "internalType": "address",
          "name": "devAddr_",
          "type": "address"
        },
        {
          "internalType": "address",
          "name": "shariaAddr_",
          "type": "address"
        },
        {
          "internalType": "address",
          "name": "strategicAddr_",
          "type": "address"
        }
      ],
      "stateMutability": "nonpayable",
      "type": "constructor"
    },
    {
      "inputs": [],
      "name": "AssetNotRegistered",
      "type": "error"
    },
    {
      "inputs": [],
      "name": "DuplicateAddress",
      "type": "error"
    },
    {
      "inputs": [],
      "name": "ExceedsMaxSupply",
      "type": "error"
    },
    {
      "inputs": [],
      "name": "InsufficientBacking",
      "type": "error"
    },
    {
      "inputs": [],
      "name": "InsufficientBalance",
      "type": "error"
    },
    {
      "inputs": [],
      "name": "InvalidAsset",
      "type": "error"
    },
    {
      "inputs": [],
      "name": "InvalidPrice",
      "type": "error"
    },
    {
      "inputs": [],
      "name": "InvalidShortString",
      "type": "error"
    },
    {
      "inputs": [
        {
          "internalType": "string",
          "name": "str",
          "type": "string"
        }
      ],
      "name": "StringTooLong",
      "type": "error"
    },
    {
      "inputs": [],
      "name": "ZeroAddress",
      "type": "error"
    },
    {
      "inputs": [],
      "name": "ZeroAmount",
      "type": "error"
    },
    {
      "anonymous": false,
      "inputs": [
        {
          "indexed": true,
          "internalType": "string",
          "name": "addressType",
          "type": "string"
        },
        {
          "indexed": false,
          "internalType": "address",
          "name": "newAddress",
          "type": "address"
        }
      ],
      "name": "AddressUpdated",
      "type": "event"
    },
    {
      "anonymous": false,
      "inputs": [
        {
          "indexed": true,
          "internalType": "address",
          "name": "owner",
          "type": "address"
        },
        {
          "indexed": true,
          "internalType": "address",
          "name": "spender",
          "type": "address"
        },
        {
          "indexed": false,
          "internalType": "uint256",
          "name": "value",
          "type": "uint256"
        }
      ],
      "name": "Approval",
      "type": "event"
    },
    {
      "anonymous": false,
      "inputs": [
        {
          "indexed": true,
          "internalType": "enum EminarToken.BackingAsset",
          "name": "asset",
          "type": "uint8"
        },
        {
          "indexed": false,
          "internalType": "uint256",
          "name": "priceUSD",
          "type": "uint256"
        }
      ],
      "name": "AssetPriceUpdated",
      "type": "event"
    },
    {
      "anonymous": false,
      "inputs": [
        {
          "indexed": true,
          "internalType": "enum EminarToken.BackingAsset",
          "name": "asset",
          "type": "uint8"
        },
        {
          "indexed": true,
          "internalType": "address",
          "name": "from",
          "type": "address"
        },
        {
          "indexed": false,
          "internalType": "uint256",
          "name": "amount",
          "type": "uint256"
        }
      ],
      "name": "BackingDeposited",
      "type": "event"
    },
    {
      "anonymous": false,
      "inputs": [
        {
          "indexed": true,
          "internalType": "enum EminarToken.BackingAsset",
          "name": "asset",
          "type": "uint8"
        },
        {
          "indexed": false,
          "internalType": "address",
          "name": "token",
          "type": "address"
        }
      ],
      "name": "BackingTokenRegistered",
      "type": "event"
    },
    {
      "anonymous": false,
      "inputs": [
        {
          "indexed": true,
          "internalType": "enum EminarToken.BackingAsset",
          "name": "asset",
          "type": "uint8"
        }
      ],
      "name": "BackingTokenUnregistered",
      "type": "event"
    },
    {
      "anonymous": false,
      "inputs": [
        {
          "indexed": true,
          "internalType": "enum EminarToken.BackingAsset",
          "name": "asset",
          "type": "uint8"
        },
        {
          "indexed": true,
          "internalType": "address",
          "name": "to",
          "type": "address"
        },
        {
          "indexed": false,
          "internalType": "uint256",
          "name": "amount",
          "type": "uint256"
        }
      ],
      "name": "BackingWithdrawn",
      "type": "event"
    },
    {
      "anonymous": false,
      "inputs": [
        {
          "indexed": true,
          "internalType": "address",
          "name": "delegator",
          "type": "address"
        },
        {
          "indexed": true,
          "internalType": "address",
          "name": "fromDelegate",
          "type": "address"
        },
        {
          "indexed": true,
          "internalType": "address",
          "name": "toDelegate",
          "type": "address"
        }
      ],
      "name": "DelegateChanged",
      "type": "event"
    },
    {
      "anonymous": false,
      "inputs": [
        {
          "indexed": true,
          "internalType": "address",
          "name": "delegate",
          "type": "address"
        },
        {
          "indexed": false,
          "internalType": "uint256",
          "name": "previousBalance",
          "type": "uint256"
        },
        {
          "indexed": false,
          "internalType": "uint256",
          "name": "newBalance",
          "type": "uint256"
        }
      ],
      "name": "DelegateVotesChanged",
      "type": "event"
    },
    {
      "anonymous": false,
      "inputs": [],
      "name": "EIP712DomainChanged",
      "type": "event"
    },
    {
      "anonymous": false,
      "inputs": [
        {
          "indexed": false,
          "internalType": "address",
          "name": "account",
          "type": "address"
        }
      ],
      "name": "Paused",
      "type": "event"
    },
    {
      "anonymous": false,
      "inputs": [
        {
          "indexed": true,
          "internalType": "bytes32",
          "name": "role",
          "type": "bytes32"
        },
        {
          "indexed": true,
          "internalType": "bytes32",
          "name": "previousAdminRole",
          "type": "bytes32"
        },
        {
          "indexed": true,
          "internalType": "bytes32",
          "name": "newAdminRole",
          "type": "bytes32"
        }
      ],
      "name": "RoleAdminChanged",
      "type": "event"
    },
    {
      "anonymous": false,
      "inputs": [
        {
          "indexed": true,
          "internalType": "bytes32",
          "name": "role",
          "type": "bytes32"
        },
        {
          "indexed": true,
          "internalType": "address",
          "name": "account",
          "type": "address"
        },
        {
          "indexed": true,
          "internalType": "address",
          "name": "sender",
          "type": "address"
        }
      ],
      "name": "RoleGranted",
      "type": "event"
    },
    {
      "anonymous": false,
      "inputs": [
        {
          "indexed": true,
          "internalType": "bytes32",
          "name": "role",
          "type": "bytes32"
        },
        {
          "indexed": true,
          "internalType": "address",
          "name": "account",
          "type": "address"
        },
        {
          "indexed": true,
          "internalType": "address",
          "name": "sender",
          "type": "address"
        }
      ],
      "name": "RoleRevoked",
      "type": "event"
    },
    {
      "anonymous": false,
      "inputs": [
        {
          "indexed": true,
          "internalType": "address",
          "name": "from",
          "type": "address"
        },
        {
          "indexed": false,
          "internalType": "uint256",
          "name": "amount",
          "type": "uint256"
        },
        {
          "indexed": false,
          "internalType": "string",
          "name": "reason",
          "type": "string"
        }
      ],
      "name": "TokensBurned",
      "type": "event"
    },
    {
      "anonymous": false,
      "inputs": [
        {
          "indexed": true,
          "internalType": "address",
          "name": "to",
          "type": "address"
        },
        {
          "indexed": false,
          "internalType": "uint256",
          "name": "amount",
          "type": "uint256"
        },
        {
          "indexed": false,
          "internalType": "string",
          "name": "reason",
          "type": "string"
        }
      ],
      "name": "TokensMinted",
      "type": "event"
    },
    {
      "anonymous": false,
      "inputs": [
        {
          "indexed": true,
          "internalType": "address",
          "name": "from",
          "type": "address"
        },
        {
          "indexed": true,
          "internalType": "address",
          "name": "to",
          "type": "address"
        },
        {
          "indexed": false,
          "internalType": "uint256",
          "name": "value",
          "type": "uint256"
        }
      ],
      "name": "Transfer",
      "type": "event"
    },
    {
      "anonymous": false,
      "inputs": [
        {
          "indexed": false,
          "internalType": "address",
          "name": "account",
          "type": "address"
        }
      ],
      "name": "Unpaused",
      "type": "event"
    },
    {
      "inputs": [],
      "name": "BACKING_MANAGER_ROLE",
      "outputs": [
        {
          "internalType": "bytes32",
          "name": "",
          "type": "bytes32"
        }
      ],
      "stateMutability": "view",
      "type": "function"
    },
    {
      "inputs": [],
      "name": "BURNER_ROLE",
      "outputs": [
        {
          "internalType": "bytes32",
          "name": "",
          "type": "bytes32"
        }
      ],
      "stateMutability": "view",
      "type": "function"
    },
    {
      "inputs": [],
      "name": "CLOCK_MODE",
      "outputs": [
        {
          "internalType": "string",
          "name": "",
          "type": "string"
        }
      ],
      "stateMutability": "view",
      "type": "function"
    },
    {
      "inputs": [],
      "name": "DEFAULT_ADMIN_ROLE",
      "outputs": [
        {
          "internalType": "bytes32",
          "name": "",
          "type": "bytes32"
        }
      ],
      "stateMutability": "view",
      "type": "function"
    },
    {
      "inputs": [],
      "name": "DOMAIN_SEPARATOR",
      "outputs": [
        {
          "internalType": "bytes32",
          "name": "",
          "type": "bytes32"
        }
      ],
      "stateMutability": "view",
      "type": "function"
    },
    {
      "inputs": [],
      "name": "GOVERNANCE_ROLE",
      "outputs": [
        {
          "internalType": "bytes32",
          "name": "",
          "type": "bytes32"
        }
      ],
      "stateMutability": "view",
      "type": "function"
    },
    {
      "inputs": [],
      "name": "INITIAL_SUPPLY",
      "outputs": [
        {
          "internalType": "uint256",
          "name": "",
          "type": "uint256"
        }
      ],
      "stateMutability": "view",
      "type": "function"
    },
    {
      "inputs": [],
      "name": "MAX_ASSET_PRICE",
      "outputs": [
        {
          "internalType": "uint256",
          "name": "",
          "type": "uint256"
        }
      ],
      "stateMutability": "view",
      "type": "function"
    },
    {
      "inputs": [],
      "name": "MAX_SUPPLY",
      "outputs": [
        {
          "internalType": "uint256",
          "name": "",
          "type": "uint256"
        }
      ],
      "stateMutability": "view",
      "type": "function"
    },
    {
      "inputs": [],
      "name": "MINTER_ROLE",
      "outputs": [
        {
          "internalType": "bytes32",
          "name": "",
          "type": "bytes32"
        }
      ],
      "stateMutability": "view",
      "type": "function"
    },
    {
      "inputs": [],
      "name": "PAUSER_ROLE",
      "outputs": [
        {
          "internalType": "bytes32",
          "name": "",
          "type": "bytes32"
        }
      ],
      "stateMutability": "view",
      "type": "function"
    },
    {
      "inputs": [],
      "name": "RECOVERY_ROLE",
      "outputs": [
        {
          "internalType": "bytes32",
          "name": "",
          "type": "bytes32"
        }
      ],
      "stateMutability": "view",
      "type": "function"
    },
    {
      "inputs": [
        {
          "internalType": "address",
          "name": "owner",
          "type": "address"
        },
        {
          "internalType": "address",
          "name": "spender",
          "type": "address"
        }
      ],
      "name": "allowance",
      "outputs": [
        {
          "internalType": "uint256",
          "name": "",
          "type": "uint256"
        }
      ],
      "stateMutability": "view",
      "type": "function"
    },
    {
      "inputs": [
        {
          "internalType": "address",
          "name": "spender",
          "type": "address"
        },
        {
          "internalType": "uint256",
          "name": "amount",
          "type": "uint256"
        }
      ],
      "name": "approve",
      "outputs": [
        {
          "internalType": "bool",
          "name": "",
          "type": "bool"
        }
      ],
      "stateMutability": "nonpayable",
      "type": "function"
    },
    {
      "inputs": [],
      "name": "backingPerTokenUSD",
      "outputs": [
        {
          "internalType": "uint256",
          "name": "",
          "type": "uint256"
        }
      ],
      "stateMutability": "view",
      "type": "function"
    },
    {
      "inputs": [
        {
          "internalType": "address",
          "name": "account",
          "type": "address"
        }
      ],
      "name": "balanceOf",
      "outputs": [
        {
          "internalType": "uint256",
          "name": "",
          "type": "uint256"
        }
      ],
      "stateMutability": "view",
      "type": "function"
    },
    {
      "inputs": [
        {
          "internalType": "address",
          "name": "from",
          "type": "address"
        },
        {
          "internalType": "uint256",
          "name": "amount",
          "type": "uint256"
        },
        {
          "internalType": "string",
          "name": "reason",
          "type": "string"
        }
      ],
      "name": "burn",
      "outputs": [],
      "stateMutability": "nonpayable",
      "type": "function"
    },
    {
      "inputs": [
        {
          "internalType": "uint256",
          "name": "amount",
          "type": "uint256"
        },
        {
          "internalType": "string",
          "name": "reason",
          "type": "string"
        }
      ],
      "name": "burnMyTokens",
      "outputs": [],
      "stateMutability": "nonpayable",
      "type": "function"
    },
    {
      "inputs": [
        {
          "internalType": "address",
          "name": "account",
          "type": "address"
        },
        {
          "internalType": "uint32",
          "name": "pos",
          "type": "uint32"
        }
      ],
      "name": "checkpoints",
      "outputs": [
        {
          "components": [
            {
              "internalType": "uint32",
              "name": "fromBlock",
              "type": "uint32"
            },
            {
              "internalType": "uint224",
              "name": "votes",
              "type": "uint224"
            }
          ],
          "internalType": "struct ERC20Votes.Checkpoint",
          "name": "",
          "type": "tuple"
        }
      ],
      "stateMutability": "view",
      "type": "function"
    },
    {
      "inputs": [],
      "name": "clock",
      "outputs": [
        {
          "internalType": "uint48",
          "name": "",
          "type": "uint48"
        }
      ],
      "stateMutability": "view",
      "type": "function"
    },
    {
      "inputs": [],
      "name": "decimals",
      "outputs": [
        {
          "internalType": "uint8",
          "name": "",
          "type": "uint8"
        }
      ],
      "stateMutability": "pure",
      "type": "function"
    },
    {
      "inputs": [
        {
          "internalType": "address",
          "name": "spender",
          "type": "address"
        },
        {
          "internalType": "uint256",
          "name": "subtractedValue",
          "type": "uint256"
        }
      ],
      "name": "decreaseAllowance",
      "outputs": [
        {
          "internalType": "bool",
          "name": "",
          "type": "bool"
        }
      ],
      "stateMutability": "nonpayable",
      "type": "function"
    },
    {
      "inputs": [
        {
          "internalType": "address",
          "name": "delegatee",
          "type": "address"
        }
      ],
      "name": "delegate",
      "outputs": [],
      "stateMutability": "nonpayable",
      "type": "function"
    },
    {
      "inputs": [
        {
          "internalType": "address",
          "name": "delegatee",
          "type": "address"
        },
        {
          "internalType": "uint256",
          "name": "nonce",
          "type": "uint256"
        },
        {
          "internalType": "uint256",
          "name": "expiry",
          "type": "uint256"
        },
        {
          "internalType": "uint8",
          "name": "v",
          "type": "uint8"
        },
        {
          "internalType": "bytes32",
          "name": "r",
          "type": "bytes32"
        },
        {
          "internalType": "bytes32",
          "name": "s",
          "type": "bytes32"
        }
      ],
      "name": "delegateBySig",
      "outputs": [],
      "stateMutability": "nonpayable",
      "type": "function"
    },
    {
      "inputs": [
        {
          "internalType": "address",
          "name": "account",
          "type": "address"
        }
      ],
      "name": "delegates",
      "outputs": [
        {
          "internalType": "address",
          "name": "",
          "type": "address"
        }
      ],
      "stateMutability": "view",
      "type": "function"
    },
    {
      "inputs": [
        {
          "internalType": "enum EminarToken.BackingAsset",
          "name": "asset",
          "type": "uint8"
        },
        {
          "internalType": "uint256",
          "name": "amount",
          "type": "uint256"
        }
      ],
      "name": "depositBacking",
      "outputs": [],
      "stateMutability": "nonpayable",
      "type": "function"
    },
    {
      "inputs": [],
      "name": "developmentAddress",
      "outputs": [
        {
          "internalType": "address",
          "name": "",
          "type": "address"
        }
      ],
      "stateMutability": "view",
      "type": "function"
    },
    {
      "inputs": [],
      "name": "eip712Domain",
      "outputs": [
        {
          "internalType": "bytes1",
          "name": "fields",
          "type": "bytes1"
        },
        {
          "internalType": "string",
          "name": "name",
          "type": "string"
        },
        {
          "internalType": "string",
          "name": "version",
          "type": "string"
        },
        {
          "internalType": "uint256",
          "name": "chainId",
          "type": "uint256"
        },
        {
          "internalType": "address",
          "name": "verifyingContract",
          "type": "address"
        },
        {
          "internalType": "bytes32",
          "name": "salt",
          "type": "bytes32"
        },
        {
          "internalType": "uint256[]",
          "name": "extensions",
          "type": "uint256[]"
        }
      ],
      "stateMutability": "view",
      "type": "function"
    },
    {
      "inputs": [
        {
          "internalType": "address",
          "name": "token",
          "type": "address"
        },
        {
          "internalType": "address",
          "name": "to",
          "type": "address"
        },
        {
          "internalType": "uint256",
          "name": "amount",
          "type": "uint256"
        }
      ],
      "name": "emergencyRecoverERC20",
      "outputs": [],
      "stateMutability": "nonpayable",
      "type": "function"
    },
    {
      "inputs": [
        {
          "internalType": "enum EminarToken.BackingAsset",
          "name": "asset",
          "type": "uint8"
        }
      ],
      "name": "getAssetInfo",
      "outputs": [
        {
          "components": [
            {
              "internalType": "contract IERC20",
              "name": "token",
              "type": "address"
            },
            {
              "internalType": "uint256",
              "name": "amount",
              "type": "uint256"
            },
            {
              "internalType": "uint256",
              "name": "priceUSD",
              "type": "uint256"
            },
            {
              "internalType": "bool",
              "name": "registered",
              "type": "bool"
            }
          ],
          "internalType": "struct EminarToken.AssetInfo",
          "name": "",
          "type": "tuple"
        }
      ],
      "stateMutability": "view",
      "type": "function"
    },
    {
      "inputs": [
        {
          "internalType": "uint256",
          "name": "timepoint",
          "type": "uint256"
        }
      ],
      "name": "getPastTotalSupply",
      "outputs": [
        {
          "internalType": "uint256",
          "name": "",
          "type": "uint256"
        }
      ],
      "stateMutability": "view",
      "type": "function"
    },
    {
      "inputs": [
        {
          "internalType": "address",
          "name": "account",
          "type": "address"
        },
        {
          "internalType": "uint256",
          "name": "timepoint",
          "type": "uint256"
        }
      ],
      "name": "getPastVotes",
      "outputs": [
        {
          "internalType": "uint256",
          "name": "",
          "type": "uint256"
        }
      ],
      "stateMutability": "view",
      "type": "function"
    },
    {
      "inputs": [
        {
          "internalType": "bytes32",
          "name": "role",
          "type": "bytes32"
        }
      ],
      "name": "getRoleAdmin",
      "outputs": [
        {
          "internalType": "bytes32",
          "name": "",
          "type": "bytes32"
        }
      ],
      "stateMutability": "view",
      "type": "function"
    },
    {
      "inputs": [
        {
          "internalType": "address",
          "name": "account",
          "type": "address"
        }
      ],
      "name": "getVotes",
      "outputs": [
        {
          "internalType": "uint256",
          "name": "",
          "type": "uint256"
        }
      ],
      "stateMutability": "view",
      "type": "function"
    },
    {
      "inputs": [],
      "name": "governanceAddress",
      "outputs": [
        {
          "internalType": "address",
          "name": "",
          "type": "address"
        }
      ],
      "stateMutability": "view",
      "type": "function"
    },
    {
      "inputs": [
        {
          "internalType": "bytes32",
          "name": "role",
          "type": "bytes32"
        },
        {
          "internalType": "address",
          "name": "account",
          "type": "address"
        }
      ],
      "name": "grantRole",
      "outputs": [],
      "stateMutability": "nonpayable",
      "type": "function"
    },
    {
      "inputs": [
        {
          "internalType": "bytes32",
          "name": "role",
          "type": "bytes32"
        },
        {
          "internalType": "address",
          "name": "account",
          "type": "address"
        }
      ],
      "name": "hasRole",
      "outputs": [
        {
          "internalType": "bool",
          "name": "",
          "type": "bool"
        }
      ],
      "stateMutability": "view",
      "type": "function"
    },
    {
      "inputs": [
        {
          "internalType": "address",
          "name": "spender",
          "type": "address"
        },
        {
          "internalType": "uint256",
          "name": "addedValue",
          "type": "uint256"
        }
      ],
      "name": "increaseAllowance",
      "outputs": [
        {
          "internalType": "bool",
          "name": "",
          "type": "bool"
        }
      ],
      "stateMutability": "nonpayable",
      "type": "function"
    },
    {
      "inputs": [
        {
          "internalType": "address",
          "name": "",
          "type": "address"
        }
      ],
      "name": "isMember",
      "outputs": [
        {
          "internalType": "bool",
          "name": "",
          "type": "bool"
        }
      ],
      "stateMutability": "view",
      "type": "function"
    },
    {
      "inputs": [
        {
          "internalType": "address",
          "name": "to",
          "type": "address"
        },
        {
          "internalType": "uint256",
          "name": "amount",
          "type": "uint256"
        },
        {
          "internalType": "string",
          "name": "reason",
          "type": "string"
        }
      ],
      "name": "mint",
      "outputs": [],
      "stateMutability": "nonpayable",
      "type": "function"
    },
    {
      "inputs": [],
      "name": "name",
      "outputs": [
        {
          "internalType": "string",
          "name": "",
          "type": "string"
        }
      ],
      "stateMutability": "view",
      "type": "function"
    },
    {
      "inputs": [
        {
          "internalType": "address",
          "name": "owner",
          "type": "address"
        }
      ],
      "name": "nonces",
      "outputs": [
        {
          "internalType": "uint256",
          "name": "",
          "type": "uint256"
        }
      ],
      "stateMutability": "view",
      "type": "function"
    },
    {
      "inputs": [
        {
          "internalType": "address",
          "name": "account",
          "type": "address"
        }
      ],
      "name": "numCheckpoints",
      "outputs": [
        {
          "internalType": "uint32",
          "name": "",
          "type": "uint32"
        }
      ],
      "stateMutability": "view",
      "type": "function"
    },
    {
      "inputs": [],
      "name": "pause",
      "outputs": [],
      "stateMutability": "nonpayable",
      "type": "function"
    },
    {
      "inputs": [],
      "name": "paused",
      "outputs": [
        {
          "internalType": "bool",
          "name": "",
          "type": "bool"
        }
      ],
      "stateMutability": "view",
      "type": "function"
    },
    {
      "inputs": [
        {
          "internalType": "address",
          "name": "owner",
          "type": "address"
        },
        {
          "internalType": "address",
          "name": "spender",
          "type": "address"
        },
        {
          "internalType": "uint256",
          "name": "value",
          "type": "uint256"
        },
        {
          "internalType": "uint256",
          "name": "deadline",
          "type": "uint256"
        },
        {
          "internalType": "uint8",
          "name": "v",
          "type": "uint8"
        },
        {
          "internalType": "bytes32",
          "name": "r",
          "type": "bytes32"
        },
        {
          "internalType": "bytes32",
          "name": "s",
          "type": "bytes32"
        }
      ],
      "name": "permit",
      "outputs": [],
      "stateMutability": "nonpayable",
      "type": "function"
    },
    {
      "inputs": [],
      "name": "publicAddress",
      "outputs": [
        {
          "internalType": "address",
          "name": "",
          "type": "address"
        }
      ],
      "stateMutability": "view",
      "type": "function"
    },
    {
      "inputs": [
        {
          "internalType": "enum EminarToken.BackingAsset",
          "name": "asset",
          "type": "uint8"
        },
        {
          "internalType": "address",
          "name": "token",
          "type": "address"
        }
      ],
      "name": "registerBackingToken",
      "outputs": [],
      "stateMutability": "nonpayable",
      "type": "function"
    },
    {
      "inputs": [
        {
          "internalType": "bytes32",
          "name": "role",
          "type": "bytes32"
        },
        {
          "internalType": "address",
          "name": "account",
          "type": "address"
        }
      ],
      "name": "renounceRole",
      "outputs": [],
      "stateMutability": "nonpayable",
      "type": "function"
    },
    {
      "inputs": [],
      "name": "reserveAddress",
      "outputs": [
        {
          "internalType": "address",
          "name": "",
          "type": "address"
        }
      ],
      "stateMutability": "view",
      "type": "function"
    },
    {
      "inputs": [
        {
          "internalType": "bytes32",
          "name": "role",
          "type": "bytes32"
        },
        {
          "internalType": "address",
          "name": "account",
          "type": "address"
        }
      ],
      "name": "revokeRole",
      "outputs": [],
      "stateMutability": "nonpayable",
      "type": "function"
    },
    {
      "inputs": [
        {
          "internalType": "enum EminarToken.BackingAsset",
          "name": "asset",
          "type": "uint8"
        },
        {
          "internalType": "uint256",
          "name": "priceUSD",
          "type": "uint256"
        }
      ],
      "name": "setAssetPriceUSD",
      "outputs": [],
      "stateMutability": "nonpayable",
      "type": "function"
    },
    {
      "inputs": [],
      "name": "shariaTrustAddress",
      "outputs": [
        {
          "internalType": "address",
          "name": "",
          "type": "address"
        }
      ],
      "stateMutability": "view",
      "type": "function"
    },
    {
      "inputs": [],
      "name": "strategicPartnersAddress",
      "outputs": [
        {
          "internalType": "address",
          "name": "",
          "type": "address"
        }
      ],
      "stateMutability": "view",
      "type": "function"
    },
    {
      "inputs": [
        {
          "internalType": "bytes4",
          "name": "interfaceId",
          "type": "bytes4"
        }
      ],
      "name": "supportsInterface",
      "outputs": [
        {
          "internalType": "bool",
          "name": "",
          "type": "bool"
        }
      ],
      "stateMutability": "view",
      "type": "function"
    },
    {
      "inputs": [],
      "name": "symbol",
      "outputs": [
        {
          "internalType": "string",
          "name": "",
          "type": "string"
        }
      ],
      "stateMutability": "view",
      "type": "function"
    },
    {
      "inputs": [],
      "name": "totalBackingValueUSD",
      "outputs": [
        {
          "internalType": "uint256",
          "name": "",
          "type": "uint256"
        }
      ],
      "stateMutability": "view",
      "type": "function"
    },
    {
      "inputs": [],
      "name": "totalSupply",
      "outputs": [
        {
          "internalType": "uint256",
          "name": "",
          "type": "uint256"
        }
      ],
      "stateMutability": "view",
      "type": "function"
    },
    {
      "inputs": [
        {
          "internalType": "address",
          "name": "to",
          "type": "address"
        },
        {
          "internalType": "uint256",
          "name": "amount",
          "type": "uint256"
        }
      ],
      "name": "transfer",
      "outputs": [
        {
          "internalType": "bool",
          "name": "",
          "type": "bool"
        }
      ],
      "stateMutability": "nonpayable",
      "type": "function"
    },
    {
      "inputs": [
        {
          "internalType": "address",
          "name": "from",
          "type": "address"
        },
        {
          "internalType": "address",
          "name": "to",
          "type": "address"
        },
        {
          "internalType": "uint256",
          "name": "amount",
          "type": "uint256"
        }
      ],
      "name": "transferFrom",
      "outputs": [
        {
          "internalType": "bool",
          "name": "",
          "type": "bool"
        }
      ],
      "stateMutability": "nonpayable",
      "type": "function"
    },
    {
      "inputs": [],
      "name": "unpause",
      "outputs": [],
      "stateMutability": "nonpayable",
      "type": "function"
    },
    {
      "inputs": [
        {
          "internalType": "enum EminarToken.BackingAsset",
          "name": "asset",
          "type": "uint8"
        }
      ],
      "name": "unregisterBackingToken",
      "outputs": [],
      "stateMutability": "nonpayable",
      "type": "function"
    },
    {
      "inputs": [
        {
          "internalType": "address",
          "name": "newAddress",
          "type": "address"
        }
      ],
      "name": "updateDevelopmentAddress",
      "outputs": [],
      "stateMutability": "nonpayable",
      "type": "function"
    },
    {
      "inputs": [
        {
          "internalType": "address",
          "name": "governanceMultisig_",
          "type": "address"
        }
      ],
      "name": "updateGovernance",
      "outputs": [],
      "stateMutability": "nonpayable",
      "type": "function"
    },
    {
      "inputs": [
        {
          "internalType": "address",
          "name": "newAddress",
          "type": "address"
        }
      ],
      "name": "updatePublicAddress",
      "outputs": [],
      "stateMutability": "nonpayable",
      "type": "function"
    },
    {
      "inputs": [
        {
          "internalType": "address",
          "name": "newAddress",
          "type": "address"
        }
      ],
      "name": "updateReserveAddress",
      "outputs": [],
      "stateMutability": "nonpayable",
      "type": "function"
    },
    {
      "inputs": [
        {
          "internalType": "enum EminarToken.BackingAsset",
          "name": "asset",
          "type": "uint8"
        },
        {
          "internalType": "address",
          "name": "to",
          "type": "address"
        },
        {
          "internalType": "uint256",
          "name": "amount",
          "type": "uint256"
        }
      ],
      "name": "withdrawBacking",
      "outputs": [],
      "stateMutability": "nonpayable",
      "type": "function"
    }
  ],
  "bytecode": "0x61016060405234801561001157600080fd5b506040516153dd3803806153dd83398101604081905261003091610ab6565b6040805180820190915260018152603160f81b6020820152879081908189600361005a8382610bfa565b5060046100678282610bfa565b5061007791508390506005610329565b61012052610086816006610329565b61014052815160208084019190912060e052815190820120610100524660a05261011360e05161010051604080517f8b73c3c69bb8fe3d512ecc4cf759cc79239f7b179b0ffacaa9a75d522b39400f60208201529081019290925260608201524660808201523060a082015260009060c00160405160208183030381529060405280519060200120905090565b60805250503060c05250600d805460ff191690556001600160a01b038516158061014457506001600160a01b038416155b8061015657506001600160a01b038316155b8061016857506001600160a01b038216155b8061017a57506001600160a01b038116155b156101985760405163d92e233d60e01b815260040160405180910390fd5b601480546001600160a01b03199081166001600160a01b038881169182178455601080548416898316178155601180548516898416178155601280548616898516178155601380549096168885161786556000948552600f6020526040808620805460ff1990811660019081179092559454861687528187208054861682179055925485168652808620805485168417905590548416855280852080548416831790559454831684529390922080549092169092179055905461027d9116606461026e6a52b7d2dcc80cd2e40000006028610cce565b6102789190610ce5565b61035c565b6010546102a5906001600160a01b0316606461026e6a52b7d2dcc80cd2e40000006014610cce565b6011546102cd906001600160a01b0316606461026e6a52b7d2dcc80cd2e40000006014610cce565b6012546102f5906001600160a01b0316606461026e6a52b7d2dcc80cd2e4000000600a610cce565b60135461031d906001600160a01b0316606461026e6a52b7d2dcc80cd2e4000000600a610cce565b50505050505050610d84565b60006020835110156103455761033e8361036a565b9050610356565b816103508482610bfa565b5060ff90505b92915050565b61036682826103b1565b5050565b600080829050601f8151111561039e578260405163305a27a960e01b81526004016103959190610d07565b60405180910390fd5b80516103a982610d3a565b179392505050565b6103bb828261044f565b6001600160e01b036103cd6105228216565b11156104345760405162461bcd60e51b815260206004820152603060248201527f4552433230566f7465733a20746f74616c20737570706c79207269736b73206f60448201526f766572666c6f77696e6720766f74657360801b6064820152608401610395565b610449600b61242d61052860201b178361053b565b50505050565b6001600160a01b0382166104a55760405162461bcd60e51b815260206004820152601f60248201527f45524332303a206d696e7420746f20746865207a65726f2061646472657373006044820152606401610395565b6104b1600083836106b3565b80600260008282546104c39190610d5e565b90915550506001600160a01b038216600081815260208181526040808320805486019055518481527fddf252ad1be2c89b69c2b068fc378daa952ba7f163c4a11628f55a4df523b3ef910160405180910390a3610366600083836106d2565b60025490565b60006105348284610d5e565b9392505050565b825460009081908181156105885760008781526020902082016000190160408051808201909152905463ffffffff8116825264010000000090046001600160e01b0316602082015261059d565b60408051808201909152600080825260208201525b905080602001516001600160e01b031693506105ba84868860201c565b92506000821180156105e457506105cf6106dd565b65ffffffffffff16816000015163ffffffff16145b15610629576105f2836106ed565b60008881526020902083016000190180546001600160e01b03929092166401000000000263ffffffff9092169190911790556106a9565b8660405180604001604052806106536106466106dd60201b60201c565b65ffffffffffff1661075a565b63ffffffff168152602001610667866106ed565b6001600160e01b0390811690915282546001810184556000938452602093849020835194909301519091166401000000000263ffffffff909316929092179101555b5050935093915050565b6106bb6107bf565b6106cd8383836001600160e01b038416565b505050565b6106cd838383610807565b60006106e843610839565b905090565b60006001600160e01b038211156107565760405162461bcd60e51b815260206004820152602760248201527f53616665436173743a2076616c756520646f65736e27742066697420696e20326044820152663234206269747360c81b6064820152608401610395565b5090565b600063ffffffff8211156107565760405162461bcd60e51b815260206004820152602660248201527f53616665436173743a2076616c756520646f65736e27742066697420696e203360448201526532206269747360d01b6064820152608401610395565b600d5460ff16156108055760405162461bcd60e51b815260206004820152601060248201526f14185d5cd8589b194e881c185d5cd95960821b6044820152606401610395565b565b6001600160a01b038381166000908152600960205260408082205485841683529120546106cd929182169116836108a0565b600065ffffffffffff8211156107565760405162461bcd60e51b815260206004820152602660248201527f53616665436173743a2076616c756520646f65736e27742066697420696e203460448201526538206269747360d01b6064820152608401610395565b816001600160a01b0316836001600160a01b0316141580156108c25750600081115b156106cd576001600160a01b03831615610947576001600160a01b0383166000908152600a602090815260408220829161090691906109cb901b612439178561053b565b91509150846001600160a01b03166000805160206153bd833981519152838360405161093c929190918252602082015260400190565b60405180910390a250505b6001600160a01b038216156106cd576001600160a01b0382166000908152600a60209081526040822082916109869190610528901b61242d178561053b565b91509150836001600160a01b03166000805160206153bd83398151915283836040516109bc929190918252602082015260400190565b60405180910390a25050505050565b60006105348284610d71565b634e487b7160e01b600052604160045260246000fd5b60005b83811015610a085781810151838201526020016109f0565b50506000910152565b600082601f830112610a2257600080fd5b81516001600160401b03811115610a3b57610a3b6109d7565b604051601f8201601f19908116603f011681016001600160401b0381118282101715610a6957610a696109d7565b604052818152838201602001851015610a8157600080fd5b610a928260208301602087016109ed565b949350505050565b80516001600160a01b0381168114610ab157600080fd5b919050565b600080600080600080600060e0888a031215610ad157600080fd5b87516001600160401b03811115610ae757600080fd5b610af38a828b01610a11565b60208a015190985090506001600160401b03811115610b1157600080fd5b610b1d8a828b01610a11565b965050610b2c60408901610a9a565b9450610b3a60608901610a9a565b9350610b4860808901610a9a565b9250610b5660a08901610a9a565b9150610b6460c08901610a9a565b905092959891949750929550565b600181811c90821680610b8657607f821691505b602082108103610ba657634e487b7160e01b600052602260045260246000fd5b50919050565b601f8211156106cd57806000526020600020601f840160051c81016020851015610bd35750805b601f840160051c820191505b81811015610bf35760008155600101610bdf565b5050505050565b81516001600160401b03811115610c1357610c136109d7565b610c2781610c218454610b72565b84610bac565b6020601f821160018114610c5b5760008315610c435750848201515b600019600385901b1c1916600184901b178455610bf3565b600084815260208120601f198516915b82811015610c8b5787850151825560209485019460019092019101610c6b565b5084821015610ca95786840151600019600387901b60f8161c191681555b50505050600190811b01905550565b634e487b7160e01b600052601160045260246000fd5b808202811582820484141761035657610356610cb8565b600082610d0257634e487b7160e01b600052601260045260246000fd5b500490565b6020815260008251806020840152610d268160408501602087016109ed565b601f01601f19169190910160400192915050565b80516020808301519190811015610ba65760001960209190910360031b1b16919050565b8082018082111561035657610356610cb8565b8181038181111561035657610356610cb8565b60805160a05160c05160e0516101005161012051610140516145df610dde60003960006111350152600061110a0152600061294e0152600061292601526000612881015260006128ab015260006128d501526145df6000f3fe608060405234801561001057600080fd5b50600436106103f15760003560e01c806384b0196e11610215578063c69def0b11610125578063e07495e3116100b8578063f36c8f5c11610087578063f36c8f5c1461097a578063f676f3311461098f578063f79ed94b146109a2578063f84afd48146109b5578063fe64c681146109c857600080fd5b8063e07495e314610902578063e63ab1e914610915578063eb8f4c4a1461092a578063f1127ed81461093d57600080fd5b8063d5391393116100f4578063d5391393146108ad578063d547741f146108d4578063dd62ed3e146108e7578063dfef15b8146108fa57600080fd5b8063c69def0b14610823578063c8c7fe6b14610836578063d3fc986414610887578063d505accf1461089a57600080fd5b8063a230c524116101a8578063a978d8df11610177578063a978d8df146107cf578063ae621bbe146107e2578063aeeb73ea146107ea578063b2561263146107fd578063c3cda5201461081057600080fd5b8063a230c52414610773578063a34cea0814610796578063a457c2d7146107a9578063a9059cbb146107bc57600080fd5b806391ee2a3d116101e457806391ee2a3d1461073d57806395d89b41146107505780639ab24eb014610758578063a217fddf1461076b57600080fd5b806384b0196e146106dd5780638e539e8c146106f857806391d148541461070b57806391ddadf41461071e57600080fd5b806336568abe116103105780636042d5d4116102a35780636fcfff45116102725780636fcfff451461065e57806370a0823114610686578063795053d3146106af5780637ecebe00146106c25780638456cb59146106d557600080fd5b80636042d5d414610612578063626c3d4314610625578063638b1b1414610638578063694d9d171461064b57600080fd5b80634bf5d7e9116102df5780634bf5d7e9146105a8578063587cde1e146105b05780635c19a95c146105f45780635c975abb1461060757600080fd5b806336568abe14610567578063395093511461057a5780633a46b1a81461058d5780633f4ba83a146105a057600080fd5b8063248a9ca311610388578063313ce56711610357578063313ce5671461051657806331993a1c1461052557806332cb6b0c1461054c5780633644e5151461055f57600080fd5b8063248a9ca3146104a7578063282c51f3146104ca5780632f2ff15d146104f15780632ff2e9dc1461050457600080fd5b806315e98e73116103c457806315e98e731461046257806315f570dc1461047757806318160ddd1461048c57806323b872dd1461049457600080fd5b806301ffc9a7146103f657806306fdde031461041e578063095ea7b3146104335780630bc48ada14610446575b600080fd5b610409610404366004613e2f565b6109db565b60405190151581526020015b60405180910390f35b610426610a12565b6040516104159190613ea9565b610409610441366004613ed8565b610aa4565b6104546001600160801b0381565b604051908152602001610415565b61045460008051602061454a83398151915281565b61048a610485366004613fa7565b610abc565b005b600254610454565b6104096104a2366004613ffe565b610bc8565b6104546104b536600461403b565b6000908152600c602052604090206001015490565b6104547f3c11d16cbaffd01df69ce1c404f6340ee057498f5f00246190ea54220576a84881565b61048a6104ff366004614054565b610bec565b6104546a52b7d2dcc80cd2e400000081565b60405160128152602001610415565b6104547f0acf805600123ef007091da3b3ffb39474074c656c127aa68cb0ffec232a8ff881565b6104546b033b2e3c9fd0803ce800000081565b610454610c16565b61048a610575366004614054565b610c25565b610409610588366004613ed8565b610ca8565b61045461059b366004613ed8565b610cca565b61048a610d4f565b610426610d72565b6105dc6105be366004614080565b6001600160a01b039081166000908152600960205260409020541690565b6040516001600160a01b039091168152602001610415565b61048a610602366004614080565b610e0a565b600d5460ff16610409565b61048a6106203660046140aa565b610e14565b6013546105dc906001600160a01b031681565b6011546105dc906001600160a01b031681565b61048a610659366004614080565b610fe2565b61067161066c366004614080565b61109c565b60405163ffffffff9091168152602001610415565b610454610694366004614080565b6001600160a01b031660009081526020819052604090205490565b6015546105dc906001600160a01b031681565b6104546106d0366004614080565b6110be565b61048a6110dc565b6106e56110fc565b60405161041597969594939291906140c5565b61045461070636600461403b565b611185565b610409610719366004614054565b6111ec565b610726611217565b60405165ffffffffffff9091168152602001610415565b61048a61074b36600461415d565b611222565b6104266113c0565b610454610766366004614080565b6113cf565b610454600081565b610409610781366004614080565b600f6020526000908152604090205460ff1681565b61048a6107a4366004614179565b611451565b6104096107b7366004613ed8565b611688565b6104096107ca366004613ed8565b611703565b61048a6107dd36600461415d565b611711565b610454611866565b61048a6107f8366004614080565b611941565b61048a61080b366004614080565b6119b2565b61048a61081e3660046141a8565b611ad8565b61048a610831366004614200565b611c0e565b6108496108443660046140aa565b611d73565b604051610415919081516001600160a01b03168152602080830151908201526040808301519082015260609182015115159181019190915260800190565b61048a610895366004613fa7565b611e45565b61048a6108a836600461422a565b611f90565b6104547f9f2df0fed2c77648de5860a4cc508cd0818c85b8b8a1ab4ceeef8d981c8956a681565b61048a6108e2366004614054565b6120f4565b6104546108f5366004614295565b612119565b610454612144565b61048a6109103660046142b1565b61219b565b61045460008051602061458a83398151915281565b61048a610938366004613ffe565b612239565b61095061094b3660046142f8565b612337565b60408051825163ffffffff1681526020928301516001600160e01b03169281019290925201610415565b61045460008051602061456a83398151915281565b6014546105dc906001600160a01b031681565b6010546105dc906001600160a01b031681565b61048a6109c3366004614080565b6123bb565b6012546105dc906001600160a01b031681565b60006001600160e01b03198216637965db0b60e01b1480610a0c57506301ffc9a760e01b6001600160e01b03198316145b92915050565b606060038054610a2190614338565b80601f0160208091040260200160405190810160405280929190818152602001828054610a4d90614338565b8015610a9a5780601f10610a6f57610100808354040283529160200191610a9a565b820191906000526020600020905b815481529060010190602001808311610a7d57829003601f168201915b5050505050905090565b600033610ab2818585612445565b5060019392505050565b7f3c11d16cbaffd01df69ce1c404f6340ee057498f5f00246190ea54220576a848610ae681612569565b610aee612573565b6001600160a01b038416610b155760405163d92e233d60e01b815260040160405180910390fd5b82600003610b3657604051631f2a200560e01b815260040160405180910390fd5b82610b56856001600160a01b031660009081526020819052604090205490565b1015610b7557604051631e9acf1760e31b815260040160405180910390fd5b610b7f84846125bb565b836001600160a01b03167ffad31924d655455395c87544c8aa1ffdb5a7505a22a3c2e03f28003b6556a75f8484604051610bba92919061436c565b60405180910390a250505050565b600033610bd68582856125c5565b610be1858585612639565b506001949350505050565b6000828152600c6020526040902060010154610c0781612569565b610c1183836127ee565b505050565b6000610c20612874565b905090565b6001600160a01b0381163314610c9a5760405162461bcd60e51b815260206004820152602f60248201527f416363657373436f6e74726f6c3a2063616e206f6e6c792072656e6f756e636560448201526e103937b632b9903337b91039b2b63360891b60648201526084015b60405180910390fd5b610ca4828261299f565b5050565b600033610ab2818585610cbb8383612119565b610cc5919061439b565b612445565b6000610cd4611217565b65ffffffffffff168210610d265760405162461bcd60e51b815260206004820152601960248201527804552433230566f7465733a20667574757265206c6f6f6b757603c1b6044820152606401610c91565b6001600160a01b0383166000908152600a60205260409020610d489083612a06565b9392505050565b60008051602061458a833981519152610d6781612569565b610d6f612aef565b50565b606043610d7d611217565b65ffffffffffff1614610dd25760405162461bcd60e51b815260206004820152601d60248201527f4552433230566f7465733a2062726f6b656e20636c6f636b206d6f64650000006044820152606401610c91565b5060408051808201909152601d81527f6d6f64653d626c6f636b6e756d6265722666726f6d3d64656661756c74000000602082015290565b610d6f3382612b41565b60008051602061454a833981519152610e2c81612569565b6002826002811115610e4057610e406143ae565b1115610e5f57604051636448d6e960e11b815260040160405180910390fd5b600e6000836002811115610e7557610e756143ae565b6002811115610e8657610e866143ae565b815260208101919091526040016000206003015460ff16610eba57604051630719d53360e21b815260040160405180910390fd5b6000600e6000846002811115610ed257610ed26143ae565b6002811115610ee357610ee36143ae565b8152602001908152602001600020600101541115610f14576040516340db7f8760e01b815260040160405180910390fd5b6000600e6000846002811115610f2c57610f2c6143ae565b6002811115610f3d57610f3d6143ae565b815260200190815260200160002060030160006101000a81548160ff0219169083151502179055506000600e6000846002811115610f7d57610f7d6143ae565b6002811115610f8e57610f8e6143ae565b815260200190815260200160002060020181905550816002811115610fb557610fb56143ae565b6040517f8b56d0949004b9ec276cc1fa05c8edd80c00371256c79fb5286504b2e2ed105f90600090a25050565b60008051602061456a833981519152610ffa81612569565b6001600160a01b0382166110215760405163d92e233d60e01b815260040160405180910390fd5b601180546001600160a01b0319166001600160a01b0384161790556040516a111155915313d41351539560aa1b8152600b015b6040519081900381206001600160a01b0384168252907f943e9d45a11aaae5d87503e3bc248665d9807856e5cf2bdb4a988bee44422781906020015b60405180910390a25050565b6001600160a01b0381166000908152600a6020526040812054610a0c90612bba565b6001600160a01b038116600090815260076020526040812054610a0c565b60008051602061458a8339815191526110f481612569565b610d6f612c23565b6000606080828080836111307f00000000000000000000000000000000000000000000000000000000000000006005612c60565b61115b7f00000000000000000000000000000000000000000000000000000000000000006006612c60565b60408051600080825260208201909252600f60f81b9b939a50919850469750309650945092509050565b600061118f611217565b65ffffffffffff1682106111e15760405162461bcd60e51b815260206004820152601960248201527804552433230566f7465733a20667574757265206c6f6f6b757603c1b6044820152606401610c91565b610a0c600b83612a06565b6000918252600c602090815260408084206001600160a01b0393909316845291905290205460ff1690565b6000610c2043612d0b565b61122a612573565b600282600281111561123e5761123e6143ae565b111561125d57604051636448d6e960e11b815260040160405180910390fd5b600e6000836002811115611273576112736143ae565b6002811115611284576112846143ae565b815260208101919091526040016000206003015460ff166112b857604051630719d53360e21b815260040160405180910390fd5b806000036112d957604051631f2a200560e01b815260040160405180910390fd5b611328333083600e60008760028111156112f5576112f56143ae565b6002811115611306576113066143ae565b81526020810191909152604001600020546001600160a01b0316929190612d72565b80600e600084600281111561133f5761133f6143ae565b6002811115611350576113506143ae565b81526020019081526020016000206001016000828254611370919061439b565b90915550339050826002811115611389576113896143ae565b6040518381527f6a2b04b1f3d5a335c4367fea39bb8807ef0a4fbe77a2772700c8f9c90c1c9a1b9060200160405180910390a35050565b606060048054610a2190614338565b6001600160a01b0381166000908152600a6020526040812054801561143e576001600160a01b0383166000908152600a602052604090208054600019830190811061141c5761141c6143c4565b60009182526020909120015464010000000090046001600160e01b0316611441565b60005b6001600160e01b03169392505050565b60008051602061454a83398151915261146981612569565b6001600160a01b0383166114905760405163d92e233d60e01b815260040160405180910390fd5b816000036114b157604051631f2a200560e01b815260040160405180910390fd5b60028460028111156114c5576114c56143ae565b11156114e457604051636448d6e960e11b815260040160405180910390fd5b600e60008560028111156114fa576114fa6143ae565b600281111561150b5761150b6143ae565b815260208101919091526040016000206003015460ff1661153f57604051630719d53360e21b815260040160405180910390fd5b81600e6000866002811115611556576115566143ae565b6002811115611567576115676143ae565b8152602001908152602001600020600101541015611598576040516340db7f8760e01b815260040160405180910390fd5b81600e60008660028111156115af576115af6143ae565b60028111156115c0576115c06143ae565b815260200190815260200160002060010160008282546115e091906143da565b9091555061163390508383600e6000886002811115611601576116016143ae565b6002811115611612576116126143ae565b81526020810191909152604001600020546001600160a01b03169190612ddd565b826001600160a01b031684600281111561164f5761164f6143ae565b6040518481527fe3aab926d81700bac87dab01982e77e751c07d1acca11c13ff44aae1193a5f549060200160405180910390a350505050565b600033816116968286612119565b9050838110156116f65760405162461bcd60e51b815260206004820152602560248201527f45524332303a2064656372656173656420616c6c6f77616e63652062656c6f77604482015264207a65726f60d81b6064820152608401610c91565b610be18286868403612445565b600033610ab2818585612639565b60008051602061454a83398151915261172981612569565b600283600281111561173d5761173d6143ae565b111561175c57604051636448d6e960e11b815260040160405180910390fd5b600e6000846002811115611772576117726143ae565b6002811115611783576117836143ae565b815260208101919091526040016000206003015460ff166117b757604051630719d53360e21b815260040160405180910390fd5b6001600160801b038211156117de5760405162bfc92160e01b815260040160405180910390fd5b81600e60008560028111156117f5576117f56143ae565b6002811115611806576118066143ae565b81526020019081526020016000206002018190555082600281111561182d5761182d6143ae565b6040518381527f2d292c5b6330b5b0f99b665ec1be838ca17cd57eb118fe7a02cc05477b5bd42f906020015b60405180910390a2505050565b600080805b6002811161193b576000816002811115611887576118876143ae565b90506000600e60008360028111156118a1576118a16143ae565b60028111156118b2576118b26143ae565b81526020810191909152604001600020600381015490915060ff1680156118dd575060008160020154115b80156118ed575060008160010154115b1561192657670de0b6b3a76400008160020154826001015461190f91906143ed565b611919919061441a565b611923908561439b565b93505b505080806119339061443c565b91505061186b565b50919050565b60008051602061456a83398151915261195981612569565b6001600160a01b0382166119805760405163d92e233d60e01b815260040160405180910390fd5b601480546001600160a01b0319166001600160a01b038416179055604051655055424c494360d01b8152600601611054565b6015546001600160a01b031615611a045760405162461bcd60e51b815260206004820152601660248201527511dbdd995c9b985b98d948185b1c9958591e481cd95d60521b6044820152606401610c91565b336000908152600f602052604090205460ff16611a545760405162461bcd60e51b815260206004820152600e60248201526d139bdd08185d5d1a1bdc9a5e995960921b6044820152606401610c91565b611a7e7f9f2df0fed2c77648de5860a4cc508cd0818c85b8b8a1ab4ceeef8d981c8956a6826127ee565b611aa87f3c11d16cbaffd01df69ce1c404f6340ee057498f5f00246190ea54220576a848826127ee565b611ac060008051602061458a833981519152826127ee565b610d6f60008051602061456a833981519152826127ee565b83421115611b285760405162461bcd60e51b815260206004820152601d60248201527f4552433230566f7465733a207369676e617475726520657870697265640000006044820152606401610c91565b604080517fe48329057bfd03d55e49b547132e39cffd9c1820ad7b9d4c5307691425d15adf60208201526001600160a01b038816918101919091526060810186905260808101859052600090611ba290611b9a9060a00160405160208183030381529060405280519060200120612e0d565b858585612e3a565b9050611bad81612e64565b8614611bfb5760405162461bcd60e51b815260206004820152601960248201527f4552433230566f7465733a20696e76616c6964206e6f6e6365000000000000006044820152606401610c91565b611c058188612b41565b50505050505050565b60008051602061454a833981519152611c2681612569565b6001600160a01b038216611c4d5760405163d92e233d60e01b815260040160405180910390fd5b6002836002811115611c6157611c616143ae565b1115611c8057604051636448d6e960e11b815260040160405180910390fd5b81600e6000856002811115611c9757611c976143ae565b6002811115611ca857611ca86143ae565b815260200190815260200160002060000160006101000a8154816001600160a01b0302191690836001600160a01b031602179055506001600e6000856002811115611cf557611cf56143ae565b6002811115611d0657611d066143ae565b81526020810191909152604001600020600301805460ff1916911515919091179055826002811115611d3a57611d3a6143ae565b6040516001600160a01b03841681527f561acd69f877decb2be770ca93ef06bb6a9e5d65defa3bace8eab67feecac57290602001611859565b6040805160808101825260008082526020820181905291810182905260608101919091526002826002811115611dab57611dab6143ae565b1115611dca57604051636448d6e960e11b815260040160405180910390fd5b600e6000836002811115611de057611de06143ae565b6002811115611df157611df16143ae565b81526020808201929092526040908101600020815160808101835281546001600160a01b031681526001820154938101939093526002810154918301919091526003015460ff161515606082015292915050565b7f9f2df0fed2c77648de5860a4cc508cd0818c85b8b8a1ab4ceeef8d981c8956a6611e6f81612569565b611e77612573565b611e9f604051806040016040528060078152602001666d696e74696e6760c81b815250612e8a565b611ec360405180604001604052806002815260200161746f60f01b81525085612ecd565b6001600160a01b038416611eea5760405163d92e233d60e01b815260040160405180910390fd5b82600003611f0b57604051631f2a200560e01b815260040160405180910390fd5b6b033b2e3c9fd0803ce800000083611f2260025490565b611f2c919061439b565b1115611f4b5760405163c30436e960e01b815260040160405180910390fd5b611f558484612f12565b836001600160a01b03167f9d89e36eadf856db0ad9ffb5a569e07f95634dddd9501141ecf04820484ad0dc8484604051610bba92919061436c565b83421115611fe05760405162461bcd60e51b815260206004820152601d60248201527f45524332305065726d69743a206578706972656420646561646c696e650000006044820152606401610c91565b60007f6e71edae12b1b97f4d1f60370fef10105fa2faae0126114a169c64845d6126c988888861200f8c612e64565b6040805160208101969096526001600160a01b0394851690860152929091166060840152608083015260a082015260c0810186905260e001604051602081830303815290604052805190602001209050600061206a82612e0d565b9050600061207a82878787612e3a565b9050896001600160a01b0316816001600160a01b0316146120dd5760405162461bcd60e51b815260206004820152601e60248201527f45524332305065726d69743a20696e76616c6964207369676e617475726500006044820152606401610c91565b6120e88a8a8a612445565b50505050505050505050565b6000828152600c602052604090206001015461210f81612569565b610c11838361299f565b6001600160a01b03918216600090815260016020908152604080832093909416825291909152205490565b60008061214f611866565b9050600061215c60025490565b9050811580612169575080155b156121775760009250505090565b8061218a83670de0b6b3a76400006143ed565b612194919061441a565b9250505090565b6121a3612573565b816000036121c457604051631f2a200560e01b815260040160405180910390fd5b336000908152602081905260409020548211156121f457604051631e9acf1760e31b815260040160405180910390fd5b6121fe33836125bb565b336001600160a01b03167ffad31924d655455395c87544c8aa1ffdb5a7505a22a3c2e03f28003b6556a75f838360405161109092919061436c565b7f0acf805600123ef007091da3b3ffb39474074c656c127aa68cb0ffec232a8ff861226381612569565b6001600160a01b03831661228a5760405163d92e233d60e01b815260040160405180910390fd5b60005b6002811161231c57600e60008260028111156122ab576122ab6143ae565b60028111156122bc576122bc6143ae565b60028111156122cd576122cd6143ae565b81526020810191909152604001600020546001600160a01b039081169086160361230a576040516340db7f8760e01b815260040160405180910390fd5b806123148161443c565b91505061228d565b506123316001600160a01b0385168484612ddd565b50505050565b60408051808201909152600080825260208201526001600160a01b0383166000908152600a60205260409020805463ffffffff841690811061237b5761237b6143c4565b60009182526020918290206040805180820190915291015463ffffffff8116825264010000000090046001600160e01b0316918101919091529392505050565b60008051602061456a8339815191526123d381612569565b6001600160a01b0382166123fa5760405163d92e233d60e01b815260040160405180910390fd5b601080546001600160a01b0319166001600160a01b038416179055604051665245534552564560c81b8152600701611054565b6000610d48828461439b565b6000610d4882846143da565b6001600160a01b0383166124a75760405162461bcd60e51b8152602060048201526024808201527f45524332303a20617070726f76652066726f6d20746865207a65726f206164646044820152637265737360e01b6064820152608401610c91565b6001600160a01b0382166125085760405162461bcd60e51b815260206004820152602260248201527f45524332303a20617070726f766520746f20746865207a65726f206164647265604482015261737360f01b6064820152608401610c91565b6001600160a01b0383811660008181526001602090815260408083209487168084529482529182902085905590518481527f8c5be1e5ebec7d5bd14f71427d1e84f3dd0314c0f7b2291e5b200ac8c7c3b925910160405180910390a3505050565b610d6f8133612f1c565b600d5460ff16156125b95760405162461bcd60e51b815260206004820152601060248201526f14185d5cd8589b194e881c185d5cd95960821b6044820152606401610c91565b565b610ca48282612f75565b60006125d18484612119565b90506000198114612331578181101561262c5760405162461bcd60e51b815260206004820152601d60248201527f45524332303a20696e73756666696369656e7420616c6c6f77616e63650000006044820152606401610c91565b6123318484848403612445565b6001600160a01b03831661269d5760405162461bcd60e51b815260206004820152602560248201527f45524332303a207472616e736665722066726f6d20746865207a65726f206164604482015264647265737360d81b6064820152608401610c91565b6001600160a01b0382166126ff5760405162461bcd60e51b815260206004820152602360248201527f45524332303a207472616e7366657220746f20746865207a65726f206164647260448201526265737360e81b6064820152608401610c91565b61270a838383612f8d565b6001600160a01b038316600090815260208190526040902054818110156127825760405162461bcd60e51b815260206004820152602660248201527f45524332303a207472616e7366657220616d6f756e7420657863656564732062604482015265616c616e636560d01b6064820152608401610c91565b6001600160a01b03848116600081815260208181526040808320878703905593871680835291849020805487019055925185815290927fddf252ad1be2c89b69c2b068fc378daa952ba7f163c4a11628f55a4df523b3ef910160405180910390a3612331848484612f95565b6127f882826111ec565b610ca4576000828152600c602090815260408083206001600160a01b03851684529091529020805460ff191660011790556128303390565b6001600160a01b0316816001600160a01b0316837f2f8788117e7eff1d82e926ec794901d17c78024a50270940304540a733656f0d60405160405180910390a45050565b6000306001600160a01b037f0000000000000000000000000000000000000000000000000000000000000000161480156128cd57507f000000000000000000000000000000000000000000000000000000000000000046145b156128f757507f000000000000000000000000000000000000000000000000000000000000000090565b610c20604080517f8b73c3c69bb8fe3d512ecc4cf759cc79239f7b179b0ffacaa9a75d522b39400f60208201527f0000000000000000000000000000000000000000000000000000000000000000918101919091527f000000000000000000000000000000000000000000000000000000000000000060608201524660808201523060a082015260009060c00160405160208183030381529060405280519060200120905090565b6129a982826111ec565b15610ca4576000828152600c602090815260408083206001600160a01b0385168085529252808320805460ff1916905551339285917ff6391f5c32d9c69d2a47ea670b442974b53935d1edc7fd64eb21e047a839171b9190a45050565b815460009081816005811115612a60576000612a2184612fa0565b612a2b90856143da565b600088815260209020909150869082015463ffffffff161115612a5057809150612a5e565b612a5b81600161439b565b92505b505b80821015612aad576000612a748383613088565b600088815260209020909150869082015463ffffffff161115612a9957809150612aa7565b612aa481600161439b565b92505b50612a60565b8015612ad9576000868152602090208101600019015464010000000090046001600160e01b0316612adc565b60005b6001600160e01b03169695505050505050565b612af76130a3565b600d805460ff191690557f5db9ee0a495bf2e6ff9c91a7834c1ba4fdd244a5e8aa4e537bd38aeae4b073aa335b6040516001600160a01b03909116815260200160405180910390a1565b6001600160a01b038281166000818152600960208181526040808420805485845282862054949093528787166001600160a01b03198416811790915590519190951694919391928592917f3134e8a2e6d97e929a7e54011ea5485d7d196dd5f0ba4d4ef95803e8e3fc257f9190a46123318284836130ec565b600063ffffffff821115612c1f5760405162461bcd60e51b815260206004820152602660248201527f53616665436173743a2076616c756520646f65736e27742066697420696e203360448201526532206269747360d01b6064820152608401610c91565b5090565b612c2b612573565b600d805460ff191660011790557f62e78cea01bee320cd4e420270b5ea74000d11b0c9f74754ebdbfc544b05a258612b243390565b606060ff8314612c7a57612c7383613229565b9050610a0c565b818054612c8690614338565b80601f0160208091040260200160405190810160405280929190818152602001828054612cb290614338565b8015612cff5780601f10612cd457610100808354040283529160200191612cff565b820191906000526020600020905b815481529060010190602001808311612ce257829003601f168201915b50505050509050610a0c565b600065ffffffffffff821115612c1f5760405162461bcd60e51b815260206004820152602660248201527f53616665436173743a2076616c756520646f65736e27742066697420696e203460448201526538206269747360d01b6064820152608401610c91565b6040516001600160a01b03808516602483015283166044820152606481018290526123319085906323b872dd60e01b906084015b60408051601f198184030181529190526020810180516001600160e01b03166001600160e01b031990931692909217909152613268565b6040516001600160a01b038316602482015260448101829052610c1190849063a9059cbb60e01b90606401612da6565b6000610a0c612e1a612874565b8360405161190160f01b8152600281019290925260228201526042902090565b6000806000612e4b8787878761333d565b91509150612e5881613401565b5090505b949350505050565b6001600160a01b038116600090815260076020526040902080546001810182559061193b565b610d6f81604051602401612e9e9190613ea9565b60408051601f198184030181529190526020810180516001600160e01b031663104c13eb60e21b17905261354b565b610ca48282604051602401612ee3929190614455565b60408051601f198184030181529190526020810180516001600160e01b031663319af33360e01b17905261354b565b610ca48282613554565b612f2682826111ec565b610ca457612f33816135de565b612f3e8360206135f0565b604051602001612f4f92919061447f565b60408051601f198184030181529082905262461bcd60e51b8252610c9191600401613ea9565b612f7f828261378c565b612331600b612439836138d1565b610c11612573565b610c11838383613a46565b600081600003612fb257506000919050565b60006001612fbf84613a78565b901c6001901b90506001818481612fd857612fd8614404565b048201901c90506001818481612ff057612ff0614404565b048201901c9050600181848161300857613008614404565b048201901c9050600181848161302057613020614404565b048201901c9050600181848161303857613038614404565b048201901c9050600181848161305057613050614404565b048201901c9050600181848161306857613068614404565b048201901c9050610d488182858161308257613082614404565b04613b0c565b6000613097600284841861441a565b610d489084841661439b565b600d5460ff166125b95760405162461bcd60e51b815260206004820152601460248201527314185d5cd8589b194e881b9bdd081c185d5cd95960621b6044820152606401610c91565b816001600160a01b0316836001600160a01b03161415801561310e5750600081115b15610c11576001600160a01b0383161561319c576001600160a01b0383166000908152600a60205260408120819061314990612439856138d1565b91509150846001600160a01b03167fdec2bacdd2f05b59de34da9b523dff8be42e5e38e818c82fdb0bae774387a7248383604051613191929190918252602082015260400190565b60405180910390a250505b6001600160a01b03821615610c11576001600160a01b0382166000908152600a6020526040812081906131d29061242d856138d1565b91509150836001600160a01b03167fdec2bacdd2f05b59de34da9b523dff8be42e5e38e818c82fdb0bae774387a724838360405161321a929190918252602082015260400190565b60405180910390a25050505050565b6060600061323683613b22565b604080516020808252818301909252919250600091906020820181803683375050509182525060208101929092525090565b60006132bd826040518060400160405280602081526020017f5361666545524332303a206c6f772d6c6576656c2063616c6c206661696c6564815250856001600160a01b0316613b4a9092919063ffffffff16565b90508051600014806132de5750808060200190518101906132de91906144f4565b610c115760405162461bcd60e51b815260206004820152602a60248201527f5361666545524332303a204552433230206f7065726174696f6e20646964206e6044820152691bdd081cdd58d8d9595960b21b6064820152608401610c91565b6000807f7fffffffffffffffffffffffffffffff5d576e7357a4501ddfe92f46681b20a083111561337457506000905060036133f8565b6040805160008082526020820180845289905260ff881692820192909252606081018690526080810185905260019060a0016020604051602081039080840390855afa1580156133c8573d6000803e3d6000fd5b5050604051601f1901519150506001600160a01b0381166133f1576000600192509250506133f8565b9150600090505b94509492505050565b6000816004811115613415576134156143ae565b0361341d5750565b6001816004811115613431576134316143ae565b0361347e5760405162461bcd60e51b815260206004820152601860248201527f45434453413a20696e76616c6964207369676e617475726500000000000000006044820152606401610c91565b6002816004811115613492576134926143ae565b036134df5760405162461bcd60e51b815260206004820152601f60248201527f45434453413a20696e76616c6964207369676e6174757265206c656e677468006044820152606401610c91565b60038160048111156134f3576134f36143ae565b03610d6f5760405162461bcd60e51b815260206004820152602260248201527f45434453413a20696e76616c6964207369676e6174757265202773272076616c604482015261756560f01b6064820152608401610c91565b610d6f81613b59565b61355e8282613b7a565b6002546001600160e01b0310156135d05760405162461bcd60e51b815260206004820152603060248201527f4552433230566f7465733a20746f74616c20737570706c79207269736b73206f60448201526f766572666c6f77696e6720766f74657360801b6064820152608401610c91565b612331600b61242d836138d1565b6060610a0c6001600160a01b03831660145b606060006135ff8360026143ed565b61360a90600261439b565b67ffffffffffffffff81111561362257613622613f02565b6040519080825280601f01601f19166020018201604052801561364c576020820181803683370190505b509050600360fc1b81600081518110613667576136676143c4565b60200101906001600160f81b031916908160001a905350600f60fb1b81600181518110613696576136966143c4565b60200101906001600160f81b031916908160001a90535060006136ba8460026143ed565b6136c590600161439b565b90505b600181111561373d576f181899199a1a9b1b9c1cb0b131b232b360811b85600f16601081106136f9576136f96143c4565b1a60f81b82828151811061370f5761370f6143c4565b60200101906001600160f81b031916908160001a90535060049490941c9361373681614516565b90506136c8565b508315610d485760405162461bcd60e51b815260206004820181905260248201527f537472696e67733a20686578206c656e67746820696e73756666696369656e746044820152606401610c91565b6001600160a01b0382166137ec5760405162461bcd60e51b815260206004820152602160248201527f45524332303a206275726e2066726f6d20746865207a65726f206164647265736044820152607360f81b6064820152608401610c91565b6137f882600083612f8d565b6001600160a01b0382166000908152602081905260409020548181101561386c5760405162461bcd60e51b815260206004820152602260248201527f45524332303a206275726e20616d6f756e7420657863656564732062616c616e604482015261636560f01b6064820152608401610c91565b6001600160a01b0383166000818152602081815260408083208686039055600280548790039055518581529192917fddf252ad1be2c89b69c2b068fc378daa952ba7f163c4a11628f55a4df523b3ef910160405180910390a3610c1183600084612f95565b8254600090819081811561391e5760008781526020902082016000190160408051808201909152905463ffffffff8116825264010000000090046001600160e01b03166020820152613933565b60408051808201909152600080825260208201525b905080602001516001600160e01b0316935061395384868863ffffffff16565b925060008211801561397d5750613968611217565b65ffffffffffff16816000015163ffffffff16145b156139c25761398b83613c4d565b60008881526020902083016000190180546001600160e01b03929092166401000000000263ffffffff909216919091179055613a3c565b8660405180604001604052806139e66139d9611217565b65ffffffffffff16612bba565b63ffffffff1681526020016139fa86613c4d565b6001600160e01b0390811690915282546001810184556000938452602093849020835194909301519091166401000000000263ffffffff909316929092179101555b5050935093915050565b6001600160a01b03838116600090815260096020526040808220548584168352912054610c11929182169116836130ec565b600080608083901c15613a8d57608092831c92015b604083901c15613a9f57604092831c92015b602083901c15613ab157602092831c92015b601083901c15613ac357601092831c92015b600883901c15613ad557600892831c92015b600483901c15613ae757600492831c92015b600283901c15613af957600292831c92015b600183901c15610a0c5760010192915050565b6000818310613b1b5781610d48565b5090919050565b600060ff8216601f811115610a0c57604051632cd44ac360e21b815260040160405180910390fd5b6060612e5c8484600085613cb6565b60006a636f6e736f6c652e6c6f679050600080835160208501845afa505050565b6001600160a01b038216613bd05760405162461bcd60e51b815260206004820152601f60248201527f45524332303a206d696e7420746f20746865207a65726f2061646472657373006044820152606401610c91565b613bdc60008383612f8d565b8060026000828254613bee919061439b565b90915550506001600160a01b038216600081815260208181526040808320805486019055518481527fddf252ad1be2c89b69c2b068fc378daa952ba7f163c4a11628f55a4df523b3ef910160405180910390a3610ca460008383612f95565b60006001600160e01b03821115612c1f5760405162461bcd60e51b815260206004820152602760248201527f53616665436173743a2076616c756520646f65736e27742066697420696e20326044820152663234206269747360c81b6064820152608401610c91565b606082471015613d175760405162461bcd60e51b815260206004820152602660248201527f416464726573733a20696e73756666696369656e742062616c616e636520666f6044820152651c8818d85b1b60d21b6064820152608401610c91565b600080866001600160a01b03168587604051613d33919061452d565b60006040518083038185875af1925050503d8060008114613d70576040519150601f19603f3d011682016040523d82523d6000602084013e613d75565b606091505b5091509150613d8687838387613d91565b979650505050505050565b60608315613e00578251600003613df9576001600160a01b0385163b613df95760405162461bcd60e51b815260206004820152601d60248201527f416464726573733a2063616c6c20746f206e6f6e2d636f6e74726163740000006044820152606401610c91565b5081612e5c565b612e5c8383815115613e155781518083602001fd5b8060405162461bcd60e51b8152600401610c919190613ea9565b600060208284031215613e4157600080fd5b81356001600160e01b031981168114610d4857600080fd5b60005b83811015613e74578181015183820152602001613e5c565b50506000910152565b60008151808452613e95816020860160208601613e59565b601f01601f19169290920160200192915050565b602081526000610d486020830184613e7d565b80356001600160a01b0381168114613ed357600080fd5b919050565b60008060408385031215613eeb57600080fd5b613ef483613ebc565b946020939093013593505050565b634e487b7160e01b600052604160045260246000fd5b600082601f830112613f2957600080fd5b813567ffffffffffffffff811115613f4357613f43613f02565b604051601f8201601f19908116603f0116810167ffffffffffffffff81118282101715613f7257613f72613f02565b604052818152838201602001851015613f8a57600080fd5b816020850160208301376000918101602001919091529392505050565b600080600060608486031215613fbc57600080fd5b613fc584613ebc565b925060208401359150604084013567ffffffffffffffff811115613fe857600080fd5b613ff486828701613f18565b9150509250925092565b60008060006060848603121561401357600080fd5b61401c84613ebc565b925061402a60208501613ebc565b929592945050506040919091013590565b60006020828403121561404d57600080fd5b5035919050565b6000806040838503121561406757600080fd5b8235915061407760208401613ebc565b90509250929050565b60006020828403121561409257600080fd5b610d4882613ebc565b803560038110613ed357600080fd5b6000602082840312156140bc57600080fd5b610d488261409b565b60ff60f81b8816815260e0602082015260006140e460e0830189613e7d565b82810360408401526140f68189613e7d565b606084018890526001600160a01b038716608085015260a0840186905283810360c08501528451808252602080870193509091019060005b8181101561414c57835183526020938401939092019160010161412e565b50909b9a5050505050505050505050565b6000806040838503121561417057600080fd5b613ef48361409b565b60008060006060848603121561418e57600080fd5b61401c8461409b565b803560ff81168114613ed357600080fd5b60008060008060008060c087890312156141c157600080fd5b6141ca87613ebc565b955060208701359450604087013593506141e660608801614197565b9598949750929560808101359460a0909101359350915050565b6000806040838503121561421357600080fd5b61421c8361409b565b915061407760208401613ebc565b600080600080600080600060e0888a03121561424557600080fd5b61424e88613ebc565b965061425c60208901613ebc565b9550604088013594506060880135935061427860808901614197565b9699959850939692959460a0840135945060c09093013592915050565b600080604083850312156142a857600080fd5b61421c83613ebc565b600080604083850312156142c457600080fd5b82359150602083013567ffffffffffffffff8111156142e257600080fd5b6142ee85828601613f18565b9150509250929050565b6000806040838503121561430b57600080fd5b61431483613ebc565b9150602083013563ffffffff8116811461432d57600080fd5b809150509250929050565b600181811c9082168061434c57607f821691505b60208210810361193b57634e487b7160e01b600052602260045260246000fd5b828152604060208201526000612e5c6040830184613e7d565b634e487b7160e01b600052601160045260246000fd5b80820180821115610a0c57610a0c614385565b634e487b7160e01b600052602160045260246000fd5b634e487b7160e01b600052603260045260246000fd5b81810381811115610a0c57610a0c614385565b8082028115828204841417610a0c57610a0c614385565b634e487b7160e01b600052601260045260246000fd5b60008261443757634e487b7160e01b600052601260045260246000fd5b500490565b60006001820161444e5761444e614385565b5060010190565b6040815260006144686040830185613e7d565b905060018060a01b03831660208301529392505050565b7f416363657373436f6e74726f6c3a206163636f756e74200000000000000000008152600083516144b7816017850160208801613e59565b7001034b99036b4b9b9b4b733903937b6329607d1b60179184019182015283516144e8816028840160208801613e59565b01602801949350505050565b60006020828403121561450657600080fd5b81518015158114610d4857600080fd5b60008161452557614525614385565b506000190190565b6000825161453f818460208701613e59565b919091019291505056feaa9060660dc3e52152ec6c4cd87f38f5433d3e2246058f23a29463ea3247681771840dc4906352362b0cdaf79870196c8e42acafade72d5d5a6d59291253ceb165d7a28e3265b37a6474929f336521b332c1681b933f6cb9f3376673440d862aa2646970667358221220e424927f4b36f0ccababeb8713447c2cb5f21ce5b4121ef11a7c414b9ab32bc164736f6c634300081c0033dec2bacdd2f05b59de34da9b523dff8be42e5e38e818c82fdb0bae774387a724",
  "linkReferences": {},
  "deployedLinkReferences": {}
}