{
  "_format": "hh-sol-artifact-1",
  "contractName": "EminarToken",
  "sourceName": "contracts/EMN/EMN.sol",
  "abi": [
    {
      "inputs": [
        {
          "internalType": "string",
          "name": "name_",
          "type": "string"
        },
        {
          "internalType": "string",
          "name": "symbol_",
          "type": "string"
        },
        {
          "internalType": "address",
          "name": "publicAddr_",
          "type": "address"
        },
        {
          "internalType": "address",
          "name": "reserveAddr_",
          "type": "address"
        },
        {
          "internalType": "address",
          "name": "devAddr_",
          "type": "address"
        },
        {
          "internalType": "address",
          "name": "shariaAddr_",
          "type": "address"
        },
        {
          "internalType": "address",
          "name": "strategicAddr_",
          "type": "address"
        },
        {
          "internalType": "address",
          "name": "governanceMultisig_",
          "type": "address"
        }
      ],
      "stateMutability": "nonpayable",
      "type": "constructor"
    },
    {
      "inputs": [],
      "name": "InvalidShortString",
      "type": "error"
    },
    {
      "inputs": [
        {
          "internalType": "string",
          "name": "str",
          "type": "string"
        }
      ],
      "name": "StringTooLong",
      "type": "error"
    },
    {
      "anonymous": false,
      "inputs": [
        {
          "indexed": true,
          "internalType": "address",
          "name": "owner",
          "type": "address"
        },
        {
          "indexed": true,
          "internalType": "address",
          "name": "spender",
          "type": "address"
        },
        {
          "indexed": false,
          "internalType": "uint256",
          "name": "value",
          "type": "uint256"
        }
      ],
      "name": "Approval",
      "type": "event"
    },
    {
      "anonymous": false,
      "inputs": [
        {
          "indexed": true,
          "internalType": "enum EminarToken.BackingAsset",
          "name": "asset",
          "type": "uint8"
        },
        {
          "indexed": false,
          "internalType": "uint256",
          "name": "priceUSD",
          "type": "uint256"
        }
      ],
      "name": "AssetPriceUpdated",
      "type": "event"
    },
    {
      "anonymous": false,
      "inputs": [
        {
          "indexed": true,
          "internalType": "enum EminarToken.BackingAsset",
          "name": "asset",
          "type": "uint8"
        },
        {
          "indexed": true,
          "internalType": "address",
          "name": "from",
          "type": "address"
        },
        {
          "indexed": false,
          "internalType": "uint256",
          "name": "amount",
          "type": "uint256"
        }
      ],
      "name": "BackingDeposited",
      "type": "event"
    },
    {
      "anonymous": false,
      "inputs": [
        {
          "indexed": true,
          "internalType": "enum EminarToken.BackingAsset",
          "name": "asset",
          "type": "uint8"
        },
        {
          "indexed": false,
          "internalType": "address",
          "name": "token",
          "type": "address"
        }
      ],
      "name": "BackingTokenRegistered",
      "type": "event"
    },
    {
      "anonymous": false,
      "inputs": [
        {
          "indexed": true,
          "internalType": "enum EminarToken.BackingAsset",
          "name": "asset",
          "type": "uint8"
        },
        {
          "indexed": true,
          "internalType": "address",
          "name": "to",
          "type": "address"
        },
        {
          "indexed": false,
          "internalType": "uint256",
          "name": "amount",
          "type": "uint256"
        }
      ],
      "name": "BackingWithdrawn",
      "type": "event"
    },
    {
      "anonymous": false,
      "inputs": [
        {
          "indexed": true,
          "internalType": "address",
          "name": "delegator",
          "type": "address"
        },
        {
          "indexed": true,
          "internalType": "address",
          "name": "fromDelegate",
          "type": "address"
        },
        {
          "indexed": true,
          "internalType": "address",
          "name": "toDelegate",
          "type": "address"
        }
      ],
      "name": "DelegateChanged",
      "type": "event"
    },
    {
      "anonymous": false,
      "inputs": [
        {
          "indexed": true,
          "internalType": "address",
          "name": "delegate",
          "type": "address"
        },
        {
          "indexed": false,
          "internalType": "uint256",
          "name": "previousBalance",
          "type": "uint256"
        },
        {
          "indexed": false,
          "internalType": "uint256",
          "name": "newBalance",
          "type": "uint256"
        }
      ],
      "name": "DelegateVotesChanged",
      "type": "event"
    },
    {
      "anonymous": false,
      "inputs": [],
      "name": "EIP712DomainChanged",
      "type": "event"
    },
    {
      "anonymous": false,
      "inputs": [
        {
          "indexed": false,
          "internalType": "address",
          "name": "account",
          "type": "address"
        }
      ],
      "name": "Paused",
      "type": "event"
    },
    {
      "anonymous": false,
      "inputs": [
        {
          "indexed": true,
          "internalType": "bytes32",
          "name": "role",
          "type": "bytes32"
        },
        {
          "indexed": true,
          "internalType": "bytes32",
          "name": "previousAdminRole",
          "type": "bytes32"
        },
        {
          "indexed": true,
          "internalType": "bytes32",
          "name": "newAdminRole",
          "type": "bytes32"
        }
      ],
      "name": "RoleAdminChanged",
      "type": "event"
    },
    {
      "anonymous": false,
      "inputs": [
        {
          "indexed": true,
          "internalType": "bytes32",
          "name": "role",
          "type": "bytes32"
        },
        {
          "indexed": true,
          "internalType": "address",
          "name": "account",
          "type": "address"
        },
        {
          "indexed": true,
          "internalType": "address",
          "name": "sender",
          "type": "address"
        }
      ],
      "name": "RoleGranted",
      "type": "event"
    },
    {
      "anonymous": false,
      "inputs": [
        {
          "indexed": true,
          "internalType": "bytes32",
          "name": "role",
          "type": "bytes32"
        },
        {
          "indexed": true,
          "internalType": "address",
          "name": "account",
          "type": "address"
        },
        {
          "indexed": true,
          "internalType": "address",
          "name": "sender",
          "type": "address"
        }
      ],
      "name": "RoleRevoked",
      "type": "event"
    },
    {
      "anonymous": false,
      "inputs": [
        {
          "indexed": true,
          "internalType": "address",
          "name": "from",
          "type": "address"
        },
        {
          "indexed": true,
          "internalType": "address",
          "name": "to",
          "type": "address"
        },
        {
          "indexed": false,
          "internalType": "uint256",
          "name": "value",
          "type": "uint256"
        }
      ],
      "name": "Transfer",
      "type": "event"
    },
    {
      "anonymous": false,
      "inputs": [
        {
          "indexed": false,
          "internalType": "address",
          "name": "account",
          "type": "address"
        }
      ],
      "name": "Unpaused",
      "type": "event"
    },
    {
      "inputs": [],
      "name": "BACKING_MANAGER_ROLE",
      "outputs": [
        {
          "internalType": "bytes32",
          "name": "",
          "type": "bytes32"
        }
      ],
      "stateMutability": "view",
      "type": "function"
    },
    {
      "inputs": [],
      "name": "CLOCK_MODE",
      "outputs": [
        {
          "internalType": "string",
          "name": "",
          "type": "string"
        }
      ],
      "stateMutability": "view",
      "type": "function"
    },
    {
      "inputs": [],
      "name": "DEFAULT_ADMIN_ROLE",
      "outputs": [
        {
          "internalType": "bytes32",
          "name": "",
          "type": "bytes32"
        }
      ],
      "stateMutability": "view",
      "type": "function"
    },
    {
      "inputs": [],
      "name": "DOMAIN_SEPARATOR",
      "outputs": [
        {
          "internalType": "bytes32",
          "name": "",
          "type": "bytes32"
        }
      ],
      "stateMutability": "view",
      "type": "function"
    },
    {
      "inputs": [],
      "name": "GOVERNANCE_ROLE",
      "outputs": [
        {
          "internalType": "bytes32",
          "name": "",
          "type": "bytes32"
        }
      ],
      "stateMutability": "view",
      "type": "function"
    },
    {
      "inputs": [],
      "name": "MINTER_ROLE",
      "outputs": [
        {
          "internalType": "bytes32",
          "name": "",
          "type": "bytes32"
        }
      ],
      "stateMutability": "view",
      "type": "function"
    },
    {
      "inputs": [],
      "name": "PAUSER_ROLE",
      "outputs": [
        {
          "internalType": "bytes32",
          "name": "",
          "type": "bytes32"
        }
      ],
      "stateMutability": "view",
      "type": "function"
    },
    {
      "inputs": [],
      "name": "RECOVERY_ROLE",
      "outputs": [
        {
          "internalType": "bytes32",
          "name": "",
          "type": "bytes32"
        }
      ],
      "stateMutability": "view",
      "type": "function"
    },
    {
      "inputs": [],
      "name": "TOTAL_SUPPLY",
      "outputs": [
        {
          "internalType": "uint256",
          "name": "",
          "type": "uint256"
        }
      ],
      "stateMutability": "view",
      "type": "function"
    },
    {
      "inputs": [
        {
          "internalType": "address",
          "name": "owner",
          "type": "address"
        },
        {
          "internalType": "address",
          "name": "spender",
          "type": "address"
        }
      ],
      "name": "allowance",
      "outputs": [
        {
          "internalType": "uint256",
          "name": "",
          "type": "uint256"
        }
      ],
      "stateMutability": "view",
      "type": "function"
    },
    {
      "inputs": [
        {
          "internalType": "address",
          "name": "spender",
          "type": "address"
        },
        {
          "internalType": "uint256",
          "name": "amount",
          "type": "uint256"
        }
      ],
      "name": "approve",
      "outputs": [
        {
          "internalType": "bool",
          "name": "",
          "type": "bool"
        }
      ],
      "stateMutability": "nonpayable",
      "type": "function"
    },
    {
      "inputs": [],
      "name": "backingPerTokenUSD",
      "outputs": [
        {
          "internalType": "uint256",
          "name": "",
          "type": "uint256"
        }
      ],
      "stateMutability": "view",
      "type": "function"
    },
    {
      "inputs": [
        {
          "internalType": "address",
          "name": "account",
          "type": "address"
        }
      ],
      "name": "balanceOf",
      "outputs": [
        {
          "internalType": "uint256",
          "name": "",
          "type": "uint256"
        }
      ],
      "stateMutability": "view",
      "type": "function"
    },
    {
      "inputs": [
        {
          "internalType": "address",
          "name": "account",
          "type": "address"
        },
        {
          "internalType": "uint32",
          "name": "pos",
          "type": "uint32"
        }
      ],
      "name": "checkpoints",
      "outputs": [
        {
          "components": [
            {
              "internalType": "uint32",
              "name": "fromBlock",
              "type": "uint32"
            },
            {
              "internalType": "uint224",
              "name": "votes",
              "type": "uint224"
            }
          ],
          "internalType": "struct ERC20Votes.Checkpoint",
          "name": "",
          "type": "tuple"
        }
      ],
      "stateMutability": "view",
      "type": "function"
    },
    {
      "inputs": [],
      "name": "clock",
      "outputs": [
        {
          "internalType": "uint48",
          "name": "",
          "type": "uint48"
        }
      ],
      "stateMutability": "view",
      "type": "function"
    },
    {
      "inputs": [],
      "name": "decimals",
      "outputs": [
        {
          "internalType": "uint8",
          "name": "",
          "type": "uint8"
        }
      ],
      "stateMutability": "pure",
      "type": "function"
    },
    {
      "inputs": [
        {
          "internalType": "address",
          "name": "spender",
          "type": "address"
        },
        {
          "internalType": "uint256",
          "name": "subtractedValue",
          "type": "uint256"
        }
      ],
      "name": "decreaseAllowance",
      "outputs": [
        {
          "internalType": "bool",
          "name": "",
          "type": "bool"
        }
      ],
      "stateMutability": "nonpayable",
      "type": "function"
    },
    {
      "inputs": [
        {
          "internalType": "address",
          "name": "delegatee",
          "type": "address"
        }
      ],
      "name": "delegate",
      "outputs": [],
      "stateMutability": "nonpayable",
      "type": "function"
    },
    {
      "inputs": [
        {
          "internalType": "address",
          "name": "delegatee",
          "type": "address"
        },
        {
          "internalType": "uint256",
          "name": "nonce",
          "type": "uint256"
        },
        {
          "internalType": "uint256",
          "name": "expiry",
          "type": "uint256"
        },
        {
          "internalType": "uint8",
          "name": "v",
          "type": "uint8"
        },
        {
          "internalType": "bytes32",
          "name": "r",
          "type": "bytes32"
        },
        {
          "internalType": "bytes32",
          "name": "s",
          "type": "bytes32"
        }
      ],
      "name": "delegateBySig",
      "outputs": [],
      "stateMutability": "nonpayable",
      "type": "function"
    },
    {
      "inputs": [
        {
          "internalType": "address",
          "name": "account",
          "type": "address"
        }
      ],
      "name": "delegates",
      "outputs": [
        {
          "internalType": "address",
          "name": "",
          "type": "address"
        }
      ],
      "stateMutability": "view",
      "type": "function"
    },
    {
      "inputs": [
        {
          "internalType": "enum EminarToken.BackingAsset",
          "name": "asset",
          "type": "uint8"
        },
        {
          "internalType": "uint256",
          "name": "amount",
          "type": "uint256"
        }
      ],
      "name": "depositBacking",
      "outputs": [],
      "stateMutability": "nonpayable",
      "type": "function"
    },
    {
      "inputs": [],
      "name": "developmentAddress",
      "outputs": [
        {
          "internalType": "address",
          "name": "",
          "type": "address"
        }
      ],
      "stateMutability": "view",
      "type": "function"
    },
    {
      "inputs": [],
      "name": "eip712Domain",
      "outputs": [
        {
          "internalType": "bytes1",
          "name": "fields",
          "type": "bytes1"
        },
        {
          "internalType": "string",
          "name": "name",
          "type": "string"
        },
        {
          "internalType": "string",
          "name": "version",
          "type": "string"
        },
        {
          "internalType": "uint256",
          "name": "chainId",
          "type": "uint256"
        },
        {
          "internalType": "address",
          "name": "verifyingContract",
          "type": "address"
        },
        {
          "internalType": "bytes32",
          "name": "salt",
          "type": "bytes32"
        },
        {
          "internalType": "uint256[]",
          "name": "extensions",
          "type": "uint256[]"
        }
      ],
      "stateMutability": "view",
      "type": "function"
    },
    {
      "inputs": [
        {
          "internalType": "address",
          "name": "token",
          "type": "address"
        },
        {
          "internalType": "address",
          "name": "to",
          "type": "address"
        },
        {
          "internalType": "uint256",
          "name": "amount",
          "type": "uint256"
        }
      ],
      "name": "emergencyRecoverERC20",
      "outputs": [],
      "stateMutability": "nonpayable",
      "type": "function"
    },
    {
      "inputs": [
        {
          "internalType": "uint256",
          "name": "timepoint",
          "type": "uint256"
        }
      ],
      "name": "getPastTotalSupply",
      "outputs": [
        {
          "internalType": "uint256",
          "name": "",
          "type": "uint256"
        }
      ],
      "stateMutability": "view",
      "type": "function"
    },
    {
      "inputs": [
        {
          "internalType": "address",
          "name": "account",
          "type": "address"
        },
        {
          "internalType": "uint256",
          "name": "timepoint",
          "type": "uint256"
        }
      ],
      "name": "getPastVotes",
      "outputs": [
        {
          "internalType": "uint256",
          "name": "",
          "type": "uint256"
        }
      ],
      "stateMutability": "view",
      "type": "function"
    },
    {
      "inputs": [
        {
          "internalType": "bytes32",
          "name": "role",
          "type": "bytes32"
        }
      ],
      "name": "getRoleAdmin",
      "outputs": [
        {
          "internalType": "bytes32",
          "name": "",
          "type": "bytes32"
        }
      ],
      "stateMutability": "view",
      "type": "function"
    },
    {
      "inputs": [
        {
          "internalType": "address",
          "name": "account",
          "type": "address"
        }
      ],
      "name": "getVotes",
      "outputs": [
        {
          "internalType": "uint256",
          "name": "",
          "type": "uint256"
        }
      ],
      "stateMutability": "view",
      "type": "function"
    },
    {
      "inputs": [
        {
          "internalType": "bytes32",
          "name": "role",
          "type": "bytes32"
        },
        {
          "internalType": "address",
          "name": "account",
          "type": "address"
        }
      ],
      "name": "grantRole",
      "outputs": [],
      "stateMutability": "nonpayable",
      "type": "function"
    },
    {
      "inputs": [
        {
          "internalType": "bytes32",
          "name": "role",
          "type": "bytes32"
        },
        {
          "internalType": "address",
          "name": "account",
          "type": "address"
        }
      ],
      "name": "hasRole",
      "outputs": [
        {
          "internalType": "bool",
          "name": "",
          "type": "bool"
        }
      ],
      "stateMutability": "view",
      "type": "function"
    },
    {
      "inputs": [
        {
          "internalType": "address",
          "name": "spender",
          "type": "address"
        },
        {
          "internalType": "uint256",
          "name": "addedValue",
          "type": "uint256"
        }
      ],
      "name": "increaseAllowance",
      "outputs": [
        {
          "internalType": "bool",
          "name": "",
          "type": "bool"
        }
      ],
      "stateMutability": "nonpayable",
      "type": "function"
    },
    {
      "inputs": [],
      "name": "name",
      "outputs": [
        {
          "internalType": "string",
          "name": "",
          "type": "string"
        }
      ],
      "stateMutability": "view",
      "type": "function"
    },
    {
      "inputs": [
        {
          "internalType": "address",
          "name": "owner",
          "type": "address"
        }
      ],
      "name": "nonces",
      "outputs": [
        {
          "internalType": "uint256",
          "name": "",
          "type": "uint256"
        }
      ],
      "stateMutability": "view",
      "type": "function"
    },
    {
      "inputs": [
        {
          "internalType": "address",
          "name": "account",
          "type": "address"
        }
      ],
      "name": "numCheckpoints",
      "outputs": [
        {
          "internalType": "uint32",
          "name": "",
          "type": "uint32"
        }
      ],
      "stateMutability": "view",
      "type": "function"
    },
    {
      "inputs": [],
      "name": "pause",
      "outputs": [],
      "stateMutability": "nonpayable",
      "type": "function"
    },
    {
      "inputs": [],
      "name": "paused",
      "outputs": [
        {
          "internalType": "bool",
          "name": "",
          "type": "bool"
        }
      ],
      "stateMutability": "view",
      "type": "function"
    },
    {
      "inputs": [
        {
          "internalType": "address",
          "name": "owner",
          "type": "address"
        },
        {
          "internalType": "address",
          "name": "spender",
          "type": "address"
        },
        {
          "internalType": "uint256",
          "name": "value",
          "type": "uint256"
        },
        {
          "internalType": "uint256",
          "name": "deadline",
          "type": "uint256"
        },
        {
          "internalType": "uint8",
          "name": "v",
          "type": "uint8"
        },
        {
          "internalType": "bytes32",
          "name": "r",
          "type": "bytes32"
        },
        {
          "internalType": "bytes32",
          "name": "s",
          "type": "bytes32"
        }
      ],
      "name": "permit",
      "outputs": [],
      "stateMutability": "nonpayable",
      "type": "function"
    },
    {
      "inputs": [],
      "name": "publicAddress",
      "outputs": [
        {
          "internalType": "address",
          "name": "",
          "type": "address"
        }
      ],
      "stateMutability": "view",
      "type": "function"
    },
    {
      "inputs": [
        {
          "internalType": "enum EminarToken.BackingAsset",
          "name": "asset",
          "type": "uint8"
        },
        {
          "internalType": "address",
          "name": "token",
          "type": "address"
        }
      ],
      "name": "registerBackingToken",
      "outputs": [],
      "stateMutability": "nonpayable",
      "type": "function"
    },
    {
      "inputs": [
        {
          "internalType": "bytes32",
          "name": "role",
          "type": "bytes32"
        },
        {
          "internalType": "address",
          "name": "account",
          "type": "address"
        }
      ],
      "name": "renounceRole",
      "outputs": [],
      "stateMutability": "nonpayable",
      "type": "function"
    },
    {
      "inputs": [],
      "name": "reserveAddress",
      "outputs": [
        {
          "internalType": "address",
          "name": "",
          "type": "address"
        }
      ],
      "stateMutability": "view",
      "type": "function"
    },
    {
      "inputs": [
        {
          "internalType": "bytes32",
          "name": "role",
          "type": "bytes32"
        },
        {
          "internalType": "address",
          "name": "account",
          "type": "address"
        }
      ],
      "name": "revokeRole",
      "outputs": [],
      "stateMutability": "nonpayable",
      "type": "function"
    },
    {
      "inputs": [
        {
          "internalType": "enum EminarToken.BackingAsset",
          "name": "asset",
          "type": "uint8"
        },
        {
          "internalType": "uint256",
          "name": "priceUSD",
          "type": "uint256"
        }
      ],
      "name": "setAssetPriceUSD",
      "outputs": [],
      "stateMutability": "nonpayable",
      "type": "function"
    },
    {
      "inputs": [],
      "name": "shariaTrustAddress",
      "outputs": [
        {
          "internalType": "address",
          "name": "",
          "type": "address"
        }
      ],
      "stateMutability": "view",
      "type": "function"
    },
    {
      "inputs": [],
      "name": "strategicPartnersAddress",
      "outputs": [
        {
          "internalType": "address",
          "name": "",
          "type": "address"
        }
      ],
      "stateMutability": "view",
      "type": "function"
    },
    {
      "inputs": [
        {
          "internalType": "bytes4",
          "name": "interfaceId",
          "type": "bytes4"
        }
      ],
      "name": "supportsInterface",
      "outputs": [
        {
          "internalType": "bool",
          "name": "",
          "type": "bool"
        }
      ],
      "stateMutability": "view",
      "type": "function"
    },
    {
      "inputs": [],
      "name": "symbol",
      "outputs": [
        {
          "internalType": "string",
          "name": "",
          "type": "string"
        }
      ],
      "stateMutability": "view",
      "type": "function"
    },
    {
      "inputs": [],
      "name": "totalBackingValueUSD",
      "outputs": [
        {
          "internalType": "uint256",
          "name": "",
          "type": "uint256"
        }
      ],
      "stateMutability": "view",
      "type": "function"
    },
    {
      "inputs": [],
      "name": "totalSupply",
      "outputs": [
        {
          "internalType": "uint256",
          "name": "",
          "type": "uint256"
        }
      ],
      "stateMutability": "view",
      "type": "function"
    },
    {
      "inputs": [
        {
          "internalType": "address",
          "name": "to",
          "type": "address"
        },
        {
          "internalType": "uint256",
          "name": "amount",
          "type": "uint256"
        }
      ],
      "name": "transfer",
      "outputs": [
        {
          "internalType": "bool",
          "name": "",
          "type": "bool"
        }
      ],
      "stateMutability": "nonpayable",
      "type": "function"
    },
    {
      "inputs": [
        {
          "internalType": "address",
          "name": "from",
          "type": "address"
        },
        {
          "internalType": "address",
          "name": "to",
          "type": "address"
        },
        {
          "internalType": "uint256",
          "name": "amount",
          "type": "uint256"
        }
      ],
      "name": "transferFrom",
      "outputs": [
        {
          "internalType": "bool",
          "name": "",
          "type": "bool"
        }
      ],
      "stateMutability": "nonpayable",
      "type": "function"
    },
    {
      "inputs": [],
      "name": "unpause",
      "outputs": [],
      "stateMutability": "nonpayable",
      "type": "function"
    },
    {
      "inputs": [
        {
          "internalType": "enum EminarToken.BackingAsset",
          "name": "asset",
          "type": "uint8"
        },
        {
          "internalType": "address",
          "name": "to",
          "type": "address"
        },
        {
          "internalType": "uint256",
          "name": "amount",
          "type": "uint256"
        }
      ],
      "name": "withdrawBacking",
      "outputs": [],
      "stateMutability": "nonpayable",
      "type": "function"
    }
  ],
  "bytecode": "0x61016060405234801561001157600080fd5b5060405161462f38038061462f83398101604081905261003091610bfd565b6040805180820190915260018152603160f81b602082015288908190818a600361005a8382610d52565b5060046100678282610d52565b50610077915083905060056103da565b610120526100868160066103da565b61014052815160208084019190912060e052815190820120610100524660a05261011360e05161010051604080517f8b73c3c69bb8fe3d512ecc4cf759cc79239f7b179b0ffacaa9a75d522b39400f60208201529081019290925260608201524660808201523060a082015260009060c00160405160208183030381529060405280519060200120905090565b60805250503060c05250600d805460ff191690556001600160a01b0386161580159061014757506001600160a01b03851615155b801561015b57506001600160a01b03841615155b801561016f57506001600160a01b03831615155b801561018357506001600160a01b03821615155b6101c35760405162461bcd60e51b815260206004820152600c60248201526b7a65726f206164647265737360a01b60448201526064015b60405180910390fd5b601380546001600160a01b03199081166001600160a01b0389811691909117909255600f805482168884161790556010805482168784161790556011805482168684161790556012805490911691841691909117905561022460003361040d565b61024e7f9f2df0fed2c77648de5860a4cc508cd0818c85b8b8a1ab4ceeef8d981c8956a63361040d565b6102787f65d7a28e3265b37a6474929f336521b332c1681b933f6cb9f3376673440d862a3361040d565b6102a27faa9060660dc3e52152ec6c4cd87f38f5433d3e2246058f23a29463ea324768173361040d565b6102cc7f71840dc4906352362b0cdaf79870196c8e42acafade72d5d5a6d59291253ceb18261040d565b6102f67f0acf805600123ef007091da3b3ffb39474074c656c127aa68cb0ffec232a8ff83361040d565b60135461032d906001600160a01b0316606461031e6a52b7d2dcc80cd2e40000006028610e26565b6103289190610e3d565b6104b0565b600f54610355906001600160a01b0316606461031e6a52b7d2dcc80cd2e40000006014610e26565b60105461037d906001600160a01b0316606461031e6a52b7d2dcc80cd2e40000006014610e26565b6011546103a5906001600160a01b0316606461031e6a52b7d2dcc80cd2e4000000600a610e26565b6012546103cd906001600160a01b0316606461031e6a52b7d2dcc80cd2e4000000600a610e26565b5050505050505050610edc565b60006020835110156103f6576103ef836104ba565b9050610407565b816104018482610d52565b5060ff90505b92915050565b6000828152600c602090815260408083206001600160a01b038516845290915290205460ff166104ac576000828152600c602090815260408083206001600160a01b03851684529091529020805460ff1916600117905561046b3390565b6001600160a01b0316816001600160a01b0316837f2f8788117e7eff1d82e926ec794901d17c78024a50270940304540a733656f0d60405160405180910390a45b5050565b6104ac82826104f8565b600080829050601f815111156104e5578260405163305a27a960e01b81526004016101ba9190610e5f565b80516104f082610e92565b179392505050565b6105028282610596565b6001600160e01b036105146106698216565b111561057b5760405162461bcd60e51b815260206004820152603060248201527f4552433230566f7465733a20746f74616c20737570706c79207269736b73206f60448201526f766572666c6f77696e6720766f74657360801b60648201526084016101ba565b610590600b611a8b61066f60201b1783610682565b50505050565b6001600160a01b0382166105ec5760405162461bcd60e51b815260206004820152601f60248201527f45524332303a206d696e7420746f20746865207a65726f20616464726573730060448201526064016101ba565b6105f8600083836107fa565b806002600082825461060a9190610eb6565b90915550506001600160a01b038216600081815260208181526040808320805486019055518481527fddf252ad1be2c89b69c2b068fc378daa952ba7f163c4a11628f55a4df523b3ef910160405180910390a36104ac60008383610819565b60025490565b600061067b8284610eb6565b9392505050565b825460009081908181156106cf5760008781526020902082016000190160408051808201909152905463ffffffff8116825264010000000090046001600160e01b031660208201526106e4565b60408051808201909152600080825260208201525b905080602001516001600160e01b0316935061070184868860201c565b925060008211801561072b5750610716610824565b65ffffffffffff16816000015163ffffffff16145b156107705761073983610834565b60008881526020902083016000190180546001600160e01b03929092166401000000000263ffffffff9092169190911790556107f0565b86604051806040016040528061079a61078d61082460201b60201c565b65ffffffffffff166108a1565b63ffffffff1681526020016107ae86610834565b6001600160e01b0390811690915282546001810184556000938452602093849020835194909301519091166401000000000263ffffffff909316929092179101555b5050935093915050565b610802610906565b6108148383836001600160e01b038416565b505050565b61081483838361094e565b600061082f43610980565b905090565b60006001600160e01b0382111561089d5760405162461bcd60e51b815260206004820152602760248201527f53616665436173743a2076616c756520646f65736e27742066697420696e20326044820152663234206269747360c81b60648201526084016101ba565b5090565b600063ffffffff82111561089d5760405162461bcd60e51b815260206004820152602660248201527f53616665436173743a2076616c756520646f65736e27742066697420696e203360448201526532206269747360d01b60648201526084016101ba565b600d5460ff161561094c5760405162461bcd60e51b815260206004820152601060248201526f14185d5cd8589b194e881c185d5cd95960821b60448201526064016101ba565b565b6001600160a01b03838116600090815260096020526040808220548584168352912054610814929182169116836109e7565b600065ffffffffffff82111561089d5760405162461bcd60e51b815260206004820152602660248201527f53616665436173743a2076616c756520646f65736e27742066697420696e203460448201526538206269747360d01b60648201526084016101ba565b816001600160a01b0316836001600160a01b031614158015610a095750600081115b15610814576001600160a01b03831615610a8e576001600160a01b0383166000908152600a6020908152604082208291610a4d9190610b12901b611a971785610682565b91509150846001600160a01b031660008051602061460f8339815191528383604051610a83929190918252602082015260400190565b60405180910390a250505b6001600160a01b03821615610814576001600160a01b0382166000908152600a6020908152604082208291610acd919061066f901b611a8b1785610682565b91509150836001600160a01b031660008051602061460f8339815191528383604051610b03929190918252602082015260400190565b60405180910390a25050505050565b600061067b8284610ec9565b634e487b7160e01b600052604160045260246000fd5b60005b83811015610b4f578181015183820152602001610b37565b50506000910152565b600082601f830112610b6957600080fd5b81516001600160401b03811115610b8257610b82610b1e565b604051601f8201601f19908116603f011681016001600160401b0381118282101715610bb057610bb0610b1e565b604052818152838201602001851015610bc857600080fd5b610bd9826020830160208701610b34565b949350505050565b80516001600160a01b0381168114610bf857600080fd5b919050565b600080600080600080600080610100898b031215610c1a57600080fd5b88516001600160401b03811115610c3057600080fd5b610c3c8b828c01610b58565b60208b015190995090506001600160401b03811115610c5a57600080fd5b610c668b828c01610b58565b975050610c7560408a01610be1565b9550610c8360608a01610be1565b9450610c9160808a01610be1565b9350610c9f60a08a01610be1565b9250610cad60c08a01610be1565b9150610cbb60e08a01610be1565b90509295985092959890939650565b600181811c90821680610cde57607f821691505b602082108103610cfe57634e487b7160e01b600052602260045260246000fd5b50919050565b601f82111561081457806000526020600020601f840160051c81016020851015610d2b5750805b601f840160051c820191505b81811015610d4b5760008155600101610d37565b5050505050565b81516001600160401b03811115610d6b57610d6b610b1e565b610d7f81610d798454610cca565b84610d04565b6020601f821160018114610db35760008315610d9b5750848201515b600019600385901b1c1916600184901b178455610d4b565b600084815260208120601f198516915b82811015610de35787850151825560209485019460019092019101610dc3565b5084821015610e015786840151600019600387901b60f8161c191681555b50505050600190811b01905550565b634e487b7160e01b600052601160045260246000fd5b808202811582820484141761040757610407610e10565b600082610e5a57634e487b7160e01b600052601260045260246000fd5b500490565b6020815260008251806020840152610e7e816040850160208701610b34565b601f01601f19169190910160400192915050565b80516020808301519190811015610cfe5760001960209190910360031b1b16919050565b8082018082111561040757610407610e10565b8181038181111561040757610407610e10565b60805160a05160c05160e0516101005161012051610140516136d9610f366000396000610c1f01526000610bf401526000611f5a01526000611f3201526000611e8d01526000611eb701526000611ee101526136d96000f3fe608060405234801561001057600080fd5b50600436106103275760003560e01c80638e539e8c116101b8578063c3cda52011610104578063e63ab1e9116100a2578063f36c8f5c1161007c578063f36c8f5c1461076e578063f676f33114610795578063f79ed94b146107a8578063fe64c681146107bb57600080fd5b8063e63ab1e9146106f7578063eb8f4c4a1461071e578063f1127ed81461073157600080fd5b8063d5391393116100de578063d5391393146106a2578063d547741f146106c9578063dd62ed3e146106dc578063dfef15b8146106ef57600080fd5b8063c3cda52014610669578063c69def0b1461067c578063d505accf1461068f57600080fd5b80639ab24eb011610171578063a457c2d71161014b578063a457c2d714610628578063a9059cbb1461063b578063a978d8df1461064e578063ae621bbe1461066157600080fd5b80639ab24eb0146105fa578063a217fddf1461060d578063a34cea081461061557600080fd5b80638e539e8c14610588578063902d55a51461059b57806391d14854146105ad57806391ddadf4146105c057806391ee2a3d146105df57806395d89b41146105f257600080fd5b80633a46b1a811610277578063626c3d431161023057806370a082311161020a57806370a08231146105295780637ecebe00146105525780638456cb591461056557806384b0196e1461056d57600080fd5b8063626c3d43146104db578063638b1b14146104ee5780636fcfff451461050157600080fd5b80633a46b1a8146104565780633f4ba83a146104695780634bf5d7e914610471578063587cde1e146104795780635c19a95c146104bd5780635c975abb146104d057600080fd5b8063248a9ca3116102e457806331993a1c116102be57806331993a1c146104015780633644e5151461042857806336568abe14610430578063395093511461044357600080fd5b8063248a9ca3146103ba5780632f2ff15d146103dd578063313ce567146103f257600080fd5b806301ffc9a71461032c57806306fdde0314610354578063095ea7b31461036957806315e98e731461037c57806318160ddd1461039f57806323b872dd146103a7575b600080fd5b61033f61033a36600461310d565b6107ce565b60405190151581526020015b60405180910390f35b61035c610805565b60405161034b9190613187565b61033f6103773660046131b6565b610897565b61039160008051602061368483398151915281565b60405190815260200161034b565b600254610391565b61033f6103b53660046131e0565b6108af565b6103916103c836600461321d565b6000908152600c602052604090206001015490565b6103f06103eb366004613236565b6108d3565b005b6040516012815260200161034b565b6103917f0acf805600123ef007091da3b3ffb39474074c656c127aa68cb0ffec232a8ff881565b6103916108fd565b6103f061043e366004613236565b61090c565b61033f6104513660046131b6565b61098f565b6103916104643660046131b6565b6109b1565b6103f0610a36565b61035c610a9f565b6104a5610487366004613262565b6001600160a01b039081166000908152600960205260409020541690565b6040516001600160a01b03909116815260200161034b565b6103f06104cb366004613262565b610b37565b600d5460ff1661033f565b6012546104a5906001600160a01b031681565b6010546104a5906001600160a01b031681565b61051461050f366004613262565b610b44565b60405163ffffffff909116815260200161034b565b610391610537366004613262565b6001600160a01b031660009081526020819052604090205490565b610391610560366004613262565b610b66565b6103f0610b84565b610575610be6565b60405161034b979695949392919061327d565b61039161059636600461321d565b610c6f565b6103916a52b7d2dcc80cd2e400000081565b61033f6105bb366004613236565b610cd6565b6105c8610d01565b60405165ffffffffffff909116815260200161034b565b6103f06105ed366004613324565b610d0c565b61035c610eae565b610391610608366004613262565b610ebd565b610391600081565b6103f0610623366004613340565b610f3f565b61033f6106363660046131b6565b611149565b61033f6106493660046131b6565b6111c4565b6103f061065c366004613324565b6111d2565b6103916112f3565b6103f061067736600461336f565b6114fb565b6103f061068a3660046133c7565b611631565b6103f061069d3660046133f1565b61177f565b6103917f9f2df0fed2c77648de5860a4cc508cd0818c85b8b8a1ab4ceeef8d981c8956a681565b6103f06106d7366004613236565b6118e3565b6103916106ea36600461345c565b611908565b610391611933565b6103917f65d7a28e3265b37a6474929f336521b332c1681b933f6cb9f3376673440d862a81565b6103f061072c3660046131e0565b61197e565b61074461073f366004613478565b611a07565b60408051825163ffffffff1681526020928301516001600160e01b0316928101929092520161034b565b6103917f71840dc4906352362b0cdaf79870196c8e42acafade72d5d5a6d59291253ceb181565b6013546104a5906001600160a01b031681565b600f546104a5906001600160a01b031681565b6011546104a5906001600160a01b031681565b60006001600160e01b03198216637965db0b60e01b14806107ff57506301ffc9a760e01b6001600160e01b03198316145b92915050565b606060038054610814906134b8565b80601f0160208091040260200160405190810160405280929190818152602001828054610840906134b8565b801561088d5780601f106108625761010080835404028352916020019161088d565b820191906000526020600020905b81548152906001019060200180831161087057829003601f168201915b5050505050905090565b6000336108a5818585611aa3565b5060019392505050565b6000336108bd858285611bc7565b6108c8858585611c3b565b506001949350505050565b6000828152600c60205260409020600101546108ee81611df0565b6108f88383611dfa565b505050565b6000610907611e80565b905090565b6001600160a01b03811633146109815760405162461bcd60e51b815260206004820152602f60248201527f416363657373436f6e74726f6c3a2063616e206f6e6c792072656e6f756e636560448201526e103937b632b9903337b91039b2b63360891b60648201526084015b60405180910390fd5b61098b8282611fab565b5050565b6000336108a58185856109a28383611908565b6109ac9190613502565b611aa3565b60006109bb610d01565b65ffffffffffff168210610a0d5760405162461bcd60e51b815260206004820152601960248201527804552433230566f7465733a20667574757265206c6f6f6b757603c1b6044820152606401610978565b6001600160a01b0383166000908152600a60205260409020610a2f9083612012565b9392505050565b7f65d7a28e3265b37a6474929f336521b332c1681b933f6cb9f3376673440d862a610a6081611df0565b610a686120fb565b6040513381527f5db9ee0a495bf2e6ff9c91a7834c1ba4fdd244a5e8aa4e537bd38aeae4b073aa906020015b60405180910390a150565b606043610aaa610d01565b65ffffffffffff1614610aff5760405162461bcd60e51b815260206004820152601d60248201527f4552433230566f7465733a2062726f6b656e20636c6f636b206d6f64650000006044820152606401610978565b5060408051808201909152601d81527f6d6f64653d626c6f636b6e756d6265722666726f6d3d64656661756c74000000602082015290565b610b41338261214d565b50565b6001600160a01b0381166000908152600a60205260408120546107ff906121c6565b6001600160a01b0381166000908152600760205260408120546107ff565b7f65d7a28e3265b37a6474929f336521b332c1681b933f6cb9f3376673440d862a610bae81611df0565b610bb661222f565b6040513381527f62e78cea01bee320cd4e420270b5ea74000d11b0c9f74754ebdbfc544b05a25890602001610a94565b600060608082808083610c1a7f0000000000000000000000000000000000000000000000000000000000000000600561226c565b610c457f0000000000000000000000000000000000000000000000000000000000000000600661226c565b60408051600080825260208201909252600f60f81b9b939a50919850469750309650945092509050565b6000610c79610d01565b65ffffffffffff168210610ccb5760405162461bcd60e51b815260206004820152601960248201527804552433230566f7465733a20667574757265206c6f6f6b757603c1b6044820152606401610978565b6107ff600b83612012565b6000918252600c602090815260408084206001600160a01b0393909316845291905290205460ff1690565b600061090743612317565b610d1461237e565b600e6000836002811115610d2a57610d2a61352b565b6002811115610d3b57610d3b61352b565b815260208101919091526040016000206003015460ff16610d955760405162461bcd60e51b8152602060048201526014602482015273185cdcd95d081b9bdd081c9959da5cdd195c995960621b6044820152606401610978565b60008111610dd35760405162461bcd60e51b815260206004820152600b60248201526a1e995c9bc8185b5bdd5b9d60aa1b6044820152606401610978565b610e22333083600e6000876002811115610def57610def61352b565b6002811115610e0057610e0061352b565b81526020810191909152604001600020546001600160a01b03169291906123c6565b80600e6000846002811115610e3957610e3961352b565b6002811115610e4a57610e4a61352b565b815260208101919091526040016000206001018054909101905533826002811115610e7757610e7761352b565b6040518381527f6a2b04b1f3d5a335c4367fea39bb8807ef0a4fbe77a2772700c8f9c90c1c9a1b9060200160405180910390a35050565b606060048054610814906134b8565b6001600160a01b0381166000908152600a60205260408120548015610f2c576001600160a01b0383166000908152600a6020526040902080546000198301908110610f0a57610f0a613541565b60009182526020909120015464010000000090046001600160e01b0316610f2f565b60005b6001600160e01b03169392505050565b600080516020613684833981519152610f5781611df0565b6001600160a01b038316610f9c5760405162461bcd60e51b815260206004820152600c60248201526b7a65726f206164647265737360a01b6044820152606401610978565b60008211610fda5760405162461bcd60e51b815260206004820152600b60248201526a1e995c9bc8185b5bdd5b9d60aa1b6044820152606401610978565b81600e6000866002811115610ff157610ff161352b565b60028111156110025761100261352b565b81526020019081526020016000206001015410156110595760405162461bcd60e51b8152602060048201526014602482015273696e73756666696369656e74206261636b696e6760601b6044820152606401610978565b81600e60008660028111156110705761107061352b565b60028111156110815761108161352b565b815260200190815260200160002060010160008282546110a19190613557565b909155506110f490508383600e60008860028111156110c2576110c261352b565b60028111156110d3576110d361352b565b81526020810191909152604001600020546001600160a01b03169190612431565b826001600160a01b03168460028111156111105761111061352b565b6040518481527fe3aab926d81700bac87dab01982e77e751c07d1acca11c13ff44aae1193a5f549060200160405180910390a350505050565b600033816111578286611908565b9050838110156111b75760405162461bcd60e51b815260206004820152602560248201527f45524332303a2064656372656173656420616c6c6f77616e63652062656c6f77604482015264207a65726f60d81b6064820152608401610978565b6108c88286868403611aa3565b6000336108a5818585611c3b565b6000805160206136848339815191526111ea81611df0565b600e60008460028111156112005761120061352b565b60028111156112115761121161352b565b815260208101919091526040016000206003015460ff1661126b5760405162461bcd60e51b8152602060048201526014602482015273185cdcd95d081b9bdd081c9959da5cdd195c995960621b6044820152606401610978565b81600e60008560028111156112825761128261352b565b60028111156112935761129361352b565b8152602001908152602001600020600201819055508260028111156112ba576112ba61352b565b6040518381527f2d292c5b6330b5b0f99b665ec1be838ca17cd57eb118fe7a02cc05477b5bd42f906020015b60405180910390a2505050565b6000808052600e6020527fe710864318d4a32f37d6ce54cb3fadbef648dd12d8dbdf53973564d56b7f881f5481907fe710864318d4a32f37d6ce54cb3fadbef648dd12d8dbdf53973564d56b7f881c9060ff168015611356575060008160020154115b8015611366575060008160010154115b1561139f57670de0b6b3a764000081600201548260010154611388919061356a565b6113929190613597565b61139c9083613502565b91505b506001600052600e6020527fa7c5ba7114a813b50159add3a36832908dc83db71d0b9a24c2ad0f83be95820a547fa7c5ba7114a813b50159add3a36832908dc83db71d0b9a24c2ad0f83be9582079060ff168015611401575060008160020154115b8015611411575060008160010154115b1561144a57670de0b6b3a764000081600201548260010154611433919061356a565b61143d9190613597565b6114479083613502565b91505b506002600052600e6020527f9adb202b1492743bc00c81d33cdc6423fa8c79109027eb6a845391e8fc1f0484547f9adb202b1492743bc00c81d33cdc6423fa8c79109027eb6a845391e8fc1f04819060ff1680156114ac575060008160020154115b80156114bc575060008160010154115b156114f557670de0b6b3a7640000816002015482600101546114de919061356a565b6114e89190613597565b6114f29083613502565b91505b50919050565b8342111561154b5760405162461bcd60e51b815260206004820152601d60248201527f4552433230566f7465733a207369676e617475726520657870697265640000006044820152606401610978565b604080517fe48329057bfd03d55e49b547132e39cffd9c1820ad7b9d4c5307691425d15adf60208201526001600160a01b0388169181019190915260608101869052608081018590526000906115c5906115bd9060a00160405160208183030381529060405280519060200120612461565b85858561248e565b90506115d0816124b8565b861461161e5760405162461bcd60e51b815260206004820152601960248201527f4552433230566f7465733a20696e76616c6964206e6f6e6365000000000000006044820152606401610978565b611628818861214d565b50505050505050565b60008051602061368483398151915261164981611df0565b6001600160a01b03821661168c5760405162461bcd60e51b815260206004820152600a6024820152693d32b937903a37b5b2b760b11b6044820152606401610978565b81600e60008560028111156116a3576116a361352b565b60028111156116b4576116b461352b565b815260200190815260200160002060000160006101000a8154816001600160a01b0302191690836001600160a01b031602179055506001600e60008560028111156117015761170161352b565b60028111156117125761171261352b565b81526020810191909152604001600020600301805460ff19169115159190911790558260028111156117465761174661352b565b6040516001600160a01b03841681527f561acd69f877decb2be770ca93ef06bb6a9e5d65defa3bace8eab67feecac572906020016112e6565b834211156117cf5760405162461bcd60e51b815260206004820152601d60248201527f45524332305065726d69743a206578706972656420646561646c696e650000006044820152606401610978565b60007f6e71edae12b1b97f4d1f60370fef10105fa2faae0126114a169c64845d6126c98888886117fe8c6124b8565b6040805160208101969096526001600160a01b0394851690860152929091166060840152608083015260a082015260c0810186905260e001604051602081830303815290604052805190602001209050600061185982612461565b905060006118698287878761248e565b9050896001600160a01b0316816001600160a01b0316146118cc5760405162461bcd60e51b815260206004820152601e60248201527f45524332305065726d69743a20696e76616c6964207369676e617475726500006044820152606401610978565b6118d78a8a8a611aa3565b50505050505050505050565b6000828152600c60205260409020600101546118fe81611df0565b6108f88383611fab565b6001600160a01b03918216600090815260016020908152604080832093909416825291909152205490565b60008061193e6112f3565b90508060000361195057600091505090565b6a52b7d2dcc80cd2e400000061196e82670de0b6b3a764000061356a565b6119789190613597565b91505090565b7f0acf805600123ef007091da3b3ffb39474074c656c127aa68cb0ffec232a8ff86119a881611df0565b6001600160a01b0383166119ed5760405162461bcd60e51b815260206004820152600c60248201526b7a65726f206164647265737360a01b6044820152606401610978565b611a016001600160a01b0385168484612431565b50505050565b60408051808201909152600080825260208201526001600160a01b0383166000908152600a60205260409020805463ffffffff8416908110611a4b57611a4b613541565b60009182526020918290206040805180820190915291015463ffffffff8116825264010000000090046001600160e01b0316918101919091529392505050565b6000610a2f8284613502565b6000610a2f8284613557565b6001600160a01b038316611b055760405162461bcd60e51b8152602060048201526024808201527f45524332303a20617070726f76652066726f6d20746865207a65726f206164646044820152637265737360e01b6064820152608401610978565b6001600160a01b038216611b665760405162461bcd60e51b815260206004820152602260248201527f45524332303a20617070726f766520746f20746865207a65726f206164647265604482015261737360f01b6064820152608401610978565b6001600160a01b0383811660008181526001602090815260408083209487168084529482529182902085905590518481527f8c5be1e5ebec7d5bd14f71427d1e84f3dd0314c0f7b2291e5b200ac8c7c3b925910160405180910390a3505050565b6000611bd38484611908565b90506000198114611a015781811015611c2e5760405162461bcd60e51b815260206004820152601d60248201527f45524332303a20696e73756666696369656e7420616c6c6f77616e63650000006044820152606401610978565b611a018484848403611aa3565b6001600160a01b038316611c9f5760405162461bcd60e51b815260206004820152602560248201527f45524332303a207472616e736665722066726f6d20746865207a65726f206164604482015264647265737360d81b6064820152608401610978565b6001600160a01b038216611d015760405162461bcd60e51b815260206004820152602360248201527f45524332303a207472616e7366657220746f20746865207a65726f206164647260448201526265737360e81b6064820152608401610978565b611d0c8383836124de565b6001600160a01b03831660009081526020819052604090205481811015611d845760405162461bcd60e51b815260206004820152602660248201527f45524332303a207472616e7366657220616d6f756e7420657863656564732062604482015265616c616e636560d01b6064820152608401610978565b6001600160a01b03848116600081815260208181526040808320878703905593871680835291849020805487019055925185815290927fddf252ad1be2c89b69c2b068fc378daa952ba7f163c4a11628f55a4df523b3ef910160405180910390a3611a018484846124e6565b610b4181336124f1565b611e048282610cd6565b61098b576000828152600c602090815260408083206001600160a01b03851684529091529020805460ff19166001179055611e3c3390565b6001600160a01b0316816001600160a01b0316837f2f8788117e7eff1d82e926ec794901d17c78024a50270940304540a733656f0d60405160405180910390a45050565b6000306001600160a01b037f000000000000000000000000000000000000000000000000000000000000000016148015611ed957507f000000000000000000000000000000000000000000000000000000000000000046145b15611f0357507f000000000000000000000000000000000000000000000000000000000000000090565b610907604080517f8b73c3c69bb8fe3d512ecc4cf759cc79239f7b179b0ffacaa9a75d522b39400f60208201527f0000000000000000000000000000000000000000000000000000000000000000918101919091527f000000000000000000000000000000000000000000000000000000000000000060608201524660808201523060a082015260009060c00160405160208183030381529060405280519060200120905090565b611fb58282610cd6565b1561098b576000828152600c602090815260408083206001600160a01b0385168085529252808320805460ff1916905551339285917ff6391f5c32d9c69d2a47ea670b442974b53935d1edc7fd64eb21e047a839171b9190a45050565b81546000908181600581111561206c57600061202d8461254a565b6120379085613557565b600088815260209020909150869082015463ffffffff16111561205c5780915061206a565b612067816001613502565b92505b505b808210156120b95760006120808383612632565b600088815260209020909150869082015463ffffffff1611156120a5578091506120b3565b6120b0816001613502565b92505b5061206c565b80156120e5576000868152602090208101600019015464010000000090046001600160e01b03166120e8565b60005b6001600160e01b03169695505050505050565b61210361264d565b600d805460ff191690557f5db9ee0a495bf2e6ff9c91a7834c1ba4fdd244a5e8aa4e537bd38aeae4b073aa335b6040516001600160a01b03909116815260200160405180910390a1565b6001600160a01b038281166000818152600960208181526040808420805485845282862054949093528787166001600160a01b03198416811790915590519190951694919391928592917f3134e8a2e6d97e929a7e54011ea5485d7d196dd5f0ba4d4ef95803e8e3fc257f9190a4611a01828483612696565b600063ffffffff82111561222b5760405162461bcd60e51b815260206004820152602660248201527f53616665436173743a2076616c756520646f65736e27742066697420696e203360448201526532206269747360d01b6064820152608401610978565b5090565b61223761237e565b600d805460ff191660011790557f62e78cea01bee320cd4e420270b5ea74000d11b0c9f74754ebdbfc544b05a2586121303390565b606060ff83146122865761227f836127d3565b90506107ff565b818054612292906134b8565b80601f01602080910402602001604051908101604052809291908181526020018280546122be906134b8565b801561230b5780601f106122e05761010080835404028352916020019161230b565b820191906000526020600020905b8154815290600101906020018083116122ee57829003601f168201915b505050505090506107ff565b600065ffffffffffff82111561222b5760405162461bcd60e51b815260206004820152602660248201527f53616665436173743a2076616c756520646f65736e27742066697420696e203460448201526538206269747360d01b6064820152608401610978565b600d5460ff16156123c45760405162461bcd60e51b815260206004820152601060248201526f14185d5cd8589b194e881c185d5cd95960821b6044820152606401610978565b565b6040516001600160a01b0380851660248301528316604482015260648101829052611a019085906323b872dd60e01b906084015b60408051601f198184030181529190526020810180516001600160e01b03166001600160e01b031990931692909217909152612812565b6040516001600160a01b0383166024820152604481018290526108f890849063a9059cbb60e01b906064016123fa565b60006107ff61246e611e80565b8360405161190160f01b8152600281019290925260228201526042902090565b600080600061249f878787876128e7565b915091506124ac816129ab565b5090505b949350505050565b6001600160a01b03811660009081526007602052604090208054600181018255906114f5565b6108f861237e565b6108f8838383612af5565b6124fb8282610cd6565b61098b5761250881612b27565b612513836020612b39565b6040516020016125249291906135b9565b60408051601f198184030181529082905262461bcd60e51b825261097891600401613187565b60008160000361255c57506000919050565b6000600161256984612cd5565b901c6001901b9050600181848161258257612582613581565b048201901c9050600181848161259a5761259a613581565b048201901c905060018184816125b2576125b2613581565b048201901c905060018184816125ca576125ca613581565b048201901c905060018184816125e2576125e2613581565b048201901c905060018184816125fa576125fa613581565b048201901c9050600181848161261257612612613581565b048201901c9050610a2f8182858161262c5761262c613581565b04612d69565b60006126416002848418613597565b610a2f90848416613502565b600d5460ff166123c45760405162461bcd60e51b815260206004820152601460248201527314185d5cd8589b194e881b9bdd081c185d5cd95960621b6044820152606401610978565b816001600160a01b0316836001600160a01b0316141580156126b85750600081115b156108f8576001600160a01b03831615612746576001600160a01b0383166000908152600a6020526040812081906126f390611a9785612d7f565b91509150846001600160a01b03167fdec2bacdd2f05b59de34da9b523dff8be42e5e38e818c82fdb0bae774387a724838360405161273b929190918252602082015260400190565b60405180910390a250505b6001600160a01b038216156108f8576001600160a01b0382166000908152600a60205260408120819061277c90611a8b85612d7f565b91509150836001600160a01b03167fdec2bacdd2f05b59de34da9b523dff8be42e5e38e818c82fdb0bae774387a72483836040516127c4929190918252602082015260400190565b60405180910390a25050505050565b606060006127e083612ef4565b604080516020808252818301909252919250600091906020820181803683375050509182525060208101929092525090565b6000612867826040518060400160405280602081526020017f5361666545524332303a206c6f772d6c6576656c2063616c6c206661696c6564815250856001600160a01b0316612f1c9092919063ffffffff16565b9050805160001480612888575080806020019051810190612888919061362e565b6108f85760405162461bcd60e51b815260206004820152602a60248201527f5361666545524332303a204552433230206f7065726174696f6e20646964206e6044820152691bdd081cdd58d8d9595960b21b6064820152608401610978565b6000807f7fffffffffffffffffffffffffffffff5d576e7357a4501ddfe92f46681b20a083111561291e57506000905060036129a2565b6040805160008082526020820180845289905260ff881692820192909252606081018690526080810185905260019060a0016020604051602081039080840390855afa158015612972573d6000803e3d6000fd5b5050604051601f1901519150506001600160a01b03811661299b576000600192509250506129a2565b9150600090505b94509492505050565b60008160048111156129bf576129bf61352b565b036129c75750565b60018160048111156129db576129db61352b565b03612a285760405162461bcd60e51b815260206004820152601860248201527f45434453413a20696e76616c6964207369676e617475726500000000000000006044820152606401610978565b6002816004811115612a3c57612a3c61352b565b03612a895760405162461bcd60e51b815260206004820152601f60248201527f45434453413a20696e76616c6964207369676e6174757265206c656e677468006044820152606401610978565b6003816004811115612a9d57612a9d61352b565b03610b415760405162461bcd60e51b815260206004820152602260248201527f45434453413a20696e76616c6964207369676e6174757265202773272076616c604482015261756560f01b6064820152608401610978565b6001600160a01b038381166000908152600960205260408082205485841683529120546108f892918216911683612696565b60606107ff6001600160a01b03831660145b60606000612b4883600261356a565b612b53906002613502565b67ffffffffffffffff811115612b6b57612b6b613515565b6040519080825280601f01601f191660200182016040528015612b95576020820181803683370190505b509050600360fc1b81600081518110612bb057612bb0613541565b60200101906001600160f81b031916908160001a905350600f60fb1b81600181518110612bdf57612bdf613541565b60200101906001600160f81b031916908160001a9053506000612c0384600261356a565b612c0e906001613502565b90505b6001811115612c86576f181899199a1a9b1b9c1cb0b131b232b360811b85600f1660108110612c4257612c42613541565b1a60f81b828281518110612c5857612c58613541565b60200101906001600160f81b031916908160001a90535060049490941c93612c7f81613650565b9050612c11565b508315610a2f5760405162461bcd60e51b815260206004820181905260248201527f537472696e67733a20686578206c656e67746820696e73756666696369656e746044820152606401610978565b600080608083901c15612cea57608092831c92015b604083901c15612cfc57604092831c92015b602083901c15612d0e57602092831c92015b601083901c15612d2057601092831c92015b600883901c15612d3257600892831c92015b600483901c15612d4457600492831c92015b600283901c15612d5657600292831c92015b600183901c156107ff5760010192915050565b6000818310612d785781610a2f565b5090919050565b82546000908190818115612dcc5760008781526020902082016000190160408051808201909152905463ffffffff8116825264010000000090046001600160e01b03166020820152612de1565b60408051808201909152600080825260208201525b905080602001516001600160e01b03169350612e0184868863ffffffff16565b9250600082118015612e2b5750612e16610d01565b65ffffffffffff16816000015163ffffffff16145b15612e7057612e3983612f2b565b60008881526020902083016000190180546001600160e01b03929092166401000000000263ffffffff909216919091179055612eea565b866040518060400160405280612e94612e87610d01565b65ffffffffffff166121c6565b63ffffffff168152602001612ea886612f2b565b6001600160e01b0390811690915282546001810184556000938452602093849020835194909301519091166401000000000263ffffffff909316929092179101555b5050935093915050565b600060ff8216601f8111156107ff57604051632cd44ac360e21b815260040160405180910390fd5b60606124b08484600085612f94565b60006001600160e01b0382111561222b5760405162461bcd60e51b815260206004820152602760248201527f53616665436173743a2076616c756520646f65736e27742066697420696e20326044820152663234206269747360c81b6064820152608401610978565b606082471015612ff55760405162461bcd60e51b815260206004820152602660248201527f416464726573733a20696e73756666696369656e742062616c616e636520666f6044820152651c8818d85b1b60d21b6064820152608401610978565b600080866001600160a01b031685876040516130119190613667565b60006040518083038185875af1925050503d806000811461304e576040519150601f19603f3d011682016040523d82523d6000602084013e613053565b606091505b50915091506130648783838761306f565b979650505050505050565b606083156130de5782516000036130d7576001600160a01b0385163b6130d75760405162461bcd60e51b815260206004820152601d60248201527f416464726573733a2063616c6c20746f206e6f6e2d636f6e74726163740000006044820152606401610978565b50816124b0565b6124b083838151156130f35781518083602001fd5b8060405162461bcd60e51b81526004016109789190613187565b60006020828403121561311f57600080fd5b81356001600160e01b031981168114610a2f57600080fd5b60005b8381101561315257818101518382015260200161313a565b50506000910152565b60008151808452613173816020860160208601613137565b601f01601f19169290920160200192915050565b602081526000610a2f602083018461315b565b80356001600160a01b03811681146131b157600080fd5b919050565b600080604083850312156131c957600080fd5b6131d28361319a565b946020939093013593505050565b6000806000606084860312156131f557600080fd5b6131fe8461319a565b925061320c6020850161319a565b929592945050506040919091013590565b60006020828403121561322f57600080fd5b5035919050565b6000806040838503121561324957600080fd5b823591506132596020840161319a565b90509250929050565b60006020828403121561327457600080fd5b610a2f8261319a565b60ff60f81b8816815260e06020820152600061329c60e083018961315b565b82810360408401526132ae818961315b565b606084018890526001600160a01b038716608085015260a0840186905283810360c08501528451808252602080870193509091019060005b818110156133045783518352602093840193909201916001016132e6565b50909b9a5050505050505050505050565b8035600381106131b157600080fd5b6000806040838503121561333757600080fd5b6131d283613315565b60008060006060848603121561335557600080fd5b6131fe84613315565b803560ff811681146131b157600080fd5b60008060008060008060c0878903121561338857600080fd5b6133918761319a565b955060208701359450604087013593506133ad6060880161335e565b9598949750929560808101359460a0909101359350915050565b600080604083850312156133da57600080fd5b6133e383613315565b91506132596020840161319a565b600080600080600080600060e0888a03121561340c57600080fd5b6134158861319a565b96506134236020890161319a565b9550604088013594506060880135935061343f6080890161335e565b9699959850939692959460a0840135945060c09093013592915050565b6000806040838503121561346f57600080fd5b6133e38361319a565b6000806040838503121561348b57600080fd5b6134948361319a565b9150602083013563ffffffff811681146134ad57600080fd5b809150509250929050565b600181811c908216806134cc57607f821691505b6020821081036114f557634e487b7160e01b600052602260045260246000fd5b634e487b7160e01b600052601160045260246000fd5b808201808211156107ff576107ff6134ec565b634e487b7160e01b600052604160045260246000fd5b634e487b7160e01b600052602160045260246000fd5b634e487b7160e01b600052603260045260246000fd5b818103818111156107ff576107ff6134ec565b80820281158282048414176107ff576107ff6134ec565b634e487b7160e01b600052601260045260246000fd5b6000826135b457634e487b7160e01b600052601260045260246000fd5b500490565b7f416363657373436f6e74726f6c3a206163636f756e74200000000000000000008152600083516135f1816017850160208801613137565b7001034b99036b4b9b9b4b733903937b6329607d1b6017918401918201528351613622816028840160208801613137565b01602801949350505050565b60006020828403121561364057600080fd5b81518015158114610a2f57600080fd5b60008161365f5761365f6134ec565b506000190190565b60008251613679818460208701613137565b919091019291505056feaa9060660dc3e52152ec6c4cd87f38f5433d3e2246058f23a29463ea32476817a2646970667358221220b693a90565c55ba44c67928a89bed9fe8828d7e38c04f645bc81b132e6e8aaf464736f6c634300081c0033dec2bacdd2f05b59de34da9b523dff8be42e5e38e818c82fdb0bae774387a724",
  "linkReferences": {},
  "deployedLinkReferences": {}
}