{
  "_format": "hh-sol-artifact-1",
  "contractName": "EminarToken",
  "sourceName": "contracts/EMN/EMN.sol",
  "abi": [
    {
      "inputs": [
        {
          "internalType": "string",
          "name": "name_",
          "type": "string"
        },
        {
          "internalType": "string",
          "name": "symbol_",
          "type": "string"
        },
        {
          "internalType": "address",
          "name": "publicAddr_",
          "type": "address"
        },
        {
          "internalType": "address",
          "name": "reserveAddr_",
          "type": "address"
        },
        {
          "internalType": "address",
          "name": "devAddr_",
          "type": "address"
        },
        {
          "internalType": "address",
          "name": "shariaAddr_",
          "type": "address"
        },
        {
          "internalType": "address",
          "name": "strategicAddr_",
          "type": "address"
        },
        {
          "internalType": "address",
          "name": "governanceMultisig_",
          "type": "address"
        }
      ],
      "stateMutability": "nonpayable",
      "type": "constructor"
    },
    {
      "inputs": [],
      "name": "AssetNotRegistered",
      "type": "error"
    },
    {
      "inputs": [],
      "name": "DuplicateAddress",
      "type": "error"
    },
    {
      "inputs": [],
      "name": "ExceedsMaxSupply",
      "type": "error"
    },
    {
      "inputs": [],
      "name": "InsufficientBacking",
      "type": "error"
    },
    {
      "inputs": [],
      "name": "InsufficientBalance",
      "type": "error"
    },
    {
      "inputs": [],
      "name": "InvalidAsset",
      "type": "error"
    },
    {
      "inputs": [],
      "name": "InvalidPrice",
      "type": "error"
    },
    {
      "inputs": [],
      "name": "InvalidShortString",
      "type": "error"
    },
    {
      "inputs": [
        {
          "internalType": "string",
          "name": "str",
          "type": "string"
        }
      ],
      "name": "StringTooLong",
      "type": "error"
    },
    {
      "inputs": [],
      "name": "ZeroAddress",
      "type": "error"
    },
    {
      "inputs": [],
      "name": "ZeroAmount",
      "type": "error"
    },
    {
      "anonymous": false,
      "inputs": [
        {
          "indexed": true,
          "internalType": "string",
          "name": "addressType",
          "type": "string"
        },
        {
          "indexed": false,
          "internalType": "address",
          "name": "newAddress",
          "type": "address"
        }
      ],
      "name": "AddressUpdated",
      "type": "event"
    },
    {
      "anonymous": false,
      "inputs": [
        {
          "indexed": true,
          "internalType": "address",
          "name": "owner",
          "type": "address"
        },
        {
          "indexed": true,
          "internalType": "address",
          "name": "spender",
          "type": "address"
        },
        {
          "indexed": false,
          "internalType": "uint256",
          "name": "value",
          "type": "uint256"
        }
      ],
      "name": "Approval",
      "type": "event"
    },
    {
      "anonymous": false,
      "inputs": [
        {
          "indexed": true,
          "internalType": "enum EminarToken.BackingAsset",
          "name": "asset",
          "type": "uint8"
        },
        {
          "indexed": false,
          "internalType": "uint256",
          "name": "priceUSD",
          "type": "uint256"
        }
      ],
      "name": "AssetPriceUpdated",
      "type": "event"
    },
    {
      "anonymous": false,
      "inputs": [
        {
          "indexed": true,
          "internalType": "enum EminarToken.BackingAsset",
          "name": "asset",
          "type": "uint8"
        },
        {
          "indexed": true,
          "internalType": "address",
          "name": "from",
          "type": "address"
        },
        {
          "indexed": false,
          "internalType": "uint256",
          "name": "amount",
          "type": "uint256"
        }
      ],
      "name": "BackingDeposited",
      "type": "event"
    },
    {
      "anonymous": false,
      "inputs": [
        {
          "indexed": true,
          "internalType": "enum EminarToken.BackingAsset",
          "name": "asset",
          "type": "uint8"
        },
        {
          "indexed": false,
          "internalType": "address",
          "name": "token",
          "type": "address"
        }
      ],
      "name": "BackingTokenRegistered",
      "type": "event"
    },
    {
      "anonymous": false,
      "inputs": [
        {
          "indexed": true,
          "internalType": "enum EminarToken.BackingAsset",
          "name": "asset",
          "type": "uint8"
        }
      ],
      "name": "BackingTokenUnregistered",
      "type": "event"
    },
    {
      "anonymous": false,
      "inputs": [
        {
          "indexed": true,
          "internalType": "enum EminarToken.BackingAsset",
          "name": "asset",
          "type": "uint8"
        },
        {
          "indexed": true,
          "internalType": "address",
          "name": "to",
          "type": "address"
        },
        {
          "indexed": false,
          "internalType": "uint256",
          "name": "amount",
          "type": "uint256"
        }
      ],
      "name": "BackingWithdrawn",
      "type": "event"
    },
    {
      "anonymous": false,
      "inputs": [
        {
          "indexed": true,
          "internalType": "address",
          "name": "delegator",
          "type": "address"
        },
        {
          "indexed": true,
          "internalType": "address",
          "name": "fromDelegate",
          "type": "address"
        },
        {
          "indexed": true,
          "internalType": "address",
          "name": "toDelegate",
          "type": "address"
        }
      ],
      "name": "DelegateChanged",
      "type": "event"
    },
    {
      "anonymous": false,
      "inputs": [
        {
          "indexed": true,
          "internalType": "address",
          "name": "delegate",
          "type": "address"
        },
        {
          "indexed": false,
          "internalType": "uint256",
          "name": "previousBalance",
          "type": "uint256"
        },
        {
          "indexed": false,
          "internalType": "uint256",
          "name": "newBalance",
          "type": "uint256"
        }
      ],
      "name": "DelegateVotesChanged",
      "type": "event"
    },
    {
      "anonymous": false,
      "inputs": [],
      "name": "EIP712DomainChanged",
      "type": "event"
    },
    {
      "anonymous": false,
      "inputs": [
        {
          "indexed": false,
          "internalType": "address",
          "name": "account",
          "type": "address"
        }
      ],
      "name": "Paused",
      "type": "event"
    },
    {
      "anonymous": false,
      "inputs": [
        {
          "indexed": true,
          "internalType": "bytes32",
          "name": "role",
          "type": "bytes32"
        },
        {
          "indexed": true,
          "internalType": "bytes32",
          "name": "previousAdminRole",
          "type": "bytes32"
        },
        {
          "indexed": true,
          "internalType": "bytes32",
          "name": "newAdminRole",
          "type": "bytes32"
        }
      ],
      "name": "RoleAdminChanged",
      "type": "event"
    },
    {
      "anonymous": false,
      "inputs": [
        {
          "indexed": true,
          "internalType": "bytes32",
          "name": "role",
          "type": "bytes32"
        },
        {
          "indexed": true,
          "internalType": "address",
          "name": "account",
          "type": "address"
        },
        {
          "indexed": true,
          "internalType": "address",
          "name": "sender",
          "type": "address"
        }
      ],
      "name": "RoleGranted",
      "type": "event"
    },
    {
      "anonymous": false,
      "inputs": [
        {
          "indexed": true,
          "internalType": "bytes32",
          "name": "role",
          "type": "bytes32"
        },
        {
          "indexed": true,
          "internalType": "address",
          "name": "account",
          "type": "address"
        },
        {
          "indexed": true,
          "internalType": "address",
          "name": "sender",
          "type": "address"
        }
      ],
      "name": "RoleRevoked",
      "type": "event"
    },
    {
      "anonymous": false,
      "inputs": [
        {
          "indexed": true,
          "internalType": "address",
          "name": "from",
          "type": "address"
        },
        {
          "indexed": false,
          "internalType": "uint256",
          "name": "amount",
          "type": "uint256"
        },
        {
          "indexed": false,
          "internalType": "string",
          "name": "reason",
          "type": "string"
        }
      ],
      "name": "TokensBurned",
      "type": "event"
    },
    {
      "anonymous": false,
      "inputs": [
        {
          "indexed": true,
          "internalType": "address",
          "name": "to",
          "type": "address"
        },
        {
          "indexed": false,
          "internalType": "uint256",
          "name": "amount",
          "type": "uint256"
        },
        {
          "indexed": false,
          "internalType": "string",
          "name": "reason",
          "type": "string"
        }
      ],
      "name": "TokensMinted",
      "type": "event"
    },
    {
      "anonymous": false,
      "inputs": [
        {
          "indexed": true,
          "internalType": "address",
          "name": "from",
          "type": "address"
        },
        {
          "indexed": true,
          "internalType": "address",
          "name": "to",
          "type": "address"
        },
        {
          "indexed": false,
          "internalType": "uint256",
          "name": "value",
          "type": "uint256"
        }
      ],
      "name": "Transfer",
      "type": "event"
    },
    {
      "anonymous": false,
      "inputs": [
        {
          "indexed": false,
          "internalType": "address",
          "name": "account",
          "type": "address"
        }
      ],
      "name": "Unpaused",
      "type": "event"
    },
    {
      "inputs": [],
      "name": "BACKING_MANAGER_ROLE",
      "outputs": [
        {
          "internalType": "bytes32",
          "name": "",
          "type": "bytes32"
        }
      ],
      "stateMutability": "view",
      "type": "function"
    },
    {
      "inputs": [],
      "name": "BURNER_ROLE",
      "outputs": [
        {
          "internalType": "bytes32",
          "name": "",
          "type": "bytes32"
        }
      ],
      "stateMutability": "view",
      "type": "function"
    },
    {
      "inputs": [],
      "name": "CLOCK_MODE",
      "outputs": [
        {
          "internalType": "string",
          "name": "",
          "type": "string"
        }
      ],
      "stateMutability": "view",
      "type": "function"
    },
    {
      "inputs": [],
      "name": "DEFAULT_ADMIN_ROLE",
      "outputs": [
        {
          "internalType": "bytes32",
          "name": "",
          "type": "bytes32"
        }
      ],
      "stateMutability": "view",
      "type": "function"
    },
    {
      "inputs": [],
      "name": "DOMAIN_SEPARATOR",
      "outputs": [
        {
          "internalType": "bytes32",
          "name": "",
          "type": "bytes32"
        }
      ],
      "stateMutability": "view",
      "type": "function"
    },
    {
      "inputs": [],
      "name": "GOVERNANCE_ROLE",
      "outputs": [
        {
          "internalType": "bytes32",
          "name": "",
          "type": "bytes32"
        }
      ],
      "stateMutability": "view",
      "type": "function"
    },
    {
      "inputs": [],
      "name": "INITIAL_SUPPLY",
      "outputs": [
        {
          "internalType": "uint256",
          "name": "",
          "type": "uint256"
        }
      ],
      "stateMutability": "view",
      "type": "function"
    },
    {
      "inputs": [],
      "name": "MAX_ASSET_PRICE",
      "outputs": [
        {
          "internalType": "uint256",
          "name": "",
          "type": "uint256"
        }
      ],
      "stateMutability": "view",
      "type": "function"
    },
    {
      "inputs": [],
      "name": "MAX_SUPPLY",
      "outputs": [
        {
          "internalType": "uint256",
          "name": "",
          "type": "uint256"
        }
      ],
      "stateMutability": "view",
      "type": "function"
    },
    {
      "inputs": [],
      "name": "MINTER_ROLE",
      "outputs": [
        {
          "internalType": "bytes32",
          "name": "",
          "type": "bytes32"
        }
      ],
      "stateMutability": "view",
      "type": "function"
    },
    {
      "inputs": [],
      "name": "PAUSER_ROLE",
      "outputs": [
        {
          "internalType": "bytes32",
          "name": "",
          "type": "bytes32"
        }
      ],
      "stateMutability": "view",
      "type": "function"
    },
    {
      "inputs": [],
      "name": "RECOVERY_ROLE",
      "outputs": [
        {
          "internalType": "bytes32",
          "name": "",
          "type": "bytes32"
        }
      ],
      "stateMutability": "view",
      "type": "function"
    },
    {
      "inputs": [
        {
          "internalType": "address",
          "name": "owner",
          "type": "address"
        },
        {
          "internalType": "address",
          "name": "spender",
          "type": "address"
        }
      ],
      "name": "allowance",
      "outputs": [
        {
          "internalType": "uint256",
          "name": "",
          "type": "uint256"
        }
      ],
      "stateMutability": "view",
      "type": "function"
    },
    {
      "inputs": [
        {
          "internalType": "address",
          "name": "spender",
          "type": "address"
        },
        {
          "internalType": "uint256",
          "name": "amount",
          "type": "uint256"
        }
      ],
      "name": "approve",
      "outputs": [
        {
          "internalType": "bool",
          "name": "",
          "type": "bool"
        }
      ],
      "stateMutability": "nonpayable",
      "type": "function"
    },
    {
      "inputs": [],
      "name": "backingPerTokenUSD",
      "outputs": [
        {
          "internalType": "uint256",
          "name": "",
          "type": "uint256"
        }
      ],
      "stateMutability": "view",
      "type": "function"
    },
    {
      "inputs": [
        {
          "internalType": "address",
          "name": "account",
          "type": "address"
        }
      ],
      "name": "balanceOf",
      "outputs": [
        {
          "internalType": "uint256",
          "name": "",
          "type": "uint256"
        }
      ],
      "stateMutability": "view",
      "type": "function"
    },
    {
      "inputs": [
        {
          "internalType": "address",
          "name": "from",
          "type": "address"
        },
        {
          "internalType": "uint256",
          "name": "amount",
          "type": "uint256"
        },
        {
          "internalType": "string",
          "name": "reason",
          "type": "string"
        }
      ],
      "name": "burn",
      "outputs": [],
      "stateMutability": "nonpayable",
      "type": "function"
    },
    {
      "inputs": [
        {
          "internalType": "uint256",
          "name": "amount",
          "type": "uint256"
        },
        {
          "internalType": "string",
          "name": "reason",
          "type": "string"
        }
      ],
      "name": "burnMyTokens",
      "outputs": [],
      "stateMutability": "nonpayable",
      "type": "function"
    },
    {
      "inputs": [
        {
          "internalType": "address",
          "name": "account",
          "type": "address"
        },
        {
          "internalType": "uint32",
          "name": "pos",
          "type": "uint32"
        }
      ],
      "name": "checkpoints",
      "outputs": [
        {
          "components": [
            {
              "internalType": "uint32",
              "name": "fromBlock",
              "type": "uint32"
            },
            {
              "internalType": "uint224",
              "name": "votes",
              "type": "uint224"
            }
          ],
          "internalType": "struct ERC20Votes.Checkpoint",
          "name": "",
          "type": "tuple"
        }
      ],
      "stateMutability": "view",
      "type": "function"
    },
    {
      "inputs": [],
      "name": "clock",
      "outputs": [
        {
          "internalType": "uint48",
          "name": "",
          "type": "uint48"
        }
      ],
      "stateMutability": "view",
      "type": "function"
    },
    {
      "inputs": [],
      "name": "decimals",
      "outputs": [
        {
          "internalType": "uint8",
          "name": "",
          "type": "uint8"
        }
      ],
      "stateMutability": "pure",
      "type": "function"
    },
    {
      "inputs": [
        {
          "internalType": "address",
          "name": "spender",
          "type": "address"
        },
        {
          "internalType": "uint256",
          "name": "subtractedValue",
          "type": "uint256"
        }
      ],
      "name": "decreaseAllowance",
      "outputs": [
        {
          "internalType": "bool",
          "name": "",
          "type": "bool"
        }
      ],
      "stateMutability": "nonpayable",
      "type": "function"
    },
    {
      "inputs": [
        {
          "internalType": "address",
          "name": "delegatee",
          "type": "address"
        }
      ],
      "name": "delegate",
      "outputs": [],
      "stateMutability": "nonpayable",
      "type": "function"
    },
    {
      "inputs": [
        {
          "internalType": "address",
          "name": "delegatee",
          "type": "address"
        },
        {
          "internalType": "uint256",
          "name": "nonce",
          "type": "uint256"
        },
        {
          "internalType": "uint256",
          "name": "expiry",
          "type": "uint256"
        },
        {
          "internalType": "uint8",
          "name": "v",
          "type": "uint8"
        },
        {
          "internalType": "bytes32",
          "name": "r",
          "type": "bytes32"
        },
        {
          "internalType": "bytes32",
          "name": "s",
          "type": "bytes32"
        }
      ],
      "name": "delegateBySig",
      "outputs": [],
      "stateMutability": "nonpayable",
      "type": "function"
    },
    {
      "inputs": [
        {
          "internalType": "address",
          "name": "account",
          "type": "address"
        }
      ],
      "name": "delegates",
      "outputs": [
        {
          "internalType": "address",
          "name": "",
          "type": "address"
        }
      ],
      "stateMutability": "view",
      "type": "function"
    },
    {
      "inputs": [
        {
          "internalType": "enum EminarToken.BackingAsset",
          "name": "asset",
          "type": "uint8"
        },
        {
          "internalType": "uint256",
          "name": "amount",
          "type": "uint256"
        }
      ],
      "name": "depositBacking",
      "outputs": [],
      "stateMutability": "nonpayable",
      "type": "function"
    },
    {
      "inputs": [],
      "name": "developmentAddress",
      "outputs": [
        {
          "internalType": "address",
          "name": "",
          "type": "address"
        }
      ],
      "stateMutability": "view",
      "type": "function"
    },
    {
      "inputs": [],
      "name": "eip712Domain",
      "outputs": [
        {
          "internalType": "bytes1",
          "name": "fields",
          "type": "bytes1"
        },
        {
          "internalType": "string",
          "name": "name",
          "type": "string"
        },
        {
          "internalType": "string",
          "name": "version",
          "type": "string"
        },
        {
          "internalType": "uint256",
          "name": "chainId",
          "type": "uint256"
        },
        {
          "internalType": "address",
          "name": "verifyingContract",
          "type": "address"
        },
        {
          "internalType": "bytes32",
          "name": "salt",
          "type": "bytes32"
        },
        {
          "internalType": "uint256[]",
          "name": "extensions",
          "type": "uint256[]"
        }
      ],
      "stateMutability": "view",
      "type": "function"
    },
    {
      "inputs": [
        {
          "internalType": "address",
          "name": "token",
          "type": "address"
        },
        {
          "internalType": "address",
          "name": "to",
          "type": "address"
        },
        {
          "internalType": "uint256",
          "name": "amount",
          "type": "uint256"
        }
      ],
      "name": "emergencyRecoverERC20",
      "outputs": [],
      "stateMutability": "nonpayable",
      "type": "function"
    },
    {
      "inputs": [
        {
          "internalType": "address",
          "name": "_target",
          "type": "address"
        },
        {
          "internalType": "bytes",
          "name": "_data",
          "type": "bytes"
        }
      ],
      "name": "executeGovernanceProposal",
      "outputs": [
        {
          "internalType": "bool",
          "name": "",
          "type": "bool"
        }
      ],
      "stateMutability": "nonpayable",
      "type": "function"
    },
    {
      "inputs": [
        {
          "internalType": "enum EminarToken.BackingAsset",
          "name": "asset",
          "type": "uint8"
        }
      ],
      "name": "getAssetInfo",
      "outputs": [
        {
          "components": [
            {
              "internalType": "contract IERC20",
              "name": "token",
              "type": "address"
            },
            {
              "internalType": "uint256",
              "name": "amount",
              "type": "uint256"
            },
            {
              "internalType": "uint256",
              "name": "priceUSD",
              "type": "uint256"
            },
            {
              "internalType": "bool",
              "name": "registered",
              "type": "bool"
            }
          ],
          "internalType": "struct EminarToken.AssetInfo",
          "name": "",
          "type": "tuple"
        }
      ],
      "stateMutability": "view",
      "type": "function"
    },
    {
      "inputs": [
        {
          "internalType": "uint256",
          "name": "timepoint",
          "type": "uint256"
        }
      ],
      "name": "getPastTotalSupply",
      "outputs": [
        {
          "internalType": "uint256",
          "name": "",
          "type": "uint256"
        }
      ],
      "stateMutability": "view",
      "type": "function"
    },
    {
      "inputs": [
        {
          "internalType": "address",
          "name": "account",
          "type": "address"
        },
        {
          "internalType": "uint256",
          "name": "timepoint",
          "type": "uint256"
        }
      ],
      "name": "getPastVotes",
      "outputs": [
        {
          "internalType": "uint256",
          "name": "",
          "type": "uint256"
        }
      ],
      "stateMutability": "view",
      "type": "function"
    },
    {
      "inputs": [
        {
          "internalType": "bytes32",
          "name": "role",
          "type": "bytes32"
        }
      ],
      "name": "getRoleAdmin",
      "outputs": [
        {
          "internalType": "bytes32",
          "name": "",
          "type": "bytes32"
        }
      ],
      "stateMutability": "view",
      "type": "function"
    },
    {
      "inputs": [
        {
          "internalType": "address",
          "name": "account",
          "type": "address"
        }
      ],
      "name": "getVotes",
      "outputs": [
        {
          "internalType": "uint256",
          "name": "",
          "type": "uint256"
        }
      ],
      "stateMutability": "view",
      "type": "function"
    },
    {
      "inputs": [
        {
          "internalType": "bytes32",
          "name": "role",
          "type": "bytes32"
        },
        {
          "internalType": "address",
          "name": "account",
          "type": "address"
        }
      ],
      "name": "grantRole",
      "outputs": [],
      "stateMutability": "nonpayable",
      "type": "function"
    },
    {
      "inputs": [
        {
          "internalType": "bytes32",
          "name": "role",
          "type": "bytes32"
        },
        {
          "internalType": "address",
          "name": "account",
          "type": "address"
        }
      ],
      "name": "hasRole",
      "outputs": [
        {
          "internalType": "bool",
          "name": "",
          "type": "bool"
        }
      ],
      "stateMutability": "view",
      "type": "function"
    },
    {
      "inputs": [
        {
          "internalType": "address",
          "name": "spender",
          "type": "address"
        },
        {
          "internalType": "uint256",
          "name": "addedValue",
          "type": "uint256"
        }
      ],
      "name": "increaseAllowance",
      "outputs": [
        {
          "internalType": "bool",
          "name": "",
          "type": "bool"
        }
      ],
      "stateMutability": "nonpayable",
      "type": "function"
    },
    {
      "inputs": [
        {
          "internalType": "address",
          "name": "",
          "type": "address"
        }
      ],
      "name": "isMember",
      "outputs": [
        {
          "internalType": "bool",
          "name": "",
          "type": "bool"
        }
      ],
      "stateMutability": "view",
      "type": "function"
    },
    {
      "inputs": [
        {
          "internalType": "address",
          "name": "to",
          "type": "address"
        },
        {
          "internalType": "uint256",
          "name": "amount",
          "type": "uint256"
        },
        {
          "internalType": "string",
          "name": "reason",
          "type": "string"
        }
      ],
      "name": "mint",
      "outputs": [],
      "stateMutability": "nonpayable",
      "type": "function"
    },
    {
      "inputs": [],
      "name": "name",
      "outputs": [
        {
          "internalType": "string",
          "name": "",
          "type": "string"
        }
      ],
      "stateMutability": "view",
      "type": "function"
    },
    {
      "inputs": [
        {
          "internalType": "address",
          "name": "owner",
          "type": "address"
        }
      ],
      "name": "nonces",
      "outputs": [
        {
          "internalType": "uint256",
          "name": "",
          "type": "uint256"
        }
      ],
      "stateMutability": "view",
      "type": "function"
    },
    {
      "inputs": [
        {
          "internalType": "address",
          "name": "account",
          "type": "address"
        }
      ],
      "name": "numCheckpoints",
      "outputs": [
        {
          "internalType": "uint32",
          "name": "",
          "type": "uint32"
        }
      ],
      "stateMutability": "view",
      "type": "function"
    },
    {
      "inputs": [],
      "name": "pause",
      "outputs": [],
      "stateMutability": "nonpayable",
      "type": "function"
    },
    {
      "inputs": [],
      "name": "paused",
      "outputs": [
        {
          "internalType": "bool",
          "name": "",
          "type": "bool"
        }
      ],
      "stateMutability": "view",
      "type": "function"
    },
    {
      "inputs": [
        {
          "internalType": "address",
          "name": "owner",
          "type": "address"
        },
        {
          "internalType": "address",
          "name": "spender",
          "type": "address"
        },
        {
          "internalType": "uint256",
          "name": "value",
          "type": "uint256"
        },
        {
          "internalType": "uint256",
          "name": "deadline",
          "type": "uint256"
        },
        {
          "internalType": "uint8",
          "name": "v",
          "type": "uint8"
        },
        {
          "internalType": "bytes32",
          "name": "r",
          "type": "bytes32"
        },
        {
          "internalType": "bytes32",
          "name": "s",
          "type": "bytes32"
        }
      ],
      "name": "permit",
      "outputs": [],
      "stateMutability": "nonpayable",
      "type": "function"
    },
    {
      "inputs": [],
      "name": "publicAddress",
      "outputs": [
        {
          "internalType": "address",
          "name": "",
          "type": "address"
        }
      ],
      "stateMutability": "view",
      "type": "function"
    },
    {
      "inputs": [
        {
          "internalType": "enum EminarToken.BackingAsset",
          "name": "asset",
          "type": "uint8"
        },
        {
          "internalType": "address",
          "name": "token",
          "type": "address"
        }
      ],
      "name": "registerBackingToken",
      "outputs": [],
      "stateMutability": "nonpayable",
      "type": "function"
    },
    {
      "inputs": [
        {
          "internalType": "bytes32",
          "name": "role",
          "type": "bytes32"
        },
        {
          "internalType": "address",
          "name": "account",
          "type": "address"
        }
      ],
      "name": "renounceRole",
      "outputs": [],
      "stateMutability": "nonpayable",
      "type": "function"
    },
    {
      "inputs": [],
      "name": "reserveAddress",
      "outputs": [
        {
          "internalType": "address",
          "name": "",
          "type": "address"
        }
      ],
      "stateMutability": "view",
      "type": "function"
    },
    {
      "inputs": [
        {
          "internalType": "bytes32",
          "name": "role",
          "type": "bytes32"
        },
        {
          "internalType": "address",
          "name": "account",
          "type": "address"
        }
      ],
      "name": "revokeRole",
      "outputs": [],
      "stateMutability": "nonpayable",
      "type": "function"
    },
    {
      "inputs": [
        {
          "internalType": "enum EminarToken.BackingAsset",
          "name": "asset",
          "type": "uint8"
        },
        {
          "internalType": "uint256",
          "name": "priceUSD",
          "type": "uint256"
        }
      ],
      "name": "setAssetPriceUSD",
      "outputs": [],
      "stateMutability": "nonpayable",
      "type": "function"
    },
    {
      "inputs": [],
      "name": "shariaTrustAddress",
      "outputs": [
        {
          "internalType": "address",
          "name": "",
          "type": "address"
        }
      ],
      "stateMutability": "view",
      "type": "function"
    },
    {
      "inputs": [],
      "name": "strategicPartnersAddress",
      "outputs": [
        {
          "internalType": "address",
          "name": "",
          "type": "address"
        }
      ],
      "stateMutability": "view",
      "type": "function"
    },
    {
      "inputs": [
        {
          "internalType": "bytes4",
          "name": "interfaceId",
          "type": "bytes4"
        }
      ],
      "name": "supportsInterface",
      "outputs": [
        {
          "internalType": "bool",
          "name": "",
          "type": "bool"
        }
      ],
      "stateMutability": "view",
      "type": "function"
    },
    {
      "inputs": [],
      "name": "symbol",
      "outputs": [
        {
          "internalType": "string",
          "name": "",
          "type": "string"
        }
      ],
      "stateMutability": "view",
      "type": "function"
    },
    {
      "inputs": [],
      "name": "totalBackingValueUSD",
      "outputs": [
        {
          "internalType": "uint256",
          "name": "",
          "type": "uint256"
        }
      ],
      "stateMutability": "view",
      "type": "function"
    },
    {
      "inputs": [],
      "name": "totalSupply",
      "outputs": [
        {
          "internalType": "uint256",
          "name": "",
          "type": "uint256"
        }
      ],
      "stateMutability": "view",
      "type": "function"
    },
    {
      "inputs": [
        {
          "internalType": "address",
          "name": "to",
          "type": "address"
        },
        {
          "internalType": "uint256",
          "name": "amount",
          "type": "uint256"
        }
      ],
      "name": "transfer",
      "outputs": [
        {
          "internalType": "bool",
          "name": "",
          "type": "bool"
        }
      ],
      "stateMutability": "nonpayable",
      "type": "function"
    },
    {
      "inputs": [
        {
          "internalType": "address",
          "name": "from",
          "type": "address"
        },
        {
          "internalType": "address",
          "name": "to",
          "type": "address"
        },
        {
          "internalType": "uint256",
          "name": "amount",
          "type": "uint256"
        }
      ],
      "name": "transferFrom",
      "outputs": [
        {
          "internalType": "bool",
          "name": "",
          "type": "bool"
        }
      ],
      "stateMutability": "nonpayable",
      "type": "function"
    },
    {
      "inputs": [],
      "name": "unpause",
      "outputs": [],
      "stateMutability": "nonpayable",
      "type": "function"
    },
    {
      "inputs": [
        {
          "internalType": "enum EminarToken.BackingAsset",
          "name": "asset",
          "type": "uint8"
        }
      ],
      "name": "unregisterBackingToken",
      "outputs": [],
      "stateMutability": "nonpayable",
      "type": "function"
    },
    {
      "inputs": [
        {
          "internalType": "address",
          "name": "newAddress",
          "type": "address"
        }
      ],
      "name": "updateDevelopmentAddress",
      "outputs": [],
      "stateMutability": "nonpayable",
      "type": "function"
    },
    {
      "inputs": [
        {
          "internalType": "address",
          "name": "newAddress",
          "type": "address"
        }
      ],
      "name": "updatePublicAddress",
      "outputs": [],
      "stateMutability": "nonpayable",
      "type": "function"
    },
    {
      "inputs": [
        {
          "internalType": "address",
          "name": "newAddress",
          "type": "address"
        }
      ],
      "name": "updateReserveAddress",
      "outputs": [],
      "stateMutability": "nonpayable",
      "type": "function"
    },
    {
      "inputs": [
        {
          "internalType": "enum EminarToken.BackingAsset",
          "name": "asset",
          "type": "uint8"
        },
        {
          "internalType": "address",
          "name": "to",
          "type": "address"
        },
        {
          "internalType": "uint256",
          "name": "amount",
          "type": "uint256"
        }
      ],
      "name": "withdrawBacking",
      "outputs": [],
      "stateMutability": "nonpayable",
      "type": "function"
    }
  ],
  "bytecode": "0x61016060405234801561001157600080fd5b5060405161547438038061547483398101604081905261003091610c78565b6040805180820190915260018152603160f81b602082015288908190818a600361005a8382610dcd565b5060046100678282610dcd565b506100779150839050600561044c565b6101205261008681600661044c565b61014052815160208084019190912060e052815190820120610100524660a05261011360e05161010051604080517f8b73c3c69bb8fe3d512ecc4cf759cc79239f7b179b0ffacaa9a75d522b39400f60208201529081019290925260608201524660808201523060a082015260009060c00160405160208183030381529060405280519060200120905090565b60805250503060c05250600d805460ff191690556001600160a01b038616158061014457506001600160a01b038516155b8061015657506001600160a01b038416155b8061016857506001600160a01b038316155b8061017a57506001600160a01b038216155b8061018c57506001600160a01b038116155b156101aa5760405163d92e233d60e01b815260040160405180910390fd5b601480546001600160a01b03199081166001600160a01b03898116918217909355601080548316898516178155601180548416898616178155601280548516898716178155601380549095168887161785556000938452600f6020526040808520805460ff199081166001908117909255945488168652818620805486168217905592548716855280852080548516841790559054861684528084208054841683179055935490941682529181208054909216909217905561026c908261047f565b6102967f9f2df0fed2c77648de5860a4cc508cd0818c85b8b8a1ab4ceeef8d981c8956a68261047f565b6102c07f3c11d16cbaffd01df69ce1c404f6340ee057498f5f00246190ea54220576a8488261047f565b6102ea7f65d7a28e3265b37a6474929f336521b332c1681b933f6cb9f3376673440d862a8261047f565b6103147faa9060660dc3e52152ec6c4cd87f38f5433d3e2246058f23a29463ea324768178261047f565b61033e7f71840dc4906352362b0cdaf79870196c8e42acafade72d5d5a6d59291253ceb18261047f565b6103687f0acf805600123ef007091da3b3ffb39474074c656c127aa68cb0ffec232a8ff88261047f565b60145461039f906001600160a01b031660646103906a52b7d2dcc80cd2e40000006028610ea1565b61039a9190610eb8565b610522565b6010546103c7906001600160a01b031660646103906a52b7d2dcc80cd2e40000006014610ea1565b6011546103ef906001600160a01b031660646103906a52b7d2dcc80cd2e40000006014610ea1565b601254610417906001600160a01b031660646103906a52b7d2dcc80cd2e4000000600a610ea1565b60135461043f906001600160a01b031660646103906a52b7d2dcc80cd2e4000000600a610ea1565b5050505050505050610f57565b6000602083511015610468576104618361052c565b9050610479565b816104738482610dcd565b5060ff90505b92915050565b6000828152600c602090815260408083206001600160a01b038516845290915290205460ff1661051e576000828152600c602090815260408083206001600160a01b03851684529091529020805460ff191660011790556104dd3390565b6001600160a01b0316816001600160a01b0316837f2f8788117e7eff1d82e926ec794901d17c78024a50270940304540a733656f0d60405160405180910390a45b5050565b61051e8282610573565b600080829050601f81511115610560578260405163305a27a960e01b81526004016105579190610eda565b60405180910390fd5b805161056b82610f0d565b179392505050565b61057d8282610611565b6001600160e01b0361058f6106e48216565b11156105f65760405162461bcd60e51b815260206004820152603060248201527f4552433230566f7465733a20746f74616c20737570706c79207269736b73206f60448201526f766572666c6f77696e6720766f74657360801b6064820152608401610557565b61060b600b6123586106ea60201b17836106fd565b50505050565b6001600160a01b0382166106675760405162461bcd60e51b815260206004820152601f60248201527f45524332303a206d696e7420746f20746865207a65726f2061646472657373006044820152606401610557565b61067360008383610875565b80600260008282546106859190610f31565b90915550506001600160a01b038216600081815260208181526040808320805486019055518481527fddf252ad1be2c89b69c2b068fc378daa952ba7f163c4a11628f55a4df523b3ef910160405180910390a361051e60008383610894565b60025490565b60006106f68284610f31565b9392505050565b8254600090819081811561074a5760008781526020902082016000190160408051808201909152905463ffffffff8116825264010000000090046001600160e01b0316602082015261075f565b60408051808201909152600080825260208201525b905080602001516001600160e01b0316935061077c84868860201c565b92506000821180156107a6575061079161089f565b65ffffffffffff16816000015163ffffffff16145b156107eb576107b4836108af565b60008881526020902083016000190180546001600160e01b03929092166401000000000263ffffffff90921691909117905561086b565b86604051806040016040528061081561080861089f60201b60201c565b65ffffffffffff1661091c565b63ffffffff168152602001610829866108af565b6001600160e01b0390811690915282546001810184556000938452602093849020835194909301519091166401000000000263ffffffff909316929092179101555b5050935093915050565b61087d610981565b61088f8383836001600160e01b038416565b505050565b61088f8383836109c9565b60006108aa436109fb565b905090565b60006001600160e01b038211156109185760405162461bcd60e51b815260206004820152602760248201527f53616665436173743a2076616c756520646f65736e27742066697420696e20326044820152663234206269747360c81b6064820152608401610557565b5090565b600063ffffffff8211156109185760405162461bcd60e51b815260206004820152602660248201527f53616665436173743a2076616c756520646f65736e27742066697420696e203360448201526532206269747360d01b6064820152608401610557565b600d5460ff16156109c75760405162461bcd60e51b815260206004820152601060248201526f14185d5cd8589b194e881c185d5cd95960821b6044820152606401610557565b565b6001600160a01b0383811660009081526009602052604080822054858416835291205461088f92918216911683610a62565b600065ffffffffffff8211156109185760405162461bcd60e51b815260206004820152602660248201527f53616665436173743a2076616c756520646f65736e27742066697420696e203460448201526538206269747360d01b6064820152608401610557565b816001600160a01b0316836001600160a01b031614158015610a845750600081115b1561088f576001600160a01b03831615610b09576001600160a01b0383166000908152600a6020908152604082208291610ac89190610b8d901b61236417856106fd565b91509150846001600160a01b03166000805160206154548339815191528383604051610afe929190918252602082015260400190565b60405180910390a250505b6001600160a01b0382161561088f576001600160a01b0382166000908152600a6020908152604082208291610b4891906106ea901b61235817856106fd565b91509150836001600160a01b03166000805160206154548339815191528383604051610b7e929190918252602082015260400190565b60405180910390a25050505050565b60006106f68284610f44565b634e487b7160e01b600052604160045260246000fd5b60005b83811015610bca578181015183820152602001610bb2565b50506000910152565b600082601f830112610be457600080fd5b81516001600160401b03811115610bfd57610bfd610b99565b604051601f8201601f19908116603f011681016001600160401b0381118282101715610c2b57610c2b610b99565b604052818152838201602001851015610c4357600080fd5b610c54826020830160208701610baf565b949350505050565b80516001600160a01b0381168114610c7357600080fd5b919050565b600080600080600080600080610100898b031215610c9557600080fd5b88516001600160401b03811115610cab57600080fd5b610cb78b828c01610bd3565b60208b015190995090506001600160401b03811115610cd557600080fd5b610ce18b828c01610bd3565b975050610cf060408a01610c5c565b9550610cfe60608a01610c5c565b9450610d0c60808a01610c5c565b9350610d1a60a08a01610c5c565b9250610d2860c08a01610c5c565b9150610d3660e08a01610c5c565b90509295985092959890939650565b600181811c90821680610d5957607f821691505b602082108103610d7957634e487b7160e01b600052602260045260246000fd5b50919050565b601f82111561088f57806000526020600020601f840160051c81016020851015610da65750805b601f840160051c820191505b81811015610dc65760008155600101610db2565b5050505050565b81516001600160401b03811115610de657610de6610b99565b610dfa81610df48454610d45565b84610d7f565b6020601f821160018114610e2e5760008315610e165750848201515b600019600385901b1c1916600184901b178455610dc6565b600084815260208120601f198516915b82811015610e5e5787850151825560209485019460019092019101610e3e565b5084821015610e7c5786840151600019600387901b60f8161c191681555b50505050600190811b01905550565b634e487b7160e01b600052601160045260246000fd5b808202811582820484141761047957610479610e8b565b600082610ed557634e487b7160e01b600052601260045260246000fd5b500490565b6020815260008251806020840152610ef9816040850160208701610baf565b601f01601f19169190910160400192915050565b80516020808301519190811015610d795760001960209190910360031b1b16919050565b8082018082111561047957610479610e8b565b8181038181111561047957610479610e8b565b60805160a05160c05160e0516101005161012051610140516144a3610fb1600039600061114d015260006111220152600061287901526000612851015260006127ac015260006127d60152600061280001526144a36000f3fe608060405234801561001057600080fd5b50600436106103e65760003560e01c80638e539e8c1161020a578063c69def0b11610125578063e07495e3116100b8578063f36c8f5c11610087578063f36c8f5c1461096e578063f676f33114610983578063f79ed94b14610996578063f84afd48146109a9578063fe64c681146109bc57600080fd5b8063e07495e3146108e4578063e63ab1e9146108f7578063eb8f4c4a1461091e578063f1127ed81461093157600080fd5b8063d5391393116100f4578063d53913931461088f578063d547741f146108b6578063dd62ed3e146108c9578063dfef15b8146108dc57600080fd5b8063c69def0b14610805578063c8c7fe6b14610818578063d3fc986414610869578063d505accf1461087c57600080fd5b8063a34cea081161019d578063ae621bbe1161016c578063ae621bbe146107c4578063aeeb73ea146107cc578063bf7122a2146107df578063c3cda520146107f257600080fd5b8063a34cea0814610778578063a457c2d71461078b578063a9059cbb1461079e578063a978d8df146107b157600080fd5b806395d89b41116101d957806395d89b41146107325780639ab24eb01461073a578063a217fddf1461074d578063a230c5241461075557600080fd5b80638e539e8c146106da57806391d14854146106ed57806391ddadf41461070057806391ee2a3d1461071f57600080fd5b806336568abe116103055780636042d5d4116102985780636fcfff45116102675780636fcfff451461065357806370a082311461067b5780637ecebe00146106a45780638456cb59146106b757806384b0196e146106bf57600080fd5b80636042d5d414610607578063626c3d431461061a578063638b1b141461062d578063694d9d171461064057600080fd5b80634bf5d7e9116102d45780634bf5d7e91461059d578063587cde1e146105a55780635c19a95c146105e95780635c975abb146105fc57600080fd5b806336568abe1461055c578063395093511461056f5780633a46b1a8146105825780633f4ba83a1461059557600080fd5b8063248a9ca31161037d578063313ce5671161034c578063313ce5671461050b57806331993a1c1461051a57806332cb6b0c146105415780633644e5151461055457600080fd5b8063248a9ca31461049c578063282c51f3146104bf5780632f2ff15d146104e65780632ff2e9dc146104f957600080fd5b806315e98e73116103b957806315e98e731461045757806315f570dc1461046c57806318160ddd1461048157806323b872dd1461048957600080fd5b806301ffc9a7146103eb57806306fdde0314610413578063095ea7b3146104285780630bc48ada1461043b575b600080fd5b6103fe6103f9366004613ca8565b6109cf565b60405190151581526020015b60405180910390f35b61041b610a06565b60405161040a9190613d22565b6103fe610436366004613d51565b610a98565b6104496001600160801b0381565b60405190815260200161040a565b61044960008051602061442e83398151915281565b61047f61047a366004613e20565b610ab0565b005b600254610449565b6103fe610497366004613e77565b610bbc565b6104496104aa366004613eb4565b6000908152600c602052604090206001015490565b6104497f3c11d16cbaffd01df69ce1c404f6340ee057498f5f00246190ea54220576a84881565b61047f6104f4366004613ecd565b610be0565b6104496a52b7d2dcc80cd2e400000081565b6040516012815260200161040a565b6104497f0acf805600123ef007091da3b3ffb39474074c656c127aa68cb0ffec232a8ff881565b6104496b033b2e3c9fd0803ce800000081565b610449610c0a565b61047f61056a366004613ecd565b610c19565b6103fe61057d366004613d51565b610c9c565b610449610590366004613d51565b610cbe565b61047f610d43565b61041b610d78565b6105d16105b3366004613ef9565b6001600160a01b039081166000908152600960205260409020541690565b6040516001600160a01b03909116815260200161040a565b61047f6105f7366004613ef9565b610e10565b600d5460ff166103fe565b61047f610615366004613f23565b610e1a565b6013546105d1906001600160a01b031681565b6011546105d1906001600160a01b031681565b61047f61064e366004613ef9565b610fe8565b610666610661366004613ef9565b6110a2565b60405163ffffffff909116815260200161040a565b610449610689366004613ef9565b6001600160a01b031660009081526020819052604090205490565b6104496106b2366004613ef9565b6110c4565b61047f6110e2565b6106c7611114565b60405161040a9796959493929190613f3e565b6104496106e8366004613eb4565b61119d565b6103fe6106fb366004613ecd565b611204565b61070861122f565b60405165ffffffffffff909116815260200161040a565b61047f61072d366004613fd6565b61123a565b61041b6113d8565b610449610748366004613ef9565b6113e7565b610449600081565b6103fe610763366004613ef9565b600f6020526000908152604090205460ff1681565b61047f610786366004613ff2565b611469565b6103fe610799366004613d51565b6116a0565b6103fe6107ac366004613d51565b61171b565b61047f6107bf366004613fd6565b611729565b61044961187e565b61047f6107da366004613ef9565b611959565b6103fe6107ed366004614010565b6119ca565b61047f6108003660046140a6565b611a4f565b61047f6108133660046140fe565b611b85565b61082b610826366004613f23565b611cea565b60405161040a919081516001600160a01b03168152602080830151908201526040808301519082015260609182015115159181019190915260800190565b61047f610877366004613e20565b611dbc565b61047f61088a366004614128565b611ebb565b6104497f9f2df0fed2c77648de5860a4cc508cd0818c85b8b8a1ab4ceeef8d981c8956a681565b61047f6108c4366004613ecd565b61201f565b6104496108d7366004614193565b612044565b61044961206f565b61047f6108f23660046141af565b6120c6565b6104497f65d7a28e3265b37a6474929f336521b332c1681b933f6cb9f3376673440d862a81565b61047f61092c366004613e77565b612164565b61094461093f3660046141f6565b612262565b60408051825163ffffffff1681526020928301516001600160e01b0316928101929092520161040a565b61044960008051602061444e83398151915281565b6014546105d1906001600160a01b031681565b6010546105d1906001600160a01b031681565b61047f6109b7366004613ef9565b6122e6565b6012546105d1906001600160a01b031681565b60006001600160e01b03198216637965db0b60e01b1480610a0057506301ffc9a760e01b6001600160e01b03198316145b92915050565b606060038054610a1590614236565b80601f0160208091040260200160405190810160405280929190818152602001828054610a4190614236565b8015610a8e5780601f10610a6357610100808354040283529160200191610a8e565b820191906000526020600020905b815481529060010190602001808311610a7157829003601f168201915b5050505050905090565b600033610aa6818585612370565b5060019392505050565b7f3c11d16cbaffd01df69ce1c404f6340ee057498f5f00246190ea54220576a848610ada81612494565b610ae261249e565b6001600160a01b038416610b095760405163d92e233d60e01b815260040160405180910390fd5b82600003610b2a57604051631f2a200560e01b815260040160405180910390fd5b82610b4a856001600160a01b031660009081526020819052604090205490565b1015610b6957604051631e9acf1760e31b815260040160405180910390fd5b610b7384846124e6565b836001600160a01b03167ffad31924d655455395c87544c8aa1ffdb5a7505a22a3c2e03f28003b6556a75f8484604051610bae92919061426a565b60405180910390a250505050565b600033610bca8582856124f0565b610bd5858585612564565b506001949350505050565b6000828152600c6020526040902060010154610bfb81612494565b610c058383612719565b505050565b6000610c1461279f565b905090565b6001600160a01b0381163314610c8e5760405162461bcd60e51b815260206004820152602f60248201527f416363657373436f6e74726f6c3a2063616e206f6e6c792072656e6f756e636560448201526e103937b632b9903337b91039b2b63360891b60648201526084015b60405180910390fd5b610c9882826128ca565b5050565b600033610aa6818585610caf8383612044565b610cb99190614299565b612370565b6000610cc861122f565b65ffffffffffff168210610d1a5760405162461bcd60e51b815260206004820152601960248201527804552433230566f7465733a20667574757265206c6f6f6b757603c1b6044820152606401610c85565b6001600160a01b0383166000908152600a60205260409020610d3c9083612931565b9392505050565b7f65d7a28e3265b37a6474929f336521b332c1681b933f6cb9f3376673440d862a610d6d81612494565b610d75612a1a565b50565b606043610d8361122f565b65ffffffffffff1614610dd85760405162461bcd60e51b815260206004820152601d60248201527f4552433230566f7465733a2062726f6b656e20636c6f636b206d6f64650000006044820152606401610c85565b5060408051808201909152601d81527f6d6f64653d626c6f636b6e756d6265722666726f6d3d64656661756c74000000602082015290565b610d753382612a6c565b60008051602061442e833981519152610e3281612494565b6002826002811115610e4657610e466142ac565b1115610e6557604051636448d6e960e11b815260040160405180910390fd5b600e6000836002811115610e7b57610e7b6142ac565b6002811115610e8c57610e8c6142ac565b815260208101919091526040016000206003015460ff16610ec057604051630719d53360e21b815260040160405180910390fd5b6000600e6000846002811115610ed857610ed86142ac565b6002811115610ee957610ee96142ac565b8152602001908152602001600020600101541115610f1a576040516340db7f8760e01b815260040160405180910390fd5b6000600e6000846002811115610f3257610f326142ac565b6002811115610f4357610f436142ac565b815260200190815260200160002060030160006101000a81548160ff0219169083151502179055506000600e6000846002811115610f8357610f836142ac565b6002811115610f9457610f946142ac565b815260200190815260200160002060020181905550816002811115610fbb57610fbb6142ac565b6040517f8b56d0949004b9ec276cc1fa05c8edd80c00371256c79fb5286504b2e2ed105f90600090a25050565b60008051602061444e83398151915261100081612494565b6001600160a01b0382166110275760405163d92e233d60e01b815260040160405180910390fd5b601180546001600160a01b0319166001600160a01b0384161790556040516a111155915313d41351539560aa1b8152600b015b6040519081900381206001600160a01b0384168252907f943e9d45a11aaae5d87503e3bc248665d9807856e5cf2bdb4a988bee44422781906020015b60405180910390a25050565b6001600160a01b0381166000908152600a6020526040812054610a0090612ae5565b6001600160a01b038116600090815260076020526040812054610a00565b7f65d7a28e3265b37a6474929f336521b332c1681b933f6cb9f3376673440d862a61110c81612494565b610d75612b4e565b6000606080828080836111487f00000000000000000000000000000000000000000000000000000000000000006005612b8b565b6111737f00000000000000000000000000000000000000000000000000000000000000006006612b8b565b60408051600080825260208201909252600f60f81b9b939a50919850469750309650945092509050565b60006111a761122f565b65ffffffffffff1682106111f95760405162461bcd60e51b815260206004820152601960248201527804552433230566f7465733a20667574757265206c6f6f6b757603c1b6044820152606401610c85565b610a00600b83612931565b6000918252600c602090815260408084206001600160a01b0393909316845291905290205460ff1690565b6000610c1443612c36565b61124261249e565b6002826002811115611256576112566142ac565b111561127557604051636448d6e960e11b815260040160405180910390fd5b600e600083600281111561128b5761128b6142ac565b600281111561129c5761129c6142ac565b815260208101919091526040016000206003015460ff166112d057604051630719d53360e21b815260040160405180910390fd5b806000036112f157604051631f2a200560e01b815260040160405180910390fd5b611340333083600e600087600281111561130d5761130d6142ac565b600281111561131e5761131e6142ac565b81526020810191909152604001600020546001600160a01b0316929190612c9d565b80600e6000846002811115611357576113576142ac565b6002811115611368576113686142ac565b815260200190815260200160002060010160008282546113889190614299565b909155503390508260028111156113a1576113a16142ac565b6040518381527f6a2b04b1f3d5a335c4367fea39bb8807ef0a4fbe77a2772700c8f9c90c1c9a1b9060200160405180910390a35050565b606060048054610a1590614236565b6001600160a01b0381166000908152600a60205260408120548015611456576001600160a01b0383166000908152600a6020526040902080546000198301908110611434576114346142c2565b60009182526020909120015464010000000090046001600160e01b0316611459565b60005b6001600160e01b03169392505050565b60008051602061442e83398151915261148181612494565b6001600160a01b0383166114a85760405163d92e233d60e01b815260040160405180910390fd5b816000036114c957604051631f2a200560e01b815260040160405180910390fd5b60028460028111156114dd576114dd6142ac565b11156114fc57604051636448d6e960e11b815260040160405180910390fd5b600e6000856002811115611512576115126142ac565b6002811115611523576115236142ac565b815260208101919091526040016000206003015460ff1661155757604051630719d53360e21b815260040160405180910390fd5b81600e600086600281111561156e5761156e6142ac565b600281111561157f5761157f6142ac565b81526020019081526020016000206001015410156115b0576040516340db7f8760e01b815260040160405180910390fd5b81600e60008660028111156115c7576115c76142ac565b60028111156115d8576115d86142ac565b815260200190815260200160002060010160008282546115f891906142d8565b9091555061164b90508383600e6000886002811115611619576116196142ac565b600281111561162a5761162a6142ac565b81526020810191909152604001600020546001600160a01b03169190612d08565b826001600160a01b0316846002811115611667576116676142ac565b6040518481527fe3aab926d81700bac87dab01982e77e751c07d1acca11c13ff44aae1193a5f549060200160405180910390a350505050565b600033816116ae8286612044565b90508381101561170e5760405162461bcd60e51b815260206004820152602560248201527f45524332303a2064656372656173656420616c6c6f77616e63652062656c6f77604482015264207a65726f60d81b6064820152608401610c85565b610bd58286868403612370565b600033610aa6818585612564565b60008051602061442e83398151915261174181612494565b6002836002811115611755576117556142ac565b111561177457604051636448d6e960e11b815260040160405180910390fd5b600e600084600281111561178a5761178a6142ac565b600281111561179b5761179b6142ac565b815260208101919091526040016000206003015460ff166117cf57604051630719d53360e21b815260040160405180910390fd5b6001600160801b038211156117f65760405162bfc92160e01b815260040160405180910390fd5b81600e600085600281111561180d5761180d6142ac565b600281111561181e5761181e6142ac565b815260200190815260200160002060020181905550826002811115611845576118456142ac565b6040518381527f2d292c5b6330b5b0f99b665ec1be838ca17cd57eb118fe7a02cc05477b5bd42f906020015b60405180910390a2505050565b600080805b6002811161195357600081600281111561189f5761189f6142ac565b90506000600e60008360028111156118b9576118b96142ac565b60028111156118ca576118ca6142ac565b81526020810191909152604001600020600381015490915060ff1680156118f5575060008160020154115b8015611905575060008160010154115b1561193e57670de0b6b3a76400008160020154826001015461192791906142eb565b6119319190614318565b61193b9085614299565b93505b5050808061194b9061433a565b915050611883565b50919050565b60008051602061444e83398151915261197181612494565b6001600160a01b0382166119985760405163d92e233d60e01b815260040160405180910390fd5b601480546001600160a01b0319166001600160a01b038416179055604051655055424c494360d01b815260060161105a565b600060008051602061444e8339815191526119e481612494565b6000856001600160a01b03168585604051611a00929190614353565b6000604051808303816000865af19150503d8060008114611a3d576040519150601f19603f3d011682016040523d82523d6000602084013e611a42565b606091505b5090979650505050505050565b83421115611a9f5760405162461bcd60e51b815260206004820152601d60248201527f4552433230566f7465733a207369676e617475726520657870697265640000006044820152606401610c85565b604080517fe48329057bfd03d55e49b547132e39cffd9c1820ad7b9d4c5307691425d15adf60208201526001600160a01b038816918101919091526060810186905260808101859052600090611b1990611b119060a00160405160208183030381529060405280519060200120612d38565b858585612d65565b9050611b2481612d8f565b8614611b725760405162461bcd60e51b815260206004820152601960248201527f4552433230566f7465733a20696e76616c6964206e6f6e6365000000000000006044820152606401610c85565b611b7c8188612a6c565b50505050505050565b60008051602061442e833981519152611b9d81612494565b6001600160a01b038216611bc45760405163d92e233d60e01b815260040160405180910390fd5b6002836002811115611bd857611bd86142ac565b1115611bf757604051636448d6e960e11b815260040160405180910390fd5b81600e6000856002811115611c0e57611c0e6142ac565b6002811115611c1f57611c1f6142ac565b815260200190815260200160002060000160006101000a8154816001600160a01b0302191690836001600160a01b031602179055506001600e6000856002811115611c6c57611c6c6142ac565b6002811115611c7d57611c7d6142ac565b81526020810191909152604001600020600301805460ff1916911515919091179055826002811115611cb157611cb16142ac565b6040516001600160a01b03841681527f561acd69f877decb2be770ca93ef06bb6a9e5d65defa3bace8eab67feecac57290602001611871565b6040805160808101825260008082526020820181905291810182905260608101919091526002826002811115611d2257611d226142ac565b1115611d4157604051636448d6e960e11b815260040160405180910390fd5b600e6000836002811115611d5757611d576142ac565b6002811115611d6857611d686142ac565b81526020808201929092526040908101600020815160808101835281546001600160a01b031681526001820154938101939093526002810154918301919091526003015460ff161515606082015292915050565b7f9f2df0fed2c77648de5860a4cc508cd0818c85b8b8a1ab4ceeef8d981c8956a6611de681612494565b611dee61249e565b6001600160a01b038416611e155760405163d92e233d60e01b815260040160405180910390fd5b82600003611e3657604051631f2a200560e01b815260040160405180910390fd5b6b033b2e3c9fd0803ce800000083611e4d60025490565b611e579190614299565b1115611e765760405163c30436e960e01b815260040160405180910390fd5b611e808484612db5565b836001600160a01b03167f9d89e36eadf856db0ad9ffb5a569e07f95634dddd9501141ecf04820484ad0dc8484604051610bae92919061426a565b83421115611f0b5760405162461bcd60e51b815260206004820152601d60248201527f45524332305065726d69743a206578706972656420646561646c696e650000006044820152606401610c85565b60007f6e71edae12b1b97f4d1f60370fef10105fa2faae0126114a169c64845d6126c9888888611f3a8c612d8f565b6040805160208101969096526001600160a01b0394851690860152929091166060840152608083015260a082015260c0810186905260e0016040516020818303038152906040528051906020012090506000611f9582612d38565b90506000611fa582878787612d65565b9050896001600160a01b0316816001600160a01b0316146120085760405162461bcd60e51b815260206004820152601e60248201527f45524332305065726d69743a20696e76616c6964207369676e617475726500006044820152606401610c85565b6120138a8a8a612370565b50505050505050505050565b6000828152600c602052604090206001015461203a81612494565b610c0583836128ca565b6001600160a01b03918216600090815260016020908152604080832093909416825291909152205490565b60008061207a61187e565b9050600061208760025490565b9050811580612094575080155b156120a25760009250505090565b806120b583670de0b6b3a76400006142eb565b6120bf9190614318565b9250505090565b6120ce61249e565b816000036120ef57604051631f2a200560e01b815260040160405180910390fd5b3360009081526020819052604090205482111561211f57604051631e9acf1760e31b815260040160405180910390fd5b61212933836124e6565b336001600160a01b03167ffad31924d655455395c87544c8aa1ffdb5a7505a22a3c2e03f28003b6556a75f838360405161109692919061426a565b7f0acf805600123ef007091da3b3ffb39474074c656c127aa68cb0ffec232a8ff861218e81612494565b6001600160a01b0383166121b55760405163d92e233d60e01b815260040160405180910390fd5b60005b6002811161224757600e60008260028111156121d6576121d66142ac565b60028111156121e7576121e76142ac565b60028111156121f8576121f86142ac565b81526020810191909152604001600020546001600160a01b0390811690861603612235576040516340db7f8760e01b815260040160405180910390fd5b8061223f8161433a565b9150506121b8565b5061225c6001600160a01b0385168484612d08565b50505050565b60408051808201909152600080825260208201526001600160a01b0383166000908152600a60205260409020805463ffffffff84169081106122a6576122a66142c2565b60009182526020918290206040805180820190915291015463ffffffff8116825264010000000090046001600160e01b0316918101919091529392505050565b60008051602061444e8339815191526122fe81612494565b6001600160a01b0382166123255760405163d92e233d60e01b815260040160405180910390fd5b601080546001600160a01b0319166001600160a01b038416179055604051665245534552564560c81b815260070161105a565b6000610d3c8284614299565b6000610d3c82846142d8565b6001600160a01b0383166123d25760405162461bcd60e51b8152602060048201526024808201527f45524332303a20617070726f76652066726f6d20746865207a65726f206164646044820152637265737360e01b6064820152608401610c85565b6001600160a01b0382166124335760405162461bcd60e51b815260206004820152602260248201527f45524332303a20617070726f766520746f20746865207a65726f206164647265604482015261737360f01b6064820152608401610c85565b6001600160a01b0383811660008181526001602090815260408083209487168084529482529182902085905590518481527f8c5be1e5ebec7d5bd14f71427d1e84f3dd0314c0f7b2291e5b200ac8c7c3b925910160405180910390a3505050565b610d758133612dbf565b600d5460ff16156124e45760405162461bcd60e51b815260206004820152601060248201526f14185d5cd8589b194e881c185d5cd95960821b6044820152606401610c85565b565b610c988282612e18565b60006124fc8484612044565b9050600019811461225c57818110156125575760405162461bcd60e51b815260206004820152601d60248201527f45524332303a20696e73756666696369656e7420616c6c6f77616e63650000006044820152606401610c85565b61225c8484848403612370565b6001600160a01b0383166125c85760405162461bcd60e51b815260206004820152602560248201527f45524332303a207472616e736665722066726f6d20746865207a65726f206164604482015264647265737360d81b6064820152608401610c85565b6001600160a01b03821661262a5760405162461bcd60e51b815260206004820152602360248201527f45524332303a207472616e7366657220746f20746865207a65726f206164647260448201526265737360e81b6064820152608401610c85565b612635838383612e30565b6001600160a01b038316600090815260208190526040902054818110156126ad5760405162461bcd60e51b815260206004820152602660248201527f45524332303a207472616e7366657220616d6f756e7420657863656564732062604482015265616c616e636560d01b6064820152608401610c85565b6001600160a01b03848116600081815260208181526040808320878703905593871680835291849020805487019055925185815290927fddf252ad1be2c89b69c2b068fc378daa952ba7f163c4a11628f55a4df523b3ef910160405180910390a361225c848484612e38565b6127238282611204565b610c98576000828152600c602090815260408083206001600160a01b03851684529091529020805460ff1916600117905561275b3390565b6001600160a01b0316816001600160a01b0316837f2f8788117e7eff1d82e926ec794901d17c78024a50270940304540a733656f0d60405160405180910390a45050565b6000306001600160a01b037f0000000000000000000000000000000000000000000000000000000000000000161480156127f857507f000000000000000000000000000000000000000000000000000000000000000046145b1561282257507f000000000000000000000000000000000000000000000000000000000000000090565b610c14604080517f8b73c3c69bb8fe3d512ecc4cf759cc79239f7b179b0ffacaa9a75d522b39400f60208201527f0000000000000000000000000000000000000000000000000000000000000000918101919091527f000000000000000000000000000000000000000000000000000000000000000060608201524660808201523060a082015260009060c00160405160208183030381529060405280519060200120905090565b6128d48282611204565b15610c98576000828152600c602090815260408083206001600160a01b0385168085529252808320805460ff1916905551339285917ff6391f5c32d9c69d2a47ea670b442974b53935d1edc7fd64eb21e047a839171b9190a45050565b81546000908181600581111561298b57600061294c84612e43565b61295690856142d8565b600088815260209020909150869082015463ffffffff16111561297b57809150612989565b612986816001614299565b92505b505b808210156129d857600061299f8383612f2b565b600088815260209020909150869082015463ffffffff1611156129c4578091506129d2565b6129cf816001614299565b92505b5061298b565b8015612a04576000868152602090208101600019015464010000000090046001600160e01b0316612a07565b60005b6001600160e01b03169695505050505050565b612a22612f46565b600d805460ff191690557f5db9ee0a495bf2e6ff9c91a7834c1ba4fdd244a5e8aa4e537bd38aeae4b073aa335b6040516001600160a01b03909116815260200160405180910390a1565b6001600160a01b038281166000818152600960208181526040808420805485845282862054949093528787166001600160a01b03198416811790915590519190951694919391928592917f3134e8a2e6d97e929a7e54011ea5485d7d196dd5f0ba4d4ef95803e8e3fc257f9190a461225c828483612f8f565b600063ffffffff821115612b4a5760405162461bcd60e51b815260206004820152602660248201527f53616665436173743a2076616c756520646f65736e27742066697420696e203360448201526532206269747360d01b6064820152608401610c85565b5090565b612b5661249e565b600d805460ff191660011790557f62e78cea01bee320cd4e420270b5ea74000d11b0c9f74754ebdbfc544b05a258612a4f3390565b606060ff8314612ba557612b9e836130cc565b9050610a00565b818054612bb190614236565b80601f0160208091040260200160405190810160405280929190818152602001828054612bdd90614236565b8015612c2a5780601f10612bff57610100808354040283529160200191612c2a565b820191906000526020600020905b815481529060010190602001808311612c0d57829003601f168201915b50505050509050610a00565b600065ffffffffffff821115612b4a5760405162461bcd60e51b815260206004820152602660248201527f53616665436173743a2076616c756520646f65736e27742066697420696e203460448201526538206269747360d01b6064820152608401610c85565b6040516001600160a01b038085166024830152831660448201526064810182905261225c9085906323b872dd60e01b906084015b60408051601f198184030181529190526020810180516001600160e01b03166001600160e01b03199093169290921790915261310b565b6040516001600160a01b038316602482015260448101829052610c0590849063a9059cbb60e01b90606401612cd1565b6000610a00612d4561279f565b8360405161190160f01b8152600281019290925260228201526042902090565b6000806000612d76878787876131e0565b91509150612d83816132a4565b5090505b949350505050565b6001600160a01b0381166000908152600760205260409020805460018101825590611953565b610c9882826133ee565b612dc98282611204565b610c9857612dd681613478565b612de183602061348a565b604051602001612df2929190614363565b60408051601f198184030181529082905262461bcd60e51b8252610c8591600401613d22565b612e228282613626565b61225c600b6123648361376b565b610c0561249e565b610c058383836138e0565b600081600003612e5557506000919050565b60006001612e6284613912565b901c6001901b90506001818481612e7b57612e7b614302565b048201901c90506001818481612e9357612e93614302565b048201901c90506001818481612eab57612eab614302565b048201901c90506001818481612ec357612ec3614302565b048201901c90506001818481612edb57612edb614302565b048201901c90506001818481612ef357612ef3614302565b048201901c90506001818481612f0b57612f0b614302565b048201901c9050610d3c81828581612f2557612f25614302565b046139a6565b6000612f3a6002848418614318565b610d3c90848416614299565b600d5460ff166124e45760405162461bcd60e51b815260206004820152601460248201527314185d5cd8589b194e881b9bdd081c185d5cd95960621b6044820152606401610c85565b816001600160a01b0316836001600160a01b031614158015612fb15750600081115b15610c05576001600160a01b0383161561303f576001600160a01b0383166000908152600a602052604081208190612fec906123648561376b565b91509150846001600160a01b03167fdec2bacdd2f05b59de34da9b523dff8be42e5e38e818c82fdb0bae774387a7248383604051613034929190918252602082015260400190565b60405180910390a250505b6001600160a01b03821615610c05576001600160a01b0382166000908152600a602052604081208190613075906123588561376b565b91509150836001600160a01b03167fdec2bacdd2f05b59de34da9b523dff8be42e5e38e818c82fdb0bae774387a72483836040516130bd929190918252602082015260400190565b60405180910390a25050505050565b606060006130d9836139bc565b604080516020808252818301909252919250600091906020820181803683375050509182525060208101929092525090565b6000613160826040518060400160405280602081526020017f5361666545524332303a206c6f772d6c6576656c2063616c6c206661696c6564815250856001600160a01b03166139e49092919063ffffffff16565b905080516000148061318157508080602001905181019061318191906143d8565b610c055760405162461bcd60e51b815260206004820152602a60248201527f5361666545524332303a204552433230206f7065726174696f6e20646964206e6044820152691bdd081cdd58d8d9595960b21b6064820152608401610c85565b6000807f7fffffffffffffffffffffffffffffff5d576e7357a4501ddfe92f46681b20a0831115613217575060009050600361329b565b6040805160008082526020820180845289905260ff881692820192909252606081018690526080810185905260019060a0016020604051602081039080840390855afa15801561326b573d6000803e3d6000fd5b5050604051601f1901519150506001600160a01b0381166132945760006001925092505061329b565b9150600090505b94509492505050565b60008160048111156132b8576132b86142ac565b036132c05750565b60018160048111156132d4576132d46142ac565b036133215760405162461bcd60e51b815260206004820152601860248201527f45434453413a20696e76616c6964207369676e617475726500000000000000006044820152606401610c85565b6002816004811115613335576133356142ac565b036133825760405162461bcd60e51b815260206004820152601f60248201527f45434453413a20696e76616c6964207369676e6174757265206c656e677468006044820152606401610c85565b6003816004811115613396576133966142ac565b03610d755760405162461bcd60e51b815260206004820152602260248201527f45434453413a20696e76616c6964207369676e6174757265202773272076616c604482015261756560f01b6064820152608401610c85565b6133f882826139f3565b6002546001600160e01b03101561346a5760405162461bcd60e51b815260206004820152603060248201527f4552433230566f7465733a20746f74616c20737570706c79207269736b73206f60448201526f766572666c6f77696e6720766f74657360801b6064820152608401610c85565b61225c600b6123588361376b565b6060610a006001600160a01b03831660145b606060006134998360026142eb565b6134a4906002614299565b67ffffffffffffffff8111156134bc576134bc613d7b565b6040519080825280601f01601f1916602001820160405280156134e6576020820181803683370190505b509050600360fc1b81600081518110613501576135016142c2565b60200101906001600160f81b031916908160001a905350600f60fb1b81600181518110613530576135306142c2565b60200101906001600160f81b031916908160001a90535060006135548460026142eb565b61355f906001614299565b90505b60018111156135d7576f181899199a1a9b1b9c1cb0b131b232b360811b85600f1660108110613593576135936142c2565b1a60f81b8282815181106135a9576135a96142c2565b60200101906001600160f81b031916908160001a90535060049490941c936135d0816143fa565b9050613562565b508315610d3c5760405162461bcd60e51b815260206004820181905260248201527f537472696e67733a20686578206c656e67746820696e73756666696369656e746044820152606401610c85565b6001600160a01b0382166136865760405162461bcd60e51b815260206004820152602160248201527f45524332303a206275726e2066726f6d20746865207a65726f206164647265736044820152607360f81b6064820152608401610c85565b61369282600083612e30565b6001600160a01b038216600090815260208190526040902054818110156137065760405162461bcd60e51b815260206004820152602260248201527f45524332303a206275726e20616d6f756e7420657863656564732062616c616e604482015261636560f01b6064820152608401610c85565b6001600160a01b0383166000818152602081815260408083208686039055600280548790039055518581529192917fddf252ad1be2c89b69c2b068fc378daa952ba7f163c4a11628f55a4df523b3ef910160405180910390a3610c0583600084612e38565b825460009081908181156137b85760008781526020902082016000190160408051808201909152905463ffffffff8116825264010000000090046001600160e01b031660208201526137cd565b60408051808201909152600080825260208201525b905080602001516001600160e01b031693506137ed84868863ffffffff16565b9250600082118015613817575061380261122f565b65ffffffffffff16816000015163ffffffff16145b1561385c5761382583613ac6565b60008881526020902083016000190180546001600160e01b03929092166401000000000263ffffffff9092169190911790556138d6565b86604051806040016040528061388061387361122f565b65ffffffffffff16612ae5565b63ffffffff16815260200161389486613ac6565b6001600160e01b0390811690915282546001810184556000938452602093849020835194909301519091166401000000000263ffffffff909316929092179101555b5050935093915050565b6001600160a01b03838116600090815260096020526040808220548584168352912054610c0592918216911683612f8f565b600080608083901c1561392757608092831c92015b604083901c1561393957604092831c92015b602083901c1561394b57602092831c92015b601083901c1561395d57601092831c92015b600883901c1561396f57600892831c92015b600483901c1561398157600492831c92015b600283901c1561399357600292831c92015b600183901c15610a005760010192915050565b60008183106139b55781610d3c565b5090919050565b600060ff8216601f811115610a0057604051632cd44ac360e21b815260040160405180910390fd5b6060612d878484600085613b2f565b6001600160a01b038216613a495760405162461bcd60e51b815260206004820152601f60248201527f45524332303a206d696e7420746f20746865207a65726f2061646472657373006044820152606401610c85565b613a5560008383612e30565b8060026000828254613a679190614299565b90915550506001600160a01b038216600081815260208181526040808320805486019055518481527fddf252ad1be2c89b69c2b068fc378daa952ba7f163c4a11628f55a4df523b3ef910160405180910390a3610c9860008383612e38565b60006001600160e01b03821115612b4a5760405162461bcd60e51b815260206004820152602760248201527f53616665436173743a2076616c756520646f65736e27742066697420696e20326044820152663234206269747360c81b6064820152608401610c85565b606082471015613b905760405162461bcd60e51b815260206004820152602660248201527f416464726573733a20696e73756666696369656e742062616c616e636520666f6044820152651c8818d85b1b60d21b6064820152608401610c85565b600080866001600160a01b03168587604051613bac9190614411565b60006040518083038185875af1925050503d8060008114613be9576040519150601f19603f3d011682016040523d82523d6000602084013e613bee565b606091505b5091509150613bff87838387613c0a565b979650505050505050565b60608315613c79578251600003613c72576001600160a01b0385163b613c725760405162461bcd60e51b815260206004820152601d60248201527f416464726573733a2063616c6c20746f206e6f6e2d636f6e74726163740000006044820152606401610c85565b5081612d87565b612d878383815115613c8e5781518083602001fd5b8060405162461bcd60e51b8152600401610c859190613d22565b600060208284031215613cba57600080fd5b81356001600160e01b031981168114610d3c57600080fd5b60005b83811015613ced578181015183820152602001613cd5565b50506000910152565b60008151808452613d0e816020860160208601613cd2565b601f01601f19169290920160200192915050565b602081526000610d3c6020830184613cf6565b80356001600160a01b0381168114613d4c57600080fd5b919050565b60008060408385031215613d6457600080fd5b613d6d83613d35565b946020939093013593505050565b634e487b7160e01b600052604160045260246000fd5b600082601f830112613da257600080fd5b813567ffffffffffffffff811115613dbc57613dbc613d7b565b604051601f8201601f19908116603f0116810167ffffffffffffffff81118282101715613deb57613deb613d7b565b604052818152838201602001851015613e0357600080fd5b816020850160208301376000918101602001919091529392505050565b600080600060608486031215613e3557600080fd5b613e3e84613d35565b925060208401359150604084013567ffffffffffffffff811115613e6157600080fd5b613e6d86828701613d91565b9150509250925092565b600080600060608486031215613e8c57600080fd5b613e9584613d35565b9250613ea360208501613d35565b929592945050506040919091013590565b600060208284031215613ec657600080fd5b5035919050565b60008060408385031215613ee057600080fd5b82359150613ef060208401613d35565b90509250929050565b600060208284031215613f0b57600080fd5b610d3c82613d35565b803560038110613d4c57600080fd5b600060208284031215613f3557600080fd5b610d3c82613f14565b60ff60f81b8816815260e060208201526000613f5d60e0830189613cf6565b8281036040840152613f6f8189613cf6565b606084018890526001600160a01b038716608085015260a0840186905283810360c08501528451808252602080870193509091019060005b81811015613fc5578351835260209384019390920191600101613fa7565b50909b9a5050505050505050505050565b60008060408385031215613fe957600080fd5b613d6d83613f14565b60008060006060848603121561400757600080fd5b613e9584613f14565b60008060006040848603121561402557600080fd5b61402e84613d35565b9250602084013567ffffffffffffffff81111561404a57600080fd5b8401601f8101861361405b57600080fd5b803567ffffffffffffffff81111561407257600080fd5b86602082840101111561408457600080fd5b939660209190910195509293505050565b803560ff81168114613d4c57600080fd5b60008060008060008060c087890312156140bf57600080fd5b6140c887613d35565b955060208701359450604087013593506140e460608801614095565b9598949750929560808101359460a0909101359350915050565b6000806040838503121561411157600080fd5b61411a83613f14565b9150613ef060208401613d35565b600080600080600080600060e0888a03121561414357600080fd5b61414c88613d35565b965061415a60208901613d35565b9550604088013594506060880135935061417660808901614095565b9699959850939692959460a0840135945060c09093013592915050565b600080604083850312156141a657600080fd5b61411a83613d35565b600080604083850312156141c257600080fd5b82359150602083013567ffffffffffffffff8111156141e057600080fd5b6141ec85828601613d91565b9150509250929050565b6000806040838503121561420957600080fd5b61421283613d35565b9150602083013563ffffffff8116811461422b57600080fd5b809150509250929050565b600181811c9082168061424a57607f821691505b60208210810361195357634e487b7160e01b600052602260045260246000fd5b828152604060208201526000612d876040830184613cf6565b634e487b7160e01b600052601160045260246000fd5b80820180821115610a0057610a00614283565b634e487b7160e01b600052602160045260246000fd5b634e487b7160e01b600052603260045260246000fd5b81810381811115610a0057610a00614283565b8082028115828204841417610a0057610a00614283565b634e487b7160e01b600052601260045260246000fd5b60008261433557634e487b7160e01b600052601260045260246000fd5b500490565b60006001820161434c5761434c614283565b5060010190565b8183823760009101908152919050565b7f416363657373436f6e74726f6c3a206163636f756e742000000000000000000081526000835161439b816017850160208801613cd2565b7001034b99036b4b9b9b4b733903937b6329607d1b60179184019182015283516143cc816028840160208801613cd2565b01602801949350505050565b6000602082840312156143ea57600080fd5b81518015158114610d3c57600080fd5b60008161440957614409614283565b506000190190565b60008251614423818460208701613cd2565b919091019291505056feaa9060660dc3e52152ec6c4cd87f38f5433d3e2246058f23a29463ea3247681771840dc4906352362b0cdaf79870196c8e42acafade72d5d5a6d59291253ceb1a26469706673582212201c04c5099fc91384d35aea279d97474544e7f62cd438850bbee1ab79f0fd8cf564736f6c634300081c0033dec2bacdd2f05b59de34da9b523dff8be42e5e38e818c82fdb0bae774387a724",
  "linkReferences": {},
  "deployedLinkReferences": {}
}