{
  "_format": "hh-sol-artifact-1",
  "contractName": "EminarToken",
  "sourceName": "contracts/EMN/EMN.sol",
  "abi": [
    {
      "inputs": [
        {
          "internalType": "string",
          "name": "name_",
          "type": "string"
        },
        {
          "internalType": "string",
          "name": "symbol_",
          "type": "string"
        },
        {
          "internalType": "address",
          "name": "publicAddr_",
          "type": "address"
        },
        {
          "internalType": "address",
          "name": "reserveAddr_",
          "type": "address"
        },
        {
          "internalType": "address",
          "name": "devAddr_",
          "type": "address"
        },
        {
          "internalType": "address",
          "name": "shariaAddr_",
          "type": "address"
        },
        {
          "internalType": "address",
          "name": "strategicAddr_",
          "type": "address"
        }
      ],
      "stateMutability": "nonpayable",
      "type": "constructor"
    },
    {
      "inputs": [],
      "name": "AssetNotRegistered",
      "type": "error"
    },
    {
      "inputs": [],
      "name": "DuplicateAddress",
      "type": "error"
    },
    {
      "inputs": [],
      "name": "ExceedsMaxSupply",
      "type": "error"
    },
    {
      "inputs": [],
      "name": "InsufficientBacking",
      "type": "error"
    },
    {
      "inputs": [],
      "name": "InsufficientBalance",
      "type": "error"
    },
    {
      "inputs": [],
      "name": "InvalidAsset",
      "type": "error"
    },
    {
      "inputs": [],
      "name": "InvalidPrice",
      "type": "error"
    },
    {
      "inputs": [],
      "name": "InvalidShortString",
      "type": "error"
    },
    {
      "inputs": [
        {
          "internalType": "string",
          "name": "str",
          "type": "string"
        }
      ],
      "name": "StringTooLong",
      "type": "error"
    },
    {
      "inputs": [],
      "name": "ZeroAddress",
      "type": "error"
    },
    {
      "inputs": [],
      "name": "ZeroAmount",
      "type": "error"
    },
    {
      "anonymous": false,
      "inputs": [
        {
          "indexed": true,
          "internalType": "string",
          "name": "addressType",
          "type": "string"
        },
        {
          "indexed": false,
          "internalType": "address",
          "name": "newAddress",
          "type": "address"
        }
      ],
      "name": "AddressUpdated",
      "type": "event"
    },
    {
      "anonymous": false,
      "inputs": [
        {
          "indexed": true,
          "internalType": "address",
          "name": "owner",
          "type": "address"
        },
        {
          "indexed": true,
          "internalType": "address",
          "name": "spender",
          "type": "address"
        },
        {
          "indexed": false,
          "internalType": "uint256",
          "name": "value",
          "type": "uint256"
        }
      ],
      "name": "Approval",
      "type": "event"
    },
    {
      "anonymous": false,
      "inputs": [
        {
          "indexed": true,
          "internalType": "enum EminarToken.BackingAsset",
          "name": "asset",
          "type": "uint8"
        },
        {
          "indexed": false,
          "internalType": "uint256",
          "name": "priceUSD",
          "type": "uint256"
        }
      ],
      "name": "AssetPriceUpdated",
      "type": "event"
    },
    {
      "anonymous": false,
      "inputs": [
        {
          "indexed": true,
          "internalType": "enum EminarToken.BackingAsset",
          "name": "asset",
          "type": "uint8"
        },
        {
          "indexed": true,
          "internalType": "address",
          "name": "from",
          "type": "address"
        },
        {
          "indexed": false,
          "internalType": "uint256",
          "name": "amount",
          "type": "uint256"
        }
      ],
      "name": "BackingDeposited",
      "type": "event"
    },
    {
      "anonymous": false,
      "inputs": [
        {
          "indexed": true,
          "internalType": "enum EminarToken.BackingAsset",
          "name": "asset",
          "type": "uint8"
        },
        {
          "indexed": false,
          "internalType": "address",
          "name": "token",
          "type": "address"
        }
      ],
      "name": "BackingTokenRegistered",
      "type": "event"
    },
    {
      "anonymous": false,
      "inputs": [
        {
          "indexed": true,
          "internalType": "enum EminarToken.BackingAsset",
          "name": "asset",
          "type": "uint8"
        }
      ],
      "name": "BackingTokenUnregistered",
      "type": "event"
    },
    {
      "anonymous": false,
      "inputs": [
        {
          "indexed": true,
          "internalType": "enum EminarToken.BackingAsset",
          "name": "asset",
          "type": "uint8"
        },
        {
          "indexed": true,
          "internalType": "address",
          "name": "to",
          "type": "address"
        },
        {
          "indexed": false,
          "internalType": "uint256",
          "name": "amount",
          "type": "uint256"
        }
      ],
      "name": "BackingWithdrawn",
      "type": "event"
    },
    {
      "anonymous": false,
      "inputs": [
        {
          "indexed": true,
          "internalType": "address",
          "name": "delegator",
          "type": "address"
        },
        {
          "indexed": true,
          "internalType": "address",
          "name": "fromDelegate",
          "type": "address"
        },
        {
          "indexed": true,
          "internalType": "address",
          "name": "toDelegate",
          "type": "address"
        }
      ],
      "name": "DelegateChanged",
      "type": "event"
    },
    {
      "anonymous": false,
      "inputs": [
        {
          "indexed": true,
          "internalType": "address",
          "name": "delegate",
          "type": "address"
        },
        {
          "indexed": false,
          "internalType": "uint256",
          "name": "previousBalance",
          "type": "uint256"
        },
        {
          "indexed": false,
          "internalType": "uint256",
          "name": "newBalance",
          "type": "uint256"
        }
      ],
      "name": "DelegateVotesChanged",
      "type": "event"
    },
    {
      "anonymous": false,
      "inputs": [],
      "name": "EIP712DomainChanged",
      "type": "event"
    },
    {
      "anonymous": false,
      "inputs": [
        {
          "indexed": false,
          "internalType": "address",
          "name": "account",
          "type": "address"
        }
      ],
      "name": "Paused",
      "type": "event"
    },
    {
      "anonymous": false,
      "inputs": [
        {
          "indexed": true,
          "internalType": "bytes32",
          "name": "role",
          "type": "bytes32"
        },
        {
          "indexed": true,
          "internalType": "bytes32",
          "name": "previousAdminRole",
          "type": "bytes32"
        },
        {
          "indexed": true,
          "internalType": "bytes32",
          "name": "newAdminRole",
          "type": "bytes32"
        }
      ],
      "name": "RoleAdminChanged",
      "type": "event"
    },
    {
      "anonymous": false,
      "inputs": [
        {
          "indexed": true,
          "internalType": "bytes32",
          "name": "role",
          "type": "bytes32"
        },
        {
          "indexed": true,
          "internalType": "address",
          "name": "account",
          "type": "address"
        },
        {
          "indexed": true,
          "internalType": "address",
          "name": "sender",
          "type": "address"
        }
      ],
      "name": "RoleGranted",
      "type": "event"
    },
    {
      "anonymous": false,
      "inputs": [
        {
          "indexed": true,
          "internalType": "bytes32",
          "name": "role",
          "type": "bytes32"
        },
        {
          "indexed": true,
          "internalType": "address",
          "name": "account",
          "type": "address"
        },
        {
          "indexed": true,
          "internalType": "address",
          "name": "sender",
          "type": "address"
        }
      ],
      "name": "RoleRevoked",
      "type": "event"
    },
    {
      "anonymous": false,
      "inputs": [
        {
          "indexed": true,
          "internalType": "address",
          "name": "from",
          "type": "address"
        },
        {
          "indexed": false,
          "internalType": "uint256",
          "name": "amount",
          "type": "uint256"
        },
        {
          "indexed": false,
          "internalType": "string",
          "name": "reason",
          "type": "string"
        }
      ],
      "name": "TokensBurned",
      "type": "event"
    },
    {
      "anonymous": false,
      "inputs": [
        {
          "indexed": true,
          "internalType": "address",
          "name": "to",
          "type": "address"
        },
        {
          "indexed": false,
          "internalType": "uint256",
          "name": "amount",
          "type": "uint256"
        },
        {
          "indexed": false,
          "internalType": "string",
          "name": "reason",
          "type": "string"
        }
      ],
      "name": "TokensMinted",
      "type": "event"
    },
    {
      "anonymous": false,
      "inputs": [
        {
          "indexed": true,
          "internalType": "address",
          "name": "from",
          "type": "address"
        },
        {
          "indexed": true,
          "internalType": "address",
          "name": "to",
          "type": "address"
        },
        {
          "indexed": false,
          "internalType": "uint256",
          "name": "value",
          "type": "uint256"
        }
      ],
      "name": "Transfer",
      "type": "event"
    },
    {
      "anonymous": false,
      "inputs": [
        {
          "indexed": false,
          "internalType": "address",
          "name": "account",
          "type": "address"
        }
      ],
      "name": "Unpaused",
      "type": "event"
    },
    {
      "inputs": [],
      "name": "BACKING_MANAGER_ROLE",
      "outputs": [
        {
          "internalType": "bytes32",
          "name": "",
          "type": "bytes32"
        }
      ],
      "stateMutability": "view",
      "type": "function"
    },
    {
      "inputs": [],
      "name": "BURNER_ROLE",
      "outputs": [
        {
          "internalType": "bytes32",
          "name": "",
          "type": "bytes32"
        }
      ],
      "stateMutability": "view",
      "type": "function"
    },
    {
      "inputs": [],
      "name": "CLOCK_MODE",
      "outputs": [
        {
          "internalType": "string",
          "name": "",
          "type": "string"
        }
      ],
      "stateMutability": "view",
      "type": "function"
    },
    {
      "inputs": [],
      "name": "DEFAULT_ADMIN_ROLE",
      "outputs": [
        {
          "internalType": "bytes32",
          "name": "",
          "type": "bytes32"
        }
      ],
      "stateMutability": "view",
      "type": "function"
    },
    {
      "inputs": [],
      "name": "DOMAIN_SEPARATOR",
      "outputs": [
        {
          "internalType": "bytes32",
          "name": "",
          "type": "bytes32"
        }
      ],
      "stateMutability": "view",
      "type": "function"
    },
    {
      "inputs": [],
      "name": "GOVERNANCE_ROLE",
      "outputs": [
        {
          "internalType": "bytes32",
          "name": "",
          "type": "bytes32"
        }
      ],
      "stateMutability": "view",
      "type": "function"
    },
    {
      "inputs": [],
      "name": "INITIAL_SUPPLY",
      "outputs": [
        {
          "internalType": "uint256",
          "name": "",
          "type": "uint256"
        }
      ],
      "stateMutability": "view",
      "type": "function"
    },
    {
      "inputs": [],
      "name": "MAX_ASSET_PRICE",
      "outputs": [
        {
          "internalType": "uint256",
          "name": "",
          "type": "uint256"
        }
      ],
      "stateMutability": "view",
      "type": "function"
    },
    {
      "inputs": [],
      "name": "MAX_SUPPLY",
      "outputs": [
        {
          "internalType": "uint256",
          "name": "",
          "type": "uint256"
        }
      ],
      "stateMutability": "view",
      "type": "function"
    },
    {
      "inputs": [],
      "name": "MINTER_ROLE",
      "outputs": [
        {
          "internalType": "bytes32",
          "name": "",
          "type": "bytes32"
        }
      ],
      "stateMutability": "view",
      "type": "function"
    },
    {
      "inputs": [],
      "name": "PAUSER_ROLE",
      "outputs": [
        {
          "internalType": "bytes32",
          "name": "",
          "type": "bytes32"
        }
      ],
      "stateMutability": "view",
      "type": "function"
    },
    {
      "inputs": [],
      "name": "RECOVERY_ROLE",
      "outputs": [
        {
          "internalType": "bytes32",
          "name": "",
          "type": "bytes32"
        }
      ],
      "stateMutability": "view",
      "type": "function"
    },
    {
      "inputs": [
        {
          "internalType": "address",
          "name": "owner",
          "type": "address"
        },
        {
          "internalType": "address",
          "name": "spender",
          "type": "address"
        }
      ],
      "name": "allowance",
      "outputs": [
        {
          "internalType": "uint256",
          "name": "",
          "type": "uint256"
        }
      ],
      "stateMutability": "view",
      "type": "function"
    },
    {
      "inputs": [
        {
          "internalType": "address",
          "name": "spender",
          "type": "address"
        },
        {
          "internalType": "uint256",
          "name": "amount",
          "type": "uint256"
        }
      ],
      "name": "approve",
      "outputs": [
        {
          "internalType": "bool",
          "name": "",
          "type": "bool"
        }
      ],
      "stateMutability": "nonpayable",
      "type": "function"
    },
    {
      "inputs": [],
      "name": "backingPerTokenUSD",
      "outputs": [
        {
          "internalType": "uint256",
          "name": "",
          "type": "uint256"
        }
      ],
      "stateMutability": "view",
      "type": "function"
    },
    {
      "inputs": [
        {
          "internalType": "address",
          "name": "account",
          "type": "address"
        }
      ],
      "name": "balanceOf",
      "outputs": [
        {
          "internalType": "uint256",
          "name": "",
          "type": "uint256"
        }
      ],
      "stateMutability": "view",
      "type": "function"
    },
    {
      "inputs": [
        {
          "internalType": "address",
          "name": "from",
          "type": "address"
        },
        {
          "internalType": "uint256",
          "name": "amount",
          "type": "uint256"
        },
        {
          "internalType": "string",
          "name": "reason",
          "type": "string"
        }
      ],
      "name": "burn",
      "outputs": [],
      "stateMutability": "nonpayable",
      "type": "function"
    },
    {
      "inputs": [
        {
          "internalType": "address",
          "name": "account",
          "type": "address"
        },
        {
          "internalType": "uint32",
          "name": "pos",
          "type": "uint32"
        }
      ],
      "name": "checkpoints",
      "outputs": [
        {
          "components": [
            {
              "internalType": "uint32",
              "name": "fromBlock",
              "type": "uint32"
            },
            {
              "internalType": "uint224",
              "name": "votes",
              "type": "uint224"
            }
          ],
          "internalType": "struct ERC20Votes.Checkpoint",
          "name": "",
          "type": "tuple"
        }
      ],
      "stateMutability": "view",
      "type": "function"
    },
    {
      "inputs": [],
      "name": "clock",
      "outputs": [
        {
          "internalType": "uint48",
          "name": "",
          "type": "uint48"
        }
      ],
      "stateMutability": "view",
      "type": "function"
    },
    {
      "inputs": [],
      "name": "decimals",
      "outputs": [
        {
          "internalType": "uint8",
          "name": "",
          "type": "uint8"
        }
      ],
      "stateMutability": "pure",
      "type": "function"
    },
    {
      "inputs": [
        {
          "internalType": "address",
          "name": "spender",
          "type": "address"
        },
        {
          "internalType": "uint256",
          "name": "subtractedValue",
          "type": "uint256"
        }
      ],
      "name": "decreaseAllowance",
      "outputs": [
        {
          "internalType": "bool",
          "name": "",
          "type": "bool"
        }
      ],
      "stateMutability": "nonpayable",
      "type": "function"
    },
    {
      "inputs": [
        {
          "internalType": "address",
          "name": "delegatee",
          "type": "address"
        }
      ],
      "name": "delegate",
      "outputs": [],
      "stateMutability": "nonpayable",
      "type": "function"
    },
    {
      "inputs": [
        {
          "internalType": "address",
          "name": "delegatee",
          "type": "address"
        },
        {
          "internalType": "uint256",
          "name": "nonce",
          "type": "uint256"
        },
        {
          "internalType": "uint256",
          "name": "expiry",
          "type": "uint256"
        },
        {
          "internalType": "uint8",
          "name": "v",
          "type": "uint8"
        },
        {
          "internalType": "bytes32",
          "name": "r",
          "type": "bytes32"
        },
        {
          "internalType": "bytes32",
          "name": "s",
          "type": "bytes32"
        }
      ],
      "name": "delegateBySig",
      "outputs": [],
      "stateMutability": "nonpayable",
      "type": "function"
    },
    {
      "inputs": [
        {
          "internalType": "address",
          "name": "account",
          "type": "address"
        }
      ],
      "name": "delegates",
      "outputs": [
        {
          "internalType": "address",
          "name": "",
          "type": "address"
        }
      ],
      "stateMutability": "view",
      "type": "function"
    },
    {
      "inputs": [
        {
          "internalType": "enum EminarToken.BackingAsset",
          "name": "asset",
          "type": "uint8"
        },
        {
          "internalType": "uint256",
          "name": "amount",
          "type": "uint256"
        }
      ],
      "name": "depositBacking",
      "outputs": [],
      "stateMutability": "nonpayable",
      "type": "function"
    },
    {
      "inputs": [],
      "name": "developmentAddress",
      "outputs": [
        {
          "internalType": "address",
          "name": "",
          "type": "address"
        }
      ],
      "stateMutability": "view",
      "type": "function"
    },
    {
      "inputs": [],
      "name": "eip712Domain",
      "outputs": [
        {
          "internalType": "bytes1",
          "name": "fields",
          "type": "bytes1"
        },
        {
          "internalType": "string",
          "name": "name",
          "type": "string"
        },
        {
          "internalType": "string",
          "name": "version",
          "type": "string"
        },
        {
          "internalType": "uint256",
          "name": "chainId",
          "type": "uint256"
        },
        {
          "internalType": "address",
          "name": "verifyingContract",
          "type": "address"
        },
        {
          "internalType": "bytes32",
          "name": "salt",
          "type": "bytes32"
        },
        {
          "internalType": "uint256[]",
          "name": "extensions",
          "type": "uint256[]"
        }
      ],
      "stateMutability": "view",
      "type": "function"
    },
    {
      "inputs": [
        {
          "internalType": "address",
          "name": "token",
          "type": "address"
        },
        {
          "internalType": "address",
          "name": "to",
          "type": "address"
        },
        {
          "internalType": "uint256",
          "name": "amount",
          "type": "uint256"
        }
      ],
      "name": "emergencyRecoverERC20",
      "outputs": [],
      "stateMutability": "nonpayable",
      "type": "function"
    },
    {
      "inputs": [
        {
          "internalType": "enum EminarToken.BackingAsset",
          "name": "asset",
          "type": "uint8"
        }
      ],
      "name": "getAssetInfo",
      "outputs": [
        {
          "components": [
            {
              "internalType": "contract IERC20",
              "name": "token",
              "type": "address"
            },
            {
              "internalType": "uint256",
              "name": "amount",
              "type": "uint256"
            },
            {
              "internalType": "uint256",
              "name": "priceUSD",
              "type": "uint256"
            },
            {
              "internalType": "bool",
              "name": "registered",
              "type": "bool"
            }
          ],
          "internalType": "struct EminarToken.AssetInfo",
          "name": "",
          "type": "tuple"
        }
      ],
      "stateMutability": "view",
      "type": "function"
    },
    {
      "inputs": [
        {
          "internalType": "uint256",
          "name": "timepoint",
          "type": "uint256"
        }
      ],
      "name": "getPastTotalSupply",
      "outputs": [
        {
          "internalType": "uint256",
          "name": "",
          "type": "uint256"
        }
      ],
      "stateMutability": "view",
      "type": "function"
    },
    {
      "inputs": [
        {
          "internalType": "address",
          "name": "account",
          "type": "address"
        },
        {
          "internalType": "uint256",
          "name": "timepoint",
          "type": "uint256"
        }
      ],
      "name": "getPastVotes",
      "outputs": [
        {
          "internalType": "uint256",
          "name": "",
          "type": "uint256"
        }
      ],
      "stateMutability": "view",
      "type": "function"
    },
    {
      "inputs": [
        {
          "internalType": "bytes32",
          "name": "role",
          "type": "bytes32"
        }
      ],
      "name": "getRoleAdmin",
      "outputs": [
        {
          "internalType": "bytes32",
          "name": "",
          "type": "bytes32"
        }
      ],
      "stateMutability": "view",
      "type": "function"
    },
    {
      "inputs": [
        {
          "internalType": "address",
          "name": "account",
          "type": "address"
        }
      ],
      "name": "getVotes",
      "outputs": [
        {
          "internalType": "uint256",
          "name": "",
          "type": "uint256"
        }
      ],
      "stateMutability": "view",
      "type": "function"
    },
    {
      "inputs": [],
      "name": "governanceAddress",
      "outputs": [
        {
          "internalType": "address",
          "name": "",
          "type": "address"
        }
      ],
      "stateMutability": "view",
      "type": "function"
    },
    {
      "inputs": [
        {
          "internalType": "bytes32",
          "name": "role",
          "type": "bytes32"
        },
        {
          "internalType": "address",
          "name": "account",
          "type": "address"
        }
      ],
      "name": "grantRole",
      "outputs": [],
      "stateMutability": "nonpayable",
      "type": "function"
    },
    {
      "inputs": [
        {
          "internalType": "bytes32",
          "name": "role",
          "type": "bytes32"
        },
        {
          "internalType": "address",
          "name": "account",
          "type": "address"
        }
      ],
      "name": "hasRole",
      "outputs": [
        {
          "internalType": "bool",
          "name": "",
          "type": "bool"
        }
      ],
      "stateMutability": "view",
      "type": "function"
    },
    {
      "inputs": [
        {
          "internalType": "address",
          "name": "spender",
          "type": "address"
        },
        {
          "internalType": "uint256",
          "name": "addedValue",
          "type": "uint256"
        }
      ],
      "name": "increaseAllowance",
      "outputs": [
        {
          "internalType": "bool",
          "name": "",
          "type": "bool"
        }
      ],
      "stateMutability": "nonpayable",
      "type": "function"
    },
    {
      "inputs": [
        {
          "internalType": "address",
          "name": "",
          "type": "address"
        }
      ],
      "name": "isMember",
      "outputs": [
        {
          "internalType": "bool",
          "name": "",
          "type": "bool"
        }
      ],
      "stateMutability": "view",
      "type": "function"
    },
    {
      "inputs": [
        {
          "internalType": "address",
          "name": "to",
          "type": "address"
        },
        {
          "internalType": "uint256",
          "name": "amount",
          "type": "uint256"
        },
        {
          "internalType": "string",
          "name": "reason",
          "type": "string"
        }
      ],
      "name": "mint",
      "outputs": [],
      "stateMutability": "nonpayable",
      "type": "function"
    },
    {
      "inputs": [],
      "name": "name",
      "outputs": [
        {
          "internalType": "string",
          "name": "",
          "type": "string"
        }
      ],
      "stateMutability": "view",
      "type": "function"
    },
    {
      "inputs": [
        {
          "internalType": "address",
          "name": "owner",
          "type": "address"
        }
      ],
      "name": "nonces",
      "outputs": [
        {
          "internalType": "uint256",
          "name": "",
          "type": "uint256"
        }
      ],
      "stateMutability": "view",
      "type": "function"
    },
    {
      "inputs": [
        {
          "internalType": "address",
          "name": "account",
          "type": "address"
        }
      ],
      "name": "numCheckpoints",
      "outputs": [
        {
          "internalType": "uint32",
          "name": "",
          "type": "uint32"
        }
      ],
      "stateMutability": "view",
      "type": "function"
    },
    {
      "inputs": [],
      "name": "pause",
      "outputs": [],
      "stateMutability": "nonpayable",
      "type": "function"
    },
    {
      "inputs": [],
      "name": "paused",
      "outputs": [
        {
          "internalType": "bool",
          "name": "",
          "type": "bool"
        }
      ],
      "stateMutability": "view",
      "type": "function"
    },
    {
      "inputs": [
        {
          "internalType": "address",
          "name": "owner",
          "type": "address"
        },
        {
          "internalType": "address",
          "name": "spender",
          "type": "address"
        },
        {
          "internalType": "uint256",
          "name": "value",
          "type": "uint256"
        },
        {
          "internalType": "uint256",
          "name": "deadline",
          "type": "uint256"
        },
        {
          "internalType": "uint8",
          "name": "v",
          "type": "uint8"
        },
        {
          "internalType": "bytes32",
          "name": "r",
          "type": "bytes32"
        },
        {
          "internalType": "bytes32",
          "name": "s",
          "type": "bytes32"
        }
      ],
      "name": "permit",
      "outputs": [],
      "stateMutability": "nonpayable",
      "type": "function"
    },
    {
      "inputs": [],
      "name": "publicAddress",
      "outputs": [
        {
          "internalType": "address",
          "name": "",
          "type": "address"
        }
      ],
      "stateMutability": "view",
      "type": "function"
    },
    {
      "inputs": [
        {
          "internalType": "enum EminarToken.BackingAsset",
          "name": "asset",
          "type": "uint8"
        },
        {
          "internalType": "address",
          "name": "token",
          "type": "address"
        }
      ],
      "name": "registerBackingToken",
      "outputs": [],
      "stateMutability": "nonpayable",
      "type": "function"
    },
    {
      "inputs": [
        {
          "internalType": "bytes32",
          "name": "role",
          "type": "bytes32"
        },
        {
          "internalType": "address",
          "name": "account",
          "type": "address"
        }
      ],
      "name": "renounceRole",
      "outputs": [],
      "stateMutability": "nonpayable",
      "type": "function"
    },
    {
      "inputs": [],
      "name": "reserveAddress",
      "outputs": [
        {
          "internalType": "address",
          "name": "",
          "type": "address"
        }
      ],
      "stateMutability": "view",
      "type": "function"
    },
    {
      "inputs": [
        {
          "internalType": "bytes32",
          "name": "role",
          "type": "bytes32"
        },
        {
          "internalType": "address",
          "name": "account",
          "type": "address"
        }
      ],
      "name": "revokeRole",
      "outputs": [],
      "stateMutability": "nonpayable",
      "type": "function"
    },
    {
      "inputs": [
        {
          "internalType": "enum EminarToken.BackingAsset",
          "name": "asset",
          "type": "uint8"
        },
        {
          "internalType": "uint256",
          "name": "priceUSD",
          "type": "uint256"
        }
      ],
      "name": "setAssetPriceUSD",
      "outputs": [],
      "stateMutability": "nonpayable",
      "type": "function"
    },
    {
      "inputs": [],
      "name": "shariaTrustAddress",
      "outputs": [
        {
          "internalType": "address",
          "name": "",
          "type": "address"
        }
      ],
      "stateMutability": "view",
      "type": "function"
    },
    {
      "inputs": [],
      "name": "strategicPartnersAddress",
      "outputs": [
        {
          "internalType": "address",
          "name": "",
          "type": "address"
        }
      ],
      "stateMutability": "view",
      "type": "function"
    },
    {
      "inputs": [
        {
          "internalType": "bytes4",
          "name": "interfaceId",
          "type": "bytes4"
        }
      ],
      "name": "supportsInterface",
      "outputs": [
        {
          "internalType": "bool",
          "name": "",
          "type": "bool"
        }
      ],
      "stateMutability": "view",
      "type": "function"
    },
    {
      "inputs": [],
      "name": "symbol",
      "outputs": [
        {
          "internalType": "string",
          "name": "",
          "type": "string"
        }
      ],
      "stateMutability": "view",
      "type": "function"
    },
    {
      "inputs": [],
      "name": "totalBackingValueUSD",
      "outputs": [
        {
          "internalType": "uint256",
          "name": "",
          "type": "uint256"
        }
      ],
      "stateMutability": "view",
      "type": "function"
    },
    {
      "inputs": [],
      "name": "totalSupply",
      "outputs": [
        {
          "internalType": "uint256",
          "name": "",
          "type": "uint256"
        }
      ],
      "stateMutability": "view",
      "type": "function"
    },
    {
      "inputs": [
        {
          "internalType": "address",
          "name": "to",
          "type": "address"
        },
        {
          "internalType": "uint256",
          "name": "amount",
          "type": "uint256"
        }
      ],
      "name": "transfer",
      "outputs": [
        {
          "internalType": "bool",
          "name": "",
          "type": "bool"
        }
      ],
      "stateMutability": "nonpayable",
      "type": "function"
    },
    {
      "inputs": [
        {
          "internalType": "address",
          "name": "from",
          "type": "address"
        },
        {
          "internalType": "address",
          "name": "to",
          "type": "address"
        },
        {
          "internalType": "uint256",
          "name": "amount",
          "type": "uint256"
        }
      ],
      "name": "transferFrom",
      "outputs": [
        {
          "internalType": "bool",
          "name": "",
          "type": "bool"
        }
      ],
      "stateMutability": "nonpayable",
      "type": "function"
    },
    {
      "inputs": [],
      "name": "unpause",
      "outputs": [],
      "stateMutability": "nonpayable",
      "type": "function"
    },
    {
      "inputs": [
        {
          "internalType": "enum EminarToken.BackingAsset",
          "name": "asset",
          "type": "uint8"
        }
      ],
      "name": "unregisterBackingToken",
      "outputs": [],
      "stateMutability": "nonpayable",
      "type": "function"
    },
    {
      "inputs": [
        {
          "internalType": "address",
          "name": "newAddress",
          "type": "address"
        }
      ],
      "name": "updateDevelopmentAddress",
      "outputs": [],
      "stateMutability": "nonpayable",
      "type": "function"
    },
    {
      "inputs": [
        {
          "internalType": "address",
          "name": "governanceMultisig_",
          "type": "address"
        }
      ],
      "name": "updateGovernance",
      "outputs": [],
      "stateMutability": "nonpayable",
      "type": "function"
    },
    {
      "inputs": [
        {
          "internalType": "address",
          "name": "newAddress",
          "type": "address"
        }
      ],
      "name": "updatePublicAddress",
      "outputs": [],
      "stateMutability": "nonpayable",
      "type": "function"
    },
    {
      "inputs": [
        {
          "internalType": "address",
          "name": "newAddress",
          "type": "address"
        }
      ],
      "name": "updateReserveAddress",
      "outputs": [],
      "stateMutability": "nonpayable",
      "type": "function"
    },
    {
      "inputs": [
        {
          "internalType": "enum EminarToken.BackingAsset",
          "name": "asset",
          "type": "uint8"
        },
        {
          "internalType": "address",
          "name": "to",
          "type": "address"
        },
        {
          "internalType": "uint256",
          "name": "amount",
          "type": "uint256"
        }
      ],
      "name": "withdrawBacking",
      "outputs": [],
      "stateMutability": "nonpayable",
      "type": "function"
    }
  ],
  "bytecode": "0x61016060405234801561001157600080fd5b506040516151f53803806151f583398101604081905261003091610ab6565b6040805180820190915260018152603160f81b6020820152879081908189600361005a8382610bfa565b5060046100678282610bfa565b5061007791508390506005610329565b61012052610086816006610329565b61014052815160208084019190912060e052815190820120610100524660a05261011360e05161010051604080517f8b73c3c69bb8fe3d512ecc4cf759cc79239f7b179b0ffacaa9a75d522b39400f60208201529081019290925260608201524660808201523060a082015260009060c00160405160208183030381529060405280519060200120905090565b60805250503060c05250600d805460ff191690556001600160a01b038516158061014457506001600160a01b038416155b8061015657506001600160a01b038316155b8061016857506001600160a01b038216155b8061017a57506001600160a01b038116155b156101985760405163d92e233d60e01b815260040160405180910390fd5b601480546001600160a01b03199081166001600160a01b038881169182178455601080548416898316178155601180548516898416178155601280548616898516178155601380549096168885161786556000948552600f6020526040808620805460ff1990811660019081179092559454861687528187208054861682179055925485168652808620805485168417905590548416855280852080548416831790559454831684529390922080549092169092179055905461027d9116606461026e6a52b7d2dcc80cd2e40000006028610cce565b6102789190610ce5565b61035c565b6010546102a5906001600160a01b0316606461026e6a52b7d2dcc80cd2e40000006014610cce565b6011546102cd906001600160a01b0316606461026e6a52b7d2dcc80cd2e40000006014610cce565b6012546102f5906001600160a01b0316606461026e6a52b7d2dcc80cd2e4000000600a610cce565b60135461031d906001600160a01b0316606461026e6a52b7d2dcc80cd2e4000000600a610cce565b50505050505050610d84565b60006020835110156103455761033e8361036a565b9050610356565b816103508482610bfa565b5060ff90505b92915050565b61036682826103b1565b5050565b600080829050601f8151111561039e578260405163305a27a960e01b81526004016103959190610d07565b60405180910390fd5b80516103a982610d3a565b179392505050565b6103bb828261044f565b6001600160e01b036103cd6105228216565b11156104345760405162461bcd60e51b815260206004820152603060248201527f4552433230566f7465733a20746f74616c20737570706c79207269736b73206f60448201526f766572666c6f77696e6720766f74657360801b6064820152608401610395565b610449600b61237b61052860201b178361053b565b50505050565b6001600160a01b0382166104a55760405162461bcd60e51b815260206004820152601f60248201527f45524332303a206d696e7420746f20746865207a65726f2061646472657373006044820152606401610395565b6104b1600083836106b3565b80600260008282546104c39190610d5e565b90915550506001600160a01b038216600081815260208181526040808320805486019055518481527fddf252ad1be2c89b69c2b068fc378daa952ba7f163c4a11628f55a4df523b3ef910160405180910390a3610366600083836106d2565b60025490565b60006105348284610d5e565b9392505050565b825460009081908181156105885760008781526020902082016000190160408051808201909152905463ffffffff8116825264010000000090046001600160e01b0316602082015261059d565b60408051808201909152600080825260208201525b905080602001516001600160e01b031693506105ba84868860201c565b92506000821180156105e457506105cf6106dd565b65ffffffffffff16816000015163ffffffff16145b15610629576105f2836106ed565b60008881526020902083016000190180546001600160e01b03929092166401000000000263ffffffff9092169190911790556106a9565b8660405180604001604052806106536106466106dd60201b60201c565b65ffffffffffff1661075a565b63ffffffff168152602001610667866106ed565b6001600160e01b0390811690915282546001810184556000938452602093849020835194909301519091166401000000000263ffffffff909316929092179101555b5050935093915050565b6106bb6107bf565b6106cd8383836001600160e01b038416565b505050565b6106cd838383610807565b60006106e843610839565b905090565b60006001600160e01b038211156107565760405162461bcd60e51b815260206004820152602760248201527f53616665436173743a2076616c756520646f65736e27742066697420696e20326044820152663234206269747360c81b6064820152608401610395565b5090565b600063ffffffff8211156107565760405162461bcd60e51b815260206004820152602660248201527f53616665436173743a2076616c756520646f65736e27742066697420696e203360448201526532206269747360d01b6064820152608401610395565b600d5460ff16156108055760405162461bcd60e51b815260206004820152601060248201526f14185d5cd8589b194e881c185d5cd95960821b6044820152606401610395565b565b6001600160a01b038381166000908152600960205260408082205485841683529120546106cd929182169116836108a0565b600065ffffffffffff8211156107565760405162461bcd60e51b815260206004820152602660248201527f53616665436173743a2076616c756520646f65736e27742066697420696e203460448201526538206269747360d01b6064820152608401610395565b816001600160a01b0316836001600160a01b0316141580156108c25750600081115b156106cd576001600160a01b03831615610947576001600160a01b0383166000908152600a602090815260408220829161090691906109cb901b612387178561053b565b91509150846001600160a01b03166000805160206151d5833981519152838360405161093c929190918252602082015260400190565b60405180910390a250505b6001600160a01b038216156106cd576001600160a01b0382166000908152600a60209081526040822082916109869190610528901b61237b178561053b565b91509150836001600160a01b03166000805160206151d583398151915283836040516109bc929190918252602082015260400190565b60405180910390a25050505050565b60006105348284610d71565b634e487b7160e01b600052604160045260246000fd5b60005b83811015610a085781810151838201526020016109f0565b50506000910152565b600082601f830112610a2257600080fd5b81516001600160401b03811115610a3b57610a3b6109d7565b604051601f8201601f19908116603f011681016001600160401b0381118282101715610a6957610a696109d7565b604052818152838201602001851015610a8157600080fd5b610a928260208301602087016109ed565b949350505050565b80516001600160a01b0381168114610ab157600080fd5b919050565b600080600080600080600060e0888a031215610ad157600080fd5b87516001600160401b03811115610ae757600080fd5b610af38a828b01610a11565b60208a015190985090506001600160401b03811115610b1157600080fd5b610b1d8a828b01610a11565b965050610b2c60408901610a9a565b9450610b3a60608901610a9a565b9350610b4860808901610a9a565b9250610b5660a08901610a9a565b9150610b6460c08901610a9a565b905092959891949750929550565b600181811c90821680610b8657607f821691505b602082108103610ba657634e487b7160e01b600052602260045260246000fd5b50919050565b601f8211156106cd57806000526020600020601f840160051c81016020851015610bd35750805b601f840160051c820191505b81811015610bf35760008155600101610bdf565b5050505050565b81516001600160401b03811115610c1357610c136109d7565b610c2781610c218454610b72565b84610bac565b6020601f821160018114610c5b5760008315610c435750848201515b600019600385901b1c1916600184901b178455610bf3565b600084815260208120601f198516915b82811015610c8b5787850151825560209485019460019092019101610c6b565b5084821015610ca95786840151600019600387901b60f8161c191681555b50505050600190811b01905550565b634e487b7160e01b600052601160045260246000fd5b808202811582820484141761035657610356610cb8565b600082610d0257634e487b7160e01b600052601260045260246000fd5b500490565b6020815260008251806020840152610d268160408501602087016109ed565b601f01601f19169190910160400192915050565b80516020808301519190811015610ba65760001960209190910360031b1b16919050565b8082018082111561035657610356610cb8565b8181038181111561035657610356610cb8565b60805160a05160c05160e0516101005161012051610140516143f7610dde6000396000611116015260006110eb0152600061289c01526000612874015260006127cf015260006127f90152600061282301526143f76000f3fe608060405234801561001057600080fd5b50600436106103e65760003560e01c806384b0196e1161020a578063c3cda52011610125578063dfef15b8116100b8578063f36c8f5c11610087578063f36c8f5c1461095c578063f676f33114610971578063f79ed94b14610984578063f84afd4814610997578063fe64c681146109aa57600080fd5b8063dfef15b8146108ef578063e63ab1e9146108f7578063eb8f4c4a1461090c578063f1127ed81461091f57600080fd5b8063d505accf116100f4578063d505accf1461088f578063d5391393146108a2578063d547741f146108c9578063dd62ed3e146108dc57600080fd5b8063c3cda52014610805578063c69def0b14610818578063c8c7fe6b1461082b578063d3fc98641461087c57600080fd5b8063a230c5241161019d578063a978d8df1161016c578063a978d8df146107c4578063ae621bbe146107d7578063aeeb73ea146107df578063b2561263146107f257600080fd5b8063a230c52414610768578063a34cea081461078b578063a457c2d71461079e578063a9059cbb146107b157600080fd5b806391ee2a3d116101d957806391ee2a3d1461073257806395d89b41146107455780639ab24eb01461074d578063a217fddf1461076057600080fd5b806384b0196e146106d25780638e539e8c146106ed57806391d148541461070057806391ddadf41461071357600080fd5b806336568abe116103055780636042d5d4116102985780636fcfff45116102675780636fcfff451461065357806370a082311461067b578063795053d3146106a45780637ecebe00146106b75780638456cb59146106ca57600080fd5b80636042d5d414610607578063626c3d431461061a578063638b1b141461062d578063694d9d171461064057600080fd5b80634bf5d7e9116102d45780634bf5d7e91461059d578063587cde1e146105a55780635c19a95c146105e95780635c975abb146105fc57600080fd5b806336568abe1461055c578063395093511461056f5780633a46b1a8146105825780633f4ba83a1461059557600080fd5b8063248a9ca31161037d578063313ce5671161034c578063313ce5671461050b57806331993a1c1461051a57806332cb6b0c146105415780633644e5151461055457600080fd5b8063248a9ca31461049c578063282c51f3146104bf5780632f2ff15d146104e65780632ff2e9dc146104f957600080fd5b806315e98e73116103b957806315e98e731461045757806315f570dc1461046c57806318160ddd1461048157806323b872dd1461048957600080fd5b806301ffc9a7146103eb57806306fdde0314610413578063095ea7b3146104285780630bc48ada1461043b575b600080fd5b6103fe6103f9366004613ccb565b6109bd565b60405190151581526020015b60405180910390f35b61041b6109f4565b60405161040a9190613d45565b6103fe610436366004613d74565b610a86565b6104496001600160801b0381565b60405190815260200161040a565b61044960008051602061436283398151915281565b61047f61047a366004613db4565b610a9e565b005b600254610449565b6103fe610497366004613e87565b610baa565b6104496104aa366004613ec4565b6000908152600c602052604090206001015490565b6104497f3c11d16cbaffd01df69ce1c404f6340ee057498f5f00246190ea54220576a84881565b61047f6104f4366004613edd565b610bce565b6104496a52b7d2dcc80cd2e400000081565b6040516012815260200161040a565b6104497f0acf805600123ef007091da3b3ffb39474074c656c127aa68cb0ffec232a8ff881565b6104496b033b2e3c9fd0803ce800000081565b610449610bf8565b61047f61056a366004613edd565b610c07565b6103fe61057d366004613d74565b610c8a565b610449610590366004613d74565b610cac565b61047f610d31565b61041b610d54565b6105d16105b3366004613f09565b6001600160a01b039081166000908152600960205260409020541690565b6040516001600160a01b03909116815260200161040a565b61047f6105f7366004613f09565b610dec565b600d5460ff166103fe565b61047f610615366004613f33565b610df6565b6013546105d1906001600160a01b031681565b6011546105d1906001600160a01b031681565b61047f61064e366004613f09565b610fc4565b610666610661366004613f09565b61107d565b60405163ffffffff909116815260200161040a565b610449610689366004613f09565b6001600160a01b031660009081526020819052604090205490565b6015546105d1906001600160a01b031681565b6104496106c5366004613f09565b61109f565b61047f6110bd565b6106da6110dd565b60405161040a9796959493929190613f4e565b6104496106fb366004613ec4565b611166565b6103fe61070e366004613edd565b6111cd565b61071b6111f8565b60405165ffffffffffff909116815260200161040a565b61047f610740366004613fe6565b611203565b61041b6113a1565b61044961075b366004613f09565b6113b0565b610449600081565b6103fe610776366004613f09565b600f6020526000908152604090205460ff1681565b61047f610799366004614002565b611432565b6103fe6107ac366004613d74565b611669565b6103fe6107bf366004613d74565b6116e4565b61047f6107d2366004613fe6565b6116f2565b610449611847565b61047f6107ed366004613f09565b611922565b61047f610800366004613f09565b611993565b61047f610813366004614031565b611b10565b61047f610826366004614089565b611c46565b61083e610839366004613f33565b611dab565b60405161040a919081516001600160a01b03168152602080830151908201526040808301519082015260609182015115159181019190915260800190565b61047f61088a366004613db4565b611e7d565b61047f61089d3660046140b3565b611f7c565b6104497f9f2df0fed2c77648de5860a4cc508cd0818c85b8b8a1ab4ceeef8d981c8956a681565b61047f6108d7366004613edd565b6120e0565b6104496108ea36600461411e565b612105565b610449612130565b6104496000805160206143a283398151915281565b61047f61091a366004613e87565b612187565b61093261092d36600461413a565b612285565b60408051825163ffffffff1681526020928301516001600160e01b0316928101929092520161040a565b61044960008051602061438283398151915281565b6014546105d1906001600160a01b031681565b6010546105d1906001600160a01b031681565b61047f6109a5366004613f09565b612309565b6012546105d1906001600160a01b031681565b60006001600160e01b03198216637965db0b60e01b14806109ee57506301ffc9a760e01b6001600160e01b03198316145b92915050565b606060038054610a039061417a565b80601f0160208091040260200160405190810160405280929190818152602001828054610a2f9061417a565b8015610a7c5780601f10610a5157610100808354040283529160200191610a7c565b820191906000526020600020905b815481529060010190602001808311610a5f57829003601f168201915b5050505050905090565b600033610a94818585612393565b5060019392505050565b7f3c11d16cbaffd01df69ce1c404f6340ee057498f5f00246190ea54220576a848610ac8816124b7565b610ad06124c1565b6001600160a01b038416610af75760405163d92e233d60e01b815260040160405180910390fd5b82600003610b1857604051631f2a200560e01b815260040160405180910390fd5b82610b38856001600160a01b031660009081526020819052604090205490565b1015610b5757604051631e9acf1760e31b815260040160405180910390fd5b610b618484612509565b836001600160a01b03167ffad31924d655455395c87544c8aa1ffdb5a7505a22a3c2e03f28003b6556a75f8484604051610b9c9291906141ae565b60405180910390a250505050565b600033610bb8858285612513565b610bc3858585612587565b506001949350505050565b6000828152600c6020526040902060010154610be9816124b7565b610bf3838361273c565b505050565b6000610c026127c2565b905090565b6001600160a01b0381163314610c7c5760405162461bcd60e51b815260206004820152602f60248201527f416363657373436f6e74726f6c3a2063616e206f6e6c792072656e6f756e636560448201526e103937b632b9903337b91039b2b63360891b60648201526084015b60405180910390fd5b610c8682826128ed565b5050565b600033610a94818585610c9d8383612105565b610ca791906141dd565b612393565b6000610cb66111f8565b65ffffffffffff168210610d085760405162461bcd60e51b815260206004820152601960248201527804552433230566f7465733a20667574757265206c6f6f6b757603c1b6044820152606401610c73565b6001600160a01b0383166000908152600a60205260409020610d2a9083612954565b9392505050565b6000805160206143a2833981519152610d49816124b7565b610d51612a3d565b50565b606043610d5f6111f8565b65ffffffffffff1614610db45760405162461bcd60e51b815260206004820152601d60248201527f4552433230566f7465733a2062726f6b656e20636c6f636b206d6f64650000006044820152606401610c73565b5060408051808201909152601d81527f6d6f64653d626c6f636b6e756d6265722666726f6d3d64656661756c74000000602082015290565b610d513382612a8f565b600080516020614362833981519152610e0e816124b7565b6002826002811115610e2257610e226141f0565b1115610e4157604051636448d6e960e11b815260040160405180910390fd5b600e6000836002811115610e5757610e576141f0565b6002811115610e6857610e686141f0565b815260208101919091526040016000206003015460ff16610e9c57604051630719d53360e21b815260040160405180910390fd5b6000600e6000846002811115610eb457610eb46141f0565b6002811115610ec557610ec56141f0565b8152602001908152602001600020600101541115610ef6576040516340db7f8760e01b815260040160405180910390fd5b6000600e6000846002811115610f0e57610f0e6141f0565b6002811115610f1f57610f1f6141f0565b815260200190815260200160002060030160006101000a81548160ff0219169083151502179055506000600e6000846002811115610f5f57610f5f6141f0565b6002811115610f7057610f706141f0565b815260200190815260200160002060020181905550816002811115610f9757610f976141f0565b6040517f8b56d0949004b9ec276cc1fa05c8edd80c00371256c79fb5286504b2e2ed105f90600090a25050565b600080516020614382833981519152610fdc816124b7565b6001600160a01b0382166110035760405163d92e233d60e01b815260040160405180910390fd5b601180546001600160a01b0319166001600160a01b0384161790556040516a111155915313d41351539560aa1b8152600b015b6040519081900381206001600160a01b0384168252907f943e9d45a11aaae5d87503e3bc248665d9807856e5cf2bdb4a988bee444227819060200160405180910390a25050565b6001600160a01b0381166000908152600a60205260408120546109ee90612b08565b6001600160a01b0381166000908152600760205260408120546109ee565b6000805160206143a28339815191526110d5816124b7565b610d51612b71565b6000606080828080836111117f00000000000000000000000000000000000000000000000000000000000000006005612bae565b61113c7f00000000000000000000000000000000000000000000000000000000000000006006612bae565b60408051600080825260208201909252600f60f81b9b939a50919850469750309650945092509050565b60006111706111f8565b65ffffffffffff1682106111c25760405162461bcd60e51b815260206004820152601960248201527804552433230566f7465733a20667574757265206c6f6f6b757603c1b6044820152606401610c73565b6109ee600b83612954565b6000918252600c602090815260408084206001600160a01b0393909316845291905290205460ff1690565b6000610c0243612c59565b61120b6124c1565b600282600281111561121f5761121f6141f0565b111561123e57604051636448d6e960e11b815260040160405180910390fd5b600e6000836002811115611254576112546141f0565b6002811115611265576112656141f0565b815260208101919091526040016000206003015460ff1661129957604051630719d53360e21b815260040160405180910390fd5b806000036112ba57604051631f2a200560e01b815260040160405180910390fd5b611309333083600e60008760028111156112d6576112d66141f0565b60028111156112e7576112e76141f0565b81526020810191909152604001600020546001600160a01b0316929190612cc0565b80600e6000846002811115611320576113206141f0565b6002811115611331576113316141f0565b8152602001908152602001600020600101600082825461135191906141dd565b9091555033905082600281111561136a5761136a6141f0565b6040518381527f6a2b04b1f3d5a335c4367fea39bb8807ef0a4fbe77a2772700c8f9c90c1c9a1b9060200160405180910390a35050565b606060048054610a039061417a565b6001600160a01b0381166000908152600a6020526040812054801561141f576001600160a01b0383166000908152600a60205260409020805460001983019081106113fd576113fd614206565b60009182526020909120015464010000000090046001600160e01b0316611422565b60005b6001600160e01b03169392505050565b60008051602061436283398151915261144a816124b7565b6001600160a01b0383166114715760405163d92e233d60e01b815260040160405180910390fd5b8160000361149257604051631f2a200560e01b815260040160405180910390fd5b60028460028111156114a6576114a66141f0565b11156114c557604051636448d6e960e11b815260040160405180910390fd5b600e60008560028111156114db576114db6141f0565b60028111156114ec576114ec6141f0565b815260208101919091526040016000206003015460ff1661152057604051630719d53360e21b815260040160405180910390fd5b81600e6000866002811115611537576115376141f0565b6002811115611548576115486141f0565b8152602001908152602001600020600101541015611579576040516340db7f8760e01b815260040160405180910390fd5b81600e6000866002811115611590576115906141f0565b60028111156115a1576115a16141f0565b815260200190815260200160002060010160008282546115c1919061421c565b9091555061161490508383600e60008860028111156115e2576115e26141f0565b60028111156115f3576115f36141f0565b81526020810191909152604001600020546001600160a01b03169190612d2b565b826001600160a01b0316846002811115611630576116306141f0565b6040518481527fe3aab926d81700bac87dab01982e77e751c07d1acca11c13ff44aae1193a5f549060200160405180910390a350505050565b600033816116778286612105565b9050838110156116d75760405162461bcd60e51b815260206004820152602560248201527f45524332303a2064656372656173656420616c6c6f77616e63652062656c6f77604482015264207a65726f60d81b6064820152608401610c73565b610bc38286868403612393565b600033610a94818585612587565b60008051602061436283398151915261170a816124b7565b600283600281111561171e5761171e6141f0565b111561173d57604051636448d6e960e11b815260040160405180910390fd5b600e6000846002811115611753576117536141f0565b6002811115611764576117646141f0565b815260208101919091526040016000206003015460ff1661179857604051630719d53360e21b815260040160405180910390fd5b6001600160801b038211156117bf5760405162bfc92160e01b815260040160405180910390fd5b81600e60008560028111156117d6576117d66141f0565b60028111156117e7576117e76141f0565b81526020019081526020016000206002018190555082600281111561180e5761180e6141f0565b6040518381527f2d292c5b6330b5b0f99b665ec1be838ca17cd57eb118fe7a02cc05477b5bd42f906020015b60405180910390a2505050565b600080805b6002811161191c576000816002811115611868576118686141f0565b90506000600e6000836002811115611882576118826141f0565b6002811115611893576118936141f0565b81526020810191909152604001600020600381015490915060ff1680156118be575060008160020154115b80156118ce575060008160010154115b1561190757670de0b6b3a7640000816002015482600101546118f0919061422f565b6118fa919061425c565b61190490856141dd565b93505b505080806119149061427e565b91505061184c565b50919050565b60008051602061438283398151915261193a816124b7565b6001600160a01b0382166119615760405163d92e233d60e01b815260040160405180910390fd5b601480546001600160a01b0319166001600160a01b038416179055604051655055424c494360d01b8152600601611036565b6015546001600160a01b031615806119b557506015546001600160a01b031633145b6119fa5760405162461bcd60e51b815260206004820152601660248201527511dbdd995c9b985b98d948185b1c9958591e481cd95d60521b6044820152606401610c73565b336000908152600f602052604090205460ff16611a4a5760405162461bcd60e51b815260206004820152600e60248201526d139bdd08185d5d1a1bdc9a5e995960921b6044820152606401610c73565b611a747f9f2df0fed2c77648de5860a4cc508cd0818c85b8b8a1ab4ceeef8d981c8956a68261273c565b611a9e7f3c11d16cbaffd01df69ce1c404f6340ee057498f5f00246190ea54220576a8488261273c565b611ab66000805160206143a28339815191528261273c565b611ace6000805160206143628339815191528261273c565b611ae66000805160206143828339815191528261273c565b610d517f0acf805600123ef007091da3b3ffb39474074c656c127aa68cb0ffec232a8ff88261273c565b83421115611b605760405162461bcd60e51b815260206004820152601d60248201527f4552433230566f7465733a207369676e617475726520657870697265640000006044820152606401610c73565b604080517fe48329057bfd03d55e49b547132e39cffd9c1820ad7b9d4c5307691425d15adf60208201526001600160a01b038816918101919091526060810186905260808101859052600090611bda90611bd29060a00160405160208183030381529060405280519060200120612d5b565b858585612d88565b9050611be581612db2565b8614611c335760405162461bcd60e51b815260206004820152601960248201527f4552433230566f7465733a20696e76616c6964206e6f6e6365000000000000006044820152606401610c73565b611c3d8188612a8f565b50505050505050565b600080516020614362833981519152611c5e816124b7565b6001600160a01b038216611c855760405163d92e233d60e01b815260040160405180910390fd5b6002836002811115611c9957611c996141f0565b1115611cb857604051636448d6e960e11b815260040160405180910390fd5b81600e6000856002811115611ccf57611ccf6141f0565b6002811115611ce057611ce06141f0565b815260200190815260200160002060000160006101000a8154816001600160a01b0302191690836001600160a01b031602179055506001600e6000856002811115611d2d57611d2d6141f0565b6002811115611d3e57611d3e6141f0565b81526020810191909152604001600020600301805460ff1916911515919091179055826002811115611d7257611d726141f0565b6040516001600160a01b03841681527f561acd69f877decb2be770ca93ef06bb6a9e5d65defa3bace8eab67feecac5729060200161183a565b6040805160808101825260008082526020820181905291810182905260608101919091526002826002811115611de357611de36141f0565b1115611e0257604051636448d6e960e11b815260040160405180910390fd5b600e6000836002811115611e1857611e186141f0565b6002811115611e2957611e296141f0565b81526020808201929092526040908101600020815160808101835281546001600160a01b031681526001820154938101939093526002810154918301919091526003015460ff161515606082015292915050565b7f9f2df0fed2c77648de5860a4cc508cd0818c85b8b8a1ab4ceeef8d981c8956a6611ea7816124b7565b611eaf6124c1565b6001600160a01b038416611ed65760405163d92e233d60e01b815260040160405180910390fd5b82600003611ef757604051631f2a200560e01b815260040160405180910390fd5b6b033b2e3c9fd0803ce800000083611f0e60025490565b611f1891906141dd565b1115611f375760405163c30436e960e01b815260040160405180910390fd5b611f418484612dd8565b836001600160a01b03167f9d89e36eadf856db0ad9ffb5a569e07f95634dddd9501141ecf04820484ad0dc8484604051610b9c9291906141ae565b83421115611fcc5760405162461bcd60e51b815260206004820152601d60248201527f45524332305065726d69743a206578706972656420646561646c696e650000006044820152606401610c73565b60007f6e71edae12b1b97f4d1f60370fef10105fa2faae0126114a169c64845d6126c9888888611ffb8c612db2565b6040805160208101969096526001600160a01b0394851690860152929091166060840152608083015260a082015260c0810186905260e001604051602081830303815290604052805190602001209050600061205682612d5b565b9050600061206682878787612d88565b9050896001600160a01b0316816001600160a01b0316146120c95760405162461bcd60e51b815260206004820152601e60248201527f45524332305065726d69743a20696e76616c6964207369676e617475726500006044820152606401610c73565b6120d48a8a8a612393565b50505050505050505050565b6000828152600c60205260409020600101546120fb816124b7565b610bf383836128ed565b6001600160a01b03918216600090815260016020908152604080832093909416825291909152205490565b60008061213b611847565b9050600061214860025490565b9050811580612155575080155b156121635760009250505090565b8061217683670de0b6b3a764000061422f565b612180919061425c565b9250505090565b7f0acf805600123ef007091da3b3ffb39474074c656c127aa68cb0ffec232a8ff86121b1816124b7565b6001600160a01b0383166121d85760405163d92e233d60e01b815260040160405180910390fd5b60005b6002811161226a57600e60008260028111156121f9576121f96141f0565b600281111561220a5761220a6141f0565b600281111561221b5761221b6141f0565b81526020810191909152604001600020546001600160a01b0390811690861603612258576040516340db7f8760e01b815260040160405180910390fd5b806122628161427e565b9150506121db565b5061227f6001600160a01b0385168484612d2b565b50505050565b60408051808201909152600080825260208201526001600160a01b0383166000908152600a60205260409020805463ffffffff84169081106122c9576122c9614206565b60009182526020918290206040805180820190915291015463ffffffff8116825264010000000090046001600160e01b0316918101919091529392505050565b600080516020614382833981519152612321816124b7565b6001600160a01b0382166123485760405163d92e233d60e01b815260040160405180910390fd5b601080546001600160a01b0319166001600160a01b038416179055604051665245534552564560c81b8152600701611036565b6000610d2a82846141dd565b6000610d2a828461421c565b6001600160a01b0383166123f55760405162461bcd60e51b8152602060048201526024808201527f45524332303a20617070726f76652066726f6d20746865207a65726f206164646044820152637265737360e01b6064820152608401610c73565b6001600160a01b0382166124565760405162461bcd60e51b815260206004820152602260248201527f45524332303a20617070726f766520746f20746865207a65726f206164647265604482015261737360f01b6064820152608401610c73565b6001600160a01b0383811660008181526001602090815260408083209487168084529482529182902085905590518481527f8c5be1e5ebec7d5bd14f71427d1e84f3dd0314c0f7b2291e5b200ac8c7c3b925910160405180910390a3505050565b610d518133612de2565b600d5460ff16156125075760405162461bcd60e51b815260206004820152601060248201526f14185d5cd8589b194e881c185d5cd95960821b6044820152606401610c73565b565b610c868282612e3b565b600061251f8484612105565b9050600019811461227f578181101561257a5760405162461bcd60e51b815260206004820152601d60248201527f45524332303a20696e73756666696369656e7420616c6c6f77616e63650000006044820152606401610c73565b61227f8484848403612393565b6001600160a01b0383166125eb5760405162461bcd60e51b815260206004820152602560248201527f45524332303a207472616e736665722066726f6d20746865207a65726f206164604482015264647265737360d81b6064820152608401610c73565b6001600160a01b03821661264d5760405162461bcd60e51b815260206004820152602360248201527f45524332303a207472616e7366657220746f20746865207a65726f206164647260448201526265737360e81b6064820152608401610c73565b612658838383612e53565b6001600160a01b038316600090815260208190526040902054818110156126d05760405162461bcd60e51b815260206004820152602660248201527f45524332303a207472616e7366657220616d6f756e7420657863656564732062604482015265616c616e636560d01b6064820152608401610c73565b6001600160a01b03848116600081815260208181526040808320878703905593871680835291849020805487019055925185815290927fddf252ad1be2c89b69c2b068fc378daa952ba7f163c4a11628f55a4df523b3ef910160405180910390a361227f848484612e5b565b61274682826111cd565b610c86576000828152600c602090815260408083206001600160a01b03851684529091529020805460ff1916600117905561277e3390565b6001600160a01b0316816001600160a01b0316837f2f8788117e7eff1d82e926ec794901d17c78024a50270940304540a733656f0d60405160405180910390a45050565b6000306001600160a01b037f00000000000000000000000000000000000000000000000000000000000000001614801561281b57507f000000000000000000000000000000000000000000000000000000000000000046145b1561284557507f000000000000000000000000000000000000000000000000000000000000000090565b610c02604080517f8b73c3c69bb8fe3d512ecc4cf759cc79239f7b179b0ffacaa9a75d522b39400f60208201527f0000000000000000000000000000000000000000000000000000000000000000918101919091527f000000000000000000000000000000000000000000000000000000000000000060608201524660808201523060a082015260009060c00160405160208183030381529060405280519060200120905090565b6128f782826111cd565b15610c86576000828152600c602090815260408083206001600160a01b0385168085529252808320805460ff1916905551339285917ff6391f5c32d9c69d2a47ea670b442974b53935d1edc7fd64eb21e047a839171b9190a45050565b8154600090818160058111156129ae57600061296f84612e66565b612979908561421c565b600088815260209020909150869082015463ffffffff16111561299e578091506129ac565b6129a98160016141dd565b92505b505b808210156129fb5760006129c28383612f4e565b600088815260209020909150869082015463ffffffff1611156129e7578091506129f5565b6129f28160016141dd565b92505b506129ae565b8015612a27576000868152602090208101600019015464010000000090046001600160e01b0316612a2a565b60005b6001600160e01b03169695505050505050565b612a45612f69565b600d805460ff191690557f5db9ee0a495bf2e6ff9c91a7834c1ba4fdd244a5e8aa4e537bd38aeae4b073aa335b6040516001600160a01b03909116815260200160405180910390a1565b6001600160a01b038281166000818152600960208181526040808420805485845282862054949093528787166001600160a01b03198416811790915590519190951694919391928592917f3134e8a2e6d97e929a7e54011ea5485d7d196dd5f0ba4d4ef95803e8e3fc257f9190a461227f828483612fb2565b600063ffffffff821115612b6d5760405162461bcd60e51b815260206004820152602660248201527f53616665436173743a2076616c756520646f65736e27742066697420696e203360448201526532206269747360d01b6064820152608401610c73565b5090565b612b796124c1565b600d805460ff191660011790557f62e78cea01bee320cd4e420270b5ea74000d11b0c9f74754ebdbfc544b05a258612a723390565b606060ff8314612bc857612bc1836130ef565b90506109ee565b818054612bd49061417a565b80601f0160208091040260200160405190810160405280929190818152602001828054612c009061417a565b8015612c4d5780601f10612c2257610100808354040283529160200191612c4d565b820191906000526020600020905b815481529060010190602001808311612c3057829003601f168201915b505050505090506109ee565b600065ffffffffffff821115612b6d5760405162461bcd60e51b815260206004820152602660248201527f53616665436173743a2076616c756520646f65736e27742066697420696e203460448201526538206269747360d01b6064820152608401610c73565b6040516001600160a01b038085166024830152831660448201526064810182905261227f9085906323b872dd60e01b906084015b60408051601f198184030181529190526020810180516001600160e01b03166001600160e01b03199093169290921790915261312e565b6040516001600160a01b038316602482015260448101829052610bf390849063a9059cbb60e01b90606401612cf4565b60006109ee612d686127c2565b8360405161190160f01b8152600281019290925260228201526042902090565b6000806000612d9987878787613203565b91509150612da6816132c7565b5090505b949350505050565b6001600160a01b038116600090815260076020526040902080546001810182559061191c565b610c868282613411565b612dec82826111cd565b610c8657612df98161349b565b612e048360206134ad565b604051602001612e15929190614297565b60408051601f198184030181529082905262461bcd60e51b8252610c7391600401613d45565b612e458282613649565b61227f600b6123878361378e565b610bf36124c1565b610bf3838383613903565b600081600003612e7857506000919050565b60006001612e8584613935565b901c6001901b90506001818481612e9e57612e9e614246565b048201901c90506001818481612eb657612eb6614246565b048201901c90506001818481612ece57612ece614246565b048201901c90506001818481612ee657612ee6614246565b048201901c90506001818481612efe57612efe614246565b048201901c90506001818481612f1657612f16614246565b048201901c90506001818481612f2e57612f2e614246565b048201901c9050610d2a81828581612f4857612f48614246565b046139c9565b6000612f5d600284841861425c565b610d2a908484166141dd565b600d5460ff166125075760405162461bcd60e51b815260206004820152601460248201527314185d5cd8589b194e881b9bdd081c185d5cd95960621b6044820152606401610c73565b816001600160a01b0316836001600160a01b031614158015612fd45750600081115b15610bf3576001600160a01b03831615613062576001600160a01b0383166000908152600a60205260408120819061300f906123878561378e565b91509150846001600160a01b03167fdec2bacdd2f05b59de34da9b523dff8be42e5e38e818c82fdb0bae774387a7248383604051613057929190918252602082015260400190565b60405180910390a250505b6001600160a01b03821615610bf3576001600160a01b0382166000908152600a6020526040812081906130989061237b8561378e565b91509150836001600160a01b03167fdec2bacdd2f05b59de34da9b523dff8be42e5e38e818c82fdb0bae774387a72483836040516130e0929190918252602082015260400190565b60405180910390a25050505050565b606060006130fc836139df565b604080516020808252818301909252919250600091906020820181803683375050509182525060208101929092525090565b6000613183826040518060400160405280602081526020017f5361666545524332303a206c6f772d6c6576656c2063616c6c206661696c6564815250856001600160a01b0316613a079092919063ffffffff16565b90508051600014806131a45750808060200190518101906131a4919061430c565b610bf35760405162461bcd60e51b815260206004820152602a60248201527f5361666545524332303a204552433230206f7065726174696f6e20646964206e6044820152691bdd081cdd58d8d9595960b21b6064820152608401610c73565b6000807f7fffffffffffffffffffffffffffffff5d576e7357a4501ddfe92f46681b20a083111561323a57506000905060036132be565b6040805160008082526020820180845289905260ff881692820192909252606081018690526080810185905260019060a0016020604051602081039080840390855afa15801561328e573d6000803e3d6000fd5b5050604051601f1901519150506001600160a01b0381166132b7576000600192509250506132be565b9150600090505b94509492505050565b60008160048111156132db576132db6141f0565b036132e35750565b60018160048111156132f7576132f76141f0565b036133445760405162461bcd60e51b815260206004820152601860248201527f45434453413a20696e76616c6964207369676e617475726500000000000000006044820152606401610c73565b6002816004811115613358576133586141f0565b036133a55760405162461bcd60e51b815260206004820152601f60248201527f45434453413a20696e76616c6964207369676e6174757265206c656e677468006044820152606401610c73565b60038160048111156133b9576133b96141f0565b03610d515760405162461bcd60e51b815260206004820152602260248201527f45434453413a20696e76616c6964207369676e6174757265202773272076616c604482015261756560f01b6064820152608401610c73565b61341b8282613a16565b6002546001600160e01b03101561348d5760405162461bcd60e51b815260206004820152603060248201527f4552433230566f7465733a20746f74616c20737570706c79207269736b73206f60448201526f766572666c6f77696e6720766f74657360801b6064820152608401610c73565b61227f600b61237b8361378e565b60606109ee6001600160a01b03831660145b606060006134bc83600261422f565b6134c79060026141dd565b67ffffffffffffffff8111156134df576134df613d9e565b6040519080825280601f01601f191660200182016040528015613509576020820181803683370190505b509050600360fc1b8160008151811061352457613524614206565b60200101906001600160f81b031916908160001a905350600f60fb1b8160018151811061355357613553614206565b60200101906001600160f81b031916908160001a905350600061357784600261422f565b6135829060016141dd565b90505b60018111156135fa576f181899199a1a9b1b9c1cb0b131b232b360811b85600f16601081106135b6576135b6614206565b1a60f81b8282815181106135cc576135cc614206565b60200101906001600160f81b031916908160001a90535060049490941c936135f38161432e565b9050613585565b508315610d2a5760405162461bcd60e51b815260206004820181905260248201527f537472696e67733a20686578206c656e67746820696e73756666696369656e746044820152606401610c73565b6001600160a01b0382166136a95760405162461bcd60e51b815260206004820152602160248201527f45524332303a206275726e2066726f6d20746865207a65726f206164647265736044820152607360f81b6064820152608401610c73565b6136b582600083612e53565b6001600160a01b038216600090815260208190526040902054818110156137295760405162461bcd60e51b815260206004820152602260248201527f45524332303a206275726e20616d6f756e7420657863656564732062616c616e604482015261636560f01b6064820152608401610c73565b6001600160a01b0383166000818152602081815260408083208686039055600280548790039055518581529192917fddf252ad1be2c89b69c2b068fc378daa952ba7f163c4a11628f55a4df523b3ef910160405180910390a3610bf383600084612e5b565b825460009081908181156137db5760008781526020902082016000190160408051808201909152905463ffffffff8116825264010000000090046001600160e01b031660208201526137f0565b60408051808201909152600080825260208201525b905080602001516001600160e01b0316935061381084868863ffffffff16565b925060008211801561383a57506138256111f8565b65ffffffffffff16816000015163ffffffff16145b1561387f5761384883613ae9565b60008881526020902083016000190180546001600160e01b03929092166401000000000263ffffffff9092169190911790556138f9565b8660405180604001604052806138a36138966111f8565b65ffffffffffff16612b08565b63ffffffff1681526020016138b786613ae9565b6001600160e01b0390811690915282546001810184556000938452602093849020835194909301519091166401000000000263ffffffff909316929092179101555b5050935093915050565b6001600160a01b03838116600090815260096020526040808220548584168352912054610bf392918216911683612fb2565b600080608083901c1561394a57608092831c92015b604083901c1561395c57604092831c92015b602083901c1561396e57602092831c92015b601083901c1561398057601092831c92015b600883901c1561399257600892831c92015b600483901c156139a457600492831c92015b600283901c156139b657600292831c92015b600183901c156109ee5760010192915050565b60008183106139d85781610d2a565b5090919050565b600060ff8216601f8111156109ee57604051632cd44ac360e21b815260040160405180910390fd5b6060612daa8484600085613b52565b6001600160a01b038216613a6c5760405162461bcd60e51b815260206004820152601f60248201527f45524332303a206d696e7420746f20746865207a65726f2061646472657373006044820152606401610c73565b613a7860008383612e53565b8060026000828254613a8a91906141dd565b90915550506001600160a01b038216600081815260208181526040808320805486019055518481527fddf252ad1be2c89b69c2b068fc378daa952ba7f163c4a11628f55a4df523b3ef910160405180910390a3610c8660008383612e5b565b60006001600160e01b03821115612b6d5760405162461bcd60e51b815260206004820152602760248201527f53616665436173743a2076616c756520646f65736e27742066697420696e20326044820152663234206269747360c81b6064820152608401610c73565b606082471015613bb35760405162461bcd60e51b815260206004820152602660248201527f416464726573733a20696e73756666696369656e742062616c616e636520666f6044820152651c8818d85b1b60d21b6064820152608401610c73565b600080866001600160a01b03168587604051613bcf9190614345565b60006040518083038185875af1925050503d8060008114613c0c576040519150601f19603f3d011682016040523d82523d6000602084013e613c11565b606091505b5091509150613c2287838387613c2d565b979650505050505050565b60608315613c9c578251600003613c95576001600160a01b0385163b613c955760405162461bcd60e51b815260206004820152601d60248201527f416464726573733a2063616c6c20746f206e6f6e2d636f6e74726163740000006044820152606401610c73565b5081612daa565b612daa8383815115613cb15781518083602001fd5b8060405162461bcd60e51b8152600401610c739190613d45565b600060208284031215613cdd57600080fd5b81356001600160e01b031981168114610d2a57600080fd5b60005b83811015613d10578181015183820152602001613cf8565b50506000910152565b60008151808452613d31816020860160208601613cf5565b601f01601f19169290920160200192915050565b602081526000610d2a6020830184613d19565b80356001600160a01b0381168114613d6f57600080fd5b919050565b60008060408385031215613d8757600080fd5b613d9083613d58565b946020939093013593505050565b634e487b7160e01b600052604160045260246000fd5b600080600060608486031215613dc957600080fd5b613dd284613d58565b925060208401359150604084013567ffffffffffffffff811115613df557600080fd5b8401601f81018613613e0657600080fd5b803567ffffffffffffffff811115613e2057613e20613d9e565b604051601f8201601f19908116603f0116810167ffffffffffffffff81118282101715613e4f57613e4f613d9e565b604052818152828201602001881015613e6757600080fd5b816020840160208301376000602083830101528093505050509250925092565b600080600060608486031215613e9c57600080fd5b613ea584613d58565b9250613eb360208501613d58565b929592945050506040919091013590565b600060208284031215613ed657600080fd5b5035919050565b60008060408385031215613ef057600080fd5b82359150613f0060208401613d58565b90509250929050565b600060208284031215613f1b57600080fd5b610d2a82613d58565b803560038110613d6f57600080fd5b600060208284031215613f4557600080fd5b610d2a82613f24565b60ff60f81b8816815260e060208201526000613f6d60e0830189613d19565b8281036040840152613f7f8189613d19565b606084018890526001600160a01b038716608085015260a0840186905283810360c08501528451808252602080870193509091019060005b81811015613fd5578351835260209384019390920191600101613fb7565b50909b9a5050505050505050505050565b60008060408385031215613ff957600080fd5b613d9083613f24565b60008060006060848603121561401757600080fd5b613ea584613f24565b803560ff81168114613d6f57600080fd5b60008060008060008060c0878903121561404a57600080fd5b61405387613d58565b9550602087013594506040870135935061406f60608801614020565b9598949750929560808101359460a0909101359350915050565b6000806040838503121561409c57600080fd5b6140a583613f24565b9150613f0060208401613d58565b600080600080600080600060e0888a0312156140ce57600080fd5b6140d788613d58565b96506140e560208901613d58565b9550604088013594506060880135935061410160808901614020565b9699959850939692959460a0840135945060c09093013592915050565b6000806040838503121561413157600080fd5b6140a583613d58565b6000806040838503121561414d57600080fd5b61415683613d58565b9150602083013563ffffffff8116811461416f57600080fd5b809150509250929050565b600181811c9082168061418e57607f821691505b60208210810361191c57634e487b7160e01b600052602260045260246000fd5b828152604060208201526000612daa6040830184613d19565b634e487b7160e01b600052601160045260246000fd5b808201808211156109ee576109ee6141c7565b634e487b7160e01b600052602160045260246000fd5b634e487b7160e01b600052603260045260246000fd5b818103818111156109ee576109ee6141c7565b80820281158282048414176109ee576109ee6141c7565b634e487b7160e01b600052601260045260246000fd5b60008261427957634e487b7160e01b600052601260045260246000fd5b500490565b600060018201614290576142906141c7565b5060010190565b7f416363657373436f6e74726f6c3a206163636f756e74200000000000000000008152600083516142cf816017850160208801613cf5565b7001034b99036b4b9b9b4b733903937b6329607d1b6017918401918201528351614300816028840160208801613cf5565b01602801949350505050565b60006020828403121561431e57600080fd5b81518015158114610d2a57600080fd5b60008161433d5761433d6141c7565b506000190190565b60008251614357818460208701613cf5565b919091019291505056feaa9060660dc3e52152ec6c4cd87f38f5433d3e2246058f23a29463ea3247681771840dc4906352362b0cdaf79870196c8e42acafade72d5d5a6d59291253ceb165d7a28e3265b37a6474929f336521b332c1681b933f6cb9f3376673440d862aa2646970667358221220ac960b9b88a277c8db2b6662737167b9b71993d54cfe7015ac0eb1f9a008620e64736f6c634300081c0033dec2bacdd2f05b59de34da9b523dff8be42e5e38e818c82fdb0bae774387a724",
  "linkReferences": {},
  "deployedLinkReferences": {}
}