{
  "_format": "hh-sol-artifact-1",
  "contractName": "EminarToken",
  "sourceName": "contracts/EMN/EMN.sol",
  "abi": [
    {
      "inputs": [
        {
          "internalType": "string",
          "name": "name_",
          "type": "string"
        },
        {
          "internalType": "string",
          "name": "symbol_",
          "type": "string"
        },
        {
          "internalType": "address",
          "name": "publicAddr_",
          "type": "address"
        },
        {
          "internalType": "address",
          "name": "reserveAddr_",
          "type": "address"
        },
        {
          "internalType": "address",
          "name": "devAddr_",
          "type": "address"
        },
        {
          "internalType": "address",
          "name": "shariaAddr_",
          "type": "address"
        },
        {
          "internalType": "address",
          "name": "strategicAddr_",
          "type": "address"
        },
        {
          "internalType": "address",
          "name": "governanceMultisig_",
          "type": "address"
        }
      ],
      "stateMutability": "nonpayable",
      "type": "constructor"
    },
    {
      "inputs": [],
      "name": "InvalidShortString",
      "type": "error"
    },
    {
      "inputs": [
        {
          "internalType": "string",
          "name": "str",
          "type": "string"
        }
      ],
      "name": "StringTooLong",
      "type": "error"
    },
    {
      "anonymous": false,
      "inputs": [
        {
          "indexed": true,
          "internalType": "address",
          "name": "owner",
          "type": "address"
        },
        {
          "indexed": true,
          "internalType": "address",
          "name": "spender",
          "type": "address"
        },
        {
          "indexed": false,
          "internalType": "uint256",
          "name": "value",
          "type": "uint256"
        }
      ],
      "name": "Approval",
      "type": "event"
    },
    {
      "anonymous": false,
      "inputs": [
        {
          "indexed": true,
          "internalType": "enum EminarToken.BackingAsset",
          "name": "asset",
          "type": "uint8"
        },
        {
          "indexed": false,
          "internalType": "uint256",
          "name": "priceUSD",
          "type": "uint256"
        }
      ],
      "name": "AssetPriceUpdated",
      "type": "event"
    },
    {
      "anonymous": false,
      "inputs": [
        {
          "indexed": true,
          "internalType": "enum EminarToken.BackingAsset",
          "name": "asset",
          "type": "uint8"
        },
        {
          "indexed": true,
          "internalType": "address",
          "name": "from",
          "type": "address"
        },
        {
          "indexed": false,
          "internalType": "uint256",
          "name": "amount",
          "type": "uint256"
        }
      ],
      "name": "BackingDeposited",
      "type": "event"
    },
    {
      "anonymous": false,
      "inputs": [
        {
          "indexed": true,
          "internalType": "enum EminarToken.BackingAsset",
          "name": "asset",
          "type": "uint8"
        },
        {
          "indexed": false,
          "internalType": "address",
          "name": "token",
          "type": "address"
        }
      ],
      "name": "BackingTokenRegistered",
      "type": "event"
    },
    {
      "anonymous": false,
      "inputs": [
        {
          "indexed": true,
          "internalType": "enum EminarToken.BackingAsset",
          "name": "asset",
          "type": "uint8"
        },
        {
          "indexed": true,
          "internalType": "address",
          "name": "to",
          "type": "address"
        },
        {
          "indexed": false,
          "internalType": "uint256",
          "name": "amount",
          "type": "uint256"
        }
      ],
      "name": "BackingWithdrawn",
      "type": "event"
    },
    {
      "anonymous": false,
      "inputs": [
        {
          "indexed": true,
          "internalType": "address",
          "name": "delegator",
          "type": "address"
        },
        {
          "indexed": true,
          "internalType": "address",
          "name": "fromDelegate",
          "type": "address"
        },
        {
          "indexed": true,
          "internalType": "address",
          "name": "toDelegate",
          "type": "address"
        }
      ],
      "name": "DelegateChanged",
      "type": "event"
    },
    {
      "anonymous": false,
      "inputs": [
        {
          "indexed": true,
          "internalType": "address",
          "name": "delegate",
          "type": "address"
        },
        {
          "indexed": false,
          "internalType": "uint256",
          "name": "previousBalance",
          "type": "uint256"
        },
        {
          "indexed": false,
          "internalType": "uint256",
          "name": "newBalance",
          "type": "uint256"
        }
      ],
      "name": "DelegateVotesChanged",
      "type": "event"
    },
    {
      "anonymous": false,
      "inputs": [],
      "name": "EIP712DomainChanged",
      "type": "event"
    },
    {
      "anonymous": false,
      "inputs": [
        {
          "indexed": false,
          "internalType": "address",
          "name": "account",
          "type": "address"
        }
      ],
      "name": "Paused",
      "type": "event"
    },
    {
      "anonymous": false,
      "inputs": [
        {
          "indexed": true,
          "internalType": "bytes32",
          "name": "role",
          "type": "bytes32"
        },
        {
          "indexed": true,
          "internalType": "bytes32",
          "name": "previousAdminRole",
          "type": "bytes32"
        },
        {
          "indexed": true,
          "internalType": "bytes32",
          "name": "newAdminRole",
          "type": "bytes32"
        }
      ],
      "name": "RoleAdminChanged",
      "type": "event"
    },
    {
      "anonymous": false,
      "inputs": [
        {
          "indexed": true,
          "internalType": "bytes32",
          "name": "role",
          "type": "bytes32"
        },
        {
          "indexed": true,
          "internalType": "address",
          "name": "account",
          "type": "address"
        },
        {
          "indexed": true,
          "internalType": "address",
          "name": "sender",
          "type": "address"
        }
      ],
      "name": "RoleGranted",
      "type": "event"
    },
    {
      "anonymous": false,
      "inputs": [
        {
          "indexed": true,
          "internalType": "bytes32",
          "name": "role",
          "type": "bytes32"
        },
        {
          "indexed": true,
          "internalType": "address",
          "name": "account",
          "type": "address"
        },
        {
          "indexed": true,
          "internalType": "address",
          "name": "sender",
          "type": "address"
        }
      ],
      "name": "RoleRevoked",
      "type": "event"
    },
    {
      "anonymous": false,
      "inputs": [
        {
          "indexed": true,
          "internalType": "address",
          "name": "from",
          "type": "address"
        },
        {
          "indexed": false,
          "internalType": "uint256",
          "name": "amount",
          "type": "uint256"
        },
        {
          "indexed": false,
          "internalType": "string",
          "name": "reason",
          "type": "string"
        }
      ],
      "name": "TokensBurned",
      "type": "event"
    },
    {
      "anonymous": false,
      "inputs": [
        {
          "indexed": true,
          "internalType": "address",
          "name": "to",
          "type": "address"
        },
        {
          "indexed": false,
          "internalType": "uint256",
          "name": "amount",
          "type": "uint256"
        },
        {
          "indexed": false,
          "internalType": "string",
          "name": "reason",
          "type": "string"
        }
      ],
      "name": "TokensMinted",
      "type": "event"
    },
    {
      "anonymous": false,
      "inputs": [
        {
          "indexed": true,
          "internalType": "address",
          "name": "from",
          "type": "address"
        },
        {
          "indexed": true,
          "internalType": "address",
          "name": "to",
          "type": "address"
        },
        {
          "indexed": false,
          "internalType": "uint256",
          "name": "value",
          "type": "uint256"
        }
      ],
      "name": "Transfer",
      "type": "event"
    },
    {
      "anonymous": false,
      "inputs": [
        {
          "indexed": false,
          "internalType": "address",
          "name": "account",
          "type": "address"
        }
      ],
      "name": "Unpaused",
      "type": "event"
    },
    {
      "inputs": [],
      "name": "BACKING_MANAGER_ROLE",
      "outputs": [
        {
          "internalType": "bytes32",
          "name": "",
          "type": "bytes32"
        }
      ],
      "stateMutability": "view",
      "type": "function"
    },
    {
      "inputs": [],
      "name": "BURNER_ROLE",
      "outputs": [
        {
          "internalType": "bytes32",
          "name": "",
          "type": "bytes32"
        }
      ],
      "stateMutability": "view",
      "type": "function"
    },
    {
      "inputs": [],
      "name": "CLOCK_MODE",
      "outputs": [
        {
          "internalType": "string",
          "name": "",
          "type": "string"
        }
      ],
      "stateMutability": "view",
      "type": "function"
    },
    {
      "inputs": [],
      "name": "DEFAULT_ADMIN_ROLE",
      "outputs": [
        {
          "internalType": "bytes32",
          "name": "",
          "type": "bytes32"
        }
      ],
      "stateMutability": "view",
      "type": "function"
    },
    {
      "inputs": [],
      "name": "DOMAIN_SEPARATOR",
      "outputs": [
        {
          "internalType": "bytes32",
          "name": "",
          "type": "bytes32"
        }
      ],
      "stateMutability": "view",
      "type": "function"
    },
    {
      "inputs": [],
      "name": "GOVERNANCE_ROLE",
      "outputs": [
        {
          "internalType": "bytes32",
          "name": "",
          "type": "bytes32"
        }
      ],
      "stateMutability": "view",
      "type": "function"
    },
    {
      "inputs": [],
      "name": "INITIAL_SUPPLY",
      "outputs": [
        {
          "internalType": "uint256",
          "name": "",
          "type": "uint256"
        }
      ],
      "stateMutability": "view",
      "type": "function"
    },
    {
      "inputs": [],
      "name": "MAX_SUPPLY",
      "outputs": [
        {
          "internalType": "uint256",
          "name": "",
          "type": "uint256"
        }
      ],
      "stateMutability": "view",
      "type": "function"
    },
    {
      "inputs": [],
      "name": "MINTER_ROLE",
      "outputs": [
        {
          "internalType": "bytes32",
          "name": "",
          "type": "bytes32"
        }
      ],
      "stateMutability": "view",
      "type": "function"
    },
    {
      "inputs": [],
      "name": "PAUSER_ROLE",
      "outputs": [
        {
          "internalType": "bytes32",
          "name": "",
          "type": "bytes32"
        }
      ],
      "stateMutability": "view",
      "type": "function"
    },
    {
      "inputs": [],
      "name": "RECOVERY_ROLE",
      "outputs": [
        {
          "internalType": "bytes32",
          "name": "",
          "type": "bytes32"
        }
      ],
      "stateMutability": "view",
      "type": "function"
    },
    {
      "inputs": [
        {
          "internalType": "address",
          "name": "owner",
          "type": "address"
        },
        {
          "internalType": "address",
          "name": "spender",
          "type": "address"
        }
      ],
      "name": "allowance",
      "outputs": [
        {
          "internalType": "uint256",
          "name": "",
          "type": "uint256"
        }
      ],
      "stateMutability": "view",
      "type": "function"
    },
    {
      "inputs": [
        {
          "internalType": "address",
          "name": "spender",
          "type": "address"
        },
        {
          "internalType": "uint256",
          "name": "amount",
          "type": "uint256"
        }
      ],
      "name": "approve",
      "outputs": [
        {
          "internalType": "bool",
          "name": "",
          "type": "bool"
        }
      ],
      "stateMutability": "nonpayable",
      "type": "function"
    },
    {
      "inputs": [],
      "name": "backingPerTokenUSD",
      "outputs": [
        {
          "internalType": "uint256",
          "name": "",
          "type": "uint256"
        }
      ],
      "stateMutability": "view",
      "type": "function"
    },
    {
      "inputs": [
        {
          "internalType": "address",
          "name": "account",
          "type": "address"
        }
      ],
      "name": "balanceOf",
      "outputs": [
        {
          "internalType": "uint256",
          "name": "",
          "type": "uint256"
        }
      ],
      "stateMutability": "view",
      "type": "function"
    },
    {
      "inputs": [
        {
          "internalType": "address",
          "name": "from",
          "type": "address"
        },
        {
          "internalType": "uint256",
          "name": "amount",
          "type": "uint256"
        },
        {
          "internalType": "string",
          "name": "reason",
          "type": "string"
        }
      ],
      "name": "burn",
      "outputs": [],
      "stateMutability": "nonpayable",
      "type": "function"
    },
    {
      "inputs": [
        {
          "internalType": "uint256",
          "name": "amount",
          "type": "uint256"
        },
        {
          "internalType": "string",
          "name": "reason",
          "type": "string"
        }
      ],
      "name": "burnMyTokens",
      "outputs": [],
      "stateMutability": "nonpayable",
      "type": "function"
    },
    {
      "inputs": [
        {
          "internalType": "address",
          "name": "account",
          "type": "address"
        },
        {
          "internalType": "uint32",
          "name": "pos",
          "type": "uint32"
        }
      ],
      "name": "checkpoints",
      "outputs": [
        {
          "components": [
            {
              "internalType": "uint32",
              "name": "fromBlock",
              "type": "uint32"
            },
            {
              "internalType": "uint224",
              "name": "votes",
              "type": "uint224"
            }
          ],
          "internalType": "struct ERC20Votes.Checkpoint",
          "name": "",
          "type": "tuple"
        }
      ],
      "stateMutability": "view",
      "type": "function"
    },
    {
      "inputs": [],
      "name": "clock",
      "outputs": [
        {
          "internalType": "uint48",
          "name": "",
          "type": "uint48"
        }
      ],
      "stateMutability": "view",
      "type": "function"
    },
    {
      "inputs": [],
      "name": "decimals",
      "outputs": [
        {
          "internalType": "uint8",
          "name": "",
          "type": "uint8"
        }
      ],
      "stateMutability": "pure",
      "type": "function"
    },
    {
      "inputs": [
        {
          "internalType": "address",
          "name": "spender",
          "type": "address"
        },
        {
          "internalType": "uint256",
          "name": "subtractedValue",
          "type": "uint256"
        }
      ],
      "name": "decreaseAllowance",
      "outputs": [
        {
          "internalType": "bool",
          "name": "",
          "type": "bool"
        }
      ],
      "stateMutability": "nonpayable",
      "type": "function"
    },
    {
      "inputs": [
        {
          "internalType": "address",
          "name": "delegatee",
          "type": "address"
        }
      ],
      "name": "delegate",
      "outputs": [],
      "stateMutability": "nonpayable",
      "type": "function"
    },
    {
      "inputs": [
        {
          "internalType": "address",
          "name": "delegatee",
          "type": "address"
        },
        {
          "internalType": "uint256",
          "name": "nonce",
          "type": "uint256"
        },
        {
          "internalType": "uint256",
          "name": "expiry",
          "type": "uint256"
        },
        {
          "internalType": "uint8",
          "name": "v",
          "type": "uint8"
        },
        {
          "internalType": "bytes32",
          "name": "r",
          "type": "bytes32"
        },
        {
          "internalType": "bytes32",
          "name": "s",
          "type": "bytes32"
        }
      ],
      "name": "delegateBySig",
      "outputs": [],
      "stateMutability": "nonpayable",
      "type": "function"
    },
    {
      "inputs": [
        {
          "internalType": "address",
          "name": "account",
          "type": "address"
        }
      ],
      "name": "delegates",
      "outputs": [
        {
          "internalType": "address",
          "name": "",
          "type": "address"
        }
      ],
      "stateMutability": "view",
      "type": "function"
    },
    {
      "inputs": [
        {
          "internalType": "enum EminarToken.BackingAsset",
          "name": "asset",
          "type": "uint8"
        },
        {
          "internalType": "uint256",
          "name": "amount",
          "type": "uint256"
        }
      ],
      "name": "depositBacking",
      "outputs": [],
      "stateMutability": "nonpayable",
      "type": "function"
    },
    {
      "inputs": [],
      "name": "developmentAddress",
      "outputs": [
        {
          "internalType": "address",
          "name": "",
          "type": "address"
        }
      ],
      "stateMutability": "view",
      "type": "function"
    },
    {
      "inputs": [],
      "name": "eip712Domain",
      "outputs": [
        {
          "internalType": "bytes1",
          "name": "fields",
          "type": "bytes1"
        },
        {
          "internalType": "string",
          "name": "name",
          "type": "string"
        },
        {
          "internalType": "string",
          "name": "version",
          "type": "string"
        },
        {
          "internalType": "uint256",
          "name": "chainId",
          "type": "uint256"
        },
        {
          "internalType": "address",
          "name": "verifyingContract",
          "type": "address"
        },
        {
          "internalType": "bytes32",
          "name": "salt",
          "type": "bytes32"
        },
        {
          "internalType": "uint256[]",
          "name": "extensions",
          "type": "uint256[]"
        }
      ],
      "stateMutability": "view",
      "type": "function"
    },
    {
      "inputs": [
        {
          "internalType": "address",
          "name": "token",
          "type": "address"
        },
        {
          "internalType": "address",
          "name": "to",
          "type": "address"
        },
        {
          "internalType": "uint256",
          "name": "amount",
          "type": "uint256"
        }
      ],
      "name": "emergencyRecoverERC20",
      "outputs": [],
      "stateMutability": "nonpayable",
      "type": "function"
    },
    {
      "inputs": [
        {
          "internalType": "enum EminarToken.BackingAsset",
          "name": "asset",
          "type": "uint8"
        }
      ],
      "name": "getAssetInfo",
      "outputs": [
        {
          "components": [
            {
              "internalType": "contract IERC20",
              "name": "token",
              "type": "address"
            },
            {
              "internalType": "uint256",
              "name": "amount",
              "type": "uint256"
            },
            {
              "internalType": "uint256",
              "name": "priceUSD",
              "type": "uint256"
            },
            {
              "internalType": "bool",
              "name": "registered",
              "type": "bool"
            }
          ],
          "internalType": "struct EminarToken.AssetInfo",
          "name": "",
          "type": "tuple"
        }
      ],
      "stateMutability": "view",
      "type": "function"
    },
    {
      "inputs": [
        {
          "internalType": "uint256",
          "name": "timepoint",
          "type": "uint256"
        }
      ],
      "name": "getPastTotalSupply",
      "outputs": [
        {
          "internalType": "uint256",
          "name": "",
          "type": "uint256"
        }
      ],
      "stateMutability": "view",
      "type": "function"
    },
    {
      "inputs": [
        {
          "internalType": "address",
          "name": "account",
          "type": "address"
        },
        {
          "internalType": "uint256",
          "name": "timepoint",
          "type": "uint256"
        }
      ],
      "name": "getPastVotes",
      "outputs": [
        {
          "internalType": "uint256",
          "name": "",
          "type": "uint256"
        }
      ],
      "stateMutability": "view",
      "type": "function"
    },
    {
      "inputs": [
        {
          "internalType": "bytes32",
          "name": "role",
          "type": "bytes32"
        }
      ],
      "name": "getRoleAdmin",
      "outputs": [
        {
          "internalType": "bytes32",
          "name": "",
          "type": "bytes32"
        }
      ],
      "stateMutability": "view",
      "type": "function"
    },
    {
      "inputs": [
        {
          "internalType": "address",
          "name": "account",
          "type": "address"
        }
      ],
      "name": "getVotes",
      "outputs": [
        {
          "internalType": "uint256",
          "name": "",
          "type": "uint256"
        }
      ],
      "stateMutability": "view",
      "type": "function"
    },
    {
      "inputs": [
        {
          "internalType": "bytes32",
          "name": "role",
          "type": "bytes32"
        },
        {
          "internalType": "address",
          "name": "account",
          "type": "address"
        }
      ],
      "name": "grantRole",
      "outputs": [],
      "stateMutability": "nonpayable",
      "type": "function"
    },
    {
      "inputs": [
        {
          "internalType": "bytes32",
          "name": "role",
          "type": "bytes32"
        },
        {
          "internalType": "address",
          "name": "account",
          "type": "address"
        }
      ],
      "name": "hasRole",
      "outputs": [
        {
          "internalType": "bool",
          "name": "",
          "type": "bool"
        }
      ],
      "stateMutability": "view",
      "type": "function"
    },
    {
      "inputs": [
        {
          "internalType": "address",
          "name": "spender",
          "type": "address"
        },
        {
          "internalType": "uint256",
          "name": "addedValue",
          "type": "uint256"
        }
      ],
      "name": "increaseAllowance",
      "outputs": [
        {
          "internalType": "bool",
          "name": "",
          "type": "bool"
        }
      ],
      "stateMutability": "nonpayable",
      "type": "function"
    },
    {
      "inputs": [
        {
          "internalType": "address",
          "name": "to",
          "type": "address"
        },
        {
          "internalType": "uint256",
          "name": "amount",
          "type": "uint256"
        },
        {
          "internalType": "string",
          "name": "reason",
          "type": "string"
        }
      ],
      "name": "mint",
      "outputs": [],
      "stateMutability": "nonpayable",
      "type": "function"
    },
    {
      "inputs": [],
      "name": "name",
      "outputs": [
        {
          "internalType": "string",
          "name": "",
          "type": "string"
        }
      ],
      "stateMutability": "view",
      "type": "function"
    },
    {
      "inputs": [
        {
          "internalType": "address",
          "name": "owner",
          "type": "address"
        }
      ],
      "name": "nonces",
      "outputs": [
        {
          "internalType": "uint256",
          "name": "",
          "type": "uint256"
        }
      ],
      "stateMutability": "view",
      "type": "function"
    },
    {
      "inputs": [
        {
          "internalType": "address",
          "name": "account",
          "type": "address"
        }
      ],
      "name": "numCheckpoints",
      "outputs": [
        {
          "internalType": "uint32",
          "name": "",
          "type": "uint32"
        }
      ],
      "stateMutability": "view",
      "type": "function"
    },
    {
      "inputs": [],
      "name": "pause",
      "outputs": [],
      "stateMutability": "nonpayable",
      "type": "function"
    },
    {
      "inputs": [],
      "name": "paused",
      "outputs": [
        {
          "internalType": "bool",
          "name": "",
          "type": "bool"
        }
      ],
      "stateMutability": "view",
      "type": "function"
    },
    {
      "inputs": [
        {
          "internalType": "address",
          "name": "owner",
          "type": "address"
        },
        {
          "internalType": "address",
          "name": "spender",
          "type": "address"
        },
        {
          "internalType": "uint256",
          "name": "value",
          "type": "uint256"
        },
        {
          "internalType": "uint256",
          "name": "deadline",
          "type": "uint256"
        },
        {
          "internalType": "uint8",
          "name": "v",
          "type": "uint8"
        },
        {
          "internalType": "bytes32",
          "name": "r",
          "type": "bytes32"
        },
        {
          "internalType": "bytes32",
          "name": "s",
          "type": "bytes32"
        }
      ],
      "name": "permit",
      "outputs": [],
      "stateMutability": "nonpayable",
      "type": "function"
    },
    {
      "inputs": [],
      "name": "publicAddress",
      "outputs": [
        {
          "internalType": "address",
          "name": "",
          "type": "address"
        }
      ],
      "stateMutability": "view",
      "type": "function"
    },
    {
      "inputs": [
        {
          "internalType": "enum EminarToken.BackingAsset",
          "name": "asset",
          "type": "uint8"
        },
        {
          "internalType": "address",
          "name": "token",
          "type": "address"
        }
      ],
      "name": "registerBackingToken",
      "outputs": [],
      "stateMutability": "nonpayable",
      "type": "function"
    },
    {
      "inputs": [
        {
          "internalType": "bytes32",
          "name": "role",
          "type": "bytes32"
        },
        {
          "internalType": "address",
          "name": "account",
          "type": "address"
        }
      ],
      "name": "renounceRole",
      "outputs": [],
      "stateMutability": "nonpayable",
      "type": "function"
    },
    {
      "inputs": [],
      "name": "reserveAddress",
      "outputs": [
        {
          "internalType": "address",
          "name": "",
          "type": "address"
        }
      ],
      "stateMutability": "view",
      "type": "function"
    },
    {
      "inputs": [
        {
          "internalType": "bytes32",
          "name": "role",
          "type": "bytes32"
        },
        {
          "internalType": "address",
          "name": "account",
          "type": "address"
        }
      ],
      "name": "revokeRole",
      "outputs": [],
      "stateMutability": "nonpayable",
      "type": "function"
    },
    {
      "inputs": [
        {
          "internalType": "enum EminarToken.BackingAsset",
          "name": "asset",
          "type": "uint8"
        },
        {
          "internalType": "uint256",
          "name": "priceUSD",
          "type": "uint256"
        }
      ],
      "name": "setAssetPriceUSD",
      "outputs": [],
      "stateMutability": "nonpayable",
      "type": "function"
    },
    {
      "inputs": [],
      "name": "shariaTrustAddress",
      "outputs": [
        {
          "internalType": "address",
          "name": "",
          "type": "address"
        }
      ],
      "stateMutability": "view",
      "type": "function"
    },
    {
      "inputs": [],
      "name": "strategicPartnersAddress",
      "outputs": [
        {
          "internalType": "address",
          "name": "",
          "type": "address"
        }
      ],
      "stateMutability": "view",
      "type": "function"
    },
    {
      "inputs": [
        {
          "internalType": "bytes4",
          "name": "interfaceId",
          "type": "bytes4"
        }
      ],
      "name": "supportsInterface",
      "outputs": [
        {
          "internalType": "bool",
          "name": "",
          "type": "bool"
        }
      ],
      "stateMutability": "view",
      "type": "function"
    },
    {
      "inputs": [],
      "name": "symbol",
      "outputs": [
        {
          "internalType": "string",
          "name": "",
          "type": "string"
        }
      ],
      "stateMutability": "view",
      "type": "function"
    },
    {
      "inputs": [],
      "name": "totalBackingValueUSD",
      "outputs": [
        {
          "internalType": "uint256",
          "name": "",
          "type": "uint256"
        }
      ],
      "stateMutability": "view",
      "type": "function"
    },
    {
      "inputs": [],
      "name": "totalSupply",
      "outputs": [
        {
          "internalType": "uint256",
          "name": "",
          "type": "uint256"
        }
      ],
      "stateMutability": "view",
      "type": "function"
    },
    {
      "inputs": [
        {
          "internalType": "address",
          "name": "to",
          "type": "address"
        },
        {
          "internalType": "uint256",
          "name": "amount",
          "type": "uint256"
        }
      ],
      "name": "transfer",
      "outputs": [
        {
          "internalType": "bool",
          "name": "",
          "type": "bool"
        }
      ],
      "stateMutability": "nonpayable",
      "type": "function"
    },
    {
      "inputs": [
        {
          "internalType": "address",
          "name": "from",
          "type": "address"
        },
        {
          "internalType": "address",
          "name": "to",
          "type": "address"
        },
        {
          "internalType": "uint256",
          "name": "amount",
          "type": "uint256"
        }
      ],
      "name": "transferFrom",
      "outputs": [
        {
          "internalType": "bool",
          "name": "",
          "type": "bool"
        }
      ],
      "stateMutability": "nonpayable",
      "type": "function"
    },
    {
      "inputs": [],
      "name": "unpause",
      "outputs": [],
      "stateMutability": "nonpayable",
      "type": "function"
    },
    {
      "inputs": [
        {
          "internalType": "enum EminarToken.BackingAsset",
          "name": "asset",
          "type": "uint8"
        },
        {
          "internalType": "address",
          "name": "to",
          "type": "address"
        },
        {
          "internalType": "uint256",
          "name": "amount",
          "type": "uint256"
        }
      ],
      "name": "withdrawBacking",
      "outputs": [],
      "stateMutability": "nonpayable",
      "type": "function"
    }
  ],
  "bytecode": "0x61016060405234801561001157600080fd5b50604051614f46380380614f4683398101604081905261003091610c27565b6040805180820190915260018152603160f81b602082015288908190818a600361005a8382610d7c565b5060046100678282610d7c565b5061007791508390506005610404565b61012052610086816006610404565b61014052815160208084019190912060e052815190820120610100524660a05261011360e05161010051604080517f8b73c3c69bb8fe3d512ecc4cf759cc79239f7b179b0ffacaa9a75d522b39400f60208201529081019290925260608201524660808201523060a082015260009060c00160405160208183030381529060405280519060200120905090565b60805250503060c05250600d805460ff191690556001600160a01b0386161580159061014757506001600160a01b03851615155b801561015b57506001600160a01b03841615155b801561016f57506001600160a01b03831615155b801561018357506001600160a01b03821615155b6101c35760405162461bcd60e51b815260206004820152600c60248201526b7a65726f206164647265737360a01b60448201526064015b60405180910390fd5b601380546001600160a01b03199081166001600160a01b0389811691909117909255600f8054821688841617905560108054821687841617905560118054821686841617905560128054909116918416919091179055610224600033610437565b61024e7f9f2df0fed2c77648de5860a4cc508cd0818c85b8b8a1ab4ceeef8d981c8956a633610437565b6102787f3c11d16cbaffd01df69ce1c404f6340ee057498f5f00246190ea54220576a84833610437565b6102a27f65d7a28e3265b37a6474929f336521b332c1681b933f6cb9f3376673440d862a33610437565b6102cc7faa9060660dc3e52152ec6c4cd87f38f5433d3e2246058f23a29463ea3247681733610437565b6102f67f71840dc4906352362b0cdaf79870196c8e42acafade72d5d5a6d59291253ceb182610437565b6103207f0acf805600123ef007091da3b3ffb39474074c656c127aa68cb0ffec232a8ff833610437565b601354610357906001600160a01b031660646103486a52b7d2dcc80cd2e40000006028610e50565b6103529190610e67565b6104da565b600f5461037f906001600160a01b031660646103486a52b7d2dcc80cd2e40000006014610e50565b6010546103a7906001600160a01b031660646103486a52b7d2dcc80cd2e40000006014610e50565b6011546103cf906001600160a01b031660646103486a52b7d2dcc80cd2e4000000600a610e50565b6012546103f7906001600160a01b031660646103486a52b7d2dcc80cd2e4000000600a610e50565b5050505050505050610f06565b600060208351101561042057610419836104e4565b9050610431565b8161042b8482610d7c565b5060ff90505b92915050565b6000828152600c602090815260408083206001600160a01b038516845290915290205460ff166104d6576000828152600c602090815260408083206001600160a01b03851684529091529020805460ff191660011790556104953390565b6001600160a01b0316816001600160a01b0316837f2f8788117e7eff1d82e926ec794901d17c78024a50270940304540a733656f0d60405160405180910390a45b5050565b6104d68282610522565b600080829050601f8151111561050f578260405163305a27a960e01b81526004016101ba9190610e89565b805161051a82610ebc565b179392505050565b61052c82826105c0565b6001600160e01b0361053e6106938216565b11156105a55760405162461bcd60e51b815260206004820152603060248201527f4552433230566f7465733a20746f74616c20737570706c79207269736b73206f60448201526f766572666c6f77696e6720766f74657360801b60648201526084016101ba565b6105ba600b611f2461069960201b17836106ac565b50505050565b6001600160a01b0382166106165760405162461bcd60e51b815260206004820152601f60248201527f45524332303a206d696e7420746f20746865207a65726f20616464726573730060448201526064016101ba565b61062260008383610824565b80600260008282546106349190610ee0565b90915550506001600160a01b038216600081815260208181526040808320805486019055518481527fddf252ad1be2c89b69c2b068fc378daa952ba7f163c4a11628f55a4df523b3ef910160405180910390a36104d660008383610843565b60025490565b60006106a58284610ee0565b9392505050565b825460009081908181156106f95760008781526020902082016000190160408051808201909152905463ffffffff8116825264010000000090046001600160e01b0316602082015261070e565b60408051808201909152600080825260208201525b905080602001516001600160e01b0316935061072b84868860201c565b9250600082118015610755575061074061084e565b65ffffffffffff16816000015163ffffffff16145b1561079a576107638361085e565b60008881526020902083016000190180546001600160e01b03929092166401000000000263ffffffff90921691909117905561081a565b8660405180604001604052806107c46107b761084e60201b60201c565b65ffffffffffff166108cb565b63ffffffff1681526020016107d88661085e565b6001600160e01b0390811690915282546001810184556000938452602093849020835194909301519091166401000000000263ffffffff909316929092179101555b5050935093915050565b61082c610930565b61083e8383836001600160e01b038416565b505050565b61083e838383610978565b6000610859436109aa565b905090565b60006001600160e01b038211156108c75760405162461bcd60e51b815260206004820152602760248201527f53616665436173743a2076616c756520646f65736e27742066697420696e20326044820152663234206269747360c81b60648201526084016101ba565b5090565b600063ffffffff8211156108c75760405162461bcd60e51b815260206004820152602660248201527f53616665436173743a2076616c756520646f65736e27742066697420696e203360448201526532206269747360d01b60648201526084016101ba565b600d5460ff16156109765760405162461bcd60e51b815260206004820152601060248201526f14185d5cd8589b194e881c185d5cd95960821b60448201526064016101ba565b565b6001600160a01b0383811660009081526009602052604080822054858416835291205461083e92918216911683610a11565b600065ffffffffffff8211156108c75760405162461bcd60e51b815260206004820152602660248201527f53616665436173743a2076616c756520646f65736e27742066697420696e203460448201526538206269747360d01b60648201526084016101ba565b816001600160a01b0316836001600160a01b031614158015610a335750600081115b1561083e576001600160a01b03831615610ab8576001600160a01b0383166000908152600a6020908152604082208291610a779190610b3c901b611f3017856106ac565b91509150846001600160a01b0316600080516020614f268339815191528383604051610aad929190918252602082015260400190565b60405180910390a250505b6001600160a01b0382161561083e576001600160a01b0382166000908152600a6020908152604082208291610af79190610699901b611f2417856106ac565b91509150836001600160a01b0316600080516020614f268339815191528383604051610b2d929190918252602082015260400190565b60405180910390a25050505050565b60006106a58284610ef3565b634e487b7160e01b600052604160045260246000fd5b60005b83811015610b79578181015183820152602001610b61565b50506000910152565b600082601f830112610b9357600080fd5b81516001600160401b03811115610bac57610bac610b48565b604051601f8201601f19908116603f011681016001600160401b0381118282101715610bda57610bda610b48565b604052818152838201602001851015610bf257600080fd5b610c03826020830160208701610b5e565b949350505050565b80516001600160a01b0381168114610c2257600080fd5b919050565b600080600080600080600080610100898b031215610c4457600080fd5b88516001600160401b03811115610c5a57600080fd5b610c668b828c01610b82565b60208b015190995090506001600160401b03811115610c8457600080fd5b610c908b828c01610b82565b975050610c9f60408a01610c0b565b9550610cad60608a01610c0b565b9450610cbb60808a01610c0b565b9350610cc960a08a01610c0b565b9250610cd760c08a01610c0b565b9150610ce560e08a01610c0b565b90509295985092959890939650565b600181811c90821680610d0857607f821691505b602082108103610d2857634e487b7160e01b600052602260045260246000fd5b50919050565b601f82111561083e57806000526020600020601f840160051c81016020851015610d555750805b601f840160051c820191505b81811015610d755760008155600101610d61565b5050505050565b81516001600160401b03811115610d9557610d95610b48565b610da981610da38454610cf4565b84610d2e565b6020601f821160018114610ddd5760008315610dc55750848201515b600019600385901b1c1916600184901b178455610d75565b600084815260208120601f198516915b82811015610e0d5787850151825560209485019460019092019101610ded565b5084821015610e2b5786840151600019600387901b60f8161c191681555b50505050600190811b01905550565b634e487b7160e01b600052601160045260246000fd5b808202811582820484141761043157610431610e3a565b600082610e8457634e487b7160e01b600052601260045260246000fd5b500490565b6020815260008251806020840152610ea8816040850160208701610b5e565b601f01601f19169190910160400192915050565b80516020808301519190811015610d285760001960209190910360031b1b16919050565b8082018082111561043157610431610e3a565b8181038181111561043157610431610e3a565b60805160a05160c05160e051610100516101205161014051613fc6610f606000396000610e4701526000610e1c015260006124450152600061241d01526000612378015260006123a2015260006123cc0152613fc66000f3fe608060405234801561001057600080fd5b50600436106103995760003560e01c806384b0196e116101e9578063c8c7fe6b1161010f578063e07495e3116100ad578063f36c8f5c1161007c578063f36c8f5c146108a4578063f676f331146108cb578063f79ed94b146108de578063fe64c681146108f157600080fd5b8063e07495e31461081a578063e63ab1e91461082d578063eb8f4c4a14610854578063f1127ed81461086757600080fd5b8063d5391393116100e9578063d5391393146107c5578063d547741f146107ec578063dd62ed3e146107ff578063dfef15b81461081257600080fd5b8063c8c7fe6b1461074e578063d3fc98641461079f578063d505accf146107b257600080fd5b8063a217fddf11610187578063a978d8df11610156578063a978d8df1461070d578063ae621bbe14610720578063c3cda52014610728578063c69def0b1461073b57600080fd5b8063a217fddf146106cc578063a34cea08146106d4578063a457c2d7146106e7578063a9059cbb146106fa57600080fd5b806391ddadf4116101c357806391ddadf41461067f57806391ee2a3d1461069e57806395d89b41146106b15780639ab24eb0146106b957600080fd5b806384b0196e1461063e5780638e539e8c1461065957806391d148541461066c57600080fd5b80633644e515116102ce5780635c19a95c1161026c5780636fcfff451161023b5780636fcfff45146105d257806370a08231146105fa5780637ecebe00146106235780638456cb591461063657600080fd5b80635c19a95c1461058e5780635c975abb146105a1578063626c3d43146105ac578063638b1b14146105bf57600080fd5b80633a46b1a8116102a85780633a46b1a8146105275780633f4ba83a1461053a5780634bf5d7e914610542578063587cde1e1461054a57600080fd5b80633644e515146104f957806336568abe14610501578063395093511461051457600080fd5b8063248a9ca31161033b5780632ff2e9dc116103155780632ff2e9dc1461049e578063313ce567146104b057806331993a1c146104bf57806332cb6b0c146104e657600080fd5b8063248a9ca314610441578063282c51f3146104645780632f2ff15d1461048b57600080fd5b806315e98e731161037757806315e98e73146103ee57806315f570dc1461041157806318160ddd1461042657806323b872dd1461042e57600080fd5b806301ffc9a71461039e57806306fdde03146103c6578063095ea7b3146103db575b600080fd5b6103b16103ac366004613874565b610904565b60405190151581526020015b60405180910390f35b6103ce61093b565b6040516103bd91906138ee565b6103b16103e936600461391d565b6109cd565b610403600080516020613f7183398151915281565b6040519081526020016103bd565b61042461041f3660046139ec565b6109e5565b005b600254610403565b6103b161043c366004613a43565b610b43565b61040361044f366004613a80565b6000908152600c602052604090206001015490565b6104037f3c11d16cbaffd01df69ce1c404f6340ee057498f5f00246190ea54220576a84881565b610424610499366004613a99565b610b67565b6104036a52b7d2dcc80cd2e400000081565b604051601281526020016103bd565b6104037f0acf805600123ef007091da3b3ffb39474074c656c127aa68cb0ffec232a8ff881565b6104036b033b2e3c9fd0803ce800000081565b610403610b91565b61042461050f366004613a99565b610ba0565b6103b161052236600461391d565b610c1e565b61040361053536600461391d565b610c40565b610424610cc5565b6103ce610cfa565b610576610558366004613ac5565b6001600160a01b039081166000908152600960205260409020541690565b6040516001600160a01b0390911681526020016103bd565b61042461059c366004613ac5565b610d92565b600d5460ff166103b1565b601254610576906001600160a01b031681565b601054610576906001600160a01b031681565b6105e56105e0366004613ac5565b610d9c565b60405163ffffffff90911681526020016103bd565b610403610608366004613ac5565b6001600160a01b031660009081526020819052604090205490565b610403610631366004613ac5565b610dbe565b610424610ddc565b610646610e0e565b6040516103bd9796959493929190613ae0565b610403610667366004613a80565b610e97565b6103b161067a366004613a99565b610efe565b610687610f29565b60405165ffffffffffff90911681526020016103bd565b6104246106ac366004613b87565b610f34565b6103ce6110b8565b6104036106c7366004613ac5565b6110c7565b610403600081565b6104246106e2366004613ba3565b611149565b6103b16106f536600461391d565b611335565b6103b161070836600461391d565b6113b0565b61042461071b366004613b87565b6113be565b6104036114df565b610424610736366004613bd2565b6116e7565b610424610749366004613c2a565b61181d565b61076161075c366004613c54565b61196b565b6040516103bd919081516001600160a01b03168152602080830151908201526040808301519082015260609182015115159181019190915260800190565b6104246107ad3660046139ec565b611a0a565b6104246107c0366004613c6f565b611b52565b6104037f9f2df0fed2c77648de5860a4cc508cd0818c85b8b8a1ab4ceeef8d981c8956a681565b6104246107fa366004613a99565b611cb6565b61040361080d366004613cda565b611cdb565b610403611d06565b610424610828366004613cf6565b611d48565b6104037f65d7a28e3265b37a6474929f336521b332c1681b933f6cb9f3376673440d862a81565b610424610862366004613a43565b611e17565b61087a610875366004613d3d565b611ea0565b60408051825163ffffffff1681526020928301516001600160e01b031692810192909252016103bd565b6104037f71840dc4906352362b0cdaf79870196c8e42acafade72d5d5a6d59291253ceb181565b601354610576906001600160a01b031681565b600f54610576906001600160a01b031681565b601154610576906001600160a01b031681565b60006001600160e01b03198216637965db0b60e01b148061093557506301ffc9a760e01b6001600160e01b03198316145b92915050565b60606003805461094a90613d7d565b80601f016020809104026020016040519081016040528092919081815260200182805461097690613d7d565b80156109c35780601f10610998576101008083540402835291602001916109c3565b820191906000526020600020905b8154815290600101906020018083116109a657829003601f168201915b5050505050905090565b6000336109db818585611f3c565b5060019392505050565b7f3c11d16cbaffd01df69ce1c404f6340ee057498f5f00246190ea54220576a848610a0f81612060565b610a1761206a565b6001600160a01b038416610a6b5760405162461bcd60e51b81526020600482015260166024820152756275726e2066726f6d207a65726f206164647265737360501b60448201526064015b60405180910390fd5b60008311610a8b5760405162461bcd60e51b8152600401610a6290613db1565b82610aab856001600160a01b031660009081526020819052604090205490565b1015610af05760405162461bcd60e51b8152602060048201526014602482015273696e73756666696369656e742062616c616e636560601b6044820152606401610a62565b610afa84846120b2565b836001600160a01b03167ffad31924d655455395c87544c8aa1ffdb5a7505a22a3c2e03f28003b6556a75f8484604051610b35929190613dd6565b60405180910390a250505050565b600033610b518582856120bc565b610b5c858585612130565b506001949350505050565b6000828152600c6020526040902060010154610b8281612060565b610b8c83836122e5565b505050565b6000610b9b61236b565b905090565b6001600160a01b0381163314610c105760405162461bcd60e51b815260206004820152602f60248201527f416363657373436f6e74726f6c3a2063616e206f6e6c792072656e6f756e636560448201526e103937b632b9903337b91039b2b63360891b6064820152608401610a62565b610c1a8282612496565b5050565b6000336109db818585610c318383611cdb565b610c3b9190613e05565b611f3c565b6000610c4a610f29565b65ffffffffffff168210610c9c5760405162461bcd60e51b815260206004820152601960248201527804552433230566f7465733a20667574757265206c6f6f6b757603c1b6044820152606401610a62565b6001600160a01b0383166000908152600a60205260409020610cbe90836124fd565b9392505050565b7f65d7a28e3265b37a6474929f336521b332c1681b933f6cb9f3376673440d862a610cef81612060565b610cf76125e6565b50565b606043610d05610f29565b65ffffffffffff1614610d5a5760405162461bcd60e51b815260206004820152601d60248201527f4552433230566f7465733a2062726f6b656e20636c6f636b206d6f64650000006044820152606401610a62565b5060408051808201909152601d81527f6d6f64653d626c6f636b6e756d6265722666726f6d3d64656661756c74000000602082015290565b610cf73382612638565b6001600160a01b0381166000908152600a6020526040812054610935906126b1565b6001600160a01b038116600090815260076020526040812054610935565b7f65d7a28e3265b37a6474929f336521b332c1681b933f6cb9f3376673440d862a610e0681612060565b610cf761271a565b600060608082808083610e427f00000000000000000000000000000000000000000000000000000000000000006005612757565b610e6d7f00000000000000000000000000000000000000000000000000000000000000006006612757565b60408051600080825260208201909252600f60f81b9b939a50919850469750309650945092509050565b6000610ea1610f29565b65ffffffffffff168210610ef35760405162461bcd60e51b815260206004820152601960248201527804552433230566f7465733a20667574757265206c6f6f6b757603c1b6044820152606401610a62565b610935600b836124fd565b6000918252600c602090815260408084206001600160a01b0393909316845291905290205460ff1690565b6000610b9b43612802565b610f3c61206a565b600e6000836002811115610f5257610f52613e18565b6002811115610f6357610f63613e18565b815260208101919091526040016000206003015460ff16610fbd5760405162461bcd60e51b8152602060048201526014602482015273185cdcd95d081b9bdd081c9959da5cdd195c995960621b6044820152606401610a62565b60008111610fdd5760405162461bcd60e51b8152600401610a6290613db1565b61102c333083600e6000876002811115610ff957610ff9613e18565b600281111561100a5761100a613e18565b81526020810191909152604001600020546001600160a01b0316929190612869565b80600e600084600281111561104357611043613e18565b600281111561105457611054613e18565b81526020810191909152604001600020600101805490910190553382600281111561108157611081613e18565b6040518381527f6a2b04b1f3d5a335c4367fea39bb8807ef0a4fbe77a2772700c8f9c90c1c9a1b9060200160405180910390a35050565b60606004805461094a90613d7d565b6001600160a01b0381166000908152600a60205260408120548015611136576001600160a01b0383166000908152600a602052604090208054600019830190811061111457611114613e2e565b60009182526020909120015464010000000090046001600160e01b0316611139565b60005b6001600160e01b03169392505050565b600080516020613f7183398151915261116181612060565b6001600160a01b0383166111a65760405162461bcd60e51b815260206004820152600c60248201526b7a65726f206164647265737360a01b6044820152606401610a62565b600082116111c65760405162461bcd60e51b8152600401610a6290613db1565b81600e60008660028111156111dd576111dd613e18565b60028111156111ee576111ee613e18565b81526020019081526020016000206001015410156112455760405162461bcd60e51b8152602060048201526014602482015273696e73756666696369656e74206261636b696e6760601b6044820152606401610a62565b81600e600086600281111561125c5761125c613e18565b600281111561126d5761126d613e18565b8152602001908152602001600020600101600082825461128d9190613e44565b909155506112e090508383600e60008860028111156112ae576112ae613e18565b60028111156112bf576112bf613e18565b81526020810191909152604001600020546001600160a01b031691906128d4565b826001600160a01b03168460028111156112fc576112fc613e18565b6040518481527fe3aab926d81700bac87dab01982e77e751c07d1acca11c13ff44aae1193a5f549060200160405180910390a350505050565b600033816113438286611cdb565b9050838110156113a35760405162461bcd60e51b815260206004820152602560248201527f45524332303a2064656372656173656420616c6c6f77616e63652062656c6f77604482015264207a65726f60d81b6064820152608401610a62565b610b5c8286868403611f3c565b6000336109db818585612130565b600080516020613f718339815191526113d681612060565b600e60008460028111156113ec576113ec613e18565b60028111156113fd576113fd613e18565b815260208101919091526040016000206003015460ff166114575760405162461bcd60e51b8152602060048201526014602482015273185cdcd95d081b9bdd081c9959da5cdd195c995960621b6044820152606401610a62565b81600e600085600281111561146e5761146e613e18565b600281111561147f5761147f613e18565b8152602001908152602001600020600201819055508260028111156114a6576114a6613e18565b6040518381527f2d292c5b6330b5b0f99b665ec1be838ca17cd57eb118fe7a02cc05477b5bd42f906020015b60405180910390a2505050565b6000808052600e6020527fe710864318d4a32f37d6ce54cb3fadbef648dd12d8dbdf53973564d56b7f881f5481907fe710864318d4a32f37d6ce54cb3fadbef648dd12d8dbdf53973564d56b7f881c9060ff168015611542575060008160020154115b8015611552575060008160010154115b1561158b57670de0b6b3a7640000816002015482600101546115749190613e57565b61157e9190613e84565b6115889083613e05565b91505b506001600052600e6020527fa7c5ba7114a813b50159add3a36832908dc83db71d0b9a24c2ad0f83be95820a547fa7c5ba7114a813b50159add3a36832908dc83db71d0b9a24c2ad0f83be9582079060ff1680156115ed575060008160020154115b80156115fd575060008160010154115b1561163657670de0b6b3a76400008160020154826001015461161f9190613e57565b6116299190613e84565b6116339083613e05565b91505b506002600052600e6020527f9adb202b1492743bc00c81d33cdc6423fa8c79109027eb6a845391e8fc1f0484547f9adb202b1492743bc00c81d33cdc6423fa8c79109027eb6a845391e8fc1f04819060ff168015611698575060008160020154115b80156116a8575060008160010154115b156116e157670de0b6b3a7640000816002015482600101546116ca9190613e57565b6116d49190613e84565b6116de9083613e05565b91505b50919050565b834211156117375760405162461bcd60e51b815260206004820152601d60248201527f4552433230566f7465733a207369676e617475726520657870697265640000006044820152606401610a62565b604080517fe48329057bfd03d55e49b547132e39cffd9c1820ad7b9d4c5307691425d15adf60208201526001600160a01b0388169181019190915260608101869052608081018590526000906117b1906117a99060a00160405160208183030381529060405280519060200120612904565b858585612931565b90506117bc8161295b565b861461180a5760405162461bcd60e51b815260206004820152601960248201527f4552433230566f7465733a20696e76616c6964206e6f6e6365000000000000006044820152606401610a62565b6118148188612638565b50505050505050565b600080516020613f7183398151915261183581612060565b6001600160a01b0382166118785760405162461bcd60e51b815260206004820152600a6024820152693d32b937903a37b5b2b760b11b6044820152606401610a62565b81600e600085600281111561188f5761188f613e18565b60028111156118a0576118a0613e18565b815260200190815260200160002060000160006101000a8154816001600160a01b0302191690836001600160a01b031602179055506001600e60008560028111156118ed576118ed613e18565b60028111156118fe576118fe613e18565b81526020810191909152604001600020600301805460ff191691151591909117905582600281111561193257611932613e18565b6040516001600160a01b03841681527f561acd69f877decb2be770ca93ef06bb6a9e5d65defa3bace8eab67feecac572906020016114d2565b604080516080810182526000808252602082018190529181018290526060810191909152600e60008360028111156119a5576119a5613e18565b60028111156119b6576119b6613e18565b81526020808201929092526040908101600020815160808101835281546001600160a01b031681526001820154938101939093526002810154918301919091526003015460ff161515606082015292915050565b7f9f2df0fed2c77648de5860a4cc508cd0818c85b8b8a1ab4ceeef8d981c8956a6611a3481612060565b611a3c61206a565b6001600160a01b038416611a895760405162461bcd60e51b81526020600482015260146024820152736d696e7420746f207a65726f206164647265737360601b6044820152606401610a62565b60008311611aa95760405162461bcd60e51b8152600401610a6290613db1565b6b033b2e3c9fd0803ce800000083611ac060025490565b611aca9190613e05565b1115611b0d5760405162461bcd60e51b815260206004820152601260248201527165786365656473206d617820737570706c7960701b6044820152606401610a62565b611b178484612981565b836001600160a01b03167f9d89e36eadf856db0ad9ffb5a569e07f95634dddd9501141ecf04820484ad0dc8484604051610b35929190613dd6565b83421115611ba25760405162461bcd60e51b815260206004820152601d60248201527f45524332305065726d69743a206578706972656420646561646c696e650000006044820152606401610a62565b60007f6e71edae12b1b97f4d1f60370fef10105fa2faae0126114a169c64845d6126c9888888611bd18c61295b565b6040805160208101969096526001600160a01b0394851690860152929091166060840152608083015260a082015260c0810186905260e0016040516020818303038152906040528051906020012090506000611c2c82612904565b90506000611c3c82878787612931565b9050896001600160a01b0316816001600160a01b031614611c9f5760405162461bcd60e51b815260206004820152601e60248201527f45524332305065726d69743a20696e76616c6964207369676e617475726500006044820152606401610a62565b611caa8a8a8a611f3c565b50505050505050505050565b6000828152600c6020526040902060010154611cd181612060565b610b8c8383612496565b6001600160a01b03918216600090815260016020908152604080832093909416825291909152205490565b600080611d116114df565b905080600003611d2357600091505090565b600254611d3882670de0b6b3a7640000613e57565b611d429190613e84565b91505090565b611d5061206a565b60008211611d705760405162461bcd60e51b8152600401610a6290613db1565b33600090815260208190526040902054821115611dc65760405162461bcd60e51b8152602060048201526014602482015273696e73756666696369656e742062616c616e636560601b6044820152606401610a62565b611dd033836120b2565b336001600160a01b03167ffad31924d655455395c87544c8aa1ffdb5a7505a22a3c2e03f28003b6556a75f8383604051611e0b929190613dd6565b60405180910390a25050565b7f0acf805600123ef007091da3b3ffb39474074c656c127aa68cb0ffec232a8ff8611e4181612060565b6001600160a01b038316611e865760405162461bcd60e51b815260206004820152600c60248201526b7a65726f206164647265737360a01b6044820152606401610a62565b611e9a6001600160a01b03851684846128d4565b50505050565b60408051808201909152600080825260208201526001600160a01b0383166000908152600a60205260409020805463ffffffff8416908110611ee457611ee4613e2e565b60009182526020918290206040805180820190915291015463ffffffff8116825264010000000090046001600160e01b0316918101919091529392505050565b6000610cbe8284613e05565b6000610cbe8284613e44565b6001600160a01b038316611f9e5760405162461bcd60e51b8152602060048201526024808201527f45524332303a20617070726f76652066726f6d20746865207a65726f206164646044820152637265737360e01b6064820152608401610a62565b6001600160a01b038216611fff5760405162461bcd60e51b815260206004820152602260248201527f45524332303a20617070726f766520746f20746865207a65726f206164647265604482015261737360f01b6064820152608401610a62565b6001600160a01b0383811660008181526001602090815260408083209487168084529482529182902085905590518481527f8c5be1e5ebec7d5bd14f71427d1e84f3dd0314c0f7b2291e5b200ac8c7c3b925910160405180910390a3505050565b610cf7813361298b565b600d5460ff16156120b05760405162461bcd60e51b815260206004820152601060248201526f14185d5cd8589b194e881c185d5cd95960821b6044820152606401610a62565b565b610c1a82826129e4565b60006120c88484611cdb565b90506000198114611e9a57818110156121235760405162461bcd60e51b815260206004820152601d60248201527f45524332303a20696e73756666696369656e7420616c6c6f77616e63650000006044820152606401610a62565b611e9a8484848403611f3c565b6001600160a01b0383166121945760405162461bcd60e51b815260206004820152602560248201527f45524332303a207472616e736665722066726f6d20746865207a65726f206164604482015264647265737360d81b6064820152608401610a62565b6001600160a01b0382166121f65760405162461bcd60e51b815260206004820152602360248201527f45524332303a207472616e7366657220746f20746865207a65726f206164647260448201526265737360e81b6064820152608401610a62565b6122018383836129fc565b6001600160a01b038316600090815260208190526040902054818110156122795760405162461bcd60e51b815260206004820152602660248201527f45524332303a207472616e7366657220616d6f756e7420657863656564732062604482015265616c616e636560d01b6064820152608401610a62565b6001600160a01b03848116600081815260208181526040808320878703905593871680835291849020805487019055925185815290927fddf252ad1be2c89b69c2b068fc378daa952ba7f163c4a11628f55a4df523b3ef910160405180910390a3611e9a848484612a04565b6122ef8282610efe565b610c1a576000828152600c602090815260408083206001600160a01b03851684529091529020805460ff191660011790556123273390565b6001600160a01b0316816001600160a01b0316837f2f8788117e7eff1d82e926ec794901d17c78024a50270940304540a733656f0d60405160405180910390a45050565b6000306001600160a01b037f0000000000000000000000000000000000000000000000000000000000000000161480156123c457507f000000000000000000000000000000000000000000000000000000000000000046145b156123ee57507f000000000000000000000000000000000000000000000000000000000000000090565b610b9b604080517f8b73c3c69bb8fe3d512ecc4cf759cc79239f7b179b0ffacaa9a75d522b39400f60208201527f0000000000000000000000000000000000000000000000000000000000000000918101919091527f000000000000000000000000000000000000000000000000000000000000000060608201524660808201523060a082015260009060c00160405160208183030381529060405280519060200120905090565b6124a08282610efe565b15610c1a576000828152600c602090815260408083206001600160a01b0385168085529252808320805460ff1916905551339285917ff6391f5c32d9c69d2a47ea670b442974b53935d1edc7fd64eb21e047a839171b9190a45050565b81546000908181600581111561255757600061251884612a0f565b6125229085613e44565b600088815260209020909150869082015463ffffffff16111561254757809150612555565b612552816001613e05565b92505b505b808210156125a457600061256b8383612af7565b600088815260209020909150869082015463ffffffff1611156125905780915061259e565b61259b816001613e05565b92505b50612557565b80156125d0576000868152602090208101600019015464010000000090046001600160e01b03166125d3565b60005b6001600160e01b03169695505050505050565b6125ee612b12565b600d805460ff191690557f5db9ee0a495bf2e6ff9c91a7834c1ba4fdd244a5e8aa4e537bd38aeae4b073aa335b6040516001600160a01b03909116815260200160405180910390a1565b6001600160a01b038281166000818152600960208181526040808420805485845282862054949093528787166001600160a01b03198416811790915590519190951694919391928592917f3134e8a2e6d97e929a7e54011ea5485d7d196dd5f0ba4d4ef95803e8e3fc257f9190a4611e9a828483612b5b565b600063ffffffff8211156127165760405162461bcd60e51b815260206004820152602660248201527f53616665436173743a2076616c756520646f65736e27742066697420696e203360448201526532206269747360d01b6064820152608401610a62565b5090565b61272261206a565b600d805460ff191660011790557f62e78cea01bee320cd4e420270b5ea74000d11b0c9f74754ebdbfc544b05a25861261b3390565b606060ff83146127715761276a83612c98565b9050610935565b81805461277d90613d7d565b80601f01602080910402602001604051908101604052809291908181526020018280546127a990613d7d565b80156127f65780601f106127cb576101008083540402835291602001916127f6565b820191906000526020600020905b8154815290600101906020018083116127d957829003601f168201915b50505050509050610935565b600065ffffffffffff8211156127165760405162461bcd60e51b815260206004820152602660248201527f53616665436173743a2076616c756520646f65736e27742066697420696e203460448201526538206269747360d01b6064820152608401610a62565b6040516001600160a01b0380851660248301528316604482015260648101829052611e9a9085906323b872dd60e01b906084015b60408051601f198184030181529190526020810180516001600160e01b03166001600160e01b031990931692909217909152612cd7565b6040516001600160a01b038316602482015260448101829052610b8c90849063a9059cbb60e01b9060640161289d565b600061093561291161236b565b8360405161190160f01b8152600281019290925260228201526042902090565b600080600061294287878787612dac565b9150915061294f81612e70565b5090505b949350505050565b6001600160a01b03811660009081526007602052604090208054600181018255906116e1565b610c1a8282612fba565b6129958282610efe565b610c1a576129a281613044565b6129ad836020613056565b6040516020016129be929190613ea6565b60408051601f198184030181529082905262461bcd60e51b8252610a62916004016138ee565b6129ee82826131f2565b611e9a600b611f3083613337565b610b8c61206a565b610b8c8383836134ac565b600081600003612a2157506000919050565b60006001612a2e846134de565b901c6001901b90506001818481612a4757612a47613e6e565b048201901c90506001818481612a5f57612a5f613e6e565b048201901c90506001818481612a7757612a77613e6e565b048201901c90506001818481612a8f57612a8f613e6e565b048201901c90506001818481612aa757612aa7613e6e565b048201901c90506001818481612abf57612abf613e6e565b048201901c90506001818481612ad757612ad7613e6e565b048201901c9050610cbe81828581612af157612af1613e6e565b04613572565b6000612b066002848418613e84565b610cbe90848416613e05565b600d5460ff166120b05760405162461bcd60e51b815260206004820152601460248201527314185d5cd8589b194e881b9bdd081c185d5cd95960621b6044820152606401610a62565b816001600160a01b0316836001600160a01b031614158015612b7d5750600081115b15610b8c576001600160a01b03831615612c0b576001600160a01b0383166000908152600a602052604081208190612bb890611f3085613337565b91509150846001600160a01b03167fdec2bacdd2f05b59de34da9b523dff8be42e5e38e818c82fdb0bae774387a7248383604051612c00929190918252602082015260400190565b60405180910390a250505b6001600160a01b03821615610b8c576001600160a01b0382166000908152600a602052604081208190612c4190611f2485613337565b91509150836001600160a01b03167fdec2bacdd2f05b59de34da9b523dff8be42e5e38e818c82fdb0bae774387a7248383604051612c89929190918252602082015260400190565b60405180910390a25050505050565b60606000612ca583613588565b604080516020808252818301909252919250600091906020820181803683375050509182525060208101929092525090565b6000612d2c826040518060400160405280602081526020017f5361666545524332303a206c6f772d6c6576656c2063616c6c206661696c6564815250856001600160a01b03166135b09092919063ffffffff16565b9050805160001480612d4d575080806020019051810190612d4d9190613f1b565b610b8c5760405162461bcd60e51b815260206004820152602a60248201527f5361666545524332303a204552433230206f7065726174696f6e20646964206e6044820152691bdd081cdd58d8d9595960b21b6064820152608401610a62565b6000807f7fffffffffffffffffffffffffffffff5d576e7357a4501ddfe92f46681b20a0831115612de35750600090506003612e67565b6040805160008082526020820180845289905260ff881692820192909252606081018690526080810185905260019060a0016020604051602081039080840390855afa158015612e37573d6000803e3d6000fd5b5050604051601f1901519150506001600160a01b038116612e6057600060019250925050612e67565b9150600090505b94509492505050565b6000816004811115612e8457612e84613e18565b03612e8c5750565b6001816004811115612ea057612ea0613e18565b03612eed5760405162461bcd60e51b815260206004820152601860248201527f45434453413a20696e76616c6964207369676e617475726500000000000000006044820152606401610a62565b6002816004811115612f0157612f01613e18565b03612f4e5760405162461bcd60e51b815260206004820152601f60248201527f45434453413a20696e76616c6964207369676e6174757265206c656e677468006044820152606401610a62565b6003816004811115612f6257612f62613e18565b03610cf75760405162461bcd60e51b815260206004820152602260248201527f45434453413a20696e76616c6964207369676e6174757265202773272076616c604482015261756560f01b6064820152608401610a62565b612fc482826135bf565b6002546001600160e01b0310156130365760405162461bcd60e51b815260206004820152603060248201527f4552433230566f7465733a20746f74616c20737570706c79207269736b73206f60448201526f766572666c6f77696e6720766f74657360801b6064820152608401610a62565b611e9a600b611f2483613337565b60606109356001600160a01b03831660145b60606000613065836002613e57565b613070906002613e05565b67ffffffffffffffff81111561308857613088613947565b6040519080825280601f01601f1916602001820160405280156130b2576020820181803683370190505b509050600360fc1b816000815181106130cd576130cd613e2e565b60200101906001600160f81b031916908160001a905350600f60fb1b816001815181106130fc576130fc613e2e565b60200101906001600160f81b031916908160001a9053506000613120846002613e57565b61312b906001613e05565b90505b60018111156131a3576f181899199a1a9b1b9c1cb0b131b232b360811b85600f166010811061315f5761315f613e2e565b1a60f81b82828151811061317557613175613e2e565b60200101906001600160f81b031916908160001a90535060049490941c9361319c81613f3d565b905061312e565b508315610cbe5760405162461bcd60e51b815260206004820181905260248201527f537472696e67733a20686578206c656e67746820696e73756666696369656e746044820152606401610a62565b6001600160a01b0382166132525760405162461bcd60e51b815260206004820152602160248201527f45524332303a206275726e2066726f6d20746865207a65726f206164647265736044820152607360f81b6064820152608401610a62565b61325e826000836129fc565b6001600160a01b038216600090815260208190526040902054818110156132d25760405162461bcd60e51b815260206004820152602260248201527f45524332303a206275726e20616d6f756e7420657863656564732062616c616e604482015261636560f01b6064820152608401610a62565b6001600160a01b0383166000818152602081815260408083208686039055600280548790039055518581529192917fddf252ad1be2c89b69c2b068fc378daa952ba7f163c4a11628f55a4df523b3ef910160405180910390a3610b8c83600084612a04565b825460009081908181156133845760008781526020902082016000190160408051808201909152905463ffffffff8116825264010000000090046001600160e01b03166020820152613399565b60408051808201909152600080825260208201525b905080602001516001600160e01b031693506133b984868863ffffffff16565b92506000821180156133e357506133ce610f29565b65ffffffffffff16816000015163ffffffff16145b15613428576133f183613692565b60008881526020902083016000190180546001600160e01b03929092166401000000000263ffffffff9092169190911790556134a2565b86604051806040016040528061344c61343f610f29565b65ffffffffffff166126b1565b63ffffffff16815260200161346086613692565b6001600160e01b0390811690915282546001810184556000938452602093849020835194909301519091166401000000000263ffffffff909316929092179101555b5050935093915050565b6001600160a01b03838116600090815260096020526040808220548584168352912054610b8c92918216911683612b5b565b600080608083901c156134f357608092831c92015b604083901c1561350557604092831c92015b602083901c1561351757602092831c92015b601083901c1561352957601092831c92015b600883901c1561353b57600892831c92015b600483901c1561354d57600492831c92015b600283901c1561355f57600292831c92015b600183901c156109355760010192915050565b60008183106135815781610cbe565b5090919050565b600060ff8216601f81111561093557604051632cd44ac360e21b815260040160405180910390fd5b606061295384846000856136fb565b6001600160a01b0382166136155760405162461bcd60e51b815260206004820152601f60248201527f45524332303a206d696e7420746f20746865207a65726f2061646472657373006044820152606401610a62565b613621600083836129fc565b80600260008282546136339190613e05565b90915550506001600160a01b038216600081815260208181526040808320805486019055518481527fddf252ad1be2c89b69c2b068fc378daa952ba7f163c4a11628f55a4df523b3ef910160405180910390a3610c1a60008383612a04565b60006001600160e01b038211156127165760405162461bcd60e51b815260206004820152602760248201527f53616665436173743a2076616c756520646f65736e27742066697420696e20326044820152663234206269747360c81b6064820152608401610a62565b60608247101561375c5760405162461bcd60e51b815260206004820152602660248201527f416464726573733a20696e73756666696369656e742062616c616e636520666f6044820152651c8818d85b1b60d21b6064820152608401610a62565b600080866001600160a01b031685876040516137789190613f54565b60006040518083038185875af1925050503d80600081146137b5576040519150601f19603f3d011682016040523d82523d6000602084013e6137ba565b606091505b50915091506137cb878383876137d6565b979650505050505050565b6060831561384557825160000361383e576001600160a01b0385163b61383e5760405162461bcd60e51b815260206004820152601d60248201527f416464726573733a2063616c6c20746f206e6f6e2d636f6e74726163740000006044820152606401610a62565b5081612953565b612953838381511561385a5781518083602001fd5b8060405162461bcd60e51b8152600401610a6291906138ee565b60006020828403121561388657600080fd5b81356001600160e01b031981168114610cbe57600080fd5b60005b838110156138b95781810151838201526020016138a1565b50506000910152565b600081518084526138da81602086016020860161389e565b601f01601f19169290920160200192915050565b602081526000610cbe60208301846138c2565b80356001600160a01b038116811461391857600080fd5b919050565b6000806040838503121561393057600080fd5b61393983613901565b946020939093013593505050565b634e487b7160e01b600052604160045260246000fd5b600082601f83011261396e57600080fd5b813567ffffffffffffffff81111561398857613988613947565b604051601f8201601f19908116603f0116810167ffffffffffffffff811182821017156139b7576139b7613947565b6040528181528382016020018510156139cf57600080fd5b816020850160208301376000918101602001919091529392505050565b600080600060608486031215613a0157600080fd5b613a0a84613901565b925060208401359150604084013567ffffffffffffffff811115613a2d57600080fd5b613a398682870161395d565b9150509250925092565b600080600060608486031215613a5857600080fd5b613a6184613901565b9250613a6f60208501613901565b929592945050506040919091013590565b600060208284031215613a9257600080fd5b5035919050565b60008060408385031215613aac57600080fd5b82359150613abc60208401613901565b90509250929050565b600060208284031215613ad757600080fd5b610cbe82613901565b60ff60f81b8816815260e060208201526000613aff60e08301896138c2565b8281036040840152613b1181896138c2565b606084018890526001600160a01b038716608085015260a0840186905283810360c08501528451808252602080870193509091019060005b81811015613b67578351835260209384019390920191600101613b49565b50909b9a5050505050505050505050565b80356003811061391857600080fd5b60008060408385031215613b9a57600080fd5b61393983613b78565b600080600060608486031215613bb857600080fd5b613a6184613b78565b803560ff8116811461391857600080fd5b60008060008060008060c08789031215613beb57600080fd5b613bf487613901565b95506020870135945060408701359350613c1060608801613bc1565b9598949750929560808101359460a0909101359350915050565b60008060408385031215613c3d57600080fd5b613c4683613b78565b9150613abc60208401613901565b600060208284031215613c6657600080fd5b610cbe82613b78565b600080600080600080600060e0888a031215613c8a57600080fd5b613c9388613901565b9650613ca160208901613901565b95506040880135945060608801359350613cbd60808901613bc1565b9699959850939692959460a0840135945060c09093013592915050565b60008060408385031215613ced57600080fd5b613c4683613901565b60008060408385031215613d0957600080fd5b82359150602083013567ffffffffffffffff811115613d2757600080fd5b613d338582860161395d565b9150509250929050565b60008060408385031215613d5057600080fd5b613d5983613901565b9150602083013563ffffffff81168114613d7257600080fd5b809150509250929050565b600181811c90821680613d9157607f821691505b6020821081036116e157634e487b7160e01b600052602260045260246000fd5b6020808252600b908201526a1e995c9bc8185b5bdd5b9d60aa1b604082015260600190565b82815260406020820152600061295360408301846138c2565b634e487b7160e01b600052601160045260246000fd5b8082018082111561093557610935613def565b634e487b7160e01b600052602160045260246000fd5b634e487b7160e01b600052603260045260246000fd5b8181038181111561093557610935613def565b808202811582820484141761093557610935613def565b634e487b7160e01b600052601260045260246000fd5b600082613ea157634e487b7160e01b600052601260045260246000fd5b500490565b7f416363657373436f6e74726f6c3a206163636f756e7420000000000000000000815260008351613ede81601785016020880161389e565b7001034b99036b4b9b9b4b733903937b6329607d1b6017918401918201528351613f0f81602884016020880161389e565b01602801949350505050565b600060208284031215613f2d57600080fd5b81518015158114610cbe57600080fd5b600081613f4c57613f4c613def565b506000190190565b60008251613f6681846020870161389e565b919091019291505056feaa9060660dc3e52152ec6c4cd87f38f5433d3e2246058f23a29463ea32476817a264697066735822122009dc68a290a9a859eaf46f2fc43b1236f9709b5f7abad2e3e0c3f0e3d34ad85b64736f6c634300081c0033dec2bacdd2f05b59de34da9b523dff8be42e5e38e818c82fdb0bae774387a724",
  "linkReferences": {},
  "deployedLinkReferences": {}
}