{
  "_format": "hh-sol-artifact-1",
  "contractName": "TimeExchangeLimitsModule",
  "sourceName": "contracts/compliance/modular/modules/TimeExchangeLimitsModule.sol",
  "abi": [
    {
      "inputs": [
        {
          "internalType": "address",
          "name": "compliance",
          "type": "address"
        },
        {
          "internalType": "uint256",
          "name": "arraySize",
          "type": "uint256"
        }
      ],
      "name": "LimitsArraySizeExceeded",
      "type": "error"
    },
    {
      "inputs": [
        {
          "internalType": "address",
          "name": "_exchangeID",
          "type": "address"
        }
      ],
      "name": "ONCHAINIDAlreadyTaggedAsExchange",
      "type": "error"
    },
    {
      "inputs": [
        {
          "internalType": "address",
          "name": "_exchangeID",
          "type": "address"
        }
      ],
      "name": "ONCHAINIDNotTaggedAsExchange",
      "type": "error"
    },
    {
      "anonymous": false,
      "inputs": [
        {
          "indexed": false,
          "internalType": "address",
          "name": "previousAdmin",
          "type": "address"
        },
        {
          "indexed": false,
          "internalType": "address",
          "name": "newAdmin",
          "type": "address"
        }
      ],
      "name": "AdminChanged",
      "type": "event"
    },
    {
      "anonymous": false,
      "inputs": [
        {
          "indexed": true,
          "internalType": "address",
          "name": "beacon",
          "type": "address"
        }
      ],
      "name": "BeaconUpgraded",
      "type": "event"
    },
    {
      "anonymous": false,
      "inputs": [
        {
          "indexed": true,
          "internalType": "address",
          "name": "_compliance",
          "type": "address"
        }
      ],
      "name": "ComplianceBound",
      "type": "event"
    },
    {
      "anonymous": false,
      "inputs": [
        {
          "indexed": true,
          "internalType": "address",
          "name": "_compliance",
          "type": "address"
        }
      ],
      "name": "ComplianceUnbound",
      "type": "event"
    },
    {
      "anonymous": false,
      "inputs": [
        {
          "indexed": false,
          "internalType": "address",
          "name": "_newExchangeID",
          "type": "address"
        }
      ],
      "name": "ExchangeIDAdded",
      "type": "event"
    },
    {
      "anonymous": false,
      "inputs": [
        {
          "indexed": false,
          "internalType": "address",
          "name": "_exchangeID",
          "type": "address"
        }
      ],
      "name": "ExchangeIDRemoved",
      "type": "event"
    },
    {
      "anonymous": false,
      "inputs": [
        {
          "indexed": true,
          "internalType": "address",
          "name": "compliance",
          "type": "address"
        },
        {
          "indexed": false,
          "internalType": "address",
          "name": "_exchangeID",
          "type": "address"
        },
        {
          "indexed": false,
          "internalType": "uint256",
          "name": "_limitValue",
          "type": "uint256"
        },
        {
          "indexed": false,
          "internalType": "uint32",
          "name": "_limitTime",
          "type": "uint32"
        }
      ],
      "name": "ExchangeLimitUpdated",
      "type": "event"
    },
    {
      "anonymous": false,
      "inputs": [
        {
          "indexed": false,
          "internalType": "uint8",
          "name": "version",
          "type": "uint8"
        }
      ],
      "name": "Initialized",
      "type": "event"
    },
    {
      "anonymous": false,
      "inputs": [
        {
          "indexed": true,
          "internalType": "address",
          "name": "previousOwner",
          "type": "address"
        },
        {
          "indexed": true,
          "internalType": "address",
          "name": "newOwner",
          "type": "address"
        }
      ],
      "name": "OwnershipTransferred",
      "type": "event"
    },
    {
      "anonymous": false,
      "inputs": [
        {
          "indexed": true,
          "internalType": "address",
          "name": "implementation",
          "type": "address"
        }
      ],
      "name": "Upgraded",
      "type": "event"
    },
    {
      "inputs": [
        {
          "internalType": "address",
          "name": "_exchangeID",
          "type": "address"
        }
      ],
      "name": "addExchangeID",
      "outputs": [],
      "stateMutability": "nonpayable",
      "type": "function"
    },
    {
      "inputs": [
        {
          "internalType": "address",
          "name": "_compliance",
          "type": "address"
        }
      ],
      "name": "bindCompliance",
      "outputs": [],
      "stateMutability": "nonpayable",
      "type": "function"
    },
    {
      "inputs": [
        {
          "internalType": "address",
          "name": "",
          "type": "address"
        }
      ],
      "name": "canComplianceBind",
      "outputs": [
        {
          "internalType": "bool",
          "name": "",
          "type": "bool"
        }
      ],
      "stateMutability": "view",
      "type": "function"
    },
    {
      "inputs": [
        {
          "internalType": "address",
          "name": "compliance",
          "type": "address"
        },
        {
          "internalType": "address",
          "name": "_exchangeID",
          "type": "address"
        },
        {
          "internalType": "address",
          "name": "_investorID",
          "type": "address"
        },
        {
          "internalType": "uint32",
          "name": "_limitTime",
          "type": "uint32"
        }
      ],
      "name": "getExchangeCounter",
      "outputs": [
        {
          "components": [
            {
              "internalType": "uint256",
              "name": "value",
              "type": "uint256"
            },
            {
              "internalType": "uint256",
              "name": "timer",
              "type": "uint256"
            }
          ],
          "internalType": "struct TimeExchangeLimitsModule.ExchangeTransferCounter",
          "name": "",
          "type": "tuple"
        }
      ],
      "stateMutability": "view",
      "type": "function"
    },
    {
      "inputs": [
        {
          "internalType": "address",
          "name": "compliance",
          "type": "address"
        },
        {
          "internalType": "address",
          "name": "_exchangeID",
          "type": "address"
        }
      ],
      "name": "getExchangeLimits",
      "outputs": [
        {
          "components": [
            {
              "internalType": "uint32",
              "name": "limitTime",
              "type": "uint32"
            },
            {
              "internalType": "uint256",
              "name": "limitValue",
              "type": "uint256"
            }
          ],
          "internalType": "struct TimeExchangeLimitsModule.Limit[]",
          "name": "",
          "type": "tuple[]"
        }
      ],
      "stateMutability": "view",
      "type": "function"
    },
    {
      "inputs": [],
      "name": "initialize",
      "outputs": [],
      "stateMutability": "nonpayable",
      "type": "function"
    },
    {
      "inputs": [
        {
          "internalType": "address",
          "name": "_compliance",
          "type": "address"
        }
      ],
      "name": "isComplianceBound",
      "outputs": [
        {
          "internalType": "bool",
          "name": "",
          "type": "bool"
        }
      ],
      "stateMutability": "view",
      "type": "function"
    },
    {
      "inputs": [
        {
          "internalType": "address",
          "name": "_exchangeID",
          "type": "address"
        }
      ],
      "name": "isExchangeID",
      "outputs": [
        {
          "internalType": "bool",
          "name": "",
          "type": "bool"
        }
      ],
      "stateMutability": "view",
      "type": "function"
    },
    {
      "inputs": [],
      "name": "isPlugAndPlay",
      "outputs": [
        {
          "internalType": "bool",
          "name": "",
          "type": "bool"
        }
      ],
      "stateMutability": "pure",
      "type": "function"
    },
    {
      "inputs": [
        {
          "internalType": "address",
          "name": "",
          "type": "address"
        },
        {
          "internalType": "uint256",
          "name": "",
          "type": "uint256"
        }
      ],
      "name": "moduleBurnAction",
      "outputs": [],
      "stateMutability": "nonpayable",
      "type": "function"
    },
    {
      "inputs": [
        {
          "internalType": "address",
          "name": "_from",
          "type": "address"
        },
        {
          "internalType": "address",
          "name": "_to",
          "type": "address"
        },
        {
          "internalType": "uint256",
          "name": "_value",
          "type": "uint256"
        },
        {
          "internalType": "address",
          "name": "_compliance",
          "type": "address"
        }
      ],
      "name": "moduleCheck",
      "outputs": [
        {
          "internalType": "bool",
          "name": "",
          "type": "bool"
        }
      ],
      "stateMutability": "view",
      "type": "function"
    },
    {
      "inputs": [
        {
          "internalType": "address",
          "name": "",
          "type": "address"
        },
        {
          "internalType": "uint256",
          "name": "",
          "type": "uint256"
        }
      ],
      "name": "moduleMintAction",
      "outputs": [],
      "stateMutability": "nonpayable",
      "type": "function"
    },
    {
      "inputs": [
        {
          "internalType": "address",
          "name": "_from",
          "type": "address"
        },
        {
          "internalType": "address",
          "name": "_to",
          "type": "address"
        },
        {
          "internalType": "uint256",
          "name": "_value",
          "type": "uint256"
        }
      ],
      "name": "moduleTransferAction",
      "outputs": [],
      "stateMutability": "nonpayable",
      "type": "function"
    },
    {
      "inputs": [],
      "name": "name",
      "outputs": [
        {
          "internalType": "string",
          "name": "_name",
          "type": "string"
        }
      ],
      "stateMutability": "pure",
      "type": "function"
    },
    {
      "inputs": [],
      "name": "owner",
      "outputs": [
        {
          "internalType": "address",
          "name": "",
          "type": "address"
        }
      ],
      "stateMutability": "view",
      "type": "function"
    },
    {
      "inputs": [],
      "name": "proxiableUUID",
      "outputs": [
        {
          "internalType": "bytes32",
          "name": "",
          "type": "bytes32"
        }
      ],
      "stateMutability": "view",
      "type": "function"
    },
    {
      "inputs": [
        {
          "internalType": "address",
          "name": "_exchangeID",
          "type": "address"
        }
      ],
      "name": "removeExchangeID",
      "outputs": [],
      "stateMutability": "nonpayable",
      "type": "function"
    },
    {
      "inputs": [],
      "name": "renounceOwnership",
      "outputs": [],
      "stateMutability": "nonpayable",
      "type": "function"
    },
    {
      "inputs": [
        {
          "internalType": "address",
          "name": "_exchangeID",
          "type": "address"
        },
        {
          "components": [
            {
              "internalType": "uint32",
              "name": "limitTime",
              "type": "uint32"
            },
            {
              "internalType": "uint256",
              "name": "limitValue",
              "type": "uint256"
            }
          ],
          "internalType": "struct TimeExchangeLimitsModule.Limit",
          "name": "_limit",
          "type": "tuple"
        }
      ],
      "name": "setExchangeLimit",
      "outputs": [],
      "stateMutability": "nonpayable",
      "type": "function"
    },
    {
      "inputs": [
        {
          "internalType": "address",
          "name": "newOwner",
          "type": "address"
        }
      ],
      "name": "transferOwnership",
      "outputs": [],
      "stateMutability": "nonpayable",
      "type": "function"
    },
    {
      "inputs": [
        {
          "internalType": "address",
          "name": "_compliance",
          "type": "address"
        }
      ],
      "name": "unbindCompliance",
      "outputs": [],
      "stateMutability": "nonpayable",
      "type": "function"
    },
    {
      "inputs": [
        {
          "internalType": "address",
          "name": "newImplementation",
          "type": "address"
        }
      ],
      "name": "upgradeTo",
      "outputs": [],
      "stateMutability": "nonpayable",
      "type": "function"
    },
    {
      "inputs": [
        {
          "internalType": "address",
          "name": "newImplementation",
          "type": "address"
        },
        {
          "internalType": "bytes",
          "name": "data",
          "type": "bytes"
        }
      ],
      "name": "upgradeToAndCall",
      "outputs": [],
      "stateMutability": "payable",
      "type": "function"
    }
  ],
  "bytecode": "0x60a080604052346100315730608052611d70908161003782396080518181816108e201528181610a090152610ddd0152f35b600080fdfe6040608081526004908136101561001557600080fd5b600091823560e01c8063013b7ce4146112b25780630694a5fb1461121957806306fdde03146111c05780632bb5e721146111265780632cb7e1ec14610fa75780633659cfe614610db6578063372491a2146101b25780634a93254414610cdb5780634cf4d29514610c905780634f1ef2861461098f57806352d1902d146108cd578063715018a61461087057806374436d97146107d85780638129fc1c1461068a5780638da5cb5b14610661578063ac0dde701461053d578063b19761a81461048c578063bcc2105314610466578063c9d9769a14610235578063d22579fb146101f7578063e6f5e807146101db578063f104a8c9146101b25763f2fde38b1461011e57600080fd5b346101ae5760203660031901126101ae57610137611304565b9161014061140a565b6001600160a01b0383161561015c578361015984611462565b80f35b906020608492519162461bcd60e51b8352820152602660248201527f4f776e61626c653a206e6577206f776e657220697320746865207a65726f206160448201526564647265737360d01b6064820152fd5b8280fd5b5050346101d7573660031901126101d4576101cb611304565b5061015961184e565b80fd5b5080fd5b5050346101d757816003193601126101d7576020905160018152f35b5050346101d75760203660031901126101d75760209160ff9082906001600160a01b03610222611304565b16815260cc855220541690519015158152f35b50346101ae5760603660031901126101ae5761024f611304565b91806023193601126104625780516102668161137e565b63ffffffff602435818116810361045e578252602093848301906044358252338852600080516020611d1b83398151915286526102a860ff868a205416611734565b3380895260c987528589206001600160a01b03909816808a52978752858920855185168a5287528589205490895260ca8752858920888a5287528589205460ff908116929116158080610454575b610437578061042e575b156103e45733895260ca8752858920888a528752858920805491680100000000000000008310156103d157506103408287926001610346950181556117e0565b90611812565b8451906103528261137e565b6001825286820190815233895260c98752858920888a528752858920848651168a528752858920915115159060ff61ff008454925160081b1692169061ffff1916171790555b519151169282519485528401528201527fbdaa98f5444de6f9849a851f2c112d373c67c253895b3ca2c57204c0f6e1b58c60603392a280f35b634e487b7160e01b8b526041905260248afd5b505033875260ca8552838720868852855261042983610340868a20338b5260c98952878b208a8c528952878b20868451168c52895260ff888c205460081c16906117e0565b610398565b50808210610300565b506044918651916382f520a960e01b835233908301526024820152fd5b50818310156102f6565b8680fd5b8380fd5b5050346101d75760203660031901126101d757602090610484611304565b505160018152f35b5050346101d75760803660031901126101d7576104a7611304565b6104af61131f565b6001600160a01b039390604435858116908190036101ae576064359163ffffffff83168093036104625786869787969751976104ea8961137e565b868952866020809a015216855260cb875285852091168452855283832090835284528282209082528352209082516105218161137e565b8160018454948584520154910190815283519283525190820152f35b508290346101d757826003193601126101d757610558611304565b61056061131f565b60018060a01b03809216845260209160ca83528585209116845281528383209283549267ffffffffffffffff841161064e5750909392918351906105a9868260051b01836113cc565b8082528582018094845286842084915b8383106106125750505050835194859481860192828752518093528086019493905b8382106105e85786860387f35b8451805163ffffffff168752830151868401528796509485019493820193600191909101906105db565b6002896001928a9b9897999a516106288161137e565b63ffffffff865416815284860154838201528152019201920191909796959394976105b9565b634e487b7160e01b825260419052602490fd5b5050346101d757816003193601126101d75760335490516001600160a01b039091168152602090f35b50346101ae57826003193601126101ae57825460ff8160081c1615918280936107cb575b80156107b4575b1561075a575060ff198116600117845581610749575b506106ee60ff845460081c166106e081611780565b6106e981611780565b611780565b6106f733611462565b82549061070960ff8360081c16611780565b610711578280f35b61ff001916825551600181527f7f26b83ff96e1f2b6a682f133852f6798a09c465da95921460cefb384740249890602090a138808280f35b61ffff1916610101178355386106cb565b608490602085519162461bcd60e51b8352820152602e60248201527f496e697469616c697a61626c653a20636f6e747261637420697320616c72656160448201526d191e481a5b9a5d1a585b1a5e995960921b6064820152fd5b50303b1580156106b55750600160ff8316146106b5565b50600160ff8316106106ae565b5090346101ae5760203660031901126101ae576107f3611304565b6107fb61140a565b6001600160a01b031680845260cc6020528184205490929060ff161561085b5750816020917fc59743ca46d36b7cf42c36211a2fbef12e10aec1bfc9d39eccf91b6976a260f593855260cc835280852060ff19815416905551908152a180f35b826024925191630120783160e61b8352820152fd5b83346101d457806003193601126101d45761088961140a565b603380546001600160a01b0319811690915581906001600160a01b03167f8be0079c531659141344cd1fd0a4f28419497f9722a3daafe3b4186f6b6457e08280a380f35b5082346101d457806003193601126101d457507f00000000000000000000000000000000000000000000000000000000000000006001600160a01b031630036109275760208251600080516020611cfb8339815191528152f35b6020608492519162461bcd60e51b8352820152603860248201527f555550535570677261646561626c653a206d757374206e6f742062652063616c60448201527f6c6564207468726f7567682064656c656761746563616c6c00000000000000006064820152fd5b5090806003193601126101ae576109a4611304565b906024359067ffffffffffffffff8211610c8c5736602383011215610c8c57818401356109d0816113ee565b6109dc835191826113cc565b818152866020948583019336602482840101116101ae578060248893018637830101526001600160a01b037f0000000000000000000000000000000000000000000000000000000000000000811690610a37308314156114ab565b610a54600080516020611cfb83398151915292828454161461150c565b610a5c61140a565b7f4910fdfa16fed3260ed0e7147f7cc6da11a60208b5b9406d12a635614ffd91435460ff1615610a9657505050505050610159915061156d565b869293949596169085516352d1902d60e01b815287818a81865afa8a9181610c59575b50610b1857865162461bcd60e51b8152808a01899052602e60248201527f45524331393637557067726164653a206e657720696d706c656d656e7461746960448201526d6f6e206973206e6f74205555505360901b6064820152608490fd5b979192939695949703610c045750610b2f8261156d565b7fbc7cd75a20ee27fd9adebab32041f755214dbc6bffa90cc0225b39da2e5c2d3b8780a285845115801590610bfc575b610b6d575b50505050505080f35b80610be696845196610b7e886113b0565b602788527f416464726573733a206c6f772d6c6576656c2064656c65676174652063616c6c87890152660819985a5b195960ca1b868901525190845af4913d15610bf2573d610bd8610bcf826113ee565b925192836113cc565b81528681943d92013e6115fd565b50388080808085610b64565b50606092506115fd565b506001610b5f565b835162461bcd60e51b8152908101859052602960248201527f45524331393637557067726164653a20756e737570706f727465642070726f786044820152681a58589b195555525160ba1b6064820152608490fd5b9091508881813d8311610c85575b610c7181836113cc565b81010312610c8157519038610ab9565b8a80fd5b503d610c67565b8480fd5b5050346101d75760203660031901126101d75760209160ff9082906001600160a01b03610cbb611304565b168152600080516020611d1b833981519152855220541690519015158152f35b5090346101ae5760203660031901126101ae576001600160a01b03610cfe611304565b1691610d0b831515611692565b828452600080516020611d1b833981519152908160205260ff8386205416610d735750610d398333146116de565b8284526020528220805460ff191660011790557f1f7b76c58fb697eb53c6c7c1becb96911516a136e24d7ced386b2355358b75a38280a280f35b606490602084519162461bcd60e51b8352820152601860248201527f636f6d706c69616e636520616c726561647920626f756e6400000000000000006044820152fd5b5090346101ae5760208060031936011261046257610dd2611304565b916001600160a01b037f00000000000000000000000000000000000000000000000000000000000000008116610e0a308214156114ab565b610e27600080516020611cfb83398151915291838354161461150c565b610e2f61140a565b8251908482019282841067ffffffffffffffff851117610f94578385528883527f4910fdfa16fed3260ed0e7147f7cc6da11a60208b5b9406d12a635614ffd91435460ff1615610e8957505050505050610159915061156d565b869293949596169085516352d1902d60e01b815287818a81865afa8a9181610f65575b50610f0b57865162461bcd60e51b8152808a01899052602e60248201527f45524331393637557067726164653a206e657720696d706c656d656e7461746960448201526d6f6e206973206e6f74205555505360901b6064820152608490fd5b979192939695949703610c045750610f228261156d565b7fbc7cd75a20ee27fd9adebab32041f755214dbc6bffa90cc0225b39da2e5c2d3b8780a285845115801590610f5e57610b6d5750505050505080f35b5080610b5f565b9091508881813d8311610f8d575b610f7d81836113cc565b81010312610c8157519038610eac565b503d610f73565b634e487b7160e01b895260418852602489fd5b5050346101d75760603660031901126101d757610fc2611304565b90610fcb61131f565b90604435913385526020600080516020611d1b8339815191528152610ff560ff8488205416611734565b6110096110028633611bb4565b9233611bb4565b6001600160a01b0381811680895260cc8452858920549197909160ff169081611114575b50611036578780f35b9095831690875b33895260ca90818552868a20838b528552868a2054811015611100576110c391338b528552868a20838b52855263ffffffff61107b82898d206117e0565b50541661108a81888c33611a71565b6110c8575b338b5260cb8652878b20848c528652878b20858c528652878b20908b528552868a206110bc89825461189c565b9055611877565b61103d565b338b5260cb8652878b20848c528652878b20858c528652878b20818c5286528a8881206110f5834261189c565b60018201555561108f565b505050505050505050388080808080808780f35b61111f915033611ad8565b153861102d565b5090346101ae5760203660031901126101ae57611141611304565b61114961140a565b6001600160a01b031680845260cc6020528184205490929060ff166111ab5750816020917fca661533a567195376b79f20fcbcca20e62ceea1d43efacba5f8028329da8e6b93855260cc8352808520600160ff1982541617905551908152a180f35b8260249251916345d1498b60e01b8352820152fd5b5050346101d757816003193601126101d7578051611215916111e18261137e565b601882527f54696d6545786368616e67654c696d6974734d6f64756c65000000000000000060208301525191829182611335565b0390f35b5050346101d75760203660031901126101d757611234611304565b90338352600080516020611d1b833981519152918260205261125b60ff8386205416611734565b6001600160a01b031691611270831515611692565b61127b8333146116de565b8284526020528220805460ff191690557f408b49d9be1c914c52a0227e18a077e5a892dddf32a26cfa94a5d9708fad77188280a280f35b5050346101d75760803660031901126101d7576112cd611304565b6112d561131f565b606435936001600160a01b03851685036101d45750926112fb91602094604435916118a9565b90519015158152f35b600435906001600160a01b038216820361131a57565b600080fd5b602435906001600160a01b038216820361131a57565b6020808252825181830181905290939260005b82811061136a57505060409293506000838284010152601f8019910116010190565b818101860151848201604001528501611348565b6040810190811067ffffffffffffffff82111761139a57604052565b634e487b7160e01b600052604160045260246000fd5b6060810190811067ffffffffffffffff82111761139a57604052565b90601f8019910116810190811067ffffffffffffffff82111761139a57604052565b67ffffffffffffffff811161139a57601f01601f191660200190565b6033546001600160a01b0316330361141e57565b606460405162461bcd60e51b815260206004820152602060248201527f4f776e61626c653a2063616c6c6572206973206e6f7420746865206f776e65726044820152fd5b603380546001600160a01b039283166001600160a01b0319821681179092559091167f8be0079c531659141344cd1fd0a4f28419497f9722a3daafe3b4186f6b6457e0600080a3565b156114b257565b60405162461bcd60e51b815260206004820152602c60248201527f46756e6374696f6e206d7573742062652063616c6c6564207468726f7567682060448201526b19195b1959d85d1958d85b1b60a21b6064820152608490fd5b1561151357565b60405162461bcd60e51b815260206004820152602c60248201527f46756e6374696f6e206d7573742062652063616c6c6564207468726f7567682060448201526b6163746976652070726f787960a01b6064820152608490fd5b803b156115a257600080516020611cfb83398151915280546001600160a01b0319166001600160a01b03909216919091179055565b60405162461bcd60e51b815260206004820152602d60248201527f455243313936373a206e657720696d706c656d656e746174696f6e206973206e60448201526c1bdd08184818dbdb9d1c9858dd609a1b6064820152608490fd5b9192901561165f5750815115611611575090565b3b1561161a5790565b60405162461bcd60e51b815260206004820152601d60248201527f416464726573733a2063616c6c20746f206e6f6e2d636f6e74726163740000006044820152606490fd5b8251909150156116725750805190602001fd5b60405162461bcd60e51b815290819061168e9060048301611335565b0390fd5b1561169957565b60405162461bcd60e51b815260206004820152601f60248201527f696e76616c696420617267756d656e74202d207a65726f2061646472657373006044820152606490fd5b156116e557565b60405162461bcd60e51b815260206004820152602160248201527f6f6e6c7920636f6d706c69616e636520636f6e74726163742063616e2063616c6044820152601b60fa1b6064820152608490fd5b1561173b57565b60405162461bcd60e51b815260206004820152601e60248201527f6f6e6c7920626f756e6420636f6d706c69616e63652063616e2063616c6c00006044820152606490fd5b1561178757565b60405162461bcd60e51b815260206004820152602b60248201527f496e697469616c697a61626c653a20636f6e7472616374206973206e6f74206960448201526a6e697469616c697a696e6760a81b6064820152608490fd5b80548210156117fc5760005260206000209060011b0190600090565b634e487b7160e01b600052603260045260246000fd5b91906118385760208163ffffffff600193511663ffffffff198554161784550151910155565b634e487b7160e01b600052600060045260246000fd5b33600052600080516020611d1b83398151915260205261187560ff60406000205416611734565b565b60001981146118865760010190565b634e487b7160e01b600052601160045260246000fd5b9190820180921161188657565b6001600160a01b039290838116158015611a61575b611a57576118cc9085611bb4565b9083821691600093838552602060cc815260409160ff8388205416611a49576118f59089611bb4565b908782169182885260cc825260ff848920541615611a3a57875b898b16808a5260ca808552868b20868c528552868b2054831015611a2857818b52808552868b20868c52855261194783888d206117e0565b50906001809201548a11611a17579082918a8f8e888f978d938f8e8e61198f9487528981528787209187525263ffffffff6119848d8888206117e0565b505416938492611a71565b1597886119bf575b50505050505050506119b1576119ac90611877565b61190f565b505050505050505091505090565b876119ed9697989950835260cb8c528383208d84528c528383209083528b528282209082528a52205461189c565b928c528552868b20868c528552611a0683888d206117e0565b500154103880808a898e838f611997565b505050505050505050505091505090565b50505050505050505050505050600190565b50505050505050505050600190565b505050505050505050600190565b5050505050600190565b50611a6c8186611ad8565b6118be565b9092604092600194858060a01b03908160009516855260cb60205281868620911685526020528484209116835260205263ffffffff8383209116825260205220015442101590565b9081602091031261131a57516001600160a01b038116810361131a5790565b604051630d47dbe560e31b8152602092916001600160a01b039084908390600490829085165afa928315611b76578492600094611b82575b506040516307feec1960e21b815290821660048201529283916024918391165afa918215611b7657600092611b4457505090565b81813d8311611b6f575b611b5881836113cc565b810103126101d757519081151582036101d4575090565b503d611b4e565b6040513d6000823e3d90fd5b6024919450611ba690843d8611611bad575b611b9e81836113cc565b810190611ab9565b9390611b10565b503d611b94565b60408051630d47dbe560e31b81526001600160a01b03939192602092919083908290600490829089165afa908115611cd257928092918694600091611cdd575b5060048651809681936304d3863d60e21b8352165afa928315611cd257908591600094611c94575b508451633c3ad79560e21b8152908216600482015292829184916024918391165afa928315611c8a5750600092611c54575b50501690565b81813d8311611c83575b611c6881836113cc565b810103126101d757519082821682036101d457503880611c4e565b503d611c5e565b513d6000823e3d90fd5b909391508281813d8311611ccb575b611cad81836113cc565b810103126101d757519085821682036101d457509184906024611c1c565b503d611ca3565b84513d6000823e3d90fd5b611cf49150823d8411611bad57611b9e81836113cc565b38611bf456fe360894a13ba1a3210667c828492db98dca3e2076cc3735a920a3ca505d382bbcf6cc97de1266c180cd39f3b311632644143ce7873d2927755382ad4b39e8ae00a2646970667358221220d6c366007aee32c33bec3d5bc06d5ad732bbd219e873f7d3e1c0898abb993b8c64736f6c63430008110033",
  "linkReferences": {},
  "deployedLinkReferences": {}
}