{
  "_format": "hh-sol-artifact-1",
  "contractName": "Aurivox",
  "sourceName": "contracts/XUV/XUV.sol",
  "abi": [
    {
      "inputs": [
        {
          "internalType": "string",
          "name": "name_",
          "type": "string"
        },
        {
          "internalType": "string",
          "name": "symbol_",
          "type": "string"
        },
        {
          "internalType": "address",
          "name": "liquidityMiningAddr_",
          "type": "address"
        },
        {
          "internalType": "address",
          "name": "institutionalAddr_",
          "type": "address"
        },
        {
          "internalType": "address",
          "name": "reserveAddr_",
          "type": "address"
        },
        {
          "internalType": "address",
          "name": "charityWaqfAddr_",
          "type": "address"
        },
        {
          "internalType": "address",
          "name": "mudaribAddr_",
          "type": "address"
        },
        {
          "internalType": "address",
          "name": "governanceMultisig_",
          "type": "address"
        }
      ],
      "stateMutability": "nonpayable",
      "type": "constructor"
    },
    {
      "inputs": [],
      "name": "AssetNotRegistered",
      "type": "error"
    },
    {
      "inputs": [],
      "name": "ExceedsMaxSupply",
      "type": "error"
    },
    {
      "inputs": [],
      "name": "InsufficientBacking",
      "type": "error"
    },
    {
      "inputs": [],
      "name": "InsufficientBalance",
      "type": "error"
    },
    {
      "inputs": [],
      "name": "InvalidDistribution",
      "type": "error"
    },
    {
      "inputs": [],
      "name": "InvalidMudarabahTerms",
      "type": "error"
    },
    {
      "inputs": [],
      "name": "InvalidShortString",
      "type": "error"
    },
    {
      "inputs": [],
      "name": "InvestmentPeriodActive",
      "type": "error"
    },
    {
      "inputs": [],
      "name": "OracleNotAuthorized",
      "type": "error"
    },
    {
      "inputs": [],
      "name": "ProfitNotYetDistributed",
      "type": "error"
    },
    {
      "inputs": [],
      "name": "SpeculativeTradeDetected",
      "type": "error"
    },
    {
      "inputs": [
        {
          "internalType": "string",
          "name": "str",
          "type": "string"
        }
      ],
      "name": "StringTooLong",
      "type": "error"
    },
    {
      "inputs": [],
      "name": "Unauthorized",
      "type": "error"
    },
    {
      "inputs": [],
      "name": "ZeroAddress",
      "type": "error"
    },
    {
      "inputs": [],
      "name": "ZeroAmount",
      "type": "error"
    },
    {
      "anonymous": false,
      "inputs": [
        {
          "indexed": true,
          "internalType": "address",
          "name": "owner",
          "type": "address"
        },
        {
          "indexed": true,
          "internalType": "address",
          "name": "spender",
          "type": "address"
        },
        {
          "indexed": false,
          "internalType": "uint256",
          "name": "value",
          "type": "uint256"
        }
      ],
      "name": "Approval",
      "type": "event"
    },
    {
      "anonymous": false,
      "inputs": [
        {
          "indexed": true,
          "internalType": "enum Aurivox.BackingAsset",
          "name": "asset",
          "type": "uint8"
        },
        {
          "indexed": false,
          "internalType": "uint256",
          "name": "priceUSD",
          "type": "uint256"
        },
        {
          "indexed": false,
          "internalType": "address",
          "name": "oracle",
          "type": "address"
        }
      ],
      "name": "AssetPriceUpdated",
      "type": "event"
    },
    {
      "anonymous": false,
      "inputs": [
        {
          "indexed": true,
          "internalType": "enum Aurivox.BackingAsset",
          "name": "asset",
          "type": "uint8"
        },
        {
          "indexed": true,
          "internalType": "address",
          "name": "from",
          "type": "address"
        },
        {
          "indexed": false,
          "internalType": "uint256",
          "name": "amount",
          "type": "uint256"
        }
      ],
      "name": "BackingDeposited",
      "type": "event"
    },
    {
      "anonymous": false,
      "inputs": [
        {
          "indexed": true,
          "internalType": "enum Aurivox.BackingAsset",
          "name": "asset",
          "type": "uint8"
        },
        {
          "indexed": false,
          "internalType": "address",
          "name": "token",
          "type": "address"
        }
      ],
      "name": "BackingTokenRegistered",
      "type": "event"
    },
    {
      "anonymous": false,
      "inputs": [
        {
          "indexed": true,
          "internalType": "enum Aurivox.BackingAsset",
          "name": "asset",
          "type": "uint8"
        },
        {
          "indexed": true,
          "internalType": "address",
          "name": "to",
          "type": "address"
        },
        {
          "indexed": false,
          "internalType": "uint256",
          "name": "amount",
          "type": "uint256"
        }
      ],
      "name": "BackingWithdrawn",
      "type": "event"
    },
    {
      "anonymous": false,
      "inputs": [
        {
          "indexed": true,
          "internalType": "address",
          "name": "delegator",
          "type": "address"
        },
        {
          "indexed": true,
          "internalType": "address",
          "name": "fromDelegate",
          "type": "address"
        },
        {
          "indexed": true,
          "internalType": "address",
          "name": "toDelegate",
          "type": "address"
        }
      ],
      "name": "DelegateChanged",
      "type": "event"
    },
    {
      "anonymous": false,
      "inputs": [
        {
          "indexed": true,
          "internalType": "address",
          "name": "delegate",
          "type": "address"
        },
        {
          "indexed": false,
          "internalType": "uint256",
          "name": "previousBalance",
          "type": "uint256"
        },
        {
          "indexed": false,
          "internalType": "uint256",
          "name": "newBalance",
          "type": "uint256"
        }
      ],
      "name": "DelegateVotesChanged",
      "type": "event"
    },
    {
      "anonymous": false,
      "inputs": [],
      "name": "EIP712DomainChanged",
      "type": "event"
    },
    {
      "anonymous": false,
      "inputs": [
        {
          "indexed": true,
          "internalType": "uint256",
          "name": "poolId",
          "type": "uint256"
        },
        {
          "indexed": true,
          "internalType": "address",
          "name": "investor",
          "type": "address"
        },
        {
          "indexed": false,
          "internalType": "uint256",
          "name": "amount",
          "type": "uint256"
        }
      ],
      "name": "InvestmentMade",
      "type": "event"
    },
    {
      "anonymous": false,
      "inputs": [
        {
          "indexed": true,
          "internalType": "uint256",
          "name": "poolId",
          "type": "uint256"
        },
        {
          "indexed": false,
          "internalType": "uint256",
          "name": "mudaribShare",
          "type": "uint256"
        },
        {
          "indexed": false,
          "internalType": "uint256",
          "name": "endTime",
          "type": "uint256"
        }
      ],
      "name": "MudarabahPoolCreated",
      "type": "event"
    },
    {
      "anonymous": false,
      "inputs": [
        {
          "indexed": true,
          "internalType": "address",
          "name": "oracle",
          "type": "address"
        },
        {
          "indexed": false,
          "internalType": "uint256",
          "name": "timestamp",
          "type": "uint256"
        }
      ],
      "name": "OracleUpdated",
      "type": "event"
    },
    {
      "anonymous": false,
      "inputs": [
        {
          "indexed": false,
          "internalType": "address",
          "name": "account",
          "type": "address"
        }
      ],
      "name": "Paused",
      "type": "event"
    },
    {
      "anonymous": false,
      "inputs": [
        {
          "indexed": true,
          "internalType": "uint256",
          "name": "poolId",
          "type": "uint256"
        },
        {
          "indexed": false,
          "internalType": "uint256",
          "name": "totalProfit",
          "type": "uint256"
        },
        {
          "indexed": false,
          "internalType": "uint256",
          "name": "mudaribShare",
          "type": "uint256"
        }
      ],
      "name": "ProfitDistributed",
      "type": "event"
    },
    {
      "anonymous": false,
      "inputs": [
        {
          "indexed": true,
          "internalType": "bytes32",
          "name": "role",
          "type": "bytes32"
        },
        {
          "indexed": true,
          "internalType": "bytes32",
          "name": "previousAdminRole",
          "type": "bytes32"
        },
        {
          "indexed": true,
          "internalType": "bytes32",
          "name": "newAdminRole",
          "type": "bytes32"
        }
      ],
      "name": "RoleAdminChanged",
      "type": "event"
    },
    {
      "anonymous": false,
      "inputs": [
        {
          "indexed": true,
          "internalType": "bytes32",
          "name": "role",
          "type": "bytes32"
        },
        {
          "indexed": true,
          "internalType": "address",
          "name": "account",
          "type": "address"
        },
        {
          "indexed": true,
          "internalType": "address",
          "name": "sender",
          "type": "address"
        }
      ],
      "name": "RoleGranted",
      "type": "event"
    },
    {
      "anonymous": false,
      "inputs": [
        {
          "indexed": true,
          "internalType": "bytes32",
          "name": "role",
          "type": "bytes32"
        },
        {
          "indexed": true,
          "internalType": "address",
          "name": "account",
          "type": "address"
        },
        {
          "indexed": true,
          "internalType": "address",
          "name": "sender",
          "type": "address"
        }
      ],
      "name": "RoleRevoked",
      "type": "event"
    },
    {
      "anonymous": false,
      "inputs": [
        {
          "indexed": true,
          "internalType": "address",
          "name": "trader",
          "type": "address"
        },
        {
          "indexed": false,
          "internalType": "string",
          "name": "reason",
          "type": "string"
        }
      ],
      "name": "SpeculativeTradePrevented",
      "type": "event"
    },
    {
      "anonymous": false,
      "inputs": [
        {
          "indexed": true,
          "internalType": "address",
          "name": "from",
          "type": "address"
        },
        {
          "indexed": false,
          "internalType": "uint256",
          "name": "amount",
          "type": "uint256"
        },
        {
          "indexed": false,
          "internalType": "string",
          "name": "reason",
          "type": "string"
        }
      ],
      "name": "TokensBurned",
      "type": "event"
    },
    {
      "anonymous": false,
      "inputs": [
        {
          "indexed": true,
          "internalType": "address",
          "name": "to",
          "type": "address"
        },
        {
          "indexed": false,
          "internalType": "uint256",
          "name": "amount",
          "type": "uint256"
        },
        {
          "indexed": false,
          "internalType": "string",
          "name": "reason",
          "type": "string"
        }
      ],
      "name": "TokensMinted",
      "type": "event"
    },
    {
      "anonymous": false,
      "inputs": [
        {
          "indexed": true,
          "internalType": "address",
          "name": "from",
          "type": "address"
        },
        {
          "indexed": true,
          "internalType": "address",
          "name": "to",
          "type": "address"
        },
        {
          "indexed": false,
          "internalType": "uint256",
          "name": "value",
          "type": "uint256"
        }
      ],
      "name": "Transfer",
      "type": "event"
    },
    {
      "anonymous": false,
      "inputs": [
        {
          "indexed": false,
          "internalType": "address",
          "name": "account",
          "type": "address"
        }
      ],
      "name": "Unpaused",
      "type": "event"
    },
    {
      "inputs": [],
      "name": "BACKING_MANAGER_ROLE",
      "outputs": [
        {
          "internalType": "bytes32",
          "name": "",
          "type": "bytes32"
        }
      ],
      "stateMutability": "view",
      "type": "function"
    },
    {
      "inputs": [],
      "name": "BURNER_ROLE",
      "outputs": [
        {
          "internalType": "bytes32",
          "name": "",
          "type": "bytes32"
        }
      ],
      "stateMutability": "view",
      "type": "function"
    },
    {
      "inputs": [],
      "name": "CASH_EQUIVALENTS_BACKING_PERCENTAGE",
      "outputs": [
        {
          "internalType": "uint256",
          "name": "",
          "type": "uint256"
        }
      ],
      "stateMutability": "view",
      "type": "function"
    },
    {
      "inputs": [],
      "name": "CHARITY_WAQF_PERCENTAGE",
      "outputs": [
        {
          "internalType": "uint256",
          "name": "",
          "type": "uint256"
        }
      ],
      "stateMutability": "view",
      "type": "function"
    },
    {
      "inputs": [],
      "name": "CLOCK_MODE",
      "outputs": [
        {
          "internalType": "string",
          "name": "",
          "type": "string"
        }
      ],
      "stateMutability": "view",
      "type": "function"
    },
    {
      "inputs": [],
      "name": "DEFAULT_ADMIN_ROLE",
      "outputs": [
        {
          "internalType": "bytes32",
          "name": "",
          "type": "bytes32"
        }
      ],
      "stateMutability": "view",
      "type": "function"
    },
    {
      "inputs": [],
      "name": "DOMAIN_SEPARATOR",
      "outputs": [
        {
          "internalType": "bytes32",
          "name": "",
          "type": "bytes32"
        }
      ],
      "stateMutability": "view",
      "type": "function"
    },
    {
      "inputs": [],
      "name": "GOLD_BACKING_PERCENTAGE",
      "outputs": [
        {
          "internalType": "uint256",
          "name": "",
          "type": "uint256"
        }
      ],
      "stateMutability": "view",
      "type": "function"
    },
    {
      "inputs": [],
      "name": "GOVERNANCE_ROLE",
      "outputs": [
        {
          "internalType": "bytes32",
          "name": "",
          "type": "bytes32"
        }
      ],
      "stateMutability": "view",
      "type": "function"
    },
    {
      "inputs": [],
      "name": "INDUSTRIAL_METALS_BACKING_PERCENTAGE",
      "outputs": [
        {
          "internalType": "uint256",
          "name": "",
          "type": "uint256"
        }
      ],
      "stateMutability": "view",
      "type": "function"
    },
    {
      "inputs": [],
      "name": "INSTITUTIONAL_PERCENTAGE",
      "outputs": [
        {
          "internalType": "uint256",
          "name": "",
          "type": "uint256"
        }
      ],
      "stateMutability": "view",
      "type": "function"
    },
    {
      "inputs": [],
      "name": "LIQUIDITY_MINING_PERCENTAGE",
      "outputs": [
        {
          "internalType": "uint256",
          "name": "",
          "type": "uint256"
        }
      ],
      "stateMutability": "view",
      "type": "function"
    },
    {
      "inputs": [],
      "name": "MAX_MUDARIB_SHARE",
      "outputs": [
        {
          "internalType": "uint256",
          "name": "",
          "type": "uint256"
        }
      ],
      "stateMutability": "view",
      "type": "function"
    },
    {
      "inputs": [],
      "name": "MAX_SUPPLY",
      "outputs": [
        {
          "internalType": "uint256",
          "name": "",
          "type": "uint256"
        }
      ],
      "stateMutability": "view",
      "type": "function"
    },
    {
      "inputs": [],
      "name": "MAX_TRADE_FREQUENCY",
      "outputs": [
        {
          "internalType": "uint256",
          "name": "",
          "type": "uint256"
        }
      ],
      "stateMutability": "view",
      "type": "function"
    },
    {
      "inputs": [],
      "name": "MINTER_ROLE",
      "outputs": [
        {
          "internalType": "bytes32",
          "name": "",
          "type": "bytes32"
        }
      ],
      "stateMutability": "view",
      "type": "function"
    },
    {
      "inputs": [],
      "name": "MIN_HOLDING_PERIOD",
      "outputs": [
        {
          "internalType": "uint256",
          "name": "",
          "type": "uint256"
        }
      ],
      "stateMutability": "view",
      "type": "function"
    },
    {
      "inputs": [],
      "name": "MIN_INVESTMENT_PERIOD",
      "outputs": [
        {
          "internalType": "uint256",
          "name": "",
          "type": "uint256"
        }
      ],
      "stateMutability": "view",
      "type": "function"
    },
    {
      "inputs": [],
      "name": "MUDARIB_ROLE",
      "outputs": [
        {
          "internalType": "bytes32",
          "name": "",
          "type": "bytes32"
        }
      ],
      "stateMutability": "view",
      "type": "function"
    },
    {
      "inputs": [],
      "name": "ORACLE_ROLE",
      "outputs": [
        {
          "internalType": "bytes32",
          "name": "",
          "type": "bytes32"
        }
      ],
      "stateMutability": "view",
      "type": "function"
    },
    {
      "inputs": [],
      "name": "PAUSER_ROLE",
      "outputs": [
        {
          "internalType": "bytes32",
          "name": "",
          "type": "bytes32"
        }
      ],
      "stateMutability": "view",
      "type": "function"
    },
    {
      "inputs": [],
      "name": "RECOVERY_ROLE",
      "outputs": [
        {
          "internalType": "bytes32",
          "name": "",
          "type": "bytes32"
        }
      ],
      "stateMutability": "view",
      "type": "function"
    },
    {
      "inputs": [],
      "name": "RESERVE_PERCENTAGE",
      "outputs": [
        {
          "internalType": "uint256",
          "name": "",
          "type": "uint256"
        }
      ],
      "stateMutability": "view",
      "type": "function"
    },
    {
      "inputs": [],
      "name": "TOTAL_SUPPLY",
      "outputs": [
        {
          "internalType": "uint256",
          "name": "",
          "type": "uint256"
        }
      ],
      "stateMutability": "view",
      "type": "function"
    },
    {
      "inputs": [
        {
          "internalType": "address",
          "name": "owner",
          "type": "address"
        },
        {
          "internalType": "address",
          "name": "spender",
          "type": "address"
        }
      ],
      "name": "allowance",
      "outputs": [
        {
          "internalType": "uint256",
          "name": "",
          "type": "uint256"
        }
      ],
      "stateMutability": "view",
      "type": "function"
    },
    {
      "inputs": [
        {
          "internalType": "address",
          "name": "spender",
          "type": "address"
        },
        {
          "internalType": "uint256",
          "name": "amount",
          "type": "uint256"
        }
      ],
      "name": "approve",
      "outputs": [
        {
          "internalType": "bool",
          "name": "",
          "type": "bool"
        }
      ],
      "stateMutability": "nonpayable",
      "type": "function"
    },
    {
      "inputs": [],
      "name": "backingPerTokenUSD",
      "outputs": [
        {
          "internalType": "uint256",
          "name": "",
          "type": "uint256"
        }
      ],
      "stateMutability": "view",
      "type": "function"
    },
    {
      "inputs": [
        {
          "internalType": "address",
          "name": "account",
          "type": "address"
        }
      ],
      "name": "balanceOf",
      "outputs": [
        {
          "internalType": "uint256",
          "name": "",
          "type": "uint256"
        }
      ],
      "stateMutability": "view",
      "type": "function"
    },
    {
      "inputs": [
        {
          "internalType": "address",
          "name": "from",
          "type": "address"
        },
        {
          "internalType": "uint256",
          "name": "amount",
          "type": "uint256"
        },
        {
          "internalType": "string",
          "name": "reason",
          "type": "string"
        }
      ],
      "name": "burn",
      "outputs": [],
      "stateMutability": "nonpayable",
      "type": "function"
    },
    {
      "inputs": [],
      "name": "charityWaqfAddress",
      "outputs": [
        {
          "internalType": "address",
          "name": "",
          "type": "address"
        }
      ],
      "stateMutability": "view",
      "type": "function"
    },
    {
      "inputs": [
        {
          "internalType": "address",
          "name": "account",
          "type": "address"
        },
        {
          "internalType": "uint32",
          "name": "pos",
          "type": "uint32"
        }
      ],
      "name": "checkpoints",
      "outputs": [
        {
          "components": [
            {
              "internalType": "uint32",
              "name": "fromBlock",
              "type": "uint32"
            },
            {
              "internalType": "uint224",
              "name": "votes",
              "type": "uint224"
            }
          ],
          "internalType": "struct ERC20Votes.Checkpoint",
          "name": "",
          "type": "tuple"
        }
      ],
      "stateMutability": "view",
      "type": "function"
    },
    {
      "inputs": [],
      "name": "clock",
      "outputs": [
        {
          "internalType": "uint48",
          "name": "",
          "type": "uint48"
        }
      ],
      "stateMutability": "view",
      "type": "function"
    },
    {
      "inputs": [],
      "name": "currentPoolId",
      "outputs": [
        {
          "internalType": "uint256",
          "name": "",
          "type": "uint256"
        }
      ],
      "stateMutability": "view",
      "type": "function"
    },
    {
      "inputs": [],
      "name": "decimals",
      "outputs": [
        {
          "internalType": "uint8",
          "name": "",
          "type": "uint8"
        }
      ],
      "stateMutability": "pure",
      "type": "function"
    },
    {
      "inputs": [
        {
          "internalType": "address",
          "name": "spender",
          "type": "address"
        },
        {
          "internalType": "uint256",
          "name": "subtractedValue",
          "type": "uint256"
        }
      ],
      "name": "decreaseAllowance",
      "outputs": [
        {
          "internalType": "bool",
          "name": "",
          "type": "bool"
        }
      ],
      "stateMutability": "nonpayable",
      "type": "function"
    },
    {
      "inputs": [
        {
          "internalType": "address",
          "name": "delegatee",
          "type": "address"
        }
      ],
      "name": "delegate",
      "outputs": [],
      "stateMutability": "nonpayable",
      "type": "function"
    },
    {
      "inputs": [
        {
          "internalType": "address",
          "name": "delegatee",
          "type": "address"
        },
        {
          "internalType": "uint256",
          "name": "nonce",
          "type": "uint256"
        },
        {
          "internalType": "uint256",
          "name": "expiry",
          "type": "uint256"
        },
        {
          "internalType": "uint8",
          "name": "v",
          "type": "uint8"
        },
        {
          "internalType": "bytes32",
          "name": "r",
          "type": "bytes32"
        },
        {
          "internalType": "bytes32",
          "name": "s",
          "type": "bytes32"
        }
      ],
      "name": "delegateBySig",
      "outputs": [],
      "stateMutability": "nonpayable",
      "type": "function"
    },
    {
      "inputs": [
        {
          "internalType": "address",
          "name": "account",
          "type": "address"
        }
      ],
      "name": "delegates",
      "outputs": [
        {
          "internalType": "address",
          "name": "",
          "type": "address"
        }
      ],
      "stateMutability": "view",
      "type": "function"
    },
    {
      "inputs": [
        {
          "internalType": "enum Aurivox.BackingAsset",
          "name": "asset",
          "type": "uint8"
        },
        {
          "internalType": "uint256",
          "name": "amount",
          "type": "uint256"
        }
      ],
      "name": "depositBacking",
      "outputs": [],
      "stateMutability": "nonpayable",
      "type": "function"
    },
    {
      "inputs": [],
      "name": "eip712Domain",
      "outputs": [
        {
          "internalType": "bytes1",
          "name": "fields",
          "type": "bytes1"
        },
        {
          "internalType": "string",
          "name": "name",
          "type": "string"
        },
        {
          "internalType": "string",
          "name": "version",
          "type": "string"
        },
        {
          "internalType": "uint256",
          "name": "chainId",
          "type": "uint256"
        },
        {
          "internalType": "address",
          "name": "verifyingContract",
          "type": "address"
        },
        {
          "internalType": "bytes32",
          "name": "salt",
          "type": "bytes32"
        },
        {
          "internalType": "uint256[]",
          "name": "extensions",
          "type": "uint256[]"
        }
      ],
      "stateMutability": "view",
      "type": "function"
    },
    {
      "inputs": [
        {
          "internalType": "address",
          "name": "token",
          "type": "address"
        },
        {
          "internalType": "address",
          "name": "to",
          "type": "address"
        },
        {
          "internalType": "uint256",
          "name": "amount",
          "type": "uint256"
        }
      ],
      "name": "emergencyRecoverERC20",
      "outputs": [],
      "stateMutability": "nonpayable",
      "type": "function"
    },
    {
      "inputs": [
        {
          "internalType": "enum Aurivox.BackingAsset",
          "name": "asset",
          "type": "uint8"
        }
      ],
      "name": "getAssetInfo",
      "outputs": [
        {
          "components": [
            {
              "internalType": "contract IERC20",
              "name": "token",
              "type": "address"
            },
            {
              "internalType": "uint256",
              "name": "amount",
              "type": "uint256"
            },
            {
              "internalType": "uint256",
              "name": "priceUSD",
              "type": "uint256"
            },
            {
              "internalType": "bool",
              "name": "registered",
              "type": "bool"
            },
            {
              "internalType": "uint256",
              "name": "targetPercentage",
              "type": "uint256"
            },
            {
              "internalType": "uint256",
              "name": "lastOracleUpdate",
              "type": "uint256"
            }
          ],
          "internalType": "struct Aurivox.AssetInfo",
          "name": "",
          "type": "tuple"
        }
      ],
      "stateMutability": "view",
      "type": "function"
    },
    {
      "inputs": [
        {
          "internalType": "uint256",
          "name": "poolId",
          "type": "uint256"
        }
      ],
      "name": "getMudarabahPoolInfo",
      "outputs": [
        {
          "internalType": "uint256",
          "name": "totalCapital",
          "type": "uint256"
        },
        {
          "internalType": "uint256",
          "name": "totalProfit",
          "type": "uint256"
        },
        {
          "internalType": "uint256",
          "name": "mudaribShare",
          "type": "uint256"
        },
        {
          "internalType": "bool",
          "name": "active",
          "type": "bool"
        },
        {
          "internalType": "uint256",
          "name": "startTime",
          "type": "uint256"
        },
        {
          "internalType": "uint256",
          "name": "endTime",
          "type": "uint256"
        },
        {
          "internalType": "uint256",
          "name": "investorCount",
          "type": "uint256"
        }
      ],
      "stateMutability": "view",
      "type": "function"
    },
    {
      "inputs": [
        {
          "internalType": "uint256",
          "name": "timepoint",
          "type": "uint256"
        }
      ],
      "name": "getPastTotalSupply",
      "outputs": [
        {
          "internalType": "uint256",
          "name": "",
          "type": "uint256"
        }
      ],
      "stateMutability": "view",
      "type": "function"
    },
    {
      "inputs": [
        {
          "internalType": "address",
          "name": "account",
          "type": "address"
        },
        {
          "internalType": "uint256",
          "name": "timepoint",
          "type": "uint256"
        }
      ],
      "name": "getPastVotes",
      "outputs": [
        {
          "internalType": "uint256",
          "name": "",
          "type": "uint256"
        }
      ],
      "stateMutability": "view",
      "type": "function"
    },
    {
      "inputs": [
        {
          "internalType": "bytes32",
          "name": "role",
          "type": "bytes32"
        }
      ],
      "name": "getRoleAdmin",
      "outputs": [
        {
          "internalType": "bytes32",
          "name": "",
          "type": "bytes32"
        }
      ],
      "stateMutability": "view",
      "type": "function"
    },
    {
      "inputs": [
        {
          "internalType": "uint256",
          "name": "poolId",
          "type": "uint256"
        },
        {
          "internalType": "address",
          "name": "user",
          "type": "address"
        }
      ],
      "name": "getUserInvestment",
      "outputs": [
        {
          "internalType": "uint256",
          "name": "",
          "type": "uint256"
        }
      ],
      "stateMutability": "view",
      "type": "function"
    },
    {
      "inputs": [
        {
          "internalType": "address",
          "name": "account",
          "type": "address"
        }
      ],
      "name": "getVotes",
      "outputs": [
        {
          "internalType": "uint256",
          "name": "",
          "type": "uint256"
        }
      ],
      "stateMutability": "view",
      "type": "function"
    },
    {
      "inputs": [
        {
          "internalType": "bytes32",
          "name": "role",
          "type": "bytes32"
        },
        {
          "internalType": "address",
          "name": "account",
          "type": "address"
        }
      ],
      "name": "grantRole",
      "outputs": [],
      "stateMutability": "nonpayable",
      "type": "function"
    },
    {
      "inputs": [
        {
          "internalType": "bytes32",
          "name": "role",
          "type": "bytes32"
        },
        {
          "internalType": "address",
          "name": "account",
          "type": "address"
        }
      ],
      "name": "hasRole",
      "outputs": [
        {
          "internalType": "bool",
          "name": "",
          "type": "bool"
        }
      ],
      "stateMutability": "view",
      "type": "function"
    },
    {
      "inputs": [
        {
          "internalType": "address",
          "name": "spender",
          "type": "address"
        },
        {
          "internalType": "uint256",
          "name": "addedValue",
          "type": "uint256"
        }
      ],
      "name": "increaseAllowance",
      "outputs": [
        {
          "internalType": "bool",
          "name": "",
          "type": "bool"
        }
      ],
      "stateMutability": "nonpayable",
      "type": "function"
    },
    {
      "inputs": [],
      "name": "institutionalInvestorsAddress",
      "outputs": [
        {
          "internalType": "address",
          "name": "",
          "type": "address"
        }
      ],
      "stateMutability": "view",
      "type": "function"
    },
    {
      "inputs": [],
      "name": "lastOracleUpdate",
      "outputs": [
        {
          "internalType": "uint256",
          "name": "",
          "type": "uint256"
        }
      ],
      "stateMutability": "view",
      "type": "function"
    },
    {
      "inputs": [
        {
          "internalType": "address",
          "name": "",
          "type": "address"
        }
      ],
      "name": "lastTradeTime",
      "outputs": [
        {
          "internalType": "uint256",
          "name": "",
          "type": "uint256"
        }
      ],
      "stateMutability": "view",
      "type": "function"
    },
    {
      "inputs": [],
      "name": "liquidityMiningAddress",
      "outputs": [
        {
          "internalType": "address",
          "name": "",
          "type": "address"
        }
      ],
      "stateMutability": "view",
      "type": "function"
    },
    {
      "inputs": [
        {
          "internalType": "address",
          "name": "to",
          "type": "address"
        },
        {
          "internalType": "uint256",
          "name": "amount",
          "type": "uint256"
        },
        {
          "internalType": "string",
          "name": "reason",
          "type": "string"
        }
      ],
      "name": "mint",
      "outputs": [],
      "stateMutability": "nonpayable",
      "type": "function"
    },
    {
      "inputs": [
        {
          "internalType": "uint256",
          "name": "",
          "type": "uint256"
        }
      ],
      "name": "mudarabahPools",
      "outputs": [
        {
          "internalType": "uint256",
          "name": "totalCapital",
          "type": "uint256"
        },
        {
          "internalType": "uint256",
          "name": "totalProfit",
          "type": "uint256"
        },
        {
          "internalType": "uint256",
          "name": "mudaribShare",
          "type": "uint256"
        },
        {
          "internalType": "bool",
          "name": "active",
          "type": "bool"
        },
        {
          "internalType": "uint256",
          "name": "startTime",
          "type": "uint256"
        },
        {
          "internalType": "uint256",
          "name": "endTime",
          "type": "uint256"
        }
      ],
      "stateMutability": "view",
      "type": "function"
    },
    {
      "inputs": [],
      "name": "mudaribAddress",
      "outputs": [
        {
          "internalType": "address",
          "name": "",
          "type": "address"
        }
      ],
      "stateMutability": "view",
      "type": "function"
    },
    {
      "inputs": [],
      "name": "name",
      "outputs": [
        {
          "internalType": "string",
          "name": "",
          "type": "string"
        }
      ],
      "stateMutability": "view",
      "type": "function"
    },
    {
      "inputs": [
        {
          "internalType": "address",
          "name": "owner",
          "type": "address"
        }
      ],
      "name": "nonces",
      "outputs": [
        {
          "internalType": "uint256",
          "name": "",
          "type": "uint256"
        }
      ],
      "stateMutability": "view",
      "type": "function"
    },
    {
      "inputs": [
        {
          "internalType": "address",
          "name": "account",
          "type": "address"
        }
      ],
      "name": "numCheckpoints",
      "outputs": [
        {
          "internalType": "uint32",
          "name": "",
          "type": "uint32"
        }
      ],
      "stateMutability": "view",
      "type": "function"
    },
    {
      "inputs": [],
      "name": "oracleUpdateInterval",
      "outputs": [
        {
          "internalType": "uint256",
          "name": "",
          "type": "uint256"
        }
      ],
      "stateMutability": "view",
      "type": "function"
    },
    {
      "inputs": [],
      "name": "pause",
      "outputs": [],
      "stateMutability": "nonpayable",
      "type": "function"
    },
    {
      "inputs": [],
      "name": "paused",
      "outputs": [
        {
          "internalType": "bool",
          "name": "",
          "type": "bool"
        }
      ],
      "stateMutability": "view",
      "type": "function"
    },
    {
      "inputs": [
        {
          "internalType": "address",
          "name": "owner",
          "type": "address"
        },
        {
          "internalType": "address",
          "name": "spender",
          "type": "address"
        },
        {
          "internalType": "uint256",
          "name": "value",
          "type": "uint256"
        },
        {
          "internalType": "uint256",
          "name": "deadline",
          "type": "uint256"
        },
        {
          "internalType": "uint8",
          "name": "v",
          "type": "uint8"
        },
        {
          "internalType": "bytes32",
          "name": "r",
          "type": "bytes32"
        },
        {
          "internalType": "bytes32",
          "name": "s",
          "type": "bytes32"
        }
      ],
      "name": "permit",
      "outputs": [],
      "stateMutability": "nonpayable",
      "type": "function"
    },
    {
      "inputs": [
        {
          "internalType": "enum Aurivox.BackingAsset",
          "name": "asset",
          "type": "uint8"
        },
        {
          "internalType": "address",
          "name": "token",
          "type": "address"
        }
      ],
      "name": "registerBackingToken",
      "outputs": [],
      "stateMutability": "nonpayable",
      "type": "function"
    },
    {
      "inputs": [
        {
          "internalType": "bytes32",
          "name": "role",
          "type": "bytes32"
        },
        {
          "internalType": "address",
          "name": "account",
          "type": "address"
        }
      ],
      "name": "renounceRole",
      "outputs": [],
      "stateMutability": "nonpayable",
      "type": "function"
    },
    {
      "inputs": [],
      "name": "reserveAddress",
      "outputs": [
        {
          "internalType": "address",
          "name": "",
          "type": "address"
        }
      ],
      "stateMutability": "view",
      "type": "function"
    },
    {
      "inputs": [
        {
          "internalType": "bytes32",
          "name": "role",
          "type": "bytes32"
        },
        {
          "internalType": "address",
          "name": "account",
          "type": "address"
        }
      ],
      "name": "revokeRole",
      "outputs": [],
      "stateMutability": "nonpayable",
      "type": "function"
    },
    {
      "inputs": [
        {
          "internalType": "bytes4",
          "name": "interfaceId",
          "type": "bytes4"
        }
      ],
      "name": "supportsInterface",
      "outputs": [
        {
          "internalType": "bool",
          "name": "",
          "type": "bool"
        }
      ],
      "stateMutability": "view",
      "type": "function"
    },
    {
      "inputs": [],
      "name": "symbol",
      "outputs": [
        {
          "internalType": "string",
          "name": "",
          "type": "string"
        }
      ],
      "stateMutability": "view",
      "type": "function"
    },
    {
      "inputs": [],
      "name": "totalBackingValueUSD",
      "outputs": [
        {
          "internalType": "uint256",
          "name": "",
          "type": "uint256"
        }
      ],
      "stateMutability": "view",
      "type": "function"
    },
    {
      "inputs": [],
      "name": "totalSupply",
      "outputs": [
        {
          "internalType": "uint256",
          "name": "",
          "type": "uint256"
        }
      ],
      "stateMutability": "view",
      "type": "function"
    },
    {
      "inputs": [
        {
          "internalType": "address",
          "name": "to",
          "type": "address"
        },
        {
          "internalType": "uint256",
          "name": "amount",
          "type": "uint256"
        }
      ],
      "name": "transfer",
      "outputs": [
        {
          "internalType": "bool",
          "name": "",
          "type": "bool"
        }
      ],
      "stateMutability": "nonpayable",
      "type": "function"
    },
    {
      "inputs": [
        {
          "internalType": "address",
          "name": "from",
          "type": "address"
        },
        {
          "internalType": "address",
          "name": "to",
          "type": "address"
        },
        {
          "internalType": "uint256",
          "name": "amount",
          "type": "uint256"
        }
      ],
      "name": "transferFrom",
      "outputs": [
        {
          "internalType": "bool",
          "name": "",
          "type": "bool"
        }
      ],
      "stateMutability": "nonpayable",
      "type": "function"
    },
    {
      "inputs": [],
      "name": "unpause",
      "outputs": [],
      "stateMutability": "nonpayable",
      "type": "function"
    },
    {
      "inputs": [
        {
          "internalType": "enum Aurivox.BackingAsset",
          "name": "asset",
          "type": "uint8"
        },
        {
          "internalType": "uint256",
          "name": "priceUSD",
          "type": "uint256"
        }
      ],
      "name": "updateAssetPrice",
      "outputs": [],
      "stateMutability": "nonpayable",
      "type": "function"
    },
    {
      "inputs": [
        {
          "internalType": "address",
          "name": "",
          "type": "address"
        },
        {
          "internalType": "uint256",
          "name": "",
          "type": "uint256"
        }
      ],
      "name": "userInvestments",
      "outputs": [
        {
          "internalType": "uint256",
          "name": "",
          "type": "uint256"
        }
      ],
      "stateMutability": "view",
      "type": "function"
    },
    {
      "inputs": [
        {
          "internalType": "enum Aurivox.BackingAsset",
          "name": "asset",
          "type": "uint8"
        },
        {
          "internalType": "address",
          "name": "to",
          "type": "address"
        },
        {
          "internalType": "uint256",
          "name": "amount",
          "type": "uint256"
        }
      ],
      "name": "withdrawBacking",
      "outputs": [],
      "stateMutability": "nonpayable",
      "type": "function"
    }
  ],
  "bytecode": "0x61016060405262278d0060175534801561001857600080fd5b506040516151d43803806151d483398101604081905261003791610d46565b6040805180820190915260018152603160f81b602082015288908190818a60036100618382610e9b565b50600461006e8282610e9b565b5061007e915083905060056103d8565b6101205261008d8160066103d8565b61014052815160208084019190912060e052815190820120610100524660a05261011a60e05161010051604080517f8b73c3c69bb8fe3d512ecc4cf759cc79239f7b179b0ffacaa9a75d522b39400f60208201529081019290925260608201524660808201523060a082015260009060c00160405160208183030381529060405280519060200120905090565b60805250503060c05250600d805460ff191690556001600160a01b038616158061014b57506001600160a01b038516155b8061015d57506001600160a01b038416155b8061016f57506001600160a01b038316155b8061018157506001600160a01b038216155b8061019357506001600160a01b038116155b156101b15760405163d92e233d60e01b815260040160405180910390fd5b600d8054610100600160a81b0319166101006001600160a01b038981169190910291909117909155600e80546001600160a01b031990811688841617909155600f80548216878416179055601080548216868416179055601180549091169184169190911790556012602052611b587f7e7fa33969761a458e04f477e039a608702b4f924981d6653935a8319a08ad7f556107d07f71a67924699a20698523213e55fe499d539379d7769cd5567e2c45d583f815a755600260009081526103e87f8e1fee8c88a9e04123b21e90cae2727a7715bf522a1e46eb5934ccd05203a6b65561029d903361040b565b6102c77f9f2df0fed2c77648de5860a4cc508cd0818c85b8b8a1ab4ceeef8d981c8956a63361040b565b6102f17f3c11d16cbaffd01df69ce1c404f6340ee057498f5f00246190ea54220576a8483361040b565b61031b7f65d7a28e3265b37a6474929f336521b332c1681b933f6cb9f3376673440d862a3361040b565b6103457faa9060660dc3e52152ec6c4cd87f38f5433d3e2246058f23a29463ea324768173361040b565b61036f7f69cbfeba406b7e29a8d697b29b1e2e1a69e752277103f0994d19b3e44b336bf78361040b565b6103997f71840dc4906352362b0cdaf79870196c8e42acafade72d5d5a6d59291253ceb18261040b565b6103c37f0acf805600123ef007091da3b3ffb39474074c656c127aa68cb0ffec232a8ff83361040b565b6103cb6104ae565b5050505050505050611025565b60006020835110156103f4576103ed836105fb565b9050610405565b816103ff8482610e9b565b5060ff90505b92915050565b6000828152600c602090815260408083206001600160a01b038516845290915290205460ff166104aa576000828152600c602090815260408083206001600160a01b03851684529091529020805460ff191660011790556104693390565b6001600160a01b0316816001600160a01b0316837f2f8788117e7eff1d82e926ec794901d17c78024a50270940304540a733656f0d60405160405180910390a45b5050565b60006127106104ca6113886acecb8f27f4200f3a000000610f6f565b6104d49190610f86565b905060006127106104f26109c46acecb8f27f4200f3a000000610f6f565b6104fc9190610f86565b9050600061271061051a6105dc6acecb8f27f4200f3a000000610f6f565b6105249190610f86565b905060006127106105426103e86acecb8f27f4200f3a000000610f6f565b61054c9190610f86565b90506acecb8f27f4200f3a00000081836105668688610fa8565b6105709190610fa8565b61057a9190610fa8565b1461059857604051630d16b83360e31b815260040160405180910390fd5b600d546105b39061010090046001600160a01b031685610642565b600e546105c9906001600160a01b031684610642565b600f546105df906001600160a01b031683610642565b6010546105f5906001600160a01b031682610642565b50505050565b600080829050601f8151111561062f578260405163305a27a960e01b81526004016106269190610fbb565b60405180910390fd5b805161063a82610fee565b179392505050565b6104aa828261065182826106df565b6001600160e01b036106636107b28216565b11156106ca5760405162461bcd60e51b815260206004820152603060248201527f4552433230566f7465733a20746f74616c20737570706c79207269736b73206f60448201526f766572666c6f77696e6720766f74657360801b6064820152608401610626565b6105f5600b6120746107b860201b17836107cb565b6001600160a01b0382166107355760405162461bcd60e51b815260206004820152601f60248201527f45524332303a206d696e7420746f20746865207a65726f2061646472657373006044820152606401610626565b61074160008383610943565b80600260008282546107539190610fa8565b90915550506001600160a01b038216600081815260208181526040808320805486019055518481527fddf252ad1be2c89b69c2b068fc378daa952ba7f163c4a11628f55a4df523b3ef910160405180910390a36104aa60008383610962565b60025490565b60006107c48284610fa8565b9392505050565b825460009081908181156108185760008781526020902082016000190160408051808201909152905463ffffffff8116825264010000000090046001600160e01b0316602082015261082d565b60408051808201909152600080825260208201525b905080602001516001600160e01b0316935061084a84868860201c565b9250600082118015610874575061085f61096d565b65ffffffffffff16816000015163ffffffff16145b156108b9576108828361097d565b60008881526020902083016000190180546001600160e01b03929092166401000000000263ffffffff909216919091179055610939565b8660405180604001604052806108e36108d661096d60201b60201c565b65ffffffffffff166109ea565b63ffffffff1681526020016108f78661097d565b6001600160e01b0390811690915282546001810184556000938452602093849020835194909301519091166401000000000263ffffffff909316929092179101555b5050935093915050565b61094b610a4f565b61095d8383836001600160e01b038416565b505050565b61095d838383610a97565b600061097843610ac9565b905090565b60006001600160e01b038211156109e65760405162461bcd60e51b815260206004820152602760248201527f53616665436173743a2076616c756520646f65736e27742066697420696e20326044820152663234206269747360c81b6064820152608401610626565b5090565b600063ffffffff8211156109e65760405162461bcd60e51b815260206004820152602660248201527f53616665436173743a2076616c756520646f65736e27742066697420696e203360448201526532206269747360d01b6064820152608401610626565b600d5460ff1615610a955760405162461bcd60e51b815260206004820152601060248201526f14185d5cd8589b194e881c185d5cd95960821b6044820152606401610626565b565b6001600160a01b0383811660009081526009602052604080822054858416835291205461095d92918216911683610b30565b600065ffffffffffff8211156109e65760405162461bcd60e51b815260206004820152602660248201527f53616665436173743a2076616c756520646f65736e27742066697420696e203460448201526538206269747360d01b6064820152608401610626565b816001600160a01b0316836001600160a01b031614158015610b525750600081115b1561095d576001600160a01b03831615610bd7576001600160a01b0383166000908152600a6020908152604082208291610b969190610c5b901b61208017856107cb565b91509150846001600160a01b03166000805160206151b48339815191528383604051610bcc929190918252602082015260400190565b60405180910390a250505b6001600160a01b0382161561095d576001600160a01b0382166000908152600a6020908152604082208291610c1691906107b8901b61207417856107cb565b91509150836001600160a01b03166000805160206151b48339815191528383604051610c4c929190918252602082015260400190565b60405180910390a25050505050565b60006107c48284611012565b634e487b7160e01b600052604160045260246000fd5b60005b83811015610c98578181015183820152602001610c80565b50506000910152565b600082601f830112610cb257600080fd5b81516001600160401b03811115610ccb57610ccb610c67565b604051601f8201601f19908116603f011681016001600160401b0381118282101715610cf957610cf9610c67565b604052818152838201602001851015610d1157600080fd5b610d22826020830160208701610c7d565b949350505050565b80516001600160a01b0381168114610d4157600080fd5b919050565b600080600080600080600080610100898b031215610d6357600080fd5b88516001600160401b03811115610d7957600080fd5b610d858b828c01610ca1565b60208b015190995090506001600160401b03811115610da357600080fd5b610daf8b828c01610ca1565b975050610dbe60408a01610d2a565b9550610dcc60608a01610d2a565b9450610dda60808a01610d2a565b9350610de860a08a01610d2a565b9250610df660c08a01610d2a565b9150610e0460e08a01610d2a565b90509295985092959890939650565b600181811c90821680610e2757607f821691505b602082108103610e4757634e487b7160e01b600052602260045260246000fd5b50919050565b601f82111561095d57806000526020600020601f840160051c81016020851015610e745750805b601f840160051c820191505b81811015610e945760008155600101610e80565b5050505050565b81516001600160401b03811115610eb457610eb4610c67565b610ec881610ec28454610e13565b84610e4d565b6020601f821160018114610efc5760008315610ee45750848201515b600019600385901b1c1916600184901b178455610e94565b600084815260208120601f198516915b82811015610f2c5787850151825560209485019460019092019101610f0c565b5084821015610f4a5786840151600019600387901b60f8161c191681555b50505050600190811b01905550565b634e487b7160e01b600052601160045260246000fd5b808202811582820484141761040557610405610f59565b600082610fa357634e487b7160e01b600052601260045260246000fd5b500490565b8082018082111561040557610405610f59565b6020815260008251806020840152610fda816040850160208701610c7d565b601f01601f19169190910160400192915050565b80516020808301519190811015610e475760001960209190910360031b1b16919050565b8181038181111561040557610405610f59565b60805160a05160c05160e05161010051610120516101405161413561107f6000396000611290015260006112650152600061241e015260006123f6015260006123510152600061237b015260006123a501526141356000f3fe608060405234801561001057600080fd5b50600436106104755760003560e01c806384b0196e11610257578063c3cda52011610146578063dd62ed3e116100c3578063f0fe4f9e11610087578063f0fe4f9e14610adb578063f1127ed814610b5f578063f36c8f5c14610b9c578063f7063e8b14610bc3578063f79ed94b14610bfd57600080fd5b8063dd62ed3e14610a7d578063dfef15b814610a90578063e63ab1e914610a98578063eb8f4c4a14610abf578063ebc5163b14610ad257600080fd5b8063d3fc98641161010a578063d3fc986414610a14578063d505accf14610a27578063d539139314610a3a578063d547741f14610a61578063d8938cb614610a7457600080fd5b8063c3cda5201461090a578063c69def0b1461091d578063c71b4abc14610930578063c8c7fe6b14610939578063d38701d01461099e57600080fd5b80639ab24eb0116101d4578063a9059cbb11610198578063a9059cbb146108dd578063ae621bbe146108f0578063b49aaae3146107f5578063b609d0e6146108f8578063c12ed7051461090157600080fd5b80639ab24eb014610889578063a217fddf1461089c578063a34cea08146108a4578063a457c2d7146108b7578063a5b27a6a146108ca57600080fd5b806391d148541161021b57806391d148541461082957806391ddadf41461083c57806391ee2a3d1461085b5780639244adcd1461086e57806395d89b411461088157600080fd5b806384b0196e146107da5780638880772a146107f55780638e539e8c146107fe5780638ee6c4e614610811578063902d55a51461064f57600080fd5b80633644e51511610373578063550938a8116102f05780636fcfff45116102b45780636fcfff451461076557806370a082311461078d57806374792153146107b65780637ecebe00146107bf5780638456cb59146107d257600080fd5b8063550938a8146106fe578063587cde1e146107115780635c19a95c1461073d5780635c975abb1461075057806360e846021461075b57600080fd5b80633f4ba83a116103375780633f4ba83a146106c9578063422b1c50146106d157806343db2ed8146106db5780634bf5d7e9146106ee5780635026c1a3146106f657600080fd5b80633644e5151461066157806336568abe14610669578063395093511461067c5780633a46b1a81461068f5780633cc983da146106a257600080fd5b806318160ddd116104015780632a5e68ec116103c55780632a5e68ec146105db5780632f2ff15d14610606578063313ce5671461061957806331993a1c1461062857806332cb6b0c1461064f57600080fd5b806318160ddd1461056d57806323b872dd146105755780632485edfe14610588578063248a9ca314610591578063282c51f3146105b457600080fd5b806307e2cea51161044857806307e2cea5146104ee578063095ea7b3146105155780630977a80f1461052857806315e98e731461053157806315f570dc1461055857600080fd5b806301ffc9a71461047a57806303186eef146104a257806304eaef4f146104d057806306fdde03146104d9575b600080fd5b61048d610488366004613a82565b610c10565b60405190151581526020015b60405180910390f35b6104c26104b0366004613ac8565b60186020526000908152604090205481565b604051908152602001610499565b6104c2611b5881565b6104e1610c47565b6040516104999190613b33565b6104c27f68e79a7bf1e0bc45d0a330c573bc367f9cf464fd326078812f301165fbda4ef181565b61048d610523366004613b46565b610cd9565b6104c260175481565b6104c27faa9060660dc3e52152ec6c4cd87f38f5433d3e2246058f23a29463ea3247681781565b61056b610566366004613b86565b610cf1565b005b6002546104c2565b61048d610583366004613c59565b610dfd565b6104c26107d081565b6104c261059f366004613c96565b6000908152600c602052604090206001015490565b6104c27f3c11d16cbaffd01df69ce1c404f6340ee057498f5f00246190ea54220576a84881565b600e546105ee906001600160a01b031681565b6040516001600160a01b039091168152602001610499565b61056b610614366004613caf565b610e24565b60405160128152602001610499565b6104c27f0acf805600123ef007091da3b3ffb39474074c656c127aa68cb0ffec232a8ff881565b6104c26acecb8f27f4200f3a00000081565b6104c2610e4e565b61056b610677366004613caf565b610e5d565b61048d61068a366004613b46565b610ee0565b6104c261069d366004613b46565b610f02565b6104c27f69cbfeba406b7e29a8d697b29b1e2e1a69e752277103f0994d19b3e44b336bf781565b61056b610f87565b6104c26201518081565b6010546105ee906001600160a01b031681565b6104e1610fbc565b6104c2600381565b61056b61070c366004613cea565b611054565b6105ee61071f366004613ac8565b6001600160a01b039081166000908152600960205260409020541690565b61056b61074b366004613ac8565b6111db565b600d5460ff1661048d565b6104c262278d0081565b610778610773366004613ac8565b6111e5565b60405163ffffffff9091168152602001610499565b6104c261079b366004613ac8565b6001600160a01b031660009081526020819052604090205490565b6104c26105dc81565b6104c26107cd366004613ac8565b611207565b61056b611225565b6107e2611257565b6040516104999796959493929190613d06565b6104c26103e881565b6104c261080c366004613c96565b6112e0565b600d546105ee9061010090046001600160a01b031681565b61048d610837366004613caf565b611347565b610844611372565b60405165ffffffffffff9091168152602001610499565b61056b610869366004613cea565b61137d565b6104c261087c366004613b46565b6114dc565b6104e161150d565b6104c2610897366004613ac8565b61151c565b6104c2600081565b61056b6108b2366004613d9e565b61159e565b61048d6108c5366004613b46565b6117b4565b6011546105ee906001600160a01b031681565b61048d6108eb366004613b46565b61183a565b6104c2611858565b6104c260165481565b6104c2610bb881565b61056b610918366004613dcd565b61192f565b61056b61092b366004613e25565b611a65565b6104c26109c481565b61094c610947366004613e4f565b611ba9565b604051610499919081516001600160a01b0316815260208083015190820152604080830151908201526060808301511515908201526080808301519082015260a0918201519181019190915260c00190565b6109e56109ac366004613c96565b60136020526000908152604090208054600182015460028301546003840154600485015460059095015493949293919260ff9091169186565b6040805196875260208701959095529385019290925215156060840152608083015260a082015260c001610499565b61056b610a22366004613b86565b611c7c565b61056b610a35366004613e6a565b611d7a565b6104c27f9f2df0fed2c77648de5860a4cc508cd0818c85b8b8a1ab4ceeef8d981c8956a681565b61056b610a6f366004613caf565b611ede565b6104c261138881565b6104c2610a8b366004613ed5565b611f03565b6104c2611f2e565b6104c27f65d7a28e3265b37a6474929f336521b332c1681b933f6cb9f3376673440d862a81565b61056b610acd366004613c59565b611f85565b6104c260155481565b610b2a610ae9366004613c96565b600090815260136020526040902080546001820154600283015460038401546004850154600586015460079096015494969395929460ff9092169390929190565b604080519788526020880196909652948601939093529015156060850152608084015260a083015260c082015260e001610499565b610b72610b6d366004613ef1565b611ff0565b60408051825163ffffffff1681526020928301516001600160e01b03169281019290925201610499565b6104c27f71840dc4906352362b0cdaf79870196c8e42acafade72d5d5a6d59291253ceb181565b6104c2610bd1366004613caf565b60008281526013602090815260408083206001600160a01b038516845260060190915290205492915050565b600f546105ee906001600160a01b031681565b60006001600160e01b03198216637965db0b60e01b1480610c4157506301ffc9a760e01b6001600160e01b03198316145b92915050565b606060038054610c5690613f31565b80601f0160208091040260200160405190810160405280929190818152602001828054610c8290613f31565b8015610ccf5780601f10610ca457610100808354040283529160200191610ccf565b820191906000526020600020905b815481529060010190602001808311610cb257829003601f168201915b5050505050905090565b600033610ce781858561208c565b5060019392505050565b7f3c11d16cbaffd01df69ce1c404f6340ee057498f5f00246190ea54220576a848610d1b816121b0565b610d236121ba565b6001600160a01b038416610d4a5760405163d92e233d60e01b815260040160405180910390fd5b82600003610d6b57604051631f2a200560e01b815260040160405180910390fd5b82610d8b856001600160a01b031660009081526020819052604090205490565b1015610daa57604051631e9acf1760e31b815260040160405180910390fd5b610db48484612202565b836001600160a01b03167ffad31924d655455395c87544c8aa1ffdb5a7505a22a3c2e03f28003b6556a75f8484604051610def929190613f65565b60405180910390a250505050565b6000610e076121ba565b610e11848461220c565b610e1c8484846122a5565b949350505050565b6000828152600c6020526040902060010154610e3f816121b0565b610e4983836122be565b505050565b6000610e58612344565b905090565b6001600160a01b0381163314610ed25760405162461bcd60e51b815260206004820152602f60248201527f416363657373436f6e74726f6c3a2063616e206f6e6c792072656e6f756e636560448201526e103937b632b9903337b91039b2b63360891b60648201526084015b60405180910390fd5b610edc828261246f565b5050565b600033610ce7818585610ef38383611f03565b610efd9190613f94565b61208c565b6000610f0c611372565b65ffffffffffff168210610f5e5760405162461bcd60e51b815260206004820152601960248201527804552433230566f7465733a20667574757265206c6f6f6b757603c1b6044820152606401610ec9565b6001600160a01b0383166000908152600a60205260409020610f8090836124d6565b9392505050565b7f65d7a28e3265b37a6474929f336521b332c1681b933f6cb9f3376673440d862a610fb1816121b0565b610fb96125bf565b50565b606043610fc7611372565b65ffffffffffff161461101c5760405162461bcd60e51b815260206004820152601d60248201527f4552433230566f7465733a2062726f6b656e20636c6f636b206d6f64650000006044820152606401610ec9565b5060408051808201909152601d81527f6d6f64653d626c6f636b6e756d6265722666726f6d3d64656661756c74000000602082015290565b7f68e79a7bf1e0bc45d0a330c573bc367f9cf464fd326078812f301165fbda4ef161107e816121b0565b6012600084600281111561109457611094613fa7565b60028111156110a5576110a5613fa7565b815260208101919091526040016000206003015460ff166110d957604051630719d53360e21b815260040160405180910390fd5b81601260008560028111156110f0576110f0613fa7565b600281111561110157611101613fa7565b815260200190815260200160002060020181905550426012600085600281111561112d5761112d613fa7565b600281111561113e5761113e613fa7565b81526020810191909152604001600020600501554260165582600281111561116857611168613fa7565b604080518481523360208201527fe64f3e82b06d301d70a7ba247173b6959c7f3eecd7bfcab57b8f7ef11e0e8d96910160405180910390a260405142815233907f41dd56c92c84169d8e89dc293d2649a911f47b357d3012bc88662395e01979d0906020015b60405180910390a2505050565b610fb93382612611565b6001600160a01b0381166000908152600a6020526040812054610c419061268a565b6001600160a01b038116600090815260076020526040812054610c41565b7f65d7a28e3265b37a6474929f336521b332c1681b933f6cb9f3376673440d862a61124f816121b0565b610fb96126f3565b60006060808280808361128b7f00000000000000000000000000000000000000000000000000000000000000006005612730565b6112b67f00000000000000000000000000000000000000000000000000000000000000006006612730565b60408051600080825260208201909252600f60f81b9b939a50919850469750309650945092509050565b60006112ea611372565b65ffffffffffff16821061133c5760405162461bcd60e51b815260206004820152601960248201527804552433230566f7465733a20667574757265206c6f6f6b757603c1b6044820152606401610ec9565b610c41600b836124d6565b6000918252600c602090815260408084206001600160a01b0393909316845291905290205460ff1690565b6000610e58436127db565b6113856121ba565b6012600083600281111561139b5761139b613fa7565b60028111156113ac576113ac613fa7565b815260208101919091526040016000206003015460ff166113e057604051630719d53360e21b815260040160405180910390fd5b8060000361140157604051631f2a200560e01b815260040160405180910390fd5b6114503330836012600087600281111561141d5761141d613fa7565b600281111561142e5761142e613fa7565b81526020810191909152604001600020546001600160a01b0316929190612842565b806012600084600281111561146757611467613fa7565b600281111561147857611478613fa7565b8152602081019190915260400160002060010180549091019055338260028111156114a5576114a5613fa7565b6040518381527f6a2b04b1f3d5a335c4367fea39bb8807ef0a4fbe77a2772700c8f9c90c1c9a1b9060200160405180910390a35050565b601460205281600052604060002081815481106114f857600080fd5b90600052602060002001600091509150505481565b606060048054610c5690613f31565b6001600160a01b0381166000908152600a6020526040812054801561158b576001600160a01b0383166000908152600a602052604090208054600019830190811061156957611569613fbd565b60009182526020909120015464010000000090046001600160e01b031661158e565b60005b6001600160e01b03169392505050565b7faa9060660dc3e52152ec6c4cd87f38f5433d3e2246058f23a29463ea324768176115c8816121b0565b6001600160a01b0383166115ef5760405163d92e233d60e01b815260040160405180910390fd5b8160000361161057604051631f2a200560e01b815260040160405180910390fd5b6012600085600281111561162657611626613fa7565b600281111561163757611637613fa7565b815260208101919091526040016000206003015460ff1661166b57604051630719d53360e21b815260040160405180910390fd5b816012600086600281111561168257611682613fa7565b600281111561169357611693613fa7565b81526020019081526020016000206001015410156116c4576040516340db7f8760e01b815260040160405180910390fd5b81601260008660028111156116db576116db613fa7565b60028111156116ec576116ec613fa7565b8152602001908152602001600020600101600082825461170c9190613fd3565b9091555061175f905083836012600088600281111561172d5761172d613fa7565b600281111561173e5761173e613fa7565b81526020810191909152604001600020546001600160a01b031691906128ad565b826001600160a01b031684600281111561177b5761177b613fa7565b6040518481527fe3aab926d81700bac87dab01982e77e751c07d1acca11c13ff44aae1193a5f549060200160405180910390a350505050565b600033816117c28286611f03565b9050838110156118225760405162461bcd60e51b815260206004820152602560248201527f45524332303a2064656372656173656420616c6c6f77616e63652062656c6f77604482015264207a65726f60d81b6064820152608401610ec9565b61182f828686840361208c565b506001949350505050565b60006118446121ba565b61184e338461220c565b610f8083836128dd565b600080805b60038160ff1610156119295760008160ff16600281111561188057611880613fa7565b905060006012600083600281111561189a5761189a613fa7565b60028111156118ab576118ab613fa7565b81526020810191909152604001600020600381015490915060ff1680156118d6575060008160020154115b80156118e6575060008160010154115b1561191f57670de0b6b3a7640000816002015482600101546119089190613fe6565b6119129190614013565b61191c9085613f94565b93505b505060010161185d565b50919050565b8342111561197f5760405162461bcd60e51b815260206004820152601d60248201527f4552433230566f7465733a207369676e617475726520657870697265640000006044820152606401610ec9565b604080517fe48329057bfd03d55e49b547132e39cffd9c1820ad7b9d4c5307691425d15adf60208201526001600160a01b0388169181019190915260608101869052608081018590526000906119f9906119f19060a001604051602081830303815290604052805190602001206128eb565b858585612918565b9050611a0481612940565b8614611a525760405162461bcd60e51b815260206004820152601960248201527f4552433230566f7465733a20696e76616c6964206e6f6e6365000000000000006044820152606401610ec9565b611a5c8188612611565b50505050505050565b7faa9060660dc3e52152ec6c4cd87f38f5433d3e2246058f23a29463ea32476817611a8f816121b0565b6001600160a01b038216611ab65760405163d92e233d60e01b815260040160405180910390fd5b8160126000856002811115611acd57611acd613fa7565b6002811115611ade57611ade613fa7565b815260200190815260200160002060000160006101000a8154816001600160a01b0302191690836001600160a01b03160217905550600160126000856002811115611b2b57611b2b613fa7565b6002811115611b3c57611b3c613fa7565b81526020810191909152604001600020600301805460ff1916911515919091179055826002811115611b7057611b70613fa7565b6040516001600160a01b03841681527f561acd69f877decb2be770ca93ef06bb6a9e5d65defa3bace8eab67feecac572906020016111ce565b611bed6040518060c0016040528060006001600160a01b03168152602001600081526020016000815260200160001515815260200160008152602001600081525090565b60126000836002811115611c0357611c03613fa7565b6002811115611c1457611c14613fa7565b81526020808201929092526040908101600020815160c08101835281546001600160a01b03168152600182015493810193909352600281015491830191909152600381015460ff1615156060830152600481015460808301526005015460a082015292915050565b7f9f2df0fed2c77648de5860a4cc508cd0818c85b8b8a1ab4ceeef8d981c8956a6611ca6816121b0565b611cae6121ba565b6001600160a01b038416611cd55760405163d92e233d60e01b815260040160405180910390fd5b82600003611cf657604051631f2a200560e01b815260040160405180910390fd5b6acecb8f27f4200f3a00000083611d0c60025490565b611d169190613f94565b1115611d355760405163c30436e960e01b815260040160405180910390fd5b611d3f8484612966565b836001600160a01b03167f9d89e36eadf856db0ad9ffb5a569e07f95634dddd9501141ecf04820484ad0dc8484604051610def929190613f65565b83421115611dca5760405162461bcd60e51b815260206004820152601d60248201527f45524332305065726d69743a206578706972656420646561646c696e650000006044820152606401610ec9565b60007f6e71edae12b1b97f4d1f60370fef10105fa2faae0126114a169c64845d6126c9888888611df98c612940565b6040805160208101969096526001600160a01b0394851690860152929091166060840152608083015260a082015260c0810186905260e0016040516020818303038152906040528051906020012090506000611e54826128eb565b90506000611e6482878787612918565b9050896001600160a01b0316816001600160a01b031614611ec75760405162461bcd60e51b815260206004820152601e60248201527f45524332305065726d69743a20696e76616c6964207369676e617475726500006044820152606401610ec9565b611ed28a8a8a61208c565b50505050505050505050565b6000828152600c6020526040902060010154611ef9816121b0565b610e49838361246f565b6001600160a01b03918216600090815260016020908152604080832093909416825291909152205490565b600080611f39611858565b90506000611f4660025490565b9050811580611f53575080155b15611f615760009250505090565b80611f7483670de0b6b3a7640000613fe6565b611f7e9190614013565b9250505090565b7f0acf805600123ef007091da3b3ffb39474074c656c127aa68cb0ffec232a8ff8611faf816121b0565b6001600160a01b038316611fd65760405163d92e233d60e01b815260040160405180910390fd5b611fea6001600160a01b03851684846128ad565b50505050565b60408051808201909152600080825260208201526001600160a01b0383166000908152600a60205260409020805463ffffffff841690811061203457612034613fbd565b60009182526020918290206040805180820190915291015463ffffffff8116825264010000000090046001600160e01b0316918101919091529392505050565b6000610f808284613f94565b6000610f808284613fd3565b6001600160a01b0383166120ee5760405162461bcd60e51b8152602060048201526024808201527f45524332303a20617070726f76652066726f6d20746865207a65726f206164646044820152637265737360e01b6064820152608401610ec9565b6001600160a01b03821661214f5760405162461bcd60e51b815260206004820152602260248201527f45524332303a20617070726f766520746f20746865207a65726f206164647265604482015261737360f01b6064820152608401610ec9565b6001600160a01b0383811660008181526001602090815260408083209487168084529482529182902085905590518481527f8c5be1e5ebec7d5bd14f71427d1e84f3dd0314c0f7b2291e5b200ac8c7c3b925910160405180910390a3505050565b610fb98133612970565b600d5460ff16156122005760405162461bcd60e51b815260206004820152601060248201526f14185d5cd8589b194e881c185d5cd95960821b6044820152606401610ec9565b565b610edc82826129c9565b6001600160a01b038216158061222957506001600160a01b038116155b15612232575050565b6001600160a01b038216600090815260186020526040902054620151809061225a9042613fd3565b1015612279576040516310da135d60e01b815260040160405180910390fd5b6001600160a01b0391821660009081526018602052604080822042908190559290931681529190912055565b6000336122b38582856129e1565b61182f858585612a55565b6122c88282611347565b610edc576000828152600c602090815260408083206001600160a01b03851684529091529020805460ff191660011790556123003390565b6001600160a01b0316816001600160a01b0316837f2f8788117e7eff1d82e926ec794901d17c78024a50270940304540a733656f0d60405160405180910390a45050565b6000306001600160a01b037f00000000000000000000000000000000000000000000000000000000000000001614801561239d57507f000000000000000000000000000000000000000000000000000000000000000046145b156123c757507f000000000000000000000000000000000000000000000000000000000000000090565b610e58604080517f8b73c3c69bb8fe3d512ecc4cf759cc79239f7b179b0ffacaa9a75d522b39400f60208201527f0000000000000000000000000000000000000000000000000000000000000000918101919091527f000000000000000000000000000000000000000000000000000000000000000060608201524660808201523060a082015260009060c00160405160208183030381529060405280519060200120905090565b6124798282611347565b15610edc576000828152600c602090815260408083206001600160a01b0385168085529252808320805460ff1916905551339285917ff6391f5c32d9c69d2a47ea670b442974b53935d1edc7fd64eb21e047a839171b9190a45050565b8154600090818160058111156125305760006124f184612c0a565b6124fb9085613fd3565b600088815260209020909150869082015463ffffffff1611156125205780915061252e565b61252b816001613f94565b92505b505b8082101561257d5760006125448383612cf2565b600088815260209020909150869082015463ffffffff16111561256957809150612577565b612574816001613f94565b92505b50612530565b80156125a9576000868152602090208101600019015464010000000090046001600160e01b03166125ac565b60005b6001600160e01b03169695505050505050565b6125c7612d0d565b600d805460ff191690557f5db9ee0a495bf2e6ff9c91a7834c1ba4fdd244a5e8aa4e537bd38aeae4b073aa335b6040516001600160a01b03909116815260200160405180910390a1565b6001600160a01b038281166000818152600960208181526040808420805485845282862054949093528787166001600160a01b03198416811790915590519190951694919391928592917f3134e8a2e6d97e929a7e54011ea5485d7d196dd5f0ba4d4ef95803e8e3fc257f9190a4611fea828483612d56565b600063ffffffff8211156126ef5760405162461bcd60e51b815260206004820152602660248201527f53616665436173743a2076616c756520646f65736e27742066697420696e203360448201526532206269747360d01b6064820152608401610ec9565b5090565b6126fb6121ba565b600d805460ff191660011790557f62e78cea01bee320cd4e420270b5ea74000d11b0c9f74754ebdbfc544b05a2586125f43390565b606060ff831461274a5761274383612e93565b9050610c41565b81805461275690613f31565b80601f016020809104026020016040519081016040528092919081815260200182805461278290613f31565b80156127cf5780601f106127a4576101008083540402835291602001916127cf565b820191906000526020600020905b8154815290600101906020018083116127b257829003601f168201915b50505050509050610c41565b600065ffffffffffff8211156126ef5760405162461bcd60e51b815260206004820152602660248201527f53616665436173743a2076616c756520646f65736e27742066697420696e203460448201526538206269747360d01b6064820152608401610ec9565b6040516001600160a01b0380851660248301528316604482015260648101829052611fea9085906323b872dd60e01b906084015b60408051601f198184030181529190526020810180516001600160e01b03166001600160e01b031990931692909217909152612ed2565b6040516001600160a01b038316602482015260448101829052610e4990849063a9059cbb60e01b90606401612876565b600033610ce7818585612a55565b6000610c416128f8612344565b8360405161190160f01b8152600281019290925260228201526042902090565b600080600061292987878787612fa7565b915091506129368161306b565b5095945050505050565b6001600160a01b0381166000908152600760205260409020805460018101825590611929565b610edc82826131b5565b61297a8282611347565b610edc576129878161323f565b612992836020613251565b6040516020016129a3929190614035565b60408051601f198184030181529082905262461bcd60e51b8252610ec991600401613b33565b6129d382826133ed565b611fea600b61208083613532565b60006129ed8484611f03565b90506000198114611fea5781811015612a485760405162461bcd60e51b815260206004820152601d60248201527f45524332303a20696e73756666696369656e7420616c6c6f77616e63650000006044820152606401610ec9565b611fea848484840361208c565b6001600160a01b038316612ab95760405162461bcd60e51b815260206004820152602560248201527f45524332303a207472616e736665722066726f6d20746865207a65726f206164604482015264647265737360d81b6064820152608401610ec9565b6001600160a01b038216612b1b5760405162461bcd60e51b815260206004820152602360248201527f45524332303a207472616e7366657220746f20746865207a65726f206164647260448201526265737360e81b6064820152608401610ec9565b612b268383836136a7565b6001600160a01b03831660009081526020819052604090205481811015612b9e5760405162461bcd60e51b815260206004820152602660248201527f45524332303a207472616e7366657220616d6f756e7420657863656564732062604482015265616c616e636560d01b6064820152608401610ec9565b6001600160a01b03848116600081815260208181526040808320878703905593871680835291849020805487019055925185815290927fddf252ad1be2c89b69c2b068fc378daa952ba7f163c4a11628f55a4df523b3ef910160405180910390a3611fea8484846136af565b600081600003612c1c57506000919050565b60006001612c29846136ba565b901c6001901b90506001818481612c4257612c42613ffd565b048201901c90506001818481612c5a57612c5a613ffd565b048201901c90506001818481612c7257612c72613ffd565b048201901c90506001818481612c8a57612c8a613ffd565b048201901c90506001818481612ca257612ca2613ffd565b048201901c90506001818481612cba57612cba613ffd565b048201901c90506001818481612cd257612cd2613ffd565b048201901c9050610f8081828581612cec57612cec613ffd565b0461374e565b6000612d016002848418614013565b610f8090848416613f94565b600d5460ff166122005760405162461bcd60e51b815260206004820152601460248201527314185d5cd8589b194e881b9bdd081c185d5cd95960621b6044820152606401610ec9565b816001600160a01b0316836001600160a01b031614158015612d785750600081115b15610e49576001600160a01b03831615612e06576001600160a01b0383166000908152600a602052604081208190612db39061208085613532565b91509150846001600160a01b03167fdec2bacdd2f05b59de34da9b523dff8be42e5e38e818c82fdb0bae774387a7248383604051612dfb929190918252602082015260400190565b60405180910390a250505b6001600160a01b03821615610e49576001600160a01b0382166000908152600a602052604081208190612e3c9061207485613532565b91509150836001600160a01b03167fdec2bacdd2f05b59de34da9b523dff8be42e5e38e818c82fdb0bae774387a7248383604051612e84929190918252602082015260400190565b60405180910390a25050505050565b60606000612ea083613764565b604080516020808252818301909252919250600091906020820181803683375050509182525060208101929092525090565b6000612f27826040518060400160405280602081526020017f5361666545524332303a206c6f772d6c6576656c2063616c6c206661696c6564815250856001600160a01b031661378c9092919063ffffffff16565b9050805160001480612f48575080806020019051810190612f4891906140aa565b610e495760405162461bcd60e51b815260206004820152602a60248201527f5361666545524332303a204552433230206f7065726174696f6e20646964206e6044820152691bdd081cdd58d8d9595960b21b6064820152608401610ec9565b6000807f7fffffffffffffffffffffffffffffff5d576e7357a4501ddfe92f46681b20a0831115612fde5750600090506003613062565b6040805160008082526020820180845289905260ff881692820192909252606081018690526080810185905260019060a0016020604051602081039080840390855afa158015613032573d6000803e3d6000fd5b5050604051601f1901519150506001600160a01b03811661305b57600060019250925050613062565b9150600090505b94509492505050565b600081600481111561307f5761307f613fa7565b036130875750565b600181600481111561309b5761309b613fa7565b036130e85760405162461bcd60e51b815260206004820152601860248201527f45434453413a20696e76616c6964207369676e617475726500000000000000006044820152606401610ec9565b60028160048111156130fc576130fc613fa7565b036131495760405162461bcd60e51b815260206004820152601f60248201527f45434453413a20696e76616c6964207369676e6174757265206c656e677468006044820152606401610ec9565b600381600481111561315d5761315d613fa7565b03610fb95760405162461bcd60e51b815260206004820152602260248201527f45434453413a20696e76616c6964207369676e6174757265202773272076616c604482015261756560f01b6064820152608401610ec9565b6131bf828261379b565b6002546001600160e01b0310156132315760405162461bcd60e51b815260206004820152603060248201527f4552433230566f7465733a20746f74616c20737570706c79207269736b73206f60448201526f766572666c6f77696e6720766f74657360801b6064820152608401610ec9565b611fea600b61207483613532565b6060610c416001600160a01b03831660145b60606000613260836002613fe6565b61326b906002613f94565b67ffffffffffffffff81111561328357613283613b70565b6040519080825280601f01601f1916602001820160405280156132ad576020820181803683370190505b509050600360fc1b816000815181106132c8576132c8613fbd565b60200101906001600160f81b031916908160001a905350600f60fb1b816001815181106132f7576132f7613fbd565b60200101906001600160f81b031916908160001a905350600061331b846002613fe6565b613326906001613f94565b90505b600181111561339e576f181899199a1a9b1b9c1cb0b131b232b360811b85600f166010811061335a5761335a613fbd565b1a60f81b82828151811061337057613370613fbd565b60200101906001600160f81b031916908160001a90535060049490941c93613397816140cc565b9050613329565b508315610f805760405162461bcd60e51b815260206004820181905260248201527f537472696e67733a20686578206c656e67746820696e73756666696369656e746044820152606401610ec9565b6001600160a01b03821661344d5760405162461bcd60e51b815260206004820152602160248201527f45524332303a206275726e2066726f6d20746865207a65726f206164647265736044820152607360f81b6064820152608401610ec9565b613459826000836136a7565b6001600160a01b038216600090815260208190526040902054818110156134cd5760405162461bcd60e51b815260206004820152602260248201527f45524332303a206275726e20616d6f756e7420657863656564732062616c616e604482015261636560f01b6064820152608401610ec9565b6001600160a01b0383166000818152602081815260408083208686039055600280548790039055518581529192917fddf252ad1be2c89b69c2b068fc378daa952ba7f163c4a11628f55a4df523b3ef910160405180910390a3610e49836000846136af565b8254600090819081811561357f5760008781526020902082016000190160408051808201909152905463ffffffff8116825264010000000090046001600160e01b03166020820152613594565b60408051808201909152600080825260208201525b905080602001516001600160e01b031693506135b484868863ffffffff16565b92506000821180156135de57506135c9611372565b65ffffffffffff16816000015163ffffffff16145b15613623576135ec8361386e565b60008881526020902083016000190180546001600160e01b03929092166401000000000263ffffffff90921691909117905561369d565b86604051806040016040528061364761363a611372565b65ffffffffffff1661268a565b63ffffffff16815260200161365b8661386e565b6001600160e01b0390811690915282546001810184556000938452602093849020835194909301519091166401000000000263ffffffff909316929092179101555b5050935093915050565b610e496121ba565b610e498383836138d7565b600080608083901c156136cf57608092831c92015b604083901c156136e157604092831c92015b602083901c156136f357602092831c92015b601083901c1561370557601092831c92015b600883901c1561371757600892831c92015b600483901c1561372957600492831c92015b600283901c1561373b57600292831c92015b600183901c15610c415760010192915050565b600081831061375d5781610f80565b5090919050565b600060ff8216601f811115610c4157604051632cd44ac360e21b815260040160405180910390fd5b6060610e1c8484600085613909565b6001600160a01b0382166137f15760405162461bcd60e51b815260206004820152601f60248201527f45524332303a206d696e7420746f20746865207a65726f2061646472657373006044820152606401610ec9565b6137fd600083836136a7565b806002600082825461380f9190613f94565b90915550506001600160a01b038216600081815260208181526040808320805486019055518481527fddf252ad1be2c89b69c2b068fc378daa952ba7f163c4a11628f55a4df523b3ef910160405180910390a3610edc600083836136af565b60006001600160e01b038211156126ef5760405162461bcd60e51b815260206004820152602760248201527f53616665436173743a2076616c756520646f65736e27742066697420696e20326044820152663234206269747360c81b6064820152608401610ec9565b6001600160a01b03838116600090815260096020526040808220548584168352912054610e4992918216911683612d56565b60608247101561396a5760405162461bcd60e51b815260206004820152602660248201527f416464726573733a20696e73756666696369656e742062616c616e636520666f6044820152651c8818d85b1b60d21b6064820152608401610ec9565b600080866001600160a01b0316858760405161398691906140e3565b60006040518083038185875af1925050503d80600081146139c3576040519150601f19603f3d011682016040523d82523d6000602084013e6139c8565b606091505b50915091506139d9878383876139e4565b979650505050505050565b60608315613a53578251600003613a4c576001600160a01b0385163b613a4c5760405162461bcd60e51b815260206004820152601d60248201527f416464726573733a2063616c6c20746f206e6f6e2d636f6e74726163740000006044820152606401610ec9565b5081610e1c565b610e1c8383815115613a685781518083602001fd5b8060405162461bcd60e51b8152600401610ec99190613b33565b600060208284031215613a9457600080fd5b81356001600160e01b031981168114610f8057600080fd5b80356001600160a01b0381168114613ac357600080fd5b919050565b600060208284031215613ada57600080fd5b610f8082613aac565b60005b83811015613afe578181015183820152602001613ae6565b50506000910152565b60008151808452613b1f816020860160208601613ae3565b601f01601f19169290920160200192915050565b602081526000610f806020830184613b07565b60008060408385031215613b5957600080fd5b613b6283613aac565b946020939093013593505050565b634e487b7160e01b600052604160045260246000fd5b600080600060608486031215613b9b57600080fd5b613ba484613aac565b925060208401359150604084013567ffffffffffffffff811115613bc757600080fd5b8401601f81018613613bd857600080fd5b803567ffffffffffffffff811115613bf257613bf2613b70565b604051601f8201601f19908116603f0116810167ffffffffffffffff81118282101715613c2157613c21613b70565b604052818152828201602001881015613c3957600080fd5b816020840160208301376000602083830101528093505050509250925092565b600080600060608486031215613c6e57600080fd5b613c7784613aac565b9250613c8560208501613aac565b929592945050506040919091013590565b600060208284031215613ca857600080fd5b5035919050565b60008060408385031215613cc257600080fd5b82359150613cd260208401613aac565b90509250929050565b803560038110613ac357600080fd5b60008060408385031215613cfd57600080fd5b613b6283613cdb565b60ff60f81b8816815260e060208201526000613d2560e0830189613b07565b8281036040840152613d378189613b07565b606084018890526001600160a01b038716608085015260a0840186905283810360c08501528451808252602080870193509091019060005b81811015613d8d578351835260209384019390920191600101613d6f565b50909b9a5050505050505050505050565b600080600060608486031215613db357600080fd5b613c7784613cdb565b803560ff81168114613ac357600080fd5b60008060008060008060c08789031215613de657600080fd5b613def87613aac565b95506020870135945060408701359350613e0b60608801613dbc565b9598949750929560808101359460a0909101359350915050565b60008060408385031215613e3857600080fd5b613e4183613cdb565b9150613cd260208401613aac565b600060208284031215613e6157600080fd5b610f8082613cdb565b600080600080600080600060e0888a031215613e8557600080fd5b613e8e88613aac565b9650613e9c60208901613aac565b95506040880135945060608801359350613eb860808901613dbc565b9699959850939692959460a0840135945060c09093013592915050565b60008060408385031215613ee857600080fd5b613e4183613aac565b60008060408385031215613f0457600080fd5b613f0d83613aac565b9150602083013563ffffffff81168114613f2657600080fd5b809150509250929050565b600181811c90821680613f4557607f821691505b60208210810361192957634e487b7160e01b600052602260045260246000fd5b828152604060208201526000610e1c6040830184613b07565b634e487b7160e01b600052601160045260246000fd5b80820180821115610c4157610c41613f7e565b634e487b7160e01b600052602160045260246000fd5b634e487b7160e01b600052603260045260246000fd5b81810381811115610c4157610c41613f7e565b8082028115828204841417610c4157610c41613f7e565b634e487b7160e01b600052601260045260246000fd5b60008261403057634e487b7160e01b600052601260045260246000fd5b500490565b7f416363657373436f6e74726f6c3a206163636f756e742000000000000000000081526000835161406d816017850160208801613ae3565b7001034b99036b4b9b9b4b733903937b6329607d1b601791840191820152835161409e816028840160208801613ae3565b01602801949350505050565b6000602082840312156140bc57600080fd5b81518015158114610f8057600080fd5b6000816140db576140db613f7e565b506000190190565b600082516140f5818460208701613ae3565b919091019291505056fea26469706673582212202606847e994b74cdb9d12b2fb30342c177a4f3a10cf053c336a274c068fc7a2a64736f6c634300081c0033dec2bacdd2f05b59de34da9b523dff8be42e5e38e818c82fdb0bae774387a724",
  "linkReferences": {},
  "deployedLinkReferences": {}
}