{
  "_format": "hh-sol-artifact-1",
  "contractName": "ExchangeMonthlyLimitsModule",
  "sourceName": "contracts/compliance/modular/modules/ExchangeMonthlyLimitsModule.sol",
  "abi": [
    {
      "inputs": [
        {
          "internalType": "address",
          "name": "_exchangeID",
          "type": "address"
        }
      ],
      "name": "ONCHAINIDAlreadyTaggedAsExchange",
      "type": "error"
    },
    {
      "inputs": [
        {
          "internalType": "address",
          "name": "_exchangeID",
          "type": "address"
        }
      ],
      "name": "ONCHAINIDNotTaggedAsExchange",
      "type": "error"
    },
    {
      "anonymous": false,
      "inputs": [
        {
          "indexed": false,
          "internalType": "address",
          "name": "previousAdmin",
          "type": "address"
        },
        {
          "indexed": false,
          "internalType": "address",
          "name": "newAdmin",
          "type": "address"
        }
      ],
      "name": "AdminChanged",
      "type": "event"
    },
    {
      "anonymous": false,
      "inputs": [
        {
          "indexed": true,
          "internalType": "address",
          "name": "beacon",
          "type": "address"
        }
      ],
      "name": "BeaconUpgraded",
      "type": "event"
    },
    {
      "anonymous": false,
      "inputs": [
        {
          "indexed": true,
          "internalType": "address",
          "name": "_compliance",
          "type": "address"
        }
      ],
      "name": "ComplianceBound",
      "type": "event"
    },
    {
      "anonymous": false,
      "inputs": [
        {
          "indexed": true,
          "internalType": "address",
          "name": "_compliance",
          "type": "address"
        }
      ],
      "name": "ComplianceUnbound",
      "type": "event"
    },
    {
      "anonymous": false,
      "inputs": [
        {
          "indexed": false,
          "internalType": "address",
          "name": "_newExchangeID",
          "type": "address"
        }
      ],
      "name": "ExchangeIDAdded",
      "type": "event"
    },
    {
      "anonymous": false,
      "inputs": [
        {
          "indexed": false,
          "internalType": "address",
          "name": "_exchangeID",
          "type": "address"
        }
      ],
      "name": "ExchangeIDRemoved",
      "type": "event"
    },
    {
      "anonymous": false,
      "inputs": [
        {
          "indexed": true,
          "internalType": "address",
          "name": "compliance",
          "type": "address"
        },
        {
          "indexed": false,
          "internalType": "address",
          "name": "_exchangeID",
          "type": "address"
        },
        {
          "indexed": false,
          "internalType": "uint256",
          "name": "_newExchangeMonthlyLimit",
          "type": "uint256"
        }
      ],
      "name": "ExchangeMonthlyLimitUpdated",
      "type": "event"
    },
    {
      "anonymous": false,
      "inputs": [
        {
          "indexed": false,
          "internalType": "uint8",
          "name": "version",
          "type": "uint8"
        }
      ],
      "name": "Initialized",
      "type": "event"
    },
    {
      "anonymous": false,
      "inputs": [
        {
          "indexed": true,
          "internalType": "address",
          "name": "previousOwner",
          "type": "address"
        },
        {
          "indexed": true,
          "internalType": "address",
          "name": "newOwner",
          "type": "address"
        }
      ],
      "name": "OwnershipTransferred",
      "type": "event"
    },
    {
      "anonymous": false,
      "inputs": [
        {
          "indexed": true,
          "internalType": "address",
          "name": "implementation",
          "type": "address"
        }
      ],
      "name": "Upgraded",
      "type": "event"
    },
    {
      "inputs": [
        {
          "internalType": "address",
          "name": "_exchangeID",
          "type": "address"
        }
      ],
      "name": "addExchangeID",
      "outputs": [],
      "stateMutability": "nonpayable",
      "type": "function"
    },
    {
      "inputs": [
        {
          "internalType": "address",
          "name": "_compliance",
          "type": "address"
        }
      ],
      "name": "bindCompliance",
      "outputs": [],
      "stateMutability": "nonpayable",
      "type": "function"
    },
    {
      "inputs": [
        {
          "internalType": "address",
          "name": "",
          "type": "address"
        }
      ],
      "name": "canComplianceBind",
      "outputs": [
        {
          "internalType": "bool",
          "name": "",
          "type": "bool"
        }
      ],
      "stateMutability": "view",
      "type": "function"
    },
    {
      "inputs": [
        {
          "internalType": "address",
          "name": "compliance",
          "type": "address"
        },
        {
          "internalType": "address",
          "name": "_exchangeID",
          "type": "address"
        }
      ],
      "name": "getExchangeMonthlyLimit",
      "outputs": [
        {
          "internalType": "uint256",
          "name": "",
          "type": "uint256"
        }
      ],
      "stateMutability": "view",
      "type": "function"
    },
    {
      "inputs": [
        {
          "internalType": "address",
          "name": "compliance",
          "type": "address"
        },
        {
          "internalType": "address",
          "name": "_exchangeID",
          "type": "address"
        },
        {
          "internalType": "address",
          "name": "_investorID",
          "type": "address"
        }
      ],
      "name": "getMonthlyCounter",
      "outputs": [
        {
          "internalType": "uint256",
          "name": "",
          "type": "uint256"
        }
      ],
      "stateMutability": "view",
      "type": "function"
    },
    {
      "inputs": [
        {
          "internalType": "address",
          "name": "compliance",
          "type": "address"
        },
        {
          "internalType": "address",
          "name": "_exchangeID",
          "type": "address"
        },
        {
          "internalType": "address",
          "name": "_investorID",
          "type": "address"
        }
      ],
      "name": "getMonthlyTimer",
      "outputs": [
        {
          "internalType": "uint256",
          "name": "",
          "type": "uint256"
        }
      ],
      "stateMutability": "view",
      "type": "function"
    },
    {
      "inputs": [],
      "name": "initialize",
      "outputs": [],
      "stateMutability": "nonpayable",
      "type": "function"
    },
    {
      "inputs": [
        {
          "internalType": "address",
          "name": "_compliance",
          "type": "address"
        }
      ],
      "name": "isComplianceBound",
      "outputs": [
        {
          "internalType": "bool",
          "name": "",
          "type": "bool"
        }
      ],
      "stateMutability": "view",
      "type": "function"
    },
    {
      "inputs": [
        {
          "internalType": "address",
          "name": "_exchangeID",
          "type": "address"
        }
      ],
      "name": "isExchangeID",
      "outputs": [
        {
          "internalType": "bool",
          "name": "",
          "type": "bool"
        }
      ],
      "stateMutability": "view",
      "type": "function"
    },
    {
      "inputs": [],
      "name": "isPlugAndPlay",
      "outputs": [
        {
          "internalType": "bool",
          "name": "",
          "type": "bool"
        }
      ],
      "stateMutability": "pure",
      "type": "function"
    },
    {
      "inputs": [
        {
          "internalType": "address",
          "name": "",
          "type": "address"
        },
        {
          "internalType": "uint256",
          "name": "",
          "type": "uint256"
        }
      ],
      "name": "moduleBurnAction",
      "outputs": [],
      "stateMutability": "nonpayable",
      "type": "function"
    },
    {
      "inputs": [
        {
          "internalType": "address",
          "name": "_from",
          "type": "address"
        },
        {
          "internalType": "address",
          "name": "_to",
          "type": "address"
        },
        {
          "internalType": "uint256",
          "name": "_value",
          "type": "uint256"
        },
        {
          "internalType": "address",
          "name": "_compliance",
          "type": "address"
        }
      ],
      "name": "moduleCheck",
      "outputs": [
        {
          "internalType": "bool",
          "name": "",
          "type": "bool"
        }
      ],
      "stateMutability": "view",
      "type": "function"
    },
    {
      "inputs": [
        {
          "internalType": "address",
          "name": "",
          "type": "address"
        },
        {
          "internalType": "uint256",
          "name": "",
          "type": "uint256"
        }
      ],
      "name": "moduleMintAction",
      "outputs": [],
      "stateMutability": "nonpayable",
      "type": "function"
    },
    {
      "inputs": [
        {
          "internalType": "address",
          "name": "_from",
          "type": "address"
        },
        {
          "internalType": "address",
          "name": "_to",
          "type": "address"
        },
        {
          "internalType": "uint256",
          "name": "_value",
          "type": "uint256"
        }
      ],
      "name": "moduleTransferAction",
      "outputs": [],
      "stateMutability": "nonpayable",
      "type": "function"
    },
    {
      "inputs": [],
      "name": "name",
      "outputs": [
        {
          "internalType": "string",
          "name": "_name",
          "type": "string"
        }
      ],
      "stateMutability": "pure",
      "type": "function"
    },
    {
      "inputs": [],
      "name": "owner",
      "outputs": [
        {
          "internalType": "address",
          "name": "",
          "type": "address"
        }
      ],
      "stateMutability": "view",
      "type": "function"
    },
    {
      "inputs": [],
      "name": "proxiableUUID",
      "outputs": [
        {
          "internalType": "bytes32",
          "name": "",
          "type": "bytes32"
        }
      ],
      "stateMutability": "view",
      "type": "function"
    },
    {
      "inputs": [
        {
          "internalType": "address",
          "name": "_exchangeID",
          "type": "address"
        }
      ],
      "name": "removeExchangeID",
      "outputs": [],
      "stateMutability": "nonpayable",
      "type": "function"
    },
    {
      "inputs": [],
      "name": "renounceOwnership",
      "outputs": [],
      "stateMutability": "nonpayable",
      "type": "function"
    },
    {
      "inputs": [
        {
          "internalType": "address",
          "name": "_exchangeID",
          "type": "address"
        },
        {
          "internalType": "uint256",
          "name": "_newExchangeMonthlyLimit",
          "type": "uint256"
        }
      ],
      "name": "setExchangeMonthlyLimit",
      "outputs": [],
      "stateMutability": "nonpayable",
      "type": "function"
    },
    {
      "inputs": [
        {
          "internalType": "address",
          "name": "newOwner",
          "type": "address"
        }
      ],
      "name": "transferOwnership",
      "outputs": [],
      "stateMutability": "nonpayable",
      "type": "function"
    },
    {
      "inputs": [
        {
          "internalType": "address",
          "name": "_compliance",
          "type": "address"
        }
      ],
      "name": "unbindCompliance",
      "outputs": [],
      "stateMutability": "nonpayable",
      "type": "function"
    },
    {
      "inputs": [
        {
          "internalType": "address",
          "name": "newImplementation",
          "type": "address"
        }
      ],
      "name": "upgradeTo",
      "outputs": [],
      "stateMutability": "nonpayable",
      "type": "function"
    },
    {
      "inputs": [
        {
          "internalType": "address",
          "name": "newImplementation",
          "type": "address"
        },
        {
          "internalType": "bytes",
          "name": "data",
          "type": "bytes"
        }
      ],
      "name": "upgradeToAndCall",
      "outputs": [],
      "stateMutability": "payable",
      "type": "function"
    }
  ],
  "bytecode": "0x60a0806040523461003157306080526119ce90816100378239608051818181610680015281816107a70152610b7b0152f35b600080fdfe6040608081526004908136101561001557600080fd5b600091823560e01c8063013b7ce4146110505780630694a5fb14610fb757806306fdde0314610f375780632bb5e72114610e9d5780632cb7e1ec14610d495780633659cfe614610b54578063372491a2146101bd5780634a93254414610a795780634cf4d29514610a2e5780634f1ef2861461072d57806352d1902d1461066b578063616c65891461060c578063715018a6146105af57806374436d97146105175780638129fc1c146103c95780638da5cb5b146103a0578063a9336def1461030d578063bcc21053146102e7578063c5b999691461029e578063cafa20d514610240578063d22579fb14610202578063e6f5e807146101e6578063f104a8c9146101bd5763f2fde38b1461012957600080fd5b346101b95760203660031901126101b9576101426110a2565b9161014b6111a2565b6001600160a01b038316156101675783610164846111fa565b80f35b906020608492519162461bcd60e51b8352820152602660248201527f4f776e61626c653a206e6577206f776e657220697320746865207a65726f206160448201526564647265737360d01b6064820152fd5b8280fd5b5050346101e2573660031901126101df576101d66110a2565b50610164611578565b80fd5b5080fd5b5050346101e257816003193601126101e2576020905160018152f35b5050346101e25760203660031901126101e25760209160ff9082906001600160a01b0361022d6110a2565b16815260cb855220541690519015158152f35b5050346101e25760603660031901126101e2578060209261025f6110a2565b6102676110bd565b906102706110d3565b6001600160a01b03918216845260ca8752848420928216845291865283832091168252845220549051908152f35b5050346101e257806003193601126101e257806020926102bc6110a2565b6102c46110bd565b6001600160a01b03918216835260c9865283832091168252845220549051908152f35b5050346101e25760203660031901126101e2576020906103056110a2565b505160018152f35b5050346101e257806003193601126101e2577f14902018104a24b79253a1e29e979c8b957bc80c71b062ca985f879888e6ea1e6103486110a2565b9160243533855260008051602061197983398151915260205261037060ff83872054166114cc565b33855260c96020528185209360018060a01b0316938486526020528082862055815193845260208401523392a280f35b5050346101e257816003193601126101e25760335490516001600160a01b039091168152602090f35b50346101b957826003193601126101b957825460ff8160081c16159182809361050a575b80156104f3575b15610499575060ff198116600117845581610488575b5061042d60ff845460081c1661041f81611518565b61042881611518565b611518565b610436336111fa565b82549061044860ff8360081c16611518565b610450578280f35b61ff001916825551600181527f7f26b83ff96e1f2b6a682f133852f6798a09c465da95921460cefb384740249890602090a138808280f35b61ffff19166101011783553861040a565b608490602085519162461bcd60e51b8352820152602e60248201527f496e697469616c697a61626c653a20636f6e747261637420697320616c72656160448201526d191e481a5b9a5d1a585b1a5e995960921b6064820152fd5b50303b1580156103f45750600160ff8316146103f4565b50600160ff8316106103ed565b5090346101b95760203660031901126101b9576105326110a2565b61053a6111a2565b6001600160a01b031680845260cb6020528184205490929060ff161561059a5750816020917fc59743ca46d36b7cf42c36211a2fbef12e10aec1bfc9d39eccf91b6976a260f593855260cb835280852060ff19815416905551908152a180f35b826024925191630120783160e61b8352820152fd5b83346101df57806003193601126101df576105c86111a2565b603380546001600160a01b0319811690915581906001600160a01b03167f8be0079c531659141344cd1fd0a4f28419497f9722a3daafe3b4186f6b6457e08280a380f35b5050346101e25760603660031901126101e25760018160209361062d6110a2565b6106356110bd565b9061063e6110d3565b91858060a01b03809216845260ca8852818585209116845287528383209116825285522001549051908152f35b5082346101df57806003193601126101df57507f00000000000000000000000000000000000000000000000000000000000000006001600160a01b031630036106c557602082516000805160206119598339815191528152f35b6020608492519162461bcd60e51b8352820152603860248201527f555550535570677261646561626c653a206d757374206e6f742062652063616c60448201527f6c6564207468726f7567682064656c656761746563616c6c00000000000000006064820152fd5b5090806003193601126101b9576107426110a2565b906024359067ffffffffffffffff8211610a2a5736602383011215610a2a578184013561076e81611186565b61077a83519182611164565b818152866020948583019336602482840101116101b9578060248893018637830101526001600160a01b037f00000000000000000000000000000000000000000000000000000000000000008116906107d530831415611243565b6107f26000805160206119598339815191529282845416146112a4565b6107fa6111a2565b7f4910fdfa16fed3260ed0e7147f7cc6da11a60208b5b9406d12a635614ffd91435460ff1615610834575050505050506101649150611305565b869293949596169085516352d1902d60e01b815287818a81865afa8a91816109f7575b506108b657865162461bcd60e51b8152808a01899052602e60248201527f45524331393637557067726164653a206e657720696d706c656d656e7461746960448201526d6f6e206973206e6f74205555505360901b6064820152608490fd5b9791929396959497036109a257506108cd82611305565b7fbc7cd75a20ee27fd9adebab32041f755214dbc6bffa90cc0225b39da2e5c2d3b8780a28584511580159061099a575b61090b575b50505050505080f35b806109849684519661091c88611132565b602788527f416464726573733a206c6f772d6c6576656c2064656c65676174652063616c6c87890152660819985a5b195960ca1b868901525190845af4913d15610990573d61097661096d82611186565b92519283611164565b81528681943d92013e611395565b50388080808085610902565b5060609250611395565b5060016108fd565b835162461bcd60e51b8152908101859052602960248201527f45524331393637557067726164653a20756e737570706f727465642070726f786044820152681a58589b195555525160ba1b6064820152608490fd5b9091508881813d8311610a23575b610a0f8183611164565b81010312610a1f57519038610857565b8a80fd5b503d610a05565b8480fd5b5050346101e25760203660031901126101e25760209160ff9082906001600160a01b03610a596110a2565b168152600080516020611979833981519152855220541690519015158152f35b5090346101b95760203660031901126101b9576001600160a01b03610a9c6110a2565b1691610aa983151561142a565b828452600080516020611979833981519152908160205260ff8386205416610b115750610ad7833314611476565b8284526020528220805460ff191660011790557f1f7b76c58fb697eb53c6c7c1becb96911516a136e24d7ced386b2355358b75a38280a280f35b606490602084519162461bcd60e51b8352820152601860248201527f636f6d706c69616e636520616c726561647920626f756e6400000000000000006044820152fd5b5090346101b957602080600319360112610d4557610b706110a2565b916001600160a01b037f00000000000000000000000000000000000000000000000000000000000000008116610ba830821415611243565b610bc56000805160206119598339815191529183835416146112a4565b610bcd6111a2565b8251908482019282841067ffffffffffffffff851117610d32578385528883527f4910fdfa16fed3260ed0e7147f7cc6da11a60208b5b9406d12a635614ffd91435460ff1615610c27575050505050506101649150611305565b869293949596169085516352d1902d60e01b815287818a81865afa8a9181610d03575b50610ca957865162461bcd60e51b8152808a01899052602e60248201527f45524331393637557067726164653a206e657720696d706c656d656e7461746960448201526d6f6e206973206e6f74205555505360901b6064820152608490fd5b9791929396959497036109a25750610cc082611305565b7fbc7cd75a20ee27fd9adebab32041f755214dbc6bffa90cc0225b39da2e5c2d3b8780a285845115801590610cfc5761090b5750505050505080f35b50806108fd565b9091508881813d8311610d2b575b610d1b8183611164565b81010312610a1f57519038610c4a565b503d610d11565b634e487b7160e01b895260418852602489fd5b8380fd5b50346101b95760603660031901126101b957610d636110a2565b610d6b6110bd565b913385526020916000805160206119798339815191528352610d9260ff86882054166114cc565b610da6610d9f8233611812565b9433611812565b9160018060a01b03928381169283895260cb865260ff888a2054169081610e8b575b50610dd1578780f35b33600090815260ca602090815260408083206001600160a01b039485168452825280832093891683529290522060010154421015610e3e575b5033865260ca8352848620908652825283852092168452528120610e3160443582546115a1565b9055388080808080808780f35b33875260ca84528587208288528452858720838616885284528587209062278d00420190814211610e785750600182015586905538610e0a565b634e487b7160e01b895260119052602488fd5b610e96915033611736565b1538610dc8565b5090346101b95760203660031901126101b957610eb86110a2565b610ec06111a2565b6001600160a01b031680845260cb6020528184205490929060ff16610f225750816020917fca661533a567195376b79f20fcbcca20e62ceea1d43efacba5f8028329da8e6b93855260cb8352808520600160ff1982541617905551908152a180f35b8260249251916345d1498b60e01b8352820152fd5b509190346101e257816003193601126101e2578051918183019083821067ffffffffffffffff831117610fa45750610fa093508152601b82527f45786368616e67654d6f6e74686c794c696d6974734d6f64756c650000000000602083015251918291826110e9565b0390f35b634e487b7160e01b815260418552602490fd5b5050346101e25760203660031901126101e257610fd26110a2565b903383526000805160206119798339815191529182602052610ff960ff83862054166114cc565b6001600160a01b03169161100e83151561142a565b611019833314611476565b8284526020528220805460ff191690557f408b49d9be1c914c52a0227e18a077e5a892dddf32a26cfa94a5d9708fad77188280a280f35b5050346101e25760803660031901126101e25761106b6110a2565b6110736110bd565b606435936001600160a01b03851685036101df57509261109991602094604435916115c4565b90519015158152f35b600435906001600160a01b03821682036110b857565b600080fd5b602435906001600160a01b03821682036110b857565b604435906001600160a01b03821682036110b857565b6020808252825181830181905290939260005b82811061111e57505060409293506000838284010152601f8019910116010190565b8181018601518482016040015285016110fc565b6060810190811067ffffffffffffffff82111761114e57604052565b634e487b7160e01b600052604160045260246000fd5b90601f8019910116810190811067ffffffffffffffff82111761114e57604052565b67ffffffffffffffff811161114e57601f01601f191660200190565b6033546001600160a01b031633036111b657565b606460405162461bcd60e51b815260206004820152602060248201527f4f776e61626c653a2063616c6c6572206973206e6f7420746865206f776e65726044820152fd5b603380546001600160a01b039283166001600160a01b0319821681179092559091167f8be0079c531659141344cd1fd0a4f28419497f9722a3daafe3b4186f6b6457e0600080a3565b1561124a57565b60405162461bcd60e51b815260206004820152602c60248201527f46756e6374696f6e206d7573742062652063616c6c6564207468726f7567682060448201526b19195b1959d85d1958d85b1b60a21b6064820152608490fd5b156112ab57565b60405162461bcd60e51b815260206004820152602c60248201527f46756e6374696f6e206d7573742062652063616c6c6564207468726f7567682060448201526b6163746976652070726f787960a01b6064820152608490fd5b803b1561133a5760008051602061195983398151915280546001600160a01b0319166001600160a01b03909216919091179055565b60405162461bcd60e51b815260206004820152602d60248201527f455243313936373a206e657720696d706c656d656e746174696f6e206973206e60448201526c1bdd08184818dbdb9d1c9858dd609a1b6064820152608490fd5b919290156113f757508151156113a9575090565b3b156113b25790565b60405162461bcd60e51b815260206004820152601d60248201527f416464726573733a2063616c6c20746f206e6f6e2d636f6e74726163740000006044820152606490fd5b82519091501561140a5750805190602001fd5b60405162461bcd60e51b815290819061142690600483016110e9565b0390fd5b1561143157565b60405162461bcd60e51b815260206004820152601f60248201527f696e76616c696420617267756d656e74202d207a65726f2061646472657373006044820152606490fd5b1561147d57565b60405162461bcd60e51b815260206004820152602160248201527f6f6e6c7920636f6d706c69616e636520636f6e74726163742063616e2063616c6044820152601b60fa1b6064820152608490fd5b156114d357565b60405162461bcd60e51b815260206004820152601e60248201527f6f6e6c7920626f756e6420636f6d706c69616e63652063616e2063616c6c00006044820152606490fd5b1561151f57565b60405162461bcd60e51b815260206004820152602b60248201527f496e697469616c697a61626c653a20636f6e7472616374206973206e6f74206960448201526a6e697469616c697a696e6760a81b6064820152608490fd5b3360005260008051602061197983398151915260205261159f60ff604060002054166114cc565b565b919082018092116115ae57565b634e487b7160e01b600052601160045260246000fd5b9192916001600160a01b0390818116158015611707575b6116fd576115e99084611812565b9281841660009581875260209260cb845260409560ff878a2054166116ef576116129082611812565b9685881695868a5260cb865260ff888b205416156116e057821697888a5260c98652878a20878b528652878a205484116116d45761168192600192604092848060a01b03908160009416845260ca60205281858520911684526020528383209116825260205220015442101590565b6116c8576116a99186885260ca845285882085895284528588209088528352848720546115a1565b93855260c9815282852091855252822054106116c55750600190565b90565b50505050505050600190565b50505050505050505090565b50505050505050505050600190565b505050505050505050600190565b5050505050600190565b506117128185611736565b6115db565b908160209103126110b857516001600160a01b03811681036110b85790565b604051630d47dbe560e31b8152602092916001600160a01b039084908390600490829085165afa9283156117d45784926000946117e0575b506040516307feec1960e21b815290821660048201529283916024918391165afa9182156117d4576000926117a257505090565b81813d83116117cd575b6117b68183611164565b810103126101e257519081151582036101df575090565b503d6117ac565b6040513d6000823e3d90fd5b602491945061180490843d861161180b575b6117fc8183611164565b810190611717565b939061176e565b503d6117f2565b60408051630d47dbe560e31b81526001600160a01b03939192602092919083908290600490829089165afa9081156119305792809291869460009161193b575b5060048651809681936304d3863d60e21b8352165afa928315611930579085916000946118f2575b508451633c3ad79560e21b8152908216600482015292829184916024918391165afa9283156118e857506000926118b2575b50501690565b81813d83116118e1575b6118c68183611164565b810103126101e257519082821682036101df575038806118ac565b503d6118bc565b513d6000823e3d90fd5b909391508281813d8311611929575b61190b8183611164565b810103126101e257519085821682036101df5750918490602461187a565b503d611901565b84513d6000823e3d90fd5b6119529150823d841161180b576117fc8183611164565b3861185256fe360894a13ba1a3210667c828492db98dca3e2076cc3735a920a3ca505d382bbcf6cc97de1266c180cd39f3b311632644143ce7873d2927755382ad4b39e8ae00a2646970667358221220b1a10f34d756f21e12da6f17b11545bdec5a8030c2be87f7717f828cae96c66e64736f6c63430008110033",
  "linkReferences": {},
  "deployedLinkReferences": {}
}