{
  "_format": "hh-sol-artifact-1",
  "contractName": "TREXImplementationAuthority",
  "sourceName": "contracts/proxy/authority/TREXImplementationAuthority.sol",
  "abi": [
    {
      "inputs": [
        {
          "internalType": "bool",
          "name": "referenceStatus",
          "type": "bool"
        },
        {
          "internalType": "address",
          "name": "trexFactory",
          "type": "address"
        },
        {
          "internalType": "address",
          "name": "iaFactory",
          "type": "address"
        }
      ],
      "stateMutability": "nonpayable",
      "type": "constructor"
    },
    {
      "anonymous": false,
      "inputs": [
        {
          "indexed": true,
          "internalType": "address",
          "name": "iaFactory",
          "type": "address"
        }
      ],
      "name": "IAFactorySet",
      "type": "event"
    },
    {
      "anonymous": false,
      "inputs": [
        {
          "indexed": true,
          "internalType": "address",
          "name": "_token",
          "type": "address"
        },
        {
          "indexed": true,
          "internalType": "address",
          "name": "_newImplementationAuthority",
          "type": "address"
        }
      ],
      "name": "ImplementationAuthorityChanged",
      "type": "event"
    },
    {
      "anonymous": false,
      "inputs": [
        {
          "indexed": false,
          "internalType": "bool",
          "name": "referenceStatus",
          "type": "bool"
        },
        {
          "indexed": false,
          "internalType": "address",
          "name": "trexFactory",
          "type": "address"
        }
      ],
      "name": "ImplementationAuthoritySet",
      "type": "event"
    },
    {
      "anonymous": false,
      "inputs": [
        {
          "indexed": true,
          "internalType": "address",
          "name": "previousOwner",
          "type": "address"
        },
        {
          "indexed": true,
          "internalType": "address",
          "name": "newOwner",
          "type": "address"
        }
      ],
      "name": "OwnershipTransferred",
      "type": "event"
    },
    {
      "anonymous": false,
      "inputs": [
        {
          "indexed": true,
          "internalType": "address",
          "name": "trexFactory",
          "type": "address"
        }
      ],
      "name": "TREXFactorySet",
      "type": "event"
    },
    {
      "anonymous": false,
      "inputs": [
        {
          "components": [
            {
              "internalType": "uint8",
              "name": "major",
              "type": "uint8"
            },
            {
              "internalType": "uint8",
              "name": "minor",
              "type": "uint8"
            },
            {
              "internalType": "uint8",
              "name": "patch",
              "type": "uint8"
            }
          ],
          "indexed": true,
          "internalType": "struct ITREXImplementationAuthority.Version",
          "name": "version",
          "type": "tuple"
        },
        {
          "components": [
            {
              "internalType": "address",
              "name": "tokenImplementation",
              "type": "address"
            },
            {
              "internalType": "address",
              "name": "ctrImplementation",
              "type": "address"
            },
            {
              "internalType": "address",
              "name": "irImplementation",
              "type": "address"
            },
            {
              "internalType": "address",
              "name": "irsImplementation",
              "type": "address"
            },
            {
              "internalType": "address",
              "name": "tirImplementation",
              "type": "address"
            },
            {
              "internalType": "address",
              "name": "mcImplementation",
              "type": "address"
            }
          ],
          "indexed": true,
          "internalType": "struct ITREXImplementationAuthority.TREXContracts",
          "name": "trex",
          "type": "tuple"
        }
      ],
      "name": "TREXVersionAdded",
      "type": "event"
    },
    {
      "anonymous": false,
      "inputs": [
        {
          "components": [
            {
              "internalType": "uint8",
              "name": "major",
              "type": "uint8"
            },
            {
              "internalType": "uint8",
              "name": "minor",
              "type": "uint8"
            },
            {
              "internalType": "uint8",
              "name": "patch",
              "type": "uint8"
            }
          ],
          "indexed": true,
          "internalType": "struct ITREXImplementationAuthority.Version",
          "name": "version",
          "type": "tuple"
        },
        {
          "components": [
            {
              "internalType": "address",
              "name": "tokenImplementation",
              "type": "address"
            },
            {
              "internalType": "address",
              "name": "ctrImplementation",
              "type": "address"
            },
            {
              "internalType": "address",
              "name": "irImplementation",
              "type": "address"
            },
            {
              "internalType": "address",
              "name": "irsImplementation",
              "type": "address"
            },
            {
              "internalType": "address",
              "name": "tirImplementation",
              "type": "address"
            },
            {
              "internalType": "address",
              "name": "mcImplementation",
              "type": "address"
            }
          ],
          "indexed": true,
          "internalType": "struct ITREXImplementationAuthority.TREXContracts",
          "name": "trex",
          "type": "tuple"
        }
      ],
      "name": "TREXVersionFetched",
      "type": "event"
    },
    {
      "anonymous": false,
      "inputs": [
        {
          "components": [
            {
              "internalType": "uint8",
              "name": "major",
              "type": "uint8"
            },
            {
              "internalType": "uint8",
              "name": "minor",
              "type": "uint8"
            },
            {
              "internalType": "uint8",
              "name": "patch",
              "type": "uint8"
            }
          ],
          "indexed": true,
          "internalType": "struct ITREXImplementationAuthority.Version",
          "name": "version",
          "type": "tuple"
        }
      ],
      "name": "VersionUpdated",
      "type": "event"
    },
    {
      "inputs": [
        {
          "components": [
            {
              "internalType": "uint8",
              "name": "major",
              "type": "uint8"
            },
            {
              "internalType": "uint8",
              "name": "minor",
              "type": "uint8"
            },
            {
              "internalType": "uint8",
              "name": "patch",
              "type": "uint8"
            }
          ],
          "internalType": "struct ITREXImplementationAuthority.Version",
          "name": "_version",
          "type": "tuple"
        },
        {
          "components": [
            {
              "internalType": "address",
              "name": "tokenImplementation",
              "type": "address"
            },
            {
              "internalType": "address",
              "name": "ctrImplementation",
              "type": "address"
            },
            {
              "internalType": "address",
              "name": "irImplementation",
              "type": "address"
            },
            {
              "internalType": "address",
              "name": "irsImplementation",
              "type": "address"
            },
            {
              "internalType": "address",
              "name": "tirImplementation",
              "type": "address"
            },
            {
              "internalType": "address",
              "name": "mcImplementation",
              "type": "address"
            }
          ],
          "internalType": "struct ITREXImplementationAuthority.TREXContracts",
          "name": "_trex",
          "type": "tuple"
        }
      ],
      "name": "addAndUseTREXVersion",
      "outputs": [],
      "stateMutability": "nonpayable",
      "type": "function"
    },
    {
      "inputs": [
        {
          "components": [
            {
              "internalType": "uint8",
              "name": "major",
              "type": "uint8"
            },
            {
              "internalType": "uint8",
              "name": "minor",
              "type": "uint8"
            },
            {
              "internalType": "uint8",
              "name": "patch",
              "type": "uint8"
            }
          ],
          "internalType": "struct ITREXImplementationAuthority.Version",
          "name": "_version",
          "type": "tuple"
        },
        {
          "components": [
            {
              "internalType": "address",
              "name": "tokenImplementation",
              "type": "address"
            },
            {
              "internalType": "address",
              "name": "ctrImplementation",
              "type": "address"
            },
            {
              "internalType": "address",
              "name": "irImplementation",
              "type": "address"
            },
            {
              "internalType": "address",
              "name": "irsImplementation",
              "type": "address"
            },
            {
              "internalType": "address",
              "name": "tirImplementation",
              "type": "address"
            },
            {
              "internalType": "address",
              "name": "mcImplementation",
              "type": "address"
            }
          ],
          "internalType": "struct ITREXImplementationAuthority.TREXContracts",
          "name": "_trex",
          "type": "tuple"
        }
      ],
      "name": "addTREXVersion",
      "outputs": [],
      "stateMutability": "nonpayable",
      "type": "function"
    },
    {
      "inputs": [
        {
          "internalType": "address",
          "name": "_token",
          "type": "address"
        },
        {
          "internalType": "address",
          "name": "_newImplementationAuthority",
          "type": "address"
        }
      ],
      "name": "changeImplementationAuthority",
      "outputs": [],
      "stateMutability": "nonpayable",
      "type": "function"
    },
    {
      "inputs": [
        {
          "components": [
            {
              "internalType": "uint8",
              "name": "major",
              "type": "uint8"
            },
            {
              "internalType": "uint8",
              "name": "minor",
              "type": "uint8"
            },
            {
              "internalType": "uint8",
              "name": "patch",
              "type": "uint8"
            }
          ],
          "internalType": "struct ITREXImplementationAuthority.Version",
          "name": "_version",
          "type": "tuple"
        }
      ],
      "name": "fetchVersion",
      "outputs": [],
      "stateMutability": "nonpayable",
      "type": "function"
    },
    {
      "inputs": [],
      "name": "getCTRImplementation",
      "outputs": [
        {
          "internalType": "address",
          "name": "",
          "type": "address"
        }
      ],
      "stateMutability": "view",
      "type": "function"
    },
    {
      "inputs": [
        {
          "components": [
            {
              "internalType": "uint8",
              "name": "major",
              "type": "uint8"
            },
            {
              "internalType": "uint8",
              "name": "minor",
              "type": "uint8"
            },
            {
              "internalType": "uint8",
              "name": "patch",
              "type": "uint8"
            }
          ],
          "internalType": "struct ITREXImplementationAuthority.Version",
          "name": "_version",
          "type": "tuple"
        }
      ],
      "name": "getContracts",
      "outputs": [
        {
          "components": [
            {
              "internalType": "address",
              "name": "tokenImplementation",
              "type": "address"
            },
            {
              "internalType": "address",
              "name": "ctrImplementation",
              "type": "address"
            },
            {
              "internalType": "address",
              "name": "irImplementation",
              "type": "address"
            },
            {
              "internalType": "address",
              "name": "irsImplementation",
              "type": "address"
            },
            {
              "internalType": "address",
              "name": "tirImplementation",
              "type": "address"
            },
            {
              "internalType": "address",
              "name": "mcImplementation",
              "type": "address"
            }
          ],
          "internalType": "struct ITREXImplementationAuthority.TREXContracts",
          "name": "",
          "type": "tuple"
        }
      ],
      "stateMutability": "view",
      "type": "function"
    },
    {
      "inputs": [],
      "name": "getCurrentVersion",
      "outputs": [
        {
          "components": [
            {
              "internalType": "uint8",
              "name": "major",
              "type": "uint8"
            },
            {
              "internalType": "uint8",
              "name": "minor",
              "type": "uint8"
            },
            {
              "internalType": "uint8",
              "name": "patch",
              "type": "uint8"
            }
          ],
          "internalType": "struct ITREXImplementationAuthority.Version",
          "name": "",
          "type": "tuple"
        }
      ],
      "stateMutability": "view",
      "type": "function"
    },
    {
      "inputs": [],
      "name": "getIRImplementation",
      "outputs": [
        {
          "internalType": "address",
          "name": "",
          "type": "address"
        }
      ],
      "stateMutability": "view",
      "type": "function"
    },
    {
      "inputs": [],
      "name": "getIRSImplementation",
      "outputs": [
        {
          "internalType": "address",
          "name": "",
          "type": "address"
        }
      ],
      "stateMutability": "view",
      "type": "function"
    },
    {
      "inputs": [],
      "name": "getMCImplementation",
      "outputs": [
        {
          "internalType": "address",
          "name": "",
          "type": "address"
        }
      ],
      "stateMutability": "view",
      "type": "function"
    },
    {
      "inputs": [],
      "name": "getReferenceContract",
      "outputs": [
        {
          "internalType": "address",
          "name": "",
          "type": "address"
        }
      ],
      "stateMutability": "view",
      "type": "function"
    },
    {
      "inputs": [],
      "name": "getTIRImplementation",
      "outputs": [
        {
          "internalType": "address",
          "name": "",
          "type": "address"
        }
      ],
      "stateMutability": "view",
      "type": "function"
    },
    {
      "inputs": [],
      "name": "getTREXFactory",
      "outputs": [
        {
          "internalType": "address",
          "name": "",
          "type": "address"
        }
      ],
      "stateMutability": "view",
      "type": "function"
    },
    {
      "inputs": [],
      "name": "getTokenImplementation",
      "outputs": [
        {
          "internalType": "address",
          "name": "",
          "type": "address"
        }
      ],
      "stateMutability": "view",
      "type": "function"
    },
    {
      "inputs": [],
      "name": "isReferenceContract",
      "outputs": [
        {
          "internalType": "bool",
          "name": "",
          "type": "bool"
        }
      ],
      "stateMutability": "view",
      "type": "function"
    },
    {
      "inputs": [],
      "name": "owner",
      "outputs": [
        {
          "internalType": "address",
          "name": "",
          "type": "address"
        }
      ],
      "stateMutability": "view",
      "type": "function"
    },
    {
      "inputs": [],
      "name": "renounceOwnership",
      "outputs": [],
      "stateMutability": "nonpayable",
      "type": "function"
    },
    {
      "inputs": [
        {
          "internalType": "address",
          "name": "iaFactory",
          "type": "address"
        }
      ],
      "name": "setIAFactory",
      "outputs": [],
      "stateMutability": "nonpayable",
      "type": "function"
    },
    {
      "inputs": [
        {
          "internalType": "address",
          "name": "trexFactory",
          "type": "address"
        }
      ],
      "name": "setTREXFactory",
      "outputs": [],
      "stateMutability": "nonpayable",
      "type": "function"
    },
    {
      "inputs": [
        {
          "internalType": "address",
          "name": "newOwner",
          "type": "address"
        }
      ],
      "name": "transferOwnership",
      "outputs": [],
      "stateMutability": "nonpayable",
      "type": "function"
    },
    {
      "inputs": [
        {
          "components": [
            {
              "internalType": "uint8",
              "name": "major",
              "type": "uint8"
            },
            {
              "internalType": "uint8",
              "name": "minor",
              "type": "uint8"
            },
            {
              "internalType": "uint8",
              "name": "patch",
              "type": "uint8"
            }
          ],
          "internalType": "struct ITREXImplementationAuthority.Version",
          "name": "_version",
          "type": "tuple"
        }
      ],
      "name": "useTREXVersion",
      "outputs": [],
      "stateMutability": "nonpayable",
      "type": "function"
    }
  ],
  "bytecode": "0x6080346200015057601f6200257d38819003918201601f19168301916001600160401b0383118484101762000155578084926060946040528339810103126200015057805180151580910362000150577f2a6aba4ff896a38777fb29a590abf5d340a4ba64314bcadf68be9c3ee92b485a60406200008d8162000085602087016200016b565b95016200016b565b600080546001600160a01b031980821633908117845585519398919793946001600160a01b0394929385929083167f8be0079c531659141344cd1fd0a4f28419497f9722a3daafe3b4186f6b6457e08c80a3600380546001600160a81b03191660ff851617600886901b610100600160a81b03161790556004805490991691169081179097558352166020820152a17f5fb25b36f93b3d8443f7502abdc1157f581f15db724459ffb2800fce6132a0086040519280a26123fc9081620001818239f35b600080fd5b634e487b7160e01b600052604160045260246000fd5b51906001600160a01b0382168203620001505756fe608080604052600436101561001357600080fd5b600090813560e01c9081630f3ca8ca14611c8b575080631320a65a14611c685780631ee9ce8b14611c2b5780632c5d4f8e14611bfe57806361f8982514611bc15780636df2378914611ac65780636ff6e83f14611a8a578063709bc7f314611a50578063715018a6146119f657806371673bd0146116195780637f82a5e71461093a5780638da5cb5b146109135780639585548a146106365780639e3e7bb9146105f9578063afce4bea14610512578063cd24be22146104e5578063cf49020e146103d7578063f2fde38b14610311578063f38d2491146101a2578063fabec44a1461014c5763fedcc0521461010857600080fd5b3461014957806003193601126101495760209061012b610126612286565b61236b565b8152600282526004604060018060a01b039220015416604051908152f35b80fd5b50346101495780600319360112610149576040805161016a81612059565b8281528260208201520152606061017f612286565b60ff60408051928281511684528260208201511660208501520151166040820152f35b5034610149576060366003190112610149576101bc611fcf565b6101c861012636612118565b6101d3610126612286565b146102d3576101e461012636612118565b8152600260205260408120546001600160a01b03161561027e5760043560ff811680910361027957600154906024359060ff82168203610279576044359060ff821682036102795762ff000061ff009260101b169362ffffff1916179160081b1617176001556102526121ae565b7f0a46bc1766225d5a82bc50155575dc428902e93470e34ceaf7e0faae128fe0ab8280a280f35b600080fd5b60405162461bcd60e51b815260206004820152602760248201527f696e76616c696420617267756d656e74202d206e6f6e206578697374696e67206044820152663b32b939b4b7b760c91b6064820152608490fd5b60405162461bcd60e51b815260206004820152601660248201527576657273696f6e20616c726561647920696e2075736560501b6044820152606490fd5b50346101495760203660031901126101495761032b611f7c565b610333611fcf565b6001600160a01b0390811690811561038357600054826001600160601b0360a01b821617600055167f8be0079c531659141344cd1fd0a4f28419497f9722a3daafe3b4186f6b6457e0600080a380f35b60405162461bcd60e51b815260206004820152602660248201527f4f776e61626c653a206e6577206f776e657220697320746865207a65726f206160448201526564647265737360d01b6064820152608490fd5b5034610149576020366003190112610149576103f1611f7c565b6103f9611fcf565b60035460ff811680610456575b61041091506120bf565b600480546001600160a01b0319166001600160a01b039290921691821790557f5fb25b36f93b3d8443f7502abdc1157f581f15db724459ffb2800fce6132a0088280a280f35b50604051632d5f118760e01b8152906001600160a01b03906020908390600490829060081c85165afa9081156104da57849161049a575b6104109250163014610406565b90506020823d82116104d2575b816104b460209383612089565b810103126104ce576104c8610410926120ab565b9061048d565b8380fd5b3d91506104a7565b6040513d86823e3d90fd5b503461014957806003193601126101495760206105006122ee565b6040516001600160a01b039091168152f35b50346101495760603660031901126101495760408160c09260a0835161053781612027565b8281528260208201528285820152826060820152826080820152015261055f61012636612118565b815260026020522060405161057381612027565b60018060a01b03908180845416938483528180600183015416602085019081528180600285015416604087019081528180600387015416936060890194855260a08260058160048b0154169960808d019a8b5201541699019889526040519a8b52511660208a0152511660408801525116606086015251166080840152511660a0820152f35b5034610149578060031936011261014957602090610618610126612286565b8152600282526003604060018060a01b039220015416604051908152f35b50346101495761064536611fa6565b61064d611fcf565b60ff60035416156108bd576106656101263684612167565b8352600260205260408320546001600160a01b0390811661087f5760208201928161068f856122cc565b16151580610869575b80610853575b8061083d575b80610827575b8061080f575b6106b99061222c565b6106c33682612167565b6106cc9061236b565b85526002602052816040862081806106e3876122cc565b16936001600160601b0360a01b948584541617835560018301826107068a6122cc565b16868254161790558160028401604089019082610722836122cc565b168882541617905581600386019360608b01948261073f876122cc565b168a825416179055600487019660808c01978361075b8a6122cc565b168b82541617905560050160a08c0199836107758c6122cc565b1690825416179055610786906121ef565b9a816040519b61079590611f92565b168b526107a190611f92565b1660208a01526107b090611f92565b1660408801526107bf90611f92565b1660608601526107ce90611f92565b1660808401526107dd90611f92565b1660a082015260c09020907faecad55510e8cbc2b82b73c5c6d78c169403cb719460198f517d41cf7700b71b8380a380f35b506106b98261081d856122cc565b16151590506106b0565b5081610835608085016122cc565b1615156106aa565b508161084b60a085016122cc565b1615156106a4565b5081610861606085016122cc565b16151561069e565b5081610877604085016122cc565b161515610698565b60405162461bcd60e51b815260206004820152601660248201527576657273696f6e20616c72656164792065786973747360501b6044820152606490fd5b60405162461bcd60e51b815260206004820152602860248201527f4f4e4c59207265666572656e636520636f6e74726163742063616e206164642060448201526776657273696f6e7360c01b6064820152608490fd5b5034610149578060031936011261014957546040516001600160a01b039091168152602090f35b503461014957604036600319011261014957610954611f7c565b60243591906001600160a01b0383168303610d80578261097e6001600160a01b038316151561222c565b6001600160a01b0381161593848061160c575b6115b4576040516304d3863d60e21b8152946020866004816001600160a01b0388165afa958615610e05578596611570575b50604051636290865d60e01b8152926020846004816001600160a01b0389165afa938415610e2857869461152c575b50604051631e2357fb60e31b8152926020846004816001600160a01b038c165afa938415610e985787946114e8575b50604051630ecf84bd60e21b8152916020836004816001600160a01b038d165afa928315610e4f5788936114a0575b5060405163b4f3fcb760e01b8152936020856004816001600160a01b038e165afa948515610ffa57899561145c575b50604051638da5cb5b60e01b81526020816004816001600160a01b038d165afa90811561122f578a91611422575b506001600160a01b031633148015906113a8575b801561132e575b80156112b4575b801561123a575b80156111b1575b6111595715610ea3575050600480546040516352f1431b60e01b81526001600160a01b038881169382019390935291602091839160249183918c91165af1908115610e98578791610e5e575b50935b6001600160a01b0386163b15610e5a576040516392dd9d6560e01b81526001600160a01b03868116600483015290989088908a90602490829084908c165af18015610e4f57610e37575b9697509495939487946001600160a01b0381163b15610e33576040516392dd9d6560e01b81526001600160a01b03888116600483015290918791839160249183918591165af1908115610e28578691610e14575b50506001600160a01b0316803b15610e10576040516392dd9d6560e01b81526001600160a01b03871660048201529085908290602490829084905af1908115610e05578591610df1575b50506001600160a01b0316803b156104ce576040516392dd9d6560e01b81526001600160a01b03861660048201529084908290602490829084905af19081156104da578491610ddd575b50506001600160a01b0316803b15610d71576040516392dd9d6560e01b81526001600160a01b03851660048201529083908290602490829084905af1908115610dbe578391610dc9575b5050604051632d5f118760e01b81526001600160a01b0390911690602081600481855afa908115610dbe578391610d84575b506001600160a01b03163014610d21575b50506001600160a01b0390811691167ff79ab4f8584958d3168dac16d1d96119f728316536f50639339b4202837051c88380a380f35b803b15610d80576040516392dd9d6560e01b81526001600160a01b03841660048201529082908290602490829084905af18015610d755715610ceb57610d6690612075565b610d71578238610ceb565b8280fd5b6040513d84823e3d90fd5b5080fd5b90506020813d602011610db6575b81610d9f60209383612089565b81010312610d7157610db0906120ab565b38610cda565b3d9150610d92565b6040513d85823e3d90fd5b610dd290612075565b610d80578138610ca8565b610de690612075565b610d71578238610c5e565b610dfa90612075565b6104ce578338610c14565b6040513d87823e3d90fd5b8480fd5b610e1d90612075565b610e10578438610bca565b6040513d88823e3d90fd5b8580fd5b9495969097610e4590612075565b9594938790610b76565b6040513d8a823e3d90fd5b8680fd5b90506020813d602011610e90575b81610e7960209383612089565b81010312610e5a57610e8a906120ab565b38610b29565b3d9150610e6c565b6040513d89823e3d90fd5b604051637d5f622560e11b81529195916060816004816001600160a01b0386165afa8015610ffa5789906110eb575b610edc915061236b565b610ee7610126612286565b0361108b57604051630990532d60e11b81526020816004816001600160a01b0386165afa908115610ffa57899161106c575b5080611049575b611005576004805460405163de87aeeb60e01b81526001600160a01b03848116938201939093529160209183916024918391165afa908115610ffa578991610fcb575b50159081610fa4575b5015610b2c5760405162461bcd60e51b815260206004820152600a602482015269696e76616c696420494160b01b6044820152606490fd5b90506001600160a01b03610fb66122ee565b6001600160a01b039092169116141538610f6c565b610fed915060203d602011610ff3575b610fe58183612089565b8101906122b4565b38610f63565b503d610fdb565b6040513d8b823e3d90fd5b606460405162461bcd60e51b815260206004820152602060248201527f6e6577204941206973204e4f54207265666572656e636520636f6e74726163746044820152fd5b506001600160a01b0361105a6122ee565b166001600160a01b0382161415610f20565b611085915060203d602011610ff357610fe58183612089565b38610f19565b60405162461bcd60e51b815260206004820152603260248201527f76657273696f6e206f66206e65772049412068617320746f206265207468652060448201527173616d652061732063757272656e7420494160701b6064820152608490fd5b506060813d8211611151575b8161110460609383612089565b8101031261114d57610edc90611143604080519261112184612059565b61112a81612278565b845261113860208201612278565b602085015201612278565b6040820152610ed2565b8880fd5b3d91506110f7565b60405162461bcd60e51b815260206004820152602a60248201527f63616c6c6572204e4f54206f776e6572206f6620616c6c20636f6e74726163746044820152691cc81a5b5c1858dd195960b21b6064820152608490fd5b50604051638da5cb5b60e01b81526020816004816001600160a01b038a165afa90811561122f578a916111f1575b506001600160a01b0316331415610add565b90506020813d602011611227575b8161120c60209383612089565b810103126112235761121d906120ab565b386111df565b8980fd5b3d91506111ff565b6040513d8c823e3d90fd5b50604051638da5cb5b60e01b81526020816004816001600160a01b0389165afa90811561122f578a9161127a575b506001600160a01b0316331415610ad6565b90506020813d6020116112ac575b8161129560209383612089565b81010312611223576112a6906120ab565b38611268565b3d9150611288565b50604051638da5cb5b60e01b81526020816004816001600160a01b038b165afa90811561122f578a916112f4575b506001600160a01b0316331415610acf565b90506020813d602011611326575b8161130f60209383612089565b8101031261122357611320906120ab565b386112e2565b3d9150611302565b50604051638da5cb5b60e01b81526020816004816001600160a01b038c165afa90811561122f578a9161136e575b506001600160a01b0316331415610ac8565b90506020813d6020116113a0575b8161138960209383612089565b810103126112235761139a906120ab565b3861135c565b3d915061137c565b50604051638da5cb5b60e01b81526020816004816001600160a01b038f165afa90811561122f578a916113e8575b506001600160a01b0316331415610ac1565b90506020813d60201161141a575b8161140360209383612089565b8101031261122357611414906120ab565b386113d6565b3d91506113f6565b90506020813d602011611454575b8161143d60209383612089565b810103126112235761144e906120ab565b38610aad565b3d9150611430565b9094506020813d602011611498575b8161147860209383612089565b8101031261114d57516001600160a01b038116810361114d579338610a7f565b3d915061146b565b9092506020813d6020116114e0575b816114bc60209383612089565b810103126114dc57516001600160a01b03811681036114dc579138610a50565b8780fd5b3d91506114af565b9093506020813d602011611524575b8161150460209383612089565b81010312610e5a57516001600160a01b0381168103610e5a579238610a21565b3d91506114f7565b9093506020813d602011611568575b8161154860209383612089565b81010312610e3357516001600160a01b0381168103610e335792386109f2565b3d915061153b565b9095506020813d6020116115ac575b8161158c60209383612089565b81010312610e1057516001600160a01b0381168103610e105794386109c3565b3d915061157f565b60405162461bcd60e51b815260206004820152602a60248201527f6f6e6c79207265666572656e636520636f6e74726163742063616e206465706c6044820152696f79206e65772049417360b01b6064820152608490fd5b5060ff6003541615610991565b50346101495761162836611fa6565b9190611632611fcf565b60ff60035416156108bd5761164a6101263683612167565b825260026020908152604083205490936001600160a01b039182166119b8578481019082611677836122cc565b161515806119a2575b8061198c575b80611976575b80611960575b80611948575b6116a19061222c565b6116ab3685612167565b6116b49061236b565b855260028652826040862081806116ca856122cc565b16916001600160601b0360a01b928382541617815560018101826116ed886122cc565b16848254161790558160028201604087019082611709836122cc565b1686825416179055816003840191606089019282611726856122cc565b16888254161790558d828d600488019760808d0198836117458b6122cc565b168c82541617905560050160a08d019a8361175f8d6122cc565b1690825416179055611770906121ef565b9b816040519c61177f90611f92565b168c5261178b90611f92565b16908a015261179990611f92565b1660408801526117a890611f92565b1660608601526117b790611f92565b1660808401526117c690611f92565b1660a082015260c09020907faecad55510e8cbc2b82b73c5c6d78c169403cb719460198f517d41cf7700b71b8580a36117fd611fcf565b6118073683612167565b6118109061236b565b906040519161181e83612059565b6001549260ff841681528360081c60ff16878201528360101c60ff1660408201526118489061236b565b1461190a5761185a6101263685612167565b845260028552604084205416156118b557610252929361ff0061188a60ff611881866122e0565b169285016122e0565b60081b169062ff000061189f604086016122e0565b60101b169262ffffff19161717176001556121ef565b60405162461bcd60e51b815260048101859052602760248201527f696e76616c696420617267756d656e74202d206e6f6e206578697374696e67206044820152663b32b939b4b7b760c91b6064820152608490fd5b60405162461bcd60e51b815260048101869052601660248201527576657273696f6e20616c726561647920696e2075736560501b6044820152606490fd5b506116a183611956836122cc565b1615159050611698565b508261196e608083016122cc565b161515611692565b508261198460a083016122cc565b16151561168c565b508261199a606083016122cc565b161515611686565b50826119b0604083016122cc565b161515611680565b60405162461bcd60e51b815260048101869052601660248201527576657273696f6e20616c72656164792065786973747360501b6044820152606490fd5b5034610149578060031936011261014957611a0f611fcf565b80546001600160a01b03198116825581906001600160a01b03167f8be0079c531659141344cd1fd0a4f28419497f9722a3daafe3b4186f6b6457e08280a380f35b5034610149578060031936011261014957602090611a6f610126612286565b815260028252604060018060a01b0391205416604051908152f35b5034610149578060031936011261014957602090611aa9610126612286565b81526002825260016040818060a01b039220015416604051908152f35b503461014957602036600319011261014957611ae0611f7c565b611ae8611fcf565b60035460ff811680611b4c575b611afe906120bf565b610100600160a81b031916600882901b610100600160a81b0316176003556001600160a01b03167ff068c7797c3b666af662a0e2f018804080dc37610a1b82b55006872b06d30ef58280a280f35b50604051632d5f118760e01b81526001600160a01b036020826004818785165afa908115610e05578591611b85575b1630149050611af5565b90506020823d8211611bb9575b81611b9f60209383612089565b81010312610e1057611bb3611afe926120ab565b90611b7b565b3d9150611b92565b5034610149578060031936011261014957602090611be0610126612286565b8152600282526005604060018060a01b039220015416604051908152f35b503461014957806003193601126101495760035460405160089190911c6001600160a01b03168152602090f35b5034610149578060031936011261014957602090611c4a610126612286565b8152600282526002604060018060a01b039220015416604051908152f35b5034610149578060031936011261014957602060ff600354166040519015158152f35b905034610d80576060366003190112610d805760ff60035416611f305750611cb561012636612118565b81526002602090815260408220546001600160a01b0391908216611eec5781611cdc6122ee565b1690604051916357e725f560e11b835260043560ff8116809103610e3357600484015260243560ff8116809103610e3357602484015260443560ff8116809103610e335760648460c093819360448301525afa80156104da578490611e51575b60c09250611d4c61012636612118565b855260028252604085208460a0600582855116936001600160601b03831b94858254161781556001810184888801511686825416179055600281018460408801511686825416179055600381018460608801511686825416179055600481018460808801511686825416179055019301511690825416179055611dd161012636612118565b84526002815260408420926005611de66121ae565b9460405193838254168552836001830154169085015282600282015416604085015282600382015416606085015282600482015416608085015201541660a082015220907f5846080f2085e3dfad8cb250efdba145f8982d2e81ba7f74478da7fab659322b8380a380f35b5060c0823d8211611ee4575b81611e6a60c09383612089565b810103126104ce5760c091611eda60a060405192611e8784612027565b611e90816120ab565b8452611e9d8582016120ab565b85850152611ead604082016120ab565b6040850152611ebe606082016120ab565b6060850152611ecf608082016120ab565b6080850152016120ab565b60a0820152611d3c565b3d9150611e5d565b6064906040519062461bcd60e51b82526004820152601760248201527f76657273696f6e206665746368656420616c72656164790000000000000000006044820152fd5b62461bcd60e51b815260206004820152602160248201527f63616e6e6f742063616c6c206f6e207265666572656e636520636f6e747261636044820152601d60fa1b6064820152608490fd5b600435906001600160a01b038216820361027957565b35906001600160a01b038216820361027957565b9060031982016101208112610279576060136102795760c0600492606319011261027957606490565b6000546001600160a01b03163303611fe357565b606460405162461bcd60e51b815260206004820152602060248201527f4f776e61626c653a2063616c6c6572206973206e6f7420746865206f776e65726044820152fd5b60c0810190811067ffffffffffffffff82111761204357604052565b634e487b7160e01b600052604160045260246000fd5b6060810190811067ffffffffffffffff82111761204357604052565b67ffffffffffffffff811161204357604052565b90601f8019910116810190811067ffffffffffffffff82111761204357604052565b51906001600160a01b038216820361027957565b156120c657565b606460405162461bcd60e51b815260206004820152602060248201527f6f6e6c79207265666572656e636520636f6e74726163742063616e2063616c6c6044820152fd5b359060ff8216820361027957565b6060906003190112610279576040519061213182612059565b8160043560ff8116810361027957815260243560ff811681036102795760208201526044359060ff821682036102795760400152565b91908260609103126102795760405161217f81612059565b60406121a98183956121908161210a565b855261219e6020820161210a565b60208601520161210a565b910152565b60405160043560ff811680910361027957815260243560ff81168091036102795760208201526044359060ff82168092036102795760609160408201522090565b60609060ff6122226040805193836122068261210a565b168552836122166020830161210a565b1660208601520161210a565b1660408201522090565b1561223357565b60405162461bcd60e51b815260206004820152601f60248201527f696e76616c696420617267756d656e74202d207a65726f2061646472657373006044820152606490fd5b519060ff8216820361027957565b6040519061229382612059565b81604060ff6001548181168452818160081c16602085015260101c16910152565b90816020910312610279575180151581036102795790565b356001600160a01b03811681036102795790565b3560ff811681036102795790565b600354604051632d5f118760e01b8152906020908290600490829060081c6001600160a01b03165afa90811561235f57600091612329575090565b906020823d8211612357575b8161234260209383612089565b810103126101495750612354906120ab565b90565b3d9150612335565b6040513d6000823e3d90fd5b805160208083015160409384015184516001600160f81b031960f895861b811694820194855292851b83166021820152931b1660228301526003825291810181811067ffffffffffffffff821117612043576040525190209056fea2646970667358221220e8834fc4aab241c1f13465a650b026cbfbccb5edc5ed850f6c668558b0cc561464736f6c63430008110033",
  "linkReferences": {},
  "deployedLinkReferences": {}
}