{
  "_format": "hh-sol-artifact-1",
  "contractName": "EmireqGovernance",
  "sourceName": "contracts/Governance/EmireqGovernance.sol",
  "abi": [
    {
      "inputs": [
        {
          "internalType": "address",
          "name": "_emnToken",
          "type": "address"
        }
      ],
      "stateMutability": "nonpayable",
      "type": "constructor"
    },
    {
      "inputs": [],
      "name": "AlreadyVoted",
      "type": "error"
    },
    {
      "inputs": [],
      "name": "ExecutionFailed",
      "type": "error"
    },
    {
      "inputs": [],
      "name": "InsufficientApprovals",
      "type": "error"
    },
    {
      "inputs": [],
      "name": "InvalidParameter",
      "type": "error"
    },
    {
      "inputs": [],
      "name": "InvalidProposal",
      "type": "error"
    },
    {
      "inputs": [],
      "name": "InvalidVoter",
      "type": "error"
    },
    {
      "inputs": [],
      "name": "ProposalAlreadyExecuted",
      "type": "error"
    },
    {
      "inputs": [],
      "name": "ProposalNotActive",
      "type": "error"
    },
    {
      "inputs": [],
      "name": "QuorumNotReached",
      "type": "error"
    },
    {
      "inputs": [],
      "name": "VotingNotEnded",
      "type": "error"
    },
    {
      "inputs": [],
      "name": "ZeroAddress",
      "type": "error"
    },
    {
      "inputs": [],
      "name": "ZeroAmount",
      "type": "error"
    },
    {
      "anonymous": false,
      "inputs": [
        {
          "indexed": false,
          "internalType": "address",
          "name": "account",
          "type": "address"
        }
      ],
      "name": "Paused",
      "type": "event"
    },
    {
      "anonymous": false,
      "inputs": [
        {
          "indexed": true,
          "internalType": "uint256",
          "name": "proposalId",
          "type": "uint256"
        }
      ],
      "name": "ProposalApproved",
      "type": "event"
    },
    {
      "anonymous": false,
      "inputs": [
        {
          "indexed": true,
          "internalType": "uint256",
          "name": "proposalId",
          "type": "uint256"
        },
        {
          "indexed": false,
          "internalType": "enum EmireqGovernance.ProposalType",
          "name": "proposalType",
          "type": "uint8"
        },
        {
          "indexed": true,
          "internalType": "address",
          "name": "proposer",
          "type": "address"
        },
        {
          "indexed": false,
          "internalType": "uint256",
          "name": "votingEnd",
          "type": "uint256"
        },
        {
          "indexed": false,
          "internalType": "string",
          "name": "title",
          "type": "string"
        }
      ],
      "name": "ProposalCreated",
      "type": "event"
    },
    {
      "anonymous": false,
      "inputs": [
        {
          "indexed": true,
          "internalType": "uint256",
          "name": "proposalId",
          "type": "uint256"
        }
      ],
      "name": "ProposalExecuted",
      "type": "event"
    },
    {
      "anonymous": false,
      "inputs": [
        {
          "indexed": true,
          "internalType": "bytes32",
          "name": "role",
          "type": "bytes32"
        },
        {
          "indexed": true,
          "internalType": "bytes32",
          "name": "previousAdminRole",
          "type": "bytes32"
        },
        {
          "indexed": true,
          "internalType": "bytes32",
          "name": "newAdminRole",
          "type": "bytes32"
        }
      ],
      "name": "RoleAdminChanged",
      "type": "event"
    },
    {
      "anonymous": false,
      "inputs": [
        {
          "indexed": true,
          "internalType": "bytes32",
          "name": "role",
          "type": "bytes32"
        },
        {
          "indexed": true,
          "internalType": "address",
          "name": "account",
          "type": "address"
        },
        {
          "indexed": true,
          "internalType": "address",
          "name": "sender",
          "type": "address"
        }
      ],
      "name": "RoleGranted",
      "type": "event"
    },
    {
      "anonymous": false,
      "inputs": [
        {
          "indexed": true,
          "internalType": "bytes32",
          "name": "role",
          "type": "bytes32"
        },
        {
          "indexed": true,
          "internalType": "address",
          "name": "account",
          "type": "address"
        },
        {
          "indexed": true,
          "internalType": "address",
          "name": "sender",
          "type": "address"
        }
      ],
      "name": "RoleRevoked",
      "type": "event"
    },
    {
      "anonymous": false,
      "inputs": [
        {
          "indexed": false,
          "internalType": "address",
          "name": "account",
          "type": "address"
        }
      ],
      "name": "Unpaused",
      "type": "event"
    },
    {
      "anonymous": false,
      "inputs": [
        {
          "indexed": true,
          "internalType": "uint256",
          "name": "proposalId",
          "type": "uint256"
        },
        {
          "indexed": true,
          "internalType": "address",
          "name": "voter",
          "type": "address"
        },
        {
          "indexed": false,
          "internalType": "bool",
          "name": "approved",
          "type": "bool"
        }
      ],
      "name": "VoteCast",
      "type": "event"
    },
    {
      "anonymous": false,
      "inputs": [
        {
          "indexed": true,
          "internalType": "string",
          "name": "voterType",
          "type": "string"
        },
        {
          "indexed": false,
          "internalType": "address",
          "name": "newAddress",
          "type": "address"
        }
      ],
      "name": "VoterUpdated",
      "type": "event"
    },
    {
      "inputs": [],
      "name": "DEFAULT_ADMIN_ROLE",
      "outputs": [
        {
          "internalType": "bytes32",
          "name": "",
          "type": "bytes32"
        }
      ],
      "stateMutability": "view",
      "type": "function"
    },
    {
      "inputs": [],
      "name": "EXECUTOR_ROLE",
      "outputs": [
        {
          "internalType": "bytes32",
          "name": "",
          "type": "bytes32"
        }
      ],
      "stateMutability": "view",
      "type": "function"
    },
    {
      "inputs": [],
      "name": "MAX_VOTING_PERIOD",
      "outputs": [
        {
          "internalType": "uint256",
          "name": "",
          "type": "uint256"
        }
      ],
      "stateMutability": "view",
      "type": "function"
    },
    {
      "inputs": [],
      "name": "MIN_VOTING_PERIOD",
      "outputs": [
        {
          "internalType": "uint256",
          "name": "",
          "type": "uint256"
        }
      ],
      "stateMutability": "view",
      "type": "function"
    },
    {
      "inputs": [],
      "name": "PAUSER_ROLE",
      "outputs": [
        {
          "internalType": "bytes32",
          "name": "",
          "type": "bytes32"
        }
      ],
      "stateMutability": "view",
      "type": "function"
    },
    {
      "inputs": [],
      "name": "PROPOSER_ROLE",
      "outputs": [
        {
          "internalType": "bytes32",
          "name": "",
          "type": "bytes32"
        }
      ],
      "stateMutability": "view",
      "type": "function"
    },
    {
      "inputs": [],
      "name": "REQUIRED_APPROVALS",
      "outputs": [
        {
          "internalType": "uint256",
          "name": "",
          "type": "uint256"
        }
      ],
      "stateMutability": "view",
      "type": "function"
    },
    {
      "inputs": [],
      "name": "TOTAL_VOTERS",
      "outputs": [
        {
          "internalType": "uint256",
          "name": "",
          "type": "uint256"
        }
      ],
      "stateMutability": "view",
      "type": "function"
    },
    {
      "inputs": [
        {
          "internalType": "string",
          "name": "_title",
          "type": "string"
        },
        {
          "internalType": "string",
          "name": "_description",
          "type": "string"
        },
        {
          "internalType": "string",
          "name": "_addressType",
          "type": "string"
        },
        {
          "internalType": "address",
          "name": "_newAddress",
          "type": "address"
        },
        {
          "internalType": "uint256",
          "name": "_votingPeriod",
          "type": "uint256"
        },
        {
          "internalType": "bool",
          "name": "_earlyExecution",
          "type": "bool"
        }
      ],
      "name": "createAddressUpdateProposal",
      "outputs": [
        {
          "internalType": "uint256",
          "name": "",
          "type": "uint256"
        }
      ],
      "stateMutability": "nonpayable",
      "type": "function"
    },
    {
      "inputs": [
        {
          "internalType": "string",
          "name": "_title",
          "type": "string"
        },
        {
          "internalType": "string",
          "name": "_description",
          "type": "string"
        },
        {
          "internalType": "enum EminarToken.BackingAsset",
          "name": "_asset",
          "type": "uint8"
        },
        {
          "internalType": "address",
          "name": "_token",
          "type": "address"
        },
        {
          "internalType": "bool",
          "name": "_register",
          "type": "bool"
        },
        {
          "internalType": "uint256",
          "name": "_votingPeriod",
          "type": "uint256"
        },
        {
          "internalType": "bool",
          "name": "_earlyExecution",
          "type": "bool"
        }
      ],
      "name": "createAssetPolicyProposal",
      "outputs": [
        {
          "internalType": "uint256",
          "name": "",
          "type": "uint256"
        }
      ],
      "stateMutability": "nonpayable",
      "type": "function"
    },
    {
      "inputs": [
        {
          "internalType": "string",
          "name": "_title",
          "type": "string"
        },
        {
          "internalType": "string",
          "name": "_description",
          "type": "string"
        },
        {
          "internalType": "enum EminarToken.BackingAsset",
          "name": "_asset",
          "type": "uint8"
        },
        {
          "internalType": "address",
          "name": "_to",
          "type": "address"
        },
        {
          "internalType": "uint256",
          "name": "_amount",
          "type": "uint256"
        },
        {
          "internalType": "uint256",
          "name": "_votingPeriod",
          "type": "uint256"
        },
        {
          "internalType": "bool",
          "name": "_earlyExecution",
          "type": "bool"
        }
      ],
      "name": "createBackingWithdrawalProposal",
      "outputs": [
        {
          "internalType": "uint256",
          "name": "",
          "type": "uint256"
        }
      ],
      "stateMutability": "nonpayable",
      "type": "function"
    },
    {
      "inputs": [
        {
          "internalType": "string",
          "name": "_title",
          "type": "string"
        },
        {
          "internalType": "string",
          "name": "_description",
          "type": "string"
        },
        {
          "internalType": "enum EminarToken.BackingAsset",
          "name": "_asset",
          "type": "uint8"
        },
        {
          "internalType": "uint256",
          "name": "_priceUSD",
          "type": "uint256"
        },
        {
          "internalType": "uint256",
          "name": "_votingPeriod",
          "type": "uint256"
        },
        {
          "internalType": "bool",
          "name": "_earlyExecution",
          "type": "bool"
        }
      ],
      "name": "createOraclePriceProposal",
      "outputs": [
        {
          "internalType": "uint256",
          "name": "",
          "type": "uint256"
        }
      ],
      "stateMutability": "nonpayable",
      "type": "function"
    },
    {
      "inputs": [
        {
          "internalType": "string",
          "name": "_title",
          "type": "string"
        },
        {
          "internalType": "string",
          "name": "_description",
          "type": "string"
        },
        {
          "internalType": "address",
          "name": "_to",
          "type": "address"
        },
        {
          "internalType": "uint256",
          "name": "_amount",
          "type": "uint256"
        },
        {
          "internalType": "string",
          "name": "_reason",
          "type": "string"
        },
        {
          "internalType": "uint256",
          "name": "_votingPeriod",
          "type": "uint256"
        },
        {
          "internalType": "bool",
          "name": "_earlyExecution",
          "type": "bool"
        }
      ],
      "name": "createTokenMintingProposal",
      "outputs": [
        {
          "internalType": "uint256",
          "name": "",
          "type": "uint256"
        }
      ],
      "stateMutability": "nonpayable",
      "type": "function"
    },
    {
      "inputs": [
        {
          "internalType": "string",
          "name": "_title",
          "type": "string"
        },
        {
          "internalType": "string",
          "name": "_description",
          "type": "string"
        },
        {
          "internalType": "address",
          "name": "_token",
          "type": "address"
        },
        {
          "internalType": "address",
          "name": "_to",
          "type": "address"
        },
        {
          "internalType": "uint256",
          "name": "_amount",
          "type": "uint256"
        },
        {
          "internalType": "uint256",
          "name": "_votingPeriod",
          "type": "uint256"
        },
        {
          "internalType": "bool",
          "name": "_earlyExecution",
          "type": "bool"
        }
      ],
      "name": "createTreasurySpendingProposal",
      "outputs": [
        {
          "internalType": "uint256",
          "name": "",
          "type": "uint256"
        }
      ],
      "stateMutability": "nonpayable",
      "type": "function"
    },
    {
      "inputs": [],
      "name": "developmentAddress",
      "outputs": [
        {
          "internalType": "address",
          "name": "",
          "type": "address"
        }
      ],
      "stateMutability": "view",
      "type": "function"
    },
    {
      "inputs": [],
      "name": "emnToken",
      "outputs": [
        {
          "internalType": "contract EminarToken",
          "name": "",
          "type": "address"
        }
      ],
      "stateMutability": "view",
      "type": "function"
    },
    {
      "inputs": [
        {
          "internalType": "uint256",
          "name": "_proposalId",
          "type": "uint256"
        }
      ],
      "name": "executeProposal",
      "outputs": [],
      "stateMutability": "nonpayable",
      "type": "function"
    },
    {
      "inputs": [
        {
          "internalType": "uint256",
          "name": "_proposalId",
          "type": "uint256"
        }
      ],
      "name": "getProposal",
      "outputs": [
        {
          "internalType": "uint256",
          "name": "id",
          "type": "uint256"
        },
        {
          "internalType": "enum EmireqGovernance.ProposalType",
          "name": "proposalType",
          "type": "uint8"
        },
        {
          "internalType": "string",
          "name": "title",
          "type": "string"
        },
        {
          "internalType": "string",
          "name": "description",
          "type": "string"
        },
        {
          "internalType": "address",
          "name": "proposer",
          "type": "address"
        },
        {
          "internalType": "uint256",
          "name": "createdAt",
          "type": "uint256"
        },
        {
          "internalType": "uint256",
          "name": "votingEnd",
          "type": "uint256"
        },
        {
          "internalType": "uint256",
          "name": "approvalCount",
          "type": "uint256"
        },
        {
          "internalType": "enum EmireqGovernance.ProposalStatus",
          "name": "status",
          "type": "uint8"
        },
        {
          "internalType": "bool",
          "name": "executed",
          "type": "bool"
        },
        {
          "internalType": "bytes",
          "name": "callData",
          "type": "bytes"
        },
        {
          "internalType": "address",
          "name": "targetContract",
          "type": "address"
        }
      ],
      "stateMutability": "view",
      "type": "function"
    },
    {
      "inputs": [],
      "name": "getProposalCount",
      "outputs": [
        {
          "internalType": "uint256",
          "name": "",
          "type": "uint256"
        }
      ],
      "stateMutability": "view",
      "type": "function"
    },
    {
      "inputs": [],
      "name": "getRequiredApprovals",
      "outputs": [
        {
          "internalType": "uint256",
          "name": "",
          "type": "uint256"
        }
      ],
      "stateMutability": "pure",
      "type": "function"
    },
    {
      "inputs": [
        {
          "internalType": "bytes32",
          "name": "role",
          "type": "bytes32"
        }
      ],
      "name": "getRoleAdmin",
      "outputs": [
        {
          "internalType": "bytes32",
          "name": "",
          "type": "bytes32"
        }
      ],
      "stateMutability": "view",
      "type": "function"
    },
    {
      "inputs": [],
      "name": "getTotalVoters",
      "outputs": [
        {
          "internalType": "uint256",
          "name": "",
          "type": "uint256"
        }
      ],
      "stateMutability": "pure",
      "type": "function"
    },
    {
      "inputs": [],
      "name": "getVoters",
      "outputs": [
        {
          "internalType": "address[5]",
          "name": "",
          "type": "address[5]"
        }
      ],
      "stateMutability": "view",
      "type": "function"
    },
    {
      "inputs": [
        {
          "internalType": "bytes32",
          "name": "role",
          "type": "bytes32"
        },
        {
          "internalType": "address",
          "name": "account",
          "type": "address"
        }
      ],
      "name": "grantRole",
      "outputs": [],
      "stateMutability": "nonpayable",
      "type": "function"
    },
    {
      "inputs": [
        {
          "internalType": "uint256",
          "name": "_proposalId",
          "type": "uint256"
        },
        {
          "internalType": "address",
          "name": "_voter",
          "type": "address"
        }
      ],
      "name": "hasApproved",
      "outputs": [
        {
          "internalType": "bool",
          "name": "",
          "type": "bool"
        }
      ],
      "stateMutability": "view",
      "type": "function"
    },
    {
      "inputs": [
        {
          "internalType": "bytes32",
          "name": "role",
          "type": "bytes32"
        },
        {
          "internalType": "address",
          "name": "account",
          "type": "address"
        }
      ],
      "name": "hasRole",
      "outputs": [
        {
          "internalType": "bool",
          "name": "",
          "type": "bool"
        }
      ],
      "stateMutability": "view",
      "type": "function"
    },
    {
      "inputs": [
        {
          "internalType": "address",
          "name": "_address",
          "type": "address"
        }
      ],
      "name": "isVoter",
      "outputs": [
        {
          "internalType": "bool",
          "name": "",
          "type": "bool"
        }
      ],
      "stateMutability": "view",
      "type": "function"
    },
    {
      "inputs": [
        {
          "internalType": "address",
          "name": "",
          "type": "address"
        }
      ],
      "name": "lastProposalTimestamp",
      "outputs": [
        {
          "internalType": "uint256",
          "name": "",
          "type": "uint256"
        }
      ],
      "stateMutability": "view",
      "type": "function"
    },
    {
      "inputs": [],
      "name": "multisiGovernanceAddress",
      "outputs": [
        {
          "internalType": "address",
          "name": "",
          "type": "address"
        }
      ],
      "stateMutability": "view",
      "type": "function"
    },
    {
      "inputs": [],
      "name": "pause",
      "outputs": [],
      "stateMutability": "nonpayable",
      "type": "function"
    },
    {
      "inputs": [],
      "name": "paused",
      "outputs": [
        {
          "internalType": "bool",
          "name": "",
          "type": "bool"
        }
      ],
      "stateMutability": "view",
      "type": "function"
    },
    {
      "inputs": [
        {
          "internalType": "uint256",
          "name": "",
          "type": "uint256"
        }
      ],
      "name": "proposals",
      "outputs": [
        {
          "internalType": "uint256",
          "name": "id",
          "type": "uint256"
        },
        {
          "internalType": "enum EmireqGovernance.ProposalType",
          "name": "proposalType",
          "type": "uint8"
        },
        {
          "internalType": "string",
          "name": "title",
          "type": "string"
        },
        {
          "internalType": "string",
          "name": "description",
          "type": "string"
        },
        {
          "internalType": "address",
          "name": "proposer",
          "type": "address"
        },
        {
          "internalType": "uint256",
          "name": "createdAt",
          "type": "uint256"
        },
        {
          "internalType": "uint256",
          "name": "votingEnd",
          "type": "uint256"
        },
        {
          "internalType": "bool",
          "name": "earlyExecution",
          "type": "bool"
        },
        {
          "internalType": "uint256",
          "name": "approvalCount",
          "type": "uint256"
        },
        {
          "internalType": "enum EmireqGovernance.ProposalStatus",
          "name": "status",
          "type": "uint8"
        },
        {
          "internalType": "bool",
          "name": "executed",
          "type": "bool"
        },
        {
          "internalType": "bytes",
          "name": "callData",
          "type": "bytes"
        },
        {
          "internalType": "address",
          "name": "targetContract",
          "type": "address"
        }
      ],
      "stateMutability": "view",
      "type": "function"
    },
    {
      "inputs": [
        {
          "internalType": "enum EmireqGovernance.ProposalType",
          "name": "_proposalType",
          "type": "uint8"
        },
        {
          "internalType": "string",
          "name": "_title",
          "type": "string"
        },
        {
          "internalType": "string",
          "name": "_description",
          "type": "string"
        },
        {
          "internalType": "bytes",
          "name": "_callData",
          "type": "bytes"
        },
        {
          "internalType": "address",
          "name": "_targetContract",
          "type": "address"
        },
        {
          "internalType": "uint256",
          "name": "_votingPeriod",
          "type": "uint256"
        },
        {
          "internalType": "bool",
          "name": "_earlyExecution",
          "type": "bool"
        }
      ],
      "name": "propose",
      "outputs": [
        {
          "internalType": "uint256",
          "name": "",
          "type": "uint256"
        }
      ],
      "stateMutability": "nonpayable",
      "type": "function"
    },
    {
      "inputs": [],
      "name": "publicAddress",
      "outputs": [
        {
          "internalType": "address",
          "name": "",
          "type": "address"
        }
      ],
      "stateMutability": "view",
      "type": "function"
    },
    {
      "inputs": [
        {
          "internalType": "bytes32",
          "name": "role",
          "type": "bytes32"
        },
        {
          "internalType": "address",
          "name": "account",
          "type": "address"
        }
      ],
      "name": "renounceRole",
      "outputs": [],
      "stateMutability": "nonpayable",
      "type": "function"
    },
    {
      "inputs": [],
      "name": "reserveAddress",
      "outputs": [
        {
          "internalType": "address",
          "name": "",
          "type": "address"
        }
      ],
      "stateMutability": "view",
      "type": "function"
    },
    {
      "inputs": [
        {
          "internalType": "bytes32",
          "name": "role",
          "type": "bytes32"
        },
        {
          "internalType": "address",
          "name": "account",
          "type": "address"
        }
      ],
      "name": "revokeRole",
      "outputs": [],
      "stateMutability": "nonpayable",
      "type": "function"
    },
    {
      "inputs": [],
      "name": "shariaTrustAddress",
      "outputs": [
        {
          "internalType": "address",
          "name": "",
          "type": "address"
        }
      ],
      "stateMutability": "view",
      "type": "function"
    },
    {
      "inputs": [
        {
          "internalType": "uint256",
          "name": "_proposalId",
          "type": "uint256"
        }
      ],
      "name": "state",
      "outputs": [
        {
          "internalType": "enum EmireqGovernance.ProposalStatus",
          "name": "",
          "type": "uint8"
        }
      ],
      "stateMutability": "view",
      "type": "function"
    },
    {
      "inputs": [],
      "name": "strategicPartnersAddress",
      "outputs": [
        {
          "internalType": "address",
          "name": "",
          "type": "address"
        }
      ],
      "stateMutability": "view",
      "type": "function"
    },
    {
      "inputs": [
        {
          "internalType": "bytes4",
          "name": "interfaceId",
          "type": "bytes4"
        }
      ],
      "name": "supportsInterface",
      "outputs": [
        {
          "internalType": "bool",
          "name": "",
          "type": "bool"
        }
      ],
      "stateMutability": "view",
      "type": "function"
    },
    {
      "inputs": [],
      "name": "unpause",
      "outputs": [],
      "stateMutability": "nonpayable",
      "type": "function"
    },
    {
      "inputs": [
        {
          "internalType": "string",
          "name": "_voterType",
          "type": "string"
        },
        {
          "internalType": "address",
          "name": "_newAddress",
          "type": "address"
        }
      ],
      "name": "updateVoterAddress",
      "outputs": [],
      "stateMutability": "nonpayable",
      "type": "function"
    },
    {
      "inputs": [
        {
          "internalType": "uint256",
          "name": "_proposalId",
          "type": "uint256"
        },
        {
          "internalType": "bool",
          "name": "_approve",
          "type": "bool"
        }
      ],
      "name": "vote",
      "outputs": [],
      "stateMutability": "nonpayable",
      "type": "function"
    }
  ],
  "bytecode": "0x608060405234801561001057600080fd5b5060405161362138038061362183398101604081905261002f916105c8565b6001805460ff191690556001600160a01b0381166100605760405163d92e233d60e01b815260040160405180910390fd5b600380546001600160a01b0319166001600160a01b0383169081179091556040805163f676f33160e01b8152905163f676f331916004808201926020929091908290030181865afa1580156100b9573d6000803e3d6000fd5b505050506040513d601f19601f820116820180604052508101906100dd91906105c8565b600480546001600160a01b0319166001600160a01b039283161781556003546040805163f79ed94b60e01b81529051919093169263f79ed94b92818101926020929091908290030181865afa15801561013a573d6000803e3d6000fd5b505050506040513d601f19601f8201168201806040525081019061015e91906105c8565b600580546001600160a01b0319166001600160a01b03928316179055600354604080516318e2c6c560e21b81529051919092169163638b1b149160048083019260209291908290030181865afa1580156101bc573d6000803e3d6000fd5b505050506040513d601f19601f820116820180604052508101906101e091906105c8565b600680546001600160a01b0319166001600160a01b039283161790556003546040805163fe64c68160e01b81529051919092169163fe64c6819160048083019260209291908290030181865afa15801561023e573d6000803e3d6000fd5b505050506040513d601f19601f8201168201806040525081019061026291906105c8565b600780546001600160a01b0319166001600160a01b039283161790556003546040805163626c3d4360e01b81529051919092169163626c3d439160048083019260209291908290030181865afa1580156102c0573d6000803e3d6000fd5b505050506040513d601f19601f820116820180604052508101906102e491906105c8565b600880546001600160a01b0319166001600160a01b0392831617905560045461031d916000805160206135e18339815191529116610529565b600554610342906000805160206135e1833981519152906001600160a01b0316610529565b600654610367906000805160206135e1833981519152906001600160a01b0316610529565b60075461038c906000805160206135e1833981519152906001600160a01b0316610529565b6008546103b1906000805160206135e1833981519152906001600160a01b0316610529565b6004546103d690600080516020613601833981519152906001600160a01b0316610529565b6005546103fb90600080516020613601833981519152906001600160a01b0316610529565b60065461042090600080516020613601833981519152906001600160a01b0316610529565b60075461044590600080516020613601833981519152906001600160a01b0316610529565b60085461046a90600080516020613601833981519152906001600160a01b0316610529565b60045461048f906000805160206135c1833981519152906001600160a01b0316610529565b6005546104b4906000805160206135c1833981519152906001600160a01b0316610529565b6006546104d9906000805160206135c1833981519152906001600160a01b0316610529565b6007546104fe906000805160206135c1833981519152906001600160a01b0316610529565b600854610523906000805160206135c1833981519152906001600160a01b0316610529565b506105f8565b6000828152602081815260408083206001600160a01b038516845290915290205460ff166105c4576000828152602081815260408083206001600160a01b03851684529091529020805460ff191660011790556105833390565b6001600160a01b0316816001600160a01b0316837f2f8788117e7eff1d82e926ec794901d17c78024a50270940304540a733656f0d60405160405180910390a45b5050565b6000602082840312156105da57600080fd5b81516001600160a01b03811681146105f157600080fd5b9392505050565b612fba806106076000396000f3fe608060405234801561001057600080fd5b50600436106102745760003560e01c806372dfe34811610151578063c08cc02d116100c3578063d547741f11610087578063d547741f146105a3578063e63ab1e9146105b6578063f676f331146105cb578063f79ed94b146105de578063fb306ce8146105f1578063fe64c6811461060457600080fd5b8063c08cc02d14610535578063c7f758a81461053d578063c9d27afe14610568578063cdd722531461057b578063d1ee78a81461059057600080fd5b806391d148541161011557806391d14854146104d7578063a217fddf146104ea578063a63b2c44146104f2578063a64e024a14610505578063a7771ee31461050f578063b3d96d7a1461052257600080fd5b806372dfe3481461048c578063793cf218146104ac5780638456cb59146104b35780638b1e24ab146104bb5780638f61f4f5146104c257600080fd5b80632a60c248116101ea578063599c5533116101ae578063599c55331461042d5780635c975abb1461043557806361be994614610440578063626c3d4314610453578063638b1b141461046657806370e8bd151461047957600080fd5b80632a60c248146103b45780632f2ff15d146103df57806336568abe146103f25780633e4f49e6146104055780633f4ba83a1461042557600080fd5b80631c79704e1161023c5780631c79704e1461031c57806320c631621461032f578063215809ca146103425780632305b7d51461034c5780632358d5a814610354578063248a9ca31461039157600080fd5b8063013cf08b1461027957806301ffc9a7146102ae57806307bd0265146102d157806309351d13146102f45780630d61b51914610307575b600080fd5b61028c6102873660046122a9565b610617565b6040516102a59d9c9b9a9998979695949392919061234c565b60405180910390f35b6102c16102bc366004612409565b610836565b60405190151581526020016102a5565b6102e6600080516020612f6583398151915281565b6040519081526020016102a5565b6102e6610302366004612509565b610847565b61031a6103153660046122a9565b610a92565b005b6102e661032a3660046125c4565b610cc8565b6102e661033d366004612699565b610d6c565b6102e66201518081565b6102e6600581565b6102c161036236600461273e565b6000828152600a602090815260408083206001600160a01b0385168452600c0190915290205460ff1692915050565b6102e661039f3660046122a9565b60009081526020819052604090206001015490565b6003546103c7906001600160a01b031681565b6040516001600160a01b0390911681526020016102a5565b61031a6103ed36600461273e565b610e55565b61031a61040036600461273e565b610e7f565b6104186104133660046122a9565b610f02565b6040516102a5919061276a565b61031a610fd1565b6102e6600381565b60015460ff166102c1565b61031a61044e366004612778565b610ff4565b6008546103c7906001600160a01b031681565b6006546103c7906001600160a01b031681565b6102e66104873660046127bc565b61138e565b6102e661049a36600461284a565b600b6020526000908152604090205481565b60056102e6565b61031a61143d565b60036102e6565b6102e6600080516020612f4583398151915281565b6102c16104e536600461273e565b61145d565b6102e6600081565b6102e6610500366004612865565b611486565b6102e662278d0081565b6102c161051d36600461284a565b611521565b6102e6610530366004612903565b61152c565b6102e6611800565b61055061054b3660046122a9565b611810565b6040516102a59c9b9a999897969594939291906129b3565b61031a610576366004612a67565b611a8b565b610583611c38565b6040516102a59190612a8a565b6102e661059e366004612ac4565b611c89565b61031a6105b136600461273e565b611d2d565b6102e6600080516020612f2583398151915281565b6004546103c7906001600160a01b031681565b6005546103c7906001600160a01b031681565b6009546103c7906001600160a01b031681565b6007546103c7906001600160a01b031681565b600a60205260009081526040902080546001820154600283018054929360ff9092169261064390612b38565b80601f016020809104026020016040519081016040528092919081815260200182805461066f90612b38565b80156106bc5780601f10610691576101008083540402835291602001916106bc565b820191906000526020600020905b81548152906001019060200180831161069f57829003601f168201915b5050505050908060030180546106d190612b38565b80601f01602080910402602001604051908101604052809291908181526020018280546106fd90612b38565b801561074a5780601f1061071f5761010080835404028352916020019161074a565b820191906000526020600020905b81548152906001019060200180831161072d57829003601f168201915b505050600484015460058501546006860154600787015460088801546009890154600a8a018054999a6001600160a01b039097169995985093965060ff92831695919481841694610100909204909316926107a490612b38565b80601f01602080910402602001604051908101604052809291908181526020018280546107d090612b38565b801561081d5780601f106107f25761010080835404028352916020019161081d565b820191906000526020600020905b81548152906001019060200180831161080057829003601f168201915b505050600b90930154919250506001600160a01b03168d565b600061084182611d52565b92915050565b600061085233611d87565b61086f576040516311745b2b60e31b815260040160405180910390fd5b600080516020612f4583398151915261088781611dfe565b604051655055424c494360d01b602082015260009060260160405160208183030381529060405280519060200120876040516020016108c69190612b72565b604051602081830303815290604052805190602001200361090857507faeeb73ea36fcd133f5302b633a0113efb1515d67ce6400d7e06047d00d077a94610a23565b604051665245534552564560c81b602082015260270160405160208183030381529060405280519060200120876040516020016109459190612b72565b604051602081830303815290604052805190602001200361098757507ff84afd4899f63134133db9a332d94f6b817af83bcc1c3a655d38edc323e885f9610a23565b6040516a111155915313d41351539560aa1b6020820152602b0160405160208183030381529060405280519060200120876040516020016109c89190612b72565b6040516020818303038152906040528051906020012003610a0a57507f694d9d177fe790415daca15dd1161744e227a692d61cf6988f79fad2f7f61c35610a23565b604051630309cb8760e51b815260040160405180910390fd5b604080516001600160a01b038881166024808401919091528351808403909101815260449092019092526020810180516001600160e01b03166001600160e01b031985161790526003549091610a84916006918d918d918691168b8b61152c565b9a9950505050505050505050565b610a9a611e08565b600080516020612f65833981519152610ab281611dfe565b6000828152600a602052604081208054909103610ae257604051631dc0650160e31b815260040160405180910390fd5b6009810154610100900460ff1615610b0d576040516351618d5360e01b815260040160405180910390fd5b6002600982015460ff166005811115610b2857610b286122c2565b14158015610b3a575080600601544211155b15610b5857604051638af69cf160e01b815260040160405180910390fd5b8060060154421180610b735750600781015460ff1615156001145b15610bbe57600381600801541015610bae5760098101805460ff1916600317905560408051638af69cf160e01b815290519081900360040190fd5b60098101805460ff191660021790555b60098101805461ffff191661010417905560408051808201909152601781527f70726f706f73616c2e746172676574436f6e74726163740000000000000000006020820152600b820154610c1b91906001600160a01b0316611e50565b600b81015460405160009182916001600160a01b0390911690610c4290600a860190612b8e565b6000604051808303816000865af19150503d8060008114610c7f576040519150601f19603f3d011682016040523d82523d6000602084013e610c84565b606091505b509150915081610c9657805160208201fd5b60405185907f712ae1383f79ac853f8d882153778e0260ef8f03b504e2866e0593e04d2b291f90600090a25050505050565b6000610cd333611d87565b610cf0576040516311745b2b60e31b815260040160405180910390fd5b600080516020612f45833981519152610d0881611dfe565b6000878787604051602401610d1f93929190612c03565b60408051601f198184030181529190526020810180516001600160e01b03166334ff261960e21b179052600354909150610a84906000908c908c9085906001600160a01b03168a8a61152c565b6000610d7733611d87565b610d94576040516311745b2b60e31b815260040160405180910390fd5b600080516020612f45833981519152610dac81611dfe565b60608515610df8578787604051602401610dc7929190612c43565b60408051601f198184030181529190526020810180516001600160e01b031663c69def0b60e01b1790529050610e36565b87604051602401610e099190612c69565b60408051601f198184030181529190526020810180516001600160e01b0316631810b57560e21b17905290505b60038054610a8491908c908c9085906001600160a01b03168a8a61152c565b600082815260208190526040902060010154610e7081611dfe565b610e7a8383611e95565b505050565b6001600160a01b0381163314610ef45760405162461bcd60e51b815260206004820152602f60248201527f416363657373436f6e74726f6c3a2063616e206f6e6c792072656e6f756e636560448201526e103937b632b9903337b91039b2b63360891b60648201526084015b60405180910390fd5b610efe8282611f19565b5050565b6000818152600a6020526040812080548203610f3157604051631dc0650160e31b815260040160405180910390fd5b6009810154610100900460ff1615610f4c5750600492915050565b6002600982015460ff166005811115610f6757610f676122c2565b03610f755750600292915050565b6003600982015460ff166005811115610f9057610f906122c2565b03610f9e5750600392915050565b8060060154421115610fc8576003816008015410610fbf5750600292915050565b50600392915050565b50600192915050565b600080516020612f25833981519152610fe981611dfe565b610ff1611f7e565b50565b600080516020612f6583398151915261100c81611dfe565b6001600160a01b0382166110335760405163d92e233d60e01b815260040160405180910390fd5b604051655055424c494360d01b602082015260009060260160405160208183030381529060405280519060200120846040516020016110729190612b72565b60405160208183030381529060405280519060200120036110b25750600480546001600160a01b038481166001600160a01b0319831617909255166112a7565b604051665245534552564560c81b602082015260270160405160208183030381529060405280519060200120846040516020016110ef9190612b72565b604051602081830303815290604052805190602001200361112f5750600580546001600160a01b038481166001600160a01b0319831617909255166112a7565b6040516a111155915313d41351539560aa1b6020820152602b0160405160208183030381529060405280519060200120846040516020016111709190612b72565b60405160208183030381529060405280519060200120036111b05750600680546001600160a01b038481166001600160a01b0319831617909255166112a7565b6040516553484152494160d01b602082015260260160405160208183030381529060405280519060200120846040516020016111ec9190612b72565b604051602081830303815290604052805190602001200361122c5750600780546001600160a01b038481166001600160a01b0319831617909255166112a7565b6040516853545241544547494360b81b6020820152602901604051602081830303815290604052805190602001208460405160200161126b9190612b72565b6040516020818303038152906040528051906020012003610a0a5750600880546001600160a01b038481166001600160a01b0319831617909255165b6112bf600080516020612f4583398151915282611f19565b6112d7600080516020612f6583398151915282611f19565b6112ef600080516020612f2583398151915282611f19565b611307600080516020612f4583398151915284611e95565b61131f600080516020612f6583398151915284611e95565b611337600080516020612f2583398151915284611e95565b836040516113459190612b72565b6040519081900381206001600160a01b0385168252907fd13bd55a0ea59daae7f0ec99a630f625c7f8b7932e0e369ade1f2698ca892b439060200160405180910390a250505050565b600061139933611d87565b6113b6576040516311745b2b60e31b815260040160405180910390fd5b600080516020612f458339815191526113ce81611dfe565b600086866040516024016113e3929190612c77565b60408051601f198184030181529190526020810180516001600160e01b031663a978d8df60e01b179052600354909150611430906002908b908b9085906001600160a01b03168a8a61152c565b9998505050505050505050565b600080516020612f2583398151915261145581611dfe565b610ff1611fd0565b6000918252602082815260408084206001600160a01b0393909316845291905290205460ff1690565b600061149133611d87565b6114ae576040516311745b2b60e31b815260040160405180910390fd5b600080516020612f458339815191526114c681611dfe565b6040516001600160a01b03871660248201526044810186905260009060640160408051601f198184030181529190526020810180516001600160e01b031663a9059cbb60e01b1790529050610a8460048b8b848c8a8a61152c565b600061084182611d87565b600061153733611d87565b611554576040516311745b2b60e31b815260040160405180910390fd5b600080516020612f4583398151915261156c81611dfe565b8751158061157957508651155b1561159757604051631dc0650160e31b815260040160405180910390fd5b6001600160a01b0385166115be5760405163d92e233d60e01b815260040160405180910390fd5b620151808410806115d1575062278d0084115b156115ef57604051630309cb8760e51b815260040160405180910390fd5b6115fd600280546001019055565b600061160860025490565b905060006116168642612ca8565b6000838152600a602052604090208381556001808201805493945091928e929160ff199091169083600681111561164f5761164f6122c2565b0217905550600281016116628c82612d09565b50600381016116718b82612d09565b506004810180546001600160a01b03191633179055426005820155600681018290556000600882015560098101805461ffff19166001179055600a81016116b88a82612d09565b508781600b0160006101000a8154816001600160a01b0302191690836001600160a01b03160217905550858160070160006101000a81548160ff021916908315150217905550600181600c016000336001600160a01b03166001600160a01b0316815260200190815260200160002060006101000a81548160ff0219169083151502179055506001816008018190555042600b6000336001600160a01b03166001600160a01b0316815260200190815260200160002081905550336001600160a01b0316837f2659a7dbe6b89750e2d276fbb09167c6982ed3b4ff517950c67e36eb4079dcc58e858f6040516117b093929190612dc7565b60405180910390a360405160018152339084907fe71fcdac32df1877c1700e7bda2a03157e20993363a28fc35ac495cefc76e4d49060200160405180910390a350909a9950505050505050505050565b600061180b60025490565b905090565b6000806060806000806000806000806060600080600a60008f8152602001908152602001600020905080600001548160010160009054906101000a900460ff1682600201836003018460040160009054906101000a90046001600160a01b03168560050154866006015487600801548860090160009054906101000a900460ff168960090160019054906101000a900460ff168a600a018b600b0160009054906101000a90046001600160a01b03168980546118cb90612b38565b80601f01602080910402602001604051908101604052809291908181526020018280546118f790612b38565b80156119445780601f1061191957610100808354040283529160200191611944565b820191906000526020600020905b81548152906001019060200180831161192757829003601f168201915b5050505050995088805461195790612b38565b80601f016020809104026020016040519081016040528092919081815260200182805461198390612b38565b80156119d05780601f106119a5576101008083540402835291602001916119d0565b820191906000526020600020905b8154815290600101906020018083116119b357829003601f168201915b505050505098508180546119e390612b38565b80601f0160208091040260200160405190810160405280929190818152602001828054611a0f90612b38565b8015611a5c5780601f10611a3157610100808354040283529160200191611a5c565b820191906000526020600020905b815481529060010190602001808311611a3f57829003601f168201915b505050505091509c509c509c509c509c509c509c509c509c509c509c509c505091939597999b5091939597999b565b611a9433611d87565b611ab1576040516311745b2b60e31b815260040160405180910390fd5b611ab9611e08565b6000828152600a602052604081208054909103611ae957604051631dc0650160e31b815260040160405180910390fd5b6001600982015460ff166005811115611b0457611b046122c2565b14611b2257604051637becc13f60e01b815260040160405180910390fd5b8060060154421115611b4757604051633fc30bd160e11b815260040160405180910390fd5b336000908152600c8201602052604090205460ff1615611b7a57604051637c9a1cf960e01b815260040160405180910390fd5b336000908152600c820160205260409020805460ff191660011790558115611bb457600881018054906000611bae83612ded565b91905055505b6040518215158152339084907fe71fcdac32df1877c1700e7bda2a03157e20993363a28fc35ac495cefc76e4d49060200160405180910390a36003816008015410610e7a5760098101805460ff1916600217905560405183907f28ec9e38ba73636ceb2f6c1574136f83bd46284a3c74734b711bf45e12f8d92990600090a2505050565b611c4061228b565b506040805160a0810182526004546001600160a01b0390811682526005548116602083015260065481169282019290925260075482166060820152600854909116608082015290565b6000611c9433611d87565b611cb1576040516311745b2b60e31b815260040160405180910390fd5b600080516020612f45833981519152611cc981611dfe565b6000878787604051602401611ce093929190612e06565b60408051601f198184030181529190526020810180516001600160e01b03166314699d4160e31b179052600354909150610a84906004908c908c9085906001600160a01b03168a8a61152c565b600082815260208190526040902060010154611d4881611dfe565b610e7a8383611f19565b60006001600160e01b03198216637965db0b60e01b148061084157506301ffc9a760e01b6001600160e01b0319831614610841565b6004546000906001600160a01b0383811691161480611db357506005546001600160a01b038381169116145b80611dcb57506006546001600160a01b038381169116145b80611de357506007546001600160a01b038381169116145b806108415750506008546001600160a01b0390811691161490565b610ff1813361200b565b60015460ff1615611e4e5760405162461bcd60e51b815260206004820152601060248201526f14185d5cd8589b194e881c185d5cd95960821b6044820152606401610eeb565b565b610efe8282604051602401611e66929190612e2e565b60408051601f198184030181529190526020810180516001600160e01b031663319af33360e01b179052612064565b611e9f828261145d565b610efe576000828152602081815260408083206001600160a01b03851684529091529020805460ff19166001179055611ed53390565b6001600160a01b0316816001600160a01b0316837f2f8788117e7eff1d82e926ec794901d17c78024a50270940304540a733656f0d60405160405180910390a45050565b611f23828261145d565b15610efe576000828152602081815260408083206001600160a01b0385168085529252808320805460ff1916905551339285917ff6391f5c32d9c69d2a47ea670b442974b53935d1edc7fd64eb21e047a839171b9190a45050565b611f8661206d565b6001805460ff191690557f5db9ee0a495bf2e6ff9c91a7834c1ba4fdd244a5e8aa4e537bd38aeae4b073aa335b6040516001600160a01b03909116815260200160405180910390a1565b611fd8611e08565b6001805460ff1916811790557f62e78cea01bee320cd4e420270b5ea74000d11b0c9f74754ebdbfc544b05a25833611fb3565b612015828261145d565b610efe57612022816120b6565b61202d8360206120c8565b60405160200161203e929190612e58565b60408051601f198184030181529082905262461bcd60e51b8252610eeb91600401612ecd565b610ff18161226a565b60015460ff16611e4e5760405162461bcd60e51b815260206004820152601460248201527314185d5cd8589b194e881b9bdd081c185d5cd95960621b6044820152606401610eeb565b60606108416001600160a01b03831660145b606060006120d7836002612ee0565b6120e2906002612ca8565b6001600160401b038111156120f9576120f9612433565b6040519080825280601f01601f191660200182016040528015612123576020820181803683370190505b509050600360fc1b8160008151811061213e5761213e612ef7565b60200101906001600160f81b031916908160001a905350600f60fb1b8160018151811061216d5761216d612ef7565b60200101906001600160f81b031916908160001a9053506000612191846002612ee0565b61219c906001612ca8565b90505b6001811115612214576f181899199a1a9b1b9c1cb0b131b232b360811b85600f16601081106121d0576121d0612ef7565b1a60f81b8282815181106121e6576121e6612ef7565b60200101906001600160f81b031916908160001a90535060049490941c9361220d81612f0d565b905061219f565b5083156122635760405162461bcd60e51b815260206004820181905260248201527f537472696e67733a20686578206c656e67746820696e73756666696369656e746044820152606401610eeb565b9392505050565b60006a636f6e736f6c652e6c6f679050600080835160208501845afa505050565b6040518060a001604052806005906020820280368337509192915050565b6000602082840312156122bb57600080fd5b5035919050565b634e487b7160e01b600052602160045260246000fd5b600781106122e8576122e86122c2565b9052565b60005b838110156123075781810151838201526020016122ef565b50506000910152565b600081518084526123288160208601602086016122ec565b601f01601f19169290920160200192915050565b600681106122e8576122e86122c2565b8d815261235c602082018e6122d8565b6101a0604082015260006123746101a083018e612310565b8281036060840152612386818e612310565b6001600160a01b038d16608085015260a084018c905260c084018b905289151560e08501529050876101008401526123c261012084018861233c565b8515156101408401528281036101608401526123de8186612310565b9150506123f76101808301846001600160a01b03169052565b9e9d5050505050505050505050505050565b60006020828403121561241b57600080fd5b81356001600160e01b03198116811461226357600080fd5b634e487b7160e01b600052604160045260246000fd5b600082601f83011261245a57600080fd5b8135602083016000806001600160401b0384111561247a5761247a612433565b50604051601f19601f85018116603f011681018181106001600160401b03821117156124a8576124a8612433565b6040528381529050808284018710156124c057600080fd5b838360208301376000602085830101528094505050505092915050565b80356001600160a01b03811681146124f457600080fd5b919050565b803580151581146124f457600080fd5b60008060008060008060c0878903121561252257600080fd5b86356001600160401b0381111561253857600080fd5b61254489828a01612449565b96505060208701356001600160401b0381111561256057600080fd5b61256c89828a01612449565b95505060408701356001600160401b0381111561258857600080fd5b61259489828a01612449565b9450506125a3606088016124dd565b9250608087013591506125b860a088016124f9565b90509295509295509295565b600080600080600080600060e0888a0312156125df57600080fd5b87356001600160401b038111156125f557600080fd5b6126018a828b01612449565b97505060208801356001600160401b0381111561261d57600080fd5b6126298a828b01612449565b965050612638604089016124dd565b94506060880135935060808801356001600160401b0381111561265a57600080fd5b6126668a828b01612449565b93505060a0880135915061267c60c089016124f9565b905092959891949750929550565b8035600381106124f457600080fd5b600080600080600080600060e0888a0312156126b457600080fd5b87356001600160401b038111156126ca57600080fd5b6126d68a828b01612449565b97505060208801356001600160401b038111156126f257600080fd5b6126fe8a828b01612449565b96505061270d6040890161268a565b945061271b606089016124dd565b9350612729608089016124f9565b925060a0880135915061267c60c089016124f9565b6000806040838503121561275157600080fd5b82359150612761602084016124dd565b90509250929050565b60208101610841828461233c565b6000806040838503121561278b57600080fd5b82356001600160401b038111156127a157600080fd5b6127ad85828601612449565b925050612761602084016124dd565b60008060008060008060c087890312156127d557600080fd5b86356001600160401b038111156127eb57600080fd5b6127f789828a01612449565b96505060208701356001600160401b0381111561281357600080fd5b61281f89828a01612449565b95505061282e6040880161268a565b935060608701359250608087013591506125b860a088016124f9565b60006020828403121561285c57600080fd5b612263826124dd565b600080600080600080600060e0888a03121561288057600080fd5b87356001600160401b0381111561289657600080fd5b6128a28a828b01612449565b97505060208801356001600160401b038111156128be57600080fd5b6128ca8a828b01612449565b9650506128d9604089016124dd565b94506128e7606089016124dd565b93506080880135925060a0880135915061267c60c089016124f9565b600080600080600080600060e0888a03121561291e57600080fd5b87356007811061292d57600080fd5b965060208801356001600160401b0381111561294857600080fd5b6129548a828b01612449565b96505060408801356001600160401b0381111561297057600080fd5b61297c8a828b01612449565b95505060608801356001600160401b0381111561299857600080fd5b6129a48a828b01612449565b945050612729608089016124dd565b8c81526129c3602082018d6122d8565b610180604082015260006129db61018083018d612310565b82810360608401526129ed818d612310565b6001600160a01b038c16608085015260a084018b905260c084018a905260e084018990529050612a2161010084018861233c565b851515610120840152828103610140840152612a3d8186612310565b915050612a566101608301846001600160a01b03169052565b9d9c50505050505050505050505050565b60008060408385031215612a7a57600080fd5b82359150612761602084016124f9565b60a08101818360005b6005811015612abb5781516001600160a01b0316835260209283019290910190600101612a93565b50505092915050565b600080600080600080600060e0888a031215612adf57600080fd5b87356001600160401b03811115612af557600080fd5b612b018a828b01612449565b97505060208801356001600160401b03811115612b1d57600080fd5b612b298a828b01612449565b9650506128d96040890161268a565b600181811c90821680612b4c57607f821691505b602082108103612b6c57634e487b7160e01b600052602260045260246000fd5b50919050565b60008251612b848184602087016122ec565b9190910192915050565b6000808354612b9c81612b38565b600182168015612bb35760018114612bc857612bf8565b60ff1983168652811515820286019350612bf8565b86600052602060002060005b83811015612bf057815488820152600190910190602001612bd4565b505081860193505b509195945050505050565b60018060a01b0384168152826020820152606060408201526000612c2a6060830184612310565b95945050505050565b600381106122e8576122e86122c2565b60408101612c518285612c33565b6001600160a01b039290921660209190910152919050565b602081016108418284612c33565b60408101612c858285612c33565b8260208301529392505050565b634e487b7160e01b600052601160045260246000fd5b8082018082111561084157610841612c92565b601f821115610e7a57806000526020600020601f840160051c81016020851015612ce25750805b601f840160051c820191505b81811015612d025760008155600101612cee565b5050505050565b81516001600160401b03811115612d2257612d22612433565b612d3681612d308454612b38565b84612cbb565b6020601f821160018114612d6a5760008315612d525750848201515b600019600385901b1c1916600184901b178455612d02565b600084815260208120601f198516915b82811015612d9a5787850151825560209485019460019092019101612d7a565b5084821015612db85786840151600019600387901b60f8161c191681555b50505050600190811b01905550565b612dd181856122d8565b826020820152606060408201526000612c2a6060830184612310565b600060018201612dff57612dff612c92565b5060010190565b60608101612e148286612c33565b6001600160a01b0393909316602082015260400152919050565b604081526000612e416040830185612310565b905060018060a01b03831660208301529392505050565b7f416363657373436f6e74726f6c3a206163636f756e7420000000000000000000815260008351612e908160178501602088016122ec565b7001034b99036b4b9b9b4b733903937b6329607d1b6017918401918201528351612ec18160288401602088016122ec565b01602801949350505050565b6020815260006122636020830184612310565b808202811582820484141761084157610841612c92565b634e487b7160e01b600052603260045260246000fd5b600081612f1c57612f1c612c92565b50600019019056fe65d7a28e3265b37a6474929f336521b332c1681b933f6cb9f3376673440d862ab09aa5aeb3702cfd50b6b62bc4532604938f21248a27a1d5ca736082b6819cc1d8aa0f3194971a2a116679f7c2090f6939c8d4e01a2a8d7e41d55e5351469e63a2646970667358221220903d6a9c7ded1038f7295a87124c1ba4584b5593e9554a437176ebc803eb252764736f6c634300081c003365d7a28e3265b37a6474929f336521b332c1681b933f6cb9f3376673440d862ab09aa5aeb3702cfd50b6b62bc4532604938f21248a27a1d5ca736082b6819cc1d8aa0f3194971a2a116679f7c2090f6939c8d4e01a2a8d7e41d55e5351469e63",
  "linkReferences": {},
  "deployedLinkReferences": {}
}