{
  "_format": "hh-sol-artifact-1",
  "contractName": "EmireqMultisigGovernance",
  "sourceName": "contracts/Governance/EmireqGovernance.sol",
  "abi": [
    {
      "inputs": [
        {
          "internalType": "address",
          "name": "_emnToken",
          "type": "address"
        }
      ],
      "stateMutability": "nonpayable",
      "type": "constructor"
    },
    {
      "inputs": [],
      "name": "AlreadyVoted",
      "type": "error"
    },
    {
      "inputs": [],
      "name": "ExecutionFailed",
      "type": "error"
    },
    {
      "inputs": [],
      "name": "InsufficientApprovals",
      "type": "error"
    },
    {
      "inputs": [],
      "name": "InvalidParameter",
      "type": "error"
    },
    {
      "inputs": [],
      "name": "InvalidProposal",
      "type": "error"
    },
    {
      "inputs": [],
      "name": "InvalidVoter",
      "type": "error"
    },
    {
      "inputs": [],
      "name": "ProposalAlreadyExecuted",
      "type": "error"
    },
    {
      "inputs": [],
      "name": "ProposalNotActive",
      "type": "error"
    },
    {
      "inputs": [],
      "name": "QuorumNotReached",
      "type": "error"
    },
    {
      "inputs": [],
      "name": "VotingNotEnded",
      "type": "error"
    },
    {
      "inputs": [],
      "name": "ZeroAddress",
      "type": "error"
    },
    {
      "inputs": [],
      "name": "ZeroAmount",
      "type": "error"
    },
    {
      "anonymous": false,
      "inputs": [
        {
          "indexed": false,
          "internalType": "address",
          "name": "account",
          "type": "address"
        }
      ],
      "name": "Paused",
      "type": "event"
    },
    {
      "anonymous": false,
      "inputs": [
        {
          "indexed": true,
          "internalType": "uint256",
          "name": "proposalId",
          "type": "uint256"
        }
      ],
      "name": "ProposalApproved",
      "type": "event"
    },
    {
      "anonymous": false,
      "inputs": [
        {
          "indexed": true,
          "internalType": "uint256",
          "name": "proposalId",
          "type": "uint256"
        },
        {
          "indexed": false,
          "internalType": "enum EmireqMultisigGovernance.ProposalType",
          "name": "proposalType",
          "type": "uint8"
        },
        {
          "indexed": true,
          "internalType": "address",
          "name": "proposer",
          "type": "address"
        },
        {
          "indexed": false,
          "internalType": "uint256",
          "name": "votingEnd",
          "type": "uint256"
        },
        {
          "indexed": false,
          "internalType": "string",
          "name": "title",
          "type": "string"
        }
      ],
      "name": "ProposalCreated",
      "type": "event"
    },
    {
      "anonymous": false,
      "inputs": [
        {
          "indexed": true,
          "internalType": "uint256",
          "name": "proposalId",
          "type": "uint256"
        }
      ],
      "name": "ProposalExecuted",
      "type": "event"
    },
    {
      "anonymous": false,
      "inputs": [
        {
          "indexed": true,
          "internalType": "bytes32",
          "name": "role",
          "type": "bytes32"
        },
        {
          "indexed": true,
          "internalType": "bytes32",
          "name": "previousAdminRole",
          "type": "bytes32"
        },
        {
          "indexed": true,
          "internalType": "bytes32",
          "name": "newAdminRole",
          "type": "bytes32"
        }
      ],
      "name": "RoleAdminChanged",
      "type": "event"
    },
    {
      "anonymous": false,
      "inputs": [
        {
          "indexed": true,
          "internalType": "bytes32",
          "name": "role",
          "type": "bytes32"
        },
        {
          "indexed": true,
          "internalType": "address",
          "name": "account",
          "type": "address"
        },
        {
          "indexed": true,
          "internalType": "address",
          "name": "sender",
          "type": "address"
        }
      ],
      "name": "RoleGranted",
      "type": "event"
    },
    {
      "anonymous": false,
      "inputs": [
        {
          "indexed": true,
          "internalType": "bytes32",
          "name": "role",
          "type": "bytes32"
        },
        {
          "indexed": true,
          "internalType": "address",
          "name": "account",
          "type": "address"
        },
        {
          "indexed": true,
          "internalType": "address",
          "name": "sender",
          "type": "address"
        }
      ],
      "name": "RoleRevoked",
      "type": "event"
    },
    {
      "anonymous": false,
      "inputs": [
        {
          "indexed": false,
          "internalType": "address",
          "name": "account",
          "type": "address"
        }
      ],
      "name": "Unpaused",
      "type": "event"
    },
    {
      "anonymous": false,
      "inputs": [
        {
          "indexed": true,
          "internalType": "uint256",
          "name": "proposalId",
          "type": "uint256"
        },
        {
          "indexed": true,
          "internalType": "address",
          "name": "voter",
          "type": "address"
        },
        {
          "indexed": false,
          "internalType": "bool",
          "name": "approved",
          "type": "bool"
        }
      ],
      "name": "VoteCast",
      "type": "event"
    },
    {
      "anonymous": false,
      "inputs": [
        {
          "indexed": true,
          "internalType": "string",
          "name": "voterType",
          "type": "string"
        },
        {
          "indexed": false,
          "internalType": "address",
          "name": "newAddress",
          "type": "address"
        }
      ],
      "name": "VoterUpdated",
      "type": "event"
    },
    {
      "inputs": [],
      "name": "DEFAULT_ADMIN_ROLE",
      "outputs": [
        {
          "internalType": "bytes32",
          "name": "",
          "type": "bytes32"
        }
      ],
      "stateMutability": "view",
      "type": "function"
    },
    {
      "inputs": [],
      "name": "EXECUTOR_ROLE",
      "outputs": [
        {
          "internalType": "bytes32",
          "name": "",
          "type": "bytes32"
        }
      ],
      "stateMutability": "view",
      "type": "function"
    },
    {
      "inputs": [],
      "name": "MAX_VOTING_PERIOD",
      "outputs": [
        {
          "internalType": "uint256",
          "name": "",
          "type": "uint256"
        }
      ],
      "stateMutability": "view",
      "type": "function"
    },
    {
      "inputs": [],
      "name": "MIN_VOTING_PERIOD",
      "outputs": [
        {
          "internalType": "uint256",
          "name": "",
          "type": "uint256"
        }
      ],
      "stateMutability": "view",
      "type": "function"
    },
    {
      "inputs": [],
      "name": "PAUSER_ROLE",
      "outputs": [
        {
          "internalType": "bytes32",
          "name": "",
          "type": "bytes32"
        }
      ],
      "stateMutability": "view",
      "type": "function"
    },
    {
      "inputs": [],
      "name": "PROPOSER_ROLE",
      "outputs": [
        {
          "internalType": "bytes32",
          "name": "",
          "type": "bytes32"
        }
      ],
      "stateMutability": "view",
      "type": "function"
    },
    {
      "inputs": [],
      "name": "REQUIRED_APPROVALS",
      "outputs": [
        {
          "internalType": "uint256",
          "name": "",
          "type": "uint256"
        }
      ],
      "stateMutability": "view",
      "type": "function"
    },
    {
      "inputs": [],
      "name": "TOTAL_VOTERS",
      "outputs": [
        {
          "internalType": "uint256",
          "name": "",
          "type": "uint256"
        }
      ],
      "stateMutability": "view",
      "type": "function"
    },
    {
      "inputs": [
        {
          "internalType": "string",
          "name": "_title",
          "type": "string"
        },
        {
          "internalType": "string",
          "name": "_description",
          "type": "string"
        },
        {
          "internalType": "string",
          "name": "_addressType",
          "type": "string"
        },
        {
          "internalType": "address",
          "name": "_newAddress",
          "type": "address"
        },
        {
          "internalType": "uint256",
          "name": "_votingPeriod",
          "type": "uint256"
        }
      ],
      "name": "createAddressUpdateProposal",
      "outputs": [
        {
          "internalType": "uint256",
          "name": "",
          "type": "uint256"
        }
      ],
      "stateMutability": "nonpayable",
      "type": "function"
    },
    {
      "inputs": [
        {
          "internalType": "string",
          "name": "_title",
          "type": "string"
        },
        {
          "internalType": "string",
          "name": "_description",
          "type": "string"
        },
        {
          "internalType": "enum EminarToken.BackingAsset",
          "name": "_asset",
          "type": "uint8"
        },
        {
          "internalType": "address",
          "name": "_token",
          "type": "address"
        },
        {
          "internalType": "bool",
          "name": "_register",
          "type": "bool"
        },
        {
          "internalType": "uint256",
          "name": "_votingPeriod",
          "type": "uint256"
        }
      ],
      "name": "createAssetPolicyProposal",
      "outputs": [
        {
          "internalType": "uint256",
          "name": "",
          "type": "uint256"
        }
      ],
      "stateMutability": "nonpayable",
      "type": "function"
    },
    {
      "inputs": [
        {
          "internalType": "string",
          "name": "_title",
          "type": "string"
        },
        {
          "internalType": "string",
          "name": "_description",
          "type": "string"
        },
        {
          "internalType": "enum EminarToken.BackingAsset",
          "name": "_asset",
          "type": "uint8"
        },
        {
          "internalType": "address",
          "name": "_to",
          "type": "address"
        },
        {
          "internalType": "uint256",
          "name": "_amount",
          "type": "uint256"
        },
        {
          "internalType": "uint256",
          "name": "_votingPeriod",
          "type": "uint256"
        }
      ],
      "name": "createBackingWithdrawalProposal",
      "outputs": [
        {
          "internalType": "uint256",
          "name": "",
          "type": "uint256"
        }
      ],
      "stateMutability": "nonpayable",
      "type": "function"
    },
    {
      "inputs": [
        {
          "internalType": "string",
          "name": "_title",
          "type": "string"
        },
        {
          "internalType": "string",
          "name": "_description",
          "type": "string"
        },
        {
          "internalType": "enum EminarToken.BackingAsset",
          "name": "_asset",
          "type": "uint8"
        },
        {
          "internalType": "uint256",
          "name": "_priceUSD",
          "type": "uint256"
        },
        {
          "internalType": "uint256",
          "name": "_votingPeriod",
          "type": "uint256"
        }
      ],
      "name": "createOraclePriceProposal",
      "outputs": [
        {
          "internalType": "uint256",
          "name": "",
          "type": "uint256"
        }
      ],
      "stateMutability": "nonpayable",
      "type": "function"
    },
    {
      "inputs": [
        {
          "internalType": "string",
          "name": "_title",
          "type": "string"
        },
        {
          "internalType": "string",
          "name": "_description",
          "type": "string"
        },
        {
          "internalType": "address",
          "name": "_to",
          "type": "address"
        },
        {
          "internalType": "uint256",
          "name": "_amount",
          "type": "uint256"
        },
        {
          "internalType": "string",
          "name": "_reason",
          "type": "string"
        },
        {
          "internalType": "uint256",
          "name": "_votingPeriod",
          "type": "uint256"
        }
      ],
      "name": "createTokenMintingProposal",
      "outputs": [
        {
          "internalType": "uint256",
          "name": "",
          "type": "uint256"
        }
      ],
      "stateMutability": "nonpayable",
      "type": "function"
    },
    {
      "inputs": [
        {
          "internalType": "string",
          "name": "_title",
          "type": "string"
        },
        {
          "internalType": "string",
          "name": "_description",
          "type": "string"
        },
        {
          "internalType": "address",
          "name": "_token",
          "type": "address"
        },
        {
          "internalType": "address",
          "name": "_to",
          "type": "address"
        },
        {
          "internalType": "uint256",
          "name": "_amount",
          "type": "uint256"
        },
        {
          "internalType": "uint256",
          "name": "_votingPeriod",
          "type": "uint256"
        }
      ],
      "name": "createTreasurySpendingProposal",
      "outputs": [
        {
          "internalType": "uint256",
          "name": "",
          "type": "uint256"
        }
      ],
      "stateMutability": "nonpayable",
      "type": "function"
    },
    {
      "inputs": [],
      "name": "developmentAddress",
      "outputs": [
        {
          "internalType": "address",
          "name": "",
          "type": "address"
        }
      ],
      "stateMutability": "view",
      "type": "function"
    },
    {
      "inputs": [],
      "name": "emnToken",
      "outputs": [
        {
          "internalType": "contract EminarToken",
          "name": "",
          "type": "address"
        }
      ],
      "stateMutability": "view",
      "type": "function"
    },
    {
      "inputs": [
        {
          "internalType": "uint256",
          "name": "_proposalId",
          "type": "uint256"
        }
      ],
      "name": "executeProposal",
      "outputs": [],
      "stateMutability": "nonpayable",
      "type": "function"
    },
    {
      "inputs": [
        {
          "internalType": "uint256",
          "name": "_proposalId",
          "type": "uint256"
        }
      ],
      "name": "getProposal",
      "outputs": [
        {
          "internalType": "uint256",
          "name": "id",
          "type": "uint256"
        },
        {
          "internalType": "enum EmireqMultisigGovernance.ProposalType",
          "name": "proposalType",
          "type": "uint8"
        },
        {
          "internalType": "string",
          "name": "title",
          "type": "string"
        },
        {
          "internalType": "string",
          "name": "description",
          "type": "string"
        },
        {
          "internalType": "address",
          "name": "proposer",
          "type": "address"
        },
        {
          "internalType": "uint256",
          "name": "createdAt",
          "type": "uint256"
        },
        {
          "internalType": "uint256",
          "name": "votingEnd",
          "type": "uint256"
        },
        {
          "internalType": "uint256",
          "name": "approvalCount",
          "type": "uint256"
        },
        {
          "internalType": "enum EmireqMultisigGovernance.ProposalStatus",
          "name": "status",
          "type": "uint8"
        },
        {
          "internalType": "bool",
          "name": "executed",
          "type": "bool"
        },
        {
          "internalType": "bytes",
          "name": "callData",
          "type": "bytes"
        },
        {
          "internalType": "address",
          "name": "targetContract",
          "type": "address"
        }
      ],
      "stateMutability": "view",
      "type": "function"
    },
    {
      "inputs": [],
      "name": "getProposalCount",
      "outputs": [
        {
          "internalType": "uint256",
          "name": "",
          "type": "uint256"
        }
      ],
      "stateMutability": "view",
      "type": "function"
    },
    {
      "inputs": [],
      "name": "getRequiredApprovals",
      "outputs": [
        {
          "internalType": "uint256",
          "name": "",
          "type": "uint256"
        }
      ],
      "stateMutability": "pure",
      "type": "function"
    },
    {
      "inputs": [
        {
          "internalType": "bytes32",
          "name": "role",
          "type": "bytes32"
        }
      ],
      "name": "getRoleAdmin",
      "outputs": [
        {
          "internalType": "bytes32",
          "name": "",
          "type": "bytes32"
        }
      ],
      "stateMutability": "view",
      "type": "function"
    },
    {
      "inputs": [],
      "name": "getTotalVoters",
      "outputs": [
        {
          "internalType": "uint256",
          "name": "",
          "type": "uint256"
        }
      ],
      "stateMutability": "pure",
      "type": "function"
    },
    {
      "inputs": [],
      "name": "getVoters",
      "outputs": [
        {
          "internalType": "address[5]",
          "name": "",
          "type": "address[5]"
        }
      ],
      "stateMutability": "view",
      "type": "function"
    },
    {
      "inputs": [
        {
          "internalType": "bytes32",
          "name": "role",
          "type": "bytes32"
        },
        {
          "internalType": "address",
          "name": "account",
          "type": "address"
        }
      ],
      "name": "grantRole",
      "outputs": [],
      "stateMutability": "nonpayable",
      "type": "function"
    },
    {
      "inputs": [
        {
          "internalType": "uint256",
          "name": "_proposalId",
          "type": "uint256"
        },
        {
          "internalType": "address",
          "name": "_voter",
          "type": "address"
        }
      ],
      "name": "hasApproved",
      "outputs": [
        {
          "internalType": "bool",
          "name": "",
          "type": "bool"
        }
      ],
      "stateMutability": "view",
      "type": "function"
    },
    {
      "inputs": [
        {
          "internalType": "bytes32",
          "name": "role",
          "type": "bytes32"
        },
        {
          "internalType": "address",
          "name": "account",
          "type": "address"
        }
      ],
      "name": "hasRole",
      "outputs": [
        {
          "internalType": "bool",
          "name": "",
          "type": "bool"
        }
      ],
      "stateMutability": "view",
      "type": "function"
    },
    {
      "inputs": [
        {
          "internalType": "address",
          "name": "_address",
          "type": "address"
        }
      ],
      "name": "isVoter",
      "outputs": [
        {
          "internalType": "bool",
          "name": "",
          "type": "bool"
        }
      ],
      "stateMutability": "view",
      "type": "function"
    },
    {
      "inputs": [
        {
          "internalType": "address",
          "name": "",
          "type": "address"
        }
      ],
      "name": "lastProposalTimestamp",
      "outputs": [
        {
          "internalType": "uint256",
          "name": "",
          "type": "uint256"
        }
      ],
      "stateMutability": "view",
      "type": "function"
    },
    {
      "inputs": [],
      "name": "pause",
      "outputs": [],
      "stateMutability": "nonpayable",
      "type": "function"
    },
    {
      "inputs": [],
      "name": "paused",
      "outputs": [
        {
          "internalType": "bool",
          "name": "",
          "type": "bool"
        }
      ],
      "stateMutability": "view",
      "type": "function"
    },
    {
      "inputs": [
        {
          "internalType": "uint256",
          "name": "",
          "type": "uint256"
        }
      ],
      "name": "proposals",
      "outputs": [
        {
          "internalType": "uint256",
          "name": "id",
          "type": "uint256"
        },
        {
          "internalType": "enum EmireqMultisigGovernance.ProposalType",
          "name": "proposalType",
          "type": "uint8"
        },
        {
          "internalType": "string",
          "name": "title",
          "type": "string"
        },
        {
          "internalType": "string",
          "name": "description",
          "type": "string"
        },
        {
          "internalType": "address",
          "name": "proposer",
          "type": "address"
        },
        {
          "internalType": "uint256",
          "name": "createdAt",
          "type": "uint256"
        },
        {
          "internalType": "uint256",
          "name": "votingEnd",
          "type": "uint256"
        },
        {
          "internalType": "uint256",
          "name": "approvalCount",
          "type": "uint256"
        },
        {
          "internalType": "enum EmireqMultisigGovernance.ProposalStatus",
          "name": "status",
          "type": "uint8"
        },
        {
          "internalType": "bool",
          "name": "executed",
          "type": "bool"
        },
        {
          "internalType": "bytes",
          "name": "callData",
          "type": "bytes"
        },
        {
          "internalType": "address",
          "name": "targetContract",
          "type": "address"
        }
      ],
      "stateMutability": "view",
      "type": "function"
    },
    {
      "inputs": [
        {
          "internalType": "enum EmireqMultisigGovernance.ProposalType",
          "name": "_proposalType",
          "type": "uint8"
        },
        {
          "internalType": "string",
          "name": "_title",
          "type": "string"
        },
        {
          "internalType": "string",
          "name": "_description",
          "type": "string"
        },
        {
          "internalType": "bytes",
          "name": "_callData",
          "type": "bytes"
        },
        {
          "internalType": "address",
          "name": "_targetContract",
          "type": "address"
        },
        {
          "internalType": "uint256",
          "name": "_votingPeriod",
          "type": "uint256"
        }
      ],
      "name": "propose",
      "outputs": [
        {
          "internalType": "uint256",
          "name": "",
          "type": "uint256"
        }
      ],
      "stateMutability": "nonpayable",
      "type": "function"
    },
    {
      "inputs": [],
      "name": "publicAddress",
      "outputs": [
        {
          "internalType": "address",
          "name": "",
          "type": "address"
        }
      ],
      "stateMutability": "view",
      "type": "function"
    },
    {
      "inputs": [
        {
          "internalType": "bytes32",
          "name": "role",
          "type": "bytes32"
        },
        {
          "internalType": "address",
          "name": "account",
          "type": "address"
        }
      ],
      "name": "renounceRole",
      "outputs": [],
      "stateMutability": "nonpayable",
      "type": "function"
    },
    {
      "inputs": [],
      "name": "reserveAddress",
      "outputs": [
        {
          "internalType": "address",
          "name": "",
          "type": "address"
        }
      ],
      "stateMutability": "view",
      "type": "function"
    },
    {
      "inputs": [
        {
          "internalType": "bytes32",
          "name": "role",
          "type": "bytes32"
        },
        {
          "internalType": "address",
          "name": "account",
          "type": "address"
        }
      ],
      "name": "revokeRole",
      "outputs": [],
      "stateMutability": "nonpayable",
      "type": "function"
    },
    {
      "inputs": [],
      "name": "shariaTrustAddress",
      "outputs": [
        {
          "internalType": "address",
          "name": "",
          "type": "address"
        }
      ],
      "stateMutability": "view",
      "type": "function"
    },
    {
      "inputs": [
        {
          "internalType": "uint256",
          "name": "_proposalId",
          "type": "uint256"
        }
      ],
      "name": "state",
      "outputs": [
        {
          "internalType": "enum EmireqMultisigGovernance.ProposalStatus",
          "name": "",
          "type": "uint8"
        }
      ],
      "stateMutability": "view",
      "type": "function"
    },
    {
      "inputs": [],
      "name": "strategicPartnersAddress",
      "outputs": [
        {
          "internalType": "address",
          "name": "",
          "type": "address"
        }
      ],
      "stateMutability": "view",
      "type": "function"
    },
    {
      "inputs": [
        {
          "internalType": "bytes4",
          "name": "interfaceId",
          "type": "bytes4"
        }
      ],
      "name": "supportsInterface",
      "outputs": [
        {
          "internalType": "bool",
          "name": "",
          "type": "bool"
        }
      ],
      "stateMutability": "view",
      "type": "function"
    },
    {
      "inputs": [],
      "name": "unpause",
      "outputs": [],
      "stateMutability": "nonpayable",
      "type": "function"
    },
    {
      "inputs": [
        {
          "internalType": "string",
          "name": "_voterType",
          "type": "string"
        },
        {
          "internalType": "address",
          "name": "_newAddress",
          "type": "address"
        }
      ],
      "name": "updateVoterAddress",
      "outputs": [],
      "stateMutability": "nonpayable",
      "type": "function"
    },
    {
      "inputs": [
        {
          "internalType": "uint256",
          "name": "_proposalId",
          "type": "uint256"
        },
        {
          "internalType": "bool",
          "name": "_approve",
          "type": "bool"
        }
      ],
      "name": "vote",
      "outputs": [],
      "stateMutability": "nonpayable",
      "type": "function"
    }
  ],
  "bytecode": "0x608060405234801561001057600080fd5b5060405161344f38038061344f83398101604081905261002f916105c8565b6001805460ff191690556001600160a01b0381166100605760405163d92e233d60e01b815260040160405180910390fd5b600380546001600160a01b0319166001600160a01b0383169081179091556040805163f676f33160e01b8152905163f676f331916004808201926020929091908290030181865afa1580156100b9573d6000803e3d6000fd5b505050506040513d601f19601f820116820180604052508101906100dd91906105c8565b600480546001600160a01b0319166001600160a01b039283161781556003546040805163f79ed94b60e01b81529051919093169263f79ed94b92818101926020929091908290030181865afa15801561013a573d6000803e3d6000fd5b505050506040513d601f19601f8201168201806040525081019061015e91906105c8565b600580546001600160a01b0319166001600160a01b03928316179055600354604080516318e2c6c560e21b81529051919092169163638b1b149160048083019260209291908290030181865afa1580156101bc573d6000803e3d6000fd5b505050506040513d601f19601f820116820180604052508101906101e091906105c8565b600680546001600160a01b0319166001600160a01b039283161790556003546040805163fe64c68160e01b81529051919092169163fe64c6819160048083019260209291908290030181865afa15801561023e573d6000803e3d6000fd5b505050506040513d601f19601f8201168201806040525081019061026291906105c8565b600780546001600160a01b0319166001600160a01b039283161790556003546040805163626c3d4360e01b81529051919092169163626c3d439160048083019260209291908290030181865afa1580156102c0573d6000803e3d6000fd5b505050506040513d601f19601f820116820180604052508101906102e491906105c8565b600880546001600160a01b0319166001600160a01b0392831617905560045461031d9160008051602061340f8339815191529116610529565b6005546103429060008051602061340f833981519152906001600160a01b0316610529565b6006546103679060008051602061340f833981519152906001600160a01b0316610529565b60075461038c9060008051602061340f833981519152906001600160a01b0316610529565b6008546103b19060008051602061340f833981519152906001600160a01b0316610529565b6004546103d69060008051602061342f833981519152906001600160a01b0316610529565b6005546103fb9060008051602061342f833981519152906001600160a01b0316610529565b6006546104209060008051602061342f833981519152906001600160a01b0316610529565b6007546104459060008051602061342f833981519152906001600160a01b0316610529565b60085461046a9060008051602061342f833981519152906001600160a01b0316610529565b60045461048f906000805160206133ef833981519152906001600160a01b0316610529565b6005546104b4906000805160206133ef833981519152906001600160a01b0316610529565b6006546104d9906000805160206133ef833981519152906001600160a01b0316610529565b6007546104fe906000805160206133ef833981519152906001600160a01b0316610529565b600854610523906000805160206133ef833981519152906001600160a01b0316610529565b506105f8565b6000828152602081815260408083206001600160a01b038516845290915290205460ff166105c4576000828152602081815260408083206001600160a01b03851684529091529020805460ff191660011790556105833390565b6001600160a01b0316816001600160a01b0316837f2f8788117e7eff1d82e926ec794901d17c78024a50270940304540a733656f0d60405160405180910390a45b5050565b6000602082840312156105da57600080fd5b81516001600160a01b03811681146105f157600080fd5b9392505050565b612de8806106076000396000f3fe608060405234801561001057600080fd5b50600436106102695760003560e01c8063638b1b1411610151578063a7771ee3116100c3578063cdd7225311610087578063cdd722531461056a578063d547741f1461057f578063e63ab1e914610592578063f676f331146105a7578063f79ed94b146105ba578063fe64c681146105cd57600080fd5b8063a7771ee314610516578063c08cc02d14610529578063c1f1e0d314610531578063c7f758a814610544578063c9d27afe1461055757600080fd5b80638b1e24ab116101155780638b1e24ab146104c25780638f61f4f5146104c957806391d14854146104de5780639b3326ca146104f1578063a217fddf14610504578063a64e024a1461050c57600080fd5b8063638b1b141461046d578063713490411461048057806372dfe34814610493578063793cf218146104b35780638456cb59146104ba57600080fd5b80632f2ff15d116101ea578063599c5533116101ae578063599c55331461040e5780635b7ecc3f146104165780635c975abb146104295780635e26efd31461043457806361be994614610447578063626c3d431461045a57600080fd5b80632f2ff15d146103ad57806336568abe146103c05780633e4f49e6146103d35780633f4ba83a146103f3578063504fb724146103fb57600080fd5b80632305b7d5116102315780632305b7d5146103075780632358d5a81461030f5780632389bdc61461034c578063248a9ca31461035f5780632a60c2481461038257600080fd5b8063013cf08b1461026e57806301ffc9a7146102a257806307bd0265146102c55780630d61b519146102e8578063215809ca146102fd575b600080fd5b61028161027c36600461219b565b6105e0565b6040516102999c9b9a9998979695949392919061223e565b60405180910390f35b6102b56102b03660046122f2565b6107f6565b6040519015158152602001610299565b6102da600080516020612d9383398151915281565b604051908152602001610299565b6102fb6102f636600461219b565b610807565b005b6102da6203f48081565b6102da600581565b6102b561031d366004612338565b60008281526009602090815260408083206001600160a01b0385168452600b0190915290205460ff1692915050565b6102da61035a36600461240e565b610a03565b6102da61036d36600461219b565b60009081526020819052604090206001015490565b600354610395906001600160a01b031681565b6040516001600160a01b039091168152602001610299565b6102fb6103bb366004612338565b610ab3565b6102fb6103ce366004612338565b610add565b6103e66103e136600461219b565b610b60565b60405161029991906124c4565b6102fb610c2f565b6102da6104093660046124e1565b610c52565b6102da600381565b6102da610424366004612589565b610cf5565b60015460ff166102b5565b6102da61044236600461262e565b610ddd565b6102fb6104553660046126d8565b611019565b600854610395906001600160a01b031681565b600654610395906001600160a01b031681565b6102da61048e36600461271c565b6113b3565b6102da6104a136600461278e565b600a6020526000908152604090205481565b60056102da565b6102fb61144d565b60036102da565b6102da600080516020612d7383398151915281565b6102b56104ec366004612338565b61146d565b6102da6104ff3660046127a9565b611496565b6102da600081565b6102da62278d0081565b6102b561052436600461278e565b61174d565b6102da611758565b6102da61053f366004612857565b611768565b61028161055236600461219b565b611815565b6102fb6105653660046128e0565b611a90565b610572611c3d565b6040516102999190612910565b6102fb61058d366004612338565b611c8e565b6102da600080516020612d5383398151915281565b600454610395906001600160a01b031681565b600554610395906001600160a01b031681565b600754610395906001600160a01b031681565b600960205260009081526040902080546001820154600283018054929360ff9092169261060c9061294a565b80601f01602080910402602001604051908101604052809291908181526020018280546106389061294a565b80156106855780601f1061065a57610100808354040283529160200191610685565b820191906000526020600020905b81548152906001019060200180831161066857829003601f168201915b50505050509080600301805461069a9061294a565b80601f01602080910402602001604051908101604052809291908181526020018280546106c69061294a565b80156107135780601f106106e857610100808354040283529160200191610713565b820191906000526020600020905b8154815290600101906020018083116106f657829003601f168201915b5050506004840154600585015460068601546007870154600888015460098901805498996001600160a01b0390961698949750929550909360ff80831694610100909304169290916107649061294a565b80601f01602080910402602001604051908101604052809291908181526020018280546107909061294a565b80156107dd5780601f106107b2576101008083540402835291602001916107dd565b820191906000526020600020905b8154815290600101906020018083116107c057829003601f168201915b505050600a90930154919250506001600160a01b03168c565b600061080182611cb3565b92915050565b61080f611ce8565b600080516020612d9383398151915261082781611d30565b6000828152600960205260408120805490910361085757604051631dc0650160e31b815260040160405180910390fd5b6008810154610100900460ff1615610882576040516351618d5360e01b815260040160405180910390fd5b6002600882015460ff16600581111561089d5761089d6121b4565b141580156108af575080600601544211155b156108cd57604051638af69cf160e01b815260040160405180910390fd5b806006015442111561091f5760038160070154101561090f5760088101805460ff1916600317905560408051638af69cf160e01b815290519081900360040190fd5b60088101805460ff191660021790555b60088101805461ffff1916610104179055600354600a820154604051635fb8915160e11b81526000926001600160a01b039081169263bf7122a29261096f92909116906009870190600401612984565b6020604051808303816000875af115801561098e573d6000803e3d6000fd5b505050506040513d601f19601f820116820180604052508101906109b29190612a22565b9050806109d257604051632b3f6d1160e21b815260040160405180910390fd5b60405184907f712ae1383f79ac853f8d882153778e0260ef8f03b504e2866e0593e04d2b291f90600090a250505050565b6000610a0e33611d3a565b610a2b576040516311745b2b60e31b815260040160405180910390fd5b600080516020612d73833981519152610a4381611d30565b6000868686604051602401610a5a93929190612a3f565b60408051601f198184030181529190526020810180516001600160e01b03166334ff261960e21b179052600354909150610aa6906000908b908b9085906001600160a01b031689611496565b9998505050505050505050565b600082815260208190526040902060010154610ace81611d30565b610ad88383611db1565b505050565b6001600160a01b0381163314610b525760405162461bcd60e51b815260206004820152602f60248201527f416363657373436f6e74726f6c3a2063616e206f6e6c792072656e6f756e636560448201526e103937b632b9903337b91039b2b63360891b60648201526084015b60405180910390fd5b610b5c8282611e35565b5050565b600081815260096020526040812080548203610b8f57604051631dc0650160e31b815260040160405180910390fd5b6008810154610100900460ff1615610baa5750600492915050565b6002600882015460ff166005811115610bc557610bc56121b4565b03610bd35750600292915050565b6003600882015460ff166005811115610bee57610bee6121b4565b03610bfc5750600392915050565b8060060154421115610c26576003816007015410610c1d5750600292915050565b50600392915050565b50600192915050565b600080516020612d53833981519152610c4781611d30565b610c4f611e9a565b50565b6000610c5d33611d3a565b610c7a576040516311745b2b60e31b815260040160405180910390fd5b600080516020612d73833981519152610c9281611d30565b6000868686604051602401610ca993929190612a7f565b60408051601f198184030181529190526020810180516001600160e01b03166314699d4160e31b179052600354909150610aa6906004908b908b9085906001600160a01b031689611496565b6000610d0033611d3a565b610d1d576040516311745b2b60e31b815260040160405180910390fd5b600080516020612d73833981519152610d3581611d30565b60608415610d81578686604051602401610d50929190612aa7565b60408051601f198184030181529190526020810180516001600160e01b031663c69def0b60e01b1790529050610dbf565b86604051602401610d929190612acd565b60408051601f198184030181529190526020810180516001600160e01b0316631810b57560e21b17905290505b60038054610aa691908b908b9085906001600160a01b031689611496565b6000610de833611d3a565b610e05576040516311745b2b60e31b815260040160405180910390fd5b600080516020612d73833981519152610e1d81611d30565b604051655055424c494360d01b60208201526000906026016040516020818303038152906040528051906020012086604051602001610e5c9190612adb565b6040516020818303038152906040528051906020012003610e9e57507faeeb73ea36fcd133f5302b633a0113efb1515d67ce6400d7e06047d00d077a94610fb9565b604051665245534552564560c81b60208201526027016040516020818303038152906040528051906020012086604051602001610edb9190612adb565b6040516020818303038152906040528051906020012003610f1d57507ff84afd4899f63134133db9a332d94f6b817af83bcc1c3a655d38edc323e885f9610fb9565b6040516a111155915313d41351539560aa1b6020820152602b016040516020818303038152906040528051906020012086604051602001610f5e9190612adb565b6040516020818303038152906040528051906020012003610fa057507f694d9d177fe790415daca15dd1161744e227a692d61cf6988f79fad2f7f61c35610fb9565b604051630309cb8760e51b815260040160405180910390fd5b604080516001600160a01b038781166024808401919091528351808403909101815260449092019092526020810180516001600160e01b03166001600160e01b031985161790526003549091610aa6916006918c918c918691168a611496565b600080516020612d9383398151915261103181611d30565b6001600160a01b0382166110585760405163d92e233d60e01b815260040160405180910390fd5b604051655055424c494360d01b602082015260009060260160405160208183030381529060405280519060200120846040516020016110979190612adb565b60405160208183030381529060405280519060200120036110d75750600480546001600160a01b038481166001600160a01b0319831617909255166112cc565b604051665245534552564560c81b602082015260270160405160208183030381529060405280519060200120846040516020016111149190612adb565b60405160208183030381529060405280519060200120036111545750600580546001600160a01b038481166001600160a01b0319831617909255166112cc565b6040516a111155915313d41351539560aa1b6020820152602b0160405160208183030381529060405280519060200120846040516020016111959190612adb565b60405160208183030381529060405280519060200120036111d55750600680546001600160a01b038481166001600160a01b0319831617909255166112cc565b6040516553484152494160d01b602082015260260160405160208183030381529060405280519060200120846040516020016112119190612adb565b60405160208183030381529060405280519060200120036112515750600780546001600160a01b038481166001600160a01b0319831617909255166112cc565b6040516853545241544547494360b81b602082015260290160405160208183030381529060405280519060200120846040516020016112909190612adb565b6040516020818303038152906040528051906020012003610fa05750600880546001600160a01b038481166001600160a01b0319831617909255165b6112e4600080516020612d7383398151915282611e35565b6112fc600080516020612d9383398151915282611e35565b611314600080516020612d5383398151915282611e35565b61132c600080516020612d7383398151915284611db1565b611344600080516020612d9383398151915284611db1565b61135c600080516020612d5383398151915284611db1565b8360405161136a9190612adb565b6040519081900381206001600160a01b0385168252907fd13bd55a0ea59daae7f0ec99a630f625c7f8b7932e0e369ade1f2698ca892b439060200160405180910390a250505050565b60006113be33611d3a565b6113db576040516311745b2b60e31b815260040160405180910390fd5b600080516020612d738339815191526113f381611d30565b6040516001600160a01b03861660248201526044810185905260009060640160408051601f198184030181529190526020810180516001600160e01b031663a9059cbb60e01b1790529050610aa660048a8a848b89611496565b600080516020612d5383398151915261146581611d30565b610c4f611eec565b6000918252602082815260408084206001600160a01b0393909316845291905290205460ff1690565b60006114a133611d3a565b6114be576040516311745b2b60e31b815260040160405180910390fd5b600080516020612d738339815191526114d681611d30565b865115806114e357508551155b1561150157604051631dc0650160e31b815260040160405180910390fd5b6001600160a01b0384166115285760405163d92e233d60e01b815260040160405180910390fd5b6203f48083108061153b575062278d0083115b1561155957604051630309cb8760e51b815260040160405180910390fd5b611567600280546001019055565b600061157260025490565b905060006115808542612b0d565b60008381526009602052604090208381556001808201805493945091928d929160ff19909116908360068111156115b9576115b96121b4565b0217905550600281016115cc8b82612b6e565b50600381016115db8a82612b6e565b506004810180546001600160a01b03191633179055426005820155600681018290556000600782015560088101805461ffff19166001179055600981016116228982612b6e565b508681600a0160006101000a8154816001600160a01b0302191690836001600160a01b03160217905550600181600b016000336001600160a01b03166001600160a01b0316815260200190815260200160002060006101000a81548160ff0219169083151502179055506001816007018190555042600a6000336001600160a01b03166001600160a01b0316815260200190815260200160002081905550336001600160a01b0316837f2659a7dbe6b89750e2d276fbb09167c6982ed3b4ff517950c67e36eb4079dcc58d858e6040516116fe93929190612c2c565b60405180910390a360405160018152339084907fe71fcdac32df1877c1700e7bda2a03157e20993363a28fc35ac495cefc76e4d49060200160405180910390a350909998505050505050505050565b600061080182611d3a565b600061176360025490565b905090565b600061177333611d3a565b611790576040516311745b2b60e31b815260040160405180910390fd5b600080516020612d738339815191526117a881611d30565b600085856040516024016117bd929190612c52565b60408051601f198184030181529190526020810180516001600160e01b031663a978d8df60e01b179052600354909150611809906002908a908a9085906001600160a01b031689611496565b98975050505050505050565b6000806060806000806000806000806060600080600960008f8152602001908152602001600020905080600001548160010160009054906101000a900460ff1682600201836003018460040160009054906101000a90046001600160a01b03168560050154866006015487600701548860080160009054906101000a900460ff168960080160019054906101000a900460ff168a6009018b600a0160009054906101000a90046001600160a01b03168980546118d09061294a565b80601f01602080910402602001604051908101604052809291908181526020018280546118fc9061294a565b80156119495780601f1061191e57610100808354040283529160200191611949565b820191906000526020600020905b81548152906001019060200180831161192c57829003601f168201915b5050505050995088805461195c9061294a565b80601f01602080910402602001604051908101604052809291908181526020018280546119889061294a565b80156119d55780601f106119aa576101008083540402835291602001916119d5565b820191906000526020600020905b8154815290600101906020018083116119b857829003601f168201915b505050505098508180546119e89061294a565b80601f0160208091040260200160405190810160405280929190818152602001828054611a149061294a565b8015611a615780601f10611a3657610100808354040283529160200191611a61565b820191906000526020600020905b815481529060010190602001808311611a4457829003601f168201915b505050505091509c509c509c509c509c509c509c509c509c509c509c509c505091939597999b5091939597999b565b611a9933611d3a565b611ab6576040516311745b2b60e31b815260040160405180910390fd5b611abe611ce8565b60008281526009602052604081208054909103611aee57604051631dc0650160e31b815260040160405180910390fd5b6001600882015460ff166005811115611b0957611b096121b4565b14611b2757604051637becc13f60e01b815260040160405180910390fd5b8060060154421115611b4c57604051633fc30bd160e11b815260040160405180910390fd5b336000908152600b8201602052604090205460ff1615611b7f57604051637c9a1cf960e01b815260040160405180910390fd5b336000908152600b820160205260409020805460ff191660011790558115611bb957600781018054906000611bb383612c6d565b91905055505b6040518215158152339084907fe71fcdac32df1877c1700e7bda2a03157e20993363a28fc35ac495cefc76e4d49060200160405180910390a36003816007015410610ad85760088101805460ff1916600217905560405183907f28ec9e38ba73636ceb2f6c1574136f83bd46284a3c74734b711bf45e12f8d92990600090a2505050565b611c4561217d565b506040805160a0810182526004546001600160a01b0390811682526005548116602083015260065481169282019290925260075482166060820152600854909116608082015290565b600082815260208190526040902060010154611ca981611d30565b610ad88383611e35565b60006001600160e01b03198216637965db0b60e01b148061080157506301ffc9a760e01b6001600160e01b0319831614610801565b60015460ff1615611d2e5760405162461bcd60e51b815260206004820152601060248201526f14185d5cd8589b194e881c185d5cd95960821b6044820152606401610b49565b565b610c4f8133611f27565b6004546000906001600160a01b0383811691161480611d6657506005546001600160a01b038381169116145b80611d7e57506006546001600160a01b038381169116145b80611d9657506007546001600160a01b038381169116145b806108015750506008546001600160a01b0390811691161490565b611dbb828261146d565b610b5c576000828152602081815260408083206001600160a01b03851684529091529020805460ff19166001179055611df13390565b6001600160a01b0316816001600160a01b0316837f2f8788117e7eff1d82e926ec794901d17c78024a50270940304540a733656f0d60405160405180910390a45050565b611e3f828261146d565b15610b5c576000828152602081815260408083206001600160a01b0385168085529252808320805460ff1916905551339285917ff6391f5c32d9c69d2a47ea670b442974b53935d1edc7fd64eb21e047a839171b9190a45050565b611ea2611f80565b6001805460ff191690557f5db9ee0a495bf2e6ff9c91a7834c1ba4fdd244a5e8aa4e537bd38aeae4b073aa335b6040516001600160a01b03909116815260200160405180910390a1565b611ef4611ce8565b6001805460ff1916811790557f62e78cea01bee320cd4e420270b5ea74000d11b0c9f74754ebdbfc544b05a25833611ecf565b611f31828261146d565b610b5c57611f3e81611fc9565b611f49836020611fdb565b604051602001611f5a929190612c86565b60408051601f198184030181529082905262461bcd60e51b8252610b4991600401612cfb565b60015460ff16611d2e5760405162461bcd60e51b815260206004820152601460248201527314185d5cd8589b194e881b9bdd081c185d5cd95960621b6044820152606401610b49565b60606108016001600160a01b03831660145b60606000611fea836002612d0e565b611ff5906002612b0d565b6001600160401b0381111561200c5761200c612364565b6040519080825280601f01601f191660200182016040528015612036576020820181803683370190505b509050600360fc1b8160008151811061205157612051612d25565b60200101906001600160f81b031916908160001a905350600f60fb1b8160018151811061208057612080612d25565b60200101906001600160f81b031916908160001a90535060006120a4846002612d0e565b6120af906001612b0d565b90505b6001811115612127576f181899199a1a9b1b9c1cb0b131b232b360811b85600f16601081106120e3576120e3612d25565b1a60f81b8282815181106120f9576120f9612d25565b60200101906001600160f81b031916908160001a90535060049490941c9361212081612d3b565b90506120b2565b5083156121765760405162461bcd60e51b815260206004820181905260248201527f537472696e67733a20686578206c656e67746820696e73756666696369656e746044820152606401610b49565b9392505050565b6040518060a001604052806005906020820280368337509192915050565b6000602082840312156121ad57600080fd5b5035919050565b634e487b7160e01b600052602160045260246000fd5b600781106121da576121da6121b4565b9052565b60005b838110156121f95781810151838201526020016121e1565b50506000910152565b6000815180845261221a8160208601602086016121de565b601f01601f19169290920160200192915050565b600681106121da576121da6121b4565b8c815261224e602082018d6121ca565b6101806040820152600061226661018083018d612202565b8281036060840152612278818d612202565b6001600160a01b038c16608085015260a084018b905260c084018a905260e0840189905290506122ac61010084018861222e565b8515156101208401528281036101408401526122c88186612202565b9150506122e16101608301846001600160a01b03169052565b9d9c50505050505050505050505050565b60006020828403121561230457600080fd5b81356001600160e01b03198116811461217657600080fd5b80356001600160a01b038116811461233357600080fd5b919050565b6000806040838503121561234b57600080fd5b8235915061235b6020840161231c565b90509250929050565b634e487b7160e01b600052604160045260246000fd5b600082601f83011261238b57600080fd5b8135602083016000806001600160401b038411156123ab576123ab612364565b50604051601f19601f85018116603f011681018181106001600160401b03821117156123d9576123d9612364565b6040528381529050808284018710156123f157600080fd5b838360208301376000602085830101528094505050505092915050565b60008060008060008060c0878903121561242757600080fd5b86356001600160401b0381111561243d57600080fd5b61244989828a0161237a565b96505060208701356001600160401b0381111561246557600080fd5b61247189828a0161237a565b9550506124806040880161231c565b93506060870135925060808701356001600160401b038111156124a257600080fd5b6124ae89828a0161237a565b9699959850939692959460a09093013593505050565b60208101610801828461222e565b80356003811061233357600080fd5b60008060008060008060c087890312156124fa57600080fd5b86356001600160401b0381111561251057600080fd5b61251c89828a0161237a565b96505060208701356001600160401b0381111561253857600080fd5b61254489828a0161237a565b955050612553604088016124d2565b93506125616060880161231c565b9598949750929560808101359460a0909101359350915050565b8015158114610c4f57600080fd5b60008060008060008060c087890312156125a257600080fd5b86356001600160401b038111156125b857600080fd5b6125c489828a0161237a565b96505060208701356001600160401b038111156125e057600080fd5b6125ec89828a0161237a565b9550506125fb604088016124d2565b93506126096060880161231c565b925060808701356126198161257b565b9598949750929591949360a090920135925050565b600080600080600060a0868803121561264657600080fd5b85356001600160401b0381111561265c57600080fd5b6126688882890161237a565b95505060208601356001600160401b0381111561268457600080fd5b6126908882890161237a565b94505060408601356001600160401b038111156126ac57600080fd5b6126b88882890161237a565b9350506126c76060870161231c565b949793965091946080013592915050565b600080604083850312156126eb57600080fd5b82356001600160401b0381111561270157600080fd5b61270d8582860161237a565b92505061235b6020840161231c565b60008060008060008060c0878903121561273557600080fd5b86356001600160401b0381111561274b57600080fd5b61275789828a0161237a565b96505060208701356001600160401b0381111561277357600080fd5b61277f89828a0161237a565b9550506125536040880161231c565b6000602082840312156127a057600080fd5b6121768261231c565b60008060008060008060c087890312156127c257600080fd5b8635600781106127d157600080fd5b955060208701356001600160401b038111156127ec57600080fd5b6127f889828a0161237a565b95505060408701356001600160401b0381111561281457600080fd5b61282089828a0161237a565b94505060608701356001600160401b0381111561283c57600080fd5b61284889828a0161237a565b9350506126196080880161231c565b600080600080600060a0868803121561286f57600080fd5b85356001600160401b0381111561288557600080fd5b6128918882890161237a565b95505060208601356001600160401b038111156128ad57600080fd5b6128b98882890161237a565b9450506128c8604087016124d2565b94979396509394606081013594506080013592915050565b600080604083850312156128f357600080fd5b8235915060208301356129058161257b565b809150509250929050565b60a08101818360005b60058110156129415781516001600160a01b0316835260209283019290910190600101612919565b50505092915050565b600181811c9082168061295e57607f821691505b60208210810361297e57634e487b7160e01b600052602260045260246000fd5b50919050565b6001600160a01b038316815260406020820152815460009081906129a78161294a565b80604086015260018216600081146129c657600181146129e257612a16565b60ff1983166060870152606082151560051b8701019350612a16565b86600052602060002060005b83811015612a0d578154888201606001526001909101906020016129ee565b87016060019450505b50919695505050505050565b600060208284031215612a3457600080fd5b81516121768161257b565b60018060a01b0384168152826020820152606060408201526000612a666060830184612202565b95945050505050565b600381106121da576121da6121b4565b60608101612a8d8286612a6f565b6001600160a01b0393909316602082015260400152919050565b60408101612ab58285612a6f565b6001600160a01b039290921660209190910152919050565b602081016108018284612a6f565b60008251612aed8184602087016121de565b9190910192915050565b634e487b7160e01b600052601160045260246000fd5b8082018082111561080157610801612af7565b601f821115610ad857806000526020600020601f840160051c81016020851015612b475750805b601f840160051c820191505b81811015612b675760008155600101612b53565b5050505050565b81516001600160401b03811115612b8757612b87612364565b612b9b81612b95845461294a565b84612b20565b6020601f821160018114612bcf5760008315612bb75750848201515b600019600385901b1c1916600184901b178455612b67565b600084815260208120601f198516915b82811015612bff5787850151825560209485019460019092019101612bdf565b5084821015612c1d5786840151600019600387901b60f8161c191681555b50505050600190811b01905550565b612c3681856121ca565b826020820152606060408201526000612a666060830184612202565b60408101612c608285612a6f565b8260208301529392505050565b600060018201612c7f57612c7f612af7565b5060010190565b7f416363657373436f6e74726f6c3a206163636f756e7420000000000000000000815260008351612cbe8160178501602088016121de565b7001034b99036b4b9b9b4b733903937b6329607d1b6017918401918201528351612cef8160288401602088016121de565b01602801949350505050565b6020815260006121766020830184612202565b808202811582820484141761080157610801612af7565b634e487b7160e01b600052603260045260246000fd5b600081612d4a57612d4a612af7565b50600019019056fe65d7a28e3265b37a6474929f336521b332c1681b933f6cb9f3376673440d862ab09aa5aeb3702cfd50b6b62bc4532604938f21248a27a1d5ca736082b6819cc1d8aa0f3194971a2a116679f7c2090f6939c8d4e01a2a8d7e41d55e5351469e63a264697066735822122055141ae2623e3f819795e48f2f046b919d93eb9c32e5940e8ff8d81f5b5f97fa64736f6c634300081c003365d7a28e3265b37a6474929f336521b332c1681b933f6cb9f3376673440d862ab09aa5aeb3702cfd50b6b62bc4532604938f21248a27a1d5ca736082b6819cc1d8aa0f3194971a2a116679f7c2090f6939c8d4e01a2a8d7e41d55e5351469e63",
  "linkReferences": {},
  "deployedLinkReferences": {}
}