{
  "_format": "hh-sol-artifact-1",
  "contractName": "EmireqGovernance",
  "sourceName": "contracts/Governance/EmireqGovernance.sol",
  "abi": [
    {
      "inputs": [
        {
          "internalType": "address",
          "name": "_emnToken",
          "type": "address"
        }
      ],
      "stateMutability": "nonpayable",
      "type": "constructor"
    },
    {
      "inputs": [],
      "name": "AlreadyVoted",
      "type": "error"
    },
    {
      "inputs": [],
      "name": "ExecutionFailed",
      "type": "error"
    },
    {
      "inputs": [],
      "name": "InsufficientApprovals",
      "type": "error"
    },
    {
      "inputs": [],
      "name": "InvalidParameter",
      "type": "error"
    },
    {
      "inputs": [],
      "name": "InvalidProposal",
      "type": "error"
    },
    {
      "inputs": [],
      "name": "InvalidVoter",
      "type": "error"
    },
    {
      "inputs": [],
      "name": "ProposalAlreadyExecuted",
      "type": "error"
    },
    {
      "inputs": [],
      "name": "ProposalNotActive",
      "type": "error"
    },
    {
      "inputs": [],
      "name": "QuorumNotReached",
      "type": "error"
    },
    {
      "inputs": [],
      "name": "VotingNotEnded",
      "type": "error"
    },
    {
      "inputs": [],
      "name": "ZeroAddress",
      "type": "error"
    },
    {
      "inputs": [],
      "name": "ZeroAmount",
      "type": "error"
    },
    {
      "anonymous": false,
      "inputs": [
        {
          "indexed": false,
          "internalType": "address",
          "name": "account",
          "type": "address"
        }
      ],
      "name": "Paused",
      "type": "event"
    },
    {
      "anonymous": false,
      "inputs": [
        {
          "indexed": true,
          "internalType": "uint256",
          "name": "proposalId",
          "type": "uint256"
        }
      ],
      "name": "ProposalApproved",
      "type": "event"
    },
    {
      "anonymous": false,
      "inputs": [
        {
          "indexed": true,
          "internalType": "uint256",
          "name": "proposalId",
          "type": "uint256"
        },
        {
          "indexed": false,
          "internalType": "enum EmireqGovernance.ProposalType",
          "name": "proposalType",
          "type": "uint8"
        },
        {
          "indexed": true,
          "internalType": "address",
          "name": "proposer",
          "type": "address"
        },
        {
          "indexed": false,
          "internalType": "uint256",
          "name": "votingEnd",
          "type": "uint256"
        },
        {
          "indexed": false,
          "internalType": "string",
          "name": "title",
          "type": "string"
        }
      ],
      "name": "ProposalCreated",
      "type": "event"
    },
    {
      "anonymous": false,
      "inputs": [
        {
          "indexed": true,
          "internalType": "uint256",
          "name": "proposalId",
          "type": "uint256"
        }
      ],
      "name": "ProposalExecuted",
      "type": "event"
    },
    {
      "anonymous": false,
      "inputs": [
        {
          "indexed": true,
          "internalType": "bytes32",
          "name": "role",
          "type": "bytes32"
        },
        {
          "indexed": true,
          "internalType": "bytes32",
          "name": "previousAdminRole",
          "type": "bytes32"
        },
        {
          "indexed": true,
          "internalType": "bytes32",
          "name": "newAdminRole",
          "type": "bytes32"
        }
      ],
      "name": "RoleAdminChanged",
      "type": "event"
    },
    {
      "anonymous": false,
      "inputs": [
        {
          "indexed": true,
          "internalType": "bytes32",
          "name": "role",
          "type": "bytes32"
        },
        {
          "indexed": true,
          "internalType": "address",
          "name": "account",
          "type": "address"
        },
        {
          "indexed": true,
          "internalType": "address",
          "name": "sender",
          "type": "address"
        }
      ],
      "name": "RoleGranted",
      "type": "event"
    },
    {
      "anonymous": false,
      "inputs": [
        {
          "indexed": true,
          "internalType": "bytes32",
          "name": "role",
          "type": "bytes32"
        },
        {
          "indexed": true,
          "internalType": "address",
          "name": "account",
          "type": "address"
        },
        {
          "indexed": true,
          "internalType": "address",
          "name": "sender",
          "type": "address"
        }
      ],
      "name": "RoleRevoked",
      "type": "event"
    },
    {
      "anonymous": false,
      "inputs": [
        {
          "indexed": false,
          "internalType": "address",
          "name": "account",
          "type": "address"
        }
      ],
      "name": "Unpaused",
      "type": "event"
    },
    {
      "anonymous": false,
      "inputs": [
        {
          "indexed": true,
          "internalType": "uint256",
          "name": "proposalId",
          "type": "uint256"
        },
        {
          "indexed": true,
          "internalType": "address",
          "name": "voter",
          "type": "address"
        },
        {
          "indexed": false,
          "internalType": "bool",
          "name": "approved",
          "type": "bool"
        }
      ],
      "name": "VoteCast",
      "type": "event"
    },
    {
      "anonymous": false,
      "inputs": [
        {
          "indexed": true,
          "internalType": "string",
          "name": "voterType",
          "type": "string"
        },
        {
          "indexed": false,
          "internalType": "address",
          "name": "newAddress",
          "type": "address"
        }
      ],
      "name": "VoterUpdated",
      "type": "event"
    },
    {
      "inputs": [],
      "name": "DEFAULT_ADMIN_ROLE",
      "outputs": [
        {
          "internalType": "bytes32",
          "name": "",
          "type": "bytes32"
        }
      ],
      "stateMutability": "view",
      "type": "function"
    },
    {
      "inputs": [],
      "name": "EXECUTOR_ROLE",
      "outputs": [
        {
          "internalType": "bytes32",
          "name": "",
          "type": "bytes32"
        }
      ],
      "stateMutability": "view",
      "type": "function"
    },
    {
      "inputs": [],
      "name": "MAX_VOTING_PERIOD",
      "outputs": [
        {
          "internalType": "uint256",
          "name": "",
          "type": "uint256"
        }
      ],
      "stateMutability": "view",
      "type": "function"
    },
    {
      "inputs": [],
      "name": "MIN_VOTING_PERIOD",
      "outputs": [
        {
          "internalType": "uint256",
          "name": "",
          "type": "uint256"
        }
      ],
      "stateMutability": "view",
      "type": "function"
    },
    {
      "inputs": [],
      "name": "PAUSER_ROLE",
      "outputs": [
        {
          "internalType": "bytes32",
          "name": "",
          "type": "bytes32"
        }
      ],
      "stateMutability": "view",
      "type": "function"
    },
    {
      "inputs": [],
      "name": "PROPOSER_ROLE",
      "outputs": [
        {
          "internalType": "bytes32",
          "name": "",
          "type": "bytes32"
        }
      ],
      "stateMutability": "view",
      "type": "function"
    },
    {
      "inputs": [],
      "name": "REQUIRED_APPROVALS",
      "outputs": [
        {
          "internalType": "uint256",
          "name": "",
          "type": "uint256"
        }
      ],
      "stateMutability": "view",
      "type": "function"
    },
    {
      "inputs": [],
      "name": "TOTAL_VOTERS",
      "outputs": [
        {
          "internalType": "uint256",
          "name": "",
          "type": "uint256"
        }
      ],
      "stateMutability": "view",
      "type": "function"
    },
    {
      "inputs": [],
      "name": "developmentAddress",
      "outputs": [
        {
          "internalType": "address",
          "name": "",
          "type": "address"
        }
      ],
      "stateMutability": "view",
      "type": "function"
    },
    {
      "inputs": [],
      "name": "emnToken",
      "outputs": [
        {
          "internalType": "contract EminarToken",
          "name": "",
          "type": "address"
        }
      ],
      "stateMutability": "view",
      "type": "function"
    },
    {
      "inputs": [
        {
          "internalType": "uint256",
          "name": "_proposalId",
          "type": "uint256"
        }
      ],
      "name": "executeProposal",
      "outputs": [],
      "stateMutability": "nonpayable",
      "type": "function"
    },
    {
      "inputs": [
        {
          "internalType": "uint256",
          "name": "_proposalId",
          "type": "uint256"
        }
      ],
      "name": "getProposal",
      "outputs": [
        {
          "internalType": "uint256",
          "name": "id",
          "type": "uint256"
        },
        {
          "internalType": "enum EmireqGovernance.ProposalType",
          "name": "proposalType",
          "type": "uint8"
        },
        {
          "internalType": "string",
          "name": "title",
          "type": "string"
        },
        {
          "internalType": "string",
          "name": "description",
          "type": "string"
        },
        {
          "internalType": "address",
          "name": "proposer",
          "type": "address"
        },
        {
          "internalType": "uint256",
          "name": "createdAt",
          "type": "uint256"
        },
        {
          "internalType": "uint256",
          "name": "votingEnd",
          "type": "uint256"
        },
        {
          "internalType": "uint256",
          "name": "approvalCount",
          "type": "uint256"
        },
        {
          "internalType": "enum EmireqGovernance.ProposalStatus",
          "name": "status",
          "type": "uint8"
        },
        {
          "internalType": "bool",
          "name": "executed",
          "type": "bool"
        },
        {
          "internalType": "bytes",
          "name": "callData",
          "type": "bytes"
        },
        {
          "internalType": "address",
          "name": "targetContract",
          "type": "address"
        }
      ],
      "stateMutability": "view",
      "type": "function"
    },
    {
      "inputs": [],
      "name": "getProposalCount",
      "outputs": [
        {
          "internalType": "uint256",
          "name": "",
          "type": "uint256"
        }
      ],
      "stateMutability": "view",
      "type": "function"
    },
    {
      "inputs": [],
      "name": "getRequiredApprovals",
      "outputs": [
        {
          "internalType": "uint256",
          "name": "",
          "type": "uint256"
        }
      ],
      "stateMutability": "pure",
      "type": "function"
    },
    {
      "inputs": [
        {
          "internalType": "bytes32",
          "name": "role",
          "type": "bytes32"
        }
      ],
      "name": "getRoleAdmin",
      "outputs": [
        {
          "internalType": "bytes32",
          "name": "",
          "type": "bytes32"
        }
      ],
      "stateMutability": "view",
      "type": "function"
    },
    {
      "inputs": [],
      "name": "getTotalVoters",
      "outputs": [
        {
          "internalType": "uint256",
          "name": "",
          "type": "uint256"
        }
      ],
      "stateMutability": "pure",
      "type": "function"
    },
    {
      "inputs": [],
      "name": "getVoters",
      "outputs": [
        {
          "internalType": "address[5]",
          "name": "",
          "type": "address[5]"
        }
      ],
      "stateMutability": "view",
      "type": "function"
    },
    {
      "inputs": [
        {
          "internalType": "bytes32",
          "name": "role",
          "type": "bytes32"
        },
        {
          "internalType": "address",
          "name": "account",
          "type": "address"
        }
      ],
      "name": "grantRole",
      "outputs": [],
      "stateMutability": "nonpayable",
      "type": "function"
    },
    {
      "inputs": [
        {
          "internalType": "uint256",
          "name": "_proposalId",
          "type": "uint256"
        },
        {
          "internalType": "address",
          "name": "_voter",
          "type": "address"
        }
      ],
      "name": "hasApproved",
      "outputs": [
        {
          "internalType": "bool",
          "name": "",
          "type": "bool"
        }
      ],
      "stateMutability": "view",
      "type": "function"
    },
    {
      "inputs": [
        {
          "internalType": "bytes32",
          "name": "role",
          "type": "bytes32"
        },
        {
          "internalType": "address",
          "name": "account",
          "type": "address"
        }
      ],
      "name": "hasRole",
      "outputs": [
        {
          "internalType": "bool",
          "name": "",
          "type": "bool"
        }
      ],
      "stateMutability": "view",
      "type": "function"
    },
    {
      "inputs": [
        {
          "internalType": "address",
          "name": "_address",
          "type": "address"
        }
      ],
      "name": "isVoter",
      "outputs": [
        {
          "internalType": "bool",
          "name": "",
          "type": "bool"
        }
      ],
      "stateMutability": "view",
      "type": "function"
    },
    {
      "inputs": [
        {
          "internalType": "address",
          "name": "",
          "type": "address"
        }
      ],
      "name": "lastProposalTimestamp",
      "outputs": [
        {
          "internalType": "uint256",
          "name": "",
          "type": "uint256"
        }
      ],
      "stateMutability": "view",
      "type": "function"
    },
    {
      "inputs": [],
      "name": "pause",
      "outputs": [],
      "stateMutability": "nonpayable",
      "type": "function"
    },
    {
      "inputs": [],
      "name": "paused",
      "outputs": [
        {
          "internalType": "bool",
          "name": "",
          "type": "bool"
        }
      ],
      "stateMutability": "view",
      "type": "function"
    },
    {
      "inputs": [
        {
          "internalType": "uint256",
          "name": "",
          "type": "uint256"
        }
      ],
      "name": "proposals",
      "outputs": [
        {
          "internalType": "uint256",
          "name": "id",
          "type": "uint256"
        },
        {
          "internalType": "enum EmireqGovernance.ProposalType",
          "name": "proposalType",
          "type": "uint8"
        },
        {
          "internalType": "string",
          "name": "title",
          "type": "string"
        },
        {
          "internalType": "string",
          "name": "description",
          "type": "string"
        },
        {
          "internalType": "address",
          "name": "proposer",
          "type": "address"
        },
        {
          "internalType": "uint256",
          "name": "createdAt",
          "type": "uint256"
        },
        {
          "internalType": "uint256",
          "name": "votingEnd",
          "type": "uint256"
        },
        {
          "internalType": "bool",
          "name": "earlyExecution",
          "type": "bool"
        },
        {
          "internalType": "uint256",
          "name": "approvalCount",
          "type": "uint256"
        },
        {
          "internalType": "enum EmireqGovernance.ProposalStatus",
          "name": "status",
          "type": "uint8"
        },
        {
          "internalType": "bool",
          "name": "executed",
          "type": "bool"
        },
        {
          "internalType": "bytes",
          "name": "callData",
          "type": "bytes"
        },
        {
          "internalType": "address",
          "name": "targetContract",
          "type": "address"
        }
      ],
      "stateMutability": "view",
      "type": "function"
    },
    {
      "inputs": [
        {
          "internalType": "enum EmireqGovernance.ProposalType",
          "name": "_proposalType",
          "type": "uint8"
        },
        {
          "internalType": "string",
          "name": "_title",
          "type": "string"
        },
        {
          "internalType": "string",
          "name": "_description",
          "type": "string"
        },
        {
          "internalType": "bytes",
          "name": "_callData",
          "type": "bytes"
        },
        {
          "internalType": "address",
          "name": "_targetContract",
          "type": "address"
        },
        {
          "internalType": "uint256",
          "name": "_votingPeriod",
          "type": "uint256"
        },
        {
          "internalType": "bool",
          "name": "_earlyExecution",
          "type": "bool"
        }
      ],
      "name": "propose",
      "outputs": [
        {
          "internalType": "uint256",
          "name": "",
          "type": "uint256"
        }
      ],
      "stateMutability": "nonpayable",
      "type": "function"
    },
    {
      "inputs": [],
      "name": "publicAddress",
      "outputs": [
        {
          "internalType": "address",
          "name": "",
          "type": "address"
        }
      ],
      "stateMutability": "view",
      "type": "function"
    },
    {
      "inputs": [
        {
          "internalType": "bytes32",
          "name": "role",
          "type": "bytes32"
        },
        {
          "internalType": "address",
          "name": "account",
          "type": "address"
        }
      ],
      "name": "renounceRole",
      "outputs": [],
      "stateMutability": "nonpayable",
      "type": "function"
    },
    {
      "inputs": [],
      "name": "reserveAddress",
      "outputs": [
        {
          "internalType": "address",
          "name": "",
          "type": "address"
        }
      ],
      "stateMutability": "view",
      "type": "function"
    },
    {
      "inputs": [
        {
          "internalType": "bytes32",
          "name": "role",
          "type": "bytes32"
        },
        {
          "internalType": "address",
          "name": "account",
          "type": "address"
        }
      ],
      "name": "revokeRole",
      "outputs": [],
      "stateMutability": "nonpayable",
      "type": "function"
    },
    {
      "inputs": [],
      "name": "shariaTrustAddress",
      "outputs": [
        {
          "internalType": "address",
          "name": "",
          "type": "address"
        }
      ],
      "stateMutability": "view",
      "type": "function"
    },
    {
      "inputs": [
        {
          "internalType": "uint256",
          "name": "_proposalId",
          "type": "uint256"
        }
      ],
      "name": "state",
      "outputs": [
        {
          "internalType": "enum EmireqGovernance.ProposalStatus",
          "name": "",
          "type": "uint8"
        }
      ],
      "stateMutability": "view",
      "type": "function"
    },
    {
      "inputs": [],
      "name": "strategicPartnersAddress",
      "outputs": [
        {
          "internalType": "address",
          "name": "",
          "type": "address"
        }
      ],
      "stateMutability": "view",
      "type": "function"
    },
    {
      "inputs": [
        {
          "internalType": "bytes4",
          "name": "interfaceId",
          "type": "bytes4"
        }
      ],
      "name": "supportsInterface",
      "outputs": [
        {
          "internalType": "bool",
          "name": "",
          "type": "bool"
        }
      ],
      "stateMutability": "view",
      "type": "function"
    },
    {
      "inputs": [],
      "name": "unpause",
      "outputs": [],
      "stateMutability": "nonpayable",
      "type": "function"
    },
    {
      "inputs": [
        {
          "internalType": "uint256",
          "name": "_proposalId",
          "type": "uint256"
        },
        {
          "internalType": "bool",
          "name": "_approve",
          "type": "bool"
        }
      ],
      "name": "vote",
      "outputs": [],
      "stateMutability": "nonpayable",
      "type": "function"
    }
  ],
  "bytecode": "0x608060405234801561001057600080fd5b5060405161257838038061257883398101604081905261002f9161050f565b6001805460ff191690556001600160a01b0381166100605760405163d92e233d60e01b815260040160405180910390fd5b600380546001600160a01b0319166001600160a01b0383169081179091556040805163f676f33160e01b8152905163f676f331916004808201926020929091908290030181865afa1580156100b9573d6000803e3d6000fd5b505050506040513d601f19601f820116820180604052508101906100dd919061050f565b600480546001600160a01b0319166001600160a01b039283161781556003546040805163f79ed94b60e01b81529051919093169263f79ed94b92818101926020929091908290030181865afa15801561013a573d6000803e3d6000fd5b505050506040513d601f19601f8201168201806040525081019061015e919061050f565b600580546001600160a01b0319166001600160a01b03928316179055600354604080516318e2c6c560e21b81529051919092169163638b1b149160048083019260209291908290030181865afa1580156101bc573d6000803e3d6000fd5b505050506040513d601f19601f820116820180604052508101906101e0919061050f565b600680546001600160a01b0319166001600160a01b039283161790556003546040805163fe64c68160e01b81529051919092169163fe64c6819160048083019260209291908290030181865afa15801561023e573d6000803e3d6000fd5b505050506040513d601f19601f82011682018060405250810190610262919061050f565b600780546001600160a01b0319166001600160a01b039283161790556003546040805163626c3d4360e01b81529051919092169163626c3d439160048083019260209291908290030181865afa1580156102c0573d6000803e3d6000fd5b505050506040513d601f19601f820116820180604052508101906102e4919061050f565b600880546001600160a01b0319166001600160a01b0392831617905560045461031d916000805160206125388339815191529116610470565b60055461034290600080516020612538833981519152906001600160a01b0316610470565b60065461036790600080516020612538833981519152906001600160a01b0316610470565b60075461038c90600080516020612538833981519152906001600160a01b0316610470565b6008546103b190600080516020612538833981519152906001600160a01b0316610470565b6004546103d690600080516020612558833981519152906001600160a01b0316610470565b6005546103fb90600080516020612558833981519152906001600160a01b0316610470565b60065461042090600080516020612558833981519152906001600160a01b0316610470565b60075461044590600080516020612558833981519152906001600160a01b0316610470565b60085461046a90600080516020612558833981519152906001600160a01b0316610470565b5061053f565b6000828152602081815260408083206001600160a01b038516845290915290205460ff1661050b576000828152602081815260408083206001600160a01b03851684529091529020805460ff191660011790556104ca3390565b6001600160a01b0316816001600160a01b0316837f2f8788117e7eff1d82e926ec794901d17c78024a50270940304540a733656f0d60405160405180910390a45b5050565b60006020828403121561052157600080fd5b81516001600160a01b038116811461053857600080fd5b9392505050565b611fea8061054e6000396000f3fe608060405234801561001057600080fd5b506004361061021c5760003560e01c8063793cf21811610125578063c08cc02d116100ad578063d547741f1161007c578063d547741f146104ea578063e63ab1e9146104fd578063f676f33114610524578063f79ed94b14610537578063fe64c6811461054a57600080fd5b8063c08cc02d1461048f578063c7f758a814610497578063c9d27afe146104c2578063cdd72253146104d557600080fd5b806391d14854116100f457806391d1485414610444578063a217fddf14610457578063a64e024a1461045f578063a7771ee314610469578063b3d96d7a1461047c57600080fd5b8063793cf218146104075780638456cb591461040e5780638b1e24ab146104165780638f61f4f51461041d57600080fd5b80632f2ff15d116101a8578063599c553311610177578063599c5533146103ae5780635c975abb146103b6578063626c3d43146103c1578063638b1b14146103d457806372dfe348146103e757600080fd5b80632f2ff15d1461036057806336568abe146103735780633e4f49e6146103865780633f4ba83a146103a657600080fd5b8063215809ca116101ef578063215809ca146102c35780632305b7d5146102cd5780632358d5a8146102d5578063248a9ca3146103125780632a60c2481461033557600080fd5b8063013cf08b1461022157806301ffc9a71461025657806307bd0265146102795780630d61b519146102ae575b600080fd5b61023461022f36600461181d565b61055d565b60405161024d9d9c9b9a999897969594939291906118c0565b60405180910390f35b61026961026436600461197d565b61077c565b604051901515815260200161024d565b6102a07fd8aa0f3194971a2a116679f7c2090f6939c8d4e01a2a8d7e41d55e5351469e6381565b60405190815260200161024d565b6102c16102bc36600461181d565b61078d565b005b6102a06201518081565b6102a0600581565b6102696102e33660046119c3565b60008281526009602090815260408083206001600160a01b0385168452600c0190915290205460ff1692915050565b6102a061032036600461181d565b60009081526020819052604090206001015490565b600354610348906001600160a01b031681565b6040516001600160a01b03909116815260200161024d565b6102c161036e3660046119c3565b610989565b6102c16103813660046119c3565b6109b3565b61039961039436600461181d565b610a36565b60405161024d91906119ef565b6102c1610b05565b6102a0600381565b60015460ff16610269565b600854610348906001600160a01b031681565b600654610348906001600160a01b031681565b6102a06103f53660046119fd565b600a6020526000908152604090205481565b60056102a0565b6102c1610b3a565b60036102a0565b6102a07fb09aa5aeb3702cfd50b6b62bc4532604938f21248a27a1d5ca736082b6819cc181565b6102696104523660046119c3565b610b6c565b6102a0600081565b6102a062278d0081565b6102696104773660046119fd565b610b95565b6102a061048a366004611ad4565b610ba0565b6102a0610e86565b6104aa6104a536600461181d565b610e96565b60405161024d9c9b9a99989796959493929190611baa565b6102c16104d0366004611c5e565b611111565b6104dd6112be565b60405161024d9190611c81565b6102c16104f83660046119c3565b61130f565b6102a07f65d7a28e3265b37a6474929f336521b332c1681b933f6cb9f3376673440d862a81565b600454610348906001600160a01b031681565b600554610348906001600160a01b031681565b600754610348906001600160a01b031681565b600960205260009081526040902080546001820154600283018054929360ff9092169261058990611cbb565b80601f01602080910402602001604051908101604052809291908181526020018280546105b590611cbb565b80156106025780601f106105d757610100808354040283529160200191610602565b820191906000526020600020905b8154815290600101906020018083116105e557829003601f168201915b50505050509080600301805461061790611cbb565b80601f016020809104026020016040519081016040528092919081815260200182805461064390611cbb565b80156106905780601f1061066557610100808354040283529160200191610690565b820191906000526020600020905b81548152906001019060200180831161067357829003601f168201915b505050600484015460058501546006860154600787015460088801546009890154600a8a018054999a6001600160a01b039097169995985093965060ff92831695919481841694610100909204909316926106ea90611cbb565b80601f016020809104026020016040519081016040528092919081815260200182805461071690611cbb565b80156107635780601f1061073857610100808354040283529160200191610763565b820191906000526020600020905b81548152906001019060200180831161074657829003601f168201915b505050600b90930154919250506001600160a01b03168d565b600061078782611334565b92915050565b610795611369565b7fd8aa0f3194971a2a116679f7c2090f6939c8d4e01a2a8d7e41d55e5351469e636107bf816113b1565b600082815260096020526040812080549091036107ef57604051631dc0650160e31b815260040160405180910390fd5b6009810154610100900460ff161561081a576040516351618d5360e01b815260040160405180910390fd5b6002600982015460ff16600581111561083557610835611836565b14158015610847575080600601544211155b1561086557604051638af69cf160e01b815260040160405180910390fd5b80600601544211806108805750600781015460ff1615156001145b156108cb576003816008015410156108bb5760098101805460ff1916600317905560408051638af69cf160e01b815290519081900360040190fd5b60098101805460ff191660021790555b60098101805461ffff1916610104179055600b81015460405160009182916001600160a01b039091169061090390600a860190611cf5565b6000604051808303816000865af19150503d8060008114610940576040519150601f19603f3d011682016040523d82523d6000602084013e610945565b606091505b50915091508161095757805160208201fd5b60405185907f712ae1383f79ac853f8d882153778e0260ef8f03b504e2866e0593e04d2b291f90600090a25050505050565b6000828152602081905260409020600101546109a4816113b1565b6109ae83836113bb565b505050565b6001600160a01b0381163314610a285760405162461bcd60e51b815260206004820152602f60248201527f416363657373436f6e74726f6c3a2063616e206f6e6c792072656e6f756e636560448201526e103937b632b9903337b91039b2b63360891b60648201526084015b60405180910390fd5b610a32828261143f565b5050565b600081815260096020526040812080548203610a6557604051631dc0650160e31b815260040160405180910390fd5b6009810154610100900460ff1615610a805750600492915050565b6002600982015460ff166005811115610a9b57610a9b611836565b03610aa95750600292915050565b6003600982015460ff166005811115610ac457610ac4611836565b03610ad25750600392915050565b8060060154421115610afc576003816008015410610af35750600292915050565b50600392915050565b50600192915050565b7f65d7a28e3265b37a6474929f336521b332c1681b933f6cb9f3376673440d862a610b2f816113b1565b610b376114a4565b50565b7f65d7a28e3265b37a6474929f336521b332c1681b933f6cb9f3376673440d862a610b64816113b1565b610b376114f6565b6000918252602082815260408084206001600160a01b0393909316845291905290205460ff1690565b600061078782611531565b6000610bab33611531565b610bc8576040516311745b2b60e31b815260040160405180910390fd5b7fb09aa5aeb3702cfd50b6b62bc4532604938f21248a27a1d5ca736082b6819cc1610bf2816113b1565b87511580610bff57508651155b15610c1d57604051631dc0650160e31b815260040160405180910390fd5b6001600160a01b038516610c445760405163d92e233d60e01b815260040160405180910390fd5b62015180841080610c57575062278d0084115b15610c7557604051630309cb8760e51b815260040160405180910390fd5b610c83600280546001019055565b6000610c8e60025490565b90506000610c9c8642611d80565b60008381526009602052604090208381556001808201805493945091928e929160ff1990911690836006811115610cd557610cd5611836565b021790555060028101610ce88c82611de1565b5060038101610cf78b82611de1565b506004810180546001600160a01b03191633179055426005820155600681018290556000600882015560098101805461ffff19166001179055600a8101610d3e8a82611de1565b508781600b0160006101000a8154816001600160a01b0302191690836001600160a01b03160217905550858160070160006101000a81548160ff021916908315150217905550600181600c016000336001600160a01b03166001600160a01b0316815260200190815260200160002060006101000a81548160ff0219169083151502179055506001816008018190555042600a6000336001600160a01b03166001600160a01b0316815260200190815260200160002081905550336001600160a01b0316837f2659a7dbe6b89750e2d276fbb09167c6982ed3b4ff517950c67e36eb4079dcc58e858f604051610e3693929190611ea0565b60405180910390a360405160018152339084907fe71fcdac32df1877c1700e7bda2a03157e20993363a28fc35ac495cefc76e4d49060200160405180910390a350909a9950505050505050505050565b6000610e9160025490565b905090565b6000806060806000806000806000806060600080600960008f8152602001908152602001600020905080600001548160010160009054906101000a900460ff1682600201836003018460040160009054906101000a90046001600160a01b03168560050154866006015487600801548860090160009054906101000a900460ff168960090160019054906101000a900460ff168a600a018b600b0160009054906101000a90046001600160a01b0316898054610f5190611cbb565b80601f0160208091040260200160405190810160405280929190818152602001828054610f7d90611cbb565b8015610fca5780601f10610f9f57610100808354040283529160200191610fca565b820191906000526020600020905b815481529060010190602001808311610fad57829003601f168201915b50505050509950888054610fdd90611cbb565b80601f016020809104026020016040519081016040528092919081815260200182805461100990611cbb565b80156110565780601f1061102b57610100808354040283529160200191611056565b820191906000526020600020905b81548152906001019060200180831161103957829003601f168201915b5050505050985081805461106990611cbb565b80601f016020809104026020016040519081016040528092919081815260200182805461109590611cbb565b80156110e25780601f106110b7576101008083540402835291602001916110e2565b820191906000526020600020905b8154815290600101906020018083116110c557829003601f168201915b505050505091509c509c509c509c509c509c509c509c509c509c509c509c505091939597999b5091939597999b565b61111a33611531565b611137576040516311745b2b60e31b815260040160405180910390fd5b61113f611369565b6000828152600960205260408120805490910361116f57604051631dc0650160e31b815260040160405180910390fd5b6001600982015460ff16600581111561118a5761118a611836565b146111a857604051637becc13f60e01b815260040160405180910390fd5b80600601544211156111cd57604051633fc30bd160e11b815260040160405180910390fd5b336000908152600c8201602052604090205460ff161561120057604051637c9a1cf960e01b815260040160405180910390fd5b336000908152600c820160205260409020805460ff19166001179055811561123a5760088101805490600061123483611ecf565b91905055505b6040518215158152339084907fe71fcdac32df1877c1700e7bda2a03157e20993363a28fc35ac495cefc76e4d49060200160405180910390a360038160080154106109ae5760098101805460ff1916600217905560405183907f28ec9e38ba73636ceb2f6c1574136f83bd46284a3c74734b711bf45e12f8d92990600090a2505050565b6112c66117ff565b506040805160a0810182526004546001600160a01b0390811682526005548116602083015260065481169282019290925260075482166060820152600854909116608082015290565b60008281526020819052604090206001015461132a816113b1565b6109ae838361143f565b60006001600160e01b03198216637965db0b60e01b148061078757506301ffc9a760e01b6001600160e01b0319831614610787565b60015460ff16156113af5760405162461bcd60e51b815260206004820152601060248201526f14185d5cd8589b194e881c185d5cd95960821b6044820152606401610a1f565b565b610b3781336115a8565b6113c58282610b6c565b610a32576000828152602081815260408083206001600160a01b03851684529091529020805460ff191660011790556113fb3390565b6001600160a01b0316816001600160a01b0316837f2f8788117e7eff1d82e926ec794901d17c78024a50270940304540a733656f0d60405160405180910390a45050565b6114498282610b6c565b15610a32576000828152602081815260408083206001600160a01b0385168085529252808320805460ff1916905551339285917ff6391f5c32d9c69d2a47ea670b442974b53935d1edc7fd64eb21e047a839171b9190a45050565b6114ac611601565b6001805460ff191690557f5db9ee0a495bf2e6ff9c91a7834c1ba4fdd244a5e8aa4e537bd38aeae4b073aa335b6040516001600160a01b03909116815260200160405180910390a1565b6114fe611369565b6001805460ff1916811790557f62e78cea01bee320cd4e420270b5ea74000d11b0c9f74754ebdbfc544b05a258336114d9565b6004546000906001600160a01b038381169116148061155d57506005546001600160a01b038381169116145b8061157557506006546001600160a01b038381169116145b8061158d57506007546001600160a01b038381169116145b806107875750506008546001600160a01b0390811691161490565b6115b28282610b6c565b610a32576115bf8161164a565b6115ca83602061165c565b6040516020016115db929190611ee8565b60408051601f198184030181529082905262461bcd60e51b8252610a1f91600401611f5d565b60015460ff166113af5760405162461bcd60e51b815260206004820152601460248201527314185d5cd8589b194e881b9bdd081c185d5cd95960621b6044820152606401610a1f565b60606107876001600160a01b03831660145b6060600061166b836002611f70565b611676906002611d80565b67ffffffffffffffff81111561168e5761168e611a18565b6040519080825280601f01601f1916602001820160405280156116b8576020820181803683370190505b509050600360fc1b816000815181106116d3576116d3611f87565b60200101906001600160f81b031916908160001a905350600f60fb1b8160018151811061170257611702611f87565b60200101906001600160f81b031916908160001a9053506000611726846002611f70565b611731906001611d80565b90505b60018111156117a9576f181899199a1a9b1b9c1cb0b131b232b360811b85600f166010811061176557611765611f87565b1a60f81b82828151811061177b5761177b611f87565b60200101906001600160f81b031916908160001a90535060049490941c936117a281611f9d565b9050611734565b5083156117f85760405162461bcd60e51b815260206004820181905260248201527f537472696e67733a20686578206c656e67746820696e73756666696369656e746044820152606401610a1f565b9392505050565b6040518060a001604052806005906020820280368337509192915050565b60006020828403121561182f57600080fd5b5035919050565b634e487b7160e01b600052602160045260246000fd5b6007811061185c5761185c611836565b9052565b60005b8381101561187b578181015183820152602001611863565b50506000910152565b6000815180845261189c816020860160208601611860565b601f01601f19169290920160200192915050565b6006811061185c5761185c611836565b8d81526118d0602082018e61184c565b6101a0604082015260006118e86101a083018e611884565b82810360608401526118fa818e611884565b6001600160a01b038d16608085015260a084018c905260c084018b905289151560e08501529050876101008401526119366101208401886118b0565b8515156101408401528281036101608401526119528186611884565b91505061196b6101808301846001600160a01b03169052565b9e9d5050505050505050505050505050565b60006020828403121561198f57600080fd5b81356001600160e01b0319811681146117f857600080fd5b80356001600160a01b03811681146119be57600080fd5b919050565b600080604083850312156119d657600080fd5b823591506119e6602084016119a7565b90509250929050565b6020810161078782846118b0565b600060208284031215611a0f57600080fd5b6117f8826119a7565b634e487b7160e01b600052604160045260246000fd5b600082601f830112611a3f57600080fd5b81356020830160008067ffffffffffffffff841115611a6057611a60611a18565b50604051601f19601f85018116603f0116810181811067ffffffffffffffff82111715611a8f57611a8f611a18565b604052838152905080828401871015611aa757600080fd5b838360208301376000602085830101528094505050505092915050565b803580151581146119be57600080fd5b600080600080600080600060e0888a031215611aef57600080fd5b873560078110611afe57600080fd5b9650602088013567ffffffffffffffff811115611b1a57600080fd5b611b268a828b01611a2e565b965050604088013567ffffffffffffffff811115611b4357600080fd5b611b4f8a828b01611a2e565b955050606088013567ffffffffffffffff811115611b6c57600080fd5b611b788a828b01611a2e565b945050611b87608089016119a7565b925060a08801359150611b9c60c08901611ac4565b905092959891949750929550565b8c8152611bba602082018d61184c565b61018060408201526000611bd261018083018d611884565b8281036060840152611be4818d611884565b6001600160a01b038c16608085015260a084018b905260c084018a905260e084018990529050611c186101008401886118b0565b851515610120840152828103610140840152611c348186611884565b915050611c4d6101608301846001600160a01b03169052565b9d9c50505050505050505050505050565b60008060408385031215611c7157600080fd5b823591506119e660208401611ac4565b60a08101818360005b6005811015611cb25781516001600160a01b0316835260209283019290910190600101611c8a565b50505092915050565b600181811c90821680611ccf57607f821691505b602082108103611cef57634e487b7160e01b600052602260045260246000fd5b50919050565b6000808354611d0381611cbb565b600182168015611d1a5760018114611d2f57611d5f565b60ff1983168652811515820286019350611d5f565b86600052602060002060005b83811015611d5757815488820152600190910190602001611d3b565b505081860193505b509195945050505050565b634e487b7160e01b600052601160045260246000fd5b8082018082111561078757610787611d6a565b601f8211156109ae57806000526020600020601f840160051c81016020851015611dba5750805b601f840160051c820191505b81811015611dda5760008155600101611dc6565b5050505050565b815167ffffffffffffffff811115611dfb57611dfb611a18565b611e0f81611e098454611cbb565b84611d93565b6020601f821160018114611e435760008315611e2b5750848201515b600019600385901b1c1916600184901b178455611dda565b600084815260208120601f198516915b82811015611e735787850151825560209485019460019092019101611e53565b5084821015611e915786840151600019600387901b60f8161c191681555b50505050600190811b01905550565b611eaa818561184c565b826020820152606060408201526000611ec66060830184611884565b95945050505050565b600060018201611ee157611ee1611d6a565b5060010190565b7f416363657373436f6e74726f6c3a206163636f756e7420000000000000000000815260008351611f20816017850160208801611860565b7001034b99036b4b9b9b4b733903937b6329607d1b6017918401918201528351611f51816028840160208801611860565b01602801949350505050565b6020815260006117f86020830184611884565b808202811582820484141761078757610787611d6a565b634e487b7160e01b600052603260045260246000fd5b600081611fac57611fac611d6a565b50600019019056fea2646970667358221220864cd75db0a8ac4af2119d67b87d56a1472a3c98d52e1f4c2b0ea91fc9e0728964736f6c634300081c0033b09aa5aeb3702cfd50b6b62bc4532604938f21248a27a1d5ca736082b6819cc1d8aa0f3194971a2a116679f7c2090f6939c8d4e01a2a8d7e41d55e5351469e63",
  "linkReferences": {},
  "deployedLinkReferences": {}
}