{
  "_format": "hh-sol-artifact-1",
  "contractName": "TransferFeesModule",
  "sourceName": "contracts/compliance/modular/modules/TransferFeesModule.sol",
  "abi": [
    {
      "inputs": [
        {
          "internalType": "address",
          "name": "compliance",
          "type": "address"
        },
        {
          "internalType": "address",
          "name": "collector",
          "type": "address"
        }
      ],
      "name": "CollectorAddressIsNotVerified",
      "type": "error"
    },
    {
      "inputs": [
        {
          "internalType": "address",
          "name": "compliance",
          "type": "address"
        },
        {
          "internalType": "uint256",
          "name": "rate",
          "type": "uint256"
        }
      ],
      "name": "FeeRateIsOutOfRange",
      "type": "error"
    },
    {
      "anonymous": false,
      "inputs": [
        {
          "indexed": false,
          "internalType": "address",
          "name": "previousAdmin",
          "type": "address"
        },
        {
          "indexed": false,
          "internalType": "address",
          "name": "newAdmin",
          "type": "address"
        }
      ],
      "name": "AdminChanged",
      "type": "event"
    },
    {
      "anonymous": false,
      "inputs": [
        {
          "indexed": true,
          "internalType": "address",
          "name": "beacon",
          "type": "address"
        }
      ],
      "name": "BeaconUpgraded",
      "type": "event"
    },
    {
      "anonymous": false,
      "inputs": [
        {
          "indexed": true,
          "internalType": "address",
          "name": "_compliance",
          "type": "address"
        }
      ],
      "name": "ComplianceBound",
      "type": "event"
    },
    {
      "anonymous": false,
      "inputs": [
        {
          "indexed": true,
          "internalType": "address",
          "name": "_compliance",
          "type": "address"
        }
      ],
      "name": "ComplianceUnbound",
      "type": "event"
    },
    {
      "anonymous": false,
      "inputs": [
        {
          "indexed": true,
          "internalType": "address",
          "name": "compliance",
          "type": "address"
        },
        {
          "indexed": false,
          "internalType": "uint256",
          "name": "_rate",
          "type": "uint256"
        },
        {
          "indexed": false,
          "internalType": "address",
          "name": "_collector",
          "type": "address"
        }
      ],
      "name": "FeeUpdated",
      "type": "event"
    },
    {
      "anonymous": false,
      "inputs": [
        {
          "indexed": false,
          "internalType": "uint8",
          "name": "version",
          "type": "uint8"
        }
      ],
      "name": "Initialized",
      "type": "event"
    },
    {
      "anonymous": false,
      "inputs": [
        {
          "indexed": true,
          "internalType": "address",
          "name": "previousOwner",
          "type": "address"
        },
        {
          "indexed": true,
          "internalType": "address",
          "name": "newOwner",
          "type": "address"
        }
      ],
      "name": "OwnershipTransferred",
      "type": "event"
    },
    {
      "anonymous": false,
      "inputs": [
        {
          "indexed": true,
          "internalType": "address",
          "name": "implementation",
          "type": "address"
        }
      ],
      "name": "Upgraded",
      "type": "event"
    },
    {
      "inputs": [
        {
          "internalType": "address",
          "name": "_compliance",
          "type": "address"
        }
      ],
      "name": "bindCompliance",
      "outputs": [],
      "stateMutability": "nonpayable",
      "type": "function"
    },
    {
      "inputs": [
        {
          "internalType": "address",
          "name": "_compliance",
          "type": "address"
        }
      ],
      "name": "canComplianceBind",
      "outputs": [
        {
          "internalType": "bool",
          "name": "",
          "type": "bool"
        }
      ],
      "stateMutability": "view",
      "type": "function"
    },
    {
      "inputs": [
        {
          "internalType": "address",
          "name": "_compliance",
          "type": "address"
        }
      ],
      "name": "getFee",
      "outputs": [
        {
          "components": [
            {
              "internalType": "uint256",
              "name": "rate",
              "type": "uint256"
            },
            {
              "internalType": "address",
              "name": "collector",
              "type": "address"
            }
          ],
          "internalType": "struct TransferFeesModule.Fee",
          "name": "",
          "type": "tuple"
        }
      ],
      "stateMutability": "view",
      "type": "function"
    },
    {
      "inputs": [],
      "name": "initialize",
      "outputs": [],
      "stateMutability": "nonpayable",
      "type": "function"
    },
    {
      "inputs": [
        {
          "internalType": "address",
          "name": "_compliance",
          "type": "address"
        }
      ],
      "name": "isComplianceBound",
      "outputs": [
        {
          "internalType": "bool",
          "name": "",
          "type": "bool"
        }
      ],
      "stateMutability": "view",
      "type": "function"
    },
    {
      "inputs": [],
      "name": "isPlugAndPlay",
      "outputs": [
        {
          "internalType": "bool",
          "name": "",
          "type": "bool"
        }
      ],
      "stateMutability": "pure",
      "type": "function"
    },
    {
      "inputs": [
        {
          "internalType": "address",
          "name": "_from",
          "type": "address"
        },
        {
          "internalType": "uint256",
          "name": "_value",
          "type": "uint256"
        }
      ],
      "name": "moduleBurnAction",
      "outputs": [],
      "stateMutability": "nonpayable",
      "type": "function"
    },
    {
      "inputs": [
        {
          "internalType": "address",
          "name": "_from",
          "type": "address"
        },
        {
          "internalType": "address",
          "name": "_to",
          "type": "address"
        },
        {
          "internalType": "uint256",
          "name": "_value",
          "type": "uint256"
        },
        {
          "internalType": "address",
          "name": "_compliance",
          "type": "address"
        }
      ],
      "name": "moduleCheck",
      "outputs": [
        {
          "internalType": "bool",
          "name": "",
          "type": "bool"
        }
      ],
      "stateMutability": "view",
      "type": "function"
    },
    {
      "inputs": [
        {
          "internalType": "address",
          "name": "_to",
          "type": "address"
        },
        {
          "internalType": "uint256",
          "name": "_value",
          "type": "uint256"
        }
      ],
      "name": "moduleMintAction",
      "outputs": [],
      "stateMutability": "nonpayable",
      "type": "function"
    },
    {
      "inputs": [
        {
          "internalType": "address",
          "name": "_from",
          "type": "address"
        },
        {
          "internalType": "address",
          "name": "_to",
          "type": "address"
        },
        {
          "internalType": "uint256",
          "name": "_value",
          "type": "uint256"
        }
      ],
      "name": "moduleTransferAction",
      "outputs": [],
      "stateMutability": "nonpayable",
      "type": "function"
    },
    {
      "inputs": [],
      "name": "name",
      "outputs": [
        {
          "internalType": "string",
          "name": "_name",
          "type": "string"
        }
      ],
      "stateMutability": "pure",
      "type": "function"
    },
    {
      "inputs": [],
      "name": "owner",
      "outputs": [
        {
          "internalType": "address",
          "name": "",
          "type": "address"
        }
      ],
      "stateMutability": "view",
      "type": "function"
    },
    {
      "inputs": [],
      "name": "proxiableUUID",
      "outputs": [
        {
          "internalType": "bytes32",
          "name": "",
          "type": "bytes32"
        }
      ],
      "stateMutability": "view",
      "type": "function"
    },
    {
      "inputs": [],
      "name": "renounceOwnership",
      "outputs": [],
      "stateMutability": "nonpayable",
      "type": "function"
    },
    {
      "inputs": [
        {
          "internalType": "uint256",
          "name": "_rate",
          "type": "uint256"
        },
        {
          "internalType": "address",
          "name": "_collector",
          "type": "address"
        }
      ],
      "name": "setFee",
      "outputs": [],
      "stateMutability": "nonpayable",
      "type": "function"
    },
    {
      "inputs": [
        {
          "internalType": "address",
          "name": "newOwner",
          "type": "address"
        }
      ],
      "name": "transferOwnership",
      "outputs": [],
      "stateMutability": "nonpayable",
      "type": "function"
    },
    {
      "inputs": [
        {
          "internalType": "address",
          "name": "_compliance",
          "type": "address"
        }
      ],
      "name": "unbindCompliance",
      "outputs": [],
      "stateMutability": "nonpayable",
      "type": "function"
    },
    {
      "inputs": [
        {
          "internalType": "address",
          "name": "newImplementation",
          "type": "address"
        }
      ],
      "name": "upgradeTo",
      "outputs": [],
      "stateMutability": "nonpayable",
      "type": "function"
    },
    {
      "inputs": [
        {
          "internalType": "address",
          "name": "newImplementation",
          "type": "address"
        },
        {
          "internalType": "bytes",
          "name": "data",
          "type": "bytes"
        }
      ],
      "name": "upgradeToAndCall",
      "outputs": [],
      "stateMutability": "payable",
      "type": "function"
    }
  ],
  "bytecode": "0x60a080604052346100315730608052611816908161003782396080518181816106fd015281816108240152610bf80152f35b600080fdfe6080604081815260048036101561001557600080fd5b600092833560e01c908163013b7ce414610f02575080630694a5fb14610e6957806306fdde0314610e1b5780632cb7e1ec14610dc65780633659cfe614610bd1578063372491a2146101885780634a93254414610af65780634cf4d29514610aab5780634f1ef286146107aa57806352d1902d146106e8578063715018a61461068b5780638129fc1c1461053d5780638da5cb5b14610514578063b4f2e8b814610336578063b88c9148146102c4578063bcc21053146101cc578063e6f5e807146101b1578063f104a8c9146101885763f2fde38b146100f457600080fd5b346101845760203660031901126101845761010d610f42565b91610116611048565b6001600160a01b03831615610132578361012f846110a0565b80f35b906020608492519162461bcd60e51b8352820152602660248201527f4f776e61626c653a206e6577206f776e657220697320746865207a65726f206160448201526564647265737360d01b6064820152fd5b8280fd5b5050346101ad573660031901126101aa576101a1610f42565b5061012f611651565b80fd5b5080fd5b5050346101ad57816003193601126101ad5751908152602090f35b509190346101ad5760209283600319360112610184576001600160a01b03908085836101f6610f42565b16855193848092630d47dbe560e31b82525afa9182156102ba57908692918692610288575b50602490855194859384926307feec1960e21b84523090840152165afa92831561027d579261024e575b50519015158152f35b61026f919250833d8511610276575b610267818361100a565b81019061143d565b9038610245565b503d61025d565b8251903d90823e3d90fd5b60249192506102ac90843d86116102b3575b6102a4818361100a565b81019061141e565b919061021b565b503d61029a565b84513d87823e3d90fd5b8284346101aa5760203660031901126101aa57816102e0610f42565b9180602083516102ef81610fbc565b82815201526001600160a01b03928316815260c960205220825190919061031581610fbc565b60208260018554958685520154169101908152835192835251166020820152f35b509034610184578060031936011261018457813591610353610f5d565b903385526020906000805160206117c1833981519152825261037a60ff8588205416611372565b8351630d47dbe560e31b815282818381335afa9081156104a05787916104f7575b5061271086116104da5784516304d3863d60e21b8152936001600160a01b0391849086908590829086165afa9485156104d05788956104aa575b5081602485928851948593849263b9209e3360e01b845216988988840152165afa9081156104a0578791610483575b50156104665750907f47b231849a3ba3af6f4ec32a2da80e3106ab81fb5eca9ffde8b33ed2901af2b6929133865260c981528483872055600183872001826bffffffffffffffffffffffff60a01b82541617905582519485528401523392a280f35b60449083855191639bca970d60e01b835233908301526024820152fd5b61049a9150833d851161027657610267818361100a565b38610404565b85513d89823e3d90fd5b8491955060246104c78492843d86116102b3576102a4818361100a565b969250506103d5565b86513d8a823e3d90fd5b8451630e33b43d60e01b8152338184015260248101879052604490fd5b61050e9150833d85116102b3576102a4818361100a565b3861039b565b5050346101ad57816003193601126101ad5760335490516001600160a01b039091168152602090f35b5034610184578260031936011261018457825460ff8160081c16159182809361067e575b8015610667575b1561060d575060ff1981166001178455816105fc575b506105a160ff845460081c16610593816113be565b61059c816113be565b6113be565b6105aa336110a0565b8254906105bc60ff8360081c166113be565b6105c4578280f35b61ff001916825551600181527f7f26b83ff96e1f2b6a682f133852f6798a09c465da95921460cefb384740249890602090a138808280f35b61ffff19166101011783553861057e565b608490602085519162461bcd60e51b8352820152602e60248201527f496e697469616c697a61626c653a20636f6e747261637420697320616c72656160448201526d191e481a5b9a5d1a585b1a5e995960921b6064820152fd5b50303b1580156105685750600160ff831614610568565b50600160ff831610610561565b83346101aa57806003193601126101aa576106a4611048565b603380546001600160a01b0319811690915581906001600160a01b03167f8be0079c531659141344cd1fd0a4f28419497f9722a3daafe3b4186f6b6457e08280a380f35b5082346101aa57806003193601126101aa57507f00000000000000000000000000000000000000000000000000000000000000006001600160a01b0316300361074257602082516000805160206117a18339815191528152f35b6020608492519162461bcd60e51b8352820152603860248201527f555550535570677261646561626c653a206d757374206e6f742062652063616c60448201527f6c6564207468726f7567682064656c656761746563616c6c00000000000000006064820152fd5b509080600319360112610184576107bf610f42565b906024359067ffffffffffffffff8211610aa75736602383011215610aa757818401356107eb8161102c565b6107f78351918261100a565b81815286602094858301933660248284010111610184578060248893018637830101526001600160a01b037f0000000000000000000000000000000000000000000000000000000000000000811690610852308314156110e9565b61086f6000805160206117a183398151915292828454161461114a565b610877611048565b7f4910fdfa16fed3260ed0e7147f7cc6da11a60208b5b9406d12a635614ffd91435460ff16156108b15750505050505061012f91506111ab565b869293949596169085516352d1902d60e01b815287818a81865afa8a9181610a74575b5061093357865162461bcd60e51b8152808a01899052602e60248201527f45524331393637557067726164653a206e657720696d706c656d656e7461746960448201526d6f6e206973206e6f74205555505360901b6064820152608490fd5b979192939695949703610a1f575061094a826111ab565b7fbc7cd75a20ee27fd9adebab32041f755214dbc6bffa90cc0225b39da2e5c2d3b8780a285845115801590610a17575b610988575b50505050505080f35b80610a019684519661099988610fee565b602788527f416464726573733a206c6f772d6c6576656c2064656c65676174652063616c6c87890152660819985a5b195960ca1b868901525190845af4913d15610a0d573d6109f36109ea8261102c565b9251928361100a565b81528681943d92013e61123b565b5038808080808561097f565b506060925061123b565b50600161097a565b835162461bcd60e51b8152908101859052602960248201527f45524331393637557067726164653a20756e737570706f727465642070726f786044820152681a58589b195555525160ba1b6064820152608490fd5b9091508881813d8311610aa0575b610a8c818361100a565b81010312610a9c575190386108d4565b8a80fd5b503d610a82565b8480fd5b5050346101ad5760203660031901126101ad5760209160ff9082906001600160a01b03610ad6610f42565b1681526000805160206117c1833981519152855220541690519015158152f35b509034610184576020366003190112610184576001600160a01b03610b19610f42565b1691610b268315156112d0565b8284526000805160206117c1833981519152908160205260ff8386205416610b8e5750610b5483331461131c565b8284526020528220805460ff191660011790557f1f7b76c58fb697eb53c6c7c1becb96911516a136e24d7ced386b2355358b75a38280a280f35b606490602084519162461bcd60e51b8352820152601860248201527f636f6d706c69616e636520616c726561647920626f756e6400000000000000006044820152fd5b50903461018457602080600319360112610dc257610bed610f42565b916001600160a01b037f00000000000000000000000000000000000000000000000000000000000000008116610c25308214156110e9565b610c426000805160206117a183398151915291838354161461114a565b610c4a611048565b8251908482019282841067ffffffffffffffff851117610daf578385528883527f4910fdfa16fed3260ed0e7147f7cc6da11a60208b5b9406d12a635614ffd91435460ff1615610ca45750505050505061012f91506111ab565b869293949596169085516352d1902d60e01b815287818a81865afa8a9181610d80575b50610d2657865162461bcd60e51b8152808a01899052602e60248201527f45524331393637557067726164653a206e657720696d706c656d656e7461746960448201526d6f6e206973206e6f74205555505360901b6064820152608490fd5b979192939695949703610a1f5750610d3d826111ab565b7fbc7cd75a20ee27fd9adebab32041f755214dbc6bffa90cc0225b39da2e5c2d3b8780a285845115801590610d79576109885750505050505080f35b508061097a565b9091508881813d8311610da8575b610d98818361100a565b81010312610a9c57519038610cc7565b503d610d8e565b634e487b7160e01b895260418852602489fd5b8380fd5b5050346101ad5760603660031901126101ad5761012f90610de5610f42565b90610e1260ff610df3610f5d565b923387526000805160206117c183398151915260205286205416611372565b60443591611455565b5050346101ad57816003193601126101ad578051610e6591610e3c82610fbc565b60128252715472616e73666572466565734d6f64756c6560701b60208301525191829182610f73565b0390f35b5050346101ad5760203660031901126101ad57610e84610f42565b903383526000805160206117c18339815191529182602052610eab60ff8386205416611372565b6001600160a01b031691610ec08315156112d0565b610ecb83331461131c565b8284526020528220805460ff191690557f408b49d9be1c914c52a0227e18a077e5a892dddf32a26cfa94a5d9708fad77188280a280f35b8490346101ad5760803660031901126101ad57610f1d610f42565b50610f26610f5d565b506064356001600160a01b038116036101ad5780600160209252f35b600435906001600160a01b0382168203610f5857565b600080fd5b602435906001600160a01b0382168203610f5857565b6020808252825181830181905290939260005b828110610fa857505060409293506000838284010152601f8019910116010190565b818101860151848201604001528501610f86565b6040810190811067ffffffffffffffff821117610fd857604052565b634e487b7160e01b600052604160045260246000fd5b6060810190811067ffffffffffffffff821117610fd857604052565b90601f8019910116810190811067ffffffffffffffff821117610fd857604052565b67ffffffffffffffff8111610fd857601f01601f191660200190565b6033546001600160a01b0316330361105c57565b606460405162461bcd60e51b815260206004820152602060248201527f4f776e61626c653a2063616c6c6572206973206e6f7420746865206f776e65726044820152fd5b603380546001600160a01b039283166001600160a01b0319821681179092559091167f8be0079c531659141344cd1fd0a4f28419497f9722a3daafe3b4186f6b6457e0600080a3565b156110f057565b60405162461bcd60e51b815260206004820152602c60248201527f46756e6374696f6e206d7573742062652063616c6c6564207468726f7567682060448201526b19195b1959d85d1958d85b1b60a21b6064820152608490fd5b1561115157565b60405162461bcd60e51b815260206004820152602c60248201527f46756e6374696f6e206d7573742062652063616c6c6564207468726f7567682060448201526b6163746976652070726f787960a01b6064820152608490fd5b803b156111e0576000805160206117a183398151915280546001600160a01b0319166001600160a01b03909216919091179055565b60405162461bcd60e51b815260206004820152602d60248201527f455243313936373a206e657720696d706c656d656e746174696f6e206973206e60448201526c1bdd08184818dbdb9d1c9858dd609a1b6064820152608490fd5b9192901561129d575081511561124f575090565b3b156112585790565b60405162461bcd60e51b815260206004820152601d60248201527f416464726573733a2063616c6c20746f206e6f6e2d636f6e74726163740000006044820152606490fd5b8251909150156112b05750805190602001fd5b60405162461bcd60e51b81529081906112cc9060048301610f73565b0390fd5b156112d757565b60405162461bcd60e51b815260206004820152601f60248201527f696e76616c696420617267756d656e74202d207a65726f2061646472657373006044820152606490fd5b1561132357565b60405162461bcd60e51b815260206004820152602160248201527f6f6e6c7920636f6d706c69616e636520636f6e74726163742063616e2063616c6044820152601b60fa1b6064820152608490fd5b1561137957565b60405162461bcd60e51b815260206004820152601e60248201527f6f6e6c7920626f756e6420636f6d706c69616e63652063616e2063616c6c00006044820152606490fd5b156113c557565b60405162461bcd60e51b815260206004820152602b60248201527f496e697469616c697a61626c653a20636f6e7472616374206973206e6f74206960448201526a6e697469616c697a696e6760a81b6064820152608490fd5b90816020910312610f5857516001600160a01b0381168103610f585790565b90816020910312610f5857518015158103610f585790565b919091611462813361167a565b6001600160a01b0391908280611478873361167a565b1691161461164b5760009133835260209460c986526040948585209086519487860186811067ffffffffffffffff82111761163757885288856001855495868a5201541696019580875285841592831561162b575b5050811561161f575b50611615578181029181830414901517156116015761271090049283156115f8578551630d47dbe560e31b8152908782600481335afa9182156115ee5784606493818b9796948a9485936115cf575b505116978a519889978896639fc1d0e760e01b885216600487015260248601526044850152165af19182156115c457916115a7575b5015611564575050565b60649250519062461bcd60e51b82526004820152601e60248201527f7472616e736665722066656520636f6c6c656374696f6e206661696c656400006044820152fd5b6115be9150833d851161027657610267818361100a565b3861155a565b8351903d90823e3d90fd5b6115e7919350893d8b116102b3576102a4818361100a565b9138611525565b87513d88823e3d90fd5b50505050505050565b634e487b7160e01b85526011600452602485fd5b5050505050505050565b905084841614386114d6565b168114915085386114cd565b634e487b7160e01b88526041600452602488fd5b50505050565b336000526000805160206117c183398151915260205261167860ff60406000205416611372565b565b60408051630d47dbe560e31b81526001600160a01b039391926020919082908290600490829089165afa908115611778579180918693600091611783575b5060048651809581936304d3863d60e21b8352165afa918215611778578590600093611756575b5060248293948287519687948593633c3ad79560e21b8552166004840152165afa92831561174c5750600092611716575b50501690565b81813d8311611745575b61172a818361100a565b810103126101ad57519082821682036101aa57503880611710565b503d611720565b513d6000823e3d90fd5b829350611771602491843d86116102b3576102a4818361100a565b93506116df565b84513d6000823e3d90fd5b61179a9150823d84116102b3576102a4818361100a565b386116b856fe360894a13ba1a3210667c828492db98dca3e2076cc3735a920a3ca505d382bbcf6cc97de1266c180cd39f3b311632644143ce7873d2927755382ad4b39e8ae00a2646970667358221220d072978d26b2f7d7cd1ec0f702abb3ec96ffbb8bb141e28073941f46ae52a6fb64736f6c63430008110033",
  "linkReferences": {},
  "deployedLinkReferences": {}
}