{
  "_format": "hh-sol-artifact-1",
  "contractName": "SupplyLimitTest",
  "sourceName": "contracts/compliance/legacy/test/SupplyLimitTest.sol",
  "abi": [
    {
      "anonymous": false,
      "inputs": [
        {
          "indexed": true,
          "internalType": "address",
          "name": "_agent",
          "type": "address"
        }
      ],
      "name": "AgentAdded",
      "type": "event"
    },
    {
      "anonymous": false,
      "inputs": [
        {
          "indexed": true,
          "internalType": "address",
          "name": "_agent",
          "type": "address"
        }
      ],
      "name": "AgentRemoved",
      "type": "event"
    },
    {
      "anonymous": false,
      "inputs": [
        {
          "indexed": true,
          "internalType": "address",
          "name": "previousOwner",
          "type": "address"
        },
        {
          "indexed": true,
          "internalType": "address",
          "name": "newOwner",
          "type": "address"
        }
      ],
      "name": "OwnershipTransferred",
      "type": "event"
    },
    {
      "anonymous": false,
      "inputs": [
        {
          "indexed": false,
          "internalType": "uint256",
          "name": "_limit",
          "type": "uint256"
        }
      ],
      "name": "SupplyLimitSet",
      "type": "event"
    },
    {
      "anonymous": false,
      "inputs": [
        {
          "indexed": false,
          "internalType": "address",
          "name": "_agentAddress",
          "type": "address"
        }
      ],
      "name": "TokenAgentAdded",
      "type": "event"
    },
    {
      "anonymous": false,
      "inputs": [
        {
          "indexed": false,
          "internalType": "address",
          "name": "_agentAddress",
          "type": "address"
        }
      ],
      "name": "TokenAgentRemoved",
      "type": "event"
    },
    {
      "anonymous": false,
      "inputs": [
        {
          "indexed": false,
          "internalType": "address",
          "name": "_token",
          "type": "address"
        }
      ],
      "name": "TokenBound",
      "type": "event"
    },
    {
      "anonymous": false,
      "inputs": [
        {
          "indexed": false,
          "internalType": "address",
          "name": "_token",
          "type": "address"
        }
      ],
      "name": "TokenUnbound",
      "type": "event"
    },
    {
      "inputs": [
        {
          "internalType": "address",
          "name": "_agent",
          "type": "address"
        }
      ],
      "name": "addAgent",
      "outputs": [],
      "stateMutability": "nonpayable",
      "type": "function"
    },
    {
      "inputs": [
        {
          "internalType": "address",
          "name": "_agentAddress",
          "type": "address"
        }
      ],
      "name": "addTokenAgent",
      "outputs": [],
      "stateMutability": "nonpayable",
      "type": "function"
    },
    {
      "inputs": [
        {
          "internalType": "address",
          "name": "_token",
          "type": "address"
        }
      ],
      "name": "bindToken",
      "outputs": [],
      "stateMutability": "nonpayable",
      "type": "function"
    },
    {
      "inputs": [
        {
          "internalType": "address",
          "name": "_from",
          "type": "address"
        },
        {
          "internalType": "address",
          "name": "_to",
          "type": "address"
        },
        {
          "internalType": "uint256",
          "name": "_value",
          "type": "uint256"
        }
      ],
      "name": "canTransfer",
      "outputs": [
        {
          "internalType": "bool",
          "name": "",
          "type": "bool"
        }
      ],
      "stateMutability": "view",
      "type": "function"
    },
    {
      "inputs": [
        {
          "internalType": "address",
          "name": "",
          "type": "address"
        },
        {
          "internalType": "address",
          "name": "",
          "type": "address"
        },
        {
          "internalType": "uint256",
          "name": "",
          "type": "uint256"
        }
      ],
      "name": "complianceCheckOnSupplyLimit",
      "outputs": [
        {
          "internalType": "bool",
          "name": "",
          "type": "bool"
        }
      ],
      "stateMutability": "view",
      "type": "function"
    },
    {
      "inputs": [
        {
          "internalType": "address",
          "name": "_to",
          "type": "address"
        },
        {
          "internalType": "uint256",
          "name": "_value",
          "type": "uint256"
        }
      ],
      "name": "created",
      "outputs": [],
      "stateMutability": "nonpayable",
      "type": "function"
    },
    {
      "inputs": [
        {
          "internalType": "address",
          "name": "_from",
          "type": "address"
        },
        {
          "internalType": "uint256",
          "name": "_value",
          "type": "uint256"
        }
      ],
      "name": "destroyed",
      "outputs": [],
      "stateMutability": "nonpayable",
      "type": "function"
    },
    {
      "inputs": [
        {
          "internalType": "address",
          "name": "_agent",
          "type": "address"
        }
      ],
      "name": "isAgent",
      "outputs": [
        {
          "internalType": "bool",
          "name": "",
          "type": "bool"
        }
      ],
      "stateMutability": "view",
      "type": "function"
    },
    {
      "inputs": [
        {
          "internalType": "address",
          "name": "_agentAddress",
          "type": "address"
        }
      ],
      "name": "isTokenAgent",
      "outputs": [
        {
          "internalType": "bool",
          "name": "",
          "type": "bool"
        }
      ],
      "stateMutability": "view",
      "type": "function"
    },
    {
      "inputs": [
        {
          "internalType": "address",
          "name": "_token",
          "type": "address"
        }
      ],
      "name": "isTokenBound",
      "outputs": [
        {
          "internalType": "bool",
          "name": "",
          "type": "bool"
        }
      ],
      "stateMutability": "view",
      "type": "function"
    },
    {
      "inputs": [],
      "name": "owner",
      "outputs": [
        {
          "internalType": "address",
          "name": "",
          "type": "address"
        }
      ],
      "stateMutability": "view",
      "type": "function"
    },
    {
      "inputs": [
        {
          "internalType": "address",
          "name": "_agent",
          "type": "address"
        }
      ],
      "name": "removeAgent",
      "outputs": [],
      "stateMutability": "nonpayable",
      "type": "function"
    },
    {
      "inputs": [
        {
          "internalType": "address",
          "name": "_agentAddress",
          "type": "address"
        }
      ],
      "name": "removeTokenAgent",
      "outputs": [],
      "stateMutability": "nonpayable",
      "type": "function"
    },
    {
      "inputs": [],
      "name": "renounceOwnership",
      "outputs": [],
      "stateMutability": "nonpayable",
      "type": "function"
    },
    {
      "inputs": [
        {
          "internalType": "uint256",
          "name": "_limit",
          "type": "uint256"
        }
      ],
      "name": "setSupplyLimit",
      "outputs": [],
      "stateMutability": "nonpayable",
      "type": "function"
    },
    {
      "inputs": [],
      "name": "supplyLimit",
      "outputs": [
        {
          "internalType": "uint256",
          "name": "",
          "type": "uint256"
        }
      ],
      "stateMutability": "view",
      "type": "function"
    },
    {
      "inputs": [],
      "name": "tokenBound",
      "outputs": [
        {
          "internalType": "contract IToken",
          "name": "",
          "type": "address"
        }
      ],
      "stateMutability": "view",
      "type": "function"
    },
    {
      "inputs": [
        {
          "internalType": "address",
          "name": "newOwner",
          "type": "address"
        }
      ],
      "name": "transferOwnership",
      "outputs": [],
      "stateMutability": "nonpayable",
      "type": "function"
    },
    {
      "inputs": [
        {
          "internalType": "address",
          "name": "_from",
          "type": "address"
        },
        {
          "internalType": "address",
          "name": "_to",
          "type": "address"
        },
        {
          "internalType": "uint256",
          "name": "_value",
          "type": "uint256"
        }
      ],
      "name": "transferred",
      "outputs": [],
      "stateMutability": "nonpayable",
      "type": "function"
    },
    {
      "inputs": [
        {
          "internalType": "address",
          "name": "_token",
          "type": "address"
        }
      ],
      "name": "unbindToken",
      "outputs": [],
      "stateMutability": "nonpayable",
      "type": "function"
    }
  ],
  "bytecode": "0x6080806040523461005b5760008054336001600160a01b0319821681178355916001600160a01b03909116907f8be0079c531659141344cd1fd0a4f28419497f9722a3daafe3b4186f6b6457e09080a3610cc790816100618239f35b600080fdfe608060409080825260048036101561001657600080fd5b600091823560e01c90816319d1997a14610938575080631ffbb06414610912578063346531fa146108ec578063361fab251461089f5780633ff5aa021461080557806340db3b50146107325780635f8dead31461064b578063715018a6146105f1578063737ce08e1461028f57806384e798421461051b5780638baf29b4146104fd5780638d2ea772146104cc5780638da5cb5b146104a457806393e62f071461047b57806397a6278e1461039d578063993e8b951461036e578063cdde2932146102ac578063e46638e61461028f578063f2fde38b146101cb5763ff3e69541461010057600080fd5b346101c757602090816003193601126101c35761011b610954565b6101236109a4565b6001600160a01b0316808452600283528484205490919060ff1661018257508293817fd62c45e13ac30396aceb3ad37c89bd1ba9048032fe61679000e92eb93dbfd67d945260028352808520600160ff1982541617905551908152a180f35b606490838087519262461bcd60e51b845283015260248201527f54686973204167656e7420697320616c726561647920726567697374657265646044820152fd5b8280fd5b5080fd5b508290346101c35760203660031901126101c3576101e7610954565b906101f06109a4565b6001600160a01b0391821692831561023d57505082546001600160a01b0319811683178455167f8be0079c531659141344cd1fd0a4f28419497f9722a3daafe3b4186f6b6457e08380a380f35b906020608492519162461bcd60e51b8352820152602660248201527f4f776e61626c653a206e6577206f776e657220697320746865207a65726f206160448201526564647265737360d01b6064820152fd5b8284346101c7576020906102a23661096f565b5050505160018152f35b50346101c757602090816003193601126101c3576102c8610954565b6102d06109a4565b6001600160a01b0316808452600283528484205490919060ff161561032d57508293817f6a659bb87bb23efbdc295f8eed8ae8c4379bfb77660ced2ef0f3d7d26b05c6a694526002835280852060ff19815416905551908152a180f35b606490838087519262461bcd60e51b845283015260248201527f54686973204167656e74206973206e6f742072656769737465726564207965746044820152fd5b8284346101c75760203660031901126101c75760209061039461038f610954565b610b35565b90519015158152f35b508290346101c35760203660031901126101c3576103b9610954565b906103c26109a4565b6001600160a01b038216926103d8841515610bd2565b6103e183610c1e565b1561042e5750506001600160a01b03166000908152600160205260409020805460ff191690557fed9c8ad8d5a0a66898ea49d2956929c93ae2e8bd50281b2ed897c5d1a6737e0b8280a280f35b906020608492519162461bcd60e51b8352820152602160248201527f526f6c65733a206163636f756e7420646f6573206e6f74206861766520726f6c6044820152606560f81b6064820152fd5b8284346101c757816003193601126101c75760035490516001600160a01b039091168152602090f35b8284346101c757816003193601126101c757905490516001600160a01b039091168152602090f35b8284346101c7573660031901126104fa576104e5610954565b506104f76104f233610b35565b610b54565b80f35b80fd5b82346104fa5761050c3661096f565b5050506104f76104f233610b35565b508290346101c35760203660031901126101c357610537610954565b906105406109a4565b6001600160a01b03821692610556841515610bd2565b61055f83610c1e565b6105ae5750506001600160a01b03166000908152600160205260409020805460ff191660011790557ff68e73cec97f2d70aa641fb26e87a4383686e2efacb648f2165aeb02ac562ec58280a280f35b906020606492519162461bcd60e51b8352820152601f60248201527f526f6c65733a206163636f756e7420616c72656164792068617320726f6c65006044820152fd5b82346104fa57806003193601126104fa5761060a6109a4565b80546001600160a01b03198116825581906001600160a01b03167f8be0079c531659141344cd1fd0a4f28419497f9722a3daafe3b4186f6b6457e08280a380f35b5082346101c357806003193601126101c357610665610954565b506106726104f233610b35565b60035481516318160ddd60e01b8152906020908290859082906001600160a01b03165afa9081156107285784916106f3575b508254106106b0578280f35b906020606492519162461bcd60e51b8352820152601760248201527f63616e6e6f74206d696e74206d6f726520746f6b656e730000000000000000006044820152fd5b90506020813d8211610720575b8161070d60209383610a48565b8101031261071c5751846106a4565b8380fd5b3d9150610700565b82513d86823e3d90fd5b5082346101c35760203660031901126101c35761074d610954565b83546001600160a01b0393908416331480156107fa575b61076d906109fc565b83600354921693821684036107b757506001600160a01b031916600355519081527f28a4ca7134a3b3f9aff286e79ad3daadb4a06d1b43d037a3a98bdc074edd9b7a90602090a180f35b606490602084519162461bcd60e51b8352820152601760248201527f5468697320746f6b656e206973206e6f7420626f756e640000000000000000006044820152fd5b503382851614610764565b8284346101c75760203660031901126101c75760207f2de35142b19ed5a07796cf30791959c592018f70b1d2d7c460eef8ffe713692b91610844610954565b84546001600160a01b039190821633148015610887575b610864906109fc565b1690816bffffffffffffffffffffffff60a01b600354161760035551908152a180f35b50816003541615801561085b5750338183161461085b565b5082346101c35760203660031901126101c357816020917f2cc259af6838b2a0d4d04c0f2f361079ea338dfc784cf242a87cf7d51013f568933580926108e36109a4565b5551908152a180f35b8284346101c75760203660031901126101c75760209061039461090d610954565b610a80565b8284346101c75760203660031901126101c757602090610394610933610954565b610c1e565b919050346101c357826003193601126101c35760209250548152f35b600435906001600160a01b038216820361096a57565b600080fd5b606090600319011261096a576001600160a01b0390600435828116810361096a5791602435908116810361096a579060443590565b6000546001600160a01b031633036109b857565b606460405162461bcd60e51b815260206004820152602060248201527f4f776e61626c653a2063616c6c6572206973206e6f7420746865206f776e65726044820152fd5b15610a0357565b60405162461bcd60e51b815260206004820152601c60248201527f6f6e6c79206f776e6572206f7220746f6b656e2063616e2063616c6c000000006044820152606490fd5b90601f8019910116810190811067ffffffffffffffff821117610a6a57604052565b634e487b7160e01b600052604160045260246000fd5b60018060a01b0380911690600091808352600260205260ff604084205416159182610ab5575b5050610ab25750600190565b90565b602091925060035416916024604051809481936307feec1960e21b835260048301525afa908115610b2a578291610af0575b50153880610aa6565b90506020813d8211610b22575b81610b0a60209383610a48565b810103126101c7575180151581036101c75738610ae7565b3d9150610afd565b6040513d84823e3d90fd5b6003546001600160a01b03908116911603610b4f57600190565b600090565b15610b5b57565b60a460405162461bcd60e51b815260206004820152604460248201527f6572726f72203a20746869732061646472657373206973206e6f74206120746f60448201527f6b656e20626f756e6420746f2074686520636f6d706c69616e636520636f6e746064820152631c9858dd60e21b6084820152fd5b15610bd957565b60405162461bcd60e51b815260206004820152601f60248201527f696e76616c696420617267756d656e74202d207a65726f2061646472657373006044820152606490fd5b6001600160a01b03168015610c4157600052600160205260ff6040600020541690565b60405162461bcd60e51b815260206004820152602260248201527f526f6c65733a206163636f756e7420697320746865207a65726f206164647265604482015261737360f01b6064820152608490fdfea2646970667358221220e498870c001536590493db374f6a829fc7acbf1c29d2a1fe1197159fb8e264b164736f6c63430008110033",
  "linkReferences": {},
  "deployedLinkReferences": {}
}