{
  "_format": "hh-sol-artifact-1",
  "contractName": "MockERC721",
  "sourceName": "contracts/MockERC721.sol",
  "abi": [
    {
      "inputs": [
        {
          "internalType": "string",
          "name": "name",
          "type": "string"
        },
        {
          "internalType": "string",
          "name": "symbol",
          "type": "string"
        }
      ],
      "stateMutability": "nonpayable",
      "type": "constructor"
    },
    {
      "anonymous": false,
      "inputs": [
        {
          "indexed": true,
          "internalType": "address",
          "name": "owner",
          "type": "address"
        },
        {
          "indexed": true,
          "internalType": "address",
          "name": "approved",
          "type": "address"
        },
        {
          "indexed": true,
          "internalType": "uint256",
          "name": "tokenId",
          "type": "uint256"
        }
      ],
      "name": "Approval",
      "type": "event"
    },
    {
      "anonymous": false,
      "inputs": [
        {
          "indexed": true,
          "internalType": "address",
          "name": "owner",
          "type": "address"
        },
        {
          "indexed": true,
          "internalType": "address",
          "name": "operator",
          "type": "address"
        },
        {
          "indexed": false,
          "internalType": "bool",
          "name": "approved",
          "type": "bool"
        }
      ],
      "name": "ApprovalForAll",
      "type": "event"
    },
    {
      "anonymous": false,
      "inputs": [
        {
          "indexed": false,
          "internalType": "uint256",
          "name": "_fromTokenId",
          "type": "uint256"
        },
        {
          "indexed": false,
          "internalType": "uint256",
          "name": "_toTokenId",
          "type": "uint256"
        }
      ],
      "name": "BatchMetadataUpdate",
      "type": "event"
    },
    {
      "anonymous": false,
      "inputs": [
        {
          "indexed": false,
          "internalType": "uint256",
          "name": "_tokenId",
          "type": "uint256"
        }
      ],
      "name": "MetadataUpdate",
      "type": "event"
    },
    {
      "anonymous": false,
      "inputs": [
        {
          "indexed": true,
          "internalType": "address",
          "name": "from",
          "type": "address"
        },
        {
          "indexed": true,
          "internalType": "address",
          "name": "to",
          "type": "address"
        },
        {
          "indexed": true,
          "internalType": "uint256",
          "name": "tokenId",
          "type": "uint256"
        }
      ],
      "name": "Transfer",
      "type": "event"
    },
    {
      "inputs": [
        {
          "internalType": "address",
          "name": "to",
          "type": "address"
        },
        {
          "internalType": "uint256",
          "name": "tokenId",
          "type": "uint256"
        }
      ],
      "name": "approve",
      "outputs": [],
      "stateMutability": "nonpayable",
      "type": "function"
    },
    {
      "inputs": [
        {
          "internalType": "address",
          "name": "owner",
          "type": "address"
        }
      ],
      "name": "balanceOf",
      "outputs": [
        {
          "internalType": "uint256",
          "name": "",
          "type": "uint256"
        }
      ],
      "stateMutability": "view",
      "type": "function"
    },
    {
      "inputs": [
        {
          "internalType": "uint256",
          "name": "tokenId",
          "type": "uint256"
        }
      ],
      "name": "burn",
      "outputs": [],
      "stateMutability": "nonpayable",
      "type": "function"
    },
    {
      "inputs": [
        {
          "internalType": "uint256",
          "name": "tokenId",
          "type": "uint256"
        }
      ],
      "name": "getApproved",
      "outputs": [
        {
          "internalType": "address",
          "name": "",
          "type": "address"
        }
      ],
      "stateMutability": "view",
      "type": "function"
    },
    {
      "inputs": [
        {
          "internalType": "address",
          "name": "owner",
          "type": "address"
        },
        {
          "internalType": "address",
          "name": "operator",
          "type": "address"
        }
      ],
      "name": "isApprovedForAll",
      "outputs": [
        {
          "internalType": "bool",
          "name": "",
          "type": "bool"
        }
      ],
      "stateMutability": "view",
      "type": "function"
    },
    {
      "inputs": [
        {
          "internalType": "address",
          "name": "to",
          "type": "address"
        },
        {
          "internalType": "string",
          "name": "tokenURI_",
          "type": "string"
        }
      ],
      "name": "mint",
      "outputs": [
        {
          "internalType": "uint256",
          "name": "",
          "type": "uint256"
        }
      ],
      "stateMutability": "nonpayable",
      "type": "function"
    },
    {
      "inputs": [],
      "name": "name",
      "outputs": [
        {
          "internalType": "string",
          "name": "",
          "type": "string"
        }
      ],
      "stateMutability": "view",
      "type": "function"
    },
    {
      "inputs": [
        {
          "internalType": "uint256",
          "name": "tokenId",
          "type": "uint256"
        }
      ],
      "name": "ownerOf",
      "outputs": [
        {
          "internalType": "address",
          "name": "",
          "type": "address"
        }
      ],
      "stateMutability": "view",
      "type": "function"
    },
    {
      "inputs": [
        {
          "internalType": "address",
          "name": "to",
          "type": "address"
        }
      ],
      "name": "safeMint",
      "outputs": [],
      "stateMutability": "nonpayable",
      "type": "function"
    },
    {
      "inputs": [
        {
          "internalType": "address",
          "name": "from",
          "type": "address"
        },
        {
          "internalType": "address",
          "name": "to",
          "type": "address"
        },
        {
          "internalType": "uint256",
          "name": "tokenId",
          "type": "uint256"
        }
      ],
      "name": "safeTransferFrom",
      "outputs": [],
      "stateMutability": "nonpayable",
      "type": "function"
    },
    {
      "inputs": [
        {
          "internalType": "address",
          "name": "from",
          "type": "address"
        },
        {
          "internalType": "address",
          "name": "to",
          "type": "address"
        },
        {
          "internalType": "uint256",
          "name": "tokenId",
          "type": "uint256"
        },
        {
          "internalType": "bytes",
          "name": "data",
          "type": "bytes"
        }
      ],
      "name": "safeTransferFrom",
      "outputs": [],
      "stateMutability": "nonpayable",
      "type": "function"
    },
    {
      "inputs": [
        {
          "internalType": "address",
          "name": "operator",
          "type": "address"
        },
        {
          "internalType": "bool",
          "name": "approved",
          "type": "bool"
        }
      ],
      "name": "setApprovalForAll",
      "outputs": [],
      "stateMutability": "nonpayable",
      "type": "function"
    },
    {
      "inputs": [
        {
          "internalType": "bytes4",
          "name": "interfaceId",
          "type": "bytes4"
        }
      ],
      "name": "supportsInterface",
      "outputs": [
        {
          "internalType": "bool",
          "name": "",
          "type": "bool"
        }
      ],
      "stateMutability": "view",
      "type": "function"
    },
    {
      "inputs": [],
      "name": "symbol",
      "outputs": [
        {
          "internalType": "string",
          "name": "",
          "type": "string"
        }
      ],
      "stateMutability": "view",
      "type": "function"
    },
    {
      "inputs": [
        {
          "internalType": "uint256",
          "name": "tokenId",
          "type": "uint256"
        }
      ],
      "name": "tokenURI",
      "outputs": [
        {
          "internalType": "string",
          "name": "",
          "type": "string"
        }
      ],
      "stateMutability": "view",
      "type": "function"
    },
    {
      "inputs": [],
      "name": "totalMinted",
      "outputs": [
        {
          "internalType": "uint256",
          "name": "",
          "type": "uint256"
        }
      ],
      "stateMutability": "view",
      "type": "function"
    },
    {
      "inputs": [
        {
          "internalType": "address",
          "name": "from",
          "type": "address"
        },
        {
          "internalType": "address",
          "name": "to",
          "type": "address"
        },
        {
          "internalType": "uint256",
          "name": "tokenId",
          "type": "uint256"
        }
      ],
      "name": "transferFrom",
      "outputs": [],
      "stateMutability": "nonpayable",
      "type": "function"
    }
  ],
  "bytecode": "0x608060405234801561001057600080fd5b50604051611b81380380611b8183398101604081905261002f9161010d565b8181600061003d83826101ff565b50600161004a82826101ff565b50505050506102bd565b634e487b7160e01b600052604160045260246000fd5b600082601f83011261007b57600080fd5b81516001600160401b0381111561009457610094610054565b604051601f8201601f19908116603f011681016001600160401b03811182821017156100c2576100c2610054565b6040528181528382016020018510156100da57600080fd5b60005b828110156100f9576020818601810151838301820152016100dd565b506000918101602001919091529392505050565b6000806040838503121561012057600080fd5b82516001600160401b0381111561013657600080fd5b6101428582860161006a565b602085015190935090506001600160401b0381111561016057600080fd5b61016c8582860161006a565b9150509250929050565b600181811c9082168061018a57607f821691505b6020821081036101aa57634e487b7160e01b600052602260045260246000fd5b50919050565b601f8211156101fa57806000526020600020601f840160051c810160208510156101d75750805b601f840160051c820191505b818110156101f757600081556001016101e3565b50505b505050565b81516001600160401b0381111561021857610218610054565b61022c816102268454610176565b846101b0565b6020601f82116001811461026057600083156102485750848201515b600019600385901b1c1916600184901b1784556101f7565b600084815260208120601f198516915b828110156102905787850151825560209485019460019092019101610270565b50848210156102ae5786840151600019600387901b60f8161c191681555b50505050600190811b01905550565b6118b5806102cc6000396000f3fe608060405234801561001057600080fd5b506004361061010b5760003560e01c80636352211e116100a2578063a2309ff811610071578063a2309ff814610228578063b88d4fde14610230578063c87b56dd14610243578063d0def52114610256578063e985e9c51461026957600080fd5b80636352211e146101d957806370a08231146101ec57806395d89b411461020d578063a22cb4651461021557600080fd5b806323b872dd116100de57806323b872dd1461018d57806340d097c3146101a057806342842e0e146101b357806342966c68146101c657600080fd5b806301ffc9a71461011057806306fdde0314610138578063081812fc1461014d578063095ea7b314610178575b600080fd5b61012361011e3660046112b7565b6102a5565b60405190151581526020015b60405180910390f35b6101406102d0565b60405161012f9190611324565b61016061015b366004611337565b610362565b6040516001600160a01b03909116815260200161012f565b61018b61018636600461136c565b610389565b005b61018b61019b366004611396565b6104a3565b61018b6101ae3660046113d3565b6104d4565b61018b6101c1366004611396565b6104ef565b61018b6101d4366004611337565b61050a565b6101606101e7366004611337565b610565565b6101ff6101fa3660046113d3565b6105c5565b60405190815260200161012f565b61014061064b565b61018b6102233660046113ee565b61065a565b6101ff610665565b61018b61023e3660046114ba565b610675565b610140610251366004611337565b6106ad565b6101ff610264366004611536565b6107bd565b610123610277366004611598565b6001600160a01b03918216600090815260056020908152604080832093909416825291909152205460ff1690565b60006001600160e01b03198216632483248360e11b14806102ca57506102ca826107fc565b92915050565b6060600080546102df906115cb565b80601f016020809104026020016040519081016040528092919081815260200182805461030b906115cb565b80156103585780601f1061032d57610100808354040283529160200191610358565b820191906000526020600020905b81548152906001019060200180831161033b57829003601f168201915b5050505050905090565b600061036d8261084c565b506000908152600460205260409020546001600160a01b031690565b600061039482610565565b9050806001600160a01b0316836001600160a01b0316036104065760405162461bcd60e51b815260206004820152602160248201527f4552433732313a20617070726f76616c20746f2063757272656e74206f776e656044820152603960f91b60648201526084015b60405180910390fd5b336001600160a01b038216148061042257506104228133610277565b6104945760405162461bcd60e51b815260206004820152603d60248201527f4552433732313a20617070726f76652063616c6c6572206973206e6f7420746f60448201527f6b656e206f776e6572206f7220617070726f76656420666f7220616c6c00000060648201526084016103fd565b61049e83836108ab565b505050565b6104ad3382610919565b6104c95760405162461bcd60e51b81526004016103fd90611605565b61049e838383610997565b60006104df60075490565b90506104eb8282610afb565b5050565b61049e83838360405180602001604052806000815250610675565b6105143382610919565b6105595760405162461bcd60e51b8152602060048201526016602482015275139bdd081bdddb995c881b9bdc88185c1c1c9bdd995960521b60448201526064016103fd565b61056281610b15565b50565b6000818152600260205260408120546001600160a01b0316806102ca5760405162461bcd60e51b8152602060048201526018602482015277115490cdcc8c4e881a5b9d985b1a59081d1bdad95b88125160421b60448201526064016103fd565b60006001600160a01b03821661062f5760405162461bcd60e51b815260206004820152602960248201527f4552433732313a2061646472657373207a65726f206973206e6f7420612076616044820152683634b21037bbb732b960b91b60648201526084016103fd565b506001600160a01b031660009081526003602052604090205490565b6060600180546102df906115cb565b6104eb338383610b55565b600061067060075490565b905090565b61067f3383610919565b61069b5760405162461bcd60e51b81526004016103fd90611605565b6106a784848484610c23565b50505050565b60606106b88261084c565b600082815260066020526040812080546106d1906115cb565b80601f01602080910402602001604051908101604052809291908181526020018280546106fd906115cb565b801561074a5780601f1061071f5761010080835404028352916020019161074a565b820191906000526020600020905b81548152906001019060200180831161072d57829003601f168201915b50505050509050600061076860408051602081019091526000815290565b9050805160000361077a575092915050565b8151156107ac578082604051602001610794929190611652565b60405160208183030381529060405292505050919050565b6107b584610c56565b949350505050565b60006107cd600780546001019055565b60006107d860075490565b90506107e48482610afb565b8251156107f5576107f58184610cc9565b9392505050565b60006001600160e01b031982166380ac58cd60e01b148061082d57506001600160e01b03198216635b5e139f60e01b145b806102ca57506301ffc9a760e01b6001600160e01b03198316146102ca565b6000818152600260205260409020546001600160a01b03166105625760405162461bcd60e51b8152602060048201526018602482015277115490cdcc8c4e881a5b9d985b1a59081d1bdad95b88125160421b60448201526064016103fd565b600081815260046020526040902080546001600160a01b0319166001600160a01b03841690811790915581906108e082610565565b6001600160a01b03167f8c5be1e5ebec7d5bd14f71427d1e84f3dd0314c0f7b2291e5b200ac8c7c3b92560405160405180910390a45050565b60008061092583610565565b9050806001600160a01b0316846001600160a01b0316148061096c57506001600160a01b0380821660009081526005602090815260408083209388168352929052205460ff165b806107b55750836001600160a01b031661098584610362565b6001600160a01b031614949350505050565b826001600160a01b03166109aa82610565565b6001600160a01b0316146109d05760405162461bcd60e51b81526004016103fd90611681565b6001600160a01b038216610a325760405162461bcd60e51b8152602060048201526024808201527f4552433732313a207472616e7366657220746f20746865207a65726f206164646044820152637265737360e01b60648201526084016103fd565b826001600160a01b0316610a4582610565565b6001600160a01b031614610a6b5760405162461bcd60e51b81526004016103fd90611681565b600081815260046020908152604080832080546001600160a01b03199081169091556001600160a01b0387811680865260038552838620805460001901905590871680865283862080546001019055868652600290945282852080549092168417909155905184937fddf252ad1be2c89b69c2b068fc378daa952ba7f163c4a11628f55a4df523b3ef91a4505050565b6104eb828260405180602001604052806000815250610d94565b610b1e81610dc7565b60008181526006602052604090208054610b37906115cb565b15905061056257600081815260066020526040812061056291611253565b816001600160a01b0316836001600160a01b031603610bb65760405162461bcd60e51b815260206004820152601960248201527f4552433732313a20617070726f766520746f2063616c6c65720000000000000060448201526064016103fd565b6001600160a01b03838116600081815260056020908152604080832094871680845294825291829020805460ff191686151590811790915591519182527f17307eab39ab6107e8899845ad3d59bd9653f200f220920489ca2b5937696c31910160405180910390a3505050565b610c2e848484610997565b610c3a84848484610e5c565b6106a75760405162461bcd60e51b81526004016103fd906116c6565b6060610c618261084c565b6000610c7860408051602081019091526000815290565b90506000815111610c9857604051806020016040528060008152506107f5565b80610ca284610f5d565b604051602001610cb3929190611652565b6040516020818303038152906040529392505050565b6000828152600260205260409020546001600160a01b0316610d445760405162461bcd60e51b815260206004820152602e60248201527f45524337323155524953746f726167653a2055524920736574206f66206e6f6e60448201526d32bc34b9ba32b73a103a37b5b2b760911b60648201526084016103fd565b6000828152600660205260409020610d5c8282611766565b506040518281527ff8e1a15aba9398e019f0b49df1a4fde98ee17ae345cb5f6b5e2c27f5033e8ce79060200160405180910390a15050565b610d9e8383610ff0565b610dab6000848484610e5c565b61049e5760405162461bcd60e51b81526004016103fd906116c6565b6000610dd282610565565b9050610ddd82610565565b600083815260046020908152604080832080546001600160a01b03199081169091556001600160a01b0385168085526003845282852080546000190190558785526002909352818420805490911690555192935084927fddf252ad1be2c89b69c2b068fc378daa952ba7f163c4a11628f55a4df523b3ef908390a45050565b60006001600160a01b0384163b15610f5257604051630a85bd0160e11b81526001600160a01b0385169063150b7a0290610ea0903390899088908890600401611825565b6020604051808303816000875af1925050508015610edb575060408051601f3d908101601f19168201909252610ed891810190611862565b60015b610f38573d808015610f09576040519150601f19603f3d011682016040523d82523d6000602084013e610f0e565b606091505b508051600003610f305760405162461bcd60e51b81526004016103fd906116c6565b805181602001fd5b6001600160e01b031916630a85bd0160e11b1490506107b5565b506001949350505050565b60606000610f6a8361117b565b600101905060008167ffffffffffffffff811115610f8a57610f8a61142a565b6040519080825280601f01601f191660200182016040528015610fb4576020820181803683370190505b5090508181016020015b600019016f181899199a1a9b1b9c1cb0b131b232b360811b600a86061a8153600a8504945084610fbe57509392505050565b6001600160a01b0382166110465760405162461bcd60e51b815260206004820181905260248201527f4552433732313a206d696e7420746f20746865207a65726f206164647265737360448201526064016103fd565b6000818152600260205260409020546001600160a01b0316156110ab5760405162461bcd60e51b815260206004820152601c60248201527f4552433732313a20746f6b656e20616c7265616479206d696e7465640000000060448201526064016103fd565b6000818152600260205260409020546001600160a01b0316156111105760405162461bcd60e51b815260206004820152601c60248201527f4552433732313a20746f6b656e20616c7265616479206d696e7465640000000060448201526064016103fd565b6001600160a01b038216600081815260036020908152604080832080546001019055848352600290915280822080546001600160a01b0319168417905551839291907fddf252ad1be2c89b69c2b068fc378daa952ba7f163c4a11628f55a4df523b3ef908290a45050565b60008072184f03e93ff9f4daa797ed6e38ed64bf6a1f0160401b83106111ba5772184f03e93ff9f4daa797ed6e38ed64bf6a1f0160401b830492506040015b6d04ee2d6d415b85acef810000000083106111e6576d04ee2d6d415b85acef8100000000830492506020015b662386f26fc10000831061120457662386f26fc10000830492506010015b6305f5e100831061121c576305f5e100830492506008015b612710831061123057612710830492506004015b60648310611242576064830492506002015b600a83106102ca5760010192915050565b50805461125f906115cb565b6000825580601f1061126f575050565b601f01602090049060005260206000209081019061056291905b8082111561129d5760008155600101611289565b5090565b6001600160e01b03198116811461056257600080fd5b6000602082840312156112c957600080fd5b81356107f5816112a1565b60005b838110156112ef5781810151838201526020016112d7565b50506000910152565b600081518084526113108160208601602086016112d4565b601f01601f19169290920160200192915050565b6020815260006107f560208301846112f8565b60006020828403121561134957600080fd5b5035919050565b80356001600160a01b038116811461136757600080fd5b919050565b6000806040838503121561137f57600080fd5b61138883611350565b946020939093013593505050565b6000806000606084860312156113ab57600080fd5b6113b484611350565b92506113c260208501611350565b929592945050506040919091013590565b6000602082840312156113e557600080fd5b6107f582611350565b6000806040838503121561140157600080fd5b61140a83611350565b91506020830135801515811461141f57600080fd5b809150509250929050565b634e487b7160e01b600052604160045260246000fd5b60008067ffffffffffffffff84111561145b5761145b61142a565b50604051601f19601f85018116603f0116810181811067ffffffffffffffff8211171561148a5761148a61142a565b6040528381529050808284018510156114a257600080fd5b83836020830137600060208583010152509392505050565b600080600080608085870312156114d057600080fd5b6114d985611350565b93506114e760208601611350565b925060408501359150606085013567ffffffffffffffff81111561150a57600080fd5b8501601f8101871361151b57600080fd5b61152a87823560208401611440565b91505092959194509250565b6000806040838503121561154957600080fd5b61155283611350565b9150602083013567ffffffffffffffff81111561156e57600080fd5b8301601f8101851361157f57600080fd5b61158e85823560208401611440565b9150509250929050565b600080604083850312156115ab57600080fd5b6115b483611350565b91506115c260208401611350565b90509250929050565b600181811c908216806115df57607f821691505b6020821081036115ff57634e487b7160e01b600052602260045260246000fd5b50919050565b6020808252602d908201527f4552433732313a2063616c6c6572206973206e6f7420746f6b656e206f776e6560408201526c1c881bdc88185c1c1c9bdd9959609a1b606082015260800190565b600083516116648184602088016112d4565b8351908301906116788183602088016112d4565b01949350505050565b60208082526025908201527f4552433732313a207472616e736665722066726f6d20696e636f72726563742060408201526437bbb732b960d91b606082015260800190565b60208082526032908201527f4552433732313a207472616e7366657220746f206e6f6e20455243373231526560408201527131b2b4bb32b91034b6b83632b6b2b73a32b960711b606082015260800190565b601f82111561049e57806000526020600020601f840160051c8101602085101561173f5750805b601f840160051c820191505b8181101561175f576000815560010161174b565b5050505050565b815167ffffffffffffffff8111156117805761178061142a565b6117948161178e84546115cb565b84611718565b6020601f8211600181146117c857600083156117b05750848201515b600019600385901b1c1916600184901b17845561175f565b600084815260208120601f198516915b828110156117f857878501518255602094850194600190920191016117d8565b50848210156118165786840151600019600387901b60f8161c191681555b50505050600190811b01905550565b6001600160a01b0385811682528416602082015260408101839052608060608201819052600090611858908301846112f8565b9695505050505050565b60006020828403121561187457600080fd5b81516107f5816112a156fea264697066735822122071b6b381da68ada2c0dfe1089be99af5e5b53bb3cdc79848012e2abb24dce4e364736f6c634300081c0033",
  "linkReferences": {},
  "deployedLinkReferences": {}
}