{
  "_format": "hh-sol-artifact-1",
  "contractName": "XenaraMarketplace",
  "sourceName": "contracts/MarketPlace/XenaraMarketplace.sol",
  "abi": [
    {
      "inputs": [
        {
          "internalType": "address",
          "name": "_xnrToken",
          "type": "address"
        },
        {
          "internalType": "address",
          "name": "_platformFeeRecipient",
          "type": "address"
        },
        {
          "internalType": "uint256",
          "name": "_platformFeeBP",
          "type": "uint256"
        },
        {
          "internalType": "address",
          "name": "admin",
          "type": "address"
        }
      ],
      "stateMutability": "nonpayable",
      "type": "constructor"
    },
    {
      "inputs": [],
      "name": "FeesExceedPrice",
      "type": "error"
    },
    {
      "inputs": [],
      "name": "InvalidNFT",
      "type": "error"
    },
    {
      "inputs": [],
      "name": "InvalidPrice",
      "type": "error"
    },
    {
      "inputs": [],
      "name": "InvalidSeller",
      "type": "error"
    },
    {
      "inputs": [],
      "name": "ListingNotActive",
      "type": "error"
    },
    {
      "inputs": [],
      "name": "NoFees",
      "type": "error"
    },
    {
      "inputs": [],
      "name": "NoProceeds",
      "type": "error"
    },
    {
      "inputs": [],
      "name": "NotAuthorized",
      "type": "error"
    },
    {
      "inputs": [],
      "name": "NotOwner",
      "type": "error"
    },
    {
      "inputs": [],
      "name": "PlatformFeeTooHigh",
      "type": "error"
    },
    {
      "inputs": [],
      "name": "TransferFailed",
      "type": "error"
    },
    {
      "inputs": [],
      "name": "ZeroAddress",
      "type": "error"
    },
    {
      "inputs": [],
      "name": "ZeroAmount",
      "type": "error"
    },
    {
      "anonymous": false,
      "inputs": [
        {
          "indexed": true,
          "internalType": "uint256",
          "name": "listingId",
          "type": "uint256"
        },
        {
          "indexed": true,
          "internalType": "address",
          "name": "seller",
          "type": "address"
        },
        {
          "indexed": true,
          "internalType": "address",
          "name": "nftAddress",
          "type": "address"
        },
        {
          "indexed": false,
          "internalType": "uint256",
          "name": "tokenId",
          "type": "uint256"
        },
        {
          "indexed": false,
          "internalType": "uint256",
          "name": "price",
          "type": "uint256"
        }
      ],
      "name": "Listed",
      "type": "event"
    },
    {
      "anonymous": false,
      "inputs": [
        {
          "indexed": true,
          "internalType": "uint256",
          "name": "listingId",
          "type": "uint256"
        },
        {
          "indexed": true,
          "internalType": "address",
          "name": "seller",
          "type": "address"
        }
      ],
      "name": "ListingCancelled",
      "type": "event"
    },
    {
      "anonymous": false,
      "inputs": [
        {
          "indexed": false,
          "internalType": "address",
          "name": "account",
          "type": "address"
        }
      ],
      "name": "Paused",
      "type": "event"
    },
    {
      "anonymous": false,
      "inputs": [
        {
          "indexed": true,
          "internalType": "uint256",
          "name": "listingId",
          "type": "uint256"
        },
        {
          "indexed": true,
          "internalType": "address",
          "name": "recipient",
          "type": "address"
        },
        {
          "indexed": false,
          "internalType": "uint256",
          "name": "amount",
          "type": "uint256"
        }
      ],
      "name": "PlatformFeeCollected",
      "type": "event"
    },
    {
      "anonymous": false,
      "inputs": [
        {
          "indexed": true,
          "internalType": "address",
          "name": "operator",
          "type": "address"
        },
        {
          "indexed": false,
          "internalType": "address",
          "name": "newRecipient",
          "type": "address"
        }
      ],
      "name": "PlatformFeeRecipientUpdated",
      "type": "event"
    },
    {
      "anonymous": false,
      "inputs": [
        {
          "indexed": true,
          "internalType": "address",
          "name": "operator",
          "type": "address"
        },
        {
          "indexed": false,
          "internalType": "uint256",
          "name": "newBP",
          "type": "uint256"
        }
      ],
      "name": "PlatformFeeUpdated",
      "type": "event"
    },
    {
      "anonymous": false,
      "inputs": [
        {
          "indexed": true,
          "internalType": "address",
          "name": "recipient",
          "type": "address"
        },
        {
          "indexed": false,
          "internalType": "uint256",
          "name": "amount",
          "type": "uint256"
        }
      ],
      "name": "PlatformFeesWithdrawn",
      "type": "event"
    },
    {
      "anonymous": false,
      "inputs": [
        {
          "indexed": true,
          "internalType": "address",
          "name": "seller",
          "type": "address"
        },
        {
          "indexed": false,
          "internalType": "uint256",
          "name": "amount",
          "type": "uint256"
        }
      ],
      "name": "ProceedsWithdrawn",
      "type": "event"
    },
    {
      "anonymous": false,
      "inputs": [
        {
          "indexed": true,
          "internalType": "uint256",
          "name": "listingId",
          "type": "uint256"
        },
        {
          "indexed": true,
          "internalType": "address",
          "name": "buyer",
          "type": "address"
        },
        {
          "indexed": true,
          "internalType": "address",
          "name": "seller",
          "type": "address"
        },
        {
          "indexed": false,
          "internalType": "address",
          "name": "nftAddress",
          "type": "address"
        },
        {
          "indexed": false,
          "internalType": "uint256",
          "name": "tokenId",
          "type": "uint256"
        },
        {
          "indexed": false,
          "internalType": "uint256",
          "name": "price",
          "type": "uint256"
        }
      ],
      "name": "Purchased",
      "type": "event"
    },
    {
      "anonymous": false,
      "inputs": [
        {
          "indexed": true,
          "internalType": "bytes32",
          "name": "role",
          "type": "bytes32"
        },
        {
          "indexed": true,
          "internalType": "bytes32",
          "name": "previousAdminRole",
          "type": "bytes32"
        },
        {
          "indexed": true,
          "internalType": "bytes32",
          "name": "newAdminRole",
          "type": "bytes32"
        }
      ],
      "name": "RoleAdminChanged",
      "type": "event"
    },
    {
      "anonymous": false,
      "inputs": [
        {
          "indexed": true,
          "internalType": "bytes32",
          "name": "role",
          "type": "bytes32"
        },
        {
          "indexed": true,
          "internalType": "address",
          "name": "account",
          "type": "address"
        },
        {
          "indexed": true,
          "internalType": "address",
          "name": "sender",
          "type": "address"
        }
      ],
      "name": "RoleGranted",
      "type": "event"
    },
    {
      "anonymous": false,
      "inputs": [
        {
          "indexed": true,
          "internalType": "bytes32",
          "name": "role",
          "type": "bytes32"
        },
        {
          "indexed": true,
          "internalType": "address",
          "name": "account",
          "type": "address"
        },
        {
          "indexed": true,
          "internalType": "address",
          "name": "sender",
          "type": "address"
        }
      ],
      "name": "RoleRevoked",
      "type": "event"
    },
    {
      "anonymous": false,
      "inputs": [
        {
          "indexed": true,
          "internalType": "uint256",
          "name": "listingId",
          "type": "uint256"
        },
        {
          "indexed": true,
          "internalType": "address",
          "name": "royaltyRecipient",
          "type": "address"
        },
        {
          "indexed": false,
          "internalType": "uint256",
          "name": "amount",
          "type": "uint256"
        }
      ],
      "name": "RoyaltyPaid",
      "type": "event"
    },
    {
      "anonymous": false,
      "inputs": [
        {
          "indexed": false,
          "internalType": "address",
          "name": "account",
          "type": "address"
        }
      ],
      "name": "Unpaused",
      "type": "event"
    },
    {
      "inputs": [],
      "name": "ADMIN_ROLE",
      "outputs": [
        {
          "internalType": "bytes32",
          "name": "",
          "type": "bytes32"
        }
      ],
      "stateMutability": "view",
      "type": "function"
    },
    {
      "inputs": [],
      "name": "DEFAULT_ADMIN_ROLE",
      "outputs": [
        {
          "internalType": "bytes32",
          "name": "",
          "type": "bytes32"
        }
      ],
      "stateMutability": "view",
      "type": "function"
    },
    {
      "inputs": [
        {
          "internalType": "uint256",
          "name": "listingId",
          "type": "uint256"
        }
      ],
      "name": "buy",
      "outputs": [],
      "stateMutability": "nonpayable",
      "type": "function"
    },
    {
      "inputs": [
        {
          "internalType": "uint256",
          "name": "listingId",
          "type": "uint256"
        }
      ],
      "name": "cancelListing",
      "outputs": [],
      "stateMutability": "nonpayable",
      "type": "function"
    },
    {
      "inputs": [
        {
          "internalType": "address",
          "name": "nftAddress",
          "type": "address"
        },
        {
          "internalType": "uint256",
          "name": "tokenId",
          "type": "uint256"
        },
        {
          "internalType": "uint256",
          "name": "price",
          "type": "uint256"
        }
      ],
      "name": "createListing",
      "outputs": [
        {
          "internalType": "uint256",
          "name": "",
          "type": "uint256"
        }
      ],
      "stateMutability": "nonpayable",
      "type": "function"
    },
    {
      "inputs": [
        {
          "internalType": "address",
          "name": "nftAddress",
          "type": "address"
        },
        {
          "internalType": "uint256",
          "name": "tokenId",
          "type": "uint256"
        },
        {
          "internalType": "address",
          "name": "to",
          "type": "address"
        }
      ],
      "name": "emergencyWithdrawNFT",
      "outputs": [],
      "stateMutability": "nonpayable",
      "type": "function"
    },
    {
      "inputs": [
        {
          "internalType": "uint256",
          "name": "listingId",
          "type": "uint256"
        }
      ],
      "name": "getListing",
      "outputs": [
        {
          "components": [
            {
              "internalType": "address",
              "name": "seller",
              "type": "address"
            },
            {
              "internalType": "address",
              "name": "nftAddress",
              "type": "address"
            },
            {
              "internalType": "uint256",
              "name": "tokenId",
              "type": "uint256"
            },
            {
              "internalType": "uint256",
              "name": "price",
              "type": "uint256"
            },
            {
              "internalType": "uint256",
              "name": "createdAt",
              "type": "uint256"
            },
            {
              "internalType": "bool",
              "name": "active",
              "type": "bool"
            }
          ],
          "internalType": "struct XenaraMarketplace.Listing",
          "name": "",
          "type": "tuple"
        }
      ],
      "stateMutability": "view",
      "type": "function"
    },
    {
      "inputs": [],
      "name": "getPlatformFeesAvailable",
      "outputs": [
        {
          "internalType": "uint256",
          "name": "",
          "type": "uint256"
        }
      ],
      "stateMutability": "view",
      "type": "function"
    },
    {
      "inputs": [
        {
          "internalType": "address",
          "name": "seller",
          "type": "address"
        }
      ],
      "name": "getProceeds",
      "outputs": [
        {
          "internalType": "uint256",
          "name": "",
          "type": "uint256"
        }
      ],
      "stateMutability": "view",
      "type": "function"
    },
    {
      "inputs": [
        {
          "internalType": "bytes32",
          "name": "role",
          "type": "bytes32"
        }
      ],
      "name": "getRoleAdmin",
      "outputs": [
        {
          "internalType": "bytes32",
          "name": "",
          "type": "bytes32"
        }
      ],
      "stateMutability": "view",
      "type": "function"
    },
    {
      "inputs": [
        {
          "internalType": "bytes32",
          "name": "role",
          "type": "bytes32"
        },
        {
          "internalType": "address",
          "name": "account",
          "type": "address"
        }
      ],
      "name": "grantRole",
      "outputs": [],
      "stateMutability": "nonpayable",
      "type": "function"
    },
    {
      "inputs": [
        {
          "internalType": "bytes32",
          "name": "role",
          "type": "bytes32"
        },
        {
          "internalType": "address",
          "name": "account",
          "type": "address"
        }
      ],
      "name": "hasRole",
      "outputs": [
        {
          "internalType": "bool",
          "name": "",
          "type": "bool"
        }
      ],
      "stateMutability": "view",
      "type": "function"
    },
    {
      "inputs": [
        {
          "internalType": "uint256",
          "name": "",
          "type": "uint256"
        }
      ],
      "name": "listings",
      "outputs": [
        {
          "internalType": "address",
          "name": "seller",
          "type": "address"
        },
        {
          "internalType": "address",
          "name": "nftAddress",
          "type": "address"
        },
        {
          "internalType": "uint256",
          "name": "tokenId",
          "type": "uint256"
        },
        {
          "internalType": "uint256",
          "name": "price",
          "type": "uint256"
        },
        {
          "internalType": "uint256",
          "name": "createdAt",
          "type": "uint256"
        },
        {
          "internalType": "bool",
          "name": "active",
          "type": "bool"
        }
      ],
      "stateMutability": "view",
      "type": "function"
    },
    {
      "inputs": [],
      "name": "nextListingId",
      "outputs": [
        {
          "internalType": "uint256",
          "name": "",
          "type": "uint256"
        }
      ],
      "stateMutability": "view",
      "type": "function"
    },
    {
      "inputs": [
        {
          "internalType": "address",
          "name": "",
          "type": "address"
        },
        {
          "internalType": "address",
          "name": "",
          "type": "address"
        },
        {
          "internalType": "uint256",
          "name": "",
          "type": "uint256"
        },
        {
          "internalType": "bytes",
          "name": "",
          "type": "bytes"
        }
      ],
      "name": "onERC721Received",
      "outputs": [
        {
          "internalType": "bytes4",
          "name": "",
          "type": "bytes4"
        }
      ],
      "stateMutability": "nonpayable",
      "type": "function"
    },
    {
      "inputs": [],
      "name": "pause",
      "outputs": [],
      "stateMutability": "nonpayable",
      "type": "function"
    },
    {
      "inputs": [],
      "name": "paused",
      "outputs": [
        {
          "internalType": "bool",
          "name": "",
          "type": "bool"
        }
      ],
      "stateMutability": "view",
      "type": "function"
    },
    {
      "inputs": [],
      "name": "platformFeeBP",
      "outputs": [
        {
          "internalType": "uint256",
          "name": "",
          "type": "uint256"
        }
      ],
      "stateMutability": "view",
      "type": "function"
    },
    {
      "inputs": [],
      "name": "platformFeeRecipient",
      "outputs": [
        {
          "internalType": "address",
          "name": "",
          "type": "address"
        }
      ],
      "stateMutability": "view",
      "type": "function"
    },
    {
      "inputs": [],
      "name": "platformFeesAvailable",
      "outputs": [
        {
          "internalType": "uint256",
          "name": "",
          "type": "uint256"
        }
      ],
      "stateMutability": "view",
      "type": "function"
    },
    {
      "inputs": [
        {
          "internalType": "address",
          "name": "",
          "type": "address"
        }
      ],
      "name": "proceeds",
      "outputs": [
        {
          "internalType": "uint256",
          "name": "",
          "type": "uint256"
        }
      ],
      "stateMutability": "view",
      "type": "function"
    },
    {
      "inputs": [
        {
          "internalType": "bytes32",
          "name": "role",
          "type": "bytes32"
        },
        {
          "internalType": "address",
          "name": "account",
          "type": "address"
        }
      ],
      "name": "renounceRole",
      "outputs": [],
      "stateMutability": "nonpayable",
      "type": "function"
    },
    {
      "inputs": [
        {
          "internalType": "bytes32",
          "name": "role",
          "type": "bytes32"
        },
        {
          "internalType": "address",
          "name": "account",
          "type": "address"
        }
      ],
      "name": "revokeRole",
      "outputs": [],
      "stateMutability": "nonpayable",
      "type": "function"
    },
    {
      "inputs": [
        {
          "internalType": "uint256",
          "name": "newBP",
          "type": "uint256"
        }
      ],
      "name": "setPlatformFeeBP",
      "outputs": [],
      "stateMutability": "nonpayable",
      "type": "function"
    },
    {
      "inputs": [
        {
          "internalType": "address",
          "name": "newRecipient",
          "type": "address"
        }
      ],
      "name": "setPlatformFeeRecipient",
      "outputs": [],
      "stateMutability": "nonpayable",
      "type": "function"
    },
    {
      "inputs": [
        {
          "internalType": "bytes4",
          "name": "interfaceId",
          "type": "bytes4"
        }
      ],
      "name": "supportsInterface",
      "outputs": [
        {
          "internalType": "bool",
          "name": "",
          "type": "bool"
        }
      ],
      "stateMutability": "view",
      "type": "function"
    },
    {
      "inputs": [],
      "name": "unpause",
      "outputs": [],
      "stateMutability": "nonpayable",
      "type": "function"
    },
    {
      "inputs": [
        {
          "internalType": "uint256",
          "name": "listingId",
          "type": "uint256"
        },
        {
          "internalType": "uint256",
          "name": "newPrice",
          "type": "uint256"
        }
      ],
      "name": "updateListingPrice",
      "outputs": [],
      "stateMutability": "nonpayable",
      "type": "function"
    },
    {
      "inputs": [],
      "name": "withdrawPlatformFees",
      "outputs": [],
      "stateMutability": "nonpayable",
      "type": "function"
    },
    {
      "inputs": [],
      "name": "withdrawProceeds",
      "outputs": [],
      "stateMutability": "nonpayable",
      "type": "function"
    },
    {
      "inputs": [],
      "name": "xnrToken",
      "outputs": [
        {
          "internalType": "contract IERC20",
          "name": "",
          "type": "address"
        }
      ],
      "stateMutability": "view",
      "type": "function"
    }
  ],
  "bytecode": "0x60a060405234801561001057600080fd5b5060405161205238038061205283398101604081905261002f916101cf565b60016000556002805460ff191690556001600160a01b0384166100655760405163d92e233d60e01b815260040160405180910390fd5b6001600160a01b03831661008c5760405163d92e233d60e01b815260040160405180910390fd5b6103e88211156100af5760405163d086646b60e01b815260040160405180910390fd5b6001600160a01b038085166080526002805491851661010002610100600160a81b031990921691909117905560038290556100eb60008261011e565b6101157fa49807205ce4d355092ef5a8a18f56e8913cf4a201fbe287825b095693c217758261011e565b5050505061021c565b610128828261012c565b5050565b60008281526001602090815260408083206001600160a01b038516845290915290205460ff166101285760008281526001602081815260408084206001600160a01b0386168086529252808420805460ff19169093179092559051339285917f2f8788117e7eff1d82e926ec794901d17c78024a50270940304540a733656f0d9190a45050565b80516001600160a01b03811681146101ca57600080fd5b919050565b600080600080608085870312156101e557600080fd5b6101ee856101b3565b93506101fc602086016101b3565b925060408501519150610211606086016101b3565b905092959194509250565b608051611dff610253600039600081816105ad01528181610c3301528181610e2601528181610f4b01526110bf0152611dff6000f3fe608060405234801561001057600080fd5b50600436106101e55760003560e01c806375b238fc1161010f578063ce81e132116100a2578063de74e57b11610071578063de74e57b146104eb578063eb13554f14610578578063fd30aad6146105a8578063ff96092a146105cf57600080fd5b8063ce81e132146104b5578063d0b7830b146104bd578063d547741f146104c5578063d96a094a146104d857600080fd5b8063a217fddf116100de578063a217fddf1461047f578063aaccf1ec14610487578063b1a812951461048f578063c4604943146104a257600080fd5b806375b238fc146104475780638456cb591461045c5780639038e6931461046457806391d148541461046c57600080fd5b8063305a67a81161018757806336aa8c4e1161015657806336aa8c4e146104185780633f4ba83a1461042b5780633f7ab9c1146104335780635c975abb1461043c57600080fd5b8063305a67a8146103a957806330cfeda9146103bc57806335adde54146103e557806336568abe1461040557600080fd5b80631871e243116101c35780631871e2431461033c57806324780c5614610351578063248a9ca3146103725780632f2ff15d1461039657600080fd5b806301ffc9a7146101ea578063107a274a14610212578063150b7a0214610310575b600080fd5b6101fd6101f8366004611952565b6105d8565b60405190151581526020015b60405180910390f35b6102b961022036600461197c565b6040805160c081018252600080825260208201819052918101829052606081018290526080810182905260a081019190915250600090815260056020818152604092839020835160c08101855281546001600160a01b03908116825260018301541692810192909252600281015493820193909352600383015460608201526004830154608082015291015460ff16151560a082015290565b604051610209919081516001600160a01b0390811682526020808401519091169082015260408083015190820152606080830151908201526080808301519082015260a09182015115159181019190915260c00190565b61032361031e3660046119c0565b61060f565b6040516001600160e01b03199091168152602001610209565b61034f61034a366004611aa8565b610620565b005b61036461035f366004611ac5565b6106bf565b604051908152602001610209565b61036461038036600461197c565b6000908152600160208190526040909120015490565b61034f6103a4366004611afa565b61092f565b61034f6103b736600461197c565b61095a565b6103646103ca366004611aa8565b6001600160a01b031660009081526006602052604090205490565b6103646103f3366004611aa8565b60066020526000908152604090205481565b61034f610413366004611afa565b610aaf565b61034f61042636600461197c565b610b32565b61034f610ba4565b61036460075481565b60025460ff166101fd565b610364600080516020611daa83398151915281565b61034f610bc4565b61034f610be4565b6101fd61047a366004611afa565b610ca4565b610364600081565b610364610ccf565b61034f61049d366004611b2a565b610ce5565b61034f6104b0366004611b6c565b610d65565b600754610364565b61034f610dc9565b61034f6104d3366004611afa565b610ea5565b61034f6104e636600461197c565b610ecb565b61053e6104f936600461197c565b60056020819052600091825260409091208054600182015460028301546003840154600485015494909501546001600160a01b03938416959290931693909260ff1686565b604080516001600160a01b0397881681529690951660208701529385019290925260608401526080830152151560a082015260c001610209565b6002546105909061010090046001600160a01b031681565b6040516001600160a01b039091168152602001610209565b6105907f000000000000000000000000000000000000000000000000000000000000000081565b61036460035481565b60006001600160e01b03198216637965db0b60e01b148061060957506301ffc9a760e01b6001600160e01b03198316145b92915050565b630a85bd0160e11b5b949350505050565b600080516020611daa83398151915261063881611276565b6001600160a01b03821661065f5760405163d92e233d60e01b815260040160405180910390fd5b60028054610100600160a81b0319166101006001600160a01b0385169081029190911790915560405190815233907faf04973bb8004e313cfd09017b963bee1e6f6ffb9be88c07a0c5ce5fafe93403906020015b60405180910390a25050565b60006106c9611280565b6106d16112c6565b6001600160a01b0384166106f85760405163079f151f60e11b815260040160405180910390fd5b816000036107185760405162bfc92160e01b815260040160405180910390fd5b6040516331a9108f60e11b81526004810184905284906000906001600160a01b03831690636352211e90602401602060405180830381865afa158015610762573d6000803e3d6000fd5b505050506040513d601f19601f820116820180604052508101906107869190611b8e565b90506001600160a01b03811633146107b1576040516330cd747160e01b815260040160405180910390fd5b604051632142170760e11b81526001600160a01b038316906342842e0e906107e190339030908a90600401611bab565b600060405180830381600087803b1580156107fb57600080fd5b505af115801561080f573d6000803e3d6000fd5b505050506001600460008282546108269190611be5565b90915550506040805160c081018252338082526001600160a01b0389811660208085018281528587018c8152606087018c81524260808901908152600160a08a018181526004805460009081526005988990528d90209b518c54908b166001600160a01b0319918216178d559651928c01805493909a16929096169190911790975591516002890155516003880155518682015592519401805494151560ff1990951694909417909355549251919290917f723f73331eaee88eec7fc68ef60ab6ed15e4b90d0472b55eb92fa43910bab6dd9061090f908a908a90918252602082015260400190565b60405180910390a4600454925050506109286001600055565b9392505050565b6000828152600160208190526040909120015461094b81611276565b610955838361131f565b505050565b610962611280565b61096a6112c6565b60008181526005602081905260409091209081015460ff1661099f576040516366cb03e960e01b815260040160405180910390fd5b80546001600160a01b031633148015906109ce57506109cc600080516020611daa83398151915233610ca4565b155b156109ec5760405163ea8e4eb560e01b815260040160405180910390fd5b60058101805460ff19169055600181015481546002830154604051632142170760e11b81526001600160a01b03938416936342842e0e93610a369330939290911691600401611bab565b600060405180830381600087803b158015610a5057600080fd5b505af1158015610a64573d6000803e3d6000fd5b505082546040516001600160a01b0390911692508491507f8e25282255ab31897df2b0456bb993ac7f84d376861aefd84901d2d63a7428a290600090a350610aac6001600055565b50565b6001600160a01b0381163314610b245760405162461bcd60e51b815260206004820152602f60248201527f416363657373436f6e74726f6c3a2063616e206f6e6c792072656e6f756e636560448201526e103937b632b9903337b91039b2b63360891b60648201526084015b60405180910390fd5b610b2e828261138a565b5050565b600080516020611daa833981519152610b4a81611276565b6107d0821115610b6d5760405163d086646b60e01b815260040160405180910390fd5b600382905560405182815233907fd8149d5d7695ec014cad0238fa3120dfa5fa8330c3d19b451f2bdc7587f37d84906020016106b3565b600080516020611daa833981519152610bbc81611276565b610aac6113f1565b600080516020611daa833981519152610bdc81611276565b610aac611443565b610bec6112c6565b3360009081526006602052604081205490819003610c1d5760405163c4d8fa8760e01b815260040160405180910390fd5b33600081815260066020526040812055610c62907f00000000000000000000000000000000000000000000000000000000000000006001600160a01b03169083611480565b60405181815233907f0f2fb75cc1977a496e94837f859e957f68e26e70dc1b75d9945ee92ae57969ba9060200160405180910390a250610ca26001600055565b565b60009182526001602090815260408084206001600160a01b0393909316845291905290205460ff1690565b60006004546001610ce09190611be5565b905090565b600080516020611daa833981519152610cfd81611276565b604051632142170760e11b81526001600160a01b038516906342842e0e90610d2d90309086908890600401611bab565b600060405180830381600087803b158015610d4757600080fd5b505af1158015610d5b573d6000803e3d6000fd5b5050505050505050565b600082815260056020526040902080546001600160a01b03163314610d9d5760405163ea8e4eb560e01b815260040160405180910390fd5b600581015460ff16610dc2576040516366cb03e960e01b815260040160405180910390fd5b6003015550565b600080516020611daa833981519152610de181611276565b610de96112c6565b600754600003610e0c576040516303fbecdf60e51b815260040160405180910390fd5b600780546000909155600254610e54906001600160a01b037f000000000000000000000000000000000000000000000000000000000000000081169161010090041683611480565b6002546040518281526101009091046001600160a01b0316907ffc7ad544ff6a06d6499925723d25b6fe70457a42939995b1d3d6f560fe3363339060200160405180910390a250610aac6001600055565b60008281526001602081905260409091200154610ec181611276565b610955838361138a565b610ed3611280565b610edb6112c6565b60008181526005602081905260409091209081015460ff16610f10576040516366cb03e960e01b815260040160405180910390fd5b600381015481546001600160a01b031680610f3e5760405163bab7ca3560e01b815260040160405180910390fd5b610f736001600160a01b037f0000000000000000000000000000000000000000000000000000000000000000163330856114e3565b6001830154600284015460405163152a902d60e11b815260009283926001600160a01b0390911691632a55205a91610fb8918890600401918252602082015260400190565b6040805180830381865afa925050508015610ff0575060408051601f3d908101601f19168201909252610fed91810190611bf8565b60015b610fff57506000905080611004565b925090505b6000612710600354866110179190611c26565b6110219190611c3d565b90508461102e8285611be5565b111561104d5760405163efcb36dd60e01b815260040160405180910390fd5b60008161105a8588611c5f565b6110649190611c5f565b6001600160a01b038616600090815260066020526040812080549293508392909190611091908490611be5565b909155505083158015906110ad57506001600160a01b03831615155b1561112b576110e66001600160a01b037f0000000000000000000000000000000000000000000000000000000000000000168486611480565b826001600160a01b0316887ff670029fc6f5302baba881b4ae845d1453acdf752b4c19ed81fe0fa6a686409b8660405161112291815260200190565b60405180910390a35b81156111915781600760008282546111439190611be5565b90915550506002546040518381526101009091046001600160a01b03169089907faf9954c8a19dd2c9f1d3795e298c964fcd536a9a16d50b88989c13747ae807359060200160405180910390a35b60018701546002880154604051632142170760e11b81526001600160a01b03909216916342842e0e916111ca9130913391600401611bab565b600060405180830381600087803b1580156111e457600080fd5b505af11580156111f8573d6000803e3d6000fd5b5050505060058701805460ff1916905560018701546002880154604080516001600160a01b039384168152602081019290925281018890529086169033908a907f426e914ca9fc56e3d0a12cd2b7e010b10cbd424578c157ea1ce0b14be6d7381b9060600160405180910390a450505050505050610aac6001600055565b610aac813361150a565b60025460ff1615610ca25760405162461bcd60e51b815260206004820152601060248201526f14185d5cd8589b194e881c185d5cd95960821b6044820152606401610b1b565b6002600054036113185760405162461bcd60e51b815260206004820152601f60248201527f5265656e7472616e637947756172643a207265656e7472616e742063616c6c006044820152606401610b1b565b6002600055565b6113298282610ca4565b610b2e5760008281526001602081815260408084206001600160a01b0386168086529252808420805460ff19169093179092559051339285917f2f8788117e7eff1d82e926ec794901d17c78024a50270940304540a733656f0d9190a45050565b6113948282610ca4565b15610b2e5760008281526001602090815260408083206001600160a01b0385168085529252808320805460ff1916905551339285917ff6391f5c32d9c69d2a47ea670b442974b53935d1edc7fd64eb21e047a839171b9190a45050565b6113f9611563565b6002805460ff191690557f5db9ee0a495bf2e6ff9c91a7834c1ba4fdd244a5e8aa4e537bd38aeae4b073aa335b6040516001600160a01b03909116815260200160405180910390a1565b61144b611280565b6002805460ff191660011790557f62e78cea01bee320cd4e420270b5ea74000d11b0c9f74754ebdbfc544b05a2586114263390565b6040516001600160a01b03831660248201526044810182905261095590849063a9059cbb60e01b906064015b60408051601f198184030181529190526020810180516001600160e01b03166001600160e01b0319909316929092179091526115ac565b611504846323b872dd60e01b8585856040516024016114ac93929190611bab565b50505050565b6115148282610ca4565b610b2e5761152181611681565b61152c836020611693565b60405160200161153d929190611c96565b60408051601f198184030181529082905262461bcd60e51b8252610b1b91600401611d0b565b60025460ff16610ca25760405162461bcd60e51b815260206004820152601460248201527314185d5cd8589b194e881b9bdd081c185d5cd95960621b6044820152606401610b1b565b6000611601826040518060400160405280602081526020017f5361666545524332303a206c6f772d6c6576656c2063616c6c206661696c6564815250856001600160a01b031661182f9092919063ffffffff16565b90508051600014806116225750808060200190518101906116229190611d3e565b6109555760405162461bcd60e51b815260206004820152602a60248201527f5361666545524332303a204552433230206f7065726174696f6e20646964206e6044820152691bdd081cdd58d8d9595960b21b6064820152608401610b1b565b60606106096001600160a01b03831660145b606060006116a2836002611c26565b6116ad906002611be5565b67ffffffffffffffff8111156116c5576116c56119aa565b6040519080825280601f01601f1916602001820160405280156116ef576020820181803683370190505b509050600360fc1b8160008151811061170a5761170a611d60565b60200101906001600160f81b031916908160001a905350600f60fb1b8160018151811061173957611739611d60565b60200101906001600160f81b031916908160001a905350600061175d846002611c26565b611768906001611be5565b90505b60018111156117e0576f181899199a1a9b1b9c1cb0b131b232b360811b85600f166010811061179c5761179c611d60565b1a60f81b8282815181106117b2576117b2611d60565b60200101906001600160f81b031916908160001a90535060049490941c936117d981611d76565b905061176b565b5083156109285760405162461bcd60e51b815260206004820181905260248201527f537472696e67733a20686578206c656e67746820696e73756666696369656e746044820152606401610b1b565b6060610618848460008585600080866001600160a01b031685876040516118569190611d8d565b60006040518083038185875af1925050503d8060008114611893576040519150601f19603f3d011682016040523d82523d6000602084013e611898565b606091505b50915091506118a9878383876118b4565b979650505050505050565b6060831561192357825160000361191c576001600160a01b0385163b61191c5760405162461bcd60e51b815260206004820152601d60248201527f416464726573733a2063616c6c20746f206e6f6e2d636f6e74726163740000006044820152606401610b1b565b5081610618565b61061883838151156119385781518083602001fd5b8060405162461bcd60e51b8152600401610b1b9190611d0b565b60006020828403121561196457600080fd5b81356001600160e01b03198116811461092857600080fd5b60006020828403121561198e57600080fd5b5035919050565b6001600160a01b0381168114610aac57600080fd5b634e487b7160e01b600052604160045260246000fd5b600080600080608085870312156119d657600080fd5b84356119e181611995565b935060208501356119f181611995565b925060408501359150606085013567ffffffffffffffff811115611a1457600080fd5b8501601f81018713611a2557600080fd5b803567ffffffffffffffff811115611a3f57611a3f6119aa565b604051601f8201601f19908116603f0116810167ffffffffffffffff81118282101715611a6e57611a6e6119aa565b604052818152828201602001891015611a8657600080fd5b8160208401602083013760006020838301015280935050505092959194509250565b600060208284031215611aba57600080fd5b813561092881611995565b600080600060608486031215611ada57600080fd5b8335611ae581611995565b95602085013595506040909401359392505050565b60008060408385031215611b0d57600080fd5b823591506020830135611b1f81611995565b809150509250929050565b600080600060608486031215611b3f57600080fd5b8335611b4a81611995565b9250602084013591506040840135611b6181611995565b809150509250925092565b60008060408385031215611b7f57600080fd5b50508035926020909101359150565b600060208284031215611ba057600080fd5b815161092881611995565b6001600160a01b039384168152919092166020820152604081019190915260600190565b634e487b7160e01b600052601160045260246000fd5b8082018082111561060957610609611bcf565b60008060408385031215611c0b57600080fd5b8251611c1681611995565b6020939093015192949293505050565b808202811582820484141761060957610609611bcf565b600082611c5a57634e487b7160e01b600052601260045260246000fd5b500490565b8181038181111561060957610609611bcf565b60005b83811015611c8d578181015183820152602001611c75565b50506000910152565b7f416363657373436f6e74726f6c3a206163636f756e7420000000000000000000815260008351611cce816017850160208801611c72565b7001034b99036b4b9b9b4b733903937b6329607d1b6017918401918201528351611cff816028840160208801611c72565b01602801949350505050565b6020815260008251806020840152611d2a816040850160208701611c72565b601f01601f19169190910160400192915050565b600060208284031215611d5057600080fd5b8151801515811461092857600080fd5b634e487b7160e01b600052603260045260246000fd5b600081611d8557611d85611bcf565b506000190190565b60008251611d9f818460208701611c72565b919091019291505056fea49807205ce4d355092ef5a8a18f56e8913cf4a201fbe287825b095693c21775a26469706673582212203a9f637f3a9ee11718b328f6b978565c4ca3b6b2f1d938312c20ea81d47458eb64736f6c634300081c0033",
  "linkReferences": {},
  "deployedLinkReferences": {}
}