{
  "_format": "hh-sol-artifact-1",
  "contractName": "DVDTransferManager",
  "sourceName": "contracts/DVD/DVDTransferManager.sol",
  "abi": [
    {
      "inputs": [],
      "stateMutability": "nonpayable",
      "type": "constructor"
    },
    {
      "anonymous": false,
      "inputs": [
        {
          "indexed": true,
          "internalType": "bytes32",
          "name": "transferID",
          "type": "bytes32"
        }
      ],
      "name": "DVDTransferCancelled",
      "type": "event"
    },
    {
      "anonymous": false,
      "inputs": [
        {
          "indexed": true,
          "internalType": "bytes32",
          "name": "transferID",
          "type": "bytes32"
        }
      ],
      "name": "DVDTransferExecuted",
      "type": "event"
    },
    {
      "anonymous": false,
      "inputs": [
        {
          "indexed": true,
          "internalType": "bytes32",
          "name": "transferID",
          "type": "bytes32"
        },
        {
          "indexed": false,
          "internalType": "address",
          "name": "maker",
          "type": "address"
        },
        {
          "indexed": true,
          "internalType": "address",
          "name": "token1",
          "type": "address"
        },
        {
          "indexed": false,
          "internalType": "uint256",
          "name": "token1Amount",
          "type": "uint256"
        },
        {
          "indexed": false,
          "internalType": "address",
          "name": "taker",
          "type": "address"
        },
        {
          "indexed": true,
          "internalType": "address",
          "name": "token2",
          "type": "address"
        },
        {
          "indexed": false,
          "internalType": "uint256",
          "name": "token2Amount",
          "type": "uint256"
        }
      ],
      "name": "DVDTransferInitiated",
      "type": "event"
    },
    {
      "anonymous": false,
      "inputs": [
        {
          "indexed": true,
          "internalType": "bytes32",
          "name": "parity",
          "type": "bytes32"
        },
        {
          "indexed": false,
          "internalType": "address",
          "name": "token1",
          "type": "address"
        },
        {
          "indexed": false,
          "internalType": "address",
          "name": "token2",
          "type": "address"
        },
        {
          "indexed": false,
          "internalType": "uint256",
          "name": "fee1",
          "type": "uint256"
        },
        {
          "indexed": false,
          "internalType": "uint256",
          "name": "fee2",
          "type": "uint256"
        },
        {
          "indexed": false,
          "internalType": "uint256",
          "name": "feeBase",
          "type": "uint256"
        },
        {
          "indexed": false,
          "internalType": "address",
          "name": "fee1Wallet",
          "type": "address"
        },
        {
          "indexed": false,
          "internalType": "address",
          "name": "fee2Wallet",
          "type": "address"
        }
      ],
      "name": "FeeModified",
      "type": "event"
    },
    {
      "anonymous": false,
      "inputs": [
        {
          "indexed": true,
          "internalType": "address",
          "name": "previousOwner",
          "type": "address"
        },
        {
          "indexed": true,
          "internalType": "address",
          "name": "newOwner",
          "type": "address"
        }
      ],
      "name": "OwnershipTransferred",
      "type": "event"
    },
    {
      "inputs": [
        {
          "internalType": "bytes32",
          "name": "_transferID",
          "type": "bytes32"
        }
      ],
      "name": "calculateFee",
      "outputs": [
        {
          "components": [
            {
              "internalType": "uint256",
              "name": "txFee1",
              "type": "uint256"
            },
            {
              "internalType": "uint256",
              "name": "txFee2",
              "type": "uint256"
            },
            {
              "internalType": "address",
              "name": "fee1Wallet",
              "type": "address"
            },
            {
              "internalType": "address",
              "name": "fee2Wallet",
              "type": "address"
            }
          ],
          "internalType": "struct DVDTransferManager.TxFees",
          "name": "",
          "type": "tuple"
        }
      ],
      "stateMutability": "view",
      "type": "function"
    },
    {
      "inputs": [
        {
          "internalType": "address",
          "name": "_token1",
          "type": "address"
        },
        {
          "internalType": "address",
          "name": "_token2",
          "type": "address"
        }
      ],
      "name": "calculateParity",
      "outputs": [
        {
          "internalType": "bytes32",
          "name": "",
          "type": "bytes32"
        }
      ],
      "stateMutability": "pure",
      "type": "function"
    },
    {
      "inputs": [
        {
          "internalType": "uint256",
          "name": "_nonce",
          "type": "uint256"
        },
        {
          "internalType": "address",
          "name": "_maker",
          "type": "address"
        },
        {
          "internalType": "address",
          "name": "_token1",
          "type": "address"
        },
        {
          "internalType": "uint256",
          "name": "_token1Amount",
          "type": "uint256"
        },
        {
          "internalType": "address",
          "name": "_taker",
          "type": "address"
        },
        {
          "internalType": "address",
          "name": "_token2",
          "type": "address"
        },
        {
          "internalType": "uint256",
          "name": "_token2Amount",
          "type": "uint256"
        }
      ],
      "name": "calculateTransferID",
      "outputs": [
        {
          "internalType": "bytes32",
          "name": "",
          "type": "bytes32"
        }
      ],
      "stateMutability": "pure",
      "type": "function"
    },
    {
      "inputs": [
        {
          "internalType": "bytes32",
          "name": "_transferID",
          "type": "bytes32"
        }
      ],
      "name": "cancelDVDTransfer",
      "outputs": [],
      "stateMutability": "nonpayable",
      "type": "function"
    },
    {
      "inputs": [
        {
          "internalType": "bytes32",
          "name": "",
          "type": "bytes32"
        }
      ],
      "name": "fee",
      "outputs": [
        {
          "internalType": "uint256",
          "name": "token1Fee",
          "type": "uint256"
        },
        {
          "internalType": "uint256",
          "name": "token2Fee",
          "type": "uint256"
        },
        {
          "internalType": "uint256",
          "name": "feeBase",
          "type": "uint256"
        },
        {
          "internalType": "address",
          "name": "fee1Wallet",
          "type": "address"
        },
        {
          "internalType": "address",
          "name": "fee2Wallet",
          "type": "address"
        }
      ],
      "stateMutability": "view",
      "type": "function"
    },
    {
      "inputs": [
        {
          "internalType": "address",
          "name": "_token1",
          "type": "address"
        },
        {
          "internalType": "uint256",
          "name": "_token1Amount",
          "type": "uint256"
        },
        {
          "internalType": "address",
          "name": "_counterpart",
          "type": "address"
        },
        {
          "internalType": "address",
          "name": "_token2",
          "type": "address"
        },
        {
          "internalType": "uint256",
          "name": "_token2Amount",
          "type": "uint256"
        }
      ],
      "name": "initiateDVDTransfer",
      "outputs": [],
      "stateMutability": "nonpayable",
      "type": "function"
    },
    {
      "inputs": [
        {
          "internalType": "address",
          "name": "_token",
          "type": "address"
        }
      ],
      "name": "isTREX",
      "outputs": [
        {
          "internalType": "bool",
          "name": "",
          "type": "bool"
        }
      ],
      "stateMutability": "view",
      "type": "function"
    },
    {
      "inputs": [
        {
          "internalType": "address",
          "name": "_token",
          "type": "address"
        },
        {
          "internalType": "address",
          "name": "_user",
          "type": "address"
        }
      ],
      "name": "isTREXAgent",
      "outputs": [
        {
          "internalType": "bool",
          "name": "",
          "type": "bool"
        }
      ],
      "stateMutability": "view",
      "type": "function"
    },
    {
      "inputs": [
        {
          "internalType": "address",
          "name": "_token",
          "type": "address"
        },
        {
          "internalType": "address",
          "name": "_user",
          "type": "address"
        }
      ],
      "name": "isTREXOwner",
      "outputs": [
        {
          "internalType": "bool",
          "name": "",
          "type": "bool"
        }
      ],
      "stateMutability": "view",
      "type": "function"
    },
    {
      "inputs": [
        {
          "internalType": "address",
          "name": "_token1",
          "type": "address"
        },
        {
          "internalType": "address",
          "name": "_token2",
          "type": "address"
        },
        {
          "internalType": "uint256",
          "name": "_fee1",
          "type": "uint256"
        },
        {
          "internalType": "uint256",
          "name": "_fee2",
          "type": "uint256"
        },
        {
          "internalType": "uint256",
          "name": "_feeBase",
          "type": "uint256"
        },
        {
          "internalType": "address",
          "name": "_fee1Wallet",
          "type": "address"
        },
        {
          "internalType": "address",
          "name": "_fee2Wallet",
          "type": "address"
        }
      ],
      "name": "modifyFee",
      "outputs": [],
      "stateMutability": "nonpayable",
      "type": "function"
    },
    {
      "inputs": [],
      "name": "owner",
      "outputs": [
        {
          "internalType": "address",
          "name": "",
          "type": "address"
        }
      ],
      "stateMutability": "view",
      "type": "function"
    },
    {
      "inputs": [],
      "name": "renounceOwnership",
      "outputs": [],
      "stateMutability": "nonpayable",
      "type": "function"
    },
    {
      "inputs": [
        {
          "internalType": "bytes32",
          "name": "_transferID",
          "type": "bytes32"
        }
      ],
      "name": "takeDVDTransfer",
      "outputs": [],
      "stateMutability": "nonpayable",
      "type": "function"
    },
    {
      "inputs": [
        {
          "internalType": "bytes32",
          "name": "",
          "type": "bytes32"
        }
      ],
      "name": "token1ToDeliver",
      "outputs": [
        {
          "internalType": "address",
          "name": "counterpart",
          "type": "address"
        },
        {
          "internalType": "address",
          "name": "token",
          "type": "address"
        },
        {
          "internalType": "uint256",
          "name": "amount",
          "type": "uint256"
        }
      ],
      "stateMutability": "view",
      "type": "function"
    },
    {
      "inputs": [
        {
          "internalType": "bytes32",
          "name": "",
          "type": "bytes32"
        }
      ],
      "name": "token2ToDeliver",
      "outputs": [
        {
          "internalType": "address",
          "name": "counterpart",
          "type": "address"
        },
        {
          "internalType": "address",
          "name": "token",
          "type": "address"
        },
        {
          "internalType": "uint256",
          "name": "amount",
          "type": "uint256"
        }
      ],
      "stateMutability": "view",
      "type": "function"
    },
    {
      "inputs": [
        {
          "internalType": "address",
          "name": "newOwner",
          "type": "address"
        }
      ],
      "name": "transferOwnership",
      "outputs": [],
      "stateMutability": "nonpayable",
      "type": "function"
    },
    {
      "inputs": [],
      "name": "txNonce",
      "outputs": [
        {
          "internalType": "uint256",
          "name": "",
          "type": "uint256"
        }
      ],
      "stateMutability": "view",
      "type": "function"
    }
  ],
  "bytecode": "0x608080604052346100605760008054336001600160a01b0319821681178355916001600160a01b03909116907f8be0079c531659141344cd1fd0a4f28419497f9722a3daafe3b4186f6b6457e09080a36000600455611cb790816100668239f35b600080fdfe608080604052600436101561001357600080fd5b60003560e01c9081630f7f68111461151d57508063158db45014610f3d5780632337925114610f1157806327cdab0614610eb0578063344ae65914610e845780634dc55ea314610e275780634f84686414610dd75780636e4d26e414610a21578063715018a6146109c857806377722075146109705780638da5cb5b14610947578063afc991411461091b578063c66323e5146108fd578063e722e6031461039a578063eb08e2611461036d578063f2fde38b146102a95763ff4ca375146100da57600080fd5b346102a4576020806003193601126102a45760043580600052600280835260406000206040519061010a8261161f565b60018060a01b03808254168352838160018401541692878501938452015460408401528460005260038652604060002091816040516101488161161f565b61017b828654168083528884600189015416978c850198895201546040840152838851161515908161029a575b50611791565b5116331493841561028d575b50831561027e575b8315610267575b508215610252575b5050156101f9576003829360009384528281528383604082208281558260018201550155526040822082815582600182015501557fb34dd23f375e48f42dfe5fbb1f8945e706c80dbfaec32c6e978fcf70091306c9600080a2005b60405162461bcd60e51b815260048101849052602b60248201527f796f7520617265206e6f7420616c6c6f77656420746f2063616e63656c20746860448201526a34b9903a3930b739b332b960a91b6064820152608490fd5b61026092503391511661188d565b388061019e565b816102779294503391511661188d565b9138610196565b9250806000541633149261018f565b5182163314935038610187565b9050151538610175565b600080fd5b346102a45760203660031901126102a4576102c261156f565b6102ca6115c7565b6001600160a01b0390811690811561031957600054826001600160601b0360a01b821617600055167f8be0079c531659141344cd1fd0a4f28419497f9722a3daafe3b4186f6b6457e0600080a3005b60405162461bcd60e51b815260206004820152602660248201527f4f776e61626c653a206e6577206f776e657220697320746865207a65726f206160448201526564647265737360d01b6064820152608490fd5b346102a45760203660031901126102a457602061039061038b61156f565b611802565b6040519015158152f35b346102a45760e03660031901126102a4576103b361156f565b6103bb611585565b6103c36115b1565b9160c4356001600160a01b03811690036102a4576000546001600160a01b0316331480156108ed575b80156108dd575b15610898576040516318160ddd60e01b808252906020816004816001600160a01b0387165afa90811561085a57600091610866575b501515806107f3575b61043b915061168f565b6104466084356116ed565b6044351115806107eb575b806107d5575b806107cd575b806107c0575b806107b3575b1561077757604435610718575b6064356106b7575b816104aa7f2a53ccababe5ceadaebcbb25eb002de52dd1042821dee5cd6dd890c0651c535f9383611bec565b6104b26116fb565b60443581526064356020820152608435604082015260018060a01b038616606082015260018060a01b0360c4351660808201528160005260016020526004604060002082518155602083015160018201556040830151600282015560018060a01b036060840151166001600160601b0360a01b6003830154161760038201550190608060018060a01b03910151166001600160601b0360a01b82541617905583604051806105aa60c435896084356064356044358a8c88959091939460c0959897939860e088019960018060a01b038097818097168b521660208a01526040890152606088015260808701521660a085015216910152565b0390a26106b26105ba8383611bec565b946105c36116fb565b6064358152600460208201916044358352604081016084358152606082019060018060a01b0360c435168252608083019460018060a01b03871686528b6000526001602052604060002093518455516001840155516002830155600382019060018060a01b039051166001600160601b0360a01b825416179055019060018060a01b039051166001600160601b0360a01b82541617905560405193849360c4359160843591604435916064359188959091939460c0959897939860e088019960018060a01b038097818097168b521660208a01526040890152606088015260808701521660a085015216910152565b0390a2005b60c4356001600160a01b031661047e5760405162461bcd60e51b815260206004820152602360248201527f6665652077616c6c657420322063616e6e6f74206265207a65726f206164647260448201526265737360e81b6064820152608490fd5b6001600160a01b0383166104765760405162461bcd60e51b815260206004820152602360248201527f6665652077616c6c657420312063616e6e6f74206265207a65726f206164647260448201526265737360e81b6064820152608490fd5b60405162461bcd60e51b8152602060048201526014602482015273696e76616c6964206665652073657474696e677360601b6044820152606490fd5b5060026084351015610469565b5060056084351115610463565b50600161045d565b506107e16084356116ed565b6064351115610457565b506001610451565b506040519081526020816004816001600160a01b0387165afa801561085a57600090610826575b61043b91501515610431565b506020813d602011610852575b816108406020938361166d565b810103126102a45761043b905161081a565b3d9150610833565b6040513d6000823e3d90fd5b90506020813d602011610890575b816108816020938361166d565b810103126102a4575185610428565b3d9150610874565b60405162461bcd60e51b815260206004820152601c60248201527f4f776e61626c653a206f6e6c79206f776e65722063616e2063616c6c000000006044820152606490fd5b506108e833836118f9565b6103f3565b506108f833826118f9565b6103ec565b346102a45760003660031901126102a4576020600454604051908152f35b346102a45760403660031901126102a457602061039061093961156f565b610941611585565b906118f9565b346102a45760003660031901126102a4576000546040516001600160a01b039091168152602090f35b346102a45760203660031901126102a45760043560009081526002602081815260409283902080546001820154919093015484516001600160a01b039485168152939091169183019190915291810191909152606090f35b346102a45760003660031901126102a4576109e16115c7565b600080546001600160a01b0319811682556001600160a01b03167f8be0079c531659141344cd1fd0a4f28419497f9722a3daafe3b4186f6b6457e08280a3005b346102a45760a03660031901126102a457610a3a61156f565b610a4261159b565b6064356001600160a01b03811692908390036102a4576040516370a0823160e01b8152336004820152916001600160a01b039190911690602083602481855afa92831561085a57600093610da3575b50610aa160243580941015611726565b604051636eb1769f60e11b8152336004820152306024820152602081604481865afa801561085a578491600091610d6e575b5010610d17576001600160a01b03168015610cd2576040516318160ddd60e01b815290602082600481885afa91821561085a57600092610c9c575b50610b98608091610b417f1eff5dd2c180a5889d45725b98546e9d8c28331caac1c279a0fdc3fe18eb29e594151561168f565b610b49611772565b95338752602087019586526040870152610b61611772565b96818852806020890152608435918260408a015260045460018060a01b0389511660018060a01b038951169060408b015192611c1d565b92836000526002602052604060002060018060a01b038651166001600160601b0360a01b8254161781556001810160018060a01b038351166001600160601b0360a01b8254161790556002604087015191015560036020526002604060002060018060a01b0388511690816001600160601b0360a01b8254161781556040600182019960018060a01b036020820151169a8b6001600160601b0360a01b82541617905501519283910155604060018060a01b038851169360018060a01b03905116970151604051938452602084015260408301526060820152a46004546000198114610c8657600101600455005b634e487b7160e01b600052601160045260246000fd5b91506020823d602011610cca575b81610cb76020938361166d565b810103126102a457905190610b98610b0e565b3d9150610caa565b60405162461bcd60e51b815260206004820152601a60248201527f636f756e746572706172742063616e6e6f74206265206e756c6c0000000000006044820152606490fd5b60405162461bcd60e51b815260206004820152602960248201527f6e6f7420656e6f75676820616c6c6f77616e636520746f20696e697469617465604482015268103a3930b739b332b960b91b6064820152608490fd5b9150506020813d602011610d9b575b81610d8a6020938361166d565b810103126102a45783905186610ad3565b3d9150610d7d565b9092506020813d602011610dcf575b81610dbf6020938361166d565b810103126102a457519184610a91565b3d9150610db2565b346102a45760203660031901126102a4576080610df56004356119f1565b604051908051825260208101516020830152606060018060a01b03918260408201511660408501520151166060820152f35b346102a45760e03660031901126102a457610e40611585565b610e4861159b565b608435906001600160a01b03821682036102a457602092610e7c92610e6b6115b1565b9160c4359360643591600435611c1d565b604051908152f35b346102a45760403660031901126102a4576020610e7c610ea261156f565b610eaa611585565b90611bec565b346102a45760203660031901126102a457600435600052600160205260a060406000208054906001810154906002810154600180861b0360048160038501541693015416926040519485526020850152604084015260608301526080820152f35b346102a45760403660031901126102a4576020610390610f2f61156f565b610f37611585565b9061188d565b346102a4576020806003193601126102a4576004359081600052600280825260406000209160405192610f6f8461161f565b80546001600160a01b03908116855260018201548116838601908152918401546040808701918252600088815260038652819020905190939291610fb28261161f565b828086541694858452610fe9898360018a015416988a8701998a5201549660408601978852838c5116151590816115135750611791565b51168386511695848451163314908115611501575b81156114ec575b50156114885782516040516370a0823160e01b8152908516600482015287816024818a5afa801561085a57600090611459575b611046915086511115611726565b8251604051636eb1769f60e11b81529085166001600160a01b0316600482015230602482015287816044818a5afa90811561085a5760009161142c575b508551116113e957866110958b6119f1565b92835180611303575b5083511561128f575b5089915082019182519088826111a1575b505050505115611118575b876000876003888484528281528383604082208281558260018201550155526040822082815582600182015501557f094682e7da443a5bb6ea2c900d20d36aaff04228fe22fc6dd65a58a37695be8b600080a2005b51955191516040516323b872dd60e01b81529682166001600160a01b0390811660048901529190921616602486015260448501528190849060649082906000905af190811561085a57600093600392611174575b8192816110c3565b61119390823d841161119a575b61118b818361166d565b8101906117ea565b508561116c565b503d611181565b6111f0926111b88880895116965116918a516117dd565b6040516323b872dd60e01b8082526001600160a01b039788166004830152969092166024830152604482015292839081906064820190565b038160008c5af191821561085a578992611272575b5084516060919091015184516040519485529187166001600160a01b03908116600486015290871616602484015260448301528160648160008a5af1801561085a57611255575b808991886110b8565b61126b90873d891161119a5761118b818361166d565b508961124c565b61128890833d851161119a5761118b818361166d565b508c611205565b8a51855191516040516323b872dd60e01b81526001600160a01b03928916831660048201529288169190911660248301526044820152918290816000816064810103925af1801561085a576112e6575b86816110a7565b6112fc90873d891161119a5761118b818361166d565b50896112df565b9161135490878d51169361131c898951169185516117dd565b6040516323b872dd60e01b8082526001600160a01b039788166004830152969092166024830152604482015291829081906064820190565b03816000885af1801561085a576113cc575b508a51604085810151865191519485526001600160a01b039289168316600486015288169091166024840152604483015288826064816000875af191821561085a5789921561109e576113c590833d851161119a5761118b818361166d565b508c61109e565b6113e2908a3d8c1161119a5761118b818361166d565b508c611366565b6064876040519062461bcd60e51b825280600483015260248201527f6e6f7420656e6f75676820616c6c6f77616e636520746f207472616e736665726044820152fd5b90508781813d8311611452575b611443818361166d565b810103126102a457518b611083565b503d611439565b508781813d8311611481575b61146f818361166d565b810103126102a4576110469051611038565b503d611465565b60405162461bcd60e51b815260048101889052603660248201527f7472616e736665722068617320746f20626520646f6e6520627920746865206360448201527537bab73a32b93830b93a1037b910313c9037bbb732b960511b6064820152608490fd5b6114fb9150853391511661188d565b8b611005565b905061150d338361188d565b90610ffe565b905015158d610175565b346102a45760203660031901126102a457600435600090815260036020908152604091829020805460018201546002909201546001600160a01b03918216865291169184019190915290820152606090f35b600435906001600160a01b03821682036102a457565b602435906001600160a01b03821682036102a457565b604435906001600160a01b03821682036102a457565b60a435906001600160a01b03821682036102a457565b6000546001600160a01b031633036115db57565b606460405162461bcd60e51b815260206004820152602060248201527f4f776e61626c653a2063616c6c6572206973206e6f7420746865206f776e65726044820152fd5b6060810190811067ffffffffffffffff82111761163b57604052565b634e487b7160e01b600052604160045260246000fd5b60a0810190811067ffffffffffffffff82111761163b57604052565b90601f8019910116810190811067ffffffffffffffff82111761163b57604052565b1561169657565b60405162461bcd60e51b815260206004820152602960248201527f696e76616c69642061646472657373203a2061646472657373206973206e6f74604482015268020616e2045524332360bc1b6064820152608490fd5b604d8111610c8657600a0a90565b6040519061170882611651565b60006080838281528260208201528260408201528260608201520152565b1561172d57565b60405162461bcd60e51b815260206004820152601c60248201527f4e6f7420656e6f75676820746f6b656e7320696e2062616c616e6365000000006044820152606490fd5b6040519061177f8261161f565b60006040838281528260208201520152565b1561179857565b60405162461bcd60e51b815260206004820152601a60248201527f7472616e7366657220494420646f6573206e6f742065786973740000000000006044820152606490fd5b91908203918211610c8657565b908160209103126102a4575180151581036102a45790565b6040516304d3863d60e21b81526001600160a01b03916020908290600490829086165afa809160009161184c575b509061183d575050600090565b1661184757600090565b600190565b6020813d8211611885575b816118646020938361166d565b81010312611881575190838216820361187e575038611830565b80fd5b5080fd5b3d9150611857565b61189681611802565b6118a1575050600090565b6040516307feec1960e21b81526001600160a01b0392831660048201529160209183916024918391165afa90811561085a576000916118de575090565b6118f6915060203d811161119a5761118b818361166d565b90565b61190281611802565b61190d575050600090565b604051638da5cb5b60e01b8152916001600160a01b03916020908490600490829086165afa92831561085a5760009361194a575b50811691161490565b6020939193813d8211611980575b816119656020938361166d565b81010312611881575190828216820361187e57509181611941565b3d9150611958565b604051906080820182811067ffffffffffffffff82111761163b5760405260006060838281528260208201528260408201520152565b81810292918115918404141715610c8657565b81156119db570490565b634e487b7160e01b600052601260045260246000fd5b6119f9611988565b50611a02611988565b9060009080825260209160028352604090818120825194611a228661161f565b611aa460018060a01b039687808581809754168452600282600183015416918786019283520154998985019a8b52885260038652611a998989208a51988996611a6a8861161f565b8c60028385541694858b528c856001830154169b019a8b5201549b019a8b5251161515908161029a5750611791565b511691511690611bec565b83526001815283832092845190611aba82611651565b845496878352600186015492848101918483526002880154948983019586528b60048160038c0154169a606086019b8c520154169a608084019b8c521590811591611be2575b5015611bc357519051611b12916119be565b8351600119929190838101908111611baf57611b3e611b589392611b38611b4e936116ed565b906119be565b611b4887516116ed565b906119d1565b96519051906119be565b918351918201918211611b9b575091611b48611b7e611b8593611b388c999897966116ed565b91516116ed565b9188528701525116908401525116606082015290565b634e487b7160e01b81526011600452602490fd5b634e487b7160e01b85526011600452602485fd5b5050509650509050848094508092508652850152830152606082015290565b9050151538611b00565b604080516001600160a01b039283166020820190815293909216828201528152611c1760608261166d565b51902090565b959394919294604051956020870197885260018060a01b0380958180951660408a015216606088015260808701521660a08501521660c083015260e082015260e08152610100810181811067ffffffffffffffff82111761163b576040525190209056fea26469706673582212205e4d71e0f8a86e8a463eccdfb2afde00a0508a6a018b11f967585d2d8e750db164736f6c63430008110033",
  "linkReferences": {},
  "deployedLinkReferences": {}
}