{
  "_format": "hh-sol-artifact-1",
  "contractName": "Marketplace",
  "sourceName": "contracts/Marketplace.sol",
  "abi": [
    {
      "inputs": [
        {
          "internalType": "uint256",
          "name": "_listingFee",
          "type": "uint256"
        },
        {
          "internalType": "address",
          "name": "_identityRegistry",
          "type": "address"
        }
      ],
      "stateMutability": "nonpayable",
      "type": "constructor"
    },
    {
      "anonymous": false,
      "inputs": [
        {
          "indexed": true,
          "internalType": "address",
          "name": "_identityRegistry",
          "type": "address"
        }
      ],
      "name": "IdentityRegistryAdded",
      "type": "event"
    },
    {
      "anonymous": false,
      "inputs": [
        {
          "indexed": true,
          "internalType": "uint256",
          "name": "itemId",
          "type": "uint256"
        },
        {
          "indexed": true,
          "internalType": "address",
          "name": "nftContract",
          "type": "address"
        },
        {
          "indexed": true,
          "internalType": "uint256",
          "name": "tokenId",
          "type": "uint256"
        },
        {
          "indexed": false,
          "internalType": "address",
          "name": "seller",
          "type": "address"
        }
      ],
      "name": "MarketItemCreated",
      "type": "event"
    },
    {
      "anonymous": false,
      "inputs": [
        {
          "indexed": true,
          "internalType": "address",
          "name": "previousOwner",
          "type": "address"
        },
        {
          "indexed": true,
          "internalType": "address",
          "name": "newOwner",
          "type": "address"
        }
      ],
      "name": "OwnershipTransferred",
      "type": "event"
    },
    {
      "inputs": [],
      "name": "fetchMarketItems",
      "outputs": [
        {
          "components": [
            {
              "internalType": "uint256",
              "name": "itemId",
              "type": "uint256"
            },
            {
              "internalType": "address",
              "name": "nftContract",
              "type": "address"
            },
            {
              "internalType": "uint256",
              "name": "tokenId",
              "type": "uint256"
            },
            {
              "internalType": "address payable",
              "name": "owner",
              "type": "address"
            }
          ],
          "internalType": "struct Marketplace.MarketItem[]",
          "name": "",
          "type": "tuple[]"
        }
      ],
      "stateMutability": "view",
      "type": "function"
    },
    {
      "inputs": [],
      "name": "listingFee",
      "outputs": [
        {
          "internalType": "uint256",
          "name": "",
          "type": "uint256"
        }
      ],
      "stateMutability": "view",
      "type": "function"
    },
    {
      "inputs": [
        {
          "internalType": "address",
          "name": "nftContract",
          "type": "address"
        },
        {
          "internalType": "uint256",
          "name": "tokenId",
          "type": "uint256"
        }
      ],
      "name": "lockNFTInMarketPlace",
      "outputs": [],
      "stateMutability": "nonpayable",
      "type": "function"
    },
    {
      "inputs": [],
      "name": "marketBeneficiary",
      "outputs": [
        {
          "internalType": "address",
          "name": "",
          "type": "address"
        }
      ],
      "stateMutability": "view",
      "type": "function"
    },
    {
      "inputs": [
        {
          "internalType": "address",
          "name": "",
          "type": "address"
        },
        {
          "internalType": "address",
          "name": "",
          "type": "address"
        },
        {
          "internalType": "uint256",
          "name": "",
          "type": "uint256"
        },
        {
          "internalType": "bytes",
          "name": "",
          "type": "bytes"
        }
      ],
      "name": "onERC721Received",
      "outputs": [
        {
          "internalType": "bytes4",
          "name": "",
          "type": "bytes4"
        }
      ],
      "stateMutability": "pure",
      "type": "function"
    },
    {
      "inputs": [],
      "name": "owner",
      "outputs": [
        {
          "internalType": "address",
          "name": "",
          "type": "address"
        }
      ],
      "stateMutability": "view",
      "type": "function"
    },
    {
      "inputs": [],
      "name": "renounceOwnership",
      "outputs": [],
      "stateMutability": "nonpayable",
      "type": "function"
    },
    {
      "inputs": [
        {
          "internalType": "uint256",
          "name": "_fee",
          "type": "uint256"
        }
      ],
      "name": "setListingFee",
      "outputs": [],
      "stateMutability": "nonpayable",
      "type": "function"
    },
    {
      "inputs": [
        {
          "internalType": "bytes4",
          "name": "interfaceId",
          "type": "bytes4"
        }
      ],
      "name": "supportsInterface",
      "outputs": [
        {
          "internalType": "bool",
          "name": "",
          "type": "bool"
        }
      ],
      "stateMutability": "view",
      "type": "function"
    },
    {
      "inputs": [
        {
          "internalType": "address",
          "name": "newOwner",
          "type": "address"
        }
      ],
      "name": "transferOwnership",
      "outputs": [],
      "stateMutability": "nonpayable",
      "type": "function"
    }
  ],
  "bytecode": "0x60803461013157601f610a0838819003918201601f19168301916001600160401b038311848410176101365780849260409485528339810103126101315780516020909101516001600160a01b0380821692918390036101315760009283549160018060a01b03199233848216178655604051913391167f8be0079c531659141344cd1fd0a4f28419497f9722a3daafe3b4186f6b6457e08780a36001805581156100ef5750808260055416176005557fd2be862d755bca7e0d39772b2cab3a5578da9c285f69199f4c063c2294a7f36c6040519480a2339060045416176004556003556108bb908161014d8239f35b62461bcd60e51b815260206004820152601f60248201527f696e76616c696420617267756d656e74202d207a65726f2061646472657373006044820152606490fd5b600080fd5b634e487b7160e01b600052604160045260246000fdfe6080604081815260048036101561001557600080fd5b600092833560e01c90816301ffc9a714610728575080630f08efe0146105c0578063131dbd091461059e578063150b7a02146104ed5780636a1b7ecc146104ce578063715018a6146104715780638da5cb5b14610445578063c48420011461041e578063e6d79e98146101605763f2fde38b1461009157600080fd5b3461015c57602036600319011261015c576100aa61077c565b906100b36107eb565b6001600160a01b0391821692831561010a575050600054826bffffffffffffffffffffffff60a01b821617600055167f8be0079c531659141344cd1fd0a4f28419497f9722a3daafe3b4186f6b6457e0600080a380f35b906020608492519162461bcd60e51b8352820152602660248201527f4f776e61626c653a206e6577206f776e657220697320746865207a65726f206160448201526564647265737360d01b6064820152fd5b8280fd5b50903461015c578060031936011261015c5761017a61077c565b9060249081359260019460028654146103dc57600286556001600160a01b0391821693841561038a5783516331a9108f60e11b815282810187905260209390848184818a5afa908115610380578a91610346575b50813391160361031357908886836003878b8a98978e6002549c8d98828a0160025560068251966101fe88610797565b8b88528088019a8b52838801968752606088019b338d5283525220935184558301955116946bffffffffffffffffffffffff60a01b95868254161790555160028201550192511690825416179055853b1561030f578251632142170760e11b81523383820152308282015260448101889052918983606481838b5af18015610305576102b5575b505050907f60c2804bbbcca7c67d5b44b020c9ff41b45a5f333a0ba093f8737ab8206c18239151338152a4805580f35b67ffffffffffffffff839a949a116102f45750508752957f60c2804bbbcca7c67d5b44b020c9ff41b45a5f333a0ba093f8737ab8206c18233880610285565b634e487b7160e01b84526041905282fd5b84513d8c823e3d90fd5b8880fd5b50600f9192606494519362461bcd60e51b85528401528201526e2737ba103a37b5b2b71037bbb732b960891b6044820152fd5b90508481813d8311610379575b61035d81836107c9565b810103126103755751818116810361037557386101ce565b8980fd5b503d610353565b86513d8c823e3d90fd5b906027608492602086519362461bcd60e51b85528401528201527f496e76616c69642061646472657373202d205a65726f20616464726573732072604482015266195c1bdc9d195960ca1b6064820152fd5b606490601f85602086519362461bcd60e51b85528401528201527f5265656e7472616e637947756172643a207265656e7472616e742063616c6c006044820152fd5b503461015c578260031936011261015c575490516001600160a01b03909116815260209150f35b50503461046d578160031936011261046d57905490516001600160a01b039091168152602090f35b5080fd5b83346104cb57806003193601126104cb5761048a6107eb565b80546001600160a01b03198116825581906001600160a01b03167f8be0079c531659141344cd1fd0a4f28419497f9722a3daafe3b4186f6b6457e08280a380f35b80fd5b50503461046d578160031936011261046d576020906003549051908152f35b5091346104cb5760803660031901126104cb5761050861077c565b506024356001600160a01b038116036104cb576064359267ffffffffffffffff9081851161015c573660238601121561015c578481013591821161058b575082519361055e601f8301601f1916602001866107c9565b818552366024838301011161015c57906020948160248794018483013701015251630a85bd0160e11b8152f35b634e487b7160e01b835260419052602482fd5b83823461046d57602036600319011261046d576105b96107eb565b3560035580f35b5082903461046d578160031936011261046d576002908154906105e282610843565b926105ef865194856107c9565b828452601f196105fe84610843565b01855b8181106106fb575050845b83811061067b57505050508251916020808401908085528351809252808686019401925b82811061063d5785850386f35b835180518652808301516001600160a01b03908116878501528882015189880152606091820151169086015260809094019392810192600101610630565b80865260206006815287872090600389519261069684610797565b8054845260018101546001600160a01b0390811693850193909352858101548b85015201541660608201526106cb828761085b565b526106d6818661085b565b5060001981146106e85760010161060c565b634e487b7160e01b865260118352602486fd5b602090885161070981610797565b888152828981830152898b830152896060830152828901015201610601565b9250503461015c57602036600319011261015c573563ffffffff60e01b811680910361015c5760209250630a85bd0160e11b811490811561076b575b5015158152f35b6301ffc9a760e01b14905038610764565b600435906001600160a01b038216820361079257565b600080fd5b6080810190811067ffffffffffffffff8211176107b357604052565b634e487b7160e01b600052604160045260246000fd5b90601f8019910116810190811067ffffffffffffffff8211176107b357604052565b6000546001600160a01b031633036107ff57565b606460405162461bcd60e51b815260206004820152602060248201527f4f776e61626c653a2063616c6c6572206973206e6f7420746865206f776e65726044820152fd5b67ffffffffffffffff81116107b35760051b60200190565b805182101561086f5760209160051b010190565b634e487b7160e01b600052603260045260246000fdfea26469706673582212203bdbe2b84822c58f282729857a590cbe4ff7ee1a661c8ff573edc51681e5f16b64736f6c63430008110033",
  "linkReferences": {},
  "deployedLinkReferences": {}
}