{
  "_format": "hh-sol-artifact-1",
  "contractName": "Token",
  "sourceName": "contracts/token/Token.sol",
  "abi": [
    {
      "anonymous": false,
      "inputs": [
        {
          "indexed": true,
          "internalType": "address",
          "name": "_userAddress",
          "type": "address"
        },
        {
          "indexed": true,
          "internalType": "bool",
          "name": "_isFrozen",
          "type": "bool"
        },
        {
          "indexed": true,
          "internalType": "address",
          "name": "_owner",
          "type": "address"
        }
      ],
      "name": "AddressFrozen",
      "type": "event"
    },
    {
      "anonymous": false,
      "inputs": [
        {
          "indexed": true,
          "internalType": "address",
          "name": "_agent",
          "type": "address"
        }
      ],
      "name": "AgentAdded",
      "type": "event"
    },
    {
      "anonymous": false,
      "inputs": [
        {
          "indexed": true,
          "internalType": "address",
          "name": "_agent",
          "type": "address"
        }
      ],
      "name": "AgentRemoved",
      "type": "event"
    },
    {
      "anonymous": false,
      "inputs": [
        {
          "indexed": true,
          "internalType": "address",
          "name": "owner",
          "type": "address"
        },
        {
          "indexed": true,
          "internalType": "address",
          "name": "spender",
          "type": "address"
        },
        {
          "indexed": false,
          "internalType": "uint256",
          "name": "value",
          "type": "uint256"
        }
      ],
      "name": "Approval",
      "type": "event"
    },
    {
      "anonymous": false,
      "inputs": [
        {
          "indexed": true,
          "internalType": "address",
          "name": "_compliance",
          "type": "address"
        }
      ],
      "name": "ComplianceAdded",
      "type": "event"
    },
    {
      "anonymous": false,
      "inputs": [
        {
          "indexed": true,
          "internalType": "address",
          "name": "_identityRegistry",
          "type": "address"
        }
      ],
      "name": "IdentityRegistryAdded",
      "type": "event"
    },
    {
      "anonymous": false,
      "inputs": [
        {
          "indexed": false,
          "internalType": "uint8",
          "name": "version",
          "type": "uint8"
        }
      ],
      "name": "Initialized",
      "type": "event"
    },
    {
      "anonymous": false,
      "inputs": [
        {
          "indexed": true,
          "internalType": "address",
          "name": "previousOwner",
          "type": "address"
        },
        {
          "indexed": true,
          "internalType": "address",
          "name": "newOwner",
          "type": "address"
        }
      ],
      "name": "OwnershipTransferred",
      "type": "event"
    },
    {
      "anonymous": false,
      "inputs": [
        {
          "indexed": false,
          "internalType": "address",
          "name": "_userAddress",
          "type": "address"
        }
      ],
      "name": "Paused",
      "type": "event"
    },
    {
      "anonymous": false,
      "inputs": [
        {
          "indexed": true,
          "internalType": "address",
          "name": "_lostWallet",
          "type": "address"
        },
        {
          "indexed": true,
          "internalType": "address",
          "name": "_newWallet",
          "type": "address"
        },
        {
          "indexed": true,
          "internalType": "address",
          "name": "_investorOnchainID",
          "type": "address"
        }
      ],
      "name": "RecoverySuccess",
      "type": "event"
    },
    {
      "anonymous": false,
      "inputs": [
        {
          "indexed": true,
          "internalType": "address",
          "name": "_userAddress",
          "type": "address"
        },
        {
          "indexed": false,
          "internalType": "uint256",
          "name": "_amount",
          "type": "uint256"
        }
      ],
      "name": "TokensFrozen",
      "type": "event"
    },
    {
      "anonymous": false,
      "inputs": [
        {
          "indexed": true,
          "internalType": "address",
          "name": "_userAddress",
          "type": "address"
        },
        {
          "indexed": false,
          "internalType": "uint256",
          "name": "_amount",
          "type": "uint256"
        }
      ],
      "name": "TokensUnfrozen",
      "type": "event"
    },
    {
      "anonymous": false,
      "inputs": [
        {
          "indexed": true,
          "internalType": "address",
          "name": "from",
          "type": "address"
        },
        {
          "indexed": true,
          "internalType": "address",
          "name": "to",
          "type": "address"
        },
        {
          "indexed": false,
          "internalType": "uint256",
          "name": "value",
          "type": "uint256"
        }
      ],
      "name": "Transfer",
      "type": "event"
    },
    {
      "anonymous": false,
      "inputs": [
        {
          "indexed": false,
          "internalType": "address",
          "name": "_userAddress",
          "type": "address"
        }
      ],
      "name": "Unpaused",
      "type": "event"
    },
    {
      "anonymous": false,
      "inputs": [
        {
          "indexed": true,
          "internalType": "string",
          "name": "_newName",
          "type": "string"
        },
        {
          "indexed": true,
          "internalType": "string",
          "name": "_newSymbol",
          "type": "string"
        },
        {
          "indexed": false,
          "internalType": "uint8",
          "name": "_newDecimals",
          "type": "uint8"
        },
        {
          "indexed": false,
          "internalType": "string",
          "name": "_newVersion",
          "type": "string"
        },
        {
          "indexed": true,
          "internalType": "address",
          "name": "_newOnchainID",
          "type": "address"
        }
      ],
      "name": "UpdatedTokenInformation",
      "type": "event"
    },
    {
      "inputs": [
        {
          "internalType": "address",
          "name": "_agent",
          "type": "address"
        }
      ],
      "name": "addAgent",
      "outputs": [],
      "stateMutability": "nonpayable",
      "type": "function"
    },
    {
      "inputs": [
        {
          "internalType": "address",
          "name": "_owner",
          "type": "address"
        },
        {
          "internalType": "address",
          "name": "_spender",
          "type": "address"
        }
      ],
      "name": "allowance",
      "outputs": [
        {
          "internalType": "uint256",
          "name": "",
          "type": "uint256"
        }
      ],
      "stateMutability": "view",
      "type": "function"
    },
    {
      "inputs": [
        {
          "internalType": "address",
          "name": "_spender",
          "type": "address"
        },
        {
          "internalType": "uint256",
          "name": "_amount",
          "type": "uint256"
        }
      ],
      "name": "approve",
      "outputs": [
        {
          "internalType": "bool",
          "name": "",
          "type": "bool"
        }
      ],
      "stateMutability": "nonpayable",
      "type": "function"
    },
    {
      "inputs": [
        {
          "internalType": "address",
          "name": "_userAddress",
          "type": "address"
        }
      ],
      "name": "balanceOf",
      "outputs": [
        {
          "internalType": "uint256",
          "name": "",
          "type": "uint256"
        }
      ],
      "stateMutability": "view",
      "type": "function"
    },
    {
      "inputs": [
        {
          "internalType": "address[]",
          "name": "_userAddresses",
          "type": "address[]"
        },
        {
          "internalType": "uint256[]",
          "name": "_amounts",
          "type": "uint256[]"
        }
      ],
      "name": "batchBurn",
      "outputs": [],
      "stateMutability": "nonpayable",
      "type": "function"
    },
    {
      "inputs": [
        {
          "internalType": "address[]",
          "name": "_fromList",
          "type": "address[]"
        },
        {
          "internalType": "address[]",
          "name": "_toList",
          "type": "address[]"
        },
        {
          "internalType": "uint256[]",
          "name": "_amounts",
          "type": "uint256[]"
        }
      ],
      "name": "batchForcedTransfer",
      "outputs": [],
      "stateMutability": "nonpayable",
      "type": "function"
    },
    {
      "inputs": [
        {
          "internalType": "address[]",
          "name": "_userAddresses",
          "type": "address[]"
        },
        {
          "internalType": "uint256[]",
          "name": "_amounts",
          "type": "uint256[]"
        }
      ],
      "name": "batchFreezePartialTokens",
      "outputs": [],
      "stateMutability": "nonpayable",
      "type": "function"
    },
    {
      "inputs": [
        {
          "internalType": "address[]",
          "name": "_toList",
          "type": "address[]"
        },
        {
          "internalType": "uint256[]",
          "name": "_amounts",
          "type": "uint256[]"
        }
      ],
      "name": "batchMint",
      "outputs": [],
      "stateMutability": "nonpayable",
      "type": "function"
    },
    {
      "inputs": [
        {
          "internalType": "address[]",
          "name": "_userAddresses",
          "type": "address[]"
        },
        {
          "internalType": "bool[]",
          "name": "_freeze",
          "type": "bool[]"
        }
      ],
      "name": "batchSetAddressFrozen",
      "outputs": [],
      "stateMutability": "nonpayable",
      "type": "function"
    },
    {
      "inputs": [
        {
          "internalType": "address[]",
          "name": "_toList",
          "type": "address[]"
        },
        {
          "internalType": "uint256[]",
          "name": "_amounts",
          "type": "uint256[]"
        }
      ],
      "name": "batchTransfer",
      "outputs": [],
      "stateMutability": "nonpayable",
      "type": "function"
    },
    {
      "inputs": [
        {
          "internalType": "address[]",
          "name": "_userAddresses",
          "type": "address[]"
        },
        {
          "internalType": "uint256[]",
          "name": "_amounts",
          "type": "uint256[]"
        }
      ],
      "name": "batchUnfreezePartialTokens",
      "outputs": [],
      "stateMutability": "nonpayable",
      "type": "function"
    },
    {
      "inputs": [
        {
          "internalType": "address",
          "name": "_userAddress",
          "type": "address"
        },
        {
          "internalType": "uint256",
          "name": "_amount",
          "type": "uint256"
        }
      ],
      "name": "burn",
      "outputs": [],
      "stateMutability": "nonpayable",
      "type": "function"
    },
    {
      "inputs": [],
      "name": "compliance",
      "outputs": [
        {
          "internalType": "contract IModularCompliance",
          "name": "",
          "type": "address"
        }
      ],
      "stateMutability": "view",
      "type": "function"
    },
    {
      "inputs": [],
      "name": "decimals",
      "outputs": [
        {
          "internalType": "uint8",
          "name": "",
          "type": "uint8"
        }
      ],
      "stateMutability": "view",
      "type": "function"
    },
    {
      "inputs": [
        {
          "internalType": "address",
          "name": "_spender",
          "type": "address"
        },
        {
          "internalType": "uint256",
          "name": "_subtractedValue",
          "type": "uint256"
        }
      ],
      "name": "decreaseAllowance",
      "outputs": [
        {
          "internalType": "bool",
          "name": "",
          "type": "bool"
        }
      ],
      "stateMutability": "nonpayable",
      "type": "function"
    },
    {
      "inputs": [
        {
          "internalType": "address",
          "name": "_from",
          "type": "address"
        },
        {
          "internalType": "address",
          "name": "_to",
          "type": "address"
        },
        {
          "internalType": "uint256",
          "name": "_amount",
          "type": "uint256"
        }
      ],
      "name": "forcedTransfer",
      "outputs": [
        {
          "internalType": "bool",
          "name": "",
          "type": "bool"
        }
      ],
      "stateMutability": "nonpayable",
      "type": "function"
    },
    {
      "inputs": [
        {
          "internalType": "address",
          "name": "_userAddress",
          "type": "address"
        },
        {
          "internalType": "uint256",
          "name": "_amount",
          "type": "uint256"
        }
      ],
      "name": "freezePartialTokens",
      "outputs": [],
      "stateMutability": "nonpayable",
      "type": "function"
    },
    {
      "inputs": [
        {
          "internalType": "address",
          "name": "_userAddress",
          "type": "address"
        }
      ],
      "name": "getFrozenTokens",
      "outputs": [
        {
          "internalType": "uint256",
          "name": "",
          "type": "uint256"
        }
      ],
      "stateMutability": "view",
      "type": "function"
    },
    {
      "inputs": [],
      "name": "identityRegistry",
      "outputs": [
        {
          "internalType": "contract IIdentityRegistry",
          "name": "",
          "type": "address"
        }
      ],
      "stateMutability": "view",
      "type": "function"
    },
    {
      "inputs": [
        {
          "internalType": "address",
          "name": "_spender",
          "type": "address"
        },
        {
          "internalType": "uint256",
          "name": "_addedValue",
          "type": "uint256"
        }
      ],
      "name": "increaseAllowance",
      "outputs": [
        {
          "internalType": "bool",
          "name": "",
          "type": "bool"
        }
      ],
      "stateMutability": "nonpayable",
      "type": "function"
    },
    {
      "inputs": [
        {
          "internalType": "address",
          "name": "_identityRegistry",
          "type": "address"
        },
        {
          "internalType": "address",
          "name": "_compliance",
          "type": "address"
        },
        {
          "internalType": "string",
          "name": "_name",
          "type": "string"
        },
        {
          "internalType": "string",
          "name": "_symbol",
          "type": "string"
        },
        {
          "internalType": "uint8",
          "name": "_decimals",
          "type": "uint8"
        },
        {
          "internalType": "address",
          "name": "_onchainID",
          "type": "address"
        },
        {
          "internalType": "address",
          "name": "_lockContract",
          "type": "address"
        }
      ],
      "name": "init",
      "outputs": [],
      "stateMutability": "nonpayable",
      "type": "function"
    },
    {
      "inputs": [
        {
          "internalType": "address",
          "name": "_agent",
          "type": "address"
        }
      ],
      "name": "isAgent",
      "outputs": [
        {
          "internalType": "bool",
          "name": "",
          "type": "bool"
        }
      ],
      "stateMutability": "view",
      "type": "function"
    },
    {
      "inputs": [
        {
          "internalType": "address",
          "name": "_userAddress",
          "type": "address"
        }
      ],
      "name": "isFrozen",
      "outputs": [
        {
          "internalType": "bool",
          "name": "",
          "type": "bool"
        }
      ],
      "stateMutability": "view",
      "type": "function"
    },
    {
      "inputs": [
        {
          "internalType": "address",
          "name": "_to",
          "type": "address"
        },
        {
          "internalType": "uint256",
          "name": "_amount",
          "type": "uint256"
        }
      ],
      "name": "mint",
      "outputs": [],
      "stateMutability": "nonpayable",
      "type": "function"
    },
    {
      "inputs": [],
      "name": "name",
      "outputs": [
        {
          "internalType": "string",
          "name": "",
          "type": "string"
        }
      ],
      "stateMutability": "view",
      "type": "function"
    },
    {
      "inputs": [],
      "name": "onchainID",
      "outputs": [
        {
          "internalType": "address",
          "name": "",
          "type": "address"
        }
      ],
      "stateMutability": "view",
      "type": "function"
    },
    {
      "inputs": [],
      "name": "owner",
      "outputs": [
        {
          "internalType": "address",
          "name": "",
          "type": "address"
        }
      ],
      "stateMutability": "view",
      "type": "function"
    },
    {
      "inputs": [],
      "name": "pause",
      "outputs": [],
      "stateMutability": "nonpayable",
      "type": "function"
    },
    {
      "inputs": [],
      "name": "paused",
      "outputs": [
        {
          "internalType": "bool",
          "name": "",
          "type": "bool"
        }
      ],
      "stateMutability": "view",
      "type": "function"
    },
    {
      "inputs": [
        {
          "internalType": "address",
          "name": "_lostWallet",
          "type": "address"
        },
        {
          "internalType": "address",
          "name": "_newWallet",
          "type": "address"
        },
        {
          "internalType": "address",
          "name": "_investorOnchainID",
          "type": "address"
        }
      ],
      "name": "recoveryAddress",
      "outputs": [
        {
          "internalType": "bool",
          "name": "",
          "type": "bool"
        }
      ],
      "stateMutability": "nonpayable",
      "type": "function"
    },
    {
      "inputs": [
        {
          "internalType": "address",
          "name": "_agent",
          "type": "address"
        }
      ],
      "name": "removeAgent",
      "outputs": [],
      "stateMutability": "nonpayable",
      "type": "function"
    },
    {
      "inputs": [],
      "name": "renounceOwnership",
      "outputs": [],
      "stateMutability": "nonpayable",
      "type": "function"
    },
    {
      "inputs": [
        {
          "internalType": "address",
          "name": "_userAddress",
          "type": "address"
        },
        {
          "internalType": "bool",
          "name": "_freeze",
          "type": "bool"
        }
      ],
      "name": "setAddressFrozen",
      "outputs": [],
      "stateMutability": "nonpayable",
      "type": "function"
    },
    {
      "inputs": [
        {
          "internalType": "address",
          "name": "_compliance",
          "type": "address"
        }
      ],
      "name": "setCompliance",
      "outputs": [],
      "stateMutability": "nonpayable",
      "type": "function"
    },
    {
      "inputs": [
        {
          "internalType": "address",
          "name": "_identityRegistry",
          "type": "address"
        }
      ],
      "name": "setIdentityRegistry",
      "outputs": [],
      "stateMutability": "nonpayable",
      "type": "function"
    },
    {
      "inputs": [
        {
          "internalType": "string",
          "name": "_name",
          "type": "string"
        }
      ],
      "name": "setName",
      "outputs": [],
      "stateMutability": "nonpayable",
      "type": "function"
    },
    {
      "inputs": [
        {
          "internalType": "address",
          "name": "_onchainID",
          "type": "address"
        }
      ],
      "name": "setOnchainID",
      "outputs": [],
      "stateMutability": "nonpayable",
      "type": "function"
    },
    {
      "inputs": [
        {
          "internalType": "string",
          "name": "_symbol",
          "type": "string"
        }
      ],
      "name": "setSymbol",
      "outputs": [],
      "stateMutability": "nonpayable",
      "type": "function"
    },
    {
      "inputs": [
        {
          "internalType": "address",
          "name": "_to",
          "type": "address"
        }
      ],
      "name": "setWhitelist",
      "outputs": [],
      "stateMutability": "nonpayable",
      "type": "function"
    },
    {
      "inputs": [],
      "name": "symbol",
      "outputs": [
        {
          "internalType": "string",
          "name": "",
          "type": "string"
        }
      ],
      "stateMutability": "view",
      "type": "function"
    },
    {
      "inputs": [],
      "name": "totalSupply",
      "outputs": [
        {
          "internalType": "uint256",
          "name": "",
          "type": "uint256"
        }
      ],
      "stateMutability": "view",
      "type": "function"
    },
    {
      "inputs": [
        {
          "internalType": "address",
          "name": "_to",
          "type": "address"
        },
        {
          "internalType": "uint256",
          "name": "_amount",
          "type": "uint256"
        }
      ],
      "name": "transfer",
      "outputs": [
        {
          "internalType": "bool",
          "name": "",
          "type": "bool"
        }
      ],
      "stateMutability": "nonpayable",
      "type": "function"
    },
    {
      "inputs": [
        {
          "internalType": "address",
          "name": "_from",
          "type": "address"
        },
        {
          "internalType": "address",
          "name": "_to",
          "type": "address"
        },
        {
          "internalType": "uint256",
          "name": "_amount",
          "type": "uint256"
        }
      ],
      "name": "transferFrom",
      "outputs": [
        {
          "internalType": "bool",
          "name": "",
          "type": "bool"
        }
      ],
      "stateMutability": "nonpayable",
      "type": "function"
    },
    {
      "inputs": [
        {
          "internalType": "address",
          "name": "newOwner",
          "type": "address"
        }
      ],
      "name": "transferOwnership",
      "outputs": [],
      "stateMutability": "nonpayable",
      "type": "function"
    },
    {
      "inputs": [
        {
          "internalType": "address",
          "name": "_userAddress",
          "type": "address"
        },
        {
          "internalType": "uint256",
          "name": "_amount",
          "type": "uint256"
        }
      ],
      "name": "unfreezePartialTokens",
      "outputs": [],
      "stateMutability": "nonpayable",
      "type": "function"
    },
    {
      "inputs": [],
      "name": "unpause",
      "outputs": [],
      "stateMutability": "nonpayable",
      "type": "function"
    },
    {
      "inputs": [],
      "name": "version",
      "outputs": [
        {
          "internalType": "string",
          "name": "",
          "type": "string"
        }
      ],
      "stateMutability": "pure",
      "type": "function"
    },
    {
      "inputs": [],
      "name": "whitelistedLockContract",
      "outputs": [
        {
          "internalType": "address",
          "name": "",
          "type": "address"
        }
      ],
      "stateMutability": "view",
      "type": "function"
    }
  ],
  "bytecode": "0x608080604052346100205760ff19606e5416606e55613c6b90816100268239f35b600080fdfe608080604052600436101561001357600080fd5b600090813560e01c90816306fdde03146126af57508063095ea7b314612688578063125c4a33146125b4578063134e18f414612587578063158b1a571461254e57806318160ddd146125305780631a7af3791461247f5780631fe56f7d146123975780631ffbb0641461237357806323b872dd1461234a578063313ce5671461232957806339509351146122e05780633d1ddc5b1461223b5780633f4ba83a146121a257806340c10f1914611f3657806342a47abc14611e7e5780634710362d14611d865780634a6cc67714611b535780634d144dd31461147b57806354fd4d501461145f5780635c975abb1461143c5780636290865d14611413578063685731071461113c57806370a0823114611103578063715018a6146110a55780638456cb591461104157806384e7984214610f6e578063854cff2f14610ee857806388d695b214610e895780638da5cb5b14610e605780639285948a14610e0d57806395d89b4114610d3657806397a6278e14610c5b5780639a75f74414610c325780639dc29fac14610a345780639fc1d0e714610a0e578063a457c2d7146109b2578063a9059cbb14610971578063aba6370514610944578063b84c82461461083b578063c47f002714610687578063c69c09cf146105fb578063cbf3f86114610588578063dd62ed3e14610539578063e5839836146104fa578063f2fde38b14610469578063f8981789146103505763fc7e5fa81461023157600080fd5b3461034d5761023f366127db565b929091845b81811061024f578580f35b61026261025d828486612eb7565b612edd565b61026d828787612eb7565b359061028061027b33612a4b565b612e06565b60018060a01b031690818852602090606682526040892054606d908184526102ac8360408d2054612dae565b1161030a57918184936102ee7fa065e63c631c86f1b9f66a4a2f63f2093bf1c2168d23290259dbd969e0222a459460408e6103059a9981528487522054612dae565b90858d52835260408c2055604051908152a2612ea8565b610244565b6064836040519062461bcd60e51b825280600483015260248201527f416d6f756e74206578636565647320617661696c61626c652062616c616e63656044820152fd5b80fd5b503461034d57602036600319011261034d5761036a61277f565b61037261295e565b606f546001600160a01b0391908390831680610421575b505016818181606f54826001600160601b0360a01b821617606f551617803b1561041257818091602460405180948193631ffad50160e11b83523060048401525af18015610416576103fe575b50807f7f3a888862559648ec01d97deb7b5012bff86dc91e654a1de397170db40e35b691a280f35b6104079061285a565b6104125781386103d6565b5080fd5b6040513d84823e3d90fd5b803b156104125781809160246040518094819363040db3b560e41b83523060048401525af1801561041657156103895761045a9061285a565b610465578238610389565b8280fd5b503461034d57602036600319011261034d5761048361277f565b61048b61295e565b6001600160a01b038116156104a6576104a3906129b6565b80f35b60405162461bcd60e51b815260206004820152602660248201527f4f776e61626c653a206e6577206f776e657220697320746865207a65726f206160448201526564647265737360d01b6064820152608490fd5b503461034d57602036600319011261034d5760209060ff906040906001600160a01b0361052561277f565b168152606c84522054166040519015158152f35b503461034d57604036600319011261034d5761055361277f565b604061055d612795565b9260018060a01b03809316815260676020522091166000526020526020604060002054604051908152f35b503461034d57602036600319011261034d576105a261277f565b6105aa61295e565b606e8054610100600160a81b031916600883901b610100600160a81b03161790556001600160a01b03167fd2be862d755bca7e0d39772b2cab3a5578da9c285f69199f4c063c2294a7f36c8280a280f35b503461034d57604036600319011261034d5761061561277f565b60243590811515908183036106835761065a9061063461027b33612a4b565b60018060a01b031692838552606c602052604085209060ff801983541691151516179055565b33917f7fa523c84ab8d7fc5b72f08b9e46dbbf10c39e119a075b3e317002d14bc9f4368480a480f35b8380fd5b503461034d5761069636612915565b6106a192919261295e565b604051926020906106f9828601866106ba868584612dde565b03966106ce601f199889810183528261289e565b5190206040518481019085825260006040820152604081526106ef81612883565b5190201415612abe565b6001600160401b0383116108275761071b83610716606954612b0a565b612b44565b8391601f84116001146107b757508383949550926107ac575b50508160011b916000199060031b1c1916176069555b606b54610755612c02565b61075d612c33565b7f6a1105ac8148a3c319adbc369f9072573e8a11d3a3d195e067e7c40767ec54d16107a6610789612cbe565b9360405191829160ff60018060a01b038960081c16981683612d31565b0390a480f35b013590503880610734565b919483169460698552600080516020613bd68339815191529285905b87821061080f5750508360019596106107f5575b505050811b0160695561074a565b0135600019600384901b60f8161c191690553880806107e7565b806001849682949587013581550195019201906107d3565b634e487b7160e01b84526041600452602484fd5b503461034d5761084a36612915565b61085592919261295e565b6040519260209061086e828601866106ba868584612dde565b6001600160401b038311610827576108908361088b606a54612b0a565b612ba3565b8391601f84116001146108d457508383949550926108c9575b50508160011b916000199060031b1c191617606a55606b54610755612c02565b0135905038806108a9565b9194831694606a8552600080516020613c168339815191529285905b87821061092c575050836001959610610912575b505050811b01606a5561074a565b0135600019600384901b60f8161c19169055388080610904565b806001849682949587013581550195019201906108f0565b503461034d578060031936011261034d57606b5460405160089190911c6001600160a01b03168152602090f35b503461034d57604036600319011261034d5760206109a861099061277f565b61099f60ff606e541615612e69565b60243590613663565b6040519015158152f35b503461034d57604036600319011261034d57610a039060406109d261277f565b9133815260676020522060018060a01b0382166000526020526109fc602435604060002054612dd1565b9033613ab3565b602060405160018152f35b503461034d5760206109a8610a2236612825565b91610a2f61027b33612a4b565b613840565b503461034d57604036600319011261034d57610a4e61277f565b90602435610a5e61027b33612a4b565b60018060a01b03928381169384845260206066815283604086205410610bee578585526066815285610a9d6040872054606d8452604088205490612dd1565b82818711610ba5575b505015610b575785600080516020613bf68339815191528697928793845260668152610ad6876040862054612dd1565b838552606682526040852055610aee87606854612dd1565b606855604051878152a3606f541691823b15610b525760405163469753b960e11b81526001600160a01b0392909216600483015260248201529082908290604490829084905af1801561041657610b425750f35b610b4b9061285a565b61034d5780f35b505050fd5b6084906040519062461bcd60e51b82526004820152602160248201527f45524332303a206275726e2066726f6d20746865207a65726f206164647265736044820152607360f81b6064820152fd5b610bbe600080516020613bb68339815191529288612dd1565b838952606d8252610bd38160408b2054612dd1565b848a52606d835260408a2055604051908152a2853882610aa6565b6064906040519062461bcd60e51b82526004820152601d60248201527f63616e6e6f74206275726e206d6f7265207468616e2062616c616e63650000006044820152fd5b503461034d578060031936011261034d5760a1546040516001600160a01b039091168152602090f35b503461034d57602036600319011261034d57610c7561277f565b610c7d61295e565b6001600160a01b03811690610c938215156129ff565b610c9c81612a4b565b15610ce7576001600160a01b03166000908152606560205260409020805460ff191690557fed9c8ad8d5a0a66898ea49d2956929c93ae2e8bd50281b2ed897c5d1a6737e0b8280a280f35b60405162461bcd60e51b815260206004820152602160248201527f526f6c65733a206163636f756e7420646f6573206e6f74206861766520726f6c6044820152606560f81b6064820152608490fd5b503461034d578060031936011261034d576040519080606a54610d5881612b0a565b80855291600191808316908115610de35750600114610d9a575b610d9685610d828187038261289e565b60405191829160208352602083019061273f565b0390f35b9250606a8352600080516020613c168339815191525b828410610dcb575050508101602001610d8282610d96610d72565b80546020858701810191909152909301928101610db0565b869550610d9696935060209250610d8294915060ff191682840152151560051b8201019293610d72565b503461034d57606036600319011261034d57610e2761277f565b610e2f612795565b906044356001600160a01b0381168103610e5b576020926109a892610e5661027b33612a4b565b613252565b600080fd5b503461034d578060031936011261034d576033546040516001600160a01b039091168152602090f35b503461034d57610e98366127db565b9091845b818110610ea7578580f35b80610edd610ebc61025d610ee394868a612eb7565b610ec7838789612eb7565b3590610ed860ff606e541615612e69565b613663565b50612ea8565b610e9c565b503461034d57602036600319011261034d57610f0261277f565b610f0a61295e565b60a154906001600160a01b0390818316610f335716906001600160601b0360a01b161760a15580f35b60405162461bcd60e51b8152602060048201526013602482015272105b1c9958591e481dda1a5d195b1a5cdd1959606a1b6044820152606490fd5b503461034d57602036600319011261034d57610f8861277f565b610f9061295e565b6001600160a01b03811690610fa68215156129ff565b610faf81612a4b565b610ffc576001600160a01b03166000908152606560205260409020805460ff191660011790557ff68e73cec97f2d70aa641fb26e87a4383686e2efacb648f2165aeb02ac562ec58280a280f35b60405162461bcd60e51b815260206004820152601f60248201527f526f6c65733a206163636f756e7420616c72656164792068617320726f6c65006044820152606490fd5b503461034d578060031936011261034d5761105e61027b33612a4b565b6001606e5461107060ff821615612e69565b60ff191617606e557f62e78cea01bee320cd4e420270b5ea74000d11b0c9f74754ebdbfc544b05a2586020604051338152a180f35b503461034d578060031936011261034d576110be61295e565b603380546001600160a01b031981169091556000906001600160a01b03167f8be0079c531659141344cd1fd0a4f28419497f9722a3daafe3b4186f6b6457e08280a380f35b503461034d57602036600319011261034d576020906040906001600160a01b0361112b61277f565b168152606683522054604051908152f35b503461034d5761114b366127db565b90939291835b81811061115c578480f35b61116a61025d828487612eb7565b611175828589612eb7565b359061118361027b33612a4b565b606e5460405163b9209e3360e01b81526001600160a01b03838116600483018190529092602492602091829082908690829060081c89165afa908115611408578c916113eb575b50156113ac57606f80546040516372331c7360e11b8152600060048201526001600160a01b038816602482015260448101899052919491908390829060649082908a165afa9081156113a1578d91611374575b50156113375782156112f45750600080516020613bf68339815191528b916068611248898254612dae565b90558383526066808252611260896040862054612dae565b9085855282526040842055604051888152a3541690813b156112f057604051635f8dead360e01b81526001600160a01b03919091166004820152602481019290925286908290604490829084905af180156112e5579086916112cd575b50506112c890612ea8565b611151565b6112d69061285a565b6112e15784386112bd565b8480fd5b6040513d88823e3d90fd5b8780fd5b90601f6064926040519262461bcd60e51b845260048401528201527f45524332303a206d696e7420746f20746865207a65726f2061646472657373006044820152fd5b9060176064926040519262461bcd60e51b845260048401528201527610dbdb5c1b1a585b98d9481b9bdd08199bdb1b1bddd959604a1b6044820152fd5b6113949150833d851161139a575b61138c818361289e565b810190612f73565b3861121d565b503d611382565b6040513d8f823e3d90fd5b6064906019846040519262461bcd60e51b845260048401528201527824b232b73a34ba3c9034b9903737ba103b32b934b334b2b21760391b6044820152fd5b6114029150823d841161139a5761138c818361289e565b386111ca565b6040513d8e823e3d90fd5b503461034d578060031936011261034d57606f546040516001600160a01b039091168152602090f35b503461034d578060031936011261034d57602060ff606e54166040519015158152f35b503461034d578060031936011261034d57610d96610d82612c02565b503461034d5760e036600319011261034d5761149561277f565b61149d612795565b906044356001600160401b038111610683576114bd9036906004016128bf565b916064356001600160401b0381116112e1576114dd9036906004016128bf565b9160843560ff81168103611b4f5760a4356001600160a01b0381169003610e5b5760c435936001600160a01b0385168503610e5b5786549560ff8760081c161596878098611b42575b8015611b2b575b15611acf5760ff198116600117895587611abe575b506033546001600160a01b0316611a83576001600160a01b038416151580611a71575b61156e906129ff565b6040516020810190602082526115998161158b604082018661273f565b03601f19810183528261289e565b51902060405160208101906020825260006040820152604081526115bc81612883565b519020141580611a21575b6115d090612abe565b601260ff8416116119dc576115f460ff895460081c166115ef81612d4e565b612d4e565b6115fd336129b6565b8051906001600160401b0382116119c857819061161f82610716606954612b0a565b602090601f8311600114611952578a92611947575b50508160011b916000199060031b1c1916176069555b8051906001600160401b0382116119335761166a8261088b606a54612b0a565b602090601f83116001146118bc5760019392918991836118b1575b5050600019600383901b1c191690831b17606a555b606b546101008360a81b03916affffffffffffffffffffff60a81b918260ff8560a43560081b16931691161717606b55606e54918360ff19841617606e556116e061295e565b8460081b1691161717606e5560018060a01b03167fd2be862d755bca7e0d39772b2cab3a5578da9c285f69199f4c063c2294a7f36c8580a261172061295e565b606f5484906001600160a01b03168061186d575b505060018060a01b0316606f54908481816001600160601b0360a01b948286821617606f551617803b1561041257818091602460405180948193631ffad50160e11b83523060048401525af1801561041657611859575b50807f7f3a888862559648ec01d97deb7b5012bff86dc91e654a1de397170db40e35b691a26117b861295e565b60a154916001600160a01b038316610f33576001600160a01b031691161760a155606b546117e4612c02565b6117ec612c33565b7f6a1105ac8148a3c319adbc369f9072573e8a11d3a3d195e067e7c40767ec54d1611818610789612cbe565b0390a46118225780f35b61ff001981541681557f7f26b83ff96e1f2b6a682f133852f6798a09c465da95921460cefb3847402498602060405160018152a180f35b6118629061285a565b6112e157843861178b565b803b156104125781809160246040518094819363040db3b560e41b83523060048401525af180156104165715611734576118a69061285a565b610683578338611734565b015190503880611685565b90606a8952600080516020613c1683398151915291895b601f198516811061191b575091839160019594938694601f19811610611902575b505050811b01606a5561169a565b015160001960f88460031b161c191690553880806118f4565b919260206001819286850151815501940192016118d3565b634e487b7160e01b88526041600452602488fd5b015190503880611634565b925060698a52600080516020613bd6833981519152908a935b601f19841685106119ad576001945083601f19811610611994575b505050811b0160695561164a565b015160001960f88460031b161c19169055388080611986565b8181015183556020948501946001909301929091019061196b565b634e487b7160e01b89526041600452602489fd5b60405162461bcd60e51b815260206004820152601960248201527f646563696d616c73206265747765656e203020616e64203138000000000000006044820152606490fd5b506115d0604051602081019060208252611a428161158b604082018861273f565b5190206040516020810190602082526000604082015260408152611a6581612883565b519020141590506115c7565b506001600160a01b0385161515611565565b60405162461bcd60e51b8152602060048201526013602482015272185b1c9958591e481a5b9a5d1a585b1a5e9959606a1b6044820152606490fd5b61ffff191661010117885538611542565b60405162461bcd60e51b815260206004820152602e60248201527f496e697469616c697a61626c653a20636f6e747261637420697320616c72656160448201526d191e481a5b9a5d1a585b1a5e995960921b6064820152608490fd5b50303b15801561152d5750600160ff82161461152d565b50600160ff821610611526565b8580fd5b503461034d57611b62366127db565b90939291835b818110611b73578480f35b611b8161025d828487612eb7565b611b8c828589612eb7565b3590611b9a61027b33612a4b565b6001600160a01b038181168089526066602081815260408b20549091908611611d4157828b528082528260408c2054838d611bdf606d93848452604083205490612dd1565b92838b11611cf9575b5050505015611caa578291600080516020613bf6833981519152918c948552808252611c18886040872054612dd1565b90848652825260408520556068611c30888254612dd1565b9055604051878152a3606f541690813b156112f05760405163469753b960e11b81526001600160a01b03919091166004820152602481019290925286908290604490829084905af180156112e557908691611c96575b5050611c9190612ea8565b611b68565b611c9f9061285a565b6112e1578438611c86565b60405162461bcd60e51b815260048101839052602160248201527f45524332303a206275726e2066726f6d20746865207a65726f206164647265736044820152607360f81b6064820152608490fd5b6040611d14600080516020613bb6833981519152958d612dd1565b92868152828552611d288483832054612dd1565b9287825285522055604051908152a28238838d82611be8565b60405162461bcd60e51b815260048101839052601d60248201527f63616e6e6f74206275726e206d6f7265207468616e2062616c616e63650000006044820152606490fd5b503461034d57611d95366127db565b929091845b818110611da5578580f35b611db361025d828486612eb7565b611dbe828787612eb7565b3590611dcc61027b33612a4b565b60018060a01b031690818852606d906020918083528160408b205410611e1c57918184936102ee600080516020613bb68339815191529460408e611e179a9981528487522054612dd1565b611d9a565b60405162461bcd60e51b815260048101849052603460248201527f416d6f756e742073686f756c64206265206c657373207468616e206f7220657160448201527375616c20746f2066726f7a656e20746f6b656e7360601b6064820152608490fd5b503461034d57606036600319011261034d576001600160401b0360043581811161046557611eb09036906004016127ab565b6024929192358281116112e157611ecb9036906004016127ab565b9092604435908111611b4f57611ee59036906004016127ab565b919092865b818110611ef5578780f35b80610edd611f0a61025d611f3194868c612eb7565b611f1861025d84888c612eb7565b611f2384898b612eb7565b3591610a2f61027b33612a4b565b611eea565b503461034d57604036600319011261034d57611f5061277f565b9060243591611f6161027b33612a4b565b606e5460405163b9209e3360e01b81526001600160a01b0383811660048301819052602096939192909187908290602490829060081c87165afa9081156112e5578691612185575b501561214457606f546040516372331c7360e11b8152600060048201526001600160a01b0386166024820152604481018590529087908290606490829087165afa9081156112e5578691612127575b50156120e85780156120a35784600080516020613bf6833981519152819761202586606899989954612dae565b6068558383526066815261203d866040852054612dae565b848452606682526040842055604051868152a3606f5416803b1561046557604051635f8dead360e01b81526001600160a01b0394909416600485015260248401919091528290604490829084905af180156104165761209a575080f35b6104a39061285a565b60405162461bcd60e51b815260048101879052601f60248201527f45524332303a206d696e7420746f20746865207a65726f2061646472657373006044820152606490fd5b60405162461bcd60e51b815260048101879052601760248201527610dbdb5c1b1a585b98d9481b9bdd08199bdb1b1bddd959604a1b6044820152606490fd5b61213e9150873d891161139a5761138c818361289e565b38611ff8565b60405162461bcd60e51b815260048101879052601960248201527824b232b73a34ba3c9034b9903737ba103b32b934b334b2b21760391b6044820152606490fd5b61219c9150873d891161139a5761138c818361289e565b38611fa9565b503461034d578060031936011261034d576121bf61027b33612a4b565b606e5460ff8116156121ff5760ff1916606e557f5db9ee0a495bf2e6ff9c91a7834c1ba4fdd244a5e8aa4e537bd38aeae4b073aa6020604051338152a180f35b60405162461bcd60e51b815260206004820152601460248201527314185d5cd8589b194e881b9bdd081c185d5cd95960621b6044820152606490fd5b503461034d57602036600319011261034d5761225561277f565b61225d61295e565b606b8054610100600160a81b0319811660089390931b610100600160a81b0316929092179081905561228d612c02565b907f6a1105ac8148a3c319adbc369f9072573e8a11d3a3d195e067e7c40767ec54d160ff6122b9612c33565b926107a66122c5612cbe565b9560405193849360018060a01b039060081c16981683612d31565b503461034d57604036600319011261034d57610a03906109fc61230161277f565b9133815260676020526040812060018060a01b03841682526020526040602435912054612dae565b503461034d578060031936011261034d57602060ff606b5416604051908152f35b503461034d5760206109a861235e36612825565b9161236e60ff606e541615612e69565b613007565b503461034d57602036600319011261034d5760206109a861239261277f565b612a4b565b503461034d57604036600319011261034d576123b161277f565b602435906123c161027b33612a4b565b6001600160a01b0316808352606d6020526040832054909190811161241d576020600080516020613bb683398151915291838552606d8252612407816040872054612dd1565b848652606d83526040862055604051908152a280f35b60405162461bcd60e51b815260206004820152603460248201527f416d6f756e742073686f756c64206265206c657373207468616e206f7220657160448201527375616c20746f2066726f7a656e20746f6b656e7360601b6064820152608490fd5b503461034d5761248e366127db565b909291845b81811061249e578580f35b6124ac61025d828487612eb7565b906124b8818588612eb7565b3580151580820361252c576124fc612527946124d661027b33612a4b565b60018060a01b031692838b52606c60205260408b209060ff801983541691151516179055565b33917f7fa523c84ab8d7fc5b72f08b9e46dbbf10c39e119a075b3e317002d14bc9f4368a80a4612ea8565b612493565b8880fd5b503461034d578060031936011261034d576020606854604051908152f35b503461034d57602036600319011261034d576020906040906001600160a01b0361257661277f565b168152606d83522054604051908152f35b503461034d578060031936011261034d57606e5460405160089190911c6001600160a01b03168152602090f35b503461034d57604036600319011261034d576125ce61277f565b602435906125de61027b33612a4b565b60018060a01b031690818352602090606682526040842054606d8352612608826040872054612dae565b1161264557907fa065e63c631c86f1b9f66a4a2f63f2093bf1c2168d23290259dbd969e0222a4591838552606d8252612407816040872054612dae565b6064826040519062461bcd60e51b825280600483015260248201527f416d6f756e74206578636565647320617661696c61626c652062616c616e63656044820152fd5b503461034d57604036600319011261034d57610a036126a561277f565b6024359033613ab3565b823461034d578060031936011261034d57806069546126cd81612b0a565b80855291600191808316908115610de357506001146126f657610d9685610d828187038261289e565b925060698352600080516020613bd68339815191525b828410612727575050508101602001610d8282610d96610d72565b8054602085870181019190915290930192810161270c565b919082519283825260005b84811061276b575050826000602080949584010152601f8019910116010190565b60208183018101518483018201520161274a565b600435906001600160a01b0382168203610e5b57565b602435906001600160a01b0382168203610e5b57565b9181601f84011215610e5b578235916001600160401b038311610e5b576020808501948460051b010111610e5b57565b6040600319820112610e5b576001600160401b0391600435838111610e5b5782612807916004016127ab565b93909392602435918211610e5b57612821916004016127ab565b9091565b6060906003190112610e5b576001600160a01b03906004358281168103610e5b57916024359081168103610e5b579060443590565b6001600160401b03811161286d57604052565b634e487b7160e01b600052604160045260246000fd5b606081019081106001600160401b0382111761286d57604052565b90601f801991011681019081106001600160401b0382111761286d57604052565b81601f82011215610e5b578035906001600160401b03821161286d57604051926128f3601f8401601f19166020018561289e565b82845260208383010111610e5b57816000926020809301838601378301015290565b906020600319830112610e5b576004356001600160401b0392838211610e5b5780602383011215610e5b578160040135938411610e5b5760248483010111610e5b576024019190565b6033546001600160a01b0316330361297257565b606460405162461bcd60e51b815260206004820152602060248201527f4f776e61626c653a2063616c6c6572206973206e6f7420746865206f776e65726044820152fd5b603380546001600160a01b039283166001600160a01b0319821681179092559091167f8be0079c531659141344cd1fd0a4f28419497f9722a3daafe3b4186f6b6457e0600080a3565b15612a0657565b60405162461bcd60e51b815260206004820152601f60248201527f696e76616c696420617267756d656e74202d207a65726f2061646472657373006044820152606490fd5b6001600160a01b03168015612a6e57600052606560205260ff6040600020541690565b60405162461bcd60e51b815260206004820152602260248201527f526f6c65733a206163636f756e7420697320746865207a65726f206164647265604482015261737360f01b6064820152608490fd5b15612ac557565b60405162461bcd60e51b815260206004820152601f60248201527f696e76616c696420617267756d656e74202d20656d70747920737472696e67006044820152606490fd5b90600182811c92168015612b3a575b6020831014612b2457565b634e487b7160e01b600052602260045260246000fd5b91607f1691612b19565b601f8111612b50575050565b60009060698252600080516020613bd6833981519152906020601f850160051c83019410612b99575b601f0160051c01915b828110612b8e57505050565b818155600101612b82565b9092508290612b79565b601f8111612baf575050565b600090606a8252600080516020613c16833981519152906020601f850160051c83019410612bf8575b601f0160051c01915b828110612bed57505050565b818155600101612be1565b9092508290612bd8565b60405190604082018281106001600160401b0382111761286d576040526005825264342e312e3360d81b6020830152565b604051806000606954612c4581612b0a565b90600190818116908115612ca75750600114612c64575b505003902090565b60696000908152919250600080516020613bd68339815191525b838310612c915750505081013880612c5c565b8054868401528594506020909201918101612c7e565b60ff19168552505080151502820190503880612c5c565b604051806000606a54612cd081612b0a565b90600190818116908115612ca75750600114612cee57505003902090565b606a6000908152919250600080516020613c168339815191525b838310612d1b5750505081013880612c5c565b8054868401528594506020909201918101612d08565b60409060ff612d4b9493168152816020820152019061273f565b90565b15612d5557565b60405162461bcd60e51b815260206004820152602b60248201527f496e697469616c697a61626c653a20636f6e7472616374206973206e6f74206960448201526a6e697469616c697a696e6760a81b6064820152608490fd5b91908201809211612dbb57565b634e487b7160e01b600052601160045260246000fd5b91908203918211612dbb57565b90918060409360208452816020850152848401376000828201840152601f01601f1916010190565b15612e0d57565b60405162461bcd60e51b815260206004820152602e60248201527f4167656e74526f6c653a2063616c6c657220646f6573206e6f7420686176652060448201526d746865204167656e7420726f6c6560901b6064820152608490fd5b15612e7057565b60405162461bcd60e51b815260206004820152601060248201526f14185d5cd8589b194e881c185d5cd95960821b6044820152606490fd5b6000198114612dbb5760010190565b9190811015612ec75760051b0190565b634e487b7160e01b600052603260045260246000fd5b356001600160a01b0381168103610e5b5790565b15612ef857565b60405162461bcd60e51b815260206004820152601060248201526f3bb0b63632ba1034b990333937bd32b760811b6044820152606490fd5b15612f3757565b60405162461bcd60e51b8152602060048201526014602482015273496e73756666696369656e742042616c616e636560601b6044820152606490fd5b90816020910312610e5b57518015158103610e5b5790565b15612f9257565b60405162461bcd60e51b815260206004820152601e60248201527f536d61727420636f6e7472616374206e6f742077686974656c697374656400006044820152606490fd5b6060906020815260156020820152745472616e73666572206e6f7420706f737369626c6560581b60408201520190565b929160009360018060a01b0392838116938487526020606c815260409560ff878a205416158061323f575b61303b90612ef1565b82851690818a526066835261306661305e898c2054606d86528a8d205490612dd1565b881115612f30565b843b63ffffffff161561312e57613082908460a1541614612f8b565b88526067815285882090338952526130a76130a085878a2054612dd1565b3385613ab3565b6130b284838561399b565b606f541691823b1561312a5784516322ebca6d60e21b81526001600160a01b0391821660048201529116602482015260448101929092529293909281908490818381606481015b03925af1918215613120575050613111575b50600190565b61311a9061285a565b3861310b565b51903d90823e3d90fd5b8680fd5b8284606e9b9a999b5460081c169160248c518094819363b9209e3360e01b835260048301525afa908115613218578991613222575b50806131ab575b61318a57885162461bcd60e51b81528061318660048201612fd7565b0390fd5b87989697526067815285882090338952526130a76130a085878a2054612dd1565b50606f5489516372331c7360e11b81526001600160a01b03878116600483015286166024820152604481018890529083908290606490829088165afa9081156132185789916131fb575b5061316a565b6132129150833d851161139a5761138c818361289e565b386131f5565b8a513d8b823e3d90fd5b6132399150833d851161139a5761138c818361289e565b38613163565b5084831689528689205460ff1615613032565b6001600160a01b03808216600081815260666020908152604080832054919790969491839190156136285782169587519589870196848216978881528b82528a8201908282106001600160401b0383111761361457818c528251902063d202158d60e01b82526044830152600160648301528b816044818d5afa91821561360a578c8c9187946135da575b5050505061332157885162461bcd60e51b8152600481018b905260156024820152745265636f76657279206e6f7420706f737369626c6560581b6044820152606490fd5b85839a9495979996989a52606684528583205491606d8552868420549386606e5460081c16885190637e42683b60e01b82528b60048301528782602481845afa9182156135d0578392613596575b50803b15610465578d60648e85809461ffff8f51978896879563022a501f60e51b8752600487015260248601521660448401525af1801561358c57613571575b5050906133c39291610a2f61027b33612a4b565b50806134b3575b50848452606c8152600160ff8486205416151514613464575b50606e5460081c16803b156104655790828092602483518095819363a8d29d1d60e01b83528960048401525af190811561345b5750613447575b50807ff0c9129a94f30f1caaceb63e44b9811d0a3edf1d6c23757f346093af5553fed091a4600190565b613451829161285a565b61034d573861341d565b513d84823e3d90fd5b606c9061347361027b33612a4b565b86855252818320600160ff19825416179055336001867f7fa523c84ab8d7fc5b72f08b9e46dbbf10c39e119a075b3e317002d14bc9f4368680a4386133e3565b6134bf61027b33612a4b565b8685526066825283852054606d83526134db8286882054612dae565b1161352f577fa065e63c631c86f1b9f66a4a2f63f2093bf1c2168d23290259dbd969e0222a45828892838852606d825261351881888a2054612dae565b848952606d8352878920558651908152a2386133ca565b60648285519062461bcd60e51b825280600483015260248201527f416d6f756e74206578636565647320617661696c61626c652062616c616e63656044820152fd5b6133c394939299506135829061285a565b97909192386133af565b89513d84823e3d90fd5b9091508781813d83116135c9575b6135ae818361289e565b81010312610465575161ffff8116810361046557903861336f565b503d6135a4565b8a513d85823e3d90fd5b6135f99450813d10613602575b6135f1828561289e565b010190612f73565b388a8c826132dd565b3d91506135e7565b8b513d87823e3d90fd5b634e487b7160e01b86526041600452602486fd5b875162461bcd60e51b8152600481018a905260146024820152733737903a37b5b2b739903a37903932b1b7bb32b960611b6044820152606490fd5b919091600060018060a01b039182811692838352602093606c855260409460ff8686205416158061382f575b61369890612ef1565b338552606681526136bf6136b787872054606d84528888205490612dd1565b891115612f30565b333b63ffffffff161561373057506136dc908260a1541614612f8b565b6136e786833361399b565b606f541690813b156104655783516322ebca6d60e21b81523360048201526001600160a01b039091166024820152604481019590955292939281908490818381606481016130f9565b8083606e999897995460081c169260248a518095819363b9209e3360e01b835260048301525afa918215613806578592613810575b5081613798575b5061378957855162461bcd60e51b81528061318660048201612fd7565b6136e78583979596973361399b565b606f5488516372331c7360e11b81523360048201526001600160a01b03861660248201526044810189905291925082908290606490829087165afa9182156138065785926137e9575b50503861376c565b6137ff9250803d1061139a5761138c818361289e565b38806137e1565b88513d87823e3d90fd5b816138289293503d841161139a5761138c818361289e565b9038613765565b503385528585205460ff161561368f565b9192909260009260018060a01b03948582169586865260206066815260409785898920541061395e578088526066825261388589892054606d84528a8a205490612dd1565b82818811613918575b90506024915083606e5460081c168a519283809263b9209e3360e01b825287891660048301525afa91821561390e5788926138f1575b50506138e257865162461bcd60e51b81528061318660048201612fd7565b6130b28483859997989961399b565b6139079250803d1061139a5761138c818361289e565b38806138c4565b89513d8a823e3d90fd5b613931600080516020613bb68339815191529289612dd1565b838b52606d8252613945818d8d2054612dd1565b848c52606d83528c8c20558b51908152a238808261388e565b885162461bcd60e51b815260048101839052601660248201527573656e6465722062616c616e636520746f6f206c6f7760501b6044820152606490fd5b6001600160a01b03908116918215613a605716918215613a0f576020600080516020613bf6833981519152916000848152606683526139de826040832054612dd1565b85825260668452604082205585815260406139fc8382842054612dae565b91878152606685522055604051908152a3565b60405162461bcd60e51b815260206004820152602360248201527f45524332303a207472616e7366657220746f20746865207a65726f206164647260448201526265737360e81b6064820152608490fd5b60405162461bcd60e51b815260206004820152602560248201527f45524332303a207472616e736665722066726f6d20746865207a65726f206164604482015264647265737360d81b6064820152608490fd5b6001600160a01b03908116918215613b645716918215613b145760207f8c5be1e5ebec7d5bd14f71427d1e84f3dd0314c0f7b2291e5b200ac8c7c3b925918360005260678252604060002085600052825280604060002055604051908152a3565b60405162461bcd60e51b815260206004820152602260248201527f45524332303a20617070726f766520746f20746865207a65726f206164647265604482015261737360f01b6064820152608490fd5b60405162461bcd60e51b8152602060048201526024808201527f45524332303a20617070726f76652066726f6d20746865207a65726f206164646044820152637265737360e01b6064820152608490fdfe9bed35cb62ad0dba04f9d5bfee4b5bc91443e77da8a65c4c84834c51bb08b0d67fb4302e8e91f9110a6554c2c0a24601252c2a42c2220ca988efcfe399914308ddf252ad1be2c89b69c2b068fc378daa952ba7f163c4a11628f55a4df523b3ef116fea137db6e131133e7f2bab296045d8f41cc5607279db17b218cab0929a51a264697066735822122053f3e884f470112d7a2f0a324fcaa952412ea1e6bcfd432f0a574d7ef9205d7364736f6c63430008110033",
  "linkReferences": {},
  "deployedLinkReferences": {}
}