{
  "_format": "hh-sol-artifact-1",
  "contractName": "Xenara",
  "sourceName": "contracts/XNR/XNR.sol",
  "abi": [
    {
      "inputs": [
        {
          "internalType": "string",
          "name": "name_",
          "type": "string"
        },
        {
          "internalType": "string",
          "name": "symbol_",
          "type": "string"
        },
        {
          "internalType": "address",
          "name": "publicAddr_",
          "type": "address"
        },
        {
          "internalType": "address",
          "name": "creatorPoolAddr_",
          "type": "address"
        },
        {
          "internalType": "address",
          "name": "reserveAddr_",
          "type": "address"
        },
        {
          "internalType": "address",
          "name": "communityDAOAddr_",
          "type": "address"
        },
        {
          "internalType": "address",
          "name": "royaltyManagerAddr_",
          "type": "address"
        },
        {
          "internalType": "address",
          "name": "governanceMultisig_",
          "type": "address"
        }
      ],
      "stateMutability": "nonpayable",
      "type": "constructor"
    },
    {
      "inputs": [],
      "name": "AssetNotRegistered",
      "type": "error"
    },
    {
      "inputs": [],
      "name": "ExceedsMaxSupply",
      "type": "error"
    },
    {
      "inputs": [],
      "name": "InsufficientBacking",
      "type": "error"
    },
    {
      "inputs": [],
      "name": "InsufficientBalance",
      "type": "error"
    },
    {
      "inputs": [],
      "name": "InvalidDistribution",
      "type": "error"
    },
    {
      "inputs": [],
      "name": "InvalidShortString",
      "type": "error"
    },
    {
      "inputs": [
        {
          "internalType": "string",
          "name": "str",
          "type": "string"
        }
      ],
      "name": "StringTooLong",
      "type": "error"
    },
    {
      "inputs": [],
      "name": "Unauthorized",
      "type": "error"
    },
    {
      "inputs": [],
      "name": "ZeroAddress",
      "type": "error"
    },
    {
      "inputs": [],
      "name": "ZeroAmount",
      "type": "error"
    },
    {
      "anonymous": false,
      "inputs": [
        {
          "indexed": true,
          "internalType": "address",
          "name": "owner",
          "type": "address"
        },
        {
          "indexed": true,
          "internalType": "address",
          "name": "spender",
          "type": "address"
        },
        {
          "indexed": false,
          "internalType": "uint256",
          "name": "value",
          "type": "uint256"
        }
      ],
      "name": "Approval",
      "type": "event"
    },
    {
      "anonymous": false,
      "inputs": [
        {
          "indexed": true,
          "internalType": "enum Xenara.BackingAsset",
          "name": "asset",
          "type": "uint8"
        },
        {
          "indexed": false,
          "internalType": "uint256",
          "name": "priceUSD",
          "type": "uint256"
        }
      ],
      "name": "AssetPriceUpdated",
      "type": "event"
    },
    {
      "anonymous": false,
      "inputs": [
        {
          "indexed": true,
          "internalType": "enum Xenara.BackingAsset",
          "name": "asset",
          "type": "uint8"
        },
        {
          "indexed": true,
          "internalType": "address",
          "name": "from",
          "type": "address"
        },
        {
          "indexed": false,
          "internalType": "uint256",
          "name": "amount",
          "type": "uint256"
        }
      ],
      "name": "BackingDeposited",
      "type": "event"
    },
    {
      "anonymous": false,
      "inputs": [
        {
          "indexed": true,
          "internalType": "enum Xenara.BackingAsset",
          "name": "asset",
          "type": "uint8"
        },
        {
          "indexed": false,
          "internalType": "uint256",
          "name": "deposited",
          "type": "uint256"
        },
        {
          "indexed": false,
          "internalType": "uint256",
          "name": "withdrawn",
          "type": "uint256"
        }
      ],
      "name": "BackingRebalanced",
      "type": "event"
    },
    {
      "anonymous": false,
      "inputs": [
        {
          "indexed": true,
          "internalType": "enum Xenara.BackingAsset",
          "name": "asset",
          "type": "uint8"
        },
        {
          "indexed": false,
          "internalType": "address",
          "name": "token",
          "type": "address"
        }
      ],
      "name": "BackingTokenRegistered",
      "type": "event"
    },
    {
      "anonymous": false,
      "inputs": [
        {
          "indexed": true,
          "internalType": "enum Xenara.BackingAsset",
          "name": "asset",
          "type": "uint8"
        },
        {
          "indexed": true,
          "internalType": "address",
          "name": "to",
          "type": "address"
        },
        {
          "indexed": false,
          "internalType": "uint256",
          "name": "amount",
          "type": "uint256"
        }
      ],
      "name": "BackingWithdrawn",
      "type": "event"
    },
    {
      "anonymous": false,
      "inputs": [
        {
          "indexed": true,
          "internalType": "address",
          "name": "delegator",
          "type": "address"
        },
        {
          "indexed": true,
          "internalType": "address",
          "name": "fromDelegate",
          "type": "address"
        },
        {
          "indexed": true,
          "internalType": "address",
          "name": "toDelegate",
          "type": "address"
        }
      ],
      "name": "DelegateChanged",
      "type": "event"
    },
    {
      "anonymous": false,
      "inputs": [
        {
          "indexed": true,
          "internalType": "address",
          "name": "delegate",
          "type": "address"
        },
        {
          "indexed": false,
          "internalType": "uint256",
          "name": "previousBalance",
          "type": "uint256"
        },
        {
          "indexed": false,
          "internalType": "uint256",
          "name": "newBalance",
          "type": "uint256"
        }
      ],
      "name": "DelegateVotesChanged",
      "type": "event"
    },
    {
      "anonymous": false,
      "inputs": [],
      "name": "EIP712DomainChanged",
      "type": "event"
    },
    {
      "anonymous": false,
      "inputs": [
        {
          "indexed": false,
          "internalType": "address",
          "name": "account",
          "type": "address"
        }
      ],
      "name": "Paused",
      "type": "event"
    },
    {
      "anonymous": false,
      "inputs": [
        {
          "indexed": true,
          "internalType": "bytes32",
          "name": "role",
          "type": "bytes32"
        },
        {
          "indexed": true,
          "internalType": "bytes32",
          "name": "previousAdminRole",
          "type": "bytes32"
        },
        {
          "indexed": true,
          "internalType": "bytes32",
          "name": "newAdminRole",
          "type": "bytes32"
        }
      ],
      "name": "RoleAdminChanged",
      "type": "event"
    },
    {
      "anonymous": false,
      "inputs": [
        {
          "indexed": true,
          "internalType": "bytes32",
          "name": "role",
          "type": "bytes32"
        },
        {
          "indexed": true,
          "internalType": "address",
          "name": "account",
          "type": "address"
        },
        {
          "indexed": true,
          "internalType": "address",
          "name": "sender",
          "type": "address"
        }
      ],
      "name": "RoleGranted",
      "type": "event"
    },
    {
      "anonymous": false,
      "inputs": [
        {
          "indexed": true,
          "internalType": "bytes32",
          "name": "role",
          "type": "bytes32"
        },
        {
          "indexed": true,
          "internalType": "address",
          "name": "account",
          "type": "address"
        },
        {
          "indexed": true,
          "internalType": "address",
          "name": "sender",
          "type": "address"
        }
      ],
      "name": "RoleRevoked",
      "type": "event"
    },
    {
      "anonymous": false,
      "inputs": [
        {
          "indexed": true,
          "internalType": "address",
          "name": "to",
          "type": "address"
        },
        {
          "indexed": false,
          "internalType": "uint256",
          "name": "amount",
          "type": "uint256"
        },
        {
          "indexed": false,
          "internalType": "string",
          "name": "description",
          "type": "string"
        }
      ],
      "name": "RoyaltyDistributed",
      "type": "event"
    },
    {
      "anonymous": false,
      "inputs": [
        {
          "indexed": true,
          "internalType": "address",
          "name": "from",
          "type": "address"
        },
        {
          "indexed": false,
          "internalType": "uint256",
          "name": "amount",
          "type": "uint256"
        },
        {
          "indexed": false,
          "internalType": "string",
          "name": "reason",
          "type": "string"
        }
      ],
      "name": "TokensBurned",
      "type": "event"
    },
    {
      "anonymous": false,
      "inputs": [
        {
          "indexed": true,
          "internalType": "address",
          "name": "to",
          "type": "address"
        },
        {
          "indexed": false,
          "internalType": "uint256",
          "name": "amount",
          "type": "uint256"
        },
        {
          "indexed": false,
          "internalType": "string",
          "name": "reason",
          "type": "string"
        }
      ],
      "name": "TokensMinted",
      "type": "event"
    },
    {
      "anonymous": false,
      "inputs": [
        {
          "indexed": true,
          "internalType": "address",
          "name": "from",
          "type": "address"
        },
        {
          "indexed": true,
          "internalType": "address",
          "name": "to",
          "type": "address"
        },
        {
          "indexed": false,
          "internalType": "uint256",
          "name": "value",
          "type": "uint256"
        }
      ],
      "name": "Transfer",
      "type": "event"
    },
    {
      "anonymous": false,
      "inputs": [
        {
          "indexed": false,
          "internalType": "address",
          "name": "account",
          "type": "address"
        }
      ],
      "name": "Unpaused",
      "type": "event"
    },
    {
      "inputs": [],
      "name": "BACKING_MANAGER_ROLE",
      "outputs": [
        {
          "internalType": "bytes32",
          "name": "",
          "type": "bytes32"
        }
      ],
      "stateMutability": "view",
      "type": "function"
    },
    {
      "inputs": [],
      "name": "BURNER_ROLE",
      "outputs": [
        {
          "internalType": "bytes32",
          "name": "",
          "type": "bytes32"
        }
      ],
      "stateMutability": "view",
      "type": "function"
    },
    {
      "inputs": [],
      "name": "CLOCK_MODE",
      "outputs": [
        {
          "internalType": "string",
          "name": "",
          "type": "string"
        }
      ],
      "stateMutability": "view",
      "type": "function"
    },
    {
      "inputs": [],
      "name": "COMMUNITY_DAO_PERCENTAGE",
      "outputs": [
        {
          "internalType": "uint256",
          "name": "",
          "type": "uint256"
        }
      ],
      "stateMutability": "view",
      "type": "function"
    },
    {
      "inputs": [],
      "name": "CREATOR_POOL_PERCENTAGE",
      "outputs": [
        {
          "internalType": "uint256",
          "name": "",
          "type": "uint256"
        }
      ],
      "stateMutability": "view",
      "type": "function"
    },
    {
      "inputs": [],
      "name": "DEFAULT_ADMIN_ROLE",
      "outputs": [
        {
          "internalType": "bytes32",
          "name": "",
          "type": "bytes32"
        }
      ],
      "stateMutability": "view",
      "type": "function"
    },
    {
      "inputs": [],
      "name": "DOMAIN_SEPARATOR",
      "outputs": [
        {
          "internalType": "bytes32",
          "name": "",
          "type": "bytes32"
        }
      ],
      "stateMutability": "view",
      "type": "function"
    },
    {
      "inputs": [],
      "name": "GOLD_BACKING_PERCENTAGE",
      "outputs": [
        {
          "internalType": "uint256",
          "name": "",
          "type": "uint256"
        }
      ],
      "stateMutability": "view",
      "type": "function"
    },
    {
      "inputs": [],
      "name": "GOVERNANCE_ROLE",
      "outputs": [
        {
          "internalType": "bytes32",
          "name": "",
          "type": "bytes32"
        }
      ],
      "stateMutability": "view",
      "type": "function"
    },
    {
      "inputs": [],
      "name": "MAX_SUPPLY",
      "outputs": [
        {
          "internalType": "uint256",
          "name": "",
          "type": "uint256"
        }
      ],
      "stateMutability": "view",
      "type": "function"
    },
    {
      "inputs": [],
      "name": "MINTER_ROLE",
      "outputs": [
        {
          "internalType": "bytes32",
          "name": "",
          "type": "bytes32"
        }
      ],
      "stateMutability": "view",
      "type": "function"
    },
    {
      "inputs": [],
      "name": "PAUSER_ROLE",
      "outputs": [
        {
          "internalType": "bytes32",
          "name": "",
          "type": "bytes32"
        }
      ],
      "stateMutability": "view",
      "type": "function"
    },
    {
      "inputs": [],
      "name": "PRECIOUS_STONES_BACKING_PERCENTAGE",
      "outputs": [
        {
          "internalType": "uint256",
          "name": "",
          "type": "uint256"
        }
      ],
      "stateMutability": "view",
      "type": "function"
    },
    {
      "inputs": [],
      "name": "PUBLIC_PERCENTAGE",
      "outputs": [
        {
          "internalType": "uint256",
          "name": "",
          "type": "uint256"
        }
      ],
      "stateMutability": "view",
      "type": "function"
    },
    {
      "inputs": [],
      "name": "RECOVERY_ROLE",
      "outputs": [
        {
          "internalType": "bytes32",
          "name": "",
          "type": "bytes32"
        }
      ],
      "stateMutability": "view",
      "type": "function"
    },
    {
      "inputs": [],
      "name": "RESERVE_PERCENTAGE",
      "outputs": [
        {
          "internalType": "uint256",
          "name": "",
          "type": "uint256"
        }
      ],
      "stateMutability": "view",
      "type": "function"
    },
    {
      "inputs": [],
      "name": "ROYALTY_MANAGER_ROLE",
      "outputs": [
        {
          "internalType": "bytes32",
          "name": "",
          "type": "bytes32"
        }
      ],
      "stateMutability": "view",
      "type": "function"
    },
    {
      "inputs": [],
      "name": "SILVER_BACKING_PERCENTAGE",
      "outputs": [
        {
          "internalType": "uint256",
          "name": "",
          "type": "uint256"
        }
      ],
      "stateMutability": "view",
      "type": "function"
    },
    {
      "inputs": [],
      "name": "TOTAL_SUPPLY",
      "outputs": [
        {
          "internalType": "uint256",
          "name": "",
          "type": "uint256"
        }
      ],
      "stateMutability": "view",
      "type": "function"
    },
    {
      "inputs": [
        {
          "internalType": "address",
          "name": "owner",
          "type": "address"
        },
        {
          "internalType": "address",
          "name": "spender",
          "type": "address"
        }
      ],
      "name": "allowance",
      "outputs": [
        {
          "internalType": "uint256",
          "name": "",
          "type": "uint256"
        }
      ],
      "stateMutability": "view",
      "type": "function"
    },
    {
      "inputs": [
        {
          "internalType": "address",
          "name": "spender",
          "type": "address"
        },
        {
          "internalType": "uint256",
          "name": "amount",
          "type": "uint256"
        }
      ],
      "name": "approve",
      "outputs": [
        {
          "internalType": "bool",
          "name": "",
          "type": "bool"
        }
      ],
      "stateMutability": "nonpayable",
      "type": "function"
    },
    {
      "inputs": [],
      "name": "backingPerTokenUSD",
      "outputs": [
        {
          "internalType": "uint256",
          "name": "",
          "type": "uint256"
        }
      ],
      "stateMutability": "view",
      "type": "function"
    },
    {
      "inputs": [
        {
          "internalType": "address",
          "name": "account",
          "type": "address"
        }
      ],
      "name": "balanceOf",
      "outputs": [
        {
          "internalType": "uint256",
          "name": "",
          "type": "uint256"
        }
      ],
      "stateMutability": "view",
      "type": "function"
    },
    {
      "inputs": [
        {
          "internalType": "address",
          "name": "from",
          "type": "address"
        },
        {
          "internalType": "uint256",
          "name": "amount",
          "type": "uint256"
        },
        {
          "internalType": "string",
          "name": "reason",
          "type": "string"
        }
      ],
      "name": "burn",
      "outputs": [],
      "stateMutability": "nonpayable",
      "type": "function"
    },
    {
      "inputs": [
        {
          "internalType": "uint256",
          "name": "amount",
          "type": "uint256"
        },
        {
          "internalType": "string",
          "name": "reason",
          "type": "string"
        }
      ],
      "name": "burnMyTokens",
      "outputs": [],
      "stateMutability": "nonpayable",
      "type": "function"
    },
    {
      "inputs": [
        {
          "internalType": "address",
          "name": "account",
          "type": "address"
        },
        {
          "internalType": "uint32",
          "name": "pos",
          "type": "uint32"
        }
      ],
      "name": "checkpoints",
      "outputs": [
        {
          "components": [
            {
              "internalType": "uint32",
              "name": "fromBlock",
              "type": "uint32"
            },
            {
              "internalType": "uint224",
              "name": "votes",
              "type": "uint224"
            }
          ],
          "internalType": "struct ERC20Votes.Checkpoint",
          "name": "",
          "type": "tuple"
        }
      ],
      "stateMutability": "view",
      "type": "function"
    },
    {
      "inputs": [],
      "name": "clock",
      "outputs": [
        {
          "internalType": "uint48",
          "name": "",
          "type": "uint48"
        }
      ],
      "stateMutability": "view",
      "type": "function"
    },
    {
      "inputs": [],
      "name": "communityDAOAddress",
      "outputs": [
        {
          "internalType": "address",
          "name": "",
          "type": "address"
        }
      ],
      "stateMutability": "view",
      "type": "function"
    },
    {
      "inputs": [],
      "name": "creatorPoolAddress",
      "outputs": [
        {
          "internalType": "address",
          "name": "",
          "type": "address"
        }
      ],
      "stateMutability": "view",
      "type": "function"
    },
    {
      "inputs": [],
      "name": "decimals",
      "outputs": [
        {
          "internalType": "uint8",
          "name": "",
          "type": "uint8"
        }
      ],
      "stateMutability": "pure",
      "type": "function"
    },
    {
      "inputs": [
        {
          "internalType": "address",
          "name": "spender",
          "type": "address"
        },
        {
          "internalType": "uint256",
          "name": "subtractedValue",
          "type": "uint256"
        }
      ],
      "name": "decreaseAllowance",
      "outputs": [
        {
          "internalType": "bool",
          "name": "",
          "type": "bool"
        }
      ],
      "stateMutability": "nonpayable",
      "type": "function"
    },
    {
      "inputs": [
        {
          "internalType": "address",
          "name": "delegatee",
          "type": "address"
        }
      ],
      "name": "delegate",
      "outputs": [],
      "stateMutability": "nonpayable",
      "type": "function"
    },
    {
      "inputs": [
        {
          "internalType": "address",
          "name": "delegatee",
          "type": "address"
        },
        {
          "internalType": "uint256",
          "name": "nonce",
          "type": "uint256"
        },
        {
          "internalType": "uint256",
          "name": "expiry",
          "type": "uint256"
        },
        {
          "internalType": "uint8",
          "name": "v",
          "type": "uint8"
        },
        {
          "internalType": "bytes32",
          "name": "r",
          "type": "bytes32"
        },
        {
          "internalType": "bytes32",
          "name": "s",
          "type": "bytes32"
        }
      ],
      "name": "delegateBySig",
      "outputs": [],
      "stateMutability": "nonpayable",
      "type": "function"
    },
    {
      "inputs": [
        {
          "internalType": "address",
          "name": "account",
          "type": "address"
        }
      ],
      "name": "delegates",
      "outputs": [
        {
          "internalType": "address",
          "name": "",
          "type": "address"
        }
      ],
      "stateMutability": "view",
      "type": "function"
    },
    {
      "inputs": [
        {
          "internalType": "enum Xenara.BackingAsset",
          "name": "asset",
          "type": "uint8"
        },
        {
          "internalType": "uint256",
          "name": "amount",
          "type": "uint256"
        }
      ],
      "name": "depositBacking",
      "outputs": [],
      "stateMutability": "nonpayable",
      "type": "function"
    },
    {
      "inputs": [
        {
          "internalType": "address",
          "name": "to",
          "type": "address"
        },
        {
          "internalType": "uint256",
          "name": "amount",
          "type": "uint256"
        },
        {
          "internalType": "string",
          "name": "description",
          "type": "string"
        }
      ],
      "name": "distributeRoyalty",
      "outputs": [],
      "stateMutability": "nonpayable",
      "type": "function"
    },
    {
      "inputs": [],
      "name": "eip712Domain",
      "outputs": [
        {
          "internalType": "bytes1",
          "name": "fields",
          "type": "bytes1"
        },
        {
          "internalType": "string",
          "name": "name",
          "type": "string"
        },
        {
          "internalType": "string",
          "name": "version",
          "type": "string"
        },
        {
          "internalType": "uint256",
          "name": "chainId",
          "type": "uint256"
        },
        {
          "internalType": "address",
          "name": "verifyingContract",
          "type": "address"
        },
        {
          "internalType": "bytes32",
          "name": "salt",
          "type": "bytes32"
        },
        {
          "internalType": "uint256[]",
          "name": "extensions",
          "type": "uint256[]"
        }
      ],
      "stateMutability": "view",
      "type": "function"
    },
    {
      "inputs": [
        {
          "internalType": "address",
          "name": "token",
          "type": "address"
        },
        {
          "internalType": "address",
          "name": "to",
          "type": "address"
        },
        {
          "internalType": "uint256",
          "name": "amount",
          "type": "uint256"
        }
      ],
      "name": "emergencyRecoverERC20",
      "outputs": [],
      "stateMutability": "nonpayable",
      "type": "function"
    },
    {
      "inputs": [
        {
          "internalType": "enum Xenara.BackingAsset",
          "name": "asset",
          "type": "uint8"
        }
      ],
      "name": "getAssetInfo",
      "outputs": [
        {
          "components": [
            {
              "internalType": "contract IERC20",
              "name": "token",
              "type": "address"
            },
            {
              "internalType": "uint256",
              "name": "amount",
              "type": "uint256"
            },
            {
              "internalType": "uint256",
              "name": "priceUSD",
              "type": "uint256"
            },
            {
              "internalType": "bool",
              "name": "registered",
              "type": "bool"
            },
            {
              "internalType": "uint256",
              "name": "targetPercentage",
              "type": "uint256"
            }
          ],
          "internalType": "struct Xenara.AssetInfo",
          "name": "",
          "type": "tuple"
        }
      ],
      "stateMutability": "view",
      "type": "function"
    },
    {
      "inputs": [],
      "name": "getBackingRatios",
      "outputs": [
        {
          "internalType": "uint256",
          "name": "silverRatio",
          "type": "uint256"
        },
        {
          "internalType": "uint256",
          "name": "goldRatio",
          "type": "uint256"
        },
        {
          "internalType": "uint256",
          "name": "stonesRatio",
          "type": "uint256"
        }
      ],
      "stateMutability": "view",
      "type": "function"
    },
    {
      "inputs": [
        {
          "internalType": "uint256",
          "name": "timepoint",
          "type": "uint256"
        }
      ],
      "name": "getPastTotalSupply",
      "outputs": [
        {
          "internalType": "uint256",
          "name": "",
          "type": "uint256"
        }
      ],
      "stateMutability": "view",
      "type": "function"
    },
    {
      "inputs": [
        {
          "internalType": "address",
          "name": "account",
          "type": "address"
        },
        {
          "internalType": "uint256",
          "name": "timepoint",
          "type": "uint256"
        }
      ],
      "name": "getPastVotes",
      "outputs": [
        {
          "internalType": "uint256",
          "name": "",
          "type": "uint256"
        }
      ],
      "stateMutability": "view",
      "type": "function"
    },
    {
      "inputs": [
        {
          "internalType": "bytes32",
          "name": "role",
          "type": "bytes32"
        }
      ],
      "name": "getRoleAdmin",
      "outputs": [
        {
          "internalType": "bytes32",
          "name": "",
          "type": "bytes32"
        }
      ],
      "stateMutability": "view",
      "type": "function"
    },
    {
      "inputs": [
        {
          "internalType": "address",
          "name": "account",
          "type": "address"
        }
      ],
      "name": "getVotes",
      "outputs": [
        {
          "internalType": "uint256",
          "name": "",
          "type": "uint256"
        }
      ],
      "stateMutability": "view",
      "type": "function"
    },
    {
      "inputs": [
        {
          "internalType": "bytes32",
          "name": "role",
          "type": "bytes32"
        },
        {
          "internalType": "address",
          "name": "account",
          "type": "address"
        }
      ],
      "name": "grantRole",
      "outputs": [],
      "stateMutability": "nonpayable",
      "type": "function"
    },
    {
      "inputs": [
        {
          "internalType": "bytes32",
          "name": "role",
          "type": "bytes32"
        },
        {
          "internalType": "address",
          "name": "account",
          "type": "address"
        }
      ],
      "name": "hasRole",
      "outputs": [
        {
          "internalType": "bool",
          "name": "",
          "type": "bool"
        }
      ],
      "stateMutability": "view",
      "type": "function"
    },
    {
      "inputs": [
        {
          "internalType": "address",
          "name": "spender",
          "type": "address"
        },
        {
          "internalType": "uint256",
          "name": "addedValue",
          "type": "uint256"
        }
      ],
      "name": "increaseAllowance",
      "outputs": [
        {
          "internalType": "bool",
          "name": "",
          "type": "bool"
        }
      ],
      "stateMutability": "nonpayable",
      "type": "function"
    },
    {
      "inputs": [
        {
          "internalType": "address",
          "name": "to",
          "type": "address"
        },
        {
          "internalType": "uint256",
          "name": "amount",
          "type": "uint256"
        },
        {
          "internalType": "string",
          "name": "reason",
          "type": "string"
        }
      ],
      "name": "mint",
      "outputs": [],
      "stateMutability": "nonpayable",
      "type": "function"
    },
    {
      "inputs": [],
      "name": "name",
      "outputs": [
        {
          "internalType": "string",
          "name": "",
          "type": "string"
        }
      ],
      "stateMutability": "view",
      "type": "function"
    },
    {
      "inputs": [
        {
          "internalType": "address",
          "name": "owner",
          "type": "address"
        }
      ],
      "name": "nonces",
      "outputs": [
        {
          "internalType": "uint256",
          "name": "",
          "type": "uint256"
        }
      ],
      "stateMutability": "view",
      "type": "function"
    },
    {
      "inputs": [
        {
          "internalType": "address",
          "name": "account",
          "type": "address"
        }
      ],
      "name": "numCheckpoints",
      "outputs": [
        {
          "internalType": "uint32",
          "name": "",
          "type": "uint32"
        }
      ],
      "stateMutability": "view",
      "type": "function"
    },
    {
      "inputs": [],
      "name": "pause",
      "outputs": [],
      "stateMutability": "nonpayable",
      "type": "function"
    },
    {
      "inputs": [],
      "name": "paused",
      "outputs": [
        {
          "internalType": "bool",
          "name": "",
          "type": "bool"
        }
      ],
      "stateMutability": "view",
      "type": "function"
    },
    {
      "inputs": [
        {
          "internalType": "address",
          "name": "owner",
          "type": "address"
        },
        {
          "internalType": "address",
          "name": "spender",
          "type": "address"
        },
        {
          "internalType": "uint256",
          "name": "value",
          "type": "uint256"
        },
        {
          "internalType": "uint256",
          "name": "deadline",
          "type": "uint256"
        },
        {
          "internalType": "uint8",
          "name": "v",
          "type": "uint8"
        },
        {
          "internalType": "bytes32",
          "name": "r",
          "type": "bytes32"
        },
        {
          "internalType": "bytes32",
          "name": "s",
          "type": "bytes32"
        }
      ],
      "name": "permit",
      "outputs": [],
      "stateMutability": "nonpayable",
      "type": "function"
    },
    {
      "inputs": [],
      "name": "publicAddress",
      "outputs": [
        {
          "internalType": "address",
          "name": "",
          "type": "address"
        }
      ],
      "stateMutability": "view",
      "type": "function"
    },
    {
      "inputs": [],
      "name": "rebalanceBacking",
      "outputs": [],
      "stateMutability": "nonpayable",
      "type": "function"
    },
    {
      "inputs": [
        {
          "internalType": "enum Xenara.BackingAsset",
          "name": "asset",
          "type": "uint8"
        },
        {
          "internalType": "address",
          "name": "token",
          "type": "address"
        }
      ],
      "name": "registerBackingToken",
      "outputs": [],
      "stateMutability": "nonpayable",
      "type": "function"
    },
    {
      "inputs": [
        {
          "internalType": "bytes32",
          "name": "role",
          "type": "bytes32"
        },
        {
          "internalType": "address",
          "name": "account",
          "type": "address"
        }
      ],
      "name": "renounceRole",
      "outputs": [],
      "stateMutability": "nonpayable",
      "type": "function"
    },
    {
      "inputs": [],
      "name": "reserveAddress",
      "outputs": [
        {
          "internalType": "address",
          "name": "",
          "type": "address"
        }
      ],
      "stateMutability": "view",
      "type": "function"
    },
    {
      "inputs": [
        {
          "internalType": "bytes32",
          "name": "role",
          "type": "bytes32"
        },
        {
          "internalType": "address",
          "name": "account",
          "type": "address"
        }
      ],
      "name": "revokeRole",
      "outputs": [],
      "stateMutability": "nonpayable",
      "type": "function"
    },
    {
      "inputs": [
        {
          "internalType": "address",
          "name": "",
          "type": "address"
        }
      ],
      "name": "royaltyEarned",
      "outputs": [
        {
          "internalType": "uint256",
          "name": "",
          "type": "uint256"
        }
      ],
      "stateMutability": "view",
      "type": "function"
    },
    {
      "inputs": [],
      "name": "royaltyManagerAddress",
      "outputs": [
        {
          "internalType": "address",
          "name": "",
          "type": "address"
        }
      ],
      "stateMutability": "view",
      "type": "function"
    },
    {
      "inputs": [
        {
          "internalType": "enum Xenara.BackingAsset",
          "name": "asset",
          "type": "uint8"
        },
        {
          "internalType": "uint256",
          "name": "priceUSD",
          "type": "uint256"
        }
      ],
      "name": "setAssetPriceUSD",
      "outputs": [],
      "stateMutability": "nonpayable",
      "type": "function"
    },
    {
      "inputs": [
        {
          "internalType": "bytes4",
          "name": "interfaceId",
          "type": "bytes4"
        }
      ],
      "name": "supportsInterface",
      "outputs": [
        {
          "internalType": "bool",
          "name": "",
          "type": "bool"
        }
      ],
      "stateMutability": "view",
      "type": "function"
    },
    {
      "inputs": [],
      "name": "symbol",
      "outputs": [
        {
          "internalType": "string",
          "name": "",
          "type": "string"
        }
      ],
      "stateMutability": "view",
      "type": "function"
    },
    {
      "inputs": [],
      "name": "totalBackingValueUSD",
      "outputs": [
        {
          "internalType": "uint256",
          "name": "",
          "type": "uint256"
        }
      ],
      "stateMutability": "view",
      "type": "function"
    },
    {
      "inputs": [],
      "name": "totalRoyaltyDistributed",
      "outputs": [
        {
          "internalType": "uint256",
          "name": "",
          "type": "uint256"
        }
      ],
      "stateMutability": "view",
      "type": "function"
    },
    {
      "inputs": [],
      "name": "totalSupply",
      "outputs": [
        {
          "internalType": "uint256",
          "name": "",
          "type": "uint256"
        }
      ],
      "stateMutability": "view",
      "type": "function"
    },
    {
      "inputs": [
        {
          "internalType": "address",
          "name": "to",
          "type": "address"
        },
        {
          "internalType": "uint256",
          "name": "amount",
          "type": "uint256"
        }
      ],
      "name": "transfer",
      "outputs": [
        {
          "internalType": "bool",
          "name": "",
          "type": "bool"
        }
      ],
      "stateMutability": "nonpayable",
      "type": "function"
    },
    {
      "inputs": [
        {
          "internalType": "address",
          "name": "from",
          "type": "address"
        },
        {
          "internalType": "address",
          "name": "to",
          "type": "address"
        },
        {
          "internalType": "uint256",
          "name": "amount",
          "type": "uint256"
        }
      ],
      "name": "transferFrom",
      "outputs": [
        {
          "internalType": "bool",
          "name": "",
          "type": "bool"
        }
      ],
      "stateMutability": "nonpayable",
      "type": "function"
    },
    {
      "inputs": [],
      "name": "unpause",
      "outputs": [],
      "stateMutability": "nonpayable",
      "type": "function"
    },
    {
      "inputs": [
        {
          "internalType": "enum Xenara.BackingAsset",
          "name": "asset",
          "type": "uint8"
        },
        {
          "internalType": "address",
          "name": "to",
          "type": "address"
        },
        {
          "internalType": "uint256",
          "name": "amount",
          "type": "uint256"
        }
      ],
      "name": "withdrawBacking",
      "outputs": [],
      "stateMutability": "nonpayable",
      "type": "function"
    }
  ],
  "bytecode": "0x61016060405234801561001157600080fd5b5060405161570938038061570983398101604081905261003091610d44565b6040805180820190915260018152603160f81b602082015288908190818a600361005a8382610e99565b5060046100678282610e99565b50610077915083905060056103d1565b610120526100868160066103d1565b61014052815160208084019190912060e052815190820120610100524660a05261011360e05161010051604080517f8b73c3c69bb8fe3d512ecc4cf759cc79239f7b179b0ffacaa9a75d522b39400f60208201529081019290925260608201524660808201523060a082015260009060c00160405160208183030381529060405280519060200120905090565b60805250503060c05250600d805460ff191690556001600160a01b038616158061014457506001600160a01b038516155b8061015657506001600160a01b038416155b8061016857506001600160a01b038316155b8061017a57506001600160a01b038216155b8061018c57506001600160a01b038116155b156101aa5760405163d92e233d60e01b815260040160405180910390fd5b600d8054610100600160a81b0319166101006001600160a01b038981169190910291909117909155600e80546001600160a01b031990811688841617909155600f805482168784161790556010805482168684161790556011805490911691841691909117905560126020526113887f7e7fa33969761a458e04f477e039a608702b4f924981d6653935a8319a08ad7f55610bb87f71a67924699a20698523213e55fe499d539379d7769cd5567e2c45d583f815a755600260009081526107d07f8e1fee8c88a9e04123b21e90cae2727a7715bf522a1e46eb5934ccd05203a6b6556102969033610404565b6102c07f9f2df0fed2c77648de5860a4cc508cd0818c85b8b8a1ab4ceeef8d981c8956a633610404565b6102ea7f3c11d16cbaffd01df69ce1c404f6340ee057498f5f00246190ea54220576a84833610404565b6103147f65d7a28e3265b37a6474929f336521b332c1681b933f6cb9f3376673440d862a33610404565b61033e7faa9060660dc3e52152ec6c4cd87f38f5433d3e2246058f23a29463ea3247681733610404565b6103687f4c845bd8367732455594e4267d2660f9c3f2cbb53288e8c2f3ec69276e9a440a83610404565b6103927f71840dc4906352362b0cdaf79870196c8e42acafade72d5d5a6d59291253ceb182610404565b6103bc7f0acf805600123ef007091da3b3ffb39474074c656c127aa68cb0ffec232a8ff833610404565b6103c46104a7565b5050505050505050611023565b60006020835110156103ed576103e6836105f9565b90506103fe565b816103f88482610e99565b5060ff90505b92915050565b6000828152600c602090815260408083206001600160a01b038516845290915290205460ff166104a3576000828152600c602090815260408083206001600160a01b03851684529091529020805460ff191660011790556104623390565b6001600160a01b0316816001600160a01b0316837f2f8788117e7eff1d82e926ec794901d17c78024a50270940304540a733656f0d60405160405180910390a45b5050565b60006127106104c46113886b019d971e4fe8401e74000000610f6d565b6104ce9190610f84565b905060006127106104ed6109c46b019d971e4fe8401e74000000610f6d565b6104f79190610f84565b905060006127106105166105dc6b019d971e4fe8401e74000000610f6d565b6105209190610f84565b9050600061271061053f6103e86b019d971e4fe8401e74000000610f6d565b6105499190610f84565b90506b019d971e4fe8401e7400000081836105648688610fa6565b61056e9190610fa6565b6105789190610fa6565b1461059657604051630d16b83360e31b815260040160405180910390fd5b600d546105b19061010090046001600160a01b031685610640565b600e546105c7906001600160a01b031684610640565b600f546105dd906001600160a01b031683610640565b6010546105f3906001600160a01b031682610640565b50505050565b600080829050601f8151111561062d578260405163305a27a960e01b81526004016106249190610fb9565b60405180910390fd5b805161063882610fec565b179392505050565b6104a3828261064f82826106dd565b6001600160e01b036106616107b08216565b11156106c85760405162461bcd60e51b815260206004820152603060248201527f4552433230566f7465733a20746f74616c20737570706c79207269736b73206f60448201526f766572666c6f77696e6720766f74657360801b6064820152608401610624565b6105f3600b6125ef6107b660201b17836107c9565b6001600160a01b0382166107335760405162461bcd60e51b815260206004820152601f60248201527f45524332303a206d696e7420746f20746865207a65726f2061646472657373006044820152606401610624565b61073f60008383610941565b80600260008282546107519190610fa6565b90915550506001600160a01b038216600081815260208181526040808320805486019055518481527fddf252ad1be2c89b69c2b068fc378daa952ba7f163c4a11628f55a4df523b3ef910160405180910390a36104a360008383610960565b60025490565b60006107c28284610fa6565b9392505050565b825460009081908181156108165760008781526020902082016000190160408051808201909152905463ffffffff8116825264010000000090046001600160e01b0316602082015261082b565b60408051808201909152600080825260208201525b905080602001516001600160e01b0316935061084884868860201c565b9250600082118015610872575061085d61096b565b65ffffffffffff16816000015163ffffffff16145b156108b7576108808361097b565b60008881526020902083016000190180546001600160e01b03929092166401000000000263ffffffff909216919091179055610937565b8660405180604001604052806108e16108d461096b60201b60201c565b65ffffffffffff166109e8565b63ffffffff1681526020016108f58661097b565b6001600160e01b0390811690915282546001810184556000938452602093849020835194909301519091166401000000000263ffffffff909316929092179101555b5050935093915050565b610949610a4d565b61095b8383836001600160e01b038416565b505050565b61095b838383610a95565b600061097643610ac7565b905090565b60006001600160e01b038211156109e45760405162461bcd60e51b815260206004820152602760248201527f53616665436173743a2076616c756520646f65736e27742066697420696e20326044820152663234206269747360c81b6064820152608401610624565b5090565b600063ffffffff8211156109e45760405162461bcd60e51b815260206004820152602660248201527f53616665436173743a2076616c756520646f65736e27742066697420696e203360448201526532206269747360d01b6064820152608401610624565b600d5460ff1615610a935760405162461bcd60e51b815260206004820152601060248201526f14185d5cd8589b194e881c185d5cd95960821b6044820152606401610624565b565b6001600160a01b0383811660009081526009602052604080822054858416835291205461095b92918216911683610b2e565b600065ffffffffffff8211156109e45760405162461bcd60e51b815260206004820152602660248201527f53616665436173743a2076616c756520646f65736e27742066697420696e203460448201526538206269747360d01b6064820152608401610624565b816001600160a01b0316836001600160a01b031614158015610b505750600081115b1561095b576001600160a01b03831615610bd5576001600160a01b0383166000908152600a6020908152604082208291610b949190610c59901b6125fb17856107c9565b91509150846001600160a01b03166000805160206156e98339815191528383604051610bca929190918252602082015260400190565b60405180910390a250505b6001600160a01b0382161561095b576001600160a01b0382166000908152600a6020908152604082208291610c1491906107b6901b6125ef17856107c9565b91509150836001600160a01b03166000805160206156e98339815191528383604051610c4a929190918252602082015260400190565b60405180910390a25050505050565b60006107c28284611010565b634e487b7160e01b600052604160045260246000fd5b60005b83811015610c96578181015183820152602001610c7e565b50506000910152565b600082601f830112610cb057600080fd5b81516001600160401b03811115610cc957610cc9610c65565b604051601f8201601f19908116603f011681016001600160401b0381118282101715610cf757610cf7610c65565b604052818152838201602001851015610d0f57600080fd5b610d20826020830160208701610c7b565b949350505050565b80516001600160a01b0381168114610d3f57600080fd5b919050565b600080600080600080600080610100898b031215610d6157600080fd5b88516001600160401b03811115610d7757600080fd5b610d838b828c01610c9f565b60208b015190995090506001600160401b03811115610da157600080fd5b610dad8b828c01610c9f565b975050610dbc60408a01610d28565b9550610dca60608a01610d28565b9450610dd860808a01610d28565b9350610de660a08a01610d28565b9250610df460c08a01610d28565b9150610e0260e08a01610d28565b90509295985092959890939650565b600181811c90821680610e2557607f821691505b602082108103610e4557634e487b7160e01b600052602260045260246000fd5b50919050565b601f82111561095b57806000526020600020601f840160051c81016020851015610e725750805b601f840160051c820191505b81811015610e925760008155600101610e7e565b5050505050565b81516001600160401b03811115610eb257610eb2610c65565b610ec681610ec08454610e11565b84610e4b565b6020601f821160018114610efa5760008315610ee25750848201515b600019600385901b1c1916600184901b178455610e92565b600084815260208120601f198516915b82811015610f2a5787850151825560209485019460019092019101610f0a565b5084821015610f485786840151600019600387901b60f8161c191681555b50505050600190811b01905550565b634e487b7160e01b600052601160045260246000fd5b80820281158282048414176103fe576103fe610f57565b600082610fa157634e487b7160e01b600052601260045260246000fd5b500490565b808201808211156103fe576103fe610f57565b6020815260008251806020840152610fd8816040850160208701610c7b565b601f01601f19169190910160400192915050565b80516020808301519190811015610e455760001960209190910360031b1b16919050565b818103818111156103fe576103fe610f57565b60805160a05160c05160e05161010051610120516101405161466c61107d60003960006116e6015260006116bb01526000612b1001526000612ae801526000612a4301526000612a6d01526000612a97015261466c6000f3fe608060405234801561001057600080fd5b50600436106104285760003560e01c80637ecebe001161022b578063c69def0b11610130578063e07495e3116100b8578063eb8f4c4a11610087578063eb8f4c4a146109b2578063f1127ed8146109c5578063f36c8f5c14610a02578063f676f33114610a29578063f79ed94b14610a4157600080fd5b8063e07495e31461095c578063e4830c321461096f578063e63ab1e914610982578063eb09f72a146109a957600080fd5b8063d505accf116100ff578063d505accf146108f4578063d539139314610907578063d547741f1461092e578063dd62ed3e14610941578063dfef15b81461095457600080fd5b8063c69def0b1461086a578063c8c7fe6b1461087d578063d3060a33146108d8578063d3fc9864146108e157600080fd5b806395d89b41116101b3578063a457c2d711610182578063a457c2d714610816578063a9059cbb14610829578063a978d8df1461083c578063ae621bbe1461084f578063c3cda5201461085757600080fd5b806395d89b41146107e05780639ab24eb0146107e8578063a217fddf146107fb578063a34cea081461080357600080fd5b80638e539e8c116101fa5780638e539e8c14610788578063902d55a5146105b357806391d148541461079b57806391ddadf4146107ae57806391ee2a3d146107cd57600080fd5b80637ecebe00146107325780638266efc3146107455780638456cb591461076557806384b0196e1461076d57600080fd5b806336568abe116103315780635c975abb116102b957806370a082311161028857806370a08231146106e4578063714a617a1461070d5780637479215314610716578063784cafba1461071f57806378702fdc1461066a57600080fd5b80635c975abb14610686578063621c0fbe1461069157806369a87e15146106b45780636fcfff45146106bc57600080fd5b80634bf5d7e9116103005780634bf5d7e91461060f57806358456fb514610617578063587cde1e1461063e5780635a174fff1461066a5780635c19a95c1461067357600080fd5b806336568abe146105ce57806339509351146105e15780633a46b1a8146105f45780633f4ba83a1461060757600080fd5b806323b872dd116103b457806330bcd6791161038357806330bcd6791461056a578063313ce5671461057d57806331993a1c1461058c57806332cb6b0c146105b35780633644e515146105c657600080fd5b806323b872dd146104fa578063248a9ca31461050d578063282c51f3146105305780632f2ff15d1461055757600080fd5b8063095ea7b3116103fb578063095ea7b31461048a578063142b01b01461049d57806315e98e73146104c857806315f570dc146104dd57806318160ddd146104f257600080fd5b806301ffc9a71461042d57806302ae844c1461045557806304eaef4f1461046c57806306fdde0314610475575b600080fd5b61044061043b366004613f3f565b610a54565b60405190151581526020015b60405180910390f35b61045e6103e881565b60405190815260200161044c565b61045e610bb881565b61047d610a8b565b60405161044c9190613fb9565b610440610498366004613fe8565b610b1d565b6010546104b0906001600160a01b031681565b6040516001600160a01b03909116815260200161044c565b61045e60008051602061461783398151915281565b6104f06104eb3660046140b7565b610b35565b005b60025461045e565b61044061050836600461410e565b610c41565b61045e61051b36600461414b565b6000908152600c602052604090206001015490565b61045e7f3c11d16cbaffd01df69ce1c404f6340ee057498f5f00246190ea54220576a84881565b6104f0610565366004614164565b610c65565b600e546104b0906001600160a01b031681565b6040516012815260200161044c565b61045e7f0acf805600123ef007091da3b3ffb39474074c656c127aa68cb0ffec232a8ff881565b61045e6b019d971e4fe8401e7400000081565b61045e610c8f565b6104f06105dc366004614164565b610c9e565b6104406105ef366004613fe8565b610d21565b61045e610602366004613fe8565b610d43565b6104f0610dc8565b61047d610dfd565b61045e7f4c845bd8367732455594e4267d2660f9c3f2cbb53288e8c2f3ec69276e9a440a81565b6104b061064c366004614190565b6001600160a01b039081166000908152600960205260409020541690565b61045e61138881565b6104f0610681366004614190565b610e95565b600d5460ff16610440565b610699610e9f565b6040805193845260208401929092529082015260600161044c565b6104f06111a0565b6106cf6106ca366004614190565b6114ec565b60405163ffffffff909116815260200161044c565b61045e6106f2366004614190565b6001600160a01b031660009081526020819052604090205490565b61045e60135481565b61045e6105dc81565b6104f061072d3660046140b7565b61150e565b61045e610740366004614190565b61165d565b61045e610753366004614190565b60146020526000908152604090205481565b6104f061167b565b6107756116ad565b60405161044c97969594939291906141ab565b61045e61079636600461414b565b611736565b6104406107a9366004614164565b61179d565b6107b66117c8565b60405165ffffffffffff909116815260200161044c565b6104f06107db366004614252565b6117d3565b61047d611932565b61045e6107f6366004614190565b611941565b61045e600081565b6104f061081136600461426e565b6119c3565b610440610824366004613fe8565b611bc7565b610440610837366004613fe8565b611c42565b6104f061084a366004614252565b611c50565b61045e611d4b565b6104f061086536600461429d565b611e22565b6104f06108783660046142f5565b611f58565b61089061088b36600461431f565b61208a565b60405161044c919081516001600160a01b0316815260208083015190820152604080830151908201526060808301511515908201526080918201519181019190915260a00190565b61045e6107d081565b6104f06108ef3660046140b7565b61214c565b6104f061090236600461433a565b61224b565b61045e7f9f2df0fed2c77648de5860a4cc508cd0818c85b8b8a1ab4ceeef8d981c8956a681565b6104f061093c366004614164565b6123af565b61045e61094f3660046143a5565b6123d4565b61045e6123ff565b6104f061096a3660046143c1565b612456565b6011546104b0906001600160a01b031681565b61045e7f65d7a28e3265b37a6474929f336521b332c1681b933f6cb9f3376673440d862a81565b61045e6109c481565b6104f06109c036600461410e565b612500565b6109d86109d3366004614408565b61256b565b60408051825163ffffffff1681526020928301516001600160e01b0316928101929092520161044c565b61045e7f71840dc4906352362b0cdaf79870196c8e42acafade72d5d5a6d59291253ceb181565b600d546104b09061010090046001600160a01b031681565b600f546104b0906001600160a01b031681565b60006001600160e01b03198216637965db0b60e01b1480610a8557506301ffc9a760e01b6001600160e01b03198316145b92915050565b606060038054610a9a90614448565b80601f0160208091040260200160405190810160405280929190818152602001828054610ac690614448565b8015610b135780601f10610ae857610100808354040283529160200191610b13565b820191906000526020600020905b815481529060010190602001808311610af657829003601f168201915b5050505050905090565b600033610b2b818585612607565b5060019392505050565b7f3c11d16cbaffd01df69ce1c404f6340ee057498f5f00246190ea54220576a848610b5f8161272b565b610b67612735565b6001600160a01b038416610b8e5760405163d92e233d60e01b815260040160405180910390fd5b82600003610baf57604051631f2a200560e01b815260040160405180910390fd5b82610bcf856001600160a01b031660009081526020819052604090205490565b1015610bee57604051631e9acf1760e31b815260040160405180910390fd5b610bf8848461277d565b836001600160a01b03167ffad31924d655455395c87544c8aa1ffdb5a7505a22a3c2e03f28003b6556a75f8484604051610c3392919061447c565b60405180910390a250505050565b600033610c4f858285612787565b610c5a8585856127fb565b506001949350505050565b6000828152600c6020526040902060010154610c808161272b565b610c8a83836129b0565b505050565b6000610c99612a36565b905090565b6001600160a01b0381163314610d135760405162461bcd60e51b815260206004820152602f60248201527f416363657373436f6e74726f6c3a2063616e206f6e6c792072656e6f756e636560448201526e103937b632b9903337b91039b2b63360891b60648201526084015b60405180910390fd5b610d1d8282612b61565b5050565b600033610b2b818585610d3483836123d4565b610d3e91906144ab565b612607565b6000610d4d6117c8565b65ffffffffffff168210610d9f5760405162461bcd60e51b815260206004820152601960248201527804552433230566f7465733a20667574757265206c6f6f6b757603c1b6044820152606401610d0a565b6001600160a01b0383166000908152600a60205260409020610dc19083612bc8565b9392505050565b7f65d7a28e3265b37a6474929f336521b332c1681b933f6cb9f3376673440d862a610df28161272b565b610dfa612cb1565b50565b606043610e086117c8565b65ffffffffffff1614610e5d5760405162461bcd60e51b815260206004820152601d60248201527f4552433230566f7465733a2062726f6b656e20636c6f636b206d6f64650000006044820152606401610d0a565b5060408051808201909152601d81527f6d6f64653d626c6f636b6e756d6265722666726f6d3d64656661756c74000000602082015290565b610dfa3382612d03565b600080600080610ead611d4b565b905080600003610ec557506000938493508392509050565b6000805260126020527f7e7fa33969761a458e04f477e039a608702b4f924981d6653935a8319a08ad7e5460ff168015610f2857506000805260126020527f7e7fa33969761a458e04f477e039a608702b4f924981d6653935a8319a08ad7d5415155b610f33576000610fb2565b610f4581670de0b6b3a76400006144d4565b6000805260126020527f7e7fa33969761a458e04f477e039a608702b4f924981d6653935a8319a08ad7d547f7e7fa33969761a458e04f477e039a608702b4f924981d6653935a8319a08ad7c54610f9c91906144d4565b610fa8906127106144d4565b610fb29190614501565b600160005260126020527f71a67924699a20698523213e55fe499d539379d7769cd5567e2c45d583f815a65490945060ff16801561101a5750600160005260126020527f71a67924699a20698523213e55fe499d539379d7769cd5567e2c45d583f815a55415155b6110255760006110a5565b61103781670de0b6b3a76400006144d4565b600160005260126020527f71a67924699a20698523213e55fe499d539379d7769cd5567e2c45d583f815a5547f71a67924699a20698523213e55fe499d539379d7769cd5567e2c45d583f815a45461108f91906144d4565b61109b906127106144d4565b6110a59190614501565b600260005260126020527f8e1fee8c88a9e04123b21e90cae2727a7715bf522a1e46eb5934ccd05203a6b55490935060ff16801561110d5750600260005260126020527f8e1fee8c88a9e04123b21e90cae2727a7715bf522a1e46eb5934ccd05203a6b45415155b611118576000611198565b61112a81670de0b6b3a76400006144d4565b600260005260126020527f8e1fee8c88a9e04123b21e90cae2727a7715bf522a1e46eb5934ccd05203a6b4547f8e1fee8c88a9e04123b21e90cae2727a7715bf522a1e46eb5934ccd05203a6b35461118291906144d4565b61118e906127106144d4565b6111989190614501565b915050909192565b6000805160206146178339815191526111b88161272b565b60006111c2611d4b565b9050806000036111d0575050565b60005b60038160ff161015610c8a5760008160ff1660028111156111f6576111f66144be565b90506012600082600281111561120e5761120e6144be565b600281111561121f5761121f6144be565b815260208101919091526040016000206003015460ff16801561127a5750600060126000836002811115611255576112556144be565b6002811115611266576112666144be565b815260200190815260200160002060020154115b156114e3576000670de0b6b3a7640000601260008460028111156112a0576112a06144be565b60028111156112b1576112b16144be565b815260200190815260200160002060020154601260008560028111156112d9576112d96144be565b60028111156112ea576112ea6144be565b81526020019081526020016000206001015461130691906144d4565b6113109190614501565b905060006127106012600085600281111561132d5761132d6144be565b600281111561133e5761133e6144be565b8152602001908152602001600020600401548661135b91906144d4565b6113659190614501565b90508082101561142557600060126000856002811115611387576113876144be565b6002811115611398576113986144be565b81526020019081526020016000206002015483836113b69190614523565b6113c890670de0b6b3a76400006144d4565b6113d29190614501565b90508360028111156113e6576113e66144be565b60408051838152600060208201527fd65110790d8a86457f6938787a2fdb76f70816d0f226dfa7a461352767a492bc910160405180910390a2506114e0565b808211156114e057600060126000856002811115611445576114456144be565b6002811115611456576114566144be565b81526020019081526020016000206002015482846114749190614523565b61148690670de0b6b3a76400006144d4565b6114909190614501565b90508360028111156114a4576114a46144be565b6040805160008152602081018490527fd65110790d8a86457f6938787a2fdb76f70816d0f226dfa7a461352767a492bc910160405180910390a2505b50505b506001016111d3565b6001600160a01b0381166000908152600a6020526040812054610a8590612d7c565b7f4c845bd8367732455594e4267d2660f9c3f2cbb53288e8c2f3ec69276e9a440a6115388161272b565b611540612735565b6001600160a01b0384166115675760405163d92e233d60e01b815260040160405180910390fd5b8260000361158857604051631f2a200560e01b815260040160405180910390fd5b600e546001600160a01b03166000908152602081905260409020548311156115c357604051631e9acf1760e31b815260040160405180910390fd5b600e546115da906001600160a01b031685856127fb565b6001600160a01b038416600090815260146020526040812080548592906116029084906144ab565b92505081905550826013600082825461161b91906144ab565b92505081905550836001600160a01b03167fa64886b4e26fcc478f07b32b296c409c4d2cbab1679c533c272e1193efa00aa48484604051610c3392919061447c565b6001600160a01b038116600090815260076020526040812054610a85565b7f65d7a28e3265b37a6474929f336521b332c1681b933f6cb9f3376673440d862a6116a58161272b565b610dfa612de5565b6000606080828080836116e17f00000000000000000000000000000000000000000000000000000000000000006005612e22565b61170c7f00000000000000000000000000000000000000000000000000000000000000006006612e22565b60408051600080825260208201909252600f60f81b9b939a50919850469750309650945092509050565b60006117406117c8565b65ffffffffffff1682106117925760405162461bcd60e51b815260206004820152601960248201527804552433230566f7465733a20667574757265206c6f6f6b757603c1b6044820152606401610d0a565b610a85600b83612bc8565b6000918252600c602090815260408084206001600160a01b0393909316845291905290205460ff1690565b6000610c9943612ecd565b6117db612735565b601260008360028111156117f1576117f16144be565b6002811115611802576118026144be565b815260208101919091526040016000206003015460ff1661183657604051630719d53360e21b815260040160405180910390fd5b8060000361185757604051631f2a200560e01b815260040160405180910390fd5b6118a633308360126000876002811115611873576118736144be565b6002811115611884576118846144be565b81526020810191909152604001600020546001600160a01b0316929190612f34565b80601260008460028111156118bd576118bd6144be565b60028111156118ce576118ce6144be565b8152602081019190915260400160002060010180549091019055338260028111156118fb576118fb6144be565b6040518381527f6a2b04b1f3d5a335c4367fea39bb8807ef0a4fbe77a2772700c8f9c90c1c9a1b9060200160405180910390a35050565b606060048054610a9a90614448565b6001600160a01b0381166000908152600a602052604081205480156119b0576001600160a01b0383166000908152600a602052604090208054600019830190811061198e5761198e614536565b60009182526020909120015464010000000090046001600160e01b03166119b3565b60005b6001600160e01b03169392505050565b6000805160206146178339815191526119db8161272b565b6001600160a01b038316611a025760405163d92e233d60e01b815260040160405180910390fd5b81600003611a2357604051631f2a200560e01b815260040160405180910390fd5b60126000856002811115611a3957611a396144be565b6002811115611a4a57611a4a6144be565b815260208101919091526040016000206003015460ff16611a7e57604051630719d53360e21b815260040160405180910390fd5b8160126000866002811115611a9557611a956144be565b6002811115611aa657611aa66144be565b8152602001908152602001600020600101541015611ad7576040516340db7f8760e01b815260040160405180910390fd5b8160126000866002811115611aee57611aee6144be565b6002811115611aff57611aff6144be565b81526020019081526020016000206001016000828254611b1f9190614523565b90915550611b729050838360126000886002811115611b4057611b406144be565b6002811115611b5157611b516144be565b81526020810191909152604001600020546001600160a01b03169190612f9f565b826001600160a01b0316846002811115611b8e57611b8e6144be565b6040518481527fe3aab926d81700bac87dab01982e77e751c07d1acca11c13ff44aae1193a5f549060200160405180910390a350505050565b60003381611bd582866123d4565b905083811015611c355760405162461bcd60e51b815260206004820152602560248201527f45524332303a2064656372656173656420616c6c6f77616e63652062656c6f77604482015264207a65726f60d81b6064820152608401610d0a565b610c5a8286868403612607565b600033610b2b8185856127fb565b600080516020614617833981519152611c688161272b565b60126000846002811115611c7e57611c7e6144be565b6002811115611c8f57611c8f6144be565b815260208101919091526040016000206003015460ff16611cc357604051630719d53360e21b815260040160405180910390fd5b8160126000856002811115611cda57611cda6144be565b6002811115611ceb57611ceb6144be565b815260200190815260200160002060020181905550826002811115611d1257611d126144be565b6040518381527f2d292c5b6330b5b0f99b665ec1be838ca17cd57eb118fe7a02cc05477b5bd42f906020015b60405180910390a2505050565b600080805b60038160ff161015611e1c5760008160ff166002811115611d7357611d736144be565b9050600060126000836002811115611d8d57611d8d6144be565b6002811115611d9e57611d9e6144be565b81526020810191909152604001600020600381015490915060ff168015611dc9575060008160020154115b8015611dd9575060008160010154115b15611e1257670de0b6b3a764000081600201548260010154611dfb91906144d4565b611e059190614501565b611e0f90856144ab565b93505b5050600101611d50565b50919050565b83421115611e725760405162461bcd60e51b815260206004820152601d60248201527f4552433230566f7465733a207369676e617475726520657870697265640000006044820152606401610d0a565b604080517fe48329057bfd03d55e49b547132e39cffd9c1820ad7b9d4c5307691425d15adf60208201526001600160a01b038816918101919091526060810186905260808101859052600090611eec90611ee49060a00160405160208183030381529060405280519060200120612fcf565b858585612ffc565b9050611ef781613026565b8614611f455760405162461bcd60e51b815260206004820152601960248201527f4552433230566f7465733a20696e76616c6964206e6f6e6365000000000000006044820152606401610d0a565b611f4f8188612d03565b50505050505050565b600080516020614617833981519152611f708161272b565b6001600160a01b038216611f975760405163d92e233d60e01b815260040160405180910390fd5b8160126000856002811115611fae57611fae6144be565b6002811115611fbf57611fbf6144be565b815260200190815260200160002060000160006101000a8154816001600160a01b0302191690836001600160a01b0316021790555060016012600085600281111561200c5761200c6144be565b600281111561201d5761201d6144be565b81526020810191909152604001600020600301805460ff1916911515919091179055826002811115612051576120516144be565b6040516001600160a01b03841681527f561acd69f877decb2be770ca93ef06bb6a9e5d65defa3bace8eab67feecac57290602001611d3e565b6120c76040518060a0016040528060006001600160a01b031681526020016000815260200160008152602001600015158152602001600081525090565b601260008360028111156120dd576120dd6144be565b60028111156120ee576120ee6144be565b81526020808201929092526040908101600020815160a08101835281546001600160a01b03168152600182015493810193909352600281015491830191909152600381015460ff161515606083015260040154608082015292915050565b7f9f2df0fed2c77648de5860a4cc508cd0818c85b8b8a1ab4ceeef8d981c8956a66121768161272b565b61217e612735565b6001600160a01b0384166121a55760405163d92e233d60e01b815260040160405180910390fd5b826000036121c657604051631f2a200560e01b815260040160405180910390fd5b6b019d971e4fe8401e74000000836121dd60025490565b6121e791906144ab565b11156122065760405163c30436e960e01b815260040160405180910390fd5b612210848461304c565b836001600160a01b03167f9d89e36eadf856db0ad9ffb5a569e07f95634dddd9501141ecf04820484ad0dc8484604051610c3392919061447c565b8342111561229b5760405162461bcd60e51b815260206004820152601d60248201527f45524332305065726d69743a206578706972656420646561646c696e650000006044820152606401610d0a565b60007f6e71edae12b1b97f4d1f60370fef10105fa2faae0126114a169c64845d6126c98888886122ca8c613026565b6040805160208101969096526001600160a01b0394851690860152929091166060840152608083015260a082015260c0810186905260e001604051602081830303815290604052805190602001209050600061232582612fcf565b9050600061233582878787612ffc565b9050896001600160a01b0316816001600160a01b0316146123985760405162461bcd60e51b815260206004820152601e60248201527f45524332305065726d69743a20696e76616c6964207369676e617475726500006044820152606401610d0a565b6123a38a8a8a612607565b50505050505050505050565b6000828152600c60205260409020600101546123ca8161272b565b610c8a8383612b61565b6001600160a01b03918216600090815260016020908152604080832093909416825291909152205490565b60008061240a611d4b565b9050600061241760025490565b9050811580612424575080155b156124325760009250505090565b8061244583670de0b6b3a76400006144d4565b61244f9190614501565b9250505090565b61245e612735565b8160000361247f57604051631f2a200560e01b815260040160405180910390fd5b336000908152602081905260409020548211156124af57604051631e9acf1760e31b815260040160405180910390fd5b6124b9338361277d565b336001600160a01b03167ffad31924d655455395c87544c8aa1ffdb5a7505a22a3c2e03f28003b6556a75f83836040516124f492919061447c565b60405180910390a25050565b7f0acf805600123ef007091da3b3ffb39474074c656c127aa68cb0ffec232a8ff861252a8161272b565b6001600160a01b0383166125515760405163d92e233d60e01b815260040160405180910390fd5b6125656001600160a01b0385168484612f9f565b50505050565b60408051808201909152600080825260208201526001600160a01b0383166000908152600a60205260409020805463ffffffff84169081106125af576125af614536565b60009182526020918290206040805180820190915291015463ffffffff8116825264010000000090046001600160e01b0316918101919091529392505050565b6000610dc182846144ab565b6000610dc18284614523565b6001600160a01b0383166126695760405162461bcd60e51b8152602060048201526024808201527f45524332303a20617070726f76652066726f6d20746865207a65726f206164646044820152637265737360e01b6064820152608401610d0a565b6001600160a01b0382166126ca5760405162461bcd60e51b815260206004820152602260248201527f45524332303a20617070726f766520746f20746865207a65726f206164647265604482015261737360f01b6064820152608401610d0a565b6001600160a01b0383811660008181526001602090815260408083209487168084529482529182902085905590518481527f8c5be1e5ebec7d5bd14f71427d1e84f3dd0314c0f7b2291e5b200ac8c7c3b925910160405180910390a3505050565b610dfa8133613056565b600d5460ff161561277b5760405162461bcd60e51b815260206004820152601060248201526f14185d5cd8589b194e881c185d5cd95960821b6044820152606401610d0a565b565b610d1d82826130af565b600061279384846123d4565b9050600019811461256557818110156127ee5760405162461bcd60e51b815260206004820152601d60248201527f45524332303a20696e73756666696369656e7420616c6c6f77616e63650000006044820152606401610d0a565b6125658484848403612607565b6001600160a01b03831661285f5760405162461bcd60e51b815260206004820152602560248201527f45524332303a207472616e736665722066726f6d20746865207a65726f206164604482015264647265737360d81b6064820152608401610d0a565b6001600160a01b0382166128c15760405162461bcd60e51b815260206004820152602360248201527f45524332303a207472616e7366657220746f20746865207a65726f206164647260448201526265737360e81b6064820152608401610d0a565b6128cc8383836130c7565b6001600160a01b038316600090815260208190526040902054818110156129445760405162461bcd60e51b815260206004820152602660248201527f45524332303a207472616e7366657220616d6f756e7420657863656564732062604482015265616c616e636560d01b6064820152608401610d0a565b6001600160a01b03848116600081815260208181526040808320878703905593871680835291849020805487019055925185815290927fddf252ad1be2c89b69c2b068fc378daa952ba7f163c4a11628f55a4df523b3ef910160405180910390a36125658484846130cf565b6129ba828261179d565b610d1d576000828152600c602090815260408083206001600160a01b03851684529091529020805460ff191660011790556129f23390565b6001600160a01b0316816001600160a01b0316837f2f8788117e7eff1d82e926ec794901d17c78024a50270940304540a733656f0d60405160405180910390a45050565b6000306001600160a01b037f000000000000000000000000000000000000000000000000000000000000000016148015612a8f57507f000000000000000000000000000000000000000000000000000000000000000046145b15612ab957507f000000000000000000000000000000000000000000000000000000000000000090565b610c99604080517f8b73c3c69bb8fe3d512ecc4cf759cc79239f7b179b0ffacaa9a75d522b39400f60208201527f0000000000000000000000000000000000000000000000000000000000000000918101919091527f000000000000000000000000000000000000000000000000000000000000000060608201524660808201523060a082015260009060c00160405160208183030381529060405280519060200120905090565b612b6b828261179d565b15610d1d576000828152600c602090815260408083206001600160a01b0385168085529252808320805460ff1916905551339285917ff6391f5c32d9c69d2a47ea670b442974b53935d1edc7fd64eb21e047a839171b9190a45050565b815460009081816005811115612c22576000612be3846130da565b612bed9085614523565b600088815260209020909150869082015463ffffffff161115612c1257809150612c20565b612c1d8160016144ab565b92505b505b80821015612c6f576000612c3683836131c2565b600088815260209020909150869082015463ffffffff161115612c5b57809150612c69565b612c668160016144ab565b92505b50612c22565b8015612c9b576000868152602090208101600019015464010000000090046001600160e01b0316612c9e565b60005b6001600160e01b03169695505050505050565b612cb96131dd565b600d805460ff191690557f5db9ee0a495bf2e6ff9c91a7834c1ba4fdd244a5e8aa4e537bd38aeae4b073aa335b6040516001600160a01b03909116815260200160405180910390a1565b6001600160a01b038281166000818152600960208181526040808420805485845282862054949093528787166001600160a01b03198416811790915590519190951694919391928592917f3134e8a2e6d97e929a7e54011ea5485d7d196dd5f0ba4d4ef95803e8e3fc257f9190a4612565828483613226565b600063ffffffff821115612de15760405162461bcd60e51b815260206004820152602660248201527f53616665436173743a2076616c756520646f65736e27742066697420696e203360448201526532206269747360d01b6064820152608401610d0a565b5090565b612ded612735565b600d805460ff191660011790557f62e78cea01bee320cd4e420270b5ea74000d11b0c9f74754ebdbfc544b05a258612ce63390565b606060ff8314612e3c57612e3583613363565b9050610a85565b818054612e4890614448565b80601f0160208091040260200160405190810160405280929190818152602001828054612e7490614448565b8015612ec15780601f10612e9657610100808354040283529160200191612ec1565b820191906000526020600020905b815481529060010190602001808311612ea457829003601f168201915b50505050509050610a85565b600065ffffffffffff821115612de15760405162461bcd60e51b815260206004820152602660248201527f53616665436173743a2076616c756520646f65736e27742066697420696e203460448201526538206269747360d01b6064820152608401610d0a565b6040516001600160a01b03808516602483015283166044820152606481018290526125659085906323b872dd60e01b906084015b60408051601f198184030181529190526020810180516001600160e01b03166001600160e01b0319909316929092179091526133a2565b6040516001600160a01b038316602482015260448101829052610c8a90849063a9059cbb60e01b90606401612f68565b6000610a85612fdc612a36565b8360405161190160f01b8152600281019290925260228201526042902090565b600080600061300d87878787613477565b9150915061301a8161353b565b5090505b949350505050565b6001600160a01b0381166000908152600760205260409020805460018101825590611e1c565b610d1d8282613685565b613060828261179d565b610d1d5761306d8161370f565b613078836020613721565b60405160200161308992919061454c565b60408051601f198184030181529082905262461bcd60e51b8252610d0a91600401613fb9565b6130b982826138bd565b612565600b6125fb83613a02565b610c8a612735565b610c8a838383613b77565b6000816000036130ec57506000919050565b600060016130f984613ba9565b901c6001901b90506001818481613112576131126144eb565b048201901c9050600181848161312a5761312a6144eb565b048201901c90506001818481613142576131426144eb565b048201901c9050600181848161315a5761315a6144eb565b048201901c90506001818481613172576131726144eb565b048201901c9050600181848161318a5761318a6144eb565b048201901c905060018184816131a2576131a26144eb565b048201901c9050610dc1818285816131bc576131bc6144eb565b04613c3d565b60006131d16002848418614501565b610dc1908484166144ab565b600d5460ff1661277b5760405162461bcd60e51b815260206004820152601460248201527314185d5cd8589b194e881b9bdd081c185d5cd95960621b6044820152606401610d0a565b816001600160a01b0316836001600160a01b0316141580156132485750600081115b15610c8a576001600160a01b038316156132d6576001600160a01b0383166000908152600a602052604081208190613283906125fb85613a02565b91509150846001600160a01b03167fdec2bacdd2f05b59de34da9b523dff8be42e5e38e818c82fdb0bae774387a72483836040516132cb929190918252602082015260400190565b60405180910390a250505b6001600160a01b03821615610c8a576001600160a01b0382166000908152600a60205260408120819061330c906125ef85613a02565b91509150836001600160a01b03167fdec2bacdd2f05b59de34da9b523dff8be42e5e38e818c82fdb0bae774387a7248383604051613354929190918252602082015260400190565b60405180910390a25050505050565b6060600061337083613c53565b604080516020808252818301909252919250600091906020820181803683375050509182525060208101929092525090565b60006133f7826040518060400160405280602081526020017f5361666545524332303a206c6f772d6c6576656c2063616c6c206661696c6564815250856001600160a01b0316613c7b9092919063ffffffff16565b905080516000148061341857508080602001905181019061341891906145c1565b610c8a5760405162461bcd60e51b815260206004820152602a60248201527f5361666545524332303a204552433230206f7065726174696f6e20646964206e6044820152691bdd081cdd58d8d9595960b21b6064820152608401610d0a565b6000807f7fffffffffffffffffffffffffffffff5d576e7357a4501ddfe92f46681b20a08311156134ae5750600090506003613532565b6040805160008082526020820180845289905260ff881692820192909252606081018690526080810185905260019060a0016020604051602081039080840390855afa158015613502573d6000803e3d6000fd5b5050604051601f1901519150506001600160a01b03811661352b57600060019250925050613532565b9150600090505b94509492505050565b600081600481111561354f5761354f6144be565b036135575750565b600181600481111561356b5761356b6144be565b036135b85760405162461bcd60e51b815260206004820152601860248201527f45434453413a20696e76616c6964207369676e617475726500000000000000006044820152606401610d0a565b60028160048111156135cc576135cc6144be565b036136195760405162461bcd60e51b815260206004820152601f60248201527f45434453413a20696e76616c6964207369676e6174757265206c656e677468006044820152606401610d0a565b600381600481111561362d5761362d6144be565b03610dfa5760405162461bcd60e51b815260206004820152602260248201527f45434453413a20696e76616c6964207369676e6174757265202773272076616c604482015261756560f01b6064820152608401610d0a565b61368f8282613c8a565b6002546001600160e01b0310156137015760405162461bcd60e51b815260206004820152603060248201527f4552433230566f7465733a20746f74616c20737570706c79207269736b73206f60448201526f766572666c6f77696e6720766f74657360801b6064820152608401610d0a565b612565600b6125ef83613a02565b6060610a856001600160a01b03831660145b606060006137308360026144d4565b61373b9060026144ab565b67ffffffffffffffff81111561375357613753614012565b6040519080825280601f01601f19166020018201604052801561377d576020820181803683370190505b509050600360fc1b8160008151811061379857613798614536565b60200101906001600160f81b031916908160001a905350600f60fb1b816001815181106137c7576137c7614536565b60200101906001600160f81b031916908160001a90535060006137eb8460026144d4565b6137f69060016144ab565b90505b600181111561386e576f181899199a1a9b1b9c1cb0b131b232b360811b85600f166010811061382a5761382a614536565b1a60f81b82828151811061384057613840614536565b60200101906001600160f81b031916908160001a90535060049490941c93613867816145e3565b90506137f9565b508315610dc15760405162461bcd60e51b815260206004820181905260248201527f537472696e67733a20686578206c656e67746820696e73756666696369656e746044820152606401610d0a565b6001600160a01b03821661391d5760405162461bcd60e51b815260206004820152602160248201527f45524332303a206275726e2066726f6d20746865207a65726f206164647265736044820152607360f81b6064820152608401610d0a565b613929826000836130c7565b6001600160a01b0382166000908152602081905260409020548181101561399d5760405162461bcd60e51b815260206004820152602260248201527f45524332303a206275726e20616d6f756e7420657863656564732062616c616e604482015261636560f01b6064820152608401610d0a565b6001600160a01b0383166000818152602081815260408083208686039055600280548790039055518581529192917fddf252ad1be2c89b69c2b068fc378daa952ba7f163c4a11628f55a4df523b3ef910160405180910390a3610c8a836000846130cf565b82546000908190818115613a4f5760008781526020902082016000190160408051808201909152905463ffffffff8116825264010000000090046001600160e01b03166020820152613a64565b60408051808201909152600080825260208201525b905080602001516001600160e01b03169350613a8484868863ffffffff16565b9250600082118015613aae5750613a996117c8565b65ffffffffffff16816000015163ffffffff16145b15613af357613abc83613d5d565b60008881526020902083016000190180546001600160e01b03929092166401000000000263ffffffff909216919091179055613b6d565b866040518060400160405280613b17613b0a6117c8565b65ffffffffffff16612d7c565b63ffffffff168152602001613b2b86613d5d565b6001600160e01b0390811690915282546001810184556000938452602093849020835194909301519091166401000000000263ffffffff909316929092179101555b5050935093915050565b6001600160a01b03838116600090815260096020526040808220548584168352912054610c8a92918216911683613226565b600080608083901c15613bbe57608092831c92015b604083901c15613bd057604092831c92015b602083901c15613be257602092831c92015b601083901c15613bf457601092831c92015b600883901c15613c0657600892831c92015b600483901c15613c1857600492831c92015b600283901c15613c2a57600292831c92015b600183901c15610a855760010192915050565b6000818310613c4c5781610dc1565b5090919050565b600060ff8216601f811115610a8557604051632cd44ac360e21b815260040160405180910390fd5b606061301e8484600085613dc6565b6001600160a01b038216613ce05760405162461bcd60e51b815260206004820152601f60248201527f45524332303a206d696e7420746f20746865207a65726f2061646472657373006044820152606401610d0a565b613cec600083836130c7565b8060026000828254613cfe91906144ab565b90915550506001600160a01b038216600081815260208181526040808320805486019055518481527fddf252ad1be2c89b69c2b068fc378daa952ba7f163c4a11628f55a4df523b3ef910160405180910390a3610d1d600083836130cf565b60006001600160e01b03821115612de15760405162461bcd60e51b815260206004820152602760248201527f53616665436173743a2076616c756520646f65736e27742066697420696e20326044820152663234206269747360c81b6064820152608401610d0a565b606082471015613e275760405162461bcd60e51b815260206004820152602660248201527f416464726573733a20696e73756666696369656e742062616c616e636520666f6044820152651c8818d85b1b60d21b6064820152608401610d0a565b600080866001600160a01b03168587604051613e4391906145fa565b60006040518083038185875af1925050503d8060008114613e80576040519150601f19603f3d011682016040523d82523d6000602084013e613e85565b606091505b5091509150613e9687838387613ea1565b979650505050505050565b60608315613f10578251600003613f09576001600160a01b0385163b613f095760405162461bcd60e51b815260206004820152601d60248201527f416464726573733a2063616c6c20746f206e6f6e2d636f6e74726163740000006044820152606401610d0a565b508161301e565b61301e8383815115613f255781518083602001fd5b8060405162461bcd60e51b8152600401610d0a9190613fb9565b600060208284031215613f5157600080fd5b81356001600160e01b031981168114610dc157600080fd5b60005b83811015613f84578181015183820152602001613f6c565b50506000910152565b60008151808452613fa5816020860160208601613f69565b601f01601f19169290920160200192915050565b602081526000610dc16020830184613f8d565b80356001600160a01b0381168114613fe357600080fd5b919050565b60008060408385031215613ffb57600080fd5b61400483613fcc565b946020939093013593505050565b634e487b7160e01b600052604160045260246000fd5b600082601f83011261403957600080fd5b813567ffffffffffffffff81111561405357614053614012565b604051601f8201601f19908116603f0116810167ffffffffffffffff8111828210171561408257614082614012565b60405281815283820160200185101561409a57600080fd5b816020850160208301376000918101602001919091529392505050565b6000806000606084860312156140cc57600080fd5b6140d584613fcc565b925060208401359150604084013567ffffffffffffffff8111156140f857600080fd5b61410486828701614028565b9150509250925092565b60008060006060848603121561412357600080fd5b61412c84613fcc565b925061413a60208501613fcc565b929592945050506040919091013590565b60006020828403121561415d57600080fd5b5035919050565b6000806040838503121561417757600080fd5b8235915061418760208401613fcc565b90509250929050565b6000602082840312156141a257600080fd5b610dc182613fcc565b60ff60f81b8816815260e0602082015260006141ca60e0830189613f8d565b82810360408401526141dc8189613f8d565b606084018890526001600160a01b038716608085015260a0840186905283810360c08501528451808252602080870193509091019060005b81811015614232578351835260209384019390920191600101614214565b50909b9a5050505050505050505050565b803560038110613fe357600080fd5b6000806040838503121561426557600080fd5b61400483614243565b60008060006060848603121561428357600080fd5b61412c84614243565b803560ff81168114613fe357600080fd5b60008060008060008060c087890312156142b657600080fd5b6142bf87613fcc565b955060208701359450604087013593506142db6060880161428c565b9598949750929560808101359460a0909101359350915050565b6000806040838503121561430857600080fd5b61431183614243565b915061418760208401613fcc565b60006020828403121561433157600080fd5b610dc182614243565b600080600080600080600060e0888a03121561435557600080fd5b61435e88613fcc565b965061436c60208901613fcc565b955060408801359450606088013593506143886080890161428c565b9699959850939692959460a0840135945060c09093013592915050565b600080604083850312156143b857600080fd5b61431183613fcc565b600080604083850312156143d457600080fd5b82359150602083013567ffffffffffffffff8111156143f257600080fd5b6143fe85828601614028565b9150509250929050565b6000806040838503121561441b57600080fd5b61442483613fcc565b9150602083013563ffffffff8116811461443d57600080fd5b809150509250929050565b600181811c9082168061445c57607f821691505b602082108103611e1c57634e487b7160e01b600052602260045260246000fd5b82815260406020820152600061301e6040830184613f8d565b634e487b7160e01b600052601160045260246000fd5b80820180821115610a8557610a85614495565b634e487b7160e01b600052602160045260246000fd5b8082028115828204841417610a8557610a85614495565b634e487b7160e01b600052601260045260246000fd5b60008261451e57634e487b7160e01b600052601260045260246000fd5b500490565b81810381811115610a8557610a85614495565b634e487b7160e01b600052603260045260246000fd5b7f416363657373436f6e74726f6c3a206163636f756e7420000000000000000000815260008351614584816017850160208801613f69565b7001034b99036b4b9b9b4b733903937b6329607d1b60179184019182015283516145b5816028840160208801613f69565b01602801949350505050565b6000602082840312156145d357600080fd5b81518015158114610dc157600080fd5b6000816145f2576145f2614495565b506000190190565b6000825161460c818460208701613f69565b919091019291505056feaa9060660dc3e52152ec6c4cd87f38f5433d3e2246058f23a29463ea32476817a264697066735822122041a5421eba57ac1000bd5bf25cbaf37da7c85c2e5dc40a7f6e281f12a8e671a764736f6c634300081c0033dec2bacdd2f05b59de34da9b523dff8be42e5e38e818c82fdb0bae774387a724",
  "linkReferences": {},
  "deployedLinkReferences": {}
}