{
  "_format": "hh-sol-artifact-1",
  "contractName": "ConditionalTransferModule",
  "sourceName": "contracts/compliance/modular/modules/ConditionalTransferModule.sol",
  "abi": [
    {
      "anonymous": false,
      "inputs": [
        {
          "indexed": false,
          "internalType": "address",
          "name": "previousAdmin",
          "type": "address"
        },
        {
          "indexed": false,
          "internalType": "address",
          "name": "newAdmin",
          "type": "address"
        }
      ],
      "name": "AdminChanged",
      "type": "event"
    },
    {
      "anonymous": false,
      "inputs": [
        {
          "indexed": false,
          "internalType": "address",
          "name": "_from",
          "type": "address"
        },
        {
          "indexed": false,
          "internalType": "address",
          "name": "_to",
          "type": "address"
        },
        {
          "indexed": false,
          "internalType": "uint256",
          "name": "_amount",
          "type": "uint256"
        },
        {
          "indexed": false,
          "internalType": "address",
          "name": "_token",
          "type": "address"
        }
      ],
      "name": "ApprovalRemoved",
      "type": "event"
    },
    {
      "anonymous": false,
      "inputs": [
        {
          "indexed": true,
          "internalType": "address",
          "name": "beacon",
          "type": "address"
        }
      ],
      "name": "BeaconUpgraded",
      "type": "event"
    },
    {
      "anonymous": false,
      "inputs": [
        {
          "indexed": true,
          "internalType": "address",
          "name": "_compliance",
          "type": "address"
        }
      ],
      "name": "ComplianceBound",
      "type": "event"
    },
    {
      "anonymous": false,
      "inputs": [
        {
          "indexed": true,
          "internalType": "address",
          "name": "_compliance",
          "type": "address"
        }
      ],
      "name": "ComplianceUnbound",
      "type": "event"
    },
    {
      "anonymous": false,
      "inputs": [
        {
          "indexed": false,
          "internalType": "uint8",
          "name": "version",
          "type": "uint8"
        }
      ],
      "name": "Initialized",
      "type": "event"
    },
    {
      "anonymous": false,
      "inputs": [
        {
          "indexed": true,
          "internalType": "address",
          "name": "previousOwner",
          "type": "address"
        },
        {
          "indexed": true,
          "internalType": "address",
          "name": "newOwner",
          "type": "address"
        }
      ],
      "name": "OwnershipTransferred",
      "type": "event"
    },
    {
      "anonymous": false,
      "inputs": [
        {
          "indexed": false,
          "internalType": "address",
          "name": "_from",
          "type": "address"
        },
        {
          "indexed": false,
          "internalType": "address",
          "name": "_to",
          "type": "address"
        },
        {
          "indexed": false,
          "internalType": "uint256",
          "name": "_amount",
          "type": "uint256"
        },
        {
          "indexed": false,
          "internalType": "address",
          "name": "_token",
          "type": "address"
        }
      ],
      "name": "TransferApproved",
      "type": "event"
    },
    {
      "anonymous": false,
      "inputs": [
        {
          "indexed": true,
          "internalType": "address",
          "name": "implementation",
          "type": "address"
        }
      ],
      "name": "Upgraded",
      "type": "event"
    },
    {
      "inputs": [
        {
          "internalType": "address",
          "name": "_from",
          "type": "address"
        },
        {
          "internalType": "address",
          "name": "_to",
          "type": "address"
        },
        {
          "internalType": "uint256",
          "name": "_amount",
          "type": "uint256"
        }
      ],
      "name": "approveTransfer",
      "outputs": [],
      "stateMutability": "nonpayable",
      "type": "function"
    },
    {
      "inputs": [
        {
          "internalType": "address[]",
          "name": "_from",
          "type": "address[]"
        },
        {
          "internalType": "address[]",
          "name": "_to",
          "type": "address[]"
        },
        {
          "internalType": "uint256[]",
          "name": "_amount",
          "type": "uint256[]"
        }
      ],
      "name": "batchApproveTransfers",
      "outputs": [],
      "stateMutability": "nonpayable",
      "type": "function"
    },
    {
      "inputs": [
        {
          "internalType": "address[]",
          "name": "_from",
          "type": "address[]"
        },
        {
          "internalType": "address[]",
          "name": "_to",
          "type": "address[]"
        },
        {
          "internalType": "uint256[]",
          "name": "_amount",
          "type": "uint256[]"
        }
      ],
      "name": "batchUnApproveTransfers",
      "outputs": [],
      "stateMutability": "nonpayable",
      "type": "function"
    },
    {
      "inputs": [
        {
          "internalType": "address",
          "name": "_compliance",
          "type": "address"
        }
      ],
      "name": "bindCompliance",
      "outputs": [],
      "stateMutability": "nonpayable",
      "type": "function"
    },
    {
      "inputs": [
        {
          "internalType": "address",
          "name": "_from",
          "type": "address"
        },
        {
          "internalType": "address",
          "name": "_to",
          "type": "address"
        },
        {
          "internalType": "uint256",
          "name": "_amount",
          "type": "uint256"
        },
        {
          "internalType": "address",
          "name": "_token",
          "type": "address"
        }
      ],
      "name": "calculateTransferHash",
      "outputs": [
        {
          "internalType": "bytes32",
          "name": "",
          "type": "bytes32"
        }
      ],
      "stateMutability": "pure",
      "type": "function"
    },
    {
      "inputs": [
        {
          "internalType": "address",
          "name": "",
          "type": "address"
        }
      ],
      "name": "canComplianceBind",
      "outputs": [
        {
          "internalType": "bool",
          "name": "",
          "type": "bool"
        }
      ],
      "stateMutability": "view",
      "type": "function"
    },
    {
      "inputs": [
        {
          "internalType": "address",
          "name": "_compliance",
          "type": "address"
        },
        {
          "internalType": "bytes32",
          "name": "_transferHash",
          "type": "bytes32"
        }
      ],
      "name": "getTransferApprovals",
      "outputs": [
        {
          "internalType": "uint256",
          "name": "",
          "type": "uint256"
        }
      ],
      "stateMutability": "view",
      "type": "function"
    },
    {
      "inputs": [],
      "name": "initialize",
      "outputs": [],
      "stateMutability": "nonpayable",
      "type": "function"
    },
    {
      "inputs": [
        {
          "internalType": "address",
          "name": "_compliance",
          "type": "address"
        }
      ],
      "name": "isComplianceBound",
      "outputs": [
        {
          "internalType": "bool",
          "name": "",
          "type": "bool"
        }
      ],
      "stateMutability": "view",
      "type": "function"
    },
    {
      "inputs": [],
      "name": "isPlugAndPlay",
      "outputs": [
        {
          "internalType": "bool",
          "name": "",
          "type": "bool"
        }
      ],
      "stateMutability": "pure",
      "type": "function"
    },
    {
      "inputs": [
        {
          "internalType": "address",
          "name": "_compliance",
          "type": "address"
        },
        {
          "internalType": "bytes32",
          "name": "_transferHash",
          "type": "bytes32"
        }
      ],
      "name": "isTransferApproved",
      "outputs": [
        {
          "internalType": "bool",
          "name": "",
          "type": "bool"
        }
      ],
      "stateMutability": "view",
      "type": "function"
    },
    {
      "inputs": [
        {
          "internalType": "address",
          "name": "_from",
          "type": "address"
        },
        {
          "internalType": "uint256",
          "name": "_value",
          "type": "uint256"
        }
      ],
      "name": "moduleBurnAction",
      "outputs": [],
      "stateMutability": "nonpayable",
      "type": "function"
    },
    {
      "inputs": [
        {
          "internalType": "address",
          "name": "_from",
          "type": "address"
        },
        {
          "internalType": "address",
          "name": "_to",
          "type": "address"
        },
        {
          "internalType": "uint256",
          "name": "_value",
          "type": "uint256"
        },
        {
          "internalType": "address",
          "name": "_compliance",
          "type": "address"
        }
      ],
      "name": "moduleCheck",
      "outputs": [
        {
          "internalType": "bool",
          "name": "",
          "type": "bool"
        }
      ],
      "stateMutability": "view",
      "type": "function"
    },
    {
      "inputs": [
        {
          "internalType": "address",
          "name": "_to",
          "type": "address"
        },
        {
          "internalType": "uint256",
          "name": "_value",
          "type": "uint256"
        }
      ],
      "name": "moduleMintAction",
      "outputs": [],
      "stateMutability": "nonpayable",
      "type": "function"
    },
    {
      "inputs": [
        {
          "internalType": "address",
          "name": "_from",
          "type": "address"
        },
        {
          "internalType": "address",
          "name": "_to",
          "type": "address"
        },
        {
          "internalType": "uint256",
          "name": "_value",
          "type": "uint256"
        }
      ],
      "name": "moduleTransferAction",
      "outputs": [],
      "stateMutability": "nonpayable",
      "type": "function"
    },
    {
      "inputs": [],
      "name": "name",
      "outputs": [
        {
          "internalType": "string",
          "name": "_name",
          "type": "string"
        }
      ],
      "stateMutability": "pure",
      "type": "function"
    },
    {
      "inputs": [],
      "name": "owner",
      "outputs": [
        {
          "internalType": "address",
          "name": "",
          "type": "address"
        }
      ],
      "stateMutability": "view",
      "type": "function"
    },
    {
      "inputs": [],
      "name": "proxiableUUID",
      "outputs": [
        {
          "internalType": "bytes32",
          "name": "",
          "type": "bytes32"
        }
      ],
      "stateMutability": "view",
      "type": "function"
    },
    {
      "inputs": [],
      "name": "renounceOwnership",
      "outputs": [],
      "stateMutability": "nonpayable",
      "type": "function"
    },
    {
      "inputs": [
        {
          "internalType": "address",
          "name": "newOwner",
          "type": "address"
        }
      ],
      "name": "transferOwnership",
      "outputs": [],
      "stateMutability": "nonpayable",
      "type": "function"
    },
    {
      "inputs": [
        {
          "internalType": "address",
          "name": "_from",
          "type": "address"
        },
        {
          "internalType": "address",
          "name": "_to",
          "type": "address"
        },
        {
          "internalType": "uint256",
          "name": "_amount",
          "type": "uint256"
        }
      ],
      "name": "unApproveTransfer",
      "outputs": [],
      "stateMutability": "nonpayable",
      "type": "function"
    },
    {
      "inputs": [
        {
          "internalType": "address",
          "name": "_compliance",
          "type": "address"
        }
      ],
      "name": "unbindCompliance",
      "outputs": [],
      "stateMutability": "nonpayable",
      "type": "function"
    },
    {
      "inputs": [
        {
          "internalType": "address",
          "name": "newImplementation",
          "type": "address"
        }
      ],
      "name": "upgradeTo",
      "outputs": [],
      "stateMutability": "nonpayable",
      "type": "function"
    },
    {
      "inputs": [
        {
          "internalType": "address",
          "name": "newImplementation",
          "type": "address"
        },
        {
          "internalType": "bytes",
          "name": "data",
          "type": "bytes"
        }
      ],
      "name": "upgradeToAndCall",
      "outputs": [],
      "stateMutability": "payable",
      "type": "function"
    }
  ],
  "bytecode": "0x60a080604052346100315730608052611b579081610037823960805181818161093901528181610a600152610e340152f35b600080fdfe6080604081815260048036101561001557600080fd5b600092833560e01c908163013b7ce414611374575080630694a5fb146112db57806306fdde031461125b5780631c7a17931461113d578063202a6376146111175780632cb7e1ec146110025780633659cfe614610e0d578063372491a2146103685780634a93254414610d325780634cf4d29514610ce75780634f1ef286146109e657806352d1902d14610924578063715018a6146108c75780638129fc1c14610779578063825808051461064e5780638da5cb5b1461062557806393386519146105f3578063bcc21053146105cd578063bdf5a4151461058c578063e2cb5c34146103ad578063e6f5e80714610391578063f104a8c914610368578063f2fde38b146102d75763f3850dbf1461012b57600080fd5b346102d35761013936611569565b969195909594929433895282600080516020611b028339815191529460209686885261016c8c60ff9485912054166118f9565b8b5b8c8282106101795780f35b8a8c916101aa8f85906101a4610199838d61019e610199838f8f906119ca565b6119f0565b986119ca565b956119ca565b353382528b8d526101bf888c842054166118f9565b8a51630d47dbe560e31b808252908e818d81335afa9081156102c9578f916101f19186916102ac575b50848888611ab3565b9033855260c981528d8520918552528b832061020d81546119a5565b90558b519081528d818c81335afa9283156102a157927f776c895685d60b5ac3aa2c3381ed2b021825c000fbb0d8ff1359636700aa165194928f926102659361026d99989693610272575b50508d5194859485611a30565b0390a16119a5565b61016e565b610292929350803d1061029a575b61028a81836114fa565b810190611a04565b908f80610258565b503d610280565b8c51903d90823e3d90fd5b6102c39150833d851161029a5761028a81836114fa565b386101e8565b8d513d86823e3d90fd5b8280fd5b50346102d35760203660031901126102d3576102f16113ed565b916102fa6115cf565b6001600160a01b03831615610316578361031384611627565b80f35b906020608492519162461bcd60e51b8352820152602660248201527f4f776e61626c653a206e6577206f776e657220697320746865207a65726f206160448201526564647265737360d01b6064820152fd5b50503461038d5736600319011261038a576103816113ed565b50610313611a5a565b80fd5b5080fd5b50503461038d578160031936011261038d576020905160018152f35b50346102d3576103bc36611569565b9294909593969196338952600080516020611b0283398151915293846020526103ea60ff858c2054166118f9565b895b8a8382106103f75780f35b888a9189610425858f61041f610199838b936104198f8f8490610199926119ca565b996119ca565b966119ca565b35913381528a60205261043d60ff8b832054166118f9565b8951602081630d47dbe560e31b9485825281335afa908115610582578b9161046f918491610563575b50858888611ab3565b9133815260c960205281812083825260205220541561053157908f929133845260c96020528a84209084526020528983206104aa8154611a23565b905589519081526020818d81335afa92831561052657927f611476e33c1d844d9fa71ba7de6e7130e18b22971d28580fd76321e4af69635694926102659261050098979592610505575b508b5194859485611a30565b6103ec565b61051f91925060203d60201161029a5761028a81836114fa565b90386104f4565b8a51903d90823e3d90fd5b895162461bcd60e51b81526020818e0152600c60248201526b1b9bdd08185c1c1c9bdd995960a21b6044820152606490fd5b61057c915060203d60201161029a5761028a81836114fa565b38610466565b8b513d84823e3d90fd5b50503461038d578060031936011261038d5760209181906001600160a01b036105b36113ed565b16815260c984528181206024358252845220549051908152f35b50503461038d57602036600319011261038d576020906105eb6113ed565b505160018152f35b50503461038d578060031936011261038d5760209061061c6106136113ed565b60243590611a83565b90519015158152f35b50503461038d578160031936011261038d5760335490516001600160a01b039091168152602090f35b50346102d35761065d36611493565b929092338652602091600080516020611b02833981519152835261068660ff87892054166118f9565b8551630d47dbe560e31b80825284828481335afa91821561076f5785926106b7918b91610752575b50858989611ab3565b338a5260c98352888a20908a5282528789206106d381546119a5565b90558751928391825281335afa92831561074857956107239392917f776c895685d60b5ac3aa2c3381ed2b021825c000fbb0d8ff1359636700aa1651978994610729575b50505194859485611a30565b0390a180f35b610740929450803d1061029a5761028a81836114fa565b913880610717565b86513d89823e3d90fd5b6107699150843d861161029a5761028a81836114fa565b386106ae565b88513d8b823e3d90fd5b50346102d357826003193601126102d357825460ff8160081c1615918280936108ba575b80156108a3575b15610849575060ff198116600117845581610838575b506107dd60ff845460081c166107cf81611945565b6107d881611945565b611945565b6107e633611627565b8254906107f860ff8360081c16611945565b610800578280f35b61ff001916825551600181527f7f26b83ff96e1f2b6a682f133852f6798a09c465da95921460cefb384740249890602090a138808280f35b61ffff1916610101178355386107ba565b608490602085519162461bcd60e51b8352820152602e60248201527f496e697469616c697a61626c653a20636f6e747261637420697320616c72656160448201526d191e481a5b9a5d1a585b1a5e995960921b6064820152fd5b50303b1580156107a45750600160ff8316146107a4565b50600160ff83161061079d565b833461038a578060031936011261038a576108e06115cf565b603380546001600160a01b0319811690915581906001600160a01b03167f8be0079c531659141344cd1fd0a4f28419497f9722a3daafe3b4186f6b6457e08280a380f35b50823461038a578060031936011261038a57507f00000000000000000000000000000000000000000000000000000000000000006001600160a01b0316300361097e5760208251600080516020611ae28339815191528152f35b6020608492519162461bcd60e51b8352820152603860248201527f555550535570677261646561626c653a206d757374206e6f742062652063616c60448201527f6c6564207468726f7567682064656c656761746563616c6c00000000000000006064820152fd5b5090806003193601126102d3576109fb6113ed565b906024359067ffffffffffffffff8211610ce35736602383011215610ce35781840135610a278161151c565b610a33835191826114fa565b818152866020948583019336602482840101116102d3578060248893018637830101526001600160a01b037f0000000000000000000000000000000000000000000000000000000000000000811690610a8e30831415611670565b610aab600080516020611ae28339815191529282845416146116d1565b610ab36115cf565b7f4910fdfa16fed3260ed0e7147f7cc6da11a60208b5b9406d12a635614ffd91435460ff1615610aed575050505050506103139150611732565b869293949596169085516352d1902d60e01b815287818a81865afa8a9181610cb0575b50610b6f57865162461bcd60e51b8152808a01899052602e60248201527f45524331393637557067726164653a206e657720696d706c656d656e7461746960448201526d6f6e206973206e6f74205555505360901b6064820152608490fd5b979192939695949703610c5b5750610b8682611732565b7fbc7cd75a20ee27fd9adebab32041f755214dbc6bffa90cc0225b39da2e5c2d3b8780a285845115801590610c53575b610bc4575b50505050505080f35b80610c3d96845196610bd5886114c8565b602788527f416464726573733a206c6f772d6c6576656c2064656c65676174652063616c6c87890152660819985a5b195960ca1b868901525190845af4913d15610c49573d610c2f610c268261151c565b925192836114fa565b81528681943d92013e6117c2565b50388080808085610bbb565b50606092506117c2565b506001610bb6565b835162461bcd60e51b8152908101859052602960248201527f45524331393637557067726164653a20756e737570706f727465642070726f786044820152681a58589b195555525160ba1b6064820152608490fd5b9091508881813d8311610cdc575b610cc881836114fa565b81010312610cd857519038610b10565b8a80fd5b503d610cbe565b8480fd5b50503461038d57602036600319011261038d5760209160ff9082906001600160a01b03610d126113ed565b168152600080516020611b02833981519152855220541690519015158152f35b5090346102d35760203660031901126102d3576001600160a01b03610d556113ed565b1691610d62831515611857565b828452600080516020611b02833981519152908160205260ff8386205416610dca5750610d908333146118a3565b8284526020528220805460ff191660011790557f1f7b76c58fb697eb53c6c7c1becb96911516a136e24d7ced386b2355358b75a38280a280f35b606490602084519162461bcd60e51b8352820152601860248201527f636f6d706c69616e636520616c726561647920626f756e6400000000000000006044820152fd5b5090346102d357602080600319360112610ffe57610e296113ed565b916001600160a01b037f00000000000000000000000000000000000000000000000000000000000000008116610e6130821415611670565b610e7e600080516020611ae28339815191529183835416146116d1565b610e866115cf565b8251908482019282841067ffffffffffffffff851117610feb578385528883527f4910fdfa16fed3260ed0e7147f7cc6da11a60208b5b9406d12a635614ffd91435460ff1615610ee0575050505050506103139150611732565b869293949596169085516352d1902d60e01b815287818a81865afa8a9181610fbc575b50610f6257865162461bcd60e51b8152808a01899052602e60248201527f45524331393637557067726164653a206e657720696d706c656d656e7461746960448201526d6f6e206973206e6f74205555505360901b6064820152608490fd5b979192939695949703610c5b5750610f7982611732565b7fbc7cd75a20ee27fd9adebab32041f755214dbc6bffa90cc0225b39da2e5c2d3b8780a285845115801590610fb557610bc45750505050505080f35b5080610bb6565b9091508881813d8311610fe4575b610fd481836114fa565b81010312610cd857519038610f03565b503d610fca565b634e487b7160e01b895260418852602489fd5b8380fd5b50346102d35761101136611493565b929092338652602091600080516020611b02833981519152835261103a60ff87892054166118f9565b8551630d47dbe560e31b8082529084818481335afa801561076f57611068918a916111005750848888611ab3565b9033895260c98552878920828a52855287892054611084578880f35b8491338a5260c98352888a20908a5282528789206110a28154611a23565b90558751928391825281335afa92831561074857956110f19392917f611476e33c1d844d9fa71ba7de6e7130e18b22971d28580fd76321e4af6963569789946107295750505194859485611a30565b0390a138808080808080808880f35b6102c39150863d881161029a5761028a81836114fa565b50503461038d5760209061113661112d36611408565b92919091611ab3565b9051908152f35b50346102d35761114c36611493565b929092338652602091600080516020611b02833981519152835261117560ff87892054166118f9565b8551630d47dbe560e31b8082529084818481335afa801561076f576111a3918a916111005750848888611ab3565b33895260c98552878920818a528552878920541561122957908491338a5260c98352888a20908a5282528789206111da8154611a23565b90558751928391825281335afa92831561074857956107239392917f611476e33c1d844d9fa71ba7de6e7130e18b22971d28580fd76321e4af6963569789946107295750505194859485611a30565b875162461bcd60e51b8152808401869052600c60248201526b1b9bdd08185c1c1c9bdd995960a21b6044820152606490fd5b5091903461038d578160031936011261038d578051918183019083821067ffffffffffffffff8311176112c857506112c493508152601982527f436f6e646974696f6e616c5472616e736665724d6f64756c65000000000000006020830152519182918261144a565b0390f35b634e487b7160e01b815260418552602490fd5b50503461038d57602036600319011261038d576112f66113ed565b90338352600080516020611b02833981519152918260205261131d60ff83862054166118f9565b6001600160a01b031691611332831515611857565b61133d8333146118a3565b8284526020528220805460ff191690557f408b49d9be1c914c52a0227e18a077e5a892dddf32a26cfa94a5d9708fad77188280a280f35b905034610ffe576020918161138836611408565b630d47dbe560e31b855296909491939091816001600160a01b0389165afa93841561074857916113c8939161061c969593602099946113ce575b50611ab3565b90611a83565b6113e6919450893d811161029a5761028a81836114fa565b92386113c2565b600435906001600160a01b038216820361140357565b600080fd5b6080906003190112611403576001600160a01b039060043582811681036114035791602435818116810361140357916044359160643590811681036114035790565b6020808252825181830181905290939260005b82811061147f57505060409293506000838284010152601f8019910116010190565b81810186015184820160400152850161145d565b6060906003190112611403576001600160a01b0390600435828116810361140357916024359081168103611403579060443590565b6060810190811067ffffffffffffffff8211176114e457604052565b634e487b7160e01b600052604160045260246000fd5b90601f8019910116810190811067ffffffffffffffff8211176114e457604052565b67ffffffffffffffff81116114e457601f01601f191660200190565b9181601f840112156114035782359167ffffffffffffffff8311611403576020808501948460051b01011161140357565b9060606003198301126114035767ffffffffffffffff600435818111611403578361159691600401611538565b9390939260243583811161140357826115b191600401611538565b93909392604435918211611403576115cb91600401611538565b9091565b6033546001600160a01b031633036115e357565b606460405162461bcd60e51b815260206004820152602060248201527f4f776e61626c653a2063616c6c6572206973206e6f7420746865206f776e65726044820152fd5b603380546001600160a01b039283166001600160a01b0319821681179092559091167f8be0079c531659141344cd1fd0a4f28419497f9722a3daafe3b4186f6b6457e0600080a3565b1561167757565b60405162461bcd60e51b815260206004820152602c60248201527f46756e6374696f6e206d7573742062652063616c6c6564207468726f7567682060448201526b19195b1959d85d1958d85b1b60a21b6064820152608490fd5b156116d857565b60405162461bcd60e51b815260206004820152602c60248201527f46756e6374696f6e206d7573742062652063616c6c6564207468726f7567682060448201526b6163746976652070726f787960a01b6064820152608490fd5b803b1561176757600080516020611ae283398151915280546001600160a01b0319166001600160a01b03909216919091179055565b60405162461bcd60e51b815260206004820152602d60248201527f455243313936373a206e657720696d706c656d656e746174696f6e206973206e60448201526c1bdd08184818dbdb9d1c9858dd609a1b6064820152608490fd5b9192901561182457508151156117d6575090565b3b156117df5790565b60405162461bcd60e51b815260206004820152601d60248201527f416464726573733a2063616c6c20746f206e6f6e2d636f6e74726163740000006044820152606490fd5b8251909150156118375750805190602001fd5b60405162461bcd60e51b8152908190611853906004830161144a565b0390fd5b1561185e57565b60405162461bcd60e51b815260206004820152601f60248201527f696e76616c696420617267756d656e74202d207a65726f2061646472657373006044820152606490fd5b156118aa57565b60405162461bcd60e51b815260206004820152602160248201527f6f6e6c7920636f6d706c69616e636520636f6e74726163742063616e2063616c6044820152601b60fa1b6064820152608490fd5b1561190057565b60405162461bcd60e51b815260206004820152601e60248201527f6f6e6c7920626f756e6420636f6d706c69616e63652063616e2063616c6c00006044820152606490fd5b1561194c57565b60405162461bcd60e51b815260206004820152602b60248201527f496e697469616c697a61626c653a20636f6e7472616374206973206e6f74206960448201526a6e697469616c697a696e6760a81b6064820152608490fd5b60001981146119b45760010190565b634e487b7160e01b600052601160045260246000fd5b91908110156119da5760051b0190565b634e487b7160e01b600052603260045260246000fd5b356001600160a01b03811681036114035790565b9081602091031261140357516001600160a01b03811681036114035790565b80156119b4576000190190565b6001600160a01b039182168152918116602083015260408201929092529116606082015260800190565b33600052600080516020611b02833981519152602052611a8160ff604060002054166118f9565b565b60018060a01b031660005260c9602052604060002090600052602052604060002054611aae57600090565b600190565b9290611acd611adb92604051948593602085019788611a30565b03601f1981018352826114fa565b5190209056fe360894a13ba1a3210667c828492db98dca3e2076cc3735a920a3ca505d382bbcf6cc97de1266c180cd39f3b311632644143ce7873d2927755382ad4b39e8ae00a2646970667358221220913fcf3f0ce6bd78e02e983d80d9c688ce289ec374eacc2bb0d1a9afe2c9f9da64736f6c63430008110033",
  "linkReferences": {},
  "deployedLinkReferences": {}
}