{
  "_format": "hh-sol-artifact-1",
  "contractName": "TREXGateway",
  "sourceName": "contracts/factory/TREXGateway.sol",
  "abi": [
    {
      "inputs": [
        {
          "internalType": "address",
          "name": "factory",
          "type": "address"
        },
        {
          "internalType": "bool",
          "name": "publicDeploymentStatus",
          "type": "bool"
        }
      ],
      "stateMutability": "nonpayable",
      "type": "constructor"
    },
    {
      "inputs": [
        {
          "internalType": "uint16",
          "name": "lengthLimit",
          "type": "uint16"
        }
      ],
      "name": "BatchMaxLengthExceeded",
      "type": "error"
    },
    {
      "inputs": [
        {
          "internalType": "address",
          "name": "deployer",
          "type": "address"
        }
      ],
      "name": "DeployerAlreadyExists",
      "type": "error"
    },
    {
      "inputs": [
        {
          "internalType": "address",
          "name": "deployer",
          "type": "address"
        }
      ],
      "name": "DeployerDoesNotExist",
      "type": "error"
    },
    {
      "inputs": [],
      "name": "DeploymentFeesAlreadyDisabled",
      "type": "error"
    },
    {
      "inputs": [],
      "name": "DeploymentFeesAlreadyEnabled",
      "type": "error"
    },
    {
      "inputs": [],
      "name": "DiscountOutOfRange",
      "type": "error"
    },
    {
      "inputs": [],
      "name": "OnlyAdminCall",
      "type": "error"
    },
    {
      "inputs": [],
      "name": "PublicCannotDeployOnBehalf",
      "type": "error"
    },
    {
      "inputs": [],
      "name": "PublicDeploymentAlreadyDisabled",
      "type": "error"
    },
    {
      "inputs": [],
      "name": "PublicDeploymentAlreadyEnabled",
      "type": "error"
    },
    {
      "inputs": [],
      "name": "PublicDeploymentsNotAllowed",
      "type": "error"
    },
    {
      "inputs": [],
      "name": "ZeroAddress",
      "type": "error"
    },
    {
      "anonymous": false,
      "inputs": [
        {
          "indexed": true,
          "internalType": "address",
          "name": "_agent",
          "type": "address"
        }
      ],
      "name": "AgentAdded",
      "type": "event"
    },
    {
      "anonymous": false,
      "inputs": [
        {
          "indexed": true,
          "internalType": "address",
          "name": "_agent",
          "type": "address"
        }
      ],
      "name": "AgentRemoved",
      "type": "event"
    },
    {
      "anonymous": false,
      "inputs": [
        {
          "indexed": true,
          "internalType": "address",
          "name": "deployer",
          "type": "address"
        }
      ],
      "name": "DeployerAdded",
      "type": "event"
    },
    {
      "anonymous": false,
      "inputs": [
        {
          "indexed": true,
          "internalType": "address",
          "name": "deployer",
          "type": "address"
        }
      ],
      "name": "DeployerRemoved",
      "type": "event"
    },
    {
      "anonymous": false,
      "inputs": [
        {
          "indexed": true,
          "internalType": "bool",
          "name": "isEnabled",
          "type": "bool"
        }
      ],
      "name": "DeploymentFeeEnabled",
      "type": "event"
    },
    {
      "anonymous": false,
      "inputs": [
        {
          "indexed": true,
          "internalType": "uint256",
          "name": "fee",
          "type": "uint256"
        },
        {
          "indexed": true,
          "internalType": "address",
          "name": "feeToken",
          "type": "address"
        },
        {
          "indexed": true,
          "internalType": "address",
          "name": "feeCollector",
          "type": "address"
        }
      ],
      "name": "DeploymentFeeSet",
      "type": "event"
    },
    {
      "anonymous": false,
      "inputs": [
        {
          "indexed": true,
          "internalType": "address",
          "name": "factory",
          "type": "address"
        }
      ],
      "name": "FactorySet",
      "type": "event"
    },
    {
      "anonymous": false,
      "inputs": [
        {
          "indexed": true,
          "internalType": "address",
          "name": "deployer",
          "type": "address"
        },
        {
          "indexed": false,
          "internalType": "uint16",
          "name": "discount",
          "type": "uint16"
        }
      ],
      "name": "FeeDiscountApplied",
      "type": "event"
    },
    {
      "anonymous": false,
      "inputs": [
        {
          "indexed": true,
          "internalType": "address",
          "name": "requester",
          "type": "address"
        },
        {
          "indexed": false,
          "internalType": "address",
          "name": "intendedOwner",
          "type": "address"
        },
        {
          "indexed": false,
          "internalType": "uint256",
          "name": "feeApplied",
          "type": "uint256"
        }
      ],
      "name": "GatewaySuiteDeploymentProcessed",
      "type": "event"
    },
    {
      "anonymous": false,
      "inputs": [
        {
          "indexed": true,
          "internalType": "address",
          "name": "previousOwner",
          "type": "address"
        },
        {
          "indexed": true,
          "internalType": "address",
          "name": "newOwner",
          "type": "address"
        }
      ],
      "name": "OwnershipTransferred",
      "type": "event"
    },
    {
      "anonymous": false,
      "inputs": [
        {
          "indexed": true,
          "internalType": "bool",
          "name": "publicDeploymentStatus",
          "type": "bool"
        }
      ],
      "name": "PublicDeploymentStatusSet",
      "type": "event"
    },
    {
      "inputs": [
        {
          "internalType": "address",
          "name": "_agent",
          "type": "address"
        }
      ],
      "name": "addAgent",
      "outputs": [],
      "stateMutability": "nonpayable",
      "type": "function"
    },
    {
      "inputs": [
        {
          "internalType": "address",
          "name": "deployer",
          "type": "address"
        }
      ],
      "name": "addDeployer",
      "outputs": [],
      "stateMutability": "nonpayable",
      "type": "function"
    },
    {
      "inputs": [
        {
          "internalType": "address",
          "name": "deployer",
          "type": "address"
        },
        {
          "internalType": "uint16",
          "name": "discount",
          "type": "uint16"
        }
      ],
      "name": "applyFeeDiscount",
      "outputs": [],
      "stateMutability": "nonpayable",
      "type": "function"
    },
    {
      "inputs": [
        {
          "internalType": "address[]",
          "name": "deployers",
          "type": "address[]"
        }
      ],
      "name": "batchAddDeployer",
      "outputs": [],
      "stateMutability": "nonpayable",
      "type": "function"
    },
    {
      "inputs": [
        {
          "internalType": "address[]",
          "name": "deployers",
          "type": "address[]"
        },
        {
          "internalType": "uint16[]",
          "name": "discounts",
          "type": "uint16[]"
        }
      ],
      "name": "batchApplyFeeDiscount",
      "outputs": [],
      "stateMutability": "nonpayable",
      "type": "function"
    },
    {
      "inputs": [
        {
          "components": [
            {
              "internalType": "address",
              "name": "owner",
              "type": "address"
            },
            {
              "internalType": "string",
              "name": "name",
              "type": "string"
            },
            {
              "internalType": "string",
              "name": "symbol",
              "type": "string"
            },
            {
              "internalType": "uint8",
              "name": "decimals",
              "type": "uint8"
            },
            {
              "internalType": "address",
              "name": "irs",
              "type": "address"
            },
            {
              "internalType": "address",
              "name": "ONCHAINID",
              "type": "address"
            },
            {
              "internalType": "address[]",
              "name": "irAgents",
              "type": "address[]"
            },
            {
              "internalType": "address[]",
              "name": "tokenAgents",
              "type": "address[]"
            },
            {
              "internalType": "address[]",
              "name": "complianceModules",
              "type": "address[]"
            },
            {
              "internalType": "bytes[]",
              "name": "complianceSettings",
              "type": "bytes[]"
            },
            {
              "internalType": "address",
              "name": "lockContract",
              "type": "address"
            }
          ],
          "internalType": "struct ITREXFactory.TokenDetails[]",
          "name": "_tokenDetails",
          "type": "tuple[]"
        },
        {
          "components": [
            {
              "internalType": "uint256[]",
              "name": "claimTopics",
              "type": "uint256[]"
            },
            {
              "internalType": "address[]",
              "name": "issuers",
              "type": "address[]"
            },
            {
              "internalType": "uint256[][]",
              "name": "issuerClaims",
              "type": "uint256[][]"
            }
          ],
          "internalType": "struct ITREXFactory.ClaimDetails[]",
          "name": "_claimDetails",
          "type": "tuple[]"
        }
      ],
      "name": "batchDeployTREXSuite",
      "outputs": [],
      "stateMutability": "nonpayable",
      "type": "function"
    },
    {
      "inputs": [
        {
          "internalType": "address[]",
          "name": "deployers",
          "type": "address[]"
        }
      ],
      "name": "batchRemoveDeployer",
      "outputs": [],
      "stateMutability": "nonpayable",
      "type": "function"
    },
    {
      "inputs": [
        {
          "internalType": "address",
          "name": "deployer",
          "type": "address"
        }
      ],
      "name": "calculateFee",
      "outputs": [
        {
          "internalType": "uint256",
          "name": "",
          "type": "uint256"
        }
      ],
      "stateMutability": "view",
      "type": "function"
    },
    {
      "inputs": [
        {
          "components": [
            {
              "internalType": "address",
              "name": "owner",
              "type": "address"
            },
            {
              "internalType": "string",
              "name": "name",
              "type": "string"
            },
            {
              "internalType": "string",
              "name": "symbol",
              "type": "string"
            },
            {
              "internalType": "uint8",
              "name": "decimals",
              "type": "uint8"
            },
            {
              "internalType": "address",
              "name": "irs",
              "type": "address"
            },
            {
              "internalType": "address",
              "name": "ONCHAINID",
              "type": "address"
            },
            {
              "internalType": "address[]",
              "name": "irAgents",
              "type": "address[]"
            },
            {
              "internalType": "address[]",
              "name": "tokenAgents",
              "type": "address[]"
            },
            {
              "internalType": "address[]",
              "name": "complianceModules",
              "type": "address[]"
            },
            {
              "internalType": "bytes[]",
              "name": "complianceSettings",
              "type": "bytes[]"
            },
            {
              "internalType": "address",
              "name": "lockContract",
              "type": "address"
            }
          ],
          "internalType": "struct ITREXFactory.TokenDetails",
          "name": "_tokenDetails",
          "type": "tuple"
        },
        {
          "components": [
            {
              "internalType": "uint256[]",
              "name": "claimTopics",
              "type": "uint256[]"
            },
            {
              "internalType": "address[]",
              "name": "issuers",
              "type": "address[]"
            },
            {
              "internalType": "uint256[][]",
              "name": "issuerClaims",
              "type": "uint256[][]"
            }
          ],
          "internalType": "struct ITREXFactory.ClaimDetails",
          "name": "_claimDetails",
          "type": "tuple"
        }
      ],
      "name": "deployTREXSuite",
      "outputs": [],
      "stateMutability": "nonpayable",
      "type": "function"
    },
    {
      "inputs": [
        {
          "internalType": "bool",
          "name": "_isEnabled",
          "type": "bool"
        }
      ],
      "name": "enableDeploymentFee",
      "outputs": [],
      "stateMutability": "nonpayable",
      "type": "function"
    },
    {
      "inputs": [],
      "name": "getDeploymentFee",
      "outputs": [
        {
          "components": [
            {
              "internalType": "uint256",
              "name": "fee",
              "type": "uint256"
            },
            {
              "internalType": "address",
              "name": "feeToken",
              "type": "address"
            },
            {
              "internalType": "address",
              "name": "feeCollector",
              "type": "address"
            }
          ],
          "internalType": "struct ITREXGateway.Fee",
          "name": "",
          "type": "tuple"
        }
      ],
      "stateMutability": "view",
      "type": "function"
    },
    {
      "inputs": [],
      "name": "getFactory",
      "outputs": [
        {
          "internalType": "address",
          "name": "",
          "type": "address"
        }
      ],
      "stateMutability": "view",
      "type": "function"
    },
    {
      "inputs": [],
      "name": "getPublicDeploymentStatus",
      "outputs": [
        {
          "internalType": "bool",
          "name": "",
          "type": "bool"
        }
      ],
      "stateMutability": "view",
      "type": "function"
    },
    {
      "inputs": [
        {
          "internalType": "address",
          "name": "_agent",
          "type": "address"
        }
      ],
      "name": "isAgent",
      "outputs": [
        {
          "internalType": "bool",
          "name": "",
          "type": "bool"
        }
      ],
      "stateMutability": "view",
      "type": "function"
    },
    {
      "inputs": [
        {
          "internalType": "address",
          "name": "deployer",
          "type": "address"
        }
      ],
      "name": "isDeployer",
      "outputs": [
        {
          "internalType": "bool",
          "name": "",
          "type": "bool"
        }
      ],
      "stateMutability": "view",
      "type": "function"
    },
    {
      "inputs": [],
      "name": "isDeploymentFeeEnabled",
      "outputs": [
        {
          "internalType": "bool",
          "name": "",
          "type": "bool"
        }
      ],
      "stateMutability": "view",
      "type": "function"
    },
    {
      "inputs": [],
      "name": "owner",
      "outputs": [
        {
          "internalType": "address",
          "name": "",
          "type": "address"
        }
      ],
      "stateMutability": "view",
      "type": "function"
    },
    {
      "inputs": [
        {
          "internalType": "address",
          "name": "_agent",
          "type": "address"
        }
      ],
      "name": "removeAgent",
      "outputs": [],
      "stateMutability": "nonpayable",
      "type": "function"
    },
    {
      "inputs": [
        {
          "internalType": "address",
          "name": "deployer",
          "type": "address"
        }
      ],
      "name": "removeDeployer",
      "outputs": [],
      "stateMutability": "nonpayable",
      "type": "function"
    },
    {
      "inputs": [],
      "name": "renounceOwnership",
      "outputs": [],
      "stateMutability": "nonpayable",
      "type": "function"
    },
    {
      "inputs": [
        {
          "internalType": "uint256",
          "name": "_fee",
          "type": "uint256"
        },
        {
          "internalType": "address",
          "name": "_feeToken",
          "type": "address"
        },
        {
          "internalType": "address",
          "name": "_feeCollector",
          "type": "address"
        }
      ],
      "name": "setDeploymentFee",
      "outputs": [],
      "stateMutability": "nonpayable",
      "type": "function"
    },
    {
      "inputs": [
        {
          "internalType": "address",
          "name": "factory",
          "type": "address"
        }
      ],
      "name": "setFactory",
      "outputs": [],
      "stateMutability": "nonpayable",
      "type": "function"
    },
    {
      "inputs": [
        {
          "internalType": "bool",
          "name": "_isEnabled",
          "type": "bool"
        }
      ],
      "name": "setPublicDeploymentStatus",
      "outputs": [],
      "stateMutability": "nonpayable",
      "type": "function"
    },
    {
      "inputs": [
        {
          "internalType": "address",
          "name": "_newOwner",
          "type": "address"
        }
      ],
      "name": "transferFactoryOwnership",
      "outputs": [],
      "stateMutability": "nonpayable",
      "type": "function"
    },
    {
      "inputs": [
        {
          "internalType": "address",
          "name": "newOwner",
          "type": "address"
        }
      ],
      "name": "transferOwnership",
      "outputs": [],
      "stateMutability": "nonpayable",
      "type": "function"
    }
  ],
  "bytecode": "0x60803461011257601f611e9938819003918201601f19168301916001600160401b038311848410176101175780849260409485528339810103126101125780516001600160a01b0391828216918290036101125760200151908115158092036101125760008054336001600160a01b0319821681178355604051957ff8be33baa430c4b62d2c9d79ab319d10cc41755a1fb65f85e64ca0632c29d0a49492167f8be0079c531659141344cd1fd0a4f28419497f9722a3daafe3b4186f6b6457e08480a3600280546001600160a81b031916821760a086901b60ff60a01b161790557f1edf3afd4ac789736e00d216cd88be164ddcef26a6eedcc30cdb0cb62f3741b18280a280a2611d6b908161012e8239f35b600080fd5b634e487b7160e01b600052604160045260246000fdfe60406080815260048036101561001457600080fd5b600091823560e01c806265939e14610fcc5780631ffbb06414610fa65780632782035e14610e2b578063465f5eb814610dfe57806346c549cc14610d8e5780634770685114610d6a57806350c358a414610d405780635bb4780814610cd25780635d46c28314610c19578063715018a614610bbc57806375e14cff14610af757806384e7984214610a22578063880f40391461096f57806388cc58e4146109465780638da5cb5b1461091e578063941a1e1e1461079457806397a6278e146106b75780639c5c5ce71461061d578063a264f2bd1461056e578063b25fe8041461051c578063bfc2f10b146104f1578063e65811ff14610382578063eca465c4146102c1578063f2fde38b146101f45763f315df861461013257600080fd5b346101f05760203660031901126101f05761014b611122565b61015433611cc2565b15806101dc575b6101ce576001600160a01b031680845260076020528184205490929060ff16156101b9575081835260076020528220805460ff191690557ffdb22628e87f888d060acc53d048a6a8400a5024f81f9dcb0606e723f238864a8280a280f35b826024925191634e02340f60e01b8352820152fd5b5051631859551f60e31b8152fd5b5083546001600160a01b031633141561015b565b8280fd5b5090346101f05760203660031901126101f05761020f611122565b90610218611573565b6001600160a01b0391821692831561026f575050600054826bffffffffffffffffffffffff60a01b821617600055167f8be0079c531659141344cd1fd0a4f28419497f9722a3daafe3b4186f6b6457e0600080a380f35b906020608492519162461bcd60e51b8352820152602660248201527f4f776e61626c653a206e6577206f776e657220697320746865207a65726f206160448201526564647265737360d01b6064820152fd5b50346101f05760203660031901126101f057813591821591821580940361037e576102ea611573565b6002549260ff8460a01c161515851490818092610374575b610365578161035d575b5061035057505060ff60a01b191660a082901b60ff60a01b16176002557ff8be33baa430c4b62d2c9d79ab319d10cc41755a1fb65f85e64ca0632c29d0a48280a280f35b5163593cdd5360e11b8152fd5b90503861030c565b505051634cc2b9b760e01b8152fd5b5060018614610302565b8480fd5b5090346101f057602091826003193601126104ed5781356001600160401b03811161037e576103b490369084016110ed565b916103be33611cc2565b15806104d9575b6104ca576101f48084116104b45750855b8381106103e1578680f35b6104156103f76103f28387876115f0565b611616565b6001600160a01b031660009081526007602052604090205460ff1690565b61048657610481906001600160a01b03806104346103f28489896115f0565b16895260078852838920805460ff191660011790556104576103f28388886115f0565b167f861a21548a3ee34d896ccac3668a9d65030aaf2cb7367a2ed13608014016a0328980a26115cb565b6103d6565b6104976103f28692866024966115f0565b91516375c2ceb960e11b81526001600160a01b0390921690820152fd5b84906024925191632789f90560e11b8352820152fd5b51631859551f60e31b81528390fd5b5085546001600160a01b03163314156103c5565b8380fd5b83823461051857816003193601126105185760209060ff60025460a01c1690519015158152f35b5080fd5b50346101f057366003190112610518576001600160401b0381358181116104ed5761054a903690840161127f565b906024359081116104ed5761056b926105659136910161148b565b90611706565b80f35b50346101f05760203660031901126101f057813591821591821580940361037e57610597611573565b6006549260ff841615158514908180610613575b61060457816105fc575b506105ef57505060ff191660ff8216176006557f576845931000b1b98d2173829911e0db5a788158585b3da38572ec01552217d58280a280f35b516398e8f30360e01b8152fd5b9050386105b5565b5050516360d38b9560e01b8152fd5b50600186146105ab565b50346101f05760203660031901126101f057610637611122565b91610640611573565b6002546001600160a01b0390811693859190853b156101f057602490838651978894859363f2fde38b60e01b855216878401525af180156106ad57610683578380f35b6001600160401b03831161069a5750523880808380f35b634e487b7160e01b845260419052602483fd5b82513d86823e3d90fd5b5090346101f05760203660031901126101f0576106d2611122565b906106db611573565b6001600160a01b038216926106f1841515611c76565b6106fa83611cc2565b156107475750506001600160a01b03166000908152600160205260409020805460ff191690557fed9c8ad8d5a0a66898ea49d2956929c93ae2e8bd50281b2ed897c5d1a6737e0b8280a280f35b906020608492519162461bcd60e51b8352820152602160248201527f526f6c65733a206163636f756e7420646f6573206e6f74206861766520726f6c6044820152606560f81b6064820152fd5b508290346105185780600319360112610518578235906001600160401b03938483116104ed57366023840112156104ed5782810135916107d38361119e565b936107e08251958661117d565b8385526020908186016024809660051b8301019136831161091a57868101915b8383106108f057505050508335968088116108ec57366023890112156108ec578784013561082d8161119e565b9861083a85519a8b61117d565b818a5286848b019260051b820101923684116108e857878201925b8484106108be5750505050505060058451116108aa57505050815b81518110156108a6578061089c61088a6108a19385611639565b516108958388611639565b5190611706565b6115cb565b610870565b8280f35b6005905191632789f90560e11b8352820152fd5b83358281116108e45786916108d983928c369188010161148b565b815201930192610855565b8b80fd5b8980fd5b8680fd5b82358b811161091657859161090b83928b369187010161127f565b815201920191610800565b8a80fd5b8880fd5b838234610518578160031936011261051857905490516001600160a01b039091168152602090f35b83823461051857816003193601126105185760025490516001600160a01b039091168152602090f35b50346101f05760203660031901126101f057610989611122565b61099233611cc2565b1580610a0e575b6101ce576001600160a01b031680845260076020528184205490929060ff166109f9575081835260076020528220805460ff191660011790557f861a21548a3ee34d896ccac3668a9d65030aaf2cb7367a2ed13608014016a0328280a280f35b8260249251916375c2ceb960e11b8352820152fd5b5083546001600160a01b0316331415610999565b5090346101f05760203660031901126101f057610a3d611122565b90610a46611573565b6001600160a01b03821692610a5c841515611c76565b610a6583611cc2565b610ab45750506001600160a01b03166000908152600160205260409020805460ff191660011790557ff68e73cec97f2d70aa641fb26e87a4383686e2efacb648f2165aeb02ac562ec58280a280f35b906020606492519162461bcd60e51b8352820152601f60248201527f526f6c65733a206163636f756e7420616c72656164792068617320726f6c65006044820152fd5b5090346101f057816003193601126101f057610b11611122565b6024359161ffff831680930361037e57610b2a33611cc2565b1580610ba8575b610b9a576127108311610b8c57506001600160a01b031680845260086020908152838520805461ffff1916841790559251918252917fd254de1c4bdaafc52898e46f43ed993ee35724d55a0df75ebcb55f9f6c470dab91a280f35b835163eb2b61a560e01b8152fd5b8351631859551f60e31b8152fd5b5084546001600160a01b0316331415610b31565b8334610c165780600319360112610c1657610bd5611573565b80546001600160a01b03198116825581906001600160a01b03167f8be0079c531659141344cd1fd0a4f28419497f9722a3daafe3b4186f6b6457e08280a380f35b80fd5b5090346101f05760603660031901126101f0576001600160a01b0391602435838116928035929091849003610cce57604435948516809503610cce57610c5d611573565b83158015610cc6575b610cb957508390826003556bffffffffffffffffffffffff60a01b90848282541617905560055416176005557f62aa79f6e449920637ad5310ea6ef9c67a32aaa6a8b98cd6814452daf11213a38480a480f35b5163d92e233d60e01b8152fd5b508415610c66565b8580fd5b5090346101f05760203660031901126101f057610ced611122565b610cf5611573565b6001600160a01b0316918215610cb9575050600280546001600160a01b031916821790557f1edf3afd4ac789736e00d216cd88be164ddcef26a6eedcc30cdb0cb62f3741b18280a280f35b83823461051857602036600319011261051857602090610d616103f7611122565b90519015158152f35b83823461051857816003193601126105185760209060ff6006541690519015158152f35b50346101f057826003193601126101f057606092818051610dae8161114c565b8281528260208201520152805191610dc58361114c565b6003549283815260018060a01b038080935416602083019081528482600554169301928352845195865251166020850152511690820152f35b83823461051857602036600319011261051857602090610e24610e1f611122565b611c0a565b9051908152f35b508290346105185780600319360112610518576001600160401b039280358481116104ed57610e5d90369083016110ed565b91909460243590811161037e57610e7790369083016110ed565b9190610e8233611cc2565b1580610f92575b610f83576101f4808511610f6d5750855b848110610ea5578680f35b61ffff61271081610ebf610eba8589886115f0565b61162a565b1611610f5d5790610f58917fd254de1c4bdaafc52898e46f43ed993ee35724d55a0df75ebcb55f9f6c470dab8989610f3c6103f2868f8d90610f06610eba8f85908f6115f0565b6001600160a01b03968a9088610f206103f28888886115f0565b168a5260209960088b5220911661ffff198254161790556115f0565b610f4a610eba878c8b6115f0565b8c51951685521692a26115cb565b610e9a565b865163eb2b61a560e01b81528490fd5b82602491875191632789f90560e11b8352820152fd5b508351631859551f60e31b8152fd5b5085546001600160a01b0316331415610e89565b83823461051857602036600319011261051857602090610d61610fc7611122565b611cc2565b5090346101f057602091826003193601126104ed5781356001600160401b03811161037e57610ffe90369084016110ed565b9161100833611cc2565b15806110d9575b6104ca576101f48084116104b45750855b83811061102b578680f35b61103c6103f76103f28387876115f0565b156110ab576110a6906001600160a01b038061105c6103f28489896115f0565b16895260078852838920805460ff1916905561107c6103f28388886115f0565b167ffdb22628e87f888d060acc53d048a6a8400a5024f81f9dcb0606e723f238864a8980a26115cb565b611020565b6110bc6103f28692866024966115f0565b9151634e02340f60e01b81526001600160a01b0390921690820152fd5b5085546001600160a01b031633141561100f565b9181601f8401121561111d578235916001600160401b03831161111d576020808501948460051b01011161111d57565b600080fd5b600435906001600160a01b038216820361111d57565b35906001600160a01b038216820361111d57565b606081019081106001600160401b0382111761116757604052565b634e487b7160e01b600052604160045260246000fd5b90601f801991011681019081106001600160401b0382111761116757604052565b6001600160401b0381116111675760051b60200190565b9291926001600160401b03821161116757604051916111de601f8201601f19166020018461117d565b82948184528183011161111d578281602093846000960137010152565b9080601f8301121561111d57816020611216933591016111b5565b90565b81601f8201121561111d578035916112308361119e565b9261123e604051948561117d565b808452602092838086019260051b82010192831161111d578301905b828210611268575050505090565b83809161127484611138565b81520191019061125a565b91909161016090818185031261111d576040938451928301906001600160401b03918481108382111761116757865283956112b984611138565b85526020908185013584811161111d57836112d59187016111fb565b828701528085013584811161111d57836112f09187016111fb565b81870152606085013560ff8116810361111d57606087015261131460808601611138565b608087015261132560a08601611138565b60a087015260c085013584811161111d5783611342918701611219565b60c087015260e085013584811161111d578361135f918701611219565b60e08701526101008086013585811161111d578461137e918801611219565b90870152610120928386013585811161111d5786019181601f8401121561111d578235906113ab8261119e565b966113b88251988961117d565b828852858089019360051b8601019484861161111d57868101935b8685106113f85750505050505050508301526113f3610140809201611138565b910152565b843583811161111d57820186603f8201121561111d578891611422888388868096013591016111b5565b8152019401936113d3565b81601f8201121561111d578035916114448361119e565b92611452604051948561117d565b808452602092838086019260051b82010192831161111d578301905b82821061147c575050505090565b8135815290830190830161146e565b91909160608184031261111d576040516001600160401b03916060820183811183821017611167576040528194813584811161111d57816114cd91840161142d565b83526020918281013585811161111d57826114e9918301611219565b8385015260408101359085821161111d570181601f8201121561111d5780356115118161119e565b9561151f604051978861117d565b818752848088019260051b8401019380851161111d57858401925b85841061154e575050505050505060400152565b833583811161111d578791611568848480948a010161142d565b81520193019261153a565b6000546001600160a01b0316330361158757565b606460405162461bcd60e51b815260206004820152602060248201527f4f776e61626c653a2063616c6c6572206973206e6f7420746865206f776e65726044820152fd5b60001981146115da5760010190565b634e487b7160e01b600052601160045260246000fd5b91908110156116005760051b0190565b634e487b7160e01b600052603260045260246000fd5b356001600160a01b038116810361111d5790565b3561ffff8116810361111d5790565b80518210156116005760209160051b010190565b60005b8381106116605750506000910152565b8181015183820152602001611650565b906020916116898151809281855285808601910161164d565b601f01601f1916010190565b90815180825260208080930193019160005b8281106116b5575050505090565b83516001600160a01b0316855293810193928101926001016116a7565b90815180825260208080930193019160005b8281106116f2575050505090565b8351855293810193928101926001016116e4565b60025460a01c60ff16158080611bf1575b611bdf571560011480611bcb575b80611bb2575b611ba057600091600160ff60065416151514611ae5575b815160405191906001600160a01b031661175b8361114c565b602a8352602083019060403683378351156116005760308253835160011015611600576078602185015360295b60018111611a9e5750611a5a576117d760206117b794818701938451906040519788935180928686019061164d565b82016117cb8251809386808501910161164d565b0103808652018461117d565b6002546001600160a01b031691823b1561111d579061182193916118c96118b56118a361186061184e604051998a9863acef131b60e01b8a52606060048b015260648a0190611670565b8881036003190160248a01528b516001600160a01b03168152965161016060208901819052880190611670565b60408b01518782036040890152611670565b60ff60608b015116606087015260018060a01b0360808b015116608087015260018060a01b0360a08b01511660a087015260c08a015186820360c0880152611695565b60e089015185820360e0870152611695565b610100808901519085830390860152611695565b9161012092838801519382820390830152835180825260208201916020808360051b8301019601926000915b838310611a2557505050505061014060018060a01b038189015116910152600319838303016044840152604061194961193783516060865260608601906116d2565b60208401518582036020870152611695565b910151916040818303910152815180825260208201916020808360051b8301019401926000915b8383106119f45750505050509181600081819503925af180156119e8576119d1575b5060018060a01b039051169060405191825260208201527f3ddb07c2df247d32c71cd94e46f101dd4a4bcd5ce07afc925673aa63ba24960e60403392a2565b6001600160401b0381116111675760405238611992565b6040513d6000823e3d90fd5b919395509193602080611a13600193601f1986820301875289516116d2565b97019301930190928795949293611970565b9193975091939495602080611a46600193601f198682030187528b51611670565b9901930193019092899796959492936118f5565b606460405162461bcd60e51b815260206004820152602060248201527f537472696e67733a20686578206c656e67746820696e73756666696369656e746044820152fd5b90600f81166010811015611600578551831015611600576f181899199a1a9b1b9c1cb0b131b232b360811b901a8583016020015360041c9080156115da5760001901611788565b600354151580611b85575b15611742579150611b0033611c0a565b916000602060018060a01b0360648160045416916005541660405194859384926323b872dd60e01b845233600485015260248401528960448401525af180156119e857611b4e575b50611742565b6020813d8211611b7d575b81611b666020938361117d565b8101031261111d57518015150361111d5738611b48565b3d9150611b59565b50338352600860205261271061ffff60408520541610611af0565b6040516318f44adb60e01b8152600490fd5b5033600052600760205260ff604060002054161561172b565b5080516001600160a01b0316331415611725565b604051632deadb8b60e21b8152600490fd5b5033600052600760205260ff6040600020541615611717565b6003546001600160a01b0390911660009081526008602052604081205461ffff1680830290801590820484141715611c625761271090048203918211611c4e575090565b634e487b7160e01b81526011600452602490fd5b634e487b7160e01b82526011600452602482fd5b15611c7d57565b60405162461bcd60e51b815260206004820152601f60248201527f696e76616c696420617267756d656e74202d207a65726f2061646472657373006044820152606490fd5b6001600160a01b03168015611ce557600052600160205260ff6040600020541690565b60405162461bcd60e51b815260206004820152602260248201527f526f6c65733a206163636f756e7420697320746865207a65726f206164647265604482015261737360f01b6064820152608490fdfea2646970667358221220f6c4145f4cc1cdfa4f40f9eaaf1ed9d46323f636f30b57a3a81e7acb83e9b1ef64736f6c63430008110033",
  "linkReferences": {},
  "deployedLinkReferences": {}
}