{
  "_format": "hh-sol-artifact-1",
  "contractName": "CountryAllowModule",
  "sourceName": "contracts/compliance/modular/modules/CountryAllowModule.sol",
  "abi": [
    {
      "inputs": [
        {
          "internalType": "address",
          "name": "_compliance",
          "type": "address"
        },
        {
          "internalType": "uint16",
          "name": "_country",
          "type": "uint16"
        }
      ],
      "name": "CountryAlreadyAllowed",
      "type": "error"
    },
    {
      "inputs": [
        {
          "internalType": "address",
          "name": "_compliance",
          "type": "address"
        },
        {
          "internalType": "uint16",
          "name": "_country",
          "type": "uint16"
        }
      ],
      "name": "CountryNotAllowed",
      "type": "error"
    },
    {
      "anonymous": false,
      "inputs": [
        {
          "indexed": false,
          "internalType": "address",
          "name": "previousAdmin",
          "type": "address"
        },
        {
          "indexed": false,
          "internalType": "address",
          "name": "newAdmin",
          "type": "address"
        }
      ],
      "name": "AdminChanged",
      "type": "event"
    },
    {
      "anonymous": false,
      "inputs": [
        {
          "indexed": true,
          "internalType": "address",
          "name": "beacon",
          "type": "address"
        }
      ],
      "name": "BeaconUpgraded",
      "type": "event"
    },
    {
      "anonymous": false,
      "inputs": [
        {
          "indexed": true,
          "internalType": "address",
          "name": "_compliance",
          "type": "address"
        }
      ],
      "name": "ComplianceBound",
      "type": "event"
    },
    {
      "anonymous": false,
      "inputs": [
        {
          "indexed": true,
          "internalType": "address",
          "name": "_compliance",
          "type": "address"
        }
      ],
      "name": "ComplianceUnbound",
      "type": "event"
    },
    {
      "anonymous": false,
      "inputs": [
        {
          "indexed": false,
          "internalType": "address",
          "name": "_compliance",
          "type": "address"
        },
        {
          "indexed": false,
          "internalType": "uint16",
          "name": "_country",
          "type": "uint16"
        }
      ],
      "name": "CountryAllowed",
      "type": "event"
    },
    {
      "anonymous": false,
      "inputs": [
        {
          "indexed": false,
          "internalType": "address",
          "name": "_compliance",
          "type": "address"
        },
        {
          "indexed": false,
          "internalType": "uint16",
          "name": "_country",
          "type": "uint16"
        }
      ],
      "name": "CountryUnallowed",
      "type": "event"
    },
    {
      "anonymous": false,
      "inputs": [
        {
          "indexed": false,
          "internalType": "uint8",
          "name": "version",
          "type": "uint8"
        }
      ],
      "name": "Initialized",
      "type": "event"
    },
    {
      "anonymous": false,
      "inputs": [
        {
          "indexed": true,
          "internalType": "address",
          "name": "previousOwner",
          "type": "address"
        },
        {
          "indexed": true,
          "internalType": "address",
          "name": "newOwner",
          "type": "address"
        }
      ],
      "name": "OwnershipTransferred",
      "type": "event"
    },
    {
      "anonymous": false,
      "inputs": [
        {
          "indexed": true,
          "internalType": "address",
          "name": "implementation",
          "type": "address"
        }
      ],
      "name": "Upgraded",
      "type": "event"
    },
    {
      "inputs": [
        {
          "internalType": "uint16",
          "name": "_country",
          "type": "uint16"
        }
      ],
      "name": "addAllowedCountry",
      "outputs": [],
      "stateMutability": "nonpayable",
      "type": "function"
    },
    {
      "inputs": [
        {
          "internalType": "uint16[]",
          "name": "_countries",
          "type": "uint16[]"
        }
      ],
      "name": "batchAllowCountries",
      "outputs": [],
      "stateMutability": "nonpayable",
      "type": "function"
    },
    {
      "inputs": [
        {
          "internalType": "uint16[]",
          "name": "_countries",
          "type": "uint16[]"
        }
      ],
      "name": "batchDisallowCountries",
      "outputs": [],
      "stateMutability": "nonpayable",
      "type": "function"
    },
    {
      "inputs": [
        {
          "internalType": "address",
          "name": "_compliance",
          "type": "address"
        }
      ],
      "name": "bindCompliance",
      "outputs": [],
      "stateMutability": "nonpayable",
      "type": "function"
    },
    {
      "inputs": [
        {
          "internalType": "address",
          "name": "",
          "type": "address"
        }
      ],
      "name": "canComplianceBind",
      "outputs": [
        {
          "internalType": "bool",
          "name": "",
          "type": "bool"
        }
      ],
      "stateMutability": "view",
      "type": "function"
    },
    {
      "inputs": [],
      "name": "initialize",
      "outputs": [],
      "stateMutability": "nonpayable",
      "type": "function"
    },
    {
      "inputs": [
        {
          "internalType": "address",
          "name": "_compliance",
          "type": "address"
        }
      ],
      "name": "isComplianceBound",
      "outputs": [
        {
          "internalType": "bool",
          "name": "",
          "type": "bool"
        }
      ],
      "stateMutability": "view",
      "type": "function"
    },
    {
      "inputs": [
        {
          "internalType": "address",
          "name": "_compliance",
          "type": "address"
        },
        {
          "internalType": "uint16",
          "name": "_country",
          "type": "uint16"
        }
      ],
      "name": "isCountryAllowed",
      "outputs": [
        {
          "internalType": "bool",
          "name": "",
          "type": "bool"
        }
      ],
      "stateMutability": "view",
      "type": "function"
    },
    {
      "inputs": [],
      "name": "isPlugAndPlay",
      "outputs": [
        {
          "internalType": "bool",
          "name": "",
          "type": "bool"
        }
      ],
      "stateMutability": "pure",
      "type": "function"
    },
    {
      "inputs": [
        {
          "internalType": "address",
          "name": "_from",
          "type": "address"
        },
        {
          "internalType": "uint256",
          "name": "_value",
          "type": "uint256"
        }
      ],
      "name": "moduleBurnAction",
      "outputs": [],
      "stateMutability": "nonpayable",
      "type": "function"
    },
    {
      "inputs": [
        {
          "internalType": "address",
          "name": "",
          "type": "address"
        },
        {
          "internalType": "address",
          "name": "_to",
          "type": "address"
        },
        {
          "internalType": "uint256",
          "name": "",
          "type": "uint256"
        },
        {
          "internalType": "address",
          "name": "_compliance",
          "type": "address"
        }
      ],
      "name": "moduleCheck",
      "outputs": [
        {
          "internalType": "bool",
          "name": "",
          "type": "bool"
        }
      ],
      "stateMutability": "view",
      "type": "function"
    },
    {
      "inputs": [
        {
          "internalType": "address",
          "name": "_to",
          "type": "address"
        },
        {
          "internalType": "uint256",
          "name": "_value",
          "type": "uint256"
        }
      ],
      "name": "moduleMintAction",
      "outputs": [],
      "stateMutability": "nonpayable",
      "type": "function"
    },
    {
      "inputs": [
        {
          "internalType": "address",
          "name": "_from",
          "type": "address"
        },
        {
          "internalType": "address",
          "name": "_to",
          "type": "address"
        },
        {
          "internalType": "uint256",
          "name": "_value",
          "type": "uint256"
        }
      ],
      "name": "moduleTransferAction",
      "outputs": [],
      "stateMutability": "nonpayable",
      "type": "function"
    },
    {
      "inputs": [],
      "name": "name",
      "outputs": [
        {
          "internalType": "string",
          "name": "_name",
          "type": "string"
        }
      ],
      "stateMutability": "pure",
      "type": "function"
    },
    {
      "inputs": [],
      "name": "owner",
      "outputs": [
        {
          "internalType": "address",
          "name": "",
          "type": "address"
        }
      ],
      "stateMutability": "view",
      "type": "function"
    },
    {
      "inputs": [],
      "name": "proxiableUUID",
      "outputs": [
        {
          "internalType": "bytes32",
          "name": "",
          "type": "bytes32"
        }
      ],
      "stateMutability": "view",
      "type": "function"
    },
    {
      "inputs": [
        {
          "internalType": "uint16",
          "name": "_country",
          "type": "uint16"
        }
      ],
      "name": "removeAllowedCountry",
      "outputs": [],
      "stateMutability": "nonpayable",
      "type": "function"
    },
    {
      "inputs": [],
      "name": "renounceOwnership",
      "outputs": [],
      "stateMutability": "nonpayable",
      "type": "function"
    },
    {
      "inputs": [
        {
          "internalType": "address",
          "name": "newOwner",
          "type": "address"
        }
      ],
      "name": "transferOwnership",
      "outputs": [],
      "stateMutability": "nonpayable",
      "type": "function"
    },
    {
      "inputs": [
        {
          "internalType": "address",
          "name": "_compliance",
          "type": "address"
        }
      ],
      "name": "unbindCompliance",
      "outputs": [],
      "stateMutability": "nonpayable",
      "type": "function"
    },
    {
      "inputs": [
        {
          "internalType": "address",
          "name": "newImplementation",
          "type": "address"
        }
      ],
      "name": "upgradeTo",
      "outputs": [],
      "stateMutability": "nonpayable",
      "type": "function"
    },
    {
      "inputs": [
        {
          "internalType": "address",
          "name": "newImplementation",
          "type": "address"
        },
        {
          "internalType": "bytes",
          "name": "data",
          "type": "bytes"
        }
      ],
      "name": "upgradeToAndCall",
      "outputs": [],
      "stateMutability": "payable",
      "type": "function"
    }
  ],
  "bytecode": "0x60a08060405234610031573060805261175c9081610037823960805181818161066c0152818161087d0152610c510152f35b600080fdfe6080604081815260048036101561001557600080fd5b600092833560e01c908163013b7ce414610fa3575080630694a5fb14610f0a57806306fdde0314610e955780630f4f090414610e3e5780632cb7e1ec14610e1b5780633659cfe614610c2a578063372491a2146101a95780634a93254414610b4f5780634cf4d29514610b045780634f1ef286146108035780634f44425e1461071957806352d1902d14610657578063715018a6146105fa578063771c52811461054b5780638129fc1c146103fd578063817544c3146103105780638da5cb5b146102e7578063bcc21053146102c1578063c08e1502146101ee578063e6f5e807146101d2578063f104a8c9146101a95763f2fde38b1461011557600080fd5b346101a55760203660031901126101a55761012e611149565b91610137611291565b6001600160a01b038316156101535783610150846112e9565b80f35b906020608492519162461bcd60e51b8352820152602660248201527f4f776e61626c653a206e6577206f776e657220697320746865207a65726f206160448201526564647265737360d01b6064820152fd5b8280fd5b5050346101ce573660031901126101cb576101c2611149565b506101506116bd565b80fd5b5080fd5b5050346101ce57816003193601126101ce576020905160018152f35b5050346101ce576101fe36611244565b919091338452602092600080516020611707833981519152845261022760ff84872054166115b7565b845b828110610234578580f35b6102bc9033875260c9865284872061ffff610258610253848888611688565b6116ae565b1688528652848720805460ff191690557f35c7374bcb82f2355cb703c8ab6162f87fe83b99618bdb78c6d19b07ddf060a26102b461029a610253848888611688565b875133815261ffff90911660208201529081906040820190565b0390a1611663565b610229565b5050346101ce5760203660031901126101ce576020906102df611149565b505160018152f35b5050346101ce57816003193601126101ce5760335490516001600160a01b039091168152602090f35b5090346101a557602091826003193601126103f95761032d6111c3565b92338552600080516020611707833981519152815261035160ff84872054166115b7565b33855260c981528285209161ffff851692838752825260ff8487205416156103ce57503380865260c98252838620928652919052818420805460ff19169055905190815261ffff90911660208201527f35c7374bcb82f2355cb703c8ab6162f87fe83b99618bdb78c6d19b07ddf060a29080604081015b0390a180f35b835163236a687560e11b81523391810191825261ffff861660208301529081906040010390fd5b0390fd5b8380fd5b50346101a557826003193601126101a557825460ff8160081c16159182809361053e575b8015610527575b156104cd575060ff1981166001178455816104bc575b5061046160ff845460081c1661045381611603565b61045c81611603565b611603565b61046a336112e9565b82549061047c60ff8360081c16611603565b610484578280f35b61ff001916825551600181527f7f26b83ff96e1f2b6a682f133852f6798a09c465da95921460cefb384740249890602090a138808280f35b61ffff19166101011783553861043e565b608490602085519162461bcd60e51b8352820152602e60248201527f496e697469616c697a61626c653a20636f6e747261637420697320616c72656160448201526d191e481a5b9a5d1a585b1a5e995960921b6064820152fd5b50303b1580156104285750600160ff831614610428565b50600160ff831610610421565b5050346101ce5761055b36611244565b919091338452602092600080516020611707833981519152845261058460ff84872054166115b7565b845b828110610591578580f35b6105f59033875260c9865284872061ffff6105b0610253848888611688565b1688528652848720805460ff191660011790557f48c279381632bf87fca2680865a7384b6eb20716fd96b882b305a2198930a0746102b461029a610253848888611688565b610586565b83346101cb57806003193601126101cb57610613611291565b603380546001600160a01b0319811690915581906001600160a01b03167f8be0079c531659141344cd1fd0a4f28419497f9722a3daafe3b4186f6b6457e08280a380f35b5082346101cb57806003193601126101cb57507f00000000000000000000000000000000000000000000000000000000000000006001600160a01b031630036106b157602082516000805160206116e78339815191528152f35b6020608492519162461bcd60e51b8352820152603860248201527f555550535570677261646561626c653a206d757374206e6f742062652063616c60448201527f6c6564207468726f7567682064656c656761746563616c6c00000000000000006064820152fd5b5090346101a557602091826003193601126103f9576107366111c3565b92338552600080516020611707833981519152815261075a60ff84872054166115b7565b33855260c981528285209161ffff8516928387528252600160ff85882054161515146107dc57503380865260c98252838620928652919052818420805460ff19166001179055905190815261ffff90911660208201527f48c279381632bf87fca2680865a7384b6eb20716fd96b882b305a2198930a0749080604081016103c8565b835163af6d613560e01b81523391810191825261ffff861660208301529081906040010390fd5b5090806003193601126101a557610818611149565b906024359067ffffffffffffffff8211610b005736602383011215610b00578184013561084481611228565b61085083519182611206565b818152866020948583019336602482840101116101a5578060248893018637830101526001600160a01b037f00000000000000000000000000000000000000000000000000000000000000008116906108ab30831415611332565b6108c86000805160206116e7833981519152928284541614611393565b6108d0611291565b7f4910fdfa16fed3260ed0e7147f7cc6da11a60208b5b9406d12a635614ffd91435460ff161561090a5750505050505061015091506113f4565b869293949596169085516352d1902d60e01b815287818a81865afa8a9181610acd575b5061098c57865162461bcd60e51b8152808a01899052602e60248201527f45524331393637557067726164653a206e657720696d706c656d656e7461746960448201526d6f6e206973206e6f74205555505360901b6064820152608490fd5b979192939695949703610a7857506109a3826113f4565b7fbc7cd75a20ee27fd9adebab32041f755214dbc6bffa90cc0225b39da2e5c2d3b8780a285845115801590610a70575b6109e1575b50505050505080f35b80610a5a968451966109f2886111d4565b602788527f416464726573733a206c6f772d6c6576656c2064656c65676174652063616c6c87890152660819985a5b195960ca1b868901525190845af4913d15610a66573d610a4c610a4382611228565b92519283611206565b81528681943d92013e611484565b503880808080856109d8565b5060609250611484565b5060016109d3565b835162461bcd60e51b8152908101859052602960248201527f45524331393637557067726164653a20756e737570706f727465642070726f786044820152681a58589b195555525160ba1b6064820152608490fd5b9091508881813d8311610af9575b610ae58183611206565b81010312610af55751903861092d565b8a80fd5b503d610adb565b8480fd5b5050346101ce5760203660031901126101ce5760209160ff9082906001600160a01b03610b2f611149565b168152600080516020611707833981519152855220541690519015158152f35b5090346101a55760203660031901126101a5576001600160a01b03610b72611149565b1691610b7f831515611515565b828452600080516020611707833981519152908160205260ff8386205416610be75750610bad833314611561565b8284526020528220805460ff191660011790557f1f7b76c58fb697eb53c6c7c1becb96911516a136e24d7ced386b2355358b75a38280a280f35b606490602084519162461bcd60e51b8352820152601860248201527f636f6d706c69616e636520616c726561647920626f756e6400000000000000006044820152fd5b5090346101a5576020806003193601126103f957610c46611149565b916001600160a01b037f00000000000000000000000000000000000000000000000000000000000000008116610c7e30821415611332565b610c9b6000805160206116e7833981519152918383541614611393565b610ca3611291565b8251908482019282841067ffffffffffffffff851117610e08578385528883527f4910fdfa16fed3260ed0e7147f7cc6da11a60208b5b9406d12a635614ffd91435460ff1615610cfd5750505050505061015091506113f4565b869293949596169085516352d1902d60e01b815287818a81865afa8a9181610dd9575b50610d7f57865162461bcd60e51b8152808a01899052602e60248201527f45524331393637557067726164653a206e657720696d706c656d656e7461746960448201526d6f6e206973206e6f74205555505360901b6064820152608490fd5b979192939695949703610a785750610d96826113f4565b7fbc7cd75a20ee27fd9adebab32041f755214dbc6bffa90cc0225b39da2e5c2d3b8780a285845115801590610dd2576109e15750505050505080f35b50806109d3565b9091508881813d8311610e01575b610df18183611206565b81010312610af557519038610d20565b503d610de7565b634e487b7160e01b895260418852602489fd5b83346101cb5760603660031901126101cb57610e35611149565b506101c2611164565b5050346101ce57806003193601126101ce57610e58611149565b6024359061ffff82168092036103f9576001600160a01b0316835260c960209081528284209184529081529181902054905160ff90911615158152f35b509190346101ce57816003193601126101ce578051918183019083821067ffffffffffffffff831117610ef75750610ef3935081526012825271436f756e747279416c6c6f774d6f64756c6560701b6020830152519182918261117a565b0390f35b634e487b7160e01b815260418552602490fd5b5050346101ce5760203660031901126101ce57610f25611149565b903383526000805160206117078339815191529182602052610f4c60ff83862054166115b7565b6001600160a01b031691610f61831515611515565b610f6c833314611561565b8284526020528220805460ff191690557f408b49d9be1c914c52a0227e18a077e5a892dddf32a26cfa94a5d9708fad77188280a280f35b939050346101cb5760803660031901126101cb57610fbf611149565b50610fc8611164565b6001600160a01b0360643581811692908390036103f957630d47dbe560e31b875260209687818781875afa90811561110657839189918791611110575b50878951809481936304d3863d60e21b8352165afa90811561110657908893929186916110ca575b50908260249289519889958694637e42683b60e01b86521690840152165afa9081156110c057908291859391611080575b60ff9450825260c9865261ffff83832091168252855220541690519015158152f35b925050918481813d83116110b9575b6110998183611206565b810103126101a5575161ffff811681036101a55791839160ff939061105e565b503d61108f565b84513d84823e3d90fd5b848193949592503d83116110ff575b6110e38183611206565b81010312610b0057518281168103610b0057879291908261102d565b503d6110d9565b87513d87823e3d90fd5b92505081813d8311611142575b6111278183611206565b81010312610b0057518281168103610b005787839138611005565b503d61111d565b600435906001600160a01b038216820361115f57565b600080fd5b602435906001600160a01b038216820361115f57565b6020808252825181830181905290939260005b8281106111af57505060409293506000838284010152601f8019910116010190565b81810186015184820160400152850161118d565b6004359061ffff8216820361115f57565b6060810190811067ffffffffffffffff8211176111f057604052565b634e487b7160e01b600052604160045260246000fd5b90601f8019910116810190811067ffffffffffffffff8211176111f057604052565b67ffffffffffffffff81116111f057601f01601f191660200190565b90602060031983011261115f5760043567ffffffffffffffff9283821161115f578060238301121561115f57816004013593841161115f5760248460051b8301011161115f576024019190565b6033546001600160a01b031633036112a557565b606460405162461bcd60e51b815260206004820152602060248201527f4f776e61626c653a2063616c6c6572206973206e6f7420746865206f776e65726044820152fd5b603380546001600160a01b039283166001600160a01b0319821681179092559091167f8be0079c531659141344cd1fd0a4f28419497f9722a3daafe3b4186f6b6457e0600080a3565b1561133957565b60405162461bcd60e51b815260206004820152602c60248201527f46756e6374696f6e206d7573742062652063616c6c6564207468726f7567682060448201526b19195b1959d85d1958d85b1b60a21b6064820152608490fd5b1561139a57565b60405162461bcd60e51b815260206004820152602c60248201527f46756e6374696f6e206d7573742062652063616c6c6564207468726f7567682060448201526b6163746976652070726f787960a01b6064820152608490fd5b803b15611429576000805160206116e783398151915280546001600160a01b0319166001600160a01b03909216919091179055565b60405162461bcd60e51b815260206004820152602d60248201527f455243313936373a206e657720696d706c656d656e746174696f6e206973206e60448201526c1bdd08184818dbdb9d1c9858dd609a1b6064820152608490fd5b919290156114e65750815115611498575090565b3b156114a15790565b60405162461bcd60e51b815260206004820152601d60248201527f416464726573733a2063616c6c20746f206e6f6e2d636f6e74726163740000006044820152606490fd5b8251909150156114f95750805190602001fd5b60405162461bcd60e51b81529081906103f5906004830161117a565b1561151c57565b60405162461bcd60e51b815260206004820152601f60248201527f696e76616c696420617267756d656e74202d207a65726f2061646472657373006044820152606490fd5b1561156857565b60405162461bcd60e51b815260206004820152602160248201527f6f6e6c7920636f6d706c69616e636520636f6e74726163742063616e2063616c6044820152601b60fa1b6064820152608490fd5b156115be57565b60405162461bcd60e51b815260206004820152601e60248201527f6f6e6c7920626f756e6420636f6d706c69616e63652063616e2063616c6c00006044820152606490fd5b1561160a57565b60405162461bcd60e51b815260206004820152602b60248201527f496e697469616c697a61626c653a20636f6e7472616374206973206e6f74206960448201526a6e697469616c697a696e6760a81b6064820152608490fd5b60001981146116725760010190565b634e487b7160e01b600052601160045260246000fd5b91908110156116985760051b0190565b634e487b7160e01b600052603260045260246000fd5b3561ffff8116810361115f5790565b336000526000805160206117078339815191526020526116e460ff604060002054166115b7565b56fe360894a13ba1a3210667c828492db98dca3e2076cc3735a920a3ca505d382bbcf6cc97de1266c180cd39f3b311632644143ce7873d2927755382ad4b39e8ae00a2646970667358221220635f3145467c327c1de176e8ecb456d401dbfc0ffc0fcaf5805bd7139ce389d164736f6c63430008110033",
  "linkReferences": {},
  "deployedLinkReferences": {}
}