{
  "_format": "hh-sol-artifact-1",
  "contractName": "MaxBalanceModule",
  "sourceName": "contracts/compliance/modular/modules/MaxBalanceModule.sol",
  "abi": [
    {
      "inputs": [
        {
          "internalType": "address",
          "name": "_compliance",
          "type": "address"
        },
        {
          "internalType": "address[]",
          "name": "_id",
          "type": "address[]"
        },
        {
          "internalType": "uint256[]",
          "name": "_balance",
          "type": "uint256[]"
        }
      ],
      "name": "InvalidPresetValues",
      "type": "error"
    },
    {
      "inputs": [
        {
          "internalType": "address",
          "name": "_compliance",
          "type": "address"
        },
        {
          "internalType": "uint256",
          "name": "_value",
          "type": "uint256"
        }
      ],
      "name": "MaxBalanceExceeded",
      "type": "error"
    },
    {
      "inputs": [
        {
          "internalType": "address",
          "name": "_compliance",
          "type": "address"
        }
      ],
      "name": "OnlyComplianceOwnerCanCall",
      "type": "error"
    },
    {
      "inputs": [
        {
          "internalType": "address",
          "name": "_compliance",
          "type": "address"
        }
      ],
      "name": "TokenAlreadyBound",
      "type": "error"
    },
    {
      "anonymous": false,
      "inputs": [
        {
          "indexed": false,
          "internalType": "address",
          "name": "previousAdmin",
          "type": "address"
        },
        {
          "indexed": false,
          "internalType": "address",
          "name": "newAdmin",
          "type": "address"
        }
      ],
      "name": "AdminChanged",
      "type": "event"
    },
    {
      "anonymous": false,
      "inputs": [
        {
          "indexed": true,
          "internalType": "address",
          "name": "beacon",
          "type": "address"
        }
      ],
      "name": "BeaconUpgraded",
      "type": "event"
    },
    {
      "anonymous": false,
      "inputs": [
        {
          "indexed": true,
          "internalType": "address",
          "name": "_compliance",
          "type": "address"
        }
      ],
      "name": "ComplianceBound",
      "type": "event"
    },
    {
      "anonymous": false,
      "inputs": [
        {
          "indexed": true,
          "internalType": "address",
          "name": "_compliance",
          "type": "address"
        }
      ],
      "name": "ComplianceUnbound",
      "type": "event"
    },
    {
      "anonymous": false,
      "inputs": [
        {
          "indexed": true,
          "internalType": "address",
          "name": "_compliance",
          "type": "address"
        },
        {
          "indexed": true,
          "internalType": "address",
          "name": "_id",
          "type": "address"
        },
        {
          "indexed": false,
          "internalType": "uint256",
          "name": "_balance",
          "type": "uint256"
        }
      ],
      "name": "IDBalancePreSet",
      "type": "event"
    },
    {
      "anonymous": false,
      "inputs": [
        {
          "indexed": false,
          "internalType": "uint8",
          "name": "version",
          "type": "uint8"
        }
      ],
      "name": "Initialized",
      "type": "event"
    },
    {
      "anonymous": false,
      "inputs": [
        {
          "indexed": true,
          "internalType": "address",
          "name": "_compliance",
          "type": "address"
        },
        {
          "indexed": true,
          "internalType": "uint256",
          "name": "_maxBalance",
          "type": "uint256"
        }
      ],
      "name": "MaxBalanceSet",
      "type": "event"
    },
    {
      "anonymous": false,
      "inputs": [
        {
          "indexed": true,
          "internalType": "address",
          "name": "previousOwner",
          "type": "address"
        },
        {
          "indexed": true,
          "internalType": "address",
          "name": "newOwner",
          "type": "address"
        }
      ],
      "name": "OwnershipTransferred",
      "type": "event"
    },
    {
      "anonymous": false,
      "inputs": [
        {
          "indexed": true,
          "internalType": "address",
          "name": "implementation",
          "type": "address"
        }
      ],
      "name": "Upgraded",
      "type": "event"
    },
    {
      "inputs": [
        {
          "internalType": "address",
          "name": "_compliance",
          "type": "address"
        },
        {
          "internalType": "address[]",
          "name": "_id",
          "type": "address[]"
        },
        {
          "internalType": "uint256[]",
          "name": "_balance",
          "type": "uint256[]"
        }
      ],
      "name": "batchPreSetModuleState",
      "outputs": [],
      "stateMutability": "nonpayable",
      "type": "function"
    },
    {
      "inputs": [
        {
          "internalType": "address",
          "name": "_compliance",
          "type": "address"
        }
      ],
      "name": "bindCompliance",
      "outputs": [],
      "stateMutability": "nonpayable",
      "type": "function"
    },
    {
      "inputs": [
        {
          "internalType": "address",
          "name": "_compliance",
          "type": "address"
        }
      ],
      "name": "canComplianceBind",
      "outputs": [
        {
          "internalType": "bool",
          "name": "",
          "type": "bool"
        }
      ],
      "stateMutability": "view",
      "type": "function"
    },
    {
      "inputs": [
        {
          "internalType": "address",
          "name": "_compliance",
          "type": "address"
        },
        {
          "internalType": "address",
          "name": "_identity",
          "type": "address"
        }
      ],
      "name": "getIDBalance",
      "outputs": [
        {
          "internalType": "uint256",
          "name": "",
          "type": "uint256"
        }
      ],
      "stateMutability": "view",
      "type": "function"
    },
    {
      "inputs": [],
      "name": "initialize",
      "outputs": [],
      "stateMutability": "nonpayable",
      "type": "function"
    },
    {
      "inputs": [
        {
          "internalType": "address",
          "name": "_compliance",
          "type": "address"
        }
      ],
      "name": "isComplianceBound",
      "outputs": [
        {
          "internalType": "bool",
          "name": "",
          "type": "bool"
        }
      ],
      "stateMutability": "view",
      "type": "function"
    },
    {
      "inputs": [],
      "name": "isPlugAndPlay",
      "outputs": [
        {
          "internalType": "bool",
          "name": "",
          "type": "bool"
        }
      ],
      "stateMutability": "pure",
      "type": "function"
    },
    {
      "inputs": [
        {
          "internalType": "address",
          "name": "_from",
          "type": "address"
        },
        {
          "internalType": "uint256",
          "name": "_value",
          "type": "uint256"
        }
      ],
      "name": "moduleBurnAction",
      "outputs": [],
      "stateMutability": "nonpayable",
      "type": "function"
    },
    {
      "inputs": [
        {
          "internalType": "address",
          "name": "",
          "type": "address"
        },
        {
          "internalType": "address",
          "name": "_to",
          "type": "address"
        },
        {
          "internalType": "uint256",
          "name": "_value",
          "type": "uint256"
        },
        {
          "internalType": "address",
          "name": "_compliance",
          "type": "address"
        }
      ],
      "name": "moduleCheck",
      "outputs": [
        {
          "internalType": "bool",
          "name": "",
          "type": "bool"
        }
      ],
      "stateMutability": "view",
      "type": "function"
    },
    {
      "inputs": [
        {
          "internalType": "address",
          "name": "_to",
          "type": "address"
        },
        {
          "internalType": "uint256",
          "name": "_value",
          "type": "uint256"
        }
      ],
      "name": "moduleMintAction",
      "outputs": [],
      "stateMutability": "nonpayable",
      "type": "function"
    },
    {
      "inputs": [
        {
          "internalType": "address",
          "name": "_from",
          "type": "address"
        },
        {
          "internalType": "address",
          "name": "_to",
          "type": "address"
        },
        {
          "internalType": "uint256",
          "name": "_value",
          "type": "uint256"
        }
      ],
      "name": "moduleTransferAction",
      "outputs": [],
      "stateMutability": "nonpayable",
      "type": "function"
    },
    {
      "inputs": [],
      "name": "name",
      "outputs": [
        {
          "internalType": "string",
          "name": "_name",
          "type": "string"
        }
      ],
      "stateMutability": "pure",
      "type": "function"
    },
    {
      "inputs": [],
      "name": "owner",
      "outputs": [
        {
          "internalType": "address",
          "name": "",
          "type": "address"
        }
      ],
      "stateMutability": "view",
      "type": "function"
    },
    {
      "inputs": [
        {
          "internalType": "address",
          "name": "_compliance",
          "type": "address"
        },
        {
          "internalType": "address",
          "name": "_id",
          "type": "address"
        },
        {
          "internalType": "uint256",
          "name": "_balance",
          "type": "uint256"
        }
      ],
      "name": "preSetModuleState",
      "outputs": [],
      "stateMutability": "nonpayable",
      "type": "function"
    },
    {
      "inputs": [
        {
          "internalType": "address",
          "name": "_compliance",
          "type": "address"
        }
      ],
      "name": "presetCompleted",
      "outputs": [],
      "stateMutability": "nonpayable",
      "type": "function"
    },
    {
      "inputs": [],
      "name": "proxiableUUID",
      "outputs": [
        {
          "internalType": "bytes32",
          "name": "",
          "type": "bytes32"
        }
      ],
      "stateMutability": "view",
      "type": "function"
    },
    {
      "inputs": [],
      "name": "renounceOwnership",
      "outputs": [],
      "stateMutability": "nonpayable",
      "type": "function"
    },
    {
      "inputs": [
        {
          "internalType": "uint256",
          "name": "_max",
          "type": "uint256"
        }
      ],
      "name": "setMaxBalance",
      "outputs": [],
      "stateMutability": "nonpayable",
      "type": "function"
    },
    {
      "inputs": [
        {
          "internalType": "address",
          "name": "newOwner",
          "type": "address"
        }
      ],
      "name": "transferOwnership",
      "outputs": [],
      "stateMutability": "nonpayable",
      "type": "function"
    },
    {
      "inputs": [
        {
          "internalType": "address",
          "name": "_compliance",
          "type": "address"
        }
      ],
      "name": "unbindCompliance",
      "outputs": [],
      "stateMutability": "nonpayable",
      "type": "function"
    },
    {
      "inputs": [
        {
          "internalType": "address",
          "name": "newImplementation",
          "type": "address"
        }
      ],
      "name": "upgradeTo",
      "outputs": [],
      "stateMutability": "nonpayable",
      "type": "function"
    },
    {
      "inputs": [
        {
          "internalType": "address",
          "name": "newImplementation",
          "type": "address"
        },
        {
          "internalType": "bytes",
          "name": "data",
          "type": "bytes"
        }
      ],
      "name": "upgradeToAndCall",
      "outputs": [],
      "stateMutability": "payable",
      "type": "function"
    }
  ],
  "bytecode": "0x60a080604052346100315730608052611c13908161003782396080518181816109a001528181610ac70152610f090152f35b600080fdfe60406080815260048036101561001457600080fd5b600090813560e01c8063013b7ce41461126f5780630694a5fb146111d657806306fdde03146111645780632cb7e1ec146110d35780633659cfe614610ee2578063372491a214610e745780634a93254414610d995780634cf4d29514610d4e5780634f1ef28614610a4d57806352d1902d1461098b578063715018a61461092e5780638129fc1c146107de5780638da5cb5b146107b55780638f27c0eb146105475780639d51d9b7146104d9578063bcc21053146104aa578063cc203f7514610461578063dd50b74c146103b6578063e6f5e8071461039b578063f104a8c9146102d1578063f2fde38b1461023d5763f7c4722c1461011257600080fd5b346102395761012036611332565b8551638da5cb5b60e01b81529093919291906001600160a01b038084169160209182828681875afa91821561022f578992610200575b50339116036101e957875163a446d49f60e01b815230848201528181602481865afa9182156101df5788926101b2575b505061019c5750506101999394506119c1565b80f35b865163346a0c0160e21b81529182015260249150fd5b6101d19250803d106101d8575b6101c98183611399565b8101906117f9565b3880610186565b503d6101bf565b89513d8a823e3d90fd5b875163e8649dab60e01b8152808401839052602490fd5b610221919250833d8511610228575b6102198183611399565b8101906117da565b9038610156565b503d61020f565b8a513d8b823e3d90fd5b5080fd5b508290346102cd5760203660031901126102cd576102596112b8565b91610262611408565b6001600160a01b0383161561027b578361019984611460565b906020608492519162461bcd60e51b8352820152602660248201527f4f776e61626c653a206e6577206f776e657220697320746865207a65726f206160448201526564647265737360d01b6064820152fd5b8280fd5b508290346102cd57816003193601126102cd576102ec6112b8565b9160243592338552610320602091600080516020611bbe833981519152835261031a60ff858920541661172e565b33611a18565b33865260cb82528286206001600160a01b03909116808752908252828620805461034b908790611837565b905533865260cb8252828620908652815260ca8286205491338752528185205410610374578380f35b51630d9ada5960e21b815233918101918252602082019290925281906040010390fd5b0390fd5b82843461023957816003193601126102395751908152602090f35b508290346102cd5760203660031901126102cd576001600160a01b0390816103dc6112b8565b8451638da5cb5b60e01b81529116926020828481875afa918215610457578692610437575b50339116036104225750825260c96020528120805460ff1916600117905580f35b915163e8649dab60e01b815291820152602490fd5b61045091925060203d8111610228576102198183611399565b9086610401565b85513d88823e3d90fd5b8284346102395780600319360112610239578060209261047f6112b8565b6104876112d3565b6001600160a01b03918216835260cb865283832091168252845220549051908152f35b828434610239576020366003190112610239576020906104d06104cb6112b8565b6118d7565b90519015158152f35b508290346102cd5760203660031901126102cd57358091338452600080516020611bbe83398151915260205261051460ff828620541661172e565b33845260ca602052832055337f8bec153ee727d17f3f63aa27cbb6bd64eb978b88821b30002a4b5517aeb10cec8380a380f35b508290346102cd576003196060368201126107b1576105646112b8565b9160249067ffffffffffffffff9082358281116107ad5761058890369083016113d7565b9590926044359081116107a9576105a290369084016113d7565b90958715801561079f575b61070257508751638da5cb5b60e01b81526020976001600160a01b03848116989093929091908a8188818d5afa9081156106c5578d916106e5575b5084339116036106cf578a5163a446d49f60e01b815230878201528a818a818d5afa9081156106c5578d916106a8575b50610692578b5b81811061063f57898d5260c98b528b8d20805460ff191660011790558c80f35b61064a81838a611811565b35858116810361068e5761066b90610663838787611811565b3590886119c1565b600019811461067c5760010161061f565b634e487b7160e01b8d5260118752888dfd5b8d80fd5b8a5163346a0c0160e21b81528087018a90528890fd5b6106bf91508b3d8d116101d8576101c98183611399565b8d610618565b8c513d8f823e3d90fd5b8a5163e8649dab60e01b81528087018a90528890fd5b6106fc91508b3d8d11610228576102198183611399565b8d6105e8565b9190939496808a9460608b519a63355c2bfd60e11b8c5260648c019260018060a01b03809716908d01528b01525260848801959184905b82821061077757505050508584030160448601528183526001600160fb1b038211610774575091839160209360051b80928583013701030190fd5b80fd5b90919296873582811680910361079b57815260209081019701929160010190610739565b8680fd5b50818814156105ad565b8880fd5b8780fd5b8380fd5b82843461023957816003193601126102395760335490516001600160a01b039091168152602090f35b508290346102cd57826003193601126102cd57825460ff8160081c161591828093610921575b801561090a575b156108b0575060ff19811660011784558161089f575b5061084460ff845460081c166108368161177a565b61083f8161177a565b61177a565b61084d33611460565b82549061085f60ff8360081c1661177a565b610867578280f35b61ff001916825551600181527f7f26b83ff96e1f2b6a682f133852f6798a09c465da95921460cefb384740249890602090a181808280f35b61ffff191661010117835583610821565b608490602085519162461bcd60e51b8352820152602e60248201527f496e697469616c697a61626c653a20636f6e747261637420697320616c72656160448201526d191e481a5b9a5d1a585b1a5e995960921b6064820152fd5b50303b15801561080b5750600160ff83161461080b565b50600160ff831610610804565b8234610774578060031936011261077457610947611408565b603380546001600160a01b0319811690915581906001600160a01b03167f8be0079c531659141344cd1fd0a4f28419497f9722a3daafe3b4186f6b6457e08280a380f35b509034610774578060031936011261077457507f00000000000000000000000000000000000000000000000000000000000000006001600160a01b031630036109e55760208251600080516020611b9e8339815191528152f35b6020608492519162461bcd60e51b8352820152603860248201527f555550535570677261646561626c653a206d757374206e6f742062652063616c60448201527f6c6564207468726f7567682064656c656761746563616c6c00000000000000006064820152fd5b5082806003193601126102cd57610a626112b8565b906024359067ffffffffffffffff8211610d4a5736602383011215610d4a5781840135610a8e816113bb565b610a9a83519182611399565b818152866020948583019336602482840101116102cd578060248893018637830101526001600160a01b037f0000000000000000000000000000000000000000000000000000000000000000811690610af5308314156114a9565b610b12600080516020611b9e83398151915292828454161461150a565b610b1a611408565b7f4910fdfa16fed3260ed0e7147f7cc6da11a60208b5b9406d12a635614ffd91435460ff1615610b5457505050505050610199915061156b565b869293949596169085516352d1902d60e01b815287818a81865afa8a9181610d17575b50610bd657865162461bcd60e51b8152808a01899052602e60248201527f45524331393637557067726164653a206e657720696d706c656d656e7461746960448201526d6f6e206973206e6f74205555505360901b6064820152608490fd5b979192939695949703610cc25750610bed8261156b565b7fbc7cd75a20ee27fd9adebab32041f755214dbc6bffa90cc0225b39da2e5c2d3b8780a285845115801590610cba575b610c2b575b50505050505080f35b80610ca496845196610c3c88611367565b602788527f416464726573733a206c6f772d6c6576656c2064656c65676174652063616c6c87890152660819985a5b195960ca1b868901525190845af4913d15610cb0573d610c96610c8d826113bb565b92519283611399565b81528681943d92013e6115fb565b50818080808085610c22565b50606092506115fb565b506001610c1d565b835162461bcd60e51b8152908101859052602960248201527f45524331393637557067726164653a20756e737570706f727465642070726f786044820152681a58589b195555525160ba1b6064820152608490fd5b9091508881813d8311610d43575b610d2f8183611399565b81010312610d3f5751908b610b77565b8a80fd5b503d610d25565b8480fd5b8284346102395760203660031901126102395760209160ff9082906001600160a01b03610d796112b8565b168152600080516020611bbe833981519152855220541690519015158152f35b5082346102cd5760203660031901126102cd576001600160a01b03610dbc6112b8565b1691610dc983151561168c565b828452600080516020611bbe833981519152908160205260ff8386205416610e315750610df78333146116d8565b8284526020528220805460ff191660011790557f1f7b76c58fb697eb53c6c7c1becb96911516a136e24d7ced386b2355358b75a38280a280f35b606490602084519162461bcd60e51b8352820152601860248201527f636f6d706c69616e636520616c726561647920626f756e6400000000000000006044820152fd5b828434610239578060031936011261023957610eb5610e916112b8565b338452600080516020611bbe83398151915260205261031a60ff848620541661172e565b33835260cb6020528183209060018060a01b031683526020528120610edd602435825461185a565b905580f35b5082346102cd576020806003193601126107b157610efe6112b8565b916001600160a01b037f00000000000000000000000000000000000000000000000000000000000000008116610f36308214156114a9565b610f53600080516020611b9e83398151915291838354161461150a565b610f5b611408565b8251908482019282841067ffffffffffffffff8511176110c0578385528883527f4910fdfa16fed3260ed0e7147f7cc6da11a60208b5b9406d12a635614ffd91435460ff1615610fb557505050505050610199915061156b565b869293949596169085516352d1902d60e01b815287818a81865afa8a9181611091575b5061103757865162461bcd60e51b8152808a01899052602e60248201527f45524331393637557067726164653a206e657720696d706c656d656e7461746960448201526d6f6e206973206e6f74205555505360901b6064820152608490fd5b979192939695949703610cc2575061104e8261156b565b7fbc7cd75a20ee27fd9adebab32041f755214dbc6bffa90cc0225b39da2e5c2d3b8780a28584511580159061108a57610c2b5750505050505080f35b5080610c1d565b9091508881813d83116110b9575b6110a98183611399565b81010312610d3f5751908b610fd8565b503d61109f565b634e487b7160e01b895260418852602489fd5b508290346102cd576110e436611332565b93919033865261111a611113602093600080516020611bbe833981519152855261031a60ff878b20541661172e565b9133611a18565b9033875260cb83528387209160018060a01b03809116928389528452848820611144888254611837565b905533885260cb845284882091168752825282862061034b86825461185a565b5091346102395781600319360112610239578051918183019083821067ffffffffffffffff8311176111c357506111bf93508152601082526f4d617842616c616e63654d6f64756c6560801b602083015251918291826112e9565b0390f35b634e487b7160e01b815260418552602490fd5b828434610239576020366003190112610239576111f16112b8565b90338352600080516020611bbe833981519152918260205261121860ff838620541661172e565b6001600160a01b03169161122d83151561168c565b6112388333146116d8565b8284526020528220805460ff191690557f408b49d9be1c914c52a0227e18a077e5a892dddf32a26cfa94a5d9708fad77188280a280f35b8284346102395760803660031901126102395761128a6112b8565b506112936112d3565b606435926001600160a01b038416840361077457506020926104d09160443590611867565b600435906001600160a01b03821682036112ce57565b600080fd5b602435906001600160a01b03821682036112ce57565b6020808252825181830181905290939260005b82811061131e57505060409293506000838284010152601f8019910116010190565b8181018601518482016040015285016112fc565b60609060031901126112ce576001600160a01b039060043582811681036112ce579160243590811681036112ce579060443590565b6060810190811067ffffffffffffffff82111761138357604052565b634e487b7160e01b600052604160045260246000fd5b90601f8019910116810190811067ffffffffffffffff82111761138357604052565b67ffffffffffffffff811161138357601f01601f191660200190565b9181601f840112156112ce5782359167ffffffffffffffff83116112ce576020808501948460051b0101116112ce57565b6033546001600160a01b0316330361141c57565b606460405162461bcd60e51b815260206004820152602060248201527f4f776e61626c653a2063616c6c6572206973206e6f7420746865206f776e65726044820152fd5b603380546001600160a01b039283166001600160a01b0319821681179092559091167f8be0079c531659141344cd1fd0a4f28419497f9722a3daafe3b4186f6b6457e0600080a3565b156114b057565b60405162461bcd60e51b815260206004820152602c60248201527f46756e6374696f6e206d7573742062652063616c6c6564207468726f7567682060448201526b19195b1959d85d1958d85b1b60a21b6064820152608490fd5b1561151157565b60405162461bcd60e51b815260206004820152602c60248201527f46756e6374696f6e206d7573742062652063616c6c6564207468726f7567682060448201526b6163746976652070726f787960a01b6064820152608490fd5b803b156115a057600080516020611b9e83398151915280546001600160a01b0319166001600160a01b03909216919091179055565b60405162461bcd60e51b815260206004820152602d60248201527f455243313936373a206e657720696d706c656d656e746174696f6e206973206e60448201526c1bdd08184818dbdb9d1c9858dd609a1b6064820152608490fd5b9192901561165d575081511561160f575090565b3b156116185790565b60405162461bcd60e51b815260206004820152601d60248201527f416464726573733a2063616c6c20746f206e6f6e2d636f6e74726163740000006044820152606490fd5b8251909150156116705750805190602001fd5b60405162461bcd60e51b815290819061039790600483016112e9565b1561169357565b60405162461bcd60e51b815260206004820152601f60248201527f696e76616c696420617267756d656e74202d207a65726f2061646472657373006044820152606490fd5b156116df57565b60405162461bcd60e51b815260206004820152602160248201527f6f6e6c7920636f6d706c69616e636520636f6e74726163742063616e2063616c6044820152601b60fa1b6064820152608490fd5b1561173557565b60405162461bcd60e51b815260206004820152601e60248201527f6f6e6c7920626f756e6420636f6d706c69616e63652063616e2063616c6c00006044820152606490fd5b1561178157565b60405162461bcd60e51b815260206004820152602b60248201527f496e697469616c697a61626c653a20636f6e7472616374206973206e6f74206960448201526a6e697469616c697a696e6760a81b6064820152608490fd5b908160209103126112ce57516001600160a01b03811681036112ce5790565b908160209103126112ce575180151581036112ce5790565b91908110156118215760051b0190565b634e487b7160e01b600052603260045260246000fd5b9190820180921161184457565b634e487b7160e01b600052601160045260246000fd5b9190820391821161184457565b60018060a01b03918284169260009484865260ca602052604086205483116118cf576118b49361189691611a18565b9084865260cb60205260408620911685526020526040842054611837565b90825260ca6020526040822054106118cc5750600190565b90565b505050505090565b60018060a01b0380911660009181835260209160c9835260ff6040852054166119b8578260049160405192838092630d47dbe560e31b82525afa9081156119ad579083918591611990575b506004604051809481936318160ddd60e01b8352165afa918215611985578392611957575b5050156119515790565b50600190565b90809250813d831161197e575b61196e8183611399565b8101031261023957513880611947565b503d611964565b6040513d85823e3d90fd5b6119a79150823d8411610228576102198183611399565b38611922565b6040513d86823e3d90fd5b50505050600190565b909160207f0a777417e1c0a4b24c5f556b0c3dd522c37b99b2c3ca4bf9fea2fa1293c660c99160018060a01b03809416938460005260cb8352604060002095169485600052825280604060002055604051908152a3565b60408051630d47dbe560e31b815290926020926001600160a01b03929084908290600490829087165afa908115611b75578392918591600091611b80575b5060048751809581936304d3863d60e21b8352165afa918215611b755784918491600094611b35575b508651633c3ad79560e21b815290821660048201529283916024918391165afa908115611b2a57600091611af4575b5016918215611abc57505090565b60649250519062461bcd60e51b8252600482015260126024820152711a59195b9d1a5d1e481b9bdd08199bdd5b9960721b6044820152fd5b8381813d8311611b23575b611b098183611399565b810103126102395751908282168203610774575038611aae565b503d611aff565b84513d6000823e3d90fd5b809250839194933d8311611b6e575b611b4e8183611399565b810103126102395751908382168203610774575082602485929390611a7f565b503d611b44565b85513d6000823e3d90fd5b611b979150823d8411610228576102198183611399565b38611a5656fe360894a13ba1a3210667c828492db98dca3e2076cc3735a920a3ca505d382bbcf6cc97de1266c180cd39f3b311632644143ce7873d2927755382ad4b39e8ae00a2646970667358221220d93ec3079380cf0cdc3989acf9afdd46b35d0e4e2670c0d74068b4379a53768764736f6c63430008110033",
  "linkReferences": {},
  "deployedLinkReferences": {}
}