{
  "_format": "hh-sol-artifact-1",
  "contractName": "DVATransferManager",
  "sourceName": "contracts/DVA/DVATransferManager.sol",
  "abi": [
    {
      "inputs": [],
      "stateMutability": "nonpayable",
      "type": "constructor"
    },
    {
      "inputs": [
        {
          "internalType": "bytes32",
          "name": "_transferID",
          "type": "bytes32"
        }
      ],
      "name": "ApprovalsMustBeSequential",
      "type": "error"
    },
    {
      "inputs": [
        {
          "internalType": "bytes32",
          "name": "_transferID",
          "type": "bytes32"
        },
        {
          "internalType": "address",
          "name": "_approver",
          "type": "address"
        }
      ],
      "name": "ApproverNotFound",
      "type": "error"
    },
    {
      "inputs": [
        {
          "internalType": "address",
          "name": "_tokenAddress",
          "type": "address"
        }
      ],
      "name": "DVAManagerIsNotVerifiedForTheToken",
      "type": "error"
    },
    {
      "inputs": [
        {
          "internalType": "bytes32",
          "name": "_transferID",
          "type": "bytes32"
        }
      ],
      "name": "InvalidTransferID",
      "type": "error"
    },
    {
      "inputs": [
        {
          "internalType": "address",
          "name": "_tokenAddress",
          "type": "address"
        }
      ],
      "name": "OnlyTokenAgentCanCall",
      "type": "error"
    },
    {
      "inputs": [
        {
          "internalType": "bytes32",
          "name": "_transferID",
          "type": "bytes32"
        }
      ],
      "name": "OnlyTransferSenderCanCall",
      "type": "error"
    },
    {
      "inputs": [
        {
          "internalType": "address",
          "name": "_tokenAddress",
          "type": "address"
        },
        {
          "internalType": "address",
          "name": "_recipient",
          "type": "address"
        }
      ],
      "name": "RecipientIsNotVerified",
      "type": "error"
    },
    {
      "inputs": [
        {
          "internalType": "bytes32",
          "name": "_transferID",
          "type": "bytes32"
        }
      ],
      "name": "SignaturesCanNotBeEmpty",
      "type": "error"
    },
    {
      "inputs": [
        {
          "internalType": "address",
          "name": "_tokenAddress",
          "type": "address"
        }
      ],
      "name": "TokenIsNotRegistered",
      "type": "error"
    },
    {
      "inputs": [
        {
          "internalType": "bytes32",
          "name": "_transferID",
          "type": "bytes32"
        }
      ],
      "name": "TransferIsNotInPendingStatus",
      "type": "error"
    },
    {
      "anonymous": false,
      "inputs": [
        {
          "indexed": false,
          "internalType": "address",
          "name": "tokenAddress",
          "type": "address"
        },
        {
          "indexed": false,
          "internalType": "bool",
          "name": "includeRecipientApprover",
          "type": "bool"
        },
        {
          "indexed": false,
          "internalType": "bool",
          "name": "includeAgentApprover",
          "type": "bool"
        },
        {
          "indexed": false,
          "internalType": "bool",
          "name": "sequentialApproval",
          "type": "bool"
        },
        {
          "indexed": false,
          "internalType": "address[]",
          "name": "additionalApprovers",
          "type": "address[]"
        },
        {
          "indexed": false,
          "internalType": "bytes32",
          "name": "hash",
          "type": "bytes32"
        }
      ],
      "name": "ApprovalCriteriaSet",
      "type": "event"
    },
    {
      "anonymous": false,
      "inputs": [
        {
          "indexed": false,
          "internalType": "bytes32",
          "name": "transferID",
          "type": "bytes32"
        },
        {
          "indexed": false,
          "internalType": "bytes32",
          "name": "approvalCriteriaHash",
          "type": "bytes32"
        }
      ],
      "name": "TransferApprovalStateReset",
      "type": "event"
    },
    {
      "anonymous": false,
      "inputs": [
        {
          "indexed": false,
          "internalType": "bytes32",
          "name": "transferID",
          "type": "bytes32"
        },
        {
          "indexed": false,
          "internalType": "address",
          "name": "approver",
          "type": "address"
        }
      ],
      "name": "TransferApproved",
      "type": "event"
    },
    {
      "anonymous": false,
      "inputs": [
        {
          "indexed": false,
          "internalType": "bytes32",
          "name": "transferID",
          "type": "bytes32"
        }
      ],
      "name": "TransferCancelled",
      "type": "event"
    },
    {
      "anonymous": false,
      "inputs": [
        {
          "indexed": false,
          "internalType": "bytes32",
          "name": "transferID",
          "type": "bytes32"
        },
        {
          "indexed": false,
          "internalType": "address",
          "name": "tokenAddress",
          "type": "address"
        },
        {
          "indexed": false,
          "internalType": "address",
          "name": "sender",
          "type": "address"
        },
        {
          "indexed": false,
          "internalType": "address",
          "name": "recipient",
          "type": "address"
        },
        {
          "indexed": false,
          "internalType": "uint256",
          "name": "amount",
          "type": "uint256"
        }
      ],
      "name": "TransferCompleted",
      "type": "event"
    },
    {
      "anonymous": false,
      "inputs": [
        {
          "indexed": false,
          "internalType": "bytes32",
          "name": "transferID",
          "type": "bytes32"
        },
        {
          "indexed": false,
          "internalType": "address",
          "name": "tokenAddress",
          "type": "address"
        },
        {
          "indexed": false,
          "internalType": "address",
          "name": "sender",
          "type": "address"
        },
        {
          "indexed": false,
          "internalType": "address",
          "name": "recipient",
          "type": "address"
        },
        {
          "indexed": false,
          "internalType": "uint256",
          "name": "amount",
          "type": "uint256"
        },
        {
          "indexed": false,
          "internalType": "bytes32",
          "name": "approvalCriteriaHash",
          "type": "bytes32"
        }
      ],
      "name": "TransferInitiated",
      "type": "event"
    },
    {
      "anonymous": false,
      "inputs": [
        {
          "indexed": false,
          "internalType": "bytes32",
          "name": "transferID",
          "type": "bytes32"
        },
        {
          "indexed": false,
          "internalType": "address",
          "name": "rejectedBy",
          "type": "address"
        }
      ],
      "name": "TransferRejected",
      "type": "event"
    },
    {
      "inputs": [
        {
          "internalType": "bytes32",
          "name": "transferID",
          "type": "bytes32"
        }
      ],
      "name": "approveTransfer",
      "outputs": [],
      "stateMutability": "nonpayable",
      "type": "function"
    },
    {
      "inputs": [
        {
          "internalType": "uint256",
          "name": "_nonce",
          "type": "uint256"
        },
        {
          "internalType": "address",
          "name": "_sender",
          "type": "address"
        },
        {
          "internalType": "address",
          "name": "_recipient",
          "type": "address"
        },
        {
          "internalType": "uint256",
          "name": "_amount",
          "type": "uint256"
        }
      ],
      "name": "calculateTransferID",
      "outputs": [
        {
          "internalType": "bytes32",
          "name": "",
          "type": "bytes32"
        }
      ],
      "stateMutability": "pure",
      "type": "function"
    },
    {
      "inputs": [
        {
          "internalType": "bytes32",
          "name": "transferID",
          "type": "bytes32"
        }
      ],
      "name": "cancelTransfer",
      "outputs": [],
      "stateMutability": "nonpayable",
      "type": "function"
    },
    {
      "inputs": [
        {
          "internalType": "bytes32",
          "name": "transferID",
          "type": "bytes32"
        },
        {
          "components": [
            {
              "internalType": "uint8",
              "name": "v",
              "type": "uint8"
            },
            {
              "internalType": "bytes32",
              "name": "r",
              "type": "bytes32"
            },
            {
              "internalType": "bytes32",
              "name": "s",
              "type": "bytes32"
            }
          ],
          "internalType": "struct IDVATransferManager.Signature[]",
          "name": "signatures",
          "type": "tuple[]"
        }
      ],
      "name": "delegateApproveTransfer",
      "outputs": [],
      "stateMutability": "nonpayable",
      "type": "function"
    },
    {
      "inputs": [
        {
          "internalType": "address",
          "name": "tokenAddress",
          "type": "address"
        }
      ],
      "name": "getApprovalCriteria",
      "outputs": [
        {
          "components": [
            {
              "internalType": "bool",
              "name": "includeRecipientApprover",
              "type": "bool"
            },
            {
              "internalType": "bool",
              "name": "includeAgentApprover",
              "type": "bool"
            },
            {
              "internalType": "bool",
              "name": "sequentialApproval",
              "type": "bool"
            },
            {
              "internalType": "address[]",
              "name": "additionalApprovers",
              "type": "address[]"
            },
            {
              "internalType": "bytes32",
              "name": "hash",
              "type": "bytes32"
            }
          ],
          "internalType": "struct IDVATransferManager.ApprovalCriteria",
          "name": "",
          "type": "tuple"
        }
      ],
      "stateMutability": "view",
      "type": "function"
    },
    {
      "inputs": [
        {
          "internalType": "bytes32",
          "name": "transferID",
          "type": "bytes32"
        }
      ],
      "name": "getNextApprover",
      "outputs": [
        {
          "internalType": "address",
          "name": "nextApprover",
          "type": "address"
        },
        {
          "internalType": "bool",
          "name": "anyTokenAgent",
          "type": "bool"
        }
      ],
      "stateMutability": "view",
      "type": "function"
    },
    {
      "inputs": [],
      "name": "getNextTxNonce",
      "outputs": [
        {
          "internalType": "uint256",
          "name": "",
          "type": "uint256"
        }
      ],
      "stateMutability": "view",
      "type": "function"
    },
    {
      "inputs": [
        {
          "internalType": "bytes32",
          "name": "transferID",
          "type": "bytes32"
        }
      ],
      "name": "getTransfer",
      "outputs": [
        {
          "components": [
            {
              "internalType": "address",
              "name": "tokenAddress",
              "type": "address"
            },
            {
              "internalType": "address",
              "name": "sender",
              "type": "address"
            },
            {
              "internalType": "address",
              "name": "recipient",
              "type": "address"
            },
            {
              "internalType": "uint256",
              "name": "amount",
              "type": "uint256"
            },
            {
              "internalType": "enum IDVATransferManager.TransferStatus",
              "name": "status",
              "type": "uint8"
            },
            {
              "components": [
                {
                  "internalType": "address",
                  "name": "wallet",
                  "type": "address"
                },
                {
                  "internalType": "bool",
                  "name": "anyTokenAgent",
                  "type": "bool"
                },
                {
                  "internalType": "bool",
                  "name": "approved",
                  "type": "bool"
                }
              ],
              "internalType": "struct IDVATransferManager.Approver[]",
              "name": "approvers",
              "type": "tuple[]"
            },
            {
              "internalType": "bytes32",
              "name": "approvalCriteriaHash",
              "type": "bytes32"
            }
          ],
          "internalType": "struct IDVATransferManager.Transfer",
          "name": "",
          "type": "tuple"
        }
      ],
      "stateMutability": "view",
      "type": "function"
    },
    {
      "inputs": [
        {
          "internalType": "address",
          "name": "tokenAddress",
          "type": "address"
        },
        {
          "internalType": "address",
          "name": "recipient",
          "type": "address"
        },
        {
          "internalType": "uint256",
          "name": "amount",
          "type": "uint256"
        }
      ],
      "name": "initiateTransfer",
      "outputs": [],
      "stateMutability": "nonpayable",
      "type": "function"
    },
    {
      "inputs": [],
      "name": "name",
      "outputs": [
        {
          "internalType": "string",
          "name": "_name",
          "type": "string"
        }
      ],
      "stateMutability": "pure",
      "type": "function"
    },
    {
      "inputs": [
        {
          "internalType": "bytes32",
          "name": "transferID",
          "type": "bytes32"
        }
      ],
      "name": "rejectTransfer",
      "outputs": [],
      "stateMutability": "nonpayable",
      "type": "function"
    },
    {
      "inputs": [
        {
          "internalType": "address",
          "name": "tokenAddress",
          "type": "address"
        },
        {
          "internalType": "bool",
          "name": "includeRecipientApprover",
          "type": "bool"
        },
        {
          "internalType": "bool",
          "name": "includeAgentApprover",
          "type": "bool"
        },
        {
          "internalType": "bool",
          "name": "sequentialApproval",
          "type": "bool"
        },
        {
          "internalType": "address[]",
          "name": "additionalApprovers",
          "type": "address[]"
        }
      ],
      "name": "setApprovalCriteria",
      "outputs": [],
      "stateMutability": "nonpayable",
      "type": "function"
    }
  ],
  "bytecode": "0x6080806040523461001b576000600255611aca90816100218239f35b600080fdfe6080806040526004908136101561001557600080fd5b60003560e01c90816306fdde0314610cf457508063260958a514610b935780636e710bf3146107b15780637087dbf9146107935780637fbeb89c1461077757806390906f9d14610618578063b329bf5c1461057e578063ba33984a14610562578063bc0755e114610280578063c341a1c214610239578063c38756cc1461018d5763dd1db9cf146100a557600080fd5b346101745760403660031901126101745760249067ffffffffffffffff90823582811161017457366023820112156101745780820135906100e582610e4b565b936100f36040519586610e29565b8285526020908186019087606080960285010193368511610174578801915b84831061012657610124888835610f5f565b005b85833603126101745760405190868201828110848211176101795760405283359060ff8216820361017457828692899452828601358382015260408601356040820152815201920191610112565b600080fd5b8a60418a634e487b7160e01b600052526000fd5b50346101745760203660031901126101745760006101ad60009235611a2a565b9160056000930180545b8085106101d9575b604080516001600160a01b03861681528415156020820152f35b90926101e58585611175565b509260ff80945460a81c16610225575050506102188361020760409585611175565b50546001600160a01b031693611175565b505460a01c1638806101bf565b925092909361023390610ed7565b936101b7565b503461017457608036600319011261017457610253610da9565b604435916001600160a01b038316830361017457602092610278926064359235611367565b604051908152f35b50346101745760603660031901126101745761029a610d93565b6102a2610da9565b916044359160018060a01b03809116928360005260209160008352604060002094604051966102d088610df1565b60ff875481811615158a52818160081c161515878b015260101c16151560408901526001968781016040519081888254918281520191600052886000209060005b8c8b83831061054e5750505050509061032f81600294930382610e29565b60608b0152015490608089019180835215610536576040516304d3863d60e21b81529386858981875afa9485156104c35788958891600091610509575b5060246040518094819363b9209e3360e01b8352818816809b840152165afa9081156104c3576000916104ec575b50156104cf576040516323b872dd60e01b815233888201523060248201526044810186905298868a6064816000885af19889156104c35761041a87610473947f6bb4a01617c492fa626ed5665cf4a461d4c1c6eeb7f3d910b41b47667348882d9d60c09d610496575b5060025461041081610ed7565b6002553390611367565b98896000528189526040600020916bffffffffffffffffffffffff60a01b90878285541617845583013382825416179055876002840191825416179055876003830155810160ff1981541690558351600682015561182e565b51936040519586528501523360408501526060840152608083015260a0820152a1005b6104b5908c8d3d106104bc575b6104ad8183610e29565b810190610ea0565b5038610403565b503d6104a3565b6040513d6000823e3d90fd5b604487858560405192636178e7e560e11b84528301526024820152fd5b6105039150873d89116104bc576104ad8183610e29565b3861039a565b6105299150823d841161052f575b6105218183610e29565b810190610eb8565b3861036c565b503d610517565b604051635c1b86b760e11b8152808801849052602490fd5b84548b168652909401939283019201610311565b5034610174576020366003190112610174576101249035610efc565b50346101745760203660031901126101745780359061059c82611a2a565b60018101546001600160a01b03169133839003610600576020926105f2836105f7937f2e936050b1807500251bb54605979b74ee4e0e31a0fcba9f12b51d99496c20fa979501600260ff198254161790556110a1565b611916565b604051908152a1005b60405163a859598f60e01b8152908101849052602490fd5b5034610174576020908160031936011261017457610634610d93565b6000608060405161064481610df1565b8281528286820152826040820152606080820152015260018060a01b038091169081600052600084526040600020926040519361068085610df1565b80549160ff8316151586528686019160ff8460081c161515835260ff604088019460101c161515845260019485820160405191829788938c84549182815201936000528c80600020936000915b83831061075c57505050505050600292916106e9910387610e29565b606088019586520154946080870195808752156107455750509061073a929160405196879681885251151590870152511515604086015251151560608501525160a0608085015260c0840190610e63565b905160a08301520390f35b604051635c1b86b760e11b81529182015260249150fd5b8554821687528c97509095019493830193908301908e6106cd565b503461017457602036600319011261017457610124903561118d565b34610174576000366003190112610174576020600254604051908152f35b50346101745760a0366003190112610174576107cb610d93565b60243590811515820361017457604435928315158403610174576064358015158103610174576084359067ffffffffffffffff958683116101745736602384011215610174578284013561081e81610e4b565b9361082c6040519586610e29565b8185526024602086019260051b8201019036821161017457602401915b818310610b735750506040516307feec1960e21b8152338682015290506020816024816001600160a01b038a165afa9081156104c357600091610b54575b5015610b34576040516304d3863d60e21b815260208186816001600160a01b038a165afa9081156104c357602491602091600091610b17575b5060405163b9209e3360e01b8152308882015292839182906001600160a01b03165afa9081156104c357600091610af8575b5015610ad857604051602081019060018060a01b0387168252871515604082015282151560608201526080808201526109408161093260a0820188610e63565b03601f198101835282610e29565b5190209360405161095081610df1565b87151581526020810191831515835260408201928515158452606083019087825288608085015260018060a01b038a166000526000602052604060002094845115159160ff62ff000061ff0089549351151560081b169351151560101b1693169062ffffff19161717178455519081519a8b11610ac357600160401b8b11610ac3575060018301548a6001850155808b10610a96575b5060200198600183016000526020600020996000905b828210610a79577f690b0e7ac1907911c2428d54c3bdcaccd20f5c78b030cb2f008a75e590e99ac28b8b8b610a6e8c8c8c8c600260808e015191015560405196879660018060a01b0316875215156020870152151560408601521515606085015260c0608085015260c0840190610e63565b9060a08301520390a1005b80516001600160a01b03168c8301556001909101906020016109fc565b600184016000526020600020908b82015b8183018110610ab75750506109e6565b60008155600101610aa7565b604190634e487b7160e01b6000525260246000fd5b6040516379a7abb760e01b81526001600160a01b03861681860152602490fd5b610b11915060203d6020116104bc576104ad8183610e29565b386108f2565b610b2e9150823d841161052f576105218183610e29565b386108c0565b604051636d0fd92960e01b81526001600160a01b03861681860152602490fd5b610b6d915060203d6020116104bc576104ad8183610e29565b38610887565b82356001600160a01b038116810361017457815260209283019201610849565b503461017457602090816003193601126101745780359160405191610bb783610dbf565b6000835260008284015260006040840152600060c060609482868201528260808201528560a0820152015283600052600190818352610bf960406000206110a1565b80516001600160a01b039691949190871615610cdd57506040519581875261010087019281865116838901528183870151166040890152816040870151168789015286860151608089015260808601519080821015610cc85750918796939195949260a088015260a08501519560e060c089015286518093528161012089019701946000915b848310610c965760c088015160e08b01528989038af35b8651805182168a528085015115158a8601526040908101511515908a01528a9950978101979583019591850191610c7f565b602190634e487b7160e01b6000525260246000fd5b826024916040519163026c8dbb60e11b8352820152fd5b823461017457600036600319011261017457604082019082821067ffffffffffffffff831117610ac357506040526012815260209071222b20aa3930b739b332b926b0b730b3b2b960711b82820152604051828193825282519081818401526000935b828510610d7a575050604092506000838284010152601f80199101168101030190f35b8481018201518686016040015293810193859350610d57565b600435906001600160a01b038216820361017457565b602435906001600160a01b038216820361017457565b60e0810190811067ffffffffffffffff821117610ddb57604052565b634e487b7160e01b600052604160045260246000fd5b60a0810190811067ffffffffffffffff821117610ddb57604052565b6060810190811067ffffffffffffffff821117610ddb57604052565b90601f8019910116810190811067ffffffffffffffff821117610ddb57604052565b67ffffffffffffffff8111610ddb5760051b60200190565b90815180825260208080930193019160005b828110610e83575050505090565b83516001600160a01b031685529381019392810192600101610e75565b90816020910312610174575180151581036101745790565b9081602091031261017457516001600160a01b03811681036101745790565b6000198114610ee65760010190565b634e487b7160e01b600052601160045260246000fd5b610f0581611a2a565b610f0f8183611677565b610f3157610f1e3382846113a1565b610f26575050565b610f2f916115f2565b565b5050565b8051821015610f495760209160051b010190565b634e487b7160e01b600052603260045260246000fd5b81511561105257610f6f81611a2a565b90610f7a8282611677565b61104d5760408051602090818101907f19457468657265756d205369676e6564204d6573736167653a0a333200000000825284603c820152603c8152610fbf81610e0d565b51902060005b8651811015611044578260006080610fdd848b610f35565b5160ff815116908885820151910151908951928884528684015289830152606082015282805260015afa156110395761101960005187876113a1565b61102b5761102690610ed7565b610fc5565b50505050610f2f92506115f2565b83513d6000823e3d90fd5b50505050505050565b505050565b60249060405190631b53ee4d60e01b82526004820152fd5b9060405161107781610e0d565b604060ff82945460018060a01b0381168452818160a01c161515602085015260a81c161515910152565b906040516110ae81610dbf565b809260018060a01b038082541683526001818184015416916020928386015260028401541660408501526003830154606085015260ff600484015416600481101561115f5760808501526005830180549061110882610e4b565b936111166040519586610e29565b82855260009182528082208186015b8484106111445750505050505060c09160069160a08501520154910152565b858381926111518561106a565b815201920193019290611125565b634e487b7160e01b600052602160045260246000fd5b8054821015610f495760005260206000200190600090565b61119681611a2a565b6111a08183611677565b610f315760009060018060a01b03808254168352602083815260409384812085516111ca81610df1565b81549060ff9283831615158252838360081c16151586830152838983019360101c16151583526001958682018a51918281835491828152019289528189209189905b8b8d84841061135057505050505050918161122d6002936080950382610e29565b606085015201549101528291600587018054935b8481106112d2575b5050505050156112b457826105f26112af959361129b9360047fa42ddc86614a20e359b00eb1ed42b716b911ca4c69b6af8044306d7de36b35e4999701600360ff1982541617905583015416916110a1565b519081523360208201529081906040820190565b0390a1565b8351635788a87b60e01b815260048101869052336024820152604490fd5b6112dc8183611175565b5083815460a81c1661134657611305906112f58b6110a1565b6112ff339261106a565b9061197b565b61133557835161131d5761131890610ed7565b611241565b895163112e219560e31b8152600481018c9052602490fd5b505050505050803880808080611249565b5061131890610ed7565b85541686529481019493840193919091019061120c565b9290604051926020840194855260018060a01b03809216604085015216606083015260808201526080815261139b81610df1565b51902090565b9190916000928360018060a01b0380835416865260208681526040938488209285516113cc81610df1565b84549260ff9182851615158152828560081c16151586820152828982019560101c161515855260019687968d888301908c518093808454928381520193835280832092905b8282106115d85750505050918161142e6002936080950382610e29565b606085015201549101528a955b61147b575b50505050505015611452575050501590565b51635788a87b60e01b815260048101919091526001600160a01b03919091166024820152604490fd5b9091929394996005820180548c10156115d1578b61149891611175565b50805490848260a81c166115c357886115a4576114c18c6114b8866110a1565b6112ff8461106a565b61150357505084516114eb57906114e16114db8793610ed7565b9b610ed7565b959493929161143b565b875163112e219560e31b8152600481018a9052602490fd5b600160a81b60ff60a81b19831681178255929c97985088978894936114e193919291888f81831615611583575b925050507fbe292cd4d4b5b62de3d9d1c3884be547205570b87a04717068601ba0c765eb7991508c61157b8d51928392839092916020906040830194835260018060a01b0316910152565b0390a1610ed7565b16906bffffffffffffffffffff00ff60a01b1617179055388080888f611530565b50509450505050506115b7919550610ed7565b93388080808080611440565b505099906114e18692610ed7565b5099611440565b83548b1685528d9c94810194938401939190910190611411565b60048201805460ff191660011790556002820180547fede11861efc96225b5c38ea18f4f95678cd9a04edd36b31e24b257c5b91f3bed9360a093926001600160a01b03926116459084166105f2846110a1565b6003838354169380600185015416925416920154926040519485526020850152604084015260608301526080820152a1565b919060018060a01b039081815416936000948552602091858352604092838720968451976116a489610df1565b60ff815481811615158b52818160081c161515858c015260101c161515868a01526001968782018751918286835491828152019286528686209186905b8c89848410611794575050505050509061170081600294930382610e29565b60608b0152015492608089019184835260068201948554146117895760058201908154918181558261176d575b5050507fb96b527e72b94fc460a27b6679a9f99a936d3e470a8666177a51e5b7652428b396979861175d9161182e565b518092558351928352820152a190565b8152848120918201915b8281101561172d578181558901611777565b985050505050505050565b855483168752909501949384019391909101906116e1565b8054600160401b811015610ddb576117c991600182018155611175565b9190916118185780518254602083015160409093015160ff60a81b90151560a81b1660ff60a01b93151560a01b939093166001600160a01b039092166001600160b01b03199091161717179055565b634e487b7160e01b600052600060045260246000fd5b81516118da575b602092838301516118ac575b600090815b606085015180518210156118a35760609161189c91611897906001600160a01b0390611873908490610f35565b511686604080519261188484610e0d565b8352818c840152820152600588016117ac565b610ed7565b9050611846565b50509350505050565b6118d56040516118bb81610e0d565b6000815260018682015260006040820152600584016117ac565b611841565b6002810154604051611911916001600160a01b03166118f882610e0d565b81526000602082015260006040820152600583016117ac565b611835565b805160609091015160405163a9059cbb60e01b81526001600160a01b03938416600482015260248101919091529160209183916044918391600091165af180156104c3576119615750565b6119789060203d81116104bc576104ad8183610e29565b50565b81516001600160a01b03908116938116848114949390929085156119a2575b505050505090565b6020919293949550015115159384611a21575b50836119c9575b505050388080808061199a565b60209293505116916024604051809481936307feec1960e21b835260048301525afa9081156104c357600091611a03575b503880806119bc565b611a1b915060203d81116104bc576104ad8183610e29565b386119fa565b159350386119b5565b600081815260016020526040902080549091906001600160a01b031615611a7c5760ff600483015416600481101561115f57611a64575090565b6024906040519063aafa536960e01b82526004820152fd5b6024906040519063026c8dbb60e11b82526004820152fdfea2646970667358221220d8233d145a3b843acebd0fea932cf626545f90200d5268daef5b9dbf3eeac89a64736f6c63430008110033",
  "linkReferences": {},
  "deployedLinkReferences": {}
}