{
  "_format": "hh-sol-artifact-1",
  "contractName": "SecureEscrow",
  "sourceName": "contracts/SecureEscrow.sol",
  "abi": [
    {
      "inputs": [
        {
          "internalType": "address",
          "name": "_usdtToken",
          "type": "address"
        },
        {
          "internalType": "address",
          "name": "_gnosisSafe",
          "type": "address"
        }
      ],
      "stateMutability": "nonpayable",
      "type": "constructor"
    },
    {
      "anonymous": false,
      "inputs": [
        {
          "indexed": true,
          "internalType": "address",
          "name": "user",
          "type": "address"
        },
        {
          "indexed": false,
          "internalType": "uint256",
          "name": "amount",
          "type": "uint256"
        },
        {
          "indexed": false,
          "internalType": "string",
          "name": "currency",
          "type": "string"
        }
      ],
      "name": "Deposited",
      "type": "event"
    },
    {
      "anonymous": false,
      "inputs": [
        {
          "indexed": true,
          "internalType": "address",
          "name": "user",
          "type": "address"
        },
        {
          "indexed": false,
          "internalType": "uint256",
          "name": "amount",
          "type": "uint256"
        },
        {
          "indexed": false,
          "internalType": "string",
          "name": "currency",
          "type": "string"
        }
      ],
      "name": "Withdrawn",
      "type": "event"
    },
    {
      "inputs": [],
      "name": "depositETH",
      "outputs": [],
      "stateMutability": "payable",
      "type": "function"
    },
    {
      "inputs": [
        {
          "internalType": "uint256",
          "name": "amount",
          "type": "uint256"
        }
      ],
      "name": "depositUSDT",
      "outputs": [],
      "stateMutability": "nonpayable",
      "type": "function"
    },
    {
      "inputs": [
        {
          "internalType": "address",
          "name": "",
          "type": "address"
        }
      ],
      "name": "ethBalances",
      "outputs": [
        {
          "internalType": "uint256",
          "name": "",
          "type": "uint256"
        }
      ],
      "stateMutability": "view",
      "type": "function"
    },
    {
      "inputs": [],
      "name": "getEscrowBalance",
      "outputs": [
        {
          "internalType": "uint256",
          "name": "ethBalance",
          "type": "uint256"
        },
        {
          "internalType": "uint256",
          "name": "usdtBalance",
          "type": "uint256"
        }
      ],
      "stateMutability": "view",
      "type": "function"
    },
    {
      "inputs": [
        {
          "internalType": "address",
          "name": "user",
          "type": "address"
        }
      ],
      "name": "getUserBalance",
      "outputs": [
        {
          "internalType": "uint256",
          "name": "ethBalance",
          "type": "uint256"
        },
        {
          "internalType": "uint256",
          "name": "usdtBalance",
          "type": "uint256"
        }
      ],
      "stateMutability": "view",
      "type": "function"
    },
    {
      "inputs": [],
      "name": "gnosisSafe",
      "outputs": [
        {
          "internalType": "address",
          "name": "",
          "type": "address"
        }
      ],
      "stateMutability": "view",
      "type": "function"
    },
    {
      "inputs": [
        {
          "internalType": "address",
          "name": "",
          "type": "address"
        }
      ],
      "name": "usdtBalances",
      "outputs": [
        {
          "internalType": "uint256",
          "name": "",
          "type": "uint256"
        }
      ],
      "stateMutability": "view",
      "type": "function"
    },
    {
      "inputs": [],
      "name": "usdtToken",
      "outputs": [
        {
          "internalType": "address",
          "name": "",
          "type": "address"
        }
      ],
      "stateMutability": "view",
      "type": "function"
    },
    {
      "inputs": [
        {
          "internalType": "address",
          "name": "recipient",
          "type": "address"
        },
        {
          "internalType": "uint256",
          "name": "amount",
          "type": "uint256"
        }
      ],
      "name": "withdrawETH",
      "outputs": [],
      "stateMutability": "nonpayable",
      "type": "function"
    },
    {
      "inputs": [
        {
          "internalType": "address",
          "name": "recipient",
          "type": "address"
        },
        {
          "internalType": "uint256",
          "name": "amount",
          "type": "uint256"
        }
      ],
      "name": "withdrawUSDT",
      "outputs": [],
      "stateMutability": "nonpayable",
      "type": "function"
    }
  ],
  "bytecode": "0x60c03461009d57601f61099f38819003918201601f19168301916001600160401b038311848410176100a257808492604094855283398101031261009d57610052602061004b836100b8565b92016100b8565b9060805260a0526040516108d290816100cd8239608051818181610187015281816102cc01528181610369015261066e015260a0518181816103b10152818161044601526105f80152f35b600080fd5b634e487b7160e01b600052604160045260246000fd5b51906001600160a01b038216820361009d5756fe6040608081526004908136101561001557600080fd5b600091823560e01c80631481794e146105c85780633cfba0e314610591578063477348921461054e5780634782f77914610418578063582489cb146103e0578063a84173ae1461039c578063a98ad46c14610354578063c56e610e1461029c578063e7c80f17146101415763f6326fb31461008f57600080fd5b8260031936011261013d57341561010b5750338252816020528082206100b634825461077f565b9055517f6f85d9948d6ca3dd6ce6ce7d175da22b4e865827ae6fcd530ec7edac1240f9283391806101053482608091815260406020820152600360408201526208aa8960eb1b60608201520190565b0390a280f35b6020606492519162461bcd60e51b8352820152600d60248201526c09aeae6e840e6cadcc8408aa89609b1b6044820152fd5b8280fd5b50903461013d576020806003193601126102985782359283156102665782516323b872dd60e01b81523391810191909152306024820152604481018490528181606481887f00000000000000000000000000000000000000000000000000000000000000006001600160a01b03165af190811561025c57916101ef6001927f6f85d9948d6ca3dd6ce6ce7d175da22b4e865827ae6fcd530ec7edac1240f9289594889161022f575b506107f2565b3386525280842061020184825461077f565b9055518061010533948260809181526040602082015260046040820152631554d11560e21b60608201520190565b61024f9150833d8511610255575b61024781836107a2565b8101906107da565b386101e9565b503d61023d565b83513d87823e3d90fd5b915162461bcd60e51b815291820152600e60248201526d135d5cdd081cd95b99081554d11560921b6044820152606490fd5b8380fd5b50823461033e578060031936011261033e5782516370a0823160e01b8152309281019290925247916020816024817f00000000000000000000000000000000000000000000000000000000000000006001600160a01b03165afa918215610349578092610312575b505082519182526020820152f35b9091506020823d8211610341575b8161032d602093836107a2565b8101031261033e5750518380610304565b80fd5b3d9150610320565b8451903d90823e3d90fd5b505034610398578160031936011261039857517f00000000000000000000000000000000000000000000000000000000000000006001600160a01b03168152602090f35b5080fd5b505034610398578160031936011261039857517f00000000000000000000000000000000000000000000000000000000000000006001600160a01b03168152602090f35b5050346103985760203660031901126103985760209181906001600160a01b03610408610764565b1681526001845220549051908152f35b50903461013d578060031936011261013d57610432610764565b60243591906001600160a01b039061046d337f0000000000000000000000000000000000000000000000000000000000000000841614610835565b16928385528460205282828620541061050c57508284528360205280842061049683825461088f565b9055838284828215610503575b839283928392f1156104fa57519081526040602082018190526003908201526208aa8960eb1b60608201527fb80d46a1fcb96f3896e038df66c1242504a8e49effecd0bf2473574707ca0121908060808101610105565b513d84823e3d90fd5b506108fc6104a3565b6020606492519162461bcd60e51b8352820152601860248201527f496e73756666696369656e74204554482062616c616e636500000000000000006044820152fd5b82843461033e57602036600319011261033e576001600160a01b03610571610764565b168152806020528180822054916001602052205482519182526020820152f35b5050346103985760203660031901126103985760209181906001600160a01b036105b9610764565b16815280845220549051908152f35b503461013d578160031936011261013d576105e1610764565b6001600160a01b0392602435929091849061061f337f0000000000000000000000000000000000000000000000000000000000000000841614610835565b169384865260209160018352848488205410610721578560448492828a5260018452868a2061064f89825461088f565b9055898751958694859363a9059cbb60e01b85528401528960248401527f0000000000000000000000000000000000000000000000000000000000000000165af1918215610717577fb80d46a1fcb96f3896e038df66c1242504a8e49effecd0bf2473574707ca0121949261010594926106d19289926106fa575b50506107f2565b519182918260809181526040602082015260046040820152631554d11560e21b60608201520190565b6107109250803d106102555761024781836107a2565b38806106ca565b83513d88823e3d90fd5b835162461bcd60e51b8152908101839052601960248201527f496e73756666696369656e7420555344542062616c616e6365000000000000006044820152606490fd5b600435906001600160a01b038216820361077a57565b600080fd5b9190820180921161078c57565b634e487b7160e01b600052601160045260246000fd5b90601f8019910116810190811067ffffffffffffffff8211176107c457604052565b634e487b7160e01b600052604160045260246000fd5b9081602091031261077a5751801515810361077a5790565b156107f957565b60405162461bcd60e51b81526020600482015260146024820152731554d11508151c985b9cd9995c8819985a5b195960621b6044820152606490fd5b1561083c57565b60405162461bcd60e51b815260206004820152602560248201527f4e6f7420617574686f72697a65643a204f6e6c7920536166652063616e20617060448201526470726f766560d81b6064820152608490fd5b9190820391821161078c5756fea26469706673582212207ffd7d8718ea57e44775cd481553ecd93570d7e6d063e4daf793876bbe815cf364736f6c63430008140033",
  "linkReferences": {},
  "deployedLinkReferences": {}
}