{
  "_format": "hh-sol-artifact-1",
  "contractName": "TREXFactory",
  "sourceName": "contracts/factory/TREXFactory.sol",
  "abi": [
    {
      "inputs": [
        {
          "internalType": "address",
          "name": "implementationAuthority_",
          "type": "address"
        },
        {
          "internalType": "address",
          "name": "idFactory_",
          "type": "address"
        }
      ],
      "stateMutability": "nonpayable",
      "type": "constructor"
    },
    {
      "anonymous": false,
      "inputs": [
        {
          "indexed": true,
          "internalType": "address",
          "name": "_addr",
          "type": "address"
        }
      ],
      "name": "Deployed",
      "type": "event"
    },
    {
      "anonymous": false,
      "inputs": [
        {
          "indexed": false,
          "internalType": "address",
          "name": "_idFactory",
          "type": "address"
        }
      ],
      "name": "IdFactorySet",
      "type": "event"
    },
    {
      "anonymous": false,
      "inputs": [
        {
          "indexed": false,
          "internalType": "address",
          "name": "_implementationAuthority",
          "type": "address"
        }
      ],
      "name": "ImplementationAuthoritySet",
      "type": "event"
    },
    {
      "anonymous": false,
      "inputs": [
        {
          "indexed": true,
          "internalType": "address",
          "name": "previousOwner",
          "type": "address"
        },
        {
          "indexed": true,
          "internalType": "address",
          "name": "newOwner",
          "type": "address"
        }
      ],
      "name": "OwnershipTransferred",
      "type": "event"
    },
    {
      "anonymous": false,
      "inputs": [
        {
          "indexed": true,
          "internalType": "address",
          "name": "_token",
          "type": "address"
        },
        {
          "indexed": false,
          "internalType": "address",
          "name": "_ir",
          "type": "address"
        },
        {
          "indexed": false,
          "internalType": "address",
          "name": "_irs",
          "type": "address"
        },
        {
          "indexed": false,
          "internalType": "address",
          "name": "_tir",
          "type": "address"
        },
        {
          "indexed": false,
          "internalType": "address",
          "name": "_ctr",
          "type": "address"
        },
        {
          "indexed": false,
          "internalType": "address",
          "name": "_mc",
          "type": "address"
        },
        {
          "indexed": true,
          "internalType": "string",
          "name": "_salt",
          "type": "string"
        }
      ],
      "name": "TREXSuiteDeployed",
      "type": "event"
    },
    {
      "inputs": [
        {
          "internalType": "string",
          "name": "_salt",
          "type": "string"
        },
        {
          "components": [
            {
              "internalType": "address",
              "name": "owner",
              "type": "address"
            },
            {
              "internalType": "string",
              "name": "name",
              "type": "string"
            },
            {
              "internalType": "string",
              "name": "symbol",
              "type": "string"
            },
            {
              "internalType": "uint8",
              "name": "decimals",
              "type": "uint8"
            },
            {
              "internalType": "address",
              "name": "irs",
              "type": "address"
            },
            {
              "internalType": "address",
              "name": "ONCHAINID",
              "type": "address"
            },
            {
              "internalType": "address[]",
              "name": "irAgents",
              "type": "address[]"
            },
            {
              "internalType": "address[]",
              "name": "tokenAgents",
              "type": "address[]"
            },
            {
              "internalType": "address[]",
              "name": "complianceModules",
              "type": "address[]"
            },
            {
              "internalType": "bytes[]",
              "name": "complianceSettings",
              "type": "bytes[]"
            },
            {
              "internalType": "address",
              "name": "lockContract",
              "type": "address"
            }
          ],
          "internalType": "struct ITREXFactory.TokenDetails",
          "name": "_tokenDetails",
          "type": "tuple"
        },
        {
          "components": [
            {
              "internalType": "uint256[]",
              "name": "claimTopics",
              "type": "uint256[]"
            },
            {
              "internalType": "address[]",
              "name": "issuers",
              "type": "address[]"
            },
            {
              "internalType": "uint256[][]",
              "name": "issuerClaims",
              "type": "uint256[][]"
            }
          ],
          "internalType": "struct ITREXFactory.ClaimDetails",
          "name": "_claimDetails",
          "type": "tuple"
        }
      ],
      "name": "deployTREXSuite",
      "outputs": [],
      "stateMutability": "nonpayable",
      "type": "function"
    },
    {
      "inputs": [],
      "name": "getIdFactory",
      "outputs": [
        {
          "internalType": "address",
          "name": "",
          "type": "address"
        }
      ],
      "stateMutability": "view",
      "type": "function"
    },
    {
      "inputs": [],
      "name": "getImplementationAuthority",
      "outputs": [
        {
          "internalType": "address",
          "name": "",
          "type": "address"
        }
      ],
      "stateMutability": "view",
      "type": "function"
    },
    {
      "inputs": [
        {
          "internalType": "string",
          "name": "_salt",
          "type": "string"
        }
      ],
      "name": "getToken",
      "outputs": [
        {
          "internalType": "address",
          "name": "",
          "type": "address"
        }
      ],
      "stateMutability": "view",
      "type": "function"
    },
    {
      "inputs": [],
      "name": "owner",
      "outputs": [
        {
          "internalType": "address",
          "name": "",
          "type": "address"
        }
      ],
      "stateMutability": "view",
      "type": "function"
    },
    {
      "inputs": [
        {
          "internalType": "address",
          "name": "_contract",
          "type": "address"
        },
        {
          "internalType": "address",
          "name": "_newOwner",
          "type": "address"
        }
      ],
      "name": "recoverContractOwnership",
      "outputs": [],
      "stateMutability": "nonpayable",
      "type": "function"
    },
    {
      "inputs": [],
      "name": "renounceOwnership",
      "outputs": [],
      "stateMutability": "nonpayable",
      "type": "function"
    },
    {
      "inputs": [
        {
          "internalType": "address",
          "name": "idFactory_",
          "type": "address"
        }
      ],
      "name": "setIdFactory",
      "outputs": [],
      "stateMutability": "nonpayable",
      "type": "function"
    },
    {
      "inputs": [
        {
          "internalType": "address",
          "name": "implementationAuthority_",
          "type": "address"
        }
      ],
      "name": "setImplementationAuthority",
      "outputs": [],
      "stateMutability": "nonpayable",
      "type": "function"
    },
    {
      "inputs": [
        {
          "internalType": "string",
          "name": "",
          "type": "string"
        }
      ],
      "name": "tokenDeployed",
      "outputs": [
        {
          "internalType": "address",
          "name": "",
          "type": "address"
        }
      ],
      "stateMutability": "view",
      "type": "function"
    },
    {
      "inputs": [
        {
          "internalType": "address",
          "name": "newOwner",
          "type": "address"
        }
      ],
      "name": "transferOwnership",
      "outputs": [],
      "stateMutability": "nonpayable",
      "type": "function"
    }
  ],
  "bytecode": "0x60806040818152346200047757808262005ae880380380916200002382856200047c565b83398101031262000477576200003982620004b6565b91620000496020809201620004b6565b60008054336001600160a01b031980831682178455929692936001600160a01b0393909284929083167f8be0079c531659141344cd1fd0a4f28419497f9722a3daafe3b4186f6b6457e08a80a3620000a062000518565b16620000ae811515620004cb565b855163709bc7f360e01b81526004979086818a81865afa908115620002d157908591839162000437575b501615159081620003c3575b816200034f575b81620002db575b8162000259575b81620001d5575b501562000194577fae81f4fee1b2d830e39ae449967642aaa0e5a1771aa200d0a50853010992242c95965084817f3b1074392ed8e8424715d0dda2197eede67080b377fc8370e26f3e882207f6b8928660015416176001558851908152a16200016862000518565b16809162000178821515620004cb565b60025416176002558351908152a1516155769081620005728239f35b606487868089519262461bcd60e51b845283015260248201527f696e76616c696420496d706c656d656e746174696f6e20417574686f726974796044820152fd5b8751637f6e602960e11b815290915086818a81865afa9182156200024e579081869362000209575b50501615153862000100565b915091508682813d831162000246575b6200022581836200047c565b810103126200024357506200023b8491620004b6565b3880620001fd565b80fd5b503d62000219565b8851903d90823e3d90fd5b87516361f8982560e01b815290915086818a81865afa908115620002d15790859183916200028d575b5016151590620000f9565b809250888092503d8311620002c9575b620002a981836200047c565b81010312620002c557620002be8591620004b6565b3862000282565b5080fd5b503d6200029d565b88513d84823e3d90fd5b8751639e3e7bb960e01b815290915086818a81865afa908115620002d15790859183916200030f575b5016151590620000f2565b809250888092503d831162000347575b6200032b81836200047c565b81010312620002c557620003408591620004b6565b3862000304565b503d6200031f565b8751631ee9ce8b60e01b815290915086818a81865afa908115620002d157908591839162000383575b5016151590620000eb565b809250888092503d8311620003bb575b6200039f81836200047c565b81010312620002c557620003b48591620004b6565b3862000378565b503d62000393565b8751636ff6e83f60e01b815290915086818a81865afa908115620002d1579085918391620003f7575b5016151590620000e4565b809250888092503d83116200042f575b6200041381836200047c565b81010312620002c557620004288591620004b6565b38620003ec565b503d62000407565b809250888092503d83116200046f575b6200045381836200047c565b81010312620002c557620004688591620004b6565b38620000d8565b503d62000447565b600080fd5b601f909101601f19168101906001600160401b03821190821017620004a057604052565b634e487b7160e01b600052604160045260246000fd5b51906001600160a01b03821682036200047757565b15620004d357565b60405162461bcd60e51b815260206004820152601f60248201527f696e76616c696420617267756d656e74202d207a65726f2061646472657373006044820152606490fd5b6000546001600160a01b031633036200052d57565b606460405162461bcd60e51b815260206004820152602060248201527f4f776e61626c653a2063616c6c6572206973206e6f7420746865206f776e65726044820152fdfe6080604052600436101562000014575b600080fd5b60003560e01c80632d5f1187146200010f57806350b0183814620001045780635f2773a514620000f9578063715018a614620000ee5780638da5cb5b14620000e357806392dd9d6514620000d8578063acef131b14620000cd578063c1733f6814620000c2578063ccd41cce14620000b7578063f2fde38b14620000ac5763fb88d79c14620000a257600080fd5b6200000f620009ca565b506200000f62000895565b506200000f62000815565b506200000f62000785565b506200000f62000704565b506200000f620002c2565b506200000f62000296565b506200000f62000236565b506200000f6200020a565b506200000f62000164565b506200000f62000126565b60009103126200000f57565b50346200000f5760003660031901126200000f576001546040516001600160a01b039091168152602090f35b6001600160a01b038116036200000f57565b50346200000f57600060403660031901126200020757600435620001888162000152565b8160243591620001988362000152565b620001a262000a3b565b6001600160a01b0390811692833b15620002035760249083604051958694859363f2fde38b60e01b85521660048401525af18015620001f3575b620001e5575080f35b620001f09062000623565b80f35b620001fd62001ab6565b620001dc565b8280fd5b80fd5b50346200000f5760003660031901126200000f576002546040516001600160a01b039091168152602090f35b50346200000f5760008060031936011262000207576200025562000a3b565b80546001600160a01b03198116825581906001600160a01b03167f8be0079c531659141344cd1fd0a4f28419497f9722a3daafe3b4186f6b6457e08280a380f35b50346200000f5760003660031901126200000f576000546040516001600160a01b039091168152602090f35b50346200000f576020806003193601126200000f57620003c57f3b1074392ed8e8424715d0dda2197eede67080b377fc8370e26f3e882207f6b89160049062000392823592620003128462000152565b6200031c62000a3b565b6001600160a01b0384811691906200033683151562001c47565b60409481865163709bc7f360e01b815282818681895afa908115620005fc575b600091620005da575b50161515928362000575575b8362000510575b83620004ab575b8362000446575b83620003ca575b505050905062001c94565b600180546001600160a01b0319166001600160a01b038416179055516001600160a01b0390911681529081906020820190565b0390a1005b9193819350865192838092637f6e602960e11b82525afa91821562000436575b60009262000402575b50501615158038808062000387565b620004269250803d106200042e575b6200041d818362000664565b81019062001a4c565b3880620003f3565b503d62000411565b6200044062001ab6565b620003ea565b92508186516361f8982560e01b815282818681895afa9081156200049b575b60009162000479575b501615159262000380565b620004949150833d85116200042e576200041d818362000664565b386200046e565b620004a562001ab6565b62000465565b9250818651639e3e7bb960e01b815282818681895afa90811562000500575b600091620004de575b501615159262000379565b620004f99150833d85116200042e576200041d818362000664565b38620004d3565b6200050a62001ab6565b620004ca565b9250818651631ee9ce8b60e01b815282818681895afa90811562000565575b60009162000543575b501615159262000372565b6200055e9150833d85116200042e576200041d818362000664565b3862000538565b6200056f62001ab6565b6200052f565b9250818651636ff6e83f60e01b815282818681895afa908115620005ca575b600091620005a8575b50161515926200036b565b620005c39150833d85116200042e576200041d818362000664565b386200059d565b620005d462001ab6565b62000594565b620005f59150833d85116200042e576200041d818362000664565b386200035f565b6200060662001ab6565b62000356565b50634e487b7160e01b600052604160045260246000fd5b67ffffffffffffffff81116200063857604052565b620006426200060c565b604052565b6040810190811067ffffffffffffffff8211176200063857604052565b90601f8019910116810190811067ffffffffffffffff8211176200063857604052565b92919267ffffffffffffffff8211620006d3575b60405191620006b5601f8201601f19166020018462000664565b8294818452818301116200000f578281602093846000960137010152565b620006dd6200060c565b6200069b565b9080601f830112156200000f57816020620007019335910162000687565b90565b50346200000f576003196060368201126200000f5767ffffffffffffffff906004358281116200000f576200073e903690600401620006e3565b602435918383116200000f576101608184360301126200000f576044359384116200000f5760609084360301126200000f576200078392600401916004019062000a94565b005b50346200000f5760203660031901126200000f5760043567ffffffffffffffff8082116200000f57366023830112156200000f5781600401359081116200000f5736602482840101116200000f57620007ea620007f791602462000811940162001c2e565b546001600160a01b031690565b6040516001600160a01b0390911681529081906020820190565b0390f35b50346200000f5760203660031901126200000f577fae81f4fee1b2d830e39ae449967642aaa0e5a1771aa200d0a50853010992242c60206004356200085a8162000152565b6200086462000a3b565b6001600160a01b03166200087a81151562001c47565b600280546001600160a01b03191682179055604051908152a1005b50346200000f5760203660031901126200000f57600435620008b78162000152565b620008c162000a3b565b6001600160a01b0390811680156200091057600080546001600160a01b03198116831782559092167f8be0079c531659141344cd1fd0a4f28419497f9722a3daafe3b4186f6b6457e08380a380f35b60405162461bcd60e51b815260206004820152602660248201527f4f776e61626c653a206e6577206f776e657220697320746865207a65726f206160448201526564647265737360d01b6064820152608490fd5b60005b838110620009785750506000910152565b818101518382015260200162000967565b906200099e6020928281519485920162000964565b0190565b6020620009bd91816040519382858094519384920162000964565b8101600381520301902090565b50346200000f5760203660031901126200000f5760043567ffffffffffffffff81116200000f5762000a036020913690600401620006e3565b8162000a19604051928381519384920162000964565b600390820190815281900382019020546040516001600160a01b039091168152f35b6000546001600160a01b0316330362000a5057565b606460405162461bcd60e51b815260206004820152602060248201527f4f776e61626c653a2063616c6c6572206973206e6f7420746865206f776e65726044820152fd5b92919062000aa162000a3b565b62000ac46001600160a01b0362000abc620007ea87620009a2565b161562001799565b62000af262000ad76020840184620017df565b905062000ae86040850185620017df565b9190501462001818565b62000b11600562000b076020850185620017df565b9050111562001865565b62000b2d600562000b238480620017df565b90501115620018bc565b600562000b3e60c0830183620017df565b905011158062001777575b62000b549062001908565b62000b74601e62000b6a610100840184620017df565b9050111562001955565b62000ba562000b88610100830183620017df565b905062000b9a610120840184620017df565b9190501015620019ae565b60015462000bce9062000bc2906001600160a01b03168662001ce0565b6001600160a01b031690565b60015490919062000bee9062000bc2906001600160a01b03168762001ddd565b60015490959062000c0e9062000bc2906001600160a01b03168362001e35565b906080830162000c2262000bc282620019fb565b62001761575060015462000c459062000bc2906001600160a01b03168362001e8d565b925b60015462000c779062000bc2906001600160a01b03166001600160a01b03878116918c8216918a16908762001ee5565b60015490939062000d109062000bc2906001600160a01b03168462000ca0602082018262001a07565b9262000cf862000cb4604085018562001a07565b919062000cef62000cc86060880162001a3d565b9562000ce661014062000cde60a08b01620019fb565b9901620019fb565b98369162000687565b92369162000687565b916001600160a01b0389811691908d16908c62001fa5565b9062000d2362000bc260a08501620019fb565b156200163c575b60005b62000d398980620017df565b905081101562000dea5762000d5b8162000d548b80620017df565b9062001b00565b35906001600160a01b038c163b156200000f5760405163c7b2255160e01b8152600481019290925262000db6916000818e818381602481015b03926001600160a01b03165af1801562000dda575b62000dbc575b5062001ac3565b62000d2d565b8062000dcc62000dd39262000623565b806200011a565b3862000daf565b62000de462001ab6565b62000da9565b5090929497989193959860005b62000e0660208a018a620017df565b905081101562000e945762000e3262000bc262000e2c8362000d5460208e018e620017df565b620019fb565b9062000e4e8162000e4760408d018d620017df565b9062001b22565b92906001600160a01b038e163b156200000f5762000e8e938e6000928362000d9495604051968795869485936313ec7d5360e31b85526004850162001b52565b62000df7565b50959894979396509194909391926001600160a01b0381163b156200000f5760405163690a49f960e01b81526001600160a01b038a16600482015260008180602481010381836001600160a01b0387165af180156200162c575b62001615575b506001600160a01b0389163b156200000f57604051634273cc2160e11b81526001600160a01b03871660048201526000818b8183816024810103926001600160a01b03165af1801562001605575b620015ee575b5060005b62000f5b60c0890189620017df565b905081101562000fc85762000f7d62000e2c8262000d5460c08c018c620017df565b906001600160a01b038b163b156200000f57604051634273cc2160e11b81526001600160a01b03909216600483015262000fc2916000818d8183816024810162000d94565b62000f4c565b50909192939594979660005b60e0870162000fe48189620017df565b90508210156200104e5762000e2c8262000d5462001003938b620017df565b906001600160a01b038b163b156200000f57604051634273cc2160e11b81526001600160a01b03909216600483015262001048916000818d8183816024810162000d94565b62000fd4565b505092969194959790939760005b6200106c610100890189620017df565b9050811015620012b657620010c260206200109562000e2c8462000d546101008e018e620017df565b60405163a446d49f60e01b81526001600160a01b0390911660048201529182908d90829081906024820190565b03916001600160a01b03165afa908115620012a6575b60009162001270575b5015620011d5575b620010f9610120890189620017df565b9050811062001114575b6200110e9062001ac3565b6200105c565b6200113081620011296101208b018b620017df565b9062001ba7565b91906200114b62000e2c8362000d546101008e018e620017df565b926001600160a01b038d163b156200000f576200110e938d600092836200118a956040519687958694859363efb22d3360e01b85526004850162001bd3565b03926001600160a01b03165af18015620011c5575b620011ae575b50905062001103565b8062000dcc620011be9262000623565b38620011a5565b620011cf62001ab6565b6200119f565b620011ee62000e2c8262000d546101008c018c620017df565b6001600160a01b038b163b156200000f57604051631ed86f1960e01b81526001600160a01b0390911660048201526000818c8183816024810103926001600160a01b03165af1801562001260575b62001249575b50620010e9565b8062000dcc620012599262000623565b3862001242565b6200126a62001ab6565b6200123c565b62001297915060203d6020116200129e575b6200128e818362000664565b81019062001b8d565b38620010e1565b503d62001282565b620012b062001ab6565b620010d8565b509092949795919396620012f660018060a01b038516620012d788620009a2565b80546001600160a01b0319166001600160a01b03909216919091179055565b6200130183620019fb565b926001600160a01b0385163b156200000f5760405163f2fde38b60e01b8082526001600160a01b03909516600482015260008180602481010381836001600160a01b038b165af18015620015de575b620015c7575b506200136281620019fb565b6001600160a01b0387163b156200000f576040518581526001600160a01b03909116600482015260008180602481010381836001600160a01b038c165af18015620015b7575b620015a0575b50620013ba81620019fb565b6001600160a01b0383163b156200000f576040518581526001600160a01b03909116600482015260008180602481010381836001600160a01b0388165af1801562001590575b62001579575b506200141281620019fb565b906001600160a01b0384163b156200000f576040518581526001600160a01b0390921660048301526200146b9160008180602481010381836001600160a01b038a165af1801562001569575b62001552575b50620019fb565b926001600160a01b0388163b156200000f576040519081526001600160a01b0393841660048201527f057adae5fa3e9caa8a0d584edff60f61558d33f073412ec2d66d558b739e0a41966200152694620014e592906000908290602490829084908f165af1801562001542575b6200152b575b5062001c0c565b604080516001600160a01b03978816815299871660208b015291861691890191909152908416606088015294831660808701529394911692819060a0820190565b0390a3565b8062000dcc6200153b9262000623565b38620014de565b6200154c62001ab6565b620014d8565b8062000dcc620015629262000623565b3862001464565b6200157362001ab6565b6200145e565b8062000dcc620015899262000623565b3862001406565b6200159a62001ab6565b62001400565b8062000dcc620015b09262000623565b38620013ae565b620015c162001ab6565b620013a8565b8062000dcc620015d79262000623565b3862001356565b620015e862001ab6565b62001350565b8062000dcc620015fe9262000623565b3862000f48565b6200160f62001ab6565b62000f42565b8062000dcc620016259262000623565b3862000ef4565b6200163662001ab6565b62000eee565b620016956020856200165d62000bc262000bc260025460018060a01b031690565b6200166887620019fb565b604051631eab7fb360e11b81529485938492600092849290916001600160a01b038c166004850162001a8b565b03925af190811562001751575b6000916200172d575b506001600160a01b0383163b156200000f57604051633d1ddc5b60e01b81526001600160a01b03909116600482015260008180602481010381836001600160a01b0388165af180156200171d575b62001706575b5062000d2a565b8062000dcc620017169262000623565b38620016ff565b6200172762001ab6565b620016f9565b6200174a915060203d6020116200042e576200041d818362000664565b38620016ab565b6200175b62001ab6565b620016a2565b62000bc26200177091620019fb565b9262000c47565b5062000b5460056200178d60e0840184620017df565b90501115905062000b49565b15620017a157565b60405162461bcd60e51b81526020600482015260166024820152751d1bdad95b88185b1c9958591e4819195c1b1bde595960521b6044820152606490fd5b903590601e19813603018212156200000f570180359067ffffffffffffffff82116200000f57602001918160051b360383136200000f57565b156200182057565b60405162461bcd60e51b815260206004820152601760248201527f636c61696d207061747465726e206e6f742076616c69640000000000000000006044820152606490fd5b156200186d57565b60405162461bcd60e51b815260206004820152602160248201527f6d6178203520636c61696d2069737375657273206174206465706c6f796d656e6044820152601d60fa1b6064820152608490fd5b15620018c457565b606460405162461bcd60e51b815260206004820152602060248201527f6d6178203520636c61696d20746f70696373206174206465706c6f796d656e746044820152fd5b156200191057565b60405162461bcd60e51b815260206004820152601a60248201527f6d61782035206167656e7473206174206465706c6f796d656e740000000000006044820152606490fd5b156200195d57565b60405162461bcd60e51b815260206004820152602360248201527f6d6178203330206d6f64756c6520616374696f6e73206174206465706c6f796d604482015262195b9d60ea1b6064820152608490fd5b15620019b657565b60405162461bcd60e51b815260206004820152601a60248201527f696e76616c696420636f6d706c69616e6365207061747465726e0000000000006044820152606490fd5b35620007018162000152565b903590601e19813603018212156200000f570180359067ffffffffffffffff82116200000f576020019181360383136200000f57565b3560ff811681036200000f5790565b908160209103126200000f5751620007018162000152565b9060209162001a7f8151809281855285808601910162000964565b601f01601f1916010190565b6001600160a01b03918216815291166020820152606060408201819052620007019291019062001a64565b506040513d6000823e3d90fd5b600019811462001ad35760010190565b634e487b7160e01b600052601160045260246000fd5b50634e487b7160e01b600052603260045260246000fd5b919081101562001b12575b60051b0190565b62001b1c62001ae9565b62001b0b565b909162001b3e9281101562001b42575b60051b810190620017df565b9091565b62001b4c62001ae9565b62001b32565b6001600160a01b03909116815260406020820181905281018390526001600160fb1b0383116200000f5760609260051b809284830137010190565b908160209103126200000f575180151581036200000f5790565b909162001b3e9281101562001bc3575b60051b81019062001a07565b62001bcd62001ae9565b62001bb7565b918060609160209396959660408652816040870152838601376000828286010152601f80199101168301019360018060a01b0316910152565b62001c269060206040519282848094519384920162000964565b810103902090565b6020908260405193849283378101600381520301902090565b1562001c4f57565b60405162461bcd60e51b815260206004820152601f60248201527f696e76616c696420617267756d656e74202d207a65726f2061646472657373006044820152606490fd5b1562001c9c57565b606460405162461bcd60e51b815260206004820152602060248201527f696e76616c696420496d706c656d656e746174696f6e20417574686f726974796044820152fd5b62001d4b9062001d686200070193610828906040519060209262001d078482018462000664565b8083528383019062004d19823962001d5b604051918583019360018060a01b0316845285835262001d388362000647565b6040519889955180928888019062000964565b8401915180938684019062000964565b0103808552018362000664565b60405162001d966020828162001d88818301968781519384920162000964565b810103808452018262000664565b519020908051906020016000f5803b156200000f576001600160a01b0381167ff40fcec21964ffb566044d083b4073f29f7f7929110ea19e1b3ebe375d89055e600080a290565b62001d4b9062001d686200070193610828906040519060209262001e048482018462000664565b8083528383019062002084823962001d5b604051918583019360018060a01b0316845285835262001d388362000647565b62001d4b9062001d686200070193610828906040519060209262001e5c8482018462000664565b8083528383019062003979823962001d5b604051918583019360018060a01b0316845285835262001d388362000647565b62001d4b9062001d686200070193610828906040519060209262001eb48482018462000664565b8083528383019062003151823962001d5b604051918583019360018060a01b0316845285835262001d388362000647565b919262001f8260c0620007019662001d6894966108a5916040519862001f0f602085018b62000664565b838a5260208a0193620028ac85396040519660018060a01b0380948180941660208b01521660408901521660608701521660808501526080845262001f7860a085019785891067ffffffffffffffff8a111762001f95575b886040525180928487019062000964565b8301018262000989565b0360bf1981018452609f19018362000664565b62001f9f6200060c565b62001f67565b956200206f97916200205e9162001d689796620020769596620007019c610b78986040519962001fd9602082018c62000664565b808b52620041a160208c013960405197889660018060a01b03948580948180941660208c01521660408a015216606088015260ff6200203f6200202b610100978860808c01526101208b019062001a64565b601f199e8f8b83030160a08c015262001a64565b961660c08801521660e086015216908301520385810183528262000664565b604051968793602085019062000989565b9062000989565b039081018452836200066456fe6080604090808252346102105761002c9061082880380380916100228285610215565b833981019061024e565b6001600160a01b0381169081156101cc577f821f3e4d3d679f19eacc940c87acf846ea6eae24a63058ea750304437a62aafc5581519081600091807f3b1074392ed8e8424715d0dda2197eede67080b377fc8370e26f3e882207f6b88480a2636ff6e83f60e01b825281600460209586935afa9081156101c2578291610195575b5083516370e39c9560e11b848201908152600482526001600160401b039291808701848111828210176101815787525184928392905af4913d1561017a573d91821161016657845191610109601f8201601f1916860184610215565b8252833d92013e5b156101245750516105ba908161026e8239f35b606491519062461bcd60e51b82526004820152601660248201527f496e697469616c697a6174696f6e206661696c65642e000000000000000000006044820152fd5b634e487b7160e01b81526041600452602490fd5b5050610111565b634e487b7160e01b86526041600452602486fd5b6101b59150833d85116101bb575b6101ad8183610215565b81019061024e565b386100ad565b503d6101a3565b84513d84823e3d90fd5b825162461bcd60e51b815260206004820152601f60248201527f696e76616c696420617267756d656e74202d207a65726f2061646472657373006044820152606490fd5b600080fd5b601f909101601f19168101906001600160401b0382119082101761023857604052565b634e487b7160e01b600052604160045260246000fd5b9081602091031261021057516001600160a01b0381168103610210579056fe60406080815260048036101561001a575b6100186104ce565b005b600091823560e01c80632d5f11871461032b576392dd9d651461003d5750610010565b346103275760209182600319360112610323576100ef6101019282359261006384610362565b60008051602061056583398151915254610087906001600160a01b03163314610378565b6001600160a01b038481169661009e8815156103da565b835163709bc7f360e01b81528290828186818d5afa908115610316575b8b916102f9575b5016151592836102a0575b83610247575b836101ee575b83610195575b83610128575b5050509050610483565b60008051602061056583398151915255565b7f3b1074392ed8e8424715d0dda2197eede67080b377fc8370e26f3e882207f6b88280a280f35b9193819350518092637f6e602960e11b8252818a5afa918215610188575b889261015b575b5050161515803880806100e5565b61017a9250803d10610181575b6101728183610426565b81019061045e565b388061014d565b503d610168565b610190610476565b610146565b92508184516361f8982560e01b8152828186818d5afa9081156101e1575b8b916101c4575b50161515926100df565b6101db9150833d8511610181576101728183610426565b386101ba565b6101e9610476565b6101b3565b9250818451639e3e7bb960e01b8152828186818d5afa90811561023a575b8b9161021d575b50161515926100d9565b6102349150833d8511610181576101728183610426565b38610213565b610242610476565b61020c565b9250818451631ee9ce8b60e01b8152828186818d5afa908115610293575b8b91610276575b50161515926100d3565b61028d9150833d8511610181576101728183610426565b3861026c565b61029b610476565b610265565b9250818451636ff6e83f60e01b8152828186818d5afa9081156102ec575b8b916102cf575b50161515926100cd565b6102e69150833d8511610181576101728183610426565b386102c5565b6102f4610476565b6102be565b6103109150833d8511610181576101728183610426565b386100c2565b61031e610476565b6100bb565b8380fd5b8280fd5b833461035f578060031936011261035f57600080516020610565833981519152546001600160a01b03166080908152602090f35b80fd5b6001600160a01b0381160361037357565b600080fd5b1561037f57565b60405162461bcd60e51b815260206004820152602d60248201527f6f6e6c792063757272656e7420696d706c656d656e746174696f6e417574686f60448201526c1c9a5d1e4818d85b8818d85b1b609a1b6064820152608490fd5b156103e157565b60405162461bcd60e51b815260206004820152601f60248201527f696e76616c696420617267756d656e74202d207a65726f2061646472657373006044820152606490fd5b90601f8019910116810190811067ffffffffffffffff82111761044857604052565b634e487b7160e01b600052604160045260246000fd5b90816020910312610373575161047381610362565b90565b506040513d6000823e3d90fd5b1561048a57565b606460405162461bcd60e51b815260206004820152602060248201527f696e76616c696420496d706c656d656e746174696f6e20417574686f726974796044820152fd5b5060008051602061056583398151915254604051636ff6e83f60e01b8152600091829190602090829060049082906001600160a01b03165afa908115610557575b8291610539575b503682803781369161270f195a01f43d90816000803e15610535576000f35b6000fd5b610551915060203d8111610181576101728183610426565b38610516565b61055f610476565b61050f56fe821f3e4d3d679f19eacc940c87acf846ea6eae24a63058ea750304437a62aafca2646970667358221220a6acfd980c15cd2924c32b2208ad338d521507c430d8e3d9d1eedb7fc63ecd9364736f6c63430008110033608060409080825234610298576080816108a58038038091610021828561029d565b83398101031261029857610034816102d6565b6020916100428382016102d6565b61005960606100528785016102d6565b93016102d6565b6001600160a01b03848116949192918515158061028d575b80610282575b80610277575b15610233577f821f3e4d3d679f19eacc940c87acf846ea6eae24a63058ea750304437a62aafc558651928684600481600099807f3b1074392ed8e8424715d0dda2197eede67080b377fc8370e26f3e882207f6b88c80a2631ee9ce8b60e01b82525afa9384156102295786946101ee575b50875163184b955960e01b888201908152938316602482015294821660448601521660648085019190915283526001600160401b039260a08101848111828210176101da5787525184928392905af4913d156101d3573d9182116101bf57845191610162601f8201601f191686018461029d565b8252833d92013e5b1561017d5750516105ba90816102eb8239f35b606491519062461bcd60e51b82526004820152601660248201527f496e697469616c697a6174696f6e206661696c65642e000000000000000000006044820152fd5b634e487b7160e01b81526041600452602490fd5b505061016a565b634e487b7160e01b86526041600452602486fd5b9093508681813d8311610222575b610206818361029d565b8101031261021e57610217906102d6565b92386100ee565b8580fd5b503d6101fc565b88513d88823e3d90fd5b875162461bcd60e51b815260048101889052601f60248201527f696e76616c696420617267756d656e74202d207a65726f2061646472657373006044820152606490fd5b50818416151561007d565b508185161515610077565b508183161515610071565b600080fd5b601f909101601f19168101906001600160401b038211908210176102c057604052565b634e487b7160e01b600052604160045260246000fd5b51906001600160a01b03821682036102985756fe60406080815260048036101561001a575b6100186104ce565b005b600091823560e01c80632d5f11871461032b576392dd9d651461003d5750610010565b346103275760209182600319360112610323576100ef6101019282359261006384610362565b60008051602061056583398151915254610087906001600160a01b03163314610378565b6001600160a01b038481169661009e8815156103da565b835163709bc7f360e01b81528290828186818d5afa908115610316575b8b916102f9575b5016151592836102a0575b83610247575b836101ee575b83610195575b83610128575b5050509050610483565b60008051602061056583398151915255565b7f3b1074392ed8e8424715d0dda2197eede67080b377fc8370e26f3e882207f6b88280a280f35b9193819350518092637f6e602960e11b8252818a5afa918215610188575b889261015b575b5050161515803880806100e5565b61017a9250803d10610181575b6101728183610426565b81019061045e565b388061014d565b503d610168565b610190610476565b610146565b92508184516361f8982560e01b8152828186818d5afa9081156101e1575b8b916101c4575b50161515926100df565b6101db9150833d8511610181576101728183610426565b386101ba565b6101e9610476565b6101b3565b9250818451639e3e7bb960e01b8152828186818d5afa90811561023a575b8b9161021d575b50161515926100d9565b6102349150833d8511610181576101728183610426565b38610213565b610242610476565b61020c565b9250818451631ee9ce8b60e01b8152828186818d5afa908115610293575b8b91610276575b50161515926100d3565b61028d9150833d8511610181576101728183610426565b3861026c565b61029b610476565b610265565b9250818451636ff6e83f60e01b8152828186818d5afa9081156102ec575b8b916102cf575b50161515926100cd565b6102e69150833d8511610181576101728183610426565b386102c5565b6102f4610476565b6102be565b6103109150833d8511610181576101728183610426565b386100c2565b61031e610476565b6100bb565b8380fd5b8280fd5b833461035f578060031936011261035f57600080516020610565833981519152546001600160a01b03166080908152602090f35b80fd5b6001600160a01b0381160361037357565b600080fd5b1561037f57565b60405162461bcd60e51b815260206004820152602d60248201527f6f6e6c792063757272656e7420696d706c656d656e746174696f6e417574686f60448201526c1c9a5d1e4818d85b8818d85b1b609a1b6064820152608490fd5b156103e157565b60405162461bcd60e51b815260206004820152601f60248201527f696e76616c696420617267756d656e74202d207a65726f2061646472657373006044820152606490fd5b90601f8019910116810190811067ffffffffffffffff82111761044857604052565b634e487b7160e01b600052604160045260246000fd5b90816020910312610373575161047381610362565b90565b506040513d6000823e3d90fd5b1561048a57565b606460405162461bcd60e51b815260206004820152602060248201527f696e76616c696420496d706c656d656e746174696f6e20417574686f726974796044820152fd5b5060008051602061056583398151915254604051631ee9ce8b60e01b8152600091829190602090829060049082906001600160a01b03165afa908115610557575b8291610539575b503682803781369161270f195a01f43d90816000803e15610535576000f35b6000fd5b610551915060203d8111610181576101728183610426565b38610516565b61055f610476565b61050f56fe821f3e4d3d679f19eacc940c87acf846ea6eae24a63058ea750304437a62aafca2646970667358221220e2ac5d21c9bef03e1eac786e15f477ca93358d3690adb47727c328b05bd0e00964736f6c634300081100336080604090808252346102105761002c9061082880380380916100228285610215565b833981019061024e565b6001600160a01b0381169081156101cc577f821f3e4d3d679f19eacc940c87acf846ea6eae24a63058ea750304437a62aafc5581519081600091807f3b1074392ed8e8424715d0dda2197eede67080b377fc8370e26f3e882207f6b88480a2639e3e7bb960e01b825281600460209586935afa9081156101c2578291610195575b5083516370e39c9560e11b848201908152600482526001600160401b039291808701848111828210176101815787525184928392905af4913d1561017a573d91821161016657845191610109601f8201601f1916860184610215565b8252833d92013e5b156101245750516105ba908161026e8239f35b606491519062461bcd60e51b82526004820152601660248201527f496e697469616c697a6174696f6e206661696c65642e000000000000000000006044820152fd5b634e487b7160e01b81526041600452602490fd5b5050610111565b634e487b7160e01b86526041600452602486fd5b6101b59150833d85116101bb575b6101ad8183610215565b81019061024e565b386100ad565b503d6101a3565b84513d84823e3d90fd5b825162461bcd60e51b815260206004820152601f60248201527f696e76616c696420617267756d656e74202d207a65726f2061646472657373006044820152606490fd5b600080fd5b601f909101601f19168101906001600160401b0382119082101761023857604052565b634e487b7160e01b600052604160045260246000fd5b9081602091031261021057516001600160a01b0381168103610210579056fe60406080815260048036101561001a575b6100186104ce565b005b600091823560e01c80632d5f11871461032b576392dd9d651461003d5750610010565b346103275760209182600319360112610323576100ef6101019282359261006384610362565b60008051602061056583398151915254610087906001600160a01b03163314610378565b6001600160a01b038481169661009e8815156103da565b835163709bc7f360e01b81528290828186818d5afa908115610316575b8b916102f9575b5016151592836102a0575b83610247575b836101ee575b83610195575b83610128575b5050509050610483565b60008051602061056583398151915255565b7f3b1074392ed8e8424715d0dda2197eede67080b377fc8370e26f3e882207f6b88280a280f35b9193819350518092637f6e602960e11b8252818a5afa918215610188575b889261015b575b5050161515803880806100e5565b61017a9250803d10610181575b6101728183610426565b81019061045e565b388061014d565b503d610168565b610190610476565b610146565b92508184516361f8982560e01b8152828186818d5afa9081156101e1575b8b916101c4575b50161515926100df565b6101db9150833d8511610181576101728183610426565b386101ba565b6101e9610476565b6101b3565b9250818451639e3e7bb960e01b8152828186818d5afa90811561023a575b8b9161021d575b50161515926100d9565b6102349150833d8511610181576101728183610426565b38610213565b610242610476565b61020c565b9250818451631ee9ce8b60e01b8152828186818d5afa908115610293575b8b91610276575b50161515926100d3565b61028d9150833d8511610181576101728183610426565b3861026c565b61029b610476565b610265565b9250818451636ff6e83f60e01b8152828186818d5afa9081156102ec575b8b916102cf575b50161515926100cd565b6102e69150833d8511610181576101728183610426565b386102c5565b6102f4610476565b6102be565b6103109150833d8511610181576101728183610426565b386100c2565b61031e610476565b6100bb565b8380fd5b8280fd5b833461035f578060031936011261035f57600080516020610565833981519152546001600160a01b03166080908152602090f35b80fd5b6001600160a01b0381160361037357565b600080fd5b1561037f57565b60405162461bcd60e51b815260206004820152602d60248201527f6f6e6c792063757272656e7420696d706c656d656e746174696f6e417574686f60448201526c1c9a5d1e4818d85b8818d85b1b609a1b6064820152608490fd5b156103e157565b60405162461bcd60e51b815260206004820152601f60248201527f696e76616c696420617267756d656e74202d207a65726f2061646472657373006044820152606490fd5b90601f8019910116810190811067ffffffffffffffff82111761044857604052565b634e487b7160e01b600052604160045260246000fd5b90816020910312610373575161047381610362565b90565b506040513d6000823e3d90fd5b1561048a57565b606460405162461bcd60e51b815260206004820152602060248201527f696e76616c696420496d706c656d656e746174696f6e20417574686f726974796044820152fd5b5060008051602061056583398151915254604051639e3e7bb960e01b8152600091829190602090829060049082906001600160a01b03165afa908115610557575b8291610539575b503682803781369161270f195a01f43d90816000803e15610535576000f35b6000fd5b610551915060203d8111610181576101728183610426565b38610516565b61055f610476565b61050f56fe821f3e4d3d679f19eacc940c87acf846ea6eae24a63058ea750304437a62aafca26469706673582212201dbd6bf0c8d1dfe477064bad08debc221e469acff8ce89c8db56e45e9160e54f64736f6c634300081100336080604090808252346102105761002c9061082880380380916100228285610215565b833981019061024e565b6001600160a01b0381169081156101cc577f821f3e4d3d679f19eacc940c87acf846ea6eae24a63058ea750304437a62aafc5581519081600091807f3b1074392ed8e8424715d0dda2197eede67080b377fc8370e26f3e882207f6b88480a26361f8982560e01b825281600460209586935afa9081156101c2578291610195575b5083516370e39c9560e11b848201908152600482526001600160401b039291808701848111828210176101815787525184928392905af4913d1561017a573d91821161016657845191610109601f8201601f1916860184610215565b8252833d92013e5b156101245750516105ba908161026e8239f35b606491519062461bcd60e51b82526004820152601660248201527f496e697469616c697a6174696f6e206661696c65642e000000000000000000006044820152fd5b634e487b7160e01b81526041600452602490fd5b5050610111565b634e487b7160e01b86526041600452602486fd5b6101b59150833d85116101bb575b6101ad8183610215565b81019061024e565b386100ad565b503d6101a3565b84513d84823e3d90fd5b825162461bcd60e51b815260206004820152601f60248201527f696e76616c696420617267756d656e74202d207a65726f2061646472657373006044820152606490fd5b600080fd5b601f909101601f19168101906001600160401b0382119082101761023857604052565b634e487b7160e01b600052604160045260246000fd5b9081602091031261021057516001600160a01b0381168103610210579056fe60406080815260048036101561001a575b6100186104ce565b005b600091823560e01c80632d5f11871461032b576392dd9d651461003d5750610010565b346103275760209182600319360112610323576100ef6101019282359261006384610362565b60008051602061056583398151915254610087906001600160a01b03163314610378565b6001600160a01b038481169661009e8815156103da565b835163709bc7f360e01b81528290828186818d5afa908115610316575b8b916102f9575b5016151592836102a0575b83610247575b836101ee575b83610195575b83610128575b5050509050610483565b60008051602061056583398151915255565b7f3b1074392ed8e8424715d0dda2197eede67080b377fc8370e26f3e882207f6b88280a280f35b9193819350518092637f6e602960e11b8252818a5afa918215610188575b889261015b575b5050161515803880806100e5565b61017a9250803d10610181575b6101728183610426565b81019061045e565b388061014d565b503d610168565b610190610476565b610146565b92508184516361f8982560e01b8152828186818d5afa9081156101e1575b8b916101c4575b50161515926100df565b6101db9150833d8511610181576101728183610426565b386101ba565b6101e9610476565b6101b3565b9250818451639e3e7bb960e01b8152828186818d5afa90811561023a575b8b9161021d575b50161515926100d9565b6102349150833d8511610181576101728183610426565b38610213565b610242610476565b61020c565b9250818451631ee9ce8b60e01b8152828186818d5afa908115610293575b8b91610276575b50161515926100d3565b61028d9150833d8511610181576101728183610426565b3861026c565b61029b610476565b610265565b9250818451636ff6e83f60e01b8152828186818d5afa9081156102ec575b8b916102cf575b50161515926100cd565b6102e69150833d8511610181576101728183610426565b386102c5565b6102f4610476565b6102be565b6103109150833d8511610181576101728183610426565b386100c2565b61031e610476565b6100bb565b8380fd5b8280fd5b833461035f578060031936011261035f57600080516020610565833981519152546001600160a01b03166080908152602090f35b80fd5b6001600160a01b0381160361037357565b600080fd5b1561037f57565b60405162461bcd60e51b815260206004820152602d60248201527f6f6e6c792063757272656e7420696d706c656d656e746174696f6e417574686f60448201526c1c9a5d1e4818d85b8818d85b1b609a1b6064820152608490fd5b156103e157565b60405162461bcd60e51b815260206004820152601f60248201527f696e76616c696420617267756d656e74202d207a65726f2061646472657373006044820152606490fd5b90601f8019910116810190811067ffffffffffffffff82111761044857604052565b634e487b7160e01b600052604160045260246000fd5b90816020910312610373575161047381610362565b90565b506040513d6000823e3d90fd5b1561048a57565b606460405162461bcd60e51b815260206004820152602060248201527f696e76616c696420496d706c656d656e746174696f6e20417574686f726974796044820152fd5b50600080516020610565833981519152546040516361f8982560e01b8152600091829190602090829060049082906001600160a01b03165afa908115610557575b8291610539575b503682803781369161270f195a01f43d90816000803e15610535576000f35b6000fd5b610551915060203d8111610181576101728183610426565b38610516565b61055f610476565b61050f56fe821f3e4d3d679f19eacc940c87acf846ea6eae24a63058ea750304437a62aafca2646970667358221220fce00be64578722233130b81715f4601789e8c986d7108fac3f1e3a59101dbd664736f6c63430008110033608060409080825234620004985762000b788038038091620000228285620004cf565b83398101906101008183031262000498576200003e81620004f3565b6020926200004e848401620004f3565b906200005c868501620004f3565b60608501519094906001600160401b03908181116200049857836200008391840162000549565b92608083015191821162000498576200009e91830162000549565b60a08201519160ff83168093036200049857620000cc60e0620000c460c08401620004f3565b9201620004f3565b9160018060a01b039485881697881515806200048c575b8062000480575b156200043c57918b999897969593916200011595938c8c805198899183830193845282018562000596565b03976200012b601f19998a8101835282620004cf565b5190208d8d5181810191825260009e8f8183015281526200014c816200049d565b519020141580620003e6575b15620003a257601286116200035e577f3b1074392ed8e8424715d0dda2197eede67080b377fc8370e26f3e882207f6b860048f8f938f918e917f821f3e4d3d679f19eacc940c87acf846ea6eae24a63058ea750304437a62aafc55519d8e94838694a263709bc7f360e01b82525afa9889156200035457918b999897969593918e8e96948c9b620002ee575b509188949391858d9e8195519b8c9a8b019d8e634d144dd360e01b90521660248b01521660448901526064880160e090526101048801620002259162000596565b8781036023190160848901526200023c9162000596565b9460a48701521660c48501521660e4830152039081018252620002609082620004cf565b51915af4903d15620002e7573d90620002798262000508565b916200028886519384620004cf565b8252833d92013e5b15620002a55750516105ba9081620005be8239f35b606491519062461bcd60e51b82526004820152601660248201527f496e697469616c697a6174696f6e206661696c65642e000000000000000000006044820152fd5b5062000290565b93979a505093979a929699509381813d83116200034c575b620003128183620004cf565b81010312620003485794888d98958d958d9c999583809a968f9e976200033890620004f3565b9d9395509e5050919394620001e4565b8a80fd5b503d62000306565b8d513d8d823e3d90fd5b8d5162461bcd60e51b8152600481018e9052601960248201527f646563696d616c73206265747765656e203020616e64203138000000000000006044820152606490fd5b8d5162461bcd60e51b8152600481018e9052601f60248201527f696e76616c696420617267756d656e74202d20656d70747920737472696e67006044820152606490fd5b508d8d8d8251828101908382526200041381620004068782018b62000596565b038d8101835282620004cf565b5190209280519183830193845281830152815262000431816200049d565b519020141562000158565b8b5162461bcd60e51b8152600481018c9052601f60248201527f696e76616c696420617267756d656e74202d207a65726f2061646472657373006044820152606490fd5b50868a161515620000ea565b508688161515620000e3565b600080fd5b606081019081106001600160401b03821117620004b957604052565b634e487b7160e01b600052604160045260246000fd5b601f909101601f19168101906001600160401b03821190821017620004b957604052565b51906001600160a01b03821682036200049857565b6001600160401b038111620004b957601f01601f191660200190565b60005b838110620005385750506000910152565b818101518382015260200162000527565b81601f8201121562000498578051620005628162000508565b92620005726040519485620004cf565b81845260208284010111620004985762000593916020808501910162000524565b90565b90602091620005b18151809281855285808601910162000524565b601f01601f191601019056fe60406080815260048036101561001a575b6100186104ce565b005b600091823560e01c80632d5f11871461032b576392dd9d651461003d5750610010565b346103275760209182600319360112610323576100ef6101019282359261006384610362565b60008051602061056583398151915254610087906001600160a01b03163314610378565b6001600160a01b038481169661009e8815156103da565b835163709bc7f360e01b81528290828186818d5afa908115610316575b8b916102f9575b5016151592836102a0575b83610247575b836101ee575b83610195575b83610128575b5050509050610483565b60008051602061056583398151915255565b7f3b1074392ed8e8424715d0dda2197eede67080b377fc8370e26f3e882207f6b88280a280f35b9193819350518092637f6e602960e11b8252818a5afa918215610188575b889261015b575b5050161515803880806100e5565b61017a9250803d10610181575b6101728183610426565b81019061045e565b388061014d565b503d610168565b610190610476565b610146565b92508184516361f8982560e01b8152828186818d5afa9081156101e1575b8b916101c4575b50161515926100df565b6101db9150833d8511610181576101728183610426565b386101ba565b6101e9610476565b6101b3565b9250818451639e3e7bb960e01b8152828186818d5afa90811561023a575b8b9161021d575b50161515926100d9565b6102349150833d8511610181576101728183610426565b38610213565b610242610476565b61020c565b9250818451631ee9ce8b60e01b8152828186818d5afa908115610293575b8b91610276575b50161515926100d3565b61028d9150833d8511610181576101728183610426565b3861026c565b61029b610476565b610265565b9250818451636ff6e83f60e01b8152828186818d5afa9081156102ec575b8b916102cf575b50161515926100cd565b6102e69150833d8511610181576101728183610426565b386102c5565b6102f4610476565b6102be565b6103109150833d8511610181576101728183610426565b386100c2565b61031e610476565b6100bb565b8380fd5b8280fd5b833461035f578060031936011261035f57600080516020610565833981519152546001600160a01b03166080908152602090f35b80fd5b6001600160a01b0381160361037357565b600080fd5b1561037f57565b60405162461bcd60e51b815260206004820152602d60248201527f6f6e6c792063757272656e7420696d706c656d656e746174696f6e417574686f60448201526c1c9a5d1e4818d85b8818d85b1b609a1b6064820152608490fd5b156103e157565b60405162461bcd60e51b815260206004820152601f60248201527f696e76616c696420617267756d656e74202d207a65726f2061646472657373006044820152606490fd5b90601f8019910116810190811067ffffffffffffffff82111761044857604052565b634e487b7160e01b600052604160045260246000fd5b90816020910312610373575161047381610362565b90565b506040513d6000823e3d90fd5b1561048a57565b606460405162461bcd60e51b815260206004820152602060248201527f696e76616c696420496d706c656d656e746174696f6e20417574686f726974796044820152fd5b506000805160206105658339815191525460405163709bc7f360e01b8152600091829190602090829060049082906001600160a01b03165afa908115610557575b8291610539575b503682803781369161270f195a01f43d90816000803e15610535576000f35b6000fd5b610551915060203d8111610181576101728183610426565b38610516565b61055f610476565b61050f56fe821f3e4d3d679f19eacc940c87acf846ea6eae24a63058ea750304437a62aafca2646970667358221220aafb7c9ceec663999a98812dca3d5f41a57494e825068ea02526c13c1c28254e64736f6c634300081100336080604090808252346102105761002c9061082880380380916100228285610215565b833981019061024e565b6001600160a01b0381169081156101cc577f821f3e4d3d679f19eacc940c87acf846ea6eae24a63058ea750304437a62aafc5581519081600091807f3b1074392ed8e8424715d0dda2197eede67080b377fc8370e26f3e882207f6b88480a2637f6e602960e11b825281600460209586935afa9081156101c2578291610195575b5083516370e39c9560e11b848201908152600482526001600160401b039291808701848111828210176101815787525184928392905af4913d1561017a573d91821161016657845191610109601f8201601f1916860184610215565b8252833d92013e5b156101245750516105ba908161026e8239f35b606491519062461bcd60e51b82526004820152601660248201527f496e697469616c697a6174696f6e206661696c65642e000000000000000000006044820152fd5b634e487b7160e01b81526041600452602490fd5b5050610111565b634e487b7160e01b86526041600452602486fd5b6101b59150833d85116101bb575b6101ad8183610215565b81019061024e565b386100ad565b503d6101a3565b84513d84823e3d90fd5b825162461bcd60e51b815260206004820152601f60248201527f696e76616c696420617267756d656e74202d207a65726f2061646472657373006044820152606490fd5b600080fd5b601f909101601f19168101906001600160401b0382119082101761023857604052565b634e487b7160e01b600052604160045260246000fd5b9081602091031261021057516001600160a01b0381168103610210579056fe60406080815260048036101561001a575b6100186104ce565b005b600091823560e01c80632d5f11871461032b576392dd9d651461003d5750610010565b346103275760209182600319360112610323576100ef6101019282359261006384610362565b60008051602061056583398151915254610087906001600160a01b03163314610378565b6001600160a01b038481169661009e8815156103da565b835163709bc7f360e01b81528290828186818d5afa908115610316575b8b916102f9575b5016151592836102a0575b83610247575b836101ee575b83610195575b83610128575b5050509050610483565b60008051602061056583398151915255565b7f3b1074392ed8e8424715d0dda2197eede67080b377fc8370e26f3e882207f6b88280a280f35b9193819350518092637f6e602960e11b8252818a5afa918215610188575b889261015b575b5050161515803880806100e5565b61017a9250803d10610181575b6101728183610426565b81019061045e565b388061014d565b503d610168565b610190610476565b610146565b92508184516361f8982560e01b8152828186818d5afa9081156101e1575b8b916101c4575b50161515926100df565b6101db9150833d8511610181576101728183610426565b386101ba565b6101e9610476565b6101b3565b9250818451639e3e7bb960e01b8152828186818d5afa90811561023a575b8b9161021d575b50161515926100d9565b6102349150833d8511610181576101728183610426565b38610213565b610242610476565b61020c565b9250818451631ee9ce8b60e01b8152828186818d5afa908115610293575b8b91610276575b50161515926100d3565b61028d9150833d8511610181576101728183610426565b3861026c565b61029b610476565b610265565b9250818451636ff6e83f60e01b8152828186818d5afa9081156102ec575b8b916102cf575b50161515926100cd565b6102e69150833d8511610181576101728183610426565b386102c5565b6102f4610476565b6102be565b6103109150833d8511610181576101728183610426565b386100c2565b61031e610476565b6100bb565b8380fd5b8280fd5b833461035f578060031936011261035f57600080516020610565833981519152546001600160a01b03166080908152602090f35b80fd5b6001600160a01b0381160361037357565b600080fd5b1561037f57565b60405162461bcd60e51b815260206004820152602d60248201527f6f6e6c792063757272656e7420696d706c656d656e746174696f6e417574686f60448201526c1c9a5d1e4818d85b8818d85b1b609a1b6064820152608490fd5b156103e157565b60405162461bcd60e51b815260206004820152601f60248201527f696e76616c696420617267756d656e74202d207a65726f2061646472657373006044820152606490fd5b90601f8019910116810190811067ffffffffffffffff82111761044857604052565b634e487b7160e01b600052604160045260246000fd5b90816020910312610373575161047381610362565b90565b506040513d6000823e3d90fd5b1561048a57565b606460405162461bcd60e51b815260206004820152602060248201527f696e76616c696420496d706c656d656e746174696f6e20417574686f726974796044820152fd5b5060008051602061056583398151915254604051637f6e602960e11b8152600091829190602090829060049082906001600160a01b03165afa908115610557575b8291610539575b503682803781369161270f195a01f43d90816000803e15610535576000f35b6000fd5b610551915060203d8111610181576101728183610426565b38610516565b61055f610476565b61050f56fe821f3e4d3d679f19eacc940c87acf846ea6eae24a63058ea750304437a62aafca2646970667358221220a34526ebe7d5c6b049c47c4e0c4c0986e7b20f20c930d9085c9eff94bcafd86564736f6c63430008110033a26469706673582212208b70ca6ebcab0171ce5972ad740da45371adfae6008344b764883ae0e26a00b764736f6c63430008110033",
  "linkReferences": {},
  "deployedLinkReferences": {}
}