{
  "_format": "hh-sol-artifact-1",
  "contractName": "CountryRestrictionsTest",
  "sourceName": "contracts/compliance/legacy/test/CountryRestrictionsTest.sol",
  "abi": [
    {
      "anonymous": false,
      "inputs": [
        {
          "indexed": false,
          "internalType": "uint16",
          "name": "_country",
          "type": "uint16"
        }
      ],
      "name": "AddedRestrictedCountry",
      "type": "event"
    },
    {
      "anonymous": false,
      "inputs": [
        {
          "indexed": true,
          "internalType": "address",
          "name": "_agent",
          "type": "address"
        }
      ],
      "name": "AgentAdded",
      "type": "event"
    },
    {
      "anonymous": false,
      "inputs": [
        {
          "indexed": true,
          "internalType": "address",
          "name": "_agent",
          "type": "address"
        }
      ],
      "name": "AgentRemoved",
      "type": "event"
    },
    {
      "anonymous": false,
      "inputs": [
        {
          "indexed": true,
          "internalType": "address",
          "name": "previousOwner",
          "type": "address"
        },
        {
          "indexed": true,
          "internalType": "address",
          "name": "newOwner",
          "type": "address"
        }
      ],
      "name": "OwnershipTransferred",
      "type": "event"
    },
    {
      "anonymous": false,
      "inputs": [
        {
          "indexed": false,
          "internalType": "uint16",
          "name": "_country",
          "type": "uint16"
        }
      ],
      "name": "RemovedRestrictedCountry",
      "type": "event"
    },
    {
      "anonymous": false,
      "inputs": [
        {
          "indexed": false,
          "internalType": "address",
          "name": "_agentAddress",
          "type": "address"
        }
      ],
      "name": "TokenAgentAdded",
      "type": "event"
    },
    {
      "anonymous": false,
      "inputs": [
        {
          "indexed": false,
          "internalType": "address",
          "name": "_agentAddress",
          "type": "address"
        }
      ],
      "name": "TokenAgentRemoved",
      "type": "event"
    },
    {
      "anonymous": false,
      "inputs": [
        {
          "indexed": false,
          "internalType": "address",
          "name": "_token",
          "type": "address"
        }
      ],
      "name": "TokenBound",
      "type": "event"
    },
    {
      "anonymous": false,
      "inputs": [
        {
          "indexed": false,
          "internalType": "address",
          "name": "_token",
          "type": "address"
        }
      ],
      "name": "TokenUnbound",
      "type": "event"
    },
    {
      "inputs": [
        {
          "internalType": "address",
          "name": "_agent",
          "type": "address"
        }
      ],
      "name": "addAgent",
      "outputs": [],
      "stateMutability": "nonpayable",
      "type": "function"
    },
    {
      "inputs": [
        {
          "internalType": "uint16",
          "name": "_country",
          "type": "uint16"
        }
      ],
      "name": "addCountryRestriction",
      "outputs": [],
      "stateMutability": "nonpayable",
      "type": "function"
    },
    {
      "inputs": [
        {
          "internalType": "address",
          "name": "_agentAddress",
          "type": "address"
        }
      ],
      "name": "addTokenAgent",
      "outputs": [],
      "stateMutability": "nonpayable",
      "type": "function"
    },
    {
      "inputs": [
        {
          "internalType": "uint16[]",
          "name": "_countries",
          "type": "uint16[]"
        }
      ],
      "name": "batchRestrictCountries",
      "outputs": [],
      "stateMutability": "nonpayable",
      "type": "function"
    },
    {
      "inputs": [
        {
          "internalType": "uint16[]",
          "name": "_countries",
          "type": "uint16[]"
        }
      ],
      "name": "batchUnrestrictCountries",
      "outputs": [],
      "stateMutability": "nonpayable",
      "type": "function"
    },
    {
      "inputs": [
        {
          "internalType": "address",
          "name": "_token",
          "type": "address"
        }
      ],
      "name": "bindToken",
      "outputs": [],
      "stateMutability": "nonpayable",
      "type": "function"
    },
    {
      "inputs": [
        {
          "internalType": "address",
          "name": "_from",
          "type": "address"
        },
        {
          "internalType": "address",
          "name": "_to",
          "type": "address"
        },
        {
          "internalType": "uint256",
          "name": "_value",
          "type": "uint256"
        }
      ],
      "name": "canTransfer",
      "outputs": [
        {
          "internalType": "bool",
          "name": "",
          "type": "bool"
        }
      ],
      "stateMutability": "view",
      "type": "function"
    },
    {
      "inputs": [
        {
          "internalType": "address",
          "name": "",
          "type": "address"
        },
        {
          "internalType": "address",
          "name": "_to",
          "type": "address"
        },
        {
          "internalType": "uint256",
          "name": "",
          "type": "uint256"
        }
      ],
      "name": "complianceCheckOnCountryRestrictions",
      "outputs": [
        {
          "internalType": "bool",
          "name": "",
          "type": "bool"
        }
      ],
      "stateMutability": "view",
      "type": "function"
    },
    {
      "inputs": [
        {
          "internalType": "address",
          "name": "_to",
          "type": "address"
        },
        {
          "internalType": "uint256",
          "name": "_value",
          "type": "uint256"
        }
      ],
      "name": "created",
      "outputs": [],
      "stateMutability": "nonpayable",
      "type": "function"
    },
    {
      "inputs": [
        {
          "internalType": "address",
          "name": "_from",
          "type": "address"
        },
        {
          "internalType": "uint256",
          "name": "_value",
          "type": "uint256"
        }
      ],
      "name": "destroyed",
      "outputs": [],
      "stateMutability": "nonpayable",
      "type": "function"
    },
    {
      "inputs": [
        {
          "internalType": "address",
          "name": "_agent",
          "type": "address"
        }
      ],
      "name": "isAgent",
      "outputs": [
        {
          "internalType": "bool",
          "name": "",
          "type": "bool"
        }
      ],
      "stateMutability": "view",
      "type": "function"
    },
    {
      "inputs": [
        {
          "internalType": "uint16",
          "name": "_country",
          "type": "uint16"
        }
      ],
      "name": "isCountryRestricted",
      "outputs": [
        {
          "internalType": "bool",
          "name": "",
          "type": "bool"
        }
      ],
      "stateMutability": "view",
      "type": "function"
    },
    {
      "inputs": [
        {
          "internalType": "address",
          "name": "_agentAddress",
          "type": "address"
        }
      ],
      "name": "isTokenAgent",
      "outputs": [
        {
          "internalType": "bool",
          "name": "",
          "type": "bool"
        }
      ],
      "stateMutability": "view",
      "type": "function"
    },
    {
      "inputs": [
        {
          "internalType": "address",
          "name": "_token",
          "type": "address"
        }
      ],
      "name": "isTokenBound",
      "outputs": [
        {
          "internalType": "bool",
          "name": "",
          "type": "bool"
        }
      ],
      "stateMutability": "view",
      "type": "function"
    },
    {
      "inputs": [],
      "name": "owner",
      "outputs": [
        {
          "internalType": "address",
          "name": "",
          "type": "address"
        }
      ],
      "stateMutability": "view",
      "type": "function"
    },
    {
      "inputs": [
        {
          "internalType": "address",
          "name": "_agent",
          "type": "address"
        }
      ],
      "name": "removeAgent",
      "outputs": [],
      "stateMutability": "nonpayable",
      "type": "function"
    },
    {
      "inputs": [
        {
          "internalType": "uint16",
          "name": "_country",
          "type": "uint16"
        }
      ],
      "name": "removeCountryRestriction",
      "outputs": [],
      "stateMutability": "nonpayable",
      "type": "function"
    },
    {
      "inputs": [
        {
          "internalType": "address",
          "name": "_agentAddress",
          "type": "address"
        }
      ],
      "name": "removeTokenAgent",
      "outputs": [],
      "stateMutability": "nonpayable",
      "type": "function"
    },
    {
      "inputs": [],
      "name": "renounceOwnership",
      "outputs": [],
      "stateMutability": "nonpayable",
      "type": "function"
    },
    {
      "inputs": [],
      "name": "tokenBound",
      "outputs": [
        {
          "internalType": "contract IToken",
          "name": "",
          "type": "address"
        }
      ],
      "stateMutability": "view",
      "type": "function"
    },
    {
      "inputs": [
        {
          "internalType": "address",
          "name": "newOwner",
          "type": "address"
        }
      ],
      "name": "transferOwnership",
      "outputs": [],
      "stateMutability": "nonpayable",
      "type": "function"
    },
    {
      "inputs": [
        {
          "internalType": "address",
          "name": "_from",
          "type": "address"
        },
        {
          "internalType": "address",
          "name": "_to",
          "type": "address"
        },
        {
          "internalType": "uint256",
          "name": "_value",
          "type": "uint256"
        }
      ],
      "name": "transferred",
      "outputs": [],
      "stateMutability": "nonpayable",
      "type": "function"
    },
    {
      "inputs": [
        {
          "internalType": "address",
          "name": "_token",
          "type": "address"
        }
      ],
      "name": "unbindToken",
      "outputs": [],
      "stateMutability": "nonpayable",
      "type": "function"
    }
  ],
  "bytecode": "0x6080806040523461005b5760008054336001600160a01b0319821681178355916001600160a01b03909116907f8be0079c531659141344cd1fd0a4f28419497f9722a3daafe3b4186f6b6457e09080a36110f290816100618239f35b600080fdfe60406080815260048036101561001457600080fd5b600090813560e01c80630333ce2414610af05780631ffbb06414610aca578063249c981d146109f6578063346531fa146109d05780633ff5aa021461093657806340db3b50146108635780635f8dead31461062d5780636aae7b26146107a9578063715018a61461074f57806384e79842146106795780638baf29b41461065b5780638d2ea7721461062d5780638da5cb5b1461060557806393e62f07146105dc57806397a6278e146104fe578063993e8b95146104d8578063bc4c855214610495578063bdf9a07e146103b3578063c7a4ecf814610395578063cdde2932146102d3578063e46638e6146102ac578063f2fde38b146101e85763ff3e69541461011d57600080fd5b346101e457602090816003193601126101e057610138610baf565b610140610c4c565b6001600160a01b0316808452600283528484205490919060ff1661019f57508293817fd62c45e13ac30396aceb3ad37c89bd1ba9048032fe61679000e92eb93dbfd67d945260028352808520600160ff1982541617905551908152a180f35b606490838087519262461bcd60e51b845283015260248201527f54686973204167656e7420697320616c726561647920726567697374657265646044820152fd5b8280fd5b5080fd5b508290346101e05760203660031901126101e057610204610baf565b9061020d610c4c565b6001600160a01b0391821692831561025a57505082546001600160a01b0319811683178455167f8be0079c531659141344cd1fd0a4f28419497f9722a3daafe3b4186f6b6457e08380a380f35b906020608492519162461bcd60e51b8352820152602660248201527f4f776e61626c653a206e6577206f776e657220697320746865207a65726f206160448201526564647265737360d01b6064820152fd5b8284346101e4576020906102ca6102c236610c17565b509050610fea565b90519015158152f35b50346101e457602090816003193601126101e0576102ef610baf565b6102f7610c4c565b6001600160a01b0316808452600283528484205490919060ff161561035457508293817f6a659bb87bb23efbdc295f8eed8ae8c4379bfb77660ced2ef0f3d7d26b05c6a694526002835280852060ff19815416905551908152a180f35b606490838087519262461bcd60e51b845283015260248201527f54686973204167656e74206973206e6f742072656769737465726564207965746044820152fd5b8284346101e4576020906102ca6103ab36610c17565b509050610e56565b508290346101e0576103c436610bca565b849391935b8181106103d4578580f35b61ffff6103ea6103e5838589610e21565b610e47565b6103f2610c4c565b1680875260209085825260ff858920541661045257808852858252848820805460ff19166001179055845190815261044d92917f686ddf4acaa296f02dade9efd41d8a09a2eba14d730f9117404e6ffe6b96a01891a1610dfc565b6103c9565b845162461bcd60e51b8152808701839052601a60248201527f636f756e74727920616c726561647920726573747269637465640000000000006044820152606490fd5b508290346101e05760203660031901126101e057359161ffff831683036104d557506102ca60209261ffff16600052600460205260ff6040600020541690565b80fd5b8284346101e45760203660031901126101e4576020906102ca6104f9610baf565b610ddd565b508290346101e05760203660031901126101e05761051a610baf565b90610523610c4c565b6001600160a01b03821692610539841515610ffd565b61054283611049565b1561058f5750506001600160a01b03166000908152600160205260409020805460ff191690557fed9c8ad8d5a0a66898ea49d2956929c93ae2e8bd50281b2ed897c5d1a6737e0b8280a280f35b906020608492519162461bcd60e51b8352820152602160248201527f526f6c65733a206163636f756e7420646f6573206e6f74206861766520726f6c6044820152606560f81b6064820152fd5b8284346101e457816003193601126101e45760035490516001600160a01b039091168152602090f35b8284346101e457816003193601126101e457905490516001600160a01b039091168152602090f35b8284346101e4573660031901126104d557610646610baf565b5061065861065333610ddd565b610f6c565b80f35b82346104d55761066a36610c17565b50505061065861065333610ddd565b508290346101e05760203660031901126101e057610695610baf565b9061069e610c4c565b6001600160a01b038216926106b4841515610ffd565b6106bd83611049565b61070c5750506001600160a01b03166000908152600160205260409020805460ff191660011790557ff68e73cec97f2d70aa641fb26e87a4383686e2efacb648f2165aeb02ac562ec58280a280f35b906020606492519162461bcd60e51b8352820152601f60248201527f526f6c65733a206163636f756e7420616c72656164792068617320726f6c65006044820152fd5b82346104d557806003193601126104d557610768610c4c565b80546001600160a01b03198116825581906001600160a01b03167f8be0079c531659141344cd1fd0a4f28419497f9722a3daafe3b4186f6b6457e08280a380f35b5082346101e05760203660031901126101e05781359161ffff831680930361085f576107d3610c4c565b8284528060205260ff828520541615610824578284526020908152818420805460ff1916905590519182527f7dad2e3bc77f5830a7421a19a06cee2e76fcd4bdbe0793f240b3cf094cebcceb91a180f35b6020606492519162461bcd60e51b8352820152601660248201527518dbdd5b9d1c9e481b9bdd081c995cdd1c9a58dd195960521b6044820152fd5b8380fd5b5082346101e05760203660031901126101e05761087e610baf565b83546001600160a01b03939084163314801561092b575b61089e90610ca4565b83600354921693821684036108e857506001600160a01b031916600355519081527f28a4ca7134a3b3f9aff286e79ad3daadb4a06d1b43d037a3a98bdc074edd9b7a90602090a180f35b606490602084519162461bcd60e51b8352820152601760248201527f5468697320746f6b656e206973206e6f7420626f756e640000000000000000006044820152fd5b503382851614610895565b8284346101e45760203660031901126101e45760207f2de35142b19ed5a07796cf30791959c592018f70b1d2d7c460eef8ffe713692b91610975610baf565b84546001600160a01b0391908216331480156109b8575b61099590610ca4565b1690816bffffffffffffffffffffffff60a01b600354161760035551908152a180f35b50816003541615801561098c5750338183161461098c565b8284346101e45760203660031901126101e4576020906102ca6109f1610baf565b610d28565b508290346101e057610a0736610bca565b849391935b818110610a17578580f35b61ffff610a286103e5838589610e21565b610a30610c4c565b1680875260209085825260ff858920541615610a8e57808852858252848820805460ff191690558451908152610a8992917f7dad2e3bc77f5830a7421a19a06cee2e76fcd4bdbe0793f240b3cf094cebcceb91a1610dfc565b610a0c565b845162461bcd60e51b8152808701839052601660248201527518dbdd5b9d1c9e481b9bdd081c995cdd1c9a58dd195960521b6044820152606490fd5b8284346101e45760203660031901126101e4576020906102ca610aeb610baf565b611049565b5082346101e05760203660031901126101e05781359161ffff831680930361085f57610b1a610c4c565b8284528060205260ff8285205416610b6d578284526020908152818420805460ff1916600117905590519182527f686ddf4acaa296f02dade9efd41d8a09a2eba14d730f9117404e6ffe6b96a01891a180f35b6020606492519162461bcd60e51b8352820152601a60248201527f636f756e74727920616c726561647920726573747269637465640000000000006044820152fd5b600435906001600160a01b0382168203610bc557565b600080fd5b906020600319830112610bc55760043567ffffffffffffffff92838211610bc55780602383011215610bc5578160040135938411610bc55760248460051b83010111610bc5576024019190565b6060906003190112610bc5576001600160a01b03906004358281168103610bc557916024359081168103610bc5579060443590565b6000546001600160a01b03163303610c6057565b606460405162461bcd60e51b815260206004820152602060248201527f4f776e61626c653a2063616c6c6572206973206e6f7420746865206f776e65726044820152fd5b15610cab57565b60405162461bcd60e51b815260206004820152601c60248201527f6f6e6c79206f776e6572206f7220746f6b656e2063616e2063616c6c000000006044820152606490fd5b90601f8019910116810190811067ffffffffffffffff821117610d1257604052565b634e487b7160e01b600052604160045260246000fd5b60018060a01b0380911690600091808352600260205260ff604084205416159182610d5d575b5050610d5a5750600190565b90565b602091925060035416916024604051809481936307feec1960e21b835260048301525afa908115610dd2578291610d98575b50153880610d4e565b90506020813d8211610dca575b81610db260209383610cf0565b810103126101e4575180151581036101e45738610d8f565b3d9150610da5565b6040513d84823e3d90fd5b6003546001600160a01b03908116911603610df757600190565b600090565b6000198114610e0b5760010190565b634e487b7160e01b600052601160045260246000fd5b9190811015610e315760051b0190565b634e487b7160e01b600052603260045260246000fd5b3561ffff81168103610bc55790565b6003546040516304d3863d60e21b8152602092916001600160a01b039084908390600490829085165afa928315610f22578492600094610f2e575b50604051637e42683b60e01b815290821660048201529283916024918391165afa918215610f2257600092610ee8575b5050610edf9061ffff16600052600460205260ff6040600020541690565b610df757600190565b81813d8311610f1b575b610efc8183610cf0565b810103126101e457519061ffff821682036104d55750610edf38610ec1565b503d610ef2565b6040513d6000823e3d90fd5b9093919281813d8311610f65575b610f468183610cf0565b810103126101e457519082821682036104d55750918391906024610e91565b503d610f3c565b15610f7357565b60a460405162461bcd60e51b815260206004820152604460248201527f6572726f72203a20746869732061646472657373206973206e6f74206120746f60448201527f6b656e20626f756e6420746f2074686520636f6d706c69616e636520636f6e746064820152631c9858dd60e21b6084820152fd5b610ff390610e56565b15610df757600190565b1561100457565b60405162461bcd60e51b815260206004820152601f60248201527f696e76616c696420617267756d656e74202d207a65726f2061646472657373006044820152606490fd5b6001600160a01b0316801561106c57600052600160205260ff6040600020541690565b60405162461bcd60e51b815260206004820152602260248201527f526f6c65733a206163636f756e7420697320746865207a65726f206164647265604482015261737360f01b6064820152608490fdfea26469706673582212201be448758253c3411051115542d2daf9cdab540f54b11b71a5744fcb1fbd4bf164736f6c63430008110033",
  "linkReferences": {},
  "deployedLinkReferences": {}
}