{
  "_format": "hh-sol-artifact-1",
  "contractName": "CountryWhitelistingTest",
  "sourceName": "contracts/compliance/legacy/test/CountryWhitelistingTest.sol",
  "abi": [
    {
      "anonymous": false,
      "inputs": [
        {
          "indexed": true,
          "internalType": "address",
          "name": "_agent",
          "type": "address"
        }
      ],
      "name": "AgentAdded",
      "type": "event"
    },
    {
      "anonymous": false,
      "inputs": [
        {
          "indexed": true,
          "internalType": "address",
          "name": "_agent",
          "type": "address"
        }
      ],
      "name": "AgentRemoved",
      "type": "event"
    },
    {
      "anonymous": false,
      "inputs": [
        {
          "indexed": true,
          "internalType": "address",
          "name": "previousOwner",
          "type": "address"
        },
        {
          "indexed": true,
          "internalType": "address",
          "name": "newOwner",
          "type": "address"
        }
      ],
      "name": "OwnershipTransferred",
      "type": "event"
    },
    {
      "anonymous": false,
      "inputs": [
        {
          "indexed": false,
          "internalType": "address",
          "name": "_agentAddress",
          "type": "address"
        }
      ],
      "name": "TokenAgentAdded",
      "type": "event"
    },
    {
      "anonymous": false,
      "inputs": [
        {
          "indexed": false,
          "internalType": "address",
          "name": "_agentAddress",
          "type": "address"
        }
      ],
      "name": "TokenAgentRemoved",
      "type": "event"
    },
    {
      "anonymous": false,
      "inputs": [
        {
          "indexed": false,
          "internalType": "address",
          "name": "_token",
          "type": "address"
        }
      ],
      "name": "TokenBound",
      "type": "event"
    },
    {
      "anonymous": false,
      "inputs": [
        {
          "indexed": false,
          "internalType": "address",
          "name": "_token",
          "type": "address"
        }
      ],
      "name": "TokenUnbound",
      "type": "event"
    },
    {
      "anonymous": false,
      "inputs": [
        {
          "indexed": false,
          "internalType": "uint16",
          "name": "_country",
          "type": "uint16"
        }
      ],
      "name": "UnWhitelistedCountry",
      "type": "event"
    },
    {
      "anonymous": false,
      "inputs": [
        {
          "indexed": false,
          "internalType": "uint16",
          "name": "_country",
          "type": "uint16"
        }
      ],
      "name": "WhitelistedCountry",
      "type": "event"
    },
    {
      "inputs": [
        {
          "internalType": "address",
          "name": "_agent",
          "type": "address"
        }
      ],
      "name": "addAgent",
      "outputs": [],
      "stateMutability": "nonpayable",
      "type": "function"
    },
    {
      "inputs": [
        {
          "internalType": "address",
          "name": "_agentAddress",
          "type": "address"
        }
      ],
      "name": "addTokenAgent",
      "outputs": [],
      "stateMutability": "nonpayable",
      "type": "function"
    },
    {
      "inputs": [
        {
          "internalType": "uint16[]",
          "name": "_countries",
          "type": "uint16[]"
        }
      ],
      "name": "batchUnWhitelistCountries",
      "outputs": [],
      "stateMutability": "nonpayable",
      "type": "function"
    },
    {
      "inputs": [
        {
          "internalType": "uint16[]",
          "name": "_countries",
          "type": "uint16[]"
        }
      ],
      "name": "batchWhitelistCountries",
      "outputs": [],
      "stateMutability": "nonpayable",
      "type": "function"
    },
    {
      "inputs": [
        {
          "internalType": "address",
          "name": "_token",
          "type": "address"
        }
      ],
      "name": "bindToken",
      "outputs": [],
      "stateMutability": "nonpayable",
      "type": "function"
    },
    {
      "inputs": [
        {
          "internalType": "address",
          "name": "_from",
          "type": "address"
        },
        {
          "internalType": "address",
          "name": "_to",
          "type": "address"
        },
        {
          "internalType": "uint256",
          "name": "_value",
          "type": "uint256"
        }
      ],
      "name": "canTransfer",
      "outputs": [
        {
          "internalType": "bool",
          "name": "",
          "type": "bool"
        }
      ],
      "stateMutability": "view",
      "type": "function"
    },
    {
      "inputs": [
        {
          "internalType": "address",
          "name": "",
          "type": "address"
        },
        {
          "internalType": "address",
          "name": "_to",
          "type": "address"
        },
        {
          "internalType": "uint256",
          "name": "",
          "type": "uint256"
        }
      ],
      "name": "complianceCheckOnCountryWhitelisting",
      "outputs": [
        {
          "internalType": "bool",
          "name": "",
          "type": "bool"
        }
      ],
      "stateMutability": "view",
      "type": "function"
    },
    {
      "inputs": [
        {
          "internalType": "address",
          "name": "_to",
          "type": "address"
        },
        {
          "internalType": "uint256",
          "name": "_value",
          "type": "uint256"
        }
      ],
      "name": "created",
      "outputs": [],
      "stateMutability": "nonpayable",
      "type": "function"
    },
    {
      "inputs": [
        {
          "internalType": "address",
          "name": "_from",
          "type": "address"
        },
        {
          "internalType": "uint256",
          "name": "_value",
          "type": "uint256"
        }
      ],
      "name": "destroyed",
      "outputs": [],
      "stateMutability": "nonpayable",
      "type": "function"
    },
    {
      "inputs": [
        {
          "internalType": "address",
          "name": "_agent",
          "type": "address"
        }
      ],
      "name": "isAgent",
      "outputs": [
        {
          "internalType": "bool",
          "name": "",
          "type": "bool"
        }
      ],
      "stateMutability": "view",
      "type": "function"
    },
    {
      "inputs": [
        {
          "internalType": "uint16",
          "name": "_country",
          "type": "uint16"
        }
      ],
      "name": "isCountryWhitelisted",
      "outputs": [
        {
          "internalType": "bool",
          "name": "",
          "type": "bool"
        }
      ],
      "stateMutability": "view",
      "type": "function"
    },
    {
      "inputs": [
        {
          "internalType": "address",
          "name": "_agentAddress",
          "type": "address"
        }
      ],
      "name": "isTokenAgent",
      "outputs": [
        {
          "internalType": "bool",
          "name": "",
          "type": "bool"
        }
      ],
      "stateMutability": "view",
      "type": "function"
    },
    {
      "inputs": [
        {
          "internalType": "address",
          "name": "_token",
          "type": "address"
        }
      ],
      "name": "isTokenBound",
      "outputs": [
        {
          "internalType": "bool",
          "name": "",
          "type": "bool"
        }
      ],
      "stateMutability": "view",
      "type": "function"
    },
    {
      "inputs": [],
      "name": "owner",
      "outputs": [
        {
          "internalType": "address",
          "name": "",
          "type": "address"
        }
      ],
      "stateMutability": "view",
      "type": "function"
    },
    {
      "inputs": [
        {
          "internalType": "address",
          "name": "_agent",
          "type": "address"
        }
      ],
      "name": "removeAgent",
      "outputs": [],
      "stateMutability": "nonpayable",
      "type": "function"
    },
    {
      "inputs": [
        {
          "internalType": "address",
          "name": "_agentAddress",
          "type": "address"
        }
      ],
      "name": "removeTokenAgent",
      "outputs": [],
      "stateMutability": "nonpayable",
      "type": "function"
    },
    {
      "inputs": [],
      "name": "renounceOwnership",
      "outputs": [],
      "stateMutability": "nonpayable",
      "type": "function"
    },
    {
      "inputs": [],
      "name": "tokenBound",
      "outputs": [
        {
          "internalType": "contract IToken",
          "name": "",
          "type": "address"
        }
      ],
      "stateMutability": "view",
      "type": "function"
    },
    {
      "inputs": [
        {
          "internalType": "address",
          "name": "newOwner",
          "type": "address"
        }
      ],
      "name": "transferOwnership",
      "outputs": [],
      "stateMutability": "nonpayable",
      "type": "function"
    },
    {
      "inputs": [
        {
          "internalType": "address",
          "name": "_from",
          "type": "address"
        },
        {
          "internalType": "address",
          "name": "_to",
          "type": "address"
        },
        {
          "internalType": "uint256",
          "name": "_value",
          "type": "uint256"
        }
      ],
      "name": "transferred",
      "outputs": [],
      "stateMutability": "nonpayable",
      "type": "function"
    },
    {
      "inputs": [
        {
          "internalType": "uint16",
          "name": "_country",
          "type": "uint16"
        }
      ],
      "name": "unWhitelistCountry",
      "outputs": [],
      "stateMutability": "nonpayable",
      "type": "function"
    },
    {
      "inputs": [
        {
          "internalType": "address",
          "name": "_token",
          "type": "address"
        }
      ],
      "name": "unbindToken",
      "outputs": [],
      "stateMutability": "nonpayable",
      "type": "function"
    },
    {
      "inputs": [
        {
          "internalType": "uint16",
          "name": "_country",
          "type": "uint16"
        }
      ],
      "name": "whitelistCountry",
      "outputs": [],
      "stateMutability": "nonpayable",
      "type": "function"
    }
  ],
  "bytecode": "0x6080806040523461005b5760008054336001600160a01b0319821681178355916001600160a01b03909116907f8be0079c531659141344cd1fd0a4f28419497f9722a3daafe3b4186f6b6457e09080a361112090816100618239f35b600080fdfe60406080815260048036101561001457600080fd5b600090813560e01c806307e8e34414610ac55780631ffbb06414610a9f578063346531fa14610a795780633b0b83c014610a5b5780633ff5aa02146109c157806340db3b50146108ee5780635f8dead31461076f578063715018a61461089457806384e79842146107be5780638baf29b4146107a05780638d2ea7721461076f5780638da5cb5b1461074757806393e62f071461071e57806397a6278e1461064057806397eab82b14610607578063993e8b95146105e1578063a1b01b4f1461052c578063aee250af14610452578063cdde293214610390578063e46638e614610369578063f2fde38b146102a5578063f393cbc2146101e85763ff3e69541461011d57600080fd5b346101e457602090816003193601126101e057610138610c6d565b610140610cb8565b6001600160a01b0316808452600283528484205490919060ff1661019f57508293817fd62c45e13ac30396aceb3ad37c89bd1ba9048032fe61679000e92eb93dbfd67d945260028352808520600160ff1982541617905551908152a180f35b606490838087519262461bcd60e51b845283015260248201527f54686973204167656e7420697320616c726561647920726567697374657265646044820152fd5b8280fd5b5080fd5b5082346101e05760203660031901126101e05761ffff610206610bcb565b61020e610cb8565b16918284528060205260ff8285205416610263578284526020908152818420805460ff1916600117905590519182527fd20535bfd780673cc88887ad4af967343e4e8e088062aa936fea2de79d10de2891a180f35b6020606492519162461bcd60e51b8352820152601b60248201527f636f756e74727920616c72656164792077686974656c697374656400000000006044820152fd5b508290346101e05760203660031901126101e0576102c1610c6d565b906102ca610cb8565b6001600160a01b0391821692831561031757505082546001600160a01b0319811683178455167f8be0079c531659141344cd1fd0a4f28419497f9722a3daafe3b4186f6b6457e08380a380f35b906020608492519162461bcd60e51b8352820152602660248201527f4f776e61626c653a206e6577206f776e657220697320746865207a65726f206160448201526564647265737360d01b6064820152fd5b8284346101e45760209061038761037f36610c83565b509050611018565b90519015158152f35b50346101e457602090816003193601126101e0576103ac610c6d565b6103b4610cb8565b6001600160a01b0316808452600283528484205490919060ff161561041157508293817f6a659bb87bb23efbdc295f8eed8ae8c4379bfb77660ced2ef0f3d7d26b05c6a694526002835280852060ff19815416905551908152a180f35b606490838087519262461bcd60e51b845283015260248201527f54686973204167656e74206973206e6f742072656769737465726564207965746044820152fd5b508290346101e05761046336610be1565b91835b83518110156105285761ffff61047c8286610e55565b5116610486610cb8565b80865260209084825260ff84882054166104e557808752848252838720805460ff1916600117905583519081526104e092917fd20535bfd780673cc88887ad4af967343e4e8e088062aa936fea2de79d10de2891a1610e30565b610466565b835162461bcd60e51b8152808601839052601b60248201527f636f756e74727920616c72656164792077686974656c697374656400000000006044820152606490fd5b8480f35b5082346101e05760203660031901126101e05761ffff61054a610bcb565b610552610cb8565b16918284528060205260ff8285205416156105a5578284526020908152818420805460ff1916905590519182527f77bf94f96c0e8d724e02e1c5c7a219b0b078de66c992608a55e755a6384d1ee391a180f35b6020606492519162461bcd60e51b8352820152601760248201527618dbdd5b9d1c9e481b9bdd081dda1a5d195b1a5cdd1959604a1b6044820152fd5b8284346101e45760203660031901126101e457602090610387610602610c6d565b610e11565b8284346101e45760203660031901126101e457602090610387610628610bcb565b61ffff16600052600460205260ff6040600020541690565b508290346101e05760203660031901126101e05761065c610c6d565b90610665610cb8565b6001600160a01b0382169261067b84151561102b565b61068483611077565b156106d15750506001600160a01b03166000908152600160205260409020805460ff191690557fed9c8ad8d5a0a66898ea49d2956929c93ae2e8bd50281b2ed897c5d1a6737e0b8280a280f35b906020608492519162461bcd60e51b8352820152602160248201527f526f6c65733a206163636f756e7420646f6573206e6f74206861766520726f6c6044820152606560f81b6064820152fd5b8284346101e457816003193601126101e45760035490516001600160a01b039091168152602090f35b8284346101e457816003193601126101e457905490516001600160a01b039091168152602090f35b8284346101e45736600319011261079d57610788610c6d565b5061079a61079533610e11565b610f9a565b80f35b80fd5b823461079d576107af36610c83565b50505061079a61079533610e11565b508290346101e05760203660031901126101e0576107da610c6d565b906107e3610cb8565b6001600160a01b038216926107f984151561102b565b61080283611077565b6108515750506001600160a01b03166000908152600160205260409020805460ff191660011790557ff68e73cec97f2d70aa641fb26e87a4383686e2efacb648f2165aeb02ac562ec58280a280f35b906020606492519162461bcd60e51b8352820152601f60248201527f526f6c65733a206163636f756e7420616c72656164792068617320726f6c65006044820152fd5b823461079d578060031936011261079d576108ad610cb8565b80546001600160a01b03198116825581906001600160a01b03167f8be0079c531659141344cd1fd0a4f28419497f9722a3daafe3b4186f6b6457e08280a380f35b5082346101e05760203660031901126101e057610909610c6d565b83546001600160a01b0393908416331480156109b6575b61092990610d10565b836003549216938216840361097357506001600160a01b031916600355519081527f28a4ca7134a3b3f9aff286e79ad3daadb4a06d1b43d037a3a98bdc074edd9b7a90602090a180f35b606490602084519162461bcd60e51b8352820152601760248201527f5468697320746f6b656e206973206e6f7420626f756e640000000000000000006044820152fd5b503382851614610920565b8284346101e45760203660031901126101e45760207f2de35142b19ed5a07796cf30791959c592018f70b1d2d7c460eef8ffe713692b91610a00610c6d565b84546001600160a01b039190821633148015610a43575b610a2090610d10565b1690816bffffffffffffffffffffffff60a01b600354161760035551908152a180f35b508160035416158015610a1757503381831614610a17565b8284346101e457602090610387610a7136610c83565b509050610e7f565b8284346101e45760203660031901126101e457602090610387610a9a610c6d565b610d5c565b8284346101e45760203660031901126101e457602090610387610ac0610c6d565b611077565b508290346101e057610ad636610be1565b91835b83518110156105285761ffff610aef8286610e55565b5116610af9610cb8565b80865260209084825260ff848820541615610b5657808752848252838720805460ff191690558351908152610b5192917f77bf94f96c0e8d724e02e1c5c7a219b0b078de66c992608a55e755a6384d1ee391a1610e30565b610ad9565b835162461bcd60e51b8152808601839052601760248201527618dbdd5b9d1c9e481b9bdd081dda1a5d195b1a5cdd1959604a1b6044820152606490fd5b90601f8019910116810190811067ffffffffffffffff821117610bb557604052565b634e487b7160e01b600052604160045260246000fd5b6004359061ffff82168203610bdc57565b600080fd5b602080600319830112610bdc5767ffffffffffffffff91600435838111610bdc5781602382011215610bdc578060040135938411610bb5578360051b9060405194610c2e85840187610b93565b8552602484860192820101928311610bdc57602401905b828210610c53575050505090565b813561ffff81168103610bdc578152908301908301610c45565b600435906001600160a01b0382168203610bdc57565b6060906003190112610bdc576001600160a01b03906004358281168103610bdc57916024359081168103610bdc579060443590565b6000546001600160a01b03163303610ccc57565b606460405162461bcd60e51b815260206004820152602060248201527f4f776e61626c653a2063616c6c6572206973206e6f7420746865206f776e65726044820152fd5b15610d1757565b60405162461bcd60e51b815260206004820152601c60248201527f6f6e6c79206f776e6572206f7220746f6b656e2063616e2063616c6c000000006044820152606490fd5b60018060a01b0380911690600091808352600260205260ff604084205416159182610d91575b5050610d8e5750600190565b90565b602091925060035416916024604051809481936307feec1960e21b835260048301525afa908115610e06578291610dcc575b50153880610d82565b90506020813d8211610dfe575b81610de660209383610b93565b810103126101e4575180151581036101e45738610dc3565b3d9150610dd9565b6040513d84823e3d90fd5b6003546001600160a01b03908116911603610e2b57600190565b600090565b6000198114610e3f5760010190565b634e487b7160e01b600052601160045260246000fd5b8051821015610e695760209160051b010190565b634e487b7160e01b600052603260045260246000fd5b6003546040516304d3863d60e21b8152602092916001600160a01b039084908390600490829085165afa928315610f50578492600094610f5c575b50604051637e42683b60e01b815290821660048201529283916024918391165afa918215610f5057600092610f16575b5050610f089061ffff16600052600460205260ff6040600020541690565b610f1157600090565b600190565b81813d8311610f49575b610f2a8183610b93565b810103126101e457519061ffff8216820361079d5750610f0838610eea565b503d610f20565b6040513d6000823e3d90fd5b9093919281813d8311610f93575b610f748183610b93565b810103126101e4575190828216820361079d5750918391906024610eba565b503d610f6a565b15610fa157565b60a460405162461bcd60e51b815260206004820152604460248201527f6572726f72203a20746869732061646472657373206973206e6f74206120746f60448201527f6b656e20626f756e6420746f2074686520636f6d706c69616e636520636f6e746064820152631c9858dd60e21b6084820152fd5b61102190610e7f565b15610e2b57600190565b1561103257565b60405162461bcd60e51b815260206004820152601f60248201527f696e76616c696420617267756d656e74202d207a65726f2061646472657373006044820152606490fd5b6001600160a01b0316801561109a57600052600160205260ff6040600020541690565b60405162461bcd60e51b815260206004820152602260248201527f526f6c65733a206163636f756e7420697320746865207a65726f206164647265604482015261737360f01b6064820152608490fdfea26469706673582212203b37a12bd791c05c227e372946df63b74a7eb63ee06e89f6d4b1c0d127ff57ed64736f6c63430008110033",
  "linkReferences": {},
  "deployedLinkReferences": {}
}