{
  "_format": "hh-sol-artifact-1",
  "contractName": "ExchangeMonthlyLimitsTest",
  "sourceName": "contracts/compliance/legacy/test/ExchangeMonthlyLimitsTest.sol",
  "abi": [
    {
      "anonymous": false,
      "inputs": [
        {
          "indexed": true,
          "internalType": "address",
          "name": "_agent",
          "type": "address"
        }
      ],
      "name": "AgentAdded",
      "type": "event"
    },
    {
      "anonymous": false,
      "inputs": [
        {
          "indexed": true,
          "internalType": "address",
          "name": "_agent",
          "type": "address"
        }
      ],
      "name": "AgentRemoved",
      "type": "event"
    },
    {
      "anonymous": false,
      "inputs": [
        {
          "indexed": false,
          "internalType": "address",
          "name": "_newExchangeID",
          "type": "address"
        }
      ],
      "name": "ExchangeIDAdded",
      "type": "event"
    },
    {
      "anonymous": false,
      "inputs": [
        {
          "indexed": false,
          "internalType": "address",
          "name": "_exchangeID",
          "type": "address"
        }
      ],
      "name": "ExchangeIDRemoved",
      "type": "event"
    },
    {
      "anonymous": false,
      "inputs": [
        {
          "indexed": false,
          "internalType": "address",
          "name": "_exchangeID",
          "type": "address"
        },
        {
          "indexed": false,
          "internalType": "uint256",
          "name": "_newExchangeMonthlyLimit",
          "type": "uint256"
        }
      ],
      "name": "ExchangeMonthlyLimitUpdated",
      "type": "event"
    },
    {
      "anonymous": false,
      "inputs": [
        {
          "indexed": true,
          "internalType": "address",
          "name": "previousOwner",
          "type": "address"
        },
        {
          "indexed": true,
          "internalType": "address",
          "name": "newOwner",
          "type": "address"
        }
      ],
      "name": "OwnershipTransferred",
      "type": "event"
    },
    {
      "anonymous": false,
      "inputs": [
        {
          "indexed": false,
          "internalType": "address",
          "name": "_agentAddress",
          "type": "address"
        }
      ],
      "name": "TokenAgentAdded",
      "type": "event"
    },
    {
      "anonymous": false,
      "inputs": [
        {
          "indexed": false,
          "internalType": "address",
          "name": "_agentAddress",
          "type": "address"
        }
      ],
      "name": "TokenAgentRemoved",
      "type": "event"
    },
    {
      "anonymous": false,
      "inputs": [
        {
          "indexed": false,
          "internalType": "address",
          "name": "_token",
          "type": "address"
        }
      ],
      "name": "TokenBound",
      "type": "event"
    },
    {
      "anonymous": false,
      "inputs": [
        {
          "indexed": false,
          "internalType": "address",
          "name": "_token",
          "type": "address"
        }
      ],
      "name": "TokenUnbound",
      "type": "event"
    },
    {
      "inputs": [
        {
          "internalType": "address",
          "name": "_agent",
          "type": "address"
        }
      ],
      "name": "addAgent",
      "outputs": [],
      "stateMutability": "nonpayable",
      "type": "function"
    },
    {
      "inputs": [
        {
          "internalType": "address",
          "name": "_exchangeID",
          "type": "address"
        }
      ],
      "name": "addExchangeID",
      "outputs": [],
      "stateMutability": "nonpayable",
      "type": "function"
    },
    {
      "inputs": [
        {
          "internalType": "address",
          "name": "_agentAddress",
          "type": "address"
        }
      ],
      "name": "addTokenAgent",
      "outputs": [],
      "stateMutability": "nonpayable",
      "type": "function"
    },
    {
      "inputs": [
        {
          "internalType": "address",
          "name": "_token",
          "type": "address"
        }
      ],
      "name": "bindToken",
      "outputs": [],
      "stateMutability": "nonpayable",
      "type": "function"
    },
    {
      "inputs": [
        {
          "internalType": "address",
          "name": "_from",
          "type": "address"
        },
        {
          "internalType": "address",
          "name": "_to",
          "type": "address"
        },
        {
          "internalType": "uint256",
          "name": "_value",
          "type": "uint256"
        }
      ],
      "name": "canTransfer",
      "outputs": [
        {
          "internalType": "bool",
          "name": "",
          "type": "bool"
        }
      ],
      "stateMutability": "view",
      "type": "function"
    },
    {
      "inputs": [
        {
          "internalType": "address",
          "name": "_from",
          "type": "address"
        },
        {
          "internalType": "address",
          "name": "_to",
          "type": "address"
        },
        {
          "internalType": "uint256",
          "name": "_value",
          "type": "uint256"
        }
      ],
      "name": "complianceCheckOnExchangeMonthlyLimits",
      "outputs": [
        {
          "internalType": "bool",
          "name": "",
          "type": "bool"
        }
      ],
      "stateMutability": "view",
      "type": "function"
    },
    {
      "inputs": [
        {
          "internalType": "address",
          "name": "_to",
          "type": "address"
        },
        {
          "internalType": "uint256",
          "name": "_value",
          "type": "uint256"
        }
      ],
      "name": "created",
      "outputs": [],
      "stateMutability": "nonpayable",
      "type": "function"
    },
    {
      "inputs": [
        {
          "internalType": "address",
          "name": "_from",
          "type": "address"
        },
        {
          "internalType": "uint256",
          "name": "_value",
          "type": "uint256"
        }
      ],
      "name": "destroyed",
      "outputs": [],
      "stateMutability": "nonpayable",
      "type": "function"
    },
    {
      "inputs": [
        {
          "internalType": "address",
          "name": "_exchangeID",
          "type": "address"
        }
      ],
      "name": "getExchangeMonthlyLimit",
      "outputs": [
        {
          "internalType": "uint256",
          "name": "",
          "type": "uint256"
        }
      ],
      "stateMutability": "view",
      "type": "function"
    },
    {
      "inputs": [
        {
          "internalType": "address",
          "name": "_exchangeID",
          "type": "address"
        },
        {
          "internalType": "address",
          "name": "_investorID",
          "type": "address"
        }
      ],
      "name": "getMonthlyCounter",
      "outputs": [
        {
          "internalType": "uint256",
          "name": "",
          "type": "uint256"
        }
      ],
      "stateMutability": "view",
      "type": "function"
    },
    {
      "inputs": [
        {
          "internalType": "address",
          "name": "_exchangeID",
          "type": "address"
        },
        {
          "internalType": "address",
          "name": "_investorID",
          "type": "address"
        }
      ],
      "name": "getMonthlyTimer",
      "outputs": [
        {
          "internalType": "uint256",
          "name": "",
          "type": "uint256"
        }
      ],
      "stateMutability": "view",
      "type": "function"
    },
    {
      "inputs": [
        {
          "internalType": "address",
          "name": "_agent",
          "type": "address"
        }
      ],
      "name": "isAgent",
      "outputs": [
        {
          "internalType": "bool",
          "name": "",
          "type": "bool"
        }
      ],
      "stateMutability": "view",
      "type": "function"
    },
    {
      "inputs": [
        {
          "internalType": "address",
          "name": "_exchangeID",
          "type": "address"
        }
      ],
      "name": "isExchangeID",
      "outputs": [
        {
          "internalType": "bool",
          "name": "",
          "type": "bool"
        }
      ],
      "stateMutability": "view",
      "type": "function"
    },
    {
      "inputs": [
        {
          "internalType": "address",
          "name": "_agentAddress",
          "type": "address"
        }
      ],
      "name": "isTokenAgent",
      "outputs": [
        {
          "internalType": "bool",
          "name": "",
          "type": "bool"
        }
      ],
      "stateMutability": "view",
      "type": "function"
    },
    {
      "inputs": [
        {
          "internalType": "address",
          "name": "_token",
          "type": "address"
        }
      ],
      "name": "isTokenBound",
      "outputs": [
        {
          "internalType": "bool",
          "name": "",
          "type": "bool"
        }
      ],
      "stateMutability": "view",
      "type": "function"
    },
    {
      "inputs": [],
      "name": "owner",
      "outputs": [
        {
          "internalType": "address",
          "name": "",
          "type": "address"
        }
      ],
      "stateMutability": "view",
      "type": "function"
    },
    {
      "inputs": [
        {
          "internalType": "address",
          "name": "_agent",
          "type": "address"
        }
      ],
      "name": "removeAgent",
      "outputs": [],
      "stateMutability": "nonpayable",
      "type": "function"
    },
    {
      "inputs": [
        {
          "internalType": "address",
          "name": "_exchangeID",
          "type": "address"
        }
      ],
      "name": "removeExchangeID",
      "outputs": [],
      "stateMutability": "nonpayable",
      "type": "function"
    },
    {
      "inputs": [
        {
          "internalType": "address",
          "name": "_agentAddress",
          "type": "address"
        }
      ],
      "name": "removeTokenAgent",
      "outputs": [],
      "stateMutability": "nonpayable",
      "type": "function"
    },
    {
      "inputs": [],
      "name": "renounceOwnership",
      "outputs": [],
      "stateMutability": "nonpayable",
      "type": "function"
    },
    {
      "inputs": [
        {
          "internalType": "address",
          "name": "_exchangeID",
          "type": "address"
        },
        {
          "internalType": "uint256",
          "name": "_newExchangeMonthlyLimit",
          "type": "uint256"
        }
      ],
      "name": "setExchangeMonthlyLimit",
      "outputs": [],
      "stateMutability": "nonpayable",
      "type": "function"
    },
    {
      "inputs": [],
      "name": "tokenBound",
      "outputs": [
        {
          "internalType": "contract IToken",
          "name": "",
          "type": "address"
        }
      ],
      "stateMutability": "view",
      "type": "function"
    },
    {
      "inputs": [
        {
          "internalType": "address",
          "name": "newOwner",
          "type": "address"
        }
      ],
      "name": "transferOwnership",
      "outputs": [],
      "stateMutability": "nonpayable",
      "type": "function"
    },
    {
      "inputs": [
        {
          "internalType": "address",
          "name": "_from",
          "type": "address"
        },
        {
          "internalType": "address",
          "name": "_to",
          "type": "address"
        },
        {
          "internalType": "uint256",
          "name": "_value",
          "type": "uint256"
        }
      ],
      "name": "transferred",
      "outputs": [],
      "stateMutability": "nonpayable",
      "type": "function"
    },
    {
      "inputs": [
        {
          "internalType": "address",
          "name": "_token",
          "type": "address"
        }
      ],
      "name": "unbindToken",
      "outputs": [],
      "stateMutability": "nonpayable",
      "type": "function"
    }
  ],
  "bytecode": "0x6080806040523461005b5760008054336001600160a01b0319821681178355916001600160a01b03909116907f8be0079c531659141344cd1fd0a4f28419497f9722a3daafe3b4186f6b6457e09080a361125190816100618239f35b600080fdfe60406080815260048036101561001457600080fd5b600090813560e01c80631ffbb06414610c6d5780632bb5e72114610b9a578063346531fa14610b745780633ff5aa0214610ada57806340db3b5014610a075780635f8dead31461068f578063715018a6146109ad57806374436d97146108eb57806384e79842146108155780638baf29b4146106c05780638d2ea7721461068f5780638da5cb5b1461066757806393e62f071461063e57806395c5dbfc1461060757806397a6278e14610529578063993e8b9514610503578063a9336def14610497578063bba58c291461047b578063ca63968d14610432578063cdde293214610370578063ce32926d14610325578063d22579fb146102e7578063e46638e6146102c2578063f2fde38b146101fe5763ff3e69541461013357600080fd5b346101fa57602090816003193601126101f65761014e610c93565b610156610cf9565b6001600160a01b0316808452600283528484205490919060ff166101b557508293817fd62c45e13ac30396aceb3ad37c89bd1ba9048032fe61679000e92eb93dbfd67d945260028352808520600160ff1982541617905551908152a180f35b606490838087519262461bcd60e51b845283015260248201527f54686973204167656e7420697320616c726561647920726567697374657265646044820152fd5b8280fd5b5080fd5b508290346101f65760203660031901126101f65761021a610c93565b90610223610cf9565b6001600160a01b0391821692831561027057505082546001600160a01b0319811683178455167f8be0079c531659141344cd1fd0a4f28419497f9722a3daafe3b4186f6b6457e08380a380f35b906020608492519162461bcd60e51b8352820152602660248201527f4f776e61626c653a206e6577206f776e657220697320746865207a65726f206160448201526564647265737360d01b6064820152fd5b8284346101fa576020906102de6102d836610cc4565b91611147565b90519015158152f35b8284346101fa5760203660031901126101fa5760209160ff9082906001600160a01b03610312610c93565b1681526006855220541690519015158152f35b8284346101fa57806003193601126101fa57600181602093610345610c93565b61034d610cae565b90848060a01b038091168352600587528383209116825285522001549051908152f35b50346101fa57602090816003193601126101f65761038c610c93565b610394610cf9565b6001600160a01b0316808452600283528484205490919060ff16156103f157508293817f6a659bb87bb23efbdc295f8eed8ae8c4379bfb77660ced2ef0f3d7d26b05c6a694526002835280852060ff19815416905551908152a180f35b606490838087519262461bcd60e51b845283015260248201527f54686973204167656e74206973206e6f742072656769737465726564207965746044820152fd5b8284346101fa57806003193601126101fa5780602092610450610c93565b610458610cae565b6001600160a01b0391821683526005865283832091168252845220549051908152f35b8284346101fa576020906102de61049136610cc4565b91610ecc565b5082346101f657806003193601126101f6577f046e8d44ac13395246a46d2f1065db8724b7c6aa2b9dd481327c2687c3ad9efd916104d3610c93565b602435906104df610cf9565b6001600160a01b03168086526020928352838620829055835190815291820152a180f35b8284346101fa5760203660031901126101fa576020906102de610524610c93565b610e8a565b508290346101f65760203660031901126101f657610545610c93565b9061054e610cf9565b6001600160a01b0382169261056484151561115c565b61056d836111a8565b156105ba5750506001600160a01b03166000908152600160205260409020805460ff191690557fed9c8ad8d5a0a66898ea49d2956929c93ae2e8bd50281b2ed897c5d1a6737e0b8280a280f35b906020608492519162461bcd60e51b8352820152602160248201527f526f6c65733a206163636f756e7420646f6573206e6f74206861766520726f6c6044820152606560f81b6064820152fd5b508290346101f65760203660031901126101f65760209282916001600160a01b03610630610c93565b168252845220549051908152f35b8284346101fa57816003193601126101fa5760035490516001600160a01b039091168152602090f35b8284346101fa57816003193601126101fa57905490516001600160a01b039091168152602090f35b8284346101fa573660031901126106bd576106a8610c93565b506106ba6106b533610e8a565b6110c9565b80f35b80fd5b508290346101f6576106d136610cc4565b9391926106e06106b533610e8a565b6106f26106ec85610fd5565b92610fd5565b9160018060a01b0390818416938489526020966006885260ff878b2054169081610804575b50610720578880f35b610753908260018060a01b0380911660005260056020526040600020911660005260205260016040600020015442101590565b6107b2575b16908187526005855283872083885285526107768685892054610ea9565b918752845282862054101561078e575b808080808880f35b8260056107a79452828620918652528320918254610ea9565b905581808080610786565b62278d0042018042116107f15782821690818a5260058852868a20868b5288526001878b20015588526005865284882084895286528785812055610758565b634e487b7160e01b895260118452602489fd5b61080e9150610dd5565b158a610717565b508290346101f65760203660031901126101f657610831610c93565b9061083a610cf9565b6001600160a01b0382169261085084151561115c565b610859836111a8565b6108a85750506001600160a01b03166000908152600160205260409020805460ff191660011790557ff68e73cec97f2d70aa641fb26e87a4383686e2efacb648f2165aeb02ac562ec58280a280f35b906020606492519162461bcd60e51b8352820152601f60248201527f526f6c65733a206163636f756e7420616c72656164792068617320726f6c65006044820152fd5b50346101fa57602090816003193601126101f657610907610c93565b61090f610cf9565b6001600160a01b0316808452600683528484205490919060ff161561096c57508293817fc59743ca46d36b7cf42c36211a2fbef12e10aec1bfc9d39eccf91b6976a260f594526006835280852060ff19815416905551908152a180f35b606490838087519262461bcd60e51b845283015260248201527f4f4e434841494e4944206e6f74207461676765642061732065786368616e67656044820152fd5b82346106bd57806003193601126106bd576109c6610cf9565b80546001600160a01b03198116825581906001600160a01b03167f8be0079c531659141344cd1fd0a4f28419497f9722a3daafe3b4186f6b6457e08280a380f35b5082346101f65760203660031901126101f657610a22610c93565b83546001600160a01b039390841633148015610acf575b610a4290610d51565b8360035492169382168403610a8c57506001600160a01b031916600355519081527f28a4ca7134a3b3f9aff286e79ad3daadb4a06d1b43d037a3a98bdc074edd9b7a90602090a180f35b606490602084519162461bcd60e51b8352820152601760248201527f5468697320746f6b656e206973206e6f7420626f756e640000000000000000006044820152fd5b503382851614610a39565b8284346101fa5760203660031901126101fa5760207f2de35142b19ed5a07796cf30791959c592018f70b1d2d7c460eef8ffe713692b91610b19610c93565b84546001600160a01b039190821633148015610b5c575b610b3990610d51565b1690816bffffffffffffffffffffffff60a01b600354161760035551908152a180f35b508160035416158015610b3057503381831614610b30565b8284346101fa5760203660031901126101fa576020906102de610b95610c93565b610dd5565b5082346101f65760203660031901126101f657610bb5610c93565b610bbd610cf9565b6001600160a01b031680845260066020528184205490929060ff16610c1f5750816020917fca661533a567195376b79f20fcbcca20e62ceea1d43efacba5f8028329da8e6b93855260068352808520600160ff1982541617905551908152a180f35b6020608492519162461bcd60e51b83528201526024808201527f4f4e434841494e494420616c7265616479207461676765642061732065786368604482015263616e676560e01b6064820152fd5b8284346101fa5760203660031901126101fa576020906102de610c8e610c93565b6111a8565b600435906001600160a01b0382168203610ca957565b600080fd5b602435906001600160a01b0382168203610ca957565b6060906003190112610ca9576001600160a01b03906004358281168103610ca957916024359081168103610ca9579060443590565b6000546001600160a01b03163303610d0d57565b606460405162461bcd60e51b815260206004820152602060248201527f4f776e61626c653a2063616c6c6572206973206e6f7420746865206f776e65726044820152fd5b15610d5857565b60405162461bcd60e51b815260206004820152601c60248201527f6f6e6c79206f776e6572206f7220746f6b656e2063616e2063616c6c000000006044820152606490fd5b90601f8019910116810190811067ffffffffffffffff821117610dbf57604052565b634e487b7160e01b600052604160045260246000fd5b60018060a01b0380911690600091808352600260205260ff604084205416159182610e0a575b5050610e075750600190565b90565b602091925060035416916024604051809481936307feec1960e21b835260048301525afa908115610e7f578291610e45575b50153880610dfb565b90506020813d8211610e77575b81610e5f60209383610d9d565b810103126101fa575180151581036101fa5738610e3c565b3d9150610e52565b6040513d84823e3d90fd5b6003546001600160a01b03908116911603610ea457600190565b600090565b91908201809211610eb657565b634e487b7160e01b600052601160045260246000fd5b9190610ee0610eda84610fd5565b91610fd5565b92610eea81610dd5565b159081610fc2575b50610f00575b505050600190565b60018060a01b039182841691600094838652600660205260ff604087205416610f2c575b505050610ef8565b600460205260408620548311610fba576001600160a01b0390811660009081526005602090815260408083209385168352929052206001015442109384610f80575b50505050610e07578080808080610f24565b83610fa39495508652600560205260408620911685526020526040842054610ea9565b908252600460205260408220541038808080610f6e565b505050505090565b6001600160a01b03161515905038610ef2565b6003546040516304d3863d60e21b81526001600160a01b039260209283908390600490829088165afa91821561107d5783918591600094611089575b50604051633c3ad79560e21b815290821660048201529283916024918391165afa91821561107d57600092611047575b50501690565b81813d8311611076575b61105b8183610d9d565b810103126101fa57519082821682036106bd57503880611041565b503d611051565b6040513d6000823e3d90fd5b809250839194933d83116110c2575b6110a28183610d9d565b810103126101fa57519084821682036106bd575083602484929390611011565b503d611098565b156110d057565b60a460405162461bcd60e51b815260206004820152604460248201527f6572726f72203a20746869732061646472657373206973206e6f74206120746f60448201527f6b656e20626f756e6420746f2074686520636f6d706c69616e636520636f6e746064820152631c9858dd60e21b6084820152fd5b906111529291610ecc565b15610ea457600190565b1561116357565b60405162461bcd60e51b815260206004820152601f60248201527f696e76616c696420617267756d656e74202d207a65726f2061646472657373006044820152606490fd5b6001600160a01b031680156111cb57600052600160205260ff6040600020541690565b60405162461bcd60e51b815260206004820152602260248201527f526f6c65733a206163636f756e7420697320746865207a65726f206164647265604482015261737360f01b6064820152608490fdfea264697066735822122013ec3043aeb80b57ba60c7545543835b8c19225d3e05f08e603dcf83294fd41264736f6c63430008110033",
  "linkReferences": {},
  "deployedLinkReferences": {}
}