{
  "_format": "hh-sol-artifact-1",
  "contractName": "TrustedIssuersRegistry",
  "sourceName": "contracts/registry/implementation/TrustedIssuersRegistry.sol",
  "abi": [
    {
      "anonymous": false,
      "inputs": [
        {
          "indexed": true,
          "internalType": "contract IClaimIssuer",
          "name": "trustedIssuer",
          "type": "address"
        },
        {
          "indexed": false,
          "internalType": "uint256[]",
          "name": "claimTopics",
          "type": "uint256[]"
        }
      ],
      "name": "ClaimTopicsUpdated",
      "type": "event"
    },
    {
      "anonymous": false,
      "inputs": [
        {
          "indexed": false,
          "internalType": "uint8",
          "name": "version",
          "type": "uint8"
        }
      ],
      "name": "Initialized",
      "type": "event"
    },
    {
      "anonymous": false,
      "inputs": [
        {
          "indexed": true,
          "internalType": "address",
          "name": "previousOwner",
          "type": "address"
        },
        {
          "indexed": true,
          "internalType": "address",
          "name": "newOwner",
          "type": "address"
        }
      ],
      "name": "OwnershipTransferred",
      "type": "event"
    },
    {
      "anonymous": false,
      "inputs": [
        {
          "indexed": true,
          "internalType": "contract IClaimIssuer",
          "name": "trustedIssuer",
          "type": "address"
        },
        {
          "indexed": false,
          "internalType": "uint256[]",
          "name": "claimTopics",
          "type": "uint256[]"
        }
      ],
      "name": "TrustedIssuerAdded",
      "type": "event"
    },
    {
      "anonymous": false,
      "inputs": [
        {
          "indexed": true,
          "internalType": "contract IClaimIssuer",
          "name": "trustedIssuer",
          "type": "address"
        }
      ],
      "name": "TrustedIssuerRemoved",
      "type": "event"
    },
    {
      "inputs": [
        {
          "internalType": "contract IClaimIssuer",
          "name": "_trustedIssuer",
          "type": "address"
        },
        {
          "internalType": "uint256[]",
          "name": "_claimTopics",
          "type": "uint256[]"
        }
      ],
      "name": "addTrustedIssuer",
      "outputs": [],
      "stateMutability": "nonpayable",
      "type": "function"
    },
    {
      "inputs": [
        {
          "internalType": "contract IClaimIssuer",
          "name": "_trustedIssuer",
          "type": "address"
        }
      ],
      "name": "getTrustedIssuerClaimTopics",
      "outputs": [
        {
          "internalType": "uint256[]",
          "name": "",
          "type": "uint256[]"
        }
      ],
      "stateMutability": "view",
      "type": "function"
    },
    {
      "inputs": [],
      "name": "getTrustedIssuers",
      "outputs": [
        {
          "internalType": "contract IClaimIssuer[]",
          "name": "",
          "type": "address[]"
        }
      ],
      "stateMutability": "view",
      "type": "function"
    },
    {
      "inputs": [
        {
          "internalType": "uint256",
          "name": "claimTopic",
          "type": "uint256"
        }
      ],
      "name": "getTrustedIssuersForClaimTopic",
      "outputs": [
        {
          "internalType": "contract IClaimIssuer[]",
          "name": "",
          "type": "address[]"
        }
      ],
      "stateMutability": "view",
      "type": "function"
    },
    {
      "inputs": [
        {
          "internalType": "address",
          "name": "_issuer",
          "type": "address"
        },
        {
          "internalType": "uint256",
          "name": "_claimTopic",
          "type": "uint256"
        }
      ],
      "name": "hasClaimTopic",
      "outputs": [
        {
          "internalType": "bool",
          "name": "",
          "type": "bool"
        }
      ],
      "stateMutability": "view",
      "type": "function"
    },
    {
      "inputs": [],
      "name": "init",
      "outputs": [],
      "stateMutability": "nonpayable",
      "type": "function"
    },
    {
      "inputs": [
        {
          "internalType": "address",
          "name": "_issuer",
          "type": "address"
        }
      ],
      "name": "isTrustedIssuer",
      "outputs": [
        {
          "internalType": "bool",
          "name": "",
          "type": "bool"
        }
      ],
      "stateMutability": "view",
      "type": "function"
    },
    {
      "inputs": [],
      "name": "owner",
      "outputs": [
        {
          "internalType": "address",
          "name": "",
          "type": "address"
        }
      ],
      "stateMutability": "view",
      "type": "function"
    },
    {
      "inputs": [
        {
          "internalType": "contract IClaimIssuer",
          "name": "_trustedIssuer",
          "type": "address"
        }
      ],
      "name": "removeTrustedIssuer",
      "outputs": [],
      "stateMutability": "nonpayable",
      "type": "function"
    },
    {
      "inputs": [],
      "name": "renounceOwnership",
      "outputs": [],
      "stateMutability": "nonpayable",
      "type": "function"
    },
    {
      "inputs": [
        {
          "internalType": "address",
          "name": "newOwner",
          "type": "address"
        }
      ],
      "name": "transferOwnership",
      "outputs": [],
      "stateMutability": "nonpayable",
      "type": "function"
    },
    {
      "inputs": [
        {
          "internalType": "contract IClaimIssuer",
          "name": "_trustedIssuer",
          "type": "address"
        },
        {
          "internalType": "uint256[]",
          "name": "_claimTopics",
          "type": "uint256[]"
        }
      ],
      "name": "updateIssuerClaimTopics",
      "outputs": [],
      "stateMutability": "nonpayable",
      "type": "function"
    }
  ],
  "bytecode": "0x60808060405234610016576111e2908161001c8239f35b600080fdfe6040608081526004908136101561001557600080fd5b600091823560e01c806304bc7e8414610a4157806334a8998714610a1857806352c111d1146109a7578063715018a61461094a5780638da5cb5b146109215780639f63ea98146106d8578063b93d28eb14610434578063c28fb27814610331578063d9dd24c51461029d578063e1c7392a1461016c578063ef2ed1a4146101395763f2fde38b146100a557600080fd5b34610135576020366003190112610135576100be610c8f565b916100c7610d4e565b6001600160a01b038316156100e357836100e084610da6565b80f35b906020608492519162461bcd60e51b8352820152602660248201527f4f776e61626c653a206e6577206f776e657220697320746865207a65726f206160448201526564647265737360d01b6064820152fd5b8280fd5b5050346101685760203660031901126101685760209061015f61015a610c8f565b6110ce565b90519015158152f35b5080fd5b5034610135578260031936011261013557825460ff8160081c161591828093610290575b8015610279575b1561021f575060ff19811660011784558161020e575b506101c760ff845460081c166101c281610def565b610def565b6101d033610da6565b6101d8575080f35b60207f7f26b83ff96e1f2b6a682f133852f6798a09c465da95921460cefb38474024989161ff001984541684555160018152a180f35b61ffff1916610101178355386101ad565b608490602085519162461bcd60e51b8352820152602e60248201527f496e697469616c697a61626c653a20636f6e747261637420697320616c72656160448201526d191e481a5b9a5d1a585b1a5e995960921b6064820152fd5b50303b1580156101975750600160ff831614610197565b50600160ff831610610190565b82843461032e578060031936011261032e578151918291606554808552602080950194606583527f8ff97419363ffd7000167f130ef7168fbea05faf9251824ca5043f113cc6a7c792905b82821061030e5761030a8686610300828b03836110ac565b5191829182610d0a565b0390f35b83546001600160a01b0316875295860195600193840193909101906102e8565b80fd5b50823461032e5760209182600319360112610168576001600160a01b03610356610c8f565b16908183526066845284832054156103f15750819392935260668352818120908251808584549182815201908194845286842090845b8181106103dd57505050816103a29103826110ac565b83519485948186019282875251809352850193925b8281106103c657505050500390f35b8351855286955093810193928101926001016103b7565b82548452928801926001928301920161038c565b845162461bcd60e51b8152908101849052601c60248201527f747275737465642049737375657220646f65736e2774206578697374000000006044820152606490fd5b50919034610168576020918260031936011261032e57610452610c8f565b9161045b610d4e565b6001600160a01b0392831691610472831515610e4f565b828152606693848652610489838320541515611036565b606595865496835b88811061061b575b505090918093949596505b858452868252848420548110156105b7576104c181868620610f42565b9054600391821b1c80865260679182855287872054875b8181106104f3575b50505050506104ee90610fd8565b6104a4565b8389528487528a88610507838d8d20610f42565b905490861b1c16146105215761051c90610fd8565b6104d8565b919083895284875289892060001982019182116105a3578861058a936105516104ee999897969461056694610f42565b9054911b1c1691848b528589528b8b20610f42565b90919082549060031b9160018060a01b039283811b93849216901b16911916179055565b86528352610599868620611079565b90388080806104e0565b50634e487b7160e01b895260118d52602489fd5b838683878a8385528252832090815491848155826105fa575b5050507f2214ded40113cc3fb63fc206cafee88270b0a903dac7245d54efdde30ebb03218280a280f35b84528320908101905b81811061061057806105d0565b838155600101610603565b838761062683610ef5565b929054600393841b1c1614610644575061063f90610fd8565b610491565b600099929394959697989919928381019081116106c55786610679939261066d61056693610ef5565b9054911b1c1691610ef5565b815480156106b25701906106a461068f83610ef5565b81549060018060a01b039060031b1b19169055565b559085949392913880610499565b634e487b7160e01b865260318a52602486fd5b634e487b7160e01b885260118c52602488fd5b509034610135576106e836610caa565b929091936106f4610d4e565b6001600160a01b0385169461070a861515610e4f565b85875260209160668352838820546108de57851561088f5761072f600f871115610e9b565b60655490603282101561083b57600160401b8210156108285761075d83610566600194858101606555610ef5565b878952606684528489209067ffffffffffffffff881161081557506107828782610f95565b885282882085895b8881106108045750505050865b8581106107d857505050906107d27ffedc33fd34859594822c0ff6f3f4f9fc279cc6d5cae53068f706a088e45008729392519283928361100d565b0390a280f35b806107e76107ff928888610ffd565b358952606784526107fa83868b20610f5a565b610fd8565b610797565b81358382015590850190830161078a565b634e487b7160e01b8a5260419052602489fd5b634e487b7160e01b895260419052602488fd5b845162461bcd60e51b8152908101849052602860248201527f63616e6e6f742068617665206d6f7265207468616e2035302074727573746564604482015267206973737565727360c01b6064820152608490fd5b835162461bcd60e51b81529081018390526024808201527f7472757374656420636c61696d20746f706963732063616e6e6f7420626520656044820152636d70747960e01b6064820152608490fd5b835162461bcd60e51b8152908101839052601d60248201527f747275737465642049737375657220616c7265616479206578697374730000006044820152606490fd5b50503461016857816003193601126101685760335490516001600160a01b039091168152602090f35b833461032e578060031936011261032e57610963610d4e565b603380546001600160a01b0319811690915581906001600160a01b03167f8be0079c531659141344cd1fd0a4f28419497f9722a3daafe3b4186f6b6457e08280a380f35b5090346101355760209182600319360112610a1457358352606782528083209281518093808654928381520195835280832092905b8282106109f45761030a8686610300828b03836110ac565b83546001600160a01b0316875295860195600193840193909101906109dc565b8380fd5b50503461016857806003193601126101685760209061015f610a38610c8f565b602435906110f4565b5091903461016857610a5236610caa565b9291610a5f949194610d4e565b6001600160a01b0381811694909190610a79861515610e4f565b858452606696602092888452610a93878720541515611036565b610aa0600f841115610e9b565b8215610c4c57855b88875289855287872054811015610bab57610ac581898920610f42565b9054600391821b1c8089526067918288528a8a8d8b8383205493835b8d868610610b02575b50505050505050505050610afd90610fd8565b610aa8565b91818a610b14948b8995525220610f42565b905490861b1c1614610b3257610b2990610fd8565b8d8b8e8e610ae1565b9190838c52848a528c8c206000198201918211610b96578594938e8e610afd99988f8f9697610b67610b789961056698610f42565b9054911b1c16958883525220610f42565b89528652610b87898920611079565b90388080808d8b8e8e8d610aea565b508f8c6011602492634e487b7160e01b835252fd5b50919593509396889087895283528388209067ffffffffffffffff87116108285750610bd78682610f95565b875281872084885b878110610c3a57505050865b858110610c2657505050906107d27fec753cfc52044f61676f18a11e500093a9f2b1cd5e4942bc476f2b0438159bcf9392519283928361100d565b806107e7610c35928888610ffd565b610beb565b81358382015590840190600101610bdf565b865162461bcd60e51b8152808b01859052601c60248201527f636c61696d20746f706963732063616e6e6f7420626520656d707479000000006044820152606490fd5b600435906001600160a01b0382168203610ca557565b600080fd5b6040600319820112610ca5576004356001600160a01b0381168103610ca5579160243567ffffffffffffffff92838211610ca55780602383011215610ca5578160040135938411610ca55760248460051b83010111610ca5576024019190565b6020908160408183019282815285518094520193019160005b828110610d31575050505090565b83516001600160a01b031685529381019392810192600101610d23565b6033546001600160a01b03163303610d6257565b606460405162461bcd60e51b815260206004820152602060248201527f4f776e61626c653a2063616c6c6572206973206e6f7420746865206f776e65726044820152fd5b603380546001600160a01b039283166001600160a01b0319821681179092559091167f8be0079c531659141344cd1fd0a4f28419497f9722a3daafe3b4186f6b6457e0600080a3565b15610df657565b60405162461bcd60e51b815260206004820152602b60248201527f496e697469616c697a61626c653a20636f6e7472616374206973206e6f74206960448201526a6e697469616c697a696e6760a81b6064820152608490fd5b15610e5657565b60405162461bcd60e51b815260206004820152601f60248201527f696e76616c696420617267756d656e74202d207a65726f2061646472657373006044820152606490fd5b15610ea257565b60405162461bcd60e51b815260206004820152602560248201527f63616e6e6f742068617665206d6f7265207468616e20313520636c61696d20746044820152646f7069637360d81b6064820152608490fd5b606554811015610f2c5760656000527f8ff97419363ffd7000167f130ef7168fbea05faf9251824ca5043f113cc6a7c70190600090565b634e487b7160e01b600052603260045260246000fd5b8054821015610f2c5760005260206000200190600090565b90815491600160401b831015610f7f5782610566916001610f7d95018155610f42565b565b634e487b7160e01b600052604160045260246000fd5b600160401b8211610f7f57805491808255828110610fb257505050565b60009182526020822092830192015b828110610fcd57505050565b818155600101610fc1565b6000198114610fe75760010190565b634e487b7160e01b600052601160045260246000fd5b9190811015610f2c5760051b0190565b602080825281018390526001600160fb1b038311610ca55760409260051b809284830137010190565b1561103d57565b60405162461bcd60e51b81526020600482015260146024820152732727aa1030903a393ab9ba32b21034b9b9bab2b960611b6044820152606490fd5b8054801561109657600019019061109361068f8383610f42565b55565b634e487b7160e01b600052603160045260246000fd5b90601f8019910116810190811067ffffffffffffffff821117610f7f57604052565b6001600160a01b03166000908152606660205260409020546110ef57600090565b600190565b6001600160a01b0316600090815260666020908152604080832080549151828152908452828420939491939192918180840186885b8682821061119657505050611140925003826110ac565b845b84811061115157505050505090565b81518110156111825783838260051b84010151146111775761117290610fd8565b611142565b505050505050600190565b634e487b7160e01b86526032600452602486fd5b855484526001958601958795509301920161112956fea264697066735822122018e1cf79aaf6e44a14e78283258821de3454b2e0a0a2c55f13b7d2f2a64a96bf64736f6c63430008110033",
  "linkReferences": {},
  "deployedLinkReferences": {}
}