{
  "_format": "hh-sol-artifact-1",
  "contractName": "Governance",
  "sourceName": "contracts/Governance.sol",
  "abi": [
    {
      "inputs": [
        {
          "internalType": "string",
          "name": "_name",
          "type": "string"
        },
        {
          "internalType": "string",
          "name": "_symbol",
          "type": "string"
        },
        {
          "internalType": "address",
          "name": "_identityRegistry",
          "type": "address"
        },
        {
          "internalType": "address",
          "name": "_digitizedContractAddress",
          "type": "address"
        },
        {
          "internalType": "uint256",
          "name": "_tokenUnitPrice",
          "type": "uint256"
        }
      ],
      "stateMutability": "nonpayable",
      "type": "constructor"
    },
    {
      "anonymous": false,
      "inputs": [
        {
          "indexed": true,
          "internalType": "address",
          "name": "owner",
          "type": "address"
        },
        {
          "indexed": true,
          "internalType": "address",
          "name": "spender",
          "type": "address"
        },
        {
          "indexed": false,
          "internalType": "uint256",
          "name": "value",
          "type": "uint256"
        }
      ],
      "name": "Approval",
      "type": "event"
    },
    {
      "anonymous": false,
      "inputs": [
        {
          "indexed": true,
          "internalType": "address",
          "name": "owner",
          "type": "address"
        },
        {
          "indexed": false,
          "internalType": "uint256",
          "name": "amount",
          "type": "uint256"
        }
      ],
      "name": "EtherWithdrawn",
      "type": "event"
    },
    {
      "anonymous": false,
      "inputs": [
        {
          "indexed": true,
          "internalType": "address",
          "name": "_identityRegistry",
          "type": "address"
        }
      ],
      "name": "IdentityRegistryAdded",
      "type": "event"
    },
    {
      "anonymous": false,
      "inputs": [
        {
          "indexed": true,
          "internalType": "bytes32",
          "name": "role",
          "type": "bytes32"
        },
        {
          "indexed": true,
          "internalType": "bytes32",
          "name": "previousAdminRole",
          "type": "bytes32"
        },
        {
          "indexed": true,
          "internalType": "bytes32",
          "name": "newAdminRole",
          "type": "bytes32"
        }
      ],
      "name": "RoleAdminChanged",
      "type": "event"
    },
    {
      "anonymous": false,
      "inputs": [
        {
          "indexed": true,
          "internalType": "bytes32",
          "name": "role",
          "type": "bytes32"
        },
        {
          "indexed": true,
          "internalType": "address",
          "name": "account",
          "type": "address"
        },
        {
          "indexed": true,
          "internalType": "address",
          "name": "sender",
          "type": "address"
        }
      ],
      "name": "RoleGranted",
      "type": "event"
    },
    {
      "anonymous": false,
      "inputs": [
        {
          "indexed": true,
          "internalType": "bytes32",
          "name": "role",
          "type": "bytes32"
        },
        {
          "indexed": true,
          "internalType": "address",
          "name": "account",
          "type": "address"
        },
        {
          "indexed": true,
          "internalType": "address",
          "name": "sender",
          "type": "address"
        }
      ],
      "name": "RoleRevoked",
      "type": "event"
    },
    {
      "anonymous": false,
      "inputs": [
        {
          "indexed": false,
          "internalType": "uint256",
          "name": "newPrice",
          "type": "uint256"
        }
      ],
      "name": "TokenPriceUpdated",
      "type": "event"
    },
    {
      "anonymous": false,
      "inputs": [
        {
          "indexed": true,
          "internalType": "address",
          "name": "buyer",
          "type": "address"
        },
        {
          "indexed": false,
          "internalType": "uint256",
          "name": "amount",
          "type": "uint256"
        }
      ],
      "name": "TokensMinted",
      "type": "event"
    },
    {
      "anonymous": false,
      "inputs": [
        {
          "indexed": true,
          "internalType": "address",
          "name": "from",
          "type": "address"
        },
        {
          "indexed": true,
          "internalType": "address",
          "name": "to",
          "type": "address"
        },
        {
          "indexed": false,
          "internalType": "uint256",
          "name": "value",
          "type": "uint256"
        }
      ],
      "name": "Transfer",
      "type": "event"
    },
    {
      "inputs": [],
      "name": "CONTRACT_NAME",
      "outputs": [
        {
          "internalType": "string",
          "name": "",
          "type": "string"
        }
      ],
      "stateMutability": "view",
      "type": "function"
    },
    {
      "inputs": [],
      "name": "DEFAULT_ADMIN_ROLE",
      "outputs": [
        {
          "internalType": "bytes32",
          "name": "",
          "type": "bytes32"
        }
      ],
      "stateMutability": "view",
      "type": "function"
    },
    {
      "inputs": [],
      "name": "OWNER_ROLE",
      "outputs": [
        {
          "internalType": "bytes32",
          "name": "",
          "type": "bytes32"
        }
      ],
      "stateMutability": "view",
      "type": "function"
    },
    {
      "inputs": [],
      "name": "TOKEN_PRICE",
      "outputs": [
        {
          "internalType": "uint256",
          "name": "",
          "type": "uint256"
        }
      ],
      "stateMutability": "view",
      "type": "function"
    },
    {
      "inputs": [
        {
          "internalType": "address",
          "name": "",
          "type": "address"
        }
      ],
      "name": "_tokenHolders",
      "outputs": [
        {
          "internalType": "uint256",
          "name": "",
          "type": "uint256"
        }
      ],
      "stateMutability": "view",
      "type": "function"
    },
    {
      "inputs": [
        {
          "internalType": "address",
          "name": "owner",
          "type": "address"
        },
        {
          "internalType": "address",
          "name": "spender",
          "type": "address"
        }
      ],
      "name": "allowance",
      "outputs": [
        {
          "internalType": "uint256",
          "name": "",
          "type": "uint256"
        }
      ],
      "stateMutability": "view",
      "type": "function"
    },
    {
      "inputs": [
        {
          "internalType": "address",
          "name": "spender",
          "type": "address"
        },
        {
          "internalType": "uint256",
          "name": "amount",
          "type": "uint256"
        }
      ],
      "name": "approve",
      "outputs": [
        {
          "internalType": "bool",
          "name": "",
          "type": "bool"
        }
      ],
      "stateMutability": "nonpayable",
      "type": "function"
    },
    {
      "inputs": [
        {
          "internalType": "address",
          "name": "account",
          "type": "address"
        }
      ],
      "name": "balanceOf",
      "outputs": [
        {
          "internalType": "uint256",
          "name": "",
          "type": "uint256"
        }
      ],
      "stateMutability": "view",
      "type": "function"
    },
    {
      "inputs": [],
      "name": "decimals",
      "outputs": [
        {
          "internalType": "uint8",
          "name": "",
          "type": "uint8"
        }
      ],
      "stateMutability": "view",
      "type": "function"
    },
    {
      "inputs": [
        {
          "internalType": "address",
          "name": "spender",
          "type": "address"
        },
        {
          "internalType": "uint256",
          "name": "subtractedValue",
          "type": "uint256"
        }
      ],
      "name": "decreaseAllowance",
      "outputs": [
        {
          "internalType": "bool",
          "name": "",
          "type": "bool"
        }
      ],
      "stateMutability": "nonpayable",
      "type": "function"
    },
    {
      "inputs": [],
      "name": "digitizedContractAddress",
      "outputs": [
        {
          "internalType": "address",
          "name": "",
          "type": "address"
        }
      ],
      "stateMutability": "view",
      "type": "function"
    },
    {
      "inputs": [
        {
          "internalType": "bytes32",
          "name": "role",
          "type": "bytes32"
        }
      ],
      "name": "getRoleAdmin",
      "outputs": [
        {
          "internalType": "bytes32",
          "name": "",
          "type": "bytes32"
        }
      ],
      "stateMutability": "view",
      "type": "function"
    },
    {
      "inputs": [
        {
          "internalType": "bytes32",
          "name": "role",
          "type": "bytes32"
        },
        {
          "internalType": "address",
          "name": "account",
          "type": "address"
        }
      ],
      "name": "grantRole",
      "outputs": [],
      "stateMutability": "nonpayable",
      "type": "function"
    },
    {
      "inputs": [
        {
          "internalType": "bytes32",
          "name": "role",
          "type": "bytes32"
        },
        {
          "internalType": "address",
          "name": "account",
          "type": "address"
        }
      ],
      "name": "hasRole",
      "outputs": [
        {
          "internalType": "bool",
          "name": "",
          "type": "bool"
        }
      ],
      "stateMutability": "view",
      "type": "function"
    },
    {
      "inputs": [
        {
          "internalType": "address",
          "name": "spender",
          "type": "address"
        },
        {
          "internalType": "uint256",
          "name": "addedValue",
          "type": "uint256"
        }
      ],
      "name": "increaseAllowance",
      "outputs": [
        {
          "internalType": "bool",
          "name": "",
          "type": "bool"
        }
      ],
      "stateMutability": "nonpayable",
      "type": "function"
    },
    {
      "inputs": [
        {
          "internalType": "address",
          "name": "_caller",
          "type": "address"
        },
        {
          "internalType": "uint256",
          "name": "_amountToMint",
          "type": "uint256"
        }
      ],
      "name": "mint",
      "outputs": [
        {
          "internalType": "bool",
          "name": "",
          "type": "bool"
        }
      ],
      "stateMutability": "nonpayable",
      "type": "function"
    },
    {
      "inputs": [],
      "name": "name",
      "outputs": [
        {
          "internalType": "string",
          "name": "",
          "type": "string"
        }
      ],
      "stateMutability": "view",
      "type": "function"
    },
    {
      "inputs": [
        {
          "internalType": "bytes32",
          "name": "role",
          "type": "bytes32"
        },
        {
          "internalType": "address",
          "name": "account",
          "type": "address"
        }
      ],
      "name": "renounceRole",
      "outputs": [],
      "stateMutability": "nonpayable",
      "type": "function"
    },
    {
      "inputs": [
        {
          "internalType": "bytes32",
          "name": "role",
          "type": "bytes32"
        },
        {
          "internalType": "address",
          "name": "account",
          "type": "address"
        }
      ],
      "name": "revokeRole",
      "outputs": [],
      "stateMutability": "nonpayable",
      "type": "function"
    },
    {
      "inputs": [
        {
          "internalType": "uint256",
          "name": "_newPrice",
          "type": "uint256"
        }
      ],
      "name": "setTokenPrice",
      "outputs": [],
      "stateMutability": "nonpayable",
      "type": "function"
    },
    {
      "inputs": [
        {
          "internalType": "bytes4",
          "name": "interfaceId",
          "type": "bytes4"
        }
      ],
      "name": "supportsInterface",
      "outputs": [
        {
          "internalType": "bool",
          "name": "",
          "type": "bool"
        }
      ],
      "stateMutability": "view",
      "type": "function"
    },
    {
      "inputs": [],
      "name": "symbol",
      "outputs": [
        {
          "internalType": "string",
          "name": "",
          "type": "string"
        }
      ],
      "stateMutability": "view",
      "type": "function"
    },
    {
      "inputs": [],
      "name": "totalSupply",
      "outputs": [
        {
          "internalType": "uint256",
          "name": "",
          "type": "uint256"
        }
      ],
      "stateMutability": "view",
      "type": "function"
    },
    {
      "inputs": [
        {
          "internalType": "address",
          "name": "_to",
          "type": "address"
        },
        {
          "internalType": "uint256",
          "name": "_amount",
          "type": "uint256"
        }
      ],
      "name": "transfer",
      "outputs": [
        {
          "internalType": "bool",
          "name": "",
          "type": "bool"
        }
      ],
      "stateMutability": "nonpayable",
      "type": "function"
    },
    {
      "inputs": [
        {
          "internalType": "address",
          "name": "_from",
          "type": "address"
        },
        {
          "internalType": "address",
          "name": "_to",
          "type": "address"
        },
        {
          "internalType": "uint256",
          "name": "_amount",
          "type": "uint256"
        }
      ],
      "name": "transferFrom",
      "outputs": [
        {
          "internalType": "bool",
          "name": "",
          "type": "bool"
        }
      ],
      "stateMutability": "nonpayable",
      "type": "function"
    },
    {
      "inputs": [],
      "name": "withdraw",
      "outputs": [],
      "stateMutability": "nonpayable",
      "type": "function"
    },
    {
      "stateMutability": "payable",
      "type": "receive"
    }
  ],
  "bytecode": "0x60406080815234620004d95762001bb790813803806200001f81620004de565b93843982019160a081840312620004d95780516001600160401b0390818111620004d957846200005191840162000504565b936020908184015190838211620004d9576200006f91850162000504565b936200007d81850162000576565b60806200008d6060870162000576565b950151938751818111620003d05760039081549060019a8b83811c93168015620004ce575b88841014620004b8578190601f9384811162000462575b508890848311600114620003f257600092620003e6575b505060001982851b1c1916908b1b1782555b8851928311620003d05760049889548b81811c91168015620003c5575b88821014620003b057908183869594931162000356575b5087918411600114620002eb57600093620002df575b5050828a1b92600019911b1c19161786555b6001600160a01b0390811694620001678615156200058b565b1694620001768615156200058b565b83156200029e575060057fb19546dff01e856fb3f010c267a7b1c60363cf8a4664e21cc89c26224620214e92836000528181528260002033600052815260ff8360002054161562000251575b83600052528186826000200154968260002001555194817fbd79b86ffe0ab8e8776151514217cd7cacd52c909f66475c3af44e129f0b00ff600080a4600780546001600160a01b03199081168417909155917fd2be862d755bca7e0d39772b2cab3a5578da9c285f69199f4c063c2294a7f36c600080a260095560065416176006556115de9081620005d98239f35b8360005281815282600020336000528152826000208860ff198254161790553333857f2f8788117e7eff1d82e926ec794901d17c78024a50270940304540a733656f0d600080a4620001c2565b82606492519162461bcd60e51b8352820152601a60248201527f546f6b656e2050726963652063616e6e6f74206265207a65726f0000000000006044820152fd5b0151915038806200013c565b91908b9450601f198416928b600052886000209360005b8a8282106200033f575050851162000324575b50505050811b0186556200014e565b01519060f884600019921b161c191690553880808062000315565b8385015187558f9890960195938401930162000302565b90919293508a600052876000208380870160051c8201928a8810620003a6575b918e918897969594930160051c01915b8281106200039657505062000126565b600081558796508e910162000386565b9250819262000376565b60228b634e487b7160e01b6000525260246000fd5b90607f16906200010f565b634e487b7160e01b600052604160045260246000fd5b015190503880620000e0565b908d9350601f19831691866000528a6000209260005b8c82821062000442575050841162000429575b505050811b018255620000f2565b015160001983871b60f8161c191690553880806200041b565b91929395968291958786015181550195019301908f959493929162000408565b90915084600052886000208480850160051c8201928b8610620004ae575b918f91869594930160051c01915b8281106200049e575050620000c9565b600081558594508f91016200048e565b9250819262000480565b634e487b7160e01b600052602260045260246000fd5b92607f1692620000b2565b600080fd5b6040519190601f01601f191682016001600160401b03811183821017620003d057604052565b919080601f84011215620004d95782516001600160401b038111620003d0576020906200053a601f8201601f19168301620004de565b92818452828287010111620004d95760005b8181106200056257508260009394955001015290565b85810183015184820184015282016200054c565b51906001600160a01b0382168203620004d957565b156200059357565b60405162461bcd60e51b815260206004820152601f60248201527f696e76616c696420617267756d656e74202d207a65726f2061646472657373006044820152606490fdfe6080604081815260049182361015610022575b505050361561002057600080fd5b005b600092833560e01c91826301ffc9a714610c1a5750816306fdde0314610b25578163095ea7b314610afb57816318160ddd14610adc57816323b872dd14610aaa578163248a9ca314610a7f5781632f2ff15d146109d2578163313ce567146109b657816336568abe1461092457816339509351146108d45781633ccfd60b146107fa57816340c10f191461064e578163614d08f8146105e65781636a61e5fc1461051557816370a08231146104de5781638c8d1fd9146104a657816391d148541461045f57816395d89b411461035c578163a217fddf14610341578163a457c2d714610292578163a9059cbb14610260578163bfd29b8b14610237578163d2d8cb6714610218578163d547741f146101d557508063dd62ed3e1461018d5763e58378bb146101505780610012565b34610189578160031936011261018957602090517fb19546dff01e856fb3f010c267a7b1c60363cf8a4664e21cc89c26224620214e8152f35b5080fd5b5034610189578060031936011261018957806020926101aa610cbc565b6101b2610cd7565b6001600160a01b0391821683526001865283832091168252845220549051908152f35b91905034610214578060031936011261021457610211913561020c60016101fa610cd7565b93838752600560205286200154610d25565b611054565b80f35b8280fd5b5050346101895781600319360112610189576020906009549051908152f35b50503461018957816003193601126101895760065490516001600160a01b039091168152602090f35b505034610189578060031936011261018957602090610289610280610cbc565b6024359061127d565b90519015158152f35b9050823461033e578260031936011261033e576102ad610cbc565b918360243592338152600160205281812060018060a01b03861682526020522054908282106102ed576020856102e685850387336110ed565b5160018152f35b608490602086519162461bcd60e51b8352820152602560248201527f45524332303a2064656372656173656420616c6c6f77616e63652062656c6f77604482015264207a65726f60d81b6064820152fd5b80fd5b50503461018957816003193601126101895751908152602090f35b838334610189578160031936011261018957805191809380549160019083821c92828516948515610455575b60209586861081146104425785895290811561041e57506001146103c6575b6103c287876103b8828c0383610ced565b5191829182610c90565b0390f35b81529295507f8a35acfbc15ff81a39ae7d344fd709f28e8600b4aa8c65c6b64bfe7fe36bd19b5b82841061040b57505050826103c2946103b8928201019486806103a7565b80548685018801529286019281016103ed565b60ff19168887015250505050151560051b83010192506103b8826103c286806103a7565b634e487b7160e01b845260228352602484fd5b93607f1693610388565b9050346102145781600319360112610214578160209360ff92610480610cd7565b90358252600586528282206001600160a01b039091168252855220549151911615158152f35b5050346101895760203660031901126101895760209181906001600160a01b036104ce610cbc565b1681526008845220549051908152f35b5050346101895760203660031901126101895760209181906001600160a01b03610506610cbc565b16815280845220549051908152f35b91905034610214576020366003190112610214578135917fb19546dff01e856fb3f010c267a7b1c60363cf8a4664e21cc89c26224620214e8452600560205281842033855260205261056c60ff838620541661122e565b82156105a45750816020917f6b361c807733cc94a3b7bda39c1c94dcc0511e91aa47b0f7f918068e939768909360095551908152a180f35b6020606492519162461bcd60e51b8352820152601a60248201527f546f6b656e2050726963652063616e6e6f74206265207a65726f0000000000006044820152fd5b8383346101895781600319360112610189578051918183019083821067ffffffffffffffff83111761063b57506103c293508152600a825269476f7665726e616e636560b01b60208301525191829182610c90565b634e487b7160e01b815260418552602490fd5b82843461033e578160031936011261033e57610668610cbc565b6001600160a01b03908116916024359183156107be5760075416948451809663b9209e3360e01b825285838301528160246020998a935afa9081156107b4578391610787575b501561074457507f3f2c9d57c068687834f0de942a9babb9e5acab57d516d3480a3c16ee165a427391838281889452600884528681206106ef8482546110ca565b90556106fd836002546110ca565b6002558181528084528681208381540190557fddf252ad1be2c89b69c2b068fc378daa952ba7f163c4a11628f55a4df523b3ef848851858152a38451908152a25160018152f35b845162461bcd60e51b8152908101869052601860248201527f4964656e74697479206973206e6f7420766572696669656400000000000000006044820152606490fd5b6107a79150873d89116107ad575b61079f8183610ced565b810190611216565b876106ae565b503d610795565b86513d85823e3d90fd5b845162461bcd60e51b81526020818801526016602482015275496e76616c69642073656e646572206164647265737360501b6044820152606490fd5b919050346102145782600319360112610214577fb19546dff01e856fb3f010c267a7b1c60363cf8a4664e21cc89c26224620214e8352600560205280832033845260205261084d60ff828520541661122e565b4791821561089b575082808080853382f11561089057519081527f06097061aeda806b5e9cb4133d9899f332ff0913956567fc0f7ea15e3d19947c60203392a280f35b51913d9150823e3d90fd5b6020606492519162461bcd60e51b835282015260146024820152734e6f20457468657220746f20776974686472617760601b6044820152fd5b5050346101895780600319360112610189576102e660209261091d6108f7610cbc565b338352600186528483206001600160a01b038216845286529184902054602435906110ca565b90336110ed565b8391503461018957826003193601126101895761093f610cd7565b90336001600160a01b0383160361095b57906102119135611054565b608490602085519162461bcd60e51b8352820152602f60248201527f416363657373436f6e74726f6c3a2063616e206f6e6c792072656e6f756e636560448201526e103937b632b9903337b91039b2b63360891b6064820152fd5b5050346101895781600319360112610189576020905160128152f35b90503461021457816003193601126102145735906109ee610cd7565b908284526005602052610a0660018286200154610d25565b828452600560209081528185206001600160a01b039093168086529290528084205460ff1615610a34578380f35b82845260056020528084208285526020528320600160ff1982541617905533917f2f8788117e7eff1d82e926ec794901d17c78024a50270940304540a733656f0d8480a43880808380f35b9050346102145760203660031901126102145781602093600192358152600585522001549051908152f35b50503461018957606036600319011261018957602090610289610acb610cbc565b610ad3610cd7565b604435916114d9565b5050346101895781600319360112610189576020906002549051908152f35b5050346101895780600319360112610189576020906102e6610b1b610cbc565b60243590336110ed565b91905034610214578260031936011261021457805191836003549060019082821c928281168015610c10575b6020958686108214610bfd5750848852908115610bdb5750600114610b82575b6103c286866103b8828b0383610ced565b929550600383527fc2575a0e9e593c00f959f8c92f12db2869c3395a3b0502d05e2516446f71f85b5b828410610bc857505050826103c2946103b8928201019438610b71565b8054868501880152928601928101610bab565b60ff191687860152505050151560051b83010192506103b8826103c238610b71565b634e487b7160e01b845260229052602483fd5b93607f1693610b51565b849134610214576020366003190112610214573563ffffffff60e01b81168091036102145760209250637965db0b60e01b8114908115610c5c575b5015158152f35b6301ffc9a760e01b14905083610c55565b60005b838110610c805750506000910152565b8181015183820152602001610c70565b60409160208252610cb08151809281602086015260208686019101610c6d565b601f01601f1916010190565b600435906001600160a01b0382168203610cd257565b600080fd5b602435906001600160a01b0382168203610cd257565b90601f8019910116810190811067ffffffffffffffff821117610d0f57604052565b634e487b7160e01b600052604160045260246000fd5b600081815260209060058252604092838220338352835260ff848320541615610d4e5750505050565b835167ffffffffffffffff9190336060820184811183821017611040578752602a8252858201928736853782511561102c5760308453825191600192831015611018576078602185015360295b838111610fae5750610f6c5790875194608086019086821090821117610f5857885260428552868501956060368837855115610f4457603087538551821015610f445790607860218701536041915b818311610ed657505050610e9457938593610e7a93610e6b604894610e427f416363657373436f6e74726f6c3a206163636f756e742000000000000000000099610e909b519a8b978801525180926037880190610c6d565b8401917001034b99036b4b9b9b4b733903937b6329607d1b603784015251809386840190610c6d565b01036028810185520183610ced565b5162461bcd60e51b815291829160048301610c90565b0390fd5b60648587519062461bcd60e51b825280600483015260248201527f537472696e67733a20686578206c656e67746820696e73756666696369656e746044820152fd5b909192600f81166010811015610f30576f181899199a1a9b1b9c1cb0b131b232b360811b901a610f0685896111ef565b5360041c928015610f1c57600019019190610dea565b634e487b7160e01b82526011600452602482fd5b634e487b7160e01b83526032600452602483fd5b634e487b7160e01b81526032600452602490fd5b634e487b7160e01b87526041600452602487fd5b60648789519062461bcd60e51b825280600483015260248201527f537472696e67733a20686578206c656e67746820696e73756666696369656e746044820152fd5b90600f81166010811015611004576f181899199a1a9b1b9c1cb0b131b232b360811b901a610fdc83876111ef565b5360041c908015610ff05760001901610d9b565b634e487b7160e01b88526011600452602488fd5b634e487b7160e01b89526032600452602489fd5b634e487b7160e01b87526032600452602487fd5b634e487b7160e01b86526032600452602486fd5b634e487b7160e01b86526041600452602486fd5b906000918083526005602052604083209160018060a01b03169182845260205260ff60408420541661108557505050565b8083526005602052604083208284526020526040832060ff1981541690557ff6391f5c32d9c69d2a47ea670b442974b53935d1edc7fd64eb21e047a839171b339380a4565b919082018092116110d757565b634e487b7160e01b600052601160045260246000fd5b6001600160a01b0390811691821561119e571691821561114e5760207f8c5be1e5ebec7d5bd14f71427d1e84f3dd0314c0f7b2291e5b200ac8c7c3b925918360005260018252604060002085600052825280604060002055604051908152a3565b60405162461bcd60e51b815260206004820152602260248201527f45524332303a20617070726f766520746f20746865207a65726f206164647265604482015261737360f01b6064820152608490fd5b60405162461bcd60e51b8152602060048201526024808201527f45524332303a20617070726f76652066726f6d20746865207a65726f206164646044820152637265737360e01b6064820152608490fd5b908151811015611200570160200190565b634e487b7160e01b600052603260045260246000fd5b90816020910312610cd257518015158103610cd25790565b1561123557565b60405162461bcd60e51b815260206004820152601360248201527221b0b63632b91034b9903737ba1037bbb732b960691b6044820152606490fd5b919082039182116110d757565b60075460405163b9209e3360e01b81526001600160a01b038084166004830181905293926000929160209183916024918391165afa908115611360578291611342575b506113025760405162461bcd60e51b81526020600482015260156024820152745472616e73666572206e6f7420706f737369626c6560581b6044820152606490fd5b61133b92611313856040943361136b565b3382526008602052828220611329868254611270565b905581526008602052209182546110ca565b9055600190565b61135a915060203d81116107ad5761079f8183610ced565b386112c0565b6040513d84823e3d90fd5b6001600160a01b039081169182156114865716918215611435576000828152806020526040812054918083106113e157604082827fddf252ad1be2c89b69c2b068fc378daa952ba7f163c4a11628f55a4df523b3ef958760209652828652038282205586815220818154019055604051908152a3565b60405162461bcd60e51b815260206004820152602660248201527f45524332303a207472616e7366657220616d6f756e7420657863656564732062604482015265616c616e636560d01b6064820152608490fd5b60405162461bcd60e51b815260206004820152602360248201527f45524332303a207472616e7366657220746f20746865207a65726f206164647260448201526265737360e81b6064820152608490fd5b60405162461bcd60e51b815260206004820152602560248201527f45524332303a207472616e736665722066726f6d20746865207a65726f206164604482015264647265737360d81b6064820152608490fd5b90600060018060a01b0380600754169060405163b9209e3360e01b8152602081602481858916968760048301525afa90811561159d57849161157f575b506115585760405162461bcd60e51b81526020600482015260156024820152745472616e73666572206e6f7420706f737369626c6560581b6044820152606490fd5b846115698760409661133b9861136b565b1682526008602052828220611329868254611270565b611597915060203d81116107ad5761079f8183610ced565b38611516565b6040513d86823e3d90fdfea26469706673582212201860e0fe236069d59d2530fbc59a8a580d2570ddb3a59f97598a840ad566869164736f6c63430008110033",
  "linkReferences": {},
  "deployedLinkReferences": {}
}