{
  "_format": "hh-sol-artifact-1",
  "contractName": "NFT",
  "sourceName": "contracts/nft.sol",
  "abi": [
    {
      "inputs": [
        {
          "internalType": "string",
          "name": "_name",
          "type": "string"
        },
        {
          "internalType": "string",
          "name": "_symbol",
          "type": "string"
        }
      ],
      "stateMutability": "nonpayable",
      "type": "constructor"
    },
    {
      "anonymous": false,
      "inputs": [
        {
          "indexed": true,
          "internalType": "address",
          "name": "owner",
          "type": "address"
        },
        {
          "indexed": true,
          "internalType": "address",
          "name": "approved",
          "type": "address"
        },
        {
          "indexed": true,
          "internalType": "uint256",
          "name": "tokenId",
          "type": "uint256"
        }
      ],
      "name": "Approval",
      "type": "event"
    },
    {
      "anonymous": false,
      "inputs": [
        {
          "indexed": true,
          "internalType": "address",
          "name": "owner",
          "type": "address"
        },
        {
          "indexed": true,
          "internalType": "address",
          "name": "operator",
          "type": "address"
        },
        {
          "indexed": false,
          "internalType": "bool",
          "name": "approved",
          "type": "bool"
        }
      ],
      "name": "ApprovalForAll",
      "type": "event"
    },
    {
      "anonymous": false,
      "inputs": [
        {
          "indexed": false,
          "internalType": "uint256",
          "name": "_fromTokenId",
          "type": "uint256"
        },
        {
          "indexed": false,
          "internalType": "uint256",
          "name": "_toTokenId",
          "type": "uint256"
        }
      ],
      "name": "BatchMetadataUpdate",
      "type": "event"
    },
    {
      "anonymous": false,
      "inputs": [
        {
          "indexed": false,
          "internalType": "uint256",
          "name": "_tokenId",
          "type": "uint256"
        }
      ],
      "name": "MetadataUpdate",
      "type": "event"
    },
    {
      "anonymous": false,
      "inputs": [
        {
          "indexed": true,
          "internalType": "address",
          "name": "from",
          "type": "address"
        },
        {
          "indexed": true,
          "internalType": "address",
          "name": "to",
          "type": "address"
        },
        {
          "indexed": true,
          "internalType": "uint256",
          "name": "tokenId",
          "type": "uint256"
        }
      ],
      "name": "Transfer",
      "type": "event"
    },
    {
      "inputs": [
        {
          "internalType": "address",
          "name": "to",
          "type": "address"
        },
        {
          "internalType": "uint256",
          "name": "tokenId",
          "type": "uint256"
        }
      ],
      "name": "approve",
      "outputs": [],
      "stateMutability": "nonpayable",
      "type": "function"
    },
    {
      "inputs": [
        {
          "internalType": "address",
          "name": "owner",
          "type": "address"
        }
      ],
      "name": "balanceOf",
      "outputs": [
        {
          "internalType": "uint256",
          "name": "",
          "type": "uint256"
        }
      ],
      "stateMutability": "view",
      "type": "function"
    },
    {
      "inputs": [
        {
          "internalType": "uint256",
          "name": "tokenId",
          "type": "uint256"
        }
      ],
      "name": "getApproved",
      "outputs": [
        {
          "internalType": "address",
          "name": "",
          "type": "address"
        }
      ],
      "stateMutability": "view",
      "type": "function"
    },
    {
      "inputs": [
        {
          "internalType": "address",
          "name": "owner",
          "type": "address"
        },
        {
          "internalType": "address",
          "name": "operator",
          "type": "address"
        }
      ],
      "name": "isApprovedForAll",
      "outputs": [
        {
          "internalType": "bool",
          "name": "",
          "type": "bool"
        }
      ],
      "stateMutability": "view",
      "type": "function"
    },
    {
      "inputs": [
        {
          "internalType": "address",
          "name": "to",
          "type": "address"
        },
        {
          "internalType": "string",
          "name": "tokenURI_",
          "type": "string"
        }
      ],
      "name": "mint",
      "outputs": [],
      "stateMutability": "nonpayable",
      "type": "function"
    },
    {
      "inputs": [],
      "name": "name",
      "outputs": [
        {
          "internalType": "string",
          "name": "",
          "type": "string"
        }
      ],
      "stateMutability": "view",
      "type": "function"
    },
    {
      "inputs": [],
      "name": "owner",
      "outputs": [
        {
          "internalType": "address",
          "name": "",
          "type": "address"
        }
      ],
      "stateMutability": "view",
      "type": "function"
    },
    {
      "inputs": [
        {
          "internalType": "uint256",
          "name": "tokenId",
          "type": "uint256"
        }
      ],
      "name": "ownerOf",
      "outputs": [
        {
          "internalType": "address",
          "name": "",
          "type": "address"
        }
      ],
      "stateMutability": "view",
      "type": "function"
    },
    {
      "inputs": [
        {
          "internalType": "address",
          "name": "from",
          "type": "address"
        },
        {
          "internalType": "address",
          "name": "to",
          "type": "address"
        },
        {
          "internalType": "uint256",
          "name": "tokenId",
          "type": "uint256"
        }
      ],
      "name": "safeTransferFrom",
      "outputs": [],
      "stateMutability": "nonpayable",
      "type": "function"
    },
    {
      "inputs": [
        {
          "internalType": "address",
          "name": "from",
          "type": "address"
        },
        {
          "internalType": "address",
          "name": "to",
          "type": "address"
        },
        {
          "internalType": "uint256",
          "name": "tokenId",
          "type": "uint256"
        },
        {
          "internalType": "bytes",
          "name": "data",
          "type": "bytes"
        }
      ],
      "name": "safeTransferFrom",
      "outputs": [],
      "stateMutability": "nonpayable",
      "type": "function"
    },
    {
      "inputs": [
        {
          "internalType": "address",
          "name": "operator",
          "type": "address"
        },
        {
          "internalType": "bool",
          "name": "approved",
          "type": "bool"
        }
      ],
      "name": "setApprovalForAll",
      "outputs": [],
      "stateMutability": "nonpayable",
      "type": "function"
    },
    {
      "inputs": [
        {
          "internalType": "bytes4",
          "name": "interfaceId",
          "type": "bytes4"
        }
      ],
      "name": "supportsInterface",
      "outputs": [
        {
          "internalType": "bool",
          "name": "",
          "type": "bool"
        }
      ],
      "stateMutability": "view",
      "type": "function"
    },
    {
      "inputs": [],
      "name": "symbol",
      "outputs": [
        {
          "internalType": "string",
          "name": "",
          "type": "string"
        }
      ],
      "stateMutability": "view",
      "type": "function"
    },
    {
      "inputs": [],
      "name": "tokenId",
      "outputs": [
        {
          "internalType": "uint256",
          "name": "",
          "type": "uint256"
        }
      ],
      "stateMutability": "view",
      "type": "function"
    },
    {
      "inputs": [
        {
          "internalType": "uint256",
          "name": "tokenId",
          "type": "uint256"
        }
      ],
      "name": "tokenURI",
      "outputs": [
        {
          "internalType": "string",
          "name": "",
          "type": "string"
        }
      ],
      "stateMutability": "view",
      "type": "function"
    },
    {
      "inputs": [
        {
          "internalType": "address",
          "name": "from",
          "type": "address"
        },
        {
          "internalType": "address",
          "name": "to",
          "type": "address"
        },
        {
          "internalType": "uint256",
          "name": "tokenId",
          "type": "uint256"
        }
      ],
      "name": "transferFrom",
      "outputs": [],
      "stateMutability": "nonpayable",
      "type": "function"
    }
  ],
  "bytecode": "0x608060405234801561001057600080fd5b50604051611a39380380611a3983398101604081905261002f91610120565b8181600061003d8382610212565b50600161004a8282610212565b5050600780546001600160a01b03191633179055506102d0915050565b634e487b7160e01b600052604160045260246000fd5b600082601f83011261008e57600080fd5b81516001600160401b038111156100a7576100a7610067565b604051601f8201601f19908116603f011681016001600160401b03811182821017156100d5576100d5610067565b6040528181528382016020018510156100ed57600080fd5b60005b8281101561010c576020818601810151838301820152016100f0565b506000918101602001919091529392505050565b6000806040838503121561013357600080fd5b82516001600160401b0381111561014957600080fd5b6101558582860161007d565b602085015190935090506001600160401b0381111561017357600080fd5b61017f8582860161007d565b9150509250929050565b600181811c9082168061019d57607f821691505b6020821081036101bd57634e487b7160e01b600052602260045260246000fd5b50919050565b601f82111561020d57806000526020600020601f840160051c810160208510156101ea5750805b601f840160051c820191505b8181101561020a57600081556001016101f6565b50505b505050565b81516001600160401b0381111561022b5761022b610067565b61023f816102398454610189565b846101c3565b6020601f821160018114610273576000831561025b5750848201515b600019600385901b1c1916600184901b17845561020a565b600084815260208120601f198516915b828110156102a35787850151825560209485019460019092019101610283565b50848210156102c15786840151600019600387901b60f8161c191681555b50505050600190811b01905550565b61175a806102df6000396000f3fe608060405234801561001057600080fd5b50600436106101005760003560e01c806370a0823111610097578063b88d4fde11610066578063b88d4fde14610213578063c87b56dd14610226578063d0def52114610239578063e985e9c51461024c57600080fd5b806370a08231146101d25780638da5cb5b146101e557806395d89b41146101f8578063a22cb4651461020057600080fd5b806317d70f7c116100d357806317d70f7c1461018257806323b872dd1461019957806342842e0e146101ac5780636352211e146101bf57600080fd5b806301ffc9a71461010557806306fdde031461012d578063081812fc14610142578063095ea7b31461016d575b600080fd5b610118610113366004611135565b610288565b60405190151581526020015b60405180910390f35b6101356102b3565b60405161012491906111a2565b6101556101503660046111b5565b610345565b6040516001600160a01b039091168152602001610124565b61018061017b3660046111ea565b61036c565b005b61018b60085481565b604051908152602001610124565b6101806101a7366004611214565b610486565b6101806101ba366004611214565b6104b7565b6101556101cd3660046111b5565b6104d2565b61018b6101e0366004611251565b610532565b600754610155906001600160a01b031681565b6101356105b8565b61018061020e36600461126c565b6105c7565b610180610221366004611338565b6105d6565b6101356102343660046111b5565b61060e565b6101806102473660046113b4565b61071e565b61011861025a366004611416565b6001600160a01b03918216600090815260056020908152604080832093909416825291909152205460ff1690565b60006001600160e01b03198216632483248360e11b14806102ad57506102ad82610799565b92915050565b6060600080546102c290611449565b80601f01602080910402602001604051908101604052809291908181526020018280546102ee90611449565b801561033b5780601f106103105761010080835404028352916020019161033b565b820191906000526020600020905b81548152906001019060200180831161031e57829003601f168201915b5050505050905090565b6000610350826107e9565b506000908152600460205260409020546001600160a01b031690565b6000610377826104d2565b9050806001600160a01b0316836001600160a01b0316036103e95760405162461bcd60e51b815260206004820152602160248201527f4552433732313a20617070726f76616c20746f2063757272656e74206f776e656044820152603960f91b60648201526084015b60405180910390fd5b336001600160a01b03821614806104055750610405813361025a565b6104775760405162461bcd60e51b815260206004820152603d60248201527f4552433732313a20617070726f76652063616c6c6572206973206e6f7420746f60448201527f6b656e206f776e6572206f7220617070726f76656420666f7220616c6c00000060648201526084016103e0565b610481838361084b565b505050565b61049033826108b9565b6104ac5760405162461bcd60e51b81526004016103e090611483565b610481838383610937565b610481838383604051806020016040528060008152506105d6565b6000818152600260205260408120546001600160a01b0316806102ad5760405162461bcd60e51b8152602060048201526018602482015277115490cdcc8c4e881a5b9d985b1a59081d1bdad95b88125160421b60448201526064016103e0565b60006001600160a01b03821661059c5760405162461bcd60e51b815260206004820152602960248201527f4552433732313a2061646472657373207a65726f206973206e6f7420612076616044820152683634b21037bbb732b960b91b60648201526084016103e0565b506001600160a01b031660009081526003602052604090205490565b6060600180546102c290611449565b6105d2338383610a9b565b5050565b6105e033836108b9565b6105fc5760405162461bcd60e51b81526004016103e090611483565b61060884848484610b69565b50505050565b6060610619826107e9565b6000828152600660205260408120805461063290611449565b80601f016020809104026020016040519081016040528092919081815260200182805461065e90611449565b80156106ab5780601f10610680576101008083540402835291602001916106ab565b820191906000526020600020905b81548152906001019060200180831161068e57829003601f168201915b5050505050905060006106c960408051602081019091526000815290565b905080516000036106db575092915050565b81511561070d5780826040516020016106f59291906114d0565b60405160208183030381529060405292505050919050565b61071684610b9c565b949350505050565b6007546001600160a01b031633146107685760405162461bcd60e51b815260206004820152600d60248201526c2737ba103a34329037bbb732b960991b60448201526064016103e0565b61077482600854610c10565b61078060085482610c2a565b60088054906000610790836114ff565b91905055505050565b60006001600160e01b031982166380ac58cd60e01b14806107ca57506001600160e01b03198216635b5e139f60e01b145b806102ad57506301ffc9a760e01b6001600160e01b03198316146102ad565b6000818152600260205260409020546001600160a01b03166108485760405162461bcd60e51b8152602060048201526018602482015277115490cdcc8c4e881a5b9d985b1a59081d1bdad95b88125160421b60448201526064016103e0565b50565b600081815260046020526040902080546001600160a01b0319166001600160a01b0384169081179091558190610880826104d2565b6001600160a01b03167f8c5be1e5ebec7d5bd14f71427d1e84f3dd0314c0f7b2291e5b200ac8c7c3b92560405160405180910390a45050565b6000806108c5836104d2565b9050806001600160a01b0316846001600160a01b0316148061090c57506001600160a01b0380821660009081526005602090815260408083209388168352929052205460ff165b806107165750836001600160a01b031661092584610345565b6001600160a01b031614949350505050565b826001600160a01b031661094a826104d2565b6001600160a01b0316146109705760405162461bcd60e51b81526004016103e090611526565b6001600160a01b0382166109d25760405162461bcd60e51b8152602060048201526024808201527f4552433732313a207472616e7366657220746f20746865207a65726f206164646044820152637265737360e01b60648201526084016103e0565b826001600160a01b03166109e5826104d2565b6001600160a01b031614610a0b5760405162461bcd60e51b81526004016103e090611526565b600081815260046020908152604080832080546001600160a01b03199081169091556001600160a01b0387811680865260038552838620805460001901905590871680865283862080546001019055868652600290945282852080549092168417909155905184937fddf252ad1be2c89b69c2b068fc378daa952ba7f163c4a11628f55a4df523b3ef91a4505050565b816001600160a01b0316836001600160a01b031603610afc5760405162461bcd60e51b815260206004820152601960248201527f4552433732313a20617070726f766520746f2063616c6c65720000000000000060448201526064016103e0565b6001600160a01b03838116600081815260056020908152604080832094871680845294825291829020805460ff191686151590811790915591519182527f17307eab39ab6107e8899845ad3d59bd9653f200f220920489ca2b5937696c31910160405180910390a3505050565b610b74848484610937565b610b8084848484610cf5565b6106085760405162461bcd60e51b81526004016103e09061156b565b6060610ba7826107e9565b6000610bbe60408051602081019091526000815290565b90506000815111610bde5760405180602001604052806000815250610c09565b80610be884610df6565b604051602001610bf99291906114d0565b6040516020818303038152906040525b9392505050565b6105d2828260405180602001604052806000815250610e89565b6000828152600260205260409020546001600160a01b0316610ca55760405162461bcd60e51b815260206004820152602e60248201527f45524337323155524953746f726167653a2055524920736574206f66206e6f6e60448201526d32bc34b9ba32b73a103a37b5b2b760911b60648201526084016103e0565b6000828152600660205260409020610cbd828261160b565b506040518281527ff8e1a15aba9398e019f0b49df1a4fde98ee17ae345cb5f6b5e2c27f5033e8ce79060200160405180910390a15050565b60006001600160a01b0384163b15610deb57604051630a85bd0160e11b81526001600160a01b0385169063150b7a0290610d399033908990889088906004016116ca565b6020604051808303816000875af1925050508015610d74575060408051601f3d908101601f19168201909252610d7191810190611707565b60015b610dd1573d808015610da2576040519150601f19603f3d011682016040523d82523d6000602084013e610da7565b606091505b508051600003610dc95760405162461bcd60e51b81526004016103e09061156b565b805181602001fd5b6001600160e01b031916630a85bd0160e11b149050610716565b506001949350505050565b60606000610e0383610ebc565b600101905060008167ffffffffffffffff811115610e2357610e236112a8565b6040519080825280601f01601f191660200182016040528015610e4d576020820181803683370190505b5090508181016020015b600019016f181899199a1a9b1b9c1cb0b131b232b360811b600a86061a8153600a8504945084610e5757509392505050565b610e938383610f94565b610ea06000848484610cf5565b6104815760405162461bcd60e51b81526004016103e09061156b565b60008072184f03e93ff9f4daa797ed6e38ed64bf6a1f0160401b8310610efb5772184f03e93ff9f4daa797ed6e38ed64bf6a1f0160401b830492506040015b6d04ee2d6d415b85acef81000000008310610f27576d04ee2d6d415b85acef8100000000830492506020015b662386f26fc100008310610f4557662386f26fc10000830492506010015b6305f5e1008310610f5d576305f5e100830492506008015b6127108310610f7157612710830492506004015b60648310610f83576064830492506002015b600a83106102ad5760010192915050565b6001600160a01b038216610fea5760405162461bcd60e51b815260206004820181905260248201527f4552433732313a206d696e7420746f20746865207a65726f206164647265737360448201526064016103e0565b6000818152600260205260409020546001600160a01b03161561104f5760405162461bcd60e51b815260206004820152601c60248201527f4552433732313a20746f6b656e20616c7265616479206d696e7465640000000060448201526064016103e0565b6000818152600260205260409020546001600160a01b0316156110b45760405162461bcd60e51b815260206004820152601c60248201527f4552433732313a20746f6b656e20616c7265616479206d696e7465640000000060448201526064016103e0565b6001600160a01b038216600081815260036020908152604080832080546001019055848352600290915280822080546001600160a01b0319168417905551839291907fddf252ad1be2c89b69c2b068fc378daa952ba7f163c4a11628f55a4df523b3ef908290a45050565b6001600160e01b03198116811461084857600080fd5b60006020828403121561114757600080fd5b8135610c098161111f565b60005b8381101561116d578181015183820152602001611155565b50506000910152565b6000815180845261118e816020860160208601611152565b601f01601f19169290920160200192915050565b602081526000610c096020830184611176565b6000602082840312156111c757600080fd5b5035919050565b80356001600160a01b03811681146111e557600080fd5b919050565b600080604083850312156111fd57600080fd5b611206836111ce565b946020939093013593505050565b60008060006060848603121561122957600080fd5b611232846111ce565b9250611240602085016111ce565b929592945050506040919091013590565b60006020828403121561126357600080fd5b610c09826111ce565b6000806040838503121561127f57600080fd5b611288836111ce565b91506020830135801515811461129d57600080fd5b809150509250929050565b634e487b7160e01b600052604160045260246000fd5b60008067ffffffffffffffff8411156112d9576112d96112a8565b50604051601f19601f85018116603f0116810181811067ffffffffffffffff82111715611308576113086112a8565b60405283815290508082840185101561132057600080fd5b83836020830137600060208583010152509392505050565b6000806000806080858703121561134e57600080fd5b611357856111ce565b9350611365602086016111ce565b925060408501359150606085013567ffffffffffffffff81111561138857600080fd5b8501601f8101871361139957600080fd5b6113a8878235602084016112be565b91505092959194509250565b600080604083850312156113c757600080fd5b6113d0836111ce565b9150602083013567ffffffffffffffff8111156113ec57600080fd5b8301601f810185136113fd57600080fd5b61140c858235602084016112be565b9150509250929050565b6000806040838503121561142957600080fd5b611432836111ce565b9150611440602084016111ce565b90509250929050565b600181811c9082168061145d57607f821691505b60208210810361147d57634e487b7160e01b600052602260045260246000fd5b50919050565b6020808252602d908201527f4552433732313a2063616c6c6572206973206e6f7420746f6b656e206f776e6560408201526c1c881bdc88185c1c1c9bdd9959609a1b606082015260800190565b600083516114e2818460208801611152565b8351908301906114f6818360208801611152565b01949350505050565b60006001820161151f57634e487b7160e01b600052601160045260246000fd5b5060010190565b60208082526025908201527f4552433732313a207472616e736665722066726f6d20696e636f72726563742060408201526437bbb732b960d91b606082015260800190565b60208082526032908201527f4552433732313a207472616e7366657220746f206e6f6e20455243373231526560408201527131b2b4bb32b91034b6b83632b6b2b73a32b960711b606082015260800190565b601f82111561048157806000526020600020601f840160051c810160208510156115e45750805b601f840160051c820191505b8181101561160457600081556001016115f0565b5050505050565b815167ffffffffffffffff811115611625576116256112a8565b611639816116338454611449565b846115bd565b6020601f82116001811461166d57600083156116555750848201515b600019600385901b1c1916600184901b178455611604565b600084815260208120601f198516915b8281101561169d578785015182556020948501946001909201910161167d565b50848210156116bb5786840151600019600387901b60f8161c191681555b50505050600190811b01905550565b6001600160a01b03858116825284166020820152604081018390526080606082018190526000906116fd90830184611176565b9695505050505050565b60006020828403121561171957600080fd5b8151610c098161111f56fea2646970667358221220e05fd2757cc8964676f5a67107e27c107253e7299aa2ba7d76bc7f9c43537ed864736f6c634300081c0033",
  "linkReferences": {},
  "deployedLinkReferences": {}
}