{
  "_format": "hh-sol-artifact-1",
  "contractName": "TokenOracle",
  "sourceName": "contracts/Oracles/eminarOracle.sol",
  "abi": [
    {
      "inputs": [
        {
          "internalType": "address",
          "name": "_initialOwner",
          "type": "address"
        }
      ],
      "stateMutability": "nonpayable",
      "type": "constructor"
    },
    {
      "anonymous": false,
      "inputs": [
        {
          "indexed": false,
          "internalType": "uint256",
          "name": "newBps",
          "type": "uint256"
        }
      ],
      "name": "MaxChangeBpsUpdated",
      "type": "event"
    },
    {
      "anonymous": false,
      "inputs": [
        {
          "indexed": true,
          "internalType": "address",
          "name": "previousOwner",
          "type": "address"
        },
        {
          "indexed": true,
          "internalType": "address",
          "name": "newOwner",
          "type": "address"
        }
      ],
      "name": "OwnershipTransferred",
      "type": "event"
    },
    {
      "anonymous": false,
      "inputs": [
        {
          "indexed": false,
          "internalType": "address",
          "name": "account",
          "type": "address"
        }
      ],
      "name": "Paused",
      "type": "event"
    },
    {
      "anonymous": false,
      "inputs": [
        {
          "indexed": true,
          "internalType": "address",
          "name": "token",
          "type": "address"
        },
        {
          "indexed": false,
          "internalType": "uint256",
          "name": "price",
          "type": "uint256"
        },
        {
          "indexed": false,
          "internalType": "address",
          "name": "updatedBy",
          "type": "address"
        },
        {
          "indexed": false,
          "internalType": "uint256",
          "name": "timestamp",
          "type": "uint256"
        }
      ],
      "name": "PriceUpdated",
      "type": "event"
    },
    {
      "anonymous": false,
      "inputs": [
        {
          "indexed": true,
          "internalType": "address",
          "name": "relayer",
          "type": "address"
        }
      ],
      "name": "RelayerAdded",
      "type": "event"
    },
    {
      "anonymous": false,
      "inputs": [
        {
          "indexed": true,
          "internalType": "address",
          "name": "relayer",
          "type": "address"
        }
      ],
      "name": "RelayerRemoved",
      "type": "event"
    },
    {
      "anonymous": false,
      "inputs": [
        {
          "indexed": false,
          "internalType": "address",
          "name": "gold",
          "type": "address"
        },
        {
          "indexed": false,
          "internalType": "address",
          "name": "silver",
          "type": "address"
        },
        {
          "indexed": false,
          "internalType": "address",
          "name": "rare",
          "type": "address"
        }
      ],
      "name": "TokensSet",
      "type": "event"
    },
    {
      "anonymous": false,
      "inputs": [
        {
          "indexed": false,
          "internalType": "address",
          "name": "account",
          "type": "address"
        }
      ],
      "name": "Unpaused",
      "type": "event"
    },
    {
      "inputs": [],
      "name": "PRICE_DECIMALS",
      "outputs": [
        {
          "internalType": "uint256",
          "name": "",
          "type": "uint256"
        }
      ],
      "stateMutability": "view",
      "type": "function"
    },
    {
      "inputs": [
        {
          "internalType": "address",
          "name": "relayer",
          "type": "address"
        }
      ],
      "name": "addRelayer",
      "outputs": [],
      "stateMutability": "nonpayable",
      "type": "function"
    },
    {
      "inputs": [],
      "name": "getAllPrices",
      "outputs": [
        {
          "internalType": "uint256",
          "name": "goldPrice",
          "type": "uint256"
        },
        {
          "internalType": "uint256",
          "name": "silverPrice",
          "type": "uint256"
        },
        {
          "internalType": "uint256",
          "name": "rarePrice",
          "type": "uint256"
        },
        {
          "internalType": "uint256",
          "name": "lastUpdated",
          "type": "uint256"
        }
      ],
      "stateMutability": "view",
      "type": "function"
    },
    {
      "inputs": [],
      "name": "getGoldPrice",
      "outputs": [
        {
          "internalType": "uint256",
          "name": "price",
          "type": "uint256"
        },
        {
          "internalType": "uint256",
          "name": "lastUpdated",
          "type": "uint256"
        }
      ],
      "stateMutability": "view",
      "type": "function"
    },
    {
      "inputs": [],
      "name": "getRarePrice",
      "outputs": [
        {
          "internalType": "uint256",
          "name": "price",
          "type": "uint256"
        },
        {
          "internalType": "uint256",
          "name": "lastUpdated",
          "type": "uint256"
        }
      ],
      "stateMutability": "view",
      "type": "function"
    },
    {
      "inputs": [],
      "name": "getSilverPrice",
      "outputs": [
        {
          "internalType": "uint256",
          "name": "price",
          "type": "uint256"
        },
        {
          "internalType": "uint256",
          "name": "lastUpdated",
          "type": "uint256"
        }
      ],
      "stateMutability": "view",
      "type": "function"
    },
    {
      "inputs": [],
      "name": "getTokenAddresses",
      "outputs": [
        {
          "internalType": "address",
          "name": "",
          "type": "address"
        },
        {
          "internalType": "address",
          "name": "",
          "type": "address"
        },
        {
          "internalType": "address",
          "name": "",
          "type": "address"
        }
      ],
      "stateMutability": "view",
      "type": "function"
    },
    {
      "inputs": [
        {
          "internalType": "address",
          "name": "token",
          "type": "address"
        }
      ],
      "name": "getTokenPrice",
      "outputs": [
        {
          "internalType": "uint256",
          "name": "price",
          "type": "uint256"
        },
        {
          "internalType": "uint256",
          "name": "lastUpdated",
          "type": "uint256"
        }
      ],
      "stateMutability": "view",
      "type": "function"
    },
    {
      "inputs": [],
      "name": "goldToken",
      "outputs": [
        {
          "internalType": "address",
          "name": "",
          "type": "address"
        }
      ],
      "stateMutability": "view",
      "type": "function"
    },
    {
      "inputs": [
        {
          "internalType": "address",
          "name": "token",
          "type": "address"
        },
        {
          "internalType": "uint256",
          "name": "maxAge",
          "type": "uint256"
        }
      ],
      "name": "isPriceRecent",
      "outputs": [
        {
          "internalType": "bool",
          "name": "",
          "type": "bool"
        }
      ],
      "stateMutability": "view",
      "type": "function"
    },
    {
      "inputs": [],
      "name": "maxChangeBps",
      "outputs": [
        {
          "internalType": "uint256",
          "name": "",
          "type": "uint256"
        }
      ],
      "stateMutability": "view",
      "type": "function"
    },
    {
      "inputs": [],
      "name": "owner",
      "outputs": [
        {
          "internalType": "address",
          "name": "",
          "type": "address"
        }
      ],
      "stateMutability": "view",
      "type": "function"
    },
    {
      "inputs": [],
      "name": "pause",
      "outputs": [],
      "stateMutability": "nonpayable",
      "type": "function"
    },
    {
      "inputs": [],
      "name": "paused",
      "outputs": [
        {
          "internalType": "bool",
          "name": "",
          "type": "bool"
        }
      ],
      "stateMutability": "view",
      "type": "function"
    },
    {
      "inputs": [],
      "name": "rareToken",
      "outputs": [
        {
          "internalType": "address",
          "name": "",
          "type": "address"
        }
      ],
      "stateMutability": "view",
      "type": "function"
    },
    {
      "inputs": [
        {
          "internalType": "address",
          "name": "",
          "type": "address"
        }
      ],
      "name": "relayers",
      "outputs": [
        {
          "internalType": "bool",
          "name": "",
          "type": "bool"
        }
      ],
      "stateMutability": "view",
      "type": "function"
    },
    {
      "inputs": [
        {
          "internalType": "address",
          "name": "relayer",
          "type": "address"
        }
      ],
      "name": "removeRelayer",
      "outputs": [],
      "stateMutability": "nonpayable",
      "type": "function"
    },
    {
      "inputs": [],
      "name": "renounceOwnership",
      "outputs": [],
      "stateMutability": "nonpayable",
      "type": "function"
    },
    {
      "inputs": [
        {
          "internalType": "uint256",
          "name": "bps",
          "type": "uint256"
        }
      ],
      "name": "setMaxChangeBps",
      "outputs": [],
      "stateMutability": "nonpayable",
      "type": "function"
    },
    {
      "inputs": [
        {
          "internalType": "address",
          "name": "_goldToken",
          "type": "address"
        },
        {
          "internalType": "address",
          "name": "_silverToken",
          "type": "address"
        },
        {
          "internalType": "address",
          "name": "_rareToken",
          "type": "address"
        }
      ],
      "name": "setTokenAddresses",
      "outputs": [],
      "stateMutability": "nonpayable",
      "type": "function"
    },
    {
      "inputs": [],
      "name": "silverToken",
      "outputs": [
        {
          "internalType": "address",
          "name": "",
          "type": "address"
        }
      ],
      "stateMutability": "view",
      "type": "function"
    },
    {
      "inputs": [
        {
          "internalType": "address",
          "name": "",
          "type": "address"
        }
      ],
      "name": "tokenPrices",
      "outputs": [
        {
          "internalType": "uint256",
          "name": "price",
          "type": "uint256"
        },
        {
          "internalType": "uint256",
          "name": "lastUpdated",
          "type": "uint256"
        },
        {
          "internalType": "address",
          "name": "updatedBy",
          "type": "address"
        }
      ],
      "stateMutability": "view",
      "type": "function"
    },
    {
      "inputs": [
        {
          "internalType": "address",
          "name": "newOwner",
          "type": "address"
        }
      ],
      "name": "transferOwnership",
      "outputs": [],
      "stateMutability": "nonpayable",
      "type": "function"
    },
    {
      "inputs": [],
      "name": "unpause",
      "outputs": [],
      "stateMutability": "nonpayable",
      "type": "function"
    },
    {
      "inputs": [
        {
          "internalType": "uint256",
          "name": "goldPrice",
          "type": "uint256"
        },
        {
          "internalType": "uint256",
          "name": "silverPrice",
          "type": "uint256"
        },
        {
          "internalType": "uint256",
          "name": "rarePrice",
          "type": "uint256"
        }
      ],
      "name": "updateAllPrices",
      "outputs": [],
      "stateMutability": "nonpayable",
      "type": "function"
    },
    {
      "inputs": [
        {
          "internalType": "address",
          "name": "token",
          "type": "address"
        },
        {
          "internalType": "uint256",
          "name": "price",
          "type": "uint256"
        }
      ],
      "name": "updateTokenPrice",
      "outputs": [],
      "stateMutability": "nonpayable",
      "type": "function"
    }
  ],
  "bytecode": "0x608060405261138860065534801561001657600080fd5b5060405161129b38038061129b83398101604081905261003591610193565b61003e33610069565b6000805460ff60a01b191690556001600160a01b0381161561006357610063816100b9565b506101c3565b600080546001600160a01b038381166001600160a01b0319831681178455604051919092169283917f8be0079c531659141344cd1fd0a4f28419497f9722a3daafe3b4186f6b6457e09190a35050565b6100c1610137565b6001600160a01b03811661012b5760405162461bcd60e51b815260206004820152602660248201527f4f776e61626c653a206e6577206f776e657220697320746865207a65726f206160448201526564647265737360d01b60648201526084015b60405180910390fd5b61013481610069565b50565b6000546001600160a01b031633146101915760405162461bcd60e51b815260206004820181905260248201527f4f776e61626c653a2063616c6c6572206973206e6f7420746865206f776e65726044820152606401610122565b565b6000602082840312156101a557600080fd5b81516001600160a01b03811681146101bc57600080fd5b9392505050565b6110c9806101d26000396000f3fe608060405234801561001057600080fd5b506004361061018e5760003560e01c8063790fb13d116100de578063d321040311610097578063dd39f00d11610071578063dd39f00d146103a6578063ee8c24b8146103b9578063f1a640f8146103ec578063f2fde38b146103f457600080fd5b8063d321040314610383578063d4ee651b1461038b578063da6bae101461039e57600080fd5b8063790fb13d1461031e5780638456cb59146103315780638da5cb5b1461033957806394002b571461034a578063c34fe1dd1461035d578063d02641a01461037057600080fd5b8063445df9d61161014b5780635300f841116101255780635300f841146102ce5780635c975abb146102f157806360f0a5ac14610303578063715018a61461031657600080fd5b8063445df9d6146102765780634d3f9d3e1461029e5780634e279b79146102b157600080fd5b80630bc16abe146101935780631688e5b9146101a8578063204120bc146101c457806338c21d1b146102205780633f4ba83a1461024b57806340947df114610253575b600080fd5b6101a66101a1366004610f63565b610407565b005b6101b160065481565b6040519081526020015b60405180910390f35b6101fc6101d2366004610fab565b6004602052600090815260409020805460018201546002909201549091906001600160a01b031683565b6040805193845260208401929092526001600160a01b0316908201526060016101bb565b600354610233906001600160a01b031681565b6040516001600160a01b0390911681526020016101bb565b6101a6610546565b610266610261366004610fcd565b610558565b60405190151581526020016101bb565b61027e6105c8565b6040805194855260208501939093529183015260608201526080016101bb565b6101a66102ac366004610ff7565b6106bf565b6102b96107d9565b604080519283526020830191909152016101bb565b6102666102dc366004610fab565b60056020526000908152604090205460ff1681565b600054600160a01b900460ff16610266565b6101a6610311366004610fab565b6107fb565b6101a661084c565b6101a661032c36600461103a565b61085e565b6101a66108df565b6000546001600160a01b0316610233565b600154610233906001600160a01b031681565b600254610233906001600160a01b031681565b6102b961037e366004610fab565b6108ef565b6102b9610938565b6101a6610399366004610fcd565b610952565b6102b9610c5e565b6101a66103b4366004610fab565b610c78565b600154600254600354604080516001600160a01b03948516815292841660208401529216918101919091526060016101bb565b6101b1600881565b6101a6610402366004610fab565b610d0b565b61040f610d84565b6001546001600160a01b03161580159061043357506002546001600160a01b031615155b801561044957506003546001600160a01b031615155b61048b5760405162461bcd60e51b815260206004820152600e60248201526d151bdad95b9cc81b9bdd081cd95d60921b60448201526064015b60405180910390fd5b3360009081526005602052604090205460ff16806104c25750336104b76000546001600160a01b031690565b6001600160a01b0316145b6104ff5760405162461bcd60e51b815260206004820152600e60248201526d139bdd08185d5d1a1bdc9a5e995960921b6044820152606401610482565b600154610515906001600160a01b031684610952565b60025461052b906001600160a01b031683610952565b600354610541906001600160a01b031682610952565b505050565b61054e610dd1565b610556610e2b565b565b6001600160a01b03808316600090815260046020908152604080832081516060810183528154815260018201549381018490526002909101549094169084015290919082036105ab5760009150506105c2565b828160200151426105bc9190611069565b11159150505b92915050565b600180546001600160a01b03908116600090815260046020818152604080842081516060808201845282548252828901548286019081526002938401548916838601528354891688528686528488208551808401875281548152818c0154818901908152918601548b16818801526003548b168a5297875285892086519384018752805484529a8b0154968301969096529890920154909616918101919091529051945192948594859485949193919285911161068957826020015161068f565b83602001515b9050808260200151116106a257806106a8565b81602001515b935192519151929891975091955091935090915050565b6106c7610dd1565b6001546001600160a01b03161580156106e857506001600160a01b03831615155b80156106fc57506001600160a01b03821615155b801561071057506001600160a01b03811615155b6107555760405162461bcd60e51b8152602060048201526016602482015275125b9d985b1a59081bdc88185b1c9958591e481cd95d60521b6044820152606401610482565b600180546001600160a01b038581166001600160a01b0319928316811790935560028054868316908416811790915560038054928616929093168217909255604080519384526020840192909252908201527f5b298d21a3f20895e495bf3dcb889649b4381249a094782f2c49e9f5d015b9c59060600160405180910390a1505050565b60025460009081906107f3906001600160a01b03166108ef565b915091509091565b610803610dd1565b6001600160a01b038116600081815260056020526040808220805460ff19169055517f10e1f7ce9fd7d1b90a66d13a2ab3cb8dd7f29f3f8d520b143b063ccfbab6906b9190a250565b610854610dd1565b6105566000610e80565b610866610dd1565b6127108111156108a45760405162461bcd60e51b815260206004820152600960248201526806270733e31303030360bc1b6044820152606401610482565b60068190556040518181527f44ab1d93e41d4b41f280e9e25d9f9aa7260eb839e0d9f7eea5ca2c0823c7ba209060200160405180910390a150565b6108e7610dd1565b610556610ed0565b6001600160a01b03908116600090815260046020908152604091829020825160608101845281548082526001830154938201849052600290920154909416939092019290925291565b60035460009081906107f3906001600160a01b03166108ef565b61095a610d84565b6001546001600160a01b038381169116148061098357506002546001600160a01b038381169116145b8061099b57506003546001600160a01b038381169116145b6109d75760405162461bcd60e51b815260206004820152600d60248201526c24b73b30b634b2103a37b5b2b760991b6044820152606401610482565b60008111610a115760405162461bcd60e51b8152602060048201526007602482015266050726963653e360cc1b6044820152606401610482565b3360009081526005602052604090205460ff1680610a48575033610a3d6000546001600160a01b031690565b6001600160a01b0316145b610a855760405162461bcd60e51b815260206004820152600e60248201526d139bdd08185d5d1a1bdc9a5e995960921b6044820152606401610482565b6001600160a01b0380831660009081526004602090815260409182902082516060810184528154815260018201549281018390526002909101549093169183019190915215610bbe5780518015610bbc5780831115610b4f576000610aea8285611069565b905060065482610afa919061107c565b610b068261271061107c565b1115610b495760405162461bcd60e51b8152602060048201526012602482015271496e63726561736520746f6f206c6172676560701b6044820152606401610482565b50610bbc565b6000610b5b8483611069565b905060065482610b6b919061107c565b610b778261271061107c565b1115610bba5760405162461bcd60e51b8152602060048201526012602482015271446563726561736520746f6f206c6172676560701b6044820152606401610482565b505b505b6040805160608082018352848252426020808401828152338587018181526001600160a01b038b81166000818152600487528a902098518955935160018901559051600290970180546001600160a01b03191697909116969096179095558551888152918201949094529384015290917fc71c2e178d54f3a46742671fcbbdbbade697d8f5a8647b18268e5087918c375d910160405180910390a2505050565b60015460009081906107f3906001600160a01b03166108ef565b610c80610dd1565b6001600160a01b038116610cbf5760405162461bcd60e51b8152600401610482906020808252600490820152637a65726f60e01b604082015260600190565b6001600160a01b038116600081815260056020526040808220805460ff19166001179055517f03580ee9f53a62b7cb409a2cb56f9be87747dd15017afc5cef6eef321e4fb2c59190a250565b610d13610dd1565b6001600160a01b038116610d785760405162461bcd60e51b815260206004820152602660248201527f4f776e61626c653a206e6577206f776e657220697320746865207a65726f206160448201526564647265737360d01b6064820152608401610482565b610d8181610e80565b50565b600054600160a01b900460ff16156105565760405162461bcd60e51b815260206004820152601060248201526f14185d5cd8589b194e881c185d5cd95960821b6044820152606401610482565b6000546001600160a01b031633146105565760405162461bcd60e51b815260206004820181905260248201527f4f776e61626c653a2063616c6c6572206973206e6f7420746865206f776e65726044820152606401610482565b610e33610f13565b6000805460ff60a01b191690557f5db9ee0a495bf2e6ff9c91a7834c1ba4fdd244a5e8aa4e537bd38aeae4b073aa335b6040516001600160a01b03909116815260200160405180910390a1565b600080546001600160a01b038381166001600160a01b0319831681178455604051919092169283917f8be0079c531659141344cd1fd0a4f28419497f9722a3daafe3b4186f6b6457e09190a35050565b610ed8610d84565b6000805460ff60a01b1916600160a01b1790557f62e78cea01bee320cd4e420270b5ea74000d11b0c9f74754ebdbfc544b05a258610e633390565b600054600160a01b900460ff166105565760405162461bcd60e51b815260206004820152601460248201527314185d5cd8589b194e881b9bdd081c185d5cd95960621b6044820152606401610482565b600080600060608486031215610f7857600080fd5b505081359360208301359350604090920135919050565b80356001600160a01b0381168114610fa657600080fd5b919050565b600060208284031215610fbd57600080fd5b610fc682610f8f565b9392505050565b60008060408385031215610fe057600080fd5b610fe983610f8f565b946020939093013593505050565b60008060006060848603121561100c57600080fd5b61101584610f8f565b925061102360208501610f8f565b915061103160408501610f8f565b90509250925092565b60006020828403121561104c57600080fd5b5035919050565b634e487b7160e01b600052601160045260246000fd5b818103818111156105c2576105c2611053565b80820281158282048414176105c2576105c261105356fea2646970667358221220ca9d0e95bfa992c74fc4f7cfe0423d3db1a049dd85294e9c9a797d97954f876564736f6c634300081c0033",
  "linkReferences": {},
  "deployedLinkReferences": {}
}