{
  "_format": "hh-sol-artifact-1",
  "contractName": "TokenOracle",
  "sourceName": "contracts/Oracles/eminarOracle.sol",
  "abi": [
    {
      "inputs": [
        {
          "internalType": "address",
          "name": "_initialOwner",
          "type": "address"
        }
      ],
      "stateMutability": "nonpayable",
      "type": "constructor"
    },
    {
      "anonymous": false,
      "inputs": [
        {
          "indexed": true,
          "internalType": "address",
          "name": "previousOwner",
          "type": "address"
        },
        {
          "indexed": true,
          "internalType": "address",
          "name": "newOwner",
          "type": "address"
        }
      ],
      "name": "OwnershipTransferred",
      "type": "event"
    },
    {
      "anonymous": false,
      "inputs": [
        {
          "indexed": true,
          "internalType": "address",
          "name": "token",
          "type": "address"
        },
        {
          "indexed": false,
          "internalType": "uint256",
          "name": "price",
          "type": "uint256"
        },
        {
          "indexed": false,
          "internalType": "address",
          "name": "updatedBy",
          "type": "address"
        },
        {
          "indexed": false,
          "internalType": "uint256",
          "name": "timestamp",
          "type": "uint256"
        }
      ],
      "name": "PriceUpdated",
      "type": "event"
    },
    {
      "anonymous": false,
      "inputs": [
        {
          "indexed": false,
          "internalType": "address",
          "name": "gold",
          "type": "address"
        },
        {
          "indexed": false,
          "internalType": "address",
          "name": "silver",
          "type": "address"
        },
        {
          "indexed": false,
          "internalType": "address",
          "name": "rare",
          "type": "address"
        }
      ],
      "name": "TokensSet",
      "type": "event"
    },
    {
      "inputs": [],
      "name": "PRICE_DECIMALS",
      "outputs": [
        {
          "internalType": "uint256",
          "name": "",
          "type": "uint256"
        }
      ],
      "stateMutability": "view",
      "type": "function"
    },
    {
      "inputs": [],
      "name": "getAllPrices",
      "outputs": [
        {
          "internalType": "uint256",
          "name": "goldPrice",
          "type": "uint256"
        },
        {
          "internalType": "uint256",
          "name": "silverPrice",
          "type": "uint256"
        },
        {
          "internalType": "uint256",
          "name": "rarePrice",
          "type": "uint256"
        },
        {
          "internalType": "uint256",
          "name": "lastUpdated",
          "type": "uint256"
        }
      ],
      "stateMutability": "view",
      "type": "function"
    },
    {
      "inputs": [],
      "name": "getGoldPrice",
      "outputs": [
        {
          "internalType": "uint256",
          "name": "price",
          "type": "uint256"
        },
        {
          "internalType": "uint256",
          "name": "lastUpdated",
          "type": "uint256"
        }
      ],
      "stateMutability": "view",
      "type": "function"
    },
    {
      "inputs": [],
      "name": "getRarePrice",
      "outputs": [
        {
          "internalType": "uint256",
          "name": "price",
          "type": "uint256"
        },
        {
          "internalType": "uint256",
          "name": "lastUpdated",
          "type": "uint256"
        }
      ],
      "stateMutability": "view",
      "type": "function"
    },
    {
      "inputs": [],
      "name": "getSilverPrice",
      "outputs": [
        {
          "internalType": "uint256",
          "name": "price",
          "type": "uint256"
        },
        {
          "internalType": "uint256",
          "name": "lastUpdated",
          "type": "uint256"
        }
      ],
      "stateMutability": "view",
      "type": "function"
    },
    {
      "inputs": [],
      "name": "getTokenAddresses",
      "outputs": [
        {
          "internalType": "address",
          "name": "",
          "type": "address"
        },
        {
          "internalType": "address",
          "name": "",
          "type": "address"
        },
        {
          "internalType": "address",
          "name": "",
          "type": "address"
        }
      ],
      "stateMutability": "view",
      "type": "function"
    },
    {
      "inputs": [
        {
          "internalType": "address",
          "name": "token",
          "type": "address"
        }
      ],
      "name": "getTokenPrice",
      "outputs": [
        {
          "internalType": "uint256",
          "name": "price",
          "type": "uint256"
        },
        {
          "internalType": "uint256",
          "name": "lastUpdated",
          "type": "uint256"
        }
      ],
      "stateMutability": "view",
      "type": "function"
    },
    {
      "inputs": [],
      "name": "goldToken",
      "outputs": [
        {
          "internalType": "address",
          "name": "",
          "type": "address"
        }
      ],
      "stateMutability": "view",
      "type": "function"
    },
    {
      "inputs": [
        {
          "internalType": "address",
          "name": "token",
          "type": "address"
        },
        {
          "internalType": "uint256",
          "name": "maxAge",
          "type": "uint256"
        }
      ],
      "name": "isPriceRecent",
      "outputs": [
        {
          "internalType": "bool",
          "name": "",
          "type": "bool"
        }
      ],
      "stateMutability": "view",
      "type": "function"
    },
    {
      "inputs": [],
      "name": "owner",
      "outputs": [
        {
          "internalType": "address",
          "name": "",
          "type": "address"
        }
      ],
      "stateMutability": "view",
      "type": "function"
    },
    {
      "inputs": [],
      "name": "rareToken",
      "outputs": [
        {
          "internalType": "address",
          "name": "",
          "type": "address"
        }
      ],
      "stateMutability": "view",
      "type": "function"
    },
    {
      "inputs": [],
      "name": "renounceOwnership",
      "outputs": [],
      "stateMutability": "nonpayable",
      "type": "function"
    },
    {
      "inputs": [
        {
          "internalType": "address",
          "name": "_goldToken",
          "type": "address"
        },
        {
          "internalType": "address",
          "name": "_silverToken",
          "type": "address"
        },
        {
          "internalType": "address",
          "name": "_rareToken",
          "type": "address"
        }
      ],
      "name": "setTokenAddresses",
      "outputs": [],
      "stateMutability": "nonpayable",
      "type": "function"
    },
    {
      "inputs": [],
      "name": "silverToken",
      "outputs": [
        {
          "internalType": "address",
          "name": "",
          "type": "address"
        }
      ],
      "stateMutability": "view",
      "type": "function"
    },
    {
      "inputs": [
        {
          "internalType": "address",
          "name": "",
          "type": "address"
        }
      ],
      "name": "tokenPrices",
      "outputs": [
        {
          "internalType": "uint256",
          "name": "price",
          "type": "uint256"
        },
        {
          "internalType": "uint256",
          "name": "lastUpdated",
          "type": "uint256"
        },
        {
          "internalType": "address",
          "name": "updatedBy",
          "type": "address"
        }
      ],
      "stateMutability": "view",
      "type": "function"
    },
    {
      "inputs": [
        {
          "internalType": "address",
          "name": "newOwner",
          "type": "address"
        }
      ],
      "name": "transferOwnership",
      "outputs": [],
      "stateMutability": "nonpayable",
      "type": "function"
    },
    {
      "inputs": [
        {
          "internalType": "uint256",
          "name": "goldPrice",
          "type": "uint256"
        },
        {
          "internalType": "uint256",
          "name": "silverPrice",
          "type": "uint256"
        },
        {
          "internalType": "uint256",
          "name": "rarePrice",
          "type": "uint256"
        }
      ],
      "name": "updateAllPrices",
      "outputs": [],
      "stateMutability": "nonpayable",
      "type": "function"
    },
    {
      "inputs": [
        {
          "internalType": "address",
          "name": "token",
          "type": "address"
        },
        {
          "internalType": "uint256",
          "name": "price",
          "type": "uint256"
        }
      ],
      "name": "updateTokenPrice",
      "outputs": [],
      "stateMutability": "nonpayable",
      "type": "function"
    }
  ],
  "bytecode": "0x608060405234801561001057600080fd5b50604051610e1d380380610e1d83398101604081905261002f91610184565b6100383361005a565b600180556001600160a01b0381161561005457610054816100aa565b506101b4565b600080546001600160a01b038381166001600160a01b0319831681178455604051919092169283917f8be0079c531659141344cd1fd0a4f28419497f9722a3daafe3b4186f6b6457e09190a35050565b6100b2610128565b6001600160a01b03811661011c5760405162461bcd60e51b815260206004820152602660248201527f4f776e61626c653a206e6577206f776e657220697320746865207a65726f206160448201526564647265737360d01b60648201526084015b60405180910390fd5b6101258161005a565b50565b6000546001600160a01b031633146101825760405162461bcd60e51b815260206004820181905260248201527f4f776e61626c653a2063616c6c6572206973206e6f7420746865206f776e65726044820152606401610113565b565b60006020828403121561019657600080fd5b81516001600160a01b03811681146101ad57600080fd5b9392505050565b610c5a806101c36000396000f3fe608060405234801561001057600080fd5b50600436106101165760003560e01c806394002b57116100a2578063d4ee651b11610071578063d4ee651b14610291578063da6bae10146102a4578063ee8c24b8146102ac578063f1a640f8146102df578063f2fde38b146102f557600080fd5b806394002b5714610250578063c34fe1dd14610263578063d02641a014610276578063d32104031461028957600080fd5b8063445df9d6116100e9578063445df9d6146101df5780634d3f9d3e146102075780634e279b791461021a578063715018a6146102375780638da5cb5b1461023f57600080fd5b80630bc16abe1461011b578063204120bc1461013057806338c21d1b1461019157806340947df1146101bc575b600080fd5b61012e610129366004610b0c565b610308565b005b61016861013e366004610b54565b6005602052600090815260409020805460018201546002909201549091906001600160a01b031683565b6040805193845260208401929092526001600160a01b0316908201526060015b60405180910390f35b6004546101a4906001600160a01b031681565b6040516001600160a01b039091168152602001610188565b6101cf6101ca366004610b76565b610512565b6040519015158152602001610188565b6101e7610582565b604080519485526020850193909352918301526060820152608001610188565b61012e610215366004610ba0565b61067a565b6102226107d4565b60408051928352602083019190915201610188565b61012e6107f6565b6000546001600160a01b03166101a4565b6002546101a4906001600160a01b031681565b6003546101a4906001600160a01b031681565b610222610284366004610b54565b61080a565b610222610853565b61012e61029f366004610b76565b61086d565b6102226109cf565b600254600354600454604080516001600160a01b0394851681529284166020840152921691810191909152606001610188565b6102e7600881565b604051908152602001610188565b61012e610303366004610b54565b6109e9565b610310610a62565b6000831180156103205750600082115b801561032c5750600081115b61037d5760405162461bcd60e51b815260206004820152601d60248201527f507269636573206d7573742062652067726561746572207468616e203000000060448201526064015b60405180910390fd5b604080516060808201835285825242602080840182815233858701818152600280546001600160a01b03908116600090815260058088528b82209a518b5595516001808c0191909155935199830180549a83166001600160a01b03199b8c161790558a51808a018c528d8152808801898152818d0187815260035485168452888a528d842092518355905182870155519084018054918416918c169190911790558a51808a018c528c8152808801898152818d0187815260045485168452978952918c902090518155905193810193909355935191810180549285169290981691909117909655945486518a815292830195909552948101919091529190921691600080516020610c05833981519152910160405180910390a260035460408051848152336020820152428183015290516001600160a01b0390921691600080516020610c058339815191529181900360600190a260045460408051838152336020820152428183015290516001600160a01b0390921691600080516020610c058339815191529181900360600190a2505050565b6001600160a01b038083166000908152600560209081526040808320815160608101835281548152600182015493810184905260029091015490941690840152909190820361056557600091505061057c565b828160200151426105769190610be3565b11159150505b92915050565b600280546001600160a01b03908116600090815260056020818152604080842081516060808201845282548252600183810154838701908152938a015489168386015260035489168852868652848820855180840187528154815281830154818901908152918c01548b16818801526004548b168a52978752858920865193840187528054845291820154968301969096529098015490961691870191909152905190519294859485948594919391929185911161064457826020015161064a565b83602001515b90508082602001511161065d5780610663565b81602001515b935192519151929891975091955091935090915050565b610682610a62565b6002546001600160a01b0316156106d05760405162461bcd60e51b8152602060048201526012602482015271151bdad95b9cc8185b1c9958591e481cd95d60721b6044820152606401610374565b6001600160a01b038316158015906106f057506001600160a01b03821615155b801561070457506001600160a01b03811615155b6107505760405162461bcd60e51b815260206004820152601760248201527f496e76616c696420746f6b656e206164647265737365730000000000000000006044820152606401610374565b600280546001600160a01b038581166001600160a01b0319928316811790935560038054868316908416811790915560048054928616929093168217909255604080519384526020840192909252908201527f5b298d21a3f20895e495bf3dcb889649b4381249a094782f2c49e9f5d015b9c59060600160405180910390a1505050565b60035460009081906107ee906001600160a01b031661080a565b915091509091565b6107fe610a62565b6108086000610abc565b565b6001600160a01b03908116600090815260056020908152604091829020825160608101845281548082526001830154938201849052600290920154909416939092019290925291565b60045460009081906107ee906001600160a01b031661080a565b610875610a62565b6002546001600160a01b038381169116148061089e57506003546001600160a01b038381169116145b806108b657506004546001600160a01b038381169116145b6108f25760405162461bcd60e51b815260206004820152600d60248201526c24b73b30b634b2103a37b5b2b760991b6044820152606401610374565b600081116109425760405162461bcd60e51b815260206004820152601c60248201527f5072696365206d7573742062652067726561746572207468616e2030000000006044820152606401610374565b6040805160608082018352838252426020808401828152338587018181526001600160a01b038a81166000818152600587528a902098518955935160018901559051600290970180546001600160a01b0319169790911696909617909555855187815291820194909452938401529091600080516020610c05833981519152910160405180910390a25050565b60025460009081906107ee906001600160a01b031661080a565b6109f1610a62565b6001600160a01b038116610a565760405162461bcd60e51b815260206004820152602660248201527f4f776e61626c653a206e6577206f776e657220697320746865207a65726f206160448201526564647265737360d01b6064820152608401610374565b610a5f81610abc565b50565b6000546001600160a01b031633146108085760405162461bcd60e51b815260206004820181905260248201527f4f776e61626c653a2063616c6c6572206973206e6f7420746865206f776e65726044820152606401610374565b600080546001600160a01b038381166001600160a01b0319831681178455604051919092169283917f8be0079c531659141344cd1fd0a4f28419497f9722a3daafe3b4186f6b6457e09190a35050565b600080600060608486031215610b2157600080fd5b505081359360208301359350604090920135919050565b80356001600160a01b0381168114610b4f57600080fd5b919050565b600060208284031215610b6657600080fd5b610b6f82610b38565b9392505050565b60008060408385031215610b8957600080fd5b610b9283610b38565b946020939093013593505050565b600080600060608486031215610bb557600080fd5b610bbe84610b38565b9250610bcc60208501610b38565b9150610bda60408501610b38565b90509250925092565b8181038181111561057c57634e487b7160e01b600052601160045260246000fdfec71c2e178d54f3a46742671fcbbdbbade697d8f5a8647b18268e5087918c375da26469706673582212205cb7689be082119862b2887a3b08964f37707b5bb3eb05ae98f4375273b4780b64736f6c634300081c0033",
  "linkReferences": {},
  "deployedLinkReferences": {}
}