{
  "_format": "hh-sol-artifact-1",
  "contractName": "Digitization",
  "sourceName": "contracts/Digitization.sol",
  "abi": [
    {
      "inputs": [
        {
          "internalType": "address",
          "name": "marketplaceAddress",
          "type": "address"
        },
        {
          "internalType": "string",
          "name": "_name",
          "type": "string"
        },
        {
          "internalType": "string",
          "name": "_symbol",
          "type": "string"
        },
        {
          "internalType": "address",
          "name": "_identityRegistry",
          "type": "address"
        }
      ],
      "stateMutability": "nonpayable",
      "type": "constructor"
    },
    {
      "anonymous": false,
      "inputs": [
        {
          "indexed": true,
          "internalType": "address",
          "name": "owner",
          "type": "address"
        },
        {
          "indexed": true,
          "internalType": "address",
          "name": "approved",
          "type": "address"
        },
        {
          "indexed": true,
          "internalType": "uint256",
          "name": "tokenId",
          "type": "uint256"
        }
      ],
      "name": "Approval",
      "type": "event"
    },
    {
      "anonymous": false,
      "inputs": [
        {
          "indexed": true,
          "internalType": "address",
          "name": "owner",
          "type": "address"
        },
        {
          "indexed": true,
          "internalType": "address",
          "name": "operator",
          "type": "address"
        },
        {
          "indexed": false,
          "internalType": "bool",
          "name": "approved",
          "type": "bool"
        }
      ],
      "name": "ApprovalForAll",
      "type": "event"
    },
    {
      "anonymous": false,
      "inputs": [
        {
          "indexed": false,
          "internalType": "uint256",
          "name": "_fromTokenId",
          "type": "uint256"
        },
        {
          "indexed": false,
          "internalType": "uint256",
          "name": "_toTokenId",
          "type": "uint256"
        }
      ],
      "name": "BatchMetadataUpdate",
      "type": "event"
    },
    {
      "anonymous": false,
      "inputs": [
        {
          "indexed": true,
          "internalType": "address",
          "name": "_identityRegistry",
          "type": "address"
        }
      ],
      "name": "IdentityRegistryAdded",
      "type": "event"
    },
    {
      "anonymous": false,
      "inputs": [
        {
          "indexed": false,
          "internalType": "uint256",
          "name": "_tokenId",
          "type": "uint256"
        }
      ],
      "name": "MetadataUpdate",
      "type": "event"
    },
    {
      "anonymous": false,
      "inputs": [
        {
          "indexed": true,
          "internalType": "address",
          "name": "previousOwner",
          "type": "address"
        },
        {
          "indexed": true,
          "internalType": "address",
          "name": "newOwner",
          "type": "address"
        }
      ],
      "name": "OwnershipTransferred",
      "type": "event"
    },
    {
      "anonymous": false,
      "inputs": [
        {
          "indexed": true,
          "internalType": "uint256",
          "name": "tokenId",
          "type": "uint256"
        },
        {
          "indexed": false,
          "internalType": "address",
          "name": "minter",
          "type": "address"
        }
      ],
      "name": "TokenGenerated",
      "type": "event"
    },
    {
      "anonymous": false,
      "inputs": [
        {
          "indexed": true,
          "internalType": "address",
          "name": "from",
          "type": "address"
        },
        {
          "indexed": true,
          "internalType": "address",
          "name": "to",
          "type": "address"
        },
        {
          "indexed": true,
          "internalType": "uint256",
          "name": "tokenId",
          "type": "uint256"
        }
      ],
      "name": "Transfer",
      "type": "event"
    },
    {
      "inputs": [
        {
          "internalType": "uint256",
          "name": "",
          "type": "uint256"
        }
      ],
      "name": "_tokenURIs",
      "outputs": [
        {
          "internalType": "string",
          "name": "",
          "type": "string"
        }
      ],
      "stateMutability": "view",
      "type": "function"
    },
    {
      "inputs": [
        {
          "internalType": "address",
          "name": "to",
          "type": "address"
        },
        {
          "internalType": "uint256",
          "name": "tokenId",
          "type": "uint256"
        }
      ],
      "name": "approve",
      "outputs": [],
      "stateMutability": "nonpayable",
      "type": "function"
    },
    {
      "inputs": [
        {
          "internalType": "address",
          "name": "owner",
          "type": "address"
        }
      ],
      "name": "balanceOf",
      "outputs": [
        {
          "internalType": "uint256",
          "name": "",
          "type": "uint256"
        }
      ],
      "stateMutability": "view",
      "type": "function"
    },
    {
      "inputs": [],
      "name": "deployer",
      "outputs": [
        {
          "internalType": "address",
          "name": "",
          "type": "address"
        }
      ],
      "stateMutability": "view",
      "type": "function"
    },
    {
      "inputs": [
        {
          "internalType": "string",
          "name": "_tokenURI",
          "type": "string"
        }
      ],
      "name": "digitizeIt",
      "outputs": [
        {
          "internalType": "uint256",
          "name": "",
          "type": "uint256"
        }
      ],
      "stateMutability": "nonpayable",
      "type": "function"
    },
    {
      "inputs": [
        {
          "internalType": "uint256",
          "name": "tokenId",
          "type": "uint256"
        }
      ],
      "name": "getApproved",
      "outputs": [
        {
          "internalType": "address",
          "name": "",
          "type": "address"
        }
      ],
      "stateMutability": "view",
      "type": "function"
    },
    {
      "inputs": [
        {
          "internalType": "address",
          "name": "owner",
          "type": "address"
        },
        {
          "internalType": "address",
          "name": "operator",
          "type": "address"
        }
      ],
      "name": "isApprovedForAll",
      "outputs": [
        {
          "internalType": "bool",
          "name": "",
          "type": "bool"
        }
      ],
      "stateMutability": "view",
      "type": "function"
    },
    {
      "inputs": [
        {
          "internalType": "uint256",
          "name": "",
          "type": "uint256"
        }
      ],
      "name": "minter",
      "outputs": [
        {
          "internalType": "address",
          "name": "",
          "type": "address"
        }
      ],
      "stateMutability": "view",
      "type": "function"
    },
    {
      "inputs": [],
      "name": "mktPlaceContractAddress",
      "outputs": [
        {
          "internalType": "address",
          "name": "",
          "type": "address"
        }
      ],
      "stateMutability": "view",
      "type": "function"
    },
    {
      "inputs": [],
      "name": "name",
      "outputs": [
        {
          "internalType": "string",
          "name": "",
          "type": "string"
        }
      ],
      "stateMutability": "view",
      "type": "function"
    },
    {
      "inputs": [],
      "name": "owner",
      "outputs": [
        {
          "internalType": "address",
          "name": "",
          "type": "address"
        }
      ],
      "stateMutability": "view",
      "type": "function"
    },
    {
      "inputs": [
        {
          "internalType": "uint256",
          "name": "tokenId",
          "type": "uint256"
        }
      ],
      "name": "ownerOf",
      "outputs": [
        {
          "internalType": "address",
          "name": "",
          "type": "address"
        }
      ],
      "stateMutability": "view",
      "type": "function"
    },
    {
      "inputs": [],
      "name": "renounceOwnership",
      "outputs": [],
      "stateMutability": "nonpayable",
      "type": "function"
    },
    {
      "inputs": [
        {
          "internalType": "address",
          "name": "from",
          "type": "address"
        },
        {
          "internalType": "address",
          "name": "to",
          "type": "address"
        },
        {
          "internalType": "uint256",
          "name": "tokenId",
          "type": "uint256"
        }
      ],
      "name": "safeTransferFrom",
      "outputs": [],
      "stateMutability": "nonpayable",
      "type": "function"
    },
    {
      "inputs": [
        {
          "internalType": "address",
          "name": "from",
          "type": "address"
        },
        {
          "internalType": "address",
          "name": "to",
          "type": "address"
        },
        {
          "internalType": "uint256",
          "name": "tokenId",
          "type": "uint256"
        },
        {
          "internalType": "bytes",
          "name": "data",
          "type": "bytes"
        }
      ],
      "name": "safeTransferFrom",
      "outputs": [],
      "stateMutability": "nonpayable",
      "type": "function"
    },
    {
      "inputs": [
        {
          "internalType": "address",
          "name": "operator",
          "type": "address"
        },
        {
          "internalType": "bool",
          "name": "approved",
          "type": "bool"
        }
      ],
      "name": "setApprovalForAll",
      "outputs": [],
      "stateMutability": "nonpayable",
      "type": "function"
    },
    {
      "inputs": [
        {
          "internalType": "bytes4",
          "name": "interfaceId",
          "type": "bytes4"
        }
      ],
      "name": "supportsInterface",
      "outputs": [
        {
          "internalType": "bool",
          "name": "",
          "type": "bool"
        }
      ],
      "stateMutability": "view",
      "type": "function"
    },
    {
      "inputs": [],
      "name": "symbol",
      "outputs": [
        {
          "internalType": "string",
          "name": "",
          "type": "string"
        }
      ],
      "stateMutability": "view",
      "type": "function"
    },
    {
      "inputs": [
        {
          "internalType": "uint256",
          "name": "_tokenId",
          "type": "uint256"
        }
      ],
      "name": "tokenURI",
      "outputs": [
        {
          "internalType": "string",
          "name": "",
          "type": "string"
        }
      ],
      "stateMutability": "view",
      "type": "function"
    },
    {
      "inputs": [
        {
          "internalType": "address",
          "name": "from",
          "type": "address"
        },
        {
          "internalType": "address",
          "name": "to",
          "type": "address"
        },
        {
          "internalType": "uint256",
          "name": "tokenId",
          "type": "uint256"
        }
      ],
      "name": "transferFrom",
      "outputs": [],
      "stateMutability": "nonpayable",
      "type": "function"
    },
    {
      "inputs": [
        {
          "internalType": "address",
          "name": "newOwner",
          "type": "address"
        }
      ],
      "name": "transferOwnership",
      "outputs": [],
      "stateMutability": "nonpayable",
      "type": "function"
    },
    {
      "inputs": [
        {
          "internalType": "address",
          "name": "_owner",
          "type": "address"
        }
      ],
      "name": "walletOfOwner",
      "outputs": [
        {
          "internalType": "uint256[]",
          "name": "",
          "type": "uint256[]"
        }
      ],
      "stateMutability": "view",
      "type": "function"
    },
    {
      "inputs": [],
      "name": "withdraw",
      "outputs": [],
      "stateMutability": "nonpayable",
      "type": "function"
    }
  ],
  "bytecode": "0x608060405234620004015762001d34803803806200001d8162000406565b928339810190608081830312620004015762000039816200042c565b6020828101519093906001600160401b03908181116200040157826200006191860162000441565b916040850151908282116200040157620000846060916200008c93880162000441565b95016200042c565b93825190828211620003eb576000968754926001958685811c95168015620003e0575b83861014620003cc578190601f9586811162000379575b50839086831160011462000315578b9262000309575b5050600019600383901b1c191690861b1788555b8151938411620002f55784548581811c91168015620002ea575b82821014620002d65790818486959493116200027f575b508092841160011462000217575087926200020b575b5050600019600383901b1c191690821b1781555b600780546001600160a01b031980821633908117909355946001600160a01b03938493919290919084167f8be0079c531659141344cd1fd0a4f28419497f9722a3daafe3b4186f6b6457e08980a36008551691620001ab831515620004b3565b1690620001ba821515620004b3565b8083600a541617600a557fd2be862d755bca7e0d39772b2cab3a5578da9c285f69199f4c063c2294a7f36c6040519480a281600b541617600b553390600d541617600d556118339081620005018239f35b01519050388062000137565b9190859450601f198416858a52838a20938a905b8282106200026557505084116200024b575b505050811b0181556200014b565b015160001960f88460031b161c191690553880806200023d565b84840151865588979095019493840193908101906200022b565b90919293508589528189208480870160051c820192848810620002cc575b9187968992969594930160051c01915b828110620002bd57505062000121565b8b8155879650889101620002ad565b925081926200029d565b634e487b7160e01b89526022600452602489fd5b90607f16906200010a565b634e487b7160e01b88526041600452602488fd5b015190503880620000dc565b8b8052848c208994509190601f1984168d5b8782821062000362575050841162000348575b505050811b018855620000f0565b015160001960f88460031b161c191690553880806200033a565b8385015186558c9790950194938401930162000327565b9091508a8052838b208680850160051c820192868610620003c2575b918a91869594930160051c01915b828110620003b3575050620000c6565b8d81558594508a9101620003a3565b9250819262000395565b634e487b7160e01b8a52602260045260248afd5b94607f1694620000af565b634e487b7160e01b600052604160045260246000fd5b600080fd5b6040519190601f01601f191682016001600160401b03811183821017620003eb57604052565b51906001600160a01b03821682036200040157565b919080601f84011215620004015782516001600160401b038111620003eb5760209062000477601f8201601f1916830162000406565b92818452828287010111620004015760005b8181106200049f57508260009394955001015290565b858101830151848201840152820162000489565b15620004bb57565b60405162461bcd60e51b815260206004820152601f60248201527f696e76616c696420617267756d656e74202d207a65726f2061646472657373006044820152606490fdfe6080604081815260048036101561001557600080fd5b600092833560e01c90816301ffc9a714610f0a5750806306fdde0314610e62578063081812fc14610e42578063095ea7b314610cd55780630bb78ec114610cac57806323b872dd14610c825780633ccfd60b14610c3857806342842e0e14610be9578063438b630014610ad65780636352211e14610aa557806370a0823114610a78578063715018a614610a185780638da5cb5b146109ef57806395d89b411461090c578063a22cb46514610845578063a4c12db11461081c578063ac8d856c146107ea578063b88d4fde14610786578063c87b56dd146106c7578063d5f394881461069e578063e985e9c514610650578063f0ea249d146101e95763f2fde38b1461012057600080fd5b346101e55760203660031901126101e557610139610fd0565b906101426111a1565b6001600160a01b03918216928315610193575050600754826001600160601b0360a01b821617600755167f8be0079c531659141344cd1fd0a4f28419497f9722a3daafe3b4186f6b6457e08380a380f35b906020608492519162461bcd60e51b8352820152602660248201527f4f776e61626c653a206e6577206f776e657220697320746865207a65726f206160448201526564647265737360d01b6064820152fd5b8280fd5b5091903461064c57602092836003193601126101e55780359067ffffffffffffffff80831161064857366023840112156106485761023160249336908581860135910161116a565b9461023a61171e565b600a54855163b9209e3360e01b815233858201526001600160a01b03979189908290889082908c165afa90811561063e578391610608575b50156105d25760019485600954019788600955888452600c8a528784206001600160601b0360a01b90338282541617905533156105925760008a8152600260205260409020546102ce906001600160a01b031615155b15611774565b60008a8152600260205260409020546102f1906001600160a01b031615156102c8565b33855260038b5288852088815401905589855260028b528885209033908254161790558833857fddf252ad1be2c89b69c2b068fc378daa952ba7f163c4a11628f55a4df523b3ef8180a4600b54168033146105545733845260058a528784208185528a528784208760ff1982541617905587518781527f17307eab39ab6107e8899845ad3d59bd9653f200f220920489ca2b5937696c318b3392a36000888152600260205260409020546001600160a01b0316156104fc57878352600e89528683209482519485116104eb5750509082916103cc8554611001565b601f8111610499575b508891601f841160011461043a579261042f575b5050600019600383901b1c191690831b1790555b827f2282c406e8c7bf348b67ec1a975e5c41252dd5f91d4ea064330efa658b1ccba3858451338152a260085551908152f35b0151905038806103e9565b9190869450601f1984168684528a8420935b8b828210610483575050841161046a575b505050811b0190556103fd565b015160001960f88460031b161c1916905538808061045d565b838501518655899790950194938401930161044c565b90919250848352888320601f850160051c8101918a86106104e1575b8594939291601f89920160051c01915b8281106104d35750506103d5565b8481558695508891016104c5565b90915081906104b5565b634e487b7160e01b84526041905282fd5b84602e6084928b8a519362461bcd60e51b85528401528201527f45524337323155524953746f726167653a2055524920736574206f66206e6f6e60448201526d32bc34b9ba32b73a103a37b5b2b760911b6064820152fd5b875162461bcd60e51b81528087018b90526019818401527822a9219b99189d1030b8383937bb32903a379031b0b63632b960391b6044820152606490fd5b6064878c85818d519362461bcd60e51b85528401528201527f4552433732313a206d696e7420746f20746865207a65726f20616464726573736044820152fd5b855162461bcd60e51b8152808501899052601181870152702737ba103b32b934b334b2b2103ab9b2b960791b6044820152606490fd5b90508881813d8311610637575b61061f818361103b565b810103126101e5575180151581036101e55738610272565b503d610615565b87513d85823e3d90fd5b8480fd5b5080fd5b50503461064c578060031936011261064c5760ff81602093610670610fd0565b610678610feb565b6001600160a01b0391821683526005875283832091168252855220549151911615158152f35b50503461064c578160031936011261064c57600d5490516001600160a01b039091168152602090f35b5082903461064c57602036600319011261064c5780356000818152600260205260409020549091906001600160a01b03161561072b57610727846107148186868152600e60205220611073565b9051918291602083526020830190610f90565b0390f35b608490602085519162461bcd60e51b8352820152602f60248201527f4552433732314d657461646174613a2055524920717565727920666f72206e6f60448201526e3732bc34b9ba32b73a103a37b5b2b760891b6064820152fd5b83823461064c57608036600319011261064c576107a1610fd0565b6107a9610feb565b9060643567ffffffffffffffff81116106485736602382011215610648576107e7938160246107dd9336930135910161116a565b9160443591611382565b80f35b50346101e55760203660031901126101e557358252600c6020908152918190205490516001600160a01b039091168152f35b50503461064c578160031936011261064c57600b5490516001600160a01b039091168152602090f35b5090346101e557806003193601126101e55761085f610fd0565b9060243591821515809303610648576001600160a01b0316923384146108ce5750338452600560205280842083855260205280842060ff1981541660ff8416179055519081527f17307eab39ab6107e8899845ad3d59bd9653f200f220920489ca2b5937696c3160203392a380f35b6020606492519162461bcd60e51b8352820152601960248201527822a9219b99189d1030b8383937bb32903a379031b0b63632b960391b6044820152fd5b50503461064c578160031936011261064c5780519082600180549161093083611001565b808652928281169081156109c7575060011461096b575b5050506109598261072794038361103b565b51918291602083526020830190610f90565b94508085527fb10e2d527612073b26eecdfd717e6a320cf44b4afac2b0732d9fcbe2b7fa0cf65b8286106109af575050506109598260206107279582010194610947565b80546020878701810191909152909501948101610992565b61072797508693506020925061095994915060ff191682840152151560051b82010194610947565b50503461064c578160031936011261064c5760075490516001600160a01b039091168152602090f35b8334610a755780600319360112610a7557610a316111a1565b600780546001600160a01b0319811690915581906001600160a01b03167f8be0079c531659141344cd1fd0a4f28419497f9722a3daafe3b4186f6b6457e08280a380f35b80fd5b50503461064c57602036600319011261064c57602090610a9e610a99610fd0565b6111f9565b9051908152f35b509134610a75576020366003190112610a755750610ac5602092356112bc565b90516001600160a01b039091168152f35b509134610a75576020928360031936011261064c5790610af4610fd0565b91610afe836111f9565b94610b08866117c0565b91610b158651938461103b565b868352610b21876117c0565b8383019790601f190136893760019585906001600160a01b0390811690885b848410610b80575050505050508451948186019282875251809352850195925b828110610b6d5785870386f35b8351875295810195928101928401610b60565b8282610b92839e9c9e9b999a9b6112bc565b1614610bae575b610ba2906117d8565b9a989a97969597610b40565b928851811015610bd657610bce81858a610ba29460051b8d0101526117d8565b939050610b99565b634e487b7160e01b875260328652602487fd5b5091903461064c57610bfa36611119565b91835193602085019085821067ffffffffffffffff831117610c25576107e796975052858452611382565b634e487b7160e01b875260418852602487fd5b8334610a755780600319360112610a7557610c516111a1565b610c5961171e565b8080808060018060a01b036007541647905af1610c746115f6565b5015610a7557600160085580f35b8334610a75576107e7610c9436611119565b91610ca7610ca2843361141d565b611320565b6114e5565b50346101e55760203660031901126101e557816107279361071492358152600e60205220611073565b50346101e557816003193601126101e557610cee610fd0565b6024359290916001600160a01b0391908280610d09876112bc565b16941693808514610df557803314908115610dd6575b5015610d6e57848652602052842080546001600160a01b03191683179055610d46836112bc565b167f8c5be1e5ebec7d5bd14f71427d1e84f3dd0314c0f7b2291e5b200ac8c7c3b9258480a480f35b6020608492519162461bcd60e51b8352820152603d60248201527f4552433732313a20617070726f76652063616c6c6572206973206e6f7420746f60448201527f6b656e206f776e6572206f7220617070726f76656420666f7220616c6c0000006064820152fd5b90508652600560205281862033875260205260ff828720541638610d1f565b506020608492519162461bcd60e51b8352820152602160248201527f4552433732313a20617070726f76616c20746f2063757272656e74206f776e656044820152603960f91b6064820152fd5b509134610a75576020366003190112610a755750610ac5602092356112e2565b50503461064c578160031936011261064c57805190828054610e8381611001565b808552916001918083169081156109c75750600114610eae575050506109598261072794038361103b565b80809650527f290decd9548b62a8d60345a988386fc84ba6bc95484008f6362f93160ef3e5635b828610610ef2575050506109598260206107279582010194610947565b80546020878701810191909152909501948101610ed5565b925050346101e55760203660031901126101e5573563ffffffff60e01b81168091036101e55760209250632483248360e11b8114908115610f4d575b5015158152f35b6380ac58cd60e01b811491508115610f7f575b8115610f6e575b5038610f46565b6301ffc9a760e01b14905038610f67565b635b5e139f60e01b81149150610f60565b919082519283825260005b848110610fbc575050826000602080949584010152601f8019910116010190565b602081830181015184830182015201610f9b565b600435906001600160a01b0382168203610fe657565b600080fd5b602435906001600160a01b0382168203610fe657565b90600182811c92168015611031575b602083101461101b57565b634e487b7160e01b600052602260045260246000fd5b91607f1691611010565b90601f8019910116810190811067ffffffffffffffff82111761105d57604052565b634e487b7160e01b600052604160045260246000fd5b906040519182600082549261108784611001565b9081845260019485811690816000146110f657506001146110b3575b50506110b19250038361103b565b565b9093915060005260209081600020936000915b8183106110de5750506110b1935082010138806110a3565b855488840185015294850194879450918301916110c6565b9150506110b194506020925060ff191682840152151560051b82010138806110a3565b6060906003190112610fe6576001600160a01b03906004358281168103610fe657916024359081168103610fe6579060443590565b67ffffffffffffffff811161105d57601f01601f191660200190565b9291926111768261114e565b91611184604051938461103b565b829481845281830111610fe6578281602093846000960137010152565b6007546001600160a01b031633036111b557565b606460405162461bcd60e51b815260206004820152602060248201527f4f776e61626c653a2063616c6c6572206973206e6f7420746865206f776e65726044820152fd5b6001600160a01b0316801561121957600052600360205260406000205490565b60405162461bcd60e51b815260206004820152602960248201527f4552433732313a2061646472657373207a65726f206973206e6f7420612076616044820152683634b21037bbb732b960b91b6064820152608490fd5b1561127757565b60405162461bcd60e51b815260206004820152601860248201527f4552433732313a20696e76616c696420746f6b656e20494400000000000000006044820152606490fd5b6000908152600260205260409020546001600160a01b03166112df811515611270565b90565b600081815260026020526040902054611305906001600160a01b03161515611270565b6000908152600460205260409020546001600160a01b031690565b1561132757565b60405162461bcd60e51b815260206004820152602d60248201527f4552433732313a2063616c6c6572206973206e6f7420746f6b656e206f776e6560448201526c1c881bdc88185c1c1c9bdd9959609a1b6064820152608490fd5b906113a6939291611396610ca2843361141d565b6113a18383836114e5565b611626565b156113ad57565b60405162461bcd60e51b8152806113c6600482016113ca565b0390fd5b60809060208152603260208201527f4552433732313a207472616e7366657220746f206e6f6e20455243373231526560408201527131b2b4bb32b91034b6b83632b6b2b73a32b960711b60608201520190565b906001600160a01b038080611431846112bc565b16931691838314938415611464575b50831561144e575b50505090565b61145a919293506112e2565b1614388080611448565b909350600052600560205260406000208260005260205260ff604060002054169238611440565b1561149257565b60405162461bcd60e51b815260206004820152602560248201527f4552433732313a207472616e736665722066726f6d20696e636f72726563742060448201526437bbb732b960d91b6064820152608490fd5b9061150d916114f3846112bc565b6001600160a01b039391841692849290918316841461148b565b169182156115a5578161152a91611523866112bc565b161461148b565b7fddf252ad1be2c89b69c2b068fc378daa952ba7f163c4a11628f55a4df523b3ef60008481526004602052604081206001600160601b0360a01b9081815416905583825260036020526040822060001981540190558482526040822060018154019055858252600260205284604083209182541617905580a4565b60405162461bcd60e51b8152602060048201526024808201527f4552433732313a207472616e7366657220746f20746865207a65726f206164646044820152637265737360e01b6064820152608490fd5b3d15611621573d906116078261114e565b91611615604051938461103b565b82523d6000602084013e565b606090565b91926000929190813b156117145760209161167c9185604051958680958194630a85bd0160e11b9b8c845233600485015260018060a01b0380951660248501526044840152608060648401526084830190610f90565b0393165af1908290826116cc575b50506116be576116986115f6565b805190816116b95760405162461bcd60e51b8152806113c6600482016113ca565b602001fd5b6001600160e01b0319161490565b909192506020813d821161170c575b816116e86020938361103b565b8101031261064c5751906001600160e01b031982168203610a75575090388061168a565b3d91506116db565b5050505050600190565b60026008541461172f576002600855565b60405162461bcd60e51b815260206004820152601f60248201527f5265656e7472616e637947756172643a207265656e7472616e742063616c6c006044820152606490fd5b1561177b57565b60405162461bcd60e51b815260206004820152601c60248201527f4552433732313a20746f6b656e20616c7265616479206d696e746564000000006044820152606490fd5b67ffffffffffffffff811161105d5760051b60200190565b60001981146117e75760010190565b634e487b7160e01b600052601160045260246000fdfea2646970667358221220ea3cc9033eeb530ef3145a08a2ed9ac1347cb0ab8a30c807e72a2666040e374164736f6c63430008110033",
  "linkReferences": {},
  "deployedLinkReferences": {}
}