{
  "_format": "hh-sol-artifact-1",
  "contractName": "TransferRestrictModule",
  "sourceName": "contracts/compliance/modular/modules/TransferRestrictModule.sol",
  "abi": [
    {
      "anonymous": false,
      "inputs": [
        {
          "indexed": false,
          "internalType": "address",
          "name": "previousAdmin",
          "type": "address"
        },
        {
          "indexed": false,
          "internalType": "address",
          "name": "newAdmin",
          "type": "address"
        }
      ],
      "name": "AdminChanged",
      "type": "event"
    },
    {
      "anonymous": false,
      "inputs": [
        {
          "indexed": true,
          "internalType": "address",
          "name": "beacon",
          "type": "address"
        }
      ],
      "name": "BeaconUpgraded",
      "type": "event"
    },
    {
      "anonymous": false,
      "inputs": [
        {
          "indexed": true,
          "internalType": "address",
          "name": "_compliance",
          "type": "address"
        }
      ],
      "name": "ComplianceBound",
      "type": "event"
    },
    {
      "anonymous": false,
      "inputs": [
        {
          "indexed": true,
          "internalType": "address",
          "name": "_compliance",
          "type": "address"
        }
      ],
      "name": "ComplianceUnbound",
      "type": "event"
    },
    {
      "anonymous": false,
      "inputs": [
        {
          "indexed": false,
          "internalType": "uint8",
          "name": "version",
          "type": "uint8"
        }
      ],
      "name": "Initialized",
      "type": "event"
    },
    {
      "anonymous": false,
      "inputs": [
        {
          "indexed": true,
          "internalType": "address",
          "name": "previousOwner",
          "type": "address"
        },
        {
          "indexed": true,
          "internalType": "address",
          "name": "newOwner",
          "type": "address"
        }
      ],
      "name": "OwnershipTransferred",
      "type": "event"
    },
    {
      "anonymous": false,
      "inputs": [
        {
          "indexed": true,
          "internalType": "address",
          "name": "implementation",
          "type": "address"
        }
      ],
      "name": "Upgraded",
      "type": "event"
    },
    {
      "anonymous": false,
      "inputs": [
        {
          "indexed": false,
          "internalType": "address",
          "name": "_compliance",
          "type": "address"
        },
        {
          "indexed": false,
          "internalType": "address",
          "name": "_userAddress",
          "type": "address"
        }
      ],
      "name": "UserAllowed",
      "type": "event"
    },
    {
      "anonymous": false,
      "inputs": [
        {
          "indexed": false,
          "internalType": "address",
          "name": "_compliance",
          "type": "address"
        },
        {
          "indexed": false,
          "internalType": "address",
          "name": "_userAddress",
          "type": "address"
        }
      ],
      "name": "UserDisallowed",
      "type": "event"
    },
    {
      "inputs": [
        {
          "internalType": "address",
          "name": "_userAddress",
          "type": "address"
        }
      ],
      "name": "allowUser",
      "outputs": [],
      "stateMutability": "nonpayable",
      "type": "function"
    },
    {
      "inputs": [
        {
          "internalType": "address[]",
          "name": "_userAddresses",
          "type": "address[]"
        }
      ],
      "name": "batchAllowUsers",
      "outputs": [],
      "stateMutability": "nonpayable",
      "type": "function"
    },
    {
      "inputs": [
        {
          "internalType": "address[]",
          "name": "_userAddresses",
          "type": "address[]"
        }
      ],
      "name": "batchDisallowUsers",
      "outputs": [],
      "stateMutability": "nonpayable",
      "type": "function"
    },
    {
      "inputs": [
        {
          "internalType": "address",
          "name": "_compliance",
          "type": "address"
        }
      ],
      "name": "bindCompliance",
      "outputs": [],
      "stateMutability": "nonpayable",
      "type": "function"
    },
    {
      "inputs": [
        {
          "internalType": "address",
          "name": "",
          "type": "address"
        }
      ],
      "name": "canComplianceBind",
      "outputs": [
        {
          "internalType": "bool",
          "name": "",
          "type": "bool"
        }
      ],
      "stateMutability": "view",
      "type": "function"
    },
    {
      "inputs": [
        {
          "internalType": "address",
          "name": "_userAddress",
          "type": "address"
        }
      ],
      "name": "disallowUser",
      "outputs": [],
      "stateMutability": "nonpayable",
      "type": "function"
    },
    {
      "inputs": [],
      "name": "initialize",
      "outputs": [],
      "stateMutability": "nonpayable",
      "type": "function"
    },
    {
      "inputs": [
        {
          "internalType": "address",
          "name": "_compliance",
          "type": "address"
        }
      ],
      "name": "isComplianceBound",
      "outputs": [
        {
          "internalType": "bool",
          "name": "",
          "type": "bool"
        }
      ],
      "stateMutability": "view",
      "type": "function"
    },
    {
      "inputs": [],
      "name": "isPlugAndPlay",
      "outputs": [
        {
          "internalType": "bool",
          "name": "",
          "type": "bool"
        }
      ],
      "stateMutability": "pure",
      "type": "function"
    },
    {
      "inputs": [
        {
          "internalType": "address",
          "name": "_compliance",
          "type": "address"
        },
        {
          "internalType": "address",
          "name": "_userAddress",
          "type": "address"
        }
      ],
      "name": "isUserAllowed",
      "outputs": [
        {
          "internalType": "bool",
          "name": "",
          "type": "bool"
        }
      ],
      "stateMutability": "view",
      "type": "function"
    },
    {
      "inputs": [
        {
          "internalType": "address",
          "name": "_from",
          "type": "address"
        },
        {
          "internalType": "uint256",
          "name": "_value",
          "type": "uint256"
        }
      ],
      "name": "moduleBurnAction",
      "outputs": [],
      "stateMutability": "nonpayable",
      "type": "function"
    },
    {
      "inputs": [
        {
          "internalType": "address",
          "name": "_from",
          "type": "address"
        },
        {
          "internalType": "address",
          "name": "_to",
          "type": "address"
        },
        {
          "internalType": "uint256",
          "name": "",
          "type": "uint256"
        },
        {
          "internalType": "address",
          "name": "_compliance",
          "type": "address"
        }
      ],
      "name": "moduleCheck",
      "outputs": [
        {
          "internalType": "bool",
          "name": "",
          "type": "bool"
        }
      ],
      "stateMutability": "view",
      "type": "function"
    },
    {
      "inputs": [
        {
          "internalType": "address",
          "name": "_to",
          "type": "address"
        },
        {
          "internalType": "uint256",
          "name": "_value",
          "type": "uint256"
        }
      ],
      "name": "moduleMintAction",
      "outputs": [],
      "stateMutability": "nonpayable",
      "type": "function"
    },
    {
      "inputs": [
        {
          "internalType": "address",
          "name": "_from",
          "type": "address"
        },
        {
          "internalType": "address",
          "name": "_to",
          "type": "address"
        },
        {
          "internalType": "uint256",
          "name": "_value",
          "type": "uint256"
        }
      ],
      "name": "moduleTransferAction",
      "outputs": [],
      "stateMutability": "nonpayable",
      "type": "function"
    },
    {
      "inputs": [],
      "name": "name",
      "outputs": [
        {
          "internalType": "string",
          "name": "_name",
          "type": "string"
        }
      ],
      "stateMutability": "pure",
      "type": "function"
    },
    {
      "inputs": [],
      "name": "owner",
      "outputs": [
        {
          "internalType": "address",
          "name": "",
          "type": "address"
        }
      ],
      "stateMutability": "view",
      "type": "function"
    },
    {
      "inputs": [],
      "name": "proxiableUUID",
      "outputs": [
        {
          "internalType": "bytes32",
          "name": "",
          "type": "bytes32"
        }
      ],
      "stateMutability": "view",
      "type": "function"
    },
    {
      "inputs": [],
      "name": "renounceOwnership",
      "outputs": [],
      "stateMutability": "nonpayable",
      "type": "function"
    },
    {
      "inputs": [
        {
          "internalType": "address",
          "name": "newOwner",
          "type": "address"
        }
      ],
      "name": "transferOwnership",
      "outputs": [],
      "stateMutability": "nonpayable",
      "type": "function"
    },
    {
      "inputs": [
        {
          "internalType": "address",
          "name": "_compliance",
          "type": "address"
        }
      ],
      "name": "unbindCompliance",
      "outputs": [],
      "stateMutability": "nonpayable",
      "type": "function"
    },
    {
      "inputs": [
        {
          "internalType": "address",
          "name": "newImplementation",
          "type": "address"
        }
      ],
      "name": "upgradeTo",
      "outputs": [],
      "stateMutability": "nonpayable",
      "type": "function"
    },
    {
      "inputs": [
        {
          "internalType": "address",
          "name": "newImplementation",
          "type": "address"
        },
        {
          "internalType": "bytes",
          "name": "data",
          "type": "bytes"
        }
      ],
      "name": "upgradeToAndCall",
      "outputs": [],
      "stateMutability": "payable",
      "type": "function"
    }
  ],
  "bytecode": "0x60a0806040523461003157306080526116179081610037823960805181818161066f015281816107960152610b6a0152f35b600080fdfe6040608081526004908136101561001557600080fd5b600091823560e01c8063013b7ce414610f335780630694a5fb14610e9a57806306fdde0314610e215780632cb7e1ec14610dfe57806332bb1f1614610d385780633659cfe614610b43578063372491a2146101a75780634a93254414610a685780634cf4d29514610a1d5780634f1ef2861461071c57806352d1902d1461065a57806358591fb7146105b4578063715018a614610557578063726bb46514610486578063771c456f146103d75780638129fc1c146102895780638da5cb5b14610260578063a9fb3b3514610212578063bcc21053146101ec578063e6f5e807146101d0578063f104a8c9146101a75763f2fde38b1461011357600080fd5b346101a35760203660031901126101a35761012c610f84565b916101356110ff565b6001600160a01b03831615610151578361014e84611157565b80f35b906020608492519162461bcd60e51b8352820152602660248201527f4f776e61626c653a206e6577206f776e657220697320746865207a65726f206160448201526564647265737360d01b6064820152fd5b8280fd5b5050346101cc573660031901126101c9576101c0610f84565b5061014e611524565b80fd5b5080fd5b5050346101cc57816003193601126101cc576020905160018152f35b5050346101cc5760203660031901126101cc5760209061020a610f84565b505160018152f35b5050346101cc57806003193601126101cc5760ff81602093610232610f84565b61023a610f9f565b6001600160a01b03918216835260c9875283832091168252855220549151911615158152f35b5050346101cc57816003193601126101cc5760335490516001600160a01b039091168152602090f35b50346101a357826003193601126101a357825460ff8160081c1615918280936103ca575b80156103b3575b15610359575060ff198116600117845581610348575b506102ed60ff845460081c166102df81611475565b6102e881611475565b611475565b6102f633611157565b82549061030860ff8360081c16611475565b610310578280f35b61ff001916825551600181527f7f26b83ff96e1f2b6a682f133852f6798a09c465da95921460cefb384740249890602090a138808280f35b61ffff1916610101178355386102ca565b608490602085519162461bcd60e51b8352820152602e60248201527f496e697469616c697a61626c653a20636f6e747261637420697320616c72656160448201526d191e481a5b9a5d1a585b1a5e995960921b6064820152fd5b50303b1580156102b45750600160ff8316146102b4565b50600160ff8316106102ad565b5050346101cc5760203660031901126101cc576104807f767240d3c58c1058ed268ca225eb1cc93d85cf46b6e85d8d120b39921475b1c191610417610f84565b903385526000805160206115c283398151915260205261043c60ff8287205416611429565b3380865260c960209081528287206001600160a01b0394909416808852938152828720805460ff191660011790559151908152908101919091529081906040820190565b0390a180f35b5050346101cc5761049636611052565b903383526020906000805160206115c283398151915282526104bd60ff8286205416611429565b825192845b8481106104cd578580f35b610552907f767240d3c58c1058ed268ca225eb1cc93d85cf46b6e85d8d120b39921475b1c161054a6001600160a01b0361050784876114fa565b5133808c5260c98a52888c2092909116808c52918952878b20805460ff1916600117905587519081526001600160a01b0390911660208201529081906040820190565b0390a16114d5565b6104c2565b83346101c957806003193601126101c9576105706110ff565b603380546001600160a01b0319811690915581906001600160a01b03167f8be0079c531659141344cd1fd0a4f28419497f9722a3daafe3b4186f6b6457e08280a380f35b5050346101cc5760203660031901126101cc576104807fe9ab2574b9b111f06f42baaa274030c7228b1dad45b248037101cd11de348240916105f4610f84565b903385526000805160206115c283398151915260205261061960ff8287205416611429565b3380865260c960209081528287206001600160a01b0394909416808852938152828720805460ff191690559151908152908101919091529081906040820190565b5082346101c957806003193601126101c957507f00000000000000000000000000000000000000000000000000000000000000006001600160a01b031630036106b457602082516000805160206115a28339815191528152f35b6020608492519162461bcd60e51b8352820152603860248201527f555550535570677261646561626c653a206d757374206e6f742062652063616c60448201527f6c6564207468726f7567682064656c656761746563616c6c00000000000000006064820152fd5b5090806003193601126101a357610731610f84565b906024359067ffffffffffffffff8211610a195736602383011215610a19578184013561075d816110e3565b61076983519182611030565b818152866020948583019336602482840101116101a3578060248893018637830101526001600160a01b037f00000000000000000000000000000000000000000000000000000000000000008116906107c4308314156111a0565b6107e16000805160206115a2833981519152928284541614611201565b6107e96110ff565b7f4910fdfa16fed3260ed0e7147f7cc6da11a60208b5b9406d12a635614ffd91435460ff16156108235750505050505061014e9150611262565b869293949596169085516352d1902d60e01b815287818a81865afa8a91816109e6575b506108a557865162461bcd60e51b8152808a01899052602e60248201527f45524331393637557067726164653a206e657720696d706c656d656e7461746960448201526d6f6e206973206e6f74205555505360901b6064820152608490fd5b97919293969594970361099157506108bc82611262565b7fbc7cd75a20ee27fd9adebab32041f755214dbc6bffa90cc0225b39da2e5c2d3b8780a285845115801590610989575b6108fa575b50505050505080f35b806109739684519661090b88610ffe565b602788527f416464726573733a206c6f772d6c6576656c2064656c65676174652063616c6c87890152660819985a5b195960ca1b868901525190845af4913d1561097f573d61096561095c826110e3565b92519283611030565b81528681943d92013e6112f2565b503880808080856108f1565b50606092506112f2565b5060016108ec565b835162461bcd60e51b8152908101859052602960248201527f45524331393637557067726164653a20756e737570706f727465642070726f786044820152681a58589b195555525160ba1b6064820152608490fd5b9091508881813d8311610a12575b6109fe8183611030565b81010312610a0e57519038610846565b8a80fd5b503d6109f4565b8480fd5b5050346101cc5760203660031901126101cc5760209160ff9082906001600160a01b03610a48610f84565b1681526000805160206115c2833981519152855220541690519015158152f35b5090346101a35760203660031901126101a3576001600160a01b03610a8b610f84565b1691610a98831515611387565b8284526000805160206115c2833981519152908160205260ff8386205416610b005750610ac68333146113d3565b8284526020528220805460ff191660011790557f1f7b76c58fb697eb53c6c7c1becb96911516a136e24d7ced386b2355358b75a38280a280f35b606490602084519162461bcd60e51b8352820152601860248201527f636f6d706c69616e636520616c726561647920626f756e6400000000000000006044820152fd5b5090346101a357602080600319360112610d3457610b5f610f84565b916001600160a01b037f00000000000000000000000000000000000000000000000000000000000000008116610b97308214156111a0565b610bb46000805160206115a2833981519152918383541614611201565b610bbc6110ff565b8251908482019282841067ffffffffffffffff851117610d21578385528883527f4910fdfa16fed3260ed0e7147f7cc6da11a60208b5b9406d12a635614ffd91435460ff1615610c165750505050505061014e9150611262565b869293949596169085516352d1902d60e01b815287818a81865afa8a9181610cf2575b50610c9857865162461bcd60e51b8152808a01899052602e60248201527f45524331393637557067726164653a206e657720696d706c656d656e7461746960448201526d6f6e206973206e6f74205555505360901b6064820152608490fd5b9791929396959497036109915750610caf82611262565b7fbc7cd75a20ee27fd9adebab32041f755214dbc6bffa90cc0225b39da2e5c2d3b8780a285845115801590610ceb576108fa5750505050505080f35b50806108ec565b9091508881813d8311610d1a575b610d0a8183611030565b81010312610a0e57519038610c39565b503d610d00565b634e487b7160e01b895260418852602489fd5b8380fd5b5050346101cc57610d4836611052565b903383526020906000805160206115c28339815191528252610d6f60ff8286205416611429565b825192845b848110610d7f578580f35b610df9907fe9ab2574b9b111f06f42baaa274030c7228b1dad45b248037101cd11de34824061054a6001600160a01b03610db984876114fa565b5133808c5260c98a52888c2092909116808c52918952878b20805460ff1916905587519081526001600160a01b0390911660208201529081906040820190565b610d74565b83346101c95760603660031901126101c957610e18610f84565b506101c0610f9f565b509190346101cc57816003193601126101cc578051918183019083821067ffffffffffffffff831117610e875750610e839350815260168252755472616e7366657252657374726963744d6f64756c6560501b60208301525191829182610fb5565b0390f35b634e487b7160e01b815260418552602490fd5b5050346101cc5760203660031901126101cc57610eb5610f84565b903383526000805160206115c28339815191529182602052610edc60ff8386205416611429565b6001600160a01b031691610ef1831515611387565b610efc8333146113d3565b8284526020528220805460ff191690557f408b49d9be1c914c52a0227e18a077e5a892dddf32a26cfa94a5d9708fad77188280a280f35b5050346101cc5760803660031901126101cc57610f4e610f84565b610f56610f9f565b606435939091906001600160a01b03851685036101c9575092610f7b9160209461154d565b90519015158152f35b600435906001600160a01b0382168203610f9a57565b600080fd5b602435906001600160a01b0382168203610f9a57565b6020808252825181830181905290939260005b828110610fea57505060409293506000838284010152601f8019910116010190565b818101860151848201604001528501610fc8565b6060810190811067ffffffffffffffff82111761101a57604052565b634e487b7160e01b600052604160045260246000fd5b90601f8019910116810190811067ffffffffffffffff82111761101a57604052565b602080600319830112610f9a5767ffffffffffffffff91600435838111610f9a5781602382011215610f9a57806004013593841161101a578360051b906040519461109f85840187611030565b8552602484860192820101928311610f9a57602401905b8282106110c4575050505090565b81356001600160a01b0381168103610f9a5781529083019083016110b6565b67ffffffffffffffff811161101a57601f01601f191660200190565b6033546001600160a01b0316330361111357565b606460405162461bcd60e51b815260206004820152602060248201527f4f776e61626c653a2063616c6c6572206973206e6f7420746865206f776e65726044820152fd5b603380546001600160a01b039283166001600160a01b0319821681179092559091167f8be0079c531659141344cd1fd0a4f28419497f9722a3daafe3b4186f6b6457e0600080a3565b156111a757565b60405162461bcd60e51b815260206004820152602c60248201527f46756e6374696f6e206d7573742062652063616c6c6564207468726f7567682060448201526b19195b1959d85d1958d85b1b60a21b6064820152608490fd5b1561120857565b60405162461bcd60e51b815260206004820152602c60248201527f46756e6374696f6e206d7573742062652063616c6c6564207468726f7567682060448201526b6163746976652070726f787960a01b6064820152608490fd5b803b15611297576000805160206115a283398151915280546001600160a01b0319166001600160a01b03909216919091179055565b60405162461bcd60e51b815260206004820152602d60248201527f455243313936373a206e657720696d706c656d656e746174696f6e206973206e60448201526c1bdd08184818dbdb9d1c9858dd609a1b6064820152608490fd5b919290156113545750815115611306575090565b3b1561130f5790565b60405162461bcd60e51b815260206004820152601d60248201527f416464726573733a2063616c6c20746f206e6f6e2d636f6e74726163740000006044820152606490fd5b8251909150156113675750805190602001fd5b60405162461bcd60e51b81529081906113839060048301610fb5565b0390fd5b1561138e57565b60405162461bcd60e51b815260206004820152601f60248201527f696e76616c696420617267756d656e74202d207a65726f2061646472657373006044820152606490fd5b156113da57565b60405162461bcd60e51b815260206004820152602160248201527f6f6e6c7920636f6d706c69616e636520636f6e74726163742063616e2063616c6044820152601b60fa1b6064820152608490fd5b1561143057565b60405162461bcd60e51b815260206004820152601e60248201527f6f6e6c7920626f756e6420636f6d706c69616e63652063616e2063616c6c00006044820152606490fd5b1561147c57565b60405162461bcd60e51b815260206004820152602b60248201527f496e697469616c697a61626c653a20636f6e7472616374206973206e6f74206960448201526a6e697469616c697a696e6760a81b6064820152608490fd5b60001981146114e45760010190565b634e487b7160e01b600052601160045260246000fd5b805182101561150e5760209160051b010190565b634e487b7160e01b600052603260045260246000fd5b336000526000805160206115c283398151915260205261154b60ff60406000205416611429565b565b60018060a01b038093169160009183835260c960205284604084209116835260205260ff6040832054166115985760ff93604093835260c96020528383209116825260205220541690565b5050505060019056fe360894a13ba1a3210667c828492db98dca3e2076cc3735a920a3ca505d382bbcf6cc97de1266c180cd39f3b311632644143ce7873d2927755382ad4b39e8ae00a2646970667358221220efe686309fab3b6ebd26c92ed0efde6717e931cb36ab62b75814054d88eb53df64736f6c63430008110033",
  "linkReferences": {},
  "deployedLinkReferences": {}
}