{
  "_format": "hh-sol-artifact-1",
  "contractName": "SecurityToken",
  "sourceName": "contracts/SecurityToken.sol",
  "abi": [
    {
      "inputs": [],
      "name": "InvalidInitialization",
      "type": "error"
    },
    {
      "inputs": [],
      "name": "NotInitializing",
      "type": "error"
    },
    {
      "inputs": [
        {
          "internalType": "address",
          "name": "owner",
          "type": "address"
        }
      ],
      "name": "OwnableInvalidOwner",
      "type": "error"
    },
    {
      "inputs": [
        {
          "internalType": "address",
          "name": "account",
          "type": "address"
        }
      ],
      "name": "OwnableUnauthorizedAccount",
      "type": "error"
    },
    {
      "anonymous": false,
      "inputs": [
        {
          "indexed": true,
          "internalType": "address",
          "name": "_userAddress",
          "type": "address"
        },
        {
          "indexed": true,
          "internalType": "bool",
          "name": "_isFrozen",
          "type": "bool"
        },
        {
          "indexed": true,
          "internalType": "address",
          "name": "_owner",
          "type": "address"
        }
      ],
      "name": "AddressFrozen",
      "type": "event"
    },
    {
      "anonymous": false,
      "inputs": [
        {
          "indexed": true,
          "internalType": "address",
          "name": "_agent",
          "type": "address"
        }
      ],
      "name": "AgentAdded",
      "type": "event"
    },
    {
      "anonymous": false,
      "inputs": [
        {
          "indexed": true,
          "internalType": "address",
          "name": "_agent",
          "type": "address"
        }
      ],
      "name": "AgentRemoved",
      "type": "event"
    },
    {
      "anonymous": false,
      "inputs": [
        {
          "indexed": true,
          "internalType": "address",
          "name": "owner",
          "type": "address"
        },
        {
          "indexed": true,
          "internalType": "address",
          "name": "spender",
          "type": "address"
        },
        {
          "indexed": false,
          "internalType": "uint256",
          "name": "value",
          "type": "uint256"
        }
      ],
      "name": "Approval",
      "type": "event"
    },
    {
      "anonymous": false,
      "inputs": [
        {
          "indexed": true,
          "internalType": "address",
          "name": "_compliance",
          "type": "address"
        }
      ],
      "name": "ComplianceAdded",
      "type": "event"
    },
    {
      "anonymous": false,
      "inputs": [
        {
          "indexed": false,
          "internalType": "uint64",
          "name": "version",
          "type": "uint64"
        }
      ],
      "name": "Initialized",
      "type": "event"
    },
    {
      "anonymous": false,
      "inputs": [
        {
          "indexed": false,
          "internalType": "uint256",
          "name": "newMaxSupply",
          "type": "uint256"
        }
      ],
      "name": "MaxSupplyIncreased",
      "type": "event"
    },
    {
      "anonymous": false,
      "inputs": [
        {
          "indexed": true,
          "internalType": "address",
          "name": "previousOwner",
          "type": "address"
        },
        {
          "indexed": true,
          "internalType": "address",
          "name": "newOwner",
          "type": "address"
        }
      ],
      "name": "OwnershipTransferred",
      "type": "event"
    },
    {
      "anonymous": false,
      "inputs": [
        {
          "indexed": false,
          "internalType": "address",
          "name": "_userAddress",
          "type": "address"
        }
      ],
      "name": "Paused",
      "type": "event"
    },
    {
      "anonymous": false,
      "inputs": [
        {
          "indexed": true,
          "internalType": "address",
          "name": "_lostWallet",
          "type": "address"
        },
        {
          "indexed": true,
          "internalType": "address",
          "name": "_newWallet",
          "type": "address"
        },
        {
          "indexed": true,
          "internalType": "address",
          "name": "_investorOnchainID",
          "type": "address"
        }
      ],
      "name": "RecoverySuccess",
      "type": "event"
    },
    {
      "anonymous": false,
      "inputs": [
        {
          "indexed": true,
          "internalType": "address",
          "name": "_userAddress",
          "type": "address"
        },
        {
          "indexed": false,
          "internalType": "uint256",
          "name": "_amount",
          "type": "uint256"
        }
      ],
      "name": "TokensFrozen",
      "type": "event"
    },
    {
      "anonymous": false,
      "inputs": [
        {
          "indexed": true,
          "internalType": "address",
          "name": "_userAddress",
          "type": "address"
        },
        {
          "indexed": false,
          "internalType": "uint256",
          "name": "_amount",
          "type": "uint256"
        }
      ],
      "name": "TokensUnfrozen",
      "type": "event"
    },
    {
      "anonymous": false,
      "inputs": [
        {
          "indexed": true,
          "internalType": "address",
          "name": "from",
          "type": "address"
        },
        {
          "indexed": true,
          "internalType": "address",
          "name": "to",
          "type": "address"
        },
        {
          "indexed": false,
          "internalType": "uint256",
          "name": "value",
          "type": "uint256"
        }
      ],
      "name": "Transfer",
      "type": "event"
    },
    {
      "anonymous": false,
      "inputs": [
        {
          "indexed": false,
          "internalType": "address",
          "name": "_userAddress",
          "type": "address"
        }
      ],
      "name": "Unpaused",
      "type": "event"
    },
    {
      "anonymous": false,
      "inputs": [
        {
          "indexed": true,
          "internalType": "string",
          "name": "_newName",
          "type": "string"
        },
        {
          "indexed": true,
          "internalType": "string",
          "name": "_newSymbol",
          "type": "string"
        },
        {
          "indexed": false,
          "internalType": "uint8",
          "name": "_newDecimals",
          "type": "uint8"
        },
        {
          "indexed": false,
          "internalType": "string",
          "name": "_newVersion",
          "type": "string"
        },
        {
          "indexed": true,
          "internalType": "address",
          "name": "_newOnchainID",
          "type": "address"
        }
      ],
      "name": "UpdatedTokenInformation",
      "type": "event"
    },
    {
      "inputs": [
        {
          "internalType": "address",
          "name": "_agent",
          "type": "address"
        }
      ],
      "name": "addAgent",
      "outputs": [],
      "stateMutability": "nonpayable",
      "type": "function"
    },
    {
      "inputs": [
        {
          "internalType": "address",
          "name": "owner",
          "type": "address"
        },
        {
          "internalType": "address",
          "name": "spender",
          "type": "address"
        }
      ],
      "name": "allowance",
      "outputs": [
        {
          "internalType": "uint256",
          "name": "",
          "type": "uint256"
        }
      ],
      "stateMutability": "view",
      "type": "function"
    },
    {
      "inputs": [
        {
          "internalType": "address",
          "name": "_spender",
          "type": "address"
        },
        {
          "internalType": "uint256",
          "name": "_amount",
          "type": "uint256"
        }
      ],
      "name": "approve",
      "outputs": [
        {
          "internalType": "bool",
          "name": "",
          "type": "bool"
        }
      ],
      "stateMutability": "nonpayable",
      "type": "function"
    },
    {
      "inputs": [
        {
          "internalType": "address",
          "name": "_userAddress",
          "type": "address"
        }
      ],
      "name": "balanceOf",
      "outputs": [
        {
          "internalType": "uint256",
          "name": "",
          "type": "uint256"
        }
      ],
      "stateMutability": "view",
      "type": "function"
    },
    {
      "inputs": [
        {
          "internalType": "address[]",
          "name": "_userAddresses",
          "type": "address[]"
        },
        {
          "internalType": "uint256[]",
          "name": "_amounts",
          "type": "uint256[]"
        }
      ],
      "name": "batchBurn",
      "outputs": [],
      "stateMutability": "nonpayable",
      "type": "function"
    },
    {
      "inputs": [
        {
          "internalType": "address[]",
          "name": "_fromList",
          "type": "address[]"
        },
        {
          "internalType": "address[]",
          "name": "_toList",
          "type": "address[]"
        },
        {
          "internalType": "uint256[]",
          "name": "_amounts",
          "type": "uint256[]"
        }
      ],
      "name": "batchForcedTransfer",
      "outputs": [],
      "stateMutability": "nonpayable",
      "type": "function"
    },
    {
      "inputs": [
        {
          "internalType": "address[]",
          "name": "_userAddresses",
          "type": "address[]"
        },
        {
          "internalType": "uint256[]",
          "name": "_amounts",
          "type": "uint256[]"
        }
      ],
      "name": "batchFreezePartialTokens",
      "outputs": [],
      "stateMutability": "nonpayable",
      "type": "function"
    },
    {
      "inputs": [
        {
          "internalType": "address[]",
          "name": "_toList",
          "type": "address[]"
        },
        {
          "internalType": "uint256[]",
          "name": "_amounts",
          "type": "uint256[]"
        }
      ],
      "name": "batchMint",
      "outputs": [],
      "stateMutability": "nonpayable",
      "type": "function"
    },
    {
      "inputs": [
        {
          "internalType": "address[]",
          "name": "_userAddresses",
          "type": "address[]"
        },
        {
          "internalType": "bool[]",
          "name": "_freeze",
          "type": "bool[]"
        }
      ],
      "name": "batchSetAddressFrozen",
      "outputs": [],
      "stateMutability": "nonpayable",
      "type": "function"
    },
    {
      "inputs": [
        {
          "internalType": "address[]",
          "name": "_toList",
          "type": "address[]"
        },
        {
          "internalType": "uint256[]",
          "name": "_amounts",
          "type": "uint256[]"
        }
      ],
      "name": "batchTransfer",
      "outputs": [],
      "stateMutability": "nonpayable",
      "type": "function"
    },
    {
      "inputs": [
        {
          "internalType": "address[]",
          "name": "_userAddresses",
          "type": "address[]"
        },
        {
          "internalType": "uint256[]",
          "name": "_amounts",
          "type": "uint256[]"
        }
      ],
      "name": "batchUnfreezePartialTokens",
      "outputs": [],
      "stateMutability": "nonpayable",
      "type": "function"
    },
    {
      "inputs": [
        {
          "internalType": "address",
          "name": "_userAddress",
          "type": "address"
        },
        {
          "internalType": "uint256",
          "name": "_amount",
          "type": "uint256"
        }
      ],
      "name": "burn",
      "outputs": [],
      "stateMutability": "nonpayable",
      "type": "function"
    },
    {
      "inputs": [],
      "name": "compliance",
      "outputs": [
        {
          "internalType": "contract IModularCompliance",
          "name": "",
          "type": "address"
        }
      ],
      "stateMutability": "view",
      "type": "function"
    },
    {
      "inputs": [],
      "name": "decimals",
      "outputs": [
        {
          "internalType": "uint8",
          "name": "",
          "type": "uint8"
        }
      ],
      "stateMutability": "view",
      "type": "function"
    },
    {
      "inputs": [
        {
          "internalType": "address",
          "name": "_from",
          "type": "address"
        },
        {
          "internalType": "address",
          "name": "_to",
          "type": "address"
        },
        {
          "internalType": "uint256",
          "name": "_amount",
          "type": "uint256"
        }
      ],
      "name": "forcedTransfer",
      "outputs": [
        {
          "internalType": "bool",
          "name": "",
          "type": "bool"
        }
      ],
      "stateMutability": "nonpayable",
      "type": "function"
    },
    {
      "inputs": [
        {
          "internalType": "address",
          "name": "_userAddress",
          "type": "address"
        },
        {
          "internalType": "uint256",
          "name": "_amount",
          "type": "uint256"
        }
      ],
      "name": "freezePartialTokens",
      "outputs": [],
      "stateMutability": "nonpayable",
      "type": "function"
    },
    {
      "inputs": [
        {
          "internalType": "address",
          "name": "_userAddress",
          "type": "address"
        }
      ],
      "name": "getFrozenTokens",
      "outputs": [
        {
          "internalType": "uint256",
          "name": "",
          "type": "uint256"
        }
      ],
      "stateMutability": "view",
      "type": "function"
    },
    {
      "inputs": [],
      "name": "identityStorage",
      "outputs": [
        {
          "internalType": "contract IIdentityStorage",
          "name": "",
          "type": "address"
        }
      ],
      "stateMutability": "view",
      "type": "function"
    },
    {
      "inputs": [
        {
          "internalType": "uint256",
          "name": "_newMaxSupply",
          "type": "uint256"
        }
      ],
      "name": "increaseMaxSupply",
      "outputs": [],
      "stateMutability": "nonpayable",
      "type": "function"
    },
    {
      "inputs": [
        {
          "internalType": "address",
          "name": "_identityStorage",
          "type": "address"
        },
        {
          "internalType": "address",
          "name": "_compliance",
          "type": "address"
        },
        {
          "internalType": "string",
          "name": "_name",
          "type": "string"
        },
        {
          "internalType": "string",
          "name": "_symbol",
          "type": "string"
        },
        {
          "internalType": "uint8",
          "name": "_decimals",
          "type": "uint8"
        },
        {
          "internalType": "uint256",
          "name": "_initialSupply",
          "type": "uint256"
        }
      ],
      "name": "init",
      "outputs": [],
      "stateMutability": "nonpayable",
      "type": "function"
    },
    {
      "inputs": [
        {
          "internalType": "address",
          "name": "_agent",
          "type": "address"
        }
      ],
      "name": "isAgent",
      "outputs": [
        {
          "internalType": "bool",
          "name": "",
          "type": "bool"
        }
      ],
      "stateMutability": "view",
      "type": "function"
    },
    {
      "inputs": [
        {
          "internalType": "address",
          "name": "_userAddress",
          "type": "address"
        }
      ],
      "name": "isFrozen",
      "outputs": [
        {
          "internalType": "bool",
          "name": "",
          "type": "bool"
        }
      ],
      "stateMutability": "view",
      "type": "function"
    },
    {
      "inputs": [],
      "name": "maxTotalSupply",
      "outputs": [
        {
          "internalType": "uint256",
          "name": "",
          "type": "uint256"
        }
      ],
      "stateMutability": "view",
      "type": "function"
    },
    {
      "inputs": [
        {
          "internalType": "address",
          "name": "_to",
          "type": "address"
        },
        {
          "internalType": "uint256",
          "name": "_amount",
          "type": "uint256"
        }
      ],
      "name": "mint",
      "outputs": [],
      "stateMutability": "nonpayable",
      "type": "function"
    },
    {
      "inputs": [],
      "name": "name",
      "outputs": [
        {
          "internalType": "string",
          "name": "",
          "type": "string"
        }
      ],
      "stateMutability": "view",
      "type": "function"
    },
    {
      "inputs": [],
      "name": "owner",
      "outputs": [
        {
          "internalType": "address",
          "name": "",
          "type": "address"
        }
      ],
      "stateMutability": "view",
      "type": "function"
    },
    {
      "inputs": [],
      "name": "pause",
      "outputs": [],
      "stateMutability": "nonpayable",
      "type": "function"
    },
    {
      "inputs": [],
      "name": "remainingMintableTokens",
      "outputs": [
        {
          "internalType": "uint256",
          "name": "",
          "type": "uint256"
        }
      ],
      "stateMutability": "view",
      "type": "function"
    },
    {
      "inputs": [
        {
          "internalType": "address",
          "name": "_agent",
          "type": "address"
        }
      ],
      "name": "removeAgent",
      "outputs": [],
      "stateMutability": "nonpayable",
      "type": "function"
    },
    {
      "inputs": [],
      "name": "renounceOwnership",
      "outputs": [],
      "stateMutability": "nonpayable",
      "type": "function"
    },
    {
      "inputs": [
        {
          "internalType": "address",
          "name": "_userAddress",
          "type": "address"
        },
        {
          "internalType": "bool",
          "name": "_freeze",
          "type": "bool"
        }
      ],
      "name": "setAddressFrozen",
      "outputs": [],
      "stateMutability": "nonpayable",
      "type": "function"
    },
    {
      "inputs": [
        {
          "internalType": "address",
          "name": "_compliance",
          "type": "address"
        }
      ],
      "name": "setCompliance",
      "outputs": [],
      "stateMutability": "nonpayable",
      "type": "function"
    },
    {
      "inputs": [
        {
          "internalType": "address",
          "name": "_identityStorage",
          "type": "address"
        }
      ],
      "name": "setIdentityStorage",
      "outputs": [],
      "stateMutability": "nonpayable",
      "type": "function"
    },
    {
      "inputs": [
        {
          "internalType": "string",
          "name": "_name",
          "type": "string"
        }
      ],
      "name": "setName",
      "outputs": [],
      "stateMutability": "nonpayable",
      "type": "function"
    },
    {
      "inputs": [
        {
          "internalType": "string",
          "name": "_symbol",
          "type": "string"
        }
      ],
      "name": "setSymbol",
      "outputs": [],
      "stateMutability": "nonpayable",
      "type": "function"
    },
    {
      "inputs": [],
      "name": "symbol",
      "outputs": [
        {
          "internalType": "string",
          "name": "",
          "type": "string"
        }
      ],
      "stateMutability": "view",
      "type": "function"
    },
    {
      "inputs": [],
      "name": "totalSupply",
      "outputs": [
        {
          "internalType": "uint256",
          "name": "",
          "type": "uint256"
        }
      ],
      "stateMutability": "view",
      "type": "function"
    },
    {
      "inputs": [
        {
          "internalType": "address",
          "name": "_to",
          "type": "address"
        },
        {
          "internalType": "uint256",
          "name": "_amount",
          "type": "uint256"
        }
      ],
      "name": "transfer",
      "outputs": [
        {
          "internalType": "bool",
          "name": "",
          "type": "bool"
        }
      ],
      "stateMutability": "nonpayable",
      "type": "function"
    },
    {
      "inputs": [
        {
          "internalType": "address",
          "name": "_from",
          "type": "address"
        },
        {
          "internalType": "address",
          "name": "_to",
          "type": "address"
        },
        {
          "internalType": "uint256",
          "name": "_amount",
          "type": "uint256"
        }
      ],
      "name": "transferFrom",
      "outputs": [
        {
          "internalType": "bool",
          "name": "",
          "type": "bool"
        }
      ],
      "stateMutability": "nonpayable",
      "type": "function"
    },
    {
      "inputs": [
        {
          "internalType": "address",
          "name": "newOwner",
          "type": "address"
        }
      ],
      "name": "transferOwnership",
      "outputs": [],
      "stateMutability": "nonpayable",
      "type": "function"
    },
    {
      "inputs": [
        {
          "internalType": "address",
          "name": "_userAddress",
          "type": "address"
        },
        {
          "internalType": "uint256",
          "name": "_amount",
          "type": "uint256"
        }
      ],
      "name": "unfreezePartialTokens",
      "outputs": [],
      "stateMutability": "nonpayable",
      "type": "function"
    },
    {
      "inputs": [],
      "name": "unpause",
      "outputs": [],
      "stateMutability": "nonpayable",
      "type": "function"
    }
  ],
  "bytecode": "0x60806040526000600860006101000a81548160ff021916908315150217905550348015602a57600080fd5b50615f3c8061003a6000396000f3fe608060405234801561001057600080fd5b506004361061025e5760003560e01c806381f28bc111610146578063a9059cbb116100c3578063e2e5c15c11610087578063e2e5c15c146106cb578063e5839836146106e9578063f11abfd814610719578063f2fde38b14610737578063f898178914610753578063fc7e5fa81461076f5761025e565b8063a9059cbb14610617578063b84c824614610647578063c47f002714610663578063c69c09cf1461067f578063dd62ed3e1461069b5761025e565b806390edbfee1161010a57806390edbfee1461057557806395d89b411461059157806397a6278e146105af5780639dc29fac146105cb5780639fc1d0e7146105e75761025e565b806381f28bc1146104f95780638456cb591461051557806384e798421461051f57806388d695b21461053b5780638da5cb5b146105575761025e565b8063313ce567116101df57806347ad53e3116101a357806347ad53e31461044d5780634a6cc677146104695780636290865d1461048557806368573107146104a357806370a08231146104bf578063715018a6146104ef5761025e565b8063313ce567146103d15780633f4ba83a146103ef57806340c10f19146103f957806342a47abc146104155780634710362d146104315761025e565b80631a7af379116102265780631a7af3791461031b5780631fe56f7d146103375780631ffbb0641461035357806323b872dd146103835780632ab4d052146103b35761025e565b806306fdde0314610263578063095ea7b314610281578063125c4a33146102b1578063158b1a57146102cd57806318160ddd146102fd575b600080fd5b61026b61078b565b604051610278919061405a565b60405180910390f35b61029b60048036038101906102969190614124565b61081d565b6040516102a8919061417f565b60405180910390f35b6102cb60048036038101906102c69190614124565b610834565b005b6102e760048036038101906102e2919061419a565b6109e2565b6040516102f491906141d6565b60405180910390f35b610305610a2b565b60405161031291906141d6565b60405180910390f35b610335600480360381019061033091906142ac565b610a35565b005b610351600480360381019061034c9190614124565b610b34565b005b61036d6004803603810190610368919061419a565b610ce3565b60405161037a919061417f565b60405180910390f35b61039d6004803603810190610398919061432d565b610d00565b6040516103aa919061417f565b60405180910390f35b6103bb61118c565b6040516103c891906141d6565b60405180910390f35b6103d9611192565b6040516103e6919061439c565b60405180910390f35b6103f76111a9565b005b610413600480360381019061040e9190614124565b611254565b005b61042f600480360381019061042a919061440d565b611531565b005b61044b600480360381019061044691906144c1565b6115c8565b005b6104676004803603810190610462919061419a565b611634565b005b610483600480360381019061047e91906144c1565b6116ef565b005b61048d6117e0565b60405161049a91906145a1565b60405180910390f35b6104bd60048036038101906104b891906144c1565b61180a565b005b6104d960048036038101906104d4919061419a565b6118fb565b6040516104e691906141d6565b60405180910390f35b6104f7611943565b005b610513600480360381019061050e9190614718565b611957565b005b61051d611db3565b005b6105396004803603810190610534919061419a565b611e5f565b005b610555600480360381019061055091906144c1565b611f30565b005b61055f611fe5565b60405161056c91906147ec565b60405180910390f35b61058f600480360381019061058a9190614807565b61201d565b005b6105996120f2565b6040516105a6919061405a565b60405180910390f35b6105c960048036038101906105c4919061419a565b612184565b005b6105e560048036038101906105e09190614124565b612255565b005b61060160048036038101906105fc919061432d565b612510565b60405161060e919061417f565b60405180910390f35b610631600480360381019061062c9190614124565b6128b8565b60405161063e919061417f565b60405180910390f35b610661600480360381019061065c919061488a565b612cb1565b005b61067d6004803603810190610678919061488a565b612d5d565b005b61069960048036038101906106949190614903565b612e09565b005b6106b560048036038101906106b09190614943565b612f46565b6040516106c291906141d6565b60405180910390f35b6106d3612fcd565b6040516106e091906141d6565b60405180910390f35b61070360048036038101906106fe919061419a565b612ff9565b604051610710919061417f565b60405180910390f35b61072161304f565b60405161072e91906149a4565b60405180910390f35b610751600480360381019061074c919061419a565b613075565b005b61076d6004803603810190610768919061419a565b6130fb565b005b610789600480360381019061078491906144c1565b6132fb565b005b60606003805461079a906149ee565b80601f01602080910402602001604051908101604052809291908181526020018280546107c6906149ee565b80156108135780601f106107e857610100808354040283529160200191610813565b820191906000526020600020905b8154815290600101906020018083116107f657829003601f168201915b5050505050905090565b600061082a338484613367565b6001905092915050565b3373ffffffffffffffffffffffffffffffffffffffff16610853611fe5565b73ffffffffffffffffffffffffffffffffffffffff16148061087a575061087933610ce3565b5b6108b9576040517f08c379a00000000000000000000000000000000000000000000000000000000081526004016108b090614a6b565b60405180910390fd5b806000808473ffffffffffffffffffffffffffffffffffffffff1673ffffffffffffffffffffffffffffffffffffffff16815260200190815260200160002054101561093a576040517f08c379a000000000000000000000000000000000000000000000000000000000815260040161093190614ad7565b60405180910390fd5b80600760008473ffffffffffffffffffffffffffffffffffffffff1673ffffffffffffffffffffffffffffffffffffffff16815260200190815260200160002060008282546109899190614b26565b925050819055508173ffffffffffffffffffffffffffffffffffffffff167fa065e63c631c86f1b9f66a4a2f63f2093bf1c2168d23290259dbd969e0222a45826040516109d691906141d6565b60405180910390a25050565b6000600760008373ffffffffffffffffffffffffffffffffffffffff1673ffffffffffffffffffffffffffffffffffffffff168152602001908152602001600020549050919050565b6000600254905090565b3373ffffffffffffffffffffffffffffffffffffffff16610a54611fe5565b73ffffffffffffffffffffffffffffffffffffffff161480610a7b5750610a7a33610ce3565b5b610aba576040517f08c379a0000000000000000000000000000000000000000000000000000000008152600401610ab190614a6b565b60405180910390fd5b60005b84849050811015610b2d57610b20858583818110610ade57610add614b5a565b5b9050602002016020810190610af3919061419a565b848484818110610b0657610b05614b5a565b5b9050602002016020810190610b1b9190614b89565b612e09565b8080600101915050610abd565b5050505050565b3373ffffffffffffffffffffffffffffffffffffffff16610b53611fe5565b73ffffffffffffffffffffffffffffffffffffffff161480610b7a5750610b7933610ce3565b5b610bb9576040517f08c379a0000000000000000000000000000000000000000000000000000000008152600401610bb090614a6b565b60405180910390fd5b80600760008473ffffffffffffffffffffffffffffffffffffffff1673ffffffffffffffffffffffffffffffffffffffff168152602001908152602001600020541015610c3b576040517f08c379a0000000000000000000000000000000000000000000000000000000008152600401610c3290614c28565b60405180910390fd5b80600760008473ffffffffffffffffffffffffffffffffffffffff1673ffffffffffffffffffffffffffffffffffffffff1681526020019081526020016000206000828254610c8a9190614c48565b925050819055508173ffffffffffffffffffffffffffffffffffffffff167f9bed35cb62ad0dba04f9d5bfee4b5bc91443e77da8a65c4c84834c51bb08b0d682604051610cd791906141d6565b60405180910390a25050565b6000610cf982603a61353090919063ffffffff16565b9050919050565b6000600860009054906101000a900460ff1615610d52576040517f08c379a0000000000000000000000000000000000000000000000000000000008152600401610d4990614cc8565b60405180910390fd5b600660008473ffffffffffffffffffffffffffffffffffffffff1673ffffffffffffffffffffffffffffffffffffffff16815260200190815260200160002060009054906101000a900460ff16158015610df65750600660008573ffffffffffffffffffffffffffffffffffffffff1673ffffffffffffffffffffffffffffffffffffffff16815260200190815260200160002060009054906101000a900460ff16155b610e35576040517f08c379a0000000000000000000000000000000000000000000000000000000008152600401610e2c90614d34565b60405180910390fd5b600760008573ffffffffffffffffffffffffffffffffffffffff1673ffffffffffffffffffffffffffffffffffffffff16815260200190815260200160002054610e7e856118fb565b610e889190614c48565b821115610eca576040517f08c379a0000000000000000000000000000000000000000000000000000000008152600401610ec190614da0565b60405180910390fd5b603b60009054906101000a900473ffffffffffffffffffffffffffffffffffffffff1673ffffffffffffffffffffffffffffffffffffffff16635092538a846040518263ffffffff1660e01b8152600401610f2591906147ec565b602060405180830381865afa158015610f42573d6000803e3d6000fd5b505050506040513d601f19601f82011682018060405250810190610f669190614dd5565b801561100e5750600860019054906101000a900473ffffffffffffffffffffffffffffffffffffffff1673ffffffffffffffffffffffffffffffffffffffff1663e46638e63385856040518463ffffffff1660e01b8152600401610fcc93929190614e02565b602060405180830381865afa158015610fe9573d6000803e3d6000fd5b505050506040513d601f19601f8201168201806040525081019061100d9190614dd5565b5b1561114a576110a5843384600160008973ffffffffffffffffffffffffffffffffffffffff1673ffffffffffffffffffffffffffffffffffffffff16815260200190815260200160002060003373ffffffffffffffffffffffffffffffffffffffff1673ffffffffffffffffffffffffffffffffffffffff168152602001908152602001600020546110a09190614c48565b613367565b6110b08484846135f7565b600860019054906101000a900473ffffffffffffffffffffffffffffffffffffffff1673ffffffffffffffffffffffffffffffffffffffff16638baf29b48585856040518463ffffffff1660e01b815260040161110f93929190614e02565b600060405180830381600087803b15801561112957600080fd5b505af115801561113d573d6000803e3d6000fd5b5050505060019050611185565b6040517f08c379a000000000000000000000000000000000000000000000000000000000815260040161117c90614e85565b60405180910390fd5b9392505050565b603d5481565b6000600560009054906101000a900460ff16905090565b6111b161386a565b600860009054906101000a900460ff16611200576040517f08c379a00000000000000000000000000000000000000000000000000000000081526004016111f790614ef1565b60405180910390fd5b6000600860006101000a81548160ff0219169083151502179055507f5db9ee0a495bf2e6ff9c91a7834c1ba4fdd244a5e8aa4e537bd38aeae4b073aa3360405161124a91906147ec565b60405180910390a1565b3373ffffffffffffffffffffffffffffffffffffffff16611273611fe5565b73ffffffffffffffffffffffffffffffffffffffff16148061129a575061129933610ce3565b5b6112d9576040517f08c379a00000000000000000000000000000000000000000000000000000000081526004016112d090614a6b565b60405180910390fd5b603b60009054906101000a900473ffffffffffffffffffffffffffffffffffffffff1673ffffffffffffffffffffffffffffffffffffffff16635092538a836040518263ffffffff1660e01b815260040161133491906147ec565b602060405180830381865afa158015611351573d6000803e3d6000fd5b505050506040513d601f19601f820116820180604052508101906113759190614dd5565b6113b4576040517f08c379a00000000000000000000000000000000000000000000000000000000081526004016113ab90614f5d565b60405180910390fd5b600860019054906101000a900473ffffffffffffffffffffffffffffffffffffffff1673ffffffffffffffffffffffffffffffffffffffff1663e46638e6600084846040518463ffffffff1660e01b815260040161141493929190614e02565b602060405180830381865afa158015611431573d6000803e3d6000fd5b505050506040513d601f19601f820116820180604052508101906114559190614dd5565b611494576040517f08c379a000000000000000000000000000000000000000000000000000000000815260040161148b90614fc9565b60405180910390fd5b61149e82826138f1565b600860019054906101000a900473ffffffffffffffffffffffffffffffffffffffff1673ffffffffffffffffffffffffffffffffffffffff16635f8dead383836040518363ffffffff1660e01b81526004016114fb929190614fe9565b600060405180830381600087803b15801561151557600080fd5b505af1158015611529573d6000803e3d6000fd5b505050505050565b60005b868690508110156115bf576115b187878381811061155557611554614b5a565b5b905060200201602081019061156a919061419a565b86868481811061157d5761157c614b5a565b5b9050602002016020810190611592919061419a565b8585858181106115a5576115a4614b5a565b5b90506020020135612510565b508080600101915050611534565b50505050505050565b60005b8484905081101561162d576116208585838181106115ec576115eb614b5a565b5b9050602002016020810190611601919061419a565b84848481811061161457611613614b5a565b5b90506020020135610b34565b80806001019150506115cb565b5050505050565b61163c61386a565b600073ffffffffffffffffffffffffffffffffffffffff168173ffffffffffffffffffffffffffffffffffffffff16036116ab576040517f08c379a00000000000000000000000000000000000000000000000000000000081526004016116a29061505e565b60405180910390fd5b80603b60006101000a81548173ffffffffffffffffffffffffffffffffffffffff021916908373ffffffffffffffffffffffffffffffffffffffff16021790555050565b3373ffffffffffffffffffffffffffffffffffffffff1661170e611fe5565b73ffffffffffffffffffffffffffffffffffffffff161480611735575061173433610ce3565b5b611774576040517f08c379a000000000000000000000000000000000000000000000000000000000815260040161176b90614a6b565b60405180910390fd5b60005b848490508110156117d9576117cc85858381811061179857611797614b5a565b5b90506020020160208101906117ad919061419a565b8484848181106117c0576117bf614b5a565b5b90506020020135613a8a565b8080600101915050611777565b5050505050565b6000600860019054906101000a900473ffffffffffffffffffffffffffffffffffffffff16905090565b3373ffffffffffffffffffffffffffffffffffffffff16611829611fe5565b73ffffffffffffffffffffffffffffffffffffffff161480611850575061184f33610ce3565b5b61188f576040517f08c379a000000000000000000000000000000000000000000000000000000000815260040161188690614a6b565b60405180910390fd5b60005b848490508110156118f4576118e78585838181106118b3576118b2614b5a565b5b90506020020160208101906118c8919061419a565b8484848181106118db576118da614b5a565b5b90506020020135611254565b8080600101915050611892565b5050505050565b60008060008373ffffffffffffffffffffffffffffffffffffffff1673ffffffffffffffffffffffffffffffffffffffff168152602001908152602001600020549050919050565b61194b61386a565b6119556000613c52565b565b6000611961613d29565b905060008160000160089054906101000a900460ff1615905060008260000160009054906101000a900467ffffffffffffffff1690506000808267ffffffffffffffff161480156119af5750825b9050600060018367ffffffffffffffff161480156119e4575060003073ffffffffffffffffffffffffffffffffffffffff163b145b9050811580156119f2575080155b15611a29576040517ff92ee8a900000000000000000000000000000000000000000000000000000000815260040160405180910390fd5b60018560000160006101000a81548167ffffffffffffffff021916908367ffffffffffffffff1602179055508315611a795760018560000160086101000a81548160ff0219169083151502179055505b600073ffffffffffffffffffffffffffffffffffffffff16611a99611fe5565b73ffffffffffffffffffffffffffffffffffffffff1614611aef576040517f08c379a0000000000000000000000000000000000000000000000000000000008152600401611ae6906150ca565b60405180910390fd5b600073ffffffffffffffffffffffffffffffffffffffff168b73ffffffffffffffffffffffffffffffffffffffff1614158015611b595750600073ffffffffffffffffffffffffffffffffffffffff168a73ffffffffffffffffffffffffffffffffffffffff1614155b611b98576040517f08c379a0000000000000000000000000000000000000000000000000000000008152600401611b8f9061505e565b60405180910390fd5b604051602001611ba790615110565b6040516020818303038152906040528051906020012089604051602001611bce919061405a565b6040516020818303038152906040528051906020012014158015611c3c5750604051602001611bfc90615110565b6040516020818303038152906040528051906020012088604051602001611c23919061405a565b6040516020818303038152906040528051906020012014155b611c7b576040517f08c379a0000000000000000000000000000000000000000000000000000000008152600401611c729061517c565b60405180910390fd5b8660ff16600011158015611c93575060128760ff1611155b611cd2576040517f08c379a0000000000000000000000000000000000000000000000000000000008152600401611cc9906151e8565b60405180910390fd5b611cdb33613d51565b8860039081611cea91906153aa565b508760049081611cfa91906153aa565b5086600560006101000a81548160ff021916908360ff1602179055506001600860006101000a81548160ff02191690831515021790555085603d81905550611d418b611634565b611d4a8a6130fb565b8315611da65760008560000160086101000a81548160ff0219169083151502179055507fc7f505b2f371ae2175ee4913f4499e1f2633a7b5936321eed1cdaeb6115181d26001604051611d9d91906154cb565b60405180910390a15b5050505050505050505050565b611dbb61386a565b600860009054906101000a900460ff1615611e0b576040517f08c379a0000000000000000000000000000000000000000000000000000000008152600401611e0290614cc8565b60405180910390fd5b6001600860006101000a81548160ff0219169083151502179055507f62e78cea01bee320cd4e420270b5ea74000d11b0c9f74754ebdbfc544b05a25833604051611e5591906147ec565b60405180910390a1565b611e6761386a565b600073ffffffffffffffffffffffffffffffffffffffff168173ffffffffffffffffffffffffffffffffffffffff1603611ed6576040517f08c379a0000000000000000000000000000000000000000000000000000000008152600401611ecd9061505e565b60405180910390fd5b611eea81603a613d6590919063ffffffff16565b8073ffffffffffffffffffffffffffffffffffffffff167ff68e73cec97f2d70aa641fb26e87a4383686e2efacb648f2165aeb02ac562ec560405160405180910390a250565b818190508484905014611f78576040517f08c379a0000000000000000000000000000000000000000000000000000000008152600401611f6f90615532565b60405180910390fd5b60005b84849050811015611fde57611fd0858583818110611f9c57611f9b614b5a565b5b9050602002016020810190611fb1919061419a565b848484818110611fc457611fc3614b5a565b5b905060200201356128b8565b508080600101915050611f7b565b5050505050565b600080611ff0613e0d565b90508060000160009054906101000a900473ffffffffffffffffffffffffffffffffffffffff1691505090565b61202561386a565b603d548111612069576040517f08c379a0000000000000000000000000000000000000000000000000000000008152600401612060906155c4565b60405180910390fd5b603d54600254146120af576040517f08c379a00000000000000000000000000000000000000000000000000000000081526004016120a690615656565b60405180910390fd5b80603d819055507fb13396178e3c32f4f63fc96b91a9f44e3e523c78acf9ea37f609bce51f7a69ce603d546040516120e791906141d6565b60405180910390a150565b606060048054612101906149ee565b80601f016020809104026020016040519081016040528092919081815260200182805461212d906149ee565b801561217a5780601f1061214f5761010080835404028352916020019161217a565b820191906000526020600020905b81548152906001019060200180831161215d57829003601f168201915b5050505050905090565b61218c61386a565b600073ffffffffffffffffffffffffffffffffffffffff168173ffffffffffffffffffffffffffffffffffffffff16036121fb576040517f08c379a00000000000000000000000000000000000000000000000000000000081526004016121f29061505e565b60405180910390fd5b61220f81603a613e3590919063ffffffff16565b8073ffffffffffffffffffffffffffffffffffffffff167fed9c8ad8d5a0a66898ea49d2956929c93ae2e8bd50281b2ed897c5d1a6737e0b60405160405180910390a250565b3373ffffffffffffffffffffffffffffffffffffffff16612274611fe5565b73ffffffffffffffffffffffffffffffffffffffff16148061229b575061229a33610ce3565b5b6122da576040517f08c379a00000000000000000000000000000000000000000000000000000000081526004016122d190614a6b565b60405180910390fd5b806122e4836118fb565b1015612325576040517f08c379a000000000000000000000000000000000000000000000000000000000815260040161231c906156c2565b60405180910390fd5b6000600760008473ffffffffffffffffffffffffffffffffffffffff1673ffffffffffffffffffffffffffffffffffffffff16815260200190815260200160002054612370846118fb565b61237a9190614c48565b90508082111561247257600081836123929190614c48565b905080600760008673ffffffffffffffffffffffffffffffffffffffff1673ffffffffffffffffffffffffffffffffffffffff168152602001908152602001600020546123df9190614c48565b600760008673ffffffffffffffffffffffffffffffffffffffff1673ffffffffffffffffffffffffffffffffffffffff168152602001908152602001600020819055508373ffffffffffffffffffffffffffffffffffffffff167f9bed35cb62ad0dba04f9d5bfee4b5bc91443e77da8a65c4c84834c51bb08b0d68260405161246891906141d6565b60405180910390a2505b61247c8383613a8a565b600860019054906101000a900473ffffffffffffffffffffffffffffffffffffffff1673ffffffffffffffffffffffffffffffffffffffff16638d2ea77284846040518363ffffffff1660e01b81526004016124d9929190614fe9565b600060405180830381600087803b1580156124f357600080fd5b505af1158015612507573d6000803e3d6000fd5b50505050505050565b60003373ffffffffffffffffffffffffffffffffffffffff16612531611fe5565b73ffffffffffffffffffffffffffffffffffffffff161480612558575061255733610ce3565b5b612597576040517f08c379a000000000000000000000000000000000000000000000000000000000815260040161258e90614a6b565b60405180910390fd5b816125a1856118fb565b10156125e2576040517f08c379a00000000000000000000000000000000000000000000000000000000081526004016125d99061572e565b60405180910390fd5b6000600760008673ffffffffffffffffffffffffffffffffffffffff1673ffffffffffffffffffffffffffffffffffffffff1681526020019081526020016000205461262d866118fb565b6126379190614c48565b90508083111561272f576000818461264f9190614c48565b905080600760008873ffffffffffffffffffffffffffffffffffffffff1673ffffffffffffffffffffffffffffffffffffffff1681526020019081526020016000205461269c9190614c48565b600760008873ffffffffffffffffffffffffffffffffffffffff1673ffffffffffffffffffffffffffffffffffffffff168152602001908152602001600020819055508573ffffffffffffffffffffffffffffffffffffffff167f9bed35cb62ad0dba04f9d5bfee4b5bc91443e77da8a65c4c84834c51bb08b0d68260405161272591906141d6565b60405180910390a2505b603b60009054906101000a900473ffffffffffffffffffffffffffffffffffffffff1673ffffffffffffffffffffffffffffffffffffffff16635092538a856040518263ffffffff1660e01b815260040161278a91906147ec565b602060405180830381865afa1580156127a7573d6000803e3d6000fd5b505050506040513d601f19601f820116820180604052508101906127cb9190614dd5565b15612876576127db8585856135f7565b600860019054906101000a900473ffffffffffffffffffffffffffffffffffffffff1673ffffffffffffffffffffffffffffffffffffffff16638baf29b48686866040518463ffffffff1660e01b815260040161283a93929190614e02565b600060405180830381600087803b15801561285457600080fd5b505af1158015612868573d6000803e3d6000fd5b5050505060019150506128b1565b6040517f08c379a00000000000000000000000000000000000000000000000000000000081526004016128a890614e85565b60405180910390fd5b9392505050565b6000600860009054906101000a900460ff161561290a576040517f08c379a000000000000000000000000000000000000000000000000000000000815260040161290190614cc8565b60405180910390fd5b600660008473ffffffffffffffffffffffffffffffffffffffff1673ffffffffffffffffffffffffffffffffffffffff16815260200190815260200160002060009054906101000a900460ff161580156129ae5750600660003373ffffffffffffffffffffffffffffffffffffffff1673ffffffffffffffffffffffffffffffffffffffff16815260200190815260200160002060009054906101000a900460ff16155b6129ed576040517f08c379a00000000000000000000000000000000000000000000000000000000081526004016129e490614d34565b60405180910390fd5b600760003373ffffffffffffffffffffffffffffffffffffffff1673ffffffffffffffffffffffffffffffffffffffff16815260200190815260200160002054612a36336118fb565b612a409190614c48565b821115612a82576040517f08c379a0000000000000000000000000000000000000000000000000000000008152600401612a7990614da0565b60405180910390fd5b603b60009054906101000a900473ffffffffffffffffffffffffffffffffffffffff1673ffffffffffffffffffffffffffffffffffffffff16635092538a846040518263ffffffff1660e01b8152600401612add91906147ec565b602060405180830381865afa158015612afa573d6000803e3d6000fd5b505050506040513d601f19601f82011682018060405250810190612b1e9190614dd5565b8015612bc65750600860019054906101000a900473ffffffffffffffffffffffffffffffffffffffff1673ffffffffffffffffffffffffffffffffffffffff1663e46638e63385856040518463ffffffff1660e01b8152600401612b8493929190614e02565b602060405180830381865afa158015612ba1573d6000803e3d6000fd5b505050506040513d601f19601f82011682018060405250810190612bc59190614dd5565b5b15612c7057612bd63384846135f7565b600860019054906101000a900473ffffffffffffffffffffffffffffffffffffffff1673ffffffffffffffffffffffffffffffffffffffff16638baf29b43385856040518463ffffffff1660e01b8152600401612c3593929190614e02565b600060405180830381600087803b158015612c4f57600080fd5b505af1158015612c63573d6000803e3d6000fd5b5050505060019050612cab565b6040517f08c379a0000000000000000000000000000000000000000000000000000000008152600401612ca290614e85565b60405180910390fd5b92915050565b612cb961386a565b604051602001612cc890615110565b604051602081830303815290604052805190602001208282604051602001612cf192919061577b565b6040516020818303038152906040528051906020012003612d47576040517f08c379a0000000000000000000000000000000000000000000000000000000008152600401612d3e9061517c565b60405180910390fd5b818160049182612d589291906157aa565b505050565b612d6561386a565b604051602001612d7490615110565b604051602081830303815290604052805190602001208282604051602001612d9d92919061577b565b6040516020818303038152906040528051906020012003612df3576040517f08c379a0000000000000000000000000000000000000000000000000000000008152600401612dea9061517c565b60405180910390fd5b818160039182612e049291906157aa565b505050565b3373ffffffffffffffffffffffffffffffffffffffff16612e28611fe5565b73ffffffffffffffffffffffffffffffffffffffff161480612e4f5750612e4e33610ce3565b5b612e8e576040517f08c379a0000000000000000000000000000000000000000000000000000000008152600401612e8590614a6b565b60405180910390fd5b80600660008473ffffffffffffffffffffffffffffffffffffffff1673ffffffffffffffffffffffffffffffffffffffff16815260200190815260200160002060006101000a81548160ff0219169083151502179055503373ffffffffffffffffffffffffffffffffffffffff168115158373ffffffffffffffffffffffffffffffffffffffff167f7fa523c84ab8d7fc5b72f08b9e46dbbf10c39e119a075b3e317002d14bc9f43660405160405180910390a45050565b6000600160008473ffffffffffffffffffffffffffffffffffffffff1673ffffffffffffffffffffffffffffffffffffffff16815260200190815260200160002060008373ffffffffffffffffffffffffffffffffffffffff1673ffffffffffffffffffffffffffffffffffffffff16815260200190815260200160002054905092915050565b6000603d5460025410612fe35760009050612ff6565b600254603d54612ff39190614c48565b90505b90565b6000600660008373ffffffffffffffffffffffffffffffffffffffff1673ffffffffffffffffffffffffffffffffffffffff16815260200190815260200160002060009054906101000a900460ff169050919050565b603b60009054906101000a900473ffffffffffffffffffffffffffffffffffffffff1681565b61307d61386a565b600073ffffffffffffffffffffffffffffffffffffffff168173ffffffffffffffffffffffffffffffffffffffff16036130ef5760006040517f1e4fbdf70000000000000000000000000000000000000000000000000000000081526004016130e691906147ec565b60405180910390fd5b6130f881613c52565b50565b61310361386a565b600073ffffffffffffffffffffffffffffffffffffffff16600860019054906101000a900473ffffffffffffffffffffffffffffffffffffffff1673ffffffffffffffffffffffffffffffffffffffff16146131e757600860019054906101000a900473ffffffffffffffffffffffffffffffffffffffff1673ffffffffffffffffffffffffffffffffffffffff166340db3b50306040518263ffffffff1660e01b81526004016131b491906147ec565b600060405180830381600087803b1580156131ce57600080fd5b505af11580156131e2573d6000803e3d6000fd5b505050505b80600860016101000a81548173ffffffffffffffffffffffffffffffffffffffff021916908373ffffffffffffffffffffffffffffffffffffffff160217905550600860019054906101000a900473ffffffffffffffffffffffffffffffffffffffff1673ffffffffffffffffffffffffffffffffffffffff16633ff5aa02306040518263ffffffff1660e01b815260040161328391906147ec565b600060405180830381600087803b15801561329d57600080fd5b505af11580156132b1573d6000803e3d6000fd5b505050508073ffffffffffffffffffffffffffffffffffffffff167f7f3a888862559648ec01d97deb7b5012bff86dc91e654a1de397170db40e35b660405160405180910390a250565b60005b848490508110156133605761335385858381811061331f5761331e614b5a565b5b9050602002016020810190613334919061419a565b84848481811061334757613346614b5a565b5b90506020020135610834565b80806001019150506132fe565b5050505050565b600073ffffffffffffffffffffffffffffffffffffffff168373ffffffffffffffffffffffffffffffffffffffff16036133d6576040517f08c379a00000000000000000000000000000000000000000000000000000000081526004016133cd906158ec565b60405180910390fd5b600073ffffffffffffffffffffffffffffffffffffffff168273ffffffffffffffffffffffffffffffffffffffff1603613445576040517f08c379a000000000000000000000000000000000000000000000000000000000815260040161343c9061597e565b60405180910390fd5b80600160008573ffffffffffffffffffffffffffffffffffffffff1673ffffffffffffffffffffffffffffffffffffffff16815260200190815260200160002060008473ffffffffffffffffffffffffffffffffffffffff1673ffffffffffffffffffffffffffffffffffffffff168152602001908152602001600020819055508173ffffffffffffffffffffffffffffffffffffffff168373ffffffffffffffffffffffffffffffffffffffff167f8c5be1e5ebec7d5bd14f71427d1e84f3dd0314c0f7b2291e5b200ac8c7c3b9258360405161352391906141d6565b60405180910390a3505050565b60008073ffffffffffffffffffffffffffffffffffffffff168273ffffffffffffffffffffffffffffffffffffffff16036135a0576040517f08c379a000000000000000000000000000000000000000000000000000000000815260040161359790615a10565b60405180910390fd5b8260000160008373ffffffffffffffffffffffffffffffffffffffff1673ffffffffffffffffffffffffffffffffffffffff16815260200190815260200160002060009054906101000a900460ff16905092915050565b600073ffffffffffffffffffffffffffffffffffffffff168373ffffffffffffffffffffffffffffffffffffffff1603613666576040517f08c379a000000000000000000000000000000000000000000000000000000000815260040161365d90615aa2565b60405180910390fd5b600073ffffffffffffffffffffffffffffffffffffffff168273ffffffffffffffffffffffffffffffffffffffff16036136d5576040517f08c379a00000000000000000000000000000000000000000000000000000000081526004016136cc90615b34565b60405180910390fd5b806000808573ffffffffffffffffffffffffffffffffffffffff1673ffffffffffffffffffffffffffffffffffffffff168152602001908152602001600020541015613756576040517f08c379a000000000000000000000000000000000000000000000000000000000815260040161374d90615bc6565b60405180910390fd5b806000808573ffffffffffffffffffffffffffffffffffffffff1673ffffffffffffffffffffffffffffffffffffffff16815260200190815260200160002060008282546137a49190614c48565b92505081905550806000808473ffffffffffffffffffffffffffffffffffffffff1673ffffffffffffffffffffffffffffffffffffffff16815260200190815260200160002060008282546137f99190614b26565b925050819055508173ffffffffffffffffffffffffffffffffffffffff168373ffffffffffffffffffffffffffffffffffffffff167fddf252ad1be2c89b69c2b068fc378daa952ba7f163c4a11628f55a4df523b3ef8360405161385d91906141d6565b60405180910390a3505050565b613872613edc565b73ffffffffffffffffffffffffffffffffffffffff16613890611fe5565b73ffffffffffffffffffffffffffffffffffffffff16146138ef576138b3613edc565b6040517f118cdaa70000000000000000000000000000000000000000000000000000000081526004016138e691906147ec565b60405180910390fd5b565b600073ffffffffffffffffffffffffffffffffffffffff168273ffffffffffffffffffffffffffffffffffffffff1603613960576040517f08c379a000000000000000000000000000000000000000000000000000000000815260040161395790615c32565b60405180910390fd5b603d54816002546139719190614b26565b11156139b2576040517f08c379a00000000000000000000000000000000000000000000000000000000081526004016139a990615cc4565b60405180910390fd5b80600260008282546139c49190614b26565b92505081905550806000808473ffffffffffffffffffffffffffffffffffffffff1673ffffffffffffffffffffffffffffffffffffffff1681526020019081526020016000206000828254613a199190614b26565b925050819055508173ffffffffffffffffffffffffffffffffffffffff16600073ffffffffffffffffffffffffffffffffffffffff167fddf252ad1be2c89b69c2b068fc378daa952ba7f163c4a11628f55a4df523b3ef83604051613a7e91906141d6565b60405180910390a35050565b600073ffffffffffffffffffffffffffffffffffffffff168273ffffffffffffffffffffffffffffffffffffffff1603613af9576040517f08c379a0000000000000000000000000000000000000000000000000000000008152600401613af090615d56565b60405180910390fd5b806000808473ffffffffffffffffffffffffffffffffffffffff1673ffffffffffffffffffffffffffffffffffffffff168152602001908152602001600020541015613b7a576040517f08c379a0000000000000000000000000000000000000000000000000000000008152600401613b7190615de8565b60405180910390fd5b806000808473ffffffffffffffffffffffffffffffffffffffff1673ffffffffffffffffffffffffffffffffffffffff1681526020019081526020016000206000828254613bc89190614c48565b925050819055508060026000828254613be19190614c48565b92505081905550600073ffffffffffffffffffffffffffffffffffffffff168273ffffffffffffffffffffffffffffffffffffffff167fddf252ad1be2c89b69c2b068fc378daa952ba7f163c4a11628f55a4df523b3ef83604051613c4691906141d6565b60405180910390a35050565b6000613c5c613e0d565b905060008160000160009054906101000a900473ffffffffffffffffffffffffffffffffffffffff169050828260000160006101000a81548173ffffffffffffffffffffffffffffffffffffffff021916908373ffffffffffffffffffffffffffffffffffffffff1602179055508273ffffffffffffffffffffffffffffffffffffffff168173ffffffffffffffffffffffffffffffffffffffff167f8be0079c531659141344cd1fd0a4f28419497f9722a3daafe3b4186f6b6457e060405160405180910390a3505050565b60007ff0c57e16840df040f15088dc2f81fe391c3923bec73e23a9662efc9c229c6a00905090565b613d59613ee4565b613d6281613f24565b50565b613d6f8282613530565b15613daf576040517f08c379a0000000000000000000000000000000000000000000000000000000008152600401613da690615e54565b60405180910390fd5b60018260000160008373ffffffffffffffffffffffffffffffffffffffff1673ffffffffffffffffffffffffffffffffffffffff16815260200190815260200160002060006101000a81548160ff0219169083151502179055505050565b60007f9016d09d72d40fdae2fd8ceac6b6234c7706214fd39c1cd1e609a0528c199300905090565b613e3f8282613530565b613e7e576040517f08c379a0000000000000000000000000000000000000000000000000000000008152600401613e7590615ee6565b60405180910390fd5b60008260000160008373ffffffffffffffffffffffffffffffffffffffff1673ffffffffffffffffffffffffffffffffffffffff16815260200190815260200160002060006101000a81548160ff0219169083151502179055505050565b600033905090565b613eec613faa565b613f22576040517fd7e6bcf800000000000000000000000000000000000000000000000000000000815260040160405180910390fd5b565b613f2c613ee4565b600073ffffffffffffffffffffffffffffffffffffffff168173ffffffffffffffffffffffffffffffffffffffff1603613f9e5760006040517f1e4fbdf7000000000000000000000000000000000000000000000000000000008152600401613f9591906147ec565b60405180910390fd5b613fa781613c52565b50565b6000613fb4613d29565b60000160089054906101000a900460ff16905090565b600081519050919050565b600082825260208201905092915050565b60005b83811015614004578082015181840152602081019050613fe9565b60008484015250505050565b6000601f19601f8301169050919050565b600061402c82613fca565b6140368185613fd5565b9350614046818560208601613fe6565b61404f81614010565b840191505092915050565b600060208201905081810360008301526140748184614021565b905092915050565b6000604051905090565b600080fd5b600080fd5b600073ffffffffffffffffffffffffffffffffffffffff82169050919050565b60006140bb82614090565b9050919050565b6140cb816140b0565b81146140d657600080fd5b50565b6000813590506140e8816140c2565b92915050565b6000819050919050565b614101816140ee565b811461410c57600080fd5b50565b60008135905061411e816140f8565b92915050565b6000806040838503121561413b5761413a614086565b5b6000614149858286016140d9565b925050602061415a8582860161410f565b9150509250929050565b60008115159050919050565b61417981614164565b82525050565b60006020820190506141946000830184614170565b92915050565b6000602082840312156141b0576141af614086565b5b60006141be848285016140d9565b91505092915050565b6141d0816140ee565b82525050565b60006020820190506141eb60008301846141c7565b92915050565b600080fd5b600080fd5b600080fd5b60008083601f840112614216576142156141f1565b5b8235905067ffffffffffffffff811115614233576142326141f6565b5b60208301915083602082028301111561424f5761424e6141fb565b5b9250929050565b60008083601f84011261426c5761426b6141f1565b5b8235905067ffffffffffffffff811115614289576142886141f6565b5b6020830191508360208202830111156142a5576142a46141fb565b5b9250929050565b600080600080604085870312156142c6576142c5614086565b5b600085013567ffffffffffffffff8111156142e4576142e361408b565b5b6142f087828801614200565b9450945050602085013567ffffffffffffffff8111156143135761431261408b565b5b61431f87828801614256565b925092505092959194509250565b60008060006060848603121561434657614345614086565b5b6000614354868287016140d9565b9350506020614365868287016140d9565b92505060406143768682870161410f565b9150509250925092565b600060ff82169050919050565b61439681614380565b82525050565b60006020820190506143b1600083018461438d565b92915050565b60008083601f8401126143cd576143cc6141f1565b5b8235905067ffffffffffffffff8111156143ea576143e96141f6565b5b602083019150836020820283011115614406576144056141fb565b5b9250929050565b6000806000806000806060878903121561442a57614429614086565b5b600087013567ffffffffffffffff8111156144485761444761408b565b5b61445489828a01614200565b9650965050602087013567ffffffffffffffff8111156144775761447661408b565b5b61448389828a01614200565b9450945050604087013567ffffffffffffffff8111156144a6576144a561408b565b5b6144b289828a016143b7565b92509250509295509295509295565b600080600080604085870312156144db576144da614086565b5b600085013567ffffffffffffffff8111156144f9576144f861408b565b5b61450587828801614200565b9450945050602085013567ffffffffffffffff8111156145285761452761408b565b5b614534878288016143b7565b925092505092959194509250565b6000819050919050565b600061456761456261455d84614090565b614542565b614090565b9050919050565b60006145798261454c565b9050919050565b600061458b8261456e565b9050919050565b61459b81614580565b82525050565b60006020820190506145b66000830184614592565b92915050565b600080fd5b7f4e487b7100000000000000000000000000000000000000000000000000000000600052604160045260246000fd5b6145f982614010565b810181811067ffffffffffffffff82111715614618576146176145c1565b5b80604052505050565b600061462b61407c565b905061463782826145f0565b919050565b600067ffffffffffffffff821115614657576146566145c1565b5b61466082614010565b9050602081019050919050565b82818337600083830152505050565b600061468f61468a8461463c565b614621565b9050828152602081018484840111156146ab576146aa6145bc565b5b6146b684828561466d565b509392505050565b600082601f8301126146d3576146d26141f1565b5b81356146e384826020860161467c565b91505092915050565b6146f581614380565b811461470057600080fd5b50565b600081359050614712816146ec565b92915050565b60008060008060008060c0878903121561473557614734614086565b5b600061474389828a016140d9565b965050602061475489828a016140d9565b955050604087013567ffffffffffffffff8111156147755761477461408b565b5b61478189828a016146be565b945050606087013567ffffffffffffffff8111156147a2576147a161408b565b5b6147ae89828a016146be565b93505060806147bf89828a01614703565b92505060a06147d089828a0161410f565b9150509295509295509295565b6147e6816140b0565b82525050565b600060208201905061480160008301846147dd565b92915050565b60006020828403121561481d5761481c614086565b5b600061482b8482850161410f565b91505092915050565b60008083601f84011261484a576148496141f1565b5b8235905067ffffffffffffffff811115614867576148666141f6565b5b602083019150836001820283011115614883576148826141fb565b5b9250929050565b600080602083850312156148a1576148a0614086565b5b600083013567ffffffffffffffff8111156148bf576148be61408b565b5b6148cb85828601614834565b92509250509250929050565b6148e081614164565b81146148eb57600080fd5b50565b6000813590506148fd816148d7565b92915050565b6000806040838503121561491a57614919614086565b5b6000614928858286016140d9565b9250506020614939858286016148ee565b9150509250929050565b6000806040838503121561495a57614959614086565b5b6000614968858286016140d9565b9250506020614979858286016140d9565b9150509250929050565b600061498e8261456e565b9050919050565b61499e81614983565b82525050565b60006020820190506149b96000830184614995565b92915050565b7f4e487b7100000000000000000000000000000000000000000000000000000000600052602260045260246000fd5b60006002820490506001821680614a0657607f821691505b602082108103614a1957614a186149bf565b5b50919050565b7f43616c6c6572206973206e6f74206f776e6572206f72206167656e7400000000600082015250565b6000614a55601c83613fd5565b9150614a6082614a1f565b602082019050919050565b60006020820190508181036000830152614a8481614a48565b9050919050565b7f696e73756666696369656e742062616c616e6365000000000000000000000000600082015250565b6000614ac1601483613fd5565b9150614acc82614a8b565b602082019050919050565b60006020820190508181036000830152614af081614ab4565b9050919050565b7f4e487b7100000000000000000000000000000000000000000000000000000000600052601160045260246000fd5b6000614b31826140ee565b9150614b3c836140ee565b9250828201905080821115614b5457614b53614af7565b5b92915050565b7f4e487b7100000000000000000000000000000000000000000000000000000000600052603260045260246000fd5b600060208284031215614b9f57614b9e614086565b5b6000614bad848285016148ee565b91505092915050565b7f416d6f756e742073686f756c64206265206c657373207468616e206f7220657160008201527f75616c20746f2066726f7a656e20746f6b656e73000000000000000000000000602082015250565b6000614c12603483613fd5565b9150614c1d82614bb6565b604082019050919050565b60006020820190508181036000830152614c4181614c05565b9050919050565b6000614c53826140ee565b9150614c5e836140ee565b9250828203905081811115614c7657614c75614af7565b5b92915050565b7f5061757361626c653a2070617573656400000000000000000000000000000000600082015250565b6000614cb2601083613fd5565b9150614cbd82614c7c565b602082019050919050565b60006020820190508181036000830152614ce181614ca5565b9050919050565b7f77616c6c65742069732066726f7a656e00000000000000000000000000000000600082015250565b6000614d1e601083613fd5565b9150614d2982614ce8565b602082019050919050565b60006020820190508181036000830152614d4d81614d11565b9050919050565b7f496e73756666696369656e742042616c616e6365000000000000000000000000600082015250565b6000614d8a601483613fd5565b9150614d9582614d54565b602082019050919050565b60006020820190508181036000830152614db981614d7d565b9050919050565b600081519050614dcf816148d7565b92915050565b600060208284031215614deb57614dea614086565b5b6000614df984828501614dc0565b91505092915050565b6000606082019050614e1760008301866147dd565b614e2460208301856147dd565b614e3160408301846141c7565b949350505050565b7f5472616e73666572206e6f7420706f737369626c650000000000000000000000600082015250565b6000614e6f601583613fd5565b9150614e7a82614e39565b602082019050919050565b60006020820190508181036000830152614e9e81614e62565b9050919050565b7f5061757361626c653a206e6f7420706175736564000000000000000000000000600082015250565b6000614edb601483613fd5565b9150614ee682614ea5565b602082019050919050565b60006020820190508181036000830152614f0a81614ece565b9050919050565b7f4964656e74697479206973206e6f742076657269666965642e00000000000000600082015250565b6000614f47601983613fd5565b9150614f5282614f11565b602082019050919050565b60006020820190508181036000830152614f7681614f3a565b9050919050565b7f436f6d706c69616e6365206e6f7420666f6c6c6f776564000000000000000000600082015250565b6000614fb3601783613fd5565b9150614fbe82614f7d565b602082019050919050565b60006020820190508181036000830152614fe281614fa6565b9050919050565b6000604082019050614ffe60008301856147dd565b61500b60208301846141c7565b9392505050565b7f696e76616c696420617267756d656e74202d207a65726f206164647265737300600082015250565b6000615048601f83613fd5565b915061505382615012565b602082019050919050565b600060208201905081810360008301526150778161503b565b9050919050565b7f616c726561647920696e697469616c697a656400000000000000000000000000600082015250565b60006150b4601383613fd5565b91506150bf8261507e565b602082019050919050565b600060208201905081810360008301526150e3816150a7565b9050919050565b50565b60006150fa600083613fd5565b9150615105826150ea565b600082019050919050565b60006020820190508181036000830152615129816150ed565b9050919050565b7f696e76616c696420617267756d656e74202d20656d70747920737472696e6700600082015250565b6000615166601f83613fd5565b915061517182615130565b602082019050919050565b6000602082019050818103600083015261519581615159565b9050919050565b7f646563696d616c73206265747765656e203020616e6420313800000000000000600082015250565b60006151d2601983613fd5565b91506151dd8261519c565b602082019050919050565b60006020820190508181036000830152615201816151c5565b9050919050565b60008190508160005260206000209050919050565b60006020601f8301049050919050565b600082821b905092915050565b60006008830261526a7fffffffffffffffffffffffffffffffffffffffffffffffffffffffffffffffff8261522d565b615274868361522d565b95508019841693508086168417925050509392505050565b60006152a76152a261529d846140ee565b614542565b6140ee565b9050919050565b6000819050919050565b6152c18361528c565b6152d56152cd826152ae565b84845461523a565b825550505050565b600090565b6152ea6152dd565b6152f58184846152b8565b505050565b5b818110156153195761530e6000826152e2565b6001810190506152fb565b5050565b601f82111561535e5761532f81615208565b6153388461521d565b81016020851015615347578190505b61535b6153538561521d565b8301826152fa565b50505b505050565b600082821c905092915050565b600061538160001984600802615363565b1980831691505092915050565b600061539a8383615370565b9150826002028217905092915050565b6153b382613fca565b67ffffffffffffffff8111156153cc576153cb6145c1565b5b6153d682546149ee565b6153e182828561531d565b600060209050601f8311600181146154145760008415615402578287015190505b61540c858261538e565b865550615474565b601f19841661542286615208565b60005b8281101561544a57848901518255600182019150602085019450602081019050615425565b868310156154675784890151615463601f891682615370565b8355505b6001600288020188555050505b505050505050565b6000819050919050565b600067ffffffffffffffff82169050919050565b60006154b56154b06154ab8461547c565b614542565b615486565b9050919050565b6154c58161549a565b82525050565b60006020820190506154e060008301846154bc565b92915050565b7f617272617973206d757374206265206f6620657175616c206c656e6774680000600082015250565b600061551c601e83613fd5565b9150615527826154e6565b602082019050919050565b6000602082019050818103600083015261554b8161550f565b9050919050565b7f4e6577206d617820737570706c79206d7573742062652067726561746572207460008201527f68616e2063757272656e74206d617820737570706c7900000000000000000000602082015250565b60006155ae603683613fd5565b91506155b982615552565b604082019050919050565b600060208201905081810360008301526155dd816155a1565b9050919050565b7f546f74616c20737570706c7920686173206e6f7420796574207265616368656460008201527f20746865206d6178696d756d206c696d69740000000000000000000000000000602082015250565b6000615640603283613fd5565b915061564b826155e4565b604082019050919050565b6000602082019050818103600083015261566f81615633565b9050919050565b7f63616e6e6f74206275726e206d6f7265207468616e2062616c616e6365000000600082015250565b60006156ac601d83613fd5565b91506156b782615676565b602082019050919050565b600060208201905081810360008301526156db8161569f565b9050919050565b7f73656e6465722062616c616e636520746f6f206c6f7700000000000000000000600082015250565b6000615718601683613fd5565b9150615723826156e2565b602082019050919050565b600060208201905081810360008301526157478161570b565b9050919050565b600061575a8385613fd5565b935061576783858461466d565b61577083614010565b840190509392505050565b6000602082019050818103600083015261579681848661574e565b90509392505050565b600082905092915050565b6157b4838361579f565b67ffffffffffffffff8111156157cd576157cc6145c1565b5b6157d782546149ee565b6157e282828561531d565b6000601f83116001811461581157600084156157ff578287013590505b615809858261538e565b865550615871565b601f19841661581f86615208565b60005b8281101561584757848901358255600182019150602085019450602081019050615822565b868310156158645784890135615860601f891682615370565b8355505b6001600288020188555050505b50505050505050565b7f45524332303a20617070726f76652066726f6d20746865207a65726f2061646460008201527f7265737300000000000000000000000000000000000000000000000000000000602082015250565b60006158d6602483613fd5565b91506158e18261587a565b604082019050919050565b60006020820190508181036000830152615905816158c9565b9050919050565b7f45524332303a20617070726f766520746f20746865207a65726f20616464726560008201527f7373000000000000000000000000000000000000000000000000000000000000602082015250565b6000615968602283613fd5565b91506159738261590c565b604082019050919050565b600060208201905081810360008301526159978161595b565b9050919050565b7f526f6c65733a206163636f756e7420697320746865207a65726f20616464726560008201527f7373000000000000000000000000000000000000000000000000000000000000602082015250565b60006159fa602283613fd5565b9150615a058261599e565b604082019050919050565b60006020820190508181036000830152615a29816159ed565b9050919050565b7f45524332303a207472616e736665722066726f6d20746865207a65726f20616460008201527f6472657373000000000000000000000000000000000000000000000000000000602082015250565b6000615a8c602583613fd5565b9150615a9782615a30565b604082019050919050565b60006020820190508181036000830152615abb81615a7f565b9050919050565b7f45524332303a207472616e7366657220746f20746865207a65726f206164647260008201527f6573730000000000000000000000000000000000000000000000000000000000602082015250565b6000615b1e602383613fd5565b9150615b2982615ac2565b604082019050919050565b60006020820190508181036000830152615b4d81615b11565b9050919050565b7f45524332303a207472616e7366657220616d6f756e742065786365656473206260008201527f616c616e63650000000000000000000000000000000000000000000000000000602082015250565b6000615bb0602683613fd5565b9150615bbb82615b54565b604082019050919050565b60006020820190508181036000830152615bdf81615ba3565b9050919050565b7f45524332303a206d696e7420746f20746865207a65726f206164647265737300600082015250565b6000615c1c601f83613fd5565b9150615c2782615be6565b602082019050919050565b60006020820190508181036000830152615c4b81615c0f565b9050919050565b7f4d696e74696e67206578636565647320746f74616c20737570706c79206c696d60008201527f6974000000000000000000000000000000000000000000000000000000000000602082015250565b6000615cae602283613fd5565b9150615cb982615c52565b604082019050919050565b60006020820190508181036000830152615cdd81615ca1565b9050919050565b7f45524332303a206275726e2066726f6d20746865207a65726f2061646472657360008201527f7300000000000000000000000000000000000000000000000000000000000000602082015250565b6000615d40602183613fd5565b9150615d4b82615ce4565b604082019050919050565b60006020820190508181036000830152615d6f81615d33565b9050919050565b7f45524332303a206275726e20616d6f756e7420657863656564732062616c616e60008201527f6365000000000000000000000000000000000000000000000000000000000000602082015250565b6000615dd2602283613fd5565b9150615ddd82615d76565b604082019050919050565b60006020820190508181036000830152615e0181615dc5565b9050919050565b7f526f6c65733a206163636f756e7420616c72656164792068617320726f6c6500600082015250565b6000615e3e601f83613fd5565b9150615e4982615e08565b602082019050919050565b60006020820190508181036000830152615e6d81615e31565b9050919050565b7f526f6c65733a206163636f756e7420646f6573206e6f74206861766520726f6c60008201527f6500000000000000000000000000000000000000000000000000000000000000602082015250565b6000615ed0602183613fd5565b9150615edb82615e74565b604082019050919050565b60006020820190508181036000830152615eff81615ec3565b905091905056fea2646970667358221220e9000ec4ba7f7ff17ee18b6c36f6ae6f20964bc46c7d0ecd8525edc284568bae64736f6c634300081b0033",
  "linkReferences": {},
  "deployedLinkReferences": {}
}