{
  "_format": "hh-sol-artifact-1",
  "contractName": "TokenLockContract",
  "sourceName": "contracts/TokenLockContract.sol",
  "abi": [
    {
      "inputs": [
        {
          "internalType": "uint256",
          "name": "fee",
          "type": "uint256"
        }
      ],
      "stateMutability": "nonpayable",
      "type": "constructor"
    },
    {
      "anonymous": false,
      "inputs": [
        {
          "indexed": true,
          "internalType": "bytes32",
          "name": "role",
          "type": "bytes32"
        },
        {
          "indexed": true,
          "internalType": "bytes32",
          "name": "previousAdminRole",
          "type": "bytes32"
        },
        {
          "indexed": true,
          "internalType": "bytes32",
          "name": "newAdminRole",
          "type": "bytes32"
        }
      ],
      "name": "RoleAdminChanged",
      "type": "event"
    },
    {
      "anonymous": false,
      "inputs": [
        {
          "indexed": true,
          "internalType": "bytes32",
          "name": "role",
          "type": "bytes32"
        },
        {
          "indexed": true,
          "internalType": "address",
          "name": "account",
          "type": "address"
        },
        {
          "indexed": true,
          "internalType": "address",
          "name": "sender",
          "type": "address"
        }
      ],
      "name": "RoleGranted",
      "type": "event"
    },
    {
      "anonymous": false,
      "inputs": [
        {
          "indexed": true,
          "internalType": "bytes32",
          "name": "role",
          "type": "bytes32"
        },
        {
          "indexed": true,
          "internalType": "address",
          "name": "account",
          "type": "address"
        },
        {
          "indexed": true,
          "internalType": "address",
          "name": "sender",
          "type": "address"
        }
      ],
      "name": "RoleRevoked",
      "type": "event"
    },
    {
      "anonymous": false,
      "inputs": [
        {
          "indexed": false,
          "internalType": "uint256",
          "name": "requestId",
          "type": "uint256"
        }
      ],
      "name": "TokensClaimed",
      "type": "event"
    },
    {
      "anonymous": false,
      "inputs": [
        {
          "indexed": false,
          "internalType": "uint256",
          "name": "requestId",
          "type": "uint256"
        }
      ],
      "name": "TransferApproved",
      "type": "event"
    },
    {
      "anonymous": false,
      "inputs": [
        {
          "indexed": true,
          "internalType": "address",
          "name": "from",
          "type": "address"
        }
      ],
      "name": "TransferFeeSetup",
      "type": "event"
    },
    {
      "anonymous": false,
      "inputs": [
        {
          "indexed": false,
          "internalType": "uint256",
          "name": "requestId",
          "type": "uint256"
        },
        {
          "indexed": true,
          "internalType": "address",
          "name": "from",
          "type": "address"
        },
        {
          "indexed": true,
          "internalType": "address",
          "name": "to",
          "type": "address"
        },
        {
          "indexed": false,
          "internalType": "uint256",
          "name": "amount",
          "type": "uint256"
        },
        {
          "indexed": false,
          "internalType": "uint256",
          "name": "fee",
          "type": "uint256"
        }
      ],
      "name": "TransferRequested",
      "type": "event"
    },
    {
      "anonymous": false,
      "inputs": [
        {
          "indexed": true,
          "internalType": "address",
          "name": "from",
          "type": "address"
        },
        {
          "indexed": false,
          "internalType": "uint256",
          "name": "amount",
          "type": "uint256"
        }
      ],
      "name": "WithdrawFee",
      "type": "event"
    },
    {
      "inputs": [],
      "name": "ADMIN_ROLE",
      "outputs": [
        {
          "internalType": "bytes32",
          "name": "",
          "type": "bytes32"
        }
      ],
      "stateMutability": "view",
      "type": "function"
    },
    {
      "inputs": [],
      "name": "DEFAULT_ADMIN_ROLE",
      "outputs": [
        {
          "internalType": "bytes32",
          "name": "",
          "type": "bytes32"
        }
      ],
      "stateMutability": "view",
      "type": "function"
    },
    {
      "inputs": [
        {
          "internalType": "uint256",
          "name": "requestId",
          "type": "uint256"
        }
      ],
      "name": "approveTransfer",
      "outputs": [],
      "stateMutability": "nonpayable",
      "type": "function"
    },
    {
      "inputs": [
        {
          "internalType": "uint256",
          "name": "requestId",
          "type": "uint256"
        },
        {
          "internalType": "string",
          "name": "_prefix",
          "type": "string"
        }
      ],
      "name": "claimTokens",
      "outputs": [],
      "stateMutability": "nonpayable",
      "type": "function"
    },
    {
      "inputs": [
        {
          "internalType": "bytes32",
          "name": "role",
          "type": "bytes32"
        }
      ],
      "name": "getRoleAdmin",
      "outputs": [
        {
          "internalType": "bytes32",
          "name": "",
          "type": "bytes32"
        }
      ],
      "stateMutability": "view",
      "type": "function"
    },
    {
      "inputs": [
        {
          "internalType": "bytes32",
          "name": "role",
          "type": "bytes32"
        },
        {
          "internalType": "address",
          "name": "account",
          "type": "address"
        }
      ],
      "name": "grantRole",
      "outputs": [],
      "stateMutability": "nonpayable",
      "type": "function"
    },
    {
      "inputs": [
        {
          "internalType": "bytes32",
          "name": "role",
          "type": "bytes32"
        },
        {
          "internalType": "address",
          "name": "account",
          "type": "address"
        }
      ],
      "name": "hasRole",
      "outputs": [
        {
          "internalType": "bool",
          "name": "",
          "type": "bool"
        }
      ],
      "stateMutability": "view",
      "type": "function"
    },
    {
      "inputs": [],
      "name": "paused",
      "outputs": [
        {
          "internalType": "bool",
          "name": "",
          "type": "bool"
        }
      ],
      "stateMutability": "view",
      "type": "function"
    },
    {
      "inputs": [
        {
          "internalType": "bytes32",
          "name": "role",
          "type": "bytes32"
        },
        {
          "internalType": "address",
          "name": "account",
          "type": "address"
        }
      ],
      "name": "renounceRole",
      "outputs": [],
      "stateMutability": "nonpayable",
      "type": "function"
    },
    {
      "inputs": [],
      "name": "requestCounter",
      "outputs": [
        {
          "internalType": "uint256",
          "name": "",
          "type": "uint256"
        }
      ],
      "stateMutability": "view",
      "type": "function"
    },
    {
      "inputs": [
        {
          "internalType": "address",
          "name": "to",
          "type": "address"
        },
        {
          "internalType": "uint256",
          "name": "amount",
          "type": "uint256"
        },
        {
          "internalType": "string",
          "name": "_prefix",
          "type": "string"
        }
      ],
      "name": "requestTransfer",
      "outputs": [],
      "stateMutability": "nonpayable",
      "type": "function"
    },
    {
      "inputs": [
        {
          "internalType": "bytes32",
          "name": "role",
          "type": "bytes32"
        },
        {
          "internalType": "address",
          "name": "account",
          "type": "address"
        }
      ],
      "name": "revokeRole",
      "outputs": [],
      "stateMutability": "nonpayable",
      "type": "function"
    },
    {
      "inputs": [
        {
          "internalType": "bool",
          "name": "_paused",
          "type": "bool"
        }
      ],
      "name": "setPaused",
      "outputs": [],
      "stateMutability": "nonpayable",
      "type": "function"
    },
    {
      "inputs": [
        {
          "internalType": "string",
          "name": "_prefix",
          "type": "string"
        },
        {
          "internalType": "address",
          "name": "_to",
          "type": "address"
        }
      ],
      "name": "setTokenMapping",
      "outputs": [],
      "stateMutability": "nonpayable",
      "type": "function"
    },
    {
      "inputs": [
        {
          "internalType": "uint256",
          "name": "fee",
          "type": "uint256"
        }
      ],
      "name": "setTransferFee",
      "outputs": [],
      "stateMutability": "nonpayable",
      "type": "function"
    },
    {
      "inputs": [
        {
          "internalType": "bytes4",
          "name": "interfaceId",
          "type": "bytes4"
        }
      ],
      "name": "supportsInterface",
      "outputs": [
        {
          "internalType": "bool",
          "name": "",
          "type": "bool"
        }
      ],
      "stateMutability": "view",
      "type": "function"
    },
    {
      "inputs": [
        {
          "internalType": "string",
          "name": "",
          "type": "string"
        }
      ],
      "name": "tokenMapping",
      "outputs": [
        {
          "internalType": "address",
          "name": "",
          "type": "address"
        }
      ],
      "stateMutability": "view",
      "type": "function"
    },
    {
      "inputs": [],
      "name": "transferFee",
      "outputs": [
        {
          "internalType": "uint256",
          "name": "",
          "type": "uint256"
        }
      ],
      "stateMutability": "view",
      "type": "function"
    },
    {
      "inputs": [
        {
          "internalType": "uint256",
          "name": "",
          "type": "uint256"
        }
      ],
      "name": "transferRequests",
      "outputs": [
        {
          "internalType": "address",
          "name": "from",
          "type": "address"
        },
        {
          "internalType": "address",
          "name": "to",
          "type": "address"
        },
        {
          "internalType": "uint256",
          "name": "amount",
          "type": "uint256"
        },
        {
          "internalType": "uint256",
          "name": "fee",
          "type": "uint256"
        },
        {
          "internalType": "bool",
          "name": "approved",
          "type": "bool"
        },
        {
          "internalType": "bool",
          "name": "claimed",
          "type": "bool"
        }
      ],
      "stateMutability": "view",
      "type": "function"
    },
    {
      "inputs": [
        {
          "internalType": "uint256",
          "name": "_amount",
          "type": "uint256"
        }
      ],
      "name": "withdrawFees",
      "outputs": [],
      "stateMutability": "nonpayable",
      "type": "function"
    }
  ],
  "bytecode": "0x60803461012257601f6114cc38819003918201601f1916830192916001600160401b0384118385101761012757808392604095865283396020928391810103126101225751600180556006556000808052808252828120338252825260ff8382205416156100ec575b7fa49807205ce4d355092ef5a8a18f56e8913cf4a201fbe287825b095693c2177591828252818152838220338352815260ff8483205416156100b3575b835161136e908161013e8239f35b8282528181528382209033835252828120600160ff1982541617905533916000805160206114ac833981519152339280a43880806100a5565b8080528082528281203382528252828120600160ff198254161790553333826000805160206114ac8339815191528180a4610068565b600080fd5b634e487b7160e01b600052604160045260246000fdfe608060408181526004918236101561001657600080fd5b600090813560e01c90816301ffc9a714610c735750806303486c4014610c0357806316c38b3c14610bcc578063190d349914610a26578063248a9ca3146109fc5780632f2ff15d1461095357806336568abe146108c25780635c975abb1461089e5780635e318e071461074a57806375b238fc1461070f5780638f02bb5b146106c857806391d1485414610682578063973a814e14610663578063a217fddf14610648578063ac5c2efd1461031a578063acb2ad6f146102f7578063c75b6a391461026f578063cacca4a0146101ac578063d547741f1461016a5763e88ad9531461010057600080fd5b346101675760203660031901126101675782359067ffffffffffffffff8211610167575060209261013391369101610d1b565b8261014683519283815193849201610d8d565b6003908201908152819003830190205490516001600160a01b039091168152f35b80fd5b509190346101a857806003193601126101a8576101a591356101a0600161018f610d77565b938387528660205286200154610fe2565b6110ed565b80f35b8280fd5b509190346101a85760203660031901126101a8578135916101cb610db0565b8284528060205280828520019081549060ff821661022c5750917fd9bbf1d8bef570b7e92ef1ba025425fc15915ae01f3d3be144cdc8be05442eb5939160018461021d60ff60209760081c16156112f3565b60ff191617905551908152a180f35b606490602085519162461bcd60e51b8352820152601860248201527f5265717565737420616c726561647920617070726f76656400000000000000006044820152fd5b5091346101a857816003193601126101a85780359067ffffffffffffffff82116102f3576102a56020916102c793369101610d1b565b816102ae610d77565b946102b7610db0565b5193828580945193849201610d8d565b810160038152030190209060018060a01b03166bffffffffffffffffffffffff60a01b82541617905580f35b8380fd5b5090346103165781600319360112610316576020906006549051908152f35b5080fd5b509034610316576060366003190112610316576001600160a01b03928035848116908190036102f35760249485359367ffffffffffffffff604435818111610644576103699036908701610d1b565b92841561060e5786156105cc57808351858180975161038e8160209a8b809601610d8d565b81016003815203019020541683516370a0823160e01b8152338882015285818c81855afa9081156105c2579089918b9161058d575b50106105545783516323b872dd60e01b8152338882015230818c015260448101899052908590829060649082908d905af190811561054a57899493929161041191869161051d575b506112af565b82519160c083019081118382101761050b57835233825286858301928784528481018a81526060820190878252608083019588875260a08401958987526005548a52858b5280898b20955116906bffffffffffffffffffffffff60a01b9182875416178655600186019251169082541617905551600283015551600382015501915115159060ff61ff0084549251151560081b1692169061ffff191617179055600554958151938785528401528201527fc8262dc04f8f56abc884e1f58ca17a373610558a6cebc5e927b9e1c4668e5fdf60603392a360001982146104fa575060010160055580f35b634e487b7160e01b83526011905250fd5b634e487b7160e01b8552604188528a85fd5b61053d9150873d8911610543575b6105358183610cf9565b810190611297565b3861040b565b503d61052b565b84513d8b823e3d90fd5b835162461bcd60e51b81528088018690526014818c015273496e73756666696369656e742042616c616e636560601b6044820152606490fd5b809250878092503d83116105bb575b6105a68183610cf9565b810103126105b757889051386103c3565b8980fd5b503d61059c565b85513d8c823e3d90fd5b825162461bcd60e51b81526020818801819052818b01527f416d6f756e74206d7573742062652067726561746572207468616e207a65726f6044820152606490fd5b825162461bcd60e51b81526020818801526011818b015270125b9d985b1a59081c9958da5c1a595b9d607a1b6044820152606490fd5b8780fd5b50903461031657816003193601126103165751908152602090f35b5090346103165781600319360112610316576020906005549051908152f35b5091346101a857816003193601126101a8578160209360ff926106a3610d77565b903582528186528282206001600160a01b039091168252855220549151911615158152f35b508234610316576020366003190112610316576106e3610db0565b35600655337f04333b31f438fc3fc7f311d4e3eb5d8740b62a59aad7b8da953d75da7940a1418280a280f35b509034610316578160031936011261031657602090517fa49807205ce4d355092ef5a8a18f56e8913cf4a201fbe287825b095693c217758152f35b509190346101a85760203660031901126101a857813591610769610db0565b60ff60025416610863576002600154146108215760026001554783116107e8575082808380156107de575b8280929181923390f1156107d357519081527f66bf9186b00db666fc37aaffbb95a050c66e599e000c785c1dff0467d868f1b160203392a26001805580f35b51913d9150823e3d90fd5b6108fc9150610794565b6020606492519162461bcd60e51b83528201526014602482015273496e73756666696369656e742062616c616e636560601b6044820152fd5b6020606492519162461bcd60e51b8352820152601f60248201527f5265656e7472616e637947756172643a207265656e7472616e742063616c6c006044820152fd5b6020606492519162461bcd60e51b8352820152601660248201527515da5d1a191c985dd85b1cc8185c99481c185d5cd95960521b6044820152fd5b50903461031657816003193601126103165760209060ff6002541690519015158152f35b5082346103165782600319360112610316576108dc610d77565b90336001600160a01b038316036108f857906101a591356110ed565b608490602085519162461bcd60e51b8352820152602f60248201527f416363657373436f6e74726f6c3a2063616e206f6e6c792072656e6f756e636560448201526e103937b632b9903337b91039b2b63360891b6064820152fd5b5091346101a857816003193601126101a857359061096f610d77565b908284528360205261098660018286200154610fe2565b82845260208481528185206001600160a01b039093168086529290528084205460ff16156109b2578380f35b828452836020528084208285526020528320600160ff1982541617905533917f2f8788117e7eff1d82e926ec794901d17c78024a50270940304540a733656f0d8480a43880808380f35b5091346101a85760203660031901126101a857816020936001923581528085522001549051908152f35b5091346101a857816003193601126101a857803560243567ffffffffffffffff8111610bc857610a599036908401610d1b565b81855260209280845284862081810180549360ff851615610b8e57610a8460ff8660081c16156112f3565b60018301546001600160a01b03919082163303610b575792604492610100600293610abe8b809998818f5193828580945193849201610d8d565b8101600381520301902054169761ff001916179055015491888851958694859363a9059cbb60e01b8552339085015260248401525af1908115610b4d577fcff788b65ecc4ee1e06954505390b4d87e536462f29c25f160ab35cdb6ef6aea9491610b2e918791610b3657506112af565b51908152a180f35b61053d9150853d8711610543576105358183610cf9565b84513d87823e3d90fd5b885162461bcd60e51b81528086018990526011602482015270139bdd081d1a19481c9958da5c1a595b9d607a1b6044820152606490fd5b875162461bcd60e51b8152808501889052601460248201527314995c5d595cdd081b9bdd08185c1c1c9bdd995960621b6044820152606490fd5b8480fd5b508234610316576020366003190112610316573580151580910361031657610bf2610db0565b60ff80196002541691161760025580f35b509190346101a85760203660031901126101a8578060ff9160c09484358152846020522060018060a01b03938482541694600183015416926002830154916003840154930154938151968752602087015285015260608401528181161515608084015260081c16151560a0820152f35b905083346101a85760203660031901126101a8573563ffffffff60e01b81168091036101a85760209250637965db0b60e01b8114908115610cb6575b5015158152f35b6301ffc9a760e01b14905083610caf565b6080810190811067ffffffffffffffff821117610ce357604052565b634e487b7160e01b600052604160045260246000fd5b90601f8019910116810190811067ffffffffffffffff821117610ce357604052565b81601f82011215610d725780359067ffffffffffffffff8211610ce35760405192610d50601f8401601f191660200185610cf9565b82845260208383010111610d7257816000926020809301838601378301015290565b600080fd5b602435906001600160a01b0382168203610d7257565b60005b838110610da05750506000910152565b8181015183820152602001610d90565b3360009081527f7d7ffb7a348e1c6a02869081a26547b49160dd3df72d1d75a570eb9b698292ec6020908152604080832054909291907fa49807205ce4d355092ef5a8a18f56e8913cf4a201fbe287825b095693c217759060ff1615610e165750505050565b610e1f33611188565b90845190610e2c82610cc7565b60428252838201946060368737825115610fce5760308653825190600191821015610fce5790607860218501536041915b818311610f6057505050610f1e5784610eec6048610f10936044979851988991610edd8984019876020b1b1b2b9b9a1b7b73a3937b61d1030b1b1b7bab73a1604d1b8a52610eb4815180928d603789019101610d8d565b8401917001034b99036b4b9b9b4b733903937b6329607d1b603784015251809386840190610d8d565b01036028810189520187610cf9565b5194859362461bcd60e51b8552600485015251809281602486015285850190610d8d565b601f01601f19168101030190fd5b60648386519062461bcd60e51b825280600483015260248201527f537472696e67733a20686578206c656e67746820696e73756666696369656e746044820152fd5b909192600f81166010811015610fba576f181899199a1a9b1b9c1cb0b131b232b360811b901a610f908587611161565b5360041c928015610fa657600019019190610e5d565b634e487b7160e01b82526011600452602482fd5b634e487b7160e01b83526032600452602483fd5b634e487b7160e01b81526032600452602490fd5b60008181526020818152604092838320338452825260ff8484205416156110095750505050565b61101233611188565b9084519061101f82610cc7565b60428252838201946060368737825115610fce5760308653825190600191821015610fce5790607860218501536041915b8183116110a757505050610f1e5784610eec6048610f10936044979851988991610edd8984019876020b1b1b2b9b9a1b7b73a3937b61d1030b1b1b7bab73a1604d1b8a52610eb4815180928d603789019101610d8d565b909192600f81166010811015610fba576f181899199a1a9b1b9c1cb0b131b232b360811b901a6110d78587611161565b5360041c928015610fa657600019019190611050565b9060009180835282602052604083209160018060a01b03169182845260205260ff60408420541661111d57505050565b80835282602052604083208284526020526040832060ff1981541690557ff6391f5c32d9c69d2a47ea670b442974b53935d1edc7fd64eb21e047a839171b339380a4565b908151811015611172570160200190565b634e487b7160e01b600052603260045260246000fd5b604051906060820182811067ffffffffffffffff821117610ce357604052602a82526020820160403682378251156111725760309053815160019081101561117257607860218401536029905b8082116112295750506111e55790565b606460405162461bcd60e51b815260206004820152602060248201527f537472696e67733a20686578206c656e67746820696e73756666696369656e746044820152fd5b9091600f81166010811015611282576f181899199a1a9b1b9c1cb0b131b232b360811b901a6112588486611161565b5360041c91801561126d5760001901906111d5565b60246000634e487b7160e01b81526011600452fd5b60246000634e487b7160e01b81526032600452fd5b90816020910312610d7257518015158103610d725790565b156112b657565b60405162461bcd60e51b8152602060048201526015602482015274151bdad95b881d1c985b9cd9995c8819985a5b1959605a1b6044820152606490fd5b156112fa57565b60405162461bcd60e51b8152602060048201526016602482015275151bdad95b9cc8185b1c9958591e4818db185a5b595960521b6044820152606490fdfea2646970667358221220b99342fcd595ac79cbd6e167bfcdc069d976033b5610b72c9cefba2c146100a364736f6c634300081400332f8788117e7eff1d82e926ec794901d17c78024a50270940304540a733656f0d",
  "linkReferences": {},
  "deployedLinkReferences": {}
}