{
  "_format": "hh-sol-artifact-1",
  "contractName": "GPU",
  "sourceName": "contracts/erc.sol",
  "abi": [
    {
      "inputs": [],
      "stateMutability": "nonpayable",
      "type": "constructor"
    },
    {
      "anonymous": false,
      "inputs": [
        {
          "indexed": true,
          "internalType": "address",
          "name": "owner",
          "type": "address"
        },
        {
          "indexed": true,
          "internalType": "address",
          "name": "spender",
          "type": "address"
        },
        {
          "indexed": false,
          "internalType": "uint256",
          "name": "value",
          "type": "uint256"
        }
      ],
      "name": "Approval",
      "type": "event"
    },
    {
      "anonymous": false,
      "inputs": [
        {
          "indexed": true,
          "internalType": "address",
          "name": "from",
          "type": "address"
        },
        {
          "indexed": true,
          "internalType": "address",
          "name": "to",
          "type": "address"
        },
        {
          "indexed": false,
          "internalType": "uint256",
          "name": "value",
          "type": "uint256"
        }
      ],
      "name": "Transfer",
      "type": "event"
    },
    {
      "inputs": [
        {
          "internalType": "address",
          "name": "owner",
          "type": "address"
        },
        {
          "internalType": "address",
          "name": "spender",
          "type": "address"
        }
      ],
      "name": "allowance",
      "outputs": [
        {
          "internalType": "uint256",
          "name": "",
          "type": "uint256"
        }
      ],
      "stateMutability": "view",
      "type": "function"
    },
    {
      "inputs": [
        {
          "internalType": "address",
          "name": "spender",
          "type": "address"
        },
        {
          "internalType": "uint256",
          "name": "amount",
          "type": "uint256"
        }
      ],
      "name": "approve",
      "outputs": [
        {
          "internalType": "bool",
          "name": "",
          "type": "bool"
        }
      ],
      "stateMutability": "nonpayable",
      "type": "function"
    },
    {
      "inputs": [
        {
          "internalType": "address",
          "name": "account",
          "type": "address"
        }
      ],
      "name": "balanceOf",
      "outputs": [
        {
          "internalType": "uint256",
          "name": "",
          "type": "uint256"
        }
      ],
      "stateMutability": "view",
      "type": "function"
    },
    {
      "inputs": [
        {
          "internalType": "address",
          "name": "from",
          "type": "address"
        },
        {
          "internalType": "uint256",
          "name": "amount",
          "type": "uint256"
        }
      ],
      "name": "burn",
      "outputs": [],
      "stateMutability": "nonpayable",
      "type": "function"
    },
    {
      "inputs": [],
      "name": "decimals",
      "outputs": [
        {
          "internalType": "uint8",
          "name": "",
          "type": "uint8"
        }
      ],
      "stateMutability": "view",
      "type": "function"
    },
    {
      "inputs": [
        {
          "internalType": "address",
          "name": "spender",
          "type": "address"
        },
        {
          "internalType": "uint256",
          "name": "subtractedValue",
          "type": "uint256"
        }
      ],
      "name": "decreaseAllowance",
      "outputs": [
        {
          "internalType": "bool",
          "name": "",
          "type": "bool"
        }
      ],
      "stateMutability": "nonpayable",
      "type": "function"
    },
    {
      "inputs": [
        {
          "internalType": "address",
          "name": "spender",
          "type": "address"
        },
        {
          "internalType": "uint256",
          "name": "addedValue",
          "type": "uint256"
        }
      ],
      "name": "increaseAllowance",
      "outputs": [
        {
          "internalType": "bool",
          "name": "",
          "type": "bool"
        }
      ],
      "stateMutability": "nonpayable",
      "type": "function"
    },
    {
      "inputs": [
        {
          "internalType": "address",
          "name": "to",
          "type": "address"
        },
        {
          "internalType": "uint256",
          "name": "amount",
          "type": "uint256"
        }
      ],
      "name": "mint",
      "outputs": [],
      "stateMutability": "nonpayable",
      "type": "function"
    },
    {
      "inputs": [],
      "name": "name",
      "outputs": [
        {
          "internalType": "string",
          "name": "",
          "type": "string"
        }
      ],
      "stateMutability": "view",
      "type": "function"
    },
    {
      "inputs": [],
      "name": "owner",
      "outputs": [
        {
          "internalType": "address",
          "name": "",
          "type": "address"
        }
      ],
      "stateMutability": "view",
      "type": "function"
    },
    {
      "inputs": [],
      "name": "symbol",
      "outputs": [
        {
          "internalType": "string",
          "name": "",
          "type": "string"
        }
      ],
      "stateMutability": "view",
      "type": "function"
    },
    {
      "inputs": [],
      "name": "totalSupply",
      "outputs": [
        {
          "internalType": "uint256",
          "name": "",
          "type": "uint256"
        }
      ],
      "stateMutability": "view",
      "type": "function"
    },
    {
      "inputs": [
        {
          "internalType": "address",
          "name": "to",
          "type": "address"
        },
        {
          "internalType": "uint256",
          "name": "amount",
          "type": "uint256"
        }
      ],
      "name": "transfer",
      "outputs": [
        {
          "internalType": "bool",
          "name": "",
          "type": "bool"
        }
      ],
      "stateMutability": "nonpayable",
      "type": "function"
    },
    {
      "inputs": [
        {
          "internalType": "address",
          "name": "from",
          "type": "address"
        },
        {
          "internalType": "address",
          "name": "to",
          "type": "address"
        },
        {
          "internalType": "uint256",
          "name": "amount",
          "type": "uint256"
        }
      ],
      "name": "transferFrom",
      "outputs": [
        {
          "internalType": "bool",
          "name": "",
          "type": "bool"
        }
      ],
      "stateMutability": "nonpayable",
      "type": "function"
    }
  ],
  "bytecode": "0x608060405234801561001057600080fd5b506040518060400160405280600981526020016823a82a902a37b5b2b760b91b8152506040518060400160405280600381526020016247505560e81b815250816003908161005e919061021f565b50600461006b828261021f565b50505061009d336100806100b460201b60201c565b61008b90600a6103dc565b61009890620f42406103f2565b6100b9565b600580546001600160a01b0319163317905561041c565b601290565b6001600160a01b0382166101135760405162461bcd60e51b815260206004820152601f60248201527f45524332303a206d696e7420746f20746865207a65726f206164647265737300604482015260640160405180910390fd5b80600260008282546101259190610409565b90915550506001600160a01b038216600081815260208181526040808320805486019055518481527fddf252ad1be2c89b69c2b068fc378daa952ba7f163c4a11628f55a4df523b3ef910160405180910390a35050565b505050565b634e487b7160e01b600052604160045260246000fd5b600181811c908216806101ab57607f821691505b6020821081036101cb57634e487b7160e01b600052602260045260246000fd5b50919050565b601f82111561017c57806000526020600020601f840160051c810160208510156101f85750805b601f840160051c820191505b818110156102185760008155600101610204565b5050505050565b81516001600160401b0381111561023857610238610181565b61024c816102468454610197565b846101d1565b6020601f82116001811461028057600083156102685750848201515b600019600385901b1c1916600184901b178455610218565b600084815260208120601f198516915b828110156102b05787850151825560209485019460019092019101610290565b50848210156102ce5786840151600019600387901b60f8161c191681555b50505050600190811b01905550565b634e487b7160e01b600052601160045260246000fd5b6001815b600184111561032e57808504811115610312576103126102dd565b600184161561032057908102905b60019390931c9280026102f7565b935093915050565b600082610345575060016103d6565b81610352575060006103d6565b816001811461036857600281146103725761038e565b60019150506103d6565b60ff841115610383576103836102dd565b50506001821b6103d6565b5060208310610133831016604e8410600b84101617156103b1575081810a6103d6565b6103be60001984846102f3565b80600019048211156103d2576103d26102dd565b0290505b92915050565b60006103eb60ff841683610336565b9392505050565b80820281158282048414176103d6576103d66102dd565b808201808211156103d6576103d66102dd565b610b7d8061042b6000396000f3fe608060405234801561001057600080fd5b50600436106100ea5760003560e01c806370a082311161008c5780639dc29fac116100665780639dc29fac146101e8578063a457c2d7146101fb578063a9059cbb1461020e578063dd62ed3e1461022157600080fd5b806370a082311461018c5780638da5cb5b146101b557806395d89b41146101e057600080fd5b806323b872dd116100c857806323b872dd14610142578063313ce56714610155578063395093511461016457806340c10f191461017757600080fd5b806306fdde03146100ef578063095ea7b31461010d57806318160ddd14610130575b600080fd5b6100f7610234565b60405161010491906109c6565b60405180910390f35b61012061011b366004610a30565b6102c6565b6040519015158152602001610104565b6002545b604051908152602001610104565b610120610150366004610a5a565b6102e0565b60405160128152602001610104565b610120610172366004610a30565b610304565b61018a610185366004610a30565b610326565b005b61013461019a366004610a97565b6001600160a01b031660009081526020819052604090205490565b6005546101c8906001600160a01b031681565b6040516001600160a01b039091168152602001610104565b6100f7610383565b61018a6101f6366004610a30565b610392565b610120610209366004610a30565b6103e6565b61012061021c366004610a30565b610461565b61013461022f366004610ab9565b61046f565b60606003805461024390610aec565b80601f016020809104026020016040519081016040528092919081815260200182805461026f90610aec565b80156102bc5780601f10610291576101008083540402835291602001916102bc565b820191906000526020600020905b81548152906001019060200180831161029f57829003601f168201915b5050505050905090565b6000336102d481858561049a565b60019150505b92915050565b6000336102ee8582856105bf565b6102f9858585610639565b506001949350505050565b6000336102d4818585610317838361046f565b6103219190610b26565b61049a565b6005546001600160a01b031633146103755760405162461bcd60e51b815260206004820152600d60248201526c2737ba103a34329037bbb732b960991b60448201526064015b60405180910390fd5b61037f82826107dd565b5050565b60606004805461024390610aec565b6005546001600160a01b031633146103dc5760405162461bcd60e51b815260206004820152600d60248201526c2737ba103a34329037bbb732b960991b604482015260640161036c565b61037f828261089c565b600033816103f4828661046f565b9050838110156104545760405162461bcd60e51b815260206004820152602560248201527f45524332303a2064656372656173656420616c6c6f77616e63652062656c6f77604482015264207a65726f60d81b606482015260840161036c565b6102f9828686840361049a565b6000336102d4818585610639565b6001600160a01b03918216600090815260016020908152604080832093909416825291909152205490565b6001600160a01b0383166104fc5760405162461bcd60e51b8152602060048201526024808201527f45524332303a20617070726f76652066726f6d20746865207a65726f206164646044820152637265737360e01b606482015260840161036c565b6001600160a01b03821661055d5760405162461bcd60e51b815260206004820152602260248201527f45524332303a20617070726f766520746f20746865207a65726f206164647265604482015261737360f01b606482015260840161036c565b6001600160a01b0383811660008181526001602090815260408083209487168084529482529182902085905590518481527f8c5be1e5ebec7d5bd14f71427d1e84f3dd0314c0f7b2291e5b200ac8c7c3b92591015b60405180910390a3505050565b60006105cb848461046f565b9050600019811461063357818110156106265760405162461bcd60e51b815260206004820152601d60248201527f45524332303a20696e73756666696369656e7420616c6c6f77616e6365000000604482015260640161036c565b610633848484840361049a565b50505050565b6001600160a01b03831661069d5760405162461bcd60e51b815260206004820152602560248201527f45524332303a207472616e736665722066726f6d20746865207a65726f206164604482015264647265737360d81b606482015260840161036c565b6001600160a01b0382166106ff5760405162461bcd60e51b815260206004820152602360248201527f45524332303a207472616e7366657220746f20746865207a65726f206164647260448201526265737360e81b606482015260840161036c565b6001600160a01b038316600090815260208190526040902054818110156107775760405162461bcd60e51b815260206004820152602660248201527f45524332303a207472616e7366657220616d6f756e7420657863656564732062604482015265616c616e636560d01b606482015260840161036c565b6001600160a01b03848116600081815260208181526040808320878703905593871680835291849020805487019055925185815290927fddf252ad1be2c89b69c2b068fc378daa952ba7f163c4a11628f55a4df523b3ef910160405180910390a3610633565b6001600160a01b0382166108335760405162461bcd60e51b815260206004820152601f60248201527f45524332303a206d696e7420746f20746865207a65726f206164647265737300604482015260640161036c565b80600260008282546108459190610b26565b90915550506001600160a01b038216600081815260208181526040808320805486019055518481527fddf252ad1be2c89b69c2b068fc378daa952ba7f163c4a11628f55a4df523b3ef910160405180910390a35050565b6001600160a01b0382166108fc5760405162461bcd60e51b815260206004820152602160248201527f45524332303a206275726e2066726f6d20746865207a65726f206164647265736044820152607360f81b606482015260840161036c565b6001600160a01b038216600090815260208190526040902054818110156109705760405162461bcd60e51b815260206004820152602260248201527f45524332303a206275726e20616d6f756e7420657863656564732062616c616e604482015261636560f01b606482015260840161036c565b6001600160a01b0383166000818152602081815260408083208686039055600280548790039055518581529192917fddf252ad1be2c89b69c2b068fc378daa952ba7f163c4a11628f55a4df523b3ef91016105b2565b602081526000825180602084015260005b818110156109f457602081860181015160408684010152016109d7565b506000604082850101526040601f19601f83011684010191505092915050565b80356001600160a01b0381168114610a2b57600080fd5b919050565b60008060408385031215610a4357600080fd5b610a4c83610a14565b946020939093013593505050565b600080600060608486031215610a6f57600080fd5b610a7884610a14565b9250610a8660208501610a14565b929592945050506040919091013590565b600060208284031215610aa957600080fd5b610ab282610a14565b9392505050565b60008060408385031215610acc57600080fd5b610ad583610a14565b9150610ae360208401610a14565b90509250929050565b600181811c90821680610b0057607f821691505b602082108103610b2057634e487b7160e01b600052602260045260246000fd5b50919050565b808201808211156102da57634e487b7160e01b600052601160045260246000fdfea2646970667358221220f8448266dc9c82159c5d5b55338ecac1932f650ee6e2a94ab7216a5b02b56c3064736f6c634300081c0033",
  "linkReferences": {},
  "deployedLinkReferences": {}
}