{
  "_format": "hh-sol-artifact-1",
  "contractName": "OwnerRoles",
  "sourceName": "contracts/roles/permissioning/owner/OwnerRoles.sol",
  "abi": [
    {
      "anonymous": false,
      "inputs": [
        {
          "indexed": true,
          "internalType": "address",
          "name": "previousOwner",
          "type": "address"
        },
        {
          "indexed": true,
          "internalType": "address",
          "name": "newOwner",
          "type": "address"
        }
      ],
      "name": "OwnershipTransferred",
      "type": "event"
    },
    {
      "anonymous": false,
      "inputs": [
        {
          "indexed": true,
          "internalType": "address",
          "name": "_owner",
          "type": "address"
        },
        {
          "indexed": false,
          "internalType": "string",
          "name": "_role",
          "type": "string"
        }
      ],
      "name": "RoleAdded",
      "type": "event"
    },
    {
      "anonymous": false,
      "inputs": [
        {
          "indexed": true,
          "internalType": "address",
          "name": "_owner",
          "type": "address"
        },
        {
          "indexed": false,
          "internalType": "string",
          "name": "_role",
          "type": "string"
        }
      ],
      "name": "RoleRemoved",
      "type": "event"
    },
    {
      "inputs": [
        {
          "internalType": "address",
          "name": "_owner",
          "type": "address"
        }
      ],
      "name": "addClaimRegistryManager",
      "outputs": [],
      "stateMutability": "nonpayable",
      "type": "function"
    },
    {
      "inputs": [
        {
          "internalType": "address",
          "name": "_owner",
          "type": "address"
        }
      ],
      "name": "addComplianceManager",
      "outputs": [],
      "stateMutability": "nonpayable",
      "type": "function"
    },
    {
      "inputs": [
        {
          "internalType": "address",
          "name": "_owner",
          "type": "address"
        }
      ],
      "name": "addComplianceSetter",
      "outputs": [],
      "stateMutability": "nonpayable",
      "type": "function"
    },
    {
      "inputs": [
        {
          "internalType": "address",
          "name": "_owner",
          "type": "address"
        }
      ],
      "name": "addIssuersRegistryManager",
      "outputs": [],
      "stateMutability": "nonpayable",
      "type": "function"
    },
    {
      "inputs": [
        {
          "internalType": "address",
          "name": "_owner",
          "type": "address"
        }
      ],
      "name": "addOwnerAdmin",
      "outputs": [],
      "stateMutability": "nonpayable",
      "type": "function"
    },
    {
      "inputs": [
        {
          "internalType": "address",
          "name": "_owner",
          "type": "address"
        }
      ],
      "name": "addRegistryAddressSetter",
      "outputs": [],
      "stateMutability": "nonpayable",
      "type": "function"
    },
    {
      "inputs": [
        {
          "internalType": "address",
          "name": "_owner",
          "type": "address"
        }
      ],
      "name": "addTokenInfoManager",
      "outputs": [],
      "stateMutability": "nonpayable",
      "type": "function"
    },
    {
      "inputs": [
        {
          "internalType": "address",
          "name": "_owner",
          "type": "address"
        }
      ],
      "name": "isClaimRegistryManager",
      "outputs": [
        {
          "internalType": "bool",
          "name": "",
          "type": "bool"
        }
      ],
      "stateMutability": "view",
      "type": "function"
    },
    {
      "inputs": [
        {
          "internalType": "address",
          "name": "_owner",
          "type": "address"
        }
      ],
      "name": "isComplianceManager",
      "outputs": [
        {
          "internalType": "bool",
          "name": "",
          "type": "bool"
        }
      ],
      "stateMutability": "view",
      "type": "function"
    },
    {
      "inputs": [
        {
          "internalType": "address",
          "name": "_owner",
          "type": "address"
        }
      ],
      "name": "isComplianceSetter",
      "outputs": [
        {
          "internalType": "bool",
          "name": "",
          "type": "bool"
        }
      ],
      "stateMutability": "view",
      "type": "function"
    },
    {
      "inputs": [
        {
          "internalType": "address",
          "name": "_owner",
          "type": "address"
        }
      ],
      "name": "isIssuersRegistryManager",
      "outputs": [
        {
          "internalType": "bool",
          "name": "",
          "type": "bool"
        }
      ],
      "stateMutability": "view",
      "type": "function"
    },
    {
      "inputs": [
        {
          "internalType": "address",
          "name": "_owner",
          "type": "address"
        }
      ],
      "name": "isOwnerAdmin",
      "outputs": [
        {
          "internalType": "bool",
          "name": "",
          "type": "bool"
        }
      ],
      "stateMutability": "view",
      "type": "function"
    },
    {
      "inputs": [
        {
          "internalType": "address",
          "name": "_owner",
          "type": "address"
        }
      ],
      "name": "isRegistryAddressSetter",
      "outputs": [
        {
          "internalType": "bool",
          "name": "",
          "type": "bool"
        }
      ],
      "stateMutability": "view",
      "type": "function"
    },
    {
      "inputs": [
        {
          "internalType": "address",
          "name": "_owner",
          "type": "address"
        }
      ],
      "name": "isTokenInfoManager",
      "outputs": [
        {
          "internalType": "bool",
          "name": "",
          "type": "bool"
        }
      ],
      "stateMutability": "view",
      "type": "function"
    },
    {
      "inputs": [],
      "name": "owner",
      "outputs": [
        {
          "internalType": "address",
          "name": "",
          "type": "address"
        }
      ],
      "stateMutability": "view",
      "type": "function"
    },
    {
      "inputs": [
        {
          "internalType": "address",
          "name": "_owner",
          "type": "address"
        }
      ],
      "name": "removeClaimRegistryManager",
      "outputs": [],
      "stateMutability": "nonpayable",
      "type": "function"
    },
    {
      "inputs": [
        {
          "internalType": "address",
          "name": "_owner",
          "type": "address"
        }
      ],
      "name": "removeComplianceManager",
      "outputs": [],
      "stateMutability": "nonpayable",
      "type": "function"
    },
    {
      "inputs": [
        {
          "internalType": "address",
          "name": "_owner",
          "type": "address"
        }
      ],
      "name": "removeComplianceSetter",
      "outputs": [],
      "stateMutability": "nonpayable",
      "type": "function"
    },
    {
      "inputs": [
        {
          "internalType": "address",
          "name": "_owner",
          "type": "address"
        }
      ],
      "name": "removeIssuersRegistryManager",
      "outputs": [],
      "stateMutability": "nonpayable",
      "type": "function"
    },
    {
      "inputs": [
        {
          "internalType": "address",
          "name": "_owner",
          "type": "address"
        }
      ],
      "name": "removeOwnerAdmin",
      "outputs": [],
      "stateMutability": "nonpayable",
      "type": "function"
    },
    {
      "inputs": [
        {
          "internalType": "address",
          "name": "_owner",
          "type": "address"
        }
      ],
      "name": "removeRegistryAddressSetter",
      "outputs": [],
      "stateMutability": "nonpayable",
      "type": "function"
    },
    {
      "inputs": [
        {
          "internalType": "address",
          "name": "_owner",
          "type": "address"
        }
      ],
      "name": "removeTokenInfoManager",
      "outputs": [],
      "stateMutability": "nonpayable",
      "type": "function"
    },
    {
      "inputs": [],
      "name": "renounceOwnership",
      "outputs": [],
      "stateMutability": "nonpayable",
      "type": "function"
    },
    {
      "inputs": [
        {
          "internalType": "address",
          "name": "newOwner",
          "type": "address"
        }
      ],
      "name": "transferOwnership",
      "outputs": [],
      "stateMutability": "nonpayable",
      "type": "function"
    }
  ],
  "bytecode": "0x6080806040523461005b5760008054336001600160a01b0319821681178355916001600160a01b03909116907f8be0079c531659141344cd1fd0a4f28419497f9722a3daafe3b4186f6b6457e09080a361115890816100618239f35b600080fdfe60406080815260048036101561001457600080fd5b600090813560e01c8063039ec2cd14610d4d57806303ff501414610cb95780632447e50b14610c725780633ba7c75e14610c2b5780633c734ce814610be45780634052255414610b6f57806346b686f814610afc57806354b9797f14610a8757806362cdd48214610a4c5780636ff7bff7146109d7578063715018a61461097a5780638287093714610933578063882fc6ca146108be5780638da5cb5b14610896578063934b2da4146107e757806394e69f1b14610732578063a66bcc1c1461067e578063ac95fc91146105c3578063ae5aaa3b14610509578063ce4bdac714610454578063e110255b14610393578063f2fde38b146102c9578063faed696a146101c45763ff8063111461012857600080fd5b346101c05760203660031901126101c05780356001600160a01b03811691908290036101bc57811561016e5760208460ff81868681526006855220541690519015158152f35b608490602085519162461bcd60e51b8352820152602260248201527f526f6c65733a206163636f756e7420697320746865207a65726f206164647265604482015261737360f01b6064820152fd5b8280fd5b5080fd5b5082346101bc5760203660031901126101bc5781356001600160a01b0381811693918481036102c55761020b91865416331480156102b1575b61020690610e1a565b6110bf565b61026f5750610269600080516020611103833981519152918385526005602052808520600160ff19825416179055610241610f30565b907321b630b4b6a932b3b4b9ba393ca6b0b730b3b2b960611b60208301525191829182610f54565b0390a280f35b6020606492519162461bcd60e51b8352820152601f60248201527f526f6c65733a206163636f756e7420616c72656164792068617320726f6c65006044820152fd5b506102066102be33610f9d565b90506101fd565b8580fd5b5082346101bc5760203660031901126101bc576001600160a01b0382358181169391929084900361038f576102fc610dc2565b831561033d57505082546001600160a01b0319811683178455167f8be0079c531659141344cd1fd0a4f28419497f9722a3daafe3b4186f6b6457e08380a380f35b906020608492519162461bcd60e51b8352820152602660248201527f4f776e61626c653a206e6577206f776e657220697320746865207a65726f206160448201526564647265737360d01b6064820152fd5b8480fd5b5082346101bc5760203660031901126101bc5781356001600160a01b0381811693918481036102c5576103d491865416331480156102b15761020690610e1a565b1561040857506102696000805160206110e383398151915291838552600560205280852060ff198154169055610241610f30565b6020608492519162461bcd60e51b8352820152602160248201527f526f6c65733a206163636f756e7420646f6573206e6f74206861766520726f6c6044820152606560f81b6064820152fd5b5082346101bc5760203660031901126101bc5781356001600160a01b0381811693918481036102c55761049b91865416331480156104f5575b61049690610e1a565b611033565b61026f5750610269600080516020611103833981519152918385526003602052808520600160ff198254161790556104d1610ea0565b906f21b7b6b83634b0b731b2a9b2ba3a32b960811b60208301525191829182610f54565b5061049661050233610f9d565b905061048d565b5082346101bc5760203660031901126101bc5781356001600160a01b0381811693918481036102c55761055091865416331480156105af575b61054b90610e1a565b611010565b61026f5750610269600080516020611103833981519152918385526002602052808520600160ff19825416179055610586610e66565b90742932b3b4b9ba393ca0b2323932b9b9a9b2ba3a32b960591b60208301525191829182610f54565b5061054b6105bc33610f9d565b9050610542565b5082346101bc5760203660031901126101bc5781356001600160a01b0381811693918481036102c55761060a918654163314801561066a575b61060590610e1a565b611079565b61026f5750610269600080516020611103833981519152918385526006602052808520600160ff19825416179055610640610f0c565b907524b9b9bab2b939a932b3b4b9ba393ca6b0b730b3b2b960511b60208301525191829182610f54565b5061060561067733610f9d565b90506105fc565b5082346101bc5760203660031901126101bc5781356001600160a01b0381811693918481036102c5576106c5918654163314801561071e575b6106c090610e1a565b611056565b61026f57828452602052808320805460ff1916600117905560008051602061110383398151915290610269906106f9610ec4565b907021b7b6b83634b0b731b2a6b0b730b3b2b960791b60208301525191829182610f54565b506106c061072b33610f9d565b90506106b7565b5082346101bc5760203660031901126101bc5781356001600160a01b0381811693918481036102c55761077991865416331480156107d3575b61077490610e1a565b61109c565b61026f5750610269600080516020611103833981519152918385526007602052808520600160ff198254161790556107af610ea0565b906f2a37b5b2b724b73337a6b0b730b3b2b960811b60208301525191829182610f54565b506107746107e033610f9d565b905061076b565b5082346101bc5760203660031901126101bc5781356001600160a01b0381811693918481036102c55761082e9186541633148015610882575b61082990610e1a565b610f9d565b61026f5750610269600080516020611103833981519152918385526001602052808520600160ff19825416179055610864610ee8565b906927bbb732b920b236b4b760b11b60208301525191829182610f54565b5061082961088f33610f9d565b9050610820565b8284346101c057816003193601126101c057905490516001600160a01b039091168152602090f35b5082346101bc5760203660031901126101bc5781356001600160a01b0381811693918481036102c5576108ff91865416331480156107d35761077490610e1a565b1561040857506102696000805160206110e383398151915291838552600760205280852060ff1981541690556107af610ea0565b50346101c05760203660031901126101c05780356001600160a01b03811691908290036101bc57811561016e5760208460ff81868681526002855220541690519015158152f35b82346109d457806003193601126109d457610993610dc2565b80546001600160a01b03198116825581906001600160a01b03167f8be0079c531659141344cd1fd0a4f28419497f9722a3daafe3b4186f6b6457e08280a380f35b80fd5b5082346101bc5760203660031901126101bc5781356001600160a01b0381811693918481036102c557610a18918654163314801561066a5761060590610e1a565b1561040857506102696000805160206110e383398151915291838552600660205280852060ff198154169055610640610f0c565b508290346101bc5760203660031901126101bc5735916001600160a01b03831683036109d45750610a7e602092610f9d565b90519015158152f35b5082346101bc5760203660031901126101bc5781356001600160a01b0381811693918481036102c557610ac891865416331480156108825761082990610e1a565b1561040857506102696000805160206110e383398151915291838552600160205280852060ff198154169055610864610ee8565b5082346101bc5760203660031901126101bc5781356001600160a01b0381811693918481036102c557610b3d918654163314801561071e576106c090610e1a565b1561040857828452602052808320805460ff191690556000805160206110e383398151915290610269906106f9610ec4565b5082346101bc5760203660031901126101bc5781356001600160a01b0381811693918481036102c557610bb091865416331480156104f55761049690610e1a565b1561040857506102696000805160206110e383398151915291838552600360205280852060ff1981541690556104d1610ea0565b50346101c05760203660031901126101c05780356001600160a01b03811691908290036101bc57811561016e5760208460ff81868681526005855220541690519015158152f35b50346101c05760203660031901126101c05780356001600160a01b03811691908290036101bc57811561016e5760208460ff81868681526003855220541690519015158152f35b50346101c05760203660031901126101c05780356001600160a01b03811691908290036101bc57811561016e5760208460ff81868681526007855220541690519015158152f35b509190346109d45760203660031901126109d45782356001600160a01b038116908190036101c0578015610cff5781602094849260ff9452855220541690519015158152f35b825162461bcd60e51b8152602081860152602260248201527f526f6c65733a206163636f756e7420697320746865207a65726f206164647265604482015261737360f01b6064820152608490fd5b5082346101bc5760203660031901126101bc5781356001600160a01b0381811693918481036102c557610d8e91865416331480156105af5761054b90610e1a565b1561040857506102696000805160206110e383398151915291838552600260205280852060ff198154169055610586610e66565b6000546001600160a01b03163303610dd657565b606460405162461bcd60e51b815260206004820152602060248201527f4f776e61626c653a2063616c6c6572206973206e6f7420746865206f776e65726044820152fd5b15610e2157565b60405162461bcd60e51b815260206004820152601960248201527f526f6c653a2053656e646572206973204e4f542041646d696e000000000000006044820152606490fd5b604051906040820182811067ffffffffffffffff821117610e8a5760405260158252565b634e487b7160e01b600052604160045260246000fd5b604051906040820182811067ffffffffffffffff821117610e8a5760405260108252565b604051906040820182811067ffffffffffffffff821117610e8a5760405260118252565b604051906040820182811067ffffffffffffffff821117610e8a57604052600a8252565b604051906040820182811067ffffffffffffffff821117610e8a5760405260168252565b604051906040820182811067ffffffffffffffff821117610e8a5760405260148252565b6020808252825181830181905290939260005b828110610f8957505060409293506000838284010152601f8019910116010190565b818101860151848201604001528501610f67565b6001600160a01b03168015610fc057600052600160205260ff6040600020541690565b60405162461bcd60e51b815260206004820152602260248201527f526f6c65733a206163636f756e7420697320746865207a65726f206164647265604482015261737360f01b6064820152608490fd5b6001600160a01b03168015610fc057600052600260205260ff6040600020541690565b6001600160a01b03168015610fc057600052600360205260ff6040600020541690565b6001600160a01b03168015610fc057600052600460205260ff6040600020541690565b6001600160a01b03168015610fc057600052600660205260ff6040600020541690565b6001600160a01b03168015610fc057600052600760205260ff6040600020541690565b6001600160a01b03168015610fc057600052600560205260ff604060002054169056fed211483f91fc6eff862467f8de606587a30c8fc9981056f051b897a418df803abfec83d64eaa953f2708271a023ab9ee82057f8f3578d548c1a4ba0b5b700489a26469706673582212208bfec86a49f4b6dd16c925c366022e5042cd9263a6757cdf19e900022001188564736f6c63430008110033",
  "linkReferences": {},
  "deployedLinkReferences": {}
}