{"contracts/config/FileStorage.sol":{"FileStorage":{"abi":[{"anonymous":false,"inputs":[{"indexed":true,"internalType":"address","name":"user","type":"address"},{"indexed":false,"internalType":"bytes32","name":"fileHash","type":"bytes32"}],"name":"FileStored","type":"event"},{"inputs":[],"name":"getFileHash","outputs":[{"internalType":"bytes32","name":"","type":"bytes32"}],"stateMutability":"view","type":"function"},{"inputs":[{"internalType":"bytes32","name":"_fileHash","type":"bytes32"}],"name":"storeFileHash","outputs":[],"stateMutability":"nonpayable","type":"function"}],"evm":{"bytecode":{"linkReferences":{},"object":"608080604052346100155760e0908161001b8239f35b600080fdfe6080806040526004361015601257600080fd5b600090813560e01c9081638493f71f146085575063cf4df59e14603457600080fd5b346082576020366003190112608257600435338252816020528060408320556040519081527f3c46079f9cd648b7312f41c1ecf040423a99aa48b9892bcebd68aa199d5344d860203392a280f35b80fd5b90503460a6578160031936011260a657604060209233815280845220548152f35b5080fdfea2646970667358221220be352de64d2123c53b3082d5ff4e828f13bef1387f5615df519ebb33f265b96a64736f6c63430008140033","opcodes":"PUSH1 0x80 DUP1 PUSH1 0x40 MSTORE CALLVALUE PUSH2 0x15 JUMPI PUSH1 0xE0 SWAP1 DUP2 PUSH2 0x1B DUP3 CODECOPY RETURN JUMPDEST PUSH1 0x0 DUP1 REVERT INVALID PUSH1 0x80 DUP1 PUSH1 0x40 MSTORE PUSH1 0x4 CALLDATASIZE LT ISZERO PUSH1 0x12 JUMPI PUSH1 0x0 DUP1 REVERT JUMPDEST PUSH1 0x0 SWAP1 DUP2 CALLDATALOAD PUSH1 0xE0 SHR SWAP1 DUP2 PUSH4 0x8493F71F EQ PUSH1 0x85 JUMPI POP PUSH4 0xCF4DF59E EQ PUSH1 0x34 JUMPI PUSH1 0x0 DUP1 REVERT JUMPDEST CALLVALUE PUSH1 0x82 JUMPI PUSH1 0x20 CALLDATASIZE PUSH1 0x3 NOT ADD SLT PUSH1 0x82 JUMPI PUSH1 0x4 CALLDATALOAD CALLER DUP3 MSTORE DUP2 PUSH1 0x20 MSTORE DUP1 PUSH1 0x40 DUP4 KECCAK256 SSTORE PUSH1 0x40 MLOAD SWAP1 DUP2 MSTORE PUSH32 0x3C46079F9CD648B7312F41C1ECF040423A99AA48B9892BCEBD68AA199D5344D8 PUSH1 0x20 CALLER SWAP3 LOG2 DUP1 RETURN JUMPDEST DUP1 REVERT JUMPDEST SWAP1 POP CALLVALUE PUSH1 0xA6 JUMPI DUP2 PUSH1 0x3 NOT CALLDATASIZE ADD SLT PUSH1 0xA6 JUMPI PUSH1 0x40 PUSH1 0x20 SWAP3 CALLER DUP2 MSTORE DUP1 DUP5 MSTORE KECCAK256 SLOAD DUP2 MSTORE RETURN JUMPDEST POP DUP1 REVERT INVALID LOG2 PUSH5 0x6970667358 0x22 SLT KECCAK256 0xBE CALLDATALOAD 0x2D 0xE6 0x4D 0x21 0x23 0xC5 EXTCODESIZE ADDRESS DUP3 0xD5 SELFDESTRUCT 0x4E DUP3 DUP16 SGT 0xBE CALL CODESIZE PUSH32 0x5615DF519EBB33F265B96A64736F6C6343000814003300000000000000000000 "},"methodIdentifiers":{"getFileHash()":"8493f71f","storeFileHash(bytes32)":"cf4df59e"}}}}}