{"contracts/SecureEscrow.sol":{"SecureEscrow":{"abi":[{"inputs":[{"internalType":"address","name":"_usdtToken","type":"address"},{"internalType":"address","name":"_gnosisSafe","type":"address"}],"stateMutability":"nonpayable","type":"constructor"},{"anonymous":false,"inputs":[{"indexed":true,"internalType":"address","name":"user","type":"address"},{"indexed":false,"internalType":"uint256","name":"amount","type":"uint256"},{"indexed":false,"internalType":"string","name":"currency","type":"string"}],"name":"Deposited","type":"event"},{"anonymous":false,"inputs":[{"indexed":true,"internalType":"address","name":"user","type":"address"},{"indexed":false,"internalType":"uint256","name":"amount","type":"uint256"},{"indexed":false,"internalType":"string","name":"currency","type":"string"}],"name":"Withdrawn","type":"event"},{"inputs":[],"name":"depositETH","outputs":[],"stateMutability":"payable","type":"function"},{"inputs":[{"internalType":"uint256","name":"amount","type":"uint256"}],"name":"depositUSDT","outputs":[],"stateMutability":"nonpayable","type":"function"},{"inputs":[{"internalType":"address","name":"","type":"address"}],"name":"ethBalances","outputs":[{"internalType":"uint256","name":"","type":"uint256"}],"stateMutability":"view","type":"function"},{"inputs":[],"name":"getEscrowBalance","outputs":[{"internalType":"uint256","name":"ethBalance","type":"uint256"},{"internalType":"uint256","name":"usdtBalance","type":"uint256"}],"stateMutability":"view","type":"function"},{"inputs":[{"internalType":"address","name":"user","type":"address"}],"name":"getUserBalance","outputs":[{"internalType":"uint256","name":"ethBalance","type":"uint256"},{"internalType":"uint256","name":"usdtBalance","type":"uint256"}],"stateMutability":"view","type":"function"},{"inputs":[],"name":"gnosisSafe","outputs":[{"internalType":"address","name":"","type":"address"}],"stateMutability":"view","type":"function"},{"inputs":[{"internalType":"address","name":"","type":"address"}],"name":"usdtBalances","outputs":[{"internalType":"uint256","name":"","type":"uint256"}],"stateMutability":"view","type":"function"},{"inputs":[],"name":"usdtToken","outputs":[{"internalType":"address","name":"","type":"address"}],"stateMutability":"view","type":"function"},{"inputs":[{"internalType":"address","name":"recipient","type":"address"},{"internalType":"uint256","name":"amount","type":"uint256"}],"name":"withdrawETH","outputs":[],"stateMutability":"nonpayable","type":"function"},{"inputs":[{"internalType":"address","name":"recipient","type":"address"},{"internalType":"uint256","name":"amount","type":"uint256"}],"name":"withdrawUSDT","outputs":[],"stateMutability":"nonpayable","type":"function"}],"evm":{"bytecode":{"linkReferences":{},"object":"60c03461009d57601f61099f38819003918201601f19168301916001600160401b038311848410176100a257808492604094855283398101031261009d57610052602061004b836100b8565b92016100b8565b9060805260a0526040516108d290816100cd8239608051818181610187015281816102cc01528181610369015261066e015260a0518181816103b10152818161044601526105f80152f35b600080fd5b634e487b7160e01b600052604160045260246000fd5b51906001600160a01b038216820361009d5756fe6040608081526004908136101561001557600080fd5b600091823560e01c80631481794e146105c85780633cfba0e314610591578063477348921461054e5780634782f77914610418578063582489cb146103e0578063a84173ae1461039c578063a98ad46c14610354578063c56e610e1461029c578063e7c80f17146101415763f6326fb31461008f57600080fd5b8260031936011261013d57341561010b5750338252816020528082206100b634825461077f565b9055517f6f85d9948d6ca3dd6ce6ce7d175da22b4e865827ae6fcd530ec7edac1240f9283391806101053482608091815260406020820152600360408201526208aa8960eb1b60608201520190565b0390a280f35b6020606492519162461bcd60e51b8352820152600d60248201526c09aeae6e840e6cadcc8408aa89609b1b6044820152fd5b8280fd5b50903461013d576020806003193601126102985782359283156102665782516323b872dd60e01b81523391810191909152306024820152604481018490528181606481887f00000000000000000000000000000000000000000000000000000000000000006001600160a01b03165af190811561025c57916101ef6001927f6f85d9948d6ca3dd6ce6ce7d175da22b4e865827ae6fcd530ec7edac1240f9289594889161022f575b506107f2565b3386525280842061020184825461077f565b9055518061010533948260809181526040602082015260046040820152631554d11560e21b60608201520190565b61024f9150833d8511610255575b61024781836107a2565b8101906107da565b386101e9565b503d61023d565b83513d87823e3d90fd5b915162461bcd60e51b815291820152600e60248201526d135d5cdd081cd95b99081554d11560921b6044820152606490fd5b8380fd5b50823461033e578060031936011261033e5782516370a0823160e01b8152309281019290925247916020816024817f00000000000000000000000000000000000000000000000000000000000000006001600160a01b03165afa918215610349578092610312575b505082519182526020820152f35b9091506020823d8211610341575b8161032d602093836107a2565b8101031261033e5750518380610304565b80fd5b3d9150610320565b8451903d90823e3d90fd5b505034610398578160031936011261039857517f00000000000000000000000000000000000000000000000000000000000000006001600160a01b03168152602090f35b5080fd5b505034610398578160031936011261039857517f00000000000000000000000000000000000000000000000000000000000000006001600160a01b03168152602090f35b5050346103985760203660031901126103985760209181906001600160a01b03610408610764565b1681526001845220549051908152f35b50903461013d578060031936011261013d57610432610764565b60243591906001600160a01b039061046d337f0000000000000000000000000000000000000000000000000000000000000000841614610835565b16928385528460205282828620541061050c57508284528360205280842061049683825461088f565b9055838284828215610503575b839283928392f1156104fa57519081526040602082018190526003908201526208aa8960eb1b60608201527fb80d46a1fcb96f3896e038df66c1242504a8e49effecd0bf2473574707ca0121908060808101610105565b513d84823e3d90fd5b506108fc6104a3565b6020606492519162461bcd60e51b8352820152601860248201527f496e73756666696369656e74204554482062616c616e636500000000000000006044820152fd5b82843461033e57602036600319011261033e576001600160a01b03610571610764565b168152806020528180822054916001602052205482519182526020820152f35b5050346103985760203660031901126103985760209181906001600160a01b036105b9610764565b16815280845220549051908152f35b503461013d578160031936011261013d576105e1610764565b6001600160a01b0392602435929091849061061f337f0000000000000000000000000000000000000000000000000000000000000000841614610835565b169384865260209160018352848488205410610721578560448492828a5260018452868a2061064f89825461088f565b9055898751958694859363a9059cbb60e01b85528401528960248401527f0000000000000000000000000000000000000000000000000000000000000000165af1918215610717577fb80d46a1fcb96f3896e038df66c1242504a8e49effecd0bf2473574707ca0121949261010594926106d19289926106fa575b50506107f2565b519182918260809181526040602082015260046040820152631554d11560e21b60608201520190565b6107109250803d106102555761024781836107a2565b38806106ca565b83513d88823e3d90fd5b835162461bcd60e51b8152908101839052601960248201527f496e73756666696369656e7420555344542062616c616e6365000000000000006044820152606490fd5b600435906001600160a01b038216820361077a57565b600080fd5b9190820180921161078c57565b634e487b7160e01b600052601160045260246000fd5b90601f8019910116810190811067ffffffffffffffff8211176107c457604052565b634e487b7160e01b600052604160045260246000fd5b9081602091031261077a5751801515810361077a5790565b156107f957565b60405162461bcd60e51b81526020600482015260146024820152731554d11508151c985b9cd9995c8819985a5b195960621b6044820152606490fd5b1561083c57565b60405162461bcd60e51b815260206004820152602560248201527f4e6f7420617574686f72697a65643a204f6e6c7920536166652063616e20617060448201526470726f766560d81b6064820152608490fd5b9190820391821161078c5756fea26469706673582212207ffd7d8718ea57e44775cd481553ecd93570d7e6d063e4daf793876bbe815cf364736f6c63430008140033","opcodes":"PUSH1 0xC0 CALLVALUE PUSH2 0x9D JUMPI PUSH1 0x1F PUSH2 0x99F CODESIZE DUP2 SWAP1 SUB SWAP2 DUP3 ADD PUSH1 0x1F NOT AND DUP4 ADD SWAP2 PUSH1 0x1 PUSH1 0x1 PUSH1 0x40 SHL SUB DUP4 GT DUP5 DUP5 LT OR PUSH2 0xA2 JUMPI DUP1 DUP5 SWAP3 PUSH1 0x40 SWAP5 DUP6 MSTORE DUP4 CODECOPY DUP2 ADD SUB SLT PUSH2 0x9D JUMPI PUSH2 0x52 PUSH1 0x20 PUSH2 0x4B DUP4 PUSH2 0xB8 JUMP JUMPDEST SWAP3 ADD PUSH2 0xB8 JUMP JUMPDEST SWAP1 PUSH1 0x80 MSTORE PUSH1 0xA0 MSTORE PUSH1 0x40 MLOAD PUSH2 0x8D2 SWAP1 DUP2 PUSH2 0xCD DUP3 CODECOPY PUSH1 0x80 MLOAD DUP2 DUP2 DUP2 PUSH2 0x187 ADD MSTORE DUP2 DUP2 PUSH2 0x2CC ADD MSTORE DUP2 DUP2 PUSH2 0x369 ADD MSTORE PUSH2 0x66E ADD MSTORE PUSH1 0xA0 MLOAD DUP2 DUP2 DUP2 PUSH2 0x3B1 ADD MSTORE DUP2 DUP2 PUSH2 0x446 ADD MSTORE PUSH2 0x5F8 ADD MSTORE RETURN JUMPDEST PUSH1 0x0 DUP1 REVERT JUMPDEST PUSH4 0x4E487B71 PUSH1 0xE0 SHL PUSH1 0x0 MSTORE PUSH1 0x41 PUSH1 0x4 MSTORE PUSH1 0x24 PUSH1 0x0 REVERT JUMPDEST MLOAD SWAP1 PUSH1 0x1 PUSH1 0x1 PUSH1 0xA0 SHL SUB DUP3 AND DUP3 SUB PUSH2 0x9D JUMPI JUMP INVALID PUSH1 0x40 PUSH1 0x80 DUP2 MSTORE PUSH1 0x4 SWAP1 DUP2 CALLDATASIZE LT ISZERO PUSH2 0x15 JUMPI PUSH1 0x0 DUP1 REVERT JUMPDEST PUSH1 0x0 SWAP2 DUP3 CALLDATALOAD PUSH1 0xE0 SHR DUP1 PUSH4 0x1481794E EQ PUSH2 0x5C8 JUMPI DUP1 PUSH4 0x3CFBA0E3 EQ PUSH2 0x591 JUMPI DUP1 PUSH4 0x47734892 EQ PUSH2 0x54E JUMPI DUP1 PUSH4 0x4782F779 EQ PUSH2 0x418 JUMPI DUP1 PUSH4 0x582489CB EQ PUSH2 0x3E0 JUMPI DUP1 PUSH4 0xA84173AE EQ PUSH2 0x39C JUMPI DUP1 PUSH4 0xA98AD46C EQ PUSH2 0x354 JUMPI DUP1 PUSH4 0xC56E610E EQ PUSH2 0x29C JUMPI DUP1 PUSH4 0xE7C80F17 EQ PUSH2 0x141 JUMPI PUSH4 0xF6326FB3 EQ PUSH2 0x8F JUMPI PUSH1 0x0 DUP1 REVERT JUMPDEST DUP3 PUSH1 0x3 NOT CALLDATASIZE ADD SLT PUSH2 0x13D JUMPI CALLVALUE ISZERO PUSH2 0x10B JUMPI POP CALLER DUP3 MSTORE DUP2 PUSH1 0x20 MSTORE DUP1 DUP3 KECCAK256 PUSH2 0xB6 CALLVALUE DUP3 SLOAD PUSH2 0x77F JUMP JUMPDEST SWAP1 SSTORE MLOAD PUSH32 0x6F85D9948D6CA3DD6CE6CE7D175DA22B4E865827AE6FCD530EC7EDAC1240F928 CALLER SWAP2 DUP1 PUSH2 0x105 CALLVALUE DUP3 PUSH1 0x80 SWAP2 DUP2 MSTORE PUSH1 0x40 PUSH1 0x20 DUP3 ADD MSTORE PUSH1 0x3 PUSH1 0x40 DUP3 ADD MSTORE PUSH3 0x8AA89 PUSH1 0xEB SHL PUSH1 0x60 DUP3 ADD MSTORE ADD SWAP1 JUMP JUMPDEST SUB SWAP1 LOG2 DUP1 RETURN JUMPDEST PUSH1 0x20 PUSH1 0x64 SWAP3 MLOAD SWAP2 PUSH3 0x461BCD PUSH1 0xE5 SHL DUP4 MSTORE DUP3 ADD MSTORE PUSH1 0xD PUSH1 0x24 DUP3 ADD MSTORE PUSH13 0x9AEAE6E840E6CADCC8408AA89 PUSH1 0x9B SHL PUSH1 0x44 DUP3 ADD MSTORE REVERT JUMPDEST DUP3 DUP1 REVERT JUMPDEST POP SWAP1 CALLVALUE PUSH2 0x13D JUMPI PUSH1 0x20 DUP1 PUSH1 0x3 NOT CALLDATASIZE ADD SLT PUSH2 0x298 JUMPI DUP3 CALLDATALOAD SWAP3 DUP4 ISZERO PUSH2 0x266 JUMPI DUP3 MLOAD PUSH4 0x23B872DD PUSH1 0xE0 SHL DUP2 MSTORE CALLER SWAP2 DUP2 ADD SWAP2 SWAP1 SWAP2 MSTORE ADDRESS PUSH1 0x24 DUP3 ADD MSTORE PUSH1 0x44 DUP2 ADD DUP5 SWAP1 MSTORE DUP2 DUP2 PUSH1 0x64 DUP2 DUP9 PUSH32 0x0 PUSH1 0x1 PUSH1 0x1 PUSH1 0xA0 SHL SUB AND GAS CALL SWAP1 DUP2 ISZERO PUSH2 0x25C JUMPI SWAP2 PUSH2 0x1EF PUSH1 0x1 SWAP3 PUSH32 0x6F85D9948D6CA3DD6CE6CE7D175DA22B4E865827AE6FCD530EC7EDAC1240F928 SWAP6 SWAP5 DUP9 SWAP2 PUSH2 0x22F JUMPI JUMPDEST POP PUSH2 0x7F2 JUMP JUMPDEST CALLER DUP7 MSTORE MSTORE DUP1 DUP5 KECCAK256 PUSH2 0x201 DUP5 DUP3 SLOAD PUSH2 0x77F JUMP JUMPDEST SWAP1 SSTORE MLOAD DUP1 PUSH2 0x105 CALLER SWAP5 DUP3 PUSH1 0x80 SWAP2 DUP2 MSTORE PUSH1 0x40 PUSH1 0x20 DUP3 ADD MSTORE PUSH1 0x4 PUSH1 0x40 DUP3 ADD MSTORE PUSH4 0x1554D115 PUSH1 0xE2 SHL PUSH1 0x60 DUP3 ADD MSTORE ADD SWAP1 JUMP JUMPDEST PUSH2 0x24F SWAP2 POP DUP4 RETURNDATASIZE DUP6 GT PUSH2 0x255 JUMPI JUMPDEST PUSH2 0x247 DUP2 DUP4 PUSH2 0x7A2 JUMP JUMPDEST DUP2 ADD SWAP1 PUSH2 0x7DA JUMP JUMPDEST CODESIZE PUSH2 0x1E9 JUMP JUMPDEST POP RETURNDATASIZE PUSH2 0x23D JUMP JUMPDEST DUP4 MLOAD RETURNDATASIZE DUP8 DUP3 RETURNDATACOPY RETURNDATASIZE SWAP1 REVERT JUMPDEST SWAP2 MLOAD PUSH3 0x461BCD PUSH1 0xE5 SHL DUP2 MSTORE SWAP2 DUP3 ADD MSTORE PUSH1 0xE PUSH1 0x24 DUP3 ADD MSTORE PUSH14 0x135D5CDD081CD95B99081554D115 PUSH1 0x92 SHL PUSH1 0x44 DUP3 ADD MSTORE PUSH1 0x64 SWAP1 REVERT JUMPDEST DUP4 DUP1 REVERT JUMPDEST POP DUP3 CALLVALUE PUSH2 0x33E JUMPI DUP1 PUSH1 0x3 NOT CALLDATASIZE ADD SLT PUSH2 0x33E JUMPI DUP3 MLOAD PUSH4 0x70A08231 PUSH1 0xE0 SHL DUP2 MSTORE ADDRESS SWAP3 DUP2 ADD SWAP3 SWAP1 SWAP3 MSTORE SELFBALANCE SWAP2 PUSH1 0x20 DUP2 PUSH1 0x24 DUP2 PUSH32 0x0 PUSH1 0x1 PUSH1 0x1 PUSH1 0xA0 SHL SUB AND GAS STATICCALL SWAP2 DUP3 ISZERO PUSH2 0x349 JUMPI DUP1 SWAP3 PUSH2 0x312 JUMPI JUMPDEST POP POP DUP3 MLOAD SWAP2 DUP3 MSTORE PUSH1 0x20 DUP3 ADD MSTORE RETURN JUMPDEST SWAP1 SWAP2 POP PUSH1 0x20 DUP3 RETURNDATASIZE DUP3 GT PUSH2 0x341 JUMPI JUMPDEST DUP2 PUSH2 0x32D PUSH1 0x20 SWAP4 DUP4 PUSH2 0x7A2 JUMP JUMPDEST DUP2 ADD SUB SLT PUSH2 0x33E JUMPI POP MLOAD DUP4 DUP1 PUSH2 0x304 JUMP JUMPDEST DUP1 REVERT JUMPDEST RETURNDATASIZE SWAP2 POP PUSH2 0x320 JUMP JUMPDEST DUP5 MLOAD SWAP1 RETURNDATASIZE SWAP1 DUP3 RETURNDATACOPY RETURNDATASIZE SWAP1 REVERT JUMPDEST POP POP CALLVALUE PUSH2 0x398 JUMPI DUP2 PUSH1 0x3 NOT CALLDATASIZE ADD SLT PUSH2 0x398 JUMPI MLOAD PUSH32 0x0 PUSH1 0x1 PUSH1 0x1 PUSH1 0xA0 SHL SUB AND DUP2 MSTORE PUSH1 0x20 SWAP1 RETURN JUMPDEST POP DUP1 REVERT JUMPDEST POP POP CALLVALUE PUSH2 0x398 JUMPI DUP2 PUSH1 0x3 NOT CALLDATASIZE ADD SLT PUSH2 0x398 JUMPI MLOAD PUSH32 0x0 PUSH1 0x1 PUSH1 0x1 PUSH1 0xA0 SHL SUB AND DUP2 MSTORE PUSH1 0x20 SWAP1 RETURN JUMPDEST POP POP CALLVALUE PUSH2 0x398 JUMPI PUSH1 0x20 CALLDATASIZE PUSH1 0x3 NOT ADD SLT PUSH2 0x398 JUMPI PUSH1 0x20 SWAP2 DUP2 SWAP1 PUSH1 0x1 PUSH1 0x1 PUSH1 0xA0 SHL SUB PUSH2 0x408 PUSH2 0x764 JUMP JUMPDEST AND DUP2 MSTORE PUSH1 0x1 DUP5 MSTORE KECCAK256 SLOAD SWAP1 MLOAD SWAP1 DUP2 MSTORE RETURN JUMPDEST POP SWAP1 CALLVALUE PUSH2 0x13D JUMPI DUP1 PUSH1 0x3 NOT CALLDATASIZE ADD SLT PUSH2 0x13D JUMPI PUSH2 0x432 PUSH2 0x764 JUMP JUMPDEST PUSH1 0x24 CALLDATALOAD SWAP2 SWAP1 PUSH1 0x1 PUSH1 0x1 PUSH1 0xA0 SHL SUB SWAP1 PUSH2 0x46D CALLER PUSH32 0x0 DUP5 AND EQ PUSH2 0x835 JUMP JUMPDEST AND SWAP3 DUP4 DUP6 MSTORE DUP5 PUSH1 0x20 MSTORE DUP3 DUP3 DUP7 KECCAK256 SLOAD LT PUSH2 0x50C JUMPI POP DUP3 DUP5 MSTORE DUP4 PUSH1 0x20 MSTORE DUP1 DUP5 KECCAK256 PUSH2 0x496 DUP4 DUP3 SLOAD PUSH2 0x88F JUMP JUMPDEST SWAP1 SSTORE DUP4 DUP3 DUP5 DUP3 DUP3 ISZERO PUSH2 0x503 JUMPI JUMPDEST DUP4 SWAP3 DUP4 SWAP3 DUP4 SWAP3 CALL ISZERO PUSH2 0x4FA JUMPI MLOAD SWAP1 DUP2 MSTORE PUSH1 0x40 PUSH1 0x20 DUP3 ADD DUP2 SWAP1 MSTORE PUSH1 0x3 SWAP1 DUP3 ADD MSTORE PUSH3 0x8AA89 PUSH1 0xEB SHL PUSH1 0x60 DUP3 ADD MSTORE PUSH32 0xB80D46A1FCB96F3896E038DF66C1242504A8E49EFFECD0BF2473574707CA0121 SWAP1 DUP1 PUSH1 0x80 DUP2 ADD PUSH2 0x105 JUMP JUMPDEST MLOAD RETURNDATASIZE DUP5 DUP3 RETURNDATACOPY RETURNDATASIZE SWAP1 REVERT JUMPDEST POP PUSH2 0x8FC PUSH2 0x4A3 JUMP JUMPDEST PUSH1 0x20 PUSH1 0x64 SWAP3 MLOAD SWAP2 PUSH3 0x461BCD PUSH1 0xE5 SHL DUP4 MSTORE DUP3 ADD MSTORE PUSH1 0x18 PUSH1 0x24 DUP3 ADD MSTORE PUSH32 0x496E73756666696369656E74204554482062616C616E63650000000000000000 PUSH1 0x44 DUP3 ADD MSTORE REVERT JUMPDEST DUP3 DUP5 CALLVALUE PUSH2 0x33E JUMPI PUSH1 0x20 CALLDATASIZE PUSH1 0x3 NOT ADD SLT PUSH2 0x33E JUMPI PUSH1 0x1 PUSH1 0x1 PUSH1 0xA0 SHL SUB PUSH2 0x571 PUSH2 0x764 JUMP JUMPDEST AND DUP2 MSTORE DUP1 PUSH1 0x20 MSTORE DUP2 DUP1 DUP3 KECCAK256 SLOAD SWAP2 PUSH1 0x1 PUSH1 0x20 MSTORE KECCAK256 SLOAD DUP3 MLOAD SWAP2 DUP3 MSTORE PUSH1 0x20 DUP3 ADD MSTORE RETURN JUMPDEST POP POP CALLVALUE PUSH2 0x398 JUMPI PUSH1 0x20 CALLDATASIZE PUSH1 0x3 NOT ADD SLT PUSH2 0x398 JUMPI PUSH1 0x20 SWAP2 DUP2 SWAP1 PUSH1 0x1 PUSH1 0x1 PUSH1 0xA0 SHL SUB PUSH2 0x5B9 PUSH2 0x764 JUMP JUMPDEST AND DUP2 MSTORE DUP1 DUP5 MSTORE KECCAK256 SLOAD SWAP1 MLOAD SWAP1 DUP2 MSTORE RETURN JUMPDEST POP CALLVALUE PUSH2 0x13D JUMPI DUP2 PUSH1 0x3 NOT CALLDATASIZE ADD SLT PUSH2 0x13D JUMPI PUSH2 0x5E1 PUSH2 0x764 JUMP JUMPDEST PUSH1 0x1 PUSH1 0x1 PUSH1 0xA0 SHL SUB SWAP3 PUSH1 0x24 CALLDATALOAD SWAP3 SWAP1 SWAP2 DUP5 SWAP1 PUSH2 0x61F CALLER PUSH32 0x0 DUP5 AND EQ PUSH2 0x835 JUMP JUMPDEST AND SWAP4 DUP5 DUP7 MSTORE PUSH1 0x20 SWAP2 PUSH1 0x1 DUP4 MSTORE DUP5 DUP5 DUP9 KECCAK256 SLOAD LT PUSH2 0x721 JUMPI DUP6 PUSH1 0x44 DUP5 SWAP3 DUP3 DUP11 MSTORE PUSH1 0x1 DUP5 MSTORE DUP7 DUP11 KECCAK256 PUSH2 0x64F DUP10 DUP3 SLOAD PUSH2 0x88F JUMP JUMPDEST SWAP1 SSTORE DUP10 DUP8 MLOAD SWAP6 DUP7 SWAP5 DUP6 SWAP4 PUSH4 0xA9059CBB PUSH1 0xE0 SHL DUP6 MSTORE DUP5 ADD MSTORE DUP10 PUSH1 0x24 DUP5 ADD MSTORE PUSH32 0x0 AND GAS CALL SWAP2 DUP3 ISZERO PUSH2 0x717 JUMPI PUSH32 0xB80D46A1FCB96F3896E038DF66C1242504A8E49EFFECD0BF2473574707CA0121 SWAP5 SWAP3 PUSH2 0x105 SWAP5 SWAP3 PUSH2 0x6D1 SWAP3 DUP10 SWAP3 PUSH2 0x6FA JUMPI JUMPDEST POP POP PUSH2 0x7F2 JUMP JUMPDEST MLOAD SWAP2 DUP3 SWAP2 DUP3 PUSH1 0x80 SWAP2 DUP2 MSTORE PUSH1 0x40 PUSH1 0x20 DUP3 ADD MSTORE PUSH1 0x4 PUSH1 0x40 DUP3 ADD MSTORE PUSH4 0x1554D115 PUSH1 0xE2 SHL PUSH1 0x60 DUP3 ADD MSTORE ADD SWAP1 JUMP JUMPDEST PUSH2 0x710 SWAP3 POP DUP1 RETURNDATASIZE LT PUSH2 0x255 JUMPI PUSH2 0x247 DUP2 DUP4 PUSH2 0x7A2 JUMP JUMPDEST CODESIZE DUP1 PUSH2 0x6CA JUMP JUMPDEST DUP4 MLOAD RETURNDATASIZE DUP9 DUP3 RETURNDATACOPY RETURNDATASIZE SWAP1 REVERT JUMPDEST DUP4 MLOAD PUSH3 0x461BCD PUSH1 0xE5 SHL DUP2 MSTORE SWAP1 DUP2 ADD DUP4 SWAP1 MSTORE PUSH1 0x19 PUSH1 0x24 DUP3 ADD MSTORE PUSH32 0x496E73756666696369656E7420555344542062616C616E636500000000000000 PUSH1 0x44 DUP3 ADD MSTORE PUSH1 0x64 SWAP1 REVERT JUMPDEST PUSH1 0x4 CALLDATALOAD SWAP1 PUSH1 0x1 PUSH1 0x1 PUSH1 0xA0 SHL SUB DUP3 AND DUP3 SUB PUSH2 0x77A JUMPI JUMP JUMPDEST PUSH1 0x0 DUP1 REVERT JUMPDEST SWAP2 SWAP1 DUP3 ADD DUP1 SWAP3 GT PUSH2 0x78C JUMPI JUMP JUMPDEST PUSH4 0x4E487B71 PUSH1 0xE0 SHL PUSH1 0x0 MSTORE PUSH1 0x11 PUSH1 0x4 MSTORE PUSH1 0x24 PUSH1 0x0 REVERT JUMPDEST SWAP1 PUSH1 0x1F DUP1 NOT SWAP2 ADD AND DUP2 ADD SWAP1 DUP2 LT PUSH8 0xFFFFFFFFFFFFFFFF DUP3 GT OR PUSH2 0x7C4 JUMPI PUSH1 0x40 MSTORE JUMP JUMPDEST PUSH4 0x4E487B71 PUSH1 0xE0 SHL PUSH1 0x0 MSTORE PUSH1 0x41 PUSH1 0x4 MSTORE PUSH1 0x24 PUSH1 0x0 REVERT JUMPDEST SWAP1 DUP2 PUSH1 0x20 SWAP2 SUB SLT PUSH2 0x77A JUMPI MLOAD DUP1 ISZERO ISZERO DUP2 SUB PUSH2 0x77A JUMPI SWAP1 JUMP JUMPDEST ISZERO PUSH2 0x7F9 JUMPI JUMP JUMPDEST PUSH1 0x40 MLOAD PUSH3 0x461BCD PUSH1 0xE5 SHL DUP2 MSTORE PUSH1 0x20 PUSH1 0x4 DUP3 ADD MSTORE PUSH1 0x14 PUSH1 0x24 DUP3 ADD MSTORE PUSH20 0x1554D11508151C985B9CD9995C8819985A5B1959 PUSH1 0x62 SHL PUSH1 0x44 DUP3 ADD MSTORE PUSH1 0x64 SWAP1 REVERT JUMPDEST ISZERO PUSH2 0x83C JUMPI JUMP JUMPDEST PUSH1 0x40 MLOAD PUSH3 0x461BCD PUSH1 0xE5 SHL DUP2 MSTORE PUSH1 0x20 PUSH1 0x4 DUP3 ADD MSTORE PUSH1 0x25 PUSH1 0x24 DUP3 ADD MSTORE PUSH32 0x4E6F7420617574686F72697A65643A204F6E6C7920536166652063616E206170 PUSH1 0x44 DUP3 ADD MSTORE PUSH5 0x70726F7665 PUSH1 0xD8 SHL PUSH1 0x64 DUP3 ADD MSTORE PUSH1 0x84 SWAP1 REVERT JUMPDEST SWAP2 SWAP1 DUP3 SUB SWAP2 DUP3 GT PUSH2 0x78C JUMPI JUMP INVALID LOG2 PUSH5 0x6970667358 0x22 SLT KECCAK256 PUSH32 0xFD7D8718EA57E44775CD481553ECD93570D7E6D063E4DAF793876BBE815CF364 PUSH20 0x6F6C634300081400330000000000000000000000 "},"methodIdentifiers":{"depositETH()":"f6326fb3","depositUSDT(uint256)":"e7c80f17","ethBalances(address)":"3cfba0e3","getEscrowBalance()":"c56e610e","getUserBalance(address)":"47734892","gnosisSafe()":"a84173ae","usdtBalances(address)":"582489cb","usdtToken()":"a98ad46c","withdrawETH(address,uint256)":"4782f779","withdrawUSDT(address,uint256)":"1481794e"}}}}}