{"contracts/TokenLockContract.sol":{"TokenLockContract":{"abi":[{"inputs":[{"internalType":"uint256","name":"fee","type":"uint256"}],"stateMutability":"nonpayable","type":"constructor"},{"anonymous":false,"inputs":[{"indexed":true,"internalType":"bytes32","name":"role","type":"bytes32"},{"indexed":true,"internalType":"bytes32","name":"previousAdminRole","type":"bytes32"},{"indexed":true,"internalType":"bytes32","name":"newAdminRole","type":"bytes32"}],"name":"RoleAdminChanged","type":"event"},{"anonymous":false,"inputs":[{"indexed":true,"internalType":"bytes32","name":"role","type":"bytes32"},{"indexed":true,"internalType":"address","name":"account","type":"address"},{"indexed":true,"internalType":"address","name":"sender","type":"address"}],"name":"RoleGranted","type":"event"},{"anonymous":false,"inputs":[{"indexed":true,"internalType":"bytes32","name":"role","type":"bytes32"},{"indexed":true,"internalType":"address","name":"account","type":"address"},{"indexed":true,"internalType":"address","name":"sender","type":"address"}],"name":"RoleRevoked","type":"event"},{"anonymous":false,"inputs":[{"indexed":false,"internalType":"uint256","name":"requestId","type":"uint256"}],"name":"TokensClaimed","type":"event"},{"anonymous":false,"inputs":[{"indexed":false,"internalType":"uint256","name":"requestId","type":"uint256"}],"name":"TransferApproved","type":"event"},{"anonymous":false,"inputs":[{"indexed":true,"internalType":"address","name":"from","type":"address"}],"name":"TransferFeeSetup","type":"event"},{"anonymous":false,"inputs":[{"indexed":false,"internalType":"uint256","name":"requestId","type":"uint256"},{"indexed":true,"internalType":"address","name":"from","type":"address"},{"indexed":true,"internalType":"address","name":"to","type":"address"},{"indexed":false,"internalType":"uint256","name":"amount","type":"uint256"},{"indexed":false,"internalType":"uint256","name":"fee","type":"uint256"}],"name":"TransferRequested","type":"event"},{"anonymous":false,"inputs":[{"indexed":true,"internalType":"address","name":"from","type":"address"},{"indexed":false,"internalType":"uint256","name":"amount","type":"uint256"}],"name":"WithdrawFee","type":"event"},{"inputs":[],"name":"ADMIN_ROLE","outputs":[{"internalType":"bytes32","name":"","type":"bytes32"}],"stateMutability":"view","type":"function"},{"inputs":[],"name":"DEFAULT_ADMIN_ROLE","outputs":[{"internalType":"bytes32","name":"","type":"bytes32"}],"stateMutability":"view","type":"function"},{"inputs":[{"internalType":"uint256","name":"requestId","type":"uint256"}],"name":"approveTransfer","outputs":[],"stateMutability":"nonpayable","type":"function"},{"inputs":[{"internalType":"uint256","name":"requestId","type":"uint256"},{"internalType":"string","name":"_prefix","type":"string"}],"name":"claimTokens","outputs":[],"stateMutability":"nonpayable","type":"function"},{"inputs":[{"internalType":"bytes32","name":"role","type":"bytes32"}],"name":"getRoleAdmin","outputs":[{"internalType":"bytes32","name":"","type":"bytes32"}],"stateMutability":"view","type":"function"},{"inputs":[{"internalType":"bytes32","name":"role","type":"bytes32"},{"internalType":"address","name":"account","type":"address"}],"name":"grantRole","outputs":[],"stateMutability":"nonpayable","type":"function"},{"inputs":[{"internalType":"bytes32","name":"role","type":"bytes32"},{"internalType":"address","name":"account","type":"address"}],"name":"hasRole","outputs":[{"internalType":"bool","name":"","type":"bool"}],"stateMutability":"view","type":"function"},{"inputs":[],"name":"paused","outputs":[{"internalType":"bool","name":"","type":"bool"}],"stateMutability":"view","type":"function"},{"inputs":[{"internalType":"bytes32","name":"role","type":"bytes32"},{"internalType":"address","name":"account","type":"address"}],"name":"renounceRole","outputs":[],"stateMutability":"nonpayable","type":"function"},{"inputs":[],"name":"requestCounter","outputs":[{"internalType":"uint256","name":"","type":"uint256"}],"stateMutability":"view","type":"function"},{"inputs":[{"internalType":"address","name":"to","type":"address"},{"internalType":"uint256","name":"amount","type":"uint256"},{"internalType":"string","name":"_prefix","type":"string"}],"name":"requestTransfer","outputs":[],"stateMutability":"nonpayable","type":"function"},{"inputs":[{"internalType":"bytes32","name":"role","type":"bytes32"},{"internalType":"address","name":"account","type":"address"}],"name":"revokeRole","outputs":[],"stateMutability":"nonpayable","type":"function"},{"inputs":[{"internalType":"bool","name":"_paused","type":"bool"}],"name":"setPaused","outputs":[],"stateMutability":"nonpayable","type":"function"},{"inputs":[{"internalType":"string","name":"_prefix","type":"string"},{"internalType":"address","name":"_to","type":"address"}],"name":"setTokenMapping","outputs":[],"stateMutability":"nonpayable","type":"function"},{"inputs":[{"internalType":"uint256","name":"fee","type":"uint256"}],"name":"setTransferFee","outputs":[],"stateMutability":"nonpayable","type":"function"},{"inputs":[{"internalType":"bytes4","name":"interfaceId","type":"bytes4"}],"name":"supportsInterface","outputs":[{"internalType":"bool","name":"","type":"bool"}],"stateMutability":"view","type":"function"},{"inputs":[{"internalType":"string","name":"","type":"string"}],"name":"tokenMapping","outputs":[{"internalType":"address","name":"","type":"address"}],"stateMutability":"view","type":"function"},{"inputs":[],"name":"transferFee","outputs":[{"internalType":"uint256","name":"","type":"uint256"}],"stateMutability":"view","type":"function"},{"inputs":[{"internalType":"uint256","name":"","type":"uint256"}],"name":"transferRequests","outputs":[{"internalType":"address","name":"from","type":"address"},{"internalType":"address","name":"to","type":"address"},{"internalType":"uint256","name":"amount","type":"uint256"},{"internalType":"uint256","name":"fee","type":"uint256"},{"internalType":"bool","name":"approved","type":"bool"},{"internalType":"bool","name":"claimed","type":"bool"}],"stateMutability":"view","type":"function"},{"inputs":[{"internalType":"uint256","name":"_amount","type":"uint256"}],"name":"withdrawFees","outputs":[],"stateMutability":"nonpayable","type":"function"}],"evm":{"bytecode":{"linkReferences":{},"object":"60803461012257601f6114cc38819003918201601f1916830192916001600160401b0384118385101761012757808392604095865283396020928391810103126101225751600180556006556000808052808252828120338252825260ff8382205416156100ec575b7fa49807205ce4d355092ef5a8a18f56e8913cf4a201fbe287825b095693c2177591828252818152838220338352815260ff8483205416156100b3575b835161136e908161013e8239f35b8282528181528382209033835252828120600160ff1982541617905533916000805160206114ac833981519152339280a43880806100a5565b8080528082528281203382528252828120600160ff198254161790553333826000805160206114ac8339815191528180a4610068565b600080fd5b634e487b7160e01b600052604160045260246000fdfe608060408181526004918236101561001657600080fd5b600090813560e01c90816301ffc9a714610c735750806303486c4014610c0357806316c38b3c14610bcc578063190d349914610a26578063248a9ca3146109fc5780632f2ff15d1461095357806336568abe146108c25780635c975abb1461089e5780635e318e071461074a57806375b238fc1461070f5780638f02bb5b146106c857806391d1485414610682578063973a814e14610663578063a217fddf14610648578063ac5c2efd1461031a578063acb2ad6f146102f7578063c75b6a391461026f578063cacca4a0146101ac578063d547741f1461016a5763e88ad9531461010057600080fd5b346101675760203660031901126101675782359067ffffffffffffffff8211610167575060209261013391369101610d1b565b8261014683519283815193849201610d8d565b6003908201908152819003830190205490516001600160a01b039091168152f35b80fd5b509190346101a857806003193601126101a8576101a591356101a0600161018f610d77565b938387528660205286200154610fe2565b6110ed565b80f35b8280fd5b509190346101a85760203660031901126101a8578135916101cb610db0565b8284528060205280828520019081549060ff821661022c5750917fd9bbf1d8bef570b7e92ef1ba025425fc15915ae01f3d3be144cdc8be05442eb5939160018461021d60ff60209760081c16156112f3565b60ff191617905551908152a180f35b606490602085519162461bcd60e51b8352820152601860248201527f5265717565737420616c726561647920617070726f76656400000000000000006044820152fd5b5091346101a857816003193601126101a85780359067ffffffffffffffff82116102f3576102a56020916102c793369101610d1b565b816102ae610d77565b946102b7610db0565b5193828580945193849201610d8d565b810160038152030190209060018060a01b03166bffffffffffffffffffffffff60a01b82541617905580f35b8380fd5b5090346103165781600319360112610316576020906006549051908152f35b5080fd5b509034610316576060366003190112610316576001600160a01b03928035848116908190036102f35760249485359367ffffffffffffffff604435818111610644576103699036908701610d1b565b92841561060e5786156105cc57808351858180975161038e8160209a8b809601610d8d565b81016003815203019020541683516370a0823160e01b8152338882015285818c81855afa9081156105c2579089918b9161058d575b50106105545783516323b872dd60e01b8152338882015230818c015260448101899052908590829060649082908d905af190811561054a57899493929161041191869161051d575b506112af565b82519160c083019081118382101761050b57835233825286858301928784528481018a81526060820190878252608083019588875260a08401958987526005548a52858b5280898b20955116906bffffffffffffffffffffffff60a01b9182875416178655600186019251169082541617905551600283015551600382015501915115159060ff61ff0084549251151560081b1692169061ffff191617179055600554958151938785528401528201527fc8262dc04f8f56abc884e1f58ca17a373610558a6cebc5e927b9e1c4668e5fdf60603392a360001982146104fa575060010160055580f35b634e487b7160e01b83526011905250fd5b634e487b7160e01b8552604188528a85fd5b61053d9150873d8911610543575b6105358183610cf9565b810190611297565b3861040b565b503d61052b565b84513d8b823e3d90fd5b835162461bcd60e51b81528088018690526014818c015273496e73756666696369656e742042616c616e636560601b6044820152606490fd5b809250878092503d83116105bb575b6105a68183610cf9565b810103126105b757889051386103c3565b8980fd5b503d61059c565b85513d8c823e3d90fd5b825162461bcd60e51b81526020818801819052818b01527f416d6f756e74206d7573742062652067726561746572207468616e207a65726f6044820152606490fd5b825162461bcd60e51b81526020818801526011818b015270125b9d985b1a59081c9958da5c1a595b9d607a1b6044820152606490fd5b8780fd5b50903461031657816003193601126103165751908152602090f35b5090346103165781600319360112610316576020906005549051908152f35b5091346101a857816003193601126101a8578160209360ff926106a3610d77565b903582528186528282206001600160a01b039091168252855220549151911615158152f35b508234610316576020366003190112610316576106e3610db0565b35600655337f04333b31f438fc3fc7f311d4e3eb5d8740b62a59aad7b8da953d75da7940a1418280a280f35b509034610316578160031936011261031657602090517fa49807205ce4d355092ef5a8a18f56e8913cf4a201fbe287825b095693c217758152f35b509190346101a85760203660031901126101a857813591610769610db0565b60ff60025416610863576002600154146108215760026001554783116107e8575082808380156107de575b8280929181923390f1156107d357519081527f66bf9186b00db666fc37aaffbb95a050c66e599e000c785c1dff0467d868f1b160203392a26001805580f35b51913d9150823e3d90fd5b6108fc9150610794565b6020606492519162461bcd60e51b83528201526014602482015273496e73756666696369656e742062616c616e636560601b6044820152fd5b6020606492519162461bcd60e51b8352820152601f60248201527f5265656e7472616e637947756172643a207265656e7472616e742063616c6c006044820152fd5b6020606492519162461bcd60e51b8352820152601660248201527515da5d1a191c985dd85b1cc8185c99481c185d5cd95960521b6044820152fd5b50903461031657816003193601126103165760209060ff6002541690519015158152f35b5082346103165782600319360112610316576108dc610d77565b90336001600160a01b038316036108f857906101a591356110ed565b608490602085519162461bcd60e51b8352820152602f60248201527f416363657373436f6e74726f6c3a2063616e206f6e6c792072656e6f756e636560448201526e103937b632b9903337b91039b2b63360891b6064820152fd5b5091346101a857816003193601126101a857359061096f610d77565b908284528360205261098660018286200154610fe2565b82845260208481528185206001600160a01b039093168086529290528084205460ff16156109b2578380f35b828452836020528084208285526020528320600160ff1982541617905533917f2f8788117e7eff1d82e926ec794901d17c78024a50270940304540a733656f0d8480a43880808380f35b5091346101a85760203660031901126101a857816020936001923581528085522001549051908152f35b5091346101a857816003193601126101a857803560243567ffffffffffffffff8111610bc857610a599036908401610d1b565b81855260209280845284862081810180549360ff851615610b8e57610a8460ff8660081c16156112f3565b60018301546001600160a01b03919082163303610b575792604492610100600293610abe8b809998818f5193828580945193849201610d8d565b8101600381520301902054169761ff001916179055015491888851958694859363a9059cbb60e01b8552339085015260248401525af1908115610b4d577fcff788b65ecc4ee1e06954505390b4d87e536462f29c25f160ab35cdb6ef6aea9491610b2e918791610b3657506112af565b51908152a180f35b61053d9150853d8711610543576105358183610cf9565b84513d87823e3d90fd5b885162461bcd60e51b81528086018990526011602482015270139bdd081d1a19481c9958da5c1a595b9d607a1b6044820152606490fd5b875162461bcd60e51b8152808501889052601460248201527314995c5d595cdd081b9bdd08185c1c1c9bdd995960621b6044820152606490fd5b8480fd5b508234610316576020366003190112610316573580151580910361031657610bf2610db0565b60ff80196002541691161760025580f35b509190346101a85760203660031901126101a8578060ff9160c09484358152846020522060018060a01b03938482541694600183015416926002830154916003840154930154938151968752602087015285015260608401528181161515608084015260081c16151560a0820152f35b905083346101a85760203660031901126101a8573563ffffffff60e01b81168091036101a85760209250637965db0b60e01b8114908115610cb6575b5015158152f35b6301ffc9a760e01b14905083610caf565b6080810190811067ffffffffffffffff821117610ce357604052565b634e487b7160e01b600052604160045260246000fd5b90601f8019910116810190811067ffffffffffffffff821117610ce357604052565b81601f82011215610d725780359067ffffffffffffffff8211610ce35760405192610d50601f8401601f191660200185610cf9565b82845260208383010111610d7257816000926020809301838601378301015290565b600080fd5b602435906001600160a01b0382168203610d7257565b60005b838110610da05750506000910152565b8181015183820152602001610d90565b3360009081527f7d7ffb7a348e1c6a02869081a26547b49160dd3df72d1d75a570eb9b698292ec6020908152604080832054909291907fa49807205ce4d355092ef5a8a18f56e8913cf4a201fbe287825b095693c217759060ff1615610e165750505050565b610e1f33611188565b90845190610e2c82610cc7565b60428252838201946060368737825115610fce5760308653825190600191821015610fce5790607860218501536041915b818311610f6057505050610f1e5784610eec6048610f10936044979851988991610edd8984019876020b1b1b2b9b9a1b7b73a3937b61d1030b1b1b7bab73a1604d1b8a52610eb4815180928d603789019101610d8d565b8401917001034b99036b4b9b9b4b733903937b6329607d1b603784015251809386840190610d8d565b01036028810189520187610cf9565b5194859362461bcd60e51b8552600485015251809281602486015285850190610d8d565b601f01601f19168101030190fd5b60648386519062461bcd60e51b825280600483015260248201527f537472696e67733a20686578206c656e67746820696e73756666696369656e746044820152fd5b909192600f81166010811015610fba576f181899199a1a9b1b9c1cb0b131b232b360811b901a610f908587611161565b5360041c928015610fa657600019019190610e5d565b634e487b7160e01b82526011600452602482fd5b634e487b7160e01b83526032600452602483fd5b634e487b7160e01b81526032600452602490fd5b60008181526020818152604092838320338452825260ff8484205416156110095750505050565b61101233611188565b9084519061101f82610cc7565b60428252838201946060368737825115610fce5760308653825190600191821015610fce5790607860218501536041915b8183116110a757505050610f1e5784610eec6048610f10936044979851988991610edd8984019876020b1b1b2b9b9a1b7b73a3937b61d1030b1b1b7bab73a1604d1b8a52610eb4815180928d603789019101610d8d565b909192600f81166010811015610fba576f181899199a1a9b1b9c1cb0b131b232b360811b901a6110d78587611161565b5360041c928015610fa657600019019190611050565b9060009180835282602052604083209160018060a01b03169182845260205260ff60408420541661111d57505050565b80835282602052604083208284526020526040832060ff1981541690557ff6391f5c32d9c69d2a47ea670b442974b53935d1edc7fd64eb21e047a839171b339380a4565b908151811015611172570160200190565b634e487b7160e01b600052603260045260246000fd5b604051906060820182811067ffffffffffffffff821117610ce357604052602a82526020820160403682378251156111725760309053815160019081101561117257607860218401536029905b8082116112295750506111e55790565b606460405162461bcd60e51b815260206004820152602060248201527f537472696e67733a20686578206c656e67746820696e73756666696369656e746044820152fd5b9091600f81166010811015611282576f181899199a1a9b1b9c1cb0b131b232b360811b901a6112588486611161565b5360041c91801561126d5760001901906111d5565b60246000634e487b7160e01b81526011600452fd5b60246000634e487b7160e01b81526032600452fd5b90816020910312610d7257518015158103610d725790565b156112b657565b60405162461bcd60e51b8152602060048201526015602482015274151bdad95b881d1c985b9cd9995c8819985a5b1959605a1b6044820152606490fd5b156112fa57565b60405162461bcd60e51b8152602060048201526016602482015275151bdad95b9cc8185b1c9958591e4818db185a5b595960521b6044820152606490fdfea2646970667358221220b99342fcd595ac79cbd6e167bfcdc069d976033b5610b72c9cefba2c146100a364736f6c634300081400332f8788117e7eff1d82e926ec794901d17c78024a50270940304540a733656f0d","opcodes":"PUSH1 0x80 CALLVALUE PUSH2 0x122 JUMPI PUSH1 0x1F PUSH2 0x14CC CODESIZE DUP2 SWAP1 SUB SWAP2 DUP3 ADD PUSH1 0x1F NOT AND DUP4 ADD SWAP3 SWAP2 PUSH1 0x1 PUSH1 0x1 PUSH1 0x40 SHL SUB DUP5 GT DUP4 DUP6 LT OR PUSH2 0x127 JUMPI DUP1 DUP4 SWAP3 PUSH1 0x40 SWAP6 DUP7 MSTORE DUP4 CODECOPY PUSH1 0x20 SWAP3 DUP4 SWAP2 DUP2 ADD SUB SLT PUSH2 0x122 JUMPI MLOAD PUSH1 0x1 DUP1 SSTORE PUSH1 0x6 SSTORE PUSH1 0x0 DUP1 DUP1 MSTORE DUP1 DUP3 MSTORE DUP3 DUP2 KECCAK256 CALLER DUP3 MSTORE DUP3 MSTORE PUSH1 0xFF DUP4 DUP3 KECCAK256 SLOAD AND ISZERO PUSH2 0xEC JUMPI JUMPDEST PUSH32 0xA49807205CE4D355092EF5A8A18F56E8913CF4A201FBE287825B095693C21775 SWAP2 DUP3 DUP3 MSTORE DUP2 DUP2 MSTORE DUP4 DUP3 KECCAK256 CALLER DUP4 MSTORE DUP2 MSTORE PUSH1 0xFF DUP5 DUP4 KECCAK256 SLOAD AND ISZERO PUSH2 0xB3 JUMPI JUMPDEST DUP4 MLOAD PUSH2 0x136E SWAP1 DUP2 PUSH2 0x13E DUP3 CODECOPY RETURN JUMPDEST DUP3 DUP3 MSTORE DUP2 DUP2 MSTORE DUP4 DUP3 KECCAK256 SWAP1 CALLER DUP4 MSTORE MSTORE DUP3 DUP2 KECCAK256 PUSH1 0x1 PUSH1 0xFF NOT DUP3 SLOAD AND OR SWAP1 SSTORE CALLER SWAP2 PUSH1 0x0 DUP1 MLOAD PUSH1 0x20 PUSH2 0x14AC DUP4 CODECOPY DUP2 MLOAD SWAP2 MSTORE CALLER SWAP3 DUP1 LOG4 CODESIZE DUP1 DUP1 PUSH2 0xA5 JUMP JUMPDEST DUP1 DUP1 MSTORE DUP1 DUP3 MSTORE DUP3 DUP2 KECCAK256 CALLER DUP3 MSTORE DUP3 MSTORE DUP3 DUP2 KECCAK256 PUSH1 0x1 PUSH1 0xFF NOT DUP3 SLOAD AND OR SWAP1 SSTORE CALLER CALLER DUP3 PUSH1 0x0 DUP1 MLOAD PUSH1 0x20 PUSH2 0x14AC DUP4 CODECOPY DUP2 MLOAD SWAP2 MSTORE DUP2 DUP1 LOG4 PUSH2 0x68 JUMP JUMPDEST PUSH1 0x0 DUP1 REVERT JUMPDEST PUSH4 0x4E487B71 PUSH1 0xE0 SHL PUSH1 0x0 MSTORE PUSH1 0x41 PUSH1 0x4 MSTORE PUSH1 0x24 PUSH1 0x0 REVERT INVALID PUSH1 0x80 PUSH1 0x40 DUP2 DUP2 MSTORE PUSH1 0x4 SWAP2 DUP3 CALLDATASIZE LT ISZERO PUSH2 0x16 JUMPI PUSH1 0x0 DUP1 REVERT JUMPDEST PUSH1 0x0 SWAP1 DUP2 CALLDATALOAD PUSH1 0xE0 SHR SWAP1 DUP2 PUSH4 0x1FFC9A7 EQ PUSH2 0xC73 JUMPI POP DUP1 PUSH4 0x3486C40 EQ PUSH2 0xC03 JUMPI DUP1 PUSH4 0x16C38B3C EQ PUSH2 0xBCC JUMPI DUP1 PUSH4 0x190D3499 EQ PUSH2 0xA26 JUMPI DUP1 PUSH4 0x248A9CA3 EQ PUSH2 0x9FC JUMPI DUP1 PUSH4 0x2F2FF15D EQ PUSH2 0x953 JUMPI DUP1 PUSH4 0x36568ABE EQ PUSH2 0x8C2 JUMPI DUP1 PUSH4 0x5C975ABB EQ PUSH2 0x89E JUMPI DUP1 PUSH4 0x5E318E07 EQ PUSH2 0x74A JUMPI DUP1 PUSH4 0x75B238FC EQ PUSH2 0x70F JUMPI DUP1 PUSH4 0x8F02BB5B EQ PUSH2 0x6C8 JUMPI DUP1 PUSH4 0x91D14854 EQ PUSH2 0x682 JUMPI DUP1 PUSH4 0x973A814E EQ PUSH2 0x663 JUMPI DUP1 PUSH4 0xA217FDDF EQ PUSH2 0x648 JUMPI DUP1 PUSH4 0xAC5C2EFD EQ PUSH2 0x31A JUMPI DUP1 PUSH4 0xACB2AD6F EQ PUSH2 0x2F7 JUMPI DUP1 PUSH4 0xC75B6A39 EQ PUSH2 0x26F JUMPI DUP1 PUSH4 0xCACCA4A0 EQ PUSH2 0x1AC JUMPI DUP1 PUSH4 0xD547741F EQ PUSH2 0x16A JUMPI PUSH4 0xE88AD953 EQ PUSH2 0x100 JUMPI PUSH1 0x0 DUP1 REVERT JUMPDEST CALLVALUE PUSH2 0x167 JUMPI PUSH1 0x20 CALLDATASIZE PUSH1 0x3 NOT ADD SLT PUSH2 0x167 JUMPI DUP3 CALLDATALOAD SWAP1 PUSH8 0xFFFFFFFFFFFFFFFF DUP3 GT PUSH2 0x167 JUMPI POP PUSH1 0x20 SWAP3 PUSH2 0x133 SWAP2 CALLDATASIZE SWAP2 ADD PUSH2 0xD1B JUMP JUMPDEST DUP3 PUSH2 0x146 DUP4 MLOAD SWAP3 DUP4 DUP2 MLOAD SWAP4 DUP5 SWAP3 ADD PUSH2 0xD8D JUMP JUMPDEST PUSH1 0x3 SWAP1 DUP3 ADD SWAP1 DUP2 MSTORE DUP2 SWAP1 SUB DUP4 ADD SWAP1 KECCAK256 SLOAD SWAP1 MLOAD PUSH1 0x1 PUSH1 0x1 PUSH1 0xA0 SHL SUB SWAP1 SWAP2 AND DUP2 MSTORE RETURN JUMPDEST DUP1 REVERT JUMPDEST POP SWAP2 SWAP1 CALLVALUE PUSH2 0x1A8 JUMPI DUP1 PUSH1 0x3 NOT CALLDATASIZE ADD SLT PUSH2 0x1A8 JUMPI PUSH2 0x1A5 SWAP2 CALLDATALOAD PUSH2 0x1A0 PUSH1 0x1 PUSH2 0x18F PUSH2 0xD77 JUMP JUMPDEST SWAP4 DUP4 DUP8 MSTORE DUP7 PUSH1 0x20 MSTORE DUP7 KECCAK256 ADD SLOAD PUSH2 0xFE2 JUMP JUMPDEST PUSH2 0x10ED JUMP JUMPDEST DUP1 RETURN JUMPDEST DUP3 DUP1 REVERT JUMPDEST POP SWAP2 SWAP1 CALLVALUE PUSH2 0x1A8 JUMPI PUSH1 0x20 CALLDATASIZE PUSH1 0x3 NOT ADD SLT PUSH2 0x1A8 JUMPI DUP2 CALLDATALOAD SWAP2 PUSH2 0x1CB PUSH2 0xDB0 JUMP JUMPDEST DUP3 DUP5 MSTORE DUP1 PUSH1 0x20 MSTORE DUP1 DUP3 DUP6 KECCAK256 ADD SWAP1 DUP2 SLOAD SWAP1 PUSH1 0xFF DUP3 AND PUSH2 0x22C JUMPI POP SWAP2 PUSH32 0xD9BBF1D8BEF570B7E92EF1BA025425FC15915AE01F3D3BE144CDC8BE05442EB5 SWAP4 SWAP2 PUSH1 0x1 DUP5 PUSH2 0x21D PUSH1 0xFF PUSH1 0x20 SWAP8 PUSH1 0x8 SHR AND ISZERO PUSH2 0x12F3 JUMP JUMPDEST PUSH1 0xFF NOT AND OR SWAP1 SSTORE MLOAD SWAP1 DUP2 MSTORE LOG1 DUP1 RETURN JUMPDEST PUSH1 0x64 SWAP1 PUSH1 0x20 DUP6 MLOAD SWAP2 PUSH3 0x461BCD PUSH1 0xE5 SHL DUP4 MSTORE DUP3 ADD MSTORE PUSH1 0x18 PUSH1 0x24 DUP3 ADD MSTORE PUSH32 0x5265717565737420616C726561647920617070726F7665640000000000000000 PUSH1 0x44 DUP3 ADD MSTORE REVERT JUMPDEST POP SWAP2 CALLVALUE PUSH2 0x1A8 JUMPI DUP2 PUSH1 0x3 NOT CALLDATASIZE ADD SLT PUSH2 0x1A8 JUMPI DUP1 CALLDATALOAD SWAP1 PUSH8 0xFFFFFFFFFFFFFFFF DUP3 GT PUSH2 0x2F3 JUMPI PUSH2 0x2A5 PUSH1 0x20 SWAP2 PUSH2 0x2C7 SWAP4 CALLDATASIZE SWAP2 ADD PUSH2 0xD1B JUMP JUMPDEST DUP2 PUSH2 0x2AE PUSH2 0xD77 JUMP JUMPDEST SWAP5 PUSH2 0x2B7 PUSH2 0xDB0 JUMP JUMPDEST MLOAD SWAP4 DUP3 DUP6 DUP1 SWAP5 MLOAD SWAP4 DUP5 SWAP3 ADD PUSH2 0xD8D JUMP JUMPDEST DUP2 ADD PUSH1 0x3 DUP2 MSTORE SUB ADD SWAP1 KECCAK256 SWAP1 PUSH1 0x1 DUP1 PUSH1 0xA0 SHL SUB AND PUSH12 0xFFFFFFFFFFFFFFFFFFFFFFFF PUSH1 0xA0 SHL DUP3 SLOAD AND OR SWAP1 SSTORE DUP1 RETURN JUMPDEST DUP4 DUP1 REVERT JUMPDEST POP SWAP1 CALLVALUE PUSH2 0x316 JUMPI DUP2 PUSH1 0x3 NOT CALLDATASIZE ADD SLT PUSH2 0x316 JUMPI PUSH1 0x20 SWAP1 PUSH1 0x6 SLOAD SWAP1 MLOAD SWAP1 DUP2 MSTORE RETURN JUMPDEST POP DUP1 REVERT JUMPDEST POP SWAP1 CALLVALUE PUSH2 0x316 JUMPI PUSH1 0x60 CALLDATASIZE PUSH1 0x3 NOT ADD SLT PUSH2 0x316 JUMPI PUSH1 0x1 PUSH1 0x1 PUSH1 0xA0 SHL SUB SWAP3 DUP1 CALLDATALOAD DUP5 DUP2 AND SWAP1 DUP2 SWAP1 SUB PUSH2 0x2F3 JUMPI PUSH1 0x24 SWAP5 DUP6 CALLDATALOAD SWAP4 PUSH8 0xFFFFFFFFFFFFFFFF PUSH1 0x44 CALLDATALOAD DUP2 DUP2 GT PUSH2 0x644 JUMPI PUSH2 0x369 SWAP1 CALLDATASIZE SWAP1 DUP8 ADD PUSH2 0xD1B JUMP JUMPDEST SWAP3 DUP5 ISZERO PUSH2 0x60E JUMPI DUP7 ISZERO PUSH2 0x5CC JUMPI DUP1 DUP4 MLOAD DUP6 DUP2 DUP1 SWAP8 MLOAD PUSH2 0x38E DUP2 PUSH1 0x20 SWAP11 DUP12 DUP1 SWAP7 ADD PUSH2 0xD8D JUMP JUMPDEST DUP2 ADD PUSH1 0x3 DUP2 MSTORE SUB ADD SWAP1 KECCAK256 SLOAD AND DUP4 MLOAD PUSH4 0x70A08231 PUSH1 0xE0 SHL DUP2 MSTORE CALLER DUP9 DUP3 ADD MSTORE DUP6 DUP2 DUP13 DUP2 DUP6 GAS STATICCALL SWAP1 DUP2 ISZERO PUSH2 0x5C2 JUMPI SWAP1 DUP10 SWAP2 DUP12 SWAP2 PUSH2 0x58D JUMPI JUMPDEST POP LT PUSH2 0x554 JUMPI DUP4 MLOAD PUSH4 0x23B872DD PUSH1 0xE0 SHL DUP2 MSTORE CALLER DUP9 DUP3 ADD MSTORE ADDRESS DUP2 DUP13 ADD MSTORE PUSH1 0x44 DUP2 ADD DUP10 SWAP1 MSTORE SWAP1 DUP6 SWAP1 DUP3 SWAP1 PUSH1 0x64 SWAP1 DUP3 SWAP1 DUP14 SWAP1 GAS CALL SWAP1 DUP2 ISZERO PUSH2 0x54A JUMPI DUP10 SWAP5 SWAP4 SWAP3 SWAP2 PUSH2 0x411 SWAP2 DUP7 SWAP2 PUSH2 0x51D JUMPI JUMPDEST POP PUSH2 0x12AF JUMP JUMPDEST DUP3 MLOAD SWAP2 PUSH1 0xC0 DUP4 ADD SWAP1 DUP2 GT DUP4 DUP3 LT OR PUSH2 0x50B JUMPI DUP4 MSTORE CALLER DUP3 MSTORE DUP7 DUP6 DUP4 ADD SWAP3 DUP8 DUP5 MSTORE DUP5 DUP2 ADD DUP11 DUP2 MSTORE PUSH1 0x60 DUP3 ADD SWAP1 DUP8 DUP3 MSTORE PUSH1 0x80 DUP4 ADD SWAP6 DUP9 DUP8 MSTORE PUSH1 0xA0 DUP5 ADD SWAP6 DUP10 DUP8 MSTORE PUSH1 0x5 SLOAD DUP11 MSTORE DUP6 DUP12 MSTORE DUP1 DUP10 DUP12 KECCAK256 SWAP6 MLOAD AND SWAP1 PUSH12 0xFFFFFFFFFFFFFFFFFFFFFFFF PUSH1 0xA0 SHL SWAP2 DUP3 DUP8 SLOAD AND OR DUP7 SSTORE PUSH1 0x1 DUP7 ADD SWAP3 MLOAD AND SWAP1 DUP3 SLOAD AND OR SWAP1 SSTORE MLOAD PUSH1 0x2 DUP4 ADD SSTORE MLOAD PUSH1 0x3 DUP3 ADD SSTORE ADD SWAP2 MLOAD ISZERO ISZERO SWAP1 PUSH1 0xFF PUSH2 0xFF00 DUP5 SLOAD SWAP3 MLOAD ISZERO ISZERO PUSH1 0x8 SHL AND SWAP3 AND SWAP1 PUSH2 0xFFFF NOT AND OR OR SWAP1 SSTORE PUSH1 0x5 SLOAD SWAP6 DUP2 MLOAD SWAP4 DUP8 DUP6 MSTORE DUP5 ADD MSTORE DUP3 ADD MSTORE PUSH32 0xC8262DC04F8F56ABC884E1F58CA17A373610558A6CEBC5E927B9E1C4668E5FDF PUSH1 0x60 CALLER SWAP3 LOG3 PUSH1 0x0 NOT DUP3 EQ PUSH2 0x4FA JUMPI POP PUSH1 0x1 ADD PUSH1 0x5 SSTORE DUP1 RETURN JUMPDEST PUSH4 0x4E487B71 PUSH1 0xE0 SHL DUP4 MSTORE PUSH1 0x11 SWAP1 MSTORE POP REVERT JUMPDEST PUSH4 0x4E487B71 PUSH1 0xE0 SHL DUP6 MSTORE PUSH1 0x41 DUP9 MSTORE DUP11 DUP6 REVERT JUMPDEST PUSH2 0x53D SWAP2 POP DUP8 RETURNDATASIZE DUP10 GT PUSH2 0x543 JUMPI JUMPDEST PUSH2 0x535 DUP2 DUP4 PUSH2 0xCF9 JUMP JUMPDEST DUP2 ADD SWAP1 PUSH2 0x1297 JUMP JUMPDEST CODESIZE PUSH2 0x40B JUMP JUMPDEST POP RETURNDATASIZE PUSH2 0x52B JUMP JUMPDEST DUP5 MLOAD RETURNDATASIZE DUP12 DUP3 RETURNDATACOPY RETURNDATASIZE SWAP1 REVERT JUMPDEST DUP4 MLOAD PUSH3 0x461BCD PUSH1 0xE5 SHL DUP2 MSTORE DUP1 DUP9 ADD DUP7 SWAP1 MSTORE PUSH1 0x14 DUP2 DUP13 ADD MSTORE PUSH20 0x496E73756666696369656E742042616C616E6365 PUSH1 0x60 SHL PUSH1 0x44 DUP3 ADD MSTORE PUSH1 0x64 SWAP1 REVERT JUMPDEST DUP1 SWAP3 POP DUP8 DUP1 SWAP3 POP RETURNDATASIZE DUP4 GT PUSH2 0x5BB JUMPI JUMPDEST PUSH2 0x5A6 DUP2 DUP4 PUSH2 0xCF9 JUMP JUMPDEST DUP2 ADD SUB SLT PUSH2 0x5B7 JUMPI DUP9 SWAP1 MLOAD CODESIZE PUSH2 0x3C3 JUMP JUMPDEST DUP10 DUP1 REVERT JUMPDEST POP RETURNDATASIZE PUSH2 0x59C JUMP JUMPDEST DUP6 MLOAD RETURNDATASIZE DUP13 DUP3 RETURNDATACOPY RETURNDATASIZE SWAP1 REVERT JUMPDEST DUP3 MLOAD PUSH3 0x461BCD PUSH1 0xE5 SHL DUP2 MSTORE PUSH1 0x20 DUP2 DUP9 ADD DUP2 SWAP1 MSTORE DUP2 DUP12 ADD MSTORE PUSH32 0x416D6F756E74206D7573742062652067726561746572207468616E207A65726F PUSH1 0x44 DUP3 ADD MSTORE PUSH1 0x64 SWAP1 REVERT JUMPDEST DUP3 MLOAD PUSH3 0x461BCD PUSH1 0xE5 SHL DUP2 MSTORE PUSH1 0x20 DUP2 DUP9 ADD MSTORE PUSH1 0x11 DUP2 DUP12 ADD MSTORE PUSH17 0x125B9D985B1A59081C9958DA5C1A595B9D PUSH1 0x7A SHL PUSH1 0x44 DUP3 ADD MSTORE PUSH1 0x64 SWAP1 REVERT JUMPDEST DUP8 DUP1 REVERT JUMPDEST POP SWAP1 CALLVALUE PUSH2 0x316 JUMPI DUP2 PUSH1 0x3 NOT CALLDATASIZE ADD SLT PUSH2 0x316 JUMPI MLOAD SWAP1 DUP2 MSTORE PUSH1 0x20 SWAP1 RETURN JUMPDEST POP SWAP1 CALLVALUE PUSH2 0x316 JUMPI DUP2 PUSH1 0x3 NOT CALLDATASIZE ADD SLT PUSH2 0x316 JUMPI PUSH1 0x20 SWAP1 PUSH1 0x5 SLOAD SWAP1 MLOAD SWAP1 DUP2 MSTORE RETURN JUMPDEST POP SWAP2 CALLVALUE PUSH2 0x1A8 JUMPI DUP2 PUSH1 0x3 NOT CALLDATASIZE ADD SLT PUSH2 0x1A8 JUMPI DUP2 PUSH1 0x20 SWAP4 PUSH1 0xFF SWAP3 PUSH2 0x6A3 PUSH2 0xD77 JUMP JUMPDEST SWAP1 CALLDATALOAD DUP3 MSTORE DUP2 DUP7 MSTORE DUP3 DUP3 KECCAK256 PUSH1 0x1 PUSH1 0x1 PUSH1 0xA0 SHL SUB SWAP1 SWAP2 AND DUP3 MSTORE DUP6 MSTORE KECCAK256 SLOAD SWAP2 MLOAD SWAP2 AND ISZERO ISZERO DUP2 MSTORE RETURN JUMPDEST POP DUP3 CALLVALUE PUSH2 0x316 JUMPI PUSH1 0x20 CALLDATASIZE PUSH1 0x3 NOT ADD SLT PUSH2 0x316 JUMPI PUSH2 0x6E3 PUSH2 0xDB0 JUMP JUMPDEST CALLDATALOAD PUSH1 0x6 SSTORE CALLER PUSH32 0x4333B31F438FC3FC7F311D4E3EB5D8740B62A59AAD7B8DA953D75DA7940A141 DUP3 DUP1 LOG2 DUP1 RETURN JUMPDEST POP SWAP1 CALLVALUE PUSH2 0x316 JUMPI DUP2 PUSH1 0x3 NOT CALLDATASIZE ADD SLT PUSH2 0x316 JUMPI PUSH1 0x20 SWAP1 MLOAD PUSH32 0xA49807205CE4D355092EF5A8A18F56E8913CF4A201FBE287825B095693C21775 DUP2 MSTORE RETURN JUMPDEST POP SWAP2 SWAP1 CALLVALUE PUSH2 0x1A8 JUMPI PUSH1 0x20 CALLDATASIZE PUSH1 0x3 NOT ADD SLT PUSH2 0x1A8 JUMPI DUP2 CALLDATALOAD SWAP2 PUSH2 0x769 PUSH2 0xDB0 JUMP JUMPDEST PUSH1 0xFF PUSH1 0x2 SLOAD AND PUSH2 0x863 JUMPI PUSH1 0x2 PUSH1 0x1 SLOAD EQ PUSH2 0x821 JUMPI PUSH1 0x2 PUSH1 0x1 SSTORE SELFBALANCE DUP4 GT PUSH2 0x7E8 JUMPI POP DUP3 DUP1 DUP4 DUP1 ISZERO PUSH2 0x7DE JUMPI JUMPDEST DUP3 DUP1 SWAP3 SWAP2 DUP2 SWAP3 CALLER SWAP1 CALL ISZERO PUSH2 0x7D3 JUMPI MLOAD SWAP1 DUP2 MSTORE PUSH32 0x66BF9186B00DB666FC37AAFFBB95A050C66E599E000C785C1DFF0467D868F1B1 PUSH1 0x20 CALLER SWAP3 LOG2 PUSH1 0x1 DUP1 SSTORE DUP1 RETURN JUMPDEST MLOAD SWAP2 RETURNDATASIZE SWAP2 POP DUP3 RETURNDATACOPY RETURNDATASIZE SWAP1 REVERT JUMPDEST PUSH2 0x8FC SWAP2 POP PUSH2 0x794 JUMP JUMPDEST PUSH1 0x20 PUSH1 0x64 SWAP3 MLOAD SWAP2 PUSH3 0x461BCD PUSH1 0xE5 SHL DUP4 MSTORE DUP3 ADD MSTORE PUSH1 0x14 PUSH1 0x24 DUP3 ADD MSTORE PUSH20 0x496E73756666696369656E742062616C616E6365 PUSH1 0x60 SHL PUSH1 0x44 DUP3 ADD MSTORE REVERT JUMPDEST PUSH1 0x20 PUSH1 0x64 SWAP3 MLOAD SWAP2 PUSH3 0x461BCD PUSH1 0xE5 SHL DUP4 MSTORE DUP3 ADD MSTORE PUSH1 0x1F PUSH1 0x24 DUP3 ADD MSTORE PUSH32 0x5265656E7472616E637947756172643A207265656E7472616E742063616C6C00 PUSH1 0x44 DUP3 ADD MSTORE REVERT JUMPDEST PUSH1 0x20 PUSH1 0x64 SWAP3 MLOAD SWAP2 PUSH3 0x461BCD PUSH1 0xE5 SHL DUP4 MSTORE DUP3 ADD MSTORE PUSH1 0x16 PUSH1 0x24 DUP3 ADD MSTORE PUSH22 0x15DA5D1A191C985DD85B1CC8185C99481C185D5CD959 PUSH1 0x52 SHL PUSH1 0x44 DUP3 ADD MSTORE REVERT JUMPDEST POP SWAP1 CALLVALUE PUSH2 0x316 JUMPI DUP2 PUSH1 0x3 NOT CALLDATASIZE ADD SLT PUSH2 0x316 JUMPI PUSH1 0x20 SWAP1 PUSH1 0xFF PUSH1 0x2 SLOAD AND SWAP1 MLOAD SWAP1 ISZERO ISZERO DUP2 MSTORE RETURN JUMPDEST POP DUP3 CALLVALUE PUSH2 0x316 JUMPI DUP3 PUSH1 0x3 NOT CALLDATASIZE ADD SLT PUSH2 0x316 JUMPI PUSH2 0x8DC PUSH2 0xD77 JUMP JUMPDEST SWAP1 CALLER PUSH1 0x1 PUSH1 0x1 PUSH1 0xA0 SHL SUB DUP4 AND SUB PUSH2 0x8F8 JUMPI SWAP1 PUSH2 0x1A5 SWAP2 CALLDATALOAD PUSH2 0x10ED JUMP JUMPDEST PUSH1 0x84 SWAP1 PUSH1 0x20 DUP6 MLOAD SWAP2 PUSH3 0x461BCD PUSH1 0xE5 SHL DUP4 MSTORE DUP3 ADD MSTORE PUSH1 0x2F PUSH1 0x24 DUP3 ADD MSTORE PUSH32 0x416363657373436F6E74726F6C3A2063616E206F6E6C792072656E6F756E6365 PUSH1 0x44 DUP3 ADD MSTORE PUSH15 0x103937B632B9903337B91039B2B633 PUSH1 0x89 SHL PUSH1 0x64 DUP3 ADD MSTORE REVERT JUMPDEST POP SWAP2 CALLVALUE PUSH2 0x1A8 JUMPI DUP2 PUSH1 0x3 NOT CALLDATASIZE ADD SLT PUSH2 0x1A8 JUMPI CALLDATALOAD SWAP1 PUSH2 0x96F PUSH2 0xD77 JUMP JUMPDEST SWAP1 DUP3 DUP5 MSTORE DUP4 PUSH1 0x20 MSTORE PUSH2 0x986 PUSH1 0x1 DUP3 DUP7 KECCAK256 ADD SLOAD PUSH2 0xFE2 JUMP JUMPDEST DUP3 DUP5 MSTORE PUSH1 0x20 DUP5 DUP2 MSTORE DUP2 DUP6 KECCAK256 PUSH1 0x1 PUSH1 0x1 PUSH1 0xA0 SHL SUB SWAP1 SWAP4 AND DUP1 DUP7 MSTORE SWAP3 SWAP1 MSTORE DUP1 DUP5 KECCAK256 SLOAD PUSH1 0xFF AND ISZERO PUSH2 0x9B2 JUMPI DUP4 DUP1 RETURN JUMPDEST DUP3 DUP5 MSTORE DUP4 PUSH1 0x20 MSTORE DUP1 DUP5 KECCAK256 DUP3 DUP6 MSTORE PUSH1 0x20 MSTORE DUP4 KECCAK256 PUSH1 0x1 PUSH1 0xFF NOT DUP3 SLOAD AND OR SWAP1 SSTORE CALLER SWAP2 PUSH32 0x2F8788117E7EFF1D82E926EC794901D17C78024A50270940304540A733656F0D DUP5 DUP1 LOG4 CODESIZE DUP1 DUP1 DUP4 DUP1 RETURN JUMPDEST POP SWAP2 CALLVALUE PUSH2 0x1A8 JUMPI PUSH1 0x20 CALLDATASIZE PUSH1 0x3 NOT ADD SLT PUSH2 0x1A8 JUMPI DUP2 PUSH1 0x20 SWAP4 PUSH1 0x1 SWAP3 CALLDATALOAD DUP2 MSTORE DUP1 DUP6 MSTORE KECCAK256 ADD SLOAD SWAP1 MLOAD SWAP1 DUP2 MSTORE RETURN JUMPDEST POP SWAP2 CALLVALUE PUSH2 0x1A8 JUMPI DUP2 PUSH1 0x3 NOT CALLDATASIZE ADD SLT PUSH2 0x1A8 JUMPI DUP1 CALLDATALOAD PUSH1 0x24 CALLDATALOAD PUSH8 0xFFFFFFFFFFFFFFFF DUP2 GT PUSH2 0xBC8 JUMPI PUSH2 0xA59 SWAP1 CALLDATASIZE SWAP1 DUP5 ADD PUSH2 0xD1B JUMP JUMPDEST DUP2 DUP6 MSTORE PUSH1 0x20 SWAP3 DUP1 DUP5 MSTORE DUP5 DUP7 KECCAK256 DUP2 DUP2 ADD DUP1 SLOAD SWAP4 PUSH1 0xFF DUP6 AND ISZERO PUSH2 0xB8E JUMPI PUSH2 0xA84 PUSH1 0xFF DUP7 PUSH1 0x8 SHR AND ISZERO PUSH2 0x12F3 JUMP JUMPDEST PUSH1 0x1 DUP4 ADD SLOAD PUSH1 0x1 PUSH1 0x1 PUSH1 0xA0 SHL SUB SWAP2 SWAP1 DUP3 AND CALLER SUB PUSH2 0xB57 JUMPI SWAP3 PUSH1 0x44 SWAP3 PUSH2 0x100 PUSH1 0x2 SWAP4 PUSH2 0xABE DUP12 DUP1 SWAP10 SWAP9 DUP2 DUP16 MLOAD SWAP4 DUP3 DUP6 DUP1 SWAP5 MLOAD SWAP4 DUP5 SWAP3 ADD PUSH2 0xD8D JUMP JUMPDEST DUP2 ADD PUSH1 0x3 DUP2 MSTORE SUB ADD SWAP1 KECCAK256 SLOAD AND SWAP8 PUSH2 0xFF00 NOT AND OR SWAP1 SSTORE ADD SLOAD SWAP2 DUP9 DUP9 MLOAD SWAP6 DUP7 SWAP5 DUP6 SWAP4 PUSH4 0xA9059CBB PUSH1 0xE0 SHL DUP6 MSTORE CALLER SWAP1 DUP6 ADD MSTORE PUSH1 0x24 DUP5 ADD MSTORE GAS CALL SWAP1 DUP2 ISZERO PUSH2 0xB4D JUMPI PUSH32 0xCFF788B65ECC4EE1E06954505390B4D87E536462F29C25F160AB35CDB6EF6AEA SWAP5 SWAP2 PUSH2 0xB2E SWAP2 DUP8 SWAP2 PUSH2 0xB36 JUMPI POP PUSH2 0x12AF JUMP JUMPDEST MLOAD SWAP1 DUP2 MSTORE LOG1 DUP1 RETURN JUMPDEST PUSH2 0x53D SWAP2 POP DUP6 RETURNDATASIZE DUP8 GT PUSH2 0x543 JUMPI PUSH2 0x535 DUP2 DUP4 PUSH2 0xCF9 JUMP JUMPDEST DUP5 MLOAD RETURNDATASIZE DUP8 DUP3 RETURNDATACOPY RETURNDATASIZE SWAP1 REVERT JUMPDEST DUP9 MLOAD PUSH3 0x461BCD PUSH1 0xE5 SHL DUP2 MSTORE DUP1 DUP7 ADD DUP10 SWAP1 MSTORE PUSH1 0x11 PUSH1 0x24 DUP3 ADD MSTORE PUSH17 0x139BDD081D1A19481C9958DA5C1A595B9D PUSH1 0x7A SHL PUSH1 0x44 DUP3 ADD MSTORE PUSH1 0x64 SWAP1 REVERT JUMPDEST DUP8 MLOAD PUSH3 0x461BCD PUSH1 0xE5 SHL DUP2 MSTORE DUP1 DUP6 ADD DUP9 SWAP1 MSTORE PUSH1 0x14 PUSH1 0x24 DUP3 ADD MSTORE PUSH20 0x14995C5D595CDD081B9BDD08185C1C1C9BDD9959 PUSH1 0x62 SHL PUSH1 0x44 DUP3 ADD MSTORE PUSH1 0x64 SWAP1 REVERT JUMPDEST DUP5 DUP1 REVERT JUMPDEST POP DUP3 CALLVALUE PUSH2 0x316 JUMPI PUSH1 0x20 CALLDATASIZE PUSH1 0x3 NOT ADD SLT PUSH2 0x316 JUMPI CALLDATALOAD DUP1 ISZERO ISZERO DUP1 SWAP2 SUB PUSH2 0x316 JUMPI PUSH2 0xBF2 PUSH2 0xDB0 JUMP JUMPDEST PUSH1 0xFF DUP1 NOT PUSH1 0x2 SLOAD AND SWAP2 AND OR PUSH1 0x2 SSTORE DUP1 RETURN JUMPDEST POP SWAP2 SWAP1 CALLVALUE PUSH2 0x1A8 JUMPI PUSH1 0x20 CALLDATASIZE PUSH1 0x3 NOT ADD SLT PUSH2 0x1A8 JUMPI DUP1 PUSH1 0xFF SWAP2 PUSH1 0xC0 SWAP5 DUP5 CALLDATALOAD DUP2 MSTORE DUP5 PUSH1 0x20 MSTORE KECCAK256 PUSH1 0x1 DUP1 PUSH1 0xA0 SHL SUB SWAP4 DUP5 DUP3 SLOAD AND SWAP5 PUSH1 0x1 DUP4 ADD SLOAD AND SWAP3 PUSH1 0x2 DUP4 ADD SLOAD SWAP2 PUSH1 0x3 DUP5 ADD SLOAD SWAP4 ADD SLOAD SWAP4 DUP2 MLOAD SWAP7 DUP8 MSTORE PUSH1 0x20 DUP8 ADD MSTORE DUP6 ADD MSTORE PUSH1 0x60 DUP5 ADD MSTORE DUP2 DUP2 AND ISZERO ISZERO PUSH1 0x80 DUP5 ADD MSTORE PUSH1 0x8 SHR AND ISZERO ISZERO PUSH1 0xA0 DUP3 ADD MSTORE RETURN JUMPDEST SWAP1 POP DUP4 CALLVALUE PUSH2 0x1A8 JUMPI PUSH1 0x20 CALLDATASIZE PUSH1 0x3 NOT ADD SLT PUSH2 0x1A8 JUMPI CALLDATALOAD PUSH4 0xFFFFFFFF PUSH1 0xE0 SHL DUP2 AND DUP1 SWAP2 SUB PUSH2 0x1A8 JUMPI PUSH1 0x20 SWAP3 POP PUSH4 0x7965DB0B PUSH1 0xE0 SHL DUP2 EQ SWAP1 DUP2 ISZERO PUSH2 0xCB6 JUMPI JUMPDEST POP ISZERO ISZERO DUP2 MSTORE RETURN JUMPDEST PUSH4 0x1FFC9A7 PUSH1 0xE0 SHL EQ SWAP1 POP DUP4 PUSH2 0xCAF JUMP JUMPDEST PUSH1 0x80 DUP2 ADD SWAP1 DUP2 LT PUSH8 0xFFFFFFFFFFFFFFFF DUP3 GT OR PUSH2 0xCE3 JUMPI PUSH1 0x40 MSTORE JUMP JUMPDEST PUSH4 0x4E487B71 PUSH1 0xE0 SHL PUSH1 0x0 MSTORE PUSH1 0x41 PUSH1 0x4 MSTORE PUSH1 0x24 PUSH1 0x0 REVERT JUMPDEST SWAP1 PUSH1 0x1F DUP1 NOT SWAP2 ADD AND DUP2 ADD SWAP1 DUP2 LT PUSH8 0xFFFFFFFFFFFFFFFF DUP3 GT OR PUSH2 0xCE3 JUMPI PUSH1 0x40 MSTORE JUMP JUMPDEST DUP2 PUSH1 0x1F DUP3 ADD SLT ISZERO PUSH2 0xD72 JUMPI DUP1 CALLDATALOAD SWAP1 PUSH8 0xFFFFFFFFFFFFFFFF DUP3 GT PUSH2 0xCE3 JUMPI PUSH1 0x40 MLOAD SWAP3 PUSH2 0xD50 PUSH1 0x1F DUP5 ADD PUSH1 0x1F NOT AND PUSH1 0x20 ADD DUP6 PUSH2 0xCF9 JUMP JUMPDEST DUP3 DUP5 MSTORE PUSH1 0x20 DUP4 DUP4 ADD ADD GT PUSH2 0xD72 JUMPI DUP2 PUSH1 0x0 SWAP3 PUSH1 0x20 DUP1 SWAP4 ADD DUP4 DUP7 ADD CALLDATACOPY DUP4 ADD ADD MSTORE SWAP1 JUMP JUMPDEST PUSH1 0x0 DUP1 REVERT JUMPDEST PUSH1 0x24 CALLDATALOAD SWAP1 PUSH1 0x1 PUSH1 0x1 PUSH1 0xA0 SHL SUB DUP3 AND DUP3 SUB PUSH2 0xD72 JUMPI JUMP JUMPDEST PUSH1 0x0 JUMPDEST DUP4 DUP2 LT PUSH2 0xDA0 JUMPI POP POP PUSH1 0x0 SWAP2 ADD MSTORE JUMP JUMPDEST DUP2 DUP2 ADD MLOAD DUP4 DUP3 ADD MSTORE PUSH1 0x20 ADD PUSH2 0xD90 JUMP JUMPDEST CALLER PUSH1 0x0 SWAP1 DUP2 MSTORE PUSH32 0x7D7FFB7A348E1C6A02869081A26547B49160DD3DF72D1D75A570EB9B698292EC PUSH1 0x20 SWAP1 DUP2 MSTORE PUSH1 0x40 DUP1 DUP4 KECCAK256 SLOAD SWAP1 SWAP3 SWAP2 SWAP1 PUSH32 0xA49807205CE4D355092EF5A8A18F56E8913CF4A201FBE287825B095693C21775 SWAP1 PUSH1 0xFF AND ISZERO PUSH2 0xE16 JUMPI POP POP POP POP JUMP JUMPDEST PUSH2 0xE1F CALLER PUSH2 0x1188 JUMP JUMPDEST SWAP1 DUP5 MLOAD SWAP1 PUSH2 0xE2C DUP3 PUSH2 0xCC7 JUMP JUMPDEST PUSH1 0x42 DUP3 MSTORE DUP4 DUP3 ADD SWAP5 PUSH1 0x60 CALLDATASIZE DUP8 CALLDATACOPY DUP3 MLOAD ISZERO PUSH2 0xFCE JUMPI PUSH1 0x30 DUP7 MSTORE8 DUP3 MLOAD SWAP1 PUSH1 0x1 SWAP2 DUP3 LT ISZERO PUSH2 0xFCE JUMPI SWAP1 PUSH1 0x78 PUSH1 0x21 DUP6 ADD MSTORE8 PUSH1 0x41 SWAP2 JUMPDEST DUP2 DUP4 GT PUSH2 0xF60 JUMPI POP POP POP PUSH2 0xF1E JUMPI DUP5 PUSH2 0xEEC PUSH1 0x48 PUSH2 0xF10 SWAP4 PUSH1 0x44 SWAP8 SWAP9 MLOAD SWAP9 DUP10 SWAP2 PUSH2 0xEDD DUP10 DUP5 ADD SWAP9 PUSH23 0x20B1B1B2B9B9A1B7B73A3937B61D1030B1B1B7BAB73A1 PUSH1 0x4D SHL DUP11 MSTORE PUSH2 0xEB4 DUP2 MLOAD DUP1 SWAP3 DUP14 PUSH1 0x37 DUP10 ADD SWAP2 ADD PUSH2 0xD8D JUMP JUMPDEST DUP5 ADD SWAP2 PUSH17 0x1034B99036B4B9B9B4B733903937B6329 PUSH1 0x7D SHL PUSH1 0x37 DUP5 ADD MSTORE MLOAD DUP1 SWAP4 DUP7 DUP5 ADD SWAP1 PUSH2 0xD8D JUMP JUMPDEST ADD SUB PUSH1 0x28 DUP2 ADD DUP10 MSTORE ADD DUP8 PUSH2 0xCF9 JUMP JUMPDEST MLOAD SWAP5 DUP6 SWAP4 PUSH3 0x461BCD PUSH1 0xE5 SHL DUP6 MSTORE PUSH1 0x4 DUP6 ADD MSTORE MLOAD DUP1 SWAP3 DUP2 PUSH1 0x24 DUP7 ADD MSTORE DUP6 DUP6 ADD SWAP1 PUSH2 0xD8D JUMP JUMPDEST PUSH1 0x1F ADD PUSH1 0x1F NOT AND DUP2 ADD SUB ADD SWAP1 REVERT JUMPDEST PUSH1 0x64 DUP4 DUP7 MLOAD SWAP1 PUSH3 0x461BCD PUSH1 0xE5 SHL DUP3 MSTORE DUP1 PUSH1 0x4 DUP4 ADD MSTORE PUSH1 0x24 DUP3 ADD MSTORE PUSH32 0x537472696E67733A20686578206C656E67746820696E73756666696369656E74 PUSH1 0x44 DUP3 ADD MSTORE REVERT JUMPDEST SWAP1 SWAP2 SWAP3 PUSH1 0xF DUP2 AND PUSH1 0x10 DUP2 LT ISZERO PUSH2 0xFBA JUMPI PUSH16 0x181899199A1A9B1B9C1CB0B131B232B3 PUSH1 0x81 SHL SWAP1 BYTE PUSH2 0xF90 DUP6 DUP8 PUSH2 0x1161 JUMP JUMPDEST MSTORE8 PUSH1 0x4 SHR SWAP3 DUP1 ISZERO PUSH2 0xFA6 JUMPI PUSH1 0x0 NOT ADD SWAP2 SWAP1 PUSH2 0xE5D JUMP JUMPDEST PUSH4 0x4E487B71 PUSH1 0xE0 SHL DUP3 MSTORE PUSH1 0x11 PUSH1 0x4 MSTORE PUSH1 0x24 DUP3 REVERT JUMPDEST PUSH4 0x4E487B71 PUSH1 0xE0 SHL DUP4 MSTORE PUSH1 0x32 PUSH1 0x4 MSTORE PUSH1 0x24 DUP4 REVERT JUMPDEST PUSH4 0x4E487B71 PUSH1 0xE0 SHL DUP2 MSTORE PUSH1 0x32 PUSH1 0x4 MSTORE PUSH1 0x24 SWAP1 REVERT JUMPDEST PUSH1 0x0 DUP2 DUP2 MSTORE PUSH1 0x20 DUP2 DUP2 MSTORE PUSH1 0x40 SWAP3 DUP4 DUP4 KECCAK256 CALLER DUP5 MSTORE DUP3 MSTORE PUSH1 0xFF DUP5 DUP5 KECCAK256 SLOAD AND ISZERO PUSH2 0x1009 JUMPI POP POP POP POP JUMP JUMPDEST PUSH2 0x1012 CALLER PUSH2 0x1188 JUMP JUMPDEST SWAP1 DUP5 MLOAD SWAP1 PUSH2 0x101F DUP3 PUSH2 0xCC7 JUMP JUMPDEST PUSH1 0x42 DUP3 MSTORE DUP4 DUP3 ADD SWAP5 PUSH1 0x60 CALLDATASIZE DUP8 CALLDATACOPY DUP3 MLOAD ISZERO PUSH2 0xFCE JUMPI PUSH1 0x30 DUP7 MSTORE8 DUP3 MLOAD SWAP1 PUSH1 0x1 SWAP2 DUP3 LT ISZERO PUSH2 0xFCE JUMPI SWAP1 PUSH1 0x78 PUSH1 0x21 DUP6 ADD MSTORE8 PUSH1 0x41 SWAP2 JUMPDEST DUP2 DUP4 GT PUSH2 0x10A7 JUMPI POP POP POP PUSH2 0xF1E JUMPI DUP5 PUSH2 0xEEC PUSH1 0x48 PUSH2 0xF10 SWAP4 PUSH1 0x44 SWAP8 SWAP9 MLOAD SWAP9 DUP10 SWAP2 PUSH2 0xEDD DUP10 DUP5 ADD SWAP9 PUSH23 0x20B1B1B2B9B9A1B7B73A3937B61D1030B1B1B7BAB73A1 PUSH1 0x4D SHL DUP11 MSTORE PUSH2 0xEB4 DUP2 MLOAD DUP1 SWAP3 DUP14 PUSH1 0x37 DUP10 ADD SWAP2 ADD PUSH2 0xD8D JUMP JUMPDEST SWAP1 SWAP2 SWAP3 PUSH1 0xF DUP2 AND PUSH1 0x10 DUP2 LT ISZERO PUSH2 0xFBA JUMPI PUSH16 0x181899199A1A9B1B9C1CB0B131B232B3 PUSH1 0x81 SHL SWAP1 BYTE PUSH2 0x10D7 DUP6 DUP8 PUSH2 0x1161 JUMP JUMPDEST MSTORE8 PUSH1 0x4 SHR SWAP3 DUP1 ISZERO PUSH2 0xFA6 JUMPI PUSH1 0x0 NOT ADD SWAP2 SWAP1 PUSH2 0x1050 JUMP JUMPDEST SWAP1 PUSH1 0x0 SWAP2 DUP1 DUP4 MSTORE DUP3 PUSH1 0x20 MSTORE PUSH1 0x40 DUP4 KECCAK256 SWAP2 PUSH1 0x1 DUP1 PUSH1 0xA0 SHL SUB AND SWAP2 DUP3 DUP5 MSTORE PUSH1 0x20 MSTORE PUSH1 0xFF PUSH1 0x40 DUP5 KECCAK256 SLOAD AND PUSH2 0x111D JUMPI POP POP POP JUMP JUMPDEST DUP1 DUP4 MSTORE DUP3 PUSH1 0x20 MSTORE PUSH1 0x40 DUP4 KECCAK256 DUP3 DUP5 MSTORE PUSH1 0x20 MSTORE PUSH1 0x40 DUP4 KECCAK256 PUSH1 0xFF NOT DUP2 SLOAD AND SWAP1 SSTORE PUSH32 0xF6391F5C32D9C69D2A47EA670B442974B53935D1EDC7FD64EB21E047A839171B CALLER SWAP4 DUP1 LOG4 JUMP JUMPDEST SWAP1 DUP2 MLOAD DUP2 LT ISZERO PUSH2 0x1172 JUMPI ADD PUSH1 0x20 ADD SWAP1 JUMP JUMPDEST PUSH4 0x4E487B71 PUSH1 0xE0 SHL PUSH1 0x0 MSTORE PUSH1 0x32 PUSH1 0x4 MSTORE PUSH1 0x24 PUSH1 0x0 REVERT JUMPDEST PUSH1 0x40 MLOAD SWAP1 PUSH1 0x60 DUP3 ADD DUP3 DUP2 LT PUSH8 0xFFFFFFFFFFFFFFFF DUP3 GT OR PUSH2 0xCE3 JUMPI PUSH1 0x40 MSTORE PUSH1 0x2A DUP3 MSTORE PUSH1 0x20 DUP3 ADD PUSH1 0x40 CALLDATASIZE DUP3 CALLDATACOPY DUP3 MLOAD ISZERO PUSH2 0x1172 JUMPI PUSH1 0x30 SWAP1 MSTORE8 DUP2 MLOAD PUSH1 0x1 SWAP1 DUP2 LT ISZERO PUSH2 0x1172 JUMPI PUSH1 0x78 PUSH1 0x21 DUP5 ADD MSTORE8 PUSH1 0x29 SWAP1 JUMPDEST DUP1 DUP3 GT PUSH2 0x1229 JUMPI POP POP PUSH2 0x11E5 JUMPI SWAP1 JUMP JUMPDEST PUSH1 0x64 PUSH1 0x40 MLOAD PUSH3 0x461BCD PUSH1 0xE5 SHL DUP2 MSTORE PUSH1 0x20 PUSH1 0x4 DUP3 ADD MSTORE PUSH1 0x20 PUSH1 0x24 DUP3 ADD MSTORE PUSH32 0x537472696E67733A20686578206C656E67746820696E73756666696369656E74 PUSH1 0x44 DUP3 ADD MSTORE REVERT JUMPDEST SWAP1 SWAP2 PUSH1 0xF DUP2 AND PUSH1 0x10 DUP2 LT ISZERO PUSH2 0x1282 JUMPI PUSH16 0x181899199A1A9B1B9C1CB0B131B232B3 PUSH1 0x81 SHL SWAP1 BYTE PUSH2 0x1258 DUP5 DUP7 PUSH2 0x1161 JUMP JUMPDEST MSTORE8 PUSH1 0x4 SHR SWAP2 DUP1 ISZERO PUSH2 0x126D JUMPI PUSH1 0x0 NOT ADD SWAP1 PUSH2 0x11D5 JUMP JUMPDEST PUSH1 0x24 PUSH1 0x0 PUSH4 0x4E487B71 PUSH1 0xE0 SHL DUP2 MSTORE PUSH1 0x11 PUSH1 0x4 MSTORE REVERT JUMPDEST PUSH1 0x24 PUSH1 0x0 PUSH4 0x4E487B71 PUSH1 0xE0 SHL DUP2 MSTORE PUSH1 0x32 PUSH1 0x4 MSTORE REVERT JUMPDEST SWAP1 DUP2 PUSH1 0x20 SWAP2 SUB SLT PUSH2 0xD72 JUMPI MLOAD DUP1 ISZERO ISZERO DUP2 SUB PUSH2 0xD72 JUMPI SWAP1 JUMP JUMPDEST ISZERO PUSH2 0x12B6 JUMPI JUMP JUMPDEST PUSH1 0x40 MLOAD PUSH3 0x461BCD PUSH1 0xE5 SHL DUP2 MSTORE PUSH1 0x20 PUSH1 0x4 DUP3 ADD MSTORE PUSH1 0x15 PUSH1 0x24 DUP3 ADD MSTORE PUSH21 0x151BDAD95B881D1C985B9CD9995C8819985A5B1959 PUSH1 0x5A SHL PUSH1 0x44 DUP3 ADD MSTORE PUSH1 0x64 SWAP1 REVERT JUMPDEST ISZERO PUSH2 0x12FA JUMPI JUMP JUMPDEST PUSH1 0x40 MLOAD PUSH3 0x461BCD PUSH1 0xE5 SHL DUP2 MSTORE PUSH1 0x20 PUSH1 0x4 DUP3 ADD MSTORE PUSH1 0x16 PUSH1 0x24 DUP3 ADD MSTORE PUSH22 0x151BDAD95B9CC8185B1C9958591E4818DB185A5B5959 PUSH1 0x52 SHL PUSH1 0x44 DUP3 ADD MSTORE PUSH1 0x64 SWAP1 REVERT INVALID LOG2 PUSH5 0x6970667358 0x22 SLT KECCAK256 0xB9 SWAP4 TIMESTAMP 0xFC 0xD5 SWAP6 0xAC PUSH26 0xCBD6E167BFCDC069D976033B5610B72C9CEFBA2C146100A36473 PUSH16 0x6C634300081400332F8788117E7EFF1D DUP3 0xE9 0x26 0xEC PUSH26 0x4901D17C78024A50270940304540A733656F0D00000000000000 "},"methodIdentifiers":{"ADMIN_ROLE()":"75b238fc","DEFAULT_ADMIN_ROLE()":"a217fddf","approveTransfer(uint256)":"cacca4a0","claimTokens(uint256,string)":"190d3499","getRoleAdmin(bytes32)":"248a9ca3","grantRole(bytes32,address)":"2f2ff15d","hasRole(bytes32,address)":"91d14854","paused()":"5c975abb","renounceRole(bytes32,address)":"36568abe","requestCounter()":"973a814e","requestTransfer(address,uint256,string)":"ac5c2efd","revokeRole(bytes32,address)":"d547741f","setPaused(bool)":"16c38b3c","setTokenMapping(string,address)":"c75b6a39","setTransferFee(uint256)":"8f02bb5b","supportsInterface(bytes4)":"01ffc9a7","tokenMapping(string)":"e88ad953","transferFee()":"acb2ad6f","transferRequests(uint256)":"03486c40","withdrawFees(uint256)":"5e318e07"}}}}}