{
  "_format": "hh-sol-artifact-1",
  "contractName": "CountryRestrictModule",
  "sourceName": "contracts/compliance/modular/modules/CountryRestrictModule.sol",
  "abi": [
    {
      "anonymous": false,
      "inputs": [
        {
          "indexed": true,
          "internalType": "address",
          "name": "_compliance",
          "type": "address"
        },
        {
          "indexed": false,
          "internalType": "uint16",
          "name": "_country",
          "type": "uint16"
        }
      ],
      "name": "AddedRestrictedCountry",
      "type": "event"
    },
    {
      "anonymous": false,
      "inputs": [
        {
          "indexed": false,
          "internalType": "address",
          "name": "previousAdmin",
          "type": "address"
        },
        {
          "indexed": false,
          "internalType": "address",
          "name": "newAdmin",
          "type": "address"
        }
      ],
      "name": "AdminChanged",
      "type": "event"
    },
    {
      "anonymous": false,
      "inputs": [
        {
          "indexed": true,
          "internalType": "address",
          "name": "beacon",
          "type": "address"
        }
      ],
      "name": "BeaconUpgraded",
      "type": "event"
    },
    {
      "anonymous": false,
      "inputs": [
        {
          "indexed": true,
          "internalType": "address",
          "name": "_compliance",
          "type": "address"
        }
      ],
      "name": "ComplianceBound",
      "type": "event"
    },
    {
      "anonymous": false,
      "inputs": [
        {
          "indexed": true,
          "internalType": "address",
          "name": "_compliance",
          "type": "address"
        }
      ],
      "name": "ComplianceUnbound",
      "type": "event"
    },
    {
      "anonymous": false,
      "inputs": [
        {
          "indexed": false,
          "internalType": "uint8",
          "name": "version",
          "type": "uint8"
        }
      ],
      "name": "Initialized",
      "type": "event"
    },
    {
      "anonymous": false,
      "inputs": [
        {
          "indexed": true,
          "internalType": "address",
          "name": "previousOwner",
          "type": "address"
        },
        {
          "indexed": true,
          "internalType": "address",
          "name": "newOwner",
          "type": "address"
        }
      ],
      "name": "OwnershipTransferred",
      "type": "event"
    },
    {
      "anonymous": false,
      "inputs": [
        {
          "indexed": true,
          "internalType": "address",
          "name": "_compliance",
          "type": "address"
        },
        {
          "indexed": false,
          "internalType": "uint16",
          "name": "_country",
          "type": "uint16"
        }
      ],
      "name": "RemovedRestrictedCountry",
      "type": "event"
    },
    {
      "anonymous": false,
      "inputs": [
        {
          "indexed": true,
          "internalType": "address",
          "name": "implementation",
          "type": "address"
        }
      ],
      "name": "Upgraded",
      "type": "event"
    },
    {
      "inputs": [
        {
          "internalType": "uint16",
          "name": "_country",
          "type": "uint16"
        }
      ],
      "name": "addCountryRestriction",
      "outputs": [],
      "stateMutability": "nonpayable",
      "type": "function"
    },
    {
      "inputs": [
        {
          "internalType": "uint16[]",
          "name": "_countries",
          "type": "uint16[]"
        }
      ],
      "name": "batchRestrictCountries",
      "outputs": [],
      "stateMutability": "nonpayable",
      "type": "function"
    },
    {
      "inputs": [
        {
          "internalType": "uint16[]",
          "name": "_countries",
          "type": "uint16[]"
        }
      ],
      "name": "batchUnrestrictCountries",
      "outputs": [],
      "stateMutability": "nonpayable",
      "type": "function"
    },
    {
      "inputs": [
        {
          "internalType": "address",
          "name": "_compliance",
          "type": "address"
        }
      ],
      "name": "bindCompliance",
      "outputs": [],
      "stateMutability": "nonpayable",
      "type": "function"
    },
    {
      "inputs": [
        {
          "internalType": "address",
          "name": "",
          "type": "address"
        }
      ],
      "name": "canComplianceBind",
      "outputs": [
        {
          "internalType": "bool",
          "name": "",
          "type": "bool"
        }
      ],
      "stateMutability": "view",
      "type": "function"
    },
    {
      "inputs": [],
      "name": "initialize",
      "outputs": [],
      "stateMutability": "nonpayable",
      "type": "function"
    },
    {
      "inputs": [
        {
          "internalType": "address",
          "name": "_compliance",
          "type": "address"
        }
      ],
      "name": "isComplianceBound",
      "outputs": [
        {
          "internalType": "bool",
          "name": "",
          "type": "bool"
        }
      ],
      "stateMutability": "view",
      "type": "function"
    },
    {
      "inputs": [
        {
          "internalType": "address",
          "name": "_compliance",
          "type": "address"
        },
        {
          "internalType": "uint16",
          "name": "_country",
          "type": "uint16"
        }
      ],
      "name": "isCountryRestricted",
      "outputs": [
        {
          "internalType": "bool",
          "name": "",
          "type": "bool"
        }
      ],
      "stateMutability": "view",
      "type": "function"
    },
    {
      "inputs": [],
      "name": "isPlugAndPlay",
      "outputs": [
        {
          "internalType": "bool",
          "name": "",
          "type": "bool"
        }
      ],
      "stateMutability": "pure",
      "type": "function"
    },
    {
      "inputs": [
        {
          "internalType": "address",
          "name": "_from",
          "type": "address"
        },
        {
          "internalType": "uint256",
          "name": "_value",
          "type": "uint256"
        }
      ],
      "name": "moduleBurnAction",
      "outputs": [],
      "stateMutability": "nonpayable",
      "type": "function"
    },
    {
      "inputs": [
        {
          "internalType": "address",
          "name": "",
          "type": "address"
        },
        {
          "internalType": "address",
          "name": "_to",
          "type": "address"
        },
        {
          "internalType": "uint256",
          "name": "",
          "type": "uint256"
        },
        {
          "internalType": "address",
          "name": "_compliance",
          "type": "address"
        }
      ],
      "name": "moduleCheck",
      "outputs": [
        {
          "internalType": "bool",
          "name": "",
          "type": "bool"
        }
      ],
      "stateMutability": "view",
      "type": "function"
    },
    {
      "inputs": [
        {
          "internalType": "address",
          "name": "_to",
          "type": "address"
        },
        {
          "internalType": "uint256",
          "name": "_value",
          "type": "uint256"
        }
      ],
      "name": "moduleMintAction",
      "outputs": [],
      "stateMutability": "nonpayable",
      "type": "function"
    },
    {
      "inputs": [
        {
          "internalType": "address",
          "name": "_from",
          "type": "address"
        },
        {
          "internalType": "address",
          "name": "_to",
          "type": "address"
        },
        {
          "internalType": "uint256",
          "name": "_value",
          "type": "uint256"
        }
      ],
      "name": "moduleTransferAction",
      "outputs": [],
      "stateMutability": "nonpayable",
      "type": "function"
    },
    {
      "inputs": [],
      "name": "name",
      "outputs": [
        {
          "internalType": "string",
          "name": "_name",
          "type": "string"
        }
      ],
      "stateMutability": "pure",
      "type": "function"
    },
    {
      "inputs": [],
      "name": "owner",
      "outputs": [
        {
          "internalType": "address",
          "name": "",
          "type": "address"
        }
      ],
      "stateMutability": "view",
      "type": "function"
    },
    {
      "inputs": [],
      "name": "proxiableUUID",
      "outputs": [
        {
          "internalType": "bytes32",
          "name": "",
          "type": "bytes32"
        }
      ],
      "stateMutability": "view",
      "type": "function"
    },
    {
      "inputs": [
        {
          "internalType": "uint16",
          "name": "_country",
          "type": "uint16"
        }
      ],
      "name": "removeCountryRestriction",
      "outputs": [],
      "stateMutability": "nonpayable",
      "type": "function"
    },
    {
      "inputs": [],
      "name": "renounceOwnership",
      "outputs": [],
      "stateMutability": "nonpayable",
      "type": "function"
    },
    {
      "inputs": [
        {
          "internalType": "address",
          "name": "newOwner",
          "type": "address"
        }
      ],
      "name": "transferOwnership",
      "outputs": [],
      "stateMutability": "nonpayable",
      "type": "function"
    },
    {
      "inputs": [
        {
          "internalType": "address",
          "name": "_compliance",
          "type": "address"
        }
      ],
      "name": "unbindCompliance",
      "outputs": [],
      "stateMutability": "nonpayable",
      "type": "function"
    },
    {
      "inputs": [
        {
          "internalType": "address",
          "name": "newImplementation",
          "type": "address"
        }
      ],
      "name": "upgradeTo",
      "outputs": [],
      "stateMutability": "nonpayable",
      "type": "function"
    },
    {
      "inputs": [
        {
          "internalType": "address",
          "name": "newImplementation",
          "type": "address"
        },
        {
          "internalType": "bytes",
          "name": "data",
          "type": "bytes"
        }
      ],
      "name": "upgradeToAndCall",
      "outputs": [],
      "stateMutability": "payable",
      "type": "function"
    }
  ],
  "bytecode": "0x60a0806040523461003157306080526118d1908161003782396080518181816105fb015281816107220152610af60152f35b600080fdfe6040608081526004908136101561001557600080fd5b600091823560e01c8063013b7ce41461104c5780630333ce2414610f9e5780630694a5fb14610f0557806306fdde0314610e8d578063249c981d14610d3e5780632cb7e1ec14610d1b57806330236f4a14610cc45780633659cfe614610acf578063372491a2146101a75780634a932544146109f45780634cf4d295146109a95780634f1ef286146106a857806352d1902d146105e65780636aae7b2614610537578063715018a6146104da5780638129fc1c1461038c5780638da5cb5b14610363578063bcc210531461033d578063bdf9a07e146101ec578063e6f5e807146101d0578063f104a8c9146101a75763f2fde38b1461011357600080fd5b346101a35760203660031901126101a35761012c61109a565b916101356111e2565b6001600160a01b03831615610151578361014e8461123a565b80f35b906020608492519162461bcd60e51b8352820152602660248201527f4f776e61626c653a206e6577206f776e657220697320746865207a65726f206160448201526564647265737360d01b6064820152fd5b8280fd5b5050346101cc573660031901126101c9576101c061109a565b5061014e6116a3565b80fd5b5080fd5b5050346101cc57816003193601126101cc576020905160018152f35b5090346101a3576101fc36611125565b909233855260209160008051602061187c833981519152835260ff9161022683868920541661150c565b60c38210156102e75750855b81811061023d578680f35b6102e2903388528260c9808752878a20896102656102608661ffff96879461166e565b611694565b168b52875261027986898c205416156115b8565b338a5286528689208161029061026085888d61166e565b168a528652868920805460ff191660011790556102b161026083868b61166e565b908751911681527f5e0addf626d7d7091ab7aebf34682c3203384648734760b24921e31ddcec0bb5863392a2611649565b610232565b845162461bcd60e51b8152908101849052602a60248201527f6d6178696d756d203139352063616e206265207265737472696374656420696e604482015269040dedcca40c4c2e8c6d60b31b6064820152608490fd5b5050346101cc5760203660031901126101cc5760209061035b61109a565b505160018152f35b5050346101cc57816003193601126101cc5760335490516001600160a01b039091168152602090f35b50346101a357826003193601126101a357825460ff8160081c1615918280936104cd575b80156104b6575b1561045c575060ff19811660011784558161044b575b506103f060ff845460081c166103e281611558565b6103eb81611558565b611558565b6103f93361123a565b82549061040b60ff8360081c16611558565b610413578280f35b61ff001916825551600181527f7f26b83ff96e1f2b6a682f133852f6798a09c465da95921460cefb384740249890602090a138808280f35b61ffff1916610101178355386103cd565b608490602085519162461bcd60e51b8352820152602e60248201527f496e697469616c697a61626c653a20636f6e747261637420697320616c72656160448201526d191e481a5b9a5d1a585b1a5e995960921b6064820152fd5b50303b1580156103b75750600160ff8316146103b7565b50600160ff8316106103b0565b83346101c957806003193601126101c9576104f36111e2565b603380546001600160a01b0319811690915581906001600160a01b03167f8be0079c531659141344cd1fd0a4f28419497f9722a3daafe3b4186f6b6457e08280a380f35b5050346101cc576020806003193601126101a3577ffb8bb575200aa114265a31c7d8ebeb4e395bd3cd9d0914c4bfa2a511d2011a7a906105756110cb565b9233855260008051602061187c833981519152825261059960ff828720541661150c565b33855260c9825261ffff81862094169384865282526105c2600160ff8388205416151514611604565b33855260c98252808520848652825280852060ff198154169055519283523392a280f35b5082346101c957806003193601126101c957507f00000000000000000000000000000000000000000000000000000000000000006001600160a01b03163003610640576020825160008051602061185c8339815191528152f35b6020608492519162461bcd60e51b8352820152603860248201527f555550535570677261646561626c653a206d757374206e6f742062652063616c60448201527f6c6564207468726f7567682064656c656761746563616c6c00000000000000006064820152fd5b5090806003193601126101a3576106bd61109a565b906024359067ffffffffffffffff82116109a557366023830112156109a557818401356106e9816111c6565b6106f5835191826111a4565b818152866020948583019336602482840101116101a3578060248893018637830101526001600160a01b037f000000000000000000000000000000000000000000000000000000000000000081169061075030831415611283565b61076d60008051602061185c8339815191529282845416146112e4565b6107756111e2565b7f4910fdfa16fed3260ed0e7147f7cc6da11a60208b5b9406d12a635614ffd91435460ff16156107af5750505050505061014e9150611345565b869293949596169085516352d1902d60e01b815287818a81865afa8a9181610972575b5061083157865162461bcd60e51b8152808a01899052602e60248201527f45524331393637557067726164653a206e657720696d706c656d656e7461746960448201526d6f6e206973206e6f74205555505360901b6064820152608490fd5b97919293969594970361091d575061084882611345565b7fbc7cd75a20ee27fd9adebab32041f755214dbc6bffa90cc0225b39da2e5c2d3b8780a285845115801590610915575b610886575b50505050505080f35b806108ff9684519661089788611172565b602788527f416464726573733a206c6f772d6c6576656c2064656c65676174652063616c6c87890152660819985a5b195960ca1b868901525190845af4913d1561090b573d6108f16108e8826111c6565b925192836111a4565b81528681943d92013e6113d5565b5038808080808561087d565b50606092506113d5565b506001610878565b835162461bcd60e51b8152908101859052602960248201527f45524331393637557067726164653a20756e737570706f727465642070726f786044820152681a58589b195555525160ba1b6064820152608490fd5b9091508881813d831161099e575b61098a81836111a4565b8101031261099a575190386107d2565b8a80fd5b503d610980565b8480fd5b5050346101cc5760203660031901126101cc5760209160ff9082906001600160a01b036109d461109a565b16815260008051602061187c833981519152855220541690519015158152f35b5090346101a35760203660031901126101a3576001600160a01b03610a1761109a565b1691610a2483151561146a565b82845260008051602061187c833981519152908160205260ff8386205416610a8c5750610a528333146114b6565b8284526020528220805460ff191660011790557f1f7b76c58fb697eb53c6c7c1becb96911516a136e24d7ced386b2355358b75a38280a280f35b606490602084519162461bcd60e51b8352820152601860248201527f636f6d706c69616e636520616c726561647920626f756e6400000000000000006044820152fd5b5090346101a357602080600319360112610cc057610aeb61109a565b916001600160a01b037f00000000000000000000000000000000000000000000000000000000000000008116610b2330821415611283565b610b4060008051602061185c8339815191529183835416146112e4565b610b486111e2565b8251908482019282841067ffffffffffffffff851117610cad578385528883527f4910fdfa16fed3260ed0e7147f7cc6da11a60208b5b9406d12a635614ffd91435460ff1615610ba25750505050505061014e9150611345565b869293949596169085516352d1902d60e01b815287818a81865afa8a9181610c7e575b50610c2457865162461bcd60e51b8152808a01899052602e60248201527f45524331393637557067726164653a206e657720696d706c656d656e7461746960448201526d6f6e206973206e6f74205555505360901b6064820152608490fd5b97919293969594970361091d5750610c3b82611345565b7fbc7cd75a20ee27fd9adebab32041f755214dbc6bffa90cc0225b39da2e5c2d3b8780a285845115801590610c77576108865750505050505080f35b5080610878565b9091508881813d8311610ca6575b610c9681836111a4565b8101031261099a57519038610bc5565b503d610c8c565b634e487b7160e01b895260418852602489fd5b8380fd5b5050346101cc57806003193601126101cc57610cde61109a565b6024359061ffff8216809203610cc0576001600160a01b0316835260c960209081528284209184529081529181902054905160ff90911615158152f35b83346101c95760603660031901126101c957610d3561109a565b506101c06110b5565b5090346101a357610d4e36611125565b909233855260209160008051602061187c833981519152835260ff91610d7883868920541661150c565b60c3821015610e355750855b818110610d8f578680f35b610e30903388528260c9808752878a2089610db26102608661ffff96879461166e565b168b528752610dca6001878a8d205416151514611604565b338a52865286892081610de161026085888d61166e565b168a528652868920805460ff19169055610dff61026083868b61166e565b908751911681527ffb8bb575200aa114265a31c7d8ebeb4e395bd3cd9d0914c4bfa2a511d2011a7a863392a2611649565b610d84565b845162461bcd60e51b8152908101849052602c60248201527f6d6178696d756d203139352063616e20626520756e726573747269637465642060448201526b0d2dc40dedcca40c4c2e8c6d60a31b6064820152608490fd5b509190346101cc57816003193601126101cc578051918183019083821067ffffffffffffffff831117610ef25750610eee935081526015825274436f756e74727952657374726963744d6f64756c6560581b602083015251918291826110dc565b0390f35b634e487b7160e01b815260418552602490fd5b5050346101cc5760203660031901126101cc57610f2061109a565b9033835260008051602061187c8339815191529182602052610f4760ff838620541661150c565b6001600160a01b031691610f5c83151561146a565b610f678333146114b6565b8284526020528220805460ff191690557f408b49d9be1c914c52a0227e18a077e5a892dddf32a26cfa94a5d9708fad77188280a280f35b5050346101cc576020806003193601126101a3577f5e0addf626d7d7091ab7aebf34682c3203384648734760b24921e31ddcec0bb590610fdc6110cb565b9233855260008051602061187c833981519152825261100060ff828720541661150c565b33855260c9825261ffff818620941693848652825261102560ff8287205416156115b8565b33855260c982528085208486528252808520600160ff19825416179055519283523392a280f35b5050346101cc5760803660031901126101cc5761106761109a565b506110706110b5565b606435926001600160a01b03841684036101c95750602092611091916116cc565b90519015158152f35b600435906001600160a01b03821682036110b057565b600080fd5b602435906001600160a01b03821682036110b057565b6004359061ffff821682036110b057565b6020808252825181830181905290939260005b82811061111157505060409293506000838284010152601f8019910116010190565b8181018601518482016040015285016110ef565b9060206003198301126110b05760043567ffffffffffffffff928382116110b057806023830112156110b05781600401359384116110b05760248460051b830101116110b0576024019190565b6060810190811067ffffffffffffffff82111761118e57604052565b634e487b7160e01b600052604160045260246000fd5b90601f8019910116810190811067ffffffffffffffff82111761118e57604052565b67ffffffffffffffff811161118e57601f01601f191660200190565b6033546001600160a01b031633036111f657565b606460405162461bcd60e51b815260206004820152602060248201527f4f776e61626c653a2063616c6c6572206973206e6f7420746865206f776e65726044820152fd5b603380546001600160a01b039283166001600160a01b0319821681179092559091167f8be0079c531659141344cd1fd0a4f28419497f9722a3daafe3b4186f6b6457e0600080a3565b1561128a57565b60405162461bcd60e51b815260206004820152602c60248201527f46756e6374696f6e206d7573742062652063616c6c6564207468726f7567682060448201526b19195b1959d85d1958d85b1b60a21b6064820152608490fd5b156112eb57565b60405162461bcd60e51b815260206004820152602c60248201527f46756e6374696f6e206d7573742062652063616c6c6564207468726f7567682060448201526b6163746976652070726f787960a01b6064820152608490fd5b803b1561137a5760008051602061185c83398151915280546001600160a01b0319166001600160a01b03909216919091179055565b60405162461bcd60e51b815260206004820152602d60248201527f455243313936373a206e657720696d706c656d656e746174696f6e206973206e60448201526c1bdd08184818dbdb9d1c9858dd609a1b6064820152608490fd5b9192901561143757508151156113e9575090565b3b156113f25790565b60405162461bcd60e51b815260206004820152601d60248201527f416464726573733a2063616c6c20746f206e6f6e2d636f6e74726163740000006044820152606490fd5b82519091501561144a5750805190602001fd5b60405162461bcd60e51b815290819061146690600483016110dc565b0390fd5b1561147157565b60405162461bcd60e51b815260206004820152601f60248201527f696e76616c696420617267756d656e74202d207a65726f2061646472657373006044820152606490fd5b156114bd57565b60405162461bcd60e51b815260206004820152602160248201527f6f6e6c7920636f6d706c69616e636520636f6e74726163742063616e2063616c6044820152601b60fa1b6064820152608490fd5b1561151357565b60405162461bcd60e51b815260206004820152601e60248201527f6f6e6c7920626f756e6420636f6d706c69616e63652063616e2063616c6c00006044820152606490fd5b1561155f57565b60405162461bcd60e51b815260206004820152602b60248201527f496e697469616c697a61626c653a20636f6e7472616374206973206e6f74206960448201526a6e697469616c697a696e6760a81b6064820152608490fd5b156115bf57565b60405162461bcd60e51b815260206004820152601a60248201527f636f756e74727920616c726561647920726573747269637465640000000000006044820152606490fd5b1561160b57565b60405162461bcd60e51b815260206004820152601660248201527518dbdd5b9d1c9e481b9bdd081c995cdd1c9a58dd195960521b6044820152606490fd5b60001981146116585760010190565b634e487b7160e01b600052601160045260246000fd5b919081101561167e5760051b0190565b634e487b7160e01b600052603260045260246000fd5b3561ffff811681036110b05790565b3360005260008051602061187c8339815191526020526116ca60ff6040600020541661150c565b565b60408051630d47dbe560e31b81526001600160a01b0394939192918516916020918281600481875afa90811561181257879291849160009161181d575b5060048751809a81936304d3863d60e21b8352165afa968715611812576000976117d7575b508451637e42683b60e01b8152908216600482015295829187916024918391165afa9182156117cc5760009261178b575b60ff94955060005260c9815261ffff83600020921660005252600020541661178657600190565b600090565b91948181813d83116117c5575b6117a281836111a4565b810103126117c1575161ffff811681036117c15793945084939161175f565b8580fd5b503d611798565b83513d6000823e3d90fd5b8381819993993d831161180b575b6117ef81836111a4565b810103126101cc57519082821682036101c9575095602461172e565b503d6117e5565b85513d6000823e3d90fd5b828193929495503d8311611854575b61183681836111a4565b810103126101cc57519087821682036101c957509082879238611709565b503d61182c56fe360894a13ba1a3210667c828492db98dca3e2076cc3735a920a3ca505d382bbcf6cc97de1266c180cd39f3b311632644143ce7873d2927755382ad4b39e8ae00a264697066735822122076b66ad8bb8b556f89a850928eb05ae9d0a67037f8bcbab0b3a12aff3147325e64736f6c63430008110033",
  "linkReferences": {},
  "deployedLinkReferences": {}
}