{
  "_format": "hh-sol-artifact-1",
  "contractName": "ApproveTransferTest",
  "sourceName": "contracts/compliance/legacy/test/ApproveTransferTest.sol",
  "abi": [
    {
      "anonymous": false,
      "inputs": [
        {
          "indexed": true,
          "internalType": "address",
          "name": "_agent",
          "type": "address"
        }
      ],
      "name": "AgentAdded",
      "type": "event"
    },
    {
      "anonymous": false,
      "inputs": [
        {
          "indexed": true,
          "internalType": "address",
          "name": "_agent",
          "type": "address"
        }
      ],
      "name": "AgentRemoved",
      "type": "event"
    },
    {
      "anonymous": false,
      "inputs": [
        {
          "indexed": false,
          "internalType": "address",
          "name": "_from",
          "type": "address"
        },
        {
          "indexed": false,
          "internalType": "address",
          "name": "_to",
          "type": "address"
        },
        {
          "indexed": false,
          "internalType": "uint256",
          "name": "_amount",
          "type": "uint256"
        },
        {
          "indexed": false,
          "internalType": "address",
          "name": "_token",
          "type": "address"
        }
      ],
      "name": "ApprovalRemoved",
      "type": "event"
    },
    {
      "anonymous": false,
      "inputs": [
        {
          "indexed": true,
          "internalType": "address",
          "name": "previousOwner",
          "type": "address"
        },
        {
          "indexed": true,
          "internalType": "address",
          "name": "newOwner",
          "type": "address"
        }
      ],
      "name": "OwnershipTransferred",
      "type": "event"
    },
    {
      "anonymous": false,
      "inputs": [
        {
          "indexed": false,
          "internalType": "address",
          "name": "_agentAddress",
          "type": "address"
        }
      ],
      "name": "TokenAgentAdded",
      "type": "event"
    },
    {
      "anonymous": false,
      "inputs": [
        {
          "indexed": false,
          "internalType": "address",
          "name": "_agentAddress",
          "type": "address"
        }
      ],
      "name": "TokenAgentRemoved",
      "type": "event"
    },
    {
      "anonymous": false,
      "inputs": [
        {
          "indexed": false,
          "internalType": "address",
          "name": "_token",
          "type": "address"
        }
      ],
      "name": "TokenBound",
      "type": "event"
    },
    {
      "anonymous": false,
      "inputs": [
        {
          "indexed": false,
          "internalType": "address",
          "name": "_token",
          "type": "address"
        }
      ],
      "name": "TokenUnbound",
      "type": "event"
    },
    {
      "anonymous": false,
      "inputs": [
        {
          "indexed": false,
          "internalType": "address",
          "name": "_from",
          "type": "address"
        },
        {
          "indexed": false,
          "internalType": "address",
          "name": "_to",
          "type": "address"
        },
        {
          "indexed": false,
          "internalType": "uint256",
          "name": "_amount",
          "type": "uint256"
        },
        {
          "indexed": false,
          "internalType": "address",
          "name": "_token",
          "type": "address"
        }
      ],
      "name": "TransferApproved",
      "type": "event"
    },
    {
      "inputs": [
        {
          "internalType": "address",
          "name": "_agent",
          "type": "address"
        }
      ],
      "name": "addAgent",
      "outputs": [],
      "stateMutability": "nonpayable",
      "type": "function"
    },
    {
      "inputs": [
        {
          "internalType": "address",
          "name": "_agentAddress",
          "type": "address"
        }
      ],
      "name": "addTokenAgent",
      "outputs": [],
      "stateMutability": "nonpayable",
      "type": "function"
    },
    {
      "inputs": [
        {
          "internalType": "address",
          "name": "_from",
          "type": "address"
        },
        {
          "internalType": "address",
          "name": "_to",
          "type": "address"
        },
        {
          "internalType": "uint256",
          "name": "_amount",
          "type": "uint256"
        }
      ],
      "name": "approveAndTransfer",
      "outputs": [],
      "stateMutability": "nonpayable",
      "type": "function"
    },
    {
      "inputs": [
        {
          "internalType": "address",
          "name": "_from",
          "type": "address"
        },
        {
          "internalType": "address",
          "name": "_to",
          "type": "address"
        },
        {
          "internalType": "uint256",
          "name": "_amount",
          "type": "uint256"
        }
      ],
      "name": "approveTransfer",
      "outputs": [],
      "stateMutability": "nonpayable",
      "type": "function"
    },
    {
      "inputs": [
        {
          "internalType": "address",
          "name": "_token",
          "type": "address"
        }
      ],
      "name": "bindToken",
      "outputs": [],
      "stateMutability": "nonpayable",
      "type": "function"
    },
    {
      "inputs": [
        {
          "internalType": "address",
          "name": "_from",
          "type": "address"
        },
        {
          "internalType": "address",
          "name": "_to",
          "type": "address"
        },
        {
          "internalType": "uint256",
          "name": "_value",
          "type": "uint256"
        }
      ],
      "name": "canTransfer",
      "outputs": [
        {
          "internalType": "bool",
          "name": "",
          "type": "bool"
        }
      ],
      "stateMutability": "view",
      "type": "function"
    },
    {
      "inputs": [
        {
          "internalType": "address",
          "name": "_from",
          "type": "address"
        },
        {
          "internalType": "address",
          "name": "_to",
          "type": "address"
        },
        {
          "internalType": "uint256",
          "name": "_value",
          "type": "uint256"
        }
      ],
      "name": "complianceCheckOnApproveTransfer",
      "outputs": [
        {
          "internalType": "bool",
          "name": "",
          "type": "bool"
        }
      ],
      "stateMutability": "view",
      "type": "function"
    },
    {
      "inputs": [
        {
          "internalType": "address",
          "name": "_to",
          "type": "address"
        },
        {
          "internalType": "uint256",
          "name": "_value",
          "type": "uint256"
        }
      ],
      "name": "created",
      "outputs": [],
      "stateMutability": "nonpayable",
      "type": "function"
    },
    {
      "inputs": [
        {
          "internalType": "address",
          "name": "_from",
          "type": "address"
        },
        {
          "internalType": "uint256",
          "name": "_value",
          "type": "uint256"
        }
      ],
      "name": "destroyed",
      "outputs": [],
      "stateMutability": "nonpayable",
      "type": "function"
    },
    {
      "inputs": [
        {
          "internalType": "address",
          "name": "_agent",
          "type": "address"
        }
      ],
      "name": "isAgent",
      "outputs": [
        {
          "internalType": "bool",
          "name": "",
          "type": "bool"
        }
      ],
      "stateMutability": "view",
      "type": "function"
    },
    {
      "inputs": [
        {
          "internalType": "address",
          "name": "_agentAddress",
          "type": "address"
        }
      ],
      "name": "isTokenAgent",
      "outputs": [
        {
          "internalType": "bool",
          "name": "",
          "type": "bool"
        }
      ],
      "stateMutability": "view",
      "type": "function"
    },
    {
      "inputs": [
        {
          "internalType": "address",
          "name": "_token",
          "type": "address"
        }
      ],
      "name": "isTokenBound",
      "outputs": [
        {
          "internalType": "bool",
          "name": "",
          "type": "bool"
        }
      ],
      "stateMutability": "view",
      "type": "function"
    },
    {
      "inputs": [],
      "name": "owner",
      "outputs": [
        {
          "internalType": "address",
          "name": "",
          "type": "address"
        }
      ],
      "stateMutability": "view",
      "type": "function"
    },
    {
      "inputs": [
        {
          "internalType": "address",
          "name": "_agent",
          "type": "address"
        }
      ],
      "name": "removeAgent",
      "outputs": [],
      "stateMutability": "nonpayable",
      "type": "function"
    },
    {
      "inputs": [
        {
          "internalType": "address",
          "name": "_from",
          "type": "address"
        },
        {
          "internalType": "address",
          "name": "_to",
          "type": "address"
        },
        {
          "internalType": "uint256",
          "name": "_amount",
          "type": "uint256"
        }
      ],
      "name": "removeApproval",
      "outputs": [],
      "stateMutability": "nonpayable",
      "type": "function"
    },
    {
      "inputs": [
        {
          "internalType": "address",
          "name": "_agentAddress",
          "type": "address"
        }
      ],
      "name": "removeTokenAgent",
      "outputs": [],
      "stateMutability": "nonpayable",
      "type": "function"
    },
    {
      "inputs": [],
      "name": "renounceOwnership",
      "outputs": [],
      "stateMutability": "nonpayable",
      "type": "function"
    },
    {
      "inputs": [],
      "name": "tokenBound",
      "outputs": [
        {
          "internalType": "contract IToken",
          "name": "",
          "type": "address"
        }
      ],
      "stateMutability": "view",
      "type": "function"
    },
    {
      "inputs": [
        {
          "internalType": "address",
          "name": "newOwner",
          "type": "address"
        }
      ],
      "name": "transferOwnership",
      "outputs": [],
      "stateMutability": "nonpayable",
      "type": "function"
    },
    {
      "inputs": [
        {
          "internalType": "address",
          "name": "_from",
          "type": "address"
        },
        {
          "internalType": "address",
          "name": "_to",
          "type": "address"
        },
        {
          "internalType": "uint256",
          "name": "_value",
          "type": "uint256"
        }
      ],
      "name": "transferred",
      "outputs": [],
      "stateMutability": "nonpayable",
      "type": "function"
    },
    {
      "inputs": [
        {
          "internalType": "address",
          "name": "_token",
          "type": "address"
        }
      ],
      "name": "unbindToken",
      "outputs": [],
      "stateMutability": "nonpayable",
      "type": "function"
    }
  ],
  "bytecode": "0x6080806040523461005b5760008054336001600160a01b0319821681178355916001600160a01b03909116907f8be0079c531659141344cd1fd0a4f28419497f9722a3daafe3b4186f6b6457e09080a361116090816100618239f35b600080fdfe608060409080825260048036101561001657600080fd5b600091823560e01c9081630e20cc8514610b34575080631ffbb06414610b0e5780632ca9ea43146109d6578063346531fa146109b05780633ff5aa021461091657806340db3b501461084357806356db9096146108275780635f8dead3146104d6578063715018a6146107cd578063825808051461067757806384e79842146105a15780638baf29b4146105075780638d2ea772146104d65780638da5cb5b146104ae57806393e62f071461048557806397a6278e146103a7578063993e8b9514610381578063cdde2932146102bf578063e46638e61461029a578063f2fde38b146101d65763ff3e69541461010b57600080fd5b346101d257602090816003193601126101ce57610126610ce0565b61012e610d30565b6001600160a01b0316808452600283528484205490919060ff1661018d57508293817fd62c45e13ac30396aceb3ad37c89bd1ba9048032fe61679000e92eb93dbfd67d945260028352808520600160ff1982541617905551908152a180f35b606490838087519262461bcd60e51b845283015260248201527f54686973204167656e7420697320616c726561647920726567697374657265646044820152fd5b8280fd5b5080fd5b508290346101ce5760203660031901126101ce576101f2610ce0565b906101fb610d30565b6001600160a01b0391821692831561024857505082546001600160a01b0319811683178455167f8be0079c531659141344cd1fd0a4f28419497f9722a3daafe3b4186f6b6457e08380a380f35b906020608492519162461bcd60e51b8352820152602660248201527f4f776e61626c653a206e6577206f776e657220697320746865207a65726f206160448201526564647265737360d01b6064820152fd5b8284346101d2576020906102b66102b036610cfb565b91611056565b90519015158152f35b50346101d257602090816003193601126101ce576102db610ce0565b6102e3610d30565b6001600160a01b0316808452600283528484205490919060ff161561034057508293817f6a659bb87bb23efbdc295f8eed8ae8c4379bfb77660ced2ef0f3d7d26b05c6a694526002835280852060ff19815416905551908152a180f35b606490838087519262461bcd60e51b845283015260248201527f54686973204167656e74206973206e6f742072656769737465726564207965746044820152fd5b8284346101d25760203660031901126101d2576020906102b66103a2610ce0565b610ebf565b508290346101ce5760203660031901126101ce576103c3610ce0565b906103cc610d30565b6001600160a01b038216926103e284151561106b565b6103eb836110b7565b156104385750506001600160a01b03166000908152600160205260409020805460ff191690557fed9c8ad8d5a0a66898ea49d2956929c93ae2e8bd50281b2ed897c5d1a6737e0b8280a280f35b906020608492519162461bcd60e51b8352820152602160248201527f526f6c65733a206163636f756e7420646f6573206e6f74206861766520726f6c6044820152606560f81b6064820152fd5b8284346101d257816003193601126101d25760035490516001600160a01b039091168152602090f35b8284346101d257816003193601126101d257905490516001600160a01b039091168152602090f35b8284346101d257366003190112610504576104ef610ce0565b506105016104fc33610ebf565b610fd8565b80f35b80fd5b5082346101ce5761051736610cfb565b9390926105266104fc33610ebf565b6003546001600160a01b039290610541908416878787610faa565b875260205260ff8187205416610555578580f35b7f611476e33c1d844d9fa71ba7de6e7130e18b22971d28580fd76321e4af696356946105959282882060ff19815416905560035416915194859485610f31565b0390a181808080808580f35b508290346101ce5760203660031901126101ce576105bd610ce0565b906105c6610d30565b6001600160a01b038216926105dc84151561106b565b6105e5836110b7565b6106345750506001600160a01b03166000908152600160205260409020805460ff191660011790557ff68e73cec97f2d70aa641fb26e87a4383686e2efacb648f2165aeb02ac562ec58280a280f35b906020606492519162461bcd60e51b8352820152601f60248201527f526f6c65733a206163636f756e7420616c72656164792068617320726f6c65006044820152fd5b50346101d25761068636610cfb565b909260018060a01b03908186541633148015610759575b6106a690610ed9565b6106b68260035416848787610faa565b8087528160205260ff888820541661071a579161071493918798937f776c895685d60b5ac3aa2c3381ed2b021825c000fbb0d8ff1359636700aa16519852602052828820600160ff1982541617905560035416915194859485610f31565b0390a180f35b875162461bcd60e51b815260208184015260196024820152781d1c985b9cd9995c88185b1c9958591e48185c1c1c9bdd9959603a1b6044820152606490fd5b506024602083600354168951928380926307feec1960e21b825233878301525afa9081156107c357906106a6918891610795575b50905061069d565b6107b6915060203d81116107bc575b6107ae8183610dd4565b810190610e0c565b3861078d565b503d6107a4565b88513d89823e3d90fd5b82346105045780600319360112610504576107e6610d30565b80546001600160a01b03198116825581906001600160a01b03167f8be0079c531659141344cd1fd0a4f28419497f9722a3daafe3b4186f6b6457e08280a380f35b8284346101d2576020906102b661083d36610cfb565b91610f5b565b5082346101ce5760203660031901126101ce5761085e610ce0565b83546001600160a01b03939084163314801561090b575b61087e90610d88565b83600354921693821684036108c857506001600160a01b031916600355519081527f28a4ca7134a3b3f9aff286e79ad3daadb4a06d1b43d037a3a98bdc074edd9b7a90602090a180f35b606490602084519162461bcd60e51b8352820152601760248201527f5468697320746f6b656e206973206e6f7420626f756e640000000000000000006044820152fd5b503382851614610875565b8284346101d25760203660031901126101d25760207f2de35142b19ed5a07796cf30791959c592018f70b1d2d7c460eef8ffe713692b91610955610ce0565b84546001600160a01b039190821633148015610998575b61097590610d88565b1690816bffffffffffffffffffffffff60a01b600354161760035551908152a180f35b50816003541615801561096c5750338183161461096c565b8284346101d25760203660031901126101d2576020906102b66109d1610ce0565b610e24565b50346101d2576109e536610cfb565b909260018060a01b03908186541633148015610ab4575b610a0590610ed9565b610a158260035416848787610faa565b8087528160205260ff888820541615610a71579161071493918798937f611476e33c1d844d9fa71ba7de6e7130e18b22971d28580fd76321e4af696356985260205282882060ff19815416905560035416915194859485610f31565b875162461bcd60e51b8152602081840152601960248201527f7472616e73666572206e6f7420617070726f76656420796574000000000000006044820152606490fd5b506024602083600354168951928380926307feec1960e21b825233878301525afa9081156107c35790610a05918891610af0575b5090506109fc565b610b08915060203d81116107bc576107ae8183610dd4565b38610ae8565b8284346101d25760203660031901126101d2576020906102b6610b2f610ce0565b6110b7565b9293905034610cdc57610b4636610cfb565b865490956001600160a01b03939291841633148015610c7e575b610b6a9150610ed9565b610b7a8360035416878385610faa565b9586885260209686885260ff868a205416610c3f57606492889594928a928352888752878320600160ff19825416179055858060035416927f776c895685d60b5ac3aa2c3381ed2b021825c000fbb0d8ff1359636700aa16518a5180610be38787868c85610f31565b0390a189519a8b9889976323b872dd60e01b8952169087015216602485015260448401525af1908115610c365750610c19578280f35b81610c2f92903d106107bc576107ae8183610dd4565b5038808280f35b513d85823e3d90fd5b855162461bcd60e51b815280880189905260196024820152781d1c985b9cd9995c88185b1c9958591e48185c1c1c9bdd9959603a1b6044820152606490fd5b5060208160248187600354166307feec1960e21b8252338b8301525afa908115610cd25790610b6a918991610cb4575b50610b60565b610ccc915060203d81116107bc576107ae8183610dd4565b38610cae565b85513d8a823e3d90fd5b8380fd5b600435906001600160a01b0382168203610cf657565b600080fd5b6060906003190112610cf6576001600160a01b03906004358281168103610cf657916024359081168103610cf6579060443590565b6000546001600160a01b03163303610d4457565b606460405162461bcd60e51b815260206004820152602060248201527f4f776e61626c653a2063616c6c6572206973206e6f7420746865206f776e65726044820152fd5b15610d8f57565b60405162461bcd60e51b815260206004820152601c60248201527f6f6e6c79206f776e6572206f7220746f6b656e2063616e2063616c6c000000006044820152606490fd5b90601f8019910116810190811067ffffffffffffffff821117610df657604052565b634e487b7160e01b600052604160045260246000fd5b90816020910312610cf657518015158103610cf65790565b6001600160a01b0390811660008181526002602052604090205460ff16159182610e59575b5050610e5457600190565b600090565b602091925060035416916024604051809481936307feec1960e21b835260048301525afa908115610eb357600091610e95575b50153880610e49565b610ead915060203d81116107bc576107ae8183610dd4565b38610e8c565b6040513d6000823e3d90fd5b6003546001600160a01b03908116911603610e5457600190565b15610ee057565b60405162461bcd60e51b815260206004820152602360248201527f63616e2062652063616c6c6564206f6e6c792062792041646d696e206164647260448201526265737360e81b6064820152608490fd5b6001600160a01b039182168152918116602083015260408201929092529116606082015260800190565b9091610f6682610e24565b15610f74575b505050600190565b600354610f8c936001600160a01b0390911692610faa565b600052600460205260ff6040600020541615610e5457388080610f6c565b9290610fc4610fd292604051948593602085019788610f31565b03601f198101835282610dd4565b51902090565b15610fdf57565b60a460405162461bcd60e51b815260206004820152604460248201527f6572726f72203a20746869732061646472657373206973206e6f74206120746f60448201527f6b656e20626f756e6420746f2074686520636f6d706c69616e636520636f6e746064820152631c9858dd60e21b6084820152fd5b906110619291610f5b565b15610e5457600190565b1561107257565b60405162461bcd60e51b815260206004820152601f60248201527f696e76616c696420617267756d656e74202d207a65726f2061646472657373006044820152606490fd5b6001600160a01b031680156110da57600052600160205260ff6040600020541690565b60405162461bcd60e51b815260206004820152602260248201527f526f6c65733a206163636f756e7420697320746865207a65726f206164647265604482015261737360f01b6064820152608490fdfea2646970667358221220671c4e78aec38bed40a5c41fc305dda95a40911bc5e1543076aa31bfd4fb9b5a64736f6c63430008110033",
  "linkReferences": {},
  "deployedLinkReferences": {}
}