{
  "_format": "hh-sol-artifact-1",
  "contractName": "MockERC721WithRoyalties",
  "sourceName": "contracts/MockERC721WithRoyalties.sol",
  "abi": [
    {
      "inputs": [
        {
          "internalType": "string",
          "name": "name",
          "type": "string"
        },
        {
          "internalType": "string",
          "name": "symbol",
          "type": "string"
        },
        {
          "internalType": "address",
          "name": "royaltyRecipient",
          "type": "address"
        },
        {
          "internalType": "uint256",
          "name": "royaltyBasisPoints",
          "type": "uint256"
        }
      ],
      "stateMutability": "nonpayable",
      "type": "constructor"
    },
    {
      "anonymous": false,
      "inputs": [
        {
          "indexed": true,
          "internalType": "address",
          "name": "owner",
          "type": "address"
        },
        {
          "indexed": true,
          "internalType": "address",
          "name": "approved",
          "type": "address"
        },
        {
          "indexed": true,
          "internalType": "uint256",
          "name": "tokenId",
          "type": "uint256"
        }
      ],
      "name": "Approval",
      "type": "event"
    },
    {
      "anonymous": false,
      "inputs": [
        {
          "indexed": true,
          "internalType": "address",
          "name": "owner",
          "type": "address"
        },
        {
          "indexed": true,
          "internalType": "address",
          "name": "operator",
          "type": "address"
        },
        {
          "indexed": false,
          "internalType": "bool",
          "name": "approved",
          "type": "bool"
        }
      ],
      "name": "ApprovalForAll",
      "type": "event"
    },
    {
      "anonymous": false,
      "inputs": [
        {
          "indexed": true,
          "internalType": "address",
          "name": "from",
          "type": "address"
        },
        {
          "indexed": true,
          "internalType": "address",
          "name": "to",
          "type": "address"
        },
        {
          "indexed": true,
          "internalType": "uint256",
          "name": "tokenId",
          "type": "uint256"
        }
      ],
      "name": "Transfer",
      "type": "event"
    },
    {
      "inputs": [
        {
          "internalType": "address",
          "name": "to",
          "type": "address"
        },
        {
          "internalType": "uint256",
          "name": "tokenId",
          "type": "uint256"
        }
      ],
      "name": "approve",
      "outputs": [],
      "stateMutability": "nonpayable",
      "type": "function"
    },
    {
      "inputs": [
        {
          "internalType": "address",
          "name": "owner",
          "type": "address"
        }
      ],
      "name": "balanceOf",
      "outputs": [
        {
          "internalType": "uint256",
          "name": "",
          "type": "uint256"
        }
      ],
      "stateMutability": "view",
      "type": "function"
    },
    {
      "inputs": [
        {
          "internalType": "uint256",
          "name": "tokenId",
          "type": "uint256"
        }
      ],
      "name": "getApproved",
      "outputs": [
        {
          "internalType": "address",
          "name": "",
          "type": "address"
        }
      ],
      "stateMutability": "view",
      "type": "function"
    },
    {
      "inputs": [
        {
          "internalType": "address",
          "name": "owner",
          "type": "address"
        },
        {
          "internalType": "address",
          "name": "operator",
          "type": "address"
        }
      ],
      "name": "isApprovedForAll",
      "outputs": [
        {
          "internalType": "bool",
          "name": "",
          "type": "bool"
        }
      ],
      "stateMutability": "view",
      "type": "function"
    },
    {
      "inputs": [
        {
          "internalType": "address",
          "name": "to",
          "type": "address"
        },
        {
          "internalType": "uint256",
          "name": "tokenId",
          "type": "uint256"
        }
      ],
      "name": "mint",
      "outputs": [],
      "stateMutability": "nonpayable",
      "type": "function"
    },
    {
      "inputs": [],
      "name": "name",
      "outputs": [
        {
          "internalType": "string",
          "name": "",
          "type": "string"
        }
      ],
      "stateMutability": "view",
      "type": "function"
    },
    {
      "inputs": [
        {
          "internalType": "uint256",
          "name": "tokenId",
          "type": "uint256"
        }
      ],
      "name": "ownerOf",
      "outputs": [
        {
          "internalType": "address",
          "name": "",
          "type": "address"
        }
      ],
      "stateMutability": "view",
      "type": "function"
    },
    {
      "inputs": [
        {
          "internalType": "uint256",
          "name": "",
          "type": "uint256"
        },
        {
          "internalType": "uint256",
          "name": "salePrice",
          "type": "uint256"
        }
      ],
      "name": "royaltyInfo",
      "outputs": [
        {
          "internalType": "address",
          "name": "receiver",
          "type": "address"
        },
        {
          "internalType": "uint256",
          "name": "royaltyAmount",
          "type": "uint256"
        }
      ],
      "stateMutability": "view",
      "type": "function"
    },
    {
      "inputs": [
        {
          "internalType": "address",
          "name": "from",
          "type": "address"
        },
        {
          "internalType": "address",
          "name": "to",
          "type": "address"
        },
        {
          "internalType": "uint256",
          "name": "tokenId",
          "type": "uint256"
        }
      ],
      "name": "safeTransferFrom",
      "outputs": [],
      "stateMutability": "nonpayable",
      "type": "function"
    },
    {
      "inputs": [
        {
          "internalType": "address",
          "name": "from",
          "type": "address"
        },
        {
          "internalType": "address",
          "name": "to",
          "type": "address"
        },
        {
          "internalType": "uint256",
          "name": "tokenId",
          "type": "uint256"
        },
        {
          "internalType": "bytes",
          "name": "data",
          "type": "bytes"
        }
      ],
      "name": "safeTransferFrom",
      "outputs": [],
      "stateMutability": "nonpayable",
      "type": "function"
    },
    {
      "inputs": [
        {
          "internalType": "address",
          "name": "operator",
          "type": "address"
        },
        {
          "internalType": "bool",
          "name": "approved",
          "type": "bool"
        }
      ],
      "name": "setApprovalForAll",
      "outputs": [],
      "stateMutability": "nonpayable",
      "type": "function"
    },
    {
      "inputs": [
        {
          "internalType": "bytes4",
          "name": "interfaceId",
          "type": "bytes4"
        }
      ],
      "name": "supportsInterface",
      "outputs": [
        {
          "internalType": "bool",
          "name": "",
          "type": "bool"
        }
      ],
      "stateMutability": "view",
      "type": "function"
    },
    {
      "inputs": [],
      "name": "symbol",
      "outputs": [
        {
          "internalType": "string",
          "name": "",
          "type": "string"
        }
      ],
      "stateMutability": "view",
      "type": "function"
    },
    {
      "inputs": [
        {
          "internalType": "uint256",
          "name": "tokenId",
          "type": "uint256"
        }
      ],
      "name": "tokenURI",
      "outputs": [
        {
          "internalType": "string",
          "name": "",
          "type": "string"
        }
      ],
      "stateMutability": "view",
      "type": "function"
    },
    {
      "inputs": [
        {
          "internalType": "address",
          "name": "from",
          "type": "address"
        },
        {
          "internalType": "address",
          "name": "to",
          "type": "address"
        },
        {
          "internalType": "uint256",
          "name": "tokenId",
          "type": "uint256"
        }
      ],
      "name": "transferFrom",
      "outputs": [],
      "stateMutability": "nonpayable",
      "type": "function"
    }
  ],
  "bytecode": "0x608060405234801561001057600080fd5b506040516116b93803806116b983398101604081905261002f91610132565b8383600061003d838261024c565b50600161004a828261024c565b5050600780546001600160a01b0319166001600160a01b0394909416939093179092556008555061030a915050565b634e487b7160e01b600052604160045260246000fd5b600082601f8301126100a057600080fd5b81516001600160401b038111156100b9576100b9610079565b604051601f8201601f19908116603f011681016001600160401b03811182821017156100e7576100e7610079565b6040528181528382016020018510156100ff57600080fd5b60005b8281101561011e57602081860181015183830182015201610102565b506000918101602001919091529392505050565b6000806000806080858703121561014857600080fd5b84516001600160401b0381111561015e57600080fd5b61016a8782880161008f565b602087015190955090506001600160401b0381111561018857600080fd5b6101948782880161008f565b604087015190945090506001600160a01b03811681146101b357600080fd5b6060959095015193969295505050565b600181811c908216806101d757607f821691505b6020821081036101f757634e487b7160e01b600052602260045260246000fd5b50919050565b601f82111561024757806000526020600020601f840160051c810160208510156102245750805b601f840160051c820191505b818110156102445760008155600101610230565b50505b505050565b81516001600160401b0381111561026557610265610079565b6102798161027384546101c3565b846101fd565b6020601f8211600181146102ad57600083156102955750848201515b600019600385901b1c1916600184901b178455610244565b600084815260208120601f198516915b828110156102dd57878501518255602094850194600190920191016102bd565b50848210156102fb5786840151600019600387901b60f8161c191681555b50505050600190811b01905550565b6113a0806103196000396000f3fe608060405234801561001057600080fd5b50600436106100f55760003560e01c806342842e0e11610097578063a22cb46511610066578063a22cb4651461021e578063b88d4fde14610231578063c87b56dd14610244578063e985e9c51461025757600080fd5b806342842e0e146101cf5780636352211e146101e257806370a08231146101f557806395d89b411461021657600080fd5b8063095ea7b3116100d3578063095ea7b31461016257806323b872dd146101775780632a55205a1461018a57806340c10f19146101bc57600080fd5b806301ffc9a7146100fa57806306fdde0314610122578063081812fc14610137575b600080fd5b61010d610108366004610ec3565b61026a565b60405190151581526020015b60405180910390f35b61012a610295565b6040516101199190610f30565b61014a610145366004610f43565b610327565b6040516001600160a01b039091168152602001610119565b610175610170366004610f78565b61034e565b005b610175610185366004610fa2565b610468565b61019d610198366004610fdf565b610499565b604080516001600160a01b039093168352602083019190915201610119565b6101756101ca366004610f78565b6104cf565b6101756101dd366004610fa2565b6104dd565b61014a6101f0366004610f43565b6104f8565b610208610203366004611001565b610558565b604051908152602001610119565b61012a6105de565b61017561022c36600461101c565b6105ed565b61017561023f36600461106e565b6105f8565b61012a610252366004610f43565b610630565b61010d610265366004611152565b6106a4565b60006001600160e01b0319821663152a902d60e11b148061028f575061028f826106d2565b92915050565b6060600080546102a49061117c565b80601f01602080910402602001604051908101604052809291908181526020018280546102d09061117c565b801561031d5780601f106102f25761010080835404028352916020019161031d565b820191906000526020600020905b81548152906001019060200180831161030057829003601f168201915b5050505050905090565b600061033282610722565b506000908152600460205260409020546001600160a01b031690565b6000610359826104f8565b9050806001600160a01b0316836001600160a01b0316036103cb5760405162461bcd60e51b815260206004820152602160248201527f4552433732313a20617070726f76616c20746f2063757272656e74206f776e656044820152603960f91b60648201526084015b60405180910390fd5b336001600160a01b03821614806103e757506103e781336106a4565b6104595760405162461bcd60e51b815260206004820152603d60248201527f4552433732313a20617070726f76652063616c6c6572206973206e6f7420746f60448201527f6b656e206f776e6572206f7220617070726f76656420666f7220616c6c00000060648201526084016103c2565b6104638383610784565b505050565b61047233826107f2565b61048e5760405162461bcd60e51b81526004016103c2906111b6565b610463838383610851565b6007546008546001600160a01b0390911690600090612710906104bc9085611203565b6104c69190611228565b90509250929050565b6104d982826109b5565b5050565b610463838383604051806020016040528060008152506105f8565b6000818152600260205260408120546001600160a01b03168061028f5760405162461bcd60e51b8152602060048201526018602482015277115490cdcc8c4e881a5b9d985b1a59081d1bdad95b88125160421b60448201526064016103c2565b60006001600160a01b0382166105c25760405162461bcd60e51b815260206004820152602960248201527f4552433732313a2061646472657373207a65726f206973206e6f7420612076616044820152683634b21037bbb732b960b91b60648201526084016103c2565b506001600160a01b031660009081526003602052604090205490565b6060600180546102a49061117c565b6104d9338383610b40565b61060233836107f2565b61061e5760405162461bcd60e51b81526004016103c2906111b6565b61062a84848484610c0e565b50505050565b606061063b82610722565b600061065260408051602081019091526000815290565b90506000815111610672576040518060200160405280600081525061069d565b8061067c84610c41565b60405160200161068d92919061124a565b6040516020818303038152906040525b9392505050565b6001600160a01b03918216600090815260056020908152604080832093909416825291909152205460ff1690565b60006001600160e01b031982166380ac58cd60e01b148061070357506001600160e01b03198216635b5e139f60e01b145b8061028f57506301ffc9a760e01b6001600160e01b031983161461028f565b6000818152600260205260409020546001600160a01b03166107815760405162461bcd60e51b8152602060048201526018602482015277115490cdcc8c4e881a5b9d985b1a59081d1bdad95b88125160421b60448201526064016103c2565b50565b600081815260046020526040902080546001600160a01b0319166001600160a01b03841690811790915581906107b9826104f8565b6001600160a01b03167f8c5be1e5ebec7d5bd14f71427d1e84f3dd0314c0f7b2291e5b200ac8c7c3b92560405160405180910390a45050565b6000806107fe836104f8565b9050806001600160a01b0316846001600160a01b03161480610825575061082581856106a4565b806108495750836001600160a01b031661083e84610327565b6001600160a01b0316145b949350505050565b826001600160a01b0316610864826104f8565b6001600160a01b03161461088a5760405162461bcd60e51b81526004016103c290611279565b6001600160a01b0382166108ec5760405162461bcd60e51b8152602060048201526024808201527f4552433732313a207472616e7366657220746f20746865207a65726f206164646044820152637265737360e01b60648201526084016103c2565b826001600160a01b03166108ff826104f8565b6001600160a01b0316146109255760405162461bcd60e51b81526004016103c290611279565b600081815260046020908152604080832080546001600160a01b03199081169091556001600160a01b0387811680865260038552838620805460001901905590871680865283862080546001019055868652600290945282852080549092168417909155905184937fddf252ad1be2c89b69c2b068fc378daa952ba7f163c4a11628f55a4df523b3ef91a4505050565b6001600160a01b038216610a0b5760405162461bcd60e51b815260206004820181905260248201527f4552433732313a206d696e7420746f20746865207a65726f206164647265737360448201526064016103c2565b6000818152600260205260409020546001600160a01b031615610a705760405162461bcd60e51b815260206004820152601c60248201527f4552433732313a20746f6b656e20616c7265616479206d696e7465640000000060448201526064016103c2565b6000818152600260205260409020546001600160a01b031615610ad55760405162461bcd60e51b815260206004820152601c60248201527f4552433732313a20746f6b656e20616c7265616479206d696e7465640000000060448201526064016103c2565b6001600160a01b038216600081815260036020908152604080832080546001019055848352600290915280822080546001600160a01b0319168417905551839291907fddf252ad1be2c89b69c2b068fc378daa952ba7f163c4a11628f55a4df523b3ef908290a45050565b816001600160a01b0316836001600160a01b031603610ba15760405162461bcd60e51b815260206004820152601960248201527f4552433732313a20617070726f766520746f2063616c6c65720000000000000060448201526064016103c2565b6001600160a01b03838116600081815260056020908152604080832094871680845294825291829020805460ff191686151590811790915591519182527f17307eab39ab6107e8899845ad3d59bd9653f200f220920489ca2b5937696c31910160405180910390a3505050565b610c19848484610851565b610c2584848484610cd4565b61062a5760405162461bcd60e51b81526004016103c2906112be565b60606000610c4e83610dd5565b600101905060008167ffffffffffffffff811115610c6e57610c6e611058565b6040519080825280601f01601f191660200182016040528015610c98576020820181803683370190505b5090508181016020015b600019016f181899199a1a9b1b9c1cb0b131b232b360811b600a86061a8153600a8504945084610ca257509392505050565b60006001600160a01b0384163b15610dca57604051630a85bd0160e11b81526001600160a01b0385169063150b7a0290610d18903390899088908890600401611310565b6020604051808303816000875af1925050508015610d53575060408051601f3d908101601f19168201909252610d509181019061134d565b60015b610db0573d808015610d81576040519150601f19603f3d011682016040523d82523d6000602084013e610d86565b606091505b508051600003610da85760405162461bcd60e51b81526004016103c2906112be565b805181602001fd5b6001600160e01b031916630a85bd0160e11b149050610849565b506001949350505050565b60008072184f03e93ff9f4daa797ed6e38ed64bf6a1f0160401b8310610e145772184f03e93ff9f4daa797ed6e38ed64bf6a1f0160401b830492506040015b6d04ee2d6d415b85acef81000000008310610e40576d04ee2d6d415b85acef8100000000830492506020015b662386f26fc100008310610e5e57662386f26fc10000830492506010015b6305f5e1008310610e76576305f5e100830492506008015b6127108310610e8a57612710830492506004015b60648310610e9c576064830492506002015b600a831061028f5760010192915050565b6001600160e01b03198116811461078157600080fd5b600060208284031215610ed557600080fd5b813561069d81610ead565b60005b83811015610efb578181015183820152602001610ee3565b50506000910152565b60008151808452610f1c816020860160208601610ee0565b601f01601f19169290920160200192915050565b60208152600061069d6020830184610f04565b600060208284031215610f5557600080fd5b5035919050565b80356001600160a01b0381168114610f7357600080fd5b919050565b60008060408385031215610f8b57600080fd5b610f9483610f5c565b946020939093013593505050565b600080600060608486031215610fb757600080fd5b610fc084610f5c565b9250610fce60208501610f5c565b929592945050506040919091013590565b60008060408385031215610ff257600080fd5b50508035926020909101359150565b60006020828403121561101357600080fd5b61069d82610f5c565b6000806040838503121561102f57600080fd5b61103883610f5c565b91506020830135801515811461104d57600080fd5b809150509250929050565b634e487b7160e01b600052604160045260246000fd5b6000806000806080858703121561108457600080fd5b61108d85610f5c565b935061109b60208601610f5c565b925060408501359150606085013567ffffffffffffffff8111156110be57600080fd5b8501601f810187136110cf57600080fd5b803567ffffffffffffffff8111156110e9576110e9611058565b604051601f8201601f19908116603f0116810167ffffffffffffffff8111828210171561111857611118611058565b60405281815282820160200189101561113057600080fd5b8160208401602083013760006020838301015280935050505092959194509250565b6000806040838503121561116557600080fd5b61116e83610f5c565b91506104c660208401610f5c565b600181811c9082168061119057607f821691505b6020821081036111b057634e487b7160e01b600052602260045260246000fd5b50919050565b6020808252602d908201527f4552433732313a2063616c6c6572206973206e6f7420746f6b656e206f776e6560408201526c1c881bdc88185c1c1c9bdd9959609a1b606082015260800190565b808202811582820484141761028f57634e487b7160e01b600052601160045260246000fd5b60008261124557634e487b7160e01b600052601260045260246000fd5b500490565b6000835161125c818460208801610ee0565b835190830190611270818360208801610ee0565b01949350505050565b60208082526025908201527f4552433732313a207472616e736665722066726f6d20696e636f72726563742060408201526437bbb732b960d91b606082015260800190565b60208082526032908201527f4552433732313a207472616e7366657220746f206e6f6e20455243373231526560408201527131b2b4bb32b91034b6b83632b6b2b73a32b960711b606082015260800190565b6001600160a01b038581168252841660208201526040810183905260806060820181905260009061134390830184610f04565b9695505050505050565b60006020828403121561135f57600080fd5b815161069d81610ead56fea264697066735822122028223c40f77b1c5f667ac77e94dcd9cce9e870c92d3d3072e08af65706ab88a064736f6c634300081c0033",
  "linkReferences": {},
  "deployedLinkReferences": {}
}