{
  "_format": "hh-sol-artifact-1",
  "contractName": "OwnerRolesUpgradeable",
  "sourceName": "contracts/roles/permissioning/owner/OwnerRolesUpgradeable.sol",
  "abi": [
    {
      "anonymous": false,
      "inputs": [
        {
          "indexed": false,
          "internalType": "uint8",
          "name": "version",
          "type": "uint8"
        }
      ],
      "name": "Initialized",
      "type": "event"
    },
    {
      "anonymous": false,
      "inputs": [
        {
          "indexed": true,
          "internalType": "address",
          "name": "previousOwner",
          "type": "address"
        },
        {
          "indexed": true,
          "internalType": "address",
          "name": "newOwner",
          "type": "address"
        }
      ],
      "name": "OwnershipTransferred",
      "type": "event"
    },
    {
      "anonymous": false,
      "inputs": [
        {
          "indexed": true,
          "internalType": "address",
          "name": "_owner",
          "type": "address"
        },
        {
          "indexed": false,
          "internalType": "string",
          "name": "_role",
          "type": "string"
        }
      ],
      "name": "RoleAdded",
      "type": "event"
    },
    {
      "anonymous": false,
      "inputs": [
        {
          "indexed": true,
          "internalType": "address",
          "name": "_owner",
          "type": "address"
        },
        {
          "indexed": false,
          "internalType": "string",
          "name": "_role",
          "type": "string"
        }
      ],
      "name": "RoleRemoved",
      "type": "event"
    },
    {
      "inputs": [
        {
          "internalType": "address",
          "name": "_owner",
          "type": "address"
        }
      ],
      "name": "addClaimRegistryManager",
      "outputs": [],
      "stateMutability": "nonpayable",
      "type": "function"
    },
    {
      "inputs": [
        {
          "internalType": "address",
          "name": "_owner",
          "type": "address"
        }
      ],
      "name": "addComplianceManager",
      "outputs": [],
      "stateMutability": "nonpayable",
      "type": "function"
    },
    {
      "inputs": [
        {
          "internalType": "address",
          "name": "_owner",
          "type": "address"
        }
      ],
      "name": "addComplianceSetter",
      "outputs": [],
      "stateMutability": "nonpayable",
      "type": "function"
    },
    {
      "inputs": [
        {
          "internalType": "address",
          "name": "_owner",
          "type": "address"
        }
      ],
      "name": "addIssuersRegistryManager",
      "outputs": [],
      "stateMutability": "nonpayable",
      "type": "function"
    },
    {
      "inputs": [
        {
          "internalType": "address",
          "name": "_owner",
          "type": "address"
        }
      ],
      "name": "addOwnerAdmin",
      "outputs": [],
      "stateMutability": "nonpayable",
      "type": "function"
    },
    {
      "inputs": [
        {
          "internalType": "address",
          "name": "_owner",
          "type": "address"
        }
      ],
      "name": "addRegistryAddressSetter",
      "outputs": [],
      "stateMutability": "nonpayable",
      "type": "function"
    },
    {
      "inputs": [
        {
          "internalType": "address",
          "name": "_owner",
          "type": "address"
        }
      ],
      "name": "addTokenInfoManager",
      "outputs": [],
      "stateMutability": "nonpayable",
      "type": "function"
    },
    {
      "inputs": [
        {
          "internalType": "address",
          "name": "_owner",
          "type": "address"
        }
      ],
      "name": "isClaimRegistryManager",
      "outputs": [
        {
          "internalType": "bool",
          "name": "",
          "type": "bool"
        }
      ],
      "stateMutability": "view",
      "type": "function"
    },
    {
      "inputs": [
        {
          "internalType": "address",
          "name": "_owner",
          "type": "address"
        }
      ],
      "name": "isComplianceManager",
      "outputs": [
        {
          "internalType": "bool",
          "name": "",
          "type": "bool"
        }
      ],
      "stateMutability": "view",
      "type": "function"
    },
    {
      "inputs": [
        {
          "internalType": "address",
          "name": "_owner",
          "type": "address"
        }
      ],
      "name": "isComplianceSetter",
      "outputs": [
        {
          "internalType": "bool",
          "name": "",
          "type": "bool"
        }
      ],
      "stateMutability": "view",
      "type": "function"
    },
    {
      "inputs": [
        {
          "internalType": "address",
          "name": "_owner",
          "type": "address"
        }
      ],
      "name": "isIssuersRegistryManager",
      "outputs": [
        {
          "internalType": "bool",
          "name": "",
          "type": "bool"
        }
      ],
      "stateMutability": "view",
      "type": "function"
    },
    {
      "inputs": [
        {
          "internalType": "address",
          "name": "_owner",
          "type": "address"
        }
      ],
      "name": "isOwnerAdmin",
      "outputs": [
        {
          "internalType": "bool",
          "name": "",
          "type": "bool"
        }
      ],
      "stateMutability": "view",
      "type": "function"
    },
    {
      "inputs": [
        {
          "internalType": "address",
          "name": "_owner",
          "type": "address"
        }
      ],
      "name": "isRegistryAddressSetter",
      "outputs": [
        {
          "internalType": "bool",
          "name": "",
          "type": "bool"
        }
      ],
      "stateMutability": "view",
      "type": "function"
    },
    {
      "inputs": [
        {
          "internalType": "address",
          "name": "_owner",
          "type": "address"
        }
      ],
      "name": "isTokenInfoManager",
      "outputs": [
        {
          "internalType": "bool",
          "name": "",
          "type": "bool"
        }
      ],
      "stateMutability": "view",
      "type": "function"
    },
    {
      "inputs": [],
      "name": "owner",
      "outputs": [
        {
          "internalType": "address",
          "name": "",
          "type": "address"
        }
      ],
      "stateMutability": "view",
      "type": "function"
    },
    {
      "inputs": [
        {
          "internalType": "address",
          "name": "_owner",
          "type": "address"
        }
      ],
      "name": "removeClaimRegistryManager",
      "outputs": [],
      "stateMutability": "nonpayable",
      "type": "function"
    },
    {
      "inputs": [
        {
          "internalType": "address",
          "name": "_owner",
          "type": "address"
        }
      ],
      "name": "removeComplianceManager",
      "outputs": [],
      "stateMutability": "nonpayable",
      "type": "function"
    },
    {
      "inputs": [
        {
          "internalType": "address",
          "name": "_owner",
          "type": "address"
        }
      ],
      "name": "removeComplianceSetter",
      "outputs": [],
      "stateMutability": "nonpayable",
      "type": "function"
    },
    {
      "inputs": [
        {
          "internalType": "address",
          "name": "_owner",
          "type": "address"
        }
      ],
      "name": "removeIssuersRegistryManager",
      "outputs": [],
      "stateMutability": "nonpayable",
      "type": "function"
    },
    {
      "inputs": [
        {
          "internalType": "address",
          "name": "_owner",
          "type": "address"
        }
      ],
      "name": "removeOwnerAdmin",
      "outputs": [],
      "stateMutability": "nonpayable",
      "type": "function"
    },
    {
      "inputs": [
        {
          "internalType": "address",
          "name": "_owner",
          "type": "address"
        }
      ],
      "name": "removeRegistryAddressSetter",
      "outputs": [],
      "stateMutability": "nonpayable",
      "type": "function"
    },
    {
      "inputs": [
        {
          "internalType": "address",
          "name": "_owner",
          "type": "address"
        }
      ],
      "name": "removeTokenInfoManager",
      "outputs": [],
      "stateMutability": "nonpayable",
      "type": "function"
    },
    {
      "inputs": [],
      "name": "renounceOwnership",
      "outputs": [],
      "stateMutability": "nonpayable",
      "type": "function"
    },
    {
      "inputs": [
        {
          "internalType": "address",
          "name": "newOwner",
          "type": "address"
        }
      ],
      "name": "transferOwnership",
      "outputs": [],
      "stateMutability": "nonpayable",
      "type": "function"
    }
  ],
  "bytecode": "0x608080604052346100165761112a908161001c8239f35b600080fdfe60406080815260048036101561001457600080fd5b600090813560e01c8063039ec2cd14610d1e57806303ff501414610cd75780632447e50b14610c905780633ba7c75e14610c495780633c734ce814610c025780634052255414610b8c57806346b686f814610b1657806354b9797f14610aa057806362cdd48214610a655780636ff7bff7146109ef578063715018a61461098f5780638287093714610948578063882fc6ca146108d25780638da5cb5b146108a9578063934b2da4146107f957806394e69f1b14610743578063a66bcc1c1461068c578063ac95fc91146105d0578063ae5aaa3b14610515578063ce4bdac71461045f578063e110255b1461039d578063f2fde38b146102ca578063faed696a146101c45763ff8063111461012857600080fd5b346101c05760203660031901126101c05780356001600160a01b03811691908290036101bc57811561016e5760208460ff8186868152606a855220541690519015158152f35b608490602085519162461bcd60e51b8352820152602260248201527f526f6c65733a206163636f756e7420697320746865207a65726f206164647265604482015261737360f01b6064820152fd5b8280fd5b5080fd5b5082346101bc5760203660031901126101bc5781356001600160a01b0381811693918481036102c65761020c9160335416331480156102b2575b61020790610dec565b611091565b610270575061026a6000805160206110d5833981519152918385526069602052808520600160ff19825416179055610242610f02565b907321b630b4b6a932b3b4b9ba393ca6b0b730b3b2b960611b60208301525191829182610f26565b0390a280f35b6020606492519162461bcd60e51b8352820152601f60248201527f526f6c65733a206163636f756e7420616c72656164792068617320726f6c65006044820152fd5b506102076102bf33610f6f565b90506101fe565b8580fd5b5082346101bc5760203660031901126101bc576001600160a01b03823581811693919290849003610399576102fd610d94565b8315610347575050603354826bffffffffffffffffffffffff60a01b821617603355167f8be0079c531659141344cd1fd0a4f28419497f9722a3daafe3b4186f6b6457e08380a380f35b906020608492519162461bcd60e51b8352820152602660248201527f4f776e61626c653a206e6577206f776e657220697320746865207a65726f206160448201526564647265737360d01b6064820152fd5b8480fd5b5082346101bc5760203660031901126101bc5781356001600160a01b0381811693918481036102c6576103df9160335416331480156102b25761020790610dec565b15610413575061026a6000805160206110b583398151915291838552606960205280852060ff198154169055610242610f02565b6020608492519162461bcd60e51b8352820152602160248201527f526f6c65733a206163636f756e7420646f6573206e6f74206861766520726f6c6044820152606560f81b6064820152fd5b5082346101bc5760203660031901126101bc5781356001600160a01b0381811693918481036102c6576104a7916033541633148015610501575b6104a290610dec565b611005565b610270575061026a6000805160206110d5833981519152918385526067602052808520600160ff198254161790556104dd610e72565b906f21b7b6b83634b0b731b2a9b2ba3a32b960811b60208301525191829182610f26565b506104a261050e33610f6f565b9050610499565b5082346101bc5760203660031901126101bc5781356001600160a01b0381811693918481036102c65761055d9160335416331480156105bc575b61055890610dec565b610fe2565b610270575061026a6000805160206110d5833981519152918385526066602052808520600160ff19825416179055610593610e38565b90742932b3b4b9ba393ca0b2323932b9b9a9b2ba3a32b960591b60208301525191829182610f26565b506105586105c933610f6f565b905061054f565b5082346101bc5760203660031901126101bc5781356001600160a01b0381811693918481036102c657610618916033541633148015610678575b61061390610dec565b61104b565b610270575061026a6000805160206110d583398151915291838552606a602052808520600160ff1982541617905561064e610ede565b907524b9b9bab2b939a932b3b4b9ba393ca6b0b730b3b2b960511b60208301525191829182610f26565b5061061361068533610f6f565b905061060a565b5082346101bc5760203660031901126101bc5781356001600160a01b0381811693918481036102c6576106d491603354163314801561072f575b6106cf90610dec565b611028565b610270575061026a6000805160206110d5833981519152918385526068602052808520600160ff1982541617905561070a610e96565b907021b7b6b83634b0b731b2a6b0b730b3b2b960791b60208301525191829182610f26565b506106cf61073c33610f6f565b90506106c6565b5082346101bc5760203660031901126101bc5781356001600160a01b0381811693918481036102c65761078b9160335416331480156107e5575b61078690610dec565b61106e565b610270575061026a6000805160206110d583398151915291838552606b602052808520600160ff198254161790556107c1610e72565b906f2a37b5b2b724b73337a6b0b730b3b2b960811b60208301525191829182610f26565b506107866107f233610f6f565b905061077d565b5082346101bc5760203660031901126101bc5781356001600160a01b0381811693918481036102c657610841916033541633148015610895575b61083c90610dec565b610f6f565b610270575061026a6000805160206110d5833981519152918385526065602052808520600160ff19825416179055610877610eba565b906927bbb732b920b236b4b760b11b60208301525191829182610f26565b5061083c6108a233610f6f565b9050610833565b8284346101c057816003193601126101c05760335490516001600160a01b039091168152602090f35b5082346101bc5760203660031901126101bc5781356001600160a01b0381811693918481036102c6576109149160335416331480156107e55761078690610dec565b15610413575061026a6000805160206110b583398151915291838552606b60205280852060ff1981541690556107c1610e72565b50346101c05760203660031901126101c05780356001600160a01b03811691908290036101bc57811561016e5760208460ff81868681526066855220541690519015158152f35b82346109ec57806003193601126109ec576109a8610d94565b603380546001600160a01b0319811690915581906001600160a01b03167f8be0079c531659141344cd1fd0a4f28419497f9722a3daafe3b4186f6b6457e08280a380f35b80fd5b5082346101bc5760203660031901126101bc5781356001600160a01b0381811693918481036102c657610a319160335416331480156106785761061390610dec565b15610413575061026a6000805160206110b583398151915291838552606a60205280852060ff19815416905561064e610ede565b508290346101bc5760203660031901126101bc5735916001600160a01b03831683036109ec5750610a97602092610f6f565b90519015158152f35b5082346101bc5760203660031901126101bc5781356001600160a01b0381811693918481036102c657610ae29160335416331480156108955761083c90610dec565b15610413575061026a6000805160206110b583398151915291838552606560205280852060ff198154169055610877610eba565b5082346101bc5760203660031901126101bc5781356001600160a01b0381811693918481036102c657610b5891603354163314801561072f576106cf90610dec565b15610413575061026a6000805160206110b583398151915291838552606860205280852060ff19815416905561070a610e96565b5082346101bc5760203660031901126101bc5781356001600160a01b0381811693918481036102c657610bce916033541633148015610501576104a290610dec565b15610413575061026a6000805160206110b583398151915291838552606760205280852060ff1981541690556104dd610e72565b50346101c05760203660031901126101c05780356001600160a01b03811691908290036101bc57811561016e5760208460ff81868681526069855220541690519015158152f35b50346101c05760203660031901126101c05780356001600160a01b03811691908290036101bc57811561016e5760208460ff81868681526067855220541690519015158152f35b50346101c05760203660031901126101c05780356001600160a01b03811691908290036101bc57811561016e5760208460ff8186868152606b855220541690519015158152f35b50346101c05760203660031901126101c05780356001600160a01b03811691908290036101bc57811561016e5760208460ff81868681526068855220541690519015158152f35b5082346101bc5760203660031901126101bc5781356001600160a01b0381811693918481036102c657610d609160335416331480156105bc5761055890610dec565b15610413575061026a6000805160206110b583398151915291838552606660205280852060ff198154169055610593610e38565b6033546001600160a01b03163303610da857565b606460405162461bcd60e51b815260206004820152602060248201527f4f776e61626c653a2063616c6c6572206973206e6f7420746865206f776e65726044820152fd5b15610df357565b60405162461bcd60e51b815260206004820152601960248201527f526f6c653a2053656e646572206973204e4f542041646d696e000000000000006044820152606490fd5b604051906040820182811067ffffffffffffffff821117610e5c5760405260158252565b634e487b7160e01b600052604160045260246000fd5b604051906040820182811067ffffffffffffffff821117610e5c5760405260108252565b604051906040820182811067ffffffffffffffff821117610e5c5760405260118252565b604051906040820182811067ffffffffffffffff821117610e5c57604052600a8252565b604051906040820182811067ffffffffffffffff821117610e5c5760405260168252565b604051906040820182811067ffffffffffffffff821117610e5c5760405260148252565b6020808252825181830181905290939260005b828110610f5b57505060409293506000838284010152601f8019910116010190565b818101860151848201604001528501610f39565b6001600160a01b03168015610f9257600052606560205260ff6040600020541690565b60405162461bcd60e51b815260206004820152602260248201527f526f6c65733a206163636f756e7420697320746865207a65726f206164647265604482015261737360f01b6064820152608490fd5b6001600160a01b03168015610f9257600052606660205260ff6040600020541690565b6001600160a01b03168015610f9257600052606760205260ff6040600020541690565b6001600160a01b03168015610f9257600052606860205260ff6040600020541690565b6001600160a01b03168015610f9257600052606a60205260ff6040600020541690565b6001600160a01b03168015610f9257600052606b60205260ff6040600020541690565b6001600160a01b03168015610f9257600052606960205260ff604060002054169056fed211483f91fc6eff862467f8de606587a30c8fc9981056f051b897a418df803abfec83d64eaa953f2708271a023ab9ee82057f8f3578d548c1a4ba0b5b700489a2646970667358221220c817789101e9e61112227fe66c52c67bc19fd89a85a5ec7f9ae9f53b407aa45b64736f6c63430008110033",
  "linkReferences": {},
  "deployedLinkReferences": {}
}