{
  "_format": "hh-sol-artifact-1",
  "contractName": "DayMonthLimitsTest",
  "sourceName": "contracts/compliance/legacy/test/DayMonthLimitsTest.sol",
  "abi": [
    {
      "anonymous": false,
      "inputs": [
        {
          "indexed": true,
          "internalType": "address",
          "name": "_agent",
          "type": "address"
        }
      ],
      "name": "AgentAdded",
      "type": "event"
    },
    {
      "anonymous": false,
      "inputs": [
        {
          "indexed": true,
          "internalType": "address",
          "name": "_agent",
          "type": "address"
        }
      ],
      "name": "AgentRemoved",
      "type": "event"
    },
    {
      "anonymous": false,
      "inputs": [
        {
          "indexed": false,
          "internalType": "uint256",
          "name": "_newDailyLimit",
          "type": "uint256"
        }
      ],
      "name": "DailyLimitUpdated",
      "type": "event"
    },
    {
      "anonymous": false,
      "inputs": [
        {
          "indexed": false,
          "internalType": "uint256",
          "name": "_newMonthlyLimit",
          "type": "uint256"
        }
      ],
      "name": "MonthlyLimitUpdated",
      "type": "event"
    },
    {
      "anonymous": false,
      "inputs": [
        {
          "indexed": true,
          "internalType": "address",
          "name": "previousOwner",
          "type": "address"
        },
        {
          "indexed": true,
          "internalType": "address",
          "name": "newOwner",
          "type": "address"
        }
      ],
      "name": "OwnershipTransferred",
      "type": "event"
    },
    {
      "anonymous": false,
      "inputs": [
        {
          "indexed": false,
          "internalType": "address",
          "name": "_agentAddress",
          "type": "address"
        }
      ],
      "name": "TokenAgentAdded",
      "type": "event"
    },
    {
      "anonymous": false,
      "inputs": [
        {
          "indexed": false,
          "internalType": "address",
          "name": "_agentAddress",
          "type": "address"
        }
      ],
      "name": "TokenAgentRemoved",
      "type": "event"
    },
    {
      "anonymous": false,
      "inputs": [
        {
          "indexed": false,
          "internalType": "address",
          "name": "_token",
          "type": "address"
        }
      ],
      "name": "TokenBound",
      "type": "event"
    },
    {
      "anonymous": false,
      "inputs": [
        {
          "indexed": false,
          "internalType": "address",
          "name": "_token",
          "type": "address"
        }
      ],
      "name": "TokenUnbound",
      "type": "event"
    },
    {
      "inputs": [
        {
          "internalType": "address",
          "name": "_agent",
          "type": "address"
        }
      ],
      "name": "addAgent",
      "outputs": [],
      "stateMutability": "nonpayable",
      "type": "function"
    },
    {
      "inputs": [
        {
          "internalType": "address",
          "name": "_agentAddress",
          "type": "address"
        }
      ],
      "name": "addTokenAgent",
      "outputs": [],
      "stateMutability": "nonpayable",
      "type": "function"
    },
    {
      "inputs": [
        {
          "internalType": "address",
          "name": "_token",
          "type": "address"
        }
      ],
      "name": "bindToken",
      "outputs": [],
      "stateMutability": "nonpayable",
      "type": "function"
    },
    {
      "inputs": [
        {
          "internalType": "address",
          "name": "_from",
          "type": "address"
        },
        {
          "internalType": "address",
          "name": "_to",
          "type": "address"
        },
        {
          "internalType": "uint256",
          "name": "_value",
          "type": "uint256"
        }
      ],
      "name": "canTransfer",
      "outputs": [
        {
          "internalType": "bool",
          "name": "",
          "type": "bool"
        }
      ],
      "stateMutability": "view",
      "type": "function"
    },
    {
      "inputs": [
        {
          "internalType": "address",
          "name": "_from",
          "type": "address"
        },
        {
          "internalType": "address",
          "name": "",
          "type": "address"
        },
        {
          "internalType": "uint256",
          "name": "_value",
          "type": "uint256"
        }
      ],
      "name": "complianceCheckOnDayMonthLimits",
      "outputs": [
        {
          "internalType": "bool",
          "name": "",
          "type": "bool"
        }
      ],
      "stateMutability": "view",
      "type": "function"
    },
    {
      "inputs": [
        {
          "internalType": "address",
          "name": "_to",
          "type": "address"
        },
        {
          "internalType": "uint256",
          "name": "_value",
          "type": "uint256"
        }
      ],
      "name": "created",
      "outputs": [],
      "stateMutability": "nonpayable",
      "type": "function"
    },
    {
      "inputs": [],
      "name": "dailyLimit",
      "outputs": [
        {
          "internalType": "uint256",
          "name": "",
          "type": "uint256"
        }
      ],
      "stateMutability": "view",
      "type": "function"
    },
    {
      "inputs": [
        {
          "internalType": "address",
          "name": "_from",
          "type": "address"
        },
        {
          "internalType": "uint256",
          "name": "_value",
          "type": "uint256"
        }
      ],
      "name": "destroyed",
      "outputs": [],
      "stateMutability": "nonpayable",
      "type": "function"
    },
    {
      "inputs": [
        {
          "internalType": "address",
          "name": "_agent",
          "type": "address"
        }
      ],
      "name": "isAgent",
      "outputs": [
        {
          "internalType": "bool",
          "name": "",
          "type": "bool"
        }
      ],
      "stateMutability": "view",
      "type": "function"
    },
    {
      "inputs": [
        {
          "internalType": "address",
          "name": "_agentAddress",
          "type": "address"
        }
      ],
      "name": "isTokenAgent",
      "outputs": [
        {
          "internalType": "bool",
          "name": "",
          "type": "bool"
        }
      ],
      "stateMutability": "view",
      "type": "function"
    },
    {
      "inputs": [
        {
          "internalType": "address",
          "name": "_token",
          "type": "address"
        }
      ],
      "name": "isTokenBound",
      "outputs": [
        {
          "internalType": "bool",
          "name": "",
          "type": "bool"
        }
      ],
      "stateMutability": "view",
      "type": "function"
    },
    {
      "inputs": [],
      "name": "monthlyLimit",
      "outputs": [
        {
          "internalType": "uint256",
          "name": "",
          "type": "uint256"
        }
      ],
      "stateMutability": "view",
      "type": "function"
    },
    {
      "inputs": [],
      "name": "owner",
      "outputs": [
        {
          "internalType": "address",
          "name": "",
          "type": "address"
        }
      ],
      "stateMutability": "view",
      "type": "function"
    },
    {
      "inputs": [
        {
          "internalType": "address",
          "name": "_agent",
          "type": "address"
        }
      ],
      "name": "removeAgent",
      "outputs": [],
      "stateMutability": "nonpayable",
      "type": "function"
    },
    {
      "inputs": [
        {
          "internalType": "address",
          "name": "_agentAddress",
          "type": "address"
        }
      ],
      "name": "removeTokenAgent",
      "outputs": [],
      "stateMutability": "nonpayable",
      "type": "function"
    },
    {
      "inputs": [],
      "name": "renounceOwnership",
      "outputs": [],
      "stateMutability": "nonpayable",
      "type": "function"
    },
    {
      "inputs": [
        {
          "internalType": "uint256",
          "name": "_newDailyLimit",
          "type": "uint256"
        }
      ],
      "name": "setDailyLimit",
      "outputs": [],
      "stateMutability": "nonpayable",
      "type": "function"
    },
    {
      "inputs": [
        {
          "internalType": "uint256",
          "name": "_newMonthlyLimit",
          "type": "uint256"
        }
      ],
      "name": "setMonthlyLimit",
      "outputs": [],
      "stateMutability": "nonpayable",
      "type": "function"
    },
    {
      "inputs": [],
      "name": "tokenBound",
      "outputs": [
        {
          "internalType": "contract IToken",
          "name": "",
          "type": "address"
        }
      ],
      "stateMutability": "view",
      "type": "function"
    },
    {
      "inputs": [
        {
          "internalType": "address",
          "name": "newOwner",
          "type": "address"
        }
      ],
      "name": "transferOwnership",
      "outputs": [],
      "stateMutability": "nonpayable",
      "type": "function"
    },
    {
      "inputs": [
        {
          "internalType": "address",
          "name": "_from",
          "type": "address"
        },
        {
          "internalType": "address",
          "name": "_to",
          "type": "address"
        },
        {
          "internalType": "uint256",
          "name": "_value",
          "type": "uint256"
        }
      ],
      "name": "transferred",
      "outputs": [],
      "stateMutability": "nonpayable",
      "type": "function"
    },
    {
      "inputs": [
        {
          "internalType": "address",
          "name": "_token",
          "type": "address"
        }
      ],
      "name": "unbindToken",
      "outputs": [],
      "stateMutability": "nonpayable",
      "type": "function"
    },
    {
      "inputs": [
        {
          "internalType": "address",
          "name": "",
          "type": "address"
        }
      ],
      "name": "usersCounters",
      "outputs": [
        {
          "internalType": "uint256",
          "name": "dailyCount",
          "type": "uint256"
        },
        {
          "internalType": "uint256",
          "name": "monthlyCount",
          "type": "uint256"
        },
        {
          "internalType": "uint256",
          "name": "dailyTimer",
          "type": "uint256"
        },
        {
          "internalType": "uint256",
          "name": "monthlyTimer",
          "type": "uint256"
        }
      ],
      "stateMutability": "view",
      "type": "function"
    }
  ],
  "bytecode": "0x6080806040523461005b5760008054336001600160a01b0319821681178355916001600160a01b03909116907f8be0079c531659141344cd1fd0a4f28419497f9722a3daafe3b4186f6b6457e09080a36110aa90816100618239f35b600080fdfe608060409080825260048036101561001657600080fd5b600091823560e01c9081630a6005da14610aad575080631ffbb06414610a87578063346531fa14610a615780633eb33f1814610a075780633ff5aa021461096d57806340db3b501461089a5780635786cdd11461087c5780635f8dead31461058a57806367eeba0c1461085d578063715018a61461080357806384e798421461072d5780638baf29b4146105bb5780638d2ea7721461058a5780638da5cb5b1461056257806393e62f071461053957806397a6278e1461045b578063993e8b9514610435578063b20d30a9146103e8578063cdde293214610326578063e46638e6146102ff578063f2fde38b1461023b578063f3533c35146101ec5763ff3e69541461012157600080fd5b346101e857602090816003193601126101e45761013c610ac9565b610144610b19565b6001600160a01b0316808452600283528484205490919060ff166101a357508293817fd62c45e13ac30396aceb3ad37c89bd1ba9048032fe61679000e92eb93dbfd67d945260028352808520600160ff1982541617905551908152a180f35b606490838087519262461bcd60e51b845283015260248201527f54686973204167656e7420697320616c726561647920726567697374657265646044820152fd5b8280fd5b5080fd5b508290346101e45760203660031901126101e4577fa07146b9a6c51d225299132338965ae84effc4d198b875827574655eb59eb2a891602091359061022f610b19565b8160055551908152a180f35b508290346101e45760203660031901126101e457610257610ac9565b90610260610b19565b6001600160a01b039182169283156102ad57505082546001600160a01b0319811683178455167f8be0079c531659141344cd1fd0a4f28419497f9722a3daafe3b4186f6b6457e08380a380f35b906020608492519162461bcd60e51b8352820152602660248201527f4f776e61626c653a206e6577206f776e657220697320746865207a65726f206160448201526564647265737360d01b6064820152fd5b8284346101e85760209061031d61031536610ae4565b919050610fa1565b90519015158152f35b50346101e857602090816003193601126101e457610342610ac9565b61034a610b19565b6001600160a01b0316808452600283528484205490919060ff16156103a757508293817f6a659bb87bb23efbdc295f8eed8ae8c4379bfb77660ced2ef0f3d7d26b05c6a694526002835280852060ff19815416905551908152a180f35b606490838087519262461bcd60e51b845283015260248201527f54686973204167656e74206973206e6f742072656769737465726564207965746044820152fd5b5082346101e45760203660031901126101e457816020917f6cd8635c4285386b9de2e59a4c1eaf32ad41f28ae64c308280217d7af51464e09335809261042c610b19565b5551908152a180f35b8284346101e85760203660031901126101e85760209061031d610456610ac9565b610caa565b508290346101e45760203660031901126101e457610477610ac9565b90610480610b19565b6001600160a01b03821692610496841515610fb5565b61049f83611001565b156104ec5750506001600160a01b03166000908152600160205260409020805460ff191690557fed9c8ad8d5a0a66898ea49d2956929c93ae2e8bd50281b2ed897c5d1a6737e0b8280a280f35b906020608492519162461bcd60e51b8352820152602160248201527f526f6c65733a206163636f756e7420646f6573206e6f74206861766520726f6c6044820152606560f81b6064820152fd5b8284346101e857816003193601126101e85760035490516001600160a01b039091168152602090f35b8284346101e857816003193601126101e857905490516001600160a01b039091168152602090f35b8284346101e8573660031901126105b8576105a3610ac9565b506105b56105b033610caa565b610f23565b80f35b80fd5b5082346101e4576105e4916105cf36610ae4565b949190506105df6105b033610caa565b610e2f565b6001600160a01b0381166000908152600660205260409020600201544210156106fd575b6001600160a01b0381166000908152600660205260409020600301544210156106b7575b60018060a01b031690818552600660205261064a8484872054610cc9565b9054101561069a575b808452600660205261066b8360018487200154610cc9565b6005541015610678578380f35b6106919160019185526006602052842001918254610cc9565b90558180808380f35b80845260066020528184206106b0848254610cc9565b9055610653565b62278d0042018042116106ea576001600160a01b038216865260066020528386206003015582852060010185905561062c565b634e487b7160e01b865260118352602486fd5b6201518042018042116106ea576001600160a01b0382168652600660205283862060020155828520859055610608565b508290346101e45760203660031901126101e457610749610ac9565b90610752610b19565b6001600160a01b03821692610768841515610fb5565b61077183611001565b6107c05750506001600160a01b03166000908152600160205260409020805460ff191660011790557ff68e73cec97f2d70aa641fb26e87a4383686e2efacb648f2165aeb02ac562ec58280a280f35b906020606492519162461bcd60e51b8352820152601f60248201527f526f6c65733a206163636f756e7420616c72656164792068617320726f6c65006044820152fd5b82346105b857806003193601126105b85761081c610b19565b80546001600160a01b03198116825581906001600160a01b03167f8be0079c531659141344cd1fd0a4f28419497f9722a3daafe3b4186f6b6457e08280a380f35b508290346101e457826003193601126101e45760209250549051908152f35b8284346101e85760209061031d61089236610ae4565b919050610cec565b5082346101e45760203660031901126101e4576108b5610ac9565b83546001600160a01b039390841633148015610962575b6108d590610b71565b836003549216938216840361091f57506001600160a01b031916600355519081527f28a4ca7134a3b3f9aff286e79ad3daadb4a06d1b43d037a3a98bdc074edd9b7a90602090a180f35b606490602084519162461bcd60e51b8352820152601760248201527f5468697320746f6b656e206973206e6f7420626f756e640000000000000000006044820152fd5b5033828516146108cc565b8284346101e85760203660031901126101e85760207f2de35142b19ed5a07796cf30791959c592018f70b1d2d7c460eef8ffe713692b916109ac610ac9565b84546001600160a01b0391908216331480156109ef575b6109cc90610b71565b1690816bffffffffffffffffffffffff60a01b600354161760035551908152a180f35b5081600354161580156109c3575033818316146109c3565b8284346101e85760203660031901126101e85760809181906001600160a01b03610a2f610ac9565b168152600660205220908154916001810154916003600283015492015492815194855260208501528301526060820152f35b8284346101e85760203660031901126101e85760209061031d610a82610ac9565b610bf5565b8284346101e85760203660031901126101e85760209061031d610aa8610ac9565b611001565b8390346101e857816003193601126101e8576020906005548152f35b600435906001600160a01b0382168203610adf57565b600080fd5b6060906003190112610adf576001600160a01b03906004358281168103610adf57916024359081168103610adf579060443590565b6000546001600160a01b03163303610b2d57565b606460405162461bcd60e51b815260206004820152602060248201527f4f776e61626c653a2063616c6c6572206973206e6f7420746865206f776e65726044820152fd5b15610b7857565b60405162461bcd60e51b815260206004820152601c60248201527f6f6e6c79206f776e6572206f7220746f6b656e2063616e2063616c6c000000006044820152606490fd5b90601f8019910116810190811067ffffffffffffffff821117610bdf57604052565b634e487b7160e01b600052604160045260246000fd5b60018060a01b0380911690600091808352600260205260ff604084205416159182610c2a575b5050610c275750600190565b90565b602091925060035416916024604051809481936307feec1960e21b835260048301525afa908115610c9f578291610c65575b50153880610c1b565b90506020813d8211610c97575b81610c7f60209383610bbd565b810103126101e8575180151581036101e85738610c5c565b3d9150610c72565b6040513d84823e3d90fd5b6003546001600160a01b03908116911603610cc457600190565b600090565b91908201809211610cd657565b634e487b7160e01b600052601160045260246000fd5b90610cff610cf983610e2f565b92610bf5565b15610d0c575b5050600190565b600454808211610e27576001600160a01b03831660009081526006602052604090206002015442109081610dca575b50610dc3576001600160a01b0382166000908152600660205260409020600201544210159081610d92575b50610d715780610d05565b6001600160a01b031660009081526006602052604090206003015442101590565b6001600160a01b038316600090815260066020526040902060010154610db9925090610cc9565b6005541038610d66565b5050600090565b6001600160a01b038416600081815260066020526040902054909250610df1908490610cc9565b11908115610e01575b5038610d3b565b90506000526006602052610e1d81600160406000200154610cc9565b6005541038610dfa565b505050600090565b6003546040516304d3863d60e21b81526001600160a01b039260209283908390600490829088165afa918215610ed75783918591600094610ee3575b50604051633c3ad79560e21b815290821660048201529283916024918391165afa918215610ed757600092610ea1575b50501690565b81813d8311610ed0575b610eb58183610bbd565b810103126101e857519082821682036105b857503880610e9b565b503d610eab565b6040513d6000823e3d90fd5b809250839194933d8311610f1c575b610efc8183610bbd565b810103126101e857519084821682036105b8575083602484929390610e6b565b503d610ef2565b15610f2a57565b60a460405162461bcd60e51b815260206004820152604460248201527f6572726f72203a20746869732061646472657373206973206e6f74206120746f60448201527f6b656e20626f756e6420746f2074686520636f6d706c69616e636520636f6e746064820152631c9858dd60e21b6084820152fd5b90610fab91610cec565b15610cc457600190565b15610fbc57565b60405162461bcd60e51b815260206004820152601f60248201527f696e76616c696420617267756d656e74202d207a65726f2061646472657373006044820152606490fd5b6001600160a01b0316801561102457600052600160205260ff6040600020541690565b60405162461bcd60e51b815260206004820152602260248201527f526f6c65733a206163636f756e7420697320746865207a65726f206164647265604482015261737360f01b6064820152608490fdfea2646970667358221220e8d735eecefa72059c6540c9233cbb8d5a13b565750d934c2226ebad8b50a70e64736f6c63430008110033",
  "linkReferences": {},
  "deployedLinkReferences": {}
}